{
  "abi": [
    {
      "inputs": [],
      "stateMutability": "nonpayable",
      "type": "constructor"
    },
    {
      "inputs": [
        {
          "internalType": "address",
          "name": "_manager",
          "type": "address"
        },
        {
          "internalType": "address",
          "name": "_client",
          "type": "address"
        },
        {
          "internalType": "address",
          "name": "_payee",
          "type": "address"
        },
        {
          "internalType": "uint256",
          "name": "_createdOn",
          "type": "uint256"
        },
        {
          "internalType": "uint256",
          "name": "_expiredOn",
          "type": "uint256"
        },
        {
          "internalType": "uint256",
          "name": "_prevBillingDate",
          "type": "uint256"
        },
        {
          "internalType": "uint256",
          "name": "_nextBillingDate",
          "type": "uint256"
        },
        {
          "internalType": "uint256",
          "name": "_contractHash",
          "type": "uint256"
        },
        {
          "internalType": "uint256",
          "name": "_amount",
          "type": "uint256"
        },
        {
          "internalType": "int256",
          "name": "_contractID",
          "type": "int256"
        }
      ],
      "name": "createContract",
      "outputs": [
        {
          "internalType": "int256",
          "name": "",
          "type": "int256"
        }
      ],
      "stateMutability": "nonpayable",
      "type": "function"
    },
    {
      "inputs": [],
      "name": "manager",
      "outputs": [
        {
          "internalType": "address",
          "name": "",
          "type": "address"
        }
      ],
      "stateMutability": "view",
      "type": "function"
    },
    {
      "inputs": [
        {
          "internalType": "uint256",
          "name": "",
          "type": "uint256"
        }
      ],
      "name": "vendors",
      "outputs": [
        {
          "internalType": "contract Vendor",
          "name": "",
          "type": "address"
        }
      ],
      "stateMutability": "view",
      "type": "function"
    }
  ],
  "devdoc": {
    "kind": "dev",
    "methods": {},
    "title": "Factory contract that creates new contracts with different conditions",
    "version": 1
  },
  "evm": {
    "assembly": "    /* \"VendorFactory.sol\":181:1220  contract VendorFactory {... */\n  mstore(0x40, 0x80)\n    /* \"VendorFactory.sol\":305:355  constructor(){... */\n  callvalue\n  dup1\n  iszero\n  tag_1\n  jumpi\n  0x00\n  dup1\n  revert\ntag_1:\n  pop\n    /* \"VendorFactory.sol\":338:348  msg.sender */\n  caller\n    /* \"VendorFactory.sol\":328:335  manager */\n  0x02\n  0x00\n    /* \"VendorFactory.sol\":328:348  manager = msg.sender */\n  0x0100\n  exp\n  dup2\n  sload\n  dup2\n  0xffffffffffffffffffffffffffffffffffffffff\n  mul\n  not\n  and\n  swap1\n  dup4\n  0xffffffffffffffffffffffffffffffffffffffff\n  and\n  mul\n  or\n  swap1\n  sstore\n  pop\n    /* \"VendorFactory.sol\":181:1220  contract VendorFactory {... */\n  dataSize(sub_0)\n  dup1\n  dataOffset(sub_0)\n  0x00\n  codecopy\n  0x00\n  return\nstop\n\nsub_0: assembly {\n        /* \"VendorFactory.sol\":181:1220  contract VendorFactory {... */\n      mstore(0x40, 0x80)\n      callvalue\n      dup1\n      iszero\n      tag_1\n      jumpi\n      0x00\n      dup1\n      revert\n    tag_1:\n      pop\n      jumpi(tag_2, lt(calldatasize, 0x04))\n      shr(0xe0, calldataload(0x00))\n      dup1\n      0x286df805\n      eq\n      tag_3\n      jumpi\n      dup1\n      0x481c6a75\n      eq\n      tag_4\n      jumpi\n      dup1\n      0xa08d986d\n      eq\n      tag_5\n      jumpi\n    tag_2:\n      0x00\n      dup1\n      revert\n        /* \"VendorFactory.sol\":361:1218  function createContract... */\n    tag_3:\n      tag_6\n      0x04\n      dup1\n      calldatasize\n      sub\n      dup2\n      add\n      swap1\n      tag_7\n      swap2\n      swap1\n      tag_8\n      jump\t// in\n    tag_7:\n      tag_9\n      jump\t// in\n    tag_6:\n      mload(0x40)\n      tag_10\n      swap2\n      swap1\n      tag_11\n      jump\t// in\n    tag_10:\n      mload(0x40)\n      dup1\n      swap2\n      sub\n      swap1\n      return\n        /* \"VendorFactory.sol\":276:298  address public manager */\n    tag_4:\n      tag_12\n      tag_13\n      jump\t// in\n    tag_12:\n      mload(0x40)\n      tag_14\n      swap2\n      swap1\n      tag_15\n      jump\t// in\n    tag_14:\n      mload(0x40)\n      dup1\n      swap2\n      sub\n      swap1\n      return\n        /* \"VendorFactory.sol\":210:233  Vendor[] public vendors */\n    tag_5:\n      tag_16\n      0x04\n      dup1\n      calldatasize\n      sub\n      dup2\n      add\n      swap1\n      tag_17\n      swap2\n      swap1\n      tag_18\n      jump\t// in\n    tag_17:\n      tag_19\n      jump\t// in\n    tag_16:\n      mload(0x40)\n      tag_20\n      swap2\n      swap1\n      tag_21\n      jump\t// in\n    tag_20:\n      mload(0x40)\n      dup1\n      swap2\n      sub\n      swap1\n      return\n        /* \"VendorFactory.sol\":361:1218  function createContract... */\n    tag_9:\n        /* \"VendorFactory.sol\":685:688  int */\n      0x00\n        /* \"VendorFactory.sol\":700:716  Vendor newVendor */\n      dup1\n        /* \"VendorFactory.sol\":731:738  _client */\n      dup11\n        /* \"VendorFactory.sol\":740:748  _manager */\n      dup13\n        /* \"VendorFactory.sol\":750:756  _payee */\n      dup12\n        /* \"VendorFactory.sol\":758:768  _createdOn */\n      dup12\n        /* \"VendorFactory.sol\":770:780  _expiredOn */\n      dup12\n        /* \"VendorFactory.sol\":782:798  _prevBillingDate */\n      dup12\n        /* \"VendorFactory.sol\":800:816  _nextBillingDate */\n      dup12\n        /* \"VendorFactory.sol\":818:831  _contractHash */\n      dup12\n        /* \"VendorFactory.sol\":833:840  _amount */\n      dup12\n        /* \"VendorFactory.sol\":719:841  new Vendor( _client, _manager, _payee, _createdOn, _expiredOn, _prevBillingDate, _nextBillingDate, _contractHash, _amount) */\n      mload(0x40)\n      tag_23\n      swap1\n      tag_24\n      jump\t// in\n    tag_23:\n      tag_25\n      swap10\n      swap9\n      swap8\n      swap7\n      swap6\n      swap5\n      swap4\n      swap3\n      swap2\n      swap1\n      tag_26\n      jump\t// in\n    tag_25:\n      mload(0x40)\n      dup1\n      swap2\n      sub\n      swap1\n      0x00\n      create\n      dup1\n      iszero\n      dup1\n      iszero\n      tag_27\n      jumpi\n      returndatasize\n      0x00\n      dup1\n      returndatacopy\n      revert(0x00, returndatasize)\n    tag_27:\n      pop\n        /* \"VendorFactory.sol\":700:841  Vendor newVendor = new Vendor( _client, _manager, _payee, _createdOn, _expiredOn, _prevBillingDate, _nextBillingDate, _contractHash, _amount) */\n      swap1\n      pop\n        /* \"VendorFactory.sol\":959:961  -1 */\n      0xffffffffffffffffffffffffffffffffffffffffffffffffffffffffffffffff\n        /* \"VendorFactory.sol\":944:955  _contractID */\n      dup4\n        /* \"VendorFactory.sol\":944:961  _contractID == -1 */\n      eq\n        /* \"VendorFactory.sol\":940:1057  if (_contractID == -1) {... */\n      iszero\n      tag_28\n      jumpi\n        /* \"VendorFactory.sol\":977:984  vendors */\n      0x00\n        /* \"VendorFactory.sol\":990:999  newVendor */\n      dup2\n        /* \"VendorFactory.sol\":977:1000  vendors.push(newVendor) */\n      swap1\n      dup1\n      0x01\n      dup2\n      sload\n      add\n      dup1\n      dup3\n      sstore\n      dup1\n      swap2\n      pop\n      pop\n      0x01\n      swap1\n      sub\n      swap1\n      0x00\n      mstore\n      keccak256(0x00, 0x20)\n      add\n      0x00\n      swap1\n      swap2\n      swap1\n      swap2\n      swap1\n      swap2\n      0x0100\n      exp\n      dup2\n      sload\n      dup2\n      0xffffffffffffffffffffffffffffffffffffffff\n      mul\n      not\n      and\n      swap1\n      dup4\n      0xffffffffffffffffffffffffffffffffffffffff\n      and\n      mul\n      or\n      swap1\n      sstore\n      pop\n        /* \"VendorFactory.sol\":1043:1044  1 */\n      0x01\n        /* \"VendorFactory.sol\":1026:1033  vendors */\n      0x00\n        /* \"VendorFactory.sol\":1026:1040  vendors.length */\n      dup1\n      sload\n      swap1\n      pop\n        /* \"VendorFactory.sol\":1026:1044  vendors.length - 1 */\n      tag_30\n      swap2\n      swap1\n      tag_31\n      jump\t// in\n    tag_30:\n        /* \"VendorFactory.sol\":1014:1046  return (int(vendors.length - 1)) */\n      swap2\n      pop\n      pop\n      jump(tag_22)\n        /* \"VendorFactory.sol\":940:1057  if (_contractID == -1) {... */\n    tag_28:\n        /* \"VendorFactory.sol\":1173:1182  newVendor */\n      dup1\n        /* \"VendorFactory.sol\":1144:1151  vendors */\n      0x00\n        /* \"VendorFactory.sol\":1157:1168  _contractID */\n      dup5\n        /* \"VendorFactory.sol\":1144:1170  vendors[uint(_contractID)] */\n      dup2\n      sload\n      dup2\n      lt\n      tag_32\n      jumpi\n      tag_33\n      tag_34\n      jump\t// in\n    tag_33:\n    tag_32:\n      swap1\n      0x00\n      mstore\n      keccak256(0x00, 0x20)\n      add\n      0x00\n        /* \"VendorFactory.sol\":1144:1182  vendors[uint(_contractID)] = newVendor */\n      0x0100\n      exp\n      dup2\n      sload\n      dup2\n      0xffffffffffffffffffffffffffffffffffffffff\n      mul\n      not\n      and\n      swap1\n      dup4\n      0xffffffffffffffffffffffffffffffffffffffff\n      and\n      mul\n      or\n      swap1\n      sstore\n      pop\n        /* \"VendorFactory.sol\":1200:1211  _contractID */\n      dup3\n        /* \"VendorFactory.sol\":1193:1211  return _contractID */\n      swap2\n      pop\n      pop\n        /* \"VendorFactory.sol\":361:1218  function createContract... */\n    tag_22:\n      swap11\n      swap10\n      pop\n      pop\n      pop\n      pop\n      pop\n      pop\n      pop\n      pop\n      pop\n      pop\n      jump\t// out\n        /* \"VendorFactory.sol\":276:298  address public manager */\n    tag_13:\n      0x02\n      0x00\n      swap1\n      sload\n      swap1\n      0x0100\n      exp\n      swap1\n      div\n      0xffffffffffffffffffffffffffffffffffffffff\n      and\n      dup2\n      jump\t// out\n        /* \"VendorFactory.sol\":210:233  Vendor[] public vendors */\n    tag_19:\n      0x00\n      dup2\n      dup2\n      sload\n      dup2\n      lt\n      tag_36\n      jumpi\n      0x00\n      dup1\n      revert\n    tag_36:\n      swap1\n      0x00\n      mstore\n      keccak256(0x00, 0x20)\n      add\n      0x00\n      swap2\n      pop\n      sload\n      swap1\n      0x0100\n      exp\n      swap1\n      div\n      0xffffffffffffffffffffffffffffffffffffffff\n      and\n      dup2\n      jump\t// out\n    tag_24:\n      dataSize(sub_0)\n      dup1\n      dataOffset(sub_0)\n      dup4\n      codecopy\n      add\n      swap1\n      jump\t// out\n        /* \"#utility.yul\":7:146   */\n    tag_39:\n        /* \"#utility.yul\":53:58   */\n      0x00\n        /* \"#utility.yul\":91:97   */\n      dup2\n        /* \"#utility.yul\":78:98   */\n      calldataload\n        /* \"#utility.yul\":69:98   */\n      swap1\n      pop\n        /* \"#utility.yul\":107:140   */\n      tag_41\n        /* \"#utility.yul\":134:139   */\n      dup2\n        /* \"#utility.yul\":107:140   */\n      tag_42\n      jump\t// in\n    tag_41:\n        /* \"#utility.yul\":59:146   */\n      swap3\n      swap2\n      pop\n      pop\n      jump\t// out\n        /* \"#utility.yul\":152:289   */\n    tag_43:\n        /* \"#utility.yul\":197:202   */\n      0x00\n        /* \"#utility.yul\":235:241   */\n      dup2\n        /* \"#utility.yul\":222:242   */\n      calldataload\n        /* \"#utility.yul\":213:242   */\n      swap1\n      pop\n        /* \"#utility.yul\":251:283   */\n      tag_45\n        /* \"#utility.yul\":277:282   */\n      dup2\n        /* \"#utility.yul\":251:283   */\n      tag_46\n      jump\t// in\n    tag_45:\n        /* \"#utility.yul\":203:289   */\n      swap3\n      swap2\n      pop\n      pop\n      jump\t// out\n        /* \"#utility.yul\":295:434   */\n    tag_47:\n        /* \"#utility.yul\":341:346   */\n      0x00\n        /* \"#utility.yul\":379:385   */\n      dup2\n        /* \"#utility.yul\":366:386   */\n      calldataload\n        /* \"#utility.yul\":357:386   */\n      swap1\n      pop\n        /* \"#utility.yul\":395:428   */\n      tag_49\n        /* \"#utility.yul\":422:427   */\n      dup2\n        /* \"#utility.yul\":395:428   */\n      tag_50\n      jump\t// in\n    tag_49:\n        /* \"#utility.yul\":347:434   */\n      swap3\n      swap2\n      pop\n      pop\n      jump\t// out\n        /* \"#utility.yul\":440:2079   */\n    tag_8:\n        /* \"#utility.yul\":579:585   */\n      0x00\n        /* \"#utility.yul\":587:593   */\n      dup1\n        /* \"#utility.yul\":595:601   */\n      0x00\n        /* \"#utility.yul\":603:609   */\n      dup1\n        /* \"#utility.yul\":611:617   */\n      0x00\n        /* \"#utility.yul\":619:625   */\n      dup1\n        /* \"#utility.yul\":627:633   */\n      0x00\n        /* \"#utility.yul\":635:641   */\n      dup1\n        /* \"#utility.yul\":643:649   */\n      0x00\n        /* \"#utility.yul\":651:657   */\n      dup1\n        /* \"#utility.yul\":700:703   */\n      0x0140\n        /* \"#utility.yul\":688:697   */\n      dup12\n        /* \"#utility.yul\":679:686   */\n      dup14\n        /* \"#utility.yul\":675:698   */\n      sub\n        /* \"#utility.yul\":671:704   */\n      slt\n        /* \"#utility.yul\":668:670   */\n      iszero\n      tag_52\n      jumpi\n        /* \"#utility.yul\":707:786   */\n      tag_53\n      tag_54\n      jump\t// in\n    tag_53:\n        /* \"#utility.yul\":668:670   */\n    tag_52:\n        /* \"#utility.yul\":827:828   */\n      0x00\n        /* \"#utility.yul\":852:905   */\n      tag_55\n        /* \"#utility.yul\":897:904   */\n      dup14\n        /* \"#utility.yul\":888:894   */\n      dup3\n        /* \"#utility.yul\":877:886   */\n      dup15\n        /* \"#utility.yul\":873:895   */\n      add\n        /* \"#utility.yul\":852:905   */\n      tag_39\n      jump\t// in\n    tag_55:\n        /* \"#utility.yul\":842:905   */\n      swap11\n      pop\n        /* \"#utility.yul\":798:915   */\n      pop\n        /* \"#utility.yul\":954:956   */\n      0x20\n        /* \"#utility.yul\":980:1033   */\n      tag_56\n        /* \"#utility.yul\":1025:1032   */\n      dup14\n        /* \"#utility.yul\":1016:1022   */\n      dup3\n        /* \"#utility.yul\":1005:1014   */\n      dup15\n        /* \"#utility.yul\":1001:1023   */\n      add\n        /* \"#utility.yul\":980:1033   */\n      tag_39\n      jump\t// in\n    tag_56:\n        /* \"#utility.yul\":970:1033   */\n      swap10\n      pop\n        /* \"#utility.yul\":925:1043   */\n      pop\n        /* \"#utility.yul\":1082:1084   */\n      0x40\n        /* \"#utility.yul\":1108:1161   */\n      tag_57\n        /* \"#utility.yul\":1153:1160   */\n      dup14\n        /* \"#utility.yul\":1144:1150   */\n      dup3\n        /* \"#utility.yul\":1133:1142   */\n      dup15\n        /* \"#utility.yul\":1129:1151   */\n      add\n        /* \"#utility.yul\":1108:1161   */\n      tag_39\n      jump\t// in\n    tag_57:\n        /* \"#utility.yul\":1098:1161   */\n      swap9\n      pop\n        /* \"#utility.yul\":1053:1171   */\n      pop\n        /* \"#utility.yul\":1210:1212   */\n      0x60\n        /* \"#utility.yul\":1236:1289   */\n      tag_58\n        /* \"#utility.yul\":1281:1288   */\n      dup14\n        /* \"#utility.yul\":1272:1278   */\n      dup3\n        /* \"#utility.yul\":1261:1270   */\n      dup15\n        /* \"#utility.yul\":1257:1279   */\n      add\n        /* \"#utility.yul\":1236:1289   */\n      tag_47\n      jump\t// in\n    tag_58:\n        /* \"#utility.yul\":1226:1289   */\n      swap8\n      pop\n        /* \"#utility.yul\":1181:1299   */\n      pop\n        /* \"#utility.yul\":1338:1341   */\n      0x80\n        /* \"#utility.yul\":1365:1418   */\n      tag_59\n        /* \"#utility.yul\":1410:1417   */\n      dup14\n        /* \"#utility.yul\":1401:1407   */\n      dup3\n        /* \"#utility.yul\":1390:1399   */\n      dup15\n        /* \"#utility.yul\":1386:1408   */\n      add\n        /* \"#utility.yul\":1365:1418   */\n      tag_47\n      jump\t// in\n    tag_59:\n        /* \"#utility.yul\":1355:1418   */\n      swap7\n      pop\n        /* \"#utility.yul\":1309:1428   */\n      pop\n        /* \"#utility.yul\":1467:1470   */\n      0xa0\n        /* \"#utility.yul\":1494:1547   */\n      tag_60\n        /* \"#utility.yul\":1539:1546   */\n      dup14\n        /* \"#utility.yul\":1530:1536   */\n      dup3\n        /* \"#utility.yul\":1519:1528   */\n      dup15\n        /* \"#utility.yul\":1515:1537   */\n      add\n        /* \"#utility.yul\":1494:1547   */\n      tag_47\n      jump\t// in\n    tag_60:\n        /* \"#utility.yul\":1484:1547   */\n      swap6\n      pop\n        /* \"#utility.yul\":1438:1557   */\n      pop\n        /* \"#utility.yul\":1596:1599   */\n      0xc0\n        /* \"#utility.yul\":1623:1676   */\n      tag_61\n        /* \"#utility.yul\":1668:1675   */\n      dup14\n        /* \"#utility.yul\":1659:1665   */\n      dup3\n        /* \"#utility.yul\":1648:1657   */\n      dup15\n        /* \"#utility.yul\":1644:1666   */\n      add\n        /* \"#utility.yul\":1623:1676   */\n      tag_47\n      jump\t// in\n    tag_61:\n        /* \"#utility.yul\":1613:1676   */\n      swap5\n      pop\n        /* \"#utility.yul\":1567:1686   */\n      pop\n        /* \"#utility.yul\":1725:1728   */\n      0xe0\n        /* \"#utility.yul\":1752:1805   */\n      tag_62\n        /* \"#utility.yul\":1797:1804   */\n      dup14\n        /* \"#utility.yul\":1788:1794   */\n      dup3\n        /* \"#utility.yul\":1777:1786   */\n      dup15\n        /* \"#utility.yul\":1773:1795   */\n      add\n        /* \"#utility.yul\":1752:1805   */\n      tag_47\n      jump\t// in\n    tag_62:\n        /* \"#utility.yul\":1742:1805   */\n      swap4\n      pop\n        /* \"#utility.yul\":1696:1815   */\n      pop\n        /* \"#utility.yul\":1854:1857   */\n      0x0100\n        /* \"#utility.yul\":1881:1934   */\n      tag_63\n        /* \"#utility.yul\":1926:1933   */\n      dup14\n        /* \"#utility.yul\":1917:1923   */\n      dup3\n        /* \"#utility.yul\":1906:1915   */\n      dup15\n        /* \"#utility.yul\":1902:1924   */\n      add\n        /* \"#utility.yul\":1881:1934   */\n      tag_47\n      jump\t// in\n    tag_63:\n        /* \"#utility.yul\":1871:1934   */\n      swap3\n      pop\n        /* \"#utility.yul\":1825:1944   */\n      pop\n        /* \"#utility.yul\":1983:1986   */\n      0x0120\n        /* \"#utility.yul\":2010:2062   */\n      tag_64\n        /* \"#utility.yul\":2054:2061   */\n      dup14\n        /* \"#utility.yul\":2045:2051   */\n      dup3\n        /* \"#utility.yul\":2034:2043   */\n      dup15\n        /* \"#utility.yul\":2030:2052   */\n      add\n        /* \"#utility.yul\":2010:2062   */\n      tag_43\n      jump\t// in\n    tag_64:\n        /* \"#utility.yul\":2000:2062   */\n      swap2\n      pop\n        /* \"#utility.yul\":1954:2072   */\n      pop\n        /* \"#utility.yul\":658:2079   */\n      swap3\n      swap6\n      swap9\n      swap12\n      swap2\n      swap5\n      swap8\n      swap11\n      pop\n      swap3\n      swap6\n      swap9\n      pop\n      jump\t// out\n        /* \"#utility.yul\":2085:2414   */\n    tag_18:\n        /* \"#utility.yul\":2144:2150   */\n      0x00\n        /* \"#utility.yul\":2193:2195   */\n      0x20\n        /* \"#utility.yul\":2181:2190   */\n      dup3\n        /* \"#utility.yul\":2172:2179   */\n      dup5\n        /* \"#utility.yul\":2168:2191   */\n      sub\n        /* \"#utility.yul\":2164:2196   */\n      slt\n        /* \"#utility.yul\":2161:2163   */\n      iszero\n      tag_66\n      jumpi\n        /* \"#utility.yul\":2199:2278   */\n      tag_67\n      tag_54\n      jump\t// in\n    tag_67:\n        /* \"#utility.yul\":2161:2163   */\n    tag_66:\n        /* \"#utility.yul\":2319:2320   */\n      0x00\n        /* \"#utility.yul\":2344:2397   */\n      tag_68\n        /* \"#utility.yul\":2389:2396   */\n      dup5\n        /* \"#utility.yul\":2380:2386   */\n      dup3\n        /* \"#utility.yul\":2369:2378   */\n      dup6\n        /* \"#utility.yul\":2365:2387   */\n      add\n        /* \"#utility.yul\":2344:2397   */\n      tag_47\n      jump\t// in\n    tag_68:\n        /* \"#utility.yul\":2334:2397   */\n      swap2\n      pop\n        /* \"#utility.yul\":2290:2407   */\n      pop\n        /* \"#utility.yul\":2151:2414   */\n      swap3\n      swap2\n      pop\n      pop\n      jump\t// out\n        /* \"#utility.yul\":2420:2538   */\n    tag_69:\n        /* \"#utility.yul\":2507:2531   */\n      tag_71\n        /* \"#utility.yul\":2525:2530   */\n      dup2\n        /* \"#utility.yul\":2507:2531   */\n      tag_72\n      jump\t// in\n    tag_71:\n        /* \"#utility.yul\":2502:2505   */\n      dup3\n        /* \"#utility.yul\":2495:2532   */\n      mstore\n        /* \"#utility.yul\":2485:2538   */\n      pop\n      pop\n      jump\t// out\n        /* \"#utility.yul\":2544:2703   */\n    tag_73:\n        /* \"#utility.yul\":2645:2696   */\n      tag_75\n        /* \"#utility.yul\":2690:2695   */\n      dup2\n        /* \"#utility.yul\":2645:2696   */\n      tag_76\n      jump\t// in\n    tag_75:\n        /* \"#utility.yul\":2640:2643   */\n      dup3\n        /* \"#utility.yul\":2633:2697   */\n      mstore\n        /* \"#utility.yul\":2623:2703   */\n      pop\n      pop\n      jump\t// out\n        /* \"#utility.yul\":2709:2824   */\n    tag_77:\n        /* \"#utility.yul\":2794:2817   */\n      tag_79\n        /* \"#utility.yul\":2811:2816   */\n      dup2\n        /* \"#utility.yul\":2794:2817   */\n      tag_80\n      jump\t// in\n    tag_79:\n        /* \"#utility.yul\":2789:2792   */\n      dup3\n        /* \"#utility.yul\":2782:2818   */\n      mstore\n        /* \"#utility.yul\":2772:2824   */\n      pop\n      pop\n      jump\t// out\n        /* \"#utility.yul\":2830:2948   */\n    tag_81:\n        /* \"#utility.yul\":2917:2941   */\n      tag_83\n        /* \"#utility.yul\":2935:2940   */\n      dup2\n        /* \"#utility.yul\":2917:2941   */\n      tag_84\n      jump\t// in\n    tag_83:\n        /* \"#utility.yul\":2912:2915   */\n      dup3\n        /* \"#utility.yul\":2905:2942   */\n      mstore\n        /* \"#utility.yul\":2895:2948   */\n      pop\n      pop\n      jump\t// out\n        /* \"#utility.yul\":2954:3176   */\n    tag_15:\n        /* \"#utility.yul\":3047:3051   */\n      0x00\n        /* \"#utility.yul\":3085:3087   */\n      0x20\n        /* \"#utility.yul\":3074:3083   */\n      dup3\n        /* \"#utility.yul\":3070:3088   */\n      add\n        /* \"#utility.yul\":3062:3088   */\n      swap1\n      pop\n        /* \"#utility.yul\":3098:3169   */\n      tag_86\n        /* \"#utility.yul\":3166:3167   */\n      0x00\n        /* \"#utility.yul\":3155:3164   */\n      dup4\n        /* \"#utility.yul\":3151:3168   */\n      add\n        /* \"#utility.yul\":3142:3148   */\n      dup5\n        /* \"#utility.yul\":3098:3169   */\n      tag_69\n      jump\t// in\n    tag_86:\n        /* \"#utility.yul\":3052:3176   */\n      swap3\n      swap2\n      pop\n      pop\n      jump\t// out\n        /* \"#utility.yul\":3182:4290   */\n    tag_26:\n        /* \"#utility.yul\":3499:3503   */\n      0x00\n        /* \"#utility.yul\":3537:3540   */\n      0x0120\n        /* \"#utility.yul\":3526:3535   */\n      dup3\n        /* \"#utility.yul\":3522:3541   */\n      add\n        /* \"#utility.yul\":3514:3541   */\n      swap1\n      pop\n        /* \"#utility.yul\":3551:3622   */\n      tag_88\n        /* \"#utility.yul\":3619:3620   */\n      0x00\n        /* \"#utility.yul\":3608:3617   */\n      dup4\n        /* \"#utility.yul\":3604:3621   */\n      add\n        /* \"#utility.yul\":3595:3601   */\n      dup13\n        /* \"#utility.yul\":3551:3622   */\n      tag_69\n      jump\t// in\n    tag_88:\n        /* \"#utility.yul\":3632:3704   */\n      tag_89\n        /* \"#utility.yul\":3700:3702   */\n      0x20\n        /* \"#utility.yul\":3689:3698   */\n      dup4\n        /* \"#utility.yul\":3685:3703   */\n      add\n        /* \"#utility.yul\":3676:3682   */\n      dup12\n        /* \"#utility.yul\":3632:3704   */\n      tag_69\n      jump\t// in\n    tag_89:\n        /* \"#utility.yul\":3714:3786   */\n      tag_90\n        /* \"#utility.yul\":3782:3784   */\n      0x40\n        /* \"#utility.yul\":3771:3780   */\n      dup4\n        /* \"#utility.yul\":3767:3785   */\n      add\n        /* \"#utility.yul\":3758:3764   */\n      dup11\n        /* \"#utility.yul\":3714:3786   */\n      tag_69\n      jump\t// in\n    tag_90:\n        /* \"#utility.yul\":3796:3868   */\n      tag_91\n        /* \"#utility.yul\":3864:3866   */\n      0x60\n        /* \"#utility.yul\":3853:3862   */\n      dup4\n        /* \"#utility.yul\":3849:3867   */\n      add\n        /* \"#utility.yul\":3840:3846   */\n      dup10\n        /* \"#utility.yul\":3796:3868   */\n      tag_81\n      jump\t// in\n    tag_91:\n        /* \"#utility.yul\":3878:3951   */\n      tag_92\n        /* \"#utility.yul\":3946:3949   */\n      0x80\n        /* \"#utility.yul\":3935:3944   */\n      dup4\n        /* \"#utility.yul\":3931:3950   */\n      add\n        /* \"#utility.yul\":3922:3928   */\n      dup9\n        /* \"#utility.yul\":3878:3951   */\n      tag_81\n      jump\t// in\n    tag_92:\n        /* \"#utility.yul\":3961:4034   */\n      tag_93\n        /* \"#utility.yul\":4029:4032   */\n      0xa0\n        /* \"#utility.yul\":4018:4027   */\n      dup4\n        /* \"#utility.yul\":4014:4033   */\n      add\n        /* \"#utility.yul\":4005:4011   */\n      dup8\n        /* \"#utility.yul\":3961:4034   */\n      tag_81\n      jump\t// in\n    tag_93:\n        /* \"#utility.yul\":4044:4117   */\n      tag_94\n        /* \"#utility.yul\":4112:4115   */\n      0xc0\n        /* \"#utility.yul\":4101:4110   */\n      dup4\n        /* \"#utility.yul\":4097:4116   */\n      add\n        /* \"#utility.yul\":4088:4094   */\n      dup7\n        /* \"#utility.yul\":4044:4117   */\n      tag_81\n      jump\t// in\n    tag_94:\n        /* \"#utility.yul\":4127:4200   */\n      tag_95\n        /* \"#utility.yul\":4195:4198   */\n      0xe0\n        /* \"#utility.yul\":4184:4193   */\n      dup4\n        /* \"#utility.yul\":4180:4199   */\n      add\n        /* \"#utility.yul\":4171:4177   */\n      dup6\n        /* \"#utility.yul\":4127:4200   */\n      tag_81\n      jump\t// in\n    tag_95:\n        /* \"#utility.yul\":4210:4283   */\n      tag_96\n        /* \"#utility.yul\":4278:4281   */\n      0x0100\n        /* \"#utility.yul\":4267:4276   */\n      dup4\n        /* \"#utility.yul\":4263:4282   */\n      add\n        /* \"#utility.yul\":4254:4260   */\n      dup5\n        /* \"#utility.yul\":4210:4283   */\n      tag_81\n      jump\t// in\n    tag_96:\n        /* \"#utility.yul\":3504:4290   */\n      swap11\n      swap10\n      pop\n      pop\n      pop\n      pop\n      pop\n      pop\n      pop\n      pop\n      pop\n      pop\n      jump\t// out\n        /* \"#utility.yul\":4296:4546   */\n    tag_21:\n        /* \"#utility.yul\":4403:4407   */\n      0x00\n        /* \"#utility.yul\":4441:4443   */\n      0x20\n        /* \"#utility.yul\":4430:4439   */\n      dup3\n        /* \"#utility.yul\":4426:4444   */\n      add\n        /* \"#utility.yul\":4418:4444   */\n      swap1\n      pop\n        /* \"#utility.yul\":4454:4539   */\n      tag_98\n        /* \"#utility.yul\":4536:4537   */\n      0x00\n        /* \"#utility.yul\":4525:4534   */\n      dup4\n        /* \"#utility.yul\":4521:4538   */\n      add\n        /* \"#utility.yul\":4512:4518   */\n      dup5\n        /* \"#utility.yul\":4454:4539   */\n      tag_73\n      jump\t// in\n    tag_98:\n        /* \"#utility.yul\":4408:4546   */\n      swap3\n      swap2\n      pop\n      pop\n      jump\t// out\n        /* \"#utility.yul\":4552:4770   */\n    tag_11:\n        /* \"#utility.yul\":4643:4647   */\n      0x00\n        /* \"#utility.yul\":4681:4683   */\n      0x20\n        /* \"#utility.yul\":4670:4679   */\n      dup3\n        /* \"#utility.yul\":4666:4684   */\n      add\n        /* \"#utility.yul\":4658:4684   */\n      swap1\n      pop\n        /* \"#utility.yul\":4694:4763   */\n      tag_100\n        /* \"#utility.yul\":4760:4761   */\n      0x00\n        /* \"#utility.yul\":4749:4758   */\n      dup4\n        /* \"#utility.yul\":4745:4762   */\n      add\n        /* \"#utility.yul\":4736:4742   */\n      dup5\n        /* \"#utility.yul\":4694:4763   */\n      tag_77\n      jump\t// in\n    tag_100:\n        /* \"#utility.yul\":4648:4770   */\n      swap3\n      swap2\n      pop\n      pop\n      jump\t// out\n        /* \"#utility.yul\":4857:5048   */\n    tag_31:\n        /* \"#utility.yul\":4897:4901   */\n      0x00\n        /* \"#utility.yul\":4917:4937   */\n      tag_104\n        /* \"#utility.yul\":4935:4936   */\n      dup3\n        /* \"#utility.yul\":4917:4937   */\n      tag_84\n      jump\t// in\n    tag_104:\n        /* \"#utility.yul\":4912:4937   */\n      swap2\n      pop\n        /* \"#utility.yul\":4951:4971   */\n      tag_105\n        /* \"#utility.yul\":4969:4970   */\n      dup4\n        /* \"#utility.yul\":4951:4971   */\n      tag_84\n      jump\t// in\n    tag_105:\n        /* \"#utility.yul\":4946:4971   */\n      swap3\n      pop\n        /* \"#utility.yul\":4990:4991   */\n      dup3\n        /* \"#utility.yul\":4987:4988   */\n      dup3\n        /* \"#utility.yul\":4984:4992   */\n      lt\n        /* \"#utility.yul\":4981:4983   */\n      iszero\n      tag_106\n      jumpi\n        /* \"#utility.yul\":4995:5013   */\n      tag_107\n      tag_108\n      jump\t// in\n    tag_107:\n        /* \"#utility.yul\":4981:4983   */\n    tag_106:\n        /* \"#utility.yul\":5040:5041   */\n      dup3\n        /* \"#utility.yul\":5037:5038   */\n      dup3\n        /* \"#utility.yul\":5033:5042   */\n      sub\n        /* \"#utility.yul\":5025:5042   */\n      swap1\n      pop\n        /* \"#utility.yul\":4902:5048   */\n      swap3\n      swap2\n      pop\n      pop\n      jump\t// out\n        /* \"#utility.yul\":5054:5150   */\n    tag_72:\n        /* \"#utility.yul\":5091:5098   */\n      0x00\n        /* \"#utility.yul\":5120:5144   */\n      tag_110\n        /* \"#utility.yul\":5138:5143   */\n      dup3\n        /* \"#utility.yul\":5120:5144   */\n      tag_111\n      jump\t// in\n    tag_110:\n        /* \"#utility.yul\":5109:5144   */\n      swap1\n      pop\n        /* \"#utility.yul\":5099:5150   */\n      swap2\n      swap1\n      pop\n      jump\t// out\n        /* \"#utility.yul\":5156:5232   */\n    tag_80:\n        /* \"#utility.yul\":5192:5199   */\n      0x00\n        /* \"#utility.yul\":5221:5226   */\n      dup2\n        /* \"#utility.yul\":5210:5226   */\n      swap1\n      pop\n        /* \"#utility.yul\":5200:5232   */\n      swap2\n      swap1\n      pop\n      jump\t// out\n        /* \"#utility.yul\":5238:5364   */\n    tag_111:\n        /* \"#utility.yul\":5275:5282   */\n      0x00\n        /* \"#utility.yul\":5315:5357   */\n      0xffffffffffffffffffffffffffffffffffffffff\n        /* \"#utility.yul\":5308:5313   */\n      dup3\n        /* \"#utility.yul\":5304:5358   */\n      and\n        /* \"#utility.yul\":5293:5358   */\n      swap1\n      pop\n        /* \"#utility.yul\":5283:5364   */\n      swap2\n      swap1\n      pop\n      jump\t// out\n        /* \"#utility.yul\":5370:5447   */\n    tag_84:\n        /* \"#utility.yul\":5407:5414   */\n      0x00\n        /* \"#utility.yul\":5436:5441   */\n      dup2\n        /* \"#utility.yul\":5425:5441   */\n      swap1\n      pop\n        /* \"#utility.yul\":5415:5447   */\n      swap2\n      swap1\n      pop\n      jump\t// out\n        /* \"#utility.yul\":5453:5607   */\n    tag_76:\n        /* \"#utility.yul\":5517:5526   */\n      0x00\n        /* \"#utility.yul\":5550:5601   */\n      tag_116\n        /* \"#utility.yul\":5595:5600   */\n      dup3\n        /* \"#utility.yul\":5550:5601   */\n      tag_117\n      jump\t// in\n    tag_116:\n        /* \"#utility.yul\":5537:5601   */\n      swap1\n      pop\n        /* \"#utility.yul\":5527:5607   */\n      swap2\n      swap1\n      pop\n      jump\t// out\n        /* \"#utility.yul\":5613:5740   */\n    tag_117:\n        /* \"#utility.yul\":5677:5686   */\n      0x00\n        /* \"#utility.yul\":5710:5734   */\n      tag_119\n        /* \"#utility.yul\":5728:5733   */\n      dup3\n        /* \"#utility.yul\":5710:5734   */\n      tag_111\n      jump\t// in\n    tag_119:\n        /* \"#utility.yul\":5697:5734   */\n      swap1\n      pop\n        /* \"#utility.yul\":5687:5740   */\n      swap2\n      swap1\n      pop\n      jump\t// out\n        /* \"#utility.yul\":5746:5926   */\n    tag_108:\n        /* \"#utility.yul\":5794:5871   */\n      0x4e487b7100000000000000000000000000000000000000000000000000000000\n        /* \"#utility.yul\":5791:5792   */\n      0x00\n        /* \"#utility.yul\":5784:5872   */\n      mstore\n        /* \"#utility.yul\":5891:5895   */\n      0x11\n        /* \"#utility.yul\":5888:5889   */\n      0x04\n        /* \"#utility.yul\":5881:5896   */\n      mstore\n        /* \"#utility.yul\":5915:5919   */\n      0x24\n        /* \"#utility.yul\":5912:5913   */\n      0x00\n        /* \"#utility.yul\":5905:5920   */\n      revert\n        /* \"#utility.yul\":5932:6112   */\n    tag_34:\n        /* \"#utility.yul\":5980:6057   */\n      0x4e487b7100000000000000000000000000000000000000000000000000000000\n        /* \"#utility.yul\":5977:5978   */\n      0x00\n        /* \"#utility.yul\":5970:6058   */\n      mstore\n        /* \"#utility.yul\":6077:6081   */\n      0x32\n        /* \"#utility.yul\":6074:6075   */\n      0x04\n        /* \"#utility.yul\":6067:6082   */\n      mstore\n        /* \"#utility.yul\":6101:6105   */\n      0x24\n        /* \"#utility.yul\":6098:6099   */\n      0x00\n        /* \"#utility.yul\":6091:6106   */\n      revert\n        /* \"#utility.yul\":6241:6358   */\n    tag_54:\n        /* \"#utility.yul\":6350:6351   */\n      0x00\n        /* \"#utility.yul\":6347:6348   */\n      dup1\n        /* \"#utility.yul\":6340:6352   */\n      revert\n        /* \"#utility.yul\":6364:6486   */\n    tag_42:\n        /* \"#utility.yul\":6437:6461   */\n      tag_126\n        /* \"#utility.yul\":6455:6460   */\n      dup2\n        /* \"#utility.yul\":6437:6461   */\n      tag_72\n      jump\t// in\n    tag_126:\n        /* \"#utility.yul\":6430:6435   */\n      dup2\n        /* \"#utility.yul\":6427:6462   */\n      eq\n        /* \"#utility.yul\":6417:6419   */\n      tag_127\n      jumpi\n        /* \"#utility.yul\":6476:6477   */\n      0x00\n        /* \"#utility.yul\":6473:6474   */\n      dup1\n        /* \"#utility.yul\":6466:6478   */\n      revert\n        /* \"#utility.yul\":6417:6419   */\n    tag_127:\n        /* \"#utility.yul\":6407:6486   */\n      pop\n      jump\t// out\n        /* \"#utility.yul\":6492:6612   */\n    tag_46:\n        /* \"#utility.yul\":6564:6587   */\n      tag_129\n        /* \"#utility.yul\":6581:6586   */\n      dup2\n        /* \"#utility.yul\":6564:6587   */\n      tag_80\n      jump\t// in\n    tag_129:\n        /* \"#utility.yul\":6557:6562   */\n      dup2\n        /* \"#utility.yul\":6554:6588   */\n      eq\n        /* \"#utility.yul\":6544:6546   */\n      tag_130\n      jumpi\n        /* \"#utility.yul\":6602:6603   */\n      0x00\n        /* \"#utility.yul\":6599:6600   */\n      dup1\n        /* \"#utility.yul\":6592:6604   */\n      revert\n        /* \"#utility.yul\":6544:6546   */\n    tag_130:\n        /* \"#utility.yul\":6534:6612   */\n      pop\n      jump\t// out\n        /* \"#utility.yul\":6618:6740   */\n    tag_50:\n        /* \"#utility.yul\":6691:6715   */\n      tag_132\n        /* \"#utility.yul\":6709:6714   */\n      dup2\n        /* \"#utility.yul\":6691:6715   */\n      tag_84\n      jump\t// in\n    tag_132:\n        /* \"#utility.yul\":6684:6689   */\n      dup2\n        /* \"#utility.yul\":6681:6716   */\n      eq\n        /* \"#utility.yul\":6671:6673   */\n      tag_133\n      jumpi\n        /* \"#utility.yul\":6730:6731   */\n      0x00\n        /* \"#utility.yul\":6727:6728   */\n      dup1\n        /* \"#utility.yul\":6720:6732   */\n      revert\n        /* \"#utility.yul\":6671:6673   */\n    tag_133:\n        /* \"#utility.yul\":6661:6740   */\n      pop\n      jump\t// out\n    stop\n\n    sub_0: assembly {\n            /* \"Vendor.sol\":195:7213  contract Vendor {... */\n          mstore(0x40, 0x80)\n            /* \"Vendor.sol\":324:343  Stages.Initialising */\n          0x00\n            /* \"Vendor.sol\":302:343  Stages public stage = Stages.Initialising */\n          dup1\n          exp(0x0100, 0x00)\n          dup2\n          sload\n          dup2\n          0xff\n          mul\n          not\n          and\n          swap1\n          dup4\n          0x02\n          dup2\n          gt\n          iszero\n          tag_1\n          jumpi\n          tag_2\n          tag_3\n          jump\t// in\n        tag_2:\n        tag_1:\n          mul\n          or\n          swap1\n          sstore\n          pop\n            /* \"Vendor.sol\":782:787  false */\n          0x00\n            /* \"Vendor.sol\":758:787  bool public satisfied = false */\n          0x0b\n          exp(0x0100, 0x00)\n          dup2\n          sload\n          dup2\n          0xff\n          mul\n          not\n          and\n          swap1\n          dup4\n          iszero\n          iszero\n          mul\n          or\n          swap1\n          sstore\n          pop\n            /* \"Vendor.sol\":1260:1262  60 */\n          0x3c\n            /* \"Vendor.sol\":1257:1259  60 */\n          dup1\n            /* \"Vendor.sol\":1254:1256  24 */\n          0x18\n            /* \"Vendor.sol\":1158:1162  6400 */\n          0x1900\n            /* \"Vendor.sol\":1242:1256  blocksDaily/24 */\n          tag_4\n          swap2\n          swap1\n          tag_5\n          jump\t// in\n        tag_4:\n            /* \"Vendor.sol\":1242:1259  blocksDaily/24/60 */\n          tag_6\n          swap2\n          swap1\n          tag_5\n          jump\t// in\n        tag_6:\n            /* \"Vendor.sol\":1242:1262  blocksDaily/24/60/60 */\n          tag_7\n          swap2\n          swap1\n          tag_5\n          jump\t// in\n        tag_7:\n            /* \"Vendor.sol\":1222:1262  uint blocksSecond = blocksDaily/24/60/60 */\n          0x0e\n          sstore\n            /* \"Vendor.sol\":1889:2464  constructor(address _manager, address _client, address _payee, uint _createdOn, uint _expiredOn, uint _prevBillingDate, uint _nextBillingDate, uint _contractHash, uint _amount) {... */\n          callvalue\n          dup1\n          iszero\n          tag_8\n          jumpi\n          0x00\n          dup1\n          revert\n        tag_8:\n          pop\n          mload(0x40)\n          sub(codesize, bytecodeSize)\n          dup1\n          bytecodeSize\n          dup4\n          codecopy\n          dup2\n          dup2\n          add\n          0x40\n          mstore\n          dup2\n          add\n          swap1\n          tag_9\n          swap2\n          swap1\n          tag_10\n          jump\t// in\n        tag_9:\n            /* \"Vendor.sol\":2086:2094  _manager */\n          dup9\n            /* \"Vendor.sol\":2076:2083  manager */\n          0x00\n          0x01\n            /* \"Vendor.sol\":2076:2094  manager = _manager */\n          0x0100\n          exp\n          dup2\n          sload\n          dup2\n          0xffffffffffffffffffffffffffffffffffffffff\n          mul\n          not\n          and\n          swap1\n          dup4\n          0xffffffffffffffffffffffffffffffffffffffff\n          and\n          mul\n          or\n          swap1\n          sstore\n          pop\n            /* \"Vendor.sol\":2121:2128  _client */\n          dup8\n            /* \"Vendor.sol\":2104:2110  client */\n          0x01\n          0x00\n            /* \"Vendor.sol\":2104:2129  client = payable(_client) */\n          0x0100\n          exp\n          dup2\n          sload\n          dup2\n          0xffffffffffffffffffffffffffffffffffffffff\n          mul\n          not\n          and\n          swap1\n          dup4\n          0xffffffffffffffffffffffffffffffffffffffff\n          and\n          mul\n          or\n          swap1\n          sstore\n          pop\n            /* \"Vendor.sol\":2155:2161  _payee */\n          dup7\n            /* \"Vendor.sol\":2139:2144  payee */\n          0x02\n          0x00\n            /* \"Vendor.sol\":2139:2162  payee = payable(_payee) */\n          0x0100\n          exp\n          dup2\n          sload\n          dup2\n          0xffffffffffffffffffffffffffffffffffffffff\n          mul\n          not\n          and\n          swap1\n          dup4\n          0xffffffffffffffffffffffffffffffffffffffff\n          and\n          mul\n          or\n          swap1\n          sstore\n          pop\n            /* \"Vendor.sol\":2187:2197  _createdOn */\n          dup6\n            /* \"Vendor.sol\":2172:2184  creationDate */\n          0x05\n            /* \"Vendor.sol\":2172:2197  creationDate = _createdOn */\n          dup2\n          swap1\n          sstore\n          pop\n            /* \"Vendor.sol\":2220:2230  _expiredOn */\n          dup5\n            /* \"Vendor.sol\":2207:2217  expiryDate */\n          0x06\n            /* \"Vendor.sol\":2207:2230  expiryDate = _expiredOn */\n          dup2\n          swap1\n          sstore\n          pop\n            /* \"Vendor.sol\":2258:2284  calcDate(_prevBillingDate) */\n          tag_13\n            /* \"Vendor.sol\":2267:2283  _prevBillingDate */\n          dup5\n            /* \"Vendor.sol\":2258:2266  calcDate */\n          shl(0x20, tag_14)\n            /* \"Vendor.sol\":2258:2284  calcDate(_prevBillingDate) */\n          0x20\n          shr\n          jump\t// in\n        tag_13:\n            /* \"Vendor.sol\":2240:2255  prevBillingDate */\n          0x08\n            /* \"Vendor.sol\":2240:2284  prevBillingDate = calcDate(_prevBillingDate) */\n          dup2\n          swap1\n          sstore\n          pop\n            /* \"Vendor.sol\":2312:2338  calcDate(_nextBillingDate) */\n          tag_15\n            /* \"Vendor.sol\":2321:2337  _nextBillingDate */\n          dup4\n            /* \"Vendor.sol\":2312:2320  calcDate */\n          shl(0x20, tag_14)\n            /* \"Vendor.sol\":2312:2338  calcDate(_nextBillingDate) */\n          0x20\n          shr\n          jump\t// in\n        tag_15:\n            /* \"Vendor.sol\":2294:2309  nextBillingDate */\n          0x09\n            /* \"Vendor.sol\":2294:2338  nextBillingDate = calcDate(_nextBillingDate) */\n          dup2\n          swap1\n          sstore\n          pop\n            /* \"Vendor.sol\":2363:2376  _contractHash */\n          dup2\n            /* \"Vendor.sol\":2348:2360  contractHash */\n          0x0a\n            /* \"Vendor.sol\":2348:2376  contractHash = _contractHash */\n          dup2\n          swap1\n          sstore\n          pop\n            /* \"Vendor.sol\":2395:2402  _amount */\n          dup1\n            /* \"Vendor.sol\":2386:2392  amount */\n          0x07\n            /* \"Vendor.sol\":2386:2402  amount = _amount */\n          dup2\n          swap1\n          sstore\n          pop\n            /* \"Vendor.sol\":1889:2464  constructor(address _manager, address _client, address _payee, uint _createdOn, uint _expiredOn, uint _prevBillingDate, uint _nextBillingDate, uint _contractHash, uint _amount) {... */\n          pop\n          pop\n          pop\n          pop\n          pop\n          pop\n          pop\n          pop\n          pop\n            /* \"Vendor.sol\":195:7213  contract Vendor {... */\n          jump(tag_16)\n            /* \"Vendor.sol\":2530:2794  function calcDate(uint _billingDate) private view returns (uint) {... */\n        tag_14:\n            /* \"Vendor.sol\":2589:2593  uint */\n          0x00\n            /* \"Vendor.sol\":2605:2623  uint blockInterval */\n          dup1\n            /* \"Vendor.sol\":2659:2671  blocksSecond */\n          sload(0x0e)\n            /* \"Vendor.sol\":2642:2657  block.timestamp */\n          timestamp\n            /* \"Vendor.sol\":2627:2639  _billingDate */\n          dup5\n            /* \"Vendor.sol\":2627:2657  _billingDate - block.timestamp */\n          tag_18\n          swap2\n          swap1\n          tag_19\n          jump\t// in\n        tag_18:\n            /* \"Vendor.sol\":2626:2671  (_billingDate - block.timestamp)/blocksSecond */\n          tag_20\n          swap2\n          swap1\n          tag_5\n          jump\t// in\n        tag_20:\n            /* \"Vendor.sol\":2605:2671  uint blockInterval = (_billingDate - block.timestamp)/blocksSecond */\n          swap1\n          pop\n            /* \"Vendor.sol\":2774:2787  blockInterval */\n          dup1\n            /* \"Vendor.sol\":2759:2771  block.number */\n          number\n            /* \"Vendor.sol\":2759:2787  block.number + blockInterval */\n          tag_21\n          swap2\n          swap1\n          tag_22\n          jump\t// in\n        tag_21:\n            /* \"Vendor.sol\":2752:2787  return block.number + blockInterval */\n          swap2\n          pop\n          pop\n            /* \"Vendor.sol\":2530:2794  function calcDate(uint _billingDate) private view returns (uint) {... */\n          swap2\n          swap1\n          pop\n          jump\t// out\n            /* \"#utility.yul\":7:150   */\n        tag_24:\n            /* \"#utility.yul\":64:69   */\n          0x00\n            /* \"#utility.yul\":95:101   */\n          dup2\n            /* \"#utility.yul\":89:102   */\n          mload\n            /* \"#utility.yul\":80:102   */\n          swap1\n          pop\n            /* \"#utility.yul\":111:144   */\n          tag_26\n            /* \"#utility.yul\":138:143   */\n          dup2\n            /* \"#utility.yul\":111:144   */\n          tag_27\n          jump\t// in\n        tag_26:\n            /* \"#utility.yul\":70:150   */\n          swap3\n          swap2\n          pop\n          pop\n          jump\t// out\n            /* \"#utility.yul\":156:299   */\n        tag_28:\n            /* \"#utility.yul\":213:218   */\n          0x00\n            /* \"#utility.yul\":244:250   */\n          dup2\n            /* \"#utility.yul\":238:251   */\n          mload\n            /* \"#utility.yul\":229:251   */\n          swap1\n          pop\n            /* \"#utility.yul\":260:293   */\n          tag_30\n            /* \"#utility.yul\":287:292   */\n          dup2\n            /* \"#utility.yul\":260:293   */\n          tag_31\n          jump\t// in\n        tag_30:\n            /* \"#utility.yul\":219:299   */\n          swap3\n          swap2\n          pop\n          pop\n          jump\t// out\n            /* \"#utility.yul\":305:1910   */\n        tag_10:\n            /* \"#utility.yul\":447:453   */\n          0x00\n            /* \"#utility.yul\":455:461   */\n          dup1\n            /* \"#utility.yul\":463:469   */\n          0x00\n            /* \"#utility.yul\":471:477   */\n          dup1\n            /* \"#utility.yul\":479:485   */\n          0x00\n            /* \"#utility.yul\":487:493   */\n          dup1\n            /* \"#utility.yul\":495:501   */\n          0x00\n            /* \"#utility.yul\":503:509   */\n          dup1\n            /* \"#utility.yul\":511:517   */\n          0x00\n            /* \"#utility.yul\":560:563   */\n          0x0120\n            /* \"#utility.yul\":548:557   */\n          dup11\n            /* \"#utility.yul\":539:546   */\n          dup13\n            /* \"#utility.yul\":535:558   */\n          sub\n            /* \"#utility.yul\":531:564   */\n          slt\n            /* \"#utility.yul\":528:530   */\n          iszero\n          tag_33\n          jumpi\n            /* \"#utility.yul\":567:646   */\n          tag_34\n          tag_35\n          jump\t// in\n        tag_34:\n            /* \"#utility.yul\":528:530   */\n        tag_33:\n            /* \"#utility.yul\":687:688   */\n          0x00\n            /* \"#utility.yul\":712:776   */\n          tag_36\n            /* \"#utility.yul\":768:775   */\n          dup13\n            /* \"#utility.yul\":759:765   */\n          dup3\n            /* \"#utility.yul\":748:757   */\n          dup14\n            /* \"#utility.yul\":744:766   */\n          add\n            /* \"#utility.yul\":712:776   */\n          tag_24\n          jump\t// in\n        tag_36:\n            /* \"#utility.yul\":702:776   */\n          swap10\n          pop\n            /* \"#utility.yul\":658:786   */\n          pop\n            /* \"#utility.yul\":825:827   */\n          0x20\n            /* \"#utility.yul\":851:915   */\n          tag_37\n            /* \"#utility.yul\":907:914   */\n          dup13\n            /* \"#utility.yul\":898:904   */\n          dup3\n            /* \"#utility.yul\":887:896   */\n          dup14\n            /* \"#utility.yul\":883:905   */\n          add\n            /* \"#utility.yul\":851:915   */\n          tag_24\n          jump\t// in\n        tag_37:\n            /* \"#utility.yul\":841:915   */\n          swap9\n          pop\n            /* \"#utility.yul\":796:925   */\n          pop\n            /* \"#utility.yul\":964:966   */\n          0x40\n            /* \"#utility.yul\":990:1054   */\n          tag_38\n            /* \"#utility.yul\":1046:1053   */\n          dup13\n            /* \"#utility.yul\":1037:1043   */\n          dup3\n            /* \"#utility.yul\":1026:1035   */\n          dup14\n            /* \"#utility.yul\":1022:1044   */\n          add\n            /* \"#utility.yul\":990:1054   */\n          tag_24\n          jump\t// in\n        tag_38:\n            /* \"#utility.yul\":980:1054   */\n          swap8\n          pop\n            /* \"#utility.yul\":935:1064   */\n          pop\n            /* \"#utility.yul\":1103:1105   */\n          0x60\n            /* \"#utility.yul\":1129:1193   */\n          tag_39\n            /* \"#utility.yul\":1185:1192   */\n          dup13\n            /* \"#utility.yul\":1176:1182   */\n          dup3\n            /* \"#utility.yul\":1165:1174   */\n          dup14\n            /* \"#utility.yul\":1161:1183   */\n          add\n            /* \"#utility.yul\":1129:1193   */\n          tag_28\n          jump\t// in\n        tag_39:\n            /* \"#utility.yul\":1119:1193   */\n          swap7\n          pop\n            /* \"#utility.yul\":1074:1203   */\n          pop\n            /* \"#utility.yul\":1242:1245   */\n          0x80\n            /* \"#utility.yul\":1269:1333   */\n          tag_40\n            /* \"#utility.yul\":1325:1332   */\n          dup13\n            /* \"#utility.yul\":1316:1322   */\n          dup3\n            /* \"#utility.yul\":1305:1314   */\n          dup14\n            /* \"#utility.yul\":1301:1323   */\n          add\n            /* \"#utility.yul\":1269:1333   */\n          tag_28\n          jump\t// in\n        tag_40:\n            /* \"#utility.yul\":1259:1333   */\n          swap6\n          pop\n            /* \"#utility.yul\":1213:1343   */\n          pop\n            /* \"#utility.yul\":1382:1385   */\n          0xa0\n            /* \"#utility.yul\":1409:1473   */\n          tag_41\n            /* \"#utility.yul\":1465:1472   */\n          dup13\n            /* \"#utility.yul\":1456:1462   */\n          dup3\n            /* \"#utility.yul\":1445:1454   */\n          dup14\n            /* \"#utility.yul\":1441:1463   */\n          add\n            /* \"#utility.yul\":1409:1473   */\n          tag_28\n          jump\t// in\n        tag_41:\n            /* \"#utility.yul\":1399:1473   */\n          swap5\n          pop\n            /* \"#utility.yul\":1353:1483   */\n          pop\n            /* \"#utility.yul\":1522:1525   */\n          0xc0\n            /* \"#utility.yul\":1549:1613   */\n          tag_42\n            /* \"#utility.yul\":1605:1612   */\n          dup13\n            /* \"#utility.yul\":1596:1602   */\n          dup3\n            /* \"#utility.yul\":1585:1594   */\n          dup14\n            /* \"#utility.yul\":1581:1603   */\n          add\n            /* \"#utility.yul\":1549:1613   */\n          tag_28\n          jump\t// in\n        tag_42:\n            /* \"#utility.yul\":1539:1613   */\n          swap4\n          pop\n            /* \"#utility.yul\":1493:1623   */\n          pop\n            /* \"#utility.yul\":1662:1665   */\n          0xe0\n            /* \"#utility.yul\":1689:1753   */\n          tag_43\n            /* \"#utility.yul\":1745:1752   */\n          dup13\n            /* \"#utility.yul\":1736:1742   */\n          dup3\n            /* \"#utility.yul\":1725:1734   */\n          dup14\n            /* \"#utility.yul\":1721:1743   */\n          add\n            /* \"#utility.yul\":1689:1753   */\n          tag_28\n          jump\t// in\n        tag_43:\n            /* \"#utility.yul\":1679:1753   */\n          swap3\n          pop\n            /* \"#utility.yul\":1633:1763   */\n          pop\n            /* \"#utility.yul\":1802:1805   */\n          0x0100\n            /* \"#utility.yul\":1829:1893   */\n          tag_44\n            /* \"#utility.yul\":1885:1892   */\n          dup13\n            /* \"#utility.yul\":1876:1882   */\n          dup3\n            /* \"#utility.yul\":1865:1874   */\n          dup14\n            /* \"#utility.yul\":1861:1883   */\n          add\n            /* \"#utility.yul\":1829:1893   */\n          tag_28\n          jump\t// in\n        tag_44:\n            /* \"#utility.yul\":1819:1893   */\n          swap2\n          pop\n            /* \"#utility.yul\":1773:1903   */\n          pop\n            /* \"#utility.yul\":518:1910   */\n          swap3\n          swap6\n          swap9\n          pop\n          swap3\n          swap6\n          swap9\n          pop\n          swap3\n          swap6\n          swap9\n          jump\t// out\n            /* \"#utility.yul\":1997:2302   */\n        tag_22:\n            /* \"#utility.yul\":2037:2040   */\n          0x00\n            /* \"#utility.yul\":2056:2076   */\n          tag_48\n            /* \"#utility.yul\":2074:2075   */\n          dup3\n            /* \"#utility.yul\":2056:2076   */\n          tag_49\n          jump\t// in\n        tag_48:\n            /* \"#utility.yul\":2051:2076   */\n          swap2\n          pop\n            /* \"#utility.yul\":2090:2110   */\n          tag_50\n            /* \"#utility.yul\":2108:2109   */\n          dup4\n            /* \"#utility.yul\":2090:2110   */\n          tag_49\n          jump\t// in\n        tag_50:\n            /* \"#utility.yul\":2085:2110   */\n          swap3\n          pop\n            /* \"#utility.yul\":2244:2245   */\n          dup3\n            /* \"#utility.yul\":2176:2242   */\n          0xffffffffffffffffffffffffffffffffffffffffffffffffffffffffffffffff\n            /* \"#utility.yul\":2172:2246   */\n          sub\n            /* \"#utility.yul\":2169:2170   */\n          dup3\n            /* \"#utility.yul\":2166:2247   */\n          gt\n            /* \"#utility.yul\":2163:2165   */\n          iszero\n          tag_51\n          jumpi\n            /* \"#utility.yul\":2250:2268   */\n          tag_52\n          tag_53\n          jump\t// in\n        tag_52:\n            /* \"#utility.yul\":2163:2165   */\n        tag_51:\n            /* \"#utility.yul\":2294:2295   */\n          dup3\n            /* \"#utility.yul\":2291:2292   */\n          dup3\n            /* \"#utility.yul\":2287:2296   */\n          add\n            /* \"#utility.yul\":2280:2296   */\n          swap1\n          pop\n            /* \"#utility.yul\":2041:2302   */\n          swap3\n          swap2\n          pop\n          pop\n          jump\t// out\n            /* \"#utility.yul\":2308:2493   */\n        tag_5:\n            /* \"#utility.yul\":2348:2349   */\n          0x00\n            /* \"#utility.yul\":2365:2385   */\n          tag_55\n            /* \"#utility.yul\":2383:2384   */\n          dup3\n            /* \"#utility.yul\":2365:2385   */\n          tag_49\n          jump\t// in\n        tag_55:\n            /* \"#utility.yul\":2360:2385   */\n          swap2\n          pop\n            /* \"#utility.yul\":2399:2419   */\n          tag_56\n            /* \"#utility.yul\":2417:2418   */\n          dup4\n            /* \"#utility.yul\":2399:2419   */\n          tag_49\n          jump\t// in\n        tag_56:\n            /* \"#utility.yul\":2394:2419   */\n          swap3\n          pop\n            /* \"#utility.yul\":2438:2439   */\n          dup3\n            /* \"#utility.yul\":2428:2430   */\n          tag_57\n          jumpi\n            /* \"#utility.yul\":2443:2461   */\n          tag_58\n          tag_59\n          jump\t// in\n        tag_58:\n            /* \"#utility.yul\":2428:2430   */\n        tag_57:\n            /* \"#utility.yul\":2485:2486   */\n          dup3\n            /* \"#utility.yul\":2482:2483   */\n          dup3\n            /* \"#utility.yul\":2478:2487   */\n          div\n            /* \"#utility.yul\":2473:2487   */\n          swap1\n          pop\n            /* \"#utility.yul\":2350:2493   */\n          swap3\n          swap2\n          pop\n          pop\n          jump\t// out\n            /* \"#utility.yul\":2499:2690   */\n        tag_19:\n            /* \"#utility.yul\":2539:2543   */\n          0x00\n            /* \"#utility.yul\":2559:2579   */\n          tag_61\n            /* \"#utility.yul\":2577:2578   */\n          dup3\n            /* \"#utility.yul\":2559:2579   */\n          tag_49\n          jump\t// in\n        tag_61:\n            /* \"#utility.yul\":2554:2579   */\n          swap2\n          pop\n            /* \"#utility.yul\":2593:2613   */\n          tag_62\n            /* \"#utility.yul\":2611:2612   */\n          dup4\n            /* \"#utility.yul\":2593:2613   */\n          tag_49\n          jump\t// in\n        tag_62:\n            /* \"#utility.yul\":2588:2613   */\n          swap3\n          pop\n            /* \"#utility.yul\":2632:2633   */\n          dup3\n            /* \"#utility.yul\":2629:2630   */\n          dup3\n            /* \"#utility.yul\":2626:2634   */\n          lt\n            /* \"#utility.yul\":2623:2625   */\n          iszero\n          tag_63\n          jumpi\n            /* \"#utility.yul\":2637:2655   */\n          tag_64\n          tag_53\n          jump\t// in\n        tag_64:\n            /* \"#utility.yul\":2623:2625   */\n        tag_63:\n            /* \"#utility.yul\":2682:2683   */\n          dup3\n            /* \"#utility.yul\":2679:2680   */\n          dup3\n            /* \"#utility.yul\":2675:2684   */\n          sub\n            /* \"#utility.yul\":2667:2684   */\n          swap1\n          pop\n            /* \"#utility.yul\":2544:2690   */\n          swap3\n          swap2\n          pop\n          pop\n          jump\t// out\n            /* \"#utility.yul\":2696:2792   */\n        tag_65:\n            /* \"#utility.yul\":2733:2740   */\n          0x00\n            /* \"#utility.yul\":2762:2786   */\n          tag_67\n            /* \"#utility.yul\":2780:2785   */\n          dup3\n            /* \"#utility.yul\":2762:2786   */\n          tag_68\n          jump\t// in\n        tag_67:\n            /* \"#utility.yul\":2751:2786   */\n          swap1\n          pop\n            /* \"#utility.yul\":2741:2792   */\n          swap2\n          swap1\n          pop\n          jump\t// out\n            /* \"#utility.yul\":2798:2924   */\n        tag_68:\n            /* \"#utility.yul\":2835:2842   */\n          0x00\n            /* \"#utility.yul\":2875:2917   */\n          0xffffffffffffffffffffffffffffffffffffffff\n            /* \"#utility.yul\":2868:2873   */\n          dup3\n            /* \"#utility.yul\":2864:2918   */\n          and\n            /* \"#utility.yul\":2853:2918   */\n          swap1\n          pop\n            /* \"#utility.yul\":2843:2924   */\n          swap2\n          swap1\n          pop\n          jump\t// out\n            /* \"#utility.yul\":2930:3007   */\n        tag_49:\n            /* \"#utility.yul\":2967:2974   */\n          0x00\n            /* \"#utility.yul\":2996:3001   */\n          dup2\n            /* \"#utility.yul\":2985:3001   */\n          swap1\n          pop\n            /* \"#utility.yul\":2975:3007   */\n          swap2\n          swap1\n          pop\n          jump\t// out\n            /* \"#utility.yul\":3013:3193   */\n        tag_53:\n            /* \"#utility.yul\":3061:3138   */\n          0x4e487b7100000000000000000000000000000000000000000000000000000000\n            /* \"#utility.yul\":3058:3059   */\n          0x00\n            /* \"#utility.yul\":3051:3139   */\n          mstore\n            /* \"#utility.yul\":3158:3162   */\n          0x11\n            /* \"#utility.yul\":3155:3156   */\n          0x04\n            /* \"#utility.yul\":3148:3163   */\n          mstore\n            /* \"#utility.yul\":3182:3186   */\n          0x24\n            /* \"#utility.yul\":3179:3180   */\n          0x00\n            /* \"#utility.yul\":3172:3187   */\n          revert\n            /* \"#utility.yul\":3199:3379   */\n        tag_59:\n            /* \"#utility.yul\":3247:3324   */\n          0x4e487b7100000000000000000000000000000000000000000000000000000000\n            /* \"#utility.yul\":3244:3245   */\n          0x00\n            /* \"#utility.yul\":3237:3325   */\n          mstore\n            /* \"#utility.yul\":3344:3348   */\n          0x12\n            /* \"#utility.yul\":3341:3342   */\n          0x04\n            /* \"#utility.yul\":3334:3349   */\n          mstore\n            /* \"#utility.yul\":3368:3372   */\n          0x24\n            /* \"#utility.yul\":3365:3366   */\n          0x00\n            /* \"#utility.yul\":3358:3373   */\n          revert\n            /* \"#utility.yul\":3385:3565   */\n        tag_3:\n            /* \"#utility.yul\":3433:3510   */\n          0x4e487b7100000000000000000000000000000000000000000000000000000000\n            /* \"#utility.yul\":3430:3431   */\n          0x00\n            /* \"#utility.yul\":3423:3511   */\n          mstore\n            /* \"#utility.yul\":3530:3534   */\n          0x21\n            /* \"#utility.yul\":3527:3528   */\n          0x04\n            /* \"#utility.yul\":3520:3535   */\n          mstore\n            /* \"#utility.yul\":3554:3558   */\n          0x24\n            /* \"#utility.yul\":3551:3552   */\n          0x00\n            /* \"#utility.yul\":3544:3559   */\n          revert\n            /* \"#utility.yul\":3694:3811   */\n        tag_35:\n            /* \"#utility.yul\":3803:3804   */\n          0x00\n            /* \"#utility.yul\":3800:3801   */\n          dup1\n            /* \"#utility.yul\":3793:3805   */\n          revert\n            /* \"#utility.yul\":3817:3939   */\n        tag_27:\n            /* \"#utility.yul\":3890:3914   */\n          tag_78\n            /* \"#utility.yul\":3908:3913   */\n          dup2\n            /* \"#utility.yul\":3890:3914   */\n          tag_65\n          jump\t// in\n        tag_78:\n            /* \"#utility.yul\":3883:3888   */\n          dup2\n            /* \"#utility.yul\":3880:3915   */\n          eq\n            /* \"#utility.yul\":3870:3872   */\n          tag_79\n          jumpi\n            /* \"#utility.yul\":3929:3930   */\n          0x00\n            /* \"#utility.yul\":3926:3927   */\n          dup1\n            /* \"#utility.yul\":3919:3931   */\n          revert\n            /* \"#utility.yul\":3870:3872   */\n        tag_79:\n            /* \"#utility.yul\":3860:3939   */\n          pop\n          jump\t// out\n            /* \"#utility.yul\":3945:4067   */\n        tag_31:\n            /* \"#utility.yul\":4018:4042   */\n          tag_81\n            /* \"#utility.yul\":4036:4041   */\n          dup2\n            /* \"#utility.yul\":4018:4042   */\n          tag_49\n          jump\t// in\n        tag_81:\n            /* \"#utility.yul\":4011:4016   */\n          dup2\n            /* \"#utility.yul\":4008:4043   */\n          eq\n            /* \"#utility.yul\":3998:4000   */\n          tag_82\n          jumpi\n            /* \"#utility.yul\":4057:4058   */\n          0x00\n            /* \"#utility.yul\":4054:4055   */\n          dup1\n            /* \"#utility.yul\":4047:4059   */\n          revert\n            /* \"#utility.yul\":3998:4000   */\n        tag_82:\n            /* \"#utility.yul\":3988:4067   */\n          pop\n          jump\t// out\n            /* \"Vendor.sol\":195:7213  contract Vendor {... */\n        tag_16:\n          dataSize(sub_0)\n          dup1\n          dataOffset(sub_0)\n          0x00\n          codecopy\n          0x00\n          return\n        stop\n\n        sub_0: assembly {\n                /* \"Vendor.sol\":195:7213  contract Vendor {... */\n              mstore(0x40, 0x80)\n              jumpi(tag_1, lt(calldatasize, 0x04))\n              shr(0xe0, calldataload(0x00))\n              dup1\n              0x516dde43\n              gt\n              tag_23\n              jumpi\n              dup1\n              0x9503fe3d\n              gt\n              tag_24\n              jumpi\n              dup1\n              0x9503fe3d\n              eq\n              tag_17\n              jumpi\n              dup1\n              0xaa8c217c\n              eq\n              tag_18\n              jumpi\n              dup1\n              0xae90b213\n              eq\n              tag_19\n              jumpi\n              dup1\n              0xc040e6b8\n              eq\n              tag_20\n              jumpi\n              dup1\n              0xecb0b862\n              eq\n              tag_21\n              jumpi\n              dup1\n              0xf1b9ee24\n              eq\n              tag_22\n              jumpi\n              jump(tag_1)\n            tag_24:\n              dup1\n              0x516dde43\n              eq\n              tag_12\n              jumpi\n              dup1\n              0x722713f7\n              eq\n              tag_13\n              jumpi\n              dup1\n              0x7284e416\n              eq\n              tag_14\n              jumpi\n              dup1\n              0x760a8c2a\n              eq\n              tag_15\n              jumpi\n              dup1\n              0x904c6094\n              eq\n              tag_16\n              jumpi\n              jump(tag_1)\n            tag_23:\n              dup1\n              0x38cbf3a0\n              gt\n              tag_25\n              jumpi\n              dup1\n              0x38cbf3a0\n              eq\n              tag_7\n              jumpi\n              dup1\n              0x3a40f3b2\n              eq\n              tag_8\n              jumpi\n              dup1\n              0x43885314\n              eq\n              tag_9\n              jumpi\n              dup1\n              0x481c6a75\n              eq\n              tag_10\n              jumpi\n              dup1\n              0x4a79d50c\n              eq\n              tag_11\n              jumpi\n              jump(tag_1)\n            tag_25:\n              dup1\n              0x05b34410\n              eq\n              tag_2\n              jumpi\n              dup1\n              0x109e94cf\n              eq\n              tag_3\n              jumpi\n              dup1\n              0x182541d2\n              eq\n              tag_4\n              jumpi\n              dup1\n              0x21ce5afd\n              eq\n              tag_5\n              jumpi\n              dup1\n              0x25419c24\n              eq\n              tag_6\n              jumpi\n            tag_1:\n              0x00\n              dup1\n              revert\n                /* \"Vendor.sol\":503:527  uint public creationDate */\n            tag_2:\n              callvalue\n              dup1\n              iszero\n              tag_26\n              jumpi\n              0x00\n              dup1\n              revert\n            tag_26:\n              pop\n              tag_27\n              tag_28\n              jump\t// in\n            tag_27:\n              mload(0x40)\n              tag_29\n              swap2\n              swap1\n              tag_30\n              jump\t// in\n            tag_29:\n              mload(0x40)\n              dup1\n              swap2\n              sub\n              swap1\n              return\n                /* \"Vendor.sol\":377:406  address payable public client */\n            tag_3:\n              callvalue\n              dup1\n              iszero\n              tag_31\n              jumpi\n              0x00\n              dup1\n              revert\n            tag_31:\n              pop\n              tag_32\n              tag_33\n              jump\t// in\n            tag_32:\n              mload(0x40)\n              tag_34\n              swap2\n              swap1\n              tag_35\n              jump\t// in\n            tag_34:\n              mload(0x40)\n              dup1\n              swap2\n              sub\n              swap1\n              return\n                /* \"Vendor.sol\":1013:1047  Conditions[] public conditionArray */\n            tag_4:\n              callvalue\n              dup1\n              iszero\n              tag_36\n              jumpi\n              0x00\n              dup1\n              revert\n            tag_36:\n              pop\n              tag_37\n              0x04\n              dup1\n              calldatasize\n              sub\n              dup2\n              add\n              swap1\n              tag_38\n              swap2\n              swap1\n              tag_39\n              jump\t// in\n            tag_38:\n              tag_40\n              jump\t// in\n            tag_37:\n              mload(0x40)\n              tag_41\n              swap4\n              swap3\n              swap2\n              swap1\n              tag_42\n              jump\t// in\n            tag_41:\n              mload(0x40)\n              dup1\n              swap2\n              sub\n              swap1\n              return\n                /* \"Vendor.sol\":4758:4998  function receiveServiceData(int[] memory _cumulative) external atStage(Stages.Active) checkBillingDate() {... */\n            tag_5:\n              callvalue\n              dup1\n              iszero\n              tag_43\n              jumpi\n              0x00\n              dup1\n              revert\n            tag_43:\n              pop\n              tag_44\n              0x04\n              dup1\n              calldatasize\n              sub\n              dup2\n              add\n              swap1\n              tag_45\n              swap2\n              swap1\n              tag_46\n              jump\t// in\n            tag_45:\n              tag_47\n              jump\t// in\n            tag_44:\n              stop\n                /* \"Vendor.sol\":585:612  uint public prevBillingDate */\n            tag_6:\n              callvalue\n              dup1\n              iszero\n              tag_48\n              jumpi\n              0x00\n              dup1\n              revert\n            tag_48:\n              pop\n              tag_49\n              tag_50\n              jump\t// in\n            tag_49:\n              mload(0x40)\n              tag_51\n              swap2\n              swap1\n              tag_30\n              jump\t// in\n            tag_51:\n              mload(0x40)\n              dup1\n              swap2\n              sub\n              swap1\n              return\n                /* \"Vendor.sol\":2853:3327  function setConds(string[8] memory _names, int[8] memory _values, int[8] memory _modes) external atStage(Stages.Initialising) {... */\n            tag_7:\n              callvalue\n              dup1\n              iszero\n              tag_52\n              jumpi\n              0x00\n              dup1\n              revert\n            tag_52:\n              pop\n              tag_53\n              0x04\n              dup1\n              calldatasize\n              sub\n              dup2\n              add\n              swap1\n              tag_54\n              swap2\n              swap1\n              tag_55\n              jump\t// in\n            tag_54:\n              tag_56\n              jump\t// in\n            tag_53:\n              stop\n                /* \"Vendor.sol\":758:787  bool public satisfied = false */\n            tag_8:\n              callvalue\n              dup1\n              iszero\n              tag_57\n              jumpi\n              0x00\n              dup1\n              revert\n            tag_57:\n              pop\n              tag_58\n              tag_59\n              jump\t// in\n            tag_58:\n              mload(0x40)\n              tag_60\n              swap2\n              swap1\n              tag_61\n              jump\t// in\n            tag_60:\n              mload(0x40)\n              dup1\n              swap2\n              sub\n              swap1\n              return\n                /* \"Vendor.sol\":618:645  uint public nextBillingDate */\n            tag_9:\n              callvalue\n              dup1\n              iszero\n              tag_62\n              jumpi\n              0x00\n              dup1\n              revert\n            tag_62:\n              pop\n              tag_63\n              tag_64\n              jump\t// in\n            tag_63:\n              mload(0x40)\n              tag_65\n              swap2\n              swap1\n              tag_30\n              jump\t// in\n            tag_65:\n              mload(0x40)\n              dup1\n              swap2\n              sub\n              swap1\n              return\n                /* \"Vendor.sol\":349:371  address public manager */\n            tag_10:\n              callvalue\n              dup1\n              iszero\n              tag_66\n              jumpi\n              0x00\n              dup1\n              revert\n            tag_66:\n              pop\n              tag_67\n              tag_68\n              jump\t// in\n            tag_67:\n              mload(0x40)\n              tag_69\n              swap2\n              swap1\n              tag_70\n              jump\t// in\n            tag_69:\n              mload(0x40)\n              dup1\n              swap2\n              sub\n              swap1\n              return\n                /* \"Vendor.sol\":447:466  string public title */\n            tag_11:\n              callvalue\n              dup1\n              iszero\n              tag_71\n              jumpi\n              0x00\n              dup1\n              revert\n            tag_71:\n              pop\n              tag_72\n              tag_73\n              jump\t// in\n            tag_72:\n              mload(0x40)\n              tag_74\n              swap2\n              swap1\n              tag_75\n              jump\t// in\n            tag_74:\n              mload(0x40)\n              dup1\n              swap2\n              sub\n              swap1\n              return\n                /* \"Vendor.sol\":533:555  uint public expiryDate */\n            tag_12:\n              callvalue\n              dup1\n              iszero\n              tag_76\n              jumpi\n              0x00\n              dup1\n              revert\n            tag_76:\n              pop\n              tag_77\n              tag_78\n              jump\t// in\n            tag_77:\n              mload(0x40)\n              tag_79\n              swap2\n              swap1\n              tag_30\n              jump\t// in\n            tag_79:\n              mload(0x40)\n              dup1\n              swap2\n              sub\n              swap1\n              return\n                /* \"Vendor.sol\":4101:4219  function balanceOf() external view atStage(Stages.Active) returns (uint) {... */\n            tag_13:\n              callvalue\n              dup1\n              iszero\n              tag_80\n              jumpi\n              0x00\n              dup1\n              revert\n            tag_80:\n              pop\n              tag_81\n              tag_82\n              jump\t// in\n            tag_81:\n              mload(0x40)\n              tag_83\n              swap2\n              swap1\n              tag_30\n              jump\t// in\n            tag_83:\n              mload(0x40)\n              dup1\n              swap2\n              sub\n              swap1\n              return\n                /* \"Vendor.sol\":472:497  string public description */\n            tag_14:\n              callvalue\n              dup1\n              iszero\n              tag_84\n              jumpi\n              0x00\n              dup1\n              revert\n            tag_84:\n              pop\n              tag_85\n              tag_86\n              jump\t// in\n            tag_85:\n              mload(0x40)\n              tag_87\n              swap2\n              swap1\n              tag_75\n              jump\t// in\n            tag_87:\n              mload(0x40)\n              dup1\n              swap2\n              sub\n              swap1\n              return\n                /* \"Vendor.sol\":3587:3680  function setActive() external atStage(Stages.Inactive) {... */\n            tag_15:\n              callvalue\n              dup1\n              iszero\n              tag_88\n              jumpi\n              0x00\n              dup1\n              revert\n            tag_88:\n              pop\n              tag_89\n              tag_90\n              jump\t// in\n            tag_89:\n              stop\n                /* \"Vendor.sol\":651:675  uint public contractHash */\n            tag_16:\n              callvalue\n              dup1\n              iszero\n              tag_91\n              jumpi\n              0x00\n              dup1\n              revert\n            tag_91:\n              pop\n              tag_92\n              tag_93\n              jump\t// in\n            tag_92:\n              mload(0x40)\n              tag_94\n              swap2\n              swap1\n              tag_30\n              jump\t// in\n            tag_94:\n              mload(0x40)\n              dup1\n              swap2\n              sub\n              swap1\n              return\n                /* \"Vendor.sol\":3333:3581  function endInitStage() public atStage(Stages.Initialising) {... */\n            tag_17:\n              callvalue\n              dup1\n              iszero\n              tag_95\n              jumpi\n              0x00\n              dup1\n              revert\n            tag_95:\n              pop\n              tag_96\n              tag_97\n              jump\t// in\n            tag_96:\n              stop\n                /* \"Vendor.sol\":561:579  uint public amount */\n            tag_18:\n              callvalue\n              dup1\n              iszero\n              tag_98\n              jumpi\n              0x00\n              dup1\n              revert\n            tag_98:\n              pop\n              tag_99\n              tag_100\n              jump\t// in\n            tag_99:\n              mload(0x40)\n              tag_101\n              swap2\n              swap1\n              tag_30\n              jump\t// in\n            tag_101:\n              mload(0x40)\n              dup1\n              swap2\n              sub\n              swap1\n              return\n                /* \"Vendor.sol\":412:440  address payable public payee */\n            tag_19:\n              callvalue\n              dup1\n              iszero\n              tag_102\n              jumpi\n              0x00\n              dup1\n              revert\n            tag_102:\n              pop\n              tag_103\n              tag_104\n              jump\t// in\n            tag_103:\n              mload(0x40)\n              tag_105\n              swap2\n              swap1\n              tag_35\n              jump\t// in\n            tag_105:\n              mload(0x40)\n              dup1\n              swap2\n              sub\n              swap1\n              return\n                /* \"Vendor.sol\":302:343  Stages public stage = Stages.Initialising */\n            tag_20:\n              callvalue\n              dup1\n              iszero\n              tag_106\n              jumpi\n              0x00\n              dup1\n              revert\n            tag_106:\n              pop\n              tag_107\n              tag_108\n              jump\t// in\n            tag_107:\n              mload(0x40)\n              tag_109\n              swap2\n              swap1\n              tag_110\n              jump\t// in\n            tag_109:\n              mload(0x40)\n              dup1\n              swap2\n              sub\n              swap1\n              return\n                /* \"Vendor.sol\":3939:4095  function payContract() external payable atStage(Stages.Active) checkBillingDate() {... */\n            tag_21:\n              tag_111\n              tag_112\n              jump\t// in\n            tag_111:\n              stop\n                /* \"Vendor.sol\":3686:3781  function setInactive() external atStage(Stages.Active) {... */\n            tag_22:\n              callvalue\n              dup1\n              iszero\n              tag_113\n              jumpi\n              0x00\n              dup1\n              revert\n            tag_113:\n              pop\n              tag_114\n              tag_115\n              jump\t// in\n            tag_114:\n              stop\n                /* \"Vendor.sol\":503:527  uint public creationDate */\n            tag_28:\n              sload(0x05)\n              dup2\n              jump\t// out\n                /* \"Vendor.sol\":377:406  address payable public client */\n            tag_33:\n              0x01\n              0x00\n              swap1\n              sload\n              swap1\n              0x0100\n              exp\n              swap1\n              div\n              0xffffffffffffffffffffffffffffffffffffffff\n              and\n              dup2\n              jump\t// out\n                /* \"Vendor.sol\":1013:1047  Conditions[] public conditionArray */\n            tag_40:\n              0x0c\n              dup2\n              dup2\n              sload\n              dup2\n              lt\n              tag_116\n              jumpi\n              0x00\n              dup1\n              revert\n            tag_116:\n              swap1\n              0x00\n              mstore\n              keccak256(0x00, 0x20)\n              swap1\n              0x03\n              mul\n              add\n              0x00\n              swap2\n              pop\n              swap1\n              pop\n              dup1\n              0x00\n              add\n              dup1\n              sload\n              tag_118\n              swap1\n              tag_119\n              jump\t// in\n            tag_118:\n              dup1\n              0x1f\n              add\n              0x20\n              dup1\n              swap2\n              div\n              mul\n              0x20\n              add\n              mload(0x40)\n              swap1\n              dup2\n              add\n              0x40\n              mstore\n              dup1\n              swap3\n              swap2\n              swap1\n              dup2\n              dup2\n              mstore\n              0x20\n              add\n              dup3\n              dup1\n              sload\n              tag_120\n              swap1\n              tag_119\n              jump\t// in\n            tag_120:\n              dup1\n              iszero\n              tag_121\n              jumpi\n              dup1\n              0x1f\n              lt\n              tag_122\n              jumpi\n              0x0100\n              dup1\n              dup4\n              sload\n              div\n              mul\n              dup4\n              mstore\n              swap2\n              0x20\n              add\n              swap2\n              jump(tag_121)\n            tag_122:\n              dup3\n              add\n              swap2\n              swap1\n              0x00\n              mstore\n              keccak256(0x00, 0x20)\n              swap1\n            tag_123:\n              dup2\n              sload\n              dup2\n              mstore\n              swap1\n              0x01\n              add\n              swap1\n              0x20\n              add\n              dup1\n              dup4\n              gt\n              tag_123\n              jumpi\n              dup3\n              swap1\n              sub\n              0x1f\n              and\n              dup3\n              add\n              swap2\n            tag_121:\n              pop\n              pop\n              pop\n              pop\n              pop\n              swap1\n              dup1\n              0x01\n              add\n              sload\n              swap1\n              dup1\n              0x02\n              add\n              sload\n              swap1\n              pop\n              dup4\n              jump\t// out\n                /* \"Vendor.sol\":4758:4998  function receiveServiceData(int[] memory _cumulative) external atStage(Stages.Active) checkBillingDate() {... */\n            tag_47:\n                /* \"Vendor.sol\":4829:4842  Stages.Active */\n              0x02\n                /* \"Vendor.sol\":7145:7151  _stage */\n              dup1\n                /* \"Vendor.sol\":7136:7151  stage == _stage */\n              0x02\n              dup2\n              gt\n              iszero\n              tag_125\n              jumpi\n              tag_126\n              tag_127\n              jump\t// in\n            tag_126:\n            tag_125:\n                /* \"Vendor.sol\":7136:7141  stage */\n              0x00\n              dup1\n              sload\n              swap1\n              0x0100\n              exp\n              swap1\n              div\n              0xff\n              and\n                /* \"Vendor.sol\":7136:7151  stage == _stage */\n              0x02\n              dup2\n              gt\n              iszero\n              tag_128\n              jumpi\n              tag_129\n              tag_127\n              jump\t// in\n            tag_129:\n            tag_128:\n              eq\n                /* \"Vendor.sol\":7128:7193  require(stage == _stage, \"Contract is not in the required state\") */\n              tag_130\n              jumpi\n              mload(0x40)\n              0x08c379a000000000000000000000000000000000000000000000000000000000\n              dup2\n              mstore\n              0x04\n              add\n              tag_131\n              swap1\n              tag_132\n              jump\t// in\n            tag_131:\n              mload(0x40)\n              dup1\n              swap2\n              sub\n              swap1\n              revert\n            tag_130:\n                /* \"Vendor.sol\":6826:6841  nextBillingDate */\n              sload(0x09)\n                /* \"Vendor.sol\":6811:6823  block.number */\n              number\n                /* \"Vendor.sol\":6811:6841  block.number > nextBillingDate */\n              gt\n                /* \"Vendor.sol\":6807:7035  if (block.number > nextBillingDate) {... */\n              iszero\n              tag_134\n              jumpi\n                /* \"Vendor.sol\":6857:6870  isSatisfied() */\n              tag_135\n                /* \"Vendor.sol\":6857:6868  isSatisfied */\n              tag_136\n                /* \"Vendor.sol\":6857:6870  isSatisfied() */\n              jump\t// in\n            tag_135:\n                /* \"Vendor.sol\":6807:7035  if (block.number > nextBillingDate) {... */\n              jump(tag_137)\n            tag_134:\n                /* \"Vendor.sol\":6925:6940  prevBillingDate */\n              sload(0x08)\n                /* \"Vendor.sol\":6909:6921  block.number */\n              number\n                /* \"Vendor.sol\":6909:6940  block.number >= prevBillingDate */\n              lt\n              iszero\n                /* \"Vendor.sol\":6909:6975  block.number >= prevBillingDate && block.number <= nextBillingDate */\n              dup1\n              iszero\n              tag_138\n              jumpi\n              pop\n                /* \"Vendor.sol\":6960:6975  nextBillingDate */\n              sload(0x09)\n                /* \"Vendor.sol\":6944:6956  block.number */\n              number\n                /* \"Vendor.sol\":6944:6975  block.number <= nextBillingDate */\n              gt\n              iszero\n                /* \"Vendor.sol\":6909:6975  block.number >= prevBillingDate && block.number <= nextBillingDate */\n            tag_138:\n                /* \"Vendor.sol\":6901:7009  require(block.number >= prevBillingDate && block.number <= nextBillingDate, \"Not within the billing period\") */\n              tag_139\n              jumpi\n              mload(0x40)\n              0x08c379a000000000000000000000000000000000000000000000000000000000\n              dup2\n              mstore\n              0x04\n              add\n              tag_140\n              swap1\n              tag_141\n              jump\t// in\n            tag_140:\n              mload(0x40)\n              dup1\n              swap2\n              sub\n              swap1\n              revert\n            tag_139:\n                /* \"Vendor.sol\":4878:4884  uint i */\n              0x00\n                /* \"Vendor.sol\":4873:4975  for (uint i = 0; i < _cumulative.length; i++) {... */\n            tag_143:\n                /* \"Vendor.sol\":4894:4905  _cumulative */\n              dup3\n                /* \"Vendor.sol\":4894:4912  _cumulative.length */\n              mload\n                /* \"Vendor.sol\":4890:4891  i */\n              dup2\n                /* \"Vendor.sol\":4890:4912  i < _cumulative.length */\n              lt\n                /* \"Vendor.sol\":4873:4975  for (uint i = 0; i < _cumulative.length; i++) {... */\n              iszero\n              tag_144\n              jumpi\n                /* \"Vendor.sol\":4950:4961  _cumulative */\n              dup3\n                /* \"Vendor.sol\":4962:4963  i */\n              dup2\n                /* \"Vendor.sol\":4950:4964  _cumulative[i] */\n              dup2\n              mload\n              dup2\n              lt\n              tag_146\n              jumpi\n              tag_147\n              tag_148\n              jump\t// in\n            tag_147:\n            tag_146:\n              0x20\n              mul\n              0x20\n              add\n              add\n              mload\n                /* \"Vendor.sol\":4933:4943  cumulative */\n              0x0f\n                /* \"Vendor.sol\":4933:4946  cumulative[i] */\n              0x00\n                /* \"Vendor.sol\":4944:4945  i */\n              dup4\n                /* \"Vendor.sol\":4933:4946  cumulative[i] */\n              dup2\n              mstore\n              0x20\n              add\n              swap1\n              dup2\n              mstore\n              0x20\n              add\n              0x00\n              keccak256\n              0x00\n                /* \"Vendor.sol\":4933:4964  cumulative[i] += _cumulative[i] */\n              dup3\n              dup3\n              sload\n              tag_149\n              swap2\n              swap1\n              tag_150\n              jump\t// in\n            tag_149:\n              swap3\n              pop\n              pop\n              dup2\n              swap1\n              sstore\n              pop\n                /* \"Vendor.sol\":4914:4917  i++ */\n              dup1\n              dup1\n              tag_151\n              swap1\n              tag_152\n              jump\t// in\n            tag_151:\n              swap2\n              pop\n              pop\n                /* \"Vendor.sol\":4873:4975  for (uint i = 0; i < _cumulative.length; i++) {... */\n              jump(tag_143)\n            tag_144:\n              pop\n                /* \"Vendor.sol\":4984:4989  count */\n              0x10\n              0x00\n                /* \"Vendor.sol\":4984:4991  count++ */\n              dup2\n              sload\n              dup1\n              swap3\n              swap2\n              swap1\n              tag_153\n              swap1\n              tag_154\n              jump\t// in\n            tag_153:\n              swap2\n              swap1\n              pop\n              sstore\n              pop\n                /* \"Vendor.sol\":6807:7035  if (block.number > nextBillingDate) {... */\n            tag_137:\n                /* \"Vendor.sol\":4758:4998  function receiveServiceData(int[] memory _cumulative) external atStage(Stages.Active) checkBillingDate() {... */\n              pop\n              pop\n              jump\t// out\n                /* \"Vendor.sol\":585:612  uint public prevBillingDate */\n            tag_50:\n              sload(0x08)\n              dup2\n              jump\t// out\n                /* \"Vendor.sol\":2853:3327  function setConds(string[8] memory _names, int[8] memory _values, int[8] memory _modes) external atStage(Stages.Initialising) {... */\n            tag_56:\n                /* \"Vendor.sol\":2958:2977  Stages.Initialising */\n              0x00\n                /* \"Vendor.sol\":7145:7151  _stage */\n              dup1\n                /* \"Vendor.sol\":7136:7151  stage == _stage */\n              0x02\n              dup2\n              gt\n              iszero\n              tag_156\n              jumpi\n              tag_157\n              tag_127\n              jump\t// in\n            tag_157:\n            tag_156:\n                /* \"Vendor.sol\":7136:7141  stage */\n              0x00\n              dup1\n              sload\n              swap1\n              0x0100\n              exp\n              swap1\n              div\n              0xff\n              and\n                /* \"Vendor.sol\":7136:7151  stage == _stage */\n              0x02\n              dup2\n              gt\n              iszero\n              tag_158\n              jumpi\n              tag_159\n              tag_127\n              jump\t// in\n            tag_159:\n            tag_158:\n              eq\n                /* \"Vendor.sol\":7128:7193  require(stage == _stage, \"Contract is not in the required state\") */\n              tag_160\n              jumpi\n              mload(0x40)\n              0x08c379a000000000000000000000000000000000000000000000000000000000\n              dup2\n              mstore\n              0x04\n              add\n              tag_161\n              swap1\n              tag_132\n              jump\t// in\n            tag_161:\n              mload(0x40)\n              dup1\n              swap2\n              sub\n              swap1\n              revert\n            tag_160:\n                /* \"Vendor.sol\":2994:3000  uint i */\n              0x00\n                /* \"Vendor.sol\":2989:3321  for (uint i = 0; i < 8; i++) {... */\n            tag_163:\n                /* \"Vendor.sol\":3010:3011  8 */\n              0x08\n                /* \"Vendor.sol\":3006:3007  i */\n              dup2\n                /* \"Vendor.sol\":3006:3011  i < 8 */\n              lt\n                /* \"Vendor.sol\":2989:3321  for (uint i = 0; i < 8; i++) {... */\n              iszero\n              tag_164\n              jumpi\n                /* \"Vendor.sol\":3077:3090  bytes(\"None\") */\n              mload(0x40)\n              dup1\n              0x40\n              add\n              0x40\n              mstore\n              dup1\n              0x04\n              dup2\n              mstore\n              0x20\n              add\n              0x4e6f6e6500000000000000000000000000000000000000000000000000000000\n              dup2\n              mstore\n              pop\n                /* \"Vendor.sol\":3067:3091  keccak256(bytes(\"None\")) */\n              dup1\n              mload\n              swap1\n              0x20\n              add\n              keccak256\n                /* \"Vendor.sol\":3052:3058  _names */\n              dup6\n                /* \"Vendor.sol\":3059:3060  i */\n              dup3\n                /* \"Vendor.sol\":3052:3061  _names[i] */\n              0x08\n              dup2\n              lt\n              tag_166\n              jumpi\n              tag_167\n              tag_148\n              jump\t// in\n            tag_167:\n            tag_166:\n              0x20\n              mul\n              add\n              mload\n                /* \"Vendor.sol\":3036:3063  keccak256(bytes(_names[i])) */\n              dup1\n              mload\n              swap1\n              0x20\n              add\n              keccak256\n                /* \"Vendor.sol\":3036:3091  keccak256(bytes(_names[i])) == keccak256(bytes(\"None\")) */\n              eq\n                /* \"Vendor.sol\":3032:3232  if (keccak256(bytes(_names[i])) == keccak256(bytes(\"None\"))) {... */\n              iszero\n              tag_168\n              jumpi\n                /* \"Vendor.sol\":3111:3125  endInitStage() */\n              tag_169\n                /* \"Vendor.sol\":3111:3123  endInitStage */\n              tag_97\n                /* \"Vendor.sol\":3111:3125  endInitStage() */\n              jump\t// in\n            tag_169:\n                /* \"Vendor.sol\":3143:3150  return; */\n              pop\n              jump(tag_162)\n                /* \"Vendor.sol\":3032:3232  if (keccak256(bytes(_names[i])) == keccak256(bytes(\"None\"))) {... */\n            tag_168:\n                /* \"Vendor.sol\":3245:3259  conditionArray */\n              0x0c\n                /* \"Vendor.sol\":3265:3309  Conditions(_names[i], _values[i], _modes[i]) */\n              mload(0x40)\n              dup1\n              0x60\n              add\n              0x40\n              mstore\n              dup1\n                /* \"Vendor.sol\":3276:3282  _names */\n              dup8\n                /* \"Vendor.sol\":3283:3284  i */\n              dup5\n                /* \"Vendor.sol\":3276:3285  _names[i] */\n              0x08\n              dup2\n              lt\n              tag_170\n              jumpi\n              tag_171\n              tag_148\n              jump\t// in\n            tag_171:\n            tag_170:\n              0x20\n              mul\n              add\n              mload\n                /* \"Vendor.sol\":3265:3309  Conditions(_names[i], _values[i], _modes[i]) */\n              dup2\n              mstore\n              0x20\n              add\n                /* \"Vendor.sol\":3287:3294  _values */\n              dup7\n                /* \"Vendor.sol\":3295:3296  i */\n              dup5\n                /* \"Vendor.sol\":3287:3297  _values[i] */\n              0x08\n              dup2\n              lt\n              tag_172\n              jumpi\n              tag_173\n              tag_148\n              jump\t// in\n            tag_173:\n            tag_172:\n              0x20\n              mul\n              add\n              mload\n                /* \"Vendor.sol\":3265:3309  Conditions(_names[i], _values[i], _modes[i]) */\n              dup2\n              mstore\n              0x20\n              add\n                /* \"Vendor.sol\":3299:3305  _modes */\n              dup6\n                /* \"Vendor.sol\":3306:3307  i */\n              dup5\n                /* \"Vendor.sol\":3299:3308  _modes[i] */\n              0x08\n              dup2\n              lt\n              tag_174\n              jumpi\n              tag_175\n              tag_148\n              jump\t// in\n            tag_175:\n            tag_174:\n              0x20\n              mul\n              add\n              mload\n                /* \"Vendor.sol\":3265:3309  Conditions(_names[i], _values[i], _modes[i]) */\n              dup2\n              mstore\n              pop\n                /* \"Vendor.sol\":3245:3310  conditionArray.push(Conditions(_names[i], _values[i], _modes[i])) */\n              swap1\n              dup1\n              0x01\n              dup2\n              sload\n              add\n              dup1\n              dup3\n              sstore\n              dup1\n              swap2\n              pop\n              pop\n              0x01\n              swap1\n              sub\n              swap1\n              0x00\n              mstore\n              keccak256(0x00, 0x20)\n              swap1\n              0x03\n              mul\n              add\n              0x00\n              swap1\n              swap2\n              swap1\n              swap2\n              swap1\n              swap2\n              pop\n              0x00\n              dup3\n              add\n              mload\n              dup2\n              0x00\n              add\n              swap1\n              dup1\n              mload\n              swap1\n              0x20\n              add\n              swap1\n              tag_177\n              swap3\n              swap2\n              swap1\n              tag_178\n              jump\t// in\n            tag_177:\n              pop\n              0x20\n              dup3\n              add\n              mload\n              dup2\n              0x01\n              add\n              sstore\n              0x40\n              dup3\n              add\n              mload\n              dup2\n              0x02\n              add\n              sstore\n              pop\n              pop\n                /* \"Vendor.sol\":3013:3016  i++ */\n              dup1\n              dup1\n              tag_179\n              swap1\n              tag_152\n              jump\t// in\n            tag_179:\n              swap2\n              pop\n              pop\n                /* \"Vendor.sol\":2989:3321  for (uint i = 0; i < 8; i++) {... */\n              jump(tag_163)\n            tag_164:\n              pop\n                /* \"Vendor.sol\":7203:7204  _ */\n            tag_162:\n                /* \"Vendor.sol\":2853:3327  function setConds(string[8] memory _names, int[8] memory _values, int[8] memory _modes) external atStage(Stages.Initialising) {... */\n              pop\n              pop\n              pop\n              pop\n              jump\t// out\n                /* \"Vendor.sol\":758:787  bool public satisfied = false */\n            tag_59:\n              0x0b\n              0x00\n              swap1\n              sload\n              swap1\n              0x0100\n              exp\n              swap1\n              div\n              0xff\n              and\n              dup2\n              jump\t// out\n                /* \"Vendor.sol\":618:645  uint public nextBillingDate */\n            tag_64:\n              sload(0x09)\n              dup2\n              jump\t// out\n                /* \"Vendor.sol\":349:371  address public manager */\n            tag_68:\n              0x00\n              0x01\n              swap1\n              sload\n              swap1\n              0x0100\n              exp\n              swap1\n              div\n              0xffffffffffffffffffffffffffffffffffffffff\n              and\n              dup2\n              jump\t// out\n                /* \"Vendor.sol\":447:466  string public title */\n            tag_73:\n              0x03\n              dup1\n              sload\n              tag_180\n              swap1\n              tag_119\n              jump\t// in\n            tag_180:\n              dup1\n              0x1f\n              add\n              0x20\n              dup1\n              swap2\n              div\n              mul\n              0x20\n              add\n              mload(0x40)\n              swap1\n              dup2\n              add\n              0x40\n              mstore\n              dup1\n              swap3\n              swap2\n              swap1\n              dup2\n              dup2\n              mstore\n              0x20\n              add\n              dup3\n              dup1\n              sload\n              tag_181\n              swap1\n              tag_119\n              jump\t// in\n            tag_181:\n              dup1\n              iszero\n              tag_182\n              jumpi\n              dup1\n              0x1f\n              lt\n              tag_183\n              jumpi\n              0x0100\n              dup1\n              dup4\n              sload\n              div\n              mul\n              dup4\n              mstore\n              swap2\n              0x20\n              add\n              swap2\n              jump(tag_182)\n            tag_183:\n              dup3\n              add\n              swap2\n              swap1\n              0x00\n              mstore\n              keccak256(0x00, 0x20)\n              swap1\n            tag_184:\n              dup2\n              sload\n              dup2\n              mstore\n              swap1\n              0x01\n              add\n              swap1\n              0x20\n              add\n              dup1\n              dup4\n              gt\n              tag_184\n              jumpi\n              dup3\n              swap1\n              sub\n              0x1f\n              and\n              dup3\n              add\n              swap2\n            tag_182:\n              pop\n              pop\n              pop\n              pop\n              pop\n              dup2\n              jump\t// out\n                /* \"Vendor.sol\":533:555  uint public expiryDate */\n            tag_78:\n              sload(0x06)\n              dup2\n              jump\t// out\n                /* \"Vendor.sol\":4101:4219  function balanceOf() external view atStage(Stages.Active) returns (uint) {... */\n            tag_82:\n                /* \"Vendor.sol\":4168:4172  uint */\n              0x00\n                /* \"Vendor.sol\":4144:4157  Stages.Active */\n              0x02\n                /* \"Vendor.sol\":7145:7151  _stage */\n              dup1\n                /* \"Vendor.sol\":7136:7151  stage == _stage */\n              0x02\n              dup2\n              gt\n              iszero\n              tag_186\n              jumpi\n              tag_187\n              tag_127\n              jump\t// in\n            tag_187:\n            tag_186:\n                /* \"Vendor.sol\":7136:7141  stage */\n              0x00\n              dup1\n              sload\n              swap1\n              0x0100\n              exp\n              swap1\n              div\n              0xff\n              and\n                /* \"Vendor.sol\":7136:7151  stage == _stage */\n              0x02\n              dup2\n              gt\n              iszero\n              tag_188\n              jumpi\n              tag_189\n              tag_127\n              jump\t// in\n            tag_189:\n            tag_188:\n              eq\n                /* \"Vendor.sol\":7128:7193  require(stage == _stage, \"Contract is not in the required state\") */\n              tag_190\n              jumpi\n              mload(0x40)\n              0x08c379a000000000000000000000000000000000000000000000000000000000\n              dup2\n              mstore\n              0x04\n              add\n              tag_191\n              swap1\n              tag_132\n              jump\t// in\n            tag_191:\n              mload(0x40)\n              dup1\n              swap2\n              sub\n              swap1\n              revert\n            tag_190:\n                /* \"Vendor.sol\":4191:4212  address(this).balance */\n              selfbalance\n                /* \"Vendor.sol\":4184:4212  return address(this).balance */\n              swap2\n              pop\n                /* \"Vendor.sol\":4101:4219  function balanceOf() external view atStage(Stages.Active) returns (uint) {... */\n              pop\n              swap1\n              jump\t// out\n                /* \"Vendor.sol\":472:497  string public description */\n            tag_86:\n              0x04\n              dup1\n              sload\n              tag_193\n              swap1\n              tag_119\n              jump\t// in\n            tag_193:\n              dup1\n              0x1f\n              add\n              0x20\n              dup1\n              swap2\n              div\n              mul\n              0x20\n              add\n              mload(0x40)\n              swap1\n              dup2\n              add\n              0x40\n              mstore\n              dup1\n              swap3\n              swap2\n              swap1\n              dup2\n              dup2\n              mstore\n              0x20\n              add\n              dup3\n              dup1\n              sload\n              tag_194\n              swap1\n              tag_119\n              jump\t// in\n            tag_194:\n              dup1\n              iszero\n              tag_195\n              jumpi\n              dup1\n              0x1f\n              lt\n              tag_196\n              jumpi\n              0x0100\n              dup1\n              dup4\n              sload\n              div\n              mul\n              dup4\n              mstore\n              swap2\n              0x20\n              add\n              swap2\n              jump(tag_195)\n            tag_196:\n              dup3\n              add\n              swap2\n              swap1\n              0x00\n              mstore\n              keccak256(0x00, 0x20)\n              swap1\n            tag_197:\n              dup2\n              sload\n              dup2\n              mstore\n              swap1\n              0x01\n              add\n              swap1\n              0x20\n              add\n              dup1\n              dup4\n              gt\n              tag_197\n              jumpi\n              dup3\n              swap1\n              sub\n              0x1f\n              and\n              dup3\n              add\n              swap2\n            tag_195:\n              pop\n              pop\n              pop\n              pop\n              pop\n              dup2\n              jump\t// out\n                /* \"Vendor.sol\":3587:3680  function setActive() external atStage(Stages.Inactive) {... */\n            tag_90:\n                /* \"Vendor.sol\":3625:3640  Stages.Inactive */\n              0x01\n                /* \"Vendor.sol\":7145:7151  _stage */\n              dup1\n                /* \"Vendor.sol\":7136:7151  stage == _stage */\n              0x02\n              dup2\n              gt\n              iszero\n              tag_199\n              jumpi\n              tag_200\n              tag_127\n              jump\t// in\n            tag_200:\n            tag_199:\n                /* \"Vendor.sol\":7136:7141  stage */\n              0x00\n              dup1\n              sload\n              swap1\n              0x0100\n              exp\n              swap1\n              div\n              0xff\n              and\n                /* \"Vendor.sol\":7136:7151  stage == _stage */\n              0x02\n              dup2\n              gt\n              iszero\n              tag_201\n              jumpi\n              tag_202\n              tag_127\n              jump\t// in\n            tag_202:\n            tag_201:\n              eq\n                /* \"Vendor.sol\":7128:7193  require(stage == _stage, \"Contract is not in the required state\") */\n              tag_203\n              jumpi\n              mload(0x40)\n              0x08c379a000000000000000000000000000000000000000000000000000000000\n              dup2\n              mstore\n              0x04\n              add\n              tag_204\n              swap1\n              tag_132\n              jump\t// in\n            tag_204:\n              mload(0x40)\n              dup1\n              swap2\n              sub\n              swap1\n              revert\n            tag_203:\n                /* \"Vendor.sol\":3660:3673  Stages.Active */\n              0x02\n                /* \"Vendor.sol\":3652:3657  stage */\n              0x00\n              dup1\n                /* \"Vendor.sol\":3652:3673  stage = Stages.Active */\n              0x0100\n              exp\n              dup2\n              sload\n              dup2\n              0xff\n              mul\n              not\n              and\n              swap1\n              dup4\n              0x02\n              dup2\n              gt\n              iszero\n              tag_206\n              jumpi\n              tag_207\n              tag_127\n              jump\t// in\n            tag_207:\n            tag_206:\n              mul\n              or\n              swap1\n              sstore\n              pop\n                /* \"Vendor.sol\":3587:3680  function setActive() external atStage(Stages.Inactive) {... */\n              pop\n              jump\t// out\n                /* \"Vendor.sol\":651:675  uint public contractHash */\n            tag_93:\n              sload(0x0a)\n              dup2\n              jump\t// out\n                /* \"Vendor.sol\":3333:3581  function endInitStage() public atStage(Stages.Initialising) {... */\n            tag_97:\n                /* \"Vendor.sol\":3372:3391  Stages.Initialising */\n              0x00\n                /* \"Vendor.sol\":7145:7151  _stage */\n              dup1\n                /* \"Vendor.sol\":7136:7151  stage == _stage */\n              0x02\n              dup2\n              gt\n              iszero\n              tag_209\n              jumpi\n              tag_210\n              tag_127\n              jump\t// in\n            tag_210:\n            tag_209:\n                /* \"Vendor.sol\":7136:7141  stage */\n              0x00\n              dup1\n              sload\n              swap1\n              0x0100\n              exp\n              swap1\n              div\n              0xff\n              and\n                /* \"Vendor.sol\":7136:7151  stage == _stage */\n              0x02\n              dup2\n              gt\n              iszero\n              tag_211\n              jumpi\n              tag_212\n              tag_127\n              jump\t// in\n            tag_212:\n            tag_211:\n              eq\n                /* \"Vendor.sol\":7128:7193  require(stage == _stage, \"Contract is not in the required state\") */\n              tag_213\n              jumpi\n              mload(0x40)\n              0x08c379a000000000000000000000000000000000000000000000000000000000\n              dup2\n              mstore\n              0x04\n              add\n              tag_214\n              swap1\n              tag_132\n              jump\t// in\n            tag_214:\n              mload(0x40)\n              dup1\n              swap2\n              sub\n              swap1\n              revert\n            tag_213:\n                /* \"Vendor.sol\":3411:3426  Stages.Inactive */\n              0x01\n                /* \"Vendor.sol\":3403:3408  stage */\n              0x00\n              dup1\n                /* \"Vendor.sol\":3403:3426  stage = Stages.Inactive */\n              0x0100\n              exp\n              dup2\n              sload\n              dup2\n              0xff\n              mul\n              not\n              and\n              swap1\n              dup4\n              0x02\n              dup2\n              gt\n              iszero\n              tag_216\n              jumpi\n              tag_217\n              tag_127\n              jump\t// in\n            tag_217:\n            tag_216:\n              mul\n              or\n              swap1\n              sstore\n              pop\n                /* \"Vendor.sol\":3489:3495  uint i */\n              0x00\n                /* \"Vendor.sol\":3484:3575  for (uint i = 0; i < conditionArray.length; i++) {... */\n            tag_218:\n                /* \"Vendor.sol\":3505:3519  conditionArray */\n              0x0c\n                /* \"Vendor.sol\":3505:3526  conditionArray.length */\n              dup1\n              sload\n              swap1\n              pop\n                /* \"Vendor.sol\":3501:3502  i */\n              dup2\n                /* \"Vendor.sol\":3501:3526  i < conditionArray.length */\n              lt\n                /* \"Vendor.sol\":3484:3575  for (uint i = 0; i < conditionArray.length; i++) {... */\n              iszero\n              tag_219\n              jumpi\n                /* \"Vendor.sol\":3563:3564  0 */\n              0x00\n                /* \"Vendor.sol\":3547:3557  cumulative */\n              0x0f\n                /* \"Vendor.sol\":3547:3560  cumulative[i] */\n              0x00\n                /* \"Vendor.sol\":3558:3559  i */\n              dup4\n                /* \"Vendor.sol\":3547:3560  cumulative[i] */\n              dup2\n              mstore\n              0x20\n              add\n              swap1\n              dup2\n              mstore\n              0x20\n              add\n              0x00\n              keccak256\n                /* \"Vendor.sol\":3547:3564  cumulative[i] = 0 */\n              dup2\n              swap1\n              sstore\n              pop\n                /* \"Vendor.sol\":3528:3531  i++ */\n              dup1\n              dup1\n              tag_221\n              swap1\n              tag_152\n              jump\t// in\n            tag_221:\n              swap2\n              pop\n              pop\n                /* \"Vendor.sol\":3484:3575  for (uint i = 0; i < conditionArray.length; i++) {... */\n              jump(tag_218)\n            tag_219:\n              pop\n                /* \"Vendor.sol\":3333:3581  function endInitStage() public atStage(Stages.Initialising) {... */\n              pop\n              jump\t// out\n                /* \"Vendor.sol\":561:579  uint public amount */\n            tag_100:\n              sload(0x07)\n              dup2\n              jump\t// out\n                /* \"Vendor.sol\":412:440  address payable public payee */\n            tag_104:\n              0x02\n              0x00\n              swap1\n              sload\n              swap1\n              0x0100\n              exp\n              swap1\n              div\n              0xffffffffffffffffffffffffffffffffffffffff\n              and\n              dup2\n              jump\t// out\n                /* \"Vendor.sol\":302:343  Stages public stage = Stages.Initialising */\n            tag_108:\n              0x00\n              dup1\n              sload\n              swap1\n              0x0100\n              exp\n              swap1\n              div\n              0xff\n              and\n              dup2\n              jump\t// out\n                /* \"Vendor.sol\":3939:4095  function payContract() external payable atStage(Stages.Active) checkBillingDate() {... */\n            tag_112:\n                /* \"Vendor.sol\":3987:4000  Stages.Active */\n              0x02\n                /* \"Vendor.sol\":7145:7151  _stage */\n              dup1\n                /* \"Vendor.sol\":7136:7151  stage == _stage */\n              0x02\n              dup2\n              gt\n              iszero\n              tag_223\n              jumpi\n              tag_224\n              tag_127\n              jump\t// in\n            tag_224:\n            tag_223:\n                /* \"Vendor.sol\":7136:7141  stage */\n              0x00\n              dup1\n              sload\n              swap1\n              0x0100\n              exp\n              swap1\n              div\n              0xff\n              and\n                /* \"Vendor.sol\":7136:7151  stage == _stage */\n              0x02\n              dup2\n              gt\n              iszero\n              tag_225\n              jumpi\n              tag_226\n              tag_127\n              jump\t// in\n            tag_226:\n            tag_225:\n              eq\n                /* \"Vendor.sol\":7128:7193  require(stage == _stage, \"Contract is not in the required state\") */\n              tag_227\n              jumpi\n              mload(0x40)\n              0x08c379a000000000000000000000000000000000000000000000000000000000\n              dup2\n              mstore\n              0x04\n              add\n              tag_228\n              swap1\n              tag_132\n              jump\t// in\n            tag_228:\n              mload(0x40)\n              dup1\n              swap2\n              sub\n              swap1\n              revert\n            tag_227:\n                /* \"Vendor.sol\":6826:6841  nextBillingDate */\n              sload(0x09)\n                /* \"Vendor.sol\":6811:6823  block.number */\n              number\n                /* \"Vendor.sol\":6811:6841  block.number > nextBillingDate */\n              gt\n                /* \"Vendor.sol\":6807:7035  if (block.number > nextBillingDate) {... */\n              iszero\n              tag_230\n              jumpi\n                /* \"Vendor.sol\":6857:6870  isSatisfied() */\n              tag_231\n                /* \"Vendor.sol\":6857:6868  isSatisfied */\n              tag_136\n                /* \"Vendor.sol\":6857:6870  isSatisfied() */\n              jump\t// in\n            tag_231:\n                /* \"Vendor.sol\":6807:7035  if (block.number > nextBillingDate) {... */\n              jump(tag_232)\n            tag_230:\n                /* \"Vendor.sol\":6925:6940  prevBillingDate */\n              sload(0x08)\n                /* \"Vendor.sol\":6909:6921  block.number */\n              number\n                /* \"Vendor.sol\":6909:6940  block.number >= prevBillingDate */\n              lt\n              iszero\n                /* \"Vendor.sol\":6909:6975  block.number >= prevBillingDate && block.number <= nextBillingDate */\n              dup1\n              iszero\n              tag_233\n              jumpi\n              pop\n                /* \"Vendor.sol\":6960:6975  nextBillingDate */\n              sload(0x09)\n                /* \"Vendor.sol\":6944:6956  block.number */\n              number\n                /* \"Vendor.sol\":6944:6975  block.number <= nextBillingDate */\n              gt\n              iszero\n                /* \"Vendor.sol\":6909:6975  block.number >= prevBillingDate && block.number <= nextBillingDate */\n            tag_233:\n                /* \"Vendor.sol\":6901:7009  require(block.number >= prevBillingDate && block.number <= nextBillingDate, \"Not within the billing period\") */\n              tag_234\n              jumpi\n              mload(0x40)\n              0x08c379a000000000000000000000000000000000000000000000000000000000\n              dup2\n              mstore\n              0x04\n              add\n              tag_235\n              swap1\n              tag_141\n              jump\t// in\n            tag_235:\n              mload(0x40)\n              dup1\n              swap2\n              sub\n              swap1\n              revert\n            tag_234:\n                /* \"Vendor.sol\":4048:4054  amount */\n              sload(0x07)\n                /* \"Vendor.sol\":4035:4044  msg.value */\n              callvalue\n                /* \"Vendor.sol\":4035:4054  msg.value != amount */\n              eq\n                /* \"Vendor.sol\":4031:4089  if (msg.value != amount) {... */\n              tag_237\n              jumpi\n                /* \"Vendor.sol\":4070:4078  revert() */\n              0x00\n              dup1\n              revert\n                /* \"Vendor.sol\":4031:4089  if (msg.value != amount) {... */\n            tag_237:\n                /* \"Vendor.sol\":6807:7035  if (block.number > nextBillingDate) {... */\n            tag_232:\n                /* \"Vendor.sol\":3939:4095  function payContract() external payable atStage(Stages.Active) checkBillingDate() {... */\n              pop\n              jump\t// out\n                /* \"Vendor.sol\":3686:3781  function setInactive() external atStage(Stages.Active) {... */\n            tag_115:\n                /* \"Vendor.sol\":3726:3739  Stages.Active */\n              0x02\n                /* \"Vendor.sol\":7145:7151  _stage */\n              dup1\n                /* \"Vendor.sol\":7136:7151  stage == _stage */\n              0x02\n              dup2\n              gt\n              iszero\n              tag_239\n              jumpi\n              tag_240\n              tag_127\n              jump\t// in\n            tag_240:\n            tag_239:\n                /* \"Vendor.sol\":7136:7141  stage */\n              0x00\n              dup1\n              sload\n              swap1\n              0x0100\n              exp\n              swap1\n              div\n              0xff\n              and\n                /* \"Vendor.sol\":7136:7151  stage == _stage */\n              0x02\n              dup2\n              gt\n              iszero\n              tag_241\n              jumpi\n              tag_242\n              tag_127\n              jump\t// in\n            tag_242:\n            tag_241:\n              eq\n                /* \"Vendor.sol\":7128:7193  require(stage == _stage, \"Contract is not in the required state\") */\n              tag_243\n              jumpi\n              mload(0x40)\n              0x08c379a000000000000000000000000000000000000000000000000000000000\n              dup2\n              mstore\n              0x04\n              add\n              tag_244\n              swap1\n              tag_132\n              jump\t// in\n            tag_244:\n              mload(0x40)\n              dup1\n              swap2\n              sub\n              swap1\n              revert\n            tag_243:\n                /* \"Vendor.sol\":3759:3774  Stages.Inactive */\n              0x01\n                /* \"Vendor.sol\":3751:3756  stage */\n              0x00\n              dup1\n                /* \"Vendor.sol\":3751:3774  stage = Stages.Inactive */\n              0x0100\n              exp\n              dup2\n              sload\n              dup2\n              0xff\n              mul\n              not\n              and\n              swap1\n              dup4\n              0x02\n              dup2\n              gt\n              iszero\n              tag_246\n              jumpi\n              tag_247\n              tag_127\n              jump\t// in\n            tag_247:\n            tag_246:\n              mul\n              or\n              swap1\n              sstore\n              pop\n                /* \"Vendor.sol\":3686:3781  function setInactive() external atStage(Stages.Active) {... */\n              pop\n              jump\t// out\n                /* \"Vendor.sol\":5109:5710  function isSatisfied() private atStage(Stages.Active) {... */\n            tag_136:\n                /* \"Vendor.sol\":5148:5161  Stages.Active */\n              0x02\n                /* \"Vendor.sol\":7145:7151  _stage */\n              dup1\n                /* \"Vendor.sol\":7136:7151  stage == _stage */\n              0x02\n              dup2\n              gt\n              iszero\n              tag_249\n              jumpi\n              tag_250\n              tag_127\n              jump\t// in\n            tag_250:\n            tag_249:\n                /* \"Vendor.sol\":7136:7141  stage */\n              0x00\n              dup1\n              sload\n              swap1\n              0x0100\n              exp\n              swap1\n              div\n              0xff\n              and\n                /* \"Vendor.sol\":7136:7151  stage == _stage */\n              0x02\n              dup2\n              gt\n              iszero\n              tag_251\n              jumpi\n              tag_252\n              tag_127\n              jump\t// in\n            tag_252:\n            tag_251:\n              eq\n                /* \"Vendor.sol\":7128:7193  require(stage == _stage, \"Contract is not in the required state\") */\n              tag_253\n              jumpi\n              mload(0x40)\n              0x08c379a000000000000000000000000000000000000000000000000000000000\n              dup2\n              mstore\n              0x04\n              add\n              tag_254\n              swap1\n              tag_132\n              jump\t// in\n            tag_254:\n              mload(0x40)\n              dup1\n              swap2\n              sub\n              swap1\n              revert\n            tag_253:\n                /* \"Vendor.sol\":5178:5184  uint i */\n              0x00\n                /* \"Vendor.sol\":5173:5554  for (uint i = 0; i < conditionArray.length; i++) {... */\n            tag_256:\n                /* \"Vendor.sol\":5194:5208  conditionArray */\n              0x0c\n                /* \"Vendor.sol\":5194:5215  conditionArray.length */\n              dup1\n              sload\n              swap1\n              pop\n                /* \"Vendor.sol\":5190:5191  i */\n              dup2\n                /* \"Vendor.sol\":5190:5215  i < conditionArray.length */\n              lt\n                /* \"Vendor.sol\":5173:5554  for (uint i = 0; i < conditionArray.length; i++) {... */\n              iszero\n              tag_257\n              jumpi\n                /* \"Vendor.sol\":5236:5244  int mode */\n              0x00\n                /* \"Vendor.sol\":5247:5261  conditionArray */\n              0x0c\n                /* \"Vendor.sol\":5262:5263  i */\n              dup3\n                /* \"Vendor.sol\":5247:5264  conditionArray[i] */\n              dup2\n              sload\n              dup2\n              lt\n              tag_259\n              jumpi\n              tag_260\n              tag_148\n              jump\t// in\n            tag_260:\n            tag_259:\n              swap1\n              0x00\n              mstore\n              keccak256(0x00, 0x20)\n              swap1\n              0x03\n              mul\n              add\n                /* \"Vendor.sol\":5247:5269  conditionArray[i].mode */\n              0x01\n              add\n              sload\n                /* \"Vendor.sol\":5236:5269  int mode = conditionArray[i].mode */\n              swap1\n              pop\n                /* \"Vendor.sol\":5283:5292  int value */\n              0x00\n                /* \"Vendor.sol\":5295:5309  conditionArray */\n              0x0c\n                /* \"Vendor.sol\":5310:5311  i */\n              dup4\n                /* \"Vendor.sol\":5295:5312  conditionArray[i] */\n              dup2\n              sload\n              dup2\n              lt\n              tag_262\n              jumpi\n              tag_263\n              tag_148\n              jump\t// in\n            tag_263:\n            tag_262:\n              swap1\n              0x00\n              mstore\n              keccak256(0x00, 0x20)\n              swap1\n              0x03\n              mul\n              add\n                /* \"Vendor.sol\":5295:5318  conditionArray[i].value */\n              0x02\n              add\n              sload\n                /* \"Vendor.sol\":5283:5318  int value = conditionArray[i].value */\n              swap1\n              pop\n                /* \"Vendor.sol\":5332:5342  int _value */\n              0x00\n                /* \"Vendor.sol\":5359:5364  count */\n              sload(0x10)\n                /* \"Vendor.sol\":5345:5355  cumulative */\n              0x0f\n                /* \"Vendor.sol\":5345:5358  cumulative[i] */\n              0x00\n                /* \"Vendor.sol\":5356:5357  i */\n              dup7\n                /* \"Vendor.sol\":5345:5358  cumulative[i] */\n              dup2\n              mstore\n              0x20\n              add\n              swap1\n              dup2\n              mstore\n              0x20\n              add\n              0x00\n              keccak256\n              sload\n                /* \"Vendor.sol\":5345:5364  cumulative[i]/count */\n              tag_265\n              swap2\n              swap1\n              tag_266\n              jump\t// in\n            tag_265:\n                /* \"Vendor.sol\":5332:5364  int _value = cumulative[i]/count */\n              swap1\n              pop\n                /* \"Vendor.sol\":5396:5426  condValid(mode, _value, value) */\n              tag_267\n                /* \"Vendor.sol\":5406:5410  mode */\n              dup4\n                /* \"Vendor.sol\":5412:5418  _value */\n              dup3\n                /* \"Vendor.sol\":5420:5425  value */\n              dup5\n                /* \"Vendor.sol\":5396:5405  condValid */\n              tag_268\n                /* \"Vendor.sol\":5396:5426  condValid(mode, _value, value) */\n              jump\t// in\n            tag_267:\n                /* \"Vendor.sol\":5391:5544  if (!condValid(mode, _value, value)) {... */\n              tag_269\n              jumpi\n                /* \"Vendor.sol\":5446:5454  refund() */\n              tag_270\n                /* \"Vendor.sol\":5446:5452  refund */\n              tag_271\n                /* \"Vendor.sol\":5446:5454  refund() */\n              jump\t// in\n            tag_270:\n                /* \"Vendor.sol\":5483:5493  msg.sender */\n              caller\n                /* \"Vendor.sol\":5477:5505  State(msg.sender, satisfied) */\n              0xffffffffffffffffffffffffffffffffffffffff\n              and\n              0xf47c8c25e090e0f314fa7de6e99a2e6fa82bac7efceb07293a788d48402b3a43\n                /* \"Vendor.sol\":5495:5504  satisfied */\n              0x0b\n              0x00\n              swap1\n              sload\n              swap1\n              0x0100\n              exp\n              swap1\n              div\n              0xff\n              and\n                /* \"Vendor.sol\":5477:5505  State(msg.sender, satisfied) */\n              mload(0x40)\n              tag_272\n              swap2\n              swap1\n              tag_61\n              jump\t// in\n            tag_272:\n              mload(0x40)\n              dup1\n              swap2\n              sub\n              swap1\n              log2\n                /* \"Vendor.sol\":5523:5530  return; */\n              pop\n              pop\n              pop\n              pop\n              jump(tag_255)\n                /* \"Vendor.sol\":5391:5544  if (!condValid(mode, _value, value)) {... */\n            tag_269:\n                /* \"Vendor.sol\":5222:5554  {... */\n              pop\n              pop\n              pop\n                /* \"Vendor.sol\":5217:5220  i++ */\n              dup1\n              dup1\n              tag_273\n              swap1\n              tag_152\n              jump\t// in\n            tag_273:\n              swap2\n              pop\n              pop\n                /* \"Vendor.sol\":5173:5554  for (uint i = 0; i < conditionArray.length; i++) {... */\n              jump(tag_256)\n            tag_257:\n              pop\n                /* \"Vendor.sol\":5575:5579  true */\n              0x01\n                /* \"Vendor.sol\":5563:5572  satisfied */\n              0x0b\n              0x00\n                /* \"Vendor.sol\":5563:5579  satisfied = true */\n              0x0100\n              exp\n              dup2\n              sload\n              dup2\n              0xff\n              mul\n              not\n              and\n              swap1\n              dup4\n              iszero\n              iszero\n              mul\n              or\n              swap1\n              sstore\n              pop\n                /* \"Vendor.sol\":5600:5610  msg.sender */\n              caller\n                /* \"Vendor.sol\":5594:5622  State(msg.sender, satisfied) */\n              0xffffffffffffffffffffffffffffffffffffffff\n              and\n              0xf47c8c25e090e0f314fa7de6e99a2e6fa82bac7efceb07293a788d48402b3a43\n                /* \"Vendor.sol\":5612:5621  satisfied */\n              0x0b\n              0x00\n              swap1\n              sload\n              swap1\n              0x0100\n              exp\n              swap1\n              div\n              0xff\n              and\n                /* \"Vendor.sol\":5594:5622  State(msg.sender, satisfied) */\n              mload(0x40)\n              tag_274\n              swap2\n              swap1\n              tag_61\n              jump\t// in\n            tag_274:\n              mload(0x40)\n              dup1\n              swap2\n              sub\n              swap1\n              log2\n                /* \"Vendor.sol\":5692:5703  payVendor() */\n              tag_275\n                /* \"Vendor.sol\":5692:5701  payVendor */\n              tag_276\n                /* \"Vendor.sol\":5692:5703  payVendor() */\n              jump\t// in\n            tag_275:\n                /* \"Vendor.sol\":7203:7204  _ */\n            tag_255:\n                /* \"Vendor.sol\":5109:5710  function isSatisfied() private atStage(Stages.Active) {... */\n              pop\n              jump\t// out\n                /* \"Vendor.sol\":5852:6417  function condValid(int mode, int _value, int value) private pure returns (bool) {... */\n            tag_268:\n                /* \"Vendor.sol\":5926:5930  bool */\n              0x00\n                /* \"Vendor.sol\":5954:5956  -1 */\n              0xffffffffffffffffffffffffffffffffffffffffffffffffffffffffffffffff\n                /* \"Vendor.sol\":5946:5950  mode */\n              dup5\n                /* \"Vendor.sol\":5946:5956  mode != -1 */\n              eq\n                /* \"Vendor.sol\":5942:6390  if (mode != -1) {... */\n              tag_278\n              jumpi\n                /* \"Vendor.sol\":5988:5989  1 */\n              0x01\n                /* \"Vendor.sol\":5983:5984  1 */\n              dup1\n                /* \"Vendor.sol\":5976:5980  mode */\n              dup6\n                /* \"Vendor.sol\":5976:5984  mode & 1 */\n              and\n                /* \"Vendor.sol\":5976:5989  mode & 1 == 1 */\n              eq\n                /* \"Vendor.sol\":5972:6099  if (mode & 1 == 1) {... */\n              iszero\n              tag_279\n              jumpi\n                /* \"Vendor.sol\":6024:6029  value */\n              dup2\n                /* \"Vendor.sol\":6015:6021  _value */\n              dup4\n                /* \"Vendor.sol\":6015:6029  _value > value */\n              sgt\n                /* \"Vendor.sol\":6009:6085  if (!(_value > value)) {... */\n              tag_280\n              jumpi\n                /* \"Vendor.sol\":6061:6066  false */\n              0x00\n                /* \"Vendor.sol\":6054:6066  return false */\n              swap1\n              pop\n              jump(tag_277)\n                /* \"Vendor.sol\":6009:6085  if (!(_value > value)) {... */\n            tag_280:\n                /* \"Vendor.sol\":5972:6099  if (mode & 1 == 1) {... */\n            tag_279:\n                /* \"Vendor.sol\":6128:6129  2 */\n              0x02\n                /* \"Vendor.sol\":6123:6124  2 */\n              dup1\n                /* \"Vendor.sol\":6116:6120  mode */\n              dup6\n                /* \"Vendor.sol\":6116:6124  mode & 2 */\n              and\n                /* \"Vendor.sol\":6116:6129  mode & 2 == 2 */\n              eq\n                /* \"Vendor.sol\":6112:6240  if (mode & 2 == 2) {... */\n              iszero\n              tag_281\n              jumpi\n                /* \"Vendor.sol\":6165:6170  value */\n              dup2\n                /* \"Vendor.sol\":6155:6161  _value */\n              dup4\n                /* \"Vendor.sol\":6155:6170  _value == value */\n              eq\n                /* \"Vendor.sol\":6149:6226  if (!(_value == value)) {... */\n              tag_282\n              jumpi\n                /* \"Vendor.sol\":6202:6207  false */\n              0x00\n                /* \"Vendor.sol\":6195:6207  return false */\n              swap1\n              pop\n              jump(tag_277)\n                /* \"Vendor.sol\":6149:6226  if (!(_value == value)) {... */\n            tag_282:\n                /* \"Vendor.sol\":6112:6240  if (mode & 2 == 2) {... */\n            tag_281:\n                /* \"Vendor.sol\":6269:6270  4 */\n              0x04\n                /* \"Vendor.sol\":6264:6265  4 */\n              dup1\n                /* \"Vendor.sol\":6257:6261  mode */\n              dup6\n                /* \"Vendor.sol\":6257:6265  mode & 4 */\n              and\n                /* \"Vendor.sol\":6257:6270  mode & 4 == 4 */\n              eq\n                /* \"Vendor.sol\":6253:6380  if (mode & 4 == 4) {... */\n              iszero\n              tag_283\n              jumpi\n                /* \"Vendor.sol\":6305:6310  value */\n              dup2\n                /* \"Vendor.sol\":6296:6302  _value */\n              dup4\n                /* \"Vendor.sol\":6296:6310  _value < value */\n              slt\n                /* \"Vendor.sol\":6290:6366  if (!(_value < value)) {... */\n              tag_284\n              jumpi\n                /* \"Vendor.sol\":6342:6347  false */\n              0x00\n                /* \"Vendor.sol\":6335:6347  return false */\n              swap1\n              pop\n              jump(tag_277)\n                /* \"Vendor.sol\":6290:6366  if (!(_value < value)) {... */\n            tag_284:\n                /* \"Vendor.sol\":6253:6380  if (mode & 4 == 4) {... */\n            tag_283:\n                /* \"Vendor.sol\":5942:6390  if (mode != -1) {... */\n            tag_278:\n                /* \"Vendor.sol\":6406:6410  true */\n              0x01\n                /* \"Vendor.sol\":6399:6410  return true */\n              swap1\n              pop\n                /* \"Vendor.sol\":5852:6417  function condValid(int mode, int _value, int value) private pure returns (bool) {... */\n            tag_277:\n              swap4\n              swap3\n              pop\n              pop\n              pop\n              jump\t// out\n                /* \"Vendor.sol\":4442:4566  function refund() private {... */\n            tag_271:\n                /* \"Vendor.sol\":4478:4484  client */\n              0x01\n              0x00\n              swap1\n              sload\n              swap1\n              0x0100\n              exp\n              swap1\n              div\n              0xffffffffffffffffffffffffffffffffffffffff\n              and\n                /* \"Vendor.sol\":4478:4493  client.transfer */\n              0xffffffffffffffffffffffffffffffffffffffff\n              and\n                /* \"Vendor.sol\":4478:4501  client.transfer(amount) */\n              0x08fc\n                /* \"Vendor.sol\":4494:4500  amount */\n              sload(0x07)\n                /* \"Vendor.sol\":4478:4501  client.transfer(amount) */\n              swap1\n              dup2\n              iszero\n              mul\n              swap1\n              mload(0x40)\n              0x00\n              mload(0x40)\n              dup1\n              dup4\n              sub\n              dup2\n              dup6\n              dup9\n              dup9\n              call\n              swap4\n              pop\n              pop\n              pop\n              pop\n              iszero\n              dup1\n              iszero\n              tag_287\n              jumpi\n              returndatasize\n              0x00\n              dup1\n              returndatacopy\n              revert(0x00, returndatasize)\n            tag_287:\n              pop\n                /* \"Vendor.sol\":4442:4566  function refund() private {... */\n              jump\t// out\n                /* \"Vendor.sol\":4306:4432  function payVendor() private {... */\n            tag_276:\n                /* \"Vendor.sol\":4345:4350  payee */\n              0x02\n              0x00\n              swap1\n              sload\n              swap1\n              0x0100\n              exp\n              swap1\n              div\n              0xffffffffffffffffffffffffffffffffffffffff\n              and\n                /* \"Vendor.sol\":4345:4359  payee.transfer */\n              0xffffffffffffffffffffffffffffffffffffffff\n              and\n                /* \"Vendor.sol\":4345:4367  payee.transfer(amount) */\n              0x08fc\n                /* \"Vendor.sol\":4360:4366  amount */\n              sload(0x07)\n                /* \"Vendor.sol\":4345:4367  payee.transfer(amount) */\n              swap1\n              dup2\n              iszero\n              mul\n              swap1\n              mload(0x40)\n              0x00\n              mload(0x40)\n              dup1\n              dup4\n              sub\n              dup2\n              dup6\n              dup9\n              dup9\n              call\n              swap4\n              pop\n              pop\n              pop\n              pop\n              iszero\n              dup1\n              iszero\n              tag_290\n              jumpi\n              returndatasize\n              0x00\n              dup1\n              returndatacopy\n              revert(0x00, returndatasize)\n            tag_290:\n              pop\n                /* \"Vendor.sol\":4306:4432  function payVendor() private {... */\n              jump\t// out\n            tag_178:\n              dup3\n              dup1\n              sload\n              tag_291\n              swap1\n              tag_119\n              jump\t// in\n            tag_291:\n              swap1\n              0x00\n              mstore\n              keccak256(0x00, 0x20)\n              swap1\n              0x1f\n              add\n              0x20\n              swap1\n              div\n              dup2\n              add\n              swap3\n              dup3\n              tag_293\n              jumpi\n              0x00\n              dup6\n              sstore\n              jump(tag_292)\n            tag_293:\n              dup3\n              0x1f\n              lt\n              tag_294\n              jumpi\n              dup1\n              mload\n              not(0xff)\n              and\n              dup4\n              dup1\n              add\n              or\n              dup6\n              sstore\n              jump(tag_292)\n            tag_294:\n              dup3\n              dup1\n              add\n              0x01\n              add\n              dup6\n              sstore\n              dup3\n              iszero\n              tag_292\n              jumpi\n              swap2\n              dup3\n              add\n            tag_295:\n              dup3\n              dup2\n              gt\n              iszero\n              tag_296\n              jumpi\n              dup3\n              mload\n              dup3\n              sstore\n              swap2\n              0x20\n              add\n              swap2\n              swap1\n              0x01\n              add\n              swap1\n              jump(tag_295)\n            tag_296:\n            tag_292:\n              pop\n              swap1\n              pop\n              tag_297\n              swap2\n              swap1\n              tag_298\n              jump\t// in\n            tag_297:\n              pop\n              swap1\n              jump\t// out\n            tag_298:\n            tag_299:\n              dup1\n              dup3\n              gt\n              iszero\n              tag_300\n              jumpi\n              0x00\n              dup2\n              0x00\n              swap1\n              sstore\n              pop\n              0x01\n              add\n              jump(tag_299)\n            tag_300:\n              pop\n              swap1\n              jump\t// out\n                /* \"#utility.yul\":24:676   */\n            tag_302:\n                /* \"#utility.yul\":117:122   */\n              0x00\n                /* \"#utility.yul\":142:220   */\n              tag_304\n                /* \"#utility.yul\":158:219   */\n              tag_305\n                /* \"#utility.yul\":212:218   */\n              dup5\n                /* \"#utility.yul\":158:219   */\n              tag_306\n              jump\t// in\n            tag_305:\n                /* \"#utility.yul\":142:220   */\n              tag_307\n              jump\t// in\n            tag_304:\n                /* \"#utility.yul\":133:220   */\n              swap1\n              pop\n                /* \"#utility.yul\":240:245   */\n              dup1\n                /* \"#utility.yul\":266:272   */\n              dup3\n                /* \"#utility.yul\":316:319   */\n              dup6\n                /* \"#utility.yul\":308:312   */\n              0x20\n                /* \"#utility.yul\":300:306   */\n              dup7\n                /* \"#utility.yul\":296:313   */\n              mul\n                /* \"#utility.yul\":291:294   */\n              dup3\n                /* \"#utility.yul\":287:314   */\n              add\n                /* \"#utility.yul\":284:320   */\n              gt\n                /* \"#utility.yul\":281:283   */\n              iszero\n              tag_308\n              jumpi\n                /* \"#utility.yul\":335:414   */\n              tag_309\n              tag_310\n              jump\t// in\n            tag_309:\n                /* \"#utility.yul\":281:283   */\n            tag_308:\n                /* \"#utility.yul\":448:449   */\n              0x00\n                /* \"#utility.yul\":433:670   */\n            tag_311:\n                /* \"#utility.yul\":458:464   */\n              dup6\n                /* \"#utility.yul\":455:456   */\n              dup2\n                /* \"#utility.yul\":452:465   */\n              lt\n                /* \"#utility.yul\":433:670   */\n              iszero\n              tag_313\n              jumpi\n                /* \"#utility.yul\":526:529   */\n              dup2\n                /* \"#utility.yul\":555:591   */\n              tag_314\n                /* \"#utility.yul\":587:590   */\n              dup9\n                /* \"#utility.yul\":575:585   */\n              dup3\n                /* \"#utility.yul\":555:591   */\n              tag_315\n              jump\t// in\n            tag_314:\n                /* \"#utility.yul\":550:553   */\n              dup5\n                /* \"#utility.yul\":543:592   */\n              mstore\n                /* \"#utility.yul\":621:625   */\n              0x20\n                /* \"#utility.yul\":616:619   */\n              dup5\n                /* \"#utility.yul\":612:626   */\n              add\n                /* \"#utility.yul\":605:626   */\n              swap4\n              pop\n                /* \"#utility.yul\":655:659   */\n              0x20\n                /* \"#utility.yul\":650:653   */\n              dup4\n                /* \"#utility.yul\":646:660   */\n              add\n                /* \"#utility.yul\":639:660   */\n              swap3\n              pop\n                /* \"#utility.yul\":493:670   */\n              pop\n                /* \"#utility.yul\":480:481   */\n              0x01\n                /* \"#utility.yul\":477:478   */\n              dup2\n                /* \"#utility.yul\":473:482   */\n              add\n                /* \"#utility.yul\":468:482   */\n              swap1\n              pop\n                /* \"#utility.yul\":433:670   */\n              jump(tag_311)\n            tag_313:\n                /* \"#utility.yul\":437:451   */\n              pop\n                /* \"#utility.yul\":123:676   */\n              pop\n              pop\n              swap4\n              swap3\n              pop\n              pop\n              pop\n              jump\t// out\n                /* \"#utility.yul\":698:1417   */\n            tag_316:\n                /* \"#utility.yul\":793:798   */\n              0x00\n                /* \"#utility.yul\":818:898   */\n              tag_318\n                /* \"#utility.yul\":834:897   */\n              tag_319\n                /* \"#utility.yul\":890:896   */\n              dup5\n                /* \"#utility.yul\":834:897   */\n              tag_320\n              jump\t// in\n            tag_319:\n                /* \"#utility.yul\":818:898   */\n              tag_307\n              jump\t// in\n            tag_318:\n                /* \"#utility.yul\":809:898   */\n              swap1\n              pop\n                /* \"#utility.yul\":918:923   */\n              dup1\n                /* \"#utility.yul\":947:953   */\n              dup4\n                /* \"#utility.yul\":940:945   */\n              dup3\n                /* \"#utility.yul\":933:954   */\n              mstore\n                /* \"#utility.yul\":981:985   */\n              0x20\n                /* \"#utility.yul\":974:979   */\n              dup3\n                /* \"#utility.yul\":970:986   */\n              add\n                /* \"#utility.yul\":963:986   */\n              swap1\n              pop\n                /* \"#utility.yul\":1007:1013   */\n              dup3\n                /* \"#utility.yul\":1057:1060   */\n              dup6\n                /* \"#utility.yul\":1049:1053   */\n              0x20\n                /* \"#utility.yul\":1041:1047   */\n              dup7\n                /* \"#utility.yul\":1037:1054   */\n              mul\n                /* \"#utility.yul\":1032:1035   */\n              dup3\n                /* \"#utility.yul\":1028:1055   */\n              add\n                /* \"#utility.yul\":1025:1061   */\n              gt\n                /* \"#utility.yul\":1022:1024   */\n              iszero\n              tag_321\n              jumpi\n                /* \"#utility.yul\":1076:1155   */\n              tag_322\n              tag_310\n              jump\t// in\n            tag_322:\n                /* \"#utility.yul\":1022:1024   */\n            tag_321:\n                /* \"#utility.yul\":1189:1190   */\n              0x00\n                /* \"#utility.yul\":1174:1411   */\n            tag_323:\n                /* \"#utility.yul\":1199:1205   */\n              dup6\n                /* \"#utility.yul\":1196:1197   */\n              dup2\n                /* \"#utility.yul\":1193:1206   */\n              lt\n                /* \"#utility.yul\":1174:1411   */\n              iszero\n              tag_325\n              jumpi\n                /* \"#utility.yul\":1267:1270   */\n              dup2\n                /* \"#utility.yul\":1296:1332   */\n              tag_326\n                /* \"#utility.yul\":1328:1331   */\n              dup9\n                /* \"#utility.yul\":1316:1326   */\n              dup3\n                /* \"#utility.yul\":1296:1332   */\n              tag_315\n              jump\t// in\n            tag_326:\n                /* \"#utility.yul\":1291:1294   */\n              dup5\n                /* \"#utility.yul\":1284:1333   */\n              mstore\n                /* \"#utility.yul\":1362:1366   */\n              0x20\n                /* \"#utility.yul\":1357:1360   */\n              dup5\n                /* \"#utility.yul\":1353:1367   */\n              add\n                /* \"#utility.yul\":1346:1367   */\n              swap4\n              pop\n                /* \"#utility.yul\":1396:1400   */\n              0x20\n                /* \"#utility.yul\":1391:1394   */\n              dup4\n                /* \"#utility.yul\":1387:1401   */\n              add\n                /* \"#utility.yul\":1380:1401   */\n              swap3\n              pop\n                /* \"#utility.yul\":1234:1411   */\n              pop\n                /* \"#utility.yul\":1221:1222   */\n              0x01\n                /* \"#utility.yul\":1218:1219   */\n              dup2\n                /* \"#utility.yul\":1214:1223   */\n              add\n                /* \"#utility.yul\":1209:1223   */\n              swap1\n              pop\n                /* \"#utility.yul\":1174:1411   */\n              jump(tag_323)\n            tag_325:\n                /* \"#utility.yul\":1178:1192   */\n              pop\n                /* \"#utility.yul\":799:1417   */\n              pop\n              pop\n              swap4\n              swap3\n              pop\n              pop\n              pop\n              jump\t// out\n                /* \"#utility.yul\":1440:2330   */\n            tag_327:\n                /* \"#utility.yul\":1544:1549   */\n              0x00\n                /* \"#utility.yul\":1569:1658   */\n              tag_329\n                /* \"#utility.yul\":1585:1657   */\n              tag_330\n                /* \"#utility.yul\":1650:1656   */\n              dup5\n                /* \"#utility.yul\":1585:1657   */\n              tag_331\n              jump\t// in\n            tag_330:\n                /* \"#utility.yul\":1569:1658   */\n              tag_307\n              jump\t// in\n            tag_329:\n                /* \"#utility.yul\":1560:1658   */\n              swap1\n              pop\n                /* \"#utility.yul\":1678:1683   */\n              dup1\n                /* \"#utility.yul\":1704:1710   */\n              dup3\n                /* \"#utility.yul\":1754:1757   */\n              dup6\n                /* \"#utility.yul\":1746:1750   */\n              0x20\n                /* \"#utility.yul\":1738:1744   */\n              dup7\n                /* \"#utility.yul\":1734:1751   */\n              mul\n                /* \"#utility.yul\":1729:1732   */\n              dup3\n                /* \"#utility.yul\":1725:1752   */\n              add\n                /* \"#utility.yul\":1722:1758   */\n              gt\n                /* \"#utility.yul\":1719:1721   */\n              iszero\n              tag_332\n              jumpi\n                /* \"#utility.yul\":1773:1852   */\n              tag_333\n              tag_310\n              jump\t// in\n            tag_333:\n                /* \"#utility.yul\":1719:1721   */\n            tag_332:\n                /* \"#utility.yul\":1886:1887   */\n              0x00\n                /* \"#utility.yul\":1871:2324   */\n            tag_334:\n                /* \"#utility.yul\":1896:1902   */\n              dup6\n                /* \"#utility.yul\":1893:1894   */\n              dup2\n                /* \"#utility.yul\":1890:1903   */\n              lt\n                /* \"#utility.yul\":1871:2324   */\n              iszero\n              tag_336\n              jumpi\n                /* \"#utility.yul\":1978:1981   */\n              dup2\n                /* \"#utility.yul\":1965:1982   */\n              calldataload\n                /* \"#utility.yul\":2014:2032   */\n              0xffffffffffffffff\n                /* \"#utility.yul\":2001:2012   */\n              dup2\n                /* \"#utility.yul\":1998:2033   */\n              gt\n                /* \"#utility.yul\":1995:1997   */\n              iszero\n              tag_337\n              jumpi\n                /* \"#utility.yul\":2036:2115   */\n              tag_338\n              tag_339\n              jump\t// in\n            tag_338:\n                /* \"#utility.yul\":1995:1997   */\n            tag_337:\n                /* \"#utility.yul\":2160:2171   */\n              dup1\n                /* \"#utility.yul\":2152:2158   */\n              dup7\n                /* \"#utility.yul\":2148:2172   */\n              add\n                /* \"#utility.yul\":2198:2245   */\n              tag_340\n                /* \"#utility.yul\":2241:2244   */\n              dup10\n                /* \"#utility.yul\":2229:2239   */\n              dup3\n                /* \"#utility.yul\":2198:2245   */\n              tag_341\n              jump\t// in\n            tag_340:\n                /* \"#utility.yul\":2193:2196   */\n              dup6\n                /* \"#utility.yul\":2186:2246   */\n              mstore\n                /* \"#utility.yul\":2275:2279   */\n              0x20\n                /* \"#utility.yul\":2270:2273   */\n              dup6\n                /* \"#utility.yul\":2266:2280   */\n              add\n                /* \"#utility.yul\":2259:2280   */\n              swap5\n              pop\n                /* \"#utility.yul\":2309:2313   */\n              0x20\n                /* \"#utility.yul\":2304:2307   */\n              dup5\n                /* \"#utility.yul\":2300:2314   */\n              add\n                /* \"#utility.yul\":2293:2314   */\n              swap4\n              pop\n                /* \"#utility.yul\":1931:2324   */\n              pop\n              pop\n                /* \"#utility.yul\":1918:1919   */\n              0x01\n                /* \"#utility.yul\":1915:1916   */\n              dup2\n                /* \"#utility.yul\":1911:1920   */\n              add\n                /* \"#utility.yul\":1906:1920   */\n              swap1\n              pop\n                /* \"#utility.yul\":1871:2324   */\n              jump(tag_334)\n            tag_336:\n                /* \"#utility.yul\":1875:1889   */\n              pop\n                /* \"#utility.yul\":1550:2330   */\n              pop\n              pop\n              swap4\n              swap3\n              pop\n              pop\n              pop\n              jump\t// out\n                /* \"#utility.yul\":2336:2748   */\n            tag_342:\n                /* \"#utility.yul\":2414:2419   */\n              0x00\n                /* \"#utility.yul\":2439:2505   */\n              tag_344\n                /* \"#utility.yul\":2455:2504   */\n              tag_345\n                /* \"#utility.yul\":2497:2503   */\n              dup5\n                /* \"#utility.yul\":2455:2504   */\n              tag_346\n              jump\t// in\n            tag_345:\n                /* \"#utility.yul\":2439:2505   */\n              tag_307\n              jump\t// in\n            tag_344:\n                /* \"#utility.yul\":2430:2505   */\n              swap1\n              pop\n                /* \"#utility.yul\":2528:2534   */\n              dup3\n                /* \"#utility.yul\":2521:2526   */\n              dup2\n                /* \"#utility.yul\":2514:2535   */\n              mstore\n                /* \"#utility.yul\":2566:2570   */\n              0x20\n                /* \"#utility.yul\":2559:2564   */\n              dup2\n                /* \"#utility.yul\":2555:2571   */\n              add\n                /* \"#utility.yul\":2604:2607   */\n              dup5\n                /* \"#utility.yul\":2595:2601   */\n              dup5\n                /* \"#utility.yul\":2590:2593   */\n              dup5\n                /* \"#utility.yul\":2586:2602   */\n              add\n                /* \"#utility.yul\":2583:2608   */\n              gt\n                /* \"#utility.yul\":2580:2582   */\n              iszero\n              tag_347\n              jumpi\n                /* \"#utility.yul\":2611:2690   */\n              tag_348\n              tag_349\n              jump\t// in\n            tag_348:\n                /* \"#utility.yul\":2580:2582   */\n            tag_347:\n                /* \"#utility.yul\":2701:2742   */\n              tag_350\n                /* \"#utility.yul\":2735:2741   */\n              dup5\n                /* \"#utility.yul\":2730:2733   */\n              dup3\n                /* \"#utility.yul\":2725:2728   */\n              dup6\n                /* \"#utility.yul\":2701:2742   */\n              tag_351\n              jump\t// in\n            tag_350:\n                /* \"#utility.yul\":2420:2748   */\n              pop\n              swap4\n              swap3\n              pop\n              pop\n              pop\n              jump\t// out\n                /* \"#utility.yul\":2771:3108   */\n            tag_352:\n                /* \"#utility.yul\":2839:2844   */\n              0x00\n                /* \"#utility.yul\":2888:2891   */\n              dup3\n                /* \"#utility.yul\":2881:2885   */\n              0x1f\n                /* \"#utility.yul\":2873:2879   */\n              dup4\n                /* \"#utility.yul\":2869:2886   */\n              add\n                /* \"#utility.yul\":2865:2892   */\n              slt\n                /* \"#utility.yul\":2855:2857   */\n              tag_354\n              jumpi\n                /* \"#utility.yul\":2896:2975   */\n              tag_355\n              tag_339\n              jump\t// in\n            tag_355:\n                /* \"#utility.yul\":2855:2857   */\n            tag_354:\n                /* \"#utility.yul\":3000:3004   */\n              0x08\n                /* \"#utility.yul\":3022:3102   */\n              tag_356\n                /* \"#utility.yul\":3098:3101   */\n              dup5\n                /* \"#utility.yul\":3090:3096   */\n              dup3\n                /* \"#utility.yul\":3082:3088   */\n              dup6\n                /* \"#utility.yul\":3022:3102   */\n              tag_302\n              jump\t// in\n            tag_356:\n                /* \"#utility.yul\":3013:3102   */\n              swap2\n              pop\n                /* \"#utility.yul\":2845:3108   */\n              pop\n              swap3\n              swap2\n              pop\n              pop\n              jump\t// out\n                /* \"#utility.yul\":3130:3498   */\n            tag_357:\n                /* \"#utility.yul\":3200:3205   */\n              0x00\n                /* \"#utility.yul\":3249:3252   */\n              dup3\n                /* \"#utility.yul\":3242:3246   */\n              0x1f\n                /* \"#utility.yul\":3234:3240   */\n              dup4\n                /* \"#utility.yul\":3230:3247   */\n              add\n                /* \"#utility.yul\":3226:3253   */\n              slt\n                /* \"#utility.yul\":3216:3218   */\n              tag_359\n              jumpi\n                /* \"#utility.yul\":3257:3336   */\n              tag_360\n              tag_339\n              jump\t// in\n            tag_360:\n                /* \"#utility.yul\":3216:3218   */\n            tag_359:\n                /* \"#utility.yul\":3374:3380   */\n              dup2\n                /* \"#utility.yul\":3361:3381   */\n              calldataload\n                /* \"#utility.yul\":3399:3492   */\n              tag_361\n                /* \"#utility.yul\":3488:3491   */\n              dup5\n                /* \"#utility.yul\":3480:3486   */\n              dup3\n                /* \"#utility.yul\":3473:3477   */\n              0x20\n                /* \"#utility.yul\":3465:3471   */\n              dup7\n                /* \"#utility.yul\":3461:3478   */\n              add\n                /* \"#utility.yul\":3399:3492   */\n              tag_316\n              jump\t// in\n            tag_361:\n                /* \"#utility.yul\":3390:3492   */\n              swap2\n              pop\n                /* \"#utility.yul\":3206:3498   */\n              pop\n              swap3\n              swap2\n              pop\n              pop\n              jump\t// out\n                /* \"#utility.yul\":3521:3880   */\n            tag_362:\n                /* \"#utility.yul\":3600:3605   */\n              0x00\n                /* \"#utility.yul\":3649:3652   */\n              dup3\n                /* \"#utility.yul\":3642:3646   */\n              0x1f\n                /* \"#utility.yul\":3634:3640   */\n              dup4\n                /* \"#utility.yul\":3630:3647   */\n              add\n                /* \"#utility.yul\":3626:3653   */\n              slt\n                /* \"#utility.yul\":3616:3618   */\n              tag_364\n              jumpi\n                /* \"#utility.yul\":3657:3736   */\n              tag_365\n              tag_339\n              jump\t// in\n            tag_365:\n                /* \"#utility.yul\":3616:3618   */\n            tag_364:\n                /* \"#utility.yul\":3761:3765   */\n              0x08\n                /* \"#utility.yul\":3783:3874   */\n              tag_366\n                /* \"#utility.yul\":3870:3873   */\n              dup5\n                /* \"#utility.yul\":3862:3868   */\n              dup3\n                /* \"#utility.yul\":3854:3860   */\n              dup6\n                /* \"#utility.yul\":3783:3874   */\n              tag_327\n              jump\t// in\n            tag_366:\n                /* \"#utility.yul\":3774:3874   */\n              swap2\n              pop\n                /* \"#utility.yul\":3606:3880   */\n              pop\n              swap3\n              swap2\n              pop\n              pop\n              jump\t// out\n                /* \"#utility.yul\":3886:4023   */\n            tag_315:\n                /* \"#utility.yul\":3931:3936   */\n              0x00\n                /* \"#utility.yul\":3969:3975   */\n              dup2\n                /* \"#utility.yul\":3956:3976   */\n              calldataload\n                /* \"#utility.yul\":3947:3976   */\n              swap1\n              pop\n                /* \"#utility.yul\":3985:4017   */\n              tag_368\n                /* \"#utility.yul\":4011:4016   */\n              dup2\n                /* \"#utility.yul\":3985:4017   */\n              tag_369\n              jump\t// in\n            tag_368:\n                /* \"#utility.yul\":3937:4023   */\n              swap3\n              swap2\n              pop\n              pop\n              jump\t// out\n                /* \"#utility.yul\":4043:4383   */\n            tag_341:\n                /* \"#utility.yul\":4099:4104   */\n              0x00\n                /* \"#utility.yul\":4148:4151   */\n              dup3\n                /* \"#utility.yul\":4141:4145   */\n              0x1f\n                /* \"#utility.yul\":4133:4139   */\n              dup4\n                /* \"#utility.yul\":4129:4146   */\n              add\n                /* \"#utility.yul\":4125:4152   */\n              slt\n                /* \"#utility.yul\":4115:4117   */\n              tag_371\n              jumpi\n                /* \"#utility.yul\":4156:4235   */\n              tag_372\n              tag_339\n              jump\t// in\n            tag_372:\n                /* \"#utility.yul\":4115:4117   */\n            tag_371:\n                /* \"#utility.yul\":4273:4279   */\n              dup2\n                /* \"#utility.yul\":4260:4280   */\n              calldataload\n                /* \"#utility.yul\":4298:4377   */\n              tag_373\n                /* \"#utility.yul\":4373:4376   */\n              dup5\n                /* \"#utility.yul\":4365:4371   */\n              dup3\n                /* \"#utility.yul\":4358:4362   */\n              0x20\n                /* \"#utility.yul\":4350:4356   */\n              dup7\n                /* \"#utility.yul\":4346:4363   */\n              add\n                /* \"#utility.yul\":4298:4377   */\n              tag_342\n              jump\t// in\n            tag_373:\n                /* \"#utility.yul\":4289:4377   */\n              swap2\n              pop\n                /* \"#utility.yul\":4105:4383   */\n              pop\n              swap3\n              swap2\n              pop\n              pop\n              jump\t// out\n                /* \"#utility.yul\":4389:4528   */\n            tag_374:\n                /* \"#utility.yul\":4435:4440   */\n              0x00\n                /* \"#utility.yul\":4473:4479   */\n              dup2\n                /* \"#utility.yul\":4460:4480   */\n              calldataload\n                /* \"#utility.yul\":4451:4480   */\n              swap1\n              pop\n                /* \"#utility.yul\":4489:4522   */\n              tag_376\n                /* \"#utility.yul\":4516:4521   */\n              dup2\n                /* \"#utility.yul\":4489:4522   */\n              tag_377\n              jump\t// in\n            tag_376:\n                /* \"#utility.yul\":4441:4528   */\n              swap3\n              swap2\n              pop\n              pop\n              jump\t// out\n                /* \"#utility.yul\":4534:5071   */\n            tag_46:\n                /* \"#utility.yul\":4617:4623   */\n              0x00\n                /* \"#utility.yul\":4666:4668   */\n              0x20\n                /* \"#utility.yul\":4654:4663   */\n              dup3\n                /* \"#utility.yul\":4645:4652   */\n              dup5\n                /* \"#utility.yul\":4641:4664   */\n              sub\n                /* \"#utility.yul\":4637:4669   */\n              slt\n                /* \"#utility.yul\":4634:4636   */\n              iszero\n              tag_379\n              jumpi\n                /* \"#utility.yul\":4672:4751   */\n              tag_380\n              tag_381\n              jump\t// in\n            tag_380:\n                /* \"#utility.yul\":4634:4636   */\n            tag_379:\n                /* \"#utility.yul\":4820:4821   */\n              0x00\n                /* \"#utility.yul\":4809:4818   */\n              dup3\n                /* \"#utility.yul\":4805:4822   */\n              add\n                /* \"#utility.yul\":4792:4823   */\n              calldataload\n                /* \"#utility.yul\":4850:4868   */\n              0xffffffffffffffff\n                /* \"#utility.yul\":4842:4848   */\n              dup2\n                /* \"#utility.yul\":4839:4869   */\n              gt\n                /* \"#utility.yul\":4836:4838   */\n              iszero\n              tag_382\n              jumpi\n                /* \"#utility.yul\":4872:4951   */\n              tag_383\n              tag_384\n              jump\t// in\n            tag_383:\n                /* \"#utility.yul\":4836:4838   */\n            tag_382:\n                /* \"#utility.yul\":4977:5054   */\n              tag_385\n                /* \"#utility.yul\":5046:5053   */\n              dup5\n                /* \"#utility.yul\":5037:5043   */\n              dup3\n                /* \"#utility.yul\":5026:5035   */\n              dup6\n                /* \"#utility.yul\":5022:5044   */\n              add\n                /* \"#utility.yul\":4977:5054   */\n              tag_357\n              jump\t// in\n            tag_385:\n                /* \"#utility.yul\":4967:5054   */\n              swap2\n              pop\n                /* \"#utility.yul\":4763:5064   */\n              pop\n                /* \"#utility.yul\":4624:5071   */\n              swap3\n              swap2\n              pop\n              pop\n              jump\t// out\n                /* \"#utility.yul\":5077:6012   */\n            tag_55:\n                /* \"#utility.yul\":5231:5237   */\n              0x00\n                /* \"#utility.yul\":5239:5245   */\n              dup1\n                /* \"#utility.yul\":5247:5253   */\n              0x00\n                /* \"#utility.yul\":5296:5299   */\n              0x0220\n                /* \"#utility.yul\":5284:5293   */\n              dup5\n                /* \"#utility.yul\":5275:5282   */\n              dup7\n                /* \"#utility.yul\":5271:5294   */\n              sub\n                /* \"#utility.yul\":5267:5300   */\n              slt\n                /* \"#utility.yul\":5264:5266   */\n              iszero\n              tag_387\n              jumpi\n                /* \"#utility.yul\":5303:5382   */\n              tag_388\n              tag_381\n              jump\t// in\n            tag_388:\n                /* \"#utility.yul\":5264:5266   */\n            tag_387:\n                /* \"#utility.yul\":5451:5452   */\n              0x00\n                /* \"#utility.yul\":5440:5449   */\n              dup5\n                /* \"#utility.yul\":5436:5453   */\n              add\n                /* \"#utility.yul\":5423:5454   */\n              calldataload\n                /* \"#utility.yul\":5481:5499   */\n              0xffffffffffffffff\n                /* \"#utility.yul\":5473:5479   */\n              dup2\n                /* \"#utility.yul\":5470:5500   */\n              gt\n                /* \"#utility.yul\":5467:5469   */\n              iszero\n              tag_389\n              jumpi\n                /* \"#utility.yul\":5503:5582   */\n              tag_390\n              tag_384\n              jump\t// in\n            tag_390:\n                /* \"#utility.yul\":5467:5469   */\n            tag_389:\n                /* \"#utility.yul\":5608:5694   */\n              tag_391\n                /* \"#utility.yul\":5686:5693   */\n              dup7\n                /* \"#utility.yul\":5677:5683   */\n              dup3\n                /* \"#utility.yul\":5666:5675   */\n              dup8\n                /* \"#utility.yul\":5662:5684   */\n              add\n                /* \"#utility.yul\":5608:5694   */\n              tag_362\n              jump\t// in\n            tag_391:\n                /* \"#utility.yul\":5598:5694   */\n              swap4\n              pop\n                /* \"#utility.yul\":5394:5704   */\n              pop\n                /* \"#utility.yul\":5743:5745   */\n              0x20\n                /* \"#utility.yul\":5769:5844   */\n              tag_392\n                /* \"#utility.yul\":5836:5843   */\n              dup7\n                /* \"#utility.yul\":5827:5833   */\n              dup3\n                /* \"#utility.yul\":5816:5825   */\n              dup8\n                /* \"#utility.yul\":5812:5834   */\n              add\n                /* \"#utility.yul\":5769:5844   */\n              tag_352\n              jump\t// in\n            tag_392:\n                /* \"#utility.yul\":5759:5844   */\n              swap3\n              pop\n                /* \"#utility.yul\":5714:5854   */\n              pop\n                /* \"#utility.yul\":5893:5896   */\n              0x0120\n                /* \"#utility.yul\":5920:5995   */\n              tag_393\n                /* \"#utility.yul\":5987:5994   */\n              dup7\n                /* \"#utility.yul\":5978:5984   */\n              dup3\n                /* \"#utility.yul\":5967:5976   */\n              dup8\n                /* \"#utility.yul\":5963:5985   */\n              add\n                /* \"#utility.yul\":5920:5995   */\n              tag_352\n              jump\t// in\n            tag_393:\n                /* \"#utility.yul\":5910:5995   */\n              swap2\n              pop\n                /* \"#utility.yul\":5864:6005   */\n              pop\n                /* \"#utility.yul\":5254:6012   */\n              swap3\n              pop\n              swap3\n              pop\n              swap3\n              jump\t// out\n                /* \"#utility.yul\":6018:6347   */\n            tag_39:\n                /* \"#utility.yul\":6077:6083   */\n              0x00\n                /* \"#utility.yul\":6126:6128   */\n              0x20\n                /* \"#utility.yul\":6114:6123   */\n              dup3\n                /* \"#utility.yul\":6105:6112   */\n              dup5\n                /* \"#utility.yul\":6101:6124   */\n              sub\n                /* \"#utility.yul\":6097:6129   */\n              slt\n                /* \"#utility.yul\":6094:6096   */\n              iszero\n              tag_395\n              jumpi\n                /* \"#utility.yul\":6132:6211   */\n              tag_396\n              tag_381\n              jump\t// in\n            tag_396:\n                /* \"#utility.yul\":6094:6096   */\n            tag_395:\n                /* \"#utility.yul\":6252:6253   */\n              0x00\n                /* \"#utility.yul\":6277:6330   */\n              tag_397\n                /* \"#utility.yul\":6322:6329   */\n              dup5\n                /* \"#utility.yul\":6313:6319   */\n              dup3\n                /* \"#utility.yul\":6302:6311   */\n              dup6\n                /* \"#utility.yul\":6298:6320   */\n              add\n                /* \"#utility.yul\":6277:6330   */\n              tag_374\n              jump\t// in\n            tag_397:\n                /* \"#utility.yul\":6267:6330   */\n              swap2\n              pop\n                /* \"#utility.yul\":6223:6340   */\n              pop\n                /* \"#utility.yul\":6084:6347   */\n              swap3\n              swap2\n              pop\n              pop\n              jump\t// out\n                /* \"#utility.yul\":6353:6495   */\n            tag_398:\n                /* \"#utility.yul\":6456:6488   */\n              tag_400\n                /* \"#utility.yul\":6482:6487   */\n              dup2\n                /* \"#utility.yul\":6456:6488   */\n              tag_401\n              jump\t// in\n            tag_400:\n                /* \"#utility.yul\":6451:6454   */\n              dup3\n                /* \"#utility.yul\":6444:6489   */\n              mstore\n                /* \"#utility.yul\":6434:6495   */\n              pop\n              pop\n              jump\t// out\n                /* \"#utility.yul\":6501:6619   */\n            tag_402:\n                /* \"#utility.yul\":6588:6612   */\n              tag_404\n                /* \"#utility.yul\":6606:6611   */\n              dup2\n                /* \"#utility.yul\":6588:6612   */\n              tag_405\n              jump\t// in\n            tag_404:\n                /* \"#utility.yul\":6583:6586   */\n              dup3\n                /* \"#utility.yul\":6576:6613   */\n              mstore\n                /* \"#utility.yul\":6566:6619   */\n              pop\n              pop\n              jump\t// out\n                /* \"#utility.yul\":6625:6734   */\n            tag_406:\n                /* \"#utility.yul\":6706:6727   */\n              tag_408\n                /* \"#utility.yul\":6721:6726   */\n              dup2\n                /* \"#utility.yul\":6706:6727   */\n              tag_409\n              jump\t// in\n            tag_408:\n                /* \"#utility.yul\":6701:6704   */\n              dup3\n                /* \"#utility.yul\":6694:6728   */\n              mstore\n                /* \"#utility.yul\":6684:6734   */\n              pop\n              pop\n              jump\t// out\n                /* \"#utility.yul\":6740:6883   */\n            tag_410:\n                /* \"#utility.yul\":6833:6876   */\n              tag_412\n                /* \"#utility.yul\":6870:6875   */\n              dup2\n                /* \"#utility.yul\":6833:6876   */\n              tag_413\n              jump\t// in\n            tag_412:\n                /* \"#utility.yul\":6828:6831   */\n              dup3\n                /* \"#utility.yul\":6821:6877   */\n              mstore\n                /* \"#utility.yul\":6811:6883   */\n              pop\n              pop\n              jump\t// out\n                /* \"#utility.yul\":6889:7004   */\n            tag_414:\n                /* \"#utility.yul\":6974:6997   */\n              tag_416\n                /* \"#utility.yul\":6991:6996   */\n              dup2\n                /* \"#utility.yul\":6974:6997   */\n              tag_417\n              jump\t// in\n            tag_416:\n                /* \"#utility.yul\":6969:6972   */\n              dup3\n                /* \"#utility.yul\":6962:6998   */\n              mstore\n                /* \"#utility.yul\":6952:7004   */\n              pop\n              pop\n              jump\t// out\n                /* \"#utility.yul\":7010:7374   */\n            tag_418:\n                /* \"#utility.yul\":7098:7101   */\n              0x00\n                /* \"#utility.yul\":7126:7165   */\n              tag_420\n                /* \"#utility.yul\":7159:7164   */\n              dup3\n                /* \"#utility.yul\":7126:7165   */\n              tag_421\n              jump\t// in\n            tag_420:\n                /* \"#utility.yul\":7181:7252   */\n              tag_422\n                /* \"#utility.yul\":7245:7251   */\n              dup2\n                /* \"#utility.yul\":7240:7243   */\n              dup6\n                /* \"#utility.yul\":7181:7252   */\n              tag_423\n              jump\t// in\n            tag_422:\n                /* \"#utility.yul\":7174:7252   */\n              swap4\n              pop\n                /* \"#utility.yul\":7261:7313   */\n              tag_424\n                /* \"#utility.yul\":7306:7312   */\n              dup2\n                /* \"#utility.yul\":7301:7304   */\n              dup6\n                /* \"#utility.yul\":7294:7298   */\n              0x20\n                /* \"#utility.yul\":7287:7292   */\n              dup7\n                /* \"#utility.yul\":7283:7299   */\n              add\n                /* \"#utility.yul\":7261:7313   */\n              tag_425\n              jump\t// in\n            tag_424:\n                /* \"#utility.yul\":7338:7367   */\n              tag_426\n                /* \"#utility.yul\":7360:7366   */\n              dup2\n                /* \"#utility.yul\":7338:7367   */\n              tag_427\n              jump\t// in\n            tag_426:\n                /* \"#utility.yul\":7333:7336   */\n              dup5\n                /* \"#utility.yul\":7329:7368   */\n              add\n                /* \"#utility.yul\":7322:7368   */\n              swap2\n              pop\n                /* \"#utility.yul\":7102:7374   */\n              pop\n              swap3\n              swap2\n              pop\n              pop\n              jump\t// out\n                /* \"#utility.yul\":7380:7746   */\n            tag_428:\n                /* \"#utility.yul\":7522:7525   */\n              0x00\n                /* \"#utility.yul\":7543:7610   */\n              tag_430\n                /* \"#utility.yul\":7607:7609   */\n              0x1d\n                /* \"#utility.yul\":7602:7605   */\n              dup4\n                /* \"#utility.yul\":7543:7610   */\n              tag_423\n              jump\t// in\n            tag_430:\n                /* \"#utility.yul\":7536:7610   */\n              swap2\n              pop\n                /* \"#utility.yul\":7619:7712   */\n              tag_431\n                /* \"#utility.yul\":7708:7711   */\n              dup3\n                /* \"#utility.yul\":7619:7712   */\n              tag_432\n              jump\t// in\n            tag_431:\n                /* \"#utility.yul\":7737:7739   */\n              0x20\n                /* \"#utility.yul\":7732:7735   */\n              dup3\n                /* \"#utility.yul\":7728:7740   */\n              add\n                /* \"#utility.yul\":7721:7740   */\n              swap1\n              pop\n                /* \"#utility.yul\":7526:7746   */\n              swap2\n              swap1\n              pop\n              jump\t// out\n                /* \"#utility.yul\":7752:8118   */\n            tag_433:\n                /* \"#utility.yul\":7894:7897   */\n              0x00\n                /* \"#utility.yul\":7915:7982   */\n              tag_435\n                /* \"#utility.yul\":7979:7981   */\n              0x25\n                /* \"#utility.yul\":7974:7977   */\n              dup4\n                /* \"#utility.yul\":7915:7982   */\n              tag_423\n              jump\t// in\n            tag_435:\n                /* \"#utility.yul\":7908:7982   */\n              swap2\n              pop\n                /* \"#utility.yul\":7991:8084   */\n              tag_436\n                /* \"#utility.yul\":8080:8083   */\n              dup3\n                /* \"#utility.yul\":7991:8084   */\n              tag_437\n              jump\t// in\n            tag_436:\n                /* \"#utility.yul\":8109:8111   */\n              0x40\n                /* \"#utility.yul\":8104:8107   */\n              dup3\n                /* \"#utility.yul\":8100:8112   */\n              add\n                /* \"#utility.yul\":8093:8112   */\n              swap1\n              pop\n                /* \"#utility.yul\":7898:8118   */\n              swap2\n              swap1\n              pop\n              jump\t// out\n                /* \"#utility.yul\":8124:8242   */\n            tag_438:\n                /* \"#utility.yul\":8211:8235   */\n              tag_440\n                /* \"#utility.yul\":8229:8234   */\n              dup2\n                /* \"#utility.yul\":8211:8235   */\n              tag_441\n              jump\t// in\n            tag_440:\n                /* \"#utility.yul\":8206:8209   */\n              dup3\n                /* \"#utility.yul\":8199:8236   */\n              mstore\n                /* \"#utility.yul\":8189:8242   */\n              pop\n              pop\n              jump\t// out\n                /* \"#utility.yul\":8248:8470   */\n            tag_70:\n                /* \"#utility.yul\":8341:8345   */\n              0x00\n                /* \"#utility.yul\":8379:8381   */\n              0x20\n                /* \"#utility.yul\":8368:8377   */\n              dup3\n                /* \"#utility.yul\":8364:8382   */\n              add\n                /* \"#utility.yul\":8356:8382   */\n              swap1\n              pop\n                /* \"#utility.yul\":8392:8463   */\n              tag_443\n                /* \"#utility.yul\":8460:8461   */\n              0x00\n                /* \"#utility.yul\":8449:8458   */\n              dup4\n                /* \"#utility.yul\":8445:8462   */\n              add\n                /* \"#utility.yul\":8436:8442   */\n              dup5\n                /* \"#utility.yul\":8392:8463   */\n              tag_402\n              jump\t// in\n            tag_443:\n                /* \"#utility.yul\":8346:8470   */\n              swap3\n              swap2\n              pop\n              pop\n              jump\t// out\n                /* \"#utility.yul\":8476:8730   */\n            tag_35:\n                /* \"#utility.yul\":8585:8589   */\n              0x00\n                /* \"#utility.yul\":8623:8625   */\n              0x20\n                /* \"#utility.yul\":8612:8621   */\n              dup3\n                /* \"#utility.yul\":8608:8626   */\n              add\n                /* \"#utility.yul\":8600:8626   */\n              swap1\n              pop\n                /* \"#utility.yul\":8636:8723   */\n              tag_445\n                /* \"#utility.yul\":8720:8721   */\n              0x00\n                /* \"#utility.yul\":8709:8718   */\n              dup4\n                /* \"#utility.yul\":8705:8722   */\n              add\n                /* \"#utility.yul\":8696:8702   */\n              dup5\n                /* \"#utility.yul\":8636:8723   */\n              tag_398\n              jump\t// in\n            tag_445:\n                /* \"#utility.yul\":8590:8730   */\n              swap3\n              swap2\n              pop\n              pop\n              jump\t// out\n                /* \"#utility.yul\":8736:8946   */\n            tag_61:\n                /* \"#utility.yul\":8823:8827   */\n              0x00\n                /* \"#utility.yul\":8861:8863   */\n              0x20\n                /* \"#utility.yul\":8850:8859   */\n              dup3\n                /* \"#utility.yul\":8846:8864   */\n              add\n                /* \"#utility.yul\":8838:8864   */\n              swap1\n              pop\n                /* \"#utility.yul\":8874:8939   */\n              tag_447\n                /* \"#utility.yul\":8936:8937   */\n              0x00\n                /* \"#utility.yul\":8925:8934   */\n              dup4\n                /* \"#utility.yul\":8921:8938   */\n              add\n                /* \"#utility.yul\":8912:8918   */\n              dup5\n                /* \"#utility.yul\":8874:8939   */\n              tag_406\n              jump\t// in\n            tag_447:\n                /* \"#utility.yul\":8828:8946   */\n              swap3\n              swap2\n              pop\n              pop\n              jump\t// out\n                /* \"#utility.yul\":8952:9186   */\n            tag_110:\n                /* \"#utility.yul\":9051:9055   */\n              0x00\n                /* \"#utility.yul\":9089:9091   */\n              0x20\n                /* \"#utility.yul\":9078:9087   */\n              dup3\n                /* \"#utility.yul\":9074:9092   */\n              add\n                /* \"#utility.yul\":9066:9092   */\n              swap1\n              pop\n                /* \"#utility.yul\":9102:9179   */\n              tag_449\n                /* \"#utility.yul\":9176:9177   */\n              0x00\n                /* \"#utility.yul\":9165:9174   */\n              dup4\n                /* \"#utility.yul\":9161:9178   */\n              add\n                /* \"#utility.yul\":9152:9158   */\n              dup5\n                /* \"#utility.yul\":9102:9179   */\n              tag_410\n              jump\t// in\n            tag_449:\n                /* \"#utility.yul\":9056:9186   */\n              swap3\n              swap2\n              pop\n              pop\n              jump\t// out\n                /* \"#utility.yul\":9192:9505   */\n            tag_75:\n                /* \"#utility.yul\":9305:9309   */\n              0x00\n                /* \"#utility.yul\":9343:9345   */\n              0x20\n                /* \"#utility.yul\":9332:9341   */\n              dup3\n                /* \"#utility.yul\":9328:9346   */\n              add\n                /* \"#utility.yul\":9320:9346   */\n              swap1\n              pop\n                /* \"#utility.yul\":9392:9401   */\n              dup2\n                /* \"#utility.yul\":9386:9390   */\n              dup2\n                /* \"#utility.yul\":9382:9402   */\n              sub\n                /* \"#utility.yul\":9378:9379   */\n              0x00\n                /* \"#utility.yul\":9367:9376   */\n              dup4\n                /* \"#utility.yul\":9363:9380   */\n              add\n                /* \"#utility.yul\":9356:9403   */\n              mstore\n                /* \"#utility.yul\":9420:9498   */\n              tag_451\n                /* \"#utility.yul\":9493:9497   */\n              dup2\n                /* \"#utility.yul\":9484:9490   */\n              dup5\n                /* \"#utility.yul\":9420:9498   */\n              tag_418\n              jump\t// in\n            tag_451:\n                /* \"#utility.yul\":9412:9498   */\n              swap1\n              pop\n                /* \"#utility.yul\":9310:9505   */\n              swap3\n              swap2\n              pop\n              pop\n              jump\t// out\n                /* \"#utility.yul\":9511:10036   */\n            tag_42:\n                /* \"#utility.yul\":9676:9680   */\n              0x00\n                /* \"#utility.yul\":9714:9716   */\n              0x60\n                /* \"#utility.yul\":9703:9712   */\n              dup3\n                /* \"#utility.yul\":9699:9717   */\n              add\n                /* \"#utility.yul\":9691:9717   */\n              swap1\n              pop\n                /* \"#utility.yul\":9763:9772   */\n              dup2\n                /* \"#utility.yul\":9757:9761   */\n              dup2\n                /* \"#utility.yul\":9753:9773   */\n              sub\n                /* \"#utility.yul\":9749:9750   */\n              0x00\n                /* \"#utility.yul\":9738:9747   */\n              dup4\n                /* \"#utility.yul\":9734:9751   */\n              add\n                /* \"#utility.yul\":9727:9774   */\n              mstore\n                /* \"#utility.yul\":9791:9869   */\n              tag_453\n                /* \"#utility.yul\":9864:9868   */\n              dup2\n                /* \"#utility.yul\":9855:9861   */\n              dup7\n                /* \"#utility.yul\":9791:9869   */\n              tag_418\n              jump\t// in\n            tag_453:\n                /* \"#utility.yul\":9783:9869   */\n              swap1\n              pop\n                /* \"#utility.yul\":9879:9949   */\n              tag_454\n                /* \"#utility.yul\":9945:9947   */\n              0x20\n                /* \"#utility.yul\":9934:9943   */\n              dup4\n                /* \"#utility.yul\":9930:9948   */\n              add\n                /* \"#utility.yul\":9921:9927   */\n              dup6\n                /* \"#utility.yul\":9879:9949   */\n              tag_414\n              jump\t// in\n            tag_454:\n                /* \"#utility.yul\":9959:10029   */\n              tag_455\n                /* \"#utility.yul\":10025:10027   */\n              0x40\n                /* \"#utility.yul\":10014:10023   */\n              dup4\n                /* \"#utility.yul\":10010:10028   */\n              add\n                /* \"#utility.yul\":10001:10007   */\n              dup5\n                /* \"#utility.yul\":9959:10029   */\n              tag_414\n              jump\t// in\n            tag_455:\n                /* \"#utility.yul\":9681:10036   */\n              swap5\n              swap4\n              pop\n              pop\n              pop\n              pop\n              jump\t// out\n                /* \"#utility.yul\":10042:10461   */\n            tag_141:\n                /* \"#utility.yul\":10208:10212   */\n              0x00\n                /* \"#utility.yul\":10246:10248   */\n              0x20\n                /* \"#utility.yul\":10235:10244   */\n              dup3\n                /* \"#utility.yul\":10231:10249   */\n              add\n                /* \"#utility.yul\":10223:10249   */\n              swap1\n              pop\n                /* \"#utility.yul\":10295:10304   */\n              dup2\n                /* \"#utility.yul\":10289:10293   */\n              dup2\n                /* \"#utility.yul\":10285:10305   */\n              sub\n                /* \"#utility.yul\":10281:10282   */\n              0x00\n                /* \"#utility.yul\":10270:10279   */\n              dup4\n                /* \"#utility.yul\":10266:10283   */\n              add\n                /* \"#utility.yul\":10259:10306   */\n              mstore\n                /* \"#utility.yul\":10323:10454   */\n              tag_457\n                /* \"#utility.yul\":10449:10453   */\n              dup2\n                /* \"#utility.yul\":10323:10454   */\n              tag_428\n              jump\t// in\n            tag_457:\n                /* \"#utility.yul\":10315:10454   */\n              swap1\n              pop\n                /* \"#utility.yul\":10213:10461   */\n              swap2\n              swap1\n              pop\n              jump\t// out\n                /* \"#utility.yul\":10467:10886   */\n            tag_132:\n                /* \"#utility.yul\":10633:10637   */\n              0x00\n                /* \"#utility.yul\":10671:10673   */\n              0x20\n                /* \"#utility.yul\":10660:10669   */\n              dup3\n                /* \"#utility.yul\":10656:10674   */\n              add\n                /* \"#utility.yul\":10648:10674   */\n              swap1\n              pop\n                /* \"#utility.yul\":10720:10729   */\n              dup2\n                /* \"#utility.yul\":10714:10718   */\n              dup2\n                /* \"#utility.yul\":10710:10730   */\n              sub\n                /* \"#utility.yul\":10706:10707   */\n              0x00\n                /* \"#utility.yul\":10695:10704   */\n              dup4\n                /* \"#utility.yul\":10691:10708   */\n              add\n                /* \"#utility.yul\":10684:10731   */\n              mstore\n                /* \"#utility.yul\":10748:10879   */\n              tag_459\n                /* \"#utility.yul\":10874:10878   */\n              dup2\n                /* \"#utility.yul\":10748:10879   */\n              tag_433\n              jump\t// in\n            tag_459:\n                /* \"#utility.yul\":10740:10879   */\n              swap1\n              pop\n                /* \"#utility.yul\":10638:10886   */\n              swap2\n              swap1\n              pop\n              jump\t// out\n                /* \"#utility.yul\":10892:11114   */\n            tag_30:\n                /* \"#utility.yul\":10985:10989   */\n              0x00\n                /* \"#utility.yul\":11023:11025   */\n              0x20\n                /* \"#utility.yul\":11012:11021   */\n              dup3\n                /* \"#utility.yul\":11008:11026   */\n              add\n                /* \"#utility.yul\":11000:11026   */\n              swap1\n              pop\n                /* \"#utility.yul\":11036:11107   */\n              tag_461\n                /* \"#utility.yul\":11104:11105   */\n              0x00\n                /* \"#utility.yul\":11093:11102   */\n              dup4\n                /* \"#utility.yul\":11089:11106   */\n              add\n                /* \"#utility.yul\":11080:11086   */\n              dup5\n                /* \"#utility.yul\":11036:11107   */\n              tag_438\n              jump\t// in\n            tag_461:\n                /* \"#utility.yul\":10990:11114   */\n              swap3\n              swap2\n              pop\n              pop\n              jump\t// out\n                /* \"#utility.yul\":11120:11249   */\n            tag_307:\n                /* \"#utility.yul\":11154:11160   */\n              0x00\n                /* \"#utility.yul\":11181:11201   */\n              tag_463\n              tag_464\n              jump\t// in\n            tag_463:\n                /* \"#utility.yul\":11171:11201   */\n              swap1\n              pop\n                /* \"#utility.yul\":11210:11243   */\n              tag_465\n                /* \"#utility.yul\":11238:11242   */\n              dup3\n                /* \"#utility.yul\":11230:11236   */\n              dup3\n                /* \"#utility.yul\":11210:11243   */\n              tag_466\n              jump\t// in\n            tag_465:\n                /* \"#utility.yul\":11161:11249   */\n              swap2\n              swap1\n              pop\n              jump\t// out\n                /* \"#utility.yul\":11255:11330   */\n            tag_464:\n                /* \"#utility.yul\":11288:11294   */\n              0x00\n                /* \"#utility.yul\":11321:11323   */\n              0x40\n                /* \"#utility.yul\":11315:11324   */\n              mload\n                /* \"#utility.yul\":11305:11324   */\n              swap1\n              pop\n                /* \"#utility.yul\":11295:11330   */\n              swap1\n              jump\t// out\n                /* \"#utility.yul\":11336:11584   */\n            tag_306:\n                /* \"#utility.yul\":11410:11414   */\n              0x00\n                /* \"#utility.yul\":11500:11518   */\n              0xffffffffffffffff\n                /* \"#utility.yul\":11492:11498   */\n              dup3\n                /* \"#utility.yul\":11489:11519   */\n              gt\n                /* \"#utility.yul\":11486:11488   */\n              iszero\n              tag_469\n              jumpi\n                /* \"#utility.yul\":11522:11540   */\n              tag_470\n              tag_471\n              jump\t// in\n            tag_470:\n                /* \"#utility.yul\":11486:11488   */\n            tag_469:\n                /* \"#utility.yul\":11572:11576   */\n              0x20\n                /* \"#utility.yul\":11564:11570   */\n              dup3\n                /* \"#utility.yul\":11560:11577   */\n              mul\n                /* \"#utility.yul\":11552:11577   */\n              swap1\n              pop\n                /* \"#utility.yul\":11415:11584   */\n              swap2\n              swap1\n              pop\n              jump\t// out\n                /* \"#utility.yul\":11590:11900   */\n            tag_320:\n                /* \"#utility.yul\":11666:11670   */\n              0x00\n                /* \"#utility.yul\":11756:11774   */\n              0xffffffffffffffff\n                /* \"#utility.yul\":11748:11754   */\n              dup3\n                /* \"#utility.yul\":11745:11775   */\n              gt\n                /* \"#utility.yul\":11742:11744   */\n              iszero\n              tag_473\n              jumpi\n                /* \"#utility.yul\":11778:11796   */\n              tag_474\n              tag_471\n              jump\t// in\n            tag_474:\n                /* \"#utility.yul\":11742:11744   */\n            tag_473:\n                /* \"#utility.yul\":11828:11832   */\n              0x20\n                /* \"#utility.yul\":11820:11826   */\n              dup3\n                /* \"#utility.yul\":11816:11833   */\n              mul\n                /* \"#utility.yul\":11808:11833   */\n              swap1\n              pop\n                /* \"#utility.yul\":11888:11892   */\n              0x20\n                /* \"#utility.yul\":11882:11886   */\n              dup2\n                /* \"#utility.yul\":11878:11893   */\n              add\n                /* \"#utility.yul\":11870:11893   */\n              swap1\n              pop\n                /* \"#utility.yul\":11671:11900   */\n              swap2\n              swap1\n              pop\n              jump\t// out\n                /* \"#utility.yul\":11906:12165   */\n            tag_331:\n                /* \"#utility.yul\":11991:11995   */\n              0x00\n                /* \"#utility.yul\":12081:12099   */\n              0xffffffffffffffff\n                /* \"#utility.yul\":12073:12079   */\n              dup3\n                /* \"#utility.yul\":12070:12100   */\n              gt\n                /* \"#utility.yul\":12067:12069   */\n              iszero\n              tag_476\n              jumpi\n                /* \"#utility.yul\":12103:12121   */\n              tag_477\n              tag_471\n              jump\t// in\n            tag_477:\n                /* \"#utility.yul\":12067:12069   */\n            tag_476:\n                /* \"#utility.yul\":12153:12157   */\n              0x20\n                /* \"#utility.yul\":12145:12151   */\n              dup3\n                /* \"#utility.yul\":12141:12158   */\n              mul\n                /* \"#utility.yul\":12133:12158   */\n              swap1\n              pop\n                /* \"#utility.yul\":11996:12165   */\n              swap2\n              swap1\n              pop\n              jump\t// out\n                /* \"#utility.yul\":12171:12479   */\n            tag_346:\n                /* \"#utility.yul\":12233:12237   */\n              0x00\n                /* \"#utility.yul\":12323:12341   */\n              0xffffffffffffffff\n                /* \"#utility.yul\":12315:12321   */\n              dup3\n                /* \"#utility.yul\":12312:12342   */\n              gt\n                /* \"#utility.yul\":12309:12311   */\n              iszero\n              tag_479\n              jumpi\n                /* \"#utility.yul\":12345:12363   */\n              tag_480\n              tag_471\n              jump\t// in\n            tag_480:\n                /* \"#utility.yul\":12309:12311   */\n            tag_479:\n                /* \"#utility.yul\":12383:12412   */\n              tag_481\n                /* \"#utility.yul\":12405:12411   */\n              dup3\n                /* \"#utility.yul\":12383:12412   */\n              tag_427\n              jump\t// in\n            tag_481:\n                /* \"#utility.yul\":12375:12412   */\n              swap1\n              pop\n                /* \"#utility.yul\":12467:12471   */\n              0x20\n                /* \"#utility.yul\":12461:12465   */\n              dup2\n                /* \"#utility.yul\":12457:12472   */\n              add\n                /* \"#utility.yul\":12449:12472   */\n              swap1\n              pop\n                /* \"#utility.yul\":12238:12479   */\n              swap2\n              swap1\n              pop\n              jump\t// out\n                /* \"#utility.yul\":12485:12584   */\n            tag_421:\n                /* \"#utility.yul\":12537:12543   */\n              0x00\n                /* \"#utility.yul\":12571:12576   */\n              dup2\n                /* \"#utility.yul\":12565:12577   */\n              mload\n                /* \"#utility.yul\":12555:12577   */\n              swap1\n              pop\n                /* \"#utility.yul\":12544:12584   */\n              swap2\n              swap1\n              pop\n              jump\t// out\n                /* \"#utility.yul\":12590:12759   */\n            tag_423:\n                /* \"#utility.yul\":12674:12685   */\n              0x00\n                /* \"#utility.yul\":12708:12714   */\n              dup3\n                /* \"#utility.yul\":12703:12706   */\n              dup3\n                /* \"#utility.yul\":12696:12715   */\n              mstore\n                /* \"#utility.yul\":12748:12752   */\n              0x20\n                /* \"#utility.yul\":12743:12746   */\n              dup3\n                /* \"#utility.yul\":12739:12753   */\n              add\n                /* \"#utility.yul\":12724:12753   */\n              swap1\n              pop\n                /* \"#utility.yul\":12686:12759   */\n              swap3\n              swap2\n              pop\n              pop\n              jump\t// out\n                /* \"#utility.yul\":12765:13290   */\n            tag_150:\n                /* \"#utility.yul\":12804:12807   */\n              0x00\n                /* \"#utility.yul\":12823:12842   */\n              tag_485\n                /* \"#utility.yul\":12840:12841   */\n              dup3\n                /* \"#utility.yul\":12823:12842   */\n              tag_417\n              jump\t// in\n            tag_485:\n                /* \"#utility.yul\":12818:12842   */\n              swap2\n              pop\n                /* \"#utility.yul\":12856:12875   */\n              tag_486\n                /* \"#utility.yul\":12873:12874   */\n              dup4\n                /* \"#utility.yul\":12856:12875   */\n              tag_417\n              jump\t// in\n            tag_486:\n                /* \"#utility.yul\":12851:12875   */\n              swap3\n              pop\n                /* \"#utility.yul\":13044:13045   */\n              dup2\n                /* \"#utility.yul\":12976:13042   */\n              0x7fffffffffffffffffffffffffffffffffffffffffffffffffffffffffffffff\n                /* \"#utility.yul\":12972:13046   */\n              sub\n                /* \"#utility.yul\":12969:12970   */\n              dup4\n                /* \"#utility.yul\":12965:13047   */\n              sgt\n                /* \"#utility.yul\":12960:12961   */\n              0x00\n                /* \"#utility.yul\":12957:12958   */\n              dup4\n                /* \"#utility.yul\":12953:12962   */\n              slt\n                /* \"#utility.yul\":12946:12963   */\n              iszero\n                /* \"#utility.yul\":12942:13048   */\n              and\n                /* \"#utility.yul\":12939:12941   */\n              iszero\n              tag_487\n              jumpi\n                /* \"#utility.yul\":13051:13069   */\n              tag_488\n              tag_489\n              jump\t// in\n            tag_488:\n                /* \"#utility.yul\":12939:12941   */\n            tag_487:\n                /* \"#utility.yul\":13231:13232   */\n              dup2\n                /* \"#utility.yul\":13163:13229   */\n              0x8000000000000000000000000000000000000000000000000000000000000000\n                /* \"#utility.yul\":13159:13233   */\n              sub\n                /* \"#utility.yul\":13156:13157   */\n              dup4\n                /* \"#utility.yul\":13152:13234   */\n              slt\n                /* \"#utility.yul\":13148:13149   */\n              0x00\n                /* \"#utility.yul\":13145:13146   */\n              dup4\n                /* \"#utility.yul\":13141:13150   */\n              slt\n                /* \"#utility.yul\":13137:13235   */\n              and\n                /* \"#utility.yul\":13134:13136   */\n              iszero\n              tag_490\n              jumpi\n                /* \"#utility.yul\":13238:13256   */\n              tag_491\n              tag_489\n              jump\t// in\n            tag_491:\n                /* \"#utility.yul\":13134:13136   */\n            tag_490:\n                /* \"#utility.yul\":13282:13283   */\n              dup3\n                /* \"#utility.yul\":13279:13280   */\n              dup3\n                /* \"#utility.yul\":13275:13284   */\n              add\n                /* \"#utility.yul\":13268:13284   */\n              swap1\n              pop\n                /* \"#utility.yul\":12808:13290   */\n              swap3\n              swap2\n              pop\n              pop\n              jump\t// out\n                /* \"#utility.yul\":13296:13681   */\n            tag_266:\n                /* \"#utility.yul\":13335:13336   */\n              0x00\n                /* \"#utility.yul\":13352:13371   */\n              tag_493\n                /* \"#utility.yul\":13369:13370   */\n              dup3\n                /* \"#utility.yul\":13352:13371   */\n              tag_417\n              jump\t// in\n            tag_493:\n                /* \"#utility.yul\":13347:13371   */\n              swap2\n              pop\n                /* \"#utility.yul\":13385:13404   */\n              tag_494\n                /* \"#utility.yul\":13402:13403   */\n              dup4\n                /* \"#utility.yul\":13385:13404   */\n              tag_417\n              jump\t// in\n            tag_494:\n                /* \"#utility.yul\":13380:13404   */\n              swap3\n              pop\n                /* \"#utility.yul\":13423:13424   */\n              dup3\n                /* \"#utility.yul\":13413:13415   */\n              tag_495\n              jumpi\n                /* \"#utility.yul\":13428:13446   */\n              tag_496\n              tag_497\n              jump\t// in\n            tag_496:\n                /* \"#utility.yul\":13413:13415   */\n            tag_495:\n                /* \"#utility.yul\":13614:13615   */\n              0x01\n                /* \"#utility.yul\":13611:13612   */\n              0x00\n                /* \"#utility.yul\":13607:13616   */\n              sub\n                /* \"#utility.yul\":13604:13605   */\n              dup4\n                /* \"#utility.yul\":13601:13617   */\n              eq\n                /* \"#utility.yul\":13520:13586   */\n              0x8000000000000000000000000000000000000000000000000000000000000000\n                /* \"#utility.yul\":13517:13518   */\n              dup4\n                /* \"#utility.yul\":13514:13587   */\n              eq\n                /* \"#utility.yul\":13497:13627   */\n              and\n                /* \"#utility.yul\":13494:13496   */\n              iszero\n              tag_498\n              jumpi\n                /* \"#utility.yul\":13630:13648   */\n              tag_499\n              tag_489\n              jump\t// in\n            tag_499:\n                /* \"#utility.yul\":13494:13496   */\n            tag_498:\n                /* \"#utility.yul\":13673:13674   */\n              dup3\n                /* \"#utility.yul\":13670:13671   */\n              dup3\n                /* \"#utility.yul\":13665:13675   */\n              sdiv\n                /* \"#utility.yul\":13660:13675   */\n              swap1\n              pop\n                /* \"#utility.yul\":13337:13681   */\n              swap3\n              swap2\n              pop\n              pop\n              jump\t// out\n                /* \"#utility.yul\":13687:13783   */\n            tag_405:\n                /* \"#utility.yul\":13724:13731   */\n              0x00\n                /* \"#utility.yul\":13753:13777   */\n              tag_501\n                /* \"#utility.yul\":13771:13776   */\n              dup3\n                /* \"#utility.yul\":13753:13777   */\n              tag_502\n              jump\t// in\n            tag_501:\n                /* \"#utility.yul\":13742:13777   */\n              swap1\n              pop\n                /* \"#utility.yul\":13732:13783   */\n              swap2\n              swap1\n              pop\n              jump\t// out\n                /* \"#utility.yul\":13789:13893   */\n            tag_401:\n                /* \"#utility.yul\":13834:13841   */\n              0x00\n                /* \"#utility.yul\":13863:13887   */\n              tag_504\n                /* \"#utility.yul\":13881:13886   */\n              dup3\n                /* \"#utility.yul\":13863:13887   */\n              tag_502\n              jump\t// in\n            tag_504:\n                /* \"#utility.yul\":13852:13887   */\n              swap1\n              pop\n                /* \"#utility.yul\":13842:13893   */\n              swap2\n              swap1\n              pop\n              jump\t// out\n                /* \"#utility.yul\":13899:13989   */\n            tag_409:\n                /* \"#utility.yul\":13933:13940   */\n              0x00\n                /* \"#utility.yul\":13976:13981   */\n              dup2\n                /* \"#utility.yul\":13969:13982   */\n              iszero\n                /* \"#utility.yul\":13962:13983   */\n              iszero\n                /* \"#utility.yul\":13951:13983   */\n              swap1\n              pop\n                /* \"#utility.yul\":13941:13989   */\n              swap2\n              swap1\n              pop\n              jump\t// out\n                /* \"#utility.yul\":13995:14122   */\n            tag_506:\n                /* \"#utility.yul\":14040:14047   */\n              0x00\n                /* \"#utility.yul\":14069:14074   */\n              dup2\n                /* \"#utility.yul\":14058:14074   */\n              swap1\n              pop\n                /* \"#utility.yul\":14075:14116   */\n              tag_508\n                /* \"#utility.yul\":14110:14115   */\n              dup3\n                /* \"#utility.yul\":14075:14116   */\n              tag_509\n              jump\t// in\n            tag_508:\n                /* \"#utility.yul\":14048:14122   */\n              swap2\n              swap1\n              pop\n              jump\t// out\n                /* \"#utility.yul\":14128:14204   */\n            tag_417:\n                /* \"#utility.yul\":14164:14171   */\n              0x00\n                /* \"#utility.yul\":14193:14198   */\n              dup2\n                /* \"#utility.yul\":14182:14198   */\n              swap1\n              pop\n                /* \"#utility.yul\":14172:14204   */\n              swap2\n              swap1\n              pop\n              jump\t// out\n                /* \"#utility.yul\":14210:14336   */\n            tag_502:\n                /* \"#utility.yul\":14247:14254   */\n              0x00\n                /* \"#utility.yul\":14287:14329   */\n              0xffffffffffffffffffffffffffffffffffffffff\n                /* \"#utility.yul\":14280:14285   */\n              dup3\n                /* \"#utility.yul\":14276:14330   */\n              and\n                /* \"#utility.yul\":14265:14330   */\n              swap1\n              pop\n                /* \"#utility.yul\":14255:14336   */\n              swap2\n              swap1\n              pop\n              jump\t// out\n                /* \"#utility.yul\":14342:14419   */\n            tag_441:\n                /* \"#utility.yul\":14379:14386   */\n              0x00\n                /* \"#utility.yul\":14408:14413   */\n              dup2\n                /* \"#utility.yul\":14397:14413   */\n              swap1\n              pop\n                /* \"#utility.yul\":14387:14419   */\n              swap2\n              swap1\n              pop\n              jump\t// out\n                /* \"#utility.yul\":14425:14552   */\n            tag_413:\n                /* \"#utility.yul\":14481:14490   */\n              0x00\n                /* \"#utility.yul\":14514:14546   */\n              tag_514\n                /* \"#utility.yul\":14540:14545   */\n              dup3\n                /* \"#utility.yul\":14514:14546   */\n              tag_506\n              jump\t// in\n            tag_514:\n                /* \"#utility.yul\":14501:14546   */\n              swap1\n              pop\n                /* \"#utility.yul\":14491:14552   */\n              swap2\n              swap1\n              pop\n              jump\t// out\n                /* \"#utility.yul\":14558:14712   */\n            tag_351:\n                /* \"#utility.yul\":14642:14648   */\n              dup3\n                /* \"#utility.yul\":14637:14640   */\n              dup2\n                /* \"#utility.yul\":14632:14635   */\n              dup4\n                /* \"#utility.yul\":14619:14649   */\n              calldatacopy\n                /* \"#utility.yul\":14704:14705   */\n              0x00\n                /* \"#utility.yul\":14695:14701   */\n              dup4\n                /* \"#utility.yul\":14690:14693   */\n              dup4\n                /* \"#utility.yul\":14686:14702   */\n              add\n                /* \"#utility.yul\":14679:14706   */\n              mstore\n                /* \"#utility.yul\":14609:14712   */\n              pop\n              pop\n              pop\n              jump\t// out\n                /* \"#utility.yul\":14718:15025   */\n            tag_425:\n                /* \"#utility.yul\":14786:14787   */\n              0x00\n                /* \"#utility.yul\":14796:14909   */\n            tag_517:\n                /* \"#utility.yul\":14810:14816   */\n              dup4\n                /* \"#utility.yul\":14807:14808   */\n              dup2\n                /* \"#utility.yul\":14804:14817   */\n              lt\n                /* \"#utility.yul\":14796:14909   */\n              iszero\n              tag_519\n              jumpi\n                /* \"#utility.yul\":14895:14896   */\n              dup1\n                /* \"#utility.yul\":14890:14893   */\n              dup3\n                /* \"#utility.yul\":14886:14897   */\n              add\n                /* \"#utility.yul\":14880:14898   */\n              mload\n                /* \"#utility.yul\":14876:14877   */\n              dup2\n                /* \"#utility.yul\":14871:14874   */\n              dup5\n                /* \"#utility.yul\":14867:14878   */\n              add\n                /* \"#utility.yul\":14860:14899   */\n              mstore\n                /* \"#utility.yul\":14832:14834   */\n              0x20\n                /* \"#utility.yul\":14829:14830   */\n              dup2\n                /* \"#utility.yul\":14825:14835   */\n              add\n                /* \"#utility.yul\":14820:14835   */\n              swap1\n              pop\n                /* \"#utility.yul\":14796:14909   */\n              jump(tag_517)\n            tag_519:\n                /* \"#utility.yul\":14927:14933   */\n              dup4\n                /* \"#utility.yul\":14924:14925   */\n              dup2\n                /* \"#utility.yul\":14921:14934   */\n              gt\n                /* \"#utility.yul\":14918:14920   */\n              iszero\n              tag_520\n              jumpi\n                /* \"#utility.yul\":15007:15008   */\n              0x00\n                /* \"#utility.yul\":14998:15004   */\n              dup5\n                /* \"#utility.yul\":14993:14996   */\n              dup5\n                /* \"#utility.yul\":14989:15005   */\n              add\n                /* \"#utility.yul\":14982:15009   */\n              mstore\n                /* \"#utility.yul\":14918:14920   */\n            tag_520:\n                /* \"#utility.yul\":14767:15025   */\n              pop\n              pop\n              pop\n              pop\n              jump\t// out\n                /* \"#utility.yul\":15031:15351   */\n            tag_119:\n                /* \"#utility.yul\":15075:15081   */\n              0x00\n                /* \"#utility.yul\":15112:15113   */\n              0x02\n                /* \"#utility.yul\":15106:15110   */\n              dup3\n                /* \"#utility.yul\":15102:15114   */\n              div\n                /* \"#utility.yul\":15092:15114   */\n              swap1\n              pop\n                /* \"#utility.yul\":15159:15160   */\n              0x01\n                /* \"#utility.yul\":15153:15157   */\n              dup3\n                /* \"#utility.yul\":15149:15161   */\n              and\n                /* \"#utility.yul\":15180:15198   */\n              dup1\n                /* \"#utility.yul\":15170:15172   */\n              tag_522\n              jumpi\n                /* \"#utility.yul\":15236:15240   */\n              0x7f\n                /* \"#utility.yul\":15228:15234   */\n              dup3\n                /* \"#utility.yul\":15224:15241   */\n              and\n                /* \"#utility.yul\":15214:15241   */\n              swap2\n              pop\n                /* \"#utility.yul\":15170:15172   */\n            tag_522:\n                /* \"#utility.yul\":15298:15300   */\n              0x20\n                /* \"#utility.yul\":15290:15296   */\n              dup3\n                /* \"#utility.yul\":15287:15301   */\n              lt\n                /* \"#utility.yul\":15267:15285   */\n              dup2\n                /* \"#utility.yul\":15264:15302   */\n              eq\n                /* \"#utility.yul\":15261:15263   */\n              iszero\n              tag_523\n              jumpi\n                /* \"#utility.yul\":15317:15335   */\n              tag_524\n              tag_525\n              jump\t// in\n            tag_524:\n                /* \"#utility.yul\":15261:15263   */\n            tag_523:\n                /* \"#utility.yul\":15082:15351   */\n              pop\n              swap2\n              swap1\n              pop\n              jump\t// out\n                /* \"#utility.yul\":15357:15638   */\n            tag_466:\n                /* \"#utility.yul\":15440:15467   */\n              tag_527\n                /* \"#utility.yul\":15462:15466   */\n              dup3\n                /* \"#utility.yul\":15440:15467   */\n              tag_427\n              jump\t// in\n            tag_527:\n                /* \"#utility.yul\":15432:15438   */\n              dup2\n                /* \"#utility.yul\":15428:15468   */\n              add\n                /* \"#utility.yul\":15570:15576   */\n              dup2\n                /* \"#utility.yul\":15558:15568   */\n              dup2\n                /* \"#utility.yul\":15555:15577   */\n              lt\n                /* \"#utility.yul\":15534:15552   */\n              0xffffffffffffffff\n                /* \"#utility.yul\":15522:15532   */\n              dup3\n                /* \"#utility.yul\":15519:15553   */\n              gt\n                /* \"#utility.yul\":15516:15578   */\n              or\n                /* \"#utility.yul\":15513:15515   */\n              iszero\n              tag_528\n              jumpi\n                /* \"#utility.yul\":15581:15599   */\n              tag_529\n              tag_471\n              jump\t// in\n            tag_529:\n                /* \"#utility.yul\":15513:15515   */\n            tag_528:\n                /* \"#utility.yul\":15621:15631   */\n              dup1\n                /* \"#utility.yul\":15617:15619   */\n              0x40\n                /* \"#utility.yul\":15610:15632   */\n              mstore\n                /* \"#utility.yul\":15400:15638   */\n              pop\n              pop\n              pop\n              jump\t// out\n                /* \"#utility.yul\":15644:15875   */\n            tag_154:\n                /* \"#utility.yul\":15682:15685   */\n              0x00\n                /* \"#utility.yul\":15705:15728   */\n              tag_531\n                /* \"#utility.yul\":15722:15727   */\n              dup3\n                /* \"#utility.yul\":15705:15728   */\n              tag_417\n              jump\t// in\n            tag_531:\n                /* \"#utility.yul\":15696:15728   */\n              swap2\n              pop\n                /* \"#utility.yul\":15750:15816   */\n              0x7fffffffffffffffffffffffffffffffffffffffffffffffffffffffffffffff\n                /* \"#utility.yul\":15743:15748   */\n              dup3\n                /* \"#utility.yul\":15740:15817   */\n              eq\n                /* \"#utility.yul\":15737:15739   */\n              iszero\n              tag_532\n              jumpi\n                /* \"#utility.yul\":15820:15838   */\n              tag_533\n              tag_489\n              jump\t// in\n            tag_533:\n                /* \"#utility.yul\":15737:15739   */\n            tag_532:\n                /* \"#utility.yul\":15867:15868   */\n              0x01\n                /* \"#utility.yul\":15860:15865   */\n              dup3\n                /* \"#utility.yul\":15856:15869   */\n              add\n                /* \"#utility.yul\":15849:15869   */\n              swap1\n              pop\n                /* \"#utility.yul\":15686:15875   */\n              swap2\n              swap1\n              pop\n              jump\t// out\n                /* \"#utility.yul\":15881:16114   */\n            tag_152:\n                /* \"#utility.yul\":15920:15923   */\n              0x00\n                /* \"#utility.yul\":15943:15967   */\n              tag_535\n                /* \"#utility.yul\":15961:15966   */\n              dup3\n                /* \"#utility.yul\":15943:15967   */\n              tag_441\n              jump\t// in\n            tag_535:\n                /* \"#utility.yul\":15934:15967   */\n              swap2\n              pop\n                /* \"#utility.yul\":15989:16055   */\n              0xffffffffffffffffffffffffffffffffffffffffffffffffffffffffffffffff\n                /* \"#utility.yul\":15982:15987   */\n              dup3\n                /* \"#utility.yul\":15979:16056   */\n              eq\n                /* \"#utility.yul\":15976:15978   */\n              iszero\n              tag_536\n              jumpi\n                /* \"#utility.yul\":16059:16077   */\n              tag_537\n              tag_489\n              jump\t// in\n            tag_537:\n                /* \"#utility.yul\":15976:15978   */\n            tag_536:\n                /* \"#utility.yul\":16106:16107   */\n              0x01\n                /* \"#utility.yul\":16099:16104   */\n              dup3\n                /* \"#utility.yul\":16095:16108   */\n              add\n                /* \"#utility.yul\":16088:16108   */\n              swap1\n              pop\n                /* \"#utility.yul\":15924:16114   */\n              swap2\n              swap1\n              pop\n              jump\t// out\n                /* \"#utility.yul\":16120:16300   */\n            tag_489:\n                /* \"#utility.yul\":16168:16245   */\n              0x4e487b7100000000000000000000000000000000000000000000000000000000\n                /* \"#utility.yul\":16165:16166   */\n              0x00\n                /* \"#utility.yul\":16158:16246   */\n              mstore\n                /* \"#utility.yul\":16265:16269   */\n              0x11\n                /* \"#utility.yul\":16262:16263   */\n              0x04\n                /* \"#utility.yul\":16255:16270   */\n              mstore\n                /* \"#utility.yul\":16289:16293   */\n              0x24\n                /* \"#utility.yul\":16286:16287   */\n              0x00\n                /* \"#utility.yul\":16279:16294   */\n              revert\n                /* \"#utility.yul\":16306:16486   */\n            tag_497:\n                /* \"#utility.yul\":16354:16431   */\n              0x4e487b7100000000000000000000000000000000000000000000000000000000\n                /* \"#utility.yul\":16351:16352   */\n              0x00\n                /* \"#utility.yul\":16344:16432   */\n              mstore\n                /* \"#utility.yul\":16451:16455   */\n              0x12\n                /* \"#utility.yul\":16448:16449   */\n              0x04\n                /* \"#utility.yul\":16441:16456   */\n              mstore\n                /* \"#utility.yul\":16475:16479   */\n              0x24\n                /* \"#utility.yul\":16472:16473   */\n              0x00\n                /* \"#utility.yul\":16465:16480   */\n              revert\n                /* \"#utility.yul\":16492:16672   */\n            tag_127:\n                /* \"#utility.yul\":16540:16617   */\n              0x4e487b7100000000000000000000000000000000000000000000000000000000\n                /* \"#utility.yul\":16537:16538   */\n              0x00\n                /* \"#utility.yul\":16530:16618   */\n              mstore\n                /* \"#utility.yul\":16637:16641   */\n              0x21\n                /* \"#utility.yul\":16634:16635   */\n              0x04\n                /* \"#utility.yul\":16627:16642   */\n              mstore\n                /* \"#utility.yul\":16661:16665   */\n              0x24\n                /* \"#utility.yul\":16658:16659   */\n              0x00\n                /* \"#utility.yul\":16651:16666   */\n              revert\n                /* \"#utility.yul\":16678:16858   */\n            tag_525:\n                /* \"#utility.yul\":16726:16803   */\n              0x4e487b7100000000000000000000000000000000000000000000000000000000\n                /* \"#utility.yul\":16723:16724   */\n              0x00\n                /* \"#utility.yul\":16716:16804   */\n              mstore\n                /* \"#utility.yul\":16823:16827   */\n              0x22\n                /* \"#utility.yul\":16820:16821   */\n              0x04\n                /* \"#utility.yul\":16813:16828   */\n              mstore\n                /* \"#utility.yul\":16847:16851   */\n              0x24\n                /* \"#utility.yul\":16844:16845   */\n              0x00\n                /* \"#utility.yul\":16837:16852   */\n              revert\n                /* \"#utility.yul\":16864:17044   */\n            tag_148:\n                /* \"#utility.yul\":16912:16989   */\n              0x4e487b7100000000000000000000000000000000000000000000000000000000\n                /* \"#utility.yul\":16909:16910   */\n              0x00\n                /* \"#utility.yul\":16902:16990   */\n              mstore\n                /* \"#utility.yul\":17009:17013   */\n              0x32\n                /* \"#utility.yul\":17006:17007   */\n              0x04\n                /* \"#utility.yul\":16999:17014   */\n              mstore\n                /* \"#utility.yul\":17033:17037   */\n              0x24\n                /* \"#utility.yul\":17030:17031   */\n              0x00\n                /* \"#utility.yul\":17023:17038   */\n              revert\n                /* \"#utility.yul\":17050:17230   */\n            tag_471:\n                /* \"#utility.yul\":17098:17175   */\n              0x4e487b7100000000000000000000000000000000000000000000000000000000\n                /* \"#utility.yul\":17095:17096   */\n              0x00\n                /* \"#utility.yul\":17088:17176   */\n              mstore\n                /* \"#utility.yul\":17195:17199   */\n              0x41\n                /* \"#utility.yul\":17192:17193   */\n              0x04\n                /* \"#utility.yul\":17185:17200   */\n              mstore\n                /* \"#utility.yul\":17219:17223   */\n              0x24\n                /* \"#utility.yul\":17216:17217   */\n              0x00\n                /* \"#utility.yul\":17209:17224   */\n              revert\n                /* \"#utility.yul\":17236:17353   */\n            tag_339:\n                /* \"#utility.yul\":17345:17346   */\n              0x00\n                /* \"#utility.yul\":17342:17343   */\n              dup1\n                /* \"#utility.yul\":17335:17347   */\n              revert\n                /* \"#utility.yul\":17359:17476   */\n            tag_310:\n                /* \"#utility.yul\":17468:17469   */\n              0x00\n                /* \"#utility.yul\":17465:17466   */\n              dup1\n                /* \"#utility.yul\":17458:17470   */\n              revert\n                /* \"#utility.yul\":17482:17599   */\n            tag_349:\n                /* \"#utility.yul\":17591:17592   */\n              0x00\n                /* \"#utility.yul\":17588:17589   */\n              dup1\n                /* \"#utility.yul\":17581:17593   */\n              revert\n                /* \"#utility.yul\":17605:17722   */\n            tag_384:\n                /* \"#utility.yul\":17714:17715   */\n              0x00\n                /* \"#utility.yul\":17711:17712   */\n              dup1\n                /* \"#utility.yul\":17704:17716   */\n              revert\n                /* \"#utility.yul\":17728:17845   */\n            tag_381:\n                /* \"#utility.yul\":17837:17838   */\n              0x00\n                /* \"#utility.yul\":17834:17835   */\n              dup1\n                /* \"#utility.yul\":17827:17839   */\n              revert\n                /* \"#utility.yul\":17851:17953   */\n            tag_427:\n                /* \"#utility.yul\":17892:17898   */\n              0x00\n                /* \"#utility.yul\":17943:17945   */\n              0x1f\n                /* \"#utility.yul\":17939:17946   */\n              not\n                /* \"#utility.yul\":17934:17936   */\n              0x1f\n                /* \"#utility.yul\":17927:17932   */\n              dup4\n                /* \"#utility.yul\":17923:17937   */\n              add\n                /* \"#utility.yul\":17919:17947   */\n              and\n                /* \"#utility.yul\":17909:17947   */\n              swap1\n              pop\n                /* \"#utility.yul\":17899:17953   */\n              swap2\n              swap1\n              pop\n              jump\t// out\n                /* \"#utility.yul\":17959:18138   */\n            tag_432:\n                /* \"#utility.yul\":18099:18130   */\n              0x4e6f742077697468696e207468652062696c6c696e6720706572696f64000000\n                /* \"#utility.yul\":18095:18096   */\n              0x00\n                /* \"#utility.yul\":18087:18093   */\n              dup3\n                /* \"#utility.yul\":18083:18097   */\n              add\n                /* \"#utility.yul\":18076:18131   */\n              mstore\n                /* \"#utility.yul\":18065:18138   */\n              pop\n              jump\t// out\n                /* \"#utility.yul\":18144:18368   */\n            tag_437:\n                /* \"#utility.yul\":18284:18318   */\n              0x436f6e7472616374206973206e6f7420696e2074686520726571756972656420\n                /* \"#utility.yul\":18280:18281   */\n              0x00\n                /* \"#utility.yul\":18272:18278   */\n              dup3\n                /* \"#utility.yul\":18268:18282   */\n              add\n                /* \"#utility.yul\":18261:18319   */\n              mstore\n                /* \"#utility.yul\":18353:18360   */\n              0x7374617465000000000000000000000000000000000000000000000000000000\n                /* \"#utility.yul\":18348:18350   */\n              0x20\n                /* \"#utility.yul\":18340:18346   */\n              dup3\n                /* \"#utility.yul\":18336:18351   */\n              add\n                /* \"#utility.yul\":18329:18361   */\n              mstore\n                /* \"#utility.yul\":18250:18368   */\n              pop\n              jump\t// out\n                /* \"#utility.yul\":18374:18487   */\n            tag_509:\n                /* \"#utility.yul\":18455:18456   */\n              0x03\n                /* \"#utility.yul\":18448:18453   */\n              dup2\n                /* \"#utility.yul\":18445:18457   */\n              lt\n                /* \"#utility.yul\":18435:18437   */\n              tag_553\n              jumpi\n                /* \"#utility.yul\":18461:18479   */\n              tag_554\n              tag_127\n              jump\t// in\n            tag_554:\n                /* \"#utility.yul\":18435:18437   */\n            tag_553:\n                /* \"#utility.yul\":18425:18487   */\n              pop\n              jump\t// out\n                /* \"#utility.yul\":18493:18613   */\n            tag_369:\n                /* \"#utility.yul\":18565:18588   */\n              tag_556\n                /* \"#utility.yul\":18582:18587   */\n              dup2\n                /* \"#utility.yul\":18565:18588   */\n              tag_417\n              jump\t// in\n            tag_556:\n                /* \"#utility.yul\":18558:18563   */\n              dup2\n                /* \"#utility.yul\":18555:18589   */\n              eq\n                /* \"#utility.yul\":18545:18547   */\n              tag_557\n              jumpi\n                /* \"#utility.yul\":18603:18604   */\n              0x00\n                /* \"#utility.yul\":18600:18601   */\n              dup1\n                /* \"#utility.yul\":18593:18605   */\n              revert\n                /* \"#utility.yul\":18545:18547   */\n            tag_557:\n                /* \"#utility.yul\":18535:18613   */\n              pop\n              jump\t// out\n                /* \"#utility.yul\":18619:18741   */\n            tag_377:\n                /* \"#utility.yul\":18692:18716   */\n              tag_559\n                /* \"#utility.yul\":18710:18715   */\n              dup2\n                /* \"#utility.yul\":18692:18716   */\n              tag_441\n              jump\t// in\n            tag_559:\n                /* \"#utility.yul\":18685:18690   */\n              dup2\n                /* \"#utility.yul\":18682:18717   */\n              eq\n                /* \"#utility.yul\":18672:18674   */\n              tag_560\n              jumpi\n                /* \"#utility.yul\":18731:18732   */\n              0x00\n                /* \"#utility.yul\":18728:18729   */\n              dup1\n                /* \"#utility.yul\":18721:18733   */\n              revert\n                /* \"#utility.yul\":18672:18674   */\n            tag_560:\n                /* \"#utility.yul\":18662:18741   */\n              pop\n              jump\t// out\n\n            auxdata: 0xa2646970667358221220f74b50eee997e5555efb67fcce0aa536a3f58f9f74b9c7fde97f925ad81a96b764736f6c63430008060033\n        }\n    }\n\n    auxdata: 0xa2646970667358221220f9c1be8064dd492962354a146fb1494a43397cfa57f74daf8ab51305f99a747f64736f6c63430008060033\n}\n",
    "bytecode": {
      "linkReferences": {},
      "object": "608060405234801561001057600080fd5b5033600260006101000a81548173ffffffffffffffffffffffffffffffffffffffff021916908373ffffffffffffffffffffffffffffffffffffffff1602179055506128fa806100616000396000f3fe60806040523480156200001157600080fd5b5060043610620000465760003560e01c8063286df805146200004b578063481c6a751462000081578063a08d986d14620000a3575b600080fd5b620000696004803603810190620000639190620002fc565b620000d9565b60405162000078919062000541565b60405180910390f35b6200008b62000243565b6040516200009a919062000468565b60405180910390f35b620000c16004803603810190620000bb9190620003f2565b62000269565b604051620000d0919062000524565b60405180910390f35b6000808a8c8b8b8b8b8b8b8b604051620000f390620002a9565b620001079998979695949392919062000485565b604051809103906000f08015801562000124573d6000803e3d6000fd5b5090507fffffffffffffffffffffffffffffffffffffffffffffffffffffffffffffffff831415620001d0576000819080600181540180825580915050600190039060005260206000200160009091909190916101000a81548173ffffffffffffffffffffffffffffffffffffffff021916908373ffffffffffffffffffffffffffffffffffffffff1602179055506001600080549050620001c791906200055e565b91505062000235565b8060008481548110620001e857620001e762000638565b5b9060005260206000200160006101000a81548173ffffffffffffffffffffffffffffffffffffffff021916908373ffffffffffffffffffffffffffffffffffffffff160217905550829150505b9a9950505050505050505050565b600260009054906101000a900473ffffffffffffffffffffffffffffffffffffffff1681565b600081815481106200027a57600080fd5b906000526020600020016000915054906101000a900473ffffffffffffffffffffffffffffffffffffffff1681565b61220a80620006bb83390190565b600081359050620002c8816200066c565b92915050565b600081359050620002df8162000686565b92915050565b600081359050620002f681620006a0565b92915050565b6000806000806000806000806000806101408b8d03121562000323576200032262000667565b5b6000620003338d828e01620002b7565b9a50506020620003468d828e01620002b7565b9950506040620003598d828e01620002b7565b98505060606200036c8d828e01620002e5565b97505060806200037f8d828e01620002e5565b96505060a0620003928d828e01620002e5565b95505060c0620003a58d828e01620002e5565b94505060e0620003b88d828e01620002e5565b935050610100620003cc8d828e01620002e5565b925050610120620003e08d828e01620002ce565b9150509295989b9194979a5092959850565b6000602082840312156200040b576200040a62000667565b5b60006200041b84828501620002e5565b91505092915050565b6200042f8162000599565b82525050565b6200044081620005e1565b82525050565b6200045181620005ad565b82525050565b6200046281620005d7565b82525050565b60006020820190506200047f600083018462000424565b92915050565b6000610120820190506200049d600083018c62000424565b620004ac602083018b62000424565b620004bb604083018a62000424565b620004ca606083018962000457565b620004d9608083018862000457565b620004e860a083018762000457565b620004f760c083018662000457565b6200050660e083018562000457565b6200051661010083018462000457565b9a9950505050505050505050565b60006020820190506200053b600083018462000435565b92915050565b600060208201905062000558600083018462000446565b92915050565b60006200056b82620005d7565b91506200057883620005d7565b9250828210156200058e576200058d62000609565b5b828203905092915050565b6000620005a682620005b7565b9050919050565b6000819050919050565b600073ffffffffffffffffffffffffffffffffffffffff82169050919050565b6000819050919050565b6000620005ee82620005f5565b9050919050565b60006200060282620005b7565b9050919050565b7f4e487b7100000000000000000000000000000000000000000000000000000000600052601160045260246000fd5b7f4e487b7100000000000000000000000000000000000000000000000000000000600052603260045260246000fd5b600080fd5b620006778162000599565b81146200068357600080fd5b50565b6200069181620005ad565b81146200069d57600080fd5b50565b620006ab81620005d7565b8114620006b757600080fd5b5056fe608060405260008060006101000a81548160ff021916908360028111156200002c576200002b6200047b565b5b02179055506000600b60006101000a81548160ff021916908315150217905550603c8060186119006200006091906200036c565b6200006c91906200036c565b6200007891906200036c565b600e553480156200008857600080fd5b506040516200220a3803806200220a8339818101604052810190620000ae919062000230565b88600060016101000a81548173ffffffffffffffffffffffffffffffffffffffff021916908373ffffffffffffffffffffffffffffffffffffffff16021790555087600160006101000a81548173ffffffffffffffffffffffffffffffffffffffff021916908373ffffffffffffffffffffffffffffffffffffffff16021790555086600260006101000a81548173ffffffffffffffffffffffffffffffffffffffff021916908373ffffffffffffffffffffffffffffffffffffffff16021790555085600581905550846006819055506200019084620001ca60201b60201c565b600881905550620001a783620001ca60201b60201c565b60098190555081600a8190555080600781905550505050505050505050620004e3565b600080600e544284620001de9190620003a4565b620001ea91906200036c565b90508043620001fa91906200030f565b915050919050565b6000815190506200021381620004af565b92915050565b6000815190506200022a81620004c9565b92915050565b60008060008060008060008060006101208a8c031215620002565762000255620004aa565b5b6000620002668c828d0162000202565b9950506020620002798c828d0162000202565b98505060406200028c8c828d0162000202565b97505060606200029f8c828d0162000219565b9650506080620002b28c828d0162000219565b95505060a0620002c58c828d0162000219565b94505060c0620002d88c828d0162000219565b93505060e0620002eb8c828d0162000219565b925050610100620002ff8c828d0162000219565b9150509295985092959850929598565b60006200031c8262000413565b9150620003298362000413565b9250827fffffffffffffffffffffffffffffffffffffffffffffffffffffffffffffffff038211156200036157620003606200041d565b5b828201905092915050565b6000620003798262000413565b9150620003868362000413565b9250826200039957620003986200044c565b5b828204905092915050565b6000620003b18262000413565b9150620003be8362000413565b925082821015620003d457620003d36200041d565b5b828203905092915050565b6000620003ec82620003f3565b9050919050565b600073ffffffffffffffffffffffffffffffffffffffff82169050919050565b6000819050919050565b7f4e487b7100000000000000000000000000000000000000000000000000000000600052601160045260246000fd5b7f4e487b7100000000000000000000000000000000000000000000000000000000600052601260045260246000fd5b7f4e487b7100000000000000000000000000000000000000000000000000000000600052602160045260246000fd5b600080fd5b620004ba81620003df565b8114620004c657600080fd5b50565b620004d48162000413565b8114620004e057600080fd5b50565b611d1780620004f36000396000f3fe60806040526004361061012a5760003560e01c8063516dde43116100ab5780639503fe3d1161006f5780639503fe3d146103b0578063aa8c217c146103c7578063ae90b213146103f2578063c040e6b81461041d578063ecb0b86214610448578063f1b9ee24146104525761012a565b8063516dde43146102ed578063722713f7146103185780637284e41614610343578063760a8c2a1461036e578063904c6094146103855761012a565b806338cbf3a0116100f257806338cbf3a0146102185780633a40f3b214610241578063438853141461026c578063481c6a75146102975780634a79d50c146102c25761012a565b806305b344101461012f578063109e94cf1461015a578063182541d21461018557806321ce5afd146101c457806325419c24146101ed575b600080fd5b34801561013b57600080fd5b50610144610469565b6040516101519190611720565b60405180910390f35b34801561016657600080fd5b5061016f61046f565b60405161017c919061162f565b60405180910390f35b34801561019157600080fd5b506101ac60048036038101906101a7919061150e565b610495565b6040516101bb939291906116a2565b60405180910390f35b3480156101d057600080fd5b506101eb60048036038101906101e69190611454565b610557565b005b3480156101f957600080fd5b506102026106b7565b60405161020f9190611720565b60405180910390f35b34801561022457600080fd5b5061023f600480360381019061023a919061149d565b6106bd565b005b34801561024d57600080fd5b50610256610887565b604051610263919061164a565b60405180910390f35b34801561027857600080fd5b5061028161089a565b60405161028e9190611720565b60405180910390f35b3480156102a357600080fd5b506102ac6108a0565b6040516102b99190611614565b60405180910390f35b3480156102ce57600080fd5b506102d76108c6565b6040516102e49190611680565b60405180910390f35b3480156102f957600080fd5b50610302610954565b60405161030f9190611720565b60405180910390f35b34801561032457600080fd5b5061032d61095a565b60405161033a9190611720565b60405180910390f35b34801561034f57600080fd5b506103586109d8565b6040516103659190611680565b60405180910390f35b34801561037a57600080fd5b50610383610a66565b005b34801561039157600080fd5b5061039a610b08565b6040516103a79190611720565b60405180910390f35b3480156103bc57600080fd5b506103c5610b0e565b005b3480156103d357600080fd5b506103dc610bed565b6040516103e99190611720565b60405180910390f35b3480156103fe57600080fd5b50610407610bf3565b604051610414919061162f565b60405180910390f35b34801561042957600080fd5b50610432610c19565b60405161043f9190611665565b60405180910390f35b610450610c2a565b005b34801561045e57600080fd5b50610467610d1b565b005b60055481565b600160009054906101000a900473ffffffffffffffffffffffffffffffffffffffff1681565b600c81815481106104a557600080fd5b90600052602060002090600302016000915090508060000180546104c8906119ee565b80601f01602080910402602001604051908101604052809291908181526020018280546104f4906119ee565b80156105415780601f1061051657610100808354040283529160200191610541565b820191906000526020600020905b81548152906001019060200180831161052457829003601f168201915b5050505050908060010154908060020154905083565b600280600281111561056c5761056b611b41565b5b60008054906101000a900460ff16600281111561058c5761058b611b41565b5b146105cc576040517f08c379a00000000000000000000000000000000000000000000000000000000081526004016105c390611700565b60405180910390fd5b6009544311156105e3576105de610dbd565b6106b3565b60085443101580156105f757506009544311155b610636576040517f08c379a000000000000000000000000000000000000000000000000000000000815260040161062d906116e0565b60405180910390fd5b60005b82518110156106995782818151811061065557610654611b9f565b5b6020026020010151600f6000838152602001908152602001600020600082825461067f9190611825565b92505081905550808061069190611a9a565b915050610639565b50601060008154809291906106ad90611a51565b91905055505b5050565b60085481565b60008060028111156106d2576106d1611b41565b5b60008054906101000a900460ff1660028111156106f2576106f1611b41565b5b14610732576040517f08c379a000000000000000000000000000000000000000000000000000000000815260040161072990611700565b60405180910390fd5b60005b600881101561087f576040518060400160405280600481526020017f4e6f6e65000000000000000000000000000000000000000000000000000000008152508051906020012085826008811061078e5761078d611b9f565b5b60200201518051906020012014156107ae576107a8610b0e565b50610881565b600c60405180606001604052808784600881106107ce576107cd611b9f565b5b602002015181526020018684600881106107eb576107ea611b9f565b5b6020020151815260200185846008811061080857610807611b9f565b5b602002015181525090806001815401808255809150506001900390600052602060002090600302016000909190919091506000820151816000019080519060200190610855929190611137565b5060208201518160010155604082015181600201555050808061087790611a9a565b915050610735565b505b50505050565b600b60009054906101000a900460ff1681565b60095481565b600060019054906101000a900473ffffffffffffffffffffffffffffffffffffffff1681565b600380546108d3906119ee565b80601f01602080910402602001604051908101604052809291908181526020018280546108ff906119ee565b801561094c5780601f106109215761010080835404028352916020019161094c565b820191906000526020600020905b81548152906001019060200180831161092f57829003601f168201915b505050505081565b60065481565b6000600280600281111561097157610970611b41565b5b60008054906101000a900460ff16600281111561099157610990611b41565b5b146109d1576040517f08c379a00000000000000000000000000000000000000000000000000000000081526004016109c890611700565b60405180910390fd5b4791505090565b600480546109e5906119ee565b80601f0160208091040260200160405190810160405280929190818152602001828054610a11906119ee565b8015610a5e5780601f10610a3357610100808354040283529160200191610a5e565b820191906000526020600020905b815481529060010190602001808311610a4157829003601f168201915b505050505081565b6001806002811115610a7b57610a7a611b41565b5b60008054906101000a900460ff166002811115610a9b57610a9a611b41565b5b14610adb576040517f08c379a0000000000000000000000000000000000000000000000000000000008152600401610ad290611700565b60405180910390fd5b60026000806101000a81548160ff02191690836002811115610b0057610aff611b41565b5b021790555050565b600a5481565b6000806002811115610b2357610b22611b41565b5b60008054906101000a900460ff166002811115610b4357610b42611b41565b5b14610b83576040517f08c379a0000000000000000000000000000000000000000000000000000000008152600401610b7a90611700565b60405180910390fd5b60016000806101000a81548160ff02191690836002811115610ba857610ba7611b41565b5b021790555060005b600c80549050811015610be9576000600f6000838152602001908152602001600020819055508080610be190611a9a565b915050610bb0565b5050565b60075481565b600260009054906101000a900473ffffffffffffffffffffffffffffffffffffffff1681565b60008054906101000a900460ff1681565b6002806002811115610c3f57610c3e611b41565b5b60008054906101000a900460ff166002811115610c5f57610c5e611b41565b5b14610c9f576040517f08c379a0000000000000000000000000000000000000000000000000000000008152600401610c9690611700565b60405180910390fd5b600954431115610cb657610cb1610dbd565b610d18565b6008544310158015610cca57506009544311155b610d09576040517f08c379a0000000000000000000000000000000000000000000000000000000008152600401610d00906116e0565b60405180910390fd5b6007543414610d1757600080fd5b5b50565b6002806002811115610d3057610d2f611b41565b5b60008054906101000a900460ff166002811115610d5057610d4f611b41565b5b14610d90576040517f08c379a0000000000000000000000000000000000000000000000000000000008152600401610d8790611700565b60405180910390fd5b60016000806101000a81548160ff02191690836002811115610db557610db4611b41565b5b021790555050565b6002806002811115610dd257610dd1611b41565b5b60008054906101000a900460ff166002811115610df257610df1611b41565b5b14610e32576040517f08c379a0000000000000000000000000000000000000000000000000000000008152600401610e2990611700565b60405180910390fd5b60005b600c80549050811015610f4e576000600c8281548110610e5857610e57611b9f565b5b90600052602060002090600302016001015490506000600c8381548110610e8257610e81611b9f565b5b90600052602060002090600302016002015490506000601054600f600086815260200190815260200160002054610eb991906118b9565b9050610ec6838284610fd3565b610f3857610ed261105d565b3373ffffffffffffffffffffffffffffffffffffffff167ff47c8c25e090e0f314fa7de6e99a2e6fa82bac7efceb07293a788d48402b3a43600b60009054906101000a900460ff16604051610f27919061164a565b60405180910390a250505050610fd0565b5050508080610f4690611a9a565b915050610e35565b506001600b60006101000a81548160ff0219169083151502179055503373ffffffffffffffffffffffffffffffffffffffff167ff47c8c25e090e0f314fa7de6e99a2e6fa82bac7efceb07293a788d48402b3a43600b60009054906101000a900460ff16604051610fbf919061164a565b60405180910390a2610fcf6110ca565b5b50565b60007fffffffffffffffffffffffffffffffffffffffffffffffffffffffffffffffff84146110515760018085161415611018578183136110175760009050611056565b5b60028085161415611034578183146110335760009050611056565b5b600480851614156110505781831261104f5760009050611056565b5b5b600190505b9392505050565b600160009054906101000a900473ffffffffffffffffffffffffffffffffffffffff1673ffffffffffffffffffffffffffffffffffffffff166108fc6007549081150290604051600060405180830381858888f193505050501580156110c7573d6000803e3d6000fd5b50565b600260009054906101000a900473ffffffffffffffffffffffffffffffffffffffff1673ffffffffffffffffffffffffffffffffffffffff166108fc6007549081150290604051600060405180830381858888f19350505050158015611134573d6000803e3d6000fd5b50565b828054611143906119ee565b90600052602060002090601f01602090048101928261116557600085556111ac565b82601f1061117e57805160ff19168380011785556111ac565b828001600101855582156111ac579182015b828111156111ab578251825591602001919060010190611190565b5b5090506111b991906111bd565b5090565b5b808211156111d65760008160009055506001016111be565b5090565b60006111ed6111e884611760565b61173b565b9050808285602086028201111561120757611206611c02565b5b60005b85811015611237578161121d88826113fc565b84526020840193506020830192505060018101905061120a565b5050509392505050565b600061125461124f84611786565b61173b565b9050808382526020820190508285602086028201111561127757611276611c02565b5b60005b858110156112a7578161128d88826113fc565b84526020840193506020830192505060018101905061127a565b5050509392505050565b60006112c46112bf846117b2565b61173b565b905080828560208602820111156112de576112dd611c02565b5b60005b8581101561132c57813567ffffffffffffffff81111561130457611303611bfd565b5b8086016113118982611411565b855260208501945060208401935050506001810190506112e1565b5050509392505050565b6000611349611344846117d8565b61173b565b90508281526020810184848401111561136557611364611c07565b5b6113708482856119ac565b509392505050565b600082601f83011261138d5761138c611bfd565b5b600861139a8482856111da565b91505092915050565b600082601f8301126113b8576113b7611bfd565b5b81356113c8848260208601611241565b91505092915050565b600082601f8301126113e6576113e5611bfd565b5b60086113f38482856112b1565b91505092915050565b60008135905061140b81611cb3565b92915050565b600082601f83011261142657611425611bfd565b5b8135611436848260208601611336565b91505092915050565b60008135905061144e81611cca565b92915050565b60006020828403121561146a57611469611c11565b5b600082013567ffffffffffffffff81111561148857611487611c0c565b5b611494848285016113a3565b91505092915050565b600080600061022084860312156114b7576114b6611c11565b5b600084013567ffffffffffffffff8111156114d5576114d4611c0c565b5b6114e1868287016113d1565b93505060206114f286828701611378565b92505061012061150486828701611378565b9150509250925092565b60006020828403121561152457611523611c11565b5b60006115328482850161143f565b91505092915050565b61154481611935565b82525050565b61155381611923565b82525050565b61156281611947565b82525050565b6115718161199a565b82525050565b61158081611966565b82525050565b600061159182611809565b61159b8185611814565b93506115ab8185602086016119bb565b6115b481611c16565b840191505092915050565b60006115cc601d83611814565b91506115d782611c27565b602082019050919050565b60006115ef602583611814565b91506115fa82611c50565b604082019050919050565b61160e81611990565b82525050565b6000602082019050611629600083018461154a565b92915050565b6000602082019050611644600083018461153b565b92915050565b600060208201905061165f6000830184611559565b92915050565b600060208201905061167a6000830184611568565b92915050565b6000602082019050818103600083015261169a8184611586565b905092915050565b600060608201905081810360008301526116bc8186611586565b90506116cb6020830185611577565b6116d86040830184611577565b949350505050565b600060208201905081810360008301526116f9816115bf565b9050919050565b60006020820190508181036000830152611719816115e2565b9050919050565b60006020820190506117356000830184611605565b92915050565b6000611745611756565b90506117518282611a20565b919050565b6000604051905090565b600067ffffffffffffffff82111561177b5761177a611bce565b5b602082029050919050565b600067ffffffffffffffff8211156117a1576117a0611bce565b5b602082029050602081019050919050565b600067ffffffffffffffff8211156117cd576117cc611bce565b5b602082029050919050565b600067ffffffffffffffff8211156117f3576117f2611bce565b5b6117fc82611c16565b9050602081019050919050565b600081519050919050565b600082825260208201905092915050565b600061183082611966565b915061183b83611966565b9250817f7fffffffffffffffffffffffffffffffffffffffffffffffffffffffffffffff0383136000831215161561187657611875611ae3565b5b817f80000000000000000000000000000000000000000000000000000000000000000383126000831216156118ae576118ad611ae3565b5b828201905092915050565b60006118c482611966565b91506118cf83611966565b9250826118df576118de611b12565b5b600160000383147f80000000000000000000000000000000000000000000000000000000000000008314161561191857611917611ae3565b5b828205905092915050565b600061192e82611970565b9050919050565b600061194082611970565b9050919050565b60008115159050919050565b600081905061196182611c9f565b919050565b6000819050919050565b600073ffffffffffffffffffffffffffffffffffffffff82169050919050565b6000819050919050565b60006119a582611953565b9050919050565b82818337600083830152505050565b60005b838110156119d95780820151818401526020810190506119be565b838111156119e8576000848401525b50505050565b60006002820490506001821680611a0657607f821691505b60208210811415611a1a57611a19611b70565b5b50919050565b611a2982611c16565b810181811067ffffffffffffffff82111715611a4857611a47611bce565b5b80604052505050565b6000611a5c82611966565b91507f7fffffffffffffffffffffffffffffffffffffffffffffffffffffffffffffff821415611a8f57611a8e611ae3565b5b600182019050919050565b6000611aa582611990565b91507fffffffffffffffffffffffffffffffffffffffffffffffffffffffffffffffff821415611ad857611ad7611ae3565b5b600182019050919050565b7f4e487b7100000000000000000000000000000000000000000000000000000000600052601160045260246000fd5b7f4e487b7100000000000000000000000000000000000000000000000000000000600052601260045260246000fd5b7f4e487b7100000000000000000000000000000000000000000000000000000000600052602160045260246000fd5b7f4e487b7100000000000000000000000000000000000000000000000000000000600052602260045260246000fd5b7f4e487b7100000000000000000000000000000000000000000000000000000000600052603260045260246000fd5b7f4e487b7100000000000000000000000000000000000000000000000000000000600052604160045260246000fd5b600080fd5b600080fd5b600080fd5b600080fd5b600080fd5b6000601f19601f8301169050919050565b7f4e6f742077697468696e207468652062696c6c696e6720706572696f64000000600082015250565b7f436f6e7472616374206973206e6f7420696e207468652072657175697265642060008201527f7374617465000000000000000000000000000000000000000000000000000000602082015250565b60038110611cb057611caf611b41565b5b50565b611cbc81611966565b8114611cc757600080fd5b50565b611cd381611990565b8114611cde57600080fd5b5056fea2646970667358221220f74b50eee997e5555efb67fcce0aa536a3f58f9f74b9c7fde97f925ad81a96b764736f6c63430008060033a2646970667358221220f9c1be8064dd492962354a146fb1494a43397cfa57f74daf8ab51305f99a747f64736f6c63430008060033",
      "opcodes": "PUSH1 0x80 PUSH1 0x40 MSTORE CALLVALUE DUP1 ISZERO PUSH2 0x10 JUMPI PUSH1 0x0 DUP1 REVERT JUMPDEST POP CALLER PUSH1 0x2 PUSH1 0x0 PUSH2 0x100 EXP DUP2 SLOAD DUP2 PUSH20 0xFFFFFFFFFFFFFFFFFFFFFFFFFFFFFFFFFFFFFFFF MUL NOT AND SWAP1 DUP4 PUSH20 0xFFFFFFFFFFFFFFFFFFFFFFFFFFFFFFFFFFFFFFFF AND MUL OR SWAP1 SSTORE POP PUSH2 0x28FA DUP1 PUSH2 0x61 PUSH1 0x0 CODECOPY PUSH1 0x0 RETURN INVALID PUSH1 0x80 PUSH1 0x40 MSTORE CALLVALUE DUP1 ISZERO PUSH3 0x11 JUMPI PUSH1 0x0 DUP1 REVERT JUMPDEST POP PUSH1 0x4 CALLDATASIZE LT PUSH3 0x46 JUMPI PUSH1 0x0 CALLDATALOAD PUSH1 0xE0 SHR DUP1 PUSH4 0x286DF805 EQ PUSH3 0x4B JUMPI DUP1 PUSH4 0x481C6A75 EQ PUSH3 0x81 JUMPI DUP1 PUSH4 0xA08D986D EQ PUSH3 0xA3 JUMPI JUMPDEST PUSH1 0x0 DUP1 REVERT JUMPDEST PUSH3 0x69 PUSH1 0x4 DUP1 CALLDATASIZE SUB DUP2 ADD SWAP1 PUSH3 0x63 SWAP2 SWAP1 PUSH3 0x2FC JUMP JUMPDEST PUSH3 0xD9 JUMP JUMPDEST PUSH1 0x40 MLOAD PUSH3 0x78 SWAP2 SWAP1 PUSH3 0x541 JUMP JUMPDEST PUSH1 0x40 MLOAD DUP1 SWAP2 SUB SWAP1 RETURN JUMPDEST PUSH3 0x8B PUSH3 0x243 JUMP JUMPDEST PUSH1 0x40 MLOAD PUSH3 0x9A SWAP2 SWAP1 PUSH3 0x468 JUMP JUMPDEST PUSH1 0x40 MLOAD DUP1 SWAP2 SUB SWAP1 RETURN JUMPDEST PUSH3 0xC1 PUSH1 0x4 DUP1 CALLDATASIZE SUB DUP2 ADD SWAP1 PUSH3 0xBB SWAP2 SWAP1 PUSH3 0x3F2 JUMP JUMPDEST PUSH3 0x269 JUMP JUMPDEST PUSH1 0x40 MLOAD PUSH3 0xD0 SWAP2 SWAP1 PUSH3 0x524 JUMP JUMPDEST PUSH1 0x40 MLOAD DUP1 SWAP2 SUB SWAP1 RETURN JUMPDEST PUSH1 0x0 DUP1 DUP11 DUP13 DUP12 DUP12 DUP12 DUP12 DUP12 DUP12 DUP12 PUSH1 0x40 MLOAD PUSH3 0xF3 SWAP1 PUSH3 0x2A9 JUMP JUMPDEST PUSH3 0x107 SWAP10 SWAP9 SWAP8 SWAP7 SWAP6 SWAP5 SWAP4 SWAP3 SWAP2 SWAP1 PUSH3 0x485 JUMP JUMPDEST PUSH1 0x40 MLOAD DUP1 SWAP2 SUB SWAP1 PUSH1 0x0 CREATE DUP1 ISZERO DUP1 ISZERO PUSH3 0x124 JUMPI RETURNDATASIZE PUSH1 0x0 DUP1 RETURNDATACOPY RETURNDATASIZE PUSH1 0x0 REVERT JUMPDEST POP SWAP1 POP PUSH32 0xFFFFFFFFFFFFFFFFFFFFFFFFFFFFFFFFFFFFFFFFFFFFFFFFFFFFFFFFFFFFFFFF DUP4 EQ ISZERO PUSH3 0x1D0 JUMPI PUSH1 0x0 DUP2 SWAP1 DUP1 PUSH1 0x1 DUP2 SLOAD ADD DUP1 DUP3 SSTORE DUP1 SWAP2 POP POP PUSH1 0x1 SWAP1 SUB SWAP1 PUSH1 0x0 MSTORE PUSH1 0x20 PUSH1 0x0 KECCAK256 ADD PUSH1 0x0 SWAP1 SWAP2 SWAP1 SWAP2 SWAP1 SWAP2 PUSH2 0x100 EXP DUP2 SLOAD DUP2 PUSH20 0xFFFFFFFFFFFFFFFFFFFFFFFFFFFFFFFFFFFFFFFF MUL NOT AND SWAP1 DUP4 PUSH20 0xFFFFFFFFFFFFFFFFFFFFFFFFFFFFFFFFFFFFFFFF AND MUL OR SWAP1 SSTORE POP PUSH1 0x1 PUSH1 0x0 DUP1 SLOAD SWAP1 POP PUSH3 0x1C7 SWAP2 SWAP1 PUSH3 0x55E JUMP JUMPDEST SWAP2 POP POP PUSH3 0x235 JUMP JUMPDEST DUP1 PUSH1 0x0 DUP5 DUP2 SLOAD DUP2 LT PUSH3 0x1E8 JUMPI PUSH3 0x1E7 PUSH3 0x638 JUMP JUMPDEST JUMPDEST SWAP1 PUSH1 0x0 MSTORE PUSH1 0x20 PUSH1 0x0 KECCAK256 ADD PUSH1 0x0 PUSH2 0x100 EXP DUP2 SLOAD DUP2 PUSH20 0xFFFFFFFFFFFFFFFFFFFFFFFFFFFFFFFFFFFFFFFF MUL NOT AND SWAP1 DUP4 PUSH20 0xFFFFFFFFFFFFFFFFFFFFFFFFFFFFFFFFFFFFFFFF AND MUL OR SWAP1 SSTORE POP DUP3 SWAP2 POP POP JUMPDEST SWAP11 SWAP10 POP POP POP POP POP POP POP POP POP POP JUMP JUMPDEST PUSH1 0x2 PUSH1 0x0 SWAP1 SLOAD SWAP1 PUSH2 0x100 EXP SWAP1 DIV PUSH20 0xFFFFFFFFFFFFFFFFFFFFFFFFFFFFFFFFFFFFFFFF AND DUP2 JUMP JUMPDEST PUSH1 0x0 DUP2 DUP2 SLOAD DUP2 LT PUSH3 0x27A JUMPI PUSH1 0x0 DUP1 REVERT JUMPDEST SWAP1 PUSH1 0x0 MSTORE PUSH1 0x20 PUSH1 0x0 KECCAK256 ADD PUSH1 0x0 SWAP2 POP SLOAD SWAP1 PUSH2 0x100 EXP SWAP1 DIV PUSH20 0xFFFFFFFFFFFFFFFFFFFFFFFFFFFFFFFFFFFFFFFF AND DUP2 JUMP JUMPDEST PUSH2 0x220A DUP1 PUSH3 0x6BB DUP4 CODECOPY ADD SWAP1 JUMP JUMPDEST PUSH1 0x0 DUP2 CALLDATALOAD SWAP1 POP PUSH3 0x2C8 DUP2 PUSH3 0x66C JUMP JUMPDEST SWAP3 SWAP2 POP POP JUMP JUMPDEST PUSH1 0x0 DUP2 CALLDATALOAD SWAP1 POP PUSH3 0x2DF DUP2 PUSH3 0x686 JUMP JUMPDEST SWAP3 SWAP2 POP POP JUMP JUMPDEST PUSH1 0x0 DUP2 CALLDATALOAD SWAP1 POP PUSH3 0x2F6 DUP2 PUSH3 0x6A0 JUMP JUMPDEST SWAP3 SWAP2 POP POP JUMP JUMPDEST PUSH1 0x0 DUP1 PUSH1 0x0 DUP1 PUSH1 0x0 DUP1 PUSH1 0x0 DUP1 PUSH1 0x0 DUP1 PUSH2 0x140 DUP12 DUP14 SUB SLT ISZERO PUSH3 0x323 JUMPI PUSH3 0x322 PUSH3 0x667 JUMP JUMPDEST JUMPDEST PUSH1 0x0 PUSH3 0x333 DUP14 DUP3 DUP15 ADD PUSH3 0x2B7 JUMP JUMPDEST SWAP11 POP POP PUSH1 0x20 PUSH3 0x346 DUP14 DUP3 DUP15 ADD PUSH3 0x2B7 JUMP JUMPDEST SWAP10 POP POP PUSH1 0x40 PUSH3 0x359 DUP14 DUP3 DUP15 ADD PUSH3 0x2B7 JUMP JUMPDEST SWAP9 POP POP PUSH1 0x60 PUSH3 0x36C DUP14 DUP3 DUP15 ADD PUSH3 0x2E5 JUMP JUMPDEST SWAP8 POP POP PUSH1 0x80 PUSH3 0x37F DUP14 DUP3 DUP15 ADD PUSH3 0x2E5 JUMP JUMPDEST SWAP7 POP POP PUSH1 0xA0 PUSH3 0x392 DUP14 DUP3 DUP15 ADD PUSH3 0x2E5 JUMP JUMPDEST SWAP6 POP POP PUSH1 0xC0 PUSH3 0x3A5 DUP14 DUP3 DUP15 ADD PUSH3 0x2E5 JUMP JUMPDEST SWAP5 POP POP PUSH1 0xE0 PUSH3 0x3B8 DUP14 DUP3 DUP15 ADD PUSH3 0x2E5 JUMP JUMPDEST SWAP4 POP POP PUSH2 0x100 PUSH3 0x3CC DUP14 DUP3 DUP15 ADD PUSH3 0x2E5 JUMP JUMPDEST SWAP3 POP POP PUSH2 0x120 PUSH3 0x3E0 DUP14 DUP3 DUP15 ADD PUSH3 0x2CE JUMP JUMPDEST SWAP2 POP POP SWAP3 SWAP6 SWAP9 SWAP12 SWAP2 SWAP5 SWAP8 SWAP11 POP SWAP3 SWAP6 SWAP9 POP JUMP JUMPDEST PUSH1 0x0 PUSH1 0x20 DUP3 DUP5 SUB SLT ISZERO PUSH3 0x40B JUMPI PUSH3 0x40A PUSH3 0x667 JUMP JUMPDEST JUMPDEST PUSH1 0x0 PUSH3 0x41B DUP5 DUP3 DUP6 ADD PUSH3 0x2E5 JUMP JUMPDEST SWAP2 POP POP SWAP3 SWAP2 POP POP JUMP JUMPDEST PUSH3 0x42F DUP2 PUSH3 0x599 JUMP JUMPDEST DUP3 MSTORE POP POP JUMP JUMPDEST PUSH3 0x440 DUP2 PUSH3 0x5E1 JUMP JUMPDEST DUP3 MSTORE POP POP JUMP JUMPDEST PUSH3 0x451 DUP2 PUSH3 0x5AD JUMP JUMPDEST DUP3 MSTORE POP POP JUMP JUMPDEST PUSH3 0x462 DUP2 PUSH3 0x5D7 JUMP JUMPDEST DUP3 MSTORE POP POP JUMP JUMPDEST PUSH1 0x0 PUSH1 0x20 DUP3 ADD SWAP1 POP PUSH3 0x47F PUSH1 0x0 DUP4 ADD DUP5 PUSH3 0x424 JUMP JUMPDEST SWAP3 SWAP2 POP POP JUMP JUMPDEST PUSH1 0x0 PUSH2 0x120 DUP3 ADD SWAP1 POP PUSH3 0x49D PUSH1 0x0 DUP4 ADD DUP13 PUSH3 0x424 JUMP JUMPDEST PUSH3 0x4AC PUSH1 0x20 DUP4 ADD DUP12 PUSH3 0x424 JUMP JUMPDEST PUSH3 0x4BB PUSH1 0x40 DUP4 ADD DUP11 PUSH3 0x424 JUMP JUMPDEST PUSH3 0x4CA PUSH1 0x60 DUP4 ADD DUP10 PUSH3 0x457 JUMP JUMPDEST PUSH3 0x4D9 PUSH1 0x80 DUP4 ADD DUP9 PUSH3 0x457 JUMP JUMPDEST PUSH3 0x4E8 PUSH1 0xA0 DUP4 ADD DUP8 PUSH3 0x457 JUMP JUMPDEST PUSH3 0x4F7 PUSH1 0xC0 DUP4 ADD DUP7 PUSH3 0x457 JUMP JUMPDEST PUSH3 0x506 PUSH1 0xE0 DUP4 ADD DUP6 PUSH3 0x457 JUMP JUMPDEST PUSH3 0x516 PUSH2 0x100 DUP4 ADD DUP5 PUSH3 0x457 JUMP JUMPDEST SWAP11 SWAP10 POP POP POP POP POP POP POP POP POP POP JUMP JUMPDEST PUSH1 0x0 PUSH1 0x20 DUP3 ADD SWAP1 POP PUSH3 0x53B PUSH1 0x0 DUP4 ADD DUP5 PUSH3 0x435 JUMP JUMPDEST SWAP3 SWAP2 POP POP JUMP JUMPDEST PUSH1 0x0 PUSH1 0x20 DUP3 ADD SWAP1 POP PUSH3 0x558 PUSH1 0x0 DUP4 ADD DUP5 PUSH3 0x446 JUMP JUMPDEST SWAP3 SWAP2 POP POP JUMP JUMPDEST PUSH1 0x0 PUSH3 0x56B DUP3 PUSH3 0x5D7 JUMP JUMPDEST SWAP2 POP PUSH3 0x578 DUP4 PUSH3 0x5D7 JUMP JUMPDEST SWAP3 POP DUP3 DUP3 LT ISZERO PUSH3 0x58E JUMPI PUSH3 0x58D PUSH3 0x609 JUMP JUMPDEST JUMPDEST DUP3 DUP3 SUB SWAP1 POP SWAP3 SWAP2 POP POP JUMP JUMPDEST PUSH1 0x0 PUSH3 0x5A6 DUP3 PUSH3 0x5B7 JUMP JUMPDEST SWAP1 POP SWAP2 SWAP1 POP JUMP JUMPDEST PUSH1 0x0 DUP2 SWAP1 POP SWAP2 SWAP1 POP JUMP JUMPDEST PUSH1 0x0 PUSH20 0xFFFFFFFFFFFFFFFFFFFFFFFFFFFFFFFFFFFFFFFF DUP3 AND SWAP1 POP SWAP2 SWAP1 POP JUMP JUMPDEST PUSH1 0x0 DUP2 SWAP1 POP SWAP2 SWAP1 POP JUMP JUMPDEST PUSH1 0x0 PUSH3 0x5EE DUP3 PUSH3 0x5F5 JUMP JUMPDEST SWAP1 POP SWAP2 SWAP1 POP JUMP JUMPDEST PUSH1 0x0 PUSH3 0x602 DUP3 PUSH3 0x5B7 JUMP JUMPDEST SWAP1 POP SWAP2 SWAP1 POP JUMP JUMPDEST PUSH32 0x4E487B7100000000000000000000000000000000000000000000000000000000 PUSH1 0x0 MSTORE PUSH1 0x11 PUSH1 0x4 MSTORE PUSH1 0x24 PUSH1 0x0 REVERT JUMPDEST PUSH32 0x4E487B7100000000000000000000000000000000000000000000000000000000 PUSH1 0x0 MSTORE PUSH1 0x32 PUSH1 0x4 MSTORE PUSH1 0x24 PUSH1 0x0 REVERT JUMPDEST PUSH1 0x0 DUP1 REVERT JUMPDEST PUSH3 0x677 DUP2 PUSH3 0x599 JUMP JUMPDEST DUP2 EQ PUSH3 0x683 JUMPI PUSH1 0x0 DUP1 REVERT JUMPDEST POP JUMP JUMPDEST PUSH3 0x691 DUP2 PUSH3 0x5AD JUMP JUMPDEST DUP2 EQ PUSH3 0x69D JUMPI PUSH1 0x0 DUP1 REVERT JUMPDEST POP JUMP JUMPDEST PUSH3 0x6AB DUP2 PUSH3 0x5D7 JUMP JUMPDEST DUP2 EQ PUSH3 0x6B7 JUMPI PUSH1 0x0 DUP1 REVERT JUMPDEST POP JUMP INVALID PUSH1 0x80 PUSH1 0x40 MSTORE PUSH1 0x0 DUP1 PUSH1 0x0 PUSH2 0x100 EXP DUP2 SLOAD DUP2 PUSH1 0xFF MUL NOT AND SWAP1 DUP4 PUSH1 0x2 DUP2 GT ISZERO PUSH3 0x2C JUMPI PUSH3 0x2B PUSH3 0x47B JUMP JUMPDEST JUMPDEST MUL OR SWAP1 SSTORE POP PUSH1 0x0 PUSH1 0xB PUSH1 0x0 PUSH2 0x100 EXP DUP2 SLOAD DUP2 PUSH1 0xFF MUL NOT AND SWAP1 DUP4 ISZERO ISZERO MUL OR SWAP1 SSTORE POP PUSH1 0x3C DUP1 PUSH1 0x18 PUSH2 0x1900 PUSH3 0x60 SWAP2 SWAP1 PUSH3 0x36C JUMP JUMPDEST PUSH3 0x6C SWAP2 SWAP1 PUSH3 0x36C JUMP JUMPDEST PUSH3 0x78 SWAP2 SWAP1 PUSH3 0x36C JUMP JUMPDEST PUSH1 0xE SSTORE CALLVALUE DUP1 ISZERO PUSH3 0x88 JUMPI PUSH1 0x0 DUP1 REVERT JUMPDEST POP PUSH1 0x40 MLOAD PUSH3 0x220A CODESIZE SUB DUP1 PUSH3 0x220A DUP4 CODECOPY DUP2 DUP2 ADD PUSH1 0x40 MSTORE DUP2 ADD SWAP1 PUSH3 0xAE SWAP2 SWAP1 PUSH3 0x230 JUMP JUMPDEST DUP9 PUSH1 0x0 PUSH1 0x1 PUSH2 0x100 EXP DUP2 SLOAD DUP2 PUSH20 0xFFFFFFFFFFFFFFFFFFFFFFFFFFFFFFFFFFFFFFFF MUL NOT AND SWAP1 DUP4 PUSH20 0xFFFFFFFFFFFFFFFFFFFFFFFFFFFFFFFFFFFFFFFF AND MUL OR SWAP1 SSTORE POP DUP8 PUSH1 0x1 PUSH1 0x0 PUSH2 0x100 EXP DUP2 SLOAD DUP2 PUSH20 0xFFFFFFFFFFFFFFFFFFFFFFFFFFFFFFFFFFFFFFFF MUL NOT AND SWAP1 DUP4 PUSH20 0xFFFFFFFFFFFFFFFFFFFFFFFFFFFFFFFFFFFFFFFF AND MUL OR SWAP1 SSTORE POP DUP7 PUSH1 0x2 PUSH1 0x0 PUSH2 0x100 EXP DUP2 SLOAD DUP2 PUSH20 0xFFFFFFFFFFFFFFFFFFFFFFFFFFFFFFFFFFFFFFFF MUL NOT AND SWAP1 DUP4 PUSH20 0xFFFFFFFFFFFFFFFFFFFFFFFFFFFFFFFFFFFFFFFF AND MUL OR SWAP1 SSTORE POP DUP6 PUSH1 0x5 DUP2 SWAP1 SSTORE POP DUP5 PUSH1 0x6 DUP2 SWAP1 SSTORE POP PUSH3 0x190 DUP5 PUSH3 0x1CA PUSH1 0x20 SHL PUSH1 0x20 SHR JUMP JUMPDEST PUSH1 0x8 DUP2 SWAP1 SSTORE POP PUSH3 0x1A7 DUP4 PUSH3 0x1CA PUSH1 0x20 SHL PUSH1 0x20 SHR JUMP JUMPDEST PUSH1 0x9 DUP2 SWAP1 SSTORE POP DUP2 PUSH1 0xA DUP2 SWAP1 SSTORE POP DUP1 PUSH1 0x7 DUP2 SWAP1 SSTORE POP POP POP POP POP POP POP POP POP POP PUSH3 0x4E3 JUMP JUMPDEST PUSH1 0x0 DUP1 PUSH1 0xE SLOAD TIMESTAMP DUP5 PUSH3 0x1DE SWAP2 SWAP1 PUSH3 0x3A4 JUMP JUMPDEST PUSH3 0x1EA SWAP2 SWAP1 PUSH3 0x36C JUMP JUMPDEST SWAP1 POP DUP1 NUMBER PUSH3 0x1FA SWAP2 SWAP1 PUSH3 0x30F JUMP JUMPDEST SWAP2 POP POP SWAP2 SWAP1 POP JUMP JUMPDEST PUSH1 0x0 DUP2 MLOAD SWAP1 POP PUSH3 0x213 DUP2 PUSH3 0x4AF JUMP JUMPDEST SWAP3 SWAP2 POP POP JUMP JUMPDEST PUSH1 0x0 DUP2 MLOAD SWAP1 POP PUSH3 0x22A DUP2 PUSH3 0x4C9 JUMP JUMPDEST SWAP3 SWAP2 POP POP JUMP JUMPDEST PUSH1 0x0 DUP1 PUSH1 0x0 DUP1 PUSH1 0x0 DUP1 PUSH1 0x0 DUP1 PUSH1 0x0 PUSH2 0x120 DUP11 DUP13 SUB SLT ISZERO PUSH3 0x256 JUMPI PUSH3 0x255 PUSH3 0x4AA JUMP JUMPDEST JUMPDEST PUSH1 0x0 PUSH3 0x266 DUP13 DUP3 DUP14 ADD PUSH3 0x202 JUMP JUMPDEST SWAP10 POP POP PUSH1 0x20 PUSH3 0x279 DUP13 DUP3 DUP14 ADD PUSH3 0x202 JUMP JUMPDEST SWAP9 POP POP PUSH1 0x40 PUSH3 0x28C DUP13 DUP3 DUP14 ADD PUSH3 0x202 JUMP JUMPDEST SWAP8 POP POP PUSH1 0x60 PUSH3 0x29F DUP13 DUP3 DUP14 ADD PUSH3 0x219 JUMP JUMPDEST SWAP7 POP POP PUSH1 0x80 PUSH3 0x2B2 DUP13 DUP3 DUP14 ADD PUSH3 0x219 JUMP JUMPDEST SWAP6 POP POP PUSH1 0xA0 PUSH3 0x2C5 DUP13 DUP3 DUP14 ADD PUSH3 0x219 JUMP JUMPDEST SWAP5 POP POP PUSH1 0xC0 PUSH3 0x2D8 DUP13 DUP3 DUP14 ADD PUSH3 0x219 JUMP JUMPDEST SWAP4 POP POP PUSH1 0xE0 PUSH3 0x2EB DUP13 DUP3 DUP14 ADD PUSH3 0x219 JUMP JUMPDEST SWAP3 POP POP PUSH2 0x100 PUSH3 0x2FF DUP13 DUP3 DUP14 ADD PUSH3 0x219 JUMP JUMPDEST SWAP2 POP POP SWAP3 SWAP6 SWAP9 POP SWAP3 SWAP6 SWAP9 POP SWAP3 SWAP6 SWAP9 JUMP JUMPDEST PUSH1 0x0 PUSH3 0x31C DUP3 PUSH3 0x413 JUMP JUMPDEST SWAP2 POP PUSH3 0x329 DUP4 PUSH3 0x413 JUMP JUMPDEST SWAP3 POP DUP3 PUSH32 0xFFFFFFFFFFFFFFFFFFFFFFFFFFFFFFFFFFFFFFFFFFFFFFFFFFFFFFFFFFFFFFFF SUB DUP3 GT ISZERO PUSH3 0x361 JUMPI PUSH3 0x360 PUSH3 0x41D JUMP JUMPDEST JUMPDEST DUP3 DUP3 ADD SWAP1 POP SWAP3 SWAP2 POP POP JUMP JUMPDEST PUSH1 0x0 PUSH3 0x379 DUP3 PUSH3 0x413 JUMP JUMPDEST SWAP2 POP PUSH3 0x386 DUP4 PUSH3 0x413 JUMP JUMPDEST SWAP3 POP DUP3 PUSH3 0x399 JUMPI PUSH3 0x398 PUSH3 0x44C JUMP JUMPDEST JUMPDEST DUP3 DUP3 DIV SWAP1 POP SWAP3 SWAP2 POP POP JUMP JUMPDEST PUSH1 0x0 PUSH3 0x3B1 DUP3 PUSH3 0x413 JUMP JUMPDEST SWAP2 POP PUSH3 0x3BE DUP4 PUSH3 0x413 JUMP JUMPDEST SWAP3 POP DUP3 DUP3 LT ISZERO PUSH3 0x3D4 JUMPI PUSH3 0x3D3 PUSH3 0x41D JUMP JUMPDEST JUMPDEST DUP3 DUP3 SUB SWAP1 POP SWAP3 SWAP2 POP POP JUMP JUMPDEST PUSH1 0x0 PUSH3 0x3EC DUP3 PUSH3 0x3F3 JUMP JUMPDEST SWAP1 POP SWAP2 SWAP1 POP JUMP JUMPDEST PUSH1 0x0 PUSH20 0xFFFFFFFFFFFFFFFFFFFFFFFFFFFFFFFFFFFFFFFF DUP3 AND SWAP1 POP SWAP2 SWAP1 POP JUMP JUMPDEST PUSH1 0x0 DUP2 SWAP1 POP SWAP2 SWAP1 POP JUMP JUMPDEST PUSH32 0x4E487B7100000000000000000000000000000000000000000000000000000000 PUSH1 0x0 MSTORE PUSH1 0x11 PUSH1 0x4 MSTORE PUSH1 0x24 PUSH1 0x0 REVERT JUMPDEST PUSH32 0x4E487B7100000000000000000000000000000000000000000000000000000000 PUSH1 0x0 MSTORE PUSH1 0x12 PUSH1 0x4 MSTORE PUSH1 0x24 PUSH1 0x0 REVERT JUMPDEST PUSH32 0x4E487B7100000000000000000000000000000000000000000000000000000000 PUSH1 0x0 MSTORE PUSH1 0x21 PUSH1 0x4 MSTORE PUSH1 0x24 PUSH1 0x0 REVERT JUMPDEST PUSH1 0x0 DUP1 REVERT JUMPDEST PUSH3 0x4BA DUP2 PUSH3 0x3DF JUMP JUMPDEST DUP2 EQ PUSH3 0x4C6 JUMPI PUSH1 0x0 DUP1 REVERT JUMPDEST POP JUMP JUMPDEST PUSH3 0x4D4 DUP2 PUSH3 0x413 JUMP JUMPDEST DUP2 EQ PUSH3 0x4E0 JUMPI PUSH1 0x0 DUP1 REVERT JUMPDEST POP JUMP JUMPDEST PUSH2 0x1D17 DUP1 PUSH3 0x4F3 PUSH1 0x0 CODECOPY PUSH1 0x0 RETURN INVALID PUSH1 0x80 PUSH1 0x40 MSTORE PUSH1 0x4 CALLDATASIZE LT PUSH2 0x12A JUMPI PUSH1 0x0 CALLDATALOAD PUSH1 0xE0 SHR DUP1 PUSH4 0x516DDE43 GT PUSH2 0xAB JUMPI DUP1 PUSH4 0x9503FE3D GT PUSH2 0x6F JUMPI DUP1 PUSH4 0x9503FE3D EQ PUSH2 0x3B0 JUMPI DUP1 PUSH4 0xAA8C217C EQ PUSH2 0x3C7 JUMPI DUP1 PUSH4 0xAE90B213 EQ PUSH2 0x3F2 JUMPI DUP1 PUSH4 0xC040E6B8 EQ PUSH2 0x41D JUMPI DUP1 PUSH4 0xECB0B862 EQ PUSH2 0x448 JUMPI DUP1 PUSH4 0xF1B9EE24 EQ PUSH2 0x452 JUMPI PUSH2 0x12A JUMP JUMPDEST DUP1 PUSH4 0x516DDE43 EQ PUSH2 0x2ED JUMPI DUP1 PUSH4 0x722713F7 EQ PUSH2 0x318 JUMPI DUP1 PUSH4 0x7284E416 EQ PUSH2 0x343 JUMPI DUP1 PUSH4 0x760A8C2A EQ PUSH2 0x36E JUMPI DUP1 PUSH4 0x904C6094 EQ PUSH2 0x385 JUMPI PUSH2 0x12A JUMP JUMPDEST DUP1 PUSH4 0x38CBF3A0 GT PUSH2 0xF2 JUMPI DUP1 PUSH4 0x38CBF3A0 EQ PUSH2 0x218 JUMPI DUP1 PUSH4 0x3A40F3B2 EQ PUSH2 0x241 JUMPI DUP1 PUSH4 0x43885314 EQ PUSH2 0x26C JUMPI DUP1 PUSH4 0x481C6A75 EQ PUSH2 0x297 JUMPI DUP1 PUSH4 0x4A79D50C EQ PUSH2 0x2C2 JUMPI PUSH2 0x12A JUMP JUMPDEST DUP1 PUSH4 0x5B34410 EQ PUSH2 0x12F JUMPI DUP1 PUSH4 0x109E94CF EQ PUSH2 0x15A JUMPI DUP1 PUSH4 0x182541D2 EQ PUSH2 0x185 JUMPI DUP1 PUSH4 0x21CE5AFD EQ PUSH2 0x1C4 JUMPI DUP1 PUSH4 0x25419C24 EQ PUSH2 0x1ED JUMPI JUMPDEST PUSH1 0x0 DUP1 REVERT JUMPDEST CALLVALUE DUP1 ISZERO PUSH2 0x13B JUMPI PUSH1 0x0 DUP1 REVERT JUMPDEST POP PUSH2 0x144 PUSH2 0x469 JUMP JUMPDEST PUSH1 0x40 MLOAD PUSH2 0x151 SWAP2 SWAP1 PUSH2 0x1720 JUMP JUMPDEST PUSH1 0x40 MLOAD DUP1 SWAP2 SUB SWAP1 RETURN JUMPDEST CALLVALUE DUP1 ISZERO PUSH2 0x166 JUMPI PUSH1 0x0 DUP1 REVERT JUMPDEST POP PUSH2 0x16F PUSH2 0x46F JUMP JUMPDEST PUSH1 0x40 MLOAD PUSH2 0x17C SWAP2 SWAP1 PUSH2 0x162F JUMP JUMPDEST PUSH1 0x40 MLOAD DUP1 SWAP2 SUB SWAP1 RETURN JUMPDEST CALLVALUE DUP1 ISZERO PUSH2 0x191 JUMPI PUSH1 0x0 DUP1 REVERT JUMPDEST POP PUSH2 0x1AC PUSH1 0x4 DUP1 CALLDATASIZE SUB DUP2 ADD SWAP1 PUSH2 0x1A7 SWAP2 SWAP1 PUSH2 0x150E JUMP JUMPDEST PUSH2 0x495 JUMP JUMPDEST PUSH1 0x40 MLOAD PUSH2 0x1BB SWAP4 SWAP3 SWAP2 SWAP1 PUSH2 0x16A2 JUMP JUMPDEST PUSH1 0x40 MLOAD DUP1 SWAP2 SUB SWAP1 RETURN JUMPDEST CALLVALUE DUP1 ISZERO PUSH2 0x1D0 JUMPI PUSH1 0x0 DUP1 REVERT JUMPDEST POP PUSH2 0x1EB PUSH1 0x4 DUP1 CALLDATASIZE SUB DUP2 ADD SWAP1 PUSH2 0x1E6 SWAP2 SWAP1 PUSH2 0x1454 JUMP JUMPDEST PUSH2 0x557 JUMP JUMPDEST STOP JUMPDEST CALLVALUE DUP1 ISZERO PUSH2 0x1F9 JUMPI PUSH1 0x0 DUP1 REVERT JUMPDEST POP PUSH2 0x202 PUSH2 0x6B7 JUMP JUMPDEST PUSH1 0x40 MLOAD PUSH2 0x20F SWAP2 SWAP1 PUSH2 0x1720 JUMP JUMPDEST PUSH1 0x40 MLOAD DUP1 SWAP2 SUB SWAP1 RETURN JUMPDEST CALLVALUE DUP1 ISZERO PUSH2 0x224 JUMPI PUSH1 0x0 DUP1 REVERT JUMPDEST POP PUSH2 0x23F PUSH1 0x4 DUP1 CALLDATASIZE SUB DUP2 ADD SWAP1 PUSH2 0x23A SWAP2 SWAP1 PUSH2 0x149D JUMP JUMPDEST PUSH2 0x6BD JUMP JUMPDEST STOP JUMPDEST CALLVALUE DUP1 ISZERO PUSH2 0x24D JUMPI PUSH1 0x0 DUP1 REVERT JUMPDEST POP PUSH2 0x256 PUSH2 0x887 JUMP JUMPDEST PUSH1 0x40 MLOAD PUSH2 0x263 SWAP2 SWAP1 PUSH2 0x164A JUMP JUMPDEST PUSH1 0x40 MLOAD DUP1 SWAP2 SUB SWAP1 RETURN JUMPDEST CALLVALUE DUP1 ISZERO PUSH2 0x278 JUMPI PUSH1 0x0 DUP1 REVERT JUMPDEST POP PUSH2 0x281 PUSH2 0x89A JUMP JUMPDEST PUSH1 0x40 MLOAD PUSH2 0x28E SWAP2 SWAP1 PUSH2 0x1720 JUMP JUMPDEST PUSH1 0x40 MLOAD DUP1 SWAP2 SUB SWAP1 RETURN JUMPDEST CALLVALUE DUP1 ISZERO PUSH2 0x2A3 JUMPI PUSH1 0x0 DUP1 REVERT JUMPDEST POP PUSH2 0x2AC PUSH2 0x8A0 JUMP JUMPDEST PUSH1 0x40 MLOAD PUSH2 0x2B9 SWAP2 SWAP1 PUSH2 0x1614 JUMP JUMPDEST PUSH1 0x40 MLOAD DUP1 SWAP2 SUB SWAP1 RETURN JUMPDEST CALLVALUE DUP1 ISZERO PUSH2 0x2CE JUMPI PUSH1 0x0 DUP1 REVERT JUMPDEST POP PUSH2 0x2D7 PUSH2 0x8C6 JUMP JUMPDEST PUSH1 0x40 MLOAD PUSH2 0x2E4 SWAP2 SWAP1 PUSH2 0x1680 JUMP JUMPDEST PUSH1 0x40 MLOAD DUP1 SWAP2 SUB SWAP1 RETURN JUMPDEST CALLVALUE DUP1 ISZERO PUSH2 0x2F9 JUMPI PUSH1 0x0 DUP1 REVERT JUMPDEST POP PUSH2 0x302 PUSH2 0x954 JUMP JUMPDEST PUSH1 0x40 MLOAD PUSH2 0x30F SWAP2 SWAP1 PUSH2 0x1720 JUMP JUMPDEST PUSH1 0x40 MLOAD DUP1 SWAP2 SUB SWAP1 RETURN JUMPDEST CALLVALUE DUP1 ISZERO PUSH2 0x324 JUMPI PUSH1 0x0 DUP1 REVERT JUMPDEST POP PUSH2 0x32D PUSH2 0x95A JUMP JUMPDEST PUSH1 0x40 MLOAD PUSH2 0x33A SWAP2 SWAP1 PUSH2 0x1720 JUMP JUMPDEST PUSH1 0x40 MLOAD DUP1 SWAP2 SUB SWAP1 RETURN JUMPDEST CALLVALUE DUP1 ISZERO PUSH2 0x34F JUMPI PUSH1 0x0 DUP1 REVERT JUMPDEST POP PUSH2 0x358 PUSH2 0x9D8 JUMP JUMPDEST PUSH1 0x40 MLOAD PUSH2 0x365 SWAP2 SWAP1 PUSH2 0x1680 JUMP JUMPDEST PUSH1 0x40 MLOAD DUP1 SWAP2 SUB SWAP1 RETURN JUMPDEST CALLVALUE DUP1 ISZERO PUSH2 0x37A JUMPI PUSH1 0x0 DUP1 REVERT JUMPDEST POP PUSH2 0x383 PUSH2 0xA66 JUMP JUMPDEST STOP JUMPDEST CALLVALUE DUP1 ISZERO PUSH2 0x391 JUMPI PUSH1 0x0 DUP1 REVERT JUMPDEST POP PUSH2 0x39A PUSH2 0xB08 JUMP JUMPDEST PUSH1 0x40 MLOAD PUSH2 0x3A7 SWAP2 SWAP1 PUSH2 0x1720 JUMP JUMPDEST PUSH1 0x40 MLOAD DUP1 SWAP2 SUB SWAP1 RETURN JUMPDEST CALLVALUE DUP1 ISZERO PUSH2 0x3BC JUMPI PUSH1 0x0 DUP1 REVERT JUMPDEST POP PUSH2 0x3C5 PUSH2 0xB0E JUMP JUMPDEST STOP JUMPDEST CALLVALUE DUP1 ISZERO PUSH2 0x3D3 JUMPI PUSH1 0x0 DUP1 REVERT JUMPDEST POP PUSH2 0x3DC PUSH2 0xBED JUMP JUMPDEST PUSH1 0x40 MLOAD PUSH2 0x3E9 SWAP2 SWAP1 PUSH2 0x1720 JUMP JUMPDEST PUSH1 0x40 MLOAD DUP1 SWAP2 SUB SWAP1 RETURN JUMPDEST CALLVALUE DUP1 ISZERO PUSH2 0x3FE JUMPI PUSH1 0x0 DUP1 REVERT JUMPDEST POP PUSH2 0x407 PUSH2 0xBF3 JUMP JUMPDEST PUSH1 0x40 MLOAD PUSH2 0x414 SWAP2 SWAP1 PUSH2 0x162F JUMP JUMPDEST PUSH1 0x40 MLOAD DUP1 SWAP2 SUB SWAP1 RETURN JUMPDEST CALLVALUE DUP1 ISZERO PUSH2 0x429 JUMPI PUSH1 0x0 DUP1 REVERT JUMPDEST POP PUSH2 0x432 PUSH2 0xC19 JUMP JUMPDEST PUSH1 0x40 MLOAD PUSH2 0x43F SWAP2 SWAP1 PUSH2 0x1665 JUMP JUMPDEST PUSH1 0x40 MLOAD DUP1 SWAP2 SUB SWAP1 RETURN JUMPDEST PUSH2 0x450 PUSH2 0xC2A JUMP JUMPDEST STOP JUMPDEST CALLVALUE DUP1 ISZERO PUSH2 0x45E JUMPI PUSH1 0x0 DUP1 REVERT JUMPDEST POP PUSH2 0x467 PUSH2 0xD1B JUMP JUMPDEST STOP JUMPDEST PUSH1 0x5 SLOAD DUP2 JUMP JUMPDEST PUSH1 0x1 PUSH1 0x0 SWAP1 SLOAD SWAP1 PUSH2 0x100 EXP SWAP1 DIV PUSH20 0xFFFFFFFFFFFFFFFFFFFFFFFFFFFFFFFFFFFFFFFF AND DUP2 JUMP JUMPDEST PUSH1 0xC DUP2 DUP2 SLOAD DUP2 LT PUSH2 0x4A5 JUMPI PUSH1 0x0 DUP1 REVERT JUMPDEST SWAP1 PUSH1 0x0 MSTORE PUSH1 0x20 PUSH1 0x0 KECCAK256 SWAP1 PUSH1 0x3 MUL ADD PUSH1 0x0 SWAP2 POP SWAP1 POP DUP1 PUSH1 0x0 ADD DUP1 SLOAD PUSH2 0x4C8 SWAP1 PUSH2 0x19EE JUMP JUMPDEST DUP1 PUSH1 0x1F ADD PUSH1 0x20 DUP1 SWAP2 DIV MUL PUSH1 0x20 ADD PUSH1 0x40 MLOAD SWAP1 DUP2 ADD PUSH1 0x40 MSTORE DUP1 SWAP3 SWAP2 SWAP1 DUP2 DUP2 MSTORE PUSH1 0x20 ADD DUP3 DUP1 SLOAD PUSH2 0x4F4 SWAP1 PUSH2 0x19EE JUMP JUMPDEST DUP1 ISZERO PUSH2 0x541 JUMPI DUP1 PUSH1 0x1F LT PUSH2 0x516 JUMPI PUSH2 0x100 DUP1 DUP4 SLOAD DIV MUL DUP4 MSTORE SWAP2 PUSH1 0x20 ADD SWAP2 PUSH2 0x541 JUMP JUMPDEST DUP3 ADD SWAP2 SWAP1 PUSH1 0x0 MSTORE PUSH1 0x20 PUSH1 0x0 KECCAK256 SWAP1 JUMPDEST DUP2 SLOAD DUP2 MSTORE SWAP1 PUSH1 0x1 ADD SWAP1 PUSH1 0x20 ADD DUP1 DUP4 GT PUSH2 0x524 JUMPI DUP3 SWAP1 SUB PUSH1 0x1F AND DUP3 ADD SWAP2 JUMPDEST POP POP POP POP POP SWAP1 DUP1 PUSH1 0x1 ADD SLOAD SWAP1 DUP1 PUSH1 0x2 ADD SLOAD SWAP1 POP DUP4 JUMP JUMPDEST PUSH1 0x2 DUP1 PUSH1 0x2 DUP2 GT ISZERO PUSH2 0x56C JUMPI PUSH2 0x56B PUSH2 0x1B41 JUMP JUMPDEST JUMPDEST PUSH1 0x0 DUP1 SLOAD SWAP1 PUSH2 0x100 EXP SWAP1 DIV PUSH1 0xFF AND PUSH1 0x2 DUP2 GT ISZERO PUSH2 0x58C JUMPI PUSH2 0x58B PUSH2 0x1B41 JUMP JUMPDEST JUMPDEST EQ PUSH2 0x5CC JUMPI PUSH1 0x40 MLOAD PUSH32 0x8C379A000000000000000000000000000000000000000000000000000000000 DUP2 MSTORE PUSH1 0x4 ADD PUSH2 0x5C3 SWAP1 PUSH2 0x1700 JUMP JUMPDEST PUSH1 0x40 MLOAD DUP1 SWAP2 SUB SWAP1 REVERT JUMPDEST PUSH1 0x9 SLOAD NUMBER GT ISZERO PUSH2 0x5E3 JUMPI PUSH2 0x5DE PUSH2 0xDBD JUMP JUMPDEST PUSH2 0x6B3 JUMP JUMPDEST PUSH1 0x8 SLOAD NUMBER LT ISZERO DUP1 ISZERO PUSH2 0x5F7 JUMPI POP PUSH1 0x9 SLOAD NUMBER GT ISZERO JUMPDEST PUSH2 0x636 JUMPI PUSH1 0x40 MLOAD PUSH32 0x8C379A000000000000000000000000000000000000000000000000000000000 DUP2 MSTORE PUSH1 0x4 ADD PUSH2 0x62D SWAP1 PUSH2 0x16E0 JUMP JUMPDEST PUSH1 0x40 MLOAD DUP1 SWAP2 SUB SWAP1 REVERT JUMPDEST PUSH1 0x0 JUMPDEST DUP3 MLOAD DUP2 LT ISZERO PUSH2 0x699 JUMPI DUP3 DUP2 DUP2 MLOAD DUP2 LT PUSH2 0x655 JUMPI PUSH2 0x654 PUSH2 0x1B9F JUMP JUMPDEST JUMPDEST PUSH1 0x20 MUL PUSH1 0x20 ADD ADD MLOAD PUSH1 0xF PUSH1 0x0 DUP4 DUP2 MSTORE PUSH1 0x20 ADD SWAP1 DUP2 MSTORE PUSH1 0x20 ADD PUSH1 0x0 KECCAK256 PUSH1 0x0 DUP3 DUP3 SLOAD PUSH2 0x67F SWAP2 SWAP1 PUSH2 0x1825 JUMP JUMPDEST SWAP3 POP POP DUP2 SWAP1 SSTORE POP DUP1 DUP1 PUSH2 0x691 SWAP1 PUSH2 0x1A9A JUMP JUMPDEST SWAP2 POP POP PUSH2 0x639 JUMP JUMPDEST POP PUSH1 0x10 PUSH1 0x0 DUP2 SLOAD DUP1 SWAP3 SWAP2 SWAP1 PUSH2 0x6AD SWAP1 PUSH2 0x1A51 JUMP JUMPDEST SWAP2 SWAP1 POP SSTORE POP JUMPDEST POP POP JUMP JUMPDEST PUSH1 0x8 SLOAD DUP2 JUMP JUMPDEST PUSH1 0x0 DUP1 PUSH1 0x2 DUP2 GT ISZERO PUSH2 0x6D2 JUMPI PUSH2 0x6D1 PUSH2 0x1B41 JUMP JUMPDEST JUMPDEST PUSH1 0x0 DUP1 SLOAD SWAP1 PUSH2 0x100 EXP SWAP1 DIV PUSH1 0xFF AND PUSH1 0x2 DUP2 GT ISZERO PUSH2 0x6F2 JUMPI PUSH2 0x6F1 PUSH2 0x1B41 JUMP JUMPDEST JUMPDEST EQ PUSH2 0x732 JUMPI PUSH1 0x40 MLOAD PUSH32 0x8C379A000000000000000000000000000000000000000000000000000000000 DUP2 MSTORE PUSH1 0x4 ADD PUSH2 0x729 SWAP1 PUSH2 0x1700 JUMP JUMPDEST PUSH1 0x40 MLOAD DUP1 SWAP2 SUB SWAP1 REVERT JUMPDEST PUSH1 0x0 JUMPDEST PUSH1 0x8 DUP2 LT ISZERO PUSH2 0x87F JUMPI PUSH1 0x40 MLOAD DUP1 PUSH1 0x40 ADD PUSH1 0x40 MSTORE DUP1 PUSH1 0x4 DUP2 MSTORE PUSH1 0x20 ADD PUSH32 0x4E6F6E6500000000000000000000000000000000000000000000000000000000 DUP2 MSTORE POP DUP1 MLOAD SWAP1 PUSH1 0x20 ADD KECCAK256 DUP6 DUP3 PUSH1 0x8 DUP2 LT PUSH2 0x78E JUMPI PUSH2 0x78D PUSH2 0x1B9F JUMP JUMPDEST JUMPDEST PUSH1 0x20 MUL ADD MLOAD DUP1 MLOAD SWAP1 PUSH1 0x20 ADD KECCAK256 EQ ISZERO PUSH2 0x7AE JUMPI PUSH2 0x7A8 PUSH2 0xB0E JUMP JUMPDEST POP PUSH2 0x881 JUMP JUMPDEST PUSH1 0xC PUSH1 0x40 MLOAD DUP1 PUSH1 0x60 ADD PUSH1 0x40 MSTORE DUP1 DUP8 DUP5 PUSH1 0x8 DUP2 LT PUSH2 0x7CE JUMPI PUSH2 0x7CD PUSH2 0x1B9F JUMP JUMPDEST JUMPDEST PUSH1 0x20 MUL ADD MLOAD DUP2 MSTORE PUSH1 0x20 ADD DUP7 DUP5 PUSH1 0x8 DUP2 LT PUSH2 0x7EB JUMPI PUSH2 0x7EA PUSH2 0x1B9F JUMP JUMPDEST JUMPDEST PUSH1 0x20 MUL ADD MLOAD DUP2 MSTORE PUSH1 0x20 ADD DUP6 DUP5 PUSH1 0x8 DUP2 LT PUSH2 0x808 JUMPI PUSH2 0x807 PUSH2 0x1B9F JUMP JUMPDEST JUMPDEST PUSH1 0x20 MUL ADD MLOAD DUP2 MSTORE POP SWAP1 DUP1 PUSH1 0x1 DUP2 SLOAD ADD DUP1 DUP3 SSTORE DUP1 SWAP2 POP POP PUSH1 0x1 SWAP1 SUB SWAP1 PUSH1 0x0 MSTORE PUSH1 0x20 PUSH1 0x0 KECCAK256 SWAP1 PUSH1 0x3 MUL ADD PUSH1 0x0 SWAP1 SWAP2 SWAP1 SWAP2 SWAP1 SWAP2 POP PUSH1 0x0 DUP3 ADD MLOAD DUP2 PUSH1 0x0 ADD SWAP1 DUP1 MLOAD SWAP1 PUSH1 0x20 ADD SWAP1 PUSH2 0x855 SWAP3 SWAP2 SWAP1 PUSH2 0x1137 JUMP JUMPDEST POP PUSH1 0x20 DUP3 ADD MLOAD DUP2 PUSH1 0x1 ADD SSTORE PUSH1 0x40 DUP3 ADD MLOAD DUP2 PUSH1 0x2 ADD SSTORE POP POP DUP1 DUP1 PUSH2 0x877 SWAP1 PUSH2 0x1A9A JUMP JUMPDEST SWAP2 POP POP PUSH2 0x735 JUMP JUMPDEST POP JUMPDEST POP POP POP POP JUMP JUMPDEST PUSH1 0xB PUSH1 0x0 SWAP1 SLOAD SWAP1 PUSH2 0x100 EXP SWAP1 DIV PUSH1 0xFF AND DUP2 JUMP JUMPDEST PUSH1 0x9 SLOAD DUP2 JUMP JUMPDEST PUSH1 0x0 PUSH1 0x1 SWAP1 SLOAD SWAP1 PUSH2 0x100 EXP SWAP1 DIV PUSH20 0xFFFFFFFFFFFFFFFFFFFFFFFFFFFFFFFFFFFFFFFF AND DUP2 JUMP JUMPDEST PUSH1 0x3 DUP1 SLOAD PUSH2 0x8D3 SWAP1 PUSH2 0x19EE JUMP JUMPDEST DUP1 PUSH1 0x1F ADD PUSH1 0x20 DUP1 SWAP2 DIV MUL PUSH1 0x20 ADD PUSH1 0x40 MLOAD SWAP1 DUP2 ADD PUSH1 0x40 MSTORE DUP1 SWAP3 SWAP2 SWAP1 DUP2 DUP2 MSTORE PUSH1 0x20 ADD DUP3 DUP1 SLOAD PUSH2 0x8FF SWAP1 PUSH2 0x19EE JUMP JUMPDEST DUP1 ISZERO PUSH2 0x94C JUMPI DUP1 PUSH1 0x1F LT PUSH2 0x921 JUMPI PUSH2 0x100 DUP1 DUP4 SLOAD DIV MUL DUP4 MSTORE SWAP2 PUSH1 0x20 ADD SWAP2 PUSH2 0x94C JUMP JUMPDEST DUP3 ADD SWAP2 SWAP1 PUSH1 0x0 MSTORE PUSH1 0x20 PUSH1 0x0 KECCAK256 SWAP1 JUMPDEST DUP2 SLOAD DUP2 MSTORE SWAP1 PUSH1 0x1 ADD SWAP1 PUSH1 0x20 ADD DUP1 DUP4 GT PUSH2 0x92F JUMPI DUP3 SWAP1 SUB PUSH1 0x1F AND DUP3 ADD SWAP2 JUMPDEST POP POP POP POP POP DUP2 JUMP JUMPDEST PUSH1 0x6 SLOAD DUP2 JUMP JUMPDEST PUSH1 0x0 PUSH1 0x2 DUP1 PUSH1 0x2 DUP2 GT ISZERO PUSH2 0x971 JUMPI PUSH2 0x970 PUSH2 0x1B41 JUMP JUMPDEST JUMPDEST PUSH1 0x0 DUP1 SLOAD SWAP1 PUSH2 0x100 EXP SWAP1 DIV PUSH1 0xFF AND PUSH1 0x2 DUP2 GT ISZERO PUSH2 0x991 JUMPI PUSH2 0x990 PUSH2 0x1B41 JUMP JUMPDEST JUMPDEST EQ PUSH2 0x9D1 JUMPI PUSH1 0x40 MLOAD PUSH32 0x8C379A000000000000000000000000000000000000000000000000000000000 DUP2 MSTORE PUSH1 0x4 ADD PUSH2 0x9C8 SWAP1 PUSH2 0x1700 JUMP JUMPDEST PUSH1 0x40 MLOAD DUP1 SWAP2 SUB SWAP1 REVERT JUMPDEST SELFBALANCE SWAP2 POP POP SWAP1 JUMP JUMPDEST PUSH1 0x4 DUP1 SLOAD PUSH2 0x9E5 SWAP1 PUSH2 0x19EE JUMP JUMPDEST DUP1 PUSH1 0x1F ADD PUSH1 0x20 DUP1 SWAP2 DIV MUL PUSH1 0x20 ADD PUSH1 0x40 MLOAD SWAP1 DUP2 ADD PUSH1 0x40 MSTORE DUP1 SWAP3 SWAP2 SWAP1 DUP2 DUP2 MSTORE PUSH1 0x20 ADD DUP3 DUP1 SLOAD PUSH2 0xA11 SWAP1 PUSH2 0x19EE JUMP JUMPDEST DUP1 ISZERO PUSH2 0xA5E JUMPI DUP1 PUSH1 0x1F LT PUSH2 0xA33 JUMPI PUSH2 0x100 DUP1 DUP4 SLOAD DIV MUL DUP4 MSTORE SWAP2 PUSH1 0x20 ADD SWAP2 PUSH2 0xA5E JUMP JUMPDEST DUP3 ADD SWAP2 SWAP1 PUSH1 0x0 MSTORE PUSH1 0x20 PUSH1 0x0 KECCAK256 SWAP1 JUMPDEST DUP2 SLOAD DUP2 MSTORE SWAP1 PUSH1 0x1 ADD SWAP1 PUSH1 0x20 ADD DUP1 DUP4 GT PUSH2 0xA41 JUMPI DUP3 SWAP1 SUB PUSH1 0x1F AND DUP3 ADD SWAP2 JUMPDEST POP POP POP POP POP DUP2 JUMP JUMPDEST PUSH1 0x1 DUP1 PUSH1 0x2 DUP2 GT ISZERO PUSH2 0xA7B JUMPI PUSH2 0xA7A PUSH2 0x1B41 JUMP JUMPDEST JUMPDEST PUSH1 0x0 DUP1 SLOAD SWAP1 PUSH2 0x100 EXP SWAP1 DIV PUSH1 0xFF AND PUSH1 0x2 DUP2 GT ISZERO PUSH2 0xA9B JUMPI PUSH2 0xA9A PUSH2 0x1B41 JUMP JUMPDEST JUMPDEST EQ PUSH2 0xADB JUMPI PUSH1 0x40 MLOAD PUSH32 0x8C379A000000000000000000000000000000000000000000000000000000000 DUP2 MSTORE PUSH1 0x4 ADD PUSH2 0xAD2 SWAP1 PUSH2 0x1700 JUMP JUMPDEST PUSH1 0x40 MLOAD DUP1 SWAP2 SUB SWAP1 REVERT JUMPDEST PUSH1 0x2 PUSH1 0x0 DUP1 PUSH2 0x100 EXP DUP2 SLOAD DUP2 PUSH1 0xFF MUL NOT AND SWAP1 DUP4 PUSH1 0x2 DUP2 GT ISZERO PUSH2 0xB00 JUMPI PUSH2 0xAFF PUSH2 0x1B41 JUMP JUMPDEST JUMPDEST MUL OR SWAP1 SSTORE POP POP JUMP JUMPDEST PUSH1 0xA SLOAD DUP2 JUMP JUMPDEST PUSH1 0x0 DUP1 PUSH1 0x2 DUP2 GT ISZERO PUSH2 0xB23 JUMPI PUSH2 0xB22 PUSH2 0x1B41 JUMP JUMPDEST JUMPDEST PUSH1 0x0 DUP1 SLOAD SWAP1 PUSH2 0x100 EXP SWAP1 DIV PUSH1 0xFF AND PUSH1 0x2 DUP2 GT ISZERO PUSH2 0xB43 JUMPI PUSH2 0xB42 PUSH2 0x1B41 JUMP JUMPDEST JUMPDEST EQ PUSH2 0xB83 JUMPI PUSH1 0x40 MLOAD PUSH32 0x8C379A000000000000000000000000000000000000000000000000000000000 DUP2 MSTORE PUSH1 0x4 ADD PUSH2 0xB7A SWAP1 PUSH2 0x1700 JUMP JUMPDEST PUSH1 0x40 MLOAD DUP1 SWAP2 SUB SWAP1 REVERT JUMPDEST PUSH1 0x1 PUSH1 0x0 DUP1 PUSH2 0x100 EXP DUP2 SLOAD DUP2 PUSH1 0xFF MUL NOT AND SWAP1 DUP4 PUSH1 0x2 DUP2 GT ISZERO PUSH2 0xBA8 JUMPI PUSH2 0xBA7 PUSH2 0x1B41 JUMP JUMPDEST JUMPDEST MUL OR SWAP1 SSTORE POP PUSH1 0x0 JUMPDEST PUSH1 0xC DUP1 SLOAD SWAP1 POP DUP2 LT ISZERO PUSH2 0xBE9 JUMPI PUSH1 0x0 PUSH1 0xF PUSH1 0x0 DUP4 DUP2 MSTORE PUSH1 0x20 ADD SWAP1 DUP2 MSTORE PUSH1 0x20 ADD PUSH1 0x0 KECCAK256 DUP2 SWAP1 SSTORE POP DUP1 DUP1 PUSH2 0xBE1 SWAP1 PUSH2 0x1A9A JUMP JUMPDEST SWAP2 POP POP PUSH2 0xBB0 JUMP JUMPDEST POP POP JUMP JUMPDEST PUSH1 0x7 SLOAD DUP2 JUMP JUMPDEST PUSH1 0x2 PUSH1 0x0 SWAP1 SLOAD SWAP1 PUSH2 0x100 EXP SWAP1 DIV PUSH20 0xFFFFFFFFFFFFFFFFFFFFFFFFFFFFFFFFFFFFFFFF AND DUP2 JUMP JUMPDEST PUSH1 0x0 DUP1 SLOAD SWAP1 PUSH2 0x100 EXP SWAP1 DIV PUSH1 0xFF AND DUP2 JUMP JUMPDEST PUSH1 0x2 DUP1 PUSH1 0x2 DUP2 GT ISZERO PUSH2 0xC3F JUMPI PUSH2 0xC3E PUSH2 0x1B41 JUMP JUMPDEST JUMPDEST PUSH1 0x0 DUP1 SLOAD SWAP1 PUSH2 0x100 EXP SWAP1 DIV PUSH1 0xFF AND PUSH1 0x2 DUP2 GT ISZERO PUSH2 0xC5F JUMPI PUSH2 0xC5E PUSH2 0x1B41 JUMP JUMPDEST JUMPDEST EQ PUSH2 0xC9F JUMPI PUSH1 0x40 MLOAD PUSH32 0x8C379A000000000000000000000000000000000000000000000000000000000 DUP2 MSTORE PUSH1 0x4 ADD PUSH2 0xC96 SWAP1 PUSH2 0x1700 JUMP JUMPDEST PUSH1 0x40 MLOAD DUP1 SWAP2 SUB SWAP1 REVERT JUMPDEST PUSH1 0x9 SLOAD NUMBER GT ISZERO PUSH2 0xCB6 JUMPI PUSH2 0xCB1 PUSH2 0xDBD JUMP JUMPDEST PUSH2 0xD18 JUMP JUMPDEST PUSH1 0x8 SLOAD NUMBER LT ISZERO DUP1 ISZERO PUSH2 0xCCA JUMPI POP PUSH1 0x9 SLOAD NUMBER GT ISZERO JUMPDEST PUSH2 0xD09 JUMPI PUSH1 0x40 MLOAD PUSH32 0x8C379A000000000000000000000000000000000000000000000000000000000 DUP2 MSTORE PUSH1 0x4 ADD PUSH2 0xD00 SWAP1 PUSH2 0x16E0 JUMP JUMPDEST PUSH1 0x40 MLOAD DUP1 SWAP2 SUB SWAP1 REVERT JUMPDEST PUSH1 0x7 SLOAD CALLVALUE EQ PUSH2 0xD17 JUMPI PUSH1 0x0 DUP1 REVERT JUMPDEST JUMPDEST POP JUMP JUMPDEST PUSH1 0x2 DUP1 PUSH1 0x2 DUP2 GT ISZERO PUSH2 0xD30 JUMPI PUSH2 0xD2F PUSH2 0x1B41 JUMP JUMPDEST JUMPDEST PUSH1 0x0 DUP1 SLOAD SWAP1 PUSH2 0x100 EXP SWAP1 DIV PUSH1 0xFF AND PUSH1 0x2 DUP2 GT ISZERO PUSH2 0xD50 JUMPI PUSH2 0xD4F PUSH2 0x1B41 JUMP JUMPDEST JUMPDEST EQ PUSH2 0xD90 JUMPI PUSH1 0x40 MLOAD PUSH32 0x8C379A000000000000000000000000000000000000000000000000000000000 DUP2 MSTORE PUSH1 0x4 ADD PUSH2 0xD87 SWAP1 PUSH2 0x1700 JUMP JUMPDEST PUSH1 0x40 MLOAD DUP1 SWAP2 SUB SWAP1 REVERT JUMPDEST PUSH1 0x1 PUSH1 0x0 DUP1 PUSH2 0x100 EXP DUP2 SLOAD DUP2 PUSH1 0xFF MUL NOT AND SWAP1 DUP4 PUSH1 0x2 DUP2 GT ISZERO PUSH2 0xDB5 JUMPI PUSH2 0xDB4 PUSH2 0x1B41 JUMP JUMPDEST JUMPDEST MUL OR SWAP1 SSTORE POP POP JUMP JUMPDEST PUSH1 0x2 DUP1 PUSH1 0x2 DUP2 GT ISZERO PUSH2 0xDD2 JUMPI PUSH2 0xDD1 PUSH2 0x1B41 JUMP JUMPDEST JUMPDEST PUSH1 0x0 DUP1 SLOAD SWAP1 PUSH2 0x100 EXP SWAP1 DIV PUSH1 0xFF AND PUSH1 0x2 DUP2 GT ISZERO PUSH2 0xDF2 JUMPI PUSH2 0xDF1 PUSH2 0x1B41 JUMP JUMPDEST JUMPDEST EQ PUSH2 0xE32 JUMPI PUSH1 0x40 MLOAD PUSH32 0x8C379A000000000000000000000000000000000000000000000000000000000 DUP2 MSTORE PUSH1 0x4 ADD PUSH2 0xE29 SWAP1 PUSH2 0x1700 JUMP JUMPDEST PUSH1 0x40 MLOAD DUP1 SWAP2 SUB SWAP1 REVERT JUMPDEST PUSH1 0x0 JUMPDEST PUSH1 0xC DUP1 SLOAD SWAP1 POP DUP2 LT ISZERO PUSH2 0xF4E JUMPI PUSH1 0x0 PUSH1 0xC DUP3 DUP2 SLOAD DUP2 LT PUSH2 0xE58 JUMPI PUSH2 0xE57 PUSH2 0x1B9F JUMP JUMPDEST JUMPDEST SWAP1 PUSH1 0x0 MSTORE PUSH1 0x20 PUSH1 0x0 KECCAK256 SWAP1 PUSH1 0x3 MUL ADD PUSH1 0x1 ADD SLOAD SWAP1 POP PUSH1 0x0 PUSH1 0xC DUP4 DUP2 SLOAD DUP2 LT PUSH2 0xE82 JUMPI PUSH2 0xE81 PUSH2 0x1B9F JUMP JUMPDEST JUMPDEST SWAP1 PUSH1 0x0 MSTORE PUSH1 0x20 PUSH1 0x0 KECCAK256 SWAP1 PUSH1 0x3 MUL ADD PUSH1 0x2 ADD SLOAD SWAP1 POP PUSH1 0x0 PUSH1 0x10 SLOAD PUSH1 0xF PUSH1 0x0 DUP7 DUP2 MSTORE PUSH1 0x20 ADD SWAP1 DUP2 MSTORE PUSH1 0x20 ADD PUSH1 0x0 KECCAK256 SLOAD PUSH2 0xEB9 SWAP2 SWAP1 PUSH2 0x18B9 JUMP JUMPDEST SWAP1 POP PUSH2 0xEC6 DUP4 DUP3 DUP5 PUSH2 0xFD3 JUMP JUMPDEST PUSH2 0xF38 JUMPI PUSH2 0xED2 PUSH2 0x105D JUMP JUMPDEST CALLER PUSH20 0xFFFFFFFFFFFFFFFFFFFFFFFFFFFFFFFFFFFFFFFF AND PUSH32 0xF47C8C25E090E0F314FA7DE6E99A2E6FA82BAC7EFCEB07293A788D48402B3A43 PUSH1 0xB PUSH1 0x0 SWAP1 SLOAD SWAP1 PUSH2 0x100 EXP SWAP1 DIV PUSH1 0xFF AND PUSH1 0x40 MLOAD PUSH2 0xF27 SWAP2 SWAP1 PUSH2 0x164A JUMP JUMPDEST PUSH1 0x40 MLOAD DUP1 SWAP2 SUB SWAP1 LOG2 POP POP POP POP PUSH2 0xFD0 JUMP JUMPDEST POP POP POP DUP1 DUP1 PUSH2 0xF46 SWAP1 PUSH2 0x1A9A JUMP JUMPDEST SWAP2 POP POP PUSH2 0xE35 JUMP JUMPDEST POP PUSH1 0x1 PUSH1 0xB PUSH1 0x0 PUSH2 0x100 EXP DUP2 SLOAD DUP2 PUSH1 0xFF MUL NOT AND SWAP1 DUP4 ISZERO ISZERO MUL OR SWAP1 SSTORE POP CALLER PUSH20 0xFFFFFFFFFFFFFFFFFFFFFFFFFFFFFFFFFFFFFFFF AND PUSH32 0xF47C8C25E090E0F314FA7DE6E99A2E6FA82BAC7EFCEB07293A788D48402B3A43 PUSH1 0xB PUSH1 0x0 SWAP1 SLOAD SWAP1 PUSH2 0x100 EXP SWAP1 DIV PUSH1 0xFF AND PUSH1 0x40 MLOAD PUSH2 0xFBF SWAP2 SWAP1 PUSH2 0x164A JUMP JUMPDEST PUSH1 0x40 MLOAD DUP1 SWAP2 SUB SWAP1 LOG2 PUSH2 0xFCF PUSH2 0x10CA JUMP JUMPDEST JUMPDEST POP JUMP JUMPDEST PUSH1 0x0 PUSH32 0xFFFFFFFFFFFFFFFFFFFFFFFFFFFFFFFFFFFFFFFFFFFFFFFFFFFFFFFFFFFFFFFF DUP5 EQ PUSH2 0x1051 JUMPI PUSH1 0x1 DUP1 DUP6 AND EQ ISZERO PUSH2 0x1018 JUMPI DUP2 DUP4 SGT PUSH2 0x1017 JUMPI PUSH1 0x0 SWAP1 POP PUSH2 0x1056 JUMP JUMPDEST JUMPDEST PUSH1 0x2 DUP1 DUP6 AND EQ ISZERO PUSH2 0x1034 JUMPI DUP2 DUP4 EQ PUSH2 0x1033 JUMPI PUSH1 0x0 SWAP1 POP PUSH2 0x1056 JUMP JUMPDEST JUMPDEST PUSH1 0x4 DUP1 DUP6 AND EQ ISZERO PUSH2 0x1050 JUMPI DUP2 DUP4 SLT PUSH2 0x104F JUMPI PUSH1 0x0 SWAP1 POP PUSH2 0x1056 JUMP JUMPDEST JUMPDEST JUMPDEST PUSH1 0x1 SWAP1 POP JUMPDEST SWAP4 SWAP3 POP POP POP JUMP JUMPDEST PUSH1 0x1 PUSH1 0x0 SWAP1 SLOAD SWAP1 PUSH2 0x100 EXP SWAP1 DIV PUSH20 0xFFFFFFFFFFFFFFFFFFFFFFFFFFFFFFFFFFFFFFFF AND PUSH20 0xFFFFFFFFFFFFFFFFFFFFFFFFFFFFFFFFFFFFFFFF AND PUSH2 0x8FC PUSH1 0x7 SLOAD SWAP1 DUP2 ISZERO MUL SWAP1 PUSH1 0x40 MLOAD PUSH1 0x0 PUSH1 0x40 MLOAD DUP1 DUP4 SUB DUP2 DUP6 DUP9 DUP9 CALL SWAP4 POP POP POP POP ISZERO DUP1 ISZERO PUSH2 0x10C7 JUMPI RETURNDATASIZE PUSH1 0x0 DUP1 RETURNDATACOPY RETURNDATASIZE PUSH1 0x0 REVERT JUMPDEST POP JUMP JUMPDEST PUSH1 0x2 PUSH1 0x0 SWAP1 SLOAD SWAP1 PUSH2 0x100 EXP SWAP1 DIV PUSH20 0xFFFFFFFFFFFFFFFFFFFFFFFFFFFFFFFFFFFFFFFF AND PUSH20 0xFFFFFFFFFFFFFFFFFFFFFFFFFFFFFFFFFFFFFFFF AND PUSH2 0x8FC PUSH1 0x7 SLOAD SWAP1 DUP2 ISZERO MUL SWAP1 PUSH1 0x40 MLOAD PUSH1 0x0 PUSH1 0x40 MLOAD DUP1 DUP4 SUB DUP2 DUP6 DUP9 DUP9 CALL SWAP4 POP POP POP POP ISZERO DUP1 ISZERO PUSH2 0x1134 JUMPI RETURNDATASIZE PUSH1 0x0 DUP1 RETURNDATACOPY RETURNDATASIZE PUSH1 0x0 REVERT JUMPDEST POP JUMP JUMPDEST DUP3 DUP1 SLOAD PUSH2 0x1143 SWAP1 PUSH2 0x19EE JUMP JUMPDEST SWAP1 PUSH1 0x0 MSTORE PUSH1 0x20 PUSH1 0x0 KECCAK256 SWAP1 PUSH1 0x1F ADD PUSH1 0x20 SWAP1 DIV DUP2 ADD SWAP3 DUP3 PUSH2 0x1165 JUMPI PUSH1 0x0 DUP6 SSTORE PUSH2 0x11AC JUMP JUMPDEST DUP3 PUSH1 0x1F LT PUSH2 0x117E JUMPI DUP1 MLOAD PUSH1 0xFF NOT AND DUP4 DUP1 ADD OR DUP6 SSTORE PUSH2 0x11AC JUMP JUMPDEST DUP3 DUP1 ADD PUSH1 0x1 ADD DUP6 SSTORE DUP3 ISZERO PUSH2 0x11AC JUMPI SWAP2 DUP3 ADD JUMPDEST DUP3 DUP2 GT ISZERO PUSH2 0x11AB JUMPI DUP3 MLOAD DUP3 SSTORE SWAP2 PUSH1 0x20 ADD SWAP2 SWAP1 PUSH1 0x1 ADD SWAP1 PUSH2 0x1190 JUMP JUMPDEST JUMPDEST POP SWAP1 POP PUSH2 0x11B9 SWAP2 SWAP1 PUSH2 0x11BD JUMP JUMPDEST POP SWAP1 JUMP JUMPDEST JUMPDEST DUP1 DUP3 GT ISZERO PUSH2 0x11D6 JUMPI PUSH1 0x0 DUP2 PUSH1 0x0 SWAP1 SSTORE POP PUSH1 0x1 ADD PUSH2 0x11BE JUMP JUMPDEST POP SWAP1 JUMP JUMPDEST PUSH1 0x0 PUSH2 0x11ED PUSH2 0x11E8 DUP5 PUSH2 0x1760 JUMP JUMPDEST PUSH2 0x173B JUMP JUMPDEST SWAP1 POP DUP1 DUP3 DUP6 PUSH1 0x20 DUP7 MUL DUP3 ADD GT ISZERO PUSH2 0x1207 JUMPI PUSH2 0x1206 PUSH2 0x1C02 JUMP JUMPDEST JUMPDEST PUSH1 0x0 JUMPDEST DUP6 DUP2 LT ISZERO PUSH2 0x1237 JUMPI DUP2 PUSH2 0x121D DUP9 DUP3 PUSH2 0x13FC JUMP JUMPDEST DUP5 MSTORE PUSH1 0x20 DUP5 ADD SWAP4 POP PUSH1 0x20 DUP4 ADD SWAP3 POP POP PUSH1 0x1 DUP2 ADD SWAP1 POP PUSH2 0x120A JUMP JUMPDEST POP POP POP SWAP4 SWAP3 POP POP POP JUMP JUMPDEST PUSH1 0x0 PUSH2 0x1254 PUSH2 0x124F DUP5 PUSH2 0x1786 JUMP JUMPDEST PUSH2 0x173B JUMP JUMPDEST SWAP1 POP DUP1 DUP4 DUP3 MSTORE PUSH1 0x20 DUP3 ADD SWAP1 POP DUP3 DUP6 PUSH1 0x20 DUP7 MUL DUP3 ADD GT ISZERO PUSH2 0x1277 JUMPI PUSH2 0x1276 PUSH2 0x1C02 JUMP JUMPDEST JUMPDEST PUSH1 0x0 JUMPDEST DUP6 DUP2 LT ISZERO PUSH2 0x12A7 JUMPI DUP2 PUSH2 0x128D DUP9 DUP3 PUSH2 0x13FC JUMP JUMPDEST DUP5 MSTORE PUSH1 0x20 DUP5 ADD SWAP4 POP PUSH1 0x20 DUP4 ADD SWAP3 POP POP PUSH1 0x1 DUP2 ADD SWAP1 POP PUSH2 0x127A JUMP JUMPDEST POP POP POP SWAP4 SWAP3 POP POP POP JUMP JUMPDEST PUSH1 0x0 PUSH2 0x12C4 PUSH2 0x12BF DUP5 PUSH2 0x17B2 JUMP JUMPDEST PUSH2 0x173B JUMP JUMPDEST SWAP1 POP DUP1 DUP3 DUP6 PUSH1 0x20 DUP7 MUL DUP3 ADD GT ISZERO PUSH2 0x12DE JUMPI PUSH2 0x12DD PUSH2 0x1C02 JUMP JUMPDEST JUMPDEST PUSH1 0x0 JUMPDEST DUP6 DUP2 LT ISZERO PUSH2 0x132C JUMPI DUP2 CALLDATALOAD PUSH8 0xFFFFFFFFFFFFFFFF DUP2 GT ISZERO PUSH2 0x1304 JUMPI PUSH2 0x1303 PUSH2 0x1BFD JUMP JUMPDEST JUMPDEST DUP1 DUP7 ADD PUSH2 0x1311 DUP10 DUP3 PUSH2 0x1411 JUMP JUMPDEST DUP6 MSTORE PUSH1 0x20 DUP6 ADD SWAP5 POP PUSH1 0x20 DUP5 ADD SWAP4 POP POP POP PUSH1 0x1 DUP2 ADD SWAP1 POP PUSH2 0x12E1 JUMP JUMPDEST POP POP POP SWAP4 SWAP3 POP POP POP JUMP JUMPDEST PUSH1 0x0 PUSH2 0x1349 PUSH2 0x1344 DUP5 PUSH2 0x17D8 JUMP JUMPDEST PUSH2 0x173B JUMP JUMPDEST SWAP1 POP DUP3 DUP2 MSTORE PUSH1 0x20 DUP2 ADD DUP5 DUP5 DUP5 ADD GT ISZERO PUSH2 0x1365 JUMPI PUSH2 0x1364 PUSH2 0x1C07 JUMP JUMPDEST JUMPDEST PUSH2 0x1370 DUP5 DUP3 DUP6 PUSH2 0x19AC JUMP JUMPDEST POP SWAP4 SWAP3 POP POP POP JUMP JUMPDEST PUSH1 0x0 DUP3 PUSH1 0x1F DUP4 ADD SLT PUSH2 0x138D JUMPI PUSH2 0x138C PUSH2 0x1BFD JUMP JUMPDEST JUMPDEST PUSH1 0x8 PUSH2 0x139A DUP5 DUP3 DUP6 PUSH2 0x11DA JUMP JUMPDEST SWAP2 POP POP SWAP3 SWAP2 POP POP JUMP JUMPDEST PUSH1 0x0 DUP3 PUSH1 0x1F DUP4 ADD SLT PUSH2 0x13B8 JUMPI PUSH2 0x13B7 PUSH2 0x1BFD JUMP JUMPDEST JUMPDEST DUP2 CALLDATALOAD PUSH2 0x13C8 DUP5 DUP3 PUSH1 0x20 DUP7 ADD PUSH2 0x1241 JUMP JUMPDEST SWAP2 POP POP SWAP3 SWAP2 POP POP JUMP JUMPDEST PUSH1 0x0 DUP3 PUSH1 0x1F DUP4 ADD SLT PUSH2 0x13E6 JUMPI PUSH2 0x13E5 PUSH2 0x1BFD JUMP JUMPDEST JUMPDEST PUSH1 0x8 PUSH2 0x13F3 DUP5 DUP3 DUP6 PUSH2 0x12B1 JUMP JUMPDEST SWAP2 POP POP SWAP3 SWAP2 POP POP JUMP JUMPDEST PUSH1 0x0 DUP2 CALLDATALOAD SWAP1 POP PUSH2 0x140B DUP2 PUSH2 0x1CB3 JUMP JUMPDEST SWAP3 SWAP2 POP POP JUMP JUMPDEST PUSH1 0x0 DUP3 PUSH1 0x1F DUP4 ADD SLT PUSH2 0x1426 JUMPI PUSH2 0x1425 PUSH2 0x1BFD JUMP JUMPDEST JUMPDEST DUP2 CALLDATALOAD PUSH2 0x1436 DUP5 DUP3 PUSH1 0x20 DUP7 ADD PUSH2 0x1336 JUMP JUMPDEST SWAP2 POP POP SWAP3 SWAP2 POP POP JUMP JUMPDEST PUSH1 0x0 DUP2 CALLDATALOAD SWAP1 POP PUSH2 0x144E DUP2 PUSH2 0x1CCA JUMP JUMPDEST SWAP3 SWAP2 POP POP JUMP JUMPDEST PUSH1 0x0 PUSH1 0x20 DUP3 DUP5 SUB SLT ISZERO PUSH2 0x146A JUMPI PUSH2 0x1469 PUSH2 0x1C11 JUMP JUMPDEST JUMPDEST PUSH1 0x0 DUP3 ADD CALLDATALOAD PUSH8 0xFFFFFFFFFFFFFFFF DUP2 GT ISZERO PUSH2 0x1488 JUMPI PUSH2 0x1487 PUSH2 0x1C0C JUMP JUMPDEST JUMPDEST PUSH2 0x1494 DUP5 DUP3 DUP6 ADD PUSH2 0x13A3 JUMP JUMPDEST SWAP2 POP POP SWAP3 SWAP2 POP POP JUMP JUMPDEST PUSH1 0x0 DUP1 PUSH1 0x0 PUSH2 0x220 DUP5 DUP7 SUB SLT ISZERO PUSH2 0x14B7 JUMPI PUSH2 0x14B6 PUSH2 0x1C11 JUMP JUMPDEST JUMPDEST PUSH1 0x0 DUP5 ADD CALLDATALOAD PUSH8 0xFFFFFFFFFFFFFFFF DUP2 GT ISZERO PUSH2 0x14D5 JUMPI PUSH2 0x14D4 PUSH2 0x1C0C JUMP JUMPDEST JUMPDEST PUSH2 0x14E1 DUP7 DUP3 DUP8 ADD PUSH2 0x13D1 JUMP JUMPDEST SWAP4 POP POP PUSH1 0x20 PUSH2 0x14F2 DUP7 DUP3 DUP8 ADD PUSH2 0x1378 JUMP JUMPDEST SWAP3 POP POP PUSH2 0x120 PUSH2 0x1504 DUP7 DUP3 DUP8 ADD PUSH2 0x1378 JUMP JUMPDEST SWAP2 POP POP SWAP3 POP SWAP3 POP SWAP3 JUMP JUMPDEST PUSH1 0x0 PUSH1 0x20 DUP3 DUP5 SUB SLT ISZERO PUSH2 0x1524 JUMPI PUSH2 0x1523 PUSH2 0x1C11 JUMP JUMPDEST JUMPDEST PUSH1 0x0 PUSH2 0x1532 DUP5 DUP3 DUP6 ADD PUSH2 0x143F JUMP JUMPDEST SWAP2 POP POP SWAP3 SWAP2 POP POP JUMP JUMPDEST PUSH2 0x1544 DUP2 PUSH2 0x1935 JUMP JUMPDEST DUP3 MSTORE POP POP JUMP JUMPDEST PUSH2 0x1553 DUP2 PUSH2 0x1923 JUMP JUMPDEST DUP3 MSTORE POP POP JUMP JUMPDEST PUSH2 0x1562 DUP2 PUSH2 0x1947 JUMP JUMPDEST DUP3 MSTORE POP POP JUMP JUMPDEST PUSH2 0x1571 DUP2 PUSH2 0x199A JUMP JUMPDEST DUP3 MSTORE POP POP JUMP JUMPDEST PUSH2 0x1580 DUP2 PUSH2 0x1966 JUMP JUMPDEST DUP3 MSTORE POP POP JUMP JUMPDEST PUSH1 0x0 PUSH2 0x1591 DUP3 PUSH2 0x1809 JUMP JUMPDEST PUSH2 0x159B DUP2 DUP6 PUSH2 0x1814 JUMP JUMPDEST SWAP4 POP PUSH2 0x15AB DUP2 DUP6 PUSH1 0x20 DUP7 ADD PUSH2 0x19BB JUMP JUMPDEST PUSH2 0x15B4 DUP2 PUSH2 0x1C16 JUMP JUMPDEST DUP5 ADD SWAP2 POP POP SWAP3 SWAP2 POP POP JUMP JUMPDEST PUSH1 0x0 PUSH2 0x15CC PUSH1 0x1D DUP4 PUSH2 0x1814 JUMP JUMPDEST SWAP2 POP PUSH2 0x15D7 DUP3 PUSH2 0x1C27 JUMP JUMPDEST PUSH1 0x20 DUP3 ADD SWAP1 POP SWAP2 SWAP1 POP JUMP JUMPDEST PUSH1 0x0 PUSH2 0x15EF PUSH1 0x25 DUP4 PUSH2 0x1814 JUMP JUMPDEST SWAP2 POP PUSH2 0x15FA DUP3 PUSH2 0x1C50 JUMP JUMPDEST PUSH1 0x40 DUP3 ADD SWAP1 POP SWAP2 SWAP1 POP JUMP JUMPDEST PUSH2 0x160E DUP2 PUSH2 0x1990 JUMP JUMPDEST DUP3 MSTORE POP POP JUMP JUMPDEST PUSH1 0x0 PUSH1 0x20 DUP3 ADD SWAP1 POP PUSH2 0x1629 PUSH1 0x0 DUP4 ADD DUP5 PUSH2 0x154A JUMP JUMPDEST SWAP3 SWAP2 POP POP JUMP JUMPDEST PUSH1 0x0 PUSH1 0x20 DUP3 ADD SWAP1 POP PUSH2 0x1644 PUSH1 0x0 DUP4 ADD DUP5 PUSH2 0x153B JUMP JUMPDEST SWAP3 SWAP2 POP POP JUMP JUMPDEST PUSH1 0x0 PUSH1 0x20 DUP3 ADD SWAP1 POP PUSH2 0x165F PUSH1 0x0 DUP4 ADD DUP5 PUSH2 0x1559 JUMP JUMPDEST SWAP3 SWAP2 POP POP JUMP JUMPDEST PUSH1 0x0 PUSH1 0x20 DUP3 ADD SWAP1 POP PUSH2 0x167A PUSH1 0x0 DUP4 ADD DUP5 PUSH2 0x1568 JUMP JUMPDEST SWAP3 SWAP2 POP POP JUMP JUMPDEST PUSH1 0x0 PUSH1 0x20 DUP3 ADD SWAP1 POP DUP2 DUP2 SUB PUSH1 0x0 DUP4 ADD MSTORE PUSH2 0x169A DUP2 DUP5 PUSH2 0x1586 JUMP JUMPDEST SWAP1 POP SWAP3 SWAP2 POP POP JUMP JUMPDEST PUSH1 0x0 PUSH1 0x60 DUP3 ADD SWAP1 POP DUP2 DUP2 SUB PUSH1 0x0 DUP4 ADD MSTORE PUSH2 0x16BC DUP2 DUP7 PUSH2 0x1586 JUMP JUMPDEST SWAP1 POP PUSH2 0x16CB PUSH1 0x20 DUP4 ADD DUP6 PUSH2 0x1577 JUMP JUMPDEST PUSH2 0x16D8 PUSH1 0x40 DUP4 ADD DUP5 PUSH2 0x1577 JUMP JUMPDEST SWAP5 SWAP4 POP POP POP POP JUMP JUMPDEST PUSH1 0x0 PUSH1 0x20 DUP3 ADD SWAP1 POP DUP2 DUP2 SUB PUSH1 0x0 DUP4 ADD MSTORE PUSH2 0x16F9 DUP2 PUSH2 0x15BF JUMP JUMPDEST SWAP1 POP SWAP2 SWAP1 POP JUMP JUMPDEST PUSH1 0x0 PUSH1 0x20 DUP3 ADD SWAP1 POP DUP2 DUP2 SUB PUSH1 0x0 DUP4 ADD MSTORE PUSH2 0x1719 DUP2 PUSH2 0x15E2 JUMP JUMPDEST SWAP1 POP SWAP2 SWAP1 POP JUMP JUMPDEST PUSH1 0x0 PUSH1 0x20 DUP3 ADD SWAP1 POP PUSH2 0x1735 PUSH1 0x0 DUP4 ADD DUP5 PUSH2 0x1605 JUMP JUMPDEST SWAP3 SWAP2 POP POP JUMP JUMPDEST PUSH1 0x0 PUSH2 0x1745 PUSH2 0x1756 JUMP JUMPDEST SWAP1 POP PUSH2 0x1751 DUP3 DUP3 PUSH2 0x1A20 JUMP JUMPDEST SWAP2 SWAP1 POP JUMP JUMPDEST PUSH1 0x0 PUSH1 0x40 MLOAD SWAP1 POP SWAP1 JUMP JUMPDEST PUSH1 0x0 PUSH8 0xFFFFFFFFFFFFFFFF DUP3 GT ISZERO PUSH2 0x177B JUMPI PUSH2 0x177A PUSH2 0x1BCE JUMP JUMPDEST JUMPDEST PUSH1 0x20 DUP3 MUL SWAP1 POP SWAP2 SWAP1 POP JUMP JUMPDEST PUSH1 0x0 PUSH8 0xFFFFFFFFFFFFFFFF DUP3 GT ISZERO PUSH2 0x17A1 JUMPI PUSH2 0x17A0 PUSH2 0x1BCE JUMP JUMPDEST JUMPDEST PUSH1 0x20 DUP3 MUL SWAP1 POP PUSH1 0x20 DUP2 ADD SWAP1 POP SWAP2 SWAP1 POP JUMP JUMPDEST PUSH1 0x0 PUSH8 0xFFFFFFFFFFFFFFFF DUP3 GT ISZERO PUSH2 0x17CD JUMPI PUSH2 0x17CC PUSH2 0x1BCE JUMP JUMPDEST JUMPDEST PUSH1 0x20 DUP3 MUL SWAP1 POP SWAP2 SWAP1 POP JUMP JUMPDEST PUSH1 0x0 PUSH8 0xFFFFFFFFFFFFFFFF DUP3 GT ISZERO PUSH2 0x17F3 JUMPI PUSH2 0x17F2 PUSH2 0x1BCE JUMP JUMPDEST JUMPDEST PUSH2 0x17FC DUP3 PUSH2 0x1C16 JUMP JUMPDEST SWAP1 POP PUSH1 0x20 DUP2 ADD SWAP1 POP SWAP2 SWAP1 POP JUMP JUMPDEST PUSH1 0x0 DUP2 MLOAD SWAP1 POP SWAP2 SWAP1 POP JUMP JUMPDEST PUSH1 0x0 DUP3 DUP3 MSTORE PUSH1 0x20 DUP3 ADD SWAP1 POP SWAP3 SWAP2 POP POP JUMP JUMPDEST PUSH1 0x0 PUSH2 0x1830 DUP3 PUSH2 0x1966 JUMP JUMPDEST SWAP2 POP PUSH2 0x183B DUP4 PUSH2 0x1966 JUMP JUMPDEST SWAP3 POP DUP2 PUSH32 0x7FFFFFFFFFFFFFFFFFFFFFFFFFFFFFFFFFFFFFFFFFFFFFFFFFFFFFFFFFFFFFFF SUB DUP4 SGT PUSH1 0x0 DUP4 SLT ISZERO AND ISZERO PUSH2 0x1876 JUMPI PUSH2 0x1875 PUSH2 0x1AE3 JUMP JUMPDEST JUMPDEST DUP2 PUSH32 0x8000000000000000000000000000000000000000000000000000000000000000 SUB DUP4 SLT PUSH1 0x0 DUP4 SLT AND ISZERO PUSH2 0x18AE JUMPI PUSH2 0x18AD PUSH2 0x1AE3 JUMP JUMPDEST JUMPDEST DUP3 DUP3 ADD SWAP1 POP SWAP3 SWAP2 POP POP JUMP JUMPDEST PUSH1 0x0 PUSH2 0x18C4 DUP3 PUSH2 0x1966 JUMP JUMPDEST SWAP2 POP PUSH2 0x18CF DUP4 PUSH2 0x1966 JUMP JUMPDEST SWAP3 POP DUP3 PUSH2 0x18DF JUMPI PUSH2 0x18DE PUSH2 0x1B12 JUMP JUMPDEST JUMPDEST PUSH1 0x1 PUSH1 0x0 SUB DUP4 EQ PUSH32 0x8000000000000000000000000000000000000000000000000000000000000000 DUP4 EQ AND ISZERO PUSH2 0x1918 JUMPI PUSH2 0x1917 PUSH2 0x1AE3 JUMP JUMPDEST JUMPDEST DUP3 DUP3 SDIV SWAP1 POP SWAP3 SWAP2 POP POP JUMP JUMPDEST PUSH1 0x0 PUSH2 0x192E DUP3 PUSH2 0x1970 JUMP JUMPDEST SWAP1 POP SWAP2 SWAP1 POP JUMP JUMPDEST PUSH1 0x0 PUSH2 0x1940 DUP3 PUSH2 0x1970 JUMP JUMPDEST SWAP1 POP SWAP2 SWAP1 POP JUMP JUMPDEST PUSH1 0x0 DUP2 ISZERO ISZERO SWAP1 POP SWAP2 SWAP1 POP JUMP JUMPDEST PUSH1 0x0 DUP2 SWAP1 POP PUSH2 0x1961 DUP3 PUSH2 0x1C9F JUMP JUMPDEST SWAP2 SWAP1 POP JUMP JUMPDEST PUSH1 0x0 DUP2 SWAP1 POP SWAP2 SWAP1 POP JUMP JUMPDEST PUSH1 0x0 PUSH20 0xFFFFFFFFFFFFFFFFFFFFFFFFFFFFFFFFFFFFFFFF DUP3 AND SWAP1 POP SWAP2 SWAP1 POP JUMP JUMPDEST PUSH1 0x0 DUP2 SWAP1 POP SWAP2 SWAP1 POP JUMP JUMPDEST PUSH1 0x0 PUSH2 0x19A5 DUP3 PUSH2 0x1953 JUMP JUMPDEST SWAP1 POP SWAP2 SWAP1 POP JUMP JUMPDEST DUP3 DUP2 DUP4 CALLDATACOPY PUSH1 0x0 DUP4 DUP4 ADD MSTORE POP POP POP JUMP JUMPDEST PUSH1 0x0 JUMPDEST DUP4 DUP2 LT ISZERO PUSH2 0x19D9 JUMPI DUP1 DUP3 ADD MLOAD DUP2 DUP5 ADD MSTORE PUSH1 0x20 DUP2 ADD SWAP1 POP PUSH2 0x19BE JUMP JUMPDEST DUP4 DUP2 GT ISZERO PUSH2 0x19E8 JUMPI PUSH1 0x0 DUP5 DUP5 ADD MSTORE JUMPDEST POP POP POP POP JUMP JUMPDEST PUSH1 0x0 PUSH1 0x2 DUP3 DIV SWAP1 POP PUSH1 0x1 DUP3 AND DUP1 PUSH2 0x1A06 JUMPI PUSH1 0x7F DUP3 AND SWAP2 POP JUMPDEST PUSH1 0x20 DUP3 LT DUP2 EQ ISZERO PUSH2 0x1A1A JUMPI PUSH2 0x1A19 PUSH2 0x1B70 JUMP JUMPDEST JUMPDEST POP SWAP2 SWAP1 POP JUMP JUMPDEST PUSH2 0x1A29 DUP3 PUSH2 0x1C16 JUMP JUMPDEST DUP2 ADD DUP2 DUP2 LT PUSH8 0xFFFFFFFFFFFFFFFF DUP3 GT OR ISZERO PUSH2 0x1A48 JUMPI PUSH2 0x1A47 PUSH2 0x1BCE JUMP JUMPDEST JUMPDEST DUP1 PUSH1 0x40 MSTORE POP POP POP JUMP JUMPDEST PUSH1 0x0 PUSH2 0x1A5C DUP3 PUSH2 0x1966 JUMP JUMPDEST SWAP2 POP PUSH32 0x7FFFFFFFFFFFFFFFFFFFFFFFFFFFFFFFFFFFFFFFFFFFFFFFFFFFFFFFFFFFFFFF DUP3 EQ ISZERO PUSH2 0x1A8F JUMPI PUSH2 0x1A8E PUSH2 0x1AE3 JUMP JUMPDEST JUMPDEST PUSH1 0x1 DUP3 ADD SWAP1 POP SWAP2 SWAP1 POP JUMP JUMPDEST PUSH1 0x0 PUSH2 0x1AA5 DUP3 PUSH2 0x1990 JUMP JUMPDEST SWAP2 POP PUSH32 0xFFFFFFFFFFFFFFFFFFFFFFFFFFFFFFFFFFFFFFFFFFFFFFFFFFFFFFFFFFFFFFFF DUP3 EQ ISZERO PUSH2 0x1AD8 JUMPI PUSH2 0x1AD7 PUSH2 0x1AE3 JUMP JUMPDEST JUMPDEST PUSH1 0x1 DUP3 ADD SWAP1 POP SWAP2 SWAP1 POP JUMP JUMPDEST PUSH32 0x4E487B7100000000000000000000000000000000000000000000000000000000 PUSH1 0x0 MSTORE PUSH1 0x11 PUSH1 0x4 MSTORE PUSH1 0x24 PUSH1 0x0 REVERT JUMPDEST PUSH32 0x4E487B7100000000000000000000000000000000000000000000000000000000 PUSH1 0x0 MSTORE PUSH1 0x12 PUSH1 0x4 MSTORE PUSH1 0x24 PUSH1 0x0 REVERT JUMPDEST PUSH32 0x4E487B7100000000000000000000000000000000000000000000000000000000 PUSH1 0x0 MSTORE PUSH1 0x21 PUSH1 0x4 MSTORE PUSH1 0x24 PUSH1 0x0 REVERT JUMPDEST PUSH32 0x4E487B7100000000000000000000000000000000000000000000000000000000 PUSH1 0x0 MSTORE PUSH1 0x22 PUSH1 0x4 MSTORE PUSH1 0x24 PUSH1 0x0 REVERT JUMPDEST PUSH32 0x4E487B7100000000000000000000000000000000000000000000000000000000 PUSH1 0x0 MSTORE PUSH1 0x32 PUSH1 0x4 MSTORE PUSH1 0x24 PUSH1 0x0 REVERT JUMPDEST PUSH32 0x4E487B7100000000000000000000000000000000000000000000000000000000 PUSH1 0x0 MSTORE PUSH1 0x41 PUSH1 0x4 MSTORE PUSH1 0x24 PUSH1 0x0 REVERT JUMPDEST PUSH1 0x0 DUP1 REVERT JUMPDEST PUSH1 0x0 DUP1 REVERT JUMPDEST PUSH1 0x0 DUP1 REVERT JUMPDEST PUSH1 0x0 DUP1 REVERT JUMPDEST PUSH1 0x0 DUP1 REVERT JUMPDEST PUSH1 0x0 PUSH1 0x1F NOT PUSH1 0x1F DUP4 ADD AND SWAP1 POP SWAP2 SWAP1 POP JUMP JUMPDEST PUSH32 0x4E6F742077697468696E207468652062696C6C696E6720706572696F64000000 PUSH1 0x0 DUP3 ADD MSTORE POP JUMP JUMPDEST PUSH32 0x436F6E7472616374206973206E6F7420696E2074686520726571756972656420 PUSH1 0x0 DUP3 ADD MSTORE PUSH32 0x7374617465000000000000000000000000000000000000000000000000000000 PUSH1 0x20 DUP3 ADD MSTORE POP JUMP JUMPDEST PUSH1 0x3 DUP2 LT PUSH2 0x1CB0 JUMPI PUSH2 0x1CAF PUSH2 0x1B41 JUMP JUMPDEST JUMPDEST POP JUMP JUMPDEST PUSH2 0x1CBC DUP2 PUSH2 0x1966 JUMP JUMPDEST DUP2 EQ PUSH2 0x1CC7 JUMPI PUSH1 0x0 DUP1 REVERT JUMPDEST POP JUMP JUMPDEST PUSH2 0x1CD3 DUP2 PUSH2 0x1990 JUMP JUMPDEST DUP2 EQ PUSH2 0x1CDE JUMPI PUSH1 0x0 DUP1 REVERT JUMPDEST POP JUMP INVALID LOG2 PUSH5 0x6970667358 0x22 SLT KECCAK256 0xF7 0x4B POP 0xEE 0xE9 SWAP8 0xE5 SSTORE 0x5E 0xFB PUSH8 0xFCCE0AA536A3F58F SWAP16 PUSH21 0xB9C7FDE97F925AD81A96B764736F6C634300080600 CALLER LOG2 PUSH5 0x6970667358 0x22 SLT KECCAK256 0xF9 0xC1 0xBE DUP1 PUSH5 0xDD49296235 0x4A EQ PUSH16 0xB1494A43397CFA57F74DAF8AB51305F9 SWAP11 PUSH21 0x7F64736F6C63430008060033000000000000000000 "
    },
    "gasEstimates": {
      "creation": {
        "codeDepositCost": "2098000",
        "executionCost": "26495",
        "totalCost": "2124495"
      },
      "external": {
        "createContract(address,address,address,uint256,uint256,uint256,uint256,uint256,uint256,int256)": "infinite",
        "manager()": "2514",
        "vendors(uint256)": "5021"
      }
    },
    "methodIdentifiers": {
      "createContract(address,address,address,uint256,uint256,uint256,uint256,uint256,uint256,int256)": "286df805",
      "manager()": "481c6a75",
      "vendors(uint256)": "a08d986d"
    }
  },
  "storageLayout": {
    "storage": [
      {
        "astId": 577,
        "contract": "VendorFactory.sol:VendorFactory",
        "label": "vendors",
        "offset": 0,
        "slot": "0",
        "type": "t_array(t_contract(Vendor)569)dyn_storage"
      },
      {
        "astId": 581,
        "contract": "VendorFactory.sol:VendorFactory",
        "label": "index",
        "offset": 0,
        "slot": "1",
        "type": "t_mapping(t_address,t_uint256)"
      },
      {
        "astId": 583,
        "contract": "VendorFactory.sol:VendorFactory",
        "label": "manager",
        "offset": 0,
        "slot": "2",
        "type": "t_address"
      }
    ],
    "types": {
      "t_address": {
        "encoding": "inplace",
        "label": "address",
        "numberOfBytes": "20"
      },
      "t_array(t_contract(Vendor)569)dyn_storage": {
        "base": "t_contract(Vendor)569",
        "encoding": "dynamic_array",
        "label": "contract Vendor[]",
        "numberOfBytes": "32"
      },
      "t_contract(Vendor)569": {
        "encoding": "inplace",
        "label": "contract Vendor",
        "numberOfBytes": "20"
      },
      "t_mapping(t_address,t_uint256)": {
        "encoding": "mapping",
        "key": "t_address",
        "label": "mapping(address => uint256)",
        "numberOfBytes": "32",
        "value": "t_uint256"
      },
      "t_uint256": {
        "encoding": "inplace",
        "label": "uint256",
        "numberOfBytes": "32"
      }
    }
  },
  "userdoc": {
    "kind": "user",
    "methods": {},
    "version": 1
  }
}