{
  "abi": [
    {
      "inputs": [
        {
          "internalType": "address",
          "name": "_implementation",
          "type": "address"
        }
      ],
      "stateMutability": "nonpayable",
      "type": "constructor"
    },
    {
      "anonymous": false,
      "inputs": [
        {
          "indexed": false,
          "internalType": "address",
          "name": "_approved",
          "type": "address"
        },
        {
          "indexed": false,
          "internalType": "int256",
          "name": "index",
          "type": "int256"
        }
      ],
      "name": "ApprovedContract",
      "type": "event"
    },
    {
      "anonymous": false,
      "inputs": [
        {
          "indexed": false,
          "internalType": "address",
          "name": "_cloned",
          "type": "address"
        }
      ],
      "name": "ClonedContract",
      "type": "event"
    },
    {
      "inputs": [
        {
          "internalType": "address",
          "name": "_contract",
          "type": "address"
        },
        {
          "internalType": "int256",
          "name": "_index",
          "type": "int256"
        }
      ],
      "name": "approve",
      "outputs": [
        {
          "internalType": "address",
          "name": "",
          "type": "address"
        },
        {
          "internalType": "int256",
          "name": "",
          "type": "int256"
        }
      ],
      "stateMutability": "nonpayable",
      "type": "function"
    },
    {
      "inputs": [
        {
          "internalType": "address",
          "name": "_client",
          "type": "address"
        },
        {
          "internalType": "uint256",
          "name": "_expiryDate",
          "type": "uint256"
        },
        {
          "internalType": "uint256",
          "name": "_startDate",
          "type": "uint256"
        },
        {
          "internalType": "uint256",
          "name": "_contractHash",
          "type": "uint256"
        },
        {
          "internalType": "uint256",
          "name": "_amount",
          "type": "uint256"
        },
        {
          "internalType": "int256",
          "name": "_index",
          "type": "int256"
        }
      ],
      "name": "createVendor",
      "outputs": [
        {
          "internalType": "address",
          "name": "",
          "type": "address"
        }
      ],
      "stateMutability": "nonpayable",
      "type": "function"
    }
  ],
  "devdoc": {
    "kind": "dev",
    "methods": {},
    "version": 1
  },
  "evm": {
    "assembly": "    /* \"VendorFactory.sol\":193:2300  contract VendorFactory is CloneFactory {... */\n  mstore(0x40, 0x80)\n    /* \"VendorFactory.sol\":565:736  constructor(address _implementation) {... */\n  callvalue\n  dup1\n  iszero\n  tag_1\n  jumpi\n  0x00\n  dup1\n  revert\ntag_1:\n  pop\n  mload(0x40)\n  sub(codesize, bytecodeSize)\n  dup1\n  bytecodeSize\n  dup4\n  codecopy\n  dup2\n  dup2\n  add\n  0x40\n  mstore\n  dup2\n  add\n  swap1\n  tag_2\n  swap2\n  swap1\n  tag_3\n  jump\t// in\ntag_2:\n    /* \"VendorFactory.sol\":629:644  _implementation */\n  dup1\n    /* \"VendorFactory.sol\":612:626  implementation */\n  0x01\n  0x00\n    /* \"VendorFactory.sol\":612:644  implementation = _implementation */\n  0x0100\n  exp\n  dup2\n  sload\n  dup2\n  0xffffffffffffffffffffffffffffffffffffffff\n  mul\n  not\n  and\n  swap1\n  dup4\n  0xffffffffffffffffffffffffffffffffffffffff\n  and\n  mul\n  or\n  swap1\n  sstore\n  pop\n    /* \"VendorFactory.sol\":719:729  msg.sender */\n  caller\n    /* \"VendorFactory.sol\":711:716  admin */\n  0x00\n  dup1\n    /* \"VendorFactory.sol\":711:729  admin = msg.sender */\n  0x0100\n  exp\n  dup2\n  sload\n  dup2\n  0xffffffffffffffffffffffffffffffffffffffff\n  mul\n  not\n  and\n  swap1\n  dup4\n  0xffffffffffffffffffffffffffffffffffffffff\n  and\n  mul\n  or\n  swap1\n  sstore\n  pop\n    /* \"VendorFactory.sol\":565:736  constructor(address _implementation) {... */\n  pop\n    /* \"VendorFactory.sol\":193:2300  contract VendorFactory is CloneFactory {... */\n  jump(tag_6)\n    /* \"#utility.yul\":7:150   */\ntag_8:\n    /* \"#utility.yul\":64:69   */\n  0x00\n    /* \"#utility.yul\":95:101   */\n  dup2\n    /* \"#utility.yul\":89:102   */\n  mload\n    /* \"#utility.yul\":80:102   */\n  swap1\n  pop\n    /* \"#utility.yul\":111:144   */\n  tag_10\n    /* \"#utility.yul\":138:143   */\n  dup2\n    /* \"#utility.yul\":111:144   */\n  tag_11\n  jump\t// in\ntag_10:\n    /* \"#utility.yul\":70:150   */\n  swap3\n  swap2\n  pop\n  pop\n  jump\t// out\n    /* \"#utility.yul\":156:507   */\ntag_3:\n    /* \"#utility.yul\":226:232   */\n  0x00\n    /* \"#utility.yul\":275:277   */\n  0x20\n    /* \"#utility.yul\":263:272   */\n  dup3\n    /* \"#utility.yul\":254:261   */\n  dup5\n    /* \"#utility.yul\":250:273   */\n  sub\n    /* \"#utility.yul\":246:278   */\n  slt\n    /* \"#utility.yul\":243:245   */\n  iszero\n  tag_13\n  jumpi\n    /* \"#utility.yul\":281:360   */\n  tag_14\n  tag_15\n  jump\t// in\ntag_14:\n    /* \"#utility.yul\":243:245   */\ntag_13:\n    /* \"#utility.yul\":401:402   */\n  0x00\n    /* \"#utility.yul\":426:490   */\n  tag_16\n    /* \"#utility.yul\":482:489   */\n  dup5\n    /* \"#utility.yul\":473:479   */\n  dup3\n    /* \"#utility.yul\":462:471   */\n  dup6\n    /* \"#utility.yul\":458:480   */\n  add\n    /* \"#utility.yul\":426:490   */\n  tag_8\n  jump\t// in\ntag_16:\n    /* \"#utility.yul\":416:490   */\n  swap2\n  pop\n    /* \"#utility.yul\":372:500   */\n  pop\n    /* \"#utility.yul\":233:507   */\n  swap3\n  swap2\n  pop\n  pop\n  jump\t// out\n    /* \"#utility.yul\":594:690   */\ntag_19:\n    /* \"#utility.yul\":631:638   */\n  0x00\n    /* \"#utility.yul\":660:684   */\n  tag_21\n    /* \"#utility.yul\":678:683   */\n  dup3\n    /* \"#utility.yul\":660:684   */\n  tag_22\n  jump\t// in\ntag_21:\n    /* \"#utility.yul\":649:684   */\n  swap1\n  pop\n    /* \"#utility.yul\":639:690   */\n  swap2\n  swap1\n  pop\n  jump\t// out\n    /* \"#utility.yul\":696:822   */\ntag_22:\n    /* \"#utility.yul\":733:740   */\n  0x00\n    /* \"#utility.yul\":773:815   */\n  0xffffffffffffffffffffffffffffffffffffffff\n    /* \"#utility.yul\":766:771   */\n  dup3\n    /* \"#utility.yul\":762:816   */\n  and\n    /* \"#utility.yul\":751:816   */\n  swap1\n  pop\n    /* \"#utility.yul\":741:822   */\n  swap2\n  swap1\n  pop\n  jump\t// out\n    /* \"#utility.yul\":951:1068   */\ntag_15:\n    /* \"#utility.yul\":1060:1061   */\n  0x00\n    /* \"#utility.yul\":1057:1058   */\n  dup1\n    /* \"#utility.yul\":1050:1062   */\n  revert\n    /* \"#utility.yul\":1074:1196   */\ntag_11:\n    /* \"#utility.yul\":1147:1171   */\n  tag_28\n    /* \"#utility.yul\":1165:1170   */\n  dup2\n    /* \"#utility.yul\":1147:1171   */\n  tag_19\n  jump\t// in\ntag_28:\n    /* \"#utility.yul\":1140:1145   */\n  dup2\n    /* \"#utility.yul\":1137:1172   */\n  eq\n    /* \"#utility.yul\":1127:1129   */\n  tag_29\n  jumpi\n    /* \"#utility.yul\":1186:1187   */\n  0x00\n    /* \"#utility.yul\":1183:1184   */\n  dup1\n    /* \"#utility.yul\":1176:1188   */\n  revert\n    /* \"#utility.yul\":1127:1129   */\ntag_29:\n    /* \"#utility.yul\":1117:1196   */\n  pop\n  jump\t// out\n    /* \"VendorFactory.sol\":193:2300  contract VendorFactory is CloneFactory {... */\ntag_6:\n  dataSize(sub_0)\n  dup1\n  dataOffset(sub_0)\n  0x00\n  codecopy\n  0x00\n  return\nstop\n\nsub_0: assembly {\n        /* \"VendorFactory.sol\":193:2300  contract VendorFactory is CloneFactory {... */\n      mstore(0x40, 0x80)\n      callvalue\n      dup1\n      iszero\n      tag_1\n      jumpi\n      0x00\n      dup1\n      revert\n    tag_1:\n      pop\n      jumpi(tag_2, lt(calldatasize, 0x04))\n      shr(0xe0, calldataload(0x00))\n      dup1\n      0x0dfd002d\n      eq\n      tag_3\n      jumpi\n      dup1\n      0xd4e12f2e\n      eq\n      tag_4\n      jumpi\n    tag_2:\n      0x00\n      dup1\n      revert\n        /* \"VendorFactory.sol\":795:1511  function createVendor... */\n    tag_3:\n      tag_5\n      0x04\n      dup1\n      calldatasize\n      sub\n      dup2\n      add\n      swap1\n      tag_6\n      swap2\n      swap1\n      tag_7\n      jump\t// in\n    tag_6:\n      tag_8\n      jump\t// in\n    tag_5:\n      mload(0x40)\n      tag_9\n      swap2\n      swap1\n      tag_10\n      jump\t// in\n    tag_9:\n      mload(0x40)\n      dup1\n      swap2\n      sub\n      swap1\n      return\n        /* \"VendorFactory.sol\":1548:2110  function approve(address _contract, int _index) external returns (address, int) {... */\n    tag_4:\n      tag_11\n      0x04\n      dup1\n      calldatasize\n      sub\n      dup2\n      add\n      swap1\n      tag_12\n      swap2\n      swap1\n      tag_13\n      jump\t// in\n    tag_12:\n      tag_14\n      jump\t// in\n    tag_11:\n      mload(0x40)\n      tag_15\n      swap3\n      swap2\n      swap1\n      tag_16\n      jump\t// in\n    tag_15:\n      mload(0x40)\n      dup1\n      swap2\n      sub\n      swap1\n      return\n        /* \"VendorFactory.sol\":795:1511  function createVendor... */\n    tag_8:\n        /* \"VendorFactory.sol\":1010:1017  address */\n      0x00\n        /* \"VendorFactory.sol\":2234:2239  admin */\n      dup1\n      0x00\n      swap1\n      sload\n      swap1\n      0x0100\n      exp\n      swap1\n      div\n      0xffffffffffffffffffffffffffffffffffffffff\n      and\n        /* \"VendorFactory.sol\":2220:2239  msg.sender == admin */\n      0xffffffffffffffffffffffffffffffffffffffff\n      and\n        /* \"VendorFactory.sol\":2220:2230  msg.sender */\n      caller\n        /* \"VendorFactory.sol\":2220:2239  msg.sender == admin */\n      0xffffffffffffffffffffffffffffffffffffffff\n      and\n      eq\n        /* \"VendorFactory.sol\":2212:2280  require(msg.sender == admin, 'Only the admin can use this function') */\n      tag_18\n      jumpi\n      mload(0x40)\n      0x08c379a000000000000000000000000000000000000000000000000000000000\n      dup2\n      mstore\n      0x04\n      add\n      tag_19\n      swap1\n      tag_20\n      jump\t// in\n    tag_19:\n      mload(0x40)\n      dup1\n      swap2\n      sub\n      swap1\n      revert\n    tag_18:\n        /* \"VendorFactory.sol\":1030:1047  address newVendor */\n      0x00\n        /* \"VendorFactory.sol\":1050:1077  createClone(implementation) */\n      tag_22\n        /* \"VendorFactory.sol\":1062:1076  implementation */\n      0x01\n      0x00\n      swap1\n      sload\n      swap1\n      0x0100\n      exp\n      swap1\n      div\n      0xffffffffffffffffffffffffffffffffffffffff\n      and\n        /* \"VendorFactory.sol\":1050:1061  createClone */\n      tag_23\n        /* \"VendorFactory.sol\":1050:1077  createClone(implementation) */\n      jump\t// in\n    tag_22:\n        /* \"VendorFactory.sol\":1030:1077  address newVendor = createClone(implementation) */\n      swap1\n      pop\n        /* \"VendorFactory.sol\":1094:1103  newVendor */\n      dup1\n        /* \"VendorFactory.sol\":1087:1109  Vendor(newVendor).init */\n      0xffffffffffffffffffffffffffffffffffffffff\n      and\n      0x9a730617\n        /* \"VendorFactory.sol\":1110:1117  _client */\n      dup10\n        /* \"VendorFactory.sol\":1119:1130  _expiryDate */\n      dup10\n        /* \"VendorFactory.sol\":1132:1142  _startDate */\n      dup10\n        /* \"VendorFactory.sol\":1144:1157  _contractHash */\n      dup10\n        /* \"VendorFactory.sol\":1159:1166  _amount */\n      dup10\n        /* \"VendorFactory.sol\":1087:1167  Vendor(newVendor).init(_client, _expiryDate, _startDate, _contractHash, _amount) */\n      mload(0x40)\n      dup7\n      0xffffffff\n      and\n      0xe0\n      shl\n      dup2\n      mstore\n      0x04\n      add\n      tag_24\n      swap6\n      swap5\n      swap4\n      swap3\n      swap2\n      swap1\n      tag_25\n      jump\t// in\n    tag_24:\n      0x00\n      mload(0x40)\n      dup1\n      dup4\n      sub\n      dup2\n      0x00\n      dup8\n      dup1\n      extcodesize\n      iszero\n      dup1\n      iszero\n      tag_26\n      jumpi\n      0x00\n      dup1\n      revert\n    tag_26:\n      pop\n      gas\n      call\n      iszero\n      dup1\n      iszero\n      tag_28\n      jumpi\n      returndatasize\n      0x00\n      dup1\n      returndatacopy\n      revert(0x00, returndatasize)\n    tag_28:\n      pop\n      pop\n      pop\n      pop\n        /* \"VendorFactory.sol\":1209:1212  0x0 */\n      0x00\n        /* \"VendorFactory.sol\":1182:1213  vendors[_index] != address(0x0) */\n      0xffffffffffffffffffffffffffffffffffffffff\n      and\n        /* \"VendorFactory.sol\":1182:1189  vendors */\n      0x02\n        /* \"VendorFactory.sol\":1182:1197  vendors[_index] */\n      0x00\n        /* \"VendorFactory.sol\":1190:1196  _index */\n      dup6\n        /* \"VendorFactory.sol\":1182:1197  vendors[_index] */\n      dup2\n      mstore\n      0x20\n      add\n      swap1\n      dup2\n      mstore\n      0x20\n      add\n      0x00\n      keccak256\n      0x00\n      swap1\n      sload\n      swap1\n      0x0100\n      exp\n      swap1\n      div\n      0xffffffffffffffffffffffffffffffffffffffff\n      and\n        /* \"VendorFactory.sol\":1182:1213  vendors[_index] != address(0x0) */\n      0xffffffffffffffffffffffffffffffffffffffff\n      and\n      eq\n        /* \"VendorFactory.sol\":1178:1438  if (vendors[_index] != address(0x0)) {  // check if an existing contract lies at the index... */\n      tag_29\n      jumpi\n        /* \"VendorFactory.sol\":1300:1309  newVendor */\n      dup1\n        /* \"VendorFactory.sol\":1281:1289  updating */\n      0x03\n        /* \"VendorFactory.sol\":1281:1297  updating[_index] */\n      0x00\n        /* \"VendorFactory.sol\":1290:1296  _index */\n      dup6\n        /* \"VendorFactory.sol\":1281:1297  updating[_index] */\n      dup2\n      mstore\n      0x20\n      add\n      swap1\n      dup2\n      mstore\n      0x20\n      add\n      0x00\n      keccak256\n      0x00\n        /* \"VendorFactory.sol\":1281:1309  updating[_index] = newVendor */\n      0x0100\n      exp\n      dup2\n      sload\n      dup2\n      0xffffffffffffffffffffffffffffffffffffffff\n      mul\n      not\n      and\n      swap1\n      dup4\n      0xffffffffffffffffffffffffffffffffffffffff\n      and\n      mul\n      or\n      swap1\n      sstore\n      pop\n        /* \"VendorFactory.sol\":1178:1438  if (vendors[_index] != address(0x0)) {  // check if an existing contract lies at the index... */\n      jump(tag_30)\n    tag_29:\n        /* \"VendorFactory.sol\":1418:1427  newVendor */\n      dup1\n        /* \"VendorFactory.sol\":1400:1407  vendors */\n      0x02\n        /* \"VendorFactory.sol\":1400:1415  vendors[_index] */\n      0x00\n        /* \"VendorFactory.sol\":1408:1414  _index */\n      dup6\n        /* \"VendorFactory.sol\":1400:1415  vendors[_index] */\n      dup2\n      mstore\n      0x20\n      add\n      swap1\n      dup2\n      mstore\n      0x20\n      add\n      0x00\n      keccak256\n      0x00\n        /* \"VendorFactory.sol\":1400:1427  vendors[_index] = newVendor */\n      0x0100\n      exp\n      dup2\n      sload\n      dup2\n      0xffffffffffffffffffffffffffffffffffffffff\n      mul\n      not\n      and\n      swap1\n      dup4\n      0xffffffffffffffffffffffffffffffffffffffff\n      and\n      mul\n      or\n      swap1\n      sstore\n      pop\n        /* \"VendorFactory.sol\":1178:1438  if (vendors[_index] != address(0x0)) {  // check if an existing contract lies at the index... */\n    tag_30:\n        /* \"VendorFactory.sol\":1453:1478  ClonedContract(newVendor) */\n      0x4e1d29e2852465a104ae5b46a21386067094efd4c78e8fca5fbd0f73155f83ec\n        /* \"VendorFactory.sol\":1468:1477  newVendor */\n      dup2\n        /* \"VendorFactory.sol\":1453:1478  ClonedContract(newVendor) */\n      mload(0x40)\n      tag_31\n      swap2\n      swap1\n      tag_10\n      jump\t// in\n    tag_31:\n      mload(0x40)\n      dup1\n      swap2\n      sub\n      swap1\n      log1\n        /* \"VendorFactory.sol\":1495:1504  newVendor */\n      dup1\n        /* \"VendorFactory.sol\":1488:1504  return newVendor */\n      swap2\n      pop\n      pop\n        /* \"VendorFactory.sol\":795:1511  function createVendor... */\n      swap7\n      swap6\n      pop\n      pop\n      pop\n      pop\n      pop\n      pop\n      jump\t// out\n        /* \"VendorFactory.sol\":1548:2110  function approve(address _contract, int _index) external returns (address, int) {... */\n    tag_14:\n        /* \"VendorFactory.sol\":1614:1621  address */\n      0x00\n        /* \"VendorFactory.sol\":1623:1626  int */\n      dup1\n        /* \"VendorFactory.sol\":1676:1685  _contract */\n      dup4\n        /* \"VendorFactory.sol\":1669:1692  Vendor(_contract).payee */\n      0xffffffffffffffffffffffffffffffffffffffff\n      and\n      0xae90b213\n        /* \"VendorFactory.sol\":1669:1694  Vendor(_contract).payee() */\n      mload(0x40)\n      dup2\n      0xffffffff\n      and\n      0xe0\n      shl\n      dup2\n      mstore\n      0x04\n      add\n      0x20\n      mload(0x40)\n      dup1\n      dup4\n      sub\n      dup2\n      dup7\n      dup1\n      extcodesize\n      iszero\n      dup1\n      iszero\n      tag_33\n      jumpi\n      0x00\n      dup1\n      revert\n    tag_33:\n      pop\n      gas\n      staticcall\n      iszero\n      dup1\n      iszero\n      tag_35\n      jumpi\n      returndatasize\n      0x00\n      dup1\n      returndatacopy\n      revert(0x00, returndatasize)\n    tag_35:\n      pop\n      pop\n      pop\n      pop\n      mload(0x40)\n      returndatasize\n      not(0x1f)\n      0x1f\n      dup3\n      add\n      and\n      dup3\n      add\n      dup1\n      0x40\n      mstore\n      pop\n      dup2\n      add\n      swap1\n      tag_36\n      swap2\n      swap1\n      tag_37\n      jump\t// in\n    tag_36:\n        /* \"VendorFactory.sol\":1646:1694  payable(msg.sender) == Vendor(_contract).payee() */\n      0xffffffffffffffffffffffffffffffffffffffff\n      and\n        /* \"VendorFactory.sol\":1654:1664  msg.sender */\n      caller\n        /* \"VendorFactory.sol\":1646:1694  payable(msg.sender) == Vendor(_contract).payee() */\n      0xffffffffffffffffffffffffffffffffffffffff\n      and\n      eq\n        /* \"VendorFactory.sol\":1638:1740  require(payable(msg.sender) == Vendor(_contract).payee(), \"Only the payee can approve this contract.\") */\n      tag_38\n      jumpi\n      mload(0x40)\n      0x08c379a000000000000000000000000000000000000000000000000000000000\n      dup2\n      mstore\n      0x04\n      add\n      tag_39\n      swap1\n      tag_40\n      jump\t// in\n    tag_39:\n      mload(0x40)\n      dup1\n      swap2\n      sub\n      swap1\n      revert\n    tag_38:\n        /* \"VendorFactory.sol\":1757:1766  _contract */\n      dup4\n        /* \"VendorFactory.sol\":1750:1775  Vendor(_contract).approve */\n      0xffffffffffffffffffffffffffffffffffffffff\n      and\n      0x12424e3f\n        /* \"VendorFactory.sol\":1750:1777  Vendor(_contract).approve() */\n      mload(0x40)\n      dup2\n      0xffffffff\n      and\n      0xe0\n      shl\n      dup2\n      mstore\n      0x04\n      add\n      0x00\n      mload(0x40)\n      dup1\n      dup4\n      sub\n      dup2\n      0x00\n      dup8\n      dup1\n      extcodesize\n      iszero\n      dup1\n      iszero\n      tag_41\n      jumpi\n      0x00\n      dup1\n      revert\n    tag_41:\n      pop\n      gas\n      call\n      iszero\n      dup1\n      iszero\n      tag_43\n      jumpi\n      returndatasize\n      0x00\n      dup1\n      returndatacopy\n      revert(0x00, returndatasize)\n    tag_43:\n      pop\n      pop\n      pop\n      pop\n        /* \"VendorFactory.sol\":1820:1823  0x0 */\n      0x00\n        /* \"VendorFactory.sol\":1792:1824  updating[_index] != address(0x0) */\n      0xffffffffffffffffffffffffffffffffffffffff\n      and\n        /* \"VendorFactory.sol\":1792:1800  updating */\n      0x03\n        /* \"VendorFactory.sol\":1792:1808  updating[_index] */\n      0x00\n        /* \"VendorFactory.sol\":1801:1807  _index */\n      dup6\n        /* \"VendorFactory.sol\":1792:1808  updating[_index] */\n      dup2\n      mstore\n      0x20\n      add\n      swap1\n      dup2\n      mstore\n      0x20\n      add\n      0x00\n      keccak256\n      0x00\n      swap1\n      sload\n      swap1\n      0x0100\n      exp\n      swap1\n      div\n      0xffffffffffffffffffffffffffffffffffffffff\n      and\n        /* \"VendorFactory.sol\":1792:1824  updating[_index] != address(0x0) */\n      0xffffffffffffffffffffffffffffffffffffffff\n      and\n      eq\n        /* \"VendorFactory.sol\":1788:2017  if (updating[_index] != address(0x0)) {     // if it's an update, perform relevant operations... */\n      tag_44\n      jumpi\n        /* \"VendorFactory.sol\":1901:1908  vendors */\n      0x02\n        /* \"VendorFactory.sol\":1901:1916  vendors[_index] */\n      0x00\n        /* \"VendorFactory.sol\":1909:1915  _index */\n      dup5\n        /* \"VendorFactory.sol\":1901:1916  vendors[_index] */\n      dup2\n      mstore\n      0x20\n      add\n      swap1\n      dup2\n      mstore\n      0x20\n      add\n      0x00\n      keccak256\n      0x00\n      swap1\n      sload\n      swap1\n      0x0100\n      exp\n      swap1\n      div\n      0xffffffffffffffffffffffffffffffffffffffff\n      and\n        /* \"VendorFactory.sol\":1894:1925  Vendor(vendors[_index]).destroy */\n      0xffffffffffffffffffffffffffffffffffffffff\n      and\n      0x83197ef0\n        /* \"VendorFactory.sol\":1894:1927  Vendor(vendors[_index]).destroy() */\n      mload(0x40)\n      dup2\n      0xffffffff\n      and\n      0xe0\n      shl\n      dup2\n      mstore\n      0x04\n      add\n      0x00\n      mload(0x40)\n      dup1\n      dup4\n      sub\n      dup2\n      0x00\n      dup8\n      dup1\n      extcodesize\n      iszero\n      dup1\n      iszero\n      tag_45\n      jumpi\n      0x00\n      dup1\n      revert\n    tag_45:\n      pop\n      gas\n      call\n      iszero\n      dup1\n      iszero\n      tag_47\n      jumpi\n      returndatasize\n      0x00\n      dup1\n      returndatacopy\n      revert(0x00, returndatasize)\n    tag_47:\n      pop\n      pop\n      pop\n      pop\n        /* \"VendorFactory.sol\":1948:1956  updating */\n      0x03\n        /* \"VendorFactory.sol\":1948:1964  updating[_index] */\n      0x00\n        /* \"VendorFactory.sol\":1957:1963  _index */\n      dup5\n        /* \"VendorFactory.sol\":1948:1964  updating[_index] */\n      dup2\n      mstore\n      0x20\n      add\n      swap1\n      dup2\n      mstore\n      0x20\n      add\n      0x00\n      keccak256\n      0x00\n        /* \"VendorFactory.sol\":1941:1965  delete(updating[_index]) */\n      0x0100\n      exp\n      dup2\n      sload\n      swap1\n      0xffffffffffffffffffffffffffffffffffffffff\n      mul\n      not\n      and\n      swap1\n      sstore\n        /* \"VendorFactory.sol\":1997:2006  _contract */\n      dup4\n        /* \"VendorFactory.sol\":1979:1986  vendors */\n      0x02\n        /* \"VendorFactory.sol\":1979:1994  vendors[_index] */\n      0x00\n        /* \"VendorFactory.sol\":1987:1993  _index */\n      dup6\n        /* \"VendorFactory.sol\":1979:1994  vendors[_index] */\n      dup2\n      mstore\n      0x20\n      add\n      swap1\n      dup2\n      mstore\n      0x20\n      add\n      0x00\n      keccak256\n      0x00\n        /* \"VendorFactory.sol\":1979:2006  vendors[_index] = _contract */\n      0x0100\n      exp\n      dup2\n      sload\n      dup2\n      0xffffffffffffffffffffffffffffffffffffffff\n      mul\n      not\n      and\n      swap1\n      dup4\n      0xffffffffffffffffffffffffffffffffffffffff\n      and\n      mul\n      or\n      swap1\n      sstore\n      pop\n        /* \"VendorFactory.sol\":1788:2017  if (updating[_index] != address(0x0)) {     // if it's an update, perform relevant operations... */\n    tag_44:\n        /* \"VendorFactory.sol\":2032:2067  ApprovedContract(_contract, _index) */\n      0xa632268b4e910a424b413fd0bd0a48d43ad05e1cf3920dfb1573c2c39b495f5b\n        /* \"VendorFactory.sol\":2049:2058  _contract */\n      dup5\n        /* \"VendorFactory.sol\":2060:2066  _index */\n      dup5\n        /* \"VendorFactory.sol\":2032:2067  ApprovedContract(_contract, _index) */\n      mload(0x40)\n      tag_48\n      swap3\n      swap2\n      swap1\n      tag_16\n      jump\t// in\n    tag_48:\n      mload(0x40)\n      dup1\n      swap2\n      sub\n      swap1\n      log1\n        /* \"VendorFactory.sol\":2085:2094  _contract */\n      dup4\n        /* \"VendorFactory.sol\":2096:2102  _index */\n      dup4\n        /* \"VendorFactory.sol\":2077:2103  return (_contract, _index) */\n      swap2\n      pop\n      swap2\n      pop\n        /* \"VendorFactory.sol\":1548:2110  function approve(address _contract, int _index) external returns (address, int) {... */\n      swap3\n      pop\n      swap3\n      swap1\n      pop\n      jump\t// out\n        /* \"CloneFactory.sol\":1247:1688  function createClone(address target) internal returns (address result) {... */\n    tag_23:\n        /* \"CloneFactory.sol\":1302:1316  address result */\n      0x00\n        /* \"CloneFactory.sol\":1324:1343  bytes20 targetBytes */\n      dup1\n        /* \"CloneFactory.sol\":1354:1360  target */\n      dup3\n        /* \"CloneFactory.sol\":1346:1361  bytes20(target) */\n      0x60\n      shl\n        /* \"CloneFactory.sol\":1324:1361  bytes20 targetBytes = bytes20(target) */\n      swap1\n      pop\n        /* \"CloneFactory.sol\":1403:1407  0x40 */\n      0x40\n        /* \"CloneFactory.sol\":1397:1408  mload(0x40) */\n      mload\n        /* \"CloneFactory.sol\":1429:1495  0x3d602d80600a3d3981f3363d3d373d3d3d363d73000000000000000000000000 */\n      0x3d602d80600a3d3981f3363d3d373d3d3d363d73000000000000000000000000\n        /* \"CloneFactory.sol\":1422:1427  clone */\n      dup2\n        /* \"CloneFactory.sol\":1415:1496  mstore(clone, 0x3d602d80600a3d3981f3363d3d373d3d3d363d73000000000000000000000000) */\n      mstore\n        /* \"CloneFactory.sol\":1528:1539  targetBytes */\n      dup2\n        /* \"CloneFactory.sol\":1521:1525  0x14 */\n      0x14\n        /* \"CloneFactory.sol\":1514:1519  clone */\n      dup3\n        /* \"CloneFactory.sol\":1510:1526  add(clone, 0x14) */\n      add\n        /* \"CloneFactory.sol\":1503:1540  mstore(add(clone, 0x14), targetBytes) */\n      mstore\n        /* \"CloneFactory.sol\":1572:1638  0x5af43d82803e903d91602b57fd5bf30000000000000000000000000000000000 */\n      0x5af43d82803e903d91602b57fd5bf30000000000000000000000000000000000\n        /* \"CloneFactory.sol\":1565:1569  0x28 */\n      0x28\n        /* \"CloneFactory.sol\":1558:1563  clone */\n      dup3\n        /* \"CloneFactory.sol\":1554:1570  add(clone, 0x28) */\n      add\n        /* \"CloneFactory.sol\":1547:1639  mstore(add(clone, 0x28), 0x5af43d82803e903d91602b57fd5bf30000000000000000000000000000000000) */\n      mstore\n        /* \"CloneFactory.sol\":1673:1677  0x37 */\n      0x37\n        /* \"CloneFactory.sol\":1666:1671  clone */\n      dup2\n        /* \"CloneFactory.sol\":1663:1664  0 */\n      0x00\n        /* \"CloneFactory.sol\":1656:1678  create(0, clone, 0x37) */\n      create\n        /* \"CloneFactory.sol\":1646:1678  result := create(0, clone, 0x37) */\n      swap3\n      pop\n        /* \"CloneFactory.sol\":1376:1684  {... */\n      pop\n      pop\n        /* \"CloneFactory.sol\":1247:1688  function createClone(address target) internal returns (address result) {... */\n      swap2\n      swap1\n      pop\n      jump\t// out\n        /* \"#utility.yul\":7:146   */\n    tag_51:\n        /* \"#utility.yul\":53:58   */\n      0x00\n        /* \"#utility.yul\":91:97   */\n      dup2\n        /* \"#utility.yul\":78:98   */\n      calldataload\n        /* \"#utility.yul\":69:98   */\n      swap1\n      pop\n        /* \"#utility.yul\":107:140   */\n      tag_53\n        /* \"#utility.yul\":134:139   */\n      dup2\n        /* \"#utility.yul\":107:140   */\n      tag_54\n      jump\t// in\n    tag_53:\n        /* \"#utility.yul\":59:146   */\n      swap3\n      swap2\n      pop\n      pop\n      jump\t// out\n        /* \"#utility.yul\":152:311   */\n    tag_55:\n        /* \"#utility.yul\":217:222   */\n      0x00\n        /* \"#utility.yul\":248:254   */\n      dup2\n        /* \"#utility.yul\":242:255   */\n      mload\n        /* \"#utility.yul\":233:255   */\n      swap1\n      pop\n        /* \"#utility.yul\":264:305   */\n      tag_57\n        /* \"#utility.yul\":299:304   */\n      dup2\n        /* \"#utility.yul\":264:305   */\n      tag_58\n      jump\t// in\n    tag_57:\n        /* \"#utility.yul\":223:311   */\n      swap3\n      swap2\n      pop\n      pop\n      jump\t// out\n        /* \"#utility.yul\":317:454   */\n    tag_59:\n        /* \"#utility.yul\":362:367   */\n      0x00\n        /* \"#utility.yul\":400:406   */\n      dup2\n        /* \"#utility.yul\":387:407   */\n      calldataload\n        /* \"#utility.yul\":378:407   */\n      swap1\n      pop\n        /* \"#utility.yul\":416:448   */\n      tag_61\n        /* \"#utility.yul\":442:447   */\n      dup2\n        /* \"#utility.yul\":416:448   */\n      tag_62\n      jump\t// in\n    tag_61:\n        /* \"#utility.yul\":368:454   */\n      swap3\n      swap2\n      pop\n      pop\n      jump\t// out\n        /* \"#utility.yul\":460:599   */\n    tag_63:\n        /* \"#utility.yul\":506:511   */\n      0x00\n        /* \"#utility.yul\":544:550   */\n      dup2\n        /* \"#utility.yul\":531:551   */\n      calldataload\n        /* \"#utility.yul\":522:551   */\n      swap1\n      pop\n        /* \"#utility.yul\":560:593   */\n      tag_65\n        /* \"#utility.yul\":587:592   */\n      dup2\n        /* \"#utility.yul\":560:593   */\n      tag_66\n      jump\t// in\n    tag_65:\n        /* \"#utility.yul\":512:599   */\n      swap3\n      swap2\n      pop\n      pop\n      jump\t// out\n        /* \"#utility.yul\":605:972   */\n    tag_37:\n        /* \"#utility.yul\":683:689   */\n      0x00\n        /* \"#utility.yul\":732:734   */\n      0x20\n        /* \"#utility.yul\":720:729   */\n      dup3\n        /* \"#utility.yul\":711:718   */\n      dup5\n        /* \"#utility.yul\":707:730   */\n      sub\n        /* \"#utility.yul\":703:735   */\n      slt\n        /* \"#utility.yul\":700:702   */\n      iszero\n      tag_68\n      jumpi\n        /* \"#utility.yul\":738:817   */\n      tag_69\n      tag_70\n      jump\t// in\n    tag_69:\n        /* \"#utility.yul\":700:702   */\n    tag_68:\n        /* \"#utility.yul\":858:859   */\n      0x00\n        /* \"#utility.yul\":883:955   */\n      tag_71\n        /* \"#utility.yul\":947:954   */\n      dup5\n        /* \"#utility.yul\":938:944   */\n      dup3\n        /* \"#utility.yul\":927:936   */\n      dup6\n        /* \"#utility.yul\":923:945   */\n      add\n        /* \"#utility.yul\":883:955   */\n      tag_55\n      jump\t// in\n    tag_71:\n        /* \"#utility.yul\":873:955   */\n      swap2\n      pop\n        /* \"#utility.yul\":829:965   */\n      pop\n        /* \"#utility.yul\":690:972   */\n      swap3\n      swap2\n      pop\n      pop\n      jump\t// out\n        /* \"#utility.yul\":978:1450   */\n    tag_13:\n        /* \"#utility.yul\":1045:1051   */\n      0x00\n        /* \"#utility.yul\":1053:1059   */\n      dup1\n        /* \"#utility.yul\":1102:1104   */\n      0x40\n        /* \"#utility.yul\":1090:1099   */\n      dup4\n        /* \"#utility.yul\":1081:1088   */\n      dup6\n        /* \"#utility.yul\":1077:1100   */\n      sub\n        /* \"#utility.yul\":1073:1105   */\n      slt\n        /* \"#utility.yul\":1070:1072   */\n      iszero\n      tag_73\n      jumpi\n        /* \"#utility.yul\":1108:1187   */\n      tag_74\n      tag_70\n      jump\t// in\n    tag_74:\n        /* \"#utility.yul\":1070:1072   */\n    tag_73:\n        /* \"#utility.yul\":1228:1229   */\n      0x00\n        /* \"#utility.yul\":1253:1306   */\n      tag_75\n        /* \"#utility.yul\":1298:1305   */\n      dup6\n        /* \"#utility.yul\":1289:1295   */\n      dup3\n        /* \"#utility.yul\":1278:1287   */\n      dup7\n        /* \"#utility.yul\":1274:1296   */\n      add\n        /* \"#utility.yul\":1253:1306   */\n      tag_51\n      jump\t// in\n    tag_75:\n        /* \"#utility.yul\":1243:1306   */\n      swap3\n      pop\n        /* \"#utility.yul\":1199:1316   */\n      pop\n        /* \"#utility.yul\":1355:1357   */\n      0x20\n        /* \"#utility.yul\":1381:1433   */\n      tag_76\n        /* \"#utility.yul\":1425:1432   */\n      dup6\n        /* \"#utility.yul\":1416:1422   */\n      dup3\n        /* \"#utility.yul\":1405:1414   */\n      dup7\n        /* \"#utility.yul\":1401:1423   */\n      add\n        /* \"#utility.yul\":1381:1433   */\n      tag_59\n      jump\t// in\n    tag_76:\n        /* \"#utility.yul\":1371:1433   */\n      swap2\n      pop\n        /* \"#utility.yul\":1326:1443   */\n      pop\n        /* \"#utility.yul\":1060:1450   */\n      swap3\n      pop\n      swap3\n      swap1\n      pop\n      jump\t// out\n        /* \"#utility.yul\":1456:2511   */\n    tag_7:\n        /* \"#utility.yul\":1559:1565   */\n      0x00\n        /* \"#utility.yul\":1567:1573   */\n      dup1\n        /* \"#utility.yul\":1575:1581   */\n      0x00\n        /* \"#utility.yul\":1583:1589   */\n      dup1\n        /* \"#utility.yul\":1591:1597   */\n      0x00\n        /* \"#utility.yul\":1599:1605   */\n      dup1\n        /* \"#utility.yul\":1648:1651   */\n      0xc0\n        /* \"#utility.yul\":1636:1645   */\n      dup8\n        /* \"#utility.yul\":1627:1634   */\n      dup10\n        /* \"#utility.yul\":1623:1646   */\n      sub\n        /* \"#utility.yul\":1619:1652   */\n      slt\n        /* \"#utility.yul\":1616:1618   */\n      iszero\n      tag_78\n      jumpi\n        /* \"#utility.yul\":1655:1734   */\n      tag_79\n      tag_70\n      jump\t// in\n    tag_79:\n        /* \"#utility.yul\":1616:1618   */\n    tag_78:\n        /* \"#utility.yul\":1775:1776   */\n      0x00\n        /* \"#utility.yul\":1800:1853   */\n      tag_80\n        /* \"#utility.yul\":1845:1852   */\n      dup10\n        /* \"#utility.yul\":1836:1842   */\n      dup3\n        /* \"#utility.yul\":1825:1834   */\n      dup11\n        /* \"#utility.yul\":1821:1843   */\n      add\n        /* \"#utility.yul\":1800:1853   */\n      tag_51\n      jump\t// in\n    tag_80:\n        /* \"#utility.yul\":1790:1853   */\n      swap7\n      pop\n        /* \"#utility.yul\":1746:1863   */\n      pop\n        /* \"#utility.yul\":1902:1904   */\n      0x20\n        /* \"#utility.yul\":1928:1981   */\n      tag_81\n        /* \"#utility.yul\":1973:1980   */\n      dup10\n        /* \"#utility.yul\":1964:1970   */\n      dup3\n        /* \"#utility.yul\":1953:1962   */\n      dup11\n        /* \"#utility.yul\":1949:1971   */\n      add\n        /* \"#utility.yul\":1928:1981   */\n      tag_63\n      jump\t// in\n    tag_81:\n        /* \"#utility.yul\":1918:1981   */\n      swap6\n      pop\n        /* \"#utility.yul\":1873:1991   */\n      pop\n        /* \"#utility.yul\":2030:2032   */\n      0x40\n        /* \"#utility.yul\":2056:2109   */\n      tag_82\n        /* \"#utility.yul\":2101:2108   */\n      dup10\n        /* \"#utility.yul\":2092:2098   */\n      dup3\n        /* \"#utility.yul\":2081:2090   */\n      dup11\n        /* \"#utility.yul\":2077:2099   */\n      add\n        /* \"#utility.yul\":2056:2109   */\n      tag_63\n      jump\t// in\n    tag_82:\n        /* \"#utility.yul\":2046:2109   */\n      swap5\n      pop\n        /* \"#utility.yul\":2001:2119   */\n      pop\n        /* \"#utility.yul\":2158:2160   */\n      0x60\n        /* \"#utility.yul\":2184:2237   */\n      tag_83\n        /* \"#utility.yul\":2229:2236   */\n      dup10\n        /* \"#utility.yul\":2220:2226   */\n      dup3\n        /* \"#utility.yul\":2209:2218   */\n      dup11\n        /* \"#utility.yul\":2205:2227   */\n      add\n        /* \"#utility.yul\":2184:2237   */\n      tag_63\n      jump\t// in\n    tag_83:\n        /* \"#utility.yul\":2174:2237   */\n      swap4\n      pop\n        /* \"#utility.yul\":2129:2247   */\n      pop\n        /* \"#utility.yul\":2286:2289   */\n      0x80\n        /* \"#utility.yul\":2313:2366   */\n      tag_84\n        /* \"#utility.yul\":2358:2365   */\n      dup10\n        /* \"#utility.yul\":2349:2355   */\n      dup3\n        /* \"#utility.yul\":2338:2347   */\n      dup11\n        /* \"#utility.yul\":2334:2356   */\n      add\n        /* \"#utility.yul\":2313:2366   */\n      tag_63\n      jump\t// in\n    tag_84:\n        /* \"#utility.yul\":2303:2366   */\n      swap3\n      pop\n        /* \"#utility.yul\":2257:2376   */\n      pop\n        /* \"#utility.yul\":2415:2418   */\n      0xa0\n        /* \"#utility.yul\":2442:2494   */\n      tag_85\n        /* \"#utility.yul\":2486:2493   */\n      dup10\n        /* \"#utility.yul\":2477:2483   */\n      dup3\n        /* \"#utility.yul\":2466:2475   */\n      dup11\n        /* \"#utility.yul\":2462:2484   */\n      add\n        /* \"#utility.yul\":2442:2494   */\n      tag_59\n      jump\t// in\n    tag_85:\n        /* \"#utility.yul\":2432:2494   */\n      swap2\n      pop\n        /* \"#utility.yul\":2386:2504   */\n      pop\n        /* \"#utility.yul\":1606:2511   */\n      swap3\n      swap6\n      pop\n      swap3\n      swap6\n      pop\n      swap3\n      swap6\n      jump\t// out\n        /* \"#utility.yul\":2517:2635   */\n    tag_86:\n        /* \"#utility.yul\":2604:2628   */\n      tag_88\n        /* \"#utility.yul\":2622:2627   */\n      dup2\n        /* \"#utility.yul\":2604:2628   */\n      tag_89\n      jump\t// in\n    tag_88:\n        /* \"#utility.yul\":2599:2602   */\n      dup3\n        /* \"#utility.yul\":2592:2629   */\n      mstore\n        /* \"#utility.yul\":2582:2635   */\n      pop\n      pop\n      jump\t// out\n        /* \"#utility.yul\":2641:2756   */\n    tag_90:\n        /* \"#utility.yul\":2726:2749   */\n      tag_92\n        /* \"#utility.yul\":2743:2748   */\n      dup2\n        /* \"#utility.yul\":2726:2749   */\n      tag_93\n      jump\t// in\n    tag_92:\n        /* \"#utility.yul\":2721:2724   */\n      dup3\n        /* \"#utility.yul\":2714:2750   */\n      mstore\n        /* \"#utility.yul\":2704:2756   */\n      pop\n      pop\n      jump\t// out\n        /* \"#utility.yul\":2762:3128   */\n    tag_94:\n        /* \"#utility.yul\":2904:2907   */\n      0x00\n        /* \"#utility.yul\":2925:2992   */\n      tag_96\n        /* \"#utility.yul\":2989:2991   */\n      0x24\n        /* \"#utility.yul\":2984:2987   */\n      dup4\n        /* \"#utility.yul\":2925:2992   */\n      tag_97\n      jump\t// in\n    tag_96:\n        /* \"#utility.yul\":2918:2992   */\n      swap2\n      pop\n        /* \"#utility.yul\":3001:3094   */\n      tag_98\n        /* \"#utility.yul\":3090:3093   */\n      dup3\n        /* \"#utility.yul\":3001:3094   */\n      tag_99\n      jump\t// in\n    tag_98:\n        /* \"#utility.yul\":3119:3121   */\n      0x40\n        /* \"#utility.yul\":3114:3117   */\n      dup3\n        /* \"#utility.yul\":3110:3122   */\n      add\n        /* \"#utility.yul\":3103:3122   */\n      swap1\n      pop\n        /* \"#utility.yul\":2908:3128   */\n      swap2\n      swap1\n      pop\n      jump\t// out\n        /* \"#utility.yul\":3134:3500   */\n    tag_100:\n        /* \"#utility.yul\":3276:3279   */\n      0x00\n        /* \"#utility.yul\":3297:3364   */\n      tag_102\n        /* \"#utility.yul\":3361:3363   */\n      0x29\n        /* \"#utility.yul\":3356:3359   */\n      dup4\n        /* \"#utility.yul\":3297:3364   */\n      tag_97\n      jump\t// in\n    tag_102:\n        /* \"#utility.yul\":3290:3364   */\n      swap2\n      pop\n        /* \"#utility.yul\":3373:3466   */\n      tag_103\n        /* \"#utility.yul\":3462:3465   */\n      dup3\n        /* \"#utility.yul\":3373:3466   */\n      tag_104\n      jump\t// in\n    tag_103:\n        /* \"#utility.yul\":3491:3493   */\n      0x40\n        /* \"#utility.yul\":3486:3489   */\n      dup3\n        /* \"#utility.yul\":3482:3494   */\n      add\n        /* \"#utility.yul\":3475:3494   */\n      swap1\n      pop\n        /* \"#utility.yul\":3280:3500   */\n      swap2\n      swap1\n      pop\n      jump\t// out\n        /* \"#utility.yul\":3506:3624   */\n    tag_105:\n        /* \"#utility.yul\":3593:3617   */\n      tag_107\n        /* \"#utility.yul\":3611:3616   */\n      dup2\n        /* \"#utility.yul\":3593:3617   */\n      tag_108\n      jump\t// in\n    tag_107:\n        /* \"#utility.yul\":3588:3591   */\n      dup3\n        /* \"#utility.yul\":3581:3618   */\n      mstore\n        /* \"#utility.yul\":3571:3624   */\n      pop\n      pop\n      jump\t// out\n        /* \"#utility.yul\":3630:3852   */\n    tag_10:\n        /* \"#utility.yul\":3723:3727   */\n      0x00\n        /* \"#utility.yul\":3761:3763   */\n      0x20\n        /* \"#utility.yul\":3750:3759   */\n      dup3\n        /* \"#utility.yul\":3746:3764   */\n      add\n        /* \"#utility.yul\":3738:3764   */\n      swap1\n      pop\n        /* \"#utility.yul\":3774:3845   */\n      tag_110\n        /* \"#utility.yul\":3842:3843   */\n      0x00\n        /* \"#utility.yul\":3831:3840   */\n      dup4\n        /* \"#utility.yul\":3827:3844   */\n      add\n        /* \"#utility.yul\":3818:3824   */\n      dup5\n        /* \"#utility.yul\":3774:3845   */\n      tag_86\n      jump\t// in\n    tag_110:\n        /* \"#utility.yul\":3728:3852   */\n      swap3\n      swap2\n      pop\n      pop\n      jump\t// out\n        /* \"#utility.yul\":3858:4186   */\n    tag_16:\n        /* \"#utility.yul\":3977:3981   */\n      0x00\n        /* \"#utility.yul\":4015:4017   */\n      0x40\n        /* \"#utility.yul\":4004:4013   */\n      dup3\n        /* \"#utility.yul\":4000:4018   */\n      add\n        /* \"#utility.yul\":3992:4018   */\n      swap1\n      pop\n        /* \"#utility.yul\":4028:4099   */\n      tag_112\n        /* \"#utility.yul\":4096:4097   */\n      0x00\n        /* \"#utility.yul\":4085:4094   */\n      dup4\n        /* \"#utility.yul\":4081:4098   */\n      add\n        /* \"#utility.yul\":4072:4078   */\n      dup6\n        /* \"#utility.yul\":4028:4099   */\n      tag_86\n      jump\t// in\n    tag_112:\n        /* \"#utility.yul\":4109:4179   */\n      tag_113\n        /* \"#utility.yul\":4175:4177   */\n      0x20\n        /* \"#utility.yul\":4164:4173   */\n      dup4\n        /* \"#utility.yul\":4160:4178   */\n      add\n        /* \"#utility.yul\":4151:4157   */\n      dup5\n        /* \"#utility.yul\":4109:4179   */\n      tag_90\n      jump\t// in\n    tag_113:\n        /* \"#utility.yul\":3982:4186   */\n      swap4\n      swap3\n      pop\n      pop\n      pop\n      jump\t// out\n        /* \"#utility.yul\":4192:4856   */\n    tag_25:\n        /* \"#utility.yul\":4397:4401   */\n      0x00\n        /* \"#utility.yul\":4435:4438   */\n      0xa0\n        /* \"#utility.yul\":4424:4433   */\n      dup3\n        /* \"#utility.yul\":4420:4439   */\n      add\n        /* \"#utility.yul\":4412:4439   */\n      swap1\n      pop\n        /* \"#utility.yul\":4449:4520   */\n      tag_115\n        /* \"#utility.yul\":4517:4518   */\n      0x00\n        /* \"#utility.yul\":4506:4515   */\n      dup4\n        /* \"#utility.yul\":4502:4519   */\n      add\n        /* \"#utility.yul\":4493:4499   */\n      dup9\n        /* \"#utility.yul\":4449:4520   */\n      tag_86\n      jump\t// in\n    tag_115:\n        /* \"#utility.yul\":4530:4602   */\n      tag_116\n        /* \"#utility.yul\":4598:4600   */\n      0x20\n        /* \"#utility.yul\":4587:4596   */\n      dup4\n        /* \"#utility.yul\":4583:4601   */\n      add\n        /* \"#utility.yul\":4574:4580   */\n      dup8\n        /* \"#utility.yul\":4530:4602   */\n      tag_105\n      jump\t// in\n    tag_116:\n        /* \"#utility.yul\":4612:4684   */\n      tag_117\n        /* \"#utility.yul\":4680:4682   */\n      0x40\n        /* \"#utility.yul\":4669:4678   */\n      dup4\n        /* \"#utility.yul\":4665:4683   */\n      add\n        /* \"#utility.yul\":4656:4662   */\n      dup7\n        /* \"#utility.yul\":4612:4684   */\n      tag_105\n      jump\t// in\n    tag_117:\n        /* \"#utility.yul\":4694:4766   */\n      tag_118\n        /* \"#utility.yul\":4762:4764   */\n      0x60\n        /* \"#utility.yul\":4751:4760   */\n      dup4\n        /* \"#utility.yul\":4747:4765   */\n      add\n        /* \"#utility.yul\":4738:4744   */\n      dup6\n        /* \"#utility.yul\":4694:4766   */\n      tag_105\n      jump\t// in\n    tag_118:\n        /* \"#utility.yul\":4776:4849   */\n      tag_119\n        /* \"#utility.yul\":4844:4847   */\n      0x80\n        /* \"#utility.yul\":4833:4842   */\n      dup4\n        /* \"#utility.yul\":4829:4848   */\n      add\n        /* \"#utility.yul\":4820:4826   */\n      dup5\n        /* \"#utility.yul\":4776:4849   */\n      tag_105\n      jump\t// in\n    tag_119:\n        /* \"#utility.yul\":4402:4856   */\n      swap7\n      swap6\n      pop\n      pop\n      pop\n      pop\n      pop\n      pop\n      jump\t// out\n        /* \"#utility.yul\":4862:5281   */\n    tag_20:\n        /* \"#utility.yul\":5028:5032   */\n      0x00\n        /* \"#utility.yul\":5066:5068   */\n      0x20\n        /* \"#utility.yul\":5055:5064   */\n      dup3\n        /* \"#utility.yul\":5051:5069   */\n      add\n        /* \"#utility.yul\":5043:5069   */\n      swap1\n      pop\n        /* \"#utility.yul\":5115:5124   */\n      dup2\n        /* \"#utility.yul\":5109:5113   */\n      dup2\n        /* \"#utility.yul\":5105:5125   */\n      sub\n        /* \"#utility.yul\":5101:5102   */\n      0x00\n        /* \"#utility.yul\":5090:5099   */\n      dup4\n        /* \"#utility.yul\":5086:5103   */\n      add\n        /* \"#utility.yul\":5079:5126   */\n      mstore\n        /* \"#utility.yul\":5143:5274   */\n      tag_121\n        /* \"#utility.yul\":5269:5273   */\n      dup2\n        /* \"#utility.yul\":5143:5274   */\n      tag_94\n      jump\t// in\n    tag_121:\n        /* \"#utility.yul\":5135:5274   */\n      swap1\n      pop\n        /* \"#utility.yul\":5033:5281   */\n      swap2\n      swap1\n      pop\n      jump\t// out\n        /* \"#utility.yul\":5287:5706   */\n    tag_40:\n        /* \"#utility.yul\":5453:5457   */\n      0x00\n        /* \"#utility.yul\":5491:5493   */\n      0x20\n        /* \"#utility.yul\":5480:5489   */\n      dup3\n        /* \"#utility.yul\":5476:5494   */\n      add\n        /* \"#utility.yul\":5468:5494   */\n      swap1\n      pop\n        /* \"#utility.yul\":5540:5549   */\n      dup2\n        /* \"#utility.yul\":5534:5538   */\n      dup2\n        /* \"#utility.yul\":5530:5550   */\n      sub\n        /* \"#utility.yul\":5526:5527   */\n      0x00\n        /* \"#utility.yul\":5515:5524   */\n      dup4\n        /* \"#utility.yul\":5511:5528   */\n      add\n        /* \"#utility.yul\":5504:5551   */\n      mstore\n        /* \"#utility.yul\":5568:5699   */\n      tag_123\n        /* \"#utility.yul\":5694:5698   */\n      dup2\n        /* \"#utility.yul\":5568:5699   */\n      tag_100\n      jump\t// in\n    tag_123:\n        /* \"#utility.yul\":5560:5699   */\n      swap1\n      pop\n        /* \"#utility.yul\":5458:5706   */\n      swap2\n      swap1\n      pop\n      jump\t// out\n        /* \"#utility.yul\":5793:5962   */\n    tag_97:\n        /* \"#utility.yul\":5877:5888   */\n      0x00\n        /* \"#utility.yul\":5911:5917   */\n      dup3\n        /* \"#utility.yul\":5906:5909   */\n      dup3\n        /* \"#utility.yul\":5899:5918   */\n      mstore\n        /* \"#utility.yul\":5951:5955   */\n      0x20\n        /* \"#utility.yul\":5946:5949   */\n      dup3\n        /* \"#utility.yul\":5942:5956   */\n      add\n        /* \"#utility.yul\":5927:5956   */\n      swap1\n      pop\n        /* \"#utility.yul\":5889:5962   */\n      swap3\n      swap2\n      pop\n      pop\n      jump\t// out\n        /* \"#utility.yul\":5968:6064   */\n    tag_89:\n        /* \"#utility.yul\":6005:6012   */\n      0x00\n        /* \"#utility.yul\":6034:6058   */\n      tag_128\n        /* \"#utility.yul\":6052:6057   */\n      dup3\n        /* \"#utility.yul\":6034:6058   */\n      tag_129\n      jump\t// in\n    tag_128:\n        /* \"#utility.yul\":6023:6058   */\n      swap1\n      pop\n        /* \"#utility.yul\":6013:6064   */\n      swap2\n      swap1\n      pop\n      jump\t// out\n        /* \"#utility.yul\":6070:6174   */\n    tag_130:\n        /* \"#utility.yul\":6115:6122   */\n      0x00\n        /* \"#utility.yul\":6144:6168   */\n      tag_132\n        /* \"#utility.yul\":6162:6167   */\n      dup3\n        /* \"#utility.yul\":6144:6168   */\n      tag_129\n      jump\t// in\n    tag_132:\n        /* \"#utility.yul\":6133:6168   */\n      swap1\n      pop\n        /* \"#utility.yul\":6123:6174   */\n      swap2\n      swap1\n      pop\n      jump\t// out\n        /* \"#utility.yul\":6180:6256   */\n    tag_93:\n        /* \"#utility.yul\":6216:6223   */\n      0x00\n        /* \"#utility.yul\":6245:6250   */\n      dup2\n        /* \"#utility.yul\":6234:6250   */\n      swap1\n      pop\n        /* \"#utility.yul\":6224:6256   */\n      swap2\n      swap1\n      pop\n      jump\t// out\n        /* \"#utility.yul\":6262:6388   */\n    tag_129:\n        /* \"#utility.yul\":6299:6306   */\n      0x00\n        /* \"#utility.yul\":6339:6381   */\n      0xffffffffffffffffffffffffffffffffffffffff\n        /* \"#utility.yul\":6332:6337   */\n      dup3\n        /* \"#utility.yul\":6328:6382   */\n      and\n        /* \"#utility.yul\":6317:6382   */\n      swap1\n      pop\n        /* \"#utility.yul\":6307:6388   */\n      swap2\n      swap1\n      pop\n      jump\t// out\n        /* \"#utility.yul\":6394:6471   */\n    tag_108:\n        /* \"#utility.yul\":6431:6438   */\n      0x00\n        /* \"#utility.yul\":6460:6465   */\n      dup2\n        /* \"#utility.yul\":6449:6465   */\n      swap1\n      pop\n        /* \"#utility.yul\":6439:6471   */\n      swap2\n      swap1\n      pop\n      jump\t// out\n        /* \"#utility.yul\":6600:6717   */\n    tag_70:\n        /* \"#utility.yul\":6709:6710   */\n      0x00\n        /* \"#utility.yul\":6706:6707   */\n      dup1\n        /* \"#utility.yul\":6699:6711   */\n      revert\n        /* \"#utility.yul\":6723:6946   */\n    tag_99:\n        /* \"#utility.yul\":6863:6897   */\n      0x4f6e6c79207468652061646d696e2063616e2075736520746869732066756e63\n        /* \"#utility.yul\":6859:6860   */\n      0x00\n        /* \"#utility.yul\":6851:6857   */\n      dup3\n        /* \"#utility.yul\":6847:6861   */\n      add\n        /* \"#utility.yul\":6840:6898   */\n      mstore\n        /* \"#utility.yul\":6932:6938   */\n      0x74696f6e00000000000000000000000000000000000000000000000000000000\n        /* \"#utility.yul\":6927:6929   */\n      0x20\n        /* \"#utility.yul\":6919:6925   */\n      dup3\n        /* \"#utility.yul\":6915:6930   */\n      add\n        /* \"#utility.yul\":6908:6939   */\n      mstore\n        /* \"#utility.yul\":6829:6946   */\n      pop\n      jump\t// out\n        /* \"#utility.yul\":6952:7180   */\n    tag_104:\n        /* \"#utility.yul\":7092:7126   */\n      0x4f6e6c79207468652070617965652063616e20617070726f7665207468697320\n        /* \"#utility.yul\":7088:7089   */\n      0x00\n        /* \"#utility.yul\":7080:7086   */\n      dup3\n        /* \"#utility.yul\":7076:7090   */\n      add\n        /* \"#utility.yul\":7069:7127   */\n      mstore\n        /* \"#utility.yul\":7161:7172   */\n      0x636f6e74726163742e0000000000000000000000000000000000000000000000\n        /* \"#utility.yul\":7156:7158   */\n      0x20\n        /* \"#utility.yul\":7148:7154   */\n      dup3\n        /* \"#utility.yul\":7144:7159   */\n      add\n        /* \"#utility.yul\":7137:7173   */\n      mstore\n        /* \"#utility.yul\":7058:7180   */\n      pop\n      jump\t// out\n        /* \"#utility.yul\":7186:7308   */\n    tag_54:\n        /* \"#utility.yul\":7259:7283   */\n      tag_142\n        /* \"#utility.yul\":7277:7282   */\n      dup2\n        /* \"#utility.yul\":7259:7283   */\n      tag_89\n      jump\t// in\n    tag_142:\n        /* \"#utility.yul\":7252:7257   */\n      dup2\n        /* \"#utility.yul\":7249:7284   */\n      eq\n        /* \"#utility.yul\":7239:7241   */\n      tag_143\n      jumpi\n        /* \"#utility.yul\":7298:7299   */\n      0x00\n        /* \"#utility.yul\":7295:7296   */\n      dup1\n        /* \"#utility.yul\":7288:7300   */\n      revert\n        /* \"#utility.yul\":7239:7241   */\n    tag_143:\n        /* \"#utility.yul\":7229:7308   */\n      pop\n      jump\t// out\n        /* \"#utility.yul\":7314:7452   */\n    tag_58:\n        /* \"#utility.yul\":7395:7427   */\n      tag_145\n        /* \"#utility.yul\":7421:7426   */\n      dup2\n        /* \"#utility.yul\":7395:7427   */\n      tag_130\n      jump\t// in\n    tag_145:\n        /* \"#utility.yul\":7388:7393   */\n      dup2\n        /* \"#utility.yul\":7385:7428   */\n      eq\n        /* \"#utility.yul\":7375:7377   */\n      tag_146\n      jumpi\n        /* \"#utility.yul\":7442:7443   */\n      0x00\n        /* \"#utility.yul\":7439:7440   */\n      dup1\n        /* \"#utility.yul\":7432:7444   */\n      revert\n        /* \"#utility.yul\":7375:7377   */\n    tag_146:\n        /* \"#utility.yul\":7365:7452   */\n      pop\n      jump\t// out\n        /* \"#utility.yul\":7458:7578   */\n    tag_62:\n        /* \"#utility.yul\":7530:7553   */\n      tag_148\n        /* \"#utility.yul\":7547:7552   */\n      dup2\n        /* \"#utility.yul\":7530:7553   */\n      tag_93\n      jump\t// in\n    tag_148:\n        /* \"#utility.yul\":7523:7528   */\n      dup2\n        /* \"#utility.yul\":7520:7554   */\n      eq\n        /* \"#utility.yul\":7510:7512   */\n      tag_149\n      jumpi\n        /* \"#utility.yul\":7568:7569   */\n      0x00\n        /* \"#utility.yul\":7565:7566   */\n      dup1\n        /* \"#utility.yul\":7558:7570   */\n      revert\n        /* \"#utility.yul\":7510:7512   */\n    tag_149:\n        /* \"#utility.yul\":7500:7578   */\n      pop\n      jump\t// out\n        /* \"#utility.yul\":7584:7706   */\n    tag_66:\n        /* \"#utility.yul\":7657:7681   */\n      tag_151\n        /* \"#utility.yul\":7675:7680   */\n      dup2\n        /* \"#utility.yul\":7657:7681   */\n      tag_108\n      jump\t// in\n    tag_151:\n        /* \"#utility.yul\":7650:7655   */\n      dup2\n        /* \"#utility.yul\":7647:7682   */\n      eq\n        /* \"#utility.yul\":7637:7639   */\n      tag_152\n      jumpi\n        /* \"#utility.yul\":7696:7697   */\n      0x00\n        /* \"#utility.yul\":7693:7694   */\n      dup1\n        /* \"#utility.yul\":7686:7698   */\n      revert\n        /* \"#utility.yul\":7637:7639   */\n    tag_152:\n        /* \"#utility.yul\":7627:7706   */\n      pop\n      jump\t// out\n\n    auxdata: 0xa2646970667358221220a59da15a6732dfcd8e1babd8b03d6ba1131455c6f11f9719233600dd3f10be9264736f6c63430008060033\n}\n",
    "bytecode": {
      "linkReferences": {},
      "object": "608060405234801561001057600080fd5b50604051610c34380380610c34833981810160405281019061003291906100ce565b80600160006101000a81548173ffffffffffffffffffffffffffffffffffffffff021916908373ffffffffffffffffffffffffffffffffffffffff160217905550336000806101000a81548173ffffffffffffffffffffffffffffffffffffffff021916908373ffffffffffffffffffffffffffffffffffffffff16021790555050610149565b6000815190506100c881610132565b92915050565b6000602082840312156100e4576100e361012d565b5b60006100f2848285016100b9565b91505092915050565b60006101068261010d565b9050919050565b600073ffffffffffffffffffffffffffffffffffffffff82169050919050565b600080fd5b61013b816100fb565b811461014657600080fd5b50565b610adc806101586000396000f3fe608060405234801561001057600080fd5b50600436106100365760003560e01c80630dfd002d1461003b578063d4e12f2e1461006b575b600080fd5b61005560048036038101906100509190610767565b61009c565b6040516100629190610867565b60405180910390f35b61008560048036038101906100809190610727565b610325565b604051610093929190610882565b60405180910390f35b60008060009054906101000a900473ffffffffffffffffffffffffffffffffffffffff1673ffffffffffffffffffffffffffffffffffffffff163373ffffffffffffffffffffffffffffffffffffffff161461012d576040517f08c379a0000000000000000000000000000000000000000000000000000000008152600401610124906108fe565b60405180910390fd5b600061015a600160009054906101000a900473ffffffffffffffffffffffffffffffffffffffff1661063c565b90508073ffffffffffffffffffffffffffffffffffffffff16639a73061789898989896040518663ffffffff1660e01b815260040161019d9594939291906108ab565b600060405180830381600087803b1580156101b757600080fd5b505af11580156101cb573d6000803e3d6000fd5b50505050600073ffffffffffffffffffffffffffffffffffffffff166002600085815260200190815260200160002060009054906101000a900473ffffffffffffffffffffffffffffffffffffffff1673ffffffffffffffffffffffffffffffffffffffff161461028d57806003600085815260200190815260200160002060006101000a81548173ffffffffffffffffffffffffffffffffffffffff021916908373ffffffffffffffffffffffffffffffffffffffff1602179055506102e0565b806002600085815260200190815260200160002060006101000a81548173ffffffffffffffffffffffffffffffffffffffff021916908373ffffffffffffffffffffffffffffffffffffffff1602179055505b7f4e1d29e2852465a104ae5b46a21386067094efd4c78e8fca5fbd0f73155f83ec8160405161030f9190610867565b60405180910390a1809150509695505050505050565b6000808373ffffffffffffffffffffffffffffffffffffffff1663ae90b2136040518163ffffffff1660e01b815260040160206040518083038186803b15801561036e57600080fd5b505afa158015610382573d6000803e3d6000fd5b505050506040513d601f19601f820116820180604052508101906103a691906106fa565b73ffffffffffffffffffffffffffffffffffffffff163373ffffffffffffffffffffffffffffffffffffffff1614610413576040517f08c379a000000000000000000000000000000000000000000000000000000000815260040161040a9061091e565b60405180910390fd5b8373ffffffffffffffffffffffffffffffffffffffff166312424e3f6040518163ffffffff1660e01b8152600401600060405180830381600087803b15801561045b57600080fd5b505af115801561046f573d6000803e3d6000fd5b50505050600073ffffffffffffffffffffffffffffffffffffffff166003600085815260200190815260200160002060009054906101000a900473ffffffffffffffffffffffffffffffffffffffff1673ffffffffffffffffffffffffffffffffffffffff16146105f6576002600084815260200190815260200160002060009054906101000a900473ffffffffffffffffffffffffffffffffffffffff1673ffffffffffffffffffffffffffffffffffffffff166383197ef06040518163ffffffff1660e01b8152600401600060405180830381600087803b15801561055557600080fd5b505af1158015610569573d6000803e3d6000fd5b505050506003600084815260200190815260200160002060006101000a81549073ffffffffffffffffffffffffffffffffffffffff0219169055836002600085815260200190815260200160002060006101000a81548173ffffffffffffffffffffffffffffffffffffffff021916908373ffffffffffffffffffffffffffffffffffffffff1602179055505b7fa632268b4e910a424b413fd0bd0a48d43ad05e1cf3920dfb1573c2c39b495f5b8484604051610627929190610882565b60405180910390a18383915091509250929050565b6000808260601b90506040517f3d602d80600a3d3981f3363d3d373d3d3d363d7300000000000000000000000081528160148201527f5af43d82803e903d91602b57fd5bf3000000000000000000000000000000000060288201526037816000f092505050919050565b6000813590506106b581610a4a565b92915050565b6000815190506106ca81610a61565b92915050565b6000813590506106df81610a78565b92915050565b6000813590506106f481610a8f565b92915050565b6000602082840312156107105761070f6109a7565b5b600061071e848285016106bb565b91505092915050565b6000806040838503121561073e5761073d6109a7565b5b600061074c858286016106a6565b925050602061075d858286016106d0565b9150509250929050565b60008060008060008060c08789031215610784576107836109a7565b5b600061079289828a016106a6565b96505060206107a389828a016106e5565b95505060406107b489828a016106e5565b94505060606107c589828a016106e5565b93505060806107d689828a016106e5565b92505060a06107e789828a016106d0565b9150509295509295509295565b6107fd8161094f565b82525050565b61080c81610973565b82525050565b600061081f60248361093e565b915061082a826109ac565b604082019050919050565b600061084260298361093e565b915061084d826109fb565b604082019050919050565b6108618161099d565b82525050565b600060208201905061087c60008301846107f4565b92915050565b600060408201905061089760008301856107f4565b6108a46020830184610803565b9392505050565b600060a0820190506108c060008301886107f4565b6108cd6020830187610858565b6108da6040830186610858565b6108e76060830185610858565b6108f46080830184610858565b9695505050505050565b6000602082019050818103600083015261091781610812565b9050919050565b6000602082019050818103600083015261093781610835565b9050919050565b600082825260208201905092915050565b600061095a8261097d565b9050919050565b600061096c8261097d565b9050919050565b6000819050919050565b600073ffffffffffffffffffffffffffffffffffffffff82169050919050565b6000819050919050565b600080fd5b7f4f6e6c79207468652061646d696e2063616e2075736520746869732066756e6360008201527f74696f6e00000000000000000000000000000000000000000000000000000000602082015250565b7f4f6e6c79207468652070617965652063616e20617070726f766520746869732060008201527f636f6e74726163742e0000000000000000000000000000000000000000000000602082015250565b610a538161094f565b8114610a5e57600080fd5b50565b610a6a81610961565b8114610a7557600080fd5b50565b610a8181610973565b8114610a8c57600080fd5b50565b610a988161099d565b8114610aa357600080fd5b5056fea2646970667358221220a59da15a6732dfcd8e1babd8b03d6ba1131455c6f11f9719233600dd3f10be9264736f6c63430008060033",
      "opcodes": "PUSH1 0x80 PUSH1 0x40 MSTORE CALLVALUE DUP1 ISZERO PUSH2 0x10 JUMPI PUSH1 0x0 DUP1 REVERT JUMPDEST POP PUSH1 0x40 MLOAD PUSH2 0xC34 CODESIZE SUB DUP1 PUSH2 0xC34 DUP4 CODECOPY DUP2 DUP2 ADD PUSH1 0x40 MSTORE DUP2 ADD SWAP1 PUSH2 0x32 SWAP2 SWAP1 PUSH2 0xCE JUMP JUMPDEST DUP1 PUSH1 0x1 PUSH1 0x0 PUSH2 0x100 EXP DUP2 SLOAD DUP2 PUSH20 0xFFFFFFFFFFFFFFFFFFFFFFFFFFFFFFFFFFFFFFFF MUL NOT AND SWAP1 DUP4 PUSH20 0xFFFFFFFFFFFFFFFFFFFFFFFFFFFFFFFFFFFFFFFF AND MUL OR SWAP1 SSTORE POP CALLER PUSH1 0x0 DUP1 PUSH2 0x100 EXP DUP2 SLOAD DUP2 PUSH20 0xFFFFFFFFFFFFFFFFFFFFFFFFFFFFFFFFFFFFFFFF MUL NOT AND SWAP1 DUP4 PUSH20 0xFFFFFFFFFFFFFFFFFFFFFFFFFFFFFFFFFFFFFFFF AND MUL OR SWAP1 SSTORE POP POP PUSH2 0x149 JUMP JUMPDEST PUSH1 0x0 DUP2 MLOAD SWAP1 POP PUSH2 0xC8 DUP2 PUSH2 0x132 JUMP JUMPDEST SWAP3 SWAP2 POP POP JUMP JUMPDEST PUSH1 0x0 PUSH1 0x20 DUP3 DUP5 SUB SLT ISZERO PUSH2 0xE4 JUMPI PUSH2 0xE3 PUSH2 0x12D JUMP JUMPDEST JUMPDEST PUSH1 0x0 PUSH2 0xF2 DUP5 DUP3 DUP6 ADD PUSH2 0xB9 JUMP JUMPDEST SWAP2 POP POP SWAP3 SWAP2 POP POP JUMP JUMPDEST PUSH1 0x0 PUSH2 0x106 DUP3 PUSH2 0x10D JUMP JUMPDEST SWAP1 POP SWAP2 SWAP1 POP JUMP JUMPDEST PUSH1 0x0 PUSH20 0xFFFFFFFFFFFFFFFFFFFFFFFFFFFFFFFFFFFFFFFF DUP3 AND SWAP1 POP SWAP2 SWAP1 POP JUMP JUMPDEST PUSH1 0x0 DUP1 REVERT JUMPDEST PUSH2 0x13B DUP2 PUSH2 0xFB JUMP JUMPDEST DUP2 EQ PUSH2 0x146 JUMPI PUSH1 0x0 DUP1 REVERT JUMPDEST POP JUMP JUMPDEST PUSH2 0xADC DUP1 PUSH2 0x158 PUSH1 0x0 CODECOPY PUSH1 0x0 RETURN INVALID PUSH1 0x80 PUSH1 0x40 MSTORE CALLVALUE DUP1 ISZERO PUSH2 0x10 JUMPI PUSH1 0x0 DUP1 REVERT JUMPDEST POP PUSH1 0x4 CALLDATASIZE LT PUSH2 0x36 JUMPI PUSH1 0x0 CALLDATALOAD PUSH1 0xE0 SHR DUP1 PUSH4 0xDFD002D EQ PUSH2 0x3B JUMPI DUP1 PUSH4 0xD4E12F2E EQ PUSH2 0x6B JUMPI JUMPDEST PUSH1 0x0 DUP1 REVERT JUMPDEST PUSH2 0x55 PUSH1 0x4 DUP1 CALLDATASIZE SUB DUP2 ADD SWAP1 PUSH2 0x50 SWAP2 SWAP1 PUSH2 0x767 JUMP JUMPDEST PUSH2 0x9C JUMP JUMPDEST PUSH1 0x40 MLOAD PUSH2 0x62 SWAP2 SWAP1 PUSH2 0x867 JUMP JUMPDEST PUSH1 0x40 MLOAD DUP1 SWAP2 SUB SWAP1 RETURN JUMPDEST PUSH2 0x85 PUSH1 0x4 DUP1 CALLDATASIZE SUB DUP2 ADD SWAP1 PUSH2 0x80 SWAP2 SWAP1 PUSH2 0x727 JUMP JUMPDEST PUSH2 0x325 JUMP JUMPDEST PUSH1 0x40 MLOAD PUSH2 0x93 SWAP3 SWAP2 SWAP1 PUSH2 0x882 JUMP JUMPDEST PUSH1 0x40 MLOAD DUP1 SWAP2 SUB SWAP1 RETURN JUMPDEST PUSH1 0x0 DUP1 PUSH1 0x0 SWAP1 SLOAD SWAP1 PUSH2 0x100 EXP SWAP1 DIV PUSH20 0xFFFFFFFFFFFFFFFFFFFFFFFFFFFFFFFFFFFFFFFF AND PUSH20 0xFFFFFFFFFFFFFFFFFFFFFFFFFFFFFFFFFFFFFFFF AND CALLER PUSH20 0xFFFFFFFFFFFFFFFFFFFFFFFFFFFFFFFFFFFFFFFF AND EQ PUSH2 0x12D JUMPI PUSH1 0x40 MLOAD PUSH32 0x8C379A000000000000000000000000000000000000000000000000000000000 DUP2 MSTORE PUSH1 0x4 ADD PUSH2 0x124 SWAP1 PUSH2 0x8FE JUMP JUMPDEST PUSH1 0x40 MLOAD DUP1 SWAP2 SUB SWAP1 REVERT JUMPDEST PUSH1 0x0 PUSH2 0x15A PUSH1 0x1 PUSH1 0x0 SWAP1 SLOAD SWAP1 PUSH2 0x100 EXP SWAP1 DIV PUSH20 0xFFFFFFFFFFFFFFFFFFFFFFFFFFFFFFFFFFFFFFFF AND PUSH2 0x63C JUMP JUMPDEST SWAP1 POP DUP1 PUSH20 0xFFFFFFFFFFFFFFFFFFFFFFFFFFFFFFFFFFFFFFFF AND PUSH4 0x9A730617 DUP10 DUP10 DUP10 DUP10 DUP10 PUSH1 0x40 MLOAD DUP7 PUSH4 0xFFFFFFFF AND PUSH1 0xE0 SHL DUP2 MSTORE PUSH1 0x4 ADD PUSH2 0x19D SWAP6 SWAP5 SWAP4 SWAP3 SWAP2 SWAP1 PUSH2 0x8AB JUMP JUMPDEST PUSH1 0x0 PUSH1 0x40 MLOAD DUP1 DUP4 SUB DUP2 PUSH1 0x0 DUP8 DUP1 EXTCODESIZE ISZERO DUP1 ISZERO PUSH2 0x1B7 JUMPI PUSH1 0x0 DUP1 REVERT JUMPDEST POP GAS CALL ISZERO DUP1 ISZERO PUSH2 0x1CB JUMPI RETURNDATASIZE PUSH1 0x0 DUP1 RETURNDATACOPY RETURNDATASIZE PUSH1 0x0 REVERT JUMPDEST POP POP POP POP PUSH1 0x0 PUSH20 0xFFFFFFFFFFFFFFFFFFFFFFFFFFFFFFFFFFFFFFFF AND PUSH1 0x2 PUSH1 0x0 DUP6 DUP2 MSTORE PUSH1 0x20 ADD SWAP1 DUP2 MSTORE PUSH1 0x20 ADD PUSH1 0x0 KECCAK256 PUSH1 0x0 SWAP1 SLOAD SWAP1 PUSH2 0x100 EXP SWAP1 DIV PUSH20 0xFFFFFFFFFFFFFFFFFFFFFFFFFFFFFFFFFFFFFFFF AND PUSH20 0xFFFFFFFFFFFFFFFFFFFFFFFFFFFFFFFFFFFFFFFF AND EQ PUSH2 0x28D JUMPI DUP1 PUSH1 0x3 PUSH1 0x0 DUP6 DUP2 MSTORE PUSH1 0x20 ADD SWAP1 DUP2 MSTORE PUSH1 0x20 ADD PUSH1 0x0 KECCAK256 PUSH1 0x0 PUSH2 0x100 EXP DUP2 SLOAD DUP2 PUSH20 0xFFFFFFFFFFFFFFFFFFFFFFFFFFFFFFFFFFFFFFFF MUL NOT AND SWAP1 DUP4 PUSH20 0xFFFFFFFFFFFFFFFFFFFFFFFFFFFFFFFFFFFFFFFF AND MUL OR SWAP1 SSTORE POP PUSH2 0x2E0 JUMP JUMPDEST DUP1 PUSH1 0x2 PUSH1 0x0 DUP6 DUP2 MSTORE PUSH1 0x20 ADD SWAP1 DUP2 MSTORE PUSH1 0x20 ADD PUSH1 0x0 KECCAK256 PUSH1 0x0 PUSH2 0x100 EXP DUP2 SLOAD DUP2 PUSH20 0xFFFFFFFFFFFFFFFFFFFFFFFFFFFFFFFFFFFFFFFF MUL NOT AND SWAP1 DUP4 PUSH20 0xFFFFFFFFFFFFFFFFFFFFFFFFFFFFFFFFFFFFFFFF AND MUL OR SWAP1 SSTORE POP JUMPDEST PUSH32 0x4E1D29E2852465A104AE5B46A21386067094EFD4C78E8FCA5FBD0F73155F83EC DUP2 PUSH1 0x40 MLOAD PUSH2 0x30F SWAP2 SWAP1 PUSH2 0x867 JUMP JUMPDEST PUSH1 0x40 MLOAD DUP1 SWAP2 SUB SWAP1 LOG1 DUP1 SWAP2 POP POP SWAP7 SWAP6 POP POP POP POP POP POP JUMP JUMPDEST PUSH1 0x0 DUP1 DUP4 PUSH20 0xFFFFFFFFFFFFFFFFFFFFFFFFFFFFFFFFFFFFFFFF AND PUSH4 0xAE90B213 PUSH1 0x40 MLOAD DUP2 PUSH4 0xFFFFFFFF AND PUSH1 0xE0 SHL DUP2 MSTORE PUSH1 0x4 ADD PUSH1 0x20 PUSH1 0x40 MLOAD DUP1 DUP4 SUB DUP2 DUP7 DUP1 EXTCODESIZE ISZERO DUP1 ISZERO PUSH2 0x36E JUMPI PUSH1 0x0 DUP1 REVERT JUMPDEST POP GAS STATICCALL ISZERO DUP1 ISZERO PUSH2 0x382 JUMPI RETURNDATASIZE PUSH1 0x0 DUP1 RETURNDATACOPY RETURNDATASIZE PUSH1 0x0 REVERT JUMPDEST POP POP POP POP PUSH1 0x40 MLOAD RETURNDATASIZE PUSH1 0x1F NOT PUSH1 0x1F DUP3 ADD AND DUP3 ADD DUP1 PUSH1 0x40 MSTORE POP DUP2 ADD SWAP1 PUSH2 0x3A6 SWAP2 SWAP1 PUSH2 0x6FA JUMP JUMPDEST PUSH20 0xFFFFFFFFFFFFFFFFFFFFFFFFFFFFFFFFFFFFFFFF AND CALLER PUSH20 0xFFFFFFFFFFFFFFFFFFFFFFFFFFFFFFFFFFFFFFFF AND EQ PUSH2 0x413 JUMPI PUSH1 0x40 MLOAD PUSH32 0x8C379A000000000000000000000000000000000000000000000000000000000 DUP2 MSTORE PUSH1 0x4 ADD PUSH2 0x40A SWAP1 PUSH2 0x91E JUMP JUMPDEST PUSH1 0x40 MLOAD DUP1 SWAP2 SUB SWAP1 REVERT JUMPDEST DUP4 PUSH20 0xFFFFFFFFFFFFFFFFFFFFFFFFFFFFFFFFFFFFFFFF AND PUSH4 0x12424E3F PUSH1 0x40 MLOAD DUP2 PUSH4 0xFFFFFFFF AND PUSH1 0xE0 SHL DUP2 MSTORE PUSH1 0x4 ADD PUSH1 0x0 PUSH1 0x40 MLOAD DUP1 DUP4 SUB DUP2 PUSH1 0x0 DUP8 DUP1 EXTCODESIZE ISZERO DUP1 ISZERO PUSH2 0x45B JUMPI PUSH1 0x0 DUP1 REVERT JUMPDEST POP GAS CALL ISZERO DUP1 ISZERO PUSH2 0x46F JUMPI RETURNDATASIZE PUSH1 0x0 DUP1 RETURNDATACOPY RETURNDATASIZE PUSH1 0x0 REVERT JUMPDEST POP POP POP POP PUSH1 0x0 PUSH20 0xFFFFFFFFFFFFFFFFFFFFFFFFFFFFFFFFFFFFFFFF AND PUSH1 0x3 PUSH1 0x0 DUP6 DUP2 MSTORE PUSH1 0x20 ADD SWAP1 DUP2 MSTORE PUSH1 0x20 ADD PUSH1 0x0 KECCAK256 PUSH1 0x0 SWAP1 SLOAD SWAP1 PUSH2 0x100 EXP SWAP1 DIV PUSH20 0xFFFFFFFFFFFFFFFFFFFFFFFFFFFFFFFFFFFFFFFF AND PUSH20 0xFFFFFFFFFFFFFFFFFFFFFFFFFFFFFFFFFFFFFFFF AND EQ PUSH2 0x5F6 JUMPI PUSH1 0x2 PUSH1 0x0 DUP5 DUP2 MSTORE PUSH1 0x20 ADD SWAP1 DUP2 MSTORE PUSH1 0x20 ADD PUSH1 0x0 KECCAK256 PUSH1 0x0 SWAP1 SLOAD SWAP1 PUSH2 0x100 EXP SWAP1 DIV PUSH20 0xFFFFFFFFFFFFFFFFFFFFFFFFFFFFFFFFFFFFFFFF AND PUSH20 0xFFFFFFFFFFFFFFFFFFFFFFFFFFFFFFFFFFFFFFFF AND PUSH4 0x83197EF0 PUSH1 0x40 MLOAD DUP2 PUSH4 0xFFFFFFFF AND PUSH1 0xE0 SHL DUP2 MSTORE PUSH1 0x4 ADD PUSH1 0x0 PUSH1 0x40 MLOAD DUP1 DUP4 SUB DUP2 PUSH1 0x0 DUP8 DUP1 EXTCODESIZE ISZERO DUP1 ISZERO PUSH2 0x555 JUMPI PUSH1 0x0 DUP1 REVERT JUMPDEST POP GAS CALL ISZERO DUP1 ISZERO PUSH2 0x569 JUMPI RETURNDATASIZE PUSH1 0x0 DUP1 RETURNDATACOPY RETURNDATASIZE PUSH1 0x0 REVERT JUMPDEST POP POP POP POP PUSH1 0x3 PUSH1 0x0 DUP5 DUP2 MSTORE PUSH1 0x20 ADD SWAP1 DUP2 MSTORE PUSH1 0x20 ADD PUSH1 0x0 KECCAK256 PUSH1 0x0 PUSH2 0x100 EXP DUP2 SLOAD SWAP1 PUSH20 0xFFFFFFFFFFFFFFFFFFFFFFFFFFFFFFFFFFFFFFFF MUL NOT AND SWAP1 SSTORE DUP4 PUSH1 0x2 PUSH1 0x0 DUP6 DUP2 MSTORE PUSH1 0x20 ADD SWAP1 DUP2 MSTORE PUSH1 0x20 ADD PUSH1 0x0 KECCAK256 PUSH1 0x0 PUSH2 0x100 EXP DUP2 SLOAD DUP2 PUSH20 0xFFFFFFFFFFFFFFFFFFFFFFFFFFFFFFFFFFFFFFFF MUL NOT AND SWAP1 DUP4 PUSH20 0xFFFFFFFFFFFFFFFFFFFFFFFFFFFFFFFFFFFFFFFF AND MUL OR SWAP1 SSTORE POP JUMPDEST PUSH32 0xA632268B4E910A424B413FD0BD0A48D43AD05E1CF3920DFB1573C2C39B495F5B DUP5 DUP5 PUSH1 0x40 MLOAD PUSH2 0x627 SWAP3 SWAP2 SWAP1 PUSH2 0x882 JUMP JUMPDEST PUSH1 0x40 MLOAD DUP1 SWAP2 SUB SWAP1 LOG1 DUP4 DUP4 SWAP2 POP SWAP2 POP SWAP3 POP SWAP3 SWAP1 POP JUMP JUMPDEST PUSH1 0x0 DUP1 DUP3 PUSH1 0x60 SHL SWAP1 POP PUSH1 0x40 MLOAD PUSH32 0x3D602D80600A3D3981F3363D3D373D3D3D363D73000000000000000000000000 DUP2 MSTORE DUP2 PUSH1 0x14 DUP3 ADD MSTORE PUSH32 0x5AF43D82803E903D91602B57FD5BF30000000000000000000000000000000000 PUSH1 0x28 DUP3 ADD MSTORE PUSH1 0x37 DUP2 PUSH1 0x0 CREATE SWAP3 POP POP POP SWAP2 SWAP1 POP JUMP JUMPDEST PUSH1 0x0 DUP2 CALLDATALOAD SWAP1 POP PUSH2 0x6B5 DUP2 PUSH2 0xA4A JUMP JUMPDEST SWAP3 SWAP2 POP POP JUMP JUMPDEST PUSH1 0x0 DUP2 MLOAD SWAP1 POP PUSH2 0x6CA DUP2 PUSH2 0xA61 JUMP JUMPDEST SWAP3 SWAP2 POP POP JUMP JUMPDEST PUSH1 0x0 DUP2 CALLDATALOAD SWAP1 POP PUSH2 0x6DF DUP2 PUSH2 0xA78 JUMP JUMPDEST SWAP3 SWAP2 POP POP JUMP JUMPDEST PUSH1 0x0 DUP2 CALLDATALOAD SWAP1 POP PUSH2 0x6F4 DUP2 PUSH2 0xA8F JUMP JUMPDEST SWAP3 SWAP2 POP POP JUMP JUMPDEST PUSH1 0x0 PUSH1 0x20 DUP3 DUP5 SUB SLT ISZERO PUSH2 0x710 JUMPI PUSH2 0x70F PUSH2 0x9A7 JUMP JUMPDEST JUMPDEST PUSH1 0x0 PUSH2 0x71E DUP5 DUP3 DUP6 ADD PUSH2 0x6BB JUMP JUMPDEST SWAP2 POP POP SWAP3 SWAP2 POP POP JUMP JUMPDEST PUSH1 0x0 DUP1 PUSH1 0x40 DUP4 DUP6 SUB SLT ISZERO PUSH2 0x73E JUMPI PUSH2 0x73D PUSH2 0x9A7 JUMP JUMPDEST JUMPDEST PUSH1 0x0 PUSH2 0x74C DUP6 DUP3 DUP7 ADD PUSH2 0x6A6 JUMP JUMPDEST SWAP3 POP POP PUSH1 0x20 PUSH2 0x75D DUP6 DUP3 DUP7 ADD PUSH2 0x6D0 JUMP JUMPDEST SWAP2 POP POP SWAP3 POP SWAP3 SWAP1 POP JUMP JUMPDEST PUSH1 0x0 DUP1 PUSH1 0x0 DUP1 PUSH1 0x0 DUP1 PUSH1 0xC0 DUP8 DUP10 SUB SLT ISZERO PUSH2 0x784 JUMPI PUSH2 0x783 PUSH2 0x9A7 JUMP JUMPDEST JUMPDEST PUSH1 0x0 PUSH2 0x792 DUP10 DUP3 DUP11 ADD PUSH2 0x6A6 JUMP JUMPDEST SWAP7 POP POP PUSH1 0x20 PUSH2 0x7A3 DUP10 DUP3 DUP11 ADD PUSH2 0x6E5 JUMP JUMPDEST SWAP6 POP POP PUSH1 0x40 PUSH2 0x7B4 DUP10 DUP3 DUP11 ADD PUSH2 0x6E5 JUMP JUMPDEST SWAP5 POP POP PUSH1 0x60 PUSH2 0x7C5 DUP10 DUP3 DUP11 ADD PUSH2 0x6E5 JUMP JUMPDEST SWAP4 POP POP PUSH1 0x80 PUSH2 0x7D6 DUP10 DUP3 DUP11 ADD PUSH2 0x6E5 JUMP JUMPDEST SWAP3 POP POP PUSH1 0xA0 PUSH2 0x7E7 DUP10 DUP3 DUP11 ADD PUSH2 0x6D0 JUMP JUMPDEST SWAP2 POP POP SWAP3 SWAP6 POP SWAP3 SWAP6 POP SWAP3 SWAP6 JUMP JUMPDEST PUSH2 0x7FD DUP2 PUSH2 0x94F JUMP JUMPDEST DUP3 MSTORE POP POP JUMP JUMPDEST PUSH2 0x80C DUP2 PUSH2 0x973 JUMP JUMPDEST DUP3 MSTORE POP POP JUMP JUMPDEST PUSH1 0x0 PUSH2 0x81F PUSH1 0x24 DUP4 PUSH2 0x93E JUMP JUMPDEST SWAP2 POP PUSH2 0x82A DUP3 PUSH2 0x9AC JUMP JUMPDEST PUSH1 0x40 DUP3 ADD SWAP1 POP SWAP2 SWAP1 POP JUMP JUMPDEST PUSH1 0x0 PUSH2 0x842 PUSH1 0x29 DUP4 PUSH2 0x93E JUMP JUMPDEST SWAP2 POP PUSH2 0x84D DUP3 PUSH2 0x9FB JUMP JUMPDEST PUSH1 0x40 DUP3 ADD SWAP1 POP SWAP2 SWAP1 POP JUMP JUMPDEST PUSH2 0x861 DUP2 PUSH2 0x99D JUMP JUMPDEST DUP3 MSTORE POP POP JUMP JUMPDEST PUSH1 0x0 PUSH1 0x20 DUP3 ADD SWAP1 POP PUSH2 0x87C PUSH1 0x0 DUP4 ADD DUP5 PUSH2 0x7F4 JUMP JUMPDEST SWAP3 SWAP2 POP POP JUMP JUMPDEST PUSH1 0x0 PUSH1 0x40 DUP3 ADD SWAP1 POP PUSH2 0x897 PUSH1 0x0 DUP4 ADD DUP6 PUSH2 0x7F4 JUMP JUMPDEST PUSH2 0x8A4 PUSH1 0x20 DUP4 ADD DUP5 PUSH2 0x803 JUMP JUMPDEST SWAP4 SWAP3 POP POP POP JUMP JUMPDEST PUSH1 0x0 PUSH1 0xA0 DUP3 ADD SWAP1 POP PUSH2 0x8C0 PUSH1 0x0 DUP4 ADD DUP9 PUSH2 0x7F4 JUMP JUMPDEST PUSH2 0x8CD PUSH1 0x20 DUP4 ADD DUP8 PUSH2 0x858 JUMP JUMPDEST PUSH2 0x8DA PUSH1 0x40 DUP4 ADD DUP7 PUSH2 0x858 JUMP JUMPDEST PUSH2 0x8E7 PUSH1 0x60 DUP4 ADD DUP6 PUSH2 0x858 JUMP JUMPDEST PUSH2 0x8F4 PUSH1 0x80 DUP4 ADD DUP5 PUSH2 0x858 JUMP JUMPDEST SWAP7 SWAP6 POP POP POP POP POP POP JUMP JUMPDEST PUSH1 0x0 PUSH1 0x20 DUP3 ADD SWAP1 POP DUP2 DUP2 SUB PUSH1 0x0 DUP4 ADD MSTORE PUSH2 0x917 DUP2 PUSH2 0x812 JUMP JUMPDEST SWAP1 POP SWAP2 SWAP1 POP JUMP JUMPDEST PUSH1 0x0 PUSH1 0x20 DUP3 ADD SWAP1 POP DUP2 DUP2 SUB PUSH1 0x0 DUP4 ADD MSTORE PUSH2 0x937 DUP2 PUSH2 0x835 JUMP JUMPDEST SWAP1 POP SWAP2 SWAP1 POP JUMP JUMPDEST PUSH1 0x0 DUP3 DUP3 MSTORE PUSH1 0x20 DUP3 ADD SWAP1 POP SWAP3 SWAP2 POP POP JUMP JUMPDEST PUSH1 0x0 PUSH2 0x95A DUP3 PUSH2 0x97D JUMP JUMPDEST SWAP1 POP SWAP2 SWAP1 POP JUMP JUMPDEST PUSH1 0x0 PUSH2 0x96C DUP3 PUSH2 0x97D JUMP JUMPDEST SWAP1 POP SWAP2 SWAP1 POP JUMP JUMPDEST PUSH1 0x0 DUP2 SWAP1 POP SWAP2 SWAP1 POP JUMP JUMPDEST PUSH1 0x0 PUSH20 0xFFFFFFFFFFFFFFFFFFFFFFFFFFFFFFFFFFFFFFFF DUP3 AND SWAP1 POP SWAP2 SWAP1 POP JUMP JUMPDEST PUSH1 0x0 DUP2 SWAP1 POP SWAP2 SWAP1 POP JUMP JUMPDEST PUSH1 0x0 DUP1 REVERT JUMPDEST PUSH32 0x4F6E6C79207468652061646D696E2063616E2075736520746869732066756E63 PUSH1 0x0 DUP3 ADD MSTORE PUSH32 0x74696F6E00000000000000000000000000000000000000000000000000000000 PUSH1 0x20 DUP3 ADD MSTORE POP JUMP JUMPDEST PUSH32 0x4F6E6C79207468652070617965652063616E20617070726F7665207468697320 PUSH1 0x0 DUP3 ADD MSTORE PUSH32 0x636F6E74726163742E0000000000000000000000000000000000000000000000 PUSH1 0x20 DUP3 ADD MSTORE POP JUMP JUMPDEST PUSH2 0xA53 DUP2 PUSH2 0x94F JUMP JUMPDEST DUP2 EQ PUSH2 0xA5E JUMPI PUSH1 0x0 DUP1 REVERT JUMPDEST POP JUMP JUMPDEST PUSH2 0xA6A DUP2 PUSH2 0x961 JUMP JUMPDEST DUP2 EQ PUSH2 0xA75 JUMPI PUSH1 0x0 DUP1 REVERT JUMPDEST POP JUMP JUMPDEST PUSH2 0xA81 DUP2 PUSH2 0x973 JUMP JUMPDEST DUP2 EQ PUSH2 0xA8C JUMPI PUSH1 0x0 DUP1 REVERT JUMPDEST POP JUMP JUMPDEST PUSH2 0xA98 DUP2 PUSH2 0x99D JUMP JUMPDEST DUP2 EQ PUSH2 0xAA3 JUMPI PUSH1 0x0 DUP1 REVERT JUMPDEST POP JUMP INVALID LOG2 PUSH5 0x6970667358 0x22 SLT KECCAK256 0xA5 SWAP14 LOG1 GAS PUSH8 0x32DFCD8E1BABD8B0 RETURNDATASIZE PUSH12 0xA1131455C6F11F9719233600 0xDD EXTCODEHASH LT 0xBE SWAP3 PUSH5 0x736F6C6343 STOP ADDMOD MOD STOP CALLER "
    },
    "gasEstimates": {
      "creation": {
        "codeDepositCost": "556000",
        "executionCost": "infinite",
        "totalCost": "infinite"
      },
      "external": {
        "approve(address,int256)": "infinite",
        "createVendor(address,uint256,uint256,uint256,uint256,int256)": "infinite"
      }
    },
    "methodIdentifiers": {
      "approve(address,int256)": "d4e12f2e",
      "createVendor(address,uint256,uint256,uint256,uint256,int256)": "0dfd002d"
    }
  },
  "storageLayout": {
    "storage": [
      {
        "astId": 1136,
        "contract": "VendorFactory.sol:VendorFactory",
        "label": "admin",
        "offset": 0,
        "slot": "0",
        "type": "t_address"
      },
      {
        "astId": 1138,
        "contract": "VendorFactory.sol:VendorFactory",
        "label": "implementation",
        "offset": 0,
        "slot": "1",
        "type": "t_address"
      },
      {
        "astId": 1142,
        "contract": "VendorFactory.sol:VendorFactory",
        "label": "vendors",
        "offset": 0,
        "slot": "2",
        "type": "t_mapping(t_int256,t_address)"
      },
      {
        "astId": 1146,
        "contract": "VendorFactory.sol:VendorFactory",
        "label": "updating",
        "offset": 0,
        "slot": "3",
        "type": "t_mapping(t_int256,t_address)"
      }
    ],
    "types": {
      "t_address": {
        "encoding": "inplace",
        "label": "address",
        "numberOfBytes": "20"
      },
      "t_int256": {
        "encoding": "inplace",
        "label": "int256",
        "numberOfBytes": "32"
      },
      "t_mapping(t_int256,t_address)": {
        "encoding": "mapping",
        "key": "t_int256",
        "label": "mapping(int256 => address)",
        "numberOfBytes": "32",
        "value": "t_address"
      }
    }
  },
  "userdoc": {
    "kind": "user",
    "methods": {},
    "notice": "Factory contract that creates new contracts with different conditions.",
    "version": 1
  }
}