{
  "abi": [
    {
      "anonymous": false,
      "inputs": [
        {
          "indexed": false,
          "internalType": "address",
          "name": "client",
          "type": "address"
        },
        {
          "indexed": false,
          "internalType": "address",
          "name": "payee",
          "type": "address"
        },
        {
          "indexed": false,
          "internalType": "uint256",
          "name": "startDate",
          "type": "uint256"
        },
        {
          "indexed": false,
          "internalType": "uint256",
          "name": "expiryDate",
          "type": "uint256"
        },
        {
          "indexed": false,
          "internalType": "uint256",
          "name": "amount",
          "type": "uint256"
        },
        {
          "indexed": false,
          "internalType": "uint256",
          "name": "prevBillingDate",
          "type": "uint256"
        },
        {
          "indexed": false,
          "internalType": "uint256",
          "name": "nextBillingDate",
          "type": "uint256"
        },
        {
          "indexed": false,
          "internalType": "uint256",
          "name": "contractHash",
          "type": "uint256"
        },
        {
          "indexed": false,
          "internalType": "string[8]",
          "name": "names",
          "type": "string[8]"
        },
        {
          "indexed": false,
          "internalType": "int256[8]",
          "name": "values",
          "type": "int256[8]"
        },
        {
          "indexed": false,
          "internalType": "int256[8]",
          "name": "operators",
          "type": "int256[8]"
        }
      ],
      "name": "Details",
      "type": "event"
    },
    {
      "anonymous": false,
      "inputs": [
        {
          "indexed": false,
          "internalType": "string",
          "name": "message",
          "type": "string"
        },
        {
          "indexed": false,
          "internalType": "uint256",
          "name": "whatever",
          "type": "uint256"
        }
      ],
      "name": "Log",
      "type": "event"
    },
    {
      "anonymous": false,
      "inputs": [
        {
          "indexed": true,
          "internalType": "address",
          "name": "sender",
          "type": "address"
        },
        {
          "indexed": false,
          "internalType": "bool",
          "name": "isSatisfied",
          "type": "bool"
        },
        {
          "indexed": false,
          "internalType": "string",
          "name": "message",
          "type": "string"
        }
      ],
      "name": "State",
      "type": "event"
    },
    {
      "inputs": [],
      "name": "admin",
      "outputs": [
        {
          "internalType": "address",
          "name": "",
          "type": "address"
        }
      ],
      "stateMutability": "view",
      "type": "function"
    },
    {
      "inputs": [],
      "name": "amount",
      "outputs": [
        {
          "internalType": "uint256",
          "name": "",
          "type": "uint256"
        }
      ],
      "stateMutability": "view",
      "type": "function"
    },
    {
      "inputs": [],
      "name": "approve",
      "outputs": [],
      "stateMutability": "nonpayable",
      "type": "function"
    },
    {
      "inputs": [],
      "name": "balanceOf",
      "outputs": [
        {
          "internalType": "uint256",
          "name": "",
          "type": "uint256"
        }
      ],
      "stateMutability": "view",
      "type": "function"
    },
    {
      "inputs": [],
      "name": "client",
      "outputs": [
        {
          "internalType": "address payable",
          "name": "",
          "type": "address"
        }
      ],
      "stateMutability": "view",
      "type": "function"
    },
    {
      "inputs": [],
      "name": "contractHash",
      "outputs": [
        {
          "internalType": "uint256",
          "name": "",
          "type": "uint256"
        }
      ],
      "stateMutability": "view",
      "type": "function"
    },
    {
      "inputs": [],
      "name": "destroy",
      "outputs": [],
      "stateMutability": "nonpayable",
      "type": "function"
    },
    {
      "inputs": [],
      "name": "endInitStage",
      "outputs": [],
      "stateMutability": "nonpayable",
      "type": "function"
    },
    {
      "inputs": [],
      "name": "expiryDate",
      "outputs": [
        {
          "internalType": "uint256",
          "name": "",
          "type": "uint256"
        }
      ],
      "stateMutability": "view",
      "type": "function"
    },
    {
      "inputs": [],
      "name": "getDetails",
      "outputs": [
        {
          "internalType": "address",
          "name": "",
          "type": "address"
        },
        {
          "internalType": "address",
          "name": "",
          "type": "address"
        },
        {
          "internalType": "uint256",
          "name": "",
          "type": "uint256"
        },
        {
          "internalType": "uint256",
          "name": "",
          "type": "uint256"
        },
        {
          "internalType": "uint256",
          "name": "",
          "type": "uint256"
        },
        {
          "internalType": "uint256",
          "name": "",
          "type": "uint256"
        },
        {
          "internalType": "uint256",
          "name": "",
          "type": "uint256"
        },
        {
          "internalType": "uint256",
          "name": "",
          "type": "uint256"
        },
        {
          "internalType": "string[8]",
          "name": "",
          "type": "string[8]"
        },
        {
          "internalType": "int256[8]",
          "name": "",
          "type": "int256[8]"
        },
        {
          "internalType": "int256[8]",
          "name": "",
          "type": "int256[8]"
        }
      ],
      "stateMutability": "view",
      "type": "function"
    },
    {
      "inputs": [
        {
          "internalType": "address",
          "name": "_client",
          "type": "address"
        },
        {
          "internalType": "uint256",
          "name": "_expiredOn",
          "type": "uint256"
        },
        {
          "internalType": "uint256",
          "name": "_startDate",
          "type": "uint256"
        },
        {
          "internalType": "uint256",
          "name": "_contractHash",
          "type": "uint256"
        },
        {
          "internalType": "uint256",
          "name": "_amount",
          "type": "uint256"
        }
      ],
      "name": "init",
      "outputs": [],
      "stateMutability": "nonpayable",
      "type": "function"
    },
    {
      "inputs": [],
      "name": "isSatisfied",
      "outputs": [],
      "stateMutability": "nonpayable",
      "type": "function"
    },
    {
      "inputs": [
        {
          "internalType": "uint256",
          "name": "",
          "type": "uint256"
        }
      ],
      "name": "names",
      "outputs": [
        {
          "internalType": "string",
          "name": "",
          "type": "string"
        }
      ],
      "stateMutability": "view",
      "type": "function"
    },
    {
      "inputs": [],
      "name": "nextBillingDate",
      "outputs": [
        {
          "internalType": "uint256",
          "name": "",
          "type": "uint256"
        }
      ],
      "stateMutability": "view",
      "type": "function"
    },
    {
      "inputs": [
        {
          "internalType": "uint256",
          "name": "",
          "type": "uint256"
        }
      ],
      "name": "operators",
      "outputs": [
        {
          "internalType": "int256",
          "name": "",
          "type": "int256"
        }
      ],
      "stateMutability": "view",
      "type": "function"
    },
    {
      "inputs": [],
      "name": "payee",
      "outputs": [
        {
          "internalType": "address payable",
          "name": "",
          "type": "address"
        }
      ],
      "stateMutability": "view",
      "type": "function"
    },
    {
      "inputs": [],
      "name": "payeeApproved",
      "outputs": [
        {
          "internalType": "bool",
          "name": "",
          "type": "bool"
        }
      ],
      "stateMutability": "view",
      "type": "function"
    },
    {
      "inputs": [],
      "name": "prevBillingDate",
      "outputs": [
        {
          "internalType": "uint256",
          "name": "",
          "type": "uint256"
        }
      ],
      "stateMutability": "view",
      "type": "function"
    },
    {
      "inputs": [
        {
          "internalType": "int256[]",
          "name": "_cumulative",
          "type": "int256[]"
        }
      ],
      "name": "receiveServiceData",
      "outputs": [],
      "stateMutability": "nonpayable",
      "type": "function"
    },
    {
      "inputs": [
        {
          "internalType": "int256[]",
          "name": "_cumulative",
          "type": "int256[]"
        }
      ],
      "name": "receiveServiceDataBypass",
      "outputs": [],
      "stateMutability": "nonpayable",
      "type": "function"
    },
    {
      "inputs": [],
      "name": "satisfied",
      "outputs": [
        {
          "internalType": "bool",
          "name": "",
          "type": "bool"
        }
      ],
      "stateMutability": "view",
      "type": "function"
    },
    {
      "inputs": [],
      "name": "setActive",
      "outputs": [],
      "stateMutability": "nonpayable",
      "type": "function"
    },
    {
      "inputs": [
        {
          "internalType": "string[8]",
          "name": "_names",
          "type": "string[8]"
        },
        {
          "internalType": "int256[8]",
          "name": "_values",
          "type": "int256[8]"
        },
        {
          "internalType": "string[8]",
          "name": "_operators",
          "type": "string[8]"
        }
      ],
      "name": "setConds",
      "outputs": [],
      "stateMutability": "nonpayable",
      "type": "function"
    },
    {
      "inputs": [],
      "name": "setInactive",
      "outputs": [],
      "stateMutability": "nonpayable",
      "type": "function"
    },
    {
      "inputs": [
        {
          "internalType": "address",
          "name": "_payee",
          "type": "address"
        }
      ],
      "name": "setPayee",
      "outputs": [],
      "stateMutability": "nonpayable",
      "type": "function"
    },
    {
      "inputs": [],
      "name": "stage",
      "outputs": [
        {
          "internalType": "enum Vendor.Stages",
          "name": "",
          "type": "uint8"
        }
      ],
      "stateMutability": "view",
      "type": "function"
    },
    {
      "inputs": [],
      "name": "startDate",
      "outputs": [
        {
          "internalType": "uint256",
          "name": "",
          "type": "uint256"
        }
      ],
      "stateMutability": "view",
      "type": "function"
    },
    {
      "inputs": [],
      "name": "storePayment",
      "outputs": [],
      "stateMutability": "payable",
      "type": "function"
    },
    {
      "inputs": [
        {
          "internalType": "uint256",
          "name": "",
          "type": "uint256"
        }
      ],
      "name": "values",
      "outputs": [
        {
          "internalType": "int256",
          "name": "",
          "type": "int256"
        }
      ],
      "stateMutability": "view",
      "type": "function"
    }
  ],
  "devdoc": {
    "kind": "dev",
    "methods": {},
    "version": 1
  },
  "evm": {
    "assembly": "    /* \"Vendor.sol\":151:9542  contract Vendor {... */\n  mstore(0x40, 0x80)\n    /* \"Vendor.sol\":615:634  Stages.Initialising */\n  0x00\n    /* \"Vendor.sol\":593:634  Stages public stage = Stages.Initialising */\n  0x09\n  exp(0x0100, 0x00)\n  dup2\n  sload\n  dup2\n  0xff\n  mul\n  not\n  and\n  swap1\n  dup4\n  0x04\n  dup2\n  gt\n  iszero\n  tag_1\n  jumpi\n  tag_2\n  tag_3\n  jump\t// in\ntag_2:\ntag_1:\n  mul\n  or\n  swap1\n  sstore\n  pop\n    /* \"Vendor.sol\":665:670  false */\n  0x00\n    /* \"Vendor.sol\":641:670  bool public satisfied = false */\n  0x09\n  exp(0x0100, 0x01)\n  dup2\n  sload\n  dup2\n  0xff\n  mul\n  not\n  and\n  swap1\n  dup4\n  iszero\n  iszero\n  mul\n  or\n  swap1\n  sstore\n  pop\n    /* \"Vendor.sol\":865:866  0 */\n  0x00\n    /* \"Vendor.sol\":835:866  uint private conditionCount = 0 */\n  0x23\n  sstore\n    /* \"Vendor.sol\":1215:1216  0 */\n  0x00\n    /* \"Vendor.sol\":1195:1216  int private count = 0 */\n  0x25\n  sstore\n    /* \"Vendor.sol\":151:9542  contract Vendor {... */\n  callvalue\n  dup1\n  iszero\n  tag_4\n  jumpi\n  0x00\n  dup1\n  revert\ntag_4:\n  pop\n  jump(tag_5)\n    /* \"#utility.yul\":7:187   */\ntag_3:\n    /* \"#utility.yul\":55:132   */\n  0x4e487b7100000000000000000000000000000000000000000000000000000000\n    /* \"#utility.yul\":52:53   */\n  0x00\n    /* \"#utility.yul\":45:133   */\n  mstore\n    /* \"#utility.yul\":152:156   */\n  0x21\n    /* \"#utility.yul\":149:150   */\n  0x04\n    /* \"#utility.yul\":142:157   */\n  mstore\n    /* \"#utility.yul\":176:180   */\n  0x24\n    /* \"#utility.yul\":173:174   */\n  0x00\n    /* \"#utility.yul\":166:181   */\n  revert\n    /* \"Vendor.sol\":151:9542  contract Vendor {... */\ntag_5:\n  dataSize(sub_0)\n  dup1\n  dataOffset(sub_0)\n  0x00\n  codecopy\n  0x00\n  return\nstop\n\nsub_0: assembly {\n        /* \"Vendor.sol\":151:9542  contract Vendor {... */\n      mstore(0x40, 0x80)\n      jumpi(tag_1, lt(calldatasize, 0x04))\n      shr(0xe0, calldataload(0x00))\n      dup1\n      0x84ac4446\n      gt\n      tag_31\n      jumpi\n      dup1\n      0xae90b213\n      gt\n      tag_32\n      jumpi\n      dup1\n      0xf1b9ee24\n      gt\n      tag_33\n      jumpi\n      dup1\n      0xf1b9ee24\n      eq\n      tag_27\n      jumpi\n      dup1\n      0xf851a440\n      eq\n      tag_28\n      jumpi\n      dup1\n      0xfadeaa59\n      eq\n      tag_29\n      jumpi\n      dup1\n      0xfbbf93a0\n      eq\n      tag_30\n      jumpi\n      jump(tag_1)\n    tag_33:\n      dup1\n      0xae90b213\n      eq\n      tag_23\n      jumpi\n      dup1\n      0xc040e6b8\n      eq\n      tag_24\n      jumpi\n      dup1\n      0xe28d4906\n      eq\n      tag_25\n      jumpi\n      dup1\n      0xe9d94c58\n      eq\n      tag_26\n      jumpi\n      jump(tag_1)\n    tag_32:\n      dup1\n      0x97c0bba1\n      gt\n      tag_34\n      jumpi\n      dup1\n      0x97c0bba1\n      eq\n      tag_19\n      jumpi\n      dup1\n      0x9a730617\n      eq\n      tag_20\n      jumpi\n      dup1\n      0xa2c14ad3\n      eq\n      tag_21\n      jumpi\n      dup1\n      0xaa8c217c\n      eq\n      tag_22\n      jumpi\n      jump(tag_1)\n    tag_34:\n      dup1\n      0x84ac4446\n      eq\n      tag_16\n      jumpi\n      dup1\n      0x904c6094\n      eq\n      tag_17\n      jumpi\n      dup1\n      0x9503fe3d\n      eq\n      tag_18\n      jumpi\n      jump(tag_1)\n    tag_31:\n      dup1\n      0x43885314\n      gt\n      tag_35\n      jumpi\n      dup1\n      0x5e383d21\n      gt\n      tag_36\n      jumpi\n      dup1\n      0x5e383d21\n      eq\n      tag_12\n      jumpi\n      dup1\n      0x722713f7\n      eq\n      tag_13\n      jumpi\n      dup1\n      0x760a8c2a\n      eq\n      tag_14\n      jumpi\n      dup1\n      0x83197ef0\n      eq\n      tag_15\n      jumpi\n      jump(tag_1)\n    tag_36:\n      dup1\n      0x43885314\n      eq\n      tag_9\n      jumpi\n      dup1\n      0x4622ab03\n      eq\n      tag_10\n      jumpi\n      dup1\n      0x516dde43\n      eq\n      tag_11\n      jumpi\n      jump(tag_1)\n    tag_35:\n      dup1\n      0x21ce5afd\n      gt\n      tag_37\n      jumpi\n      dup1\n      0x21ce5afd\n      eq\n      tag_5\n      jumpi\n      dup1\n      0x25419c24\n      eq\n      tag_6\n      jumpi\n      dup1\n      0x3a40f3b2\n      eq\n      tag_7\n      jumpi\n      dup1\n      0x410459ad\n      eq\n      tag_8\n      jumpi\n      jump(tag_1)\n    tag_37:\n      dup1\n      0x0b97bc86\n      eq\n      tag_2\n      jumpi\n      dup1\n      0x109e94cf\n      eq\n      tag_3\n      jumpi\n      dup1\n      0x12424e3f\n      eq\n      tag_4\n      jumpi\n    tag_1:\n      0x00\n      dup1\n      revert\n        /* \"Vendor.sol\":300:321  uint public startDate */\n    tag_2:\n      callvalue\n      dup1\n      iszero\n      tag_38\n      jumpi\n      0x00\n      dup1\n      revert\n    tag_38:\n      pop\n      tag_39\n      tag_40\n      jump\t// in\n    tag_39:\n      mload(0x40)\n      tag_41\n      swap2\n      swap1\n      tag_42\n      jump\t// in\n    tag_41:\n      mload(0x40)\n      dup1\n      swap2\n      sub\n      swap1\n      return\n        /* \"Vendor.sol\":199:228  address payable public client */\n    tag_3:\n      callvalue\n      dup1\n      iszero\n      tag_43\n      jumpi\n      0x00\n      dup1\n      revert\n    tag_43:\n      pop\n      tag_44\n      tag_45\n      jump\t// in\n    tag_44:\n      mload(0x40)\n      tag_46\n      swap2\n      swap1\n      tag_47\n      jump\t// in\n    tag_46:\n      mload(0x40)\n      dup1\n      swap2\n      sub\n      swap1\n      return\n        /* \"Vendor.sol\":4264:4480  function approve() external atStage(Stages.Pending) {... */\n    tag_4:\n      callvalue\n      dup1\n      iszero\n      tag_48\n      jumpi\n      0x00\n      dup1\n      revert\n    tag_48:\n      pop\n      tag_49\n      tag_50\n      jump\t// in\n    tag_49:\n      stop\n        /* \"Vendor.sol\":5919:6155  function receiveServiceData(int[] memory _cumulative) external atStage(Stages.Active) checkBillingDate() {... */\n    tag_5:\n      callvalue\n      dup1\n      iszero\n      tag_51\n      jumpi\n      0x00\n      dup1\n      revert\n    tag_51:\n      pop\n      tag_52\n      0x04\n      dup1\n      calldatasize\n      sub\n      dup2\n      add\n      swap1\n      tag_53\n      swap2\n      swap1\n      tag_54\n      jump\t// in\n    tag_53:\n      tag_55\n      jump\t// in\n    tag_52:\n      stop\n        /* \"Vendor.sol\":379:406  uint public prevBillingDate */\n    tag_6:\n      callvalue\n      dup1\n      iszero\n      tag_56\n      jumpi\n      0x00\n      dup1\n      revert\n    tag_56:\n      pop\n      tag_57\n      tag_58\n      jump\t// in\n    tag_57:\n      mload(0x40)\n      tag_59\n      swap2\n      swap1\n      tag_42\n      jump\t// in\n    tag_59:\n      mload(0x40)\n      dup1\n      swap2\n      sub\n      swap1\n      return\n        /* \"Vendor.sol\":641:670  bool public satisfied = false */\n    tag_7:\n      callvalue\n      dup1\n      iszero\n      tag_60\n      jumpi\n      0x00\n      dup1\n      revert\n    tag_60:\n      pop\n      tag_61\n      tag_62\n      jump\t// in\n    tag_61:\n      mload(0x40)\n      tag_63\n      swap2\n      swap1\n      tag_64\n      jump\t// in\n    tag_63:\n      mload(0x40)\n      dup1\n      swap2\n      sub\n      swap1\n      return\n        /* \"Vendor.sol\":3644:3727  function setPayee(address _payee) external {... */\n    tag_8:\n      callvalue\n      dup1\n      iszero\n      tag_65\n      jumpi\n      0x00\n      dup1\n      revert\n    tag_65:\n      pop\n      tag_66\n      0x04\n      dup1\n      calldatasize\n      sub\n      dup2\n      add\n      swap1\n      tag_67\n      swap2\n      swap1\n      tag_68\n      jump\t// in\n    tag_67:\n      tag_69\n      jump\t// in\n    tag_66:\n      stop\n        /* \"Vendor.sol\":412:439  uint public nextBillingDate */\n    tag_9:\n      callvalue\n      dup1\n      iszero\n      tag_70\n      jumpi\n      0x00\n      dup1\n      revert\n    tag_70:\n      pop\n      tag_71\n      tag_72\n      jump\t// in\n    tag_71:\n      mload(0x40)\n      tag_73\n      swap2\n      swap1\n      tag_42\n      jump\t// in\n    tag_73:\n      mload(0x40)\n      dup1\n      swap2\n      sub\n      swap1\n      return\n        /* \"Vendor.sol\":707:729  string[8] public names */\n    tag_10:\n      callvalue\n      dup1\n      iszero\n      tag_74\n      jumpi\n      0x00\n      dup1\n      revert\n    tag_74:\n      pop\n      tag_75\n      0x04\n      dup1\n      calldatasize\n      sub\n      dup2\n      add\n      swap1\n      tag_76\n      swap2\n      swap1\n      tag_77\n      jump\t// in\n    tag_76:\n      tag_78\n      jump\t// in\n    tag_75:\n      mload(0x40)\n      tag_79\n      swap2\n      swap1\n      tag_80\n      jump\t// in\n    tag_79:\n      mload(0x40)\n      dup1\n      swap2\n      sub\n      swap1\n      return\n        /* \"Vendor.sol\":327:349  uint public expiryDate */\n    tag_11:\n      callvalue\n      dup1\n      iszero\n      tag_81\n      jumpi\n      0x00\n      dup1\n      revert\n    tag_81:\n      pop\n      tag_82\n      tag_83\n      jump\t// in\n    tag_82:\n      mload(0x40)\n      tag_84\n      swap2\n      swap1\n      tag_42\n      jump\t// in\n    tag_84:\n      mload(0x40)\n      dup1\n      swap2\n      sub\n      swap1\n      return\n        /* \"Vendor.sol\":735:755  int[8] public values */\n    tag_12:\n      callvalue\n      dup1\n      iszero\n      tag_85\n      jumpi\n      0x00\n      dup1\n      revert\n    tag_85:\n      pop\n      tag_86\n      0x04\n      dup1\n      calldatasize\n      sub\n      dup2\n      add\n      swap1\n      tag_87\n      swap2\n      swap1\n      tag_77\n      jump\t// in\n    tag_87:\n      tag_88\n      jump\t// in\n    tag_86:\n      mload(0x40)\n      tag_89\n      swap2\n      swap1\n      tag_90\n      jump\t// in\n    tag_89:\n      mload(0x40)\n      dup1\n      swap2\n      sub\n      swap1\n      return\n        /* \"Vendor.sol\":5098:5193  function balanceOf() external view returns (uint) {... */\n    tag_13:\n      callvalue\n      dup1\n      iszero\n      tag_91\n      jumpi\n      0x00\n      dup1\n      revert\n    tag_91:\n      pop\n      tag_92\n      tag_93\n      jump\t// in\n    tag_92:\n      mload(0x40)\n      tag_94\n      swap2\n      swap1\n      tag_42\n      jump\t// in\n    tag_94:\n      mload(0x40)\n      dup1\n      swap2\n      sub\n      swap1\n      return\n        /* \"Vendor.sol\":8000:8093  function setActive() external atStage(Stages.Inactive) {... */\n    tag_14:\n      callvalue\n      dup1\n      iszero\n      tag_95\n      jumpi\n      0x00\n      dup1\n      revert\n    tag_95:\n      pop\n      tag_96\n      tag_97\n      jump\t// in\n    tag_96:\n      stop\n        /* \"Vendor.sol\":8200:8290  function destroy() external atStage(Stages.Inactive) {... */\n    tag_15:\n      callvalue\n      dup1\n      iszero\n      tag_98\n      jumpi\n      0x00\n      dup1\n      revert\n    tag_98:\n      pop\n      tag_99\n      tag_100\n      jump\t// in\n    tag_99:\n      stop\n        /* \"Vendor.sol\":4935:5092  function storePayment() external payable atStage(Stages.Active) checkBillingDate() {... */\n    tag_16:\n      tag_101\n      tag_102\n      jump\t// in\n    tag_101:\n      stop\n        /* \"Vendor.sol\":445:469  uint public contractHash */\n    tag_17:\n      callvalue\n      dup1\n      iszero\n      tag_103\n      jumpi\n      0x00\n      dup1\n      revert\n    tag_103:\n      pop\n      tag_104\n      tag_105\n      jump\t// in\n    tag_104:\n      mload(0x40)\n      tag_106\n      swap2\n      swap1\n      tag_42\n      jump\t// in\n    tag_106:\n      mload(0x40)\n      dup1\n      swap2\n      sub\n      swap1\n      return\n        /* \"Vendor.sol\":3733:4033  function endInitStage() public atStage(Stages.Initialising) {... */\n    tag_18:\n      callvalue\n      dup1\n      iszero\n      tag_107\n      jumpi\n      0x00\n      dup1\n      revert\n    tag_107:\n      pop\n      tag_108\n      tag_109\n      jump\t// in\n    tag_108:\n      stop\n        /* \"Vendor.sol\":268:293  bool public payeeApproved */\n    tag_19:\n      callvalue\n      dup1\n      iszero\n      tag_110\n      jumpi\n      0x00\n      dup1\n      revert\n    tag_110:\n      pop\n      tag_111\n      tag_112\n      jump\t// in\n    tag_111:\n      mload(0x40)\n      tag_113\n      swap2\n      swap1\n      tag_64\n      jump\t// in\n    tag_113:\n      mload(0x40)\n      dup1\n      swap2\n      sub\n      swap1\n      return\n        /* \"Vendor.sol\":1971:2403  function init(address _client, uint _expiredOn, uint _startDate, uint _contractHash, uint _amount) public {... */\n    tag_20:\n      callvalue\n      dup1\n      iszero\n      tag_114\n      jumpi\n      0x00\n      dup1\n      revert\n    tag_114:\n      pop\n      tag_115\n      0x04\n      dup1\n      calldatasize\n      sub\n      dup2\n      add\n      swap1\n      tag_116\n      swap2\n      swap1\n      tag_117\n      jump\t// in\n    tag_116:\n      tag_118\n      jump\t// in\n    tag_115:\n      stop\n        /* \"Vendor.sol\":6495:7106  function isSatisfied() public atStage(Stages.Active) {... */\n    tag_21:\n      callvalue\n      dup1\n      iszero\n      tag_119\n      jumpi\n      0x00\n      dup1\n      revert\n    tag_119:\n      pop\n      tag_120\n      tag_121\n      jump\t// in\n    tag_120:\n      stop\n        /* \"Vendor.sol\":355:373  uint public amount */\n    tag_22:\n      callvalue\n      dup1\n      iszero\n      tag_122\n      jumpi\n      0x00\n      dup1\n      revert\n    tag_122:\n      pop\n      tag_123\n      tag_124\n      jump\t// in\n    tag_123:\n      mload(0x40)\n      tag_125\n      swap2\n      swap1\n      tag_42\n      jump\t// in\n    tag_125:\n      mload(0x40)\n      dup1\n      swap2\n      sub\n      swap1\n      return\n        /* \"Vendor.sol\":234:262  address payable public payee */\n    tag_23:\n      callvalue\n      dup1\n      iszero\n      tag_126\n      jumpi\n      0x00\n      dup1\n      revert\n    tag_126:\n      pop\n      tag_127\n      tag_128\n      jump\t// in\n    tag_127:\n      mload(0x40)\n      tag_129\n      swap2\n      swap1\n      tag_47\n      jump\t// in\n    tag_129:\n      mload(0x40)\n      dup1\n      swap2\n      sub\n      swap1\n      return\n        /* \"Vendor.sol\":593:634  Stages public stage = Stages.Initialising */\n    tag_24:\n      callvalue\n      dup1\n      iszero\n      tag_130\n      jumpi\n      0x00\n      dup1\n      revert\n    tag_130:\n      pop\n      tag_131\n      tag_132\n      jump\t// in\n    tag_131:\n      mload(0x40)\n      tag_133\n      swap2\n      swap1\n      tag_134\n      jump\t// in\n    tag_133:\n      mload(0x40)\n      dup1\n      swap2\n      sub\n      swap1\n      return\n        /* \"Vendor.sol\":761:784  int[8] public operators */\n    tag_25:\n      callvalue\n      dup1\n      iszero\n      tag_135\n      jumpi\n      0x00\n      dup1\n      revert\n    tag_135:\n      pop\n      tag_136\n      0x04\n      dup1\n      calldatasize\n      sub\n      dup2\n      add\n      swap1\n      tag_137\n      swap2\n      swap1\n      tag_77\n      jump\t// in\n    tag_137:\n      tag_138\n      jump\t// in\n    tag_136:\n      mload(0x40)\n      tag_139\n      swap2\n      swap1\n      tag_90\n      jump\t// in\n    tag_139:\n      mload(0x40)\n      dup1\n      swap2\n      sub\n      swap1\n      return\n        /* \"Vendor.sol\":6165:6388  function receiveServiceDataBypass(int[] memory _cumulative) external atStage(Stages.Active) {... */\n    tag_26:\n      callvalue\n      dup1\n      iszero\n      tag_140\n      jumpi\n      0x00\n      dup1\n      revert\n    tag_140:\n      pop\n      tag_141\n      0x04\n      dup1\n      calldatasize\n      sub\n      dup2\n      add\n      swap1\n      tag_142\n      swap2\n      swap1\n      tag_54\n      jump\t// in\n    tag_142:\n      tag_143\n      jump\t// in\n    tag_141:\n      stop\n        /* \"Vendor.sol\":8099:8194  function setInactive() external atStage(Stages.Active) {... */\n    tag_27:\n      callvalue\n      dup1\n      iszero\n      tag_144\n      jumpi\n      0x00\n      dup1\n      revert\n    tag_144:\n      pop\n      tag_145\n      tag_146\n      jump\t// in\n    tag_145:\n      stop\n        /* \"Vendor.sol\":173:193  address public admin */\n    tag_28:\n      callvalue\n      dup1\n      iszero\n      tag_147\n      jumpi\n      0x00\n      dup1\n      revert\n    tag_147:\n      pop\n      tag_148\n      tag_149\n      jump\t// in\n    tag_148:\n      mload(0x40)\n      tag_150\n      swap2\n      swap1\n      tag_151\n      jump\t// in\n    tag_150:\n      mload(0x40)\n      dup1\n      swap2\n      sub\n      swap1\n      return\n        /* \"Vendor.sol\":2819:3638  function setConds(string[8] memory _names, int[8] memory _values, string[8] memory _operators) external atStage(Stages.Initialising) {... */\n    tag_29:\n      callvalue\n      dup1\n      iszero\n      tag_152\n      jumpi\n      0x00\n      dup1\n      revert\n    tag_152:\n      pop\n      tag_153\n      0x04\n      dup1\n      calldatasize\n      sub\n      dup2\n      add\n      swap1\n      tag_154\n      swap2\n      swap1\n      tag_155\n      jump\t// in\n    tag_154:\n      tag_156\n      jump\t// in\n    tag_153:\n      stop\n        /* \"Vendor.sol\":4638:4929  function getDetails() external view returns (address, address, uint, uint, uint, uint, uint, uint, string[8] memory, int[8] memory, int[8] memory) {... */\n    tag_30:\n      callvalue\n      dup1\n      iszero\n      tag_157\n      jumpi\n      0x00\n      dup1\n      revert\n    tag_157:\n      pop\n      tag_158\n      tag_159\n      jump\t// in\n    tag_158:\n      mload(0x40)\n      tag_160\n      swap12\n      swap11\n      swap10\n      swap9\n      swap8\n      swap7\n      swap6\n      swap5\n      swap4\n      swap3\n      swap2\n      swap1\n      tag_161\n      jump\t// in\n    tag_160:\n      mload(0x40)\n      dup1\n      swap2\n      sub\n      swap1\n      return\n        /* \"Vendor.sol\":300:321  uint public startDate */\n    tag_40:\n      sload(0x03)\n      dup2\n      jump\t// out\n        /* \"Vendor.sol\":199:228  address payable public client */\n    tag_45:\n      0x01\n      0x00\n      swap1\n      sload\n      swap1\n      0x0100\n      exp\n      swap1\n      div\n      0xffffffffffffffffffffffffffffffffffffffff\n      and\n      dup2\n      jump\t// out\n        /* \"Vendor.sol\":4264:4480  function approve() external atStage(Stages.Pending) {... */\n    tag_50:\n        /* \"Vendor.sol\":4300:4314  Stages.Pending */\n      0x01\n        /* \"Vendor.sol\":9177:9230  Log(\"inside atStage, current stage is:\", uint(stage)) */\n      0xdd970dd9b5bfe707922155b058a407655cb18288b807e2216442bca8ad83d6b5\n        /* \"Vendor.sol\":9223:9228  stage */\n      0x09\n      0x00\n      swap1\n      sload\n      swap1\n      0x0100\n      exp\n      swap1\n      div\n      0xff\n      and\n        /* \"Vendor.sol\":9218:9229  uint(stage) */\n      0x04\n      dup2\n      gt\n      iszero\n      tag_163\n      jumpi\n      tag_164\n      tag_165\n      jump\t// in\n    tag_164:\n    tag_163:\n        /* \"Vendor.sol\":9177:9230  Log(\"inside atStage, current stage is:\", uint(stage)) */\n      mload(0x40)\n      tag_166\n      swap2\n      swap1\n      tag_167\n      jump\t// in\n    tag_166:\n      mload(0x40)\n      dup1\n      swap2\n      sub\n      swap1\n      log1\n        /* \"Vendor.sol\":9245:9312  Log(\"still inside atStage, trying to compare it to:\", uint(_stage)) */\n      0xdd970dd9b5bfe707922155b058a407655cb18288b807e2216442bca8ad83d6b5\n        /* \"Vendor.sol\":9304:9310  _stage */\n      dup2\n        /* \"Vendor.sol\":9299:9311  uint(_stage) */\n      0x04\n      dup2\n      gt\n      iszero\n      tag_168\n      jumpi\n      tag_169\n      tag_165\n      jump\t// in\n    tag_169:\n    tag_168:\n        /* \"Vendor.sol\":9245:9312  Log(\"still inside atStage, trying to compare it to:\", uint(_stage)) */\n      mload(0x40)\n      tag_170\n      swap2\n      swap1\n      tag_171\n      jump\t// in\n    tag_170:\n      mload(0x40)\n      dup1\n      swap2\n      sub\n      swap1\n      log1\n        /* \"Vendor.sol\":9350:9356  _stage */\n      dup1\n        /* \"Vendor.sol\":9345:9357  uint(_stage) */\n      0x04\n      dup2\n      gt\n      iszero\n      tag_172\n      jumpi\n      tag_173\n      tag_165\n      jump\t// in\n    tag_173:\n    tag_172:\n        /* \"Vendor.sol\":9335:9340  stage */\n      0x09\n      0x00\n      swap1\n      sload\n      swap1\n      0x0100\n      exp\n      swap1\n      div\n      0xff\n      and\n        /* \"Vendor.sol\":9330:9341  uint(stage) */\n      0x04\n      dup2\n      gt\n      iszero\n      tag_174\n      jumpi\n      tag_175\n      tag_165\n      jump\t// in\n    tag_175:\n    tag_174:\n        /* \"Vendor.sol\":9330:9357  uint(stage) == uint(_stage) */\n      eq\n        /* \"Vendor.sol\":9322:9399  require(uint(stage) == uint(_stage), \"Contract is not in the required state\") */\n      tag_176\n      jumpi\n      mload(0x40)\n      0x08c379a000000000000000000000000000000000000000000000000000000000\n      dup2\n      mstore\n      0x04\n      add\n      tag_177\n      swap1\n      tag_178\n      jump\t// in\n    tag_177:\n      mload(0x40)\n      dup1\n      swap2\n      sub\n      swap1\n      revert\n    tag_176:\n        /* \"Vendor.sol\":4348:4353  admin */\n      0x00\n      dup1\n      sload\n      swap1\n      0x0100\n      exp\n      swap1\n      div\n      0xffffffffffffffffffffffffffffffffffffffff\n      and\n        /* \"Vendor.sol\":4334:4353  msg.sender == admin */\n      0xffffffffffffffffffffffffffffffffffffffff\n      and\n        /* \"Vendor.sol\":4334:4344  msg.sender */\n      caller\n        /* \"Vendor.sol\":4334:4353  msg.sender == admin */\n      0xffffffffffffffffffffffffffffffffffffffff\n      and\n      eq\n        /* \"Vendor.sol\":4326:4412  require(msg.sender == admin, \"Cannot call this function directly, use VendorFactory.\") */\n      tag_180\n      jumpi\n      mload(0x40)\n      0x08c379a000000000000000000000000000000000000000000000000000000000\n      dup2\n      mstore\n      0x04\n      add\n      tag_181\n      swap1\n      tag_182\n      jump\t// in\n    tag_181:\n      mload(0x40)\n      dup1\n      swap2\n      sub\n      swap1\n      revert\n    tag_180:\n        /* \"Vendor.sol\":4438:4442  true */\n      0x01\n        /* \"Vendor.sol\":4422:4435  payeeApproved */\n      0x02\n      0x14\n        /* \"Vendor.sol\":4422:4442  payeeApproved = true */\n      0x0100\n      exp\n      dup2\n      sload\n      dup2\n      0xff\n      mul\n      not\n      and\n      swap1\n      dup4\n      iszero\n      iszero\n      mul\n      or\n      swap1\n      sstore\n      pop\n        /* \"Vendor.sol\":4460:4473  Stages.Active */\n      0x03\n        /* \"Vendor.sol\":4452:4457  stage */\n      0x09\n      0x00\n        /* \"Vendor.sol\":4452:4473  stage = Stages.Active */\n      0x0100\n      exp\n      dup2\n      sload\n      dup2\n      0xff\n      mul\n      not\n      and\n      swap1\n      dup4\n      0x04\n      dup2\n      gt\n      iszero\n      tag_183\n      jumpi\n      tag_184\n      tag_165\n      jump\t// in\n    tag_184:\n    tag_183:\n      mul\n      or\n      swap1\n      sstore\n      pop\n        /* \"Vendor.sol\":4264:4480  function approve() external atStage(Stages.Pending) {... */\n      pop\n      jump\t// out\n        /* \"Vendor.sol\":5919:6155  function receiveServiceData(int[] memory _cumulative) external atStage(Stages.Active) checkBillingDate() {... */\n    tag_55:\n        /* \"Vendor.sol\":5990:6003  Stages.Active */\n      0x03\n        /* \"Vendor.sol\":9177:9230  Log(\"inside atStage, current stage is:\", uint(stage)) */\n      0xdd970dd9b5bfe707922155b058a407655cb18288b807e2216442bca8ad83d6b5\n        /* \"Vendor.sol\":9223:9228  stage */\n      0x09\n      0x00\n      swap1\n      sload\n      swap1\n      0x0100\n      exp\n      swap1\n      div\n      0xff\n      and\n        /* \"Vendor.sol\":9218:9229  uint(stage) */\n      0x04\n      dup2\n      gt\n      iszero\n      tag_186\n      jumpi\n      tag_187\n      tag_165\n      jump\t// in\n    tag_187:\n    tag_186:\n        /* \"Vendor.sol\":9177:9230  Log(\"inside atStage, current stage is:\", uint(stage)) */\n      mload(0x40)\n      tag_188\n      swap2\n      swap1\n      tag_167\n      jump\t// in\n    tag_188:\n      mload(0x40)\n      dup1\n      swap2\n      sub\n      swap1\n      log1\n        /* \"Vendor.sol\":9245:9312  Log(\"still inside atStage, trying to compare it to:\", uint(_stage)) */\n      0xdd970dd9b5bfe707922155b058a407655cb18288b807e2216442bca8ad83d6b5\n        /* \"Vendor.sol\":9304:9310  _stage */\n      dup2\n        /* \"Vendor.sol\":9299:9311  uint(_stage) */\n      0x04\n      dup2\n      gt\n      iszero\n      tag_189\n      jumpi\n      tag_190\n      tag_165\n      jump\t// in\n    tag_190:\n    tag_189:\n        /* \"Vendor.sol\":9245:9312  Log(\"still inside atStage, trying to compare it to:\", uint(_stage)) */\n      mload(0x40)\n      tag_191\n      swap2\n      swap1\n      tag_171\n      jump\t// in\n    tag_191:\n      mload(0x40)\n      dup1\n      swap2\n      sub\n      swap1\n      log1\n        /* \"Vendor.sol\":9350:9356  _stage */\n      dup1\n        /* \"Vendor.sol\":9345:9357  uint(_stage) */\n      0x04\n      dup2\n      gt\n      iszero\n      tag_192\n      jumpi\n      tag_193\n      tag_165\n      jump\t// in\n    tag_193:\n    tag_192:\n        /* \"Vendor.sol\":9335:9340  stage */\n      0x09\n      0x00\n      swap1\n      sload\n      swap1\n      0x0100\n      exp\n      swap1\n      div\n      0xff\n      and\n        /* \"Vendor.sol\":9330:9341  uint(stage) */\n      0x04\n      dup2\n      gt\n      iszero\n      tag_194\n      jumpi\n      tag_195\n      tag_165\n      jump\t// in\n    tag_195:\n    tag_194:\n        /* \"Vendor.sol\":9330:9357  uint(stage) == uint(_stage) */\n      eq\n        /* \"Vendor.sol\":9322:9399  require(uint(stage) == uint(_stage), \"Contract is not in the required state\") */\n      tag_196\n      jumpi\n      mload(0x40)\n      0x08c379a000000000000000000000000000000000000000000000000000000000\n      dup2\n      mstore\n      0x04\n      add\n      tag_197\n      swap1\n      tag_178\n      jump\t// in\n    tag_197:\n      mload(0x40)\n      dup1\n      swap2\n      sub\n      swap1\n      revert\n    tag_196:\n        /* \"Vendor.sol\":8699:8714  nextBillingDate */\n      sload(0x07)\n        /* \"Vendor.sol\":8684:8696  block.number */\n      number\n        /* \"Vendor.sol\":8684:8714  block.number > nextBillingDate */\n      gt\n        /* \"Vendor.sol\":8680:8908  if (block.number > nextBillingDate) {... */\n      iszero\n      tag_199\n      jumpi\n        /* \"Vendor.sol\":8730:8743  isSatisfied() */\n      tag_200\n        /* \"Vendor.sol\":8730:8741  isSatisfied */\n      tag_121\n        /* \"Vendor.sol\":8730:8743  isSatisfied() */\n      jump\t// in\n    tag_200:\n        /* \"Vendor.sol\":8680:8908  if (block.number > nextBillingDate) {... */\n      jump(tag_201)\n    tag_199:\n        /* \"Vendor.sol\":8798:8813  prevBillingDate */\n      sload(0x06)\n        /* \"Vendor.sol\":8782:8794  block.number */\n      number\n        /* \"Vendor.sol\":8782:8813  block.number >= prevBillingDate */\n      lt\n      iszero\n        /* \"Vendor.sol\":8782:8848  block.number >= prevBillingDate && block.number <= nextBillingDate */\n      dup1\n      iszero\n      tag_202\n      jumpi\n      pop\n        /* \"Vendor.sol\":8833:8848  nextBillingDate */\n      sload(0x07)\n        /* \"Vendor.sol\":8817:8829  block.number */\n      number\n        /* \"Vendor.sol\":8817:8848  block.number <= nextBillingDate */\n      gt\n      iszero\n        /* \"Vendor.sol\":8782:8848  block.number >= prevBillingDate && block.number <= nextBillingDate */\n    tag_202:\n        /* \"Vendor.sol\":8774:8882  require(block.number >= prevBillingDate && block.number <= nextBillingDate, \"Not within the billing period\") */\n      tag_203\n      jumpi\n      mload(0x40)\n      0x08c379a000000000000000000000000000000000000000000000000000000000\n      dup2\n      mstore\n      0x04\n      add\n      tag_204\n      swap1\n      tag_205\n      jump\t// in\n    tag_204:\n      mload(0x40)\n      dup1\n      swap2\n      sub\n      swap1\n      revert\n    tag_203:\n        /* \"Vendor.sol\":6039:6045  uint i */\n      0x00\n        /* \"Vendor.sol\":6034:6132  for (uint i = 0; i < conditionCount; i++) {... */\n    tag_207:\n        /* \"Vendor.sol\":6055:6069  conditionCount */\n      sload(0x23)\n        /* \"Vendor.sol\":6051:6052  i */\n      dup2\n        /* \"Vendor.sol\":6051:6069  i < conditionCount */\n      lt\n        /* \"Vendor.sol\":6034:6132  for (uint i = 0; i < conditionCount; i++) {... */\n      iszero\n      tag_208\n      jumpi\n        /* \"Vendor.sol\":6107:6118  _cumulative */\n      dup3\n        /* \"Vendor.sol\":6119:6120  i */\n      dup2\n        /* \"Vendor.sol\":6107:6121  _cumulative[i] */\n      dup2\n      mload\n      dup2\n      lt\n      tag_210\n      jumpi\n      tag_211\n      tag_212\n      jump\t// in\n    tag_211:\n    tag_210:\n      0x20\n      mul\n      0x20\n      add\n      add\n      mload\n        /* \"Vendor.sol\":6090:6100  cumulative */\n      0x24\n        /* \"Vendor.sol\":6090:6103  cumulative[i] */\n      0x00\n        /* \"Vendor.sol\":6101:6102  i */\n      dup4\n        /* \"Vendor.sol\":6090:6103  cumulative[i] */\n      dup2\n      mstore\n      0x20\n      add\n      swap1\n      dup2\n      mstore\n      0x20\n      add\n      0x00\n      keccak256\n      0x00\n        /* \"Vendor.sol\":6090:6121  cumulative[i] += _cumulative[i] */\n      dup3\n      dup3\n      sload\n      tag_213\n      swap2\n      swap1\n      tag_214\n      jump\t// in\n    tag_213:\n      swap3\n      pop\n      pop\n      dup2\n      swap1\n      sstore\n      pop\n        /* \"Vendor.sol\":6071:6074  i++ */\n      dup1\n      dup1\n      tag_215\n      swap1\n      tag_216\n      jump\t// in\n    tag_215:\n      swap2\n      pop\n      pop\n        /* \"Vendor.sol\":6034:6132  for (uint i = 0; i < conditionCount; i++) {... */\n      jump(tag_207)\n    tag_208:\n      pop\n        /* \"Vendor.sol\":6141:6146  count */\n      0x25\n      0x00\n        /* \"Vendor.sol\":6141:6148  count++ */\n      dup2\n      sload\n      dup1\n      swap3\n      swap2\n      swap1\n      tag_217\n      swap1\n      tag_218\n      jump\t// in\n    tag_217:\n      swap2\n      swap1\n      pop\n      sstore\n      pop\n        /* \"Vendor.sol\":8680:8908  if (block.number > nextBillingDate) {... */\n    tag_201:\n        /* \"Vendor.sol\":5919:6155  function receiveServiceData(int[] memory _cumulative) external atStage(Stages.Active) checkBillingDate() {... */\n      pop\n      pop\n      jump\t// out\n        /* \"Vendor.sol\":379:406  uint public prevBillingDate */\n    tag_58:\n      sload(0x06)\n      dup2\n      jump\t// out\n        /* \"Vendor.sol\":641:670  bool public satisfied = false */\n    tag_62:\n      0x09\n      0x01\n      swap1\n      sload\n      swap1\n      0x0100\n      exp\n      swap1\n      div\n      0xff\n      and\n      dup2\n      jump\t// out\n        /* \"Vendor.sol\":3644:3727  function setPayee(address _payee) external {... */\n    tag_69:\n        /* \"Vendor.sol\":3713:3719  _payee */\n      dup1\n        /* \"Vendor.sol\":3697:3702  payee */\n      0x02\n      0x00\n        /* \"Vendor.sol\":3697:3720  payee = payable(_payee) */\n      0x0100\n      exp\n      dup2\n      sload\n      dup2\n      0xffffffffffffffffffffffffffffffffffffffff\n      mul\n      not\n      and\n      swap1\n      dup4\n      0xffffffffffffffffffffffffffffffffffffffff\n      and\n      mul\n      or\n      swap1\n      sstore\n      pop\n        /* \"Vendor.sol\":3644:3727  function setPayee(address _payee) external {... */\n      pop\n      jump\t// out\n        /* \"Vendor.sol\":412:439  uint public nextBillingDate */\n    tag_72:\n      sload(0x07)\n      dup2\n      jump\t// out\n        /* \"Vendor.sol\":707:729  string[8] public names */\n    tag_78:\n      0x0a\n      dup2\n      0x08\n      dup2\n      lt\n      tag_220\n      jumpi\n      0x00\n      dup1\n      revert\n    tag_220:\n      add\n      0x00\n      swap2\n      pop\n      swap1\n      pop\n      dup1\n      sload\n      tag_222\n      swap1\n      tag_223\n      jump\t// in\n    tag_222:\n      dup1\n      0x1f\n      add\n      0x20\n      dup1\n      swap2\n      div\n      mul\n      0x20\n      add\n      mload(0x40)\n      swap1\n      dup2\n      add\n      0x40\n      mstore\n      dup1\n      swap3\n      swap2\n      swap1\n      dup2\n      dup2\n      mstore\n      0x20\n      add\n      dup3\n      dup1\n      sload\n      tag_224\n      swap1\n      tag_223\n      jump\t// in\n    tag_224:\n      dup1\n      iszero\n      tag_225\n      jumpi\n      dup1\n      0x1f\n      lt\n      tag_226\n      jumpi\n      0x0100\n      dup1\n      dup4\n      sload\n      div\n      mul\n      dup4\n      mstore\n      swap2\n      0x20\n      add\n      swap2\n      jump(tag_225)\n    tag_226:\n      dup3\n      add\n      swap2\n      swap1\n      0x00\n      mstore\n      keccak256(0x00, 0x20)\n      swap1\n    tag_227:\n      dup2\n      sload\n      dup2\n      mstore\n      swap1\n      0x01\n      add\n      swap1\n      0x20\n      add\n      dup1\n      dup4\n      gt\n      tag_227\n      jumpi\n      dup3\n      swap1\n      sub\n      0x1f\n      and\n      dup3\n      add\n      swap2\n    tag_225:\n      pop\n      pop\n      pop\n      pop\n      pop\n      dup2\n      jump\t// out\n        /* \"Vendor.sol\":327:349  uint public expiryDate */\n    tag_83:\n      sload(0x04)\n      dup2\n      jump\t// out\n        /* \"Vendor.sol\":735:755  int[8] public values */\n    tag_88:\n      0x12\n      dup2\n      0x08\n      dup2\n      lt\n      tag_228\n      jumpi\n      0x00\n      dup1\n      revert\n    tag_228:\n      add\n      0x00\n      swap2\n      pop\n      swap1\n      pop\n      sload\n      dup2\n      jump\t// out\n        /* \"Vendor.sol\":5098:5193  function balanceOf() external view returns (uint) {... */\n    tag_93:\n        /* \"Vendor.sol\":5142:5146  uint */\n      0x00\n        /* \"Vendor.sol\":5165:5186  address(this).balance */\n      selfbalance\n        /* \"Vendor.sol\":5158:5186  return address(this).balance */\n      swap1\n      pop\n        /* \"Vendor.sol\":5098:5193  function balanceOf() external view returns (uint) {... */\n      swap1\n      jump\t// out\n        /* \"Vendor.sol\":8000:8093  function setActive() external atStage(Stages.Inactive) {... */\n    tag_97:\n        /* \"Vendor.sol\":8038:8053  Stages.Inactive */\n      0x02\n        /* \"Vendor.sol\":9177:9230  Log(\"inside atStage, current stage is:\", uint(stage)) */\n      0xdd970dd9b5bfe707922155b058a407655cb18288b807e2216442bca8ad83d6b5\n        /* \"Vendor.sol\":9223:9228  stage */\n      0x09\n      0x00\n      swap1\n      sload\n      swap1\n      0x0100\n      exp\n      swap1\n      div\n      0xff\n      and\n        /* \"Vendor.sol\":9218:9229  uint(stage) */\n      0x04\n      dup2\n      gt\n      iszero\n      tag_232\n      jumpi\n      tag_233\n      tag_165\n      jump\t// in\n    tag_233:\n    tag_232:\n        /* \"Vendor.sol\":9177:9230  Log(\"inside atStage, current stage is:\", uint(stage)) */\n      mload(0x40)\n      tag_234\n      swap2\n      swap1\n      tag_167\n      jump\t// in\n    tag_234:\n      mload(0x40)\n      dup1\n      swap2\n      sub\n      swap1\n      log1\n        /* \"Vendor.sol\":9245:9312  Log(\"still inside atStage, trying to compare it to:\", uint(_stage)) */\n      0xdd970dd9b5bfe707922155b058a407655cb18288b807e2216442bca8ad83d6b5\n        /* \"Vendor.sol\":9304:9310  _stage */\n      dup2\n        /* \"Vendor.sol\":9299:9311  uint(_stage) */\n      0x04\n      dup2\n      gt\n      iszero\n      tag_235\n      jumpi\n      tag_236\n      tag_165\n      jump\t// in\n    tag_236:\n    tag_235:\n        /* \"Vendor.sol\":9245:9312  Log(\"still inside atStage, trying to compare it to:\", uint(_stage)) */\n      mload(0x40)\n      tag_237\n      swap2\n      swap1\n      tag_171\n      jump\t// in\n    tag_237:\n      mload(0x40)\n      dup1\n      swap2\n      sub\n      swap1\n      log1\n        /* \"Vendor.sol\":9350:9356  _stage */\n      dup1\n        /* \"Vendor.sol\":9345:9357  uint(_stage) */\n      0x04\n      dup2\n      gt\n      iszero\n      tag_238\n      jumpi\n      tag_239\n      tag_165\n      jump\t// in\n    tag_239:\n    tag_238:\n        /* \"Vendor.sol\":9335:9340  stage */\n      0x09\n      0x00\n      swap1\n      sload\n      swap1\n      0x0100\n      exp\n      swap1\n      div\n      0xff\n      and\n        /* \"Vendor.sol\":9330:9341  uint(stage) */\n      0x04\n      dup2\n      gt\n      iszero\n      tag_240\n      jumpi\n      tag_241\n      tag_165\n      jump\t// in\n    tag_241:\n    tag_240:\n        /* \"Vendor.sol\":9330:9357  uint(stage) == uint(_stage) */\n      eq\n        /* \"Vendor.sol\":9322:9399  require(uint(stage) == uint(_stage), \"Contract is not in the required state\") */\n      tag_242\n      jumpi\n      mload(0x40)\n      0x08c379a000000000000000000000000000000000000000000000000000000000\n      dup2\n      mstore\n      0x04\n      add\n      tag_243\n      swap1\n      tag_178\n      jump\t// in\n    tag_243:\n      mload(0x40)\n      dup1\n      swap2\n      sub\n      swap1\n      revert\n    tag_242:\n        /* \"Vendor.sol\":8073:8086  Stages.Active */\n      0x03\n        /* \"Vendor.sol\":8065:8070  stage */\n      0x09\n      0x00\n        /* \"Vendor.sol\":8065:8086  stage = Stages.Active */\n      0x0100\n      exp\n      dup2\n      sload\n      dup2\n      0xff\n      mul\n      not\n      and\n      swap1\n      dup4\n      0x04\n      dup2\n      gt\n      iszero\n      tag_245\n      jumpi\n      tag_246\n      tag_165\n      jump\t// in\n    tag_246:\n    tag_245:\n      mul\n      or\n      swap1\n      sstore\n      pop\n        /* \"Vendor.sol\":8000:8093  function setActive() external atStage(Stages.Inactive) {... */\n      pop\n      jump\t// out\n        /* \"Vendor.sol\":8200:8290  function destroy() external atStage(Stages.Inactive) {... */\n    tag_100:\n        /* \"Vendor.sol\":8236:8251  Stages.Inactive */\n      0x02\n        /* \"Vendor.sol\":9177:9230  Log(\"inside atStage, current stage is:\", uint(stage)) */\n      0xdd970dd9b5bfe707922155b058a407655cb18288b807e2216442bca8ad83d6b5\n        /* \"Vendor.sol\":9223:9228  stage */\n      0x09\n      0x00\n      swap1\n      sload\n      swap1\n      0x0100\n      exp\n      swap1\n      div\n      0xff\n      and\n        /* \"Vendor.sol\":9218:9229  uint(stage) */\n      0x04\n      dup2\n      gt\n      iszero\n      tag_248\n      jumpi\n      tag_249\n      tag_165\n      jump\t// in\n    tag_249:\n    tag_248:\n        /* \"Vendor.sol\":9177:9230  Log(\"inside atStage, current stage is:\", uint(stage)) */\n      mload(0x40)\n      tag_250\n      swap2\n      swap1\n      tag_167\n      jump\t// in\n    tag_250:\n      mload(0x40)\n      dup1\n      swap2\n      sub\n      swap1\n      log1\n        /* \"Vendor.sol\":9245:9312  Log(\"still inside atStage, trying to compare it to:\", uint(_stage)) */\n      0xdd970dd9b5bfe707922155b058a407655cb18288b807e2216442bca8ad83d6b5\n        /* \"Vendor.sol\":9304:9310  _stage */\n      dup2\n        /* \"Vendor.sol\":9299:9311  uint(_stage) */\n      0x04\n      dup2\n      gt\n      iszero\n      tag_251\n      jumpi\n      tag_252\n      tag_165\n      jump\t// in\n    tag_252:\n    tag_251:\n        /* \"Vendor.sol\":9245:9312  Log(\"still inside atStage, trying to compare it to:\", uint(_stage)) */\n      mload(0x40)\n      tag_253\n      swap2\n      swap1\n      tag_171\n      jump\t// in\n    tag_253:\n      mload(0x40)\n      dup1\n      swap2\n      sub\n      swap1\n      log1\n        /* \"Vendor.sol\":9350:9356  _stage */\n      dup1\n        /* \"Vendor.sol\":9345:9357  uint(_stage) */\n      0x04\n      dup2\n      gt\n      iszero\n      tag_254\n      jumpi\n      tag_255\n      tag_165\n      jump\t// in\n    tag_255:\n    tag_254:\n        /* \"Vendor.sol\":9335:9340  stage */\n      0x09\n      0x00\n      swap1\n      sload\n      swap1\n      0x0100\n      exp\n      swap1\n      div\n      0xff\n      and\n        /* \"Vendor.sol\":9330:9341  uint(stage) */\n      0x04\n      dup2\n      gt\n      iszero\n      tag_256\n      jumpi\n      tag_257\n      tag_165\n      jump\t// in\n    tag_257:\n    tag_256:\n        /* \"Vendor.sol\":9330:9357  uint(stage) == uint(_stage) */\n      eq\n        /* \"Vendor.sol\":9322:9399  require(uint(stage) == uint(_stage), \"Contract is not in the required state\") */\n      tag_258\n      jumpi\n      mload(0x40)\n      0x08c379a000000000000000000000000000000000000000000000000000000000\n      dup2\n      mstore\n      0x04\n      add\n      tag_259\n      swap1\n      tag_178\n      jump\t// in\n    tag_259:\n      mload(0x40)\n      dup1\n      swap2\n      sub\n      swap1\n      revert\n    tag_258:\n        /* \"Vendor.sol\":8276:8282  client */\n      0x01\n      0x00\n      swap1\n      sload\n      swap1\n      0x0100\n      exp\n      swap1\n      div\n      0xffffffffffffffffffffffffffffffffffffffff\n      and\n        /* \"Vendor.sol\":8263:8283  selfdestruct(client) */\n      0xffffffffffffffffffffffffffffffffffffffff\n      and\n      selfdestruct\n        /* \"Vendor.sol\":4935:5092  function storePayment() external payable atStage(Stages.Active) checkBillingDate() {... */\n    tag_102:\n        /* \"Vendor.sol\":4984:4997  Stages.Active */\n      0x03\n        /* \"Vendor.sol\":9177:9230  Log(\"inside atStage, current stage is:\", uint(stage)) */\n      0xdd970dd9b5bfe707922155b058a407655cb18288b807e2216442bca8ad83d6b5\n        /* \"Vendor.sol\":9223:9228  stage */\n      0x09\n      0x00\n      swap1\n      sload\n      swap1\n      0x0100\n      exp\n      swap1\n      div\n      0xff\n      and\n        /* \"Vendor.sol\":9218:9229  uint(stage) */\n      0x04\n      dup2\n      gt\n      iszero\n      tag_262\n      jumpi\n      tag_263\n      tag_165\n      jump\t// in\n    tag_263:\n    tag_262:\n        /* \"Vendor.sol\":9177:9230  Log(\"inside atStage, current stage is:\", uint(stage)) */\n      mload(0x40)\n      tag_264\n      swap2\n      swap1\n      tag_167\n      jump\t// in\n    tag_264:\n      mload(0x40)\n      dup1\n      swap2\n      sub\n      swap1\n      log1\n        /* \"Vendor.sol\":9245:9312  Log(\"still inside atStage, trying to compare it to:\", uint(_stage)) */\n      0xdd970dd9b5bfe707922155b058a407655cb18288b807e2216442bca8ad83d6b5\n        /* \"Vendor.sol\":9304:9310  _stage */\n      dup2\n        /* \"Vendor.sol\":9299:9311  uint(_stage) */\n      0x04\n      dup2\n      gt\n      iszero\n      tag_265\n      jumpi\n      tag_266\n      tag_165\n      jump\t// in\n    tag_266:\n    tag_265:\n        /* \"Vendor.sol\":9245:9312  Log(\"still inside atStage, trying to compare it to:\", uint(_stage)) */\n      mload(0x40)\n      tag_267\n      swap2\n      swap1\n      tag_171\n      jump\t// in\n    tag_267:\n      mload(0x40)\n      dup1\n      swap2\n      sub\n      swap1\n      log1\n        /* \"Vendor.sol\":9350:9356  _stage */\n      dup1\n        /* \"Vendor.sol\":9345:9357  uint(_stage) */\n      0x04\n      dup2\n      gt\n      iszero\n      tag_268\n      jumpi\n      tag_269\n      tag_165\n      jump\t// in\n    tag_269:\n    tag_268:\n        /* \"Vendor.sol\":9335:9340  stage */\n      0x09\n      0x00\n      swap1\n      sload\n      swap1\n      0x0100\n      exp\n      swap1\n      div\n      0xff\n      and\n        /* \"Vendor.sol\":9330:9341  uint(stage) */\n      0x04\n      dup2\n      gt\n      iszero\n      tag_270\n      jumpi\n      tag_271\n      tag_165\n      jump\t// in\n    tag_271:\n    tag_270:\n        /* \"Vendor.sol\":9330:9357  uint(stage) == uint(_stage) */\n      eq\n        /* \"Vendor.sol\":9322:9399  require(uint(stage) == uint(_stage), \"Contract is not in the required state\") */\n      tag_272\n      jumpi\n      mload(0x40)\n      0x08c379a000000000000000000000000000000000000000000000000000000000\n      dup2\n      mstore\n      0x04\n      add\n      tag_273\n      swap1\n      tag_178\n      jump\t// in\n    tag_273:\n      mload(0x40)\n      dup1\n      swap2\n      sub\n      swap1\n      revert\n    tag_272:\n        /* \"Vendor.sol\":8699:8714  nextBillingDate */\n      sload(0x07)\n        /* \"Vendor.sol\":8684:8696  block.number */\n      number\n        /* \"Vendor.sol\":8684:8714  block.number > nextBillingDate */\n      gt\n        /* \"Vendor.sol\":8680:8908  if (block.number > nextBillingDate) {... */\n      iszero\n      tag_275\n      jumpi\n        /* \"Vendor.sol\":8730:8743  isSatisfied() */\n      tag_276\n        /* \"Vendor.sol\":8730:8741  isSatisfied */\n      tag_121\n        /* \"Vendor.sol\":8730:8743  isSatisfied() */\n      jump\t// in\n    tag_276:\n        /* \"Vendor.sol\":8680:8908  if (block.number > nextBillingDate) {... */\n      jump(tag_277)\n    tag_275:\n        /* \"Vendor.sol\":8798:8813  prevBillingDate */\n      sload(0x06)\n        /* \"Vendor.sol\":8782:8794  block.number */\n      number\n        /* \"Vendor.sol\":8782:8813  block.number >= prevBillingDate */\n      lt\n      iszero\n        /* \"Vendor.sol\":8782:8848  block.number >= prevBillingDate && block.number <= nextBillingDate */\n      dup1\n      iszero\n      tag_278\n      jumpi\n      pop\n        /* \"Vendor.sol\":8833:8848  nextBillingDate */\n      sload(0x07)\n        /* \"Vendor.sol\":8817:8829  block.number */\n      number\n        /* \"Vendor.sol\":8817:8848  block.number <= nextBillingDate */\n      gt\n      iszero\n        /* \"Vendor.sol\":8782:8848  block.number >= prevBillingDate && block.number <= nextBillingDate */\n    tag_278:\n        /* \"Vendor.sol\":8774:8882  require(block.number >= prevBillingDate && block.number <= nextBillingDate, \"Not within the billing period\") */\n      tag_279\n      jumpi\n      mload(0x40)\n      0x08c379a000000000000000000000000000000000000000000000000000000000\n      dup2\n      mstore\n      0x04\n      add\n      tag_280\n      swap1\n      tag_205\n      jump\t// in\n    tag_280:\n      mload(0x40)\n      dup1\n      swap2\n      sub\n      swap1\n      revert\n    tag_279:\n        /* \"Vendor.sol\":5045:5051  amount */\n      sload(0x05)\n        /* \"Vendor.sol\":5032:5041  msg.value */\n      callvalue\n        /* \"Vendor.sol\":5032:5051  msg.value != amount */\n      eq\n        /* \"Vendor.sol\":5028:5086  if (msg.value != amount) {... */\n      tag_282\n      jumpi\n        /* \"Vendor.sol\":5067:5075  revert() */\n      0x00\n      dup1\n      revert\n        /* \"Vendor.sol\":5028:5086  if (msg.value != amount) {... */\n    tag_282:\n        /* \"Vendor.sol\":8680:8908  if (block.number > nextBillingDate) {... */\n    tag_277:\n        /* \"Vendor.sol\":4935:5092  function storePayment() external payable atStage(Stages.Active) checkBillingDate() {... */\n      pop\n      jump\t// out\n        /* \"Vendor.sol\":445:469  uint public contractHash */\n    tag_105:\n      sload(0x08)\n      dup2\n      jump\t// out\n        /* \"Vendor.sol\":3733:4033  function endInitStage() public atStage(Stages.Initialising) {... */\n    tag_109:\n        /* \"Vendor.sol\":3772:3791  Stages.Initialising */\n      0x00\n        /* \"Vendor.sol\":9177:9230  Log(\"inside atStage, current stage is:\", uint(stage)) */\n      0xdd970dd9b5bfe707922155b058a407655cb18288b807e2216442bca8ad83d6b5\n        /* \"Vendor.sol\":9223:9228  stage */\n      0x09\n      0x00\n      swap1\n      sload\n      swap1\n      0x0100\n      exp\n      swap1\n      div\n      0xff\n      and\n        /* \"Vendor.sol\":9218:9229  uint(stage) */\n      0x04\n      dup2\n      gt\n      iszero\n      tag_284\n      jumpi\n      tag_285\n      tag_165\n      jump\t// in\n    tag_285:\n    tag_284:\n        /* \"Vendor.sol\":9177:9230  Log(\"inside atStage, current stage is:\", uint(stage)) */\n      mload(0x40)\n      tag_286\n      swap2\n      swap1\n      tag_167\n      jump\t// in\n    tag_286:\n      mload(0x40)\n      dup1\n      swap2\n      sub\n      swap1\n      log1\n        /* \"Vendor.sol\":9245:9312  Log(\"still inside atStage, trying to compare it to:\", uint(_stage)) */\n      0xdd970dd9b5bfe707922155b058a407655cb18288b807e2216442bca8ad83d6b5\n        /* \"Vendor.sol\":9304:9310  _stage */\n      dup2\n        /* \"Vendor.sol\":9299:9311  uint(_stage) */\n      0x04\n      dup2\n      gt\n      iszero\n      tag_287\n      jumpi\n      tag_288\n      tag_165\n      jump\t// in\n    tag_288:\n    tag_287:\n        /* \"Vendor.sol\":9245:9312  Log(\"still inside atStage, trying to compare it to:\", uint(_stage)) */\n      mload(0x40)\n      tag_289\n      swap2\n      swap1\n      tag_171\n      jump\t// in\n    tag_289:\n      mload(0x40)\n      dup1\n      swap2\n      sub\n      swap1\n      log1\n        /* \"Vendor.sol\":9350:9356  _stage */\n      dup1\n        /* \"Vendor.sol\":9345:9357  uint(_stage) */\n      0x04\n      dup2\n      gt\n      iszero\n      tag_290\n      jumpi\n      tag_291\n      tag_165\n      jump\t// in\n    tag_291:\n    tag_290:\n        /* \"Vendor.sol\":9335:9340  stage */\n      0x09\n      0x00\n      swap1\n      sload\n      swap1\n      0x0100\n      exp\n      swap1\n      div\n      0xff\n      and\n        /* \"Vendor.sol\":9330:9341  uint(stage) */\n      0x04\n      dup2\n      gt\n      iszero\n      tag_292\n      jumpi\n      tag_293\n      tag_165\n      jump\t// in\n    tag_293:\n    tag_292:\n        /* \"Vendor.sol\":9330:9357  uint(stage) == uint(_stage) */\n      eq\n        /* \"Vendor.sol\":9322:9399  require(uint(stage) == uint(_stage), \"Contract is not in the required state\") */\n      tag_294\n      jumpi\n      mload(0x40)\n      0x08c379a000000000000000000000000000000000000000000000000000000000\n      dup2\n      mstore\n      0x04\n      add\n      tag_295\n      swap1\n      tag_178\n      jump\t// in\n    tag_295:\n      mload(0x40)\n      dup1\n      swap2\n      sub\n      swap1\n      revert\n    tag_294:\n        /* \"Vendor.sol\":3808:3866  Log(\"inside endInitStage, current stage is:\", uint(stage)) */\n      0xdd970dd9b5bfe707922155b058a407655cb18288b807e2216442bca8ad83d6b5\n        /* \"Vendor.sol\":3859:3864  stage */\n      0x09\n      0x00\n      swap1\n      sload\n      swap1\n      0x0100\n      exp\n      swap1\n      div\n      0xff\n      and\n        /* \"Vendor.sol\":3854:3865  uint(stage) */\n      0x04\n      dup2\n      gt\n      iszero\n      tag_297\n      jumpi\n      tag_298\n      tag_165\n      jump\t// in\n    tag_298:\n    tag_297:\n        /* \"Vendor.sol\":3808:3866  Log(\"inside endInitStage, current stage is:\", uint(stage)) */\n      mload(0x40)\n      tag_299\n      swap2\n      swap1\n      tag_300\n      jump\t// in\n    tag_299:\n      mload(0x40)\n      dup1\n      swap2\n      sub\n      swap1\n      log1\n        /* \"Vendor.sol\":3884:3898  Stages.Pending */\n      0x01\n        /* \"Vendor.sol\":3876:3881  stage */\n      0x09\n      0x00\n        /* \"Vendor.sol\":3876:3898  stage = Stages.Pending */\n      0x0100\n      exp\n      dup2\n      sload\n      dup2\n      0xff\n      mul\n      not\n      and\n      swap1\n      dup4\n      0x04\n      dup2\n      gt\n      iszero\n      tag_301\n      jumpi\n      tag_302\n      tag_165\n      jump\t// in\n    tag_302:\n    tag_301:\n      mul\n      or\n      swap1\n      sstore\n      pop\n        /* \"Vendor.sol\":3961:3967  uint i */\n      0x00\n        /* \"Vendor.sol\":3956:4027  for (uint i = 0; i < 8; i++) {... */\n    tag_303:\n        /* \"Vendor.sol\":3977:3978  8 */\n      0x08\n        /* \"Vendor.sol\":3973:3974  i */\n      dup2\n        /* \"Vendor.sol\":3973:3978  i < 8 */\n      lt\n        /* \"Vendor.sol\":3956:4027  for (uint i = 0; i < 8; i++) {... */\n      iszero\n      tag_304\n      jumpi\n        /* \"Vendor.sol\":4015:4016  0 */\n      0x00\n        /* \"Vendor.sol\":3999:4009  cumulative */\n      0x24\n        /* \"Vendor.sol\":3999:4012  cumulative[i] */\n      0x00\n        /* \"Vendor.sol\":4010:4011  i */\n      dup4\n        /* \"Vendor.sol\":3999:4012  cumulative[i] */\n      dup2\n      mstore\n      0x20\n      add\n      swap1\n      dup2\n      mstore\n      0x20\n      add\n      0x00\n      keccak256\n        /* \"Vendor.sol\":3999:4016  cumulative[i] = 0 */\n      dup2\n      swap1\n      sstore\n      pop\n        /* \"Vendor.sol\":3980:3983  i++ */\n      dup1\n      dup1\n      tag_306\n      swap1\n      tag_216\n      jump\t// in\n    tag_306:\n      swap2\n      pop\n      pop\n        /* \"Vendor.sol\":3956:4027  for (uint i = 0; i < 8; i++) {... */\n      jump(tag_303)\n    tag_304:\n      pop\n        /* \"Vendor.sol\":3733:4033  function endInitStage() public atStage(Stages.Initialising) {... */\n      pop\n      jump\t// out\n        /* \"Vendor.sol\":268:293  bool public payeeApproved */\n    tag_112:\n      0x02\n      0x14\n      swap1\n      sload\n      swap1\n      0x0100\n      exp\n      swap1\n      div\n      0xff\n      and\n      dup2\n      jump\t// out\n        /* \"Vendor.sol\":1971:2403  function init(address _client, uint _expiredOn, uint _startDate, uint _contractHash, uint _amount) public {... */\n    tag_118:\n        /* \"Vendor.sol\":2095:2105  msg.sender */\n      caller\n        /* \"Vendor.sol\":2087:2092  admin */\n      0x00\n      dup1\n        /* \"Vendor.sol\":2087:2105  admin = msg.sender */\n      0x0100\n      exp\n      dup2\n      sload\n      dup2\n      0xffffffffffffffffffffffffffffffffffffffff\n      mul\n      not\n      and\n      swap1\n      dup4\n      0xffffffffffffffffffffffffffffffffffffffff\n      and\n      mul\n      or\n      swap1\n      sstore\n      pop\n        /* \"Vendor.sol\":2132:2139  _client */\n      dup5\n        /* \"Vendor.sol\":2115:2121  client */\n      0x01\n      0x00\n        /* \"Vendor.sol\":2115:2140  client = payable(_client) */\n      0x0100\n      exp\n      dup2\n      sload\n      dup2\n      0xffffffffffffffffffffffffffffffffffffffff\n      mul\n      not\n      and\n      swap1\n      dup4\n      0xffffffffffffffffffffffffffffffffffffffff\n      and\n      mul\n      or\n      swap1\n      sstore\n      pop\n        /* \"Vendor.sol\":2163:2183  calcDate(_expiredOn) */\n      tag_308\n        /* \"Vendor.sol\":2172:2182  _expiredOn */\n      dup5\n        /* \"Vendor.sol\":2163:2171  calcDate */\n      tag_309\n        /* \"Vendor.sol\":2163:2183  calcDate(_expiredOn) */\n      jump\t// in\n    tag_308:\n        /* \"Vendor.sol\":2150:2160  expiryDate */\n      0x04\n        /* \"Vendor.sol\":2150:2183  expiryDate = calcDate(_expiredOn) */\n      dup2\n      swap1\n      sstore\n      pop\n        /* \"Vendor.sol\":2205:2206  0 */\n      0x00\n        /* \"Vendor.sol\":2193:2202  startDate */\n      0x03\n        /* \"Vendor.sol\":2193:2206  startDate = 0 */\n      dup2\n      swap1\n      sstore\n      pop\n        /* \"Vendor.sol\":2234:2254  calcDate(_startDate) */\n      tag_310\n        /* \"Vendor.sol\":2243:2253  _startDate */\n      dup4\n        /* \"Vendor.sol\":2234:2242  calcDate */\n      tag_309\n        /* \"Vendor.sol\":2234:2254  calcDate(_startDate) */\n      jump\t// in\n    tag_310:\n        /* \"Vendor.sol\":2216:2231  prevBillingDate */\n      0x06\n        /* \"Vendor.sol\":2216:2254  prevBillingDate = calcDate(_startDate) */\n      dup2\n      swap1\n      sstore\n      pop\n        /* \"Vendor.sol\":2282:2307  calcDate(_startDate + 30) */\n      tag_311\n        /* \"Vendor.sol\":2304:2306  30 */\n      0x1e\n        /* \"Vendor.sol\":2291:2301  _startDate */\n      dup5\n        /* \"Vendor.sol\":2291:2306  _startDate + 30 */\n      tag_312\n      swap2\n      swap1\n      tag_313\n      jump\t// in\n    tag_312:\n        /* \"Vendor.sol\":2282:2290  calcDate */\n      tag_309\n        /* \"Vendor.sol\":2282:2307  calcDate(_startDate + 30) */\n      jump\t// in\n    tag_311:\n        /* \"Vendor.sol\":2264:2279  nextBillingDate */\n      0x07\n        /* \"Vendor.sol\":2264:2307  nextBillingDate = calcDate(_startDate + 30) */\n      dup2\n      swap1\n      sstore\n      pop\n        /* \"Vendor.sol\":2332:2345  _contractHash */\n      dup2\n        /* \"Vendor.sol\":2317:2329  contractHash */\n      0x08\n        /* \"Vendor.sol\":2317:2345  contractHash = _contractHash */\n      dup2\n      swap1\n      sstore\n      pop\n        /* \"Vendor.sol\":2364:2371  _amount */\n      dup1\n        /* \"Vendor.sol\":2355:2361  amount */\n      0x05\n        /* \"Vendor.sol\":2355:2371  amount = _amount */\n      dup2\n      swap1\n      sstore\n      pop\n        /* \"Vendor.sol\":2381:2396  initOperators() */\n      tag_314\n        /* \"Vendor.sol\":2381:2394  initOperators */\n      tag_315\n        /* \"Vendor.sol\":2381:2396  initOperators() */\n      jump\t// in\n    tag_314:\n        /* \"Vendor.sol\":1971:2403  function init(address _client, uint _expiredOn, uint _startDate, uint _contractHash, uint _amount) public {... */\n      pop\n      pop\n      pop\n      pop\n      pop\n      jump\t// out\n        /* \"Vendor.sol\":6495:7106  function isSatisfied() public atStage(Stages.Active) {... */\n    tag_121:\n        /* \"Vendor.sol\":6533:6546  Stages.Active */\n      0x03\n        /* \"Vendor.sol\":9177:9230  Log(\"inside atStage, current stage is:\", uint(stage)) */\n      0xdd970dd9b5bfe707922155b058a407655cb18288b807e2216442bca8ad83d6b5\n        /* \"Vendor.sol\":9223:9228  stage */\n      0x09\n      0x00\n      swap1\n      sload\n      swap1\n      0x0100\n      exp\n      swap1\n      div\n      0xff\n      and\n        /* \"Vendor.sol\":9218:9229  uint(stage) */\n      0x04\n      dup2\n      gt\n      iszero\n      tag_317\n      jumpi\n      tag_318\n      tag_165\n      jump\t// in\n    tag_318:\n    tag_317:\n        /* \"Vendor.sol\":9177:9230  Log(\"inside atStage, current stage is:\", uint(stage)) */\n      mload(0x40)\n      tag_319\n      swap2\n      swap1\n      tag_167\n      jump\t// in\n    tag_319:\n      mload(0x40)\n      dup1\n      swap2\n      sub\n      swap1\n      log1\n        /* \"Vendor.sol\":9245:9312  Log(\"still inside atStage, trying to compare it to:\", uint(_stage)) */\n      0xdd970dd9b5bfe707922155b058a407655cb18288b807e2216442bca8ad83d6b5\n        /* \"Vendor.sol\":9304:9310  _stage */\n      dup2\n        /* \"Vendor.sol\":9299:9311  uint(_stage) */\n      0x04\n      dup2\n      gt\n      iszero\n      tag_320\n      jumpi\n      tag_321\n      tag_165\n      jump\t// in\n    tag_321:\n    tag_320:\n        /* \"Vendor.sol\":9245:9312  Log(\"still inside atStage, trying to compare it to:\", uint(_stage)) */\n      mload(0x40)\n      tag_322\n      swap2\n      swap1\n      tag_171\n      jump\t// in\n    tag_322:\n      mload(0x40)\n      dup1\n      swap2\n      sub\n      swap1\n      log1\n        /* \"Vendor.sol\":9350:9356  _stage */\n      dup1\n        /* \"Vendor.sol\":9345:9357  uint(_stage) */\n      0x04\n      dup2\n      gt\n      iszero\n      tag_323\n      jumpi\n      tag_324\n      tag_165\n      jump\t// in\n    tag_324:\n    tag_323:\n        /* \"Vendor.sol\":9335:9340  stage */\n      0x09\n      0x00\n      swap1\n      sload\n      swap1\n      0x0100\n      exp\n      swap1\n      div\n      0xff\n      and\n        /* \"Vendor.sol\":9330:9341  uint(stage) */\n      0x04\n      dup2\n      gt\n      iszero\n      tag_325\n      jumpi\n      tag_326\n      tag_165\n      jump\t// in\n    tag_326:\n    tag_325:\n        /* \"Vendor.sol\":9330:9357  uint(stage) == uint(_stage) */\n      eq\n        /* \"Vendor.sol\":9322:9399  require(uint(stage) == uint(_stage), \"Contract is not in the required state\") */\n      tag_327\n      jumpi\n      mload(0x40)\n      0x08c379a000000000000000000000000000000000000000000000000000000000\n      dup2\n      mstore\n      0x04\n      add\n      tag_328\n      swap1\n      tag_178\n      jump\t// in\n    tag_328:\n      mload(0x40)\n      dup1\n      swap2\n      sub\n      swap1\n      revert\n    tag_327:\n        /* \"Vendor.sol\":6563:6569  uint i */\n      0x00\n        /* \"Vendor.sol\":6558:6942  for (uint i = 0; i < conditionCount; i++) {... */\n    tag_330:\n        /* \"Vendor.sol\":6579:6593  conditionCount */\n      sload(0x23)\n        /* \"Vendor.sol\":6575:6576  i */\n      dup2\n        /* \"Vendor.sol\":6575:6593  i < conditionCount */\n      lt\n        /* \"Vendor.sol\":6558:6942  for (uint i = 0; i < conditionCount; i++) {... */\n      iszero\n      tag_331\n      jumpi\n        /* \"Vendor.sol\":6614:6626  int operator */\n      0x00\n        /* \"Vendor.sol\":6629:6638  operators */\n      0x1a\n        /* \"Vendor.sol\":6639:6640  i */\n      dup3\n        /* \"Vendor.sol\":6629:6641  operators[i] */\n      0x08\n      dup2\n      lt\n      tag_333\n      jumpi\n      tag_334\n      tag_212\n      jump\t// in\n    tag_334:\n    tag_333:\n      add\n      sload\n        /* \"Vendor.sol\":6614:6641  int operator = operators[i] */\n      swap1\n      pop\n        /* \"Vendor.sol\":6655:6664  int value */\n      0x00\n        /* \"Vendor.sol\":6667:6673  values */\n      0x12\n        /* \"Vendor.sol\":6674:6675  i */\n      dup4\n        /* \"Vendor.sol\":6667:6676  values[i] */\n      0x08\n      dup2\n      lt\n      tag_336\n      jumpi\n      tag_337\n      tag_212\n      jump\t// in\n    tag_337:\n    tag_336:\n      add\n      sload\n        /* \"Vendor.sol\":6655:6676  int value = values[i] */\n      swap1\n      pop\n        /* \"Vendor.sol\":6690:6702  int _toCheck */\n      0x00\n        /* \"Vendor.sol\":6719:6724  count */\n      sload(0x25)\n        /* \"Vendor.sol\":6705:6715  cumulative */\n      0x24\n        /* \"Vendor.sol\":6705:6718  cumulative[i] */\n      0x00\n        /* \"Vendor.sol\":6716:6717  i */\n      dup7\n        /* \"Vendor.sol\":6705:6718  cumulative[i] */\n      dup2\n      mstore\n      0x20\n      add\n      swap1\n      dup2\n      mstore\n      0x20\n      add\n      0x00\n      keccak256\n      sload\n        /* \"Vendor.sol\":6705:6724  cumulative[i]/count */\n      tag_339\n      swap2\n      swap1\n      tag_340\n      jump\t// in\n    tag_339:\n        /* \"Vendor.sol\":6690:6724  int _toCheck = cumulative[i]/count */\n      swap1\n      pop\n        /* \"Vendor.sol\":6756:6792  condValid(operator, _toCheck, value) */\n      tag_341\n        /* \"Vendor.sol\":6766:6774  operator */\n      dup4\n        /* \"Vendor.sol\":6776:6784  _toCheck */\n      dup3\n        /* \"Vendor.sol\":6786:6791  value */\n      dup5\n        /* \"Vendor.sol\":6756:6765  condValid */\n      tag_342\n        /* \"Vendor.sol\":6756:6792  condValid(operator, _toCheck, value) */\n      jump\t// in\n    tag_341:\n        /* \"Vendor.sol\":6751:6932  if (!condValid(operator, _toCheck, value)) {... */\n      tag_343\n      jumpi\n        /* \"Vendor.sol\":6812:6820  refund() */\n      tag_344\n        /* \"Vendor.sol\":6812:6818  refund */\n      tag_345\n        /* \"Vendor.sol\":6812:6820  refund() */\n      jump\t// in\n    tag_344:\n        /* \"Vendor.sol\":6849:6859  msg.sender */\n      caller\n        /* \"Vendor.sol\":6843:6893  State(msg.sender, satisfied, \"Refunding payment.\") */\n      0xffffffffffffffffffffffffffffffffffffffff\n      and\n      0xa84226bf2d14bde3fac454f52eaeab63aaeb1934da88f9263dd4ff7dd12acf71\n        /* \"Vendor.sol\":6861:6870  satisfied */\n      0x09\n      0x01\n      swap1\n      sload\n      swap1\n      0x0100\n      exp\n      swap1\n      div\n      0xff\n      and\n        /* \"Vendor.sol\":6843:6893  State(msg.sender, satisfied, \"Refunding payment.\") */\n      mload(0x40)\n      tag_346\n      swap2\n      swap1\n      tag_347\n      jump\t// in\n    tag_346:\n      mload(0x40)\n      dup1\n      swap2\n      sub\n      swap1\n      log2\n        /* \"Vendor.sol\":6911:6918  return; */\n      pop\n      pop\n      pop\n      pop\n      jump(tag_329)\n        /* \"Vendor.sol\":6751:6932  if (!condValid(operator, _toCheck, value)) {... */\n    tag_343:\n        /* \"Vendor.sol\":6600:6942  {... */\n      pop\n      pop\n      pop\n        /* \"Vendor.sol\":6595:6598  i++ */\n      dup1\n      dup1\n      tag_348\n      swap1\n      tag_216\n      jump\t// in\n    tag_348:\n      swap2\n      pop\n      pop\n        /* \"Vendor.sol\":6558:6942  for (uint i = 0; i < conditionCount; i++) {... */\n      jump(tag_330)\n    tag_331:\n      pop\n        /* \"Vendor.sol\":6963:6967  true */\n      0x01\n        /* \"Vendor.sol\":6951:6960  satisfied */\n      0x09\n      0x01\n        /* \"Vendor.sol\":6951:6967  satisfied = true */\n      0x0100\n      exp\n      dup2\n      sload\n      dup2\n      0xff\n      mul\n      not\n      and\n      swap1\n      dup4\n      iszero\n      iszero\n      mul\n      or\n      swap1\n      sstore\n      pop\n        /* \"Vendor.sol\":6988:6998  msg.sender */\n      caller\n        /* \"Vendor.sol\":6982:7030  State(msg.sender, satisfied, \"Sending payment.\") */\n      0xffffffffffffffffffffffffffffffffffffffff\n      and\n      0xa84226bf2d14bde3fac454f52eaeab63aaeb1934da88f9263dd4ff7dd12acf71\n        /* \"Vendor.sol\":7000:7009  satisfied */\n      0x09\n      0x01\n      swap1\n      sload\n      swap1\n      0x0100\n      exp\n      swap1\n      div\n      0xff\n      and\n        /* \"Vendor.sol\":6982:7030  State(msg.sender, satisfied, \"Sending payment.\") */\n      mload(0x40)\n      tag_349\n      swap2\n      swap1\n      tag_350\n      jump\t// in\n    tag_349:\n      mload(0x40)\n      dup1\n      swap2\n      sub\n      swap1\n      log2\n        /* \"Vendor.sol\":7088:7099  payVendor() */\n      tag_351\n        /* \"Vendor.sol\":7088:7097  payVendor */\n      tag_352\n        /* \"Vendor.sol\":7088:7099  payVendor() */\n      jump\t// in\n    tag_351:\n        /* \"Vendor.sol\":9409:9410  _ */\n    tag_329:\n        /* \"Vendor.sol\":6495:7106  function isSatisfied() public atStage(Stages.Active) {... */\n      pop\n      jump\t// out\n        /* \"Vendor.sol\":355:373  uint public amount */\n    tag_124:\n      sload(0x05)\n      dup2\n      jump\t// out\n        /* \"Vendor.sol\":234:262  address payable public payee */\n    tag_128:\n      0x02\n      0x00\n      swap1\n      sload\n      swap1\n      0x0100\n      exp\n      swap1\n      div\n      0xffffffffffffffffffffffffffffffffffffffff\n      and\n      dup2\n      jump\t// out\n        /* \"Vendor.sol\":593:634  Stages public stage = Stages.Initialising */\n    tag_132:\n      0x09\n      0x00\n      swap1\n      sload\n      swap1\n      0x0100\n      exp\n      swap1\n      div\n      0xff\n      and\n      dup2\n      jump\t// out\n        /* \"Vendor.sol\":761:784  int[8] public operators */\n    tag_138:\n      0x1a\n      dup2\n      0x08\n      dup2\n      lt\n      tag_353\n      jumpi\n      0x00\n      dup1\n      revert\n    tag_353:\n      add\n      0x00\n      swap2\n      pop\n      swap1\n      pop\n      sload\n      dup2\n      jump\t// out\n        /* \"Vendor.sol\":6165:6388  function receiveServiceDataBypass(int[] memory _cumulative) external atStage(Stages.Active) {... */\n    tag_143:\n        /* \"Vendor.sol\":6242:6255  Stages.Active */\n      0x03\n        /* \"Vendor.sol\":9177:9230  Log(\"inside atStage, current stage is:\", uint(stage)) */\n      0xdd970dd9b5bfe707922155b058a407655cb18288b807e2216442bca8ad83d6b5\n        /* \"Vendor.sol\":9223:9228  stage */\n      0x09\n      0x00\n      swap1\n      sload\n      swap1\n      0x0100\n      exp\n      swap1\n      div\n      0xff\n      and\n        /* \"Vendor.sol\":9218:9229  uint(stage) */\n      0x04\n      dup2\n      gt\n      iszero\n      tag_356\n      jumpi\n      tag_357\n      tag_165\n      jump\t// in\n    tag_357:\n    tag_356:\n        /* \"Vendor.sol\":9177:9230  Log(\"inside atStage, current stage is:\", uint(stage)) */\n      mload(0x40)\n      tag_358\n      swap2\n      swap1\n      tag_167\n      jump\t// in\n    tag_358:\n      mload(0x40)\n      dup1\n      swap2\n      sub\n      swap1\n      log1\n        /* \"Vendor.sol\":9245:9312  Log(\"still inside atStage, trying to compare it to:\", uint(_stage)) */\n      0xdd970dd9b5bfe707922155b058a407655cb18288b807e2216442bca8ad83d6b5\n        /* \"Vendor.sol\":9304:9310  _stage */\n      dup2\n        /* \"Vendor.sol\":9299:9311  uint(_stage) */\n      0x04\n      dup2\n      gt\n      iszero\n      tag_359\n      jumpi\n      tag_360\n      tag_165\n      jump\t// in\n    tag_360:\n    tag_359:\n        /* \"Vendor.sol\":9245:9312  Log(\"still inside atStage, trying to compare it to:\", uint(_stage)) */\n      mload(0x40)\n      tag_361\n      swap2\n      swap1\n      tag_171\n      jump\t// in\n    tag_361:\n      mload(0x40)\n      dup1\n      swap2\n      sub\n      swap1\n      log1\n        /* \"Vendor.sol\":9350:9356  _stage */\n      dup1\n        /* \"Vendor.sol\":9345:9357  uint(_stage) */\n      0x04\n      dup2\n      gt\n      iszero\n      tag_362\n      jumpi\n      tag_363\n      tag_165\n      jump\t// in\n    tag_363:\n    tag_362:\n        /* \"Vendor.sol\":9335:9340  stage */\n      0x09\n      0x00\n      swap1\n      sload\n      swap1\n      0x0100\n      exp\n      swap1\n      div\n      0xff\n      and\n        /* \"Vendor.sol\":9330:9341  uint(stage) */\n      0x04\n      dup2\n      gt\n      iszero\n      tag_364\n      jumpi\n      tag_365\n      tag_165\n      jump\t// in\n    tag_365:\n    tag_364:\n        /* \"Vendor.sol\":9330:9357  uint(stage) == uint(_stage) */\n      eq\n        /* \"Vendor.sol\":9322:9399  require(uint(stage) == uint(_stage), \"Contract is not in the required state\") */\n      tag_366\n      jumpi\n      mload(0x40)\n      0x08c379a000000000000000000000000000000000000000000000000000000000\n      dup2\n      mstore\n      0x04\n      add\n      tag_367\n      swap1\n      tag_178\n      jump\t// in\n    tag_367:\n      mload(0x40)\n      dup1\n      swap2\n      sub\n      swap1\n      revert\n    tag_366:\n        /* \"Vendor.sol\":6272:6278  uint i */\n      0x00\n        /* \"Vendor.sol\":6267:6365  for (uint i = 0; i < conditionCount; i++) {... */\n    tag_369:\n        /* \"Vendor.sol\":6288:6302  conditionCount */\n      sload(0x23)\n        /* \"Vendor.sol\":6284:6285  i */\n      dup2\n        /* \"Vendor.sol\":6284:6302  i < conditionCount */\n      lt\n        /* \"Vendor.sol\":6267:6365  for (uint i = 0; i < conditionCount; i++) {... */\n      iszero\n      tag_370\n      jumpi\n        /* \"Vendor.sol\":6340:6351  _cumulative */\n      dup3\n        /* \"Vendor.sol\":6352:6353  i */\n      dup2\n        /* \"Vendor.sol\":6340:6354  _cumulative[i] */\n      dup2\n      mload\n      dup2\n      lt\n      tag_372\n      jumpi\n      tag_373\n      tag_212\n      jump\t// in\n    tag_373:\n    tag_372:\n      0x20\n      mul\n      0x20\n      add\n      add\n      mload\n        /* \"Vendor.sol\":6323:6333  cumulative */\n      0x24\n        /* \"Vendor.sol\":6323:6336  cumulative[i] */\n      0x00\n        /* \"Vendor.sol\":6334:6335  i */\n      dup4\n        /* \"Vendor.sol\":6323:6336  cumulative[i] */\n      dup2\n      mstore\n      0x20\n      add\n      swap1\n      dup2\n      mstore\n      0x20\n      add\n      0x00\n      keccak256\n      0x00\n        /* \"Vendor.sol\":6323:6354  cumulative[i] += _cumulative[i] */\n      dup3\n      dup3\n      sload\n      tag_374\n      swap2\n      swap1\n      tag_214\n      jump\t// in\n    tag_374:\n      swap3\n      pop\n      pop\n      dup2\n      swap1\n      sstore\n      pop\n        /* \"Vendor.sol\":6304:6307  i++ */\n      dup1\n      dup1\n      tag_375\n      swap1\n      tag_216\n      jump\t// in\n    tag_375:\n      swap2\n      pop\n      pop\n        /* \"Vendor.sol\":6267:6365  for (uint i = 0; i < conditionCount; i++) {... */\n      jump(tag_369)\n    tag_370:\n      pop\n        /* \"Vendor.sol\":6374:6379  count */\n      0x25\n      0x00\n        /* \"Vendor.sol\":6374:6381  count++ */\n      dup2\n      sload\n      dup1\n      swap3\n      swap2\n      swap1\n      tag_376\n      swap1\n      tag_218\n      jump\t// in\n    tag_376:\n      swap2\n      swap1\n      pop\n      sstore\n      pop\n        /* \"Vendor.sol\":6165:6388  function receiveServiceDataBypass(int[] memory _cumulative) external atStage(Stages.Active) {... */\n      pop\n      pop\n      jump\t// out\n        /* \"Vendor.sol\":8099:8194  function setInactive() external atStage(Stages.Active) {... */\n    tag_146:\n        /* \"Vendor.sol\":8139:8152  Stages.Active */\n      0x03\n        /* \"Vendor.sol\":9177:9230  Log(\"inside atStage, current stage is:\", uint(stage)) */\n      0xdd970dd9b5bfe707922155b058a407655cb18288b807e2216442bca8ad83d6b5\n        /* \"Vendor.sol\":9223:9228  stage */\n      0x09\n      0x00\n      swap1\n      sload\n      swap1\n      0x0100\n      exp\n      swap1\n      div\n      0xff\n      and\n        /* \"Vendor.sol\":9218:9229  uint(stage) */\n      0x04\n      dup2\n      gt\n      iszero\n      tag_378\n      jumpi\n      tag_379\n      tag_165\n      jump\t// in\n    tag_379:\n    tag_378:\n        /* \"Vendor.sol\":9177:9230  Log(\"inside atStage, current stage is:\", uint(stage)) */\n      mload(0x40)\n      tag_380\n      swap2\n      swap1\n      tag_167\n      jump\t// in\n    tag_380:\n      mload(0x40)\n      dup1\n      swap2\n      sub\n      swap1\n      log1\n        /* \"Vendor.sol\":9245:9312  Log(\"still inside atStage, trying to compare it to:\", uint(_stage)) */\n      0xdd970dd9b5bfe707922155b058a407655cb18288b807e2216442bca8ad83d6b5\n        /* \"Vendor.sol\":9304:9310  _stage */\n      dup2\n        /* \"Vendor.sol\":9299:9311  uint(_stage) */\n      0x04\n      dup2\n      gt\n      iszero\n      tag_381\n      jumpi\n      tag_382\n      tag_165\n      jump\t// in\n    tag_382:\n    tag_381:\n        /* \"Vendor.sol\":9245:9312  Log(\"still inside atStage, trying to compare it to:\", uint(_stage)) */\n      mload(0x40)\n      tag_383\n      swap2\n      swap1\n      tag_171\n      jump\t// in\n    tag_383:\n      mload(0x40)\n      dup1\n      swap2\n      sub\n      swap1\n      log1\n        /* \"Vendor.sol\":9350:9356  _stage */\n      dup1\n        /* \"Vendor.sol\":9345:9357  uint(_stage) */\n      0x04\n      dup2\n      gt\n      iszero\n      tag_384\n      jumpi\n      tag_385\n      tag_165\n      jump\t// in\n    tag_385:\n    tag_384:\n        /* \"Vendor.sol\":9335:9340  stage */\n      0x09\n      0x00\n      swap1\n      sload\n      swap1\n      0x0100\n      exp\n      swap1\n      div\n      0xff\n      and\n        /* \"Vendor.sol\":9330:9341  uint(stage) */\n      0x04\n      dup2\n      gt\n      iszero\n      tag_386\n      jumpi\n      tag_387\n      tag_165\n      jump\t// in\n    tag_387:\n    tag_386:\n        /* \"Vendor.sol\":9330:9357  uint(stage) == uint(_stage) */\n      eq\n        /* \"Vendor.sol\":9322:9399  require(uint(stage) == uint(_stage), \"Contract is not in the required state\") */\n      tag_388\n      jumpi\n      mload(0x40)\n      0x08c379a000000000000000000000000000000000000000000000000000000000\n      dup2\n      mstore\n      0x04\n      add\n      tag_389\n      swap1\n      tag_178\n      jump\t// in\n    tag_389:\n      mload(0x40)\n      dup1\n      swap2\n      sub\n      swap1\n      revert\n    tag_388:\n        /* \"Vendor.sol\":8172:8187  Stages.Inactive */\n      0x02\n        /* \"Vendor.sol\":8164:8169  stage */\n      0x09\n      0x00\n        /* \"Vendor.sol\":8164:8187  stage = Stages.Inactive */\n      0x0100\n      exp\n      dup2\n      sload\n      dup2\n      0xff\n      mul\n      not\n      and\n      swap1\n      dup4\n      0x04\n      dup2\n      gt\n      iszero\n      tag_391\n      jumpi\n      tag_392\n      tag_165\n      jump\t// in\n    tag_392:\n    tag_391:\n      mul\n      or\n      swap1\n      sstore\n      pop\n        /* \"Vendor.sol\":8099:8194  function setInactive() external atStage(Stages.Active) {... */\n      pop\n      jump\t// out\n        /* \"Vendor.sol\":173:193  address public admin */\n    tag_149:\n      0x00\n      dup1\n      sload\n      swap1\n      0x0100\n      exp\n      swap1\n      div\n      0xffffffffffffffffffffffffffffffffffffffff\n      and\n      dup2\n      jump\t// out\n        /* \"Vendor.sol\":2819:3638  function setConds(string[8] memory _names, int[8] memory _values, string[8] memory _operators) external atStage(Stages.Initialising) {... */\n    tag_156:\n        /* \"Vendor.sol\":2931:2950  Stages.Initialising */\n      0x00\n        /* \"Vendor.sol\":9177:9230  Log(\"inside atStage, current stage is:\", uint(stage)) */\n      0xdd970dd9b5bfe707922155b058a407655cb18288b807e2216442bca8ad83d6b5\n        /* \"Vendor.sol\":9223:9228  stage */\n      0x09\n      0x00\n      swap1\n      sload\n      swap1\n      0x0100\n      exp\n      swap1\n      div\n      0xff\n      and\n        /* \"Vendor.sol\":9218:9229  uint(stage) */\n      0x04\n      dup2\n      gt\n      iszero\n      tag_394\n      jumpi\n      tag_395\n      tag_165\n      jump\t// in\n    tag_395:\n    tag_394:\n        /* \"Vendor.sol\":9177:9230  Log(\"inside atStage, current stage is:\", uint(stage)) */\n      mload(0x40)\n      tag_396\n      swap2\n      swap1\n      tag_167\n      jump\t// in\n    tag_396:\n      mload(0x40)\n      dup1\n      swap2\n      sub\n      swap1\n      log1\n        /* \"Vendor.sol\":9245:9312  Log(\"still inside atStage, trying to compare it to:\", uint(_stage)) */\n      0xdd970dd9b5bfe707922155b058a407655cb18288b807e2216442bca8ad83d6b5\n        /* \"Vendor.sol\":9304:9310  _stage */\n      dup2\n        /* \"Vendor.sol\":9299:9311  uint(_stage) */\n      0x04\n      dup2\n      gt\n      iszero\n      tag_397\n      jumpi\n      tag_398\n      tag_165\n      jump\t// in\n    tag_398:\n    tag_397:\n        /* \"Vendor.sol\":9245:9312  Log(\"still inside atStage, trying to compare it to:\", uint(_stage)) */\n      mload(0x40)\n      tag_399\n      swap2\n      swap1\n      tag_171\n      jump\t// in\n    tag_399:\n      mload(0x40)\n      dup1\n      swap2\n      sub\n      swap1\n      log1\n        /* \"Vendor.sol\":9350:9356  _stage */\n      dup1\n        /* \"Vendor.sol\":9345:9357  uint(_stage) */\n      0x04\n      dup2\n      gt\n      iszero\n      tag_400\n      jumpi\n      tag_401\n      tag_165\n      jump\t// in\n    tag_401:\n    tag_400:\n        /* \"Vendor.sol\":9335:9340  stage */\n      0x09\n      0x00\n      swap1\n      sload\n      swap1\n      0x0100\n      exp\n      swap1\n      div\n      0xff\n      and\n        /* \"Vendor.sol\":9330:9341  uint(stage) */\n      0x04\n      dup2\n      gt\n      iszero\n      tag_402\n      jumpi\n      tag_403\n      tag_165\n      jump\t// in\n    tag_403:\n    tag_402:\n        /* \"Vendor.sol\":9330:9357  uint(stage) == uint(_stage) */\n      eq\n        /* \"Vendor.sol\":9322:9399  require(uint(stage) == uint(_stage), \"Contract is not in the required state\") */\n      tag_404\n      jumpi\n      mload(0x40)\n      0x08c379a000000000000000000000000000000000000000000000000000000000\n      dup2\n      mstore\n      0x04\n      add\n      tag_405\n      swap1\n      tag_178\n      jump\t// in\n    tag_405:\n      mload(0x40)\n      dup1\n      swap2\n      sub\n      swap1\n      revert\n    tag_404:\n        /* \"Vendor.sol\":2967:3021  Log(\"inside setConds, current stage is:\", uint(stage)) */\n      0xdd970dd9b5bfe707922155b058a407655cb18288b807e2216442bca8ad83d6b5\n        /* \"Vendor.sol\":3014:3019  stage */\n      0x09\n      0x00\n      swap1\n      sload\n      swap1\n      0x0100\n      exp\n      swap1\n      div\n      0xff\n      and\n        /* \"Vendor.sol\":3009:3020  uint(stage) */\n      0x04\n      dup2\n      gt\n      iszero\n      tag_407\n      jumpi\n      tag_408\n      tag_165\n      jump\t// in\n    tag_408:\n    tag_407:\n        /* \"Vendor.sol\":2967:3021  Log(\"inside setConds, current stage is:\", uint(stage)) */\n      mload(0x40)\n      tag_409\n      swap2\n      swap1\n      tag_410\n      jump\t// in\n    tag_409:\n      mload(0x40)\n      dup1\n      swap2\n      sub\n      swap1\n      log1\n        /* \"Vendor.sol\":3036:3042  uint i */\n      0x00\n        /* \"Vendor.sol\":3031:3632  for (uint i = 0; i < 8; i++) {... */\n    tag_411:\n        /* \"Vendor.sol\":3052:3053  8 */\n      0x08\n        /* \"Vendor.sol\":3048:3049  i */\n      dup2\n        /* \"Vendor.sol\":3048:3053  i < 8 */\n      lt\n        /* \"Vendor.sol\":3031:3632  for (uint i = 0; i < 8; i++) {... */\n      iszero\n      tag_412\n      jumpi\n        /* \"Vendor.sol\":3119:3129  bytes(\"0\") */\n      mload(0x40)\n      dup1\n      0x40\n      add\n      0x40\n      mstore\n      dup1\n      0x01\n      dup2\n      mstore\n      0x20\n      add\n      0x3000000000000000000000000000000000000000000000000000000000000000\n      dup2\n      mstore\n      pop\n        /* \"Vendor.sol\":3109:3130  keccak256(bytes(\"0\")) */\n      dup1\n      mload\n      swap1\n      0x20\n      add\n      keccak256\n        /* \"Vendor.sol\":3094:3100  _names */\n      dup6\n        /* \"Vendor.sol\":3101:3102  i */\n      dup3\n        /* \"Vendor.sol\":3094:3103  _names[i] */\n      0x08\n      dup2\n      lt\n      tag_414\n      jumpi\n      tag_415\n      tag_212\n      jump\t// in\n    tag_415:\n    tag_414:\n      0x20\n      mul\n      add\n      mload\n        /* \"Vendor.sol\":3078:3105  keccak256(bytes(_names[i])) */\n      dup1\n      mload\n      swap1\n      0x20\n      add\n      keccak256\n        /* \"Vendor.sol\":3078:3130  keccak256(bytes(_names[i])) == keccak256(bytes(\"0\")) */\n      eq\n        /* \"Vendor.sol\":3074:3471  if (keccak256(bytes(_names[i])) == keccak256(bytes(\"0\"))) {... */\n      iszero\n      tag_416\n      jumpi\n        /* \"Vendor.sol\":3155:3222  Log(\"inside setConds if statement, current stage is:\", uint(stage)) */\n      0xdd970dd9b5bfe707922155b058a407655cb18288b807e2216442bca8ad83d6b5\n        /* \"Vendor.sol\":3215:3220  stage */\n      0x09\n      0x00\n      swap1\n      sload\n      swap1\n      0x0100\n      exp\n      swap1\n      div\n      0xff\n      and\n        /* \"Vendor.sol\":3210:3221  uint(stage) */\n      0x04\n      dup2\n      gt\n      iszero\n      tag_417\n      jumpi\n      tag_418\n      tag_165\n      jump\t// in\n    tag_418:\n    tag_417:\n        /* \"Vendor.sol\":3155:3222  Log(\"inside setConds if statement, current stage is:\", uint(stage)) */\n      mload(0x40)\n      tag_419\n      swap2\n      swap1\n      tag_420\n      jump\t// in\n    tag_419:\n      mload(0x40)\n      dup1\n      swap2\n      sub\n      swap1\n      log1\n        /* \"Vendor.sol\":3240:3254  endInitStage() */\n      tag_421\n        /* \"Vendor.sol\":3240:3252  endInitStage */\n      tag_109\n        /* \"Vendor.sol\":3240:3254  endInitStage() */\n      jump\t// in\n    tag_421:\n        /* \"Vendor.sol\":3277:3364  Log(\"inside setConds if statement, after endInitStage, current stage is:\", uint(stage)) */\n      0xdd970dd9b5bfe707922155b058a407655cb18288b807e2216442bca8ad83d6b5\n        /* \"Vendor.sol\":3357:3362  stage */\n      0x09\n      0x00\n      swap1\n      sload\n      swap1\n      0x0100\n      exp\n      swap1\n      div\n      0xff\n      and\n        /* \"Vendor.sol\":3352:3363  uint(stage) */\n      0x04\n      dup2\n      gt\n      iszero\n      tag_422\n      jumpi\n      tag_423\n      tag_165\n      jump\t// in\n    tag_423:\n    tag_422:\n        /* \"Vendor.sol\":3277:3364  Log(\"inside setConds if statement, after endInitStage, current stage is:\", uint(stage)) */\n      mload(0x40)\n      tag_424\n      swap2\n      swap1\n      tag_425\n      jump\t// in\n    tag_424:\n      mload(0x40)\n      dup1\n      swap2\n      sub\n      swap1\n      log1\n        /* \"Vendor.sol\":3382:3389  return; */\n      pop\n      jump(tag_406)\n        /* \"Vendor.sol\":3074:3471  if (keccak256(bytes(_names[i])) == keccak256(bytes(\"0\"))) {... */\n    tag_416:\n        /* \"Vendor.sol\":3495:3501  _names */\n      dup5\n        /* \"Vendor.sol\":3502:3503  i */\n      dup2\n        /* \"Vendor.sol\":3495:3504  _names[i] */\n      0x08\n      dup2\n      lt\n      tag_426\n      jumpi\n      tag_427\n      tag_212\n      jump\t// in\n    tag_427:\n    tag_426:\n      0x20\n      mul\n      add\n      mload\n        /* \"Vendor.sol\":3484:3489  names */\n      0x0a\n        /* \"Vendor.sol\":3490:3491  i */\n      dup3\n        /* \"Vendor.sol\":3484:3492  names[i] */\n      0x08\n      dup2\n      lt\n      tag_428\n      jumpi\n      tag_429\n      tag_212\n      jump\t// in\n    tag_429:\n    tag_428:\n      add\n        /* \"Vendor.sol\":3484:3504  names[i] = _names[i] */\n      swap1\n      dup1\n      mload\n      swap1\n      0x20\n      add\n      swap1\n      tag_431\n      swap3\n      swap2\n      swap1\n      tag_432\n      jump\t// in\n    tag_431:\n      pop\n        /* \"Vendor.sol\":3530:3537  _values */\n      dup4\n        /* \"Vendor.sol\":3538:3539  i */\n      dup2\n        /* \"Vendor.sol\":3530:3540  _values[i] */\n      0x08\n      dup2\n      lt\n      tag_433\n      jumpi\n      tag_434\n      tag_212\n      jump\t// in\n    tag_434:\n    tag_433:\n      0x20\n      mul\n      add\n      mload\n        /* \"Vendor.sol\":3518:3524  values */\n      0x12\n        /* \"Vendor.sol\":3525:3526  i */\n      dup3\n        /* \"Vendor.sol\":3518:3527  values[i] */\n      0x08\n      dup2\n      lt\n      tag_435\n      jumpi\n      tag_436\n      tag_212\n      jump\t// in\n    tag_436:\n    tag_435:\n      add\n        /* \"Vendor.sol\":3518:3540  values[i] = _values[i] */\n      dup2\n      swap1\n      sstore\n      pop\n        /* \"Vendor.sol\":3569:3576  convert */\n      0x22\n        /* \"Vendor.sol\":3577:3587  _operators */\n      dup4\n        /* \"Vendor.sol\":3588:3589  i */\n      dup3\n        /* \"Vendor.sol\":3577:3590  _operators[i] */\n      0x08\n      dup2\n      lt\n      tag_438\n      jumpi\n      tag_439\n      tag_212\n      jump\t// in\n    tag_439:\n    tag_438:\n      0x20\n      mul\n      add\n      mload\n        /* \"Vendor.sol\":3569:3591  convert[_operators[i]] */\n      mload(0x40)\n      tag_440\n      swap2\n      swap1\n      tag_441\n      jump\t// in\n    tag_440:\n      swap1\n      dup2\n      mstore\n      0x20\n      add\n      mload(0x40)\n      dup1\n      swap2\n      sub\n      swap1\n      keccak256\n      sload\n        /* \"Vendor.sol\":3554:3563  operators */\n      0x1a\n        /* \"Vendor.sol\":3564:3565  i */\n      dup3\n        /* \"Vendor.sol\":3554:3566  operators[i] */\n      0x08\n      dup2\n      lt\n      tag_442\n      jumpi\n      tag_443\n      tag_212\n      jump\t// in\n    tag_443:\n    tag_442:\n      add\n        /* \"Vendor.sol\":3554:3591  operators[i] = convert[_operators[i]] */\n      dup2\n      swap1\n      sstore\n      pop\n        /* \"Vendor.sol\":3605:3619  conditionCount */\n      0x23\n      0x00\n        /* \"Vendor.sol\":3605:3621  conditionCount++ */\n      dup2\n      sload\n      dup1\n      swap3\n      swap2\n      swap1\n      tag_445\n      swap1\n      tag_216\n      jump\t// in\n    tag_445:\n      swap2\n      swap1\n      pop\n      sstore\n      pop\n        /* \"Vendor.sol\":3055:3058  i++ */\n      dup1\n      dup1\n      tag_446\n      swap1\n      tag_216\n      jump\t// in\n    tag_446:\n      swap2\n      pop\n      pop\n        /* \"Vendor.sol\":3031:3632  for (uint i = 0; i < 8; i++) {... */\n      jump(tag_411)\n    tag_412:\n      pop\n        /* \"Vendor.sol\":9409:9410  _ */\n    tag_406:\n        /* \"Vendor.sol\":2819:3638  function setConds(string[8] memory _names, int[8] memory _values, string[8] memory _operators) external atStage(Stages.Initialising) {... */\n      pop\n      pop\n      pop\n      pop\n      jump\t// out\n        /* \"Vendor.sol\":4638:4929  function getDetails() external view returns (address, address, uint, uint, uint, uint, uint, uint, string[8] memory, int[8] memory, int[8] memory) {... */\n    tag_159:\n        /* \"Vendor.sol\":4683:4690  address */\n      0x00\n        /* \"Vendor.sol\":4692:4699  address */\n      dup1\n        /* \"Vendor.sol\":4701:4705  uint */\n      0x00\n        /* \"Vendor.sol\":4707:4711  uint */\n      dup1\n        /* \"Vendor.sol\":4713:4717  uint */\n      0x00\n        /* \"Vendor.sol\":4719:4723  uint */\n      dup1\n        /* \"Vendor.sol\":4725:4729  uint */\n      0x00\n        /* \"Vendor.sol\":4731:4735  uint */\n      dup1\n        /* \"Vendor.sol\":4737:4753  string[8] memory */\n      tag_447\n      tag_448\n      jump\t// in\n    tag_447:\n        /* \"Vendor.sol\":4755:4768  int[8] memory */\n      tag_449\n      tag_450\n      jump\t// in\n    tag_449:\n        /* \"Vendor.sol\":4770:4783  int[8] memory */\n      tag_451\n      tag_450\n      jump\t// in\n    tag_451:\n        /* \"Vendor.sol\":4803:4809  client */\n      0x01\n      0x00\n      swap1\n      sload\n      swap1\n      0x0100\n      exp\n      swap1\n      div\n      0xffffffffffffffffffffffffffffffffffffffff\n      and\n        /* \"Vendor.sol\":4811:4816  payee */\n      0x02\n      0x00\n      swap1\n      sload\n      swap1\n      0x0100\n      exp\n      swap1\n      div\n      0xffffffffffffffffffffffffffffffffffffffff\n      and\n        /* \"Vendor.sol\":4818:4827  startDate */\n      sload(0x03)\n        /* \"Vendor.sol\":4829:4839  expiryDate */\n      sload(0x04)\n        /* \"Vendor.sol\":4841:4847  amount */\n      sload(0x05)\n        /* \"Vendor.sol\":4849:4864  prevBillingDate */\n      sload(0x06)\n        /* \"Vendor.sol\":4866:4881  nextBillingDate */\n      sload(0x07)\n        /* \"Vendor.sol\":4883:4895  contractHash */\n      sload(0x08)\n        /* \"Vendor.sol\":4897:4902  names */\n      0x0a\n        /* \"Vendor.sol\":4904:4910  values */\n      0x12\n        /* \"Vendor.sol\":4912:4921  operators */\n      0x1a\n        /* \"Vendor.sol\":4795:4922  return (client, payee, startDate, expiryDate, amount, prevBillingDate, nextBillingDate, contractHash, names, values, operators) */\n      dup3\n      0x08\n      dup1\n      0x20\n      mul\n      mload(0x40)\n      swap1\n      dup2\n      add\n      0x40\n      mstore\n      dup1\n      swap3\n      swap2\n      swap1\n      0x00\n      swap1\n    tag_453:\n      dup3\n      dup3\n      lt\n      iszero\n      tag_454\n      jumpi\n      dup4\n      dup3\n      add\n      dup1\n      sload\n      tag_456\n      swap1\n      tag_223\n      jump\t// in\n    tag_456:\n      dup1\n      0x1f\n      add\n      0x20\n      dup1\n      swap2\n      div\n      mul\n      0x20\n      add\n      mload(0x40)\n      swap1\n      dup2\n      add\n      0x40\n      mstore\n      dup1\n      swap3\n      swap2\n      swap1\n      dup2\n      dup2\n      mstore\n      0x20\n      add\n      dup3\n      dup1\n      sload\n      tag_457\n      swap1\n      tag_223\n      jump\t// in\n    tag_457:\n      dup1\n      iszero\n      tag_458\n      jumpi\n      dup1\n      0x1f\n      lt\n      tag_459\n      jumpi\n      0x0100\n      dup1\n      dup4\n      sload\n      div\n      mul\n      dup4\n      mstore\n      swap2\n      0x20\n      add\n      swap2\n      jump(tag_458)\n    tag_459:\n      dup3\n      add\n      swap2\n      swap1\n      0x00\n      mstore\n      keccak256(0x00, 0x20)\n      swap1\n    tag_460:\n      dup2\n      sload\n      dup2\n      mstore\n      swap1\n      0x01\n      add\n      swap1\n      0x20\n      add\n      dup1\n      dup4\n      gt\n      tag_460\n      jumpi\n      dup3\n      swap1\n      sub\n      0x1f\n      and\n      dup3\n      add\n      swap2\n    tag_458:\n      pop\n      pop\n      pop\n      pop\n      pop\n      dup2\n      mstore\n      0x20\n      add\n      swap1\n      0x01\n      add\n      swap1\n      jump(tag_453)\n    tag_454:\n      pop\n      pop\n      pop\n      pop\n      swap3\n      pop\n      dup2\n      0x08\n      dup1\n      0x20\n      mul\n      mload(0x40)\n      swap1\n      dup2\n      add\n      0x40\n      mstore\n      dup1\n      swap3\n      swap2\n      swap1\n      dup3\n      0x08\n      dup1\n      iszero\n      tag_461\n      jumpi\n      0x20\n      mul\n      dup3\n      add\n      swap2\n    tag_462:\n      dup2\n      sload\n      dup2\n      mstore\n      0x20\n      add\n      swap1\n      0x01\n      add\n      swap1\n      dup1\n      dup4\n      gt\n      tag_462\n      jumpi\n    tag_461:\n      pop\n      pop\n      pop\n      pop\n      pop\n      swap2\n      pop\n      dup1\n      0x08\n      dup1\n      0x20\n      mul\n      mload(0x40)\n      swap1\n      dup2\n      add\n      0x40\n      mstore\n      dup1\n      swap3\n      swap2\n      swap1\n      dup3\n      0x08\n      dup1\n      iszero\n      tag_463\n      jumpi\n      0x20\n      mul\n      dup3\n      add\n      swap2\n    tag_464:\n      dup2\n      sload\n      dup2\n      mstore\n      0x20\n      add\n      swap1\n      0x01\n      add\n      swap1\n      dup1\n      dup4\n      gt\n      tag_464\n      jumpi\n    tag_463:\n      pop\n      pop\n      pop\n      pop\n      pop\n      swap1\n      pop\n      swap11\n      pop\n      swap11\n      pop\n      swap11\n      pop\n      swap11\n      pop\n      swap11\n      pop\n      swap11\n      pop\n      swap11\n      pop\n      swap11\n      pop\n      swap11\n      pop\n      swap11\n      pop\n      swap11\n      pop\n        /* \"Vendor.sol\":4638:4929  function getDetails() external view returns (address, address, uint, uint, uint, uint, uint, uint, string[8] memory, int[8] memory, int[8] memory) {... */\n      swap1\n      swap2\n      swap3\n      swap4\n      swap5\n      swap6\n      swap7\n      swap8\n      swap9\n      swap10\n      swap11\n      jump\t// out\n        /* \"Vendor.sol\":2681:2809  function calcDate(uint _billingDate) private view returns (uint) {... */\n    tag_309:\n        /* \"Vendor.sol\":2740:2744  uint */\n      0x00\n        /* \"Vendor.sol\":931:935  6400 */\n      0x1900\n        /* \"Vendor.sol\":2778:2790  _billingDate */\n      dup3\n        /* \"Vendor.sol\":2778:2802  _billingDate*blocksDaily */\n      tag_466\n      swap2\n      swap1\n      tag_467\n      jump\t// in\n    tag_466:\n        /* \"Vendor.sol\":2763:2775  block.number */\n      number\n        /* \"Vendor.sol\":2763:2802  block.number + _billingDate*blocksDaily */\n      tag_468\n      swap2\n      swap1\n      tag_313\n      jump\t// in\n    tag_468:\n        /* \"Vendor.sol\":2756:2802  return block.number + _billingDate*blocksDaily */\n      swap1\n      pop\n        /* \"Vendor.sol\":2681:2809  function calcDate(uint _billingDate) private view returns (uint) {... */\n      swap2\n      swap1\n      pop\n      jump\t// out\n        /* \"Vendor.sol\":2414:2614  function initOperators() private {... */\n    tag_315:\n        /* \"Vendor.sol\":2472:2473  1 */\n      0x01\n        /* \"Vendor.sol\":2457:2464  convert */\n      0x22\n        /* \"Vendor.sol\":2457:2469  convert['>'] */\n      mload(0x40)\n      tag_470\n      swap1\n      tag_471\n      jump\t// in\n    tag_470:\n      swap1\n      dup2\n      mstore\n      0x20\n      add\n      mload(0x40)\n      dup1\n      swap2\n      sub\n      swap1\n      keccak256\n        /* \"Vendor.sol\":2457:2473  convert['>'] = 1 */\n      dup2\n      swap1\n      sstore\n      pop\n        /* \"Vendor.sol\":2499:2500  2 */\n      0x02\n        /* \"Vendor.sol\":2483:2490  convert */\n      0x22\n        /* \"Vendor.sol\":2483:2496  convert['=='] */\n      mload(0x40)\n      tag_472\n      swap1\n      tag_473\n      jump\t// in\n    tag_472:\n      swap1\n      dup2\n      mstore\n      0x20\n      add\n      mload(0x40)\n      dup1\n      swap2\n      sub\n      swap1\n      keccak256\n        /* \"Vendor.sol\":2483:2500  convert['=='] = 2 */\n      dup2\n      swap1\n      sstore\n      pop\n        /* \"Vendor.sol\":2526:2527  3 */\n      0x03\n        /* \"Vendor.sol\":2510:2517  convert */\n      0x22\n        /* \"Vendor.sol\":2510:2523  convert['>='] */\n      mload(0x40)\n      tag_474\n      swap1\n      tag_475\n      jump\t// in\n    tag_474:\n      swap1\n      dup2\n      mstore\n      0x20\n      add\n      mload(0x40)\n      dup1\n      swap2\n      sub\n      swap1\n      keccak256\n        /* \"Vendor.sol\":2510:2527  convert['>='] = 3 */\n      dup2\n      swap1\n      sstore\n      pop\n        /* \"Vendor.sol\":2552:2553  4 */\n      0x04\n        /* \"Vendor.sol\":2537:2544  convert */\n      0x22\n        /* \"Vendor.sol\":2537:2549  convert['<'] */\n      mload(0x40)\n      tag_476\n      swap1\n      tag_477\n      jump\t// in\n    tag_476:\n      swap1\n      dup2\n      mstore\n      0x20\n      add\n      mload(0x40)\n      dup1\n      swap2\n      sub\n      swap1\n      keccak256\n        /* \"Vendor.sol\":2537:2553  convert['<'] = 4 */\n      dup2\n      swap1\n      sstore\n      pop\n        /* \"Vendor.sol\":2579:2580  5 */\n      0x05\n        /* \"Vendor.sol\":2563:2570  convert */\n      0x22\n        /* \"Vendor.sol\":2563:2576  convert['!='] */\n      mload(0x40)\n      tag_478\n      swap1\n      tag_479\n      jump\t// in\n    tag_478:\n      swap1\n      dup2\n      mstore\n      0x20\n      add\n      mload(0x40)\n      dup1\n      swap2\n      sub\n      swap1\n      keccak256\n        /* \"Vendor.sol\":2563:2580  convert['!='] = 5 */\n      dup2\n      swap1\n      sstore\n      pop\n        /* \"Vendor.sol\":2606:2607  6 */\n      0x06\n        /* \"Vendor.sol\":2590:2597  convert */\n      0x22\n        /* \"Vendor.sol\":2590:2603  convert['<='] */\n      mload(0x40)\n      tag_480\n      swap1\n      tag_481\n      jump\t// in\n    tag_480:\n      swap1\n      dup2\n      mstore\n      0x20\n      add\n      mload(0x40)\n      dup1\n      swap2\n      sub\n      swap1\n      keccak256\n        /* \"Vendor.sol\":2590:2607  convert['<='] = 6 */\n      dup2\n      swap1\n      sstore\n      pop\n        /* \"Vendor.sol\":2414:2614  function initOperators() private {... */\n      jump\t// out\n        /* \"Vendor.sol\":7253:7846  function condValid(int operator, int _toCheck, int value) private pure returns (bool) {... */\n    tag_342:\n        /* \"Vendor.sol\":7333:7337  bool */\n      0x00\n        /* \"Vendor.sol\":7365:7367  -1 */\n      0xffffffffffffffffffffffffffffffffffffffffffffffffffffffffffffffff\n        /* \"Vendor.sol\":7353:7361  operator */\n      dup5\n        /* \"Vendor.sol\":7353:7367  operator != -1 */\n      eq\n        /* \"Vendor.sol\":7349:7819  if (operator != -1) {... */\n      tag_483\n      jumpi\n        /* \"Vendor.sol\":7403:7404  1 */\n      0x01\n        /* \"Vendor.sol\":7398:7399  1 */\n      dup1\n        /* \"Vendor.sol\":7387:7395  operator */\n      dup6\n        /* \"Vendor.sol\":7387:7399  operator & 1 */\n      and\n        /* \"Vendor.sol\":7387:7404  operator & 1 == 1 */\n      eq\n        /* \"Vendor.sol\":7383:7516  if (operator & 1 == 1) {... */\n      iszero\n      tag_484\n      jumpi\n        /* \"Vendor.sol\":7441:7446  value */\n      dup2\n        /* \"Vendor.sol\":7430:7438  _toCheck */\n      dup4\n        /* \"Vendor.sol\":7430:7446  _toCheck > value */\n      sgt\n        /* \"Vendor.sol\":7424:7502  if (!(_toCheck > value)) {... */\n      tag_485\n      jumpi\n        /* \"Vendor.sol\":7478:7483  false */\n      0x00\n        /* \"Vendor.sol\":7471:7483  return false */\n      swap1\n      pop\n      jump(tag_482)\n        /* \"Vendor.sol\":7424:7502  if (!(_toCheck > value)) {... */\n    tag_485:\n        /* \"Vendor.sol\":7383:7516  if (operator & 1 == 1) {... */\n    tag_484:\n        /* \"Vendor.sol\":7549:7550  2 */\n      0x02\n        /* \"Vendor.sol\":7544:7545  2 */\n      dup1\n        /* \"Vendor.sol\":7533:7541  operator */\n      dup6\n        /* \"Vendor.sol\":7533:7545  operator & 2 */\n      and\n        /* \"Vendor.sol\":7533:7550  operator & 2 == 2 */\n      eq\n        /* \"Vendor.sol\":7529:7663  if (operator & 2 == 2) {... */\n      iszero\n      tag_486\n      jumpi\n        /* \"Vendor.sol\":7588:7593  value */\n      dup2\n        /* \"Vendor.sol\":7576:7584  _toCheck */\n      dup4\n        /* \"Vendor.sol\":7576:7593  _toCheck == value */\n      eq\n        /* \"Vendor.sol\":7570:7649  if (!(_toCheck == value)) {... */\n      tag_487\n      jumpi\n        /* \"Vendor.sol\":7625:7630  false */\n      0x00\n        /* \"Vendor.sol\":7618:7630  return false */\n      swap1\n      pop\n      jump(tag_482)\n        /* \"Vendor.sol\":7570:7649  if (!(_toCheck == value)) {... */\n    tag_487:\n        /* \"Vendor.sol\":7529:7663  if (operator & 2 == 2) {... */\n    tag_486:\n        /* \"Vendor.sol\":7696:7697  4 */\n      0x04\n        /* \"Vendor.sol\":7691:7692  4 */\n      dup1\n        /* \"Vendor.sol\":7680:7688  operator */\n      dup6\n        /* \"Vendor.sol\":7680:7692  operator & 4 */\n      and\n        /* \"Vendor.sol\":7680:7697  operator & 4 == 4 */\n      eq\n        /* \"Vendor.sol\":7676:7809  if (operator & 4 == 4) {... */\n      iszero\n      tag_488\n      jumpi\n        /* \"Vendor.sol\":7734:7739  value */\n      dup2\n        /* \"Vendor.sol\":7723:7731  _toCheck */\n      dup4\n        /* \"Vendor.sol\":7723:7739  _toCheck < value */\n      slt\n        /* \"Vendor.sol\":7717:7795  if (!(_toCheck < value)) {... */\n      tag_489\n      jumpi\n        /* \"Vendor.sol\":7771:7776  false */\n      0x00\n        /* \"Vendor.sol\":7764:7776  return false */\n      swap1\n      pop\n      jump(tag_482)\n        /* \"Vendor.sol\":7717:7795  if (!(_toCheck < value)) {... */\n    tag_489:\n        /* \"Vendor.sol\":7676:7809  if (operator & 4 == 4) {... */\n    tag_488:\n        /* \"Vendor.sol\":7349:7819  if (operator != -1) {... */\n    tag_483:\n        /* \"Vendor.sol\":7835:7839  true */\n      0x01\n        /* \"Vendor.sol\":7828:7839  return true */\n      swap1\n      pop\n        /* \"Vendor.sol\":7253:7846  function condValid(int operator, int _toCheck, int value) private pure returns (bool) {... */\n    tag_482:\n      swap4\n      swap3\n      pop\n      pop\n      pop\n      jump\t// out\n        /* \"Vendor.sol\":5330:5446  function refund() private {... */\n    tag_345:\n        /* \"Vendor.sol\":5378:5383  false */\n      0x00\n        /* \"Vendor.sol\":5366:5375  satisfied */\n      0x09\n      0x01\n        /* \"Vendor.sol\":5366:5383  satisfied = false */\n      0x0100\n      exp\n      dup2\n      sload\n      dup2\n      0xff\n      mul\n      not\n      and\n      swap1\n      dup4\n      iszero\n      iszero\n      mul\n      or\n      swap1\n      sstore\n      pop\n        /* \"Vendor.sol\":5393:5399  client */\n      0x01\n      0x00\n      swap1\n      sload\n      swap1\n      0x0100\n      exp\n      swap1\n      div\n      0xffffffffffffffffffffffffffffffffffffffff\n      and\n        /* \"Vendor.sol\":5393:5408  client.transfer */\n      0xffffffffffffffffffffffffffffffffffffffff\n      and\n        /* \"Vendor.sol\":5393:5416  client.transfer(amount) */\n      0x08fc\n        /* \"Vendor.sol\":5409:5415  amount */\n      sload(0x05)\n        /* \"Vendor.sol\":5393:5416  client.transfer(amount) */\n      swap1\n      dup2\n      iszero\n      mul\n      swap1\n      mload(0x40)\n      0x00\n      mload(0x40)\n      dup1\n      dup4\n      sub\n      dup2\n      dup6\n      dup9\n      dup9\n      call\n      swap4\n      pop\n      pop\n      pop\n      pop\n      iszero\n      dup1\n      iszero\n      tag_492\n      jumpi\n      returndatasize\n      0x00\n      dup1\n      returndatacopy\n      revert(0x00, returndatasize)\n    tag_492:\n      pop\n        /* \"Vendor.sol\":5426:5439  setNewDates() */\n      tag_493\n        /* \"Vendor.sol\":5426:5437  setNewDates */\n      tag_494\n        /* \"Vendor.sol\":5426:5439  setNewDates() */\n      jump\t// in\n    tag_493:\n        /* \"Vendor.sol\":5330:5446  function refund() private {... */\n      jump\t// out\n        /* \"Vendor.sol\":5203:5320  function payVendor() private {... */\n    tag_352:\n        /* \"Vendor.sol\":5254:5258  true */\n      0x01\n        /* \"Vendor.sol\":5242:5251  satisfied */\n      0x09\n      0x01\n        /* \"Vendor.sol\":5242:5258  satisfied = true */\n      0x0100\n      exp\n      dup2\n      sload\n      dup2\n      0xff\n      mul\n      not\n      and\n      swap1\n      dup4\n      iszero\n      iszero\n      mul\n      or\n      swap1\n      sstore\n      pop\n        /* \"Vendor.sol\":5268:5273  payee */\n      0x02\n      0x00\n      swap1\n      sload\n      swap1\n      0x0100\n      exp\n      swap1\n      div\n      0xffffffffffffffffffffffffffffffffffffffff\n      and\n        /* \"Vendor.sol\":5268:5282  payee.transfer */\n      0xffffffffffffffffffffffffffffffffffffffff\n      and\n        /* \"Vendor.sol\":5268:5290  payee.transfer(amount) */\n      0x08fc\n        /* \"Vendor.sol\":5283:5289  amount */\n      sload(0x05)\n        /* \"Vendor.sol\":5268:5290  payee.transfer(amount) */\n      swap1\n      dup2\n      iszero\n      mul\n      swap1\n      mload(0x40)\n      0x00\n      mload(0x40)\n      dup1\n      dup4\n      sub\n      dup2\n      dup6\n      dup9\n      dup9\n      call\n      swap4\n      pop\n      pop\n      pop\n      pop\n      iszero\n      dup1\n      iszero\n      tag_497\n      jumpi\n      returndatasize\n      0x00\n      dup1\n      returndatacopy\n      revert(0x00, returndatasize)\n    tag_497:\n      pop\n        /* \"Vendor.sol\":5300:5313  setNewDates() */\n      tag_498\n        /* \"Vendor.sol\":5300:5311  setNewDates */\n      tag_494\n        /* \"Vendor.sol\":5300:5313  setNewDates() */\n      jump\t// in\n    tag_498:\n        /* \"Vendor.sol\":5203:5320  function payVendor() private {... */\n      jump\t// out\n        /* \"Vendor.sol\":5452:5727  function setNewDates() private checkExpiry() {... */\n    tag_494:\n        /* \"Vendor.sol\":8999:9009  expiryDate */\n      sload(0x04)\n        /* \"Vendor.sol\":8983:8995  block.number */\n      number\n        /* \"Vendor.sol\":8983:9009  block.number >= expiryDate */\n      lt\n        /* \"Vendor.sol\":8979:9060  if (block.number >= expiryDate) {... */\n      tag_500\n      jumpi\n        /* \"Vendor.sol\":9033:9047  Stages.Expired */\n      0x04\n        /* \"Vendor.sol\":9025:9030  stage */\n      0x09\n      0x00\n        /* \"Vendor.sol\":9025:9047  stage = Stages.Expired */\n      0x0100\n      exp\n      dup2\n      sload\n      dup2\n      0xff\n      mul\n      not\n      and\n      swap1\n      dup4\n      0x04\n      dup2\n      gt\n      iszero\n      tag_501\n      jumpi\n      tag_502\n      tag_165\n      jump\t// in\n    tag_502:\n    tag_501:\n      mul\n      or\n      swap1\n      sstore\n      pop\n        /* \"Vendor.sol\":8979:9060  if (block.number >= expiryDate) {... */\n    tag_500:\n        /* \"Vendor.sol\":5554:5569  nextBillingDate */\n      sload(0x07)\n        /* \"Vendor.sol\":5536:5551  prevBillingDate */\n      0x06\n        /* \"Vendor.sol\":5536:5569  prevBillingDate = nextBillingDate */\n      dup2\n      swap1\n      sstore\n      pop\n        /* \"Vendor.sol\":931:935  6400 */\n      0x1900\n        /* \"Vendor.sol\":5615:5617  30 */\n      0x1e\n        /* \"Vendor.sol\":5615:5631  30 * blocksDaily */\n      tag_504\n      swap2\n      swap1\n      tag_467\n      jump\t// in\n    tag_504:\n        /* \"Vendor.sol\":5597:5612  nextBillingDate */\n      sload(0x07)\n        /* \"Vendor.sol\":5597:5631  nextBillingDate + 30 * blocksDaily */\n      tag_505\n      swap2\n      swap1\n      tag_313\n      jump\t// in\n    tag_505:\n        /* \"Vendor.sol\":5579:5594  nextBillingDate */\n      0x07\n        /* \"Vendor.sol\":5579:5631  nextBillingDate = nextBillingDate + 30 * blocksDaily */\n      dup2\n      swap1\n      sstore\n      pop\n        /* \"Vendor.sol\":5645:5651  uint i */\n      0x00\n        /* \"Vendor.sol\":5641:5721  for(uint i = 0; i<conditionCount; i++){... */\n    tag_506:\n        /* \"Vendor.sol\":5659:5673  conditionCount */\n      sload(0x23)\n        /* \"Vendor.sol\":5657:5658  i */\n      dup2\n        /* \"Vendor.sol\":5657:5673  i<conditionCount */\n      lt\n        /* \"Vendor.sol\":5641:5721  for(uint i = 0; i<conditionCount; i++){... */\n      iszero\n      tag_507\n      jumpi\n        /* \"Vendor.sol\":5709:5710  0 */\n      0x00\n        /* \"Vendor.sol\":5693:5703  cumulative */\n      0x24\n        /* \"Vendor.sol\":5693:5706  cumulative[i] */\n      0x00\n        /* \"Vendor.sol\":5704:5705  i */\n      dup4\n        /* \"Vendor.sol\":5693:5706  cumulative[i] */\n      dup2\n      mstore\n      0x20\n      add\n      swap1\n      dup2\n      mstore\n      0x20\n      add\n      0x00\n      keccak256\n        /* \"Vendor.sol\":5693:5710  cumulative[i] = 0 */\n      dup2\n      swap1\n      sstore\n      pop\n        /* \"Vendor.sol\":5675:5678  i++ */\n      dup1\n      dup1\n      tag_509\n      swap1\n      tag_216\n      jump\t// in\n    tag_509:\n      swap2\n      pop\n      pop\n        /* \"Vendor.sol\":5641:5721  for(uint i = 0; i<conditionCount; i++){... */\n      jump(tag_506)\n    tag_507:\n      pop\n        /* \"Vendor.sol\":5452:5727  function setNewDates() private checkExpiry() {... */\n      jump\t// out\n    tag_432:\n      dup3\n      dup1\n      sload\n      tag_510\n      swap1\n      tag_223\n      jump\t// in\n    tag_510:\n      swap1\n      0x00\n      mstore\n      keccak256(0x00, 0x20)\n      swap1\n      0x1f\n      add\n      0x20\n      swap1\n      div\n      dup2\n      add\n      swap3\n      dup3\n      tag_512\n      jumpi\n      0x00\n      dup6\n      sstore\n      jump(tag_511)\n    tag_512:\n      dup3\n      0x1f\n      lt\n      tag_513\n      jumpi\n      dup1\n      mload\n      not(0xff)\n      and\n      dup4\n      dup1\n      add\n      or\n      dup6\n      sstore\n      jump(tag_511)\n    tag_513:\n      dup3\n      dup1\n      add\n      0x01\n      add\n      dup6\n      sstore\n      dup3\n      iszero\n      tag_511\n      jumpi\n      swap2\n      dup3\n      add\n    tag_514:\n      dup3\n      dup2\n      gt\n      iszero\n      tag_515\n      jumpi\n      dup3\n      mload\n      dup3\n      sstore\n      swap2\n      0x20\n      add\n      swap2\n      swap1\n      0x01\n      add\n      swap1\n      jump(tag_514)\n    tag_515:\n    tag_511:\n      pop\n      swap1\n      pop\n      tag_516\n      swap2\n      swap1\n      tag_517\n      jump\t// in\n    tag_516:\n      pop\n      swap1\n      jump\t// out\n    tag_448:\n      mload(0x40)\n      dup1\n      0x0100\n      add\n      0x40\n      mstore\n      dup1\n      0x08\n      swap1\n    tag_518:\n      0x60\n      dup2\n      mstore\n      0x20\n      add\n      swap1\n      0x01\n      swap1\n      sub\n      swap1\n      dup2\n      tag_518\n      jumpi\n      swap1\n      pop\n      pop\n      swap1\n      jump\t// out\n    tag_450:\n      mload(0x40)\n      dup1\n      0x0100\n      add\n      0x40\n      mstore\n      dup1\n      0x08\n      swap1\n      0x20\n      dup3\n      mul\n      dup1\n      calldatasize\n      dup4\n      calldatacopy\n      dup1\n      dup3\n      add\n      swap2\n      pop\n      pop\n      swap1\n      pop\n      pop\n      swap1\n      jump\t// out\n    tag_517:\n    tag_519:\n      dup1\n      dup3\n      gt\n      iszero\n      tag_520\n      jumpi\n      0x00\n      dup2\n      0x00\n      swap1\n      sstore\n      pop\n      0x01\n      add\n      jump(tag_519)\n    tag_520:\n      pop\n      swap1\n      jump\t// out\n        /* \"#utility.yul\":24:676   */\n    tag_522:\n        /* \"#utility.yul\":117:122   */\n      0x00\n        /* \"#utility.yul\":142:220   */\n      tag_524\n        /* \"#utility.yul\":158:219   */\n      tag_525\n        /* \"#utility.yul\":212:218   */\n      dup5\n        /* \"#utility.yul\":158:219   */\n      tag_526\n      jump\t// in\n    tag_525:\n        /* \"#utility.yul\":142:220   */\n      tag_527\n      jump\t// in\n    tag_524:\n        /* \"#utility.yul\":133:220   */\n      swap1\n      pop\n        /* \"#utility.yul\":240:245   */\n      dup1\n        /* \"#utility.yul\":266:272   */\n      dup3\n        /* \"#utility.yul\":316:319   */\n      dup6\n        /* \"#utility.yul\":308:312   */\n      0x20\n        /* \"#utility.yul\":300:306   */\n      dup7\n        /* \"#utility.yul\":296:313   */\n      mul\n        /* \"#utility.yul\":291:294   */\n      dup3\n        /* \"#utility.yul\":287:314   */\n      add\n        /* \"#utility.yul\":284:320   */\n      gt\n        /* \"#utility.yul\":281:283   */\n      iszero\n      tag_528\n      jumpi\n        /* \"#utility.yul\":335:414   */\n      tag_529\n      tag_530\n      jump\t// in\n    tag_529:\n        /* \"#utility.yul\":281:283   */\n    tag_528:\n        /* \"#utility.yul\":448:449   */\n      0x00\n        /* \"#utility.yul\":433:670   */\n    tag_531:\n        /* \"#utility.yul\":458:464   */\n      dup6\n        /* \"#utility.yul\":455:456   */\n      dup2\n        /* \"#utility.yul\":452:465   */\n      lt\n        /* \"#utility.yul\":433:670   */\n      iszero\n      tag_533\n      jumpi\n        /* \"#utility.yul\":526:529   */\n      dup2\n        /* \"#utility.yul\":555:591   */\n      tag_534\n        /* \"#utility.yul\":587:590   */\n      dup9\n        /* \"#utility.yul\":575:585   */\n      dup3\n        /* \"#utility.yul\":555:591   */\n      tag_535\n      jump\t// in\n    tag_534:\n        /* \"#utility.yul\":550:553   */\n      dup5\n        /* \"#utility.yul\":543:592   */\n      mstore\n        /* \"#utility.yul\":621:625   */\n      0x20\n        /* \"#utility.yul\":616:619   */\n      dup5\n        /* \"#utility.yul\":612:626   */\n      add\n        /* \"#utility.yul\":605:626   */\n      swap4\n      pop\n        /* \"#utility.yul\":655:659   */\n      0x20\n        /* \"#utility.yul\":650:653   */\n      dup4\n        /* \"#utility.yul\":646:660   */\n      add\n        /* \"#utility.yul\":639:660   */\n      swap3\n      pop\n        /* \"#utility.yul\":493:670   */\n      pop\n        /* \"#utility.yul\":480:481   */\n      0x01\n        /* \"#utility.yul\":477:478   */\n      dup2\n        /* \"#utility.yul\":473:482   */\n      add\n        /* \"#utility.yul\":468:482   */\n      swap1\n      pop\n        /* \"#utility.yul\":433:670   */\n      jump(tag_531)\n    tag_533:\n        /* \"#utility.yul\":437:451   */\n      pop\n        /* \"#utility.yul\":123:676   */\n      pop\n      pop\n      swap4\n      swap3\n      pop\n      pop\n      pop\n      jump\t// out\n        /* \"#utility.yul\":698:1417   */\n    tag_536:\n        /* \"#utility.yul\":793:798   */\n      0x00\n        /* \"#utility.yul\":818:898   */\n      tag_538\n        /* \"#utility.yul\":834:897   */\n      tag_539\n        /* \"#utility.yul\":890:896   */\n      dup5\n        /* \"#utility.yul\":834:897   */\n      tag_540\n      jump\t// in\n    tag_539:\n        /* \"#utility.yul\":818:898   */\n      tag_527\n      jump\t// in\n    tag_538:\n        /* \"#utility.yul\":809:898   */\n      swap1\n      pop\n        /* \"#utility.yul\":918:923   */\n      dup1\n        /* \"#utility.yul\":947:953   */\n      dup4\n        /* \"#utility.yul\":940:945   */\n      dup3\n        /* \"#utility.yul\":933:954   */\n      mstore\n        /* \"#utility.yul\":981:985   */\n      0x20\n        /* \"#utility.yul\":974:979   */\n      dup3\n        /* \"#utility.yul\":970:986   */\n      add\n        /* \"#utility.yul\":963:986   */\n      swap1\n      pop\n        /* \"#utility.yul\":1007:1013   */\n      dup3\n        /* \"#utility.yul\":1057:1060   */\n      dup6\n        /* \"#utility.yul\":1049:1053   */\n      0x20\n        /* \"#utility.yul\":1041:1047   */\n      dup7\n        /* \"#utility.yul\":1037:1054   */\n      mul\n        /* \"#utility.yul\":1032:1035   */\n      dup3\n        /* \"#utility.yul\":1028:1055   */\n      add\n        /* \"#utility.yul\":1025:1061   */\n      gt\n        /* \"#utility.yul\":1022:1024   */\n      iszero\n      tag_541\n      jumpi\n        /* \"#utility.yul\":1076:1155   */\n      tag_542\n      tag_530\n      jump\t// in\n    tag_542:\n        /* \"#utility.yul\":1022:1024   */\n    tag_541:\n        /* \"#utility.yul\":1189:1190   */\n      0x00\n        /* \"#utility.yul\":1174:1411   */\n    tag_543:\n        /* \"#utility.yul\":1199:1205   */\n      dup6\n        /* \"#utility.yul\":1196:1197   */\n      dup2\n        /* \"#utility.yul\":1193:1206   */\n      lt\n        /* \"#utility.yul\":1174:1411   */\n      iszero\n      tag_545\n      jumpi\n        /* \"#utility.yul\":1267:1270   */\n      dup2\n        /* \"#utility.yul\":1296:1332   */\n      tag_546\n        /* \"#utility.yul\":1328:1331   */\n      dup9\n        /* \"#utility.yul\":1316:1326   */\n      dup3\n        /* \"#utility.yul\":1296:1332   */\n      tag_535\n      jump\t// in\n    tag_546:\n        /* \"#utility.yul\":1291:1294   */\n      dup5\n        /* \"#utility.yul\":1284:1333   */\n      mstore\n        /* \"#utility.yul\":1362:1366   */\n      0x20\n        /* \"#utility.yul\":1357:1360   */\n      dup5\n        /* \"#utility.yul\":1353:1367   */\n      add\n        /* \"#utility.yul\":1346:1367   */\n      swap4\n      pop\n        /* \"#utility.yul\":1396:1400   */\n      0x20\n        /* \"#utility.yul\":1391:1394   */\n      dup4\n        /* \"#utility.yul\":1387:1401   */\n      add\n        /* \"#utility.yul\":1380:1401   */\n      swap3\n      pop\n        /* \"#utility.yul\":1234:1411   */\n      pop\n        /* \"#utility.yul\":1221:1222   */\n      0x01\n        /* \"#utility.yul\":1218:1219   */\n      dup2\n        /* \"#utility.yul\":1214:1223   */\n      add\n        /* \"#utility.yul\":1209:1223   */\n      swap1\n      pop\n        /* \"#utility.yul\":1174:1411   */\n      jump(tag_543)\n    tag_545:\n        /* \"#utility.yul\":1178:1192   */\n      pop\n        /* \"#utility.yul\":799:1417   */\n      pop\n      pop\n      swap4\n      swap3\n      pop\n      pop\n      pop\n      jump\t// out\n        /* \"#utility.yul\":1440:2330   */\n    tag_547:\n        /* \"#utility.yul\":1544:1549   */\n      0x00\n        /* \"#utility.yul\":1569:1658   */\n      tag_549\n        /* \"#utility.yul\":1585:1657   */\n      tag_550\n        /* \"#utility.yul\":1650:1656   */\n      dup5\n        /* \"#utility.yul\":1585:1657   */\n      tag_551\n      jump\t// in\n    tag_550:\n        /* \"#utility.yul\":1569:1658   */\n      tag_527\n      jump\t// in\n    tag_549:\n        /* \"#utility.yul\":1560:1658   */\n      swap1\n      pop\n        /* \"#utility.yul\":1678:1683   */\n      dup1\n        /* \"#utility.yul\":1704:1710   */\n      dup3\n        /* \"#utility.yul\":1754:1757   */\n      dup6\n        /* \"#utility.yul\":1746:1750   */\n      0x20\n        /* \"#utility.yul\":1738:1744   */\n      dup7\n        /* \"#utility.yul\":1734:1751   */\n      mul\n        /* \"#utility.yul\":1729:1732   */\n      dup3\n        /* \"#utility.yul\":1725:1752   */\n      add\n        /* \"#utility.yul\":1722:1758   */\n      gt\n        /* \"#utility.yul\":1719:1721   */\n      iszero\n      tag_552\n      jumpi\n        /* \"#utility.yul\":1773:1852   */\n      tag_553\n      tag_530\n      jump\t// in\n    tag_553:\n        /* \"#utility.yul\":1719:1721   */\n    tag_552:\n        /* \"#utility.yul\":1886:1887   */\n      0x00\n        /* \"#utility.yul\":1871:2324   */\n    tag_554:\n        /* \"#utility.yul\":1896:1902   */\n      dup6\n        /* \"#utility.yul\":1893:1894   */\n      dup2\n        /* \"#utility.yul\":1890:1903   */\n      lt\n        /* \"#utility.yul\":1871:2324   */\n      iszero\n      tag_556\n      jumpi\n        /* \"#utility.yul\":1978:1981   */\n      dup2\n        /* \"#utility.yul\":1965:1982   */\n      calldataload\n        /* \"#utility.yul\":2014:2032   */\n      0xffffffffffffffff\n        /* \"#utility.yul\":2001:2012   */\n      dup2\n        /* \"#utility.yul\":1998:2033   */\n      gt\n        /* \"#utility.yul\":1995:1997   */\n      iszero\n      tag_557\n      jumpi\n        /* \"#utility.yul\":2036:2115   */\n      tag_558\n      tag_559\n      jump\t// in\n    tag_558:\n        /* \"#utility.yul\":1995:1997   */\n    tag_557:\n        /* \"#utility.yul\":2160:2171   */\n      dup1\n        /* \"#utility.yul\":2152:2158   */\n      dup7\n        /* \"#utility.yul\":2148:2172   */\n      add\n        /* \"#utility.yul\":2198:2245   */\n      tag_560\n        /* \"#utility.yul\":2241:2244   */\n      dup10\n        /* \"#utility.yul\":2229:2239   */\n      dup3\n        /* \"#utility.yul\":2198:2245   */\n      tag_561\n      jump\t// in\n    tag_560:\n        /* \"#utility.yul\":2193:2196   */\n      dup6\n        /* \"#utility.yul\":2186:2246   */\n      mstore\n        /* \"#utility.yul\":2275:2279   */\n      0x20\n        /* \"#utility.yul\":2270:2273   */\n      dup6\n        /* \"#utility.yul\":2266:2280   */\n      add\n        /* \"#utility.yul\":2259:2280   */\n      swap5\n      pop\n        /* \"#utility.yul\":2309:2313   */\n      0x20\n        /* \"#utility.yul\":2304:2307   */\n      dup5\n        /* \"#utility.yul\":2300:2314   */\n      add\n        /* \"#utility.yul\":2293:2314   */\n      swap4\n      pop\n        /* \"#utility.yul\":1931:2324   */\n      pop\n      pop\n        /* \"#utility.yul\":1918:1919   */\n      0x01\n        /* \"#utility.yul\":1915:1916   */\n      dup2\n        /* \"#utility.yul\":1911:1920   */\n      add\n        /* \"#utility.yul\":1906:1920   */\n      swap1\n      pop\n        /* \"#utility.yul\":1871:2324   */\n      jump(tag_554)\n    tag_556:\n        /* \"#utility.yul\":1875:1889   */\n      pop\n        /* \"#utility.yul\":1550:2330   */\n      pop\n      pop\n      swap4\n      swap3\n      pop\n      pop\n      pop\n      jump\t// out\n        /* \"#utility.yul\":2336:2748   */\n    tag_562:\n        /* \"#utility.yul\":2414:2419   */\n      0x00\n        /* \"#utility.yul\":2439:2505   */\n      tag_564\n        /* \"#utility.yul\":2455:2504   */\n      tag_565\n        /* \"#utility.yul\":2497:2503   */\n      dup5\n        /* \"#utility.yul\":2455:2504   */\n      tag_566\n      jump\t// in\n    tag_565:\n        /* \"#utility.yul\":2439:2505   */\n      tag_527\n      jump\t// in\n    tag_564:\n        /* \"#utility.yul\":2430:2505   */\n      swap1\n      pop\n        /* \"#utility.yul\":2528:2534   */\n      dup3\n        /* \"#utility.yul\":2521:2526   */\n      dup2\n        /* \"#utility.yul\":2514:2535   */\n      mstore\n        /* \"#utility.yul\":2566:2570   */\n      0x20\n        /* \"#utility.yul\":2559:2564   */\n      dup2\n        /* \"#utility.yul\":2555:2571   */\n      add\n        /* \"#utility.yul\":2604:2607   */\n      dup5\n        /* \"#utility.yul\":2595:2601   */\n      dup5\n        /* \"#utility.yul\":2590:2593   */\n      dup5\n        /* \"#utility.yul\":2586:2602   */\n      add\n        /* \"#utility.yul\":2583:2608   */\n      gt\n        /* \"#utility.yul\":2580:2582   */\n      iszero\n      tag_567\n      jumpi\n        /* \"#utility.yul\":2611:2690   */\n      tag_568\n      tag_569\n      jump\t// in\n    tag_568:\n        /* \"#utility.yul\":2580:2582   */\n    tag_567:\n        /* \"#utility.yul\":2701:2742   */\n      tag_570\n        /* \"#utility.yul\":2735:2741   */\n      dup5\n        /* \"#utility.yul\":2730:2733   */\n      dup3\n        /* \"#utility.yul\":2725:2728   */\n      dup6\n        /* \"#utility.yul\":2701:2742   */\n      tag_571\n      jump\t// in\n    tag_570:\n        /* \"#utility.yul\":2420:2748   */\n      pop\n      swap4\n      swap3\n      pop\n      pop\n      pop\n      jump\t// out\n        /* \"#utility.yul\":2754:2893   */\n    tag_572:\n        /* \"#utility.yul\":2800:2805   */\n      0x00\n        /* \"#utility.yul\":2838:2844   */\n      dup2\n        /* \"#utility.yul\":2825:2845   */\n      calldataload\n        /* \"#utility.yul\":2816:2845   */\n      swap1\n      pop\n        /* \"#utility.yul\":2854:2887   */\n      tag_574\n        /* \"#utility.yul\":2881:2886   */\n      dup2\n        /* \"#utility.yul\":2854:2887   */\n      tag_575\n      jump\t// in\n    tag_574:\n        /* \"#utility.yul\":2806:2893   */\n      swap3\n      swap2\n      pop\n      pop\n      jump\t// out\n        /* \"#utility.yul\":2916:3253   */\n    tag_576:\n        /* \"#utility.yul\":2984:2989   */\n      0x00\n        /* \"#utility.yul\":3033:3036   */\n      dup3\n        /* \"#utility.yul\":3026:3030   */\n      0x1f\n        /* \"#utility.yul\":3018:3024   */\n      dup4\n        /* \"#utility.yul\":3014:3031   */\n      add\n        /* \"#utility.yul\":3010:3037   */\n      slt\n        /* \"#utility.yul\":3000:3002   */\n      tag_578\n      jumpi\n        /* \"#utility.yul\":3041:3120   */\n      tag_579\n      tag_559\n      jump\t// in\n    tag_579:\n        /* \"#utility.yul\":3000:3002   */\n    tag_578:\n        /* \"#utility.yul\":3145:3149   */\n      0x08\n        /* \"#utility.yul\":3167:3247   */\n      tag_580\n        /* \"#utility.yul\":3243:3246   */\n      dup5\n        /* \"#utility.yul\":3235:3241   */\n      dup3\n        /* \"#utility.yul\":3227:3233   */\n      dup6\n        /* \"#utility.yul\":3167:3247   */\n      tag_522\n      jump\t// in\n    tag_580:\n        /* \"#utility.yul\":3158:3247   */\n      swap2\n      pop\n        /* \"#utility.yul\":2990:3253   */\n      pop\n      swap3\n      swap2\n      pop\n      pop\n      jump\t// out\n        /* \"#utility.yul\":3275:3643   */\n    tag_581:\n        /* \"#utility.yul\":3345:3350   */\n      0x00\n        /* \"#utility.yul\":3394:3397   */\n      dup3\n        /* \"#utility.yul\":3387:3391   */\n      0x1f\n        /* \"#utility.yul\":3379:3385   */\n      dup4\n        /* \"#utility.yul\":3375:3392   */\n      add\n        /* \"#utility.yul\":3371:3398   */\n      slt\n        /* \"#utility.yul\":3361:3363   */\n      tag_583\n      jumpi\n        /* \"#utility.yul\":3402:3481   */\n      tag_584\n      tag_559\n      jump\t// in\n    tag_584:\n        /* \"#utility.yul\":3361:3363   */\n    tag_583:\n        /* \"#utility.yul\":3519:3525   */\n      dup2\n        /* \"#utility.yul\":3506:3526   */\n      calldataload\n        /* \"#utility.yul\":3544:3637   */\n      tag_585\n        /* \"#utility.yul\":3633:3636   */\n      dup5\n        /* \"#utility.yul\":3625:3631   */\n      dup3\n        /* \"#utility.yul\":3618:3622   */\n      0x20\n        /* \"#utility.yul\":3610:3616   */\n      dup7\n        /* \"#utility.yul\":3606:3623   */\n      add\n        /* \"#utility.yul\":3544:3637   */\n      tag_536\n      jump\t// in\n    tag_585:\n        /* \"#utility.yul\":3535:3637   */\n      swap2\n      pop\n        /* \"#utility.yul\":3351:3643   */\n      pop\n      swap3\n      swap2\n      pop\n      pop\n      jump\t// out\n        /* \"#utility.yul\":3666:4025   */\n    tag_586:\n        /* \"#utility.yul\":3745:3750   */\n      0x00\n        /* \"#utility.yul\":3794:3797   */\n      dup3\n        /* \"#utility.yul\":3787:3791   */\n      0x1f\n        /* \"#utility.yul\":3779:3785   */\n      dup4\n        /* \"#utility.yul\":3775:3792   */\n      add\n        /* \"#utility.yul\":3771:3798   */\n      slt\n        /* \"#utility.yul\":3761:3763   */\n      tag_588\n      jumpi\n        /* \"#utility.yul\":3802:3881   */\n      tag_589\n      tag_559\n      jump\t// in\n    tag_589:\n        /* \"#utility.yul\":3761:3763   */\n    tag_588:\n        /* \"#utility.yul\":3906:3910   */\n      0x08\n        /* \"#utility.yul\":3928:4019   */\n      tag_590\n        /* \"#utility.yul\":4015:4018   */\n      dup5\n        /* \"#utility.yul\":4007:4013   */\n      dup3\n        /* \"#utility.yul\":3999:4005   */\n      dup6\n        /* \"#utility.yul\":3928:4019   */\n      tag_547\n      jump\t// in\n    tag_590:\n        /* \"#utility.yul\":3919:4019   */\n      swap2\n      pop\n        /* \"#utility.yul\":3751:4025   */\n      pop\n      swap3\n      swap2\n      pop\n      pop\n      jump\t// out\n        /* \"#utility.yul\":4031:4168   */\n    tag_535:\n        /* \"#utility.yul\":4076:4081   */\n      0x00\n        /* \"#utility.yul\":4114:4120   */\n      dup2\n        /* \"#utility.yul\":4101:4121   */\n      calldataload\n        /* \"#utility.yul\":4092:4121   */\n      swap1\n      pop\n        /* \"#utility.yul\":4130:4162   */\n      tag_592\n        /* \"#utility.yul\":4156:4161   */\n      dup2\n        /* \"#utility.yul\":4130:4162   */\n      tag_593\n      jump\t// in\n    tag_592:\n        /* \"#utility.yul\":4082:4168   */\n      swap3\n      swap2\n      pop\n      pop\n      jump\t// out\n        /* \"#utility.yul\":4188:4528   */\n    tag_561:\n        /* \"#utility.yul\":4244:4249   */\n      0x00\n        /* \"#utility.yul\":4293:4296   */\n      dup3\n        /* \"#utility.yul\":4286:4290   */\n      0x1f\n        /* \"#utility.yul\":4278:4284   */\n      dup4\n        /* \"#utility.yul\":4274:4291   */\n      add\n        /* \"#utility.yul\":4270:4297   */\n      slt\n        /* \"#utility.yul\":4260:4262   */\n      tag_595\n      jumpi\n        /* \"#utility.yul\":4301:4380   */\n      tag_596\n      tag_559\n      jump\t// in\n    tag_596:\n        /* \"#utility.yul\":4260:4262   */\n    tag_595:\n        /* \"#utility.yul\":4418:4424   */\n      dup2\n        /* \"#utility.yul\":4405:4425   */\n      calldataload\n        /* \"#utility.yul\":4443:4522   */\n      tag_597\n        /* \"#utility.yul\":4518:4521   */\n      dup5\n        /* \"#utility.yul\":4510:4516   */\n      dup3\n        /* \"#utility.yul\":4503:4507   */\n      0x20\n        /* \"#utility.yul\":4495:4501   */\n      dup7\n        /* \"#utility.yul\":4491:4508   */\n      add\n        /* \"#utility.yul\":4443:4522   */\n      tag_562\n      jump\t// in\n    tag_597:\n        /* \"#utility.yul\":4434:4522   */\n      swap2\n      pop\n        /* \"#utility.yul\":4250:4528   */\n      pop\n      swap3\n      swap2\n      pop\n      pop\n      jump\t// out\n        /* \"#utility.yul\":4534:4673   */\n    tag_598:\n        /* \"#utility.yul\":4580:4585   */\n      0x00\n        /* \"#utility.yul\":4618:4624   */\n      dup2\n        /* \"#utility.yul\":4605:4625   */\n      calldataload\n        /* \"#utility.yul\":4596:4625   */\n      swap1\n      pop\n        /* \"#utility.yul\":4634:4667   */\n      tag_600\n        /* \"#utility.yul\":4661:4666   */\n      dup2\n        /* \"#utility.yul\":4634:4667   */\n      tag_601\n      jump\t// in\n    tag_600:\n        /* \"#utility.yul\":4586:4673   */\n      swap3\n      swap2\n      pop\n      pop\n      jump\t// out\n        /* \"#utility.yul\":4679:5008   */\n    tag_68:\n        /* \"#utility.yul\":4738:4744   */\n      0x00\n        /* \"#utility.yul\":4787:4789   */\n      0x20\n        /* \"#utility.yul\":4775:4784   */\n      dup3\n        /* \"#utility.yul\":4766:4773   */\n      dup5\n        /* \"#utility.yul\":4762:4785   */\n      sub\n        /* \"#utility.yul\":4758:4790   */\n      slt\n        /* \"#utility.yul\":4755:4757   */\n      iszero\n      tag_603\n      jumpi\n        /* \"#utility.yul\":4793:4872   */\n      tag_604\n      tag_605\n      jump\t// in\n    tag_604:\n        /* \"#utility.yul\":4755:4757   */\n    tag_603:\n        /* \"#utility.yul\":4913:4914   */\n      0x00\n        /* \"#utility.yul\":4938:4991   */\n      tag_606\n        /* \"#utility.yul\":4983:4990   */\n      dup5\n        /* \"#utility.yul\":4974:4980   */\n      dup3\n        /* \"#utility.yul\":4963:4972   */\n      dup6\n        /* \"#utility.yul\":4959:4981   */\n      add\n        /* \"#utility.yul\":4938:4991   */\n      tag_572\n      jump\t// in\n    tag_606:\n        /* \"#utility.yul\":4928:4991   */\n      swap2\n      pop\n        /* \"#utility.yul\":4884:5001   */\n      pop\n        /* \"#utility.yul\":4745:5008   */\n      swap3\n      swap2\n      pop\n      pop\n      jump\t// out\n        /* \"#utility.yul\":5014:5925   */\n    tag_117:\n        /* \"#utility.yul\":5109:5115   */\n      0x00\n        /* \"#utility.yul\":5117:5123   */\n      dup1\n        /* \"#utility.yul\":5125:5131   */\n      0x00\n        /* \"#utility.yul\":5133:5139   */\n      dup1\n        /* \"#utility.yul\":5141:5147   */\n      0x00\n        /* \"#utility.yul\":5190:5193   */\n      0xa0\n        /* \"#utility.yul\":5178:5187   */\n      dup7\n        /* \"#utility.yul\":5169:5176   */\n      dup9\n        /* \"#utility.yul\":5165:5188   */\n      sub\n        /* \"#utility.yul\":5161:5194   */\n      slt\n        /* \"#utility.yul\":5158:5160   */\n      iszero\n      tag_608\n      jumpi\n        /* \"#utility.yul\":5197:5276   */\n      tag_609\n      tag_605\n      jump\t// in\n    tag_609:\n        /* \"#utility.yul\":5158:5160   */\n    tag_608:\n        /* \"#utility.yul\":5317:5318   */\n      0x00\n        /* \"#utility.yul\":5342:5395   */\n      tag_610\n        /* \"#utility.yul\":5387:5394   */\n      dup9\n        /* \"#utility.yul\":5378:5384   */\n      dup3\n        /* \"#utility.yul\":5367:5376   */\n      dup10\n        /* \"#utility.yul\":5363:5385   */\n      add\n        /* \"#utility.yul\":5342:5395   */\n      tag_572\n      jump\t// in\n    tag_610:\n        /* \"#utility.yul\":5332:5395   */\n      swap6\n      pop\n        /* \"#utility.yul\":5288:5405   */\n      pop\n        /* \"#utility.yul\":5444:5446   */\n      0x20\n        /* \"#utility.yul\":5470:5523   */\n      tag_611\n        /* \"#utility.yul\":5515:5522   */\n      dup9\n        /* \"#utility.yul\":5506:5512   */\n      dup3\n        /* \"#utility.yul\":5495:5504   */\n      dup10\n        /* \"#utility.yul\":5491:5513   */\n      add\n        /* \"#utility.yul\":5470:5523   */\n      tag_598\n      jump\t// in\n    tag_611:\n        /* \"#utility.yul\":5460:5523   */\n      swap5\n      pop\n        /* \"#utility.yul\":5415:5533   */\n      pop\n        /* \"#utility.yul\":5572:5574   */\n      0x40\n        /* \"#utility.yul\":5598:5651   */\n      tag_612\n        /* \"#utility.yul\":5643:5650   */\n      dup9\n        /* \"#utility.yul\":5634:5640   */\n      dup3\n        /* \"#utility.yul\":5623:5632   */\n      dup10\n        /* \"#utility.yul\":5619:5641   */\n      add\n        /* \"#utility.yul\":5598:5651   */\n      tag_598\n      jump\t// in\n    tag_612:\n        /* \"#utility.yul\":5588:5651   */\n      swap4\n      pop\n        /* \"#utility.yul\":5543:5661   */\n      pop\n        /* \"#utility.yul\":5700:5702   */\n      0x60\n        /* \"#utility.yul\":5726:5779   */\n      tag_613\n        /* \"#utility.yul\":5771:5778   */\n      dup9\n        /* \"#utility.yul\":5762:5768   */\n      dup3\n        /* \"#utility.yul\":5751:5760   */\n      dup10\n        /* \"#utility.yul\":5747:5769   */\n      add\n        /* \"#utility.yul\":5726:5779   */\n      tag_598\n      jump\t// in\n    tag_613:\n        /* \"#utility.yul\":5716:5779   */\n      swap3\n      pop\n        /* \"#utility.yul\":5671:5789   */\n      pop\n        /* \"#utility.yul\":5828:5831   */\n      0x80\n        /* \"#utility.yul\":5855:5908   */\n      tag_614\n        /* \"#utility.yul\":5900:5907   */\n      dup9\n        /* \"#utility.yul\":5891:5897   */\n      dup3\n        /* \"#utility.yul\":5880:5889   */\n      dup10\n        /* \"#utility.yul\":5876:5898   */\n      add\n        /* \"#utility.yul\":5855:5908   */\n      tag_598\n      jump\t// in\n    tag_614:\n        /* \"#utility.yul\":5845:5908   */\n      swap2\n      pop\n        /* \"#utility.yul\":5799:5918   */\n      pop\n        /* \"#utility.yul\":5148:5925   */\n      swap3\n      swap6\n      pop\n      swap3\n      swap6\n      swap1\n      swap4\n      pop\n      jump\t// out\n        /* \"#utility.yul\":5931:6468   */\n    tag_54:\n        /* \"#utility.yul\":6014:6020   */\n      0x00\n        /* \"#utility.yul\":6063:6065   */\n      0x20\n        /* \"#utility.yul\":6051:6060   */\n      dup3\n        /* \"#utility.yul\":6042:6049   */\n      dup5\n        /* \"#utility.yul\":6038:6061   */\n      sub\n        /* \"#utility.yul\":6034:6066   */\n      slt\n        /* \"#utility.yul\":6031:6033   */\n      iszero\n      tag_616\n      jumpi\n        /* \"#utility.yul\":6069:6148   */\n      tag_617\n      tag_605\n      jump\t// in\n    tag_617:\n        /* \"#utility.yul\":6031:6033   */\n    tag_616:\n        /* \"#utility.yul\":6217:6218   */\n      0x00\n        /* \"#utility.yul\":6206:6215   */\n      dup3\n        /* \"#utility.yul\":6202:6219   */\n      add\n        /* \"#utility.yul\":6189:6220   */\n      calldataload\n        /* \"#utility.yul\":6247:6265   */\n      0xffffffffffffffff\n        /* \"#utility.yul\":6239:6245   */\n      dup2\n        /* \"#utility.yul\":6236:6266   */\n      gt\n        /* \"#utility.yul\":6233:6235   */\n      iszero\n      tag_618\n      jumpi\n        /* \"#utility.yul\":6269:6348   */\n      tag_619\n      tag_620\n      jump\t// in\n    tag_619:\n        /* \"#utility.yul\":6233:6235   */\n    tag_618:\n        /* \"#utility.yul\":6374:6451   */\n      tag_621\n        /* \"#utility.yul\":6443:6450   */\n      dup5\n        /* \"#utility.yul\":6434:6440   */\n      dup3\n        /* \"#utility.yul\":6423:6432   */\n      dup6\n        /* \"#utility.yul\":6419:6441   */\n      add\n        /* \"#utility.yul\":6374:6451   */\n      tag_581\n      jump\t// in\n    tag_621:\n        /* \"#utility.yul\":6364:6451   */\n      swap2\n      pop\n        /* \"#utility.yul\":6160:6461   */\n      pop\n        /* \"#utility.yul\":6021:6468   */\n      swap3\n      swap2\n      pop\n      pop\n      jump\t// out\n        /* \"#utility.yul\":6474:7591   */\n    tag_155:\n        /* \"#utility.yul\":6639:6645   */\n      0x00\n        /* \"#utility.yul\":6647:6653   */\n      dup1\n        /* \"#utility.yul\":6655:6661   */\n      0x00\n        /* \"#utility.yul\":6704:6707   */\n      0x0140\n        /* \"#utility.yul\":6692:6701   */\n      dup5\n        /* \"#utility.yul\":6683:6690   */\n      dup7\n        /* \"#utility.yul\":6679:6702   */\n      sub\n        /* \"#utility.yul\":6675:6708   */\n      slt\n        /* \"#utility.yul\":6672:6674   */\n      iszero\n      tag_623\n      jumpi\n        /* \"#utility.yul\":6711:6790   */\n      tag_624\n      tag_605\n      jump\t// in\n    tag_624:\n        /* \"#utility.yul\":6672:6674   */\n    tag_623:\n        /* \"#utility.yul\":6859:6860   */\n      0x00\n        /* \"#utility.yul\":6848:6857   */\n      dup5\n        /* \"#utility.yul\":6844:6861   */\n      add\n        /* \"#utility.yul\":6831:6862   */\n      calldataload\n        /* \"#utility.yul\":6889:6907   */\n      0xffffffffffffffff\n        /* \"#utility.yul\":6881:6887   */\n      dup2\n        /* \"#utility.yul\":6878:6908   */\n      gt\n        /* \"#utility.yul\":6875:6877   */\n      iszero\n      tag_625\n      jumpi\n        /* \"#utility.yul\":6911:6990   */\n      tag_626\n      tag_620\n      jump\t// in\n    tag_626:\n        /* \"#utility.yul\":6875:6877   */\n    tag_625:\n        /* \"#utility.yul\":7016:7102   */\n      tag_627\n        /* \"#utility.yul\":7094:7101   */\n      dup7\n        /* \"#utility.yul\":7085:7091   */\n      dup3\n        /* \"#utility.yul\":7074:7083   */\n      dup8\n        /* \"#utility.yul\":7070:7092   */\n      add\n        /* \"#utility.yul\":7016:7102   */\n      tag_586\n      jump\t// in\n    tag_627:\n        /* \"#utility.yul\":7006:7102   */\n      swap4\n      pop\n        /* \"#utility.yul\":6802:7112   */\n      pop\n        /* \"#utility.yul\":7151:7153   */\n      0x20\n        /* \"#utility.yul\":7177:7252   */\n      tag_628\n        /* \"#utility.yul\":7244:7251   */\n      dup7\n        /* \"#utility.yul\":7235:7241   */\n      dup3\n        /* \"#utility.yul\":7224:7233   */\n      dup8\n        /* \"#utility.yul\":7220:7242   */\n      add\n        /* \"#utility.yul\":7177:7252   */\n      tag_576\n      jump\t// in\n    tag_628:\n        /* \"#utility.yul\":7167:7252   */\n      swap3\n      pop\n        /* \"#utility.yul\":7122:7262   */\n      pop\n        /* \"#utility.yul\":7329:7332   */\n      0x0120\n        /* \"#utility.yul\":7318:7327   */\n      dup5\n        /* \"#utility.yul\":7314:7333   */\n      add\n        /* \"#utility.yul\":7301:7334   */\n      calldataload\n        /* \"#utility.yul\":7361:7379   */\n      0xffffffffffffffff\n        /* \"#utility.yul\":7353:7359   */\n      dup2\n        /* \"#utility.yul\":7350:7380   */\n      gt\n        /* \"#utility.yul\":7347:7349   */\n      iszero\n      tag_629\n      jumpi\n        /* \"#utility.yul\":7383:7462   */\n      tag_630\n      tag_620\n      jump\t// in\n    tag_630:\n        /* \"#utility.yul\":7347:7349   */\n    tag_629:\n        /* \"#utility.yul\":7488:7574   */\n      tag_631\n        /* \"#utility.yul\":7566:7573   */\n      dup7\n        /* \"#utility.yul\":7557:7563   */\n      dup3\n        /* \"#utility.yul\":7546:7555   */\n      dup8\n        /* \"#utility.yul\":7542:7564   */\n      add\n        /* \"#utility.yul\":7488:7574   */\n      tag_586\n      jump\t// in\n    tag_631:\n        /* \"#utility.yul\":7478:7574   */\n      swap2\n      pop\n        /* \"#utility.yul\":7272:7584   */\n      pop\n        /* \"#utility.yul\":6662:7591   */\n      swap3\n      pop\n      swap3\n      pop\n      swap3\n      jump\t// out\n        /* \"#utility.yul\":7597:7926   */\n    tag_77:\n        /* \"#utility.yul\":7656:7662   */\n      0x00\n        /* \"#utility.yul\":7705:7707   */\n      0x20\n        /* \"#utility.yul\":7693:7702   */\n      dup3\n        /* \"#utility.yul\":7684:7691   */\n      dup5\n        /* \"#utility.yul\":7680:7703   */\n      sub\n        /* \"#utility.yul\":7676:7708   */\n      slt\n        /* \"#utility.yul\":7673:7675   */\n      iszero\n      tag_633\n      jumpi\n        /* \"#utility.yul\":7711:7790   */\n      tag_634\n      tag_605\n      jump\t// in\n    tag_634:\n        /* \"#utility.yul\":7673:7675   */\n    tag_633:\n        /* \"#utility.yul\":7831:7832   */\n      0x00\n        /* \"#utility.yul\":7856:7909   */\n      tag_635\n        /* \"#utility.yul\":7901:7908   */\n      dup5\n        /* \"#utility.yul\":7892:7898   */\n      dup3\n        /* \"#utility.yul\":7881:7890   */\n      dup6\n        /* \"#utility.yul\":7877:7899   */\n      add\n        /* \"#utility.yul\":7856:7909   */\n      tag_598\n      jump\t// in\n    tag_635:\n        /* \"#utility.yul\":7846:7909   */\n      swap2\n      pop\n        /* \"#utility.yul\":7802:7919   */\n      pop\n        /* \"#utility.yul\":7663:7926   */\n      swap3\n      swap2\n      pop\n      pop\n      jump\t// out\n        /* \"#utility.yul\":7932:8107   */\n    tag_636:\n        /* \"#utility.yul\":7999:8009   */\n      0x00\n        /* \"#utility.yul\":8020:8064   */\n      tag_638\n        /* \"#utility.yul\":8060:8063   */\n      dup4\n        /* \"#utility.yul\":8052:8058   */\n      dup4\n        /* \"#utility.yul\":8020:8064   */\n      tag_639\n      jump\t// in\n    tag_638:\n        /* \"#utility.yul\":8096:8100   */\n      0x20\n        /* \"#utility.yul\":8091:8094   */\n      dup4\n        /* \"#utility.yul\":8087:8101   */\n      add\n        /* \"#utility.yul\":8073:8101   */\n      swap1\n      pop\n        /* \"#utility.yul\":8010:8107   */\n      swap3\n      swap2\n      pop\n      pop\n      jump\t// out\n        /* \"#utility.yul\":8113:8309   */\n    tag_640:\n        /* \"#utility.yul\":8202:8212   */\n      0x00\n        /* \"#utility.yul\":8237:8303   */\n      tag_642\n        /* \"#utility.yul\":8299:8302   */\n      dup4\n        /* \"#utility.yul\":8291:8297   */\n      dup4\n        /* \"#utility.yul\":8237:8303   */\n      tag_643\n      jump\t// in\n    tag_642:\n        /* \"#utility.yul\":8223:8303   */\n      swap1\n      pop\n        /* \"#utility.yul\":8213:8309   */\n      swap3\n      swap2\n      pop\n      pop\n      jump\t// out\n        /* \"#utility.yul\":8315:8457   */\n    tag_644:\n        /* \"#utility.yul\":8418:8450   */\n      tag_646\n        /* \"#utility.yul\":8444:8449   */\n      dup2\n        /* \"#utility.yul\":8418:8450   */\n      tag_647\n      jump\t// in\n    tag_646:\n        /* \"#utility.yul\":8413:8416   */\n      dup3\n        /* \"#utility.yul\":8406:8451   */\n      mstore\n        /* \"#utility.yul\":8396:8457   */\n      pop\n      pop\n      jump\t// out\n        /* \"#utility.yul\":8463:8581   */\n    tag_648:\n        /* \"#utility.yul\":8550:8574   */\n      tag_650\n        /* \"#utility.yul\":8568:8573   */\n      dup2\n        /* \"#utility.yul\":8550:8574   */\n      tag_651\n      jump\t// in\n    tag_650:\n        /* \"#utility.yul\":8545:8548   */\n      dup3\n        /* \"#utility.yul\":8538:8575   */\n      mstore\n        /* \"#utility.yul\":8528:8581   */\n      pop\n      pop\n      jump\t// out\n        /* \"#utility.yul\":8617:9303   */\n    tag_652:\n        /* \"#utility.yul\":8751:8802   */\n      tag_654\n        /* \"#utility.yul\":8796:8801   */\n      dup2\n        /* \"#utility.yul\":8751:8802   */\n      tag_655\n      jump\t// in\n    tag_654:\n        /* \"#utility.yul\":8818:8901   */\n      tag_656\n        /* \"#utility.yul\":8894:8900   */\n      dup2\n        /* \"#utility.yul\":8889:8892   */\n      dup5\n        /* \"#utility.yul\":8818:8901   */\n      tag_657\n      jump\t// in\n    tag_656:\n        /* \"#utility.yul\":8811:8901   */\n      swap3\n      pop\n        /* \"#utility.yul\":8925:8978   */\n      tag_658\n        /* \"#utility.yul\":8972:8977   */\n      dup3\n        /* \"#utility.yul\":8925:8978   */\n      tag_659\n      jump\t// in\n    tag_658:\n        /* \"#utility.yul\":9001:9008   */\n      dup1\n        /* \"#utility.yul\":9032:9033   */\n      0x00\n        /* \"#utility.yul\":9017:9296   */\n    tag_660:\n        /* \"#utility.yul\":9042:9048   */\n      dup4\n        /* \"#utility.yul\":9039:9040   */\n      dup2\n        /* \"#utility.yul\":9036:9049   */\n      lt\n        /* \"#utility.yul\":9017:9296   */\n      iszero\n      tag_662\n      jumpi\n        /* \"#utility.yul\":9118:9124   */\n      dup2\n        /* \"#utility.yul\":9112:9125   */\n      mload\n        /* \"#utility.yul\":9145:9206   */\n      tag_663\n        /* \"#utility.yul\":9202:9205   */\n      dup8\n        /* \"#utility.yul\":9187:9200   */\n      dup3\n        /* \"#utility.yul\":9145:9206   */\n      tag_636\n      jump\t// in\n    tag_663:\n        /* \"#utility.yul\":9138:9206   */\n      swap7\n      pop\n        /* \"#utility.yul\":9229:9286   */\n      tag_664\n        /* \"#utility.yul\":9279:9285   */\n      dup4\n        /* \"#utility.yul\":9229:9286   */\n      tag_665\n      jump\t// in\n    tag_664:\n        /* \"#utility.yul\":9219:9286   */\n      swap3\n      pop\n        /* \"#utility.yul\":9077:9296   */\n      pop\n        /* \"#utility.yul\":9064:9065   */\n      0x01\n        /* \"#utility.yul\":9061:9062   */\n      dup2\n        /* \"#utility.yul\":9057:9066   */\n      add\n        /* \"#utility.yul\":9052:9066   */\n      swap1\n      pop\n        /* \"#utility.yul\":9017:9296   */\n      jump(tag_660)\n    tag_662:\n        /* \"#utility.yul\":9021:9035   */\n      pop\n        /* \"#utility.yul\":8727:9303   */\n      pop\n      pop\n      pop\n      pop\n      pop\n      jump\t// out\n        /* \"#utility.yul\":9339:10318   */\n    tag_666:\n        /* \"#utility.yul\":9474:9477   */\n      0x00\n        /* \"#utility.yul\":9503:9565   */\n      tag_668\n        /* \"#utility.yul\":9559:9564   */\n      dup3\n        /* \"#utility.yul\":9503:9565   */\n      tag_669\n      jump\t// in\n    tag_668:\n        /* \"#utility.yul\":9581:9675   */\n      tag_670\n        /* \"#utility.yul\":9668:9674   */\n      dup2\n        /* \"#utility.yul\":9663:9666   */\n      dup6\n        /* \"#utility.yul\":9581:9675   */\n      tag_671\n      jump\t// in\n    tag_670:\n        /* \"#utility.yul\":9574:9675   */\n      swap4\n      pop\n        /* \"#utility.yul\":9701:9704   */\n      dup4\n        /* \"#utility.yul\":9746:9750   */\n      0x20\n        /* \"#utility.yul\":9738:9744   */\n      dup3\n        /* \"#utility.yul\":9734:9751   */\n      mul\n        /* \"#utility.yul\":9729:9732   */\n      dup6\n        /* \"#utility.yul\":9725:9752   */\n      add\n        /* \"#utility.yul\":9776:9840   */\n      tag_672\n        /* \"#utility.yul\":9834:9839   */\n      dup6\n        /* \"#utility.yul\":9776:9840   */\n      tag_673\n      jump\t// in\n    tag_672:\n        /* \"#utility.yul\":9863:9870   */\n      dup1\n        /* \"#utility.yul\":9894:9895   */\n      0x00\n        /* \"#utility.yul\":9879:10273   */\n    tag_674:\n        /* \"#utility.yul\":9904:9910   */\n      dup6\n        /* \"#utility.yul\":9901:9902   */\n      dup2\n        /* \"#utility.yul\":9898:9911   */\n      lt\n        /* \"#utility.yul\":9879:10273   */\n      iszero\n      tag_676\n      jumpi\n        /* \"#utility.yul\":9975:9984   */\n      dup5\n        /* \"#utility.yul\":9969:9973   */\n      dup5\n        /* \"#utility.yul\":9965:9985   */\n      sub\n        /* \"#utility.yul\":9960:9963   */\n      dup10\n        /* \"#utility.yul\":9953:9986   */\n      mstore\n        /* \"#utility.yul\":10026:10032   */\n      dup2\n        /* \"#utility.yul\":10020:10033   */\n      mload\n        /* \"#utility.yul\":10054:10138   */\n      tag_677\n        /* \"#utility.yul\":10133:10137   */\n      dup6\n        /* \"#utility.yul\":10118:10131   */\n      dup3\n        /* \"#utility.yul\":10054:10138   */\n      tag_640\n      jump\t// in\n    tag_677:\n        /* \"#utility.yul\":10046:10138   */\n      swap5\n      pop\n        /* \"#utility.yul\":10161:10229   */\n      tag_678\n        /* \"#utility.yul\":10222:10228   */\n      dup4\n        /* \"#utility.yul\":10161:10229   */\n      tag_679\n      jump\t// in\n    tag_678:\n        /* \"#utility.yul\":10151:10229   */\n      swap3\n      pop\n        /* \"#utility.yul\":10258:10262   */\n      0x20\n        /* \"#utility.yul\":10253:10256   */\n      dup11\n        /* \"#utility.yul\":10249:10263   */\n      add\n        /* \"#utility.yul\":10242:10263   */\n      swap10\n      pop\n        /* \"#utility.yul\":9939:10273   */\n      pop\n        /* \"#utility.yul\":9926:9927   */\n      0x01\n        /* \"#utility.yul\":9923:9924   */\n      dup2\n        /* \"#utility.yul\":9919:9928   */\n      add\n        /* \"#utility.yul\":9914:9928   */\n      swap1\n      pop\n        /* \"#utility.yul\":9879:10273   */\n      jump(tag_674)\n    tag_676:\n        /* \"#utility.yul\":9883:9897   */\n      pop\n        /* \"#utility.yul\":10289:10293   */\n      dup3\n        /* \"#utility.yul\":10282:10293   */\n      swap8\n      pop\n        /* \"#utility.yul\":10309:10312   */\n      dup8\n        /* \"#utility.yul\":10302:10312   */\n      swap6\n      pop\n        /* \"#utility.yul\":9479:10318   */\n      pop\n      pop\n      pop\n      pop\n      pop\n      swap3\n      swap2\n      pop\n      pop\n      jump\t// out\n        /* \"#utility.yul\":10324:10433   */\n    tag_680:\n        /* \"#utility.yul\":10405:10426   */\n      tag_682\n        /* \"#utility.yul\":10420:10425   */\n      dup2\n        /* \"#utility.yul\":10405:10426   */\n      tag_683\n      jump\t// in\n    tag_682:\n        /* \"#utility.yul\":10400:10403   */\n      dup3\n        /* \"#utility.yul\":10393:10427   */\n      mstore\n        /* \"#utility.yul\":10383:10433   */\n      pop\n      pop\n      jump\t// out\n        /* \"#utility.yul\":10439:10584   */\n    tag_684:\n        /* \"#utility.yul\":10533:10577   */\n      tag_686\n        /* \"#utility.yul\":10571:10576   */\n      dup2\n        /* \"#utility.yul\":10533:10577   */\n      tag_687\n      jump\t// in\n    tag_686:\n        /* \"#utility.yul\":10528:10531   */\n      dup3\n        /* \"#utility.yul\":10521:10578   */\n      mstore\n        /* \"#utility.yul\":10511:10584   */\n      pop\n      pop\n      jump\t// out\n        /* \"#utility.yul\":10590:10695   */\n    tag_639:\n        /* \"#utility.yul\":10665:10688   */\n      tag_689\n        /* \"#utility.yul\":10682:10687   */\n      dup2\n        /* \"#utility.yul\":10665:10688   */\n      tag_690\n      jump\t// in\n    tag_689:\n        /* \"#utility.yul\":10660:10663   */\n      dup3\n        /* \"#utility.yul\":10653:10689   */\n      mstore\n        /* \"#utility.yul\":10643:10695   */\n      pop\n      pop\n      jump\t// out\n        /* \"#utility.yul\":10701:10816   */\n    tag_691:\n        /* \"#utility.yul\":10786:10809   */\n      tag_693\n        /* \"#utility.yul\":10803:10808   */\n      dup2\n        /* \"#utility.yul\":10786:10809   */\n      tag_690\n      jump\t// in\n    tag_693:\n        /* \"#utility.yul\":10781:10784   */\n      dup3\n        /* \"#utility.yul\":10774:10810   */\n      mstore\n        /* \"#utility.yul\":10764:10816   */\n      pop\n      pop\n      jump\t// out\n        /* \"#utility.yul\":10822:11166   */\n    tag_643:\n        /* \"#utility.yul\":10900:10903   */\n      0x00\n        /* \"#utility.yul\":10928:10967   */\n      tag_695\n        /* \"#utility.yul\":10961:10966   */\n      dup3\n        /* \"#utility.yul\":10928:10967   */\n      tag_696\n      jump\t// in\n    tag_695:\n        /* \"#utility.yul\":10983:11044   */\n      tag_697\n        /* \"#utility.yul\":11037:11043   */\n      dup2\n        /* \"#utility.yul\":11032:11035   */\n      dup6\n        /* \"#utility.yul\":10983:11044   */\n      tag_698\n      jump\t// in\n    tag_697:\n        /* \"#utility.yul\":10976:11044   */\n      swap4\n      pop\n        /* \"#utility.yul\":11053:11105   */\n      tag_699\n        /* \"#utility.yul\":11098:11104   */\n      dup2\n        /* \"#utility.yul\":11093:11096   */\n      dup6\n        /* \"#utility.yul\":11086:11090   */\n      0x20\n        /* \"#utility.yul\":11079:11084   */\n      dup7\n        /* \"#utility.yul\":11075:11091   */\n      add\n        /* \"#utility.yul\":11053:11105   */\n      tag_700\n      jump\t// in\n    tag_699:\n        /* \"#utility.yul\":11130:11159   */\n      tag_701\n        /* \"#utility.yul\":11152:11158   */\n      dup2\n        /* \"#utility.yul\":11130:11159   */\n      tag_702\n      jump\t// in\n    tag_701:\n        /* \"#utility.yul\":11125:11128   */\n      dup5\n        /* \"#utility.yul\":11121:11160   */\n      add\n        /* \"#utility.yul\":11114:11160   */\n      swap2\n      pop\n        /* \"#utility.yul\":10904:11166   */\n      pop\n      swap3\n      swap2\n      pop\n      pop\n      jump\t// out\n        /* \"#utility.yul\":11172:11536   */\n    tag_703:\n        /* \"#utility.yul\":11260:11263   */\n      0x00\n        /* \"#utility.yul\":11288:11327   */\n      tag_705\n        /* \"#utility.yul\":11321:11326   */\n      dup3\n        /* \"#utility.yul\":11288:11327   */\n      tag_696\n      jump\t// in\n    tag_705:\n        /* \"#utility.yul\":11343:11414   */\n      tag_706\n        /* \"#utility.yul\":11407:11413   */\n      dup2\n        /* \"#utility.yul\":11402:11405   */\n      dup6\n        /* \"#utility.yul\":11343:11414   */\n      tag_707\n      jump\t// in\n    tag_706:\n        /* \"#utility.yul\":11336:11414   */\n      swap4\n      pop\n        /* \"#utility.yul\":11423:11475   */\n      tag_708\n        /* \"#utility.yul\":11468:11474   */\n      dup2\n        /* \"#utility.yul\":11463:11466   */\n      dup6\n        /* \"#utility.yul\":11456:11460   */\n      0x20\n        /* \"#utility.yul\":11449:11454   */\n      dup7\n        /* \"#utility.yul\":11445:11461   */\n      add\n        /* \"#utility.yul\":11423:11475   */\n      tag_700\n      jump\t// in\n    tag_708:\n        /* \"#utility.yul\":11500:11529   */\n      tag_709\n        /* \"#utility.yul\":11522:11528   */\n      dup2\n        /* \"#utility.yul\":11500:11529   */\n      tag_702\n      jump\t// in\n    tag_709:\n        /* \"#utility.yul\":11495:11498   */\n      dup5\n        /* \"#utility.yul\":11491:11530   */\n      add\n        /* \"#utility.yul\":11484:11530   */\n      swap2\n      pop\n        /* \"#utility.yul\":11264:11536   */\n      pop\n      swap3\n      swap2\n      pop\n      pop\n      jump\t// out\n        /* \"#utility.yul\":11542:11919   */\n    tag_710:\n        /* \"#utility.yul\":11648:11651   */\n      0x00\n        /* \"#utility.yul\":11676:11715   */\n      tag_712\n        /* \"#utility.yul\":11709:11714   */\n      dup3\n        /* \"#utility.yul\":11676:11715   */\n      tag_696\n      jump\t// in\n    tag_712:\n        /* \"#utility.yul\":11731:11820   */\n      tag_713\n        /* \"#utility.yul\":11813:11819   */\n      dup2\n        /* \"#utility.yul\":11808:11811   */\n      dup6\n        /* \"#utility.yul\":11731:11820   */\n      tag_714\n      jump\t// in\n    tag_713:\n        /* \"#utility.yul\":11724:11820   */\n      swap4\n      pop\n        /* \"#utility.yul\":11829:11881   */\n      tag_715\n        /* \"#utility.yul\":11874:11880   */\n      dup2\n        /* \"#utility.yul\":11869:11872   */\n      dup6\n        /* \"#utility.yul\":11862:11866   */\n      0x20\n        /* \"#utility.yul\":11855:11860   */\n      dup7\n        /* \"#utility.yul\":11851:11867   */\n      add\n        /* \"#utility.yul\":11829:11881   */\n      tag_700\n      jump\t// in\n    tag_715:\n        /* \"#utility.yul\":11906:11912   */\n      dup1\n        /* \"#utility.yul\":11901:11904   */\n      dup5\n        /* \"#utility.yul\":11897:11913   */\n      add\n        /* \"#utility.yul\":11890:11913   */\n      swap2\n      pop\n        /* \"#utility.yul\":11652:11919   */\n      pop\n      swap3\n      swap2\n      pop\n      pop\n      jump\t// out\n        /* \"#utility.yul\":11925:12325   */\n    tag_716:\n        /* \"#utility.yul\":12085:12088   */\n      0x00\n        /* \"#utility.yul\":12106:12190   */\n      tag_718\n        /* \"#utility.yul\":12188:12189   */\n      0x02\n        /* \"#utility.yul\":12183:12186   */\n      dup4\n        /* \"#utility.yul\":12106:12190   */\n      tag_714\n      jump\t// in\n    tag_718:\n        /* \"#utility.yul\":12099:12190   */\n      swap2\n      pop\n        /* \"#utility.yul\":12199:12292   */\n      tag_719\n        /* \"#utility.yul\":12288:12291   */\n      dup3\n        /* \"#utility.yul\":12199:12292   */\n      tag_720\n      jump\t// in\n    tag_719:\n        /* \"#utility.yul\":12317:12318   */\n      0x02\n        /* \"#utility.yul\":12312:12315   */\n      dup3\n        /* \"#utility.yul\":12308:12319   */\n      add\n        /* \"#utility.yul\":12301:12319   */\n      swap1\n      pop\n        /* \"#utility.yul\":12089:12325   */\n      swap2\n      swap1\n      pop\n      jump\t// out\n        /* \"#utility.yul\":12331:12697   */\n    tag_721:\n        /* \"#utility.yul\":12473:12476   */\n      0x00\n        /* \"#utility.yul\":12494:12561   */\n      tag_723\n        /* \"#utility.yul\":12558:12560   */\n      0x43\n        /* \"#utility.yul\":12553:12556   */\n      dup4\n        /* \"#utility.yul\":12494:12561   */\n      tag_707\n      jump\t// in\n    tag_723:\n        /* \"#utility.yul\":12487:12561   */\n      swap2\n      pop\n        /* \"#utility.yul\":12570:12663   */\n      tag_724\n        /* \"#utility.yul\":12659:12662   */\n      dup3\n        /* \"#utility.yul\":12570:12663   */\n      tag_725\n      jump\t// in\n    tag_724:\n        /* \"#utility.yul\":12688:12690   */\n      0x60\n        /* \"#utility.yul\":12683:12686   */\n      dup3\n        /* \"#utility.yul\":12679:12691   */\n      add\n        /* \"#utility.yul\":12672:12691   */\n      swap1\n      pop\n        /* \"#utility.yul\":12477:12697   */\n      swap2\n      swap1\n      pop\n      jump\t// out\n        /* \"#utility.yul\":12703:13069   */\n    tag_726:\n        /* \"#utility.yul\":12845:12848   */\n      0x00\n        /* \"#utility.yul\":12866:12933   */\n      tag_728\n        /* \"#utility.yul\":12930:12932   */\n      0x36\n        /* \"#utility.yul\":12925:12928   */\n      dup4\n        /* \"#utility.yul\":12866:12933   */\n      tag_707\n      jump\t// in\n    tag_728:\n        /* \"#utility.yul\":12859:12933   */\n      swap2\n      pop\n        /* \"#utility.yul\":12942:13035   */\n      tag_729\n        /* \"#utility.yul\":13031:13034   */\n      dup3\n        /* \"#utility.yul\":12942:13035   */\n      tag_730\n      jump\t// in\n    tag_729:\n        /* \"#utility.yul\":13060:13062   */\n      0x40\n        /* \"#utility.yul\":13055:13058   */\n      dup3\n        /* \"#utility.yul\":13051:13063   */\n      add\n        /* \"#utility.yul\":13044:13063   */\n      swap1\n      pop\n        /* \"#utility.yul\":12849:13069   */\n      swap2\n      swap1\n      pop\n      jump\t// out\n        /* \"#utility.yul\":13075:13441   */\n    tag_731:\n        /* \"#utility.yul\":13217:13220   */\n      0x00\n        /* \"#utility.yul\":13238:13305   */\n      tag_733\n        /* \"#utility.yul\":13302:13304   */\n      0x2f\n        /* \"#utility.yul\":13297:13300   */\n      dup4\n        /* \"#utility.yul\":13238:13305   */\n      tag_707\n      jump\t// in\n    tag_733:\n        /* \"#utility.yul\":13231:13305   */\n      swap2\n      pop\n        /* \"#utility.yul\":13314:13407   */\n      tag_734\n        /* \"#utility.yul\":13403:13406   */\n      dup3\n        /* \"#utility.yul\":13314:13407   */\n      tag_735\n      jump\t// in\n    tag_734:\n        /* \"#utility.yul\":13432:13434   */\n      0x40\n        /* \"#utility.yul\":13427:13430   */\n      dup3\n        /* \"#utility.yul\":13423:13435   */\n      add\n        /* \"#utility.yul\":13416:13435   */\n      swap1\n      pop\n        /* \"#utility.yul\":13221:13441   */\n      swap2\n      swap1\n      pop\n      jump\t// out\n        /* \"#utility.yul\":13447:13813   */\n    tag_736:\n        /* \"#utility.yul\":13589:13592   */\n      0x00\n        /* \"#utility.yul\":13610:13677   */\n      tag_738\n        /* \"#utility.yul\":13674:13676   */\n      0x12\n        /* \"#utility.yul\":13669:13672   */\n      dup4\n        /* \"#utility.yul\":13610:13677   */\n      tag_707\n      jump\t// in\n    tag_738:\n        /* \"#utility.yul\":13603:13677   */\n      swap2\n      pop\n        /* \"#utility.yul\":13686:13779   */\n      tag_739\n        /* \"#utility.yul\":13775:13778   */\n      dup3\n        /* \"#utility.yul\":13686:13779   */\n      tag_740\n      jump\t// in\n    tag_739:\n        /* \"#utility.yul\":13804:13806   */\n      0x20\n        /* \"#utility.yul\":13799:13802   */\n      dup3\n        /* \"#utility.yul\":13795:13807   */\n      add\n        /* \"#utility.yul\":13788:13807   */\n      swap1\n      pop\n        /* \"#utility.yul\":13593:13813   */\n      swap2\n      swap1\n      pop\n      jump\t// out\n        /* \"#utility.yul\":13819:14185   */\n    tag_741:\n        /* \"#utility.yul\":13961:13964   */\n      0x00\n        /* \"#utility.yul\":13982:14049   */\n      tag_743\n        /* \"#utility.yul\":14046:14048   */\n      0x10\n        /* \"#utility.yul\":14041:14044   */\n      dup4\n        /* \"#utility.yul\":13982:14049   */\n      tag_707\n      jump\t// in\n    tag_743:\n        /* \"#utility.yul\":13975:14049   */\n      swap2\n      pop\n        /* \"#utility.yul\":14058:14151   */\n      tag_744\n        /* \"#utility.yul\":14147:14150   */\n      dup3\n        /* \"#utility.yul\":14058:14151   */\n      tag_745\n      jump\t// in\n    tag_744:\n        /* \"#utility.yul\":14176:14178   */\n      0x20\n        /* \"#utility.yul\":14171:14174   */\n      dup3\n        /* \"#utility.yul\":14167:14179   */\n      add\n        /* \"#utility.yul\":14160:14179   */\n      swap1\n      pop\n        /* \"#utility.yul\":13965:14185   */\n      swap2\n      swap1\n      pop\n      jump\t// out\n        /* \"#utility.yul\":14191:14557   */\n    tag_746:\n        /* \"#utility.yul\":14333:14336   */\n      0x00\n        /* \"#utility.yul\":14354:14421   */\n      tag_748\n        /* \"#utility.yul\":14418:14420   */\n      0x22\n        /* \"#utility.yul\":14413:14416   */\n      dup4\n        /* \"#utility.yul\":14354:14421   */\n      tag_707\n      jump\t// in\n    tag_748:\n        /* \"#utility.yul\":14347:14421   */\n      swap2\n      pop\n        /* \"#utility.yul\":14430:14523   */\n      tag_749\n        /* \"#utility.yul\":14519:14522   */\n      dup3\n        /* \"#utility.yul\":14430:14523   */\n      tag_750\n      jump\t// in\n    tag_749:\n        /* \"#utility.yul\":14548:14550   */\n      0x40\n        /* \"#utility.yul\":14543:14546   */\n      dup3\n        /* \"#utility.yul\":14539:14551   */\n      add\n        /* \"#utility.yul\":14532:14551   */\n      swap1\n      pop\n        /* \"#utility.yul\":14337:14557   */\n      swap2\n      swap1\n      pop\n      jump\t// out\n        /* \"#utility.yul\":14563:14963   */\n    tag_751:\n        /* \"#utility.yul\":14723:14726   */\n      0x00\n        /* \"#utility.yul\":14744:14828   */\n      tag_753\n        /* \"#utility.yul\":14826:14827   */\n      0x02\n        /* \"#utility.yul\":14821:14824   */\n      dup4\n        /* \"#utility.yul\":14744:14828   */\n      tag_714\n      jump\t// in\n    tag_753:\n        /* \"#utility.yul\":14737:14828   */\n      swap2\n      pop\n        /* \"#utility.yul\":14837:14930   */\n      tag_754\n        /* \"#utility.yul\":14926:14929   */\n      dup3\n        /* \"#utility.yul\":14837:14930   */\n      tag_755\n      jump\t// in\n    tag_754:\n        /* \"#utility.yul\":14955:14956   */\n      0x02\n        /* \"#utility.yul\":14950:14953   */\n      dup3\n        /* \"#utility.yul\":14946:14957   */\n      add\n        /* \"#utility.yul\":14939:14957   */\n      swap1\n      pop\n        /* \"#utility.yul\":14727:14963   */\n      swap2\n      swap1\n      pop\n      jump\t// out\n        /* \"#utility.yul\":14969:15335   */\n    tag_756:\n        /* \"#utility.yul\":15111:15114   */\n      0x00\n        /* \"#utility.yul\":15132:15199   */\n      tag_758\n        /* \"#utility.yul\":15196:15198   */\n      0x26\n        /* \"#utility.yul\":15191:15194   */\n      dup4\n        /* \"#utility.yul\":15132:15199   */\n      tag_707\n      jump\t// in\n    tag_758:\n        /* \"#utility.yul\":15125:15199   */\n      swap2\n      pop\n        /* \"#utility.yul\":15208:15301   */\n      tag_759\n        /* \"#utility.yul\":15297:15300   */\n      dup3\n        /* \"#utility.yul\":15208:15301   */\n      tag_760\n      jump\t// in\n    tag_759:\n        /* \"#utility.yul\":15326:15328   */\n      0x40\n        /* \"#utility.yul\":15321:15324   */\n      dup3\n        /* \"#utility.yul\":15317:15329   */\n      add\n        /* \"#utility.yul\":15310:15329   */\n      swap1\n      pop\n        /* \"#utility.yul\":15115:15335   */\n      swap2\n      swap1\n      pop\n      jump\t// out\n        /* \"#utility.yul\":15341:15741   */\n    tag_761:\n        /* \"#utility.yul\":15501:15504   */\n      0x00\n        /* \"#utility.yul\":15522:15606   */\n      tag_763\n        /* \"#utility.yul\":15604:15605   */\n      0x01\n        /* \"#utility.yul\":15599:15602   */\n      dup4\n        /* \"#utility.yul\":15522:15606   */\n      tag_714\n      jump\t// in\n    tag_763:\n        /* \"#utility.yul\":15515:15606   */\n      swap2\n      pop\n        /* \"#utility.yul\":15615:15708   */\n      tag_764\n        /* \"#utility.yul\":15704:15707   */\n      dup3\n        /* \"#utility.yul\":15615:15708   */\n      tag_765\n      jump\t// in\n    tag_764:\n        /* \"#utility.yul\":15733:15734   */\n      0x01\n        /* \"#utility.yul\":15728:15731   */\n      dup3\n        /* \"#utility.yul\":15724:15735   */\n      add\n        /* \"#utility.yul\":15717:15735   */\n      swap1\n      pop\n        /* \"#utility.yul\":15505:15741   */\n      swap2\n      swap1\n      pop\n      jump\t// out\n        /* \"#utility.yul\":15747:16147   */\n    tag_766:\n        /* \"#utility.yul\":15907:15910   */\n      0x00\n        /* \"#utility.yul\":15928:16012   */\n      tag_768\n        /* \"#utility.yul\":16010:16011   */\n      0x02\n        /* \"#utility.yul\":16005:16008   */\n      dup4\n        /* \"#utility.yul\":15928:16012   */\n      tag_714\n      jump\t// in\n    tag_768:\n        /* \"#utility.yul\":15921:16012   */\n      swap2\n      pop\n        /* \"#utility.yul\":16021:16114   */\n      tag_769\n        /* \"#utility.yul\":16110:16113   */\n      dup3\n        /* \"#utility.yul\":16021:16114   */\n      tag_770\n      jump\t// in\n    tag_769:\n        /* \"#utility.yul\":16139:16140   */\n      0x02\n        /* \"#utility.yul\":16134:16137   */\n      dup3\n        /* \"#utility.yul\":16130:16141   */\n      add\n        /* \"#utility.yul\":16123:16141   */\n      swap1\n      pop\n        /* \"#utility.yul\":15911:16147   */\n      swap2\n      swap1\n      pop\n      jump\t// out\n        /* \"#utility.yul\":16153:16519   */\n    tag_771:\n        /* \"#utility.yul\":16295:16298   */\n      0x00\n        /* \"#utility.yul\":16316:16383   */\n      tag_773\n        /* \"#utility.yul\":16380:16382   */\n      0x21\n        /* \"#utility.yul\":16375:16378   */\n      dup4\n        /* \"#utility.yul\":16316:16383   */\n      tag_707\n      jump\t// in\n    tag_773:\n        /* \"#utility.yul\":16309:16383   */\n      swap2\n      pop\n        /* \"#utility.yul\":16392:16485   */\n      tag_774\n        /* \"#utility.yul\":16481:16484   */\n      dup3\n        /* \"#utility.yul\":16392:16485   */\n      tag_775\n      jump\t// in\n    tag_774:\n        /* \"#utility.yul\":16510:16512   */\n      0x40\n        /* \"#utility.yul\":16505:16508   */\n      dup3\n        /* \"#utility.yul\":16501:16513   */\n      add\n        /* \"#utility.yul\":16494:16513   */\n      swap1\n      pop\n        /* \"#utility.yul\":16299:16519   */\n      swap2\n      swap1\n      pop\n      jump\t// out\n        /* \"#utility.yul\":16525:16891   */\n    tag_776:\n        /* \"#utility.yul\":16667:16670   */\n      0x00\n        /* \"#utility.yul\":16688:16755   */\n      tag_778\n        /* \"#utility.yul\":16752:16754   */\n      0x2e\n        /* \"#utility.yul\":16747:16750   */\n      dup4\n        /* \"#utility.yul\":16688:16755   */\n      tag_707\n      jump\t// in\n    tag_778:\n        /* \"#utility.yul\":16681:16755   */\n      swap2\n      pop\n        /* \"#utility.yul\":16764:16857   */\n      tag_779\n        /* \"#utility.yul\":16853:16856   */\n      dup3\n        /* \"#utility.yul\":16764:16857   */\n      tag_780\n      jump\t// in\n    tag_779:\n        /* \"#utility.yul\":16882:16884   */\n      0x40\n        /* \"#utility.yul\":16877:16880   */\n      dup3\n        /* \"#utility.yul\":16873:16885   */\n      add\n        /* \"#utility.yul\":16866:16885   */\n      swap1\n      pop\n        /* \"#utility.yul\":16671:16891   */\n      swap2\n      swap1\n      pop\n      jump\t// out\n        /* \"#utility.yul\":16897:17297   */\n    tag_781:\n        /* \"#utility.yul\":17057:17060   */\n      0x00\n        /* \"#utility.yul\":17078:17162   */\n      tag_783\n        /* \"#utility.yul\":17160:17161   */\n      0x02\n        /* \"#utility.yul\":17155:17158   */\n      dup4\n        /* \"#utility.yul\":17078:17162   */\n      tag_714\n      jump\t// in\n    tag_783:\n        /* \"#utility.yul\":17071:17162   */\n      swap2\n      pop\n        /* \"#utility.yul\":17171:17264   */\n      tag_784\n        /* \"#utility.yul\":17260:17263   */\n      dup3\n        /* \"#utility.yul\":17171:17264   */\n      tag_785\n      jump\t// in\n    tag_784:\n        /* \"#utility.yul\":17289:17290   */\n      0x02\n        /* \"#utility.yul\":17284:17287   */\n      dup3\n        /* \"#utility.yul\":17280:17291   */\n      add\n        /* \"#utility.yul\":17273:17291   */\n      swap1\n      pop\n        /* \"#utility.yul\":17061:17297   */\n      swap2\n      swap1\n      pop\n      jump\t// out\n        /* \"#utility.yul\":17303:17703   */\n    tag_786:\n        /* \"#utility.yul\":17463:17466   */\n      0x00\n        /* \"#utility.yul\":17484:17568   */\n      tag_788\n        /* \"#utility.yul\":17566:17567   */\n      0x01\n        /* \"#utility.yul\":17561:17564   */\n      dup4\n        /* \"#utility.yul\":17484:17568   */\n      tag_714\n      jump\t// in\n    tag_788:\n        /* \"#utility.yul\":17477:17568   */\n      swap2\n      pop\n        /* \"#utility.yul\":17577:17670   */\n      tag_789\n        /* \"#utility.yul\":17666:17669   */\n      dup3\n        /* \"#utility.yul\":17577:17670   */\n      tag_790\n      jump\t// in\n    tag_789:\n        /* \"#utility.yul\":17695:17696   */\n      0x01\n        /* \"#utility.yul\":17690:17693   */\n      dup3\n        /* \"#utility.yul\":17686:17697   */\n      add\n        /* \"#utility.yul\":17679:17697   */\n      swap1\n      pop\n        /* \"#utility.yul\":17467:17703   */\n      swap2\n      swap1\n      pop\n      jump\t// out\n        /* \"#utility.yul\":17709:18075   */\n    tag_791:\n        /* \"#utility.yul\":17851:17854   */\n      0x00\n        /* \"#utility.yul\":17872:17939   */\n      tag_793\n        /* \"#utility.yul\":17936:17938   */\n      0x1d\n        /* \"#utility.yul\":17931:17934   */\n      dup4\n        /* \"#utility.yul\":17872:17939   */\n      tag_707\n      jump\t// in\n    tag_793:\n        /* \"#utility.yul\":17865:17939   */\n      swap2\n      pop\n        /* \"#utility.yul\":17948:18041   */\n      tag_794\n        /* \"#utility.yul\":18037:18040   */\n      dup3\n        /* \"#utility.yul\":17948:18041   */\n      tag_795\n      jump\t// in\n    tag_794:\n        /* \"#utility.yul\":18066:18068   */\n      0x20\n        /* \"#utility.yul\":18061:18064   */\n      dup3\n        /* \"#utility.yul\":18057:18069   */\n      add\n        /* \"#utility.yul\":18050:18069   */\n      swap1\n      pop\n        /* \"#utility.yul\":17855:18075   */\n      swap2\n      swap1\n      pop\n      jump\t// out\n        /* \"#utility.yul\":18081:18447   */\n    tag_796:\n        /* \"#utility.yul\":18223:18226   */\n      0x00\n        /* \"#utility.yul\":18244:18311   */\n      tag_798\n        /* \"#utility.yul\":18308:18310   */\n      0x25\n        /* \"#utility.yul\":18303:18306   */\n      dup4\n        /* \"#utility.yul\":18244:18311   */\n      tag_707\n      jump\t// in\n    tag_798:\n        /* \"#utility.yul\":18237:18311   */\n      swap2\n      pop\n        /* \"#utility.yul\":18320:18413   */\n      tag_799\n        /* \"#utility.yul\":18409:18412   */\n      dup3\n        /* \"#utility.yul\":18320:18413   */\n      tag_800\n      jump\t// in\n    tag_799:\n        /* \"#utility.yul\":18438:18440   */\n      0x40\n        /* \"#utility.yul\":18433:18436   */\n      dup3\n        /* \"#utility.yul\":18429:18441   */\n      add\n        /* \"#utility.yul\":18422:18441   */\n      swap1\n      pop\n        /* \"#utility.yul\":18227:18447   */\n      swap2\n      swap1\n      pop\n      jump\t// out\n        /* \"#utility.yul\":18453:18571   */\n    tag_801:\n        /* \"#utility.yul\":18540:18564   */\n      tag_803\n        /* \"#utility.yul\":18558:18563   */\n      dup2\n        /* \"#utility.yul\":18540:18564   */\n      tag_804\n      jump\t// in\n    tag_803:\n        /* \"#utility.yul\":18535:18538   */\n      dup3\n        /* \"#utility.yul\":18528:18565   */\n      mstore\n        /* \"#utility.yul\":18518:18571   */\n      pop\n      pop\n      jump\t// out\n        /* \"#utility.yul\":18577:18852   */\n    tag_441:\n        /* \"#utility.yul\":18709:18712   */\n      0x00\n        /* \"#utility.yul\":18731:18826   */\n      tag_806\n        /* \"#utility.yul\":18822:18825   */\n      dup3\n        /* \"#utility.yul\":18813:18819   */\n      dup5\n        /* \"#utility.yul\":18731:18826   */\n      tag_710\n      jump\t// in\n    tag_806:\n        /* \"#utility.yul\":18724:18826   */\n      swap2\n      pop\n        /* \"#utility.yul\":18843:18846   */\n      dup2\n        /* \"#utility.yul\":18836:18846   */\n      swap1\n      pop\n        /* \"#utility.yul\":18713:18852   */\n      swap3\n      swap2\n      pop\n      pop\n      jump\t// out\n        /* \"#utility.yul\":18858:19239   */\n    tag_475:\n        /* \"#utility.yul\":19043:19046   */\n      0x00\n        /* \"#utility.yul\":19065:19213   */\n      tag_808\n        /* \"#utility.yul\":19209:19212   */\n      dup3\n        /* \"#utility.yul\":19065:19213   */\n      tag_716\n      jump\t// in\n    tag_808:\n        /* \"#utility.yul\":19058:19213   */\n      swap2\n      pop\n        /* \"#utility.yul\":19230:19233   */\n      dup2\n        /* \"#utility.yul\":19223:19233   */\n      swap1\n      pop\n        /* \"#utility.yul\":19047:19239   */\n      swap2\n      swap1\n      pop\n      jump\t// out\n        /* \"#utility.yul\":19245:19626   */\n    tag_473:\n        /* \"#utility.yul\":19430:19433   */\n      0x00\n        /* \"#utility.yul\":19452:19600   */\n      tag_810\n        /* \"#utility.yul\":19596:19599   */\n      dup3\n        /* \"#utility.yul\":19452:19600   */\n      tag_751\n      jump\t// in\n    tag_810:\n        /* \"#utility.yul\":19445:19600   */\n      swap2\n      pop\n        /* \"#utility.yul\":19617:19620   */\n      dup2\n        /* \"#utility.yul\":19610:19620   */\n      swap1\n      pop\n        /* \"#utility.yul\":19434:19626   */\n      swap2\n      swap1\n      pop\n      jump\t// out\n        /* \"#utility.yul\":19632:20013   */\n    tag_477:\n        /* \"#utility.yul\":19817:19820   */\n      0x00\n        /* \"#utility.yul\":19839:19987   */\n      tag_812\n        /* \"#utility.yul\":19983:19986   */\n      dup3\n        /* \"#utility.yul\":19839:19987   */\n      tag_761\n      jump\t// in\n    tag_812:\n        /* \"#utility.yul\":19832:19987   */\n      swap2\n      pop\n        /* \"#utility.yul\":20004:20007   */\n      dup2\n        /* \"#utility.yul\":19997:20007   */\n      swap1\n      pop\n        /* \"#utility.yul\":19821:20013   */\n      swap2\n      swap1\n      pop\n      jump\t// out\n        /* \"#utility.yul\":20019:20400   */\n    tag_479:\n        /* \"#utility.yul\":20204:20207   */\n      0x00\n        /* \"#utility.yul\":20226:20374   */\n      tag_814\n        /* \"#utility.yul\":20370:20373   */\n      dup3\n        /* \"#utility.yul\":20226:20374   */\n      tag_766\n      jump\t// in\n    tag_814:\n        /* \"#utility.yul\":20219:20374   */\n      swap2\n      pop\n        /* \"#utility.yul\":20391:20394   */\n      dup2\n        /* \"#utility.yul\":20384:20394   */\n      swap1\n      pop\n        /* \"#utility.yul\":20208:20400   */\n      swap2\n      swap1\n      pop\n      jump\t// out\n        /* \"#utility.yul\":20406:20787   */\n    tag_481:\n        /* \"#utility.yul\":20591:20594   */\n      0x00\n        /* \"#utility.yul\":20613:20761   */\n      tag_816\n        /* \"#utility.yul\":20757:20760   */\n      dup3\n        /* \"#utility.yul\":20613:20761   */\n      tag_781\n      jump\t// in\n    tag_816:\n        /* \"#utility.yul\":20606:20761   */\n      swap2\n      pop\n        /* \"#utility.yul\":20778:20781   */\n      dup2\n        /* \"#utility.yul\":20771:20781   */\n      swap1\n      pop\n        /* \"#utility.yul\":20595:20787   */\n      swap2\n      swap1\n      pop\n      jump\t// out\n        /* \"#utility.yul\":20793:21174   */\n    tag_471:\n        /* \"#utility.yul\":20978:20981   */\n      0x00\n        /* \"#utility.yul\":21000:21148   */\n      tag_818\n        /* \"#utility.yul\":21144:21147   */\n      dup3\n        /* \"#utility.yul\":21000:21148   */\n      tag_786\n      jump\t// in\n    tag_818:\n        /* \"#utility.yul\":20993:21148   */\n      swap2\n      pop\n        /* \"#utility.yul\":21165:21168   */\n      dup2\n        /* \"#utility.yul\":21158:21168   */\n      swap1\n      pop\n        /* \"#utility.yul\":20982:21174   */\n      swap2\n      swap1\n      pop\n      jump\t// out\n        /* \"#utility.yul\":21180:21402   */\n    tag_151:\n        /* \"#utility.yul\":21273:21277   */\n      0x00\n        /* \"#utility.yul\":21311:21313   */\n      0x20\n        /* \"#utility.yul\":21300:21309   */\n      dup3\n        /* \"#utility.yul\":21296:21314   */\n      add\n        /* \"#utility.yul\":21288:21314   */\n      swap1\n      pop\n        /* \"#utility.yul\":21324:21395   */\n      tag_820\n        /* \"#utility.yul\":21392:21393   */\n      0x00\n        /* \"#utility.yul\":21381:21390   */\n      dup4\n        /* \"#utility.yul\":21377:21394   */\n      add\n        /* \"#utility.yul\":21368:21374   */\n      dup5\n        /* \"#utility.yul\":21324:21395   */\n      tag_648\n      jump\t// in\n    tag_820:\n        /* \"#utility.yul\":21278:21402   */\n      swap3\n      swap2\n      pop\n      pop\n      jump\t// out\n        /* \"#utility.yul\":21408:21662   */\n    tag_47:\n        /* \"#utility.yul\":21517:21521   */\n      0x00\n        /* \"#utility.yul\":21555:21557   */\n      0x20\n        /* \"#utility.yul\":21544:21553   */\n      dup3\n        /* \"#utility.yul\":21540:21558   */\n      add\n        /* \"#utility.yul\":21532:21558   */\n      swap1\n      pop\n        /* \"#utility.yul\":21568:21655   */\n      tag_822\n        /* \"#utility.yul\":21652:21653   */\n      0x00\n        /* \"#utility.yul\":21641:21650   */\n      dup4\n        /* \"#utility.yul\":21637:21654   */\n      add\n        /* \"#utility.yul\":21628:21634   */\n      dup5\n        /* \"#utility.yul\":21568:21655   */\n      tag_644\n      jump\t// in\n    tag_822:\n        /* \"#utility.yul\":21522:21662   */\n      swap3\n      swap2\n      pop\n      pop\n      jump\t// out\n        /* \"#utility.yul\":21668:23359   */\n    tag_161:\n        /* \"#utility.yul\":22196:22200   */\n      0x00\n        /* \"#utility.yul\":22234:22237   */\n      0x0320\n        /* \"#utility.yul\":22223:22232   */\n      dup3\n        /* \"#utility.yul\":22219:22238   */\n      add\n        /* \"#utility.yul\":22211:22238   */\n      swap1\n      pop\n        /* \"#utility.yul\":22248:22319   */\n      tag_824\n        /* \"#utility.yul\":22316:22317   */\n      0x00\n        /* \"#utility.yul\":22305:22314   */\n      dup4\n        /* \"#utility.yul\":22301:22318   */\n      add\n        /* \"#utility.yul\":22292:22298   */\n      dup15\n        /* \"#utility.yul\":22248:22319   */\n      tag_648\n      jump\t// in\n    tag_824:\n        /* \"#utility.yul\":22329:22401   */\n      tag_825\n        /* \"#utility.yul\":22397:22399   */\n      0x20\n        /* \"#utility.yul\":22386:22395   */\n      dup4\n        /* \"#utility.yul\":22382:22400   */\n      add\n        /* \"#utility.yul\":22373:22379   */\n      dup14\n        /* \"#utility.yul\":22329:22401   */\n      tag_648\n      jump\t// in\n    tag_825:\n        /* \"#utility.yul\":22411:22483   */\n      tag_826\n        /* \"#utility.yul\":22479:22481   */\n      0x40\n        /* \"#utility.yul\":22468:22477   */\n      dup4\n        /* \"#utility.yul\":22464:22482   */\n      add\n        /* \"#utility.yul\":22455:22461   */\n      dup13\n        /* \"#utility.yul\":22411:22483   */\n      tag_801\n      jump\t// in\n    tag_826:\n        /* \"#utility.yul\":22493:22565   */\n      tag_827\n        /* \"#utility.yul\":22561:22563   */\n      0x60\n        /* \"#utility.yul\":22550:22559   */\n      dup4\n        /* \"#utility.yul\":22546:22564   */\n      add\n        /* \"#utility.yul\":22537:22543   */\n      dup12\n        /* \"#utility.yul\":22493:22565   */\n      tag_801\n      jump\t// in\n    tag_827:\n        /* \"#utility.yul\":22575:22648   */\n      tag_828\n        /* \"#utility.yul\":22643:22646   */\n      0x80\n        /* \"#utility.yul\":22632:22641   */\n      dup4\n        /* \"#utility.yul\":22628:22647   */\n      add\n        /* \"#utility.yul\":22619:22625   */\n      dup11\n        /* \"#utility.yul\":22575:22648   */\n      tag_801\n      jump\t// in\n    tag_828:\n        /* \"#utility.yul\":22658:22731   */\n      tag_829\n        /* \"#utility.yul\":22726:22729   */\n      0xa0\n        /* \"#utility.yul\":22715:22724   */\n      dup4\n        /* \"#utility.yul\":22711:22730   */\n      add\n        /* \"#utility.yul\":22702:22708   */\n      dup10\n        /* \"#utility.yul\":22658:22731   */\n      tag_801\n      jump\t// in\n    tag_829:\n        /* \"#utility.yul\":22741:22814   */\n      tag_830\n        /* \"#utility.yul\":22809:22812   */\n      0xc0\n        /* \"#utility.yul\":22798:22807   */\n      dup4\n        /* \"#utility.yul\":22794:22813   */\n      add\n        /* \"#utility.yul\":22785:22791   */\n      dup9\n        /* \"#utility.yul\":22741:22814   */\n      tag_801\n      jump\t// in\n    tag_830:\n        /* \"#utility.yul\":22824:22897   */\n      tag_831\n        /* \"#utility.yul\":22892:22895   */\n      0xe0\n        /* \"#utility.yul\":22881:22890   */\n      dup4\n        /* \"#utility.yul\":22877:22896   */\n      add\n        /* \"#utility.yul\":22868:22874   */\n      dup8\n        /* \"#utility.yul\":22824:22897   */\n      tag_801\n      jump\t// in\n    tag_831:\n        /* \"#utility.yul\":22945:22954   */\n      dup2\n        /* \"#utility.yul\":22939:22943   */\n      dup2\n        /* \"#utility.yul\":22935:22955   */\n      sub\n        /* \"#utility.yul\":22929:22932   */\n      0x0100\n        /* \"#utility.yul\":22918:22927   */\n      dup4\n        /* \"#utility.yul\":22914:22933   */\n      add\n        /* \"#utility.yul\":22907:22956   */\n      mstore\n        /* \"#utility.yul\":22973:23097   */\n      tag_832\n        /* \"#utility.yul\":23092:23096   */\n      dup2\n        /* \"#utility.yul\":23083:23089   */\n      dup7\n        /* \"#utility.yul\":22973:23097   */\n      tag_666\n      jump\t// in\n    tag_832:\n        /* \"#utility.yul\":22965:23097   */\n      swap1\n      pop\n        /* \"#utility.yul\":23107:23224   */\n      tag_833\n        /* \"#utility.yul\":23219:23222   */\n      0x0120\n        /* \"#utility.yul\":23208:23217   */\n      dup4\n        /* \"#utility.yul\":23204:23223   */\n      add\n        /* \"#utility.yul\":23195:23201   */\n      dup6\n        /* \"#utility.yul\":23107:23224   */\n      tag_652\n      jump\t// in\n    tag_833:\n        /* \"#utility.yul\":23234:23352   */\n      tag_834\n        /* \"#utility.yul\":23347:23350   */\n      0x0220\n        /* \"#utility.yul\":23336:23345   */\n      dup4\n        /* \"#utility.yul\":23332:23351   */\n      add\n        /* \"#utility.yul\":23322:23329   */\n      dup5\n        /* \"#utility.yul\":23234:23352   */\n      tag_652\n      jump\t// in\n    tag_834:\n        /* \"#utility.yul\":22201:23359   */\n      swap13\n      swap12\n      pop\n      pop\n      pop\n      pop\n      pop\n      pop\n      pop\n      pop\n      pop\n      pop\n      pop\n      pop\n      jump\t// out\n        /* \"#utility.yul\":23365:23575   */\n    tag_64:\n        /* \"#utility.yul\":23452:23456   */\n      0x00\n        /* \"#utility.yul\":23490:23492   */\n      0x20\n        /* \"#utility.yul\":23479:23488   */\n      dup3\n        /* \"#utility.yul\":23475:23493   */\n      add\n        /* \"#utility.yul\":23467:23493   */\n      swap1\n      pop\n        /* \"#utility.yul\":23503:23568   */\n      tag_836\n        /* \"#utility.yul\":23565:23566   */\n      0x00\n        /* \"#utility.yul\":23554:23563   */\n      dup4\n        /* \"#utility.yul\":23550:23567   */\n      add\n        /* \"#utility.yul\":23541:23547   */\n      dup5\n        /* \"#utility.yul\":23503:23568   */\n      tag_680\n      jump\t// in\n    tag_836:\n        /* \"#utility.yul\":23457:23575   */\n      swap3\n      swap2\n      pop\n      pop\n      jump\t// out\n        /* \"#utility.yul\":23581:24098   */\n    tag_347:\n        /* \"#utility.yul\":23769:23773   */\n      0x00\n        /* \"#utility.yul\":23807:23809   */\n      0x40\n        /* \"#utility.yul\":23796:23805   */\n      dup3\n        /* \"#utility.yul\":23792:23810   */\n      add\n        /* \"#utility.yul\":23784:23810   */\n      swap1\n      pop\n        /* \"#utility.yul\":23820:23885   */\n      tag_838\n        /* \"#utility.yul\":23882:23883   */\n      0x00\n        /* \"#utility.yul\":23871:23880   */\n      dup4\n        /* \"#utility.yul\":23867:23884   */\n      add\n        /* \"#utility.yul\":23858:23864   */\n      dup5\n        /* \"#utility.yul\":23820:23885   */\n      tag_680\n      jump\t// in\n    tag_838:\n        /* \"#utility.yul\":23932:23941   */\n      dup2\n        /* \"#utility.yul\":23926:23930   */\n      dup2\n        /* \"#utility.yul\":23922:23942   */\n      sub\n        /* \"#utility.yul\":23917:23919   */\n      0x20\n        /* \"#utility.yul\":23906:23915   */\n      dup4\n        /* \"#utility.yul\":23902:23920   */\n      add\n        /* \"#utility.yul\":23895:23943   */\n      mstore\n        /* \"#utility.yul\":23960:24091   */\n      tag_839\n        /* \"#utility.yul\":24086:24090   */\n      dup2\n        /* \"#utility.yul\":23960:24091   */\n      tag_736\n      jump\t// in\n    tag_839:\n        /* \"#utility.yul\":23952:24091   */\n      swap1\n      pop\n        /* \"#utility.yul\":23774:24098   */\n      swap3\n      swap2\n      pop\n      pop\n      jump\t// out\n        /* \"#utility.yul\":24104:24621   */\n    tag_350:\n        /* \"#utility.yul\":24292:24296   */\n      0x00\n        /* \"#utility.yul\":24330:24332   */\n      0x40\n        /* \"#utility.yul\":24319:24328   */\n      dup3\n        /* \"#utility.yul\":24315:24333   */\n      add\n        /* \"#utility.yul\":24307:24333   */\n      swap1\n      pop\n        /* \"#utility.yul\":24343:24408   */\n      tag_841\n        /* \"#utility.yul\":24405:24406   */\n      0x00\n        /* \"#utility.yul\":24394:24403   */\n      dup4\n        /* \"#utility.yul\":24390:24407   */\n      add\n        /* \"#utility.yul\":24381:24387   */\n      dup5\n        /* \"#utility.yul\":24343:24408   */\n      tag_680\n      jump\t// in\n    tag_841:\n        /* \"#utility.yul\":24455:24464   */\n      dup2\n        /* \"#utility.yul\":24449:24453   */\n      dup2\n        /* \"#utility.yul\":24445:24465   */\n      sub\n        /* \"#utility.yul\":24440:24442   */\n      0x20\n        /* \"#utility.yul\":24429:24438   */\n      dup4\n        /* \"#utility.yul\":24425:24443   */\n      add\n        /* \"#utility.yul\":24418:24466   */\n      mstore\n        /* \"#utility.yul\":24483:24614   */\n      tag_842\n        /* \"#utility.yul\":24609:24613   */\n      dup2\n        /* \"#utility.yul\":24483:24614   */\n      tag_741\n      jump\t// in\n    tag_842:\n        /* \"#utility.yul\":24475:24614   */\n      swap1\n      pop\n        /* \"#utility.yul\":24297:24621   */\n      swap3\n      swap2\n      pop\n      pop\n      jump\t// out\n        /* \"#utility.yul\":24627:24863   */\n    tag_134:\n        /* \"#utility.yul\":24727:24731   */\n      0x00\n        /* \"#utility.yul\":24765:24767   */\n      0x20\n        /* \"#utility.yul\":24754:24763   */\n      dup3\n        /* \"#utility.yul\":24750:24768   */\n      add\n        /* \"#utility.yul\":24742:24768   */\n      swap1\n      pop\n        /* \"#utility.yul\":24778:24856   */\n      tag_844\n        /* \"#utility.yul\":24853:24854   */\n      0x00\n        /* \"#utility.yul\":24842:24851   */\n      dup4\n        /* \"#utility.yul\":24838:24855   */\n      add\n        /* \"#utility.yul\":24829:24835   */\n      dup5\n        /* \"#utility.yul\":24778:24856   */\n      tag_684\n      jump\t// in\n    tag_844:\n        /* \"#utility.yul\":24732:24863   */\n      swap3\n      swap2\n      pop\n      pop\n      jump\t// out\n        /* \"#utility.yul\":24869:25087   */\n    tag_90:\n        /* \"#utility.yul\":24960:24964   */\n      0x00\n        /* \"#utility.yul\":24998:25000   */\n      0x20\n        /* \"#utility.yul\":24987:24996   */\n      dup3\n        /* \"#utility.yul\":24983:25001   */\n      add\n        /* \"#utility.yul\":24975:25001   */\n      swap1\n      pop\n        /* \"#utility.yul\":25011:25080   */\n      tag_846\n        /* \"#utility.yul\":25077:25078   */\n      0x00\n        /* \"#utility.yul\":25066:25075   */\n      dup4\n        /* \"#utility.yul\":25062:25079   */\n      add\n        /* \"#utility.yul\":25053:25059   */\n      dup5\n        /* \"#utility.yul\":25011:25080   */\n      tag_691\n      jump\t// in\n    tag_846:\n        /* \"#utility.yul\":24965:25087   */\n      swap3\n      swap2\n      pop\n      pop\n      jump\t// out\n        /* \"#utility.yul\":25093:25406   */\n    tag_80:\n        /* \"#utility.yul\":25206:25210   */\n      0x00\n        /* \"#utility.yul\":25244:25246   */\n      0x20\n        /* \"#utility.yul\":25233:25242   */\n      dup3\n        /* \"#utility.yul\":25229:25247   */\n      add\n        /* \"#utility.yul\":25221:25247   */\n      swap1\n      pop\n        /* \"#utility.yul\":25293:25302   */\n      dup2\n        /* \"#utility.yul\":25287:25291   */\n      dup2\n        /* \"#utility.yul\":25283:25303   */\n      sub\n        /* \"#utility.yul\":25279:25280   */\n      0x00\n        /* \"#utility.yul\":25268:25277   */\n      dup4\n        /* \"#utility.yul\":25264:25281   */\n      add\n        /* \"#utility.yul\":25257:25304   */\n      mstore\n        /* \"#utility.yul\":25321:25399   */\n      tag_848\n        /* \"#utility.yul\":25394:25398   */\n      dup2\n        /* \"#utility.yul\":25385:25391   */\n      dup5\n        /* \"#utility.yul\":25321:25399   */\n      tag_703\n      jump\t// in\n    tag_848:\n        /* \"#utility.yul\":25313:25399   */\n      swap1\n      pop\n        /* \"#utility.yul\":25211:25406   */\n      swap3\n      swap2\n      pop\n      pop\n      jump\t// out\n        /* \"#utility.yul\":25412:25941   */\n    tag_425:\n        /* \"#utility.yul\":25606:25610   */\n      0x00\n        /* \"#utility.yul\":25644:25646   */\n      0x40\n        /* \"#utility.yul\":25633:25642   */\n      dup3\n        /* \"#utility.yul\":25629:25647   */\n      add\n        /* \"#utility.yul\":25621:25647   */\n      swap1\n      pop\n        /* \"#utility.yul\":25693:25702   */\n      dup2\n        /* \"#utility.yul\":25687:25691   */\n      dup2\n        /* \"#utility.yul\":25683:25703   */\n      sub\n        /* \"#utility.yul\":25679:25680   */\n      0x00\n        /* \"#utility.yul\":25668:25677   */\n      dup4\n        /* \"#utility.yul\":25664:25681   */\n      add\n        /* \"#utility.yul\":25657:25704   */\n      mstore\n        /* \"#utility.yul\":25721:25852   */\n      tag_850\n        /* \"#utility.yul\":25847:25851   */\n      dup2\n        /* \"#utility.yul\":25721:25852   */\n      tag_721\n      jump\t// in\n    tag_850:\n        /* \"#utility.yul\":25713:25852   */\n      swap1\n      pop\n        /* \"#utility.yul\":25862:25934   */\n      tag_851\n        /* \"#utility.yul\":25930:25932   */\n      0x20\n        /* \"#utility.yul\":25919:25928   */\n      dup4\n        /* \"#utility.yul\":25915:25933   */\n      add\n        /* \"#utility.yul\":25906:25912   */\n      dup5\n        /* \"#utility.yul\":25862:25934   */\n      tag_801\n      jump\t// in\n    tag_851:\n        /* \"#utility.yul\":25611:25941   */\n      swap3\n      swap2\n      pop\n      pop\n      jump\t// out\n        /* \"#utility.yul\":25947:26366   */\n    tag_182:\n        /* \"#utility.yul\":26113:26117   */\n      0x00\n        /* \"#utility.yul\":26151:26153   */\n      0x20\n        /* \"#utility.yul\":26140:26149   */\n      dup3\n        /* \"#utility.yul\":26136:26154   */\n      add\n        /* \"#utility.yul\":26128:26154   */\n      swap1\n      pop\n        /* \"#utility.yul\":26200:26209   */\n      dup2\n        /* \"#utility.yul\":26194:26198   */\n      dup2\n        /* \"#utility.yul\":26190:26210   */\n      sub\n        /* \"#utility.yul\":26186:26187   */\n      0x00\n        /* \"#utility.yul\":26175:26184   */\n      dup4\n        /* \"#utility.yul\":26171:26188   */\n      add\n        /* \"#utility.yul\":26164:26211   */\n      mstore\n        /* \"#utility.yul\":26228:26359   */\n      tag_853\n        /* \"#utility.yul\":26354:26358   */\n      dup2\n        /* \"#utility.yul\":26228:26359   */\n      tag_726\n      jump\t// in\n    tag_853:\n        /* \"#utility.yul\":26220:26359   */\n      swap1\n      pop\n        /* \"#utility.yul\":26118:26366   */\n      swap2\n      swap1\n      pop\n      jump\t// out\n        /* \"#utility.yul\":26372:26901   */\n    tag_420:\n        /* \"#utility.yul\":26566:26570   */\n      0x00\n        /* \"#utility.yul\":26604:26606   */\n      0x40\n        /* \"#utility.yul\":26593:26602   */\n      dup3\n        /* \"#utility.yul\":26589:26607   */\n      add\n        /* \"#utility.yul\":26581:26607   */\n      swap1\n      pop\n        /* \"#utility.yul\":26653:26662   */\n      dup2\n        /* \"#utility.yul\":26647:26651   */\n      dup2\n        /* \"#utility.yul\":26643:26663   */\n      sub\n        /* \"#utility.yul\":26639:26640   */\n      0x00\n        /* \"#utility.yul\":26628:26637   */\n      dup4\n        /* \"#utility.yul\":26624:26641   */\n      add\n        /* \"#utility.yul\":26617:26664   */\n      mstore\n        /* \"#utility.yul\":26681:26812   */\n      tag_855\n        /* \"#utility.yul\":26807:26811   */\n      dup2\n        /* \"#utility.yul\":26681:26812   */\n      tag_731\n      jump\t// in\n    tag_855:\n        /* \"#utility.yul\":26673:26812   */\n      swap1\n      pop\n        /* \"#utility.yul\":26822:26894   */\n      tag_856\n        /* \"#utility.yul\":26890:26892   */\n      0x20\n        /* \"#utility.yul\":26879:26888   */\n      dup4\n        /* \"#utility.yul\":26875:26893   */\n      add\n        /* \"#utility.yul\":26866:26872   */\n      dup5\n        /* \"#utility.yul\":26822:26894   */\n      tag_801\n      jump\t// in\n    tag_856:\n        /* \"#utility.yul\":26571:26901   */\n      swap3\n      swap2\n      pop\n      pop\n      jump\t// out\n        /* \"#utility.yul\":26907:27436   */\n    tag_410:\n        /* \"#utility.yul\":27101:27105   */\n      0x00\n        /* \"#utility.yul\":27139:27141   */\n      0x40\n        /* \"#utility.yul\":27128:27137   */\n      dup3\n        /* \"#utility.yul\":27124:27142   */\n      add\n        /* \"#utility.yul\":27116:27142   */\n      swap1\n      pop\n        /* \"#utility.yul\":27188:27197   */\n      dup2\n        /* \"#utility.yul\":27182:27186   */\n      dup2\n        /* \"#utility.yul\":27178:27198   */\n      sub\n        /* \"#utility.yul\":27174:27175   */\n      0x00\n        /* \"#utility.yul\":27163:27172   */\n      dup4\n        /* \"#utility.yul\":27159:27176   */\n      add\n        /* \"#utility.yul\":27152:27199   */\n      mstore\n        /* \"#utility.yul\":27216:27347   */\n      tag_858\n        /* \"#utility.yul\":27342:27346   */\n      dup2\n        /* \"#utility.yul\":27216:27347   */\n      tag_746\n      jump\t// in\n    tag_858:\n        /* \"#utility.yul\":27208:27347   */\n      swap1\n      pop\n        /* \"#utility.yul\":27357:27429   */\n      tag_859\n        /* \"#utility.yul\":27425:27427   */\n      0x20\n        /* \"#utility.yul\":27414:27423   */\n      dup4\n        /* \"#utility.yul\":27410:27428   */\n      add\n        /* \"#utility.yul\":27401:27407   */\n      dup5\n        /* \"#utility.yul\":27357:27429   */\n      tag_801\n      jump\t// in\n    tag_859:\n        /* \"#utility.yul\":27106:27436   */\n      swap3\n      swap2\n      pop\n      pop\n      jump\t// out\n        /* \"#utility.yul\":27442:27971   */\n    tag_300:\n        /* \"#utility.yul\":27636:27640   */\n      0x00\n        /* \"#utility.yul\":27674:27676   */\n      0x40\n        /* \"#utility.yul\":27663:27672   */\n      dup3\n        /* \"#utility.yul\":27659:27677   */\n      add\n        /* \"#utility.yul\":27651:27677   */\n      swap1\n      pop\n        /* \"#utility.yul\":27723:27732   */\n      dup2\n        /* \"#utility.yul\":27717:27721   */\n      dup2\n        /* \"#utility.yul\":27713:27733   */\n      sub\n        /* \"#utility.yul\":27709:27710   */\n      0x00\n        /* \"#utility.yul\":27698:27707   */\n      dup4\n        /* \"#utility.yul\":27694:27711   */\n      add\n        /* \"#utility.yul\":27687:27734   */\n      mstore\n        /* \"#utility.yul\":27751:27882   */\n      tag_861\n        /* \"#utility.yul\":27877:27881   */\n      dup2\n        /* \"#utility.yul\":27751:27882   */\n      tag_756\n      jump\t// in\n    tag_861:\n        /* \"#utility.yul\":27743:27882   */\n      swap1\n      pop\n        /* \"#utility.yul\":27892:27964   */\n      tag_862\n        /* \"#utility.yul\":27960:27962   */\n      0x20\n        /* \"#utility.yul\":27949:27958   */\n      dup4\n        /* \"#utility.yul\":27945:27963   */\n      add\n        /* \"#utility.yul\":27936:27942   */\n      dup5\n        /* \"#utility.yul\":27892:27964   */\n      tag_801\n      jump\t// in\n    tag_862:\n        /* \"#utility.yul\":27641:27971   */\n      swap3\n      swap2\n      pop\n      pop\n      jump\t// out\n        /* \"#utility.yul\":27977:28506   */\n    tag_167:\n        /* \"#utility.yul\":28171:28175   */\n      0x00\n        /* \"#utility.yul\":28209:28211   */\n      0x40\n        /* \"#utility.yul\":28198:28207   */\n      dup3\n        /* \"#utility.yul\":28194:28212   */\n      add\n        /* \"#utility.yul\":28186:28212   */\n      swap1\n      pop\n        /* \"#utility.yul\":28258:28267   */\n      dup2\n        /* \"#utility.yul\":28252:28256   */\n      dup2\n        /* \"#utility.yul\":28248:28268   */\n      sub\n        /* \"#utility.yul\":28244:28245   */\n      0x00\n        /* \"#utility.yul\":28233:28242   */\n      dup4\n        /* \"#utility.yul\":28229:28246   */\n      add\n        /* \"#utility.yul\":28222:28269   */\n      mstore\n        /* \"#utility.yul\":28286:28417   */\n      tag_864\n        /* \"#utility.yul\":28412:28416   */\n      dup2\n        /* \"#utility.yul\":28286:28417   */\n      tag_771\n      jump\t// in\n    tag_864:\n        /* \"#utility.yul\":28278:28417   */\n      swap1\n      pop\n        /* \"#utility.yul\":28427:28499   */\n      tag_865\n        /* \"#utility.yul\":28495:28497   */\n      0x20\n        /* \"#utility.yul\":28484:28493   */\n      dup4\n        /* \"#utility.yul\":28480:28498   */\n      add\n        /* \"#utility.yul\":28471:28477   */\n      dup5\n        /* \"#utility.yul\":28427:28499   */\n      tag_801\n      jump\t// in\n    tag_865:\n        /* \"#utility.yul\":28176:28506   */\n      swap3\n      swap2\n      pop\n      pop\n      jump\t// out\n        /* \"#utility.yul\":28512:29041   */\n    tag_171:\n        /* \"#utility.yul\":28706:28710   */\n      0x00\n        /* \"#utility.yul\":28744:28746   */\n      0x40\n        /* \"#utility.yul\":28733:28742   */\n      dup3\n        /* \"#utility.yul\":28729:28747   */\n      add\n        /* \"#utility.yul\":28721:28747   */\n      swap1\n      pop\n        /* \"#utility.yul\":28793:28802   */\n      dup2\n        /* \"#utility.yul\":28787:28791   */\n      dup2\n        /* \"#utility.yul\":28783:28803   */\n      sub\n        /* \"#utility.yul\":28779:28780   */\n      0x00\n        /* \"#utility.yul\":28768:28777   */\n      dup4\n        /* \"#utility.yul\":28764:28781   */\n      add\n        /* \"#utility.yul\":28757:28804   */\n      mstore\n        /* \"#utility.yul\":28821:28952   */\n      tag_867\n        /* \"#utility.yul\":28947:28951   */\n      dup2\n        /* \"#utility.yul\":28821:28952   */\n      tag_776\n      jump\t// in\n    tag_867:\n        /* \"#utility.yul\":28813:28952   */\n      swap1\n      pop\n        /* \"#utility.yul\":28962:29034   */\n      tag_868\n        /* \"#utility.yul\":29030:29032   */\n      0x20\n        /* \"#utility.yul\":29019:29028   */\n      dup4\n        /* \"#utility.yul\":29015:29033   */\n      add\n        /* \"#utility.yul\":29006:29012   */\n      dup5\n        /* \"#utility.yul\":28962:29034   */\n      tag_801\n      jump\t// in\n    tag_868:\n        /* \"#utility.yul\":28711:29041   */\n      swap3\n      swap2\n      pop\n      pop\n      jump\t// out\n        /* \"#utility.yul\":29047:29466   */\n    tag_205:\n        /* \"#utility.yul\":29213:29217   */\n      0x00\n        /* \"#utility.yul\":29251:29253   */\n      0x20\n        /* \"#utility.yul\":29240:29249   */\n      dup3\n        /* \"#utility.yul\":29236:29254   */\n      add\n        /* \"#utility.yul\":29228:29254   */\n      swap1\n      pop\n        /* \"#utility.yul\":29300:29309   */\n      dup2\n        /* \"#utility.yul\":29294:29298   */\n      dup2\n        /* \"#utility.yul\":29290:29310   */\n      sub\n        /* \"#utility.yul\":29286:29287   */\n      0x00\n        /* \"#utility.yul\":29275:29284   */\n      dup4\n        /* \"#utility.yul\":29271:29288   */\n      add\n        /* \"#utility.yul\":29264:29311   */\n      mstore\n        /* \"#utility.yul\":29328:29459   */\n      tag_870\n        /* \"#utility.yul\":29454:29458   */\n      dup2\n        /* \"#utility.yul\":29328:29459   */\n      tag_791\n      jump\t// in\n    tag_870:\n        /* \"#utility.yul\":29320:29459   */\n      swap1\n      pop\n        /* \"#utility.yul\":29218:29466   */\n      swap2\n      swap1\n      pop\n      jump\t// out\n        /* \"#utility.yul\":29472:29891   */\n    tag_178:\n        /* \"#utility.yul\":29638:29642   */\n      0x00\n        /* \"#utility.yul\":29676:29678   */\n      0x20\n        /* \"#utility.yul\":29665:29674   */\n      dup3\n        /* \"#utility.yul\":29661:29679   */\n      add\n        /* \"#utility.yul\":29653:29679   */\n      swap1\n      pop\n        /* \"#utility.yul\":29725:29734   */\n      dup2\n        /* \"#utility.yul\":29719:29723   */\n      dup2\n        /* \"#utility.yul\":29715:29735   */\n      sub\n        /* \"#utility.yul\":29711:29712   */\n      0x00\n        /* \"#utility.yul\":29700:29709   */\n      dup4\n        /* \"#utility.yul\":29696:29713   */\n      add\n        /* \"#utility.yul\":29689:29736   */\n      mstore\n        /* \"#utility.yul\":29753:29884   */\n      tag_872\n        /* \"#utility.yul\":29879:29883   */\n      dup2\n        /* \"#utility.yul\":29753:29884   */\n      tag_796\n      jump\t// in\n    tag_872:\n        /* \"#utility.yul\":29745:29884   */\n      swap1\n      pop\n        /* \"#utility.yul\":29643:29891   */\n      swap2\n      swap1\n      pop\n      jump\t// out\n        /* \"#utility.yul\":29897:30119   */\n    tag_42:\n        /* \"#utility.yul\":29990:29994   */\n      0x00\n        /* \"#utility.yul\":30028:30030   */\n      0x20\n        /* \"#utility.yul\":30017:30026   */\n      dup3\n        /* \"#utility.yul\":30013:30031   */\n      add\n        /* \"#utility.yul\":30005:30031   */\n      swap1\n      pop\n        /* \"#utility.yul\":30041:30112   */\n      tag_874\n        /* \"#utility.yul\":30109:30110   */\n      0x00\n        /* \"#utility.yul\":30098:30107   */\n      dup4\n        /* \"#utility.yul\":30094:30111   */\n      add\n        /* \"#utility.yul\":30085:30091   */\n      dup5\n        /* \"#utility.yul\":30041:30112   */\n      tag_801\n      jump\t// in\n    tag_874:\n        /* \"#utility.yul\":29995:30119   */\n      swap3\n      swap2\n      pop\n      pop\n      jump\t// out\n        /* \"#utility.yul\":30125:30254   */\n    tag_527:\n        /* \"#utility.yul\":30159:30165   */\n      0x00\n        /* \"#utility.yul\":30186:30206   */\n      tag_876\n      tag_877\n      jump\t// in\n    tag_876:\n        /* \"#utility.yul\":30176:30206   */\n      swap1\n      pop\n        /* \"#utility.yul\":30215:30248   */\n      tag_878\n        /* \"#utility.yul\":30243:30247   */\n      dup3\n        /* \"#utility.yul\":30235:30241   */\n      dup3\n        /* \"#utility.yul\":30215:30248   */\n      tag_879\n      jump\t// in\n    tag_878:\n        /* \"#utility.yul\":30166:30254   */\n      swap2\n      swap1\n      pop\n      jump\t// out\n        /* \"#utility.yul\":30260:30335   */\n    tag_877:\n        /* \"#utility.yul\":30293:30299   */\n      0x00\n        /* \"#utility.yul\":30326:30328   */\n      0x40\n        /* \"#utility.yul\":30320:30329   */\n      mload\n        /* \"#utility.yul\":30310:30329   */\n      swap1\n      pop\n        /* \"#utility.yul\":30300:30335   */\n      swap1\n      jump\t// out\n        /* \"#utility.yul\":30341:30589   */\n    tag_526:\n        /* \"#utility.yul\":30415:30419   */\n      0x00\n        /* \"#utility.yul\":30505:30523   */\n      0xffffffffffffffff\n        /* \"#utility.yul\":30497:30503   */\n      dup3\n        /* \"#utility.yul\":30494:30524   */\n      gt\n        /* \"#utility.yul\":30491:30493   */\n      iszero\n      tag_882\n      jumpi\n        /* \"#utility.yul\":30527:30545   */\n      tag_883\n      tag_884\n      jump\t// in\n    tag_883:\n        /* \"#utility.yul\":30491:30493   */\n    tag_882:\n        /* \"#utility.yul\":30577:30581   */\n      0x20\n        /* \"#utility.yul\":30569:30575   */\n      dup3\n        /* \"#utility.yul\":30565:30582   */\n      mul\n        /* \"#utility.yul\":30557:30582   */\n      swap1\n      pop\n        /* \"#utility.yul\":30420:30589   */\n      swap2\n      swap1\n      pop\n      jump\t// out\n        /* \"#utility.yul\":30595:30905   */\n    tag_540:\n        /* \"#utility.yul\":30671:30675   */\n      0x00\n        /* \"#utility.yul\":30761:30779   */\n      0xffffffffffffffff\n        /* \"#utility.yul\":30753:30759   */\n      dup3\n        /* \"#utility.yul\":30750:30780   */\n      gt\n        /* \"#utility.yul\":30747:30749   */\n      iszero\n      tag_886\n      jumpi\n        /* \"#utility.yul\":30783:30801   */\n      tag_887\n      tag_884\n      jump\t// in\n    tag_887:\n        /* \"#utility.yul\":30747:30749   */\n    tag_886:\n        /* \"#utility.yul\":30833:30837   */\n      0x20\n        /* \"#utility.yul\":30825:30831   */\n      dup3\n        /* \"#utility.yul\":30821:30838   */\n      mul\n        /* \"#utility.yul\":30813:30838   */\n      swap1\n      pop\n        /* \"#utility.yul\":30893:30897   */\n      0x20\n        /* \"#utility.yul\":30887:30891   */\n      dup2\n        /* \"#utility.yul\":30883:30898   */\n      add\n        /* \"#utility.yul\":30875:30898   */\n      swap1\n      pop\n        /* \"#utility.yul\":30676:30905   */\n      swap2\n      swap1\n      pop\n      jump\t// out\n        /* \"#utility.yul\":30911:31170   */\n    tag_551:\n        /* \"#utility.yul\":30996:31000   */\n      0x00\n        /* \"#utility.yul\":31086:31104   */\n      0xffffffffffffffff\n        /* \"#utility.yul\":31078:31084   */\n      dup3\n        /* \"#utility.yul\":31075:31105   */\n      gt\n        /* \"#utility.yul\":31072:31074   */\n      iszero\n      tag_889\n      jumpi\n        /* \"#utility.yul\":31108:31126   */\n      tag_890\n      tag_884\n      jump\t// in\n    tag_890:\n        /* \"#utility.yul\":31072:31074   */\n    tag_889:\n        /* \"#utility.yul\":31158:31162   */\n      0x20\n        /* \"#utility.yul\":31150:31156   */\n      dup3\n        /* \"#utility.yul\":31146:31163   */\n      mul\n        /* \"#utility.yul\":31138:31163   */\n      swap1\n      pop\n        /* \"#utility.yul\":31001:31170   */\n      swap2\n      swap1\n      pop\n      jump\t// out\n        /* \"#utility.yul\":31176:31484   */\n    tag_566:\n        /* \"#utility.yul\":31238:31242   */\n      0x00\n        /* \"#utility.yul\":31328:31346   */\n      0xffffffffffffffff\n        /* \"#utility.yul\":31320:31326   */\n      dup3\n        /* \"#utility.yul\":31317:31347   */\n      gt\n        /* \"#utility.yul\":31314:31316   */\n      iszero\n      tag_892\n      jumpi\n        /* \"#utility.yul\":31350:31368   */\n      tag_893\n      tag_884\n      jump\t// in\n    tag_893:\n        /* \"#utility.yul\":31314:31316   */\n    tag_892:\n        /* \"#utility.yul\":31388:31417   */\n      tag_894\n        /* \"#utility.yul\":31410:31416   */\n      dup3\n        /* \"#utility.yul\":31388:31417   */\n      tag_702\n      jump\t// in\n    tag_894:\n        /* \"#utility.yul\":31380:31417   */\n      swap1\n      pop\n        /* \"#utility.yul\":31472:31476   */\n      0x20\n        /* \"#utility.yul\":31466:31470   */\n      dup2\n        /* \"#utility.yul\":31462:31477   */\n      add\n        /* \"#utility.yul\":31454:31477   */\n      swap1\n      pop\n        /* \"#utility.yul\":31243:31484   */\n      swap2\n      swap1\n      pop\n      jump\t// out\n        /* \"#utility.yul\":31490:31587   */\n    tag_659:\n        /* \"#utility.yul\":31554:31558   */\n      0x00\n        /* \"#utility.yul\":31577:31580   */\n      dup2\n        /* \"#utility.yul\":31569:31580   */\n      swap1\n      pop\n        /* \"#utility.yul\":31559:31587   */\n      swap2\n      swap1\n      pop\n      jump\t// out\n        /* \"#utility.yul\":31593:31701   */\n    tag_673:\n        /* \"#utility.yul\":31668:31672   */\n      0x00\n        /* \"#utility.yul\":31691:31694   */\n      dup2\n        /* \"#utility.yul\":31683:31694   */\n      swap1\n      pop\n        /* \"#utility.yul\":31673:31701   */\n      swap2\n      swap1\n      pop\n      jump\t// out\n        /* \"#utility.yul\":31707:31810   */\n    tag_655:\n        /* \"#utility.yul\":31771:31777   */\n      0x00\n        /* \"#utility.yul\":31799:31803   */\n      0x08\n        /* \"#utility.yul\":31789:31803   */\n      swap1\n      pop\n        /* \"#utility.yul\":31778:31810   */\n      swap2\n      swap1\n      pop\n      jump\t// out\n        /* \"#utility.yul\":31816:31930   */\n    tag_669:\n        /* \"#utility.yul\":31891:31897   */\n      0x00\n        /* \"#utility.yul\":31919:31923   */\n      0x08\n        /* \"#utility.yul\":31909:31923   */\n      swap1\n      pop\n        /* \"#utility.yul\":31898:31930   */\n      swap2\n      swap1\n      pop\n      jump\t// out\n        /* \"#utility.yul\":31936:32035   */\n    tag_696:\n        /* \"#utility.yul\":31988:31994   */\n      0x00\n        /* \"#utility.yul\":32022:32027   */\n      dup2\n        /* \"#utility.yul\":32016:32028   */\n      mload\n        /* \"#utility.yul\":32006:32028   */\n      swap1\n      pop\n        /* \"#utility.yul\":31995:32035   */\n      swap2\n      swap1\n      pop\n      jump\t// out\n        /* \"#utility.yul\":32041:32151   */\n    tag_665:\n        /* \"#utility.yul\":32108:32112   */\n      0x00\n        /* \"#utility.yul\":32140:32144   */\n      0x20\n        /* \"#utility.yul\":32135:32138   */\n      dup3\n        /* \"#utility.yul\":32131:32145   */\n      add\n        /* \"#utility.yul\":32123:32145   */\n      swap1\n      pop\n        /* \"#utility.yul\":32113:32151   */\n      swap2\n      swap1\n      pop\n      jump\t// out\n        /* \"#utility.yul\":32157:32278   */\n    tag_679:\n        /* \"#utility.yul\":32235:32239   */\n      0x00\n        /* \"#utility.yul\":32267:32271   */\n      0x20\n        /* \"#utility.yul\":32262:32265   */\n      dup3\n        /* \"#utility.yul\":32258:32272   */\n      add\n        /* \"#utility.yul\":32250:32272   */\n      swap1\n      pop\n        /* \"#utility.yul\":32240:32278   */\n      swap2\n      swap1\n      pop\n      jump\t// out\n        /* \"#utility.yul\":32284:32426   */\n    tag_657:\n        /* \"#utility.yul\":32380:32391   */\n      0x00\n        /* \"#utility.yul\":32417:32420   */\n      dup2\n        /* \"#utility.yul\":32402:32420   */\n      swap1\n      pop\n        /* \"#utility.yul\":32392:32426   */\n      swap3\n      swap2\n      pop\n      pop\n      jump\t// out\n        /* \"#utility.yul\":32432:32585   */\n    tag_671:\n        /* \"#utility.yul\":32539:32550   */\n      0x00\n        /* \"#utility.yul\":32576:32579   */\n      dup2\n        /* \"#utility.yul\":32561:32579   */\n      swap1\n      pop\n        /* \"#utility.yul\":32551:32585   */\n      swap3\n      swap2\n      pop\n      pop\n      jump\t// out\n        /* \"#utility.yul\":32591:32750   */\n    tag_698:\n        /* \"#utility.yul\":32665:32676   */\n      0x00\n        /* \"#utility.yul\":32699:32705   */\n      dup3\n        /* \"#utility.yul\":32694:32697   */\n      dup3\n        /* \"#utility.yul\":32687:32706   */\n      mstore\n        /* \"#utility.yul\":32739:32743   */\n      0x20\n        /* \"#utility.yul\":32734:32737   */\n      dup3\n        /* \"#utility.yul\":32730:32744   */\n      add\n        /* \"#utility.yul\":32715:32744   */\n      swap1\n      pop\n        /* \"#utility.yul\":32677:32750   */\n      swap3\n      swap2\n      pop\n      pop\n      jump\t// out\n        /* \"#utility.yul\":32756:32925   */\n    tag_707:\n        /* \"#utility.yul\":32840:32851   */\n      0x00\n        /* \"#utility.yul\":32874:32880   */\n      dup3\n        /* \"#utility.yul\":32869:32872   */\n      dup3\n        /* \"#utility.yul\":32862:32881   */\n      mstore\n        /* \"#utility.yul\":32914:32918   */\n      0x20\n        /* \"#utility.yul\":32909:32912   */\n      dup3\n        /* \"#utility.yul\":32905:32919   */\n      add\n        /* \"#utility.yul\":32890:32919   */\n      swap1\n      pop\n        /* \"#utility.yul\":32852:32925   */\n      swap3\n      swap2\n      pop\n      pop\n      jump\t// out\n        /* \"#utility.yul\":32931:33079   */\n    tag_714:\n        /* \"#utility.yul\":33033:33044   */\n      0x00\n        /* \"#utility.yul\":33070:33073   */\n      dup2\n        /* \"#utility.yul\":33055:33073   */\n      swap1\n      pop\n        /* \"#utility.yul\":33045:33079   */\n      swap3\n      swap2\n      pop\n      pop\n      jump\t// out\n        /* \"#utility.yul\":33085:33610   */\n    tag_214:\n        /* \"#utility.yul\":33124:33127   */\n      0x00\n        /* \"#utility.yul\":33143:33162   */\n      tag_908\n        /* \"#utility.yul\":33160:33161   */\n      dup3\n        /* \"#utility.yul\":33143:33162   */\n      tag_690\n      jump\t// in\n    tag_908:\n        /* \"#utility.yul\":33138:33162   */\n      swap2\n      pop\n        /* \"#utility.yul\":33176:33195   */\n      tag_909\n        /* \"#utility.yul\":33193:33194   */\n      dup4\n        /* \"#utility.yul\":33176:33195   */\n      tag_690\n      jump\t// in\n    tag_909:\n        /* \"#utility.yul\":33171:33195   */\n      swap3\n      pop\n        /* \"#utility.yul\":33364:33365   */\n      dup2\n        /* \"#utility.yul\":33296:33362   */\n      0x7fffffffffffffffffffffffffffffffffffffffffffffffffffffffffffffff\n        /* \"#utility.yul\":33292:33366   */\n      sub\n        /* \"#utility.yul\":33289:33290   */\n      dup4\n        /* \"#utility.yul\":33285:33367   */\n      sgt\n        /* \"#utility.yul\":33280:33281   */\n      0x00\n        /* \"#utility.yul\":33277:33278   */\n      dup4\n        /* \"#utility.yul\":33273:33282   */\n      slt\n        /* \"#utility.yul\":33266:33283   */\n      iszero\n        /* \"#utility.yul\":33262:33368   */\n      and\n        /* \"#utility.yul\":33259:33261   */\n      iszero\n      tag_910\n      jumpi\n        /* \"#utility.yul\":33371:33389   */\n      tag_911\n      tag_912\n      jump\t// in\n    tag_911:\n        /* \"#utility.yul\":33259:33261   */\n    tag_910:\n        /* \"#utility.yul\":33551:33552   */\n      dup2\n        /* \"#utility.yul\":33483:33549   */\n      0x8000000000000000000000000000000000000000000000000000000000000000\n        /* \"#utility.yul\":33479:33553   */\n      sub\n        /* \"#utility.yul\":33476:33477   */\n      dup4\n        /* \"#utility.yul\":33472:33554   */\n      slt\n        /* \"#utility.yul\":33468:33469   */\n      0x00\n        /* \"#utility.yul\":33465:33466   */\n      dup4\n        /* \"#utility.yul\":33461:33470   */\n      slt\n        /* \"#utility.yul\":33457:33555   */\n      and\n        /* \"#utility.yul\":33454:33456   */\n      iszero\n      tag_913\n      jumpi\n        /* \"#utility.yul\":33558:33576   */\n      tag_914\n      tag_912\n      jump\t// in\n    tag_914:\n        /* \"#utility.yul\":33454:33456   */\n    tag_913:\n        /* \"#utility.yul\":33602:33603   */\n      dup3\n        /* \"#utility.yul\":33599:33600   */\n      dup3\n        /* \"#utility.yul\":33595:33604   */\n      add\n        /* \"#utility.yul\":33588:33604   */\n      swap1\n      pop\n        /* \"#utility.yul\":33128:33610   */\n      swap3\n      swap2\n      pop\n      pop\n      jump\t// out\n        /* \"#utility.yul\":33616:33921   */\n    tag_313:\n        /* \"#utility.yul\":33656:33659   */\n      0x00\n        /* \"#utility.yul\":33675:33695   */\n      tag_916\n        /* \"#utility.yul\":33693:33694   */\n      dup3\n        /* \"#utility.yul\":33675:33695   */\n      tag_804\n      jump\t// in\n    tag_916:\n        /* \"#utility.yul\":33670:33695   */\n      swap2\n      pop\n        /* \"#utility.yul\":33709:33729   */\n      tag_917\n        /* \"#utility.yul\":33727:33728   */\n      dup4\n        /* \"#utility.yul\":33709:33729   */\n      tag_804\n      jump\t// in\n    tag_917:\n        /* \"#utility.yul\":33704:33729   */\n      swap3\n      pop\n        /* \"#utility.yul\":33863:33864   */\n      dup3\n        /* \"#utility.yul\":33795:33861   */\n      0xffffffffffffffffffffffffffffffffffffffffffffffffffffffffffffffff\n        /* \"#utility.yul\":33791:33865   */\n      sub\n        /* \"#utility.yul\":33788:33789   */\n      dup3\n        /* \"#utility.yul\":33785:33866   */\n      gt\n        /* \"#utility.yul\":33782:33784   */\n      iszero\n      tag_918\n      jumpi\n        /* \"#utility.yul\":33869:33887   */\n      tag_919\n      tag_912\n      jump\t// in\n    tag_919:\n        /* \"#utility.yul\":33782:33784   */\n    tag_918:\n        /* \"#utility.yul\":33913:33914   */\n      dup3\n        /* \"#utility.yul\":33910:33911   */\n      dup3\n        /* \"#utility.yul\":33906:33915   */\n      add\n        /* \"#utility.yul\":33899:33915   */\n      swap1\n      pop\n        /* \"#utility.yul\":33660:33921   */\n      swap3\n      swap2\n      pop\n      pop\n      jump\t// out\n        /* \"#utility.yul\":33927:34312   */\n    tag_340:\n        /* \"#utility.yul\":33966:33967   */\n      0x00\n        /* \"#utility.yul\":33983:34002   */\n      tag_921\n        /* \"#utility.yul\":34000:34001   */\n      dup3\n        /* \"#utility.yul\":33983:34002   */\n      tag_690\n      jump\t// in\n    tag_921:\n        /* \"#utility.yul\":33978:34002   */\n      swap2\n      pop\n        /* \"#utility.yul\":34016:34035   */\n      tag_922\n        /* \"#utility.yul\":34033:34034   */\n      dup4\n        /* \"#utility.yul\":34016:34035   */\n      tag_690\n      jump\t// in\n    tag_922:\n        /* \"#utility.yul\":34011:34035   */\n      swap3\n      pop\n        /* \"#utility.yul\":34054:34055   */\n      dup3\n        /* \"#utility.yul\":34044:34046   */\n      tag_923\n      jumpi\n        /* \"#utility.yul\":34059:34077   */\n      tag_924\n      tag_925\n      jump\t// in\n    tag_924:\n        /* \"#utility.yul\":34044:34046   */\n    tag_923:\n        /* \"#utility.yul\":34245:34246   */\n      0x01\n        /* \"#utility.yul\":34242:34243   */\n      0x00\n        /* \"#utility.yul\":34238:34247   */\n      sub\n        /* \"#utility.yul\":34235:34236   */\n      dup4\n        /* \"#utility.yul\":34232:34248   */\n      eq\n        /* \"#utility.yul\":34151:34217   */\n      0x8000000000000000000000000000000000000000000000000000000000000000\n        /* \"#utility.yul\":34148:34149   */\n      dup4\n        /* \"#utility.yul\":34145:34218   */\n      eq\n        /* \"#utility.yul\":34128:34258   */\n      and\n        /* \"#utility.yul\":34125:34127   */\n      iszero\n      tag_926\n      jumpi\n        /* \"#utility.yul\":34261:34279   */\n      tag_927\n      tag_912\n      jump\t// in\n    tag_927:\n        /* \"#utility.yul\":34125:34127   */\n    tag_926:\n        /* \"#utility.yul\":34304:34305   */\n      dup3\n        /* \"#utility.yul\":34301:34302   */\n      dup3\n        /* \"#utility.yul\":34296:34306   */\n      sdiv\n        /* \"#utility.yul\":34291:34306   */\n      swap1\n      pop\n        /* \"#utility.yul\":33968:34312   */\n      swap3\n      swap2\n      pop\n      pop\n      jump\t// out\n        /* \"#utility.yul\":34318:34666   */\n    tag_467:\n        /* \"#utility.yul\":34358:34365   */\n      0x00\n        /* \"#utility.yul\":34381:34401   */\n      tag_929\n        /* \"#utility.yul\":34399:34400   */\n      dup3\n        /* \"#utility.yul\":34381:34401   */\n      tag_804\n      jump\t// in\n    tag_929:\n        /* \"#utility.yul\":34376:34401   */\n      swap2\n      pop\n        /* \"#utility.yul\":34415:34435   */\n      tag_930\n        /* \"#utility.yul\":34433:34434   */\n      dup4\n        /* \"#utility.yul\":34415:34435   */\n      tag_804\n      jump\t// in\n    tag_930:\n        /* \"#utility.yul\":34410:34435   */\n      swap3\n      pop\n        /* \"#utility.yul\":34603:34604   */\n      dup2\n        /* \"#utility.yul\":34535:34601   */\n      0xffffffffffffffffffffffffffffffffffffffffffffffffffffffffffffffff\n        /* \"#utility.yul\":34531:34605   */\n      div\n        /* \"#utility.yul\":34528:34529   */\n      dup4\n        /* \"#utility.yul\":34525:34606   */\n      gt\n        /* \"#utility.yul\":34520:34521   */\n      dup3\n        /* \"#utility.yul\":34513:34522   */\n      iszero\n        /* \"#utility.yul\":34506:34523   */\n      iszero\n        /* \"#utility.yul\":34502:34607   */\n      and\n        /* \"#utility.yul\":34499:34501   */\n      iszero\n      tag_931\n      jumpi\n        /* \"#utility.yul\":34610:34628   */\n      tag_932\n      tag_912\n      jump\t// in\n    tag_932:\n        /* \"#utility.yul\":34499:34501   */\n    tag_931:\n        /* \"#utility.yul\":34658:34659   */\n      dup3\n        /* \"#utility.yul\":34655:34656   */\n      dup3\n        /* \"#utility.yul\":34651:34660   */\n      mul\n        /* \"#utility.yul\":34640:34660   */\n      swap1\n      pop\n        /* \"#utility.yul\":34366:34666   */\n      swap3\n      swap2\n      pop\n      pop\n      jump\t// out\n        /* \"#utility.yul\":34672:34768   */\n    tag_651:\n        /* \"#utility.yul\":34709:34716   */\n      0x00\n        /* \"#utility.yul\":34738:34762   */\n      tag_934\n        /* \"#utility.yul\":34756:34761   */\n      dup3\n        /* \"#utility.yul\":34738:34762   */\n      tag_935\n      jump\t// in\n    tag_934:\n        /* \"#utility.yul\":34727:34762   */\n      swap1\n      pop\n        /* \"#utility.yul\":34717:34768   */\n      swap2\n      swap1\n      pop\n      jump\t// out\n        /* \"#utility.yul\":34774:34878   */\n    tag_647:\n        /* \"#utility.yul\":34819:34826   */\n      0x00\n        /* \"#utility.yul\":34848:34872   */\n      tag_937\n        /* \"#utility.yul\":34866:34871   */\n      dup3\n        /* \"#utility.yul\":34848:34872   */\n      tag_935\n      jump\t// in\n    tag_937:\n        /* \"#utility.yul\":34837:34872   */\n      swap1\n      pop\n        /* \"#utility.yul\":34827:34878   */\n      swap2\n      swap1\n      pop\n      jump\t// out\n        /* \"#utility.yul\":34884:34974   */\n    tag_683:\n        /* \"#utility.yul\":34918:34925   */\n      0x00\n        /* \"#utility.yul\":34961:34966   */\n      dup2\n        /* \"#utility.yul\":34954:34967   */\n      iszero\n        /* \"#utility.yul\":34947:34968   */\n      iszero\n        /* \"#utility.yul\":34936:34968   */\n      swap1\n      pop\n        /* \"#utility.yul\":34926:34974   */\n      swap2\n      swap1\n      pop\n      jump\t// out\n        /* \"#utility.yul\":34980:35109   */\n    tag_939:\n        /* \"#utility.yul\":35026:35033   */\n      0x00\n        /* \"#utility.yul\":35055:35060   */\n      dup2\n        /* \"#utility.yul\":35044:35060   */\n      swap1\n      pop\n        /* \"#utility.yul\":35061:35103   */\n      tag_941\n        /* \"#utility.yul\":35097:35102   */\n      dup3\n        /* \"#utility.yul\":35061:35103   */\n      tag_942\n      jump\t// in\n    tag_941:\n        /* \"#utility.yul\":35034:35109   */\n      swap2\n      swap1\n      pop\n      jump\t// out\n        /* \"#utility.yul\":35115:35191   */\n    tag_690:\n        /* \"#utility.yul\":35151:35158   */\n      0x00\n        /* \"#utility.yul\":35180:35185   */\n      dup2\n        /* \"#utility.yul\":35169:35185   */\n      swap1\n      pop\n        /* \"#utility.yul\":35159:35191   */\n      swap2\n      swap1\n      pop\n      jump\t// out\n        /* \"#utility.yul\":35197:35323   */\n    tag_935:\n        /* \"#utility.yul\":35234:35241   */\n      0x00\n        /* \"#utility.yul\":35274:35316   */\n      0xffffffffffffffffffffffffffffffffffffffff\n        /* \"#utility.yul\":35267:35272   */\n      dup3\n        /* \"#utility.yul\":35263:35317   */\n      and\n        /* \"#utility.yul\":35252:35317   */\n      swap1\n      pop\n        /* \"#utility.yul\":35242:35323   */\n      swap2\n      swap1\n      pop\n      jump\t// out\n        /* \"#utility.yul\":35329:35406   */\n    tag_804:\n        /* \"#utility.yul\":35366:35373   */\n      0x00\n        /* \"#utility.yul\":35395:35400   */\n      dup2\n        /* \"#utility.yul\":35384:35400   */\n      swap1\n      pop\n        /* \"#utility.yul\":35374:35406   */\n      swap2\n      swap1\n      pop\n      jump\t// out\n        /* \"#utility.yul\":35412:35541   */\n    tag_687:\n        /* \"#utility.yul\":35469:35478   */\n      0x00\n        /* \"#utility.yul\":35502:35535   */\n      tag_947\n        /* \"#utility.yul\":35529:35534   */\n      dup3\n        /* \"#utility.yul\":35502:35535   */\n      tag_939\n      jump\t// in\n    tag_947:\n        /* \"#utility.yul\":35489:35535   */\n      swap1\n      pop\n        /* \"#utility.yul\":35479:35541   */\n      swap2\n      swap1\n      pop\n      jump\t// out\n        /* \"#utility.yul\":35547:35701   */\n    tag_571:\n        /* \"#utility.yul\":35631:35637   */\n      dup3\n        /* \"#utility.yul\":35626:35629   */\n      dup2\n        /* \"#utility.yul\":35621:35624   */\n      dup4\n        /* \"#utility.yul\":35608:35638   */\n      calldatacopy\n        /* \"#utility.yul\":35693:35694   */\n      0x00\n        /* \"#utility.yul\":35684:35690   */\n      dup4\n        /* \"#utility.yul\":35679:35682   */\n      dup4\n        /* \"#utility.yul\":35675:35691   */\n      add\n        /* \"#utility.yul\":35668:35695   */\n      mstore\n        /* \"#utility.yul\":35598:35701   */\n      pop\n      pop\n      pop\n      jump\t// out\n        /* \"#utility.yul\":35707:36014   */\n    tag_700:\n        /* \"#utility.yul\":35775:35776   */\n      0x00\n        /* \"#utility.yul\":35785:35898   */\n    tag_950:\n        /* \"#utility.yul\":35799:35805   */\n      dup4\n        /* \"#utility.yul\":35796:35797   */\n      dup2\n        /* \"#utility.yul\":35793:35806   */\n      lt\n        /* \"#utility.yul\":35785:35898   */\n      iszero\n      tag_952\n      jumpi\n        /* \"#utility.yul\":35884:35885   */\n      dup1\n        /* \"#utility.yul\":35879:35882   */\n      dup3\n        /* \"#utility.yul\":35875:35886   */\n      add\n        /* \"#utility.yul\":35869:35887   */\n      mload\n        /* \"#utility.yul\":35865:35866   */\n      dup2\n        /* \"#utility.yul\":35860:35863   */\n      dup5\n        /* \"#utility.yul\":35856:35867   */\n      add\n        /* \"#utility.yul\":35849:35888   */\n      mstore\n        /* \"#utility.yul\":35821:35823   */\n      0x20\n        /* \"#utility.yul\":35818:35819   */\n      dup2\n        /* \"#utility.yul\":35814:35824   */\n      add\n        /* \"#utility.yul\":35809:35824   */\n      swap1\n      pop\n        /* \"#utility.yul\":35785:35898   */\n      jump(tag_950)\n    tag_952:\n        /* \"#utility.yul\":35916:35922   */\n      dup4\n        /* \"#utility.yul\":35913:35914   */\n      dup2\n        /* \"#utility.yul\":35910:35923   */\n      gt\n        /* \"#utility.yul\":35907:35909   */\n      iszero\n      tag_953\n      jumpi\n        /* \"#utility.yul\":35996:35997   */\n      0x00\n        /* \"#utility.yul\":35987:35993   */\n      dup5\n        /* \"#utility.yul\":35982:35985   */\n      dup5\n        /* \"#utility.yul\":35978:35994   */\n      add\n        /* \"#utility.yul\":35971:35998   */\n      mstore\n        /* \"#utility.yul\":35907:35909   */\n    tag_953:\n        /* \"#utility.yul\":35756:36014   */\n      pop\n      pop\n      pop\n      pop\n      jump\t// out\n        /* \"#utility.yul\":36020:36340   */\n    tag_223:\n        /* \"#utility.yul\":36064:36070   */\n      0x00\n        /* \"#utility.yul\":36101:36102   */\n      0x02\n        /* \"#utility.yul\":36095:36099   */\n      dup3\n        /* \"#utility.yul\":36091:36103   */\n      div\n        /* \"#utility.yul\":36081:36103   */\n      swap1\n      pop\n        /* \"#utility.yul\":36148:36149   */\n      0x01\n        /* \"#utility.yul\":36142:36146   */\n      dup3\n        /* \"#utility.yul\":36138:36150   */\n      and\n        /* \"#utility.yul\":36169:36187   */\n      dup1\n        /* \"#utility.yul\":36159:36161   */\n      tag_955\n      jumpi\n        /* \"#utility.yul\":36225:36229   */\n      0x7f\n        /* \"#utility.yul\":36217:36223   */\n      dup3\n        /* \"#utility.yul\":36213:36230   */\n      and\n        /* \"#utility.yul\":36203:36230   */\n      swap2\n      pop\n        /* \"#utility.yul\":36159:36161   */\n    tag_955:\n        /* \"#utility.yul\":36287:36289   */\n      0x20\n        /* \"#utility.yul\":36279:36285   */\n      dup3\n        /* \"#utility.yul\":36276:36290   */\n      lt\n        /* \"#utility.yul\":36256:36274   */\n      dup2\n        /* \"#utility.yul\":36253:36291   */\n      eq\n        /* \"#utility.yul\":36250:36252   */\n      iszero\n      tag_956\n      jumpi\n        /* \"#utility.yul\":36306:36324   */\n      tag_957\n      tag_958\n      jump\t// in\n    tag_957:\n        /* \"#utility.yul\":36250:36252   */\n    tag_956:\n        /* \"#utility.yul\":36071:36340   */\n      pop\n      swap2\n      swap1\n      pop\n      jump\t// out\n        /* \"#utility.yul\":36346:36627   */\n    tag_879:\n        /* \"#utility.yul\":36429:36456   */\n      tag_960\n        /* \"#utility.yul\":36451:36455   */\n      dup3\n        /* \"#utility.yul\":36429:36456   */\n      tag_702\n      jump\t// in\n    tag_960:\n        /* \"#utility.yul\":36421:36427   */\n      dup2\n        /* \"#utility.yul\":36417:36457   */\n      add\n        /* \"#utility.yul\":36559:36565   */\n      dup2\n        /* \"#utility.yul\":36547:36557   */\n      dup2\n        /* \"#utility.yul\":36544:36566   */\n      lt\n        /* \"#utility.yul\":36523:36541   */\n      0xffffffffffffffff\n        /* \"#utility.yul\":36511:36521   */\n      dup3\n        /* \"#utility.yul\":36508:36542   */\n      gt\n        /* \"#utility.yul\":36505:36567   */\n      or\n        /* \"#utility.yul\":36502:36504   */\n      iszero\n      tag_961\n      jumpi\n        /* \"#utility.yul\":36570:36588   */\n      tag_962\n      tag_884\n      jump\t// in\n    tag_962:\n        /* \"#utility.yul\":36502:36504   */\n    tag_961:\n        /* \"#utility.yul\":36610:36620   */\n      dup1\n        /* \"#utility.yul\":36606:36608   */\n      0x40\n        /* \"#utility.yul\":36599:36621   */\n      mstore\n        /* \"#utility.yul\":36389:36627   */\n      pop\n      pop\n      pop\n      jump\t// out\n        /* \"#utility.yul\":36633:36864   */\n    tag_218:\n        /* \"#utility.yul\":36671:36674   */\n      0x00\n        /* \"#utility.yul\":36694:36717   */\n      tag_964\n        /* \"#utility.yul\":36711:36716   */\n      dup3\n        /* \"#utility.yul\":36694:36717   */\n      tag_690\n      jump\t// in\n    tag_964:\n        /* \"#utility.yul\":36685:36717   */\n      swap2\n      pop\n        /* \"#utility.yul\":36739:36805   */\n      0x7fffffffffffffffffffffffffffffffffffffffffffffffffffffffffffffff\n        /* \"#utility.yul\":36732:36737   */\n      dup3\n        /* \"#utility.yul\":36729:36806   */\n      eq\n        /* \"#utility.yul\":36726:36728   */\n      iszero\n      tag_965\n      jumpi\n        /* \"#utility.yul\":36809:36827   */\n      tag_966\n      tag_912\n      jump\t// in\n    tag_966:\n        /* \"#utility.yul\":36726:36728   */\n    tag_965:\n        /* \"#utility.yul\":36856:36857   */\n      0x01\n        /* \"#utility.yul\":36849:36854   */\n      dup3\n        /* \"#utility.yul\":36845:36858   */\n      add\n        /* \"#utility.yul\":36838:36858   */\n      swap1\n      pop\n        /* \"#utility.yul\":36675:36864   */\n      swap2\n      swap1\n      pop\n      jump\t// out\n        /* \"#utility.yul\":36870:37103   */\n    tag_216:\n        /* \"#utility.yul\":36909:36912   */\n      0x00\n        /* \"#utility.yul\":36932:36956   */\n      tag_968\n        /* \"#utility.yul\":36950:36955   */\n      dup3\n        /* \"#utility.yul\":36932:36956   */\n      tag_804\n      jump\t// in\n    tag_968:\n        /* \"#utility.yul\":36923:36956   */\n      swap2\n      pop\n        /* \"#utility.yul\":36978:37044   */\n      0xffffffffffffffffffffffffffffffffffffffffffffffffffffffffffffffff\n        /* \"#utility.yul\":36971:36976   */\n      dup3\n        /* \"#utility.yul\":36968:37045   */\n      eq\n        /* \"#utility.yul\":36965:36967   */\n      iszero\n      tag_969\n      jumpi\n        /* \"#utility.yul\":37048:37066   */\n      tag_970\n      tag_912\n      jump\t// in\n    tag_970:\n        /* \"#utility.yul\":36965:36967   */\n    tag_969:\n        /* \"#utility.yul\":37095:37096   */\n      0x01\n        /* \"#utility.yul\":37088:37093   */\n      dup3\n        /* \"#utility.yul\":37084:37097   */\n      add\n        /* \"#utility.yul\":37077:37097   */\n      swap1\n      pop\n        /* \"#utility.yul\":36913:37103   */\n      swap2\n      swap1\n      pop\n      jump\t// out\n        /* \"#utility.yul\":37109:37289   */\n    tag_912:\n        /* \"#utility.yul\":37157:37234   */\n      0x4e487b7100000000000000000000000000000000000000000000000000000000\n        /* \"#utility.yul\":37154:37155   */\n      0x00\n        /* \"#utility.yul\":37147:37235   */\n      mstore\n        /* \"#utility.yul\":37254:37258   */\n      0x11\n        /* \"#utility.yul\":37251:37252   */\n      0x04\n        /* \"#utility.yul\":37244:37259   */\n      mstore\n        /* \"#utility.yul\":37278:37282   */\n      0x24\n        /* \"#utility.yul\":37275:37276   */\n      0x00\n        /* \"#utility.yul\":37268:37283   */\n      revert\n        /* \"#utility.yul\":37295:37475   */\n    tag_925:\n        /* \"#utility.yul\":37343:37420   */\n      0x4e487b7100000000000000000000000000000000000000000000000000000000\n        /* \"#utility.yul\":37340:37341   */\n      0x00\n        /* \"#utility.yul\":37333:37421   */\n      mstore\n        /* \"#utility.yul\":37440:37444   */\n      0x12\n        /* \"#utility.yul\":37437:37438   */\n      0x04\n        /* \"#utility.yul\":37430:37445   */\n      mstore\n        /* \"#utility.yul\":37464:37468   */\n      0x24\n        /* \"#utility.yul\":37461:37462   */\n      0x00\n        /* \"#utility.yul\":37454:37469   */\n      revert\n        /* \"#utility.yul\":37481:37661   */\n    tag_165:\n        /* \"#utility.yul\":37529:37606   */\n      0x4e487b7100000000000000000000000000000000000000000000000000000000\n        /* \"#utility.yul\":37526:37527   */\n      0x00\n        /* \"#utility.yul\":37519:37607   */\n      mstore\n        /* \"#utility.yul\":37626:37630   */\n      0x21\n        /* \"#utility.yul\":37623:37624   */\n      0x04\n        /* \"#utility.yul\":37616:37631   */\n      mstore\n        /* \"#utility.yul\":37650:37654   */\n      0x24\n        /* \"#utility.yul\":37647:37648   */\n      0x00\n        /* \"#utility.yul\":37640:37655   */\n      revert\n        /* \"#utility.yul\":37667:37847   */\n    tag_958:\n        /* \"#utility.yul\":37715:37792   */\n      0x4e487b7100000000000000000000000000000000000000000000000000000000\n        /* \"#utility.yul\":37712:37713   */\n      0x00\n        /* \"#utility.yul\":37705:37793   */\n      mstore\n        /* \"#utility.yul\":37812:37816   */\n      0x22\n        /* \"#utility.yul\":37809:37810   */\n      0x04\n        /* \"#utility.yul\":37802:37817   */\n      mstore\n        /* \"#utility.yul\":37836:37840   */\n      0x24\n        /* \"#utility.yul\":37833:37834   */\n      0x00\n        /* \"#utility.yul\":37826:37841   */\n      revert\n        /* \"#utility.yul\":37853:38033   */\n    tag_212:\n        /* \"#utility.yul\":37901:37978   */\n      0x4e487b7100000000000000000000000000000000000000000000000000000000\n        /* \"#utility.yul\":37898:37899   */\n      0x00\n        /* \"#utility.yul\":37891:37979   */\n      mstore\n        /* \"#utility.yul\":37998:38002   */\n      0x32\n        /* \"#utility.yul\":37995:37996   */\n      0x04\n        /* \"#utility.yul\":37988:38003   */\n      mstore\n        /* \"#utility.yul\":38022:38026   */\n      0x24\n        /* \"#utility.yul\":38019:38020   */\n      0x00\n        /* \"#utility.yul\":38012:38027   */\n      revert\n        /* \"#utility.yul\":38039:38219   */\n    tag_884:\n        /* \"#utility.yul\":38087:38164   */\n      0x4e487b7100000000000000000000000000000000000000000000000000000000\n        /* \"#utility.yul\":38084:38085   */\n      0x00\n        /* \"#utility.yul\":38077:38165   */\n      mstore\n        /* \"#utility.yul\":38184:38188   */\n      0x41\n        /* \"#utility.yul\":38181:38182   */\n      0x04\n        /* \"#utility.yul\":38174:38189   */\n      mstore\n        /* \"#utility.yul\":38208:38212   */\n      0x24\n        /* \"#utility.yul\":38205:38206   */\n      0x00\n        /* \"#utility.yul\":38198:38213   */\n      revert\n        /* \"#utility.yul\":38225:38342   */\n    tag_559:\n        /* \"#utility.yul\":38334:38335   */\n      0x00\n        /* \"#utility.yul\":38331:38332   */\n      dup1\n        /* \"#utility.yul\":38324:38336   */\n      revert\n        /* \"#utility.yul\":38348:38465   */\n    tag_530:\n        /* \"#utility.yul\":38457:38458   */\n      0x00\n        /* \"#utility.yul\":38454:38455   */\n      dup1\n        /* \"#utility.yul\":38447:38459   */\n      revert\n        /* \"#utility.yul\":38471:38588   */\n    tag_569:\n        /* \"#utility.yul\":38580:38581   */\n      0x00\n        /* \"#utility.yul\":38577:38578   */\n      dup1\n        /* \"#utility.yul\":38570:38582   */\n      revert\n        /* \"#utility.yul\":38594:38711   */\n    tag_620:\n        /* \"#utility.yul\":38703:38704   */\n      0x00\n        /* \"#utility.yul\":38700:38701   */\n      dup1\n        /* \"#utility.yul\":38693:38705   */\n      revert\n        /* \"#utility.yul\":38717:38834   */\n    tag_605:\n        /* \"#utility.yul\":38826:38827   */\n      0x00\n        /* \"#utility.yul\":38823:38824   */\n      dup1\n        /* \"#utility.yul\":38816:38828   */\n      revert\n        /* \"#utility.yul\":38840:38942   */\n    tag_702:\n        /* \"#utility.yul\":38881:38887   */\n      0x00\n        /* \"#utility.yul\":38932:38934   */\n      0x1f\n        /* \"#utility.yul\":38928:38935   */\n      not\n        /* \"#utility.yul\":38923:38925   */\n      0x1f\n        /* \"#utility.yul\":38916:38921   */\n      dup4\n        /* \"#utility.yul\":38912:38926   */\n      add\n        /* \"#utility.yul\":38908:38936   */\n      and\n        /* \"#utility.yul\":38898:38936   */\n      swap1\n      pop\n        /* \"#utility.yul\":38888:38942   */\n      swap2\n      swap1\n      pop\n      jump\t// out\n        /* \"#utility.yul\":38948:39100   */\n    tag_720:\n        /* \"#utility.yul\":39088:39092   */\n      0x3e3d000000000000000000000000000000000000000000000000000000000000\n        /* \"#utility.yul\":39084:39085   */\n      0x00\n        /* \"#utility.yul\":39076:39082   */\n      dup3\n        /* \"#utility.yul\":39072:39086   */\n      add\n        /* \"#utility.yul\":39065:39093   */\n      mstore\n        /* \"#utility.yul\":39054:39100   */\n      pop\n      jump\t// out\n        /* \"#utility.yul\":39106:39397   */\n    tag_725:\n        /* \"#utility.yul\":39246:39280   */\n      0x696e7369646520736574436f6e64732069662073746174656d656e742c206166\n        /* \"#utility.yul\":39242:39243   */\n      0x00\n        /* \"#utility.yul\":39234:39240   */\n      dup3\n        /* \"#utility.yul\":39230:39244   */\n      add\n        /* \"#utility.yul\":39223:39281   */\n      mstore\n        /* \"#utility.yul\":39315:39349   */\n      0x74657220656e64496e697453746167652c2063757272656e7420737461676520\n        /* \"#utility.yul\":39310:39312   */\n      0x20\n        /* \"#utility.yul\":39302:39308   */\n      dup3\n        /* \"#utility.yul\":39298:39313   */\n      add\n        /* \"#utility.yul\":39291:39350   */\n      mstore\n        /* \"#utility.yul\":39384:39389   */\n      0x69733a0000000000000000000000000000000000000000000000000000000000\n        /* \"#utility.yul\":39379:39381   */\n      0x40\n        /* \"#utility.yul\":39371:39377   */\n      dup3\n        /* \"#utility.yul\":39367:39382   */\n      add\n        /* \"#utility.yul\":39360:39390   */\n      mstore\n        /* \"#utility.yul\":39212:39397   */\n      pop\n      jump\t// out\n        /* \"#utility.yul\":39403:39644   */\n    tag_730:\n        /* \"#utility.yul\":39543:39577   */\n      0x43616e6e6f742063616c6c20746869732066756e6374696f6e20646972656374\n        /* \"#utility.yul\":39539:39540   */\n      0x00\n        /* \"#utility.yul\":39531:39537   */\n      dup3\n        /* \"#utility.yul\":39527:39541   */\n      add\n        /* \"#utility.yul\":39520:39578   */\n      mstore\n        /* \"#utility.yul\":39612:39636   */\n      0x6c792c207573652056656e646f72466163746f72792e00000000000000000000\n        /* \"#utility.yul\":39607:39609   */\n      0x20\n        /* \"#utility.yul\":39599:39605   */\n      dup3\n        /* \"#utility.yul\":39595:39610   */\n      add\n        /* \"#utility.yul\":39588:39637   */\n      mstore\n        /* \"#utility.yul\":39509:39644   */\n      pop\n      jump\t// out\n        /* \"#utility.yul\":39650:39884   */\n    tag_735:\n        /* \"#utility.yul\":39790:39824   */\n      0x696e7369646520736574436f6e64732069662073746174656d656e742c206375\n        /* \"#utility.yul\":39786:39787   */\n      0x00\n        /* \"#utility.yul\":39778:39784   */\n      dup3\n        /* \"#utility.yul\":39774:39788   */\n      add\n        /* \"#utility.yul\":39767:39825   */\n      mstore\n        /* \"#utility.yul\":39859:39876   */\n      0x7272656e742073746167652069733a0000000000000000000000000000000000\n        /* \"#utility.yul\":39854:39856   */\n      0x20\n        /* \"#utility.yul\":39846:39852   */\n      dup3\n        /* \"#utility.yul\":39842:39857   */\n      add\n        /* \"#utility.yul\":39835:39877   */\n      mstore\n        /* \"#utility.yul\":39756:39884   */\n      pop\n      jump\t// out\n        /* \"#utility.yul\":39890:40058   */\n    tag_740:\n        /* \"#utility.yul\":40030:40050   */\n      0x526566756e64696e67207061796d656e742e0000000000000000000000000000\n        /* \"#utility.yul\":40026:40027   */\n      0x00\n        /* \"#utility.yul\":40018:40024   */\n      dup3\n        /* \"#utility.yul\":40014:40028   */\n      add\n        /* \"#utility.yul\":40007:40051   */\n      mstore\n        /* \"#utility.yul\":39996:40058   */\n      pop\n      jump\t// out\n        /* \"#utility.yul\":40064:40230   */\n    tag_745:\n        /* \"#utility.yul\":40204:40222   */\n      0x53656e64696e67207061796d656e742e00000000000000000000000000000000\n        /* \"#utility.yul\":40200:40201   */\n      0x00\n        /* \"#utility.yul\":40192:40198   */\n      dup3\n        /* \"#utility.yul\":40188:40202   */\n      add\n        /* \"#utility.yul\":40181:40223   */\n      mstore\n        /* \"#utility.yul\":40170:40230   */\n      pop\n      jump\t// out\n        /* \"#utility.yul\":40236:40457   */\n    tag_750:\n        /* \"#utility.yul\":40376:40410   */\n      0x696e7369646520736574436f6e64732c2063757272656e742073746167652069\n        /* \"#utility.yul\":40372:40373   */\n      0x00\n        /* \"#utility.yul\":40364:40370   */\n      dup3\n        /* \"#utility.yul\":40360:40374   */\n      add\n        /* \"#utility.yul\":40353:40411   */\n      mstore\n        /* \"#utility.yul\":40445:40449   */\n      0x733a000000000000000000000000000000000000000000000000000000000000\n        /* \"#utility.yul\":40440:40442   */\n      0x20\n        /* \"#utility.yul\":40432:40438   */\n      dup3\n        /* \"#utility.yul\":40428:40443   */\n      add\n        /* \"#utility.yul\":40421:40450   */\n      mstore\n        /* \"#utility.yul\":40342:40457   */\n      pop\n      jump\t// out\n        /* \"#utility.yul\":40463:40615   */\n    tag_755:\n        /* \"#utility.yul\":40603:40607   */\n      0x3d3d000000000000000000000000000000000000000000000000000000000000\n        /* \"#utility.yul\":40599:40600   */\n      0x00\n        /* \"#utility.yul\":40591:40597   */\n      dup3\n        /* \"#utility.yul\":40587:40601   */\n      add\n        /* \"#utility.yul\":40580:40608   */\n      mstore\n        /* \"#utility.yul\":40569:40615   */\n      pop\n      jump\t// out\n        /* \"#utility.yul\":40621:40846   */\n    tag_760:\n        /* \"#utility.yul\":40761:40795   */\n      0x696e7369646520656e64496e697453746167652c2063757272656e7420737461\n        /* \"#utility.yul\":40757:40758   */\n      0x00\n        /* \"#utility.yul\":40749:40755   */\n      dup3\n        /* \"#utility.yul\":40745:40759   */\n      add\n        /* \"#utility.yul\":40738:40796   */\n      mstore\n        /* \"#utility.yul\":40830:40838   */\n      0x67652069733a0000000000000000000000000000000000000000000000000000\n        /* \"#utility.yul\":40825:40827   */\n      0x20\n        /* \"#utility.yul\":40817:40823   */\n      dup3\n        /* \"#utility.yul\":40813:40828   */\n      add\n        /* \"#utility.yul\":40806:40839   */\n      mstore\n        /* \"#utility.yul\":40727:40846   */\n      pop\n      jump\t// out\n        /* \"#utility.yul\":40852:41003   */\n    tag_765:\n        /* \"#utility.yul\":40992:40995   */\n      0x3c00000000000000000000000000000000000000000000000000000000000000\n        /* \"#utility.yul\":40988:40989   */\n      0x00\n        /* \"#utility.yul\":40980:40986   */\n      dup3\n        /* \"#utility.yul\":40976:40990   */\n      add\n        /* \"#utility.yul\":40969:40996   */\n      mstore\n        /* \"#utility.yul\":40958:41003   */\n      pop\n      jump\t// out\n        /* \"#utility.yul\":41009:41161   */\n    tag_770:\n        /* \"#utility.yul\":41149:41153   */\n      0x213d000000000000000000000000000000000000000000000000000000000000\n        /* \"#utility.yul\":41145:41146   */\n      0x00\n        /* \"#utility.yul\":41137:41143   */\n      dup3\n        /* \"#utility.yul\":41133:41147   */\n      add\n        /* \"#utility.yul\":41126:41154   */\n      mstore\n        /* \"#utility.yul\":41115:41161   */\n      pop\n      jump\t// out\n        /* \"#utility.yul\":41167:41387   */\n    tag_775:\n        /* \"#utility.yul\":41307:41341   */\n      0x696e7369646520617453746167652c2063757272656e74207374616765206973\n        /* \"#utility.yul\":41303:41304   */\n      0x00\n        /* \"#utility.yul\":41295:41301   */\n      dup3\n        /* \"#utility.yul\":41291:41305   */\n      add\n        /* \"#utility.yul\":41284:41342   */\n      mstore\n        /* \"#utility.yul\":41376:41379   */\n      0x3a00000000000000000000000000000000000000000000000000000000000000\n        /* \"#utility.yul\":41371:41373   */\n      0x20\n        /* \"#utility.yul\":41363:41369   */\n      dup3\n        /* \"#utility.yul\":41359:41374   */\n      add\n        /* \"#utility.yul\":41352:41380   */\n      mstore\n        /* \"#utility.yul\":41273:41387   */\n      pop\n      jump\t// out\n        /* \"#utility.yul\":41393:41626   */\n    tag_780:\n        /* \"#utility.yul\":41533:41567   */\n      0x7374696c6c20696e7369646520617453746167652c20747279696e6720746f20\n        /* \"#utility.yul\":41529:41530   */\n      0x00\n        /* \"#utility.yul\":41521:41527   */\n      dup3\n        /* \"#utility.yul\":41517:41531   */\n      add\n        /* \"#utility.yul\":41510:41568   */\n      mstore\n        /* \"#utility.yul\":41602:41618   */\n      0x636f6d7061726520697420746f3a000000000000000000000000000000000000\n        /* \"#utility.yul\":41597:41599   */\n      0x20\n        /* \"#utility.yul\":41589:41595   */\n      dup3\n        /* \"#utility.yul\":41585:41600   */\n      add\n        /* \"#utility.yul\":41578:41619   */\n      mstore\n        /* \"#utility.yul\":41499:41626   */\n      pop\n      jump\t// out\n        /* \"#utility.yul\":41632:41784   */\n    tag_785:\n        /* \"#utility.yul\":41772:41776   */\n      0x3c3d000000000000000000000000000000000000000000000000000000000000\n        /* \"#utility.yul\":41768:41769   */\n      0x00\n        /* \"#utility.yul\":41760:41766   */\n      dup3\n        /* \"#utility.yul\":41756:41770   */\n      add\n        /* \"#utility.yul\":41749:41777   */\n      mstore\n        /* \"#utility.yul\":41738:41784   */\n      pop\n      jump\t// out\n        /* \"#utility.yul\":41790:41941   */\n    tag_790:\n        /* \"#utility.yul\":41930:41933   */\n      0x3e00000000000000000000000000000000000000000000000000000000000000\n        /* \"#utility.yul\":41926:41927   */\n      0x00\n        /* \"#utility.yul\":41918:41924   */\n      dup3\n        /* \"#utility.yul\":41914:41928   */\n      add\n        /* \"#utility.yul\":41907:41934   */\n      mstore\n        /* \"#utility.yul\":41896:41941   */\n      pop\n      jump\t// out\n        /* \"#utility.yul\":41947:42126   */\n    tag_795:\n        /* \"#utility.yul\":42087:42118   */\n      0x4e6f742077697468696e207468652062696c6c696e6720706572696f64000000\n        /* \"#utility.yul\":42083:42084   */\n      0x00\n        /* \"#utility.yul\":42075:42081   */\n      dup3\n        /* \"#utility.yul\":42071:42085   */\n      add\n        /* \"#utility.yul\":42064:42119   */\n      mstore\n        /* \"#utility.yul\":42053:42126   */\n      pop\n      jump\t// out\n        /* \"#utility.yul\":42132:42356   */\n    tag_800:\n        /* \"#utility.yul\":42272:42306   */\n      0x436f6e7472616374206973206e6f7420696e2074686520726571756972656420\n        /* \"#utility.yul\":42268:42269   */\n      0x00\n        /* \"#utility.yul\":42260:42266   */\n      dup3\n        /* \"#utility.yul\":42256:42270   */\n      add\n        /* \"#utility.yul\":42249:42307   */\n      mstore\n        /* \"#utility.yul\":42341:42348   */\n      0x7374617465000000000000000000000000000000000000000000000000000000\n        /* \"#utility.yul\":42336:42338   */\n      0x20\n        /* \"#utility.yul\":42328:42334   */\n      dup3\n        /* \"#utility.yul\":42324:42339   */\n      add\n        /* \"#utility.yul\":42317:42349   */\n      mstore\n        /* \"#utility.yul\":42238:42356   */\n      pop\n      jump\t// out\n        /* \"#utility.yul\":42362:42476   */\n    tag_942:\n        /* \"#utility.yul\":42444:42445   */\n      0x05\n        /* \"#utility.yul\":42437:42442   */\n      dup2\n        /* \"#utility.yul\":42434:42446   */\n      lt\n        /* \"#utility.yul\":42424:42426   */\n      tag_1001\n      jumpi\n        /* \"#utility.yul\":42450:42468   */\n      tag_1002\n      tag_165\n      jump\t// in\n    tag_1002:\n        /* \"#utility.yul\":42424:42426   */\n    tag_1001:\n        /* \"#utility.yul\":42414:42476   */\n      pop\n      jump\t// out\n        /* \"#utility.yul\":42482:42604   */\n    tag_575:\n        /* \"#utility.yul\":42555:42579   */\n      tag_1004\n        /* \"#utility.yul\":42573:42578   */\n      dup2\n        /* \"#utility.yul\":42555:42579   */\n      tag_651\n      jump\t// in\n    tag_1004:\n        /* \"#utility.yul\":42548:42553   */\n      dup2\n        /* \"#utility.yul\":42545:42580   */\n      eq\n        /* \"#utility.yul\":42535:42537   */\n      tag_1005\n      jumpi\n        /* \"#utility.yul\":42594:42595   */\n      0x00\n        /* \"#utility.yul\":42591:42592   */\n      dup1\n        /* \"#utility.yul\":42584:42596   */\n      revert\n        /* \"#utility.yul\":42535:42537   */\n    tag_1005:\n        /* \"#utility.yul\":42525:42604   */\n      pop\n      jump\t// out\n        /* \"#utility.yul\":42610:42730   */\n    tag_593:\n        /* \"#utility.yul\":42682:42705   */\n      tag_1007\n        /* \"#utility.yul\":42699:42704   */\n      dup2\n        /* \"#utility.yul\":42682:42705   */\n      tag_690\n      jump\t// in\n    tag_1007:\n        /* \"#utility.yul\":42675:42680   */\n      dup2\n        /* \"#utility.yul\":42672:42706   */\n      eq\n        /* \"#utility.yul\":42662:42664   */\n      tag_1008\n      jumpi\n        /* \"#utility.yul\":42720:42721   */\n      0x00\n        /* \"#utility.yul\":42717:42718   */\n      dup1\n        /* \"#utility.yul\":42710:42722   */\n      revert\n        /* \"#utility.yul\":42662:42664   */\n    tag_1008:\n        /* \"#utility.yul\":42652:42730   */\n      pop\n      jump\t// out\n        /* \"#utility.yul\":42736:42858   */\n    tag_601:\n        /* \"#utility.yul\":42809:42833   */\n      tag_1010\n        /* \"#utility.yul\":42827:42832   */\n      dup2\n        /* \"#utility.yul\":42809:42833   */\n      tag_804\n      jump\t// in\n    tag_1010:\n        /* \"#utility.yul\":42802:42807   */\n      dup2\n        /* \"#utility.yul\":42799:42834   */\n      eq\n        /* \"#utility.yul\":42789:42791   */\n      tag_1011\n      jumpi\n        /* \"#utility.yul\":42848:42849   */\n      0x00\n        /* \"#utility.yul\":42845:42846   */\n      dup1\n        /* \"#utility.yul\":42838:42850   */\n      revert\n        /* \"#utility.yul\":42789:42791   */\n    tag_1011:\n        /* \"#utility.yul\":42779:42858   */\n      pop\n      jump\t// out\n\n    auxdata: 0xa2646970667358221220111c047672e298b6cce16c72d67911fe77b4cb26049dc163c0ef3cb7823da7b464736f6c63430008060033\n}\n",
    "bytecode": {
      "linkReferences": {},
      "object": "60806040526000600960006101000a81548160ff021916908360048111156200002d576200002c6200006b565b5b02179055506000600960016101000a81548160ff021916908315150217905550600060235560006025553480156200006457600080fd5b506200009a565b7f4e487b7100000000000000000000000000000000000000000000000000000000600052602160045260246000fd5b61393480620000aa6000396000f3fe6080604052600436106101c25760003560e01c806384ac4446116100f7578063ae90b21311610095578063f1b9ee2411610064578063f1b9ee24146105a3578063f851a440146105ba578063fadeaa59146105e5578063fbbf93a01461060e576101c2565b8063ae90b213146104e7578063c040e6b814610512578063e28d49061461053d578063e9d94c581461057a576101c2565b806397c0bba1116100d157806397c0bba1146104515780639a7306171461047c578063a2c14ad3146104a5578063aa8c217c146104bc576101c2565b806384ac444614610405578063904c60941461040f5780639503fe3d1461043a576101c2565b806343885314116101645780635e383d211161013e5780635e383d211461036f578063722713f7146103ac578063760a8c2a146103d757806383197ef0146103ee576101c2565b806343885314146102dc5780634622ab0314610307578063516dde4314610344576101c2565b806321ce5afd116101a057806321ce5afd1461023457806325419c241461025d5780633a40f3b214610288578063410459ad146102b3576101c2565b80630b97bc86146101c7578063109e94cf146101f257806312424e3f1461021d575b600080fd5b3480156101d357600080fd5b506101dc610643565b6040516101e99190612e69565b60405180910390f35b3480156101fe57600080fd5b50610207610649565b6040516102149190612b59565b60405180910390f35b34801561022957600080fd5b5061023261066f565b005b34801561024057600080fd5b5061025b6004803603810190610256919061254f565b61085e565b005b34801561026957600080fd5b50610272610a62565b60405161027f9190612e69565b60405180910390f35b34801561029457600080fd5b5061029d610a68565b6040516102aa9190612c26565b60405180910390f35b3480156102bf57600080fd5b506102da60048036038101906102d591906124a7565b610a7b565b005b3480156102e857600080fd5b506102f1610abf565b6040516102fe9190612e69565b60405180910390f35b34801561031357600080fd5b5061032e60048036038101906103299190612625565b610ac5565b60405161033b9190612cd3565b60405180910390f35b34801561035057600080fd5b50610359610b68565b6040516103669190612e69565b60405180910390f35b34801561037b57600080fd5b5061039660048036038101906103919190612625565b610b6e565b6040516103a39190612cb8565b60405180910390f35b3480156103b857600080fd5b506103c1610b89565b6040516103ce9190612e69565b60405180910390f35b3480156103e357600080fd5b506103ec610b91565b005b3480156103fa57600080fd5b50610403610cd7565b005b61040d610e2a565b005b34801561041b57600080fd5b50610424610fbe565b6040516104319190612e69565b60405180910390f35b34801561044657600080fd5b5061044f610fc4565b005b34801561045d57600080fd5b5061046661119b565b6040516104739190612c26565b60405180910390f35b34801561048857600080fd5b506104a3600480360381019061049e91906124d4565b6111ae565b005b3480156104b157600080fd5b506104ba61128d565b005b3480156104c857600080fd5b506104d1611523565b6040516104de9190612e69565b60405180910390f35b3480156104f357600080fd5b506104fc611529565b6040516105099190612b59565b60405180910390f35b34801561051e57600080fd5b5061052761154f565b6040516105349190612c9d565b60405180910390f35b34801561054957600080fd5b50610564600480360381019061055f9190612625565b611562565b6040516105719190612cb8565b60405180910390f35b34801561058657600080fd5b506105a1600480360381019061059c919061254f565b61157d565b005b3480156105af57600080fd5b506105b8611716565b005b3480156105c657600080fd5b506105cf61185c565b6040516105dc9190612b3e565b60405180910390f35b3480156105f157600080fd5b5061060c60048036038101906106079190612598565b611880565b005b34801561061a57600080fd5b50610623611c10565b60405161063a9b9a99989796959493929190612b74565b60405180910390f35b60035481565b600160009054906101000a900473ffffffffffffffffffffffffffffffffffffffff1681565b60017fdd970dd9b5bfe707922155b058a407655cb18288b807e2216442bca8ad83d6b5600960009054906101000a900460ff1660048111156106b4576106b36133b0565b5b6040516106c19190612dcd565b60405180910390a17fdd970dd9b5bfe707922155b058a407655cb18288b807e2216442bca8ad83d6b58160048111156106fd576106fc6133b0565b5b60405161070a9190612dfb565b60405180910390a1806004811115610725576107246133b0565b5b600960009054906101000a900460ff166004811115610747576107466133b0565b5b14610787576040517f08c379a000000000000000000000000000000000000000000000000000000000815260040161077e90612e49565b60405180910390fd5b60008054906101000a900473ffffffffffffffffffffffffffffffffffffffff1673ffffffffffffffffffffffffffffffffffffffff163373ffffffffffffffffffffffffffffffffffffffff1614610815576040517f08c379a000000000000000000000000000000000000000000000000000000000815260040161080c90612d23565b60405180910390fd5b6001600260146101000a81548160ff0219169083151502179055506003600960006101000a81548160ff02191690836004811115610856576108556133b0565b5b021790555050565b60037fdd970dd9b5bfe707922155b058a407655cb18288b807e2216442bca8ad83d6b5600960009054906101000a900460ff1660048111156108a3576108a26133b0565b5b6040516108b09190612dcd565b60405180910390a17fdd970dd9b5bfe707922155b058a407655cb18288b807e2216442bca8ad83d6b58160048111156108ec576108eb6133b0565b5b6040516108f99190612dfb565b60405180910390a1806004811115610914576109136133b0565b5b600960009054906101000a900460ff166004811115610936576109356133b0565b5b14610976576040517f08c379a000000000000000000000000000000000000000000000000000000000815260040161096d90612e49565b60405180910390fd5b60075443111561098d5761098861128d565b610a5e565b60065443101580156109a157506007544311155b6109e0576040517f08c379a00000000000000000000000000000000000000000000000000000000081526004016109d790612e29565b60405180910390fd5b60005b602354811015610a4457828181518110610a00576109ff61340e565b5b6020026020010151602460008381526020019081526020016000206000828254610a2a9190612fe4565b925050819055508080610a3c90613309565b9150506109e3565b5060256000815480929190610a58906132c0565b91905055505b5050565b60065481565b600960019054906101000a900460ff1681565b80600260006101000a81548173ffffffffffffffffffffffffffffffffffffffff021916908373ffffffffffffffffffffffffffffffffffffffff16021790555050565b60075481565b600a8160088110610ad557600080fd5b016000915090508054610ae79061325d565b80601f0160208091040260200160405190810160405280929190818152602001828054610b139061325d565b8015610b605780601f10610b3557610100808354040283529160200191610b60565b820191906000526020600020905b815481529060010190602001808311610b4357829003601f168201915b505050505081565b60045481565b60128160088110610b7e57600080fd5b016000915090505481565b600047905090565b60027fdd970dd9b5bfe707922155b058a407655cb18288b807e2216442bca8ad83d6b5600960009054906101000a900460ff166004811115610bd657610bd56133b0565b5b604051610be39190612dcd565b60405180910390a17fdd970dd9b5bfe707922155b058a407655cb18288b807e2216442bca8ad83d6b5816004811115610c1f57610c1e6133b0565b5b604051610c2c9190612dfb565b60405180910390a1806004811115610c4757610c466133b0565b5b600960009054906101000a900460ff166004811115610c6957610c686133b0565b5b14610ca9576040517f08c379a0000000000000000000000000000000000000000000000000000000008152600401610ca090612e49565b60405180910390fd5b6003600960006101000a81548160ff02191690836004811115610ccf57610cce6133b0565b5b021790555050565b60027fdd970dd9b5bfe707922155b058a407655cb18288b807e2216442bca8ad83d6b5600960009054906101000a900460ff166004811115610d1c57610d1b6133b0565b5b604051610d299190612dcd565b60405180910390a17fdd970dd9b5bfe707922155b058a407655cb18288b807e2216442bca8ad83d6b5816004811115610d6557610d646133b0565b5b604051610d729190612dfb565b60405180910390a1806004811115610d8d57610d8c6133b0565b5b600960009054906101000a900460ff166004811115610daf57610dae6133b0565b5b14610def576040517f08c379a0000000000000000000000000000000000000000000000000000000008152600401610de690612e49565b60405180910390fd5b600160009054906101000a900473ffffffffffffffffffffffffffffffffffffffff1673ffffffffffffffffffffffffffffffffffffffff16ff5b60037fdd970dd9b5bfe707922155b058a407655cb18288b807e2216442bca8ad83d6b5600960009054906101000a900460ff166004811115610e6f57610e6e6133b0565b5b604051610e7c9190612dcd565b60405180910390a17fdd970dd9b5bfe707922155b058a407655cb18288b807e2216442bca8ad83d6b5816004811115610eb857610eb76133b0565b5b604051610ec59190612dfb565b60405180910390a1806004811115610ee057610edf6133b0565b5b600960009054906101000a900460ff166004811115610f0257610f016133b0565b5b14610f42576040517f08c379a0000000000000000000000000000000000000000000000000000000008152600401610f3990612e49565b60405180910390fd5b600754431115610f5957610f5461128d565b610fbb565b6006544310158015610f6d57506007544311155b610fac576040517f08c379a0000000000000000000000000000000000000000000000000000000008152600401610fa390612e29565b60405180910390fd5b6005543414610fba57600080fd5b5b50565b60085481565b60007fdd970dd9b5bfe707922155b058a407655cb18288b807e2216442bca8ad83d6b5600960009054906101000a900460ff166004811115611009576110086133b0565b5b6040516110169190612dcd565b60405180910390a17fdd970dd9b5bfe707922155b058a407655cb18288b807e2216442bca8ad83d6b5816004811115611052576110516133b0565b5b60405161105f9190612dfb565b60405180910390a180600481111561107a576110796133b0565b5b600960009054906101000a900460ff16600481111561109c5761109b6133b0565b5b146110dc576040517f08c379a00000000000000000000000000000000000000000000000000000000081526004016110d390612e49565b60405180910390fd5b7fdd970dd9b5bfe707922155b058a407655cb18288b807e2216442bca8ad83d6b5600960009054906101000a900460ff16600481111561111f5761111e6133b0565b5b60405161112c9190612d9f565b60405180910390a16001600960006101000a81548160ff0219169083600481111561115a576111596133b0565b5b021790555060005b60088110156111975760006024600083815260200190815260200160002081905550808061118f90613309565b915050611162565b5050565b600260149054906101000a900460ff1681565b336000806101000a81548173ffffffffffffffffffffffffffffffffffffffff021916908373ffffffffffffffffffffffffffffffffffffffff16021790555084600160006101000a81548173ffffffffffffffffffffffffffffffffffffffff021916908373ffffffffffffffffffffffffffffffffffffffff16021790555061123884611df4565b600481905550600060038190555061124f83611df4565b60068190555061126a601e846112659190613078565b611df4565b6007819055508160088190555080600581905550611286611e16565b5050505050565b60037fdd970dd9b5bfe707922155b058a407655cb18288b807e2216442bca8ad83d6b5600960009054906101000a900460ff1660048111156112d2576112d16133b0565b5b6040516112df9190612dcd565b60405180910390a17fdd970dd9b5bfe707922155b058a407655cb18288b807e2216442bca8ad83d6b581600481111561131b5761131a6133b0565b5b6040516113289190612dfb565b60405180910390a1806004811115611343576113426133b0565b5b600960009054906101000a900460ff166004811115611365576113646133b0565b5b146113a5576040517f08c379a000000000000000000000000000000000000000000000000000000000815260040161139c90612e49565b60405180910390fd5b60005b60235481101561149e576000601a82600881106113c8576113c761340e565b5b015490506000601283600881106113e2576113e161340e565b5b015490506000602554602460008681526020019081526020016000205461140991906130ce565b9050611416838284611ee4565b61148857611422611f6e565b3373ffffffffffffffffffffffffffffffffffffffff167fa84226bf2d14bde3fac454f52eaeab63aaeb1934da88f9263dd4ff7dd12acf71600960019054906101000a900460ff166040516114779190612c41565b60405180910390a250505050611520565b505050808061149690613309565b9150506113a8565b506001600960016101000a81548160ff0219169083151502179055503373ffffffffffffffffffffffffffffffffffffffff167fa84226bf2d14bde3fac454f52eaeab63aaeb1934da88f9263dd4ff7dd12acf71600960019054906101000a900460ff1660405161150f9190612c6f565b60405180910390a261151f611ffe565b5b50565b60055481565b600260009054906101000a900473ffffffffffffffffffffffffffffffffffffffff1681565b600960009054906101000a900460ff1681565b601a816008811061157257600080fd5b016000915090505481565b60037fdd970dd9b5bfe707922155b058a407655cb18288b807e2216442bca8ad83d6b5600960009054906101000a900460ff1660048111156115c2576115c16133b0565b5b6040516115cf9190612dcd565b60405180910390a17fdd970dd9b5bfe707922155b058a407655cb18288b807e2216442bca8ad83d6b581600481111561160b5761160a6133b0565b5b6040516116189190612dfb565b60405180910390a1806004811115611633576116326133b0565b5b600960009054906101000a900460ff166004811115611655576116546133b0565b5b14611695576040517f08c379a000000000000000000000000000000000000000000000000000000000815260040161168c90612e49565b60405180910390fd5b60005b6023548110156116f9578281815181106116b5576116b461340e565b5b60200260200101516024600083815260200190815260200160002060008282546116df9190612fe4565b9250508190555080806116f190613309565b915050611698565b506025600081548092919061170d906132c0565b91905055505050565b60037fdd970dd9b5bfe707922155b058a407655cb18288b807e2216442bca8ad83d6b5600960009054906101000a900460ff16600481111561175b5761175a6133b0565b5b6040516117689190612dcd565b60405180910390a17fdd970dd9b5bfe707922155b058a407655cb18288b807e2216442bca8ad83d6b58160048111156117a4576117a36133b0565b5b6040516117b19190612dfb565b60405180910390a18060048111156117cc576117cb6133b0565b5b600960009054906101000a900460ff1660048111156117ee576117ed6133b0565b5b1461182e576040517f08c379a000000000000000000000000000000000000000000000000000000000815260040161182590612e49565b60405180910390fd5b6002600960006101000a81548160ff02191690836004811115611854576118536133b0565b5b021790555050565b60008054906101000a900473ffffffffffffffffffffffffffffffffffffffff1681565b60007fdd970dd9b5bfe707922155b058a407655cb18288b807e2216442bca8ad83d6b5600960009054906101000a900460ff1660048111156118c5576118c46133b0565b5b6040516118d29190612dcd565b60405180910390a17fdd970dd9b5bfe707922155b058a407655cb18288b807e2216442bca8ad83d6b581600481111561190e5761190d6133b0565b5b60405161191b9190612dfb565b60405180910390a1806004811115611936576119356133b0565b5b600960009054906101000a900460ff166004811115611958576119576133b0565b5b14611998576040517f08c379a000000000000000000000000000000000000000000000000000000000815260040161198f90612e49565b60405180910390fd5b7fdd970dd9b5bfe707922155b058a407655cb18288b807e2216442bca8ad83d6b5600960009054906101000a900460ff1660048111156119db576119da6133b0565b5b6040516119e89190612d71565b60405180910390a160005b6008811015611c08576040518060400160405280600181526020017f300000000000000000000000000000000000000000000000000000000000000081525080519060200120858260088110611a4c57611a4b61340e565b5b6020020151805190602001201415611b1c577fdd970dd9b5bfe707922155b058a407655cb18288b807e2216442bca8ad83d6b5600960009054906101000a900460ff166004811115611aa157611aa06133b0565b5b604051611aae9190612d43565b60405180910390a1611abe610fc4565b7fdd970dd9b5bfe707922155b058a407655cb18288b807e2216442bca8ad83d6b5600960009054906101000a900460ff166004811115611b0157611b006133b0565b5b604051611b0e9190612cf5565b60405180910390a150611c0a565b848160088110611b2f57611b2e61340e565b5b6020020151600a8260088110611b4857611b4761340e565b5b019080519060200190611b5c92919061212a565b50838160088110611b7057611b6f61340e565b5b602002015160128260088110611b8957611b8861340e565b5b01819055506022838260088110611ba357611ba261340e565b5b6020020151604051611bb59190612aa9565b908152602001604051809103902054601a8260088110611bd857611bd761340e565b5b018190555060236000815480929190611bf090613309565b91905055508080611c0090613309565b9150506119f3565b505b50505050565b600080600080600080600080611c246121b0565b611c2c6121d8565b611c346121d8565b600160009054906101000a900473ffffffffffffffffffffffffffffffffffffffff16600260009054906101000a900473ffffffffffffffffffffffffffffffffffffffff16600354600454600554600654600754600854600a6012601a82600880602002604051908101604052809291906000905b82821015611d4d578382018054611cc09061325d565b80601f0160208091040260200160405190810160405280929190818152602001828054611cec9061325d565b8015611d395780601f10611d0e57610100808354040283529160200191611d39565b820191906000526020600020905b815481529060010190602001808311611d1c57829003601f168201915b505050505081526020019060010190611caa565b50505050925081600880602002604051908101604052809291908260088015611d8b576020028201915b815481526020019060010190808311611d77575b5050505050915080600880602002604051908101604052809291908260088015611dca576020028201915b815481526020019060010190808311611db6575b505050505090509a509a509a509a509a509a509a509a509a509a509a50909192939495969798999a565b600061190082611e049190613138565b43611e0f9190613078565b9050919050565b60016022604051611e2690612b29565b90815260200160405180910390208190555060026022604051611e4890612ad5565b90815260200160405180910390208190555060036022604051611e6a90612ac0565b90815260200160405180910390208190555060046022604051611e8c90612aea565b90815260200160405180910390208190555060056022604051611eae90612aff565b90815260200160405180910390208190555060066022604051611ed090612b14565b908152602001604051809103902081905550565b60007fffffffffffffffffffffffffffffffffffffffffffffffffffffffffffffffff8414611f625760018085161415611f2957818313611f285760009050611f67565b5b60028085161415611f4557818314611f445760009050611f67565b5b60048085161415611f6157818312611f605760009050611f67565b5b5b600190505b9392505050565b6000600960016101000a81548160ff021916908315150217905550600160009054906101000a900473ffffffffffffffffffffffffffffffffffffffff1673ffffffffffffffffffffffffffffffffffffffff166108fc6005549081150290604051600060405180830381858888f19350505050158015611ff3573d6000803e3d6000fd5b50611ffc61208e565b565b6001600960016101000a81548160ff021916908315150217905550600260009054906101000a900473ffffffffffffffffffffffffffffffffffffffff1673ffffffffffffffffffffffffffffffffffffffff166108fc6005549081150290604051600060405180830381858888f19350505050158015612083573d6000803e3d6000fd5b5061208c61208e565b565b60045443106120c3576004600960006101000a81548160ff021916908360048111156120bd576120bc6133b0565b5b02179055505b600754600681905550611900601e6120db9190613138565b6007546120e89190613078565b60078190555060005b6023548110156121275760006024600083815260200190815260200160002081905550808061211f90613309565b9150506120f1565b50565b8280546121369061325d565b90600052602060002090601f016020900481019282612158576000855561219f565b82601f1061217157805160ff191683800117855561219f565b8280016001018555821561219f579182015b8281111561219e578251825591602001919060010190612183565b5b5090506121ac91906121fb565b5090565b6040518061010001604052806008905b60608152602001906001900390816121c05790505090565b604051806101000160405280600890602082028036833780820191505090505090565b5b808211156122145760008160009055506001016121fc565b5090565b600061222b61222684612ea9565b612e84565b9050808285602086028201111561224557612244613471565b5b60005b85811015612275578161225b888261244f565b845260208401935060208301925050600181019050612248565b5050509392505050565b600061229261228d84612ecf565b612e84565b905080838252602082019050828560208602820111156122b5576122b4613471565b5b60005b858110156122e557816122cb888261244f565b8452602084019350602083019250506001810190506122b8565b5050509392505050565b60006123026122fd84612efb565b612e84565b9050808285602086028201111561231c5761231b613471565b5b60005b8581101561236a57813567ffffffffffffffff8111156123425761234161346c565b5b80860161234f8982612464565b8552602085019450602084019350505060018101905061231f565b5050509392505050565b600061238761238284612f21565b612e84565b9050828152602081018484840111156123a3576123a2613476565b5b6123ae84828561321b565b509392505050565b6000813590506123c5816138b9565b92915050565b600082601f8301126123e0576123df61346c565b5b60086123ed848285612218565b91505092915050565b600082601f83011261240b5761240a61346c565b5b813561241b84826020860161227f565b91505092915050565b600082601f8301126124395761243861346c565b5b60086124468482856122ef565b91505092915050565b60008135905061245e816138d0565b92915050565b600082601f8301126124795761247861346c565b5b8135612489848260208601612374565b91505092915050565b6000813590506124a1816138e7565b92915050565b6000602082840312156124bd576124bc613480565b5b60006124cb848285016123b6565b91505092915050565b600080600080600060a086880312156124f0576124ef613480565b5b60006124fe888289016123b6565b955050602061250f88828901612492565b945050604061252088828901612492565b935050606061253188828901612492565b925050608061254288828901612492565b9150509295509295909350565b60006020828403121561256557612564613480565b5b600082013567ffffffffffffffff8111156125835761258261347b565b5b61258f848285016123f6565b91505092915050565b600080600061014084860312156125b2576125b1613480565b5b600084013567ffffffffffffffff8111156125d0576125cf61347b565b5b6125dc86828701612424565b93505060206125ed868287016123cb565b92505061012084013567ffffffffffffffff81111561260f5761260e61347b565b5b61261b86828701612424565b9150509250925092565b60006020828403121561263b5761263a613480565b5b600061264984828501612492565b91505092915050565b600061265e8383612786565b60208301905092915050565b600061267683836127a4565b905092915050565b612687816131a4565b82525050565b61269681613192565b82525050565b6126a581612f66565b6126af8184612fa1565b92506126ba82612f52565b8060005b838110156126eb5781516126d28782612652565b96506126dd83612f87565b9250506001810190506126be565b505050505050565b60006126fe82612f71565b6127088185612fac565b93508360208202850161271a85612f5c565b8060005b858110156127565784840389528151612737858261266a565b945061274283612f94565b925060208a0199505060018101905061271e565b50829750879550505050505092915050565b612771816131b6565b82525050565b61278081613209565b82525050565b61278f816131d5565b82525050565b61279e816131d5565b82525050565b60006127af82612f7c565b6127b98185612fb7565b93506127c981856020860161322a565b6127d281613485565b840191505092915050565b60006127e882612f7c565b6127f28185612fc8565b935061280281856020860161322a565b61280b81613485565b840191505092915050565b600061282182612f7c565b61282b8185612fd9565b935061283b81856020860161322a565b80840191505092915050565b6000612854600283612fd9565b915061285f82613496565b600282019050919050565b6000612877604383612fc8565b9150612882826134bf565b606082019050919050565b600061289a603683612fc8565b91506128a582613534565b604082019050919050565b60006128bd602f83612fc8565b91506128c882613583565b604082019050919050565b60006128e0601283612fc8565b91506128eb826135d2565b602082019050919050565b6000612903601083612fc8565b915061290e826135fb565b602082019050919050565b6000612926602283612fc8565b915061293182613624565b604082019050919050565b6000612949600283612fd9565b915061295482613673565b600282019050919050565b600061296c602683612fc8565b91506129778261369c565b604082019050919050565b600061298f600183612fd9565b915061299a826136eb565b600182019050919050565b60006129b2600283612fd9565b91506129bd82613714565b600282019050919050565b60006129d5602183612fc8565b91506129e08261373d565b604082019050919050565b60006129f8602e83612fc8565b9150612a038261378c565b604082019050919050565b6000612a1b600283612fd9565b9150612a26826137db565b600282019050919050565b6000612a3e600183612fd9565b9150612a4982613804565b600182019050919050565b6000612a61601d83612fc8565b9150612a6c8261382d565b602082019050919050565b6000612a84602583612fc8565b9150612a8f82613856565b604082019050919050565b612aa3816131ff565b82525050565b6000612ab58284612816565b915081905092915050565b6000612acb82612847565b9150819050919050565b6000612ae08261293c565b9150819050919050565b6000612af582612982565b9150819050919050565b6000612b0a826129a5565b9150819050919050565b6000612b1f82612a0e565b9150819050919050565b6000612b3482612a31565b9150819050919050565b6000602082019050612b53600083018461268d565b92915050565b6000602082019050612b6e600083018461267e565b92915050565b600061032082019050612b8a600083018e61268d565b612b97602083018d61268d565b612ba4604083018c612a9a565b612bb1606083018b612a9a565b612bbe608083018a612a9a565b612bcb60a0830189612a9a565b612bd860c0830188612a9a565b612be560e0830187612a9a565b818103610100830152612bf881866126f3565b9050612c0861012083018561269c565b612c1661022083018461269c565b9c9b505050505050505050505050565b6000602082019050612c3b6000830184612768565b92915050565b6000604082019050612c566000830184612768565b8181036020830152612c67816128d3565b905092915050565b6000604082019050612c846000830184612768565b8181036020830152612c95816128f6565b905092915050565b6000602082019050612cb26000830184612777565b92915050565b6000602082019050612ccd6000830184612795565b92915050565b60006020820190508181036000830152612ced81846127dd565b905092915050565b60006040820190508181036000830152612d0e8161286a565b9050612d1d6020830184612a9a565b92915050565b60006020820190508181036000830152612d3c8161288d565b9050919050565b60006040820190508181036000830152612d5c816128b0565b9050612d6b6020830184612a9a565b92915050565b60006040820190508181036000830152612d8a81612919565b9050612d996020830184612a9a565b92915050565b60006040820190508181036000830152612db88161295f565b9050612dc76020830184612a9a565b92915050565b60006040820190508181036000830152612de6816129c8565b9050612df56020830184612a9a565b92915050565b60006040820190508181036000830152612e14816129eb565b9050612e236020830184612a9a565b92915050565b60006020820190508181036000830152612e4281612a54565b9050919050565b60006020820190508181036000830152612e6281612a77565b9050919050565b6000602082019050612e7e6000830184612a9a565b92915050565b6000612e8e612e9f565b9050612e9a828261328f565b919050565b6000604051905090565b600067ffffffffffffffff821115612ec457612ec361343d565b5b602082029050919050565b600067ffffffffffffffff821115612eea57612ee961343d565b5b602082029050602081019050919050565b600067ffffffffffffffff821115612f1657612f1561343d565b5b602082029050919050565b600067ffffffffffffffff821115612f3c57612f3b61343d565b5b612f4582613485565b9050602081019050919050565b6000819050919050565b6000819050919050565b600060089050919050565b600060089050919050565b600081519050919050565b6000602082019050919050565b6000602082019050919050565b600081905092915050565b600081905092915050565b600082825260208201905092915050565b600082825260208201905092915050565b600081905092915050565b6000612fef826131d5565b9150612ffa836131d5565b9250817f7fffffffffffffffffffffffffffffffffffffffffffffffffffffffffffffff0383136000831215161561303557613034613352565b5b817f800000000000000000000000000000000000000000000000000000000000000003831260008312161561306d5761306c613352565b5b828201905092915050565b6000613083826131ff565b915061308e836131ff565b9250827fffffffffffffffffffffffffffffffffffffffffffffffffffffffffffffffff038211156130c3576130c2613352565b5b828201905092915050565b60006130d9826131d5565b91506130e4836131d5565b9250826130f4576130f3613381565b5b600160000383147f80000000000000000000000000000000000000000000000000000000000000008314161561312d5761312c613352565b5b828205905092915050565b6000613143826131ff565b915061314e836131ff565b9250817fffffffffffffffffffffffffffffffffffffffffffffffffffffffffffffffff048311821515161561318757613186613352565b5b828202905092915050565b600061319d826131df565b9050919050565b60006131af826131df565b9050919050565b60008115159050919050565b60008190506131d0826138a5565b919050565b6000819050919050565b600073ffffffffffffffffffffffffffffffffffffffff82169050919050565b6000819050919050565b6000613214826131c2565b9050919050565b82818337600083830152505050565b60005b8381101561324857808201518184015260208101905061322d565b83811115613257576000848401525b50505050565b6000600282049050600182168061327557607f821691505b60208210811415613289576132886133df565b5b50919050565b61329882613485565b810181811067ffffffffffffffff821117156132b7576132b661343d565b5b80604052505050565b60006132cb826131d5565b91507f7fffffffffffffffffffffffffffffffffffffffffffffffffffffffffffffff8214156132fe576132fd613352565b5b600182019050919050565b6000613314826131ff565b91507fffffffffffffffffffffffffffffffffffffffffffffffffffffffffffffffff82141561334757613346613352565b5b600182019050919050565b7f4e487b7100000000000000000000000000000000000000000000000000000000600052601160045260246000fd5b7f4e487b7100000000000000000000000000000000000000000000000000000000600052601260045260246000fd5b7f4e487b7100000000000000000000000000000000000000000000000000000000600052602160045260246000fd5b7f4e487b7100000000000000000000000000000000000000000000000000000000600052602260045260246000fd5b7f4e487b7100000000000000000000000000000000000000000000000000000000600052603260045260246000fd5b7f4e487b7100000000000000000000000000000000000000000000000000000000600052604160045260246000fd5b600080fd5b600080fd5b600080fd5b600080fd5b600080fd5b6000601f19601f8301169050919050565b7f3e3d000000000000000000000000000000000000000000000000000000000000600082015250565b7f696e7369646520736574436f6e64732069662073746174656d656e742c20616660008201527f74657220656e64496e697453746167652c2063757272656e742073746167652060208201527f69733a0000000000000000000000000000000000000000000000000000000000604082015250565b7f43616e6e6f742063616c6c20746869732066756e6374696f6e2064697265637460008201527f6c792c207573652056656e646f72466163746f72792e00000000000000000000602082015250565b7f696e7369646520736574436f6e64732069662073746174656d656e742c20637560008201527f7272656e742073746167652069733a0000000000000000000000000000000000602082015250565b7f526566756e64696e67207061796d656e742e0000000000000000000000000000600082015250565b7f53656e64696e67207061796d656e742e00000000000000000000000000000000600082015250565b7f696e7369646520736574436f6e64732c2063757272656e74207374616765206960008201527f733a000000000000000000000000000000000000000000000000000000000000602082015250565b7f3d3d000000000000000000000000000000000000000000000000000000000000600082015250565b7f696e7369646520656e64496e697453746167652c2063757272656e742073746160008201527f67652069733a0000000000000000000000000000000000000000000000000000602082015250565b7f3c00000000000000000000000000000000000000000000000000000000000000600082015250565b7f213d000000000000000000000000000000000000000000000000000000000000600082015250565b7f696e7369646520617453746167652c2063757272656e7420737461676520697360008201527f3a00000000000000000000000000000000000000000000000000000000000000602082015250565b7f7374696c6c20696e7369646520617453746167652c20747279696e6720746f2060008201527f636f6d7061726520697420746f3a000000000000000000000000000000000000602082015250565b7f3c3d000000000000000000000000000000000000000000000000000000000000600082015250565b7f3e00000000000000000000000000000000000000000000000000000000000000600082015250565b7f4e6f742077697468696e207468652062696c6c696e6720706572696f64000000600082015250565b7f436f6e7472616374206973206e6f7420696e207468652072657175697265642060008201527f7374617465000000000000000000000000000000000000000000000000000000602082015250565b600581106138b6576138b56133b0565b5b50565b6138c281613192565b81146138cd57600080fd5b50565b6138d9816131d5565b81146138e457600080fd5b50565b6138f0816131ff565b81146138fb57600080fd5b5056fea2646970667358221220111c047672e298b6cce16c72d67911fe77b4cb26049dc163c0ef3cb7823da7b464736f6c63430008060033",
      "opcodes": "PUSH1 0x80 PUSH1 0x40 MSTORE PUSH1 0x0 PUSH1 0x9 PUSH1 0x0 PUSH2 0x100 EXP DUP2 SLOAD DUP2 PUSH1 0xFF MUL NOT AND SWAP1 DUP4 PUSH1 0x4 DUP2 GT ISZERO PUSH3 0x2D JUMPI PUSH3 0x2C PUSH3 0x6B JUMP JUMPDEST JUMPDEST MUL OR SWAP1 SSTORE POP PUSH1 0x0 PUSH1 0x9 PUSH1 0x1 PUSH2 0x100 EXP DUP2 SLOAD DUP2 PUSH1 0xFF MUL NOT AND SWAP1 DUP4 ISZERO ISZERO MUL OR SWAP1 SSTORE POP PUSH1 0x0 PUSH1 0x23 SSTORE PUSH1 0x0 PUSH1 0x25 SSTORE CALLVALUE DUP1 ISZERO PUSH3 0x64 JUMPI PUSH1 0x0 DUP1 REVERT JUMPDEST POP PUSH3 0x9A JUMP JUMPDEST PUSH32 0x4E487B7100000000000000000000000000000000000000000000000000000000 PUSH1 0x0 MSTORE PUSH1 0x21 PUSH1 0x4 MSTORE PUSH1 0x24 PUSH1 0x0 REVERT JUMPDEST PUSH2 0x3934 DUP1 PUSH3 0xAA PUSH1 0x0 CODECOPY PUSH1 0x0 RETURN INVALID PUSH1 0x80 PUSH1 0x40 MSTORE PUSH1 0x4 CALLDATASIZE LT PUSH2 0x1C2 JUMPI PUSH1 0x0 CALLDATALOAD PUSH1 0xE0 SHR DUP1 PUSH4 0x84AC4446 GT PUSH2 0xF7 JUMPI DUP1 PUSH4 0xAE90B213 GT PUSH2 0x95 JUMPI DUP1 PUSH4 0xF1B9EE24 GT PUSH2 0x64 JUMPI DUP1 PUSH4 0xF1B9EE24 EQ PUSH2 0x5A3 JUMPI DUP1 PUSH4 0xF851A440 EQ PUSH2 0x5BA JUMPI DUP1 PUSH4 0xFADEAA59 EQ PUSH2 0x5E5 JUMPI DUP1 PUSH4 0xFBBF93A0 EQ PUSH2 0x60E JUMPI PUSH2 0x1C2 JUMP JUMPDEST DUP1 PUSH4 0xAE90B213 EQ PUSH2 0x4E7 JUMPI DUP1 PUSH4 0xC040E6B8 EQ PUSH2 0x512 JUMPI DUP1 PUSH4 0xE28D4906 EQ PUSH2 0x53D JUMPI DUP1 PUSH4 0xE9D94C58 EQ PUSH2 0x57A JUMPI PUSH2 0x1C2 JUMP JUMPDEST DUP1 PUSH4 0x97C0BBA1 GT PUSH2 0xD1 JUMPI DUP1 PUSH4 0x97C0BBA1 EQ PUSH2 0x451 JUMPI DUP1 PUSH4 0x9A730617 EQ PUSH2 0x47C JUMPI DUP1 PUSH4 0xA2C14AD3 EQ PUSH2 0x4A5 JUMPI DUP1 PUSH4 0xAA8C217C EQ PUSH2 0x4BC JUMPI PUSH2 0x1C2 JUMP JUMPDEST DUP1 PUSH4 0x84AC4446 EQ PUSH2 0x405 JUMPI DUP1 PUSH4 0x904C6094 EQ PUSH2 0x40F JUMPI DUP1 PUSH4 0x9503FE3D EQ PUSH2 0x43A JUMPI PUSH2 0x1C2 JUMP JUMPDEST DUP1 PUSH4 0x43885314 GT PUSH2 0x164 JUMPI DUP1 PUSH4 0x5E383D21 GT PUSH2 0x13E JUMPI DUP1 PUSH4 0x5E383D21 EQ PUSH2 0x36F JUMPI DUP1 PUSH4 0x722713F7 EQ PUSH2 0x3AC JUMPI DUP1 PUSH4 0x760A8C2A EQ PUSH2 0x3D7 JUMPI DUP1 PUSH4 0x83197EF0 EQ PUSH2 0x3EE JUMPI PUSH2 0x1C2 JUMP JUMPDEST DUP1 PUSH4 0x43885314 EQ PUSH2 0x2DC JUMPI DUP1 PUSH4 0x4622AB03 EQ PUSH2 0x307 JUMPI DUP1 PUSH4 0x516DDE43 EQ PUSH2 0x344 JUMPI PUSH2 0x1C2 JUMP JUMPDEST DUP1 PUSH4 0x21CE5AFD GT PUSH2 0x1A0 JUMPI DUP1 PUSH4 0x21CE5AFD EQ PUSH2 0x234 JUMPI DUP1 PUSH4 0x25419C24 EQ PUSH2 0x25D JUMPI DUP1 PUSH4 0x3A40F3B2 EQ PUSH2 0x288 JUMPI DUP1 PUSH4 0x410459AD EQ PUSH2 0x2B3 JUMPI PUSH2 0x1C2 JUMP JUMPDEST DUP1 PUSH4 0xB97BC86 EQ PUSH2 0x1C7 JUMPI DUP1 PUSH4 0x109E94CF EQ PUSH2 0x1F2 JUMPI DUP1 PUSH4 0x12424E3F EQ PUSH2 0x21D JUMPI JUMPDEST PUSH1 0x0 DUP1 REVERT JUMPDEST CALLVALUE DUP1 ISZERO PUSH2 0x1D3 JUMPI PUSH1 0x0 DUP1 REVERT JUMPDEST POP PUSH2 0x1DC PUSH2 0x643 JUMP JUMPDEST PUSH1 0x40 MLOAD PUSH2 0x1E9 SWAP2 SWAP1 PUSH2 0x2E69 JUMP JUMPDEST PUSH1 0x40 MLOAD DUP1 SWAP2 SUB SWAP1 RETURN JUMPDEST CALLVALUE DUP1 ISZERO PUSH2 0x1FE JUMPI PUSH1 0x0 DUP1 REVERT JUMPDEST POP PUSH2 0x207 PUSH2 0x649 JUMP JUMPDEST PUSH1 0x40 MLOAD PUSH2 0x214 SWAP2 SWAP1 PUSH2 0x2B59 JUMP JUMPDEST PUSH1 0x40 MLOAD DUP1 SWAP2 SUB SWAP1 RETURN JUMPDEST CALLVALUE DUP1 ISZERO PUSH2 0x229 JUMPI PUSH1 0x0 DUP1 REVERT JUMPDEST POP PUSH2 0x232 PUSH2 0x66F JUMP JUMPDEST STOP JUMPDEST CALLVALUE DUP1 ISZERO PUSH2 0x240 JUMPI PUSH1 0x0 DUP1 REVERT JUMPDEST POP PUSH2 0x25B PUSH1 0x4 DUP1 CALLDATASIZE SUB DUP2 ADD SWAP1 PUSH2 0x256 SWAP2 SWAP1 PUSH2 0x254F JUMP JUMPDEST PUSH2 0x85E JUMP JUMPDEST STOP JUMPDEST CALLVALUE DUP1 ISZERO PUSH2 0x269 JUMPI PUSH1 0x0 DUP1 REVERT JUMPDEST POP PUSH2 0x272 PUSH2 0xA62 JUMP JUMPDEST PUSH1 0x40 MLOAD PUSH2 0x27F SWAP2 SWAP1 PUSH2 0x2E69 JUMP JUMPDEST PUSH1 0x40 MLOAD DUP1 SWAP2 SUB SWAP1 RETURN JUMPDEST CALLVALUE DUP1 ISZERO PUSH2 0x294 JUMPI PUSH1 0x0 DUP1 REVERT JUMPDEST POP PUSH2 0x29D PUSH2 0xA68 JUMP JUMPDEST PUSH1 0x40 MLOAD PUSH2 0x2AA SWAP2 SWAP1 PUSH2 0x2C26 JUMP JUMPDEST PUSH1 0x40 MLOAD DUP1 SWAP2 SUB SWAP1 RETURN JUMPDEST CALLVALUE DUP1 ISZERO PUSH2 0x2BF JUMPI PUSH1 0x0 DUP1 REVERT JUMPDEST POP PUSH2 0x2DA PUSH1 0x4 DUP1 CALLDATASIZE SUB DUP2 ADD SWAP1 PUSH2 0x2D5 SWAP2 SWAP1 PUSH2 0x24A7 JUMP JUMPDEST PUSH2 0xA7B JUMP JUMPDEST STOP JUMPDEST CALLVALUE DUP1 ISZERO PUSH2 0x2E8 JUMPI PUSH1 0x0 DUP1 REVERT JUMPDEST POP PUSH2 0x2F1 PUSH2 0xABF JUMP JUMPDEST PUSH1 0x40 MLOAD PUSH2 0x2FE SWAP2 SWAP1 PUSH2 0x2E69 JUMP JUMPDEST PUSH1 0x40 MLOAD DUP1 SWAP2 SUB SWAP1 RETURN JUMPDEST CALLVALUE DUP1 ISZERO PUSH2 0x313 JUMPI PUSH1 0x0 DUP1 REVERT JUMPDEST POP PUSH2 0x32E PUSH1 0x4 DUP1 CALLDATASIZE SUB DUP2 ADD SWAP1 PUSH2 0x329 SWAP2 SWAP1 PUSH2 0x2625 JUMP JUMPDEST PUSH2 0xAC5 JUMP JUMPDEST PUSH1 0x40 MLOAD PUSH2 0x33B SWAP2 SWAP1 PUSH2 0x2CD3 JUMP JUMPDEST PUSH1 0x40 MLOAD DUP1 SWAP2 SUB SWAP1 RETURN JUMPDEST CALLVALUE DUP1 ISZERO PUSH2 0x350 JUMPI PUSH1 0x0 DUP1 REVERT JUMPDEST POP PUSH2 0x359 PUSH2 0xB68 JUMP JUMPDEST PUSH1 0x40 MLOAD PUSH2 0x366 SWAP2 SWAP1 PUSH2 0x2E69 JUMP JUMPDEST PUSH1 0x40 MLOAD DUP1 SWAP2 SUB SWAP1 RETURN JUMPDEST CALLVALUE DUP1 ISZERO PUSH2 0x37B JUMPI PUSH1 0x0 DUP1 REVERT JUMPDEST POP PUSH2 0x396 PUSH1 0x4 DUP1 CALLDATASIZE SUB DUP2 ADD SWAP1 PUSH2 0x391 SWAP2 SWAP1 PUSH2 0x2625 JUMP JUMPDEST PUSH2 0xB6E JUMP JUMPDEST PUSH1 0x40 MLOAD PUSH2 0x3A3 SWAP2 SWAP1 PUSH2 0x2CB8 JUMP JUMPDEST PUSH1 0x40 MLOAD DUP1 SWAP2 SUB SWAP1 RETURN JUMPDEST CALLVALUE DUP1 ISZERO PUSH2 0x3B8 JUMPI PUSH1 0x0 DUP1 REVERT JUMPDEST POP PUSH2 0x3C1 PUSH2 0xB89 JUMP JUMPDEST PUSH1 0x40 MLOAD PUSH2 0x3CE SWAP2 SWAP1 PUSH2 0x2E69 JUMP JUMPDEST PUSH1 0x40 MLOAD DUP1 SWAP2 SUB SWAP1 RETURN JUMPDEST CALLVALUE DUP1 ISZERO PUSH2 0x3E3 JUMPI PUSH1 0x0 DUP1 REVERT JUMPDEST POP PUSH2 0x3EC PUSH2 0xB91 JUMP JUMPDEST STOP JUMPDEST CALLVALUE DUP1 ISZERO PUSH2 0x3FA JUMPI PUSH1 0x0 DUP1 REVERT JUMPDEST POP PUSH2 0x403 PUSH2 0xCD7 JUMP JUMPDEST STOP JUMPDEST PUSH2 0x40D PUSH2 0xE2A JUMP JUMPDEST STOP JUMPDEST CALLVALUE DUP1 ISZERO PUSH2 0x41B JUMPI PUSH1 0x0 DUP1 REVERT JUMPDEST POP PUSH2 0x424 PUSH2 0xFBE JUMP JUMPDEST PUSH1 0x40 MLOAD PUSH2 0x431 SWAP2 SWAP1 PUSH2 0x2E69 JUMP JUMPDEST PUSH1 0x40 MLOAD DUP1 SWAP2 SUB SWAP1 RETURN JUMPDEST CALLVALUE DUP1 ISZERO PUSH2 0x446 JUMPI PUSH1 0x0 DUP1 REVERT JUMPDEST POP PUSH2 0x44F PUSH2 0xFC4 JUMP JUMPDEST STOP JUMPDEST CALLVALUE DUP1 ISZERO PUSH2 0x45D JUMPI PUSH1 0x0 DUP1 REVERT JUMPDEST POP PUSH2 0x466 PUSH2 0x119B JUMP JUMPDEST PUSH1 0x40 MLOAD PUSH2 0x473 SWAP2 SWAP1 PUSH2 0x2C26 JUMP JUMPDEST PUSH1 0x40 MLOAD DUP1 SWAP2 SUB SWAP1 RETURN JUMPDEST CALLVALUE DUP1 ISZERO PUSH2 0x488 JUMPI PUSH1 0x0 DUP1 REVERT JUMPDEST POP PUSH2 0x4A3 PUSH1 0x4 DUP1 CALLDATASIZE SUB DUP2 ADD SWAP1 PUSH2 0x49E SWAP2 SWAP1 PUSH2 0x24D4 JUMP JUMPDEST PUSH2 0x11AE JUMP JUMPDEST STOP JUMPDEST CALLVALUE DUP1 ISZERO PUSH2 0x4B1 JUMPI PUSH1 0x0 DUP1 REVERT JUMPDEST POP PUSH2 0x4BA PUSH2 0x128D JUMP JUMPDEST STOP JUMPDEST CALLVALUE DUP1 ISZERO PUSH2 0x4C8 JUMPI PUSH1 0x0 DUP1 REVERT JUMPDEST POP PUSH2 0x4D1 PUSH2 0x1523 JUMP JUMPDEST PUSH1 0x40 MLOAD PUSH2 0x4DE SWAP2 SWAP1 PUSH2 0x2E69 JUMP JUMPDEST PUSH1 0x40 MLOAD DUP1 SWAP2 SUB SWAP1 RETURN JUMPDEST CALLVALUE DUP1 ISZERO PUSH2 0x4F3 JUMPI PUSH1 0x0 DUP1 REVERT JUMPDEST POP PUSH2 0x4FC PUSH2 0x1529 JUMP JUMPDEST PUSH1 0x40 MLOAD PUSH2 0x509 SWAP2 SWAP1 PUSH2 0x2B59 JUMP JUMPDEST PUSH1 0x40 MLOAD DUP1 SWAP2 SUB SWAP1 RETURN JUMPDEST CALLVALUE DUP1 ISZERO PUSH2 0x51E JUMPI PUSH1 0x0 DUP1 REVERT JUMPDEST POP PUSH2 0x527 PUSH2 0x154F JUMP JUMPDEST PUSH1 0x40 MLOAD PUSH2 0x534 SWAP2 SWAP1 PUSH2 0x2C9D JUMP JUMPDEST PUSH1 0x40 MLOAD DUP1 SWAP2 SUB SWAP1 RETURN JUMPDEST CALLVALUE DUP1 ISZERO PUSH2 0x549 JUMPI PUSH1 0x0 DUP1 REVERT JUMPDEST POP PUSH2 0x564 PUSH1 0x4 DUP1 CALLDATASIZE SUB DUP2 ADD SWAP1 PUSH2 0x55F SWAP2 SWAP1 PUSH2 0x2625 JUMP JUMPDEST PUSH2 0x1562 JUMP JUMPDEST PUSH1 0x40 MLOAD PUSH2 0x571 SWAP2 SWAP1 PUSH2 0x2CB8 JUMP JUMPDEST PUSH1 0x40 MLOAD DUP1 SWAP2 SUB SWAP1 RETURN JUMPDEST CALLVALUE DUP1 ISZERO PUSH2 0x586 JUMPI PUSH1 0x0 DUP1 REVERT JUMPDEST POP PUSH2 0x5A1 PUSH1 0x4 DUP1 CALLDATASIZE SUB DUP2 ADD SWAP1 PUSH2 0x59C SWAP2 SWAP1 PUSH2 0x254F JUMP JUMPDEST PUSH2 0x157D JUMP JUMPDEST STOP JUMPDEST CALLVALUE DUP1 ISZERO PUSH2 0x5AF JUMPI PUSH1 0x0 DUP1 REVERT JUMPDEST POP PUSH2 0x5B8 PUSH2 0x1716 JUMP JUMPDEST STOP JUMPDEST CALLVALUE DUP1 ISZERO PUSH2 0x5C6 JUMPI PUSH1 0x0 DUP1 REVERT JUMPDEST POP PUSH2 0x5CF PUSH2 0x185C JUMP JUMPDEST PUSH1 0x40 MLOAD PUSH2 0x5DC SWAP2 SWAP1 PUSH2 0x2B3E JUMP JUMPDEST PUSH1 0x40 MLOAD DUP1 SWAP2 SUB SWAP1 RETURN JUMPDEST CALLVALUE DUP1 ISZERO PUSH2 0x5F1 JUMPI PUSH1 0x0 DUP1 REVERT JUMPDEST POP PUSH2 0x60C PUSH1 0x4 DUP1 CALLDATASIZE SUB DUP2 ADD SWAP1 PUSH2 0x607 SWAP2 SWAP1 PUSH2 0x2598 JUMP JUMPDEST PUSH2 0x1880 JUMP JUMPDEST STOP JUMPDEST CALLVALUE DUP1 ISZERO PUSH2 0x61A JUMPI PUSH1 0x0 DUP1 REVERT JUMPDEST POP PUSH2 0x623 PUSH2 0x1C10 JUMP JUMPDEST PUSH1 0x40 MLOAD PUSH2 0x63A SWAP12 SWAP11 SWAP10 SWAP9 SWAP8 SWAP7 SWAP6 SWAP5 SWAP4 SWAP3 SWAP2 SWAP1 PUSH2 0x2B74 JUMP JUMPDEST PUSH1 0x40 MLOAD DUP1 SWAP2 SUB SWAP1 RETURN JUMPDEST PUSH1 0x3 SLOAD DUP2 JUMP JUMPDEST PUSH1 0x1 PUSH1 0x0 SWAP1 SLOAD SWAP1 PUSH2 0x100 EXP SWAP1 DIV PUSH20 0xFFFFFFFFFFFFFFFFFFFFFFFFFFFFFFFFFFFFFFFF AND DUP2 JUMP JUMPDEST PUSH1 0x1 PUSH32 0xDD970DD9B5BFE707922155B058A407655CB18288B807E2216442BCA8AD83D6B5 PUSH1 0x9 PUSH1 0x0 SWAP1 SLOAD SWAP1 PUSH2 0x100 EXP SWAP1 DIV PUSH1 0xFF AND PUSH1 0x4 DUP2 GT ISZERO PUSH2 0x6B4 JUMPI PUSH2 0x6B3 PUSH2 0x33B0 JUMP JUMPDEST JUMPDEST PUSH1 0x40 MLOAD PUSH2 0x6C1 SWAP2 SWAP1 PUSH2 0x2DCD JUMP JUMPDEST PUSH1 0x40 MLOAD DUP1 SWAP2 SUB SWAP1 LOG1 PUSH32 0xDD970DD9B5BFE707922155B058A407655CB18288B807E2216442BCA8AD83D6B5 DUP2 PUSH1 0x4 DUP2 GT ISZERO PUSH2 0x6FD JUMPI PUSH2 0x6FC PUSH2 0x33B0 JUMP JUMPDEST JUMPDEST PUSH1 0x40 MLOAD PUSH2 0x70A SWAP2 SWAP1 PUSH2 0x2DFB JUMP JUMPDEST PUSH1 0x40 MLOAD DUP1 SWAP2 SUB SWAP1 LOG1 DUP1 PUSH1 0x4 DUP2 GT ISZERO PUSH2 0x725 JUMPI PUSH2 0x724 PUSH2 0x33B0 JUMP JUMPDEST JUMPDEST PUSH1 0x9 PUSH1 0x0 SWAP1 SLOAD SWAP1 PUSH2 0x100 EXP SWAP1 DIV PUSH1 0xFF AND PUSH1 0x4 DUP2 GT ISZERO PUSH2 0x747 JUMPI PUSH2 0x746 PUSH2 0x33B0 JUMP JUMPDEST JUMPDEST EQ PUSH2 0x787 JUMPI PUSH1 0x40 MLOAD PUSH32 0x8C379A000000000000000000000000000000000000000000000000000000000 DUP2 MSTORE PUSH1 0x4 ADD PUSH2 0x77E SWAP1 PUSH2 0x2E49 JUMP JUMPDEST PUSH1 0x40 MLOAD DUP1 SWAP2 SUB SWAP1 REVERT JUMPDEST PUSH1 0x0 DUP1 SLOAD SWAP1 PUSH2 0x100 EXP SWAP1 DIV PUSH20 0xFFFFFFFFFFFFFFFFFFFFFFFFFFFFFFFFFFFFFFFF AND PUSH20 0xFFFFFFFFFFFFFFFFFFFFFFFFFFFFFFFFFFFFFFFF AND CALLER PUSH20 0xFFFFFFFFFFFFFFFFFFFFFFFFFFFFFFFFFFFFFFFF AND EQ PUSH2 0x815 JUMPI PUSH1 0x40 MLOAD PUSH32 0x8C379A000000000000000000000000000000000000000000000000000000000 DUP2 MSTORE PUSH1 0x4 ADD PUSH2 0x80C SWAP1 PUSH2 0x2D23 JUMP JUMPDEST PUSH1 0x40 MLOAD DUP1 SWAP2 SUB SWAP1 REVERT JUMPDEST PUSH1 0x1 PUSH1 0x2 PUSH1 0x14 PUSH2 0x100 EXP DUP2 SLOAD DUP2 PUSH1 0xFF MUL NOT AND SWAP1 DUP4 ISZERO ISZERO MUL OR SWAP1 SSTORE POP PUSH1 0x3 PUSH1 0x9 PUSH1 0x0 PUSH2 0x100 EXP DUP2 SLOAD DUP2 PUSH1 0xFF MUL NOT AND SWAP1 DUP4 PUSH1 0x4 DUP2 GT ISZERO PUSH2 0x856 JUMPI PUSH2 0x855 PUSH2 0x33B0 JUMP JUMPDEST JUMPDEST MUL OR SWAP1 SSTORE POP POP JUMP JUMPDEST PUSH1 0x3 PUSH32 0xDD970DD9B5BFE707922155B058A407655CB18288B807E2216442BCA8AD83D6B5 PUSH1 0x9 PUSH1 0x0 SWAP1 SLOAD SWAP1 PUSH2 0x100 EXP SWAP1 DIV PUSH1 0xFF AND PUSH1 0x4 DUP2 GT ISZERO PUSH2 0x8A3 JUMPI PUSH2 0x8A2 PUSH2 0x33B0 JUMP JUMPDEST JUMPDEST PUSH1 0x40 MLOAD PUSH2 0x8B0 SWAP2 SWAP1 PUSH2 0x2DCD JUMP JUMPDEST PUSH1 0x40 MLOAD DUP1 SWAP2 SUB SWAP1 LOG1 PUSH32 0xDD970DD9B5BFE707922155B058A407655CB18288B807E2216442BCA8AD83D6B5 DUP2 PUSH1 0x4 DUP2 GT ISZERO PUSH2 0x8EC JUMPI PUSH2 0x8EB PUSH2 0x33B0 JUMP JUMPDEST JUMPDEST PUSH1 0x40 MLOAD PUSH2 0x8F9 SWAP2 SWAP1 PUSH2 0x2DFB JUMP JUMPDEST PUSH1 0x40 MLOAD DUP1 SWAP2 SUB SWAP1 LOG1 DUP1 PUSH1 0x4 DUP2 GT ISZERO PUSH2 0x914 JUMPI PUSH2 0x913 PUSH2 0x33B0 JUMP JUMPDEST JUMPDEST PUSH1 0x9 PUSH1 0x0 SWAP1 SLOAD SWAP1 PUSH2 0x100 EXP SWAP1 DIV PUSH1 0xFF AND PUSH1 0x4 DUP2 GT ISZERO PUSH2 0x936 JUMPI PUSH2 0x935 PUSH2 0x33B0 JUMP JUMPDEST JUMPDEST EQ PUSH2 0x976 JUMPI PUSH1 0x40 MLOAD PUSH32 0x8C379A000000000000000000000000000000000000000000000000000000000 DUP2 MSTORE PUSH1 0x4 ADD PUSH2 0x96D SWAP1 PUSH2 0x2E49 JUMP JUMPDEST PUSH1 0x40 MLOAD DUP1 SWAP2 SUB SWAP1 REVERT JUMPDEST PUSH1 0x7 SLOAD NUMBER GT ISZERO PUSH2 0x98D JUMPI PUSH2 0x988 PUSH2 0x128D JUMP JUMPDEST PUSH2 0xA5E JUMP JUMPDEST PUSH1 0x6 SLOAD NUMBER LT ISZERO DUP1 ISZERO PUSH2 0x9A1 JUMPI POP PUSH1 0x7 SLOAD NUMBER GT ISZERO JUMPDEST PUSH2 0x9E0 JUMPI PUSH1 0x40 MLOAD PUSH32 0x8C379A000000000000000000000000000000000000000000000000000000000 DUP2 MSTORE PUSH1 0x4 ADD PUSH2 0x9D7 SWAP1 PUSH2 0x2E29 JUMP JUMPDEST PUSH1 0x40 MLOAD DUP1 SWAP2 SUB SWAP1 REVERT JUMPDEST PUSH1 0x0 JUMPDEST PUSH1 0x23 SLOAD DUP2 LT ISZERO PUSH2 0xA44 JUMPI DUP3 DUP2 DUP2 MLOAD DUP2 LT PUSH2 0xA00 JUMPI PUSH2 0x9FF PUSH2 0x340E JUMP JUMPDEST JUMPDEST PUSH1 0x20 MUL PUSH1 0x20 ADD ADD MLOAD PUSH1 0x24 PUSH1 0x0 DUP4 DUP2 MSTORE PUSH1 0x20 ADD SWAP1 DUP2 MSTORE PUSH1 0x20 ADD PUSH1 0x0 KECCAK256 PUSH1 0x0 DUP3 DUP3 SLOAD PUSH2 0xA2A SWAP2 SWAP1 PUSH2 0x2FE4 JUMP JUMPDEST SWAP3 POP POP DUP2 SWAP1 SSTORE POP DUP1 DUP1 PUSH2 0xA3C SWAP1 PUSH2 0x3309 JUMP JUMPDEST SWAP2 POP POP PUSH2 0x9E3 JUMP JUMPDEST POP PUSH1 0x25 PUSH1 0x0 DUP2 SLOAD DUP1 SWAP3 SWAP2 SWAP1 PUSH2 0xA58 SWAP1 PUSH2 0x32C0 JUMP JUMPDEST SWAP2 SWAP1 POP SSTORE POP JUMPDEST POP POP JUMP JUMPDEST PUSH1 0x6 SLOAD DUP2 JUMP JUMPDEST PUSH1 0x9 PUSH1 0x1 SWAP1 SLOAD SWAP1 PUSH2 0x100 EXP SWAP1 DIV PUSH1 0xFF AND DUP2 JUMP JUMPDEST DUP1 PUSH1 0x2 PUSH1 0x0 PUSH2 0x100 EXP DUP2 SLOAD DUP2 PUSH20 0xFFFFFFFFFFFFFFFFFFFFFFFFFFFFFFFFFFFFFFFF MUL NOT AND SWAP1 DUP4 PUSH20 0xFFFFFFFFFFFFFFFFFFFFFFFFFFFFFFFFFFFFFFFF AND MUL OR SWAP1 SSTORE POP POP JUMP JUMPDEST PUSH1 0x7 SLOAD DUP2 JUMP JUMPDEST PUSH1 0xA DUP2 PUSH1 0x8 DUP2 LT PUSH2 0xAD5 JUMPI PUSH1 0x0 DUP1 REVERT JUMPDEST ADD PUSH1 0x0 SWAP2 POP SWAP1 POP DUP1 SLOAD PUSH2 0xAE7 SWAP1 PUSH2 0x325D JUMP JUMPDEST DUP1 PUSH1 0x1F ADD PUSH1 0x20 DUP1 SWAP2 DIV MUL PUSH1 0x20 ADD PUSH1 0x40 MLOAD SWAP1 DUP2 ADD PUSH1 0x40 MSTORE DUP1 SWAP3 SWAP2 SWAP1 DUP2 DUP2 MSTORE PUSH1 0x20 ADD DUP3 DUP1 SLOAD PUSH2 0xB13 SWAP1 PUSH2 0x325D JUMP JUMPDEST DUP1 ISZERO PUSH2 0xB60 JUMPI DUP1 PUSH1 0x1F LT PUSH2 0xB35 JUMPI PUSH2 0x100 DUP1 DUP4 SLOAD DIV MUL DUP4 MSTORE SWAP2 PUSH1 0x20 ADD SWAP2 PUSH2 0xB60 JUMP JUMPDEST DUP3 ADD SWAP2 SWAP1 PUSH1 0x0 MSTORE PUSH1 0x20 PUSH1 0x0 KECCAK256 SWAP1 JUMPDEST DUP2 SLOAD DUP2 MSTORE SWAP1 PUSH1 0x1 ADD SWAP1 PUSH1 0x20 ADD DUP1 DUP4 GT PUSH2 0xB43 JUMPI DUP3 SWAP1 SUB PUSH1 0x1F AND DUP3 ADD SWAP2 JUMPDEST POP POP POP POP POP DUP2 JUMP JUMPDEST PUSH1 0x4 SLOAD DUP2 JUMP JUMPDEST PUSH1 0x12 DUP2 PUSH1 0x8 DUP2 LT PUSH2 0xB7E JUMPI PUSH1 0x0 DUP1 REVERT JUMPDEST ADD PUSH1 0x0 SWAP2 POP SWAP1 POP SLOAD DUP2 JUMP JUMPDEST PUSH1 0x0 SELFBALANCE SWAP1 POP SWAP1 JUMP JUMPDEST PUSH1 0x2 PUSH32 0xDD970DD9B5BFE707922155B058A407655CB18288B807E2216442BCA8AD83D6B5 PUSH1 0x9 PUSH1 0x0 SWAP1 SLOAD SWAP1 PUSH2 0x100 EXP SWAP1 DIV PUSH1 0xFF AND PUSH1 0x4 DUP2 GT ISZERO PUSH2 0xBD6 JUMPI PUSH2 0xBD5 PUSH2 0x33B0 JUMP JUMPDEST JUMPDEST PUSH1 0x40 MLOAD PUSH2 0xBE3 SWAP2 SWAP1 PUSH2 0x2DCD JUMP JUMPDEST PUSH1 0x40 MLOAD DUP1 SWAP2 SUB SWAP1 LOG1 PUSH32 0xDD970DD9B5BFE707922155B058A407655CB18288B807E2216442BCA8AD83D6B5 DUP2 PUSH1 0x4 DUP2 GT ISZERO PUSH2 0xC1F JUMPI PUSH2 0xC1E PUSH2 0x33B0 JUMP JUMPDEST JUMPDEST PUSH1 0x40 MLOAD PUSH2 0xC2C SWAP2 SWAP1 PUSH2 0x2DFB JUMP JUMPDEST PUSH1 0x40 MLOAD DUP1 SWAP2 SUB SWAP1 LOG1 DUP1 PUSH1 0x4 DUP2 GT ISZERO PUSH2 0xC47 JUMPI PUSH2 0xC46 PUSH2 0x33B0 JUMP JUMPDEST JUMPDEST PUSH1 0x9 PUSH1 0x0 SWAP1 SLOAD SWAP1 PUSH2 0x100 EXP SWAP1 DIV PUSH1 0xFF AND PUSH1 0x4 DUP2 GT ISZERO PUSH2 0xC69 JUMPI PUSH2 0xC68 PUSH2 0x33B0 JUMP JUMPDEST JUMPDEST EQ PUSH2 0xCA9 JUMPI PUSH1 0x40 MLOAD PUSH32 0x8C379A000000000000000000000000000000000000000000000000000000000 DUP2 MSTORE PUSH1 0x4 ADD PUSH2 0xCA0 SWAP1 PUSH2 0x2E49 JUMP JUMPDEST PUSH1 0x40 MLOAD DUP1 SWAP2 SUB SWAP1 REVERT JUMPDEST PUSH1 0x3 PUSH1 0x9 PUSH1 0x0 PUSH2 0x100 EXP DUP2 SLOAD DUP2 PUSH1 0xFF MUL NOT AND SWAP1 DUP4 PUSH1 0x4 DUP2 GT ISZERO PUSH2 0xCCF JUMPI PUSH2 0xCCE PUSH2 0x33B0 JUMP JUMPDEST JUMPDEST MUL OR SWAP1 SSTORE POP POP JUMP JUMPDEST PUSH1 0x2 PUSH32 0xDD970DD9B5BFE707922155B058A407655CB18288B807E2216442BCA8AD83D6B5 PUSH1 0x9 PUSH1 0x0 SWAP1 SLOAD SWAP1 PUSH2 0x100 EXP SWAP1 DIV PUSH1 0xFF AND PUSH1 0x4 DUP2 GT ISZERO PUSH2 0xD1C JUMPI PUSH2 0xD1B PUSH2 0x33B0 JUMP JUMPDEST JUMPDEST PUSH1 0x40 MLOAD PUSH2 0xD29 SWAP2 SWAP1 PUSH2 0x2DCD JUMP JUMPDEST PUSH1 0x40 MLOAD DUP1 SWAP2 SUB SWAP1 LOG1 PUSH32 0xDD970DD9B5BFE707922155B058A407655CB18288B807E2216442BCA8AD83D6B5 DUP2 PUSH1 0x4 DUP2 GT ISZERO PUSH2 0xD65 JUMPI PUSH2 0xD64 PUSH2 0x33B0 JUMP JUMPDEST JUMPDEST PUSH1 0x40 MLOAD PUSH2 0xD72 SWAP2 SWAP1 PUSH2 0x2DFB JUMP JUMPDEST PUSH1 0x40 MLOAD DUP1 SWAP2 SUB SWAP1 LOG1 DUP1 PUSH1 0x4 DUP2 GT ISZERO PUSH2 0xD8D JUMPI PUSH2 0xD8C PUSH2 0x33B0 JUMP JUMPDEST JUMPDEST PUSH1 0x9 PUSH1 0x0 SWAP1 SLOAD SWAP1 PUSH2 0x100 EXP SWAP1 DIV PUSH1 0xFF AND PUSH1 0x4 DUP2 GT ISZERO PUSH2 0xDAF JUMPI PUSH2 0xDAE PUSH2 0x33B0 JUMP JUMPDEST JUMPDEST EQ PUSH2 0xDEF JUMPI PUSH1 0x40 MLOAD PUSH32 0x8C379A000000000000000000000000000000000000000000000000000000000 DUP2 MSTORE PUSH1 0x4 ADD PUSH2 0xDE6 SWAP1 PUSH2 0x2E49 JUMP JUMPDEST PUSH1 0x40 MLOAD DUP1 SWAP2 SUB SWAP1 REVERT JUMPDEST PUSH1 0x1 PUSH1 0x0 SWAP1 SLOAD SWAP1 PUSH2 0x100 EXP SWAP1 DIV PUSH20 0xFFFFFFFFFFFFFFFFFFFFFFFFFFFFFFFFFFFFFFFF AND PUSH20 0xFFFFFFFFFFFFFFFFFFFFFFFFFFFFFFFFFFFFFFFF AND SELFDESTRUCT JUMPDEST PUSH1 0x3 PUSH32 0xDD970DD9B5BFE707922155B058A407655CB18288B807E2216442BCA8AD83D6B5 PUSH1 0x9 PUSH1 0x0 SWAP1 SLOAD SWAP1 PUSH2 0x100 EXP SWAP1 DIV PUSH1 0xFF AND PUSH1 0x4 DUP2 GT ISZERO PUSH2 0xE6F JUMPI PUSH2 0xE6E PUSH2 0x33B0 JUMP JUMPDEST JUMPDEST PUSH1 0x40 MLOAD PUSH2 0xE7C SWAP2 SWAP1 PUSH2 0x2DCD JUMP JUMPDEST PUSH1 0x40 MLOAD DUP1 SWAP2 SUB SWAP1 LOG1 PUSH32 0xDD970DD9B5BFE707922155B058A407655CB18288B807E2216442BCA8AD83D6B5 DUP2 PUSH1 0x4 DUP2 GT ISZERO PUSH2 0xEB8 JUMPI PUSH2 0xEB7 PUSH2 0x33B0 JUMP JUMPDEST JUMPDEST PUSH1 0x40 MLOAD PUSH2 0xEC5 SWAP2 SWAP1 PUSH2 0x2DFB JUMP JUMPDEST PUSH1 0x40 MLOAD DUP1 SWAP2 SUB SWAP1 LOG1 DUP1 PUSH1 0x4 DUP2 GT ISZERO PUSH2 0xEE0 JUMPI PUSH2 0xEDF PUSH2 0x33B0 JUMP JUMPDEST JUMPDEST PUSH1 0x9 PUSH1 0x0 SWAP1 SLOAD SWAP1 PUSH2 0x100 EXP SWAP1 DIV PUSH1 0xFF AND PUSH1 0x4 DUP2 GT ISZERO PUSH2 0xF02 JUMPI PUSH2 0xF01 PUSH2 0x33B0 JUMP JUMPDEST JUMPDEST EQ PUSH2 0xF42 JUMPI PUSH1 0x40 MLOAD PUSH32 0x8C379A000000000000000000000000000000000000000000000000000000000 DUP2 MSTORE PUSH1 0x4 ADD PUSH2 0xF39 SWAP1 PUSH2 0x2E49 JUMP JUMPDEST PUSH1 0x40 MLOAD DUP1 SWAP2 SUB SWAP1 REVERT JUMPDEST PUSH1 0x7 SLOAD NUMBER GT ISZERO PUSH2 0xF59 JUMPI PUSH2 0xF54 PUSH2 0x128D JUMP JUMPDEST PUSH2 0xFBB JUMP JUMPDEST PUSH1 0x6 SLOAD NUMBER LT ISZERO DUP1 ISZERO PUSH2 0xF6D JUMPI POP PUSH1 0x7 SLOAD NUMBER GT ISZERO JUMPDEST PUSH2 0xFAC JUMPI PUSH1 0x40 MLOAD PUSH32 0x8C379A000000000000000000000000000000000000000000000000000000000 DUP2 MSTORE PUSH1 0x4 ADD PUSH2 0xFA3 SWAP1 PUSH2 0x2E29 JUMP JUMPDEST PUSH1 0x40 MLOAD DUP1 SWAP2 SUB SWAP1 REVERT JUMPDEST PUSH1 0x5 SLOAD CALLVALUE EQ PUSH2 0xFBA JUMPI PUSH1 0x0 DUP1 REVERT JUMPDEST JUMPDEST POP JUMP JUMPDEST PUSH1 0x8 SLOAD DUP2 JUMP JUMPDEST PUSH1 0x0 PUSH32 0xDD970DD9B5BFE707922155B058A407655CB18288B807E2216442BCA8AD83D6B5 PUSH1 0x9 PUSH1 0x0 SWAP1 SLOAD SWAP1 PUSH2 0x100 EXP SWAP1 DIV PUSH1 0xFF AND PUSH1 0x4 DUP2 GT ISZERO PUSH2 0x1009 JUMPI PUSH2 0x1008 PUSH2 0x33B0 JUMP JUMPDEST JUMPDEST PUSH1 0x40 MLOAD PUSH2 0x1016 SWAP2 SWAP1 PUSH2 0x2DCD JUMP JUMPDEST PUSH1 0x40 MLOAD DUP1 SWAP2 SUB SWAP1 LOG1 PUSH32 0xDD970DD9B5BFE707922155B058A407655CB18288B807E2216442BCA8AD83D6B5 DUP2 PUSH1 0x4 DUP2 GT ISZERO PUSH2 0x1052 JUMPI PUSH2 0x1051 PUSH2 0x33B0 JUMP JUMPDEST JUMPDEST PUSH1 0x40 MLOAD PUSH2 0x105F SWAP2 SWAP1 PUSH2 0x2DFB JUMP JUMPDEST PUSH1 0x40 MLOAD DUP1 SWAP2 SUB SWAP1 LOG1 DUP1 PUSH1 0x4 DUP2 GT ISZERO PUSH2 0x107A JUMPI PUSH2 0x1079 PUSH2 0x33B0 JUMP JUMPDEST JUMPDEST PUSH1 0x9 PUSH1 0x0 SWAP1 SLOAD SWAP1 PUSH2 0x100 EXP SWAP1 DIV PUSH1 0xFF AND PUSH1 0x4 DUP2 GT ISZERO PUSH2 0x109C JUMPI PUSH2 0x109B PUSH2 0x33B0 JUMP JUMPDEST JUMPDEST EQ PUSH2 0x10DC JUMPI PUSH1 0x40 MLOAD PUSH32 0x8C379A000000000000000000000000000000000000000000000000000000000 DUP2 MSTORE PUSH1 0x4 ADD PUSH2 0x10D3 SWAP1 PUSH2 0x2E49 JUMP JUMPDEST PUSH1 0x40 MLOAD DUP1 SWAP2 SUB SWAP1 REVERT JUMPDEST PUSH32 0xDD970DD9B5BFE707922155B058A407655CB18288B807E2216442BCA8AD83D6B5 PUSH1 0x9 PUSH1 0x0 SWAP1 SLOAD SWAP1 PUSH2 0x100 EXP SWAP1 DIV PUSH1 0xFF AND PUSH1 0x4 DUP2 GT ISZERO PUSH2 0x111F JUMPI PUSH2 0x111E PUSH2 0x33B0 JUMP JUMPDEST JUMPDEST PUSH1 0x40 MLOAD PUSH2 0x112C SWAP2 SWAP1 PUSH2 0x2D9F JUMP JUMPDEST PUSH1 0x40 MLOAD DUP1 SWAP2 SUB SWAP1 LOG1 PUSH1 0x1 PUSH1 0x9 PUSH1 0x0 PUSH2 0x100 EXP DUP2 SLOAD DUP2 PUSH1 0xFF MUL NOT AND SWAP1 DUP4 PUSH1 0x4 DUP2 GT ISZERO PUSH2 0x115A JUMPI PUSH2 0x1159 PUSH2 0x33B0 JUMP JUMPDEST JUMPDEST MUL OR SWAP1 SSTORE POP PUSH1 0x0 JUMPDEST PUSH1 0x8 DUP2 LT ISZERO PUSH2 0x1197 JUMPI PUSH1 0x0 PUSH1 0x24 PUSH1 0x0 DUP4 DUP2 MSTORE PUSH1 0x20 ADD SWAP1 DUP2 MSTORE PUSH1 0x20 ADD PUSH1 0x0 KECCAK256 DUP2 SWAP1 SSTORE POP DUP1 DUP1 PUSH2 0x118F SWAP1 PUSH2 0x3309 JUMP JUMPDEST SWAP2 POP POP PUSH2 0x1162 JUMP JUMPDEST POP POP JUMP JUMPDEST PUSH1 0x2 PUSH1 0x14 SWAP1 SLOAD SWAP1 PUSH2 0x100 EXP SWAP1 DIV PUSH1 0xFF AND DUP2 JUMP JUMPDEST CALLER PUSH1 0x0 DUP1 PUSH2 0x100 EXP DUP2 SLOAD DUP2 PUSH20 0xFFFFFFFFFFFFFFFFFFFFFFFFFFFFFFFFFFFFFFFF MUL NOT AND SWAP1 DUP4 PUSH20 0xFFFFFFFFFFFFFFFFFFFFFFFFFFFFFFFFFFFFFFFF AND MUL OR SWAP1 SSTORE POP DUP5 PUSH1 0x1 PUSH1 0x0 PUSH2 0x100 EXP DUP2 SLOAD DUP2 PUSH20 0xFFFFFFFFFFFFFFFFFFFFFFFFFFFFFFFFFFFFFFFF MUL NOT AND SWAP1 DUP4 PUSH20 0xFFFFFFFFFFFFFFFFFFFFFFFFFFFFFFFFFFFFFFFF AND MUL OR SWAP1 SSTORE POP PUSH2 0x1238 DUP5 PUSH2 0x1DF4 JUMP JUMPDEST PUSH1 0x4 DUP2 SWAP1 SSTORE POP PUSH1 0x0 PUSH1 0x3 DUP2 SWAP1 SSTORE POP PUSH2 0x124F DUP4 PUSH2 0x1DF4 JUMP JUMPDEST PUSH1 0x6 DUP2 SWAP1 SSTORE POP PUSH2 0x126A PUSH1 0x1E DUP5 PUSH2 0x1265 SWAP2 SWAP1 PUSH2 0x3078 JUMP JUMPDEST PUSH2 0x1DF4 JUMP JUMPDEST PUSH1 0x7 DUP2 SWAP1 SSTORE POP DUP2 PUSH1 0x8 DUP2 SWAP1 SSTORE POP DUP1 PUSH1 0x5 DUP2 SWAP1 SSTORE POP PUSH2 0x1286 PUSH2 0x1E16 JUMP JUMPDEST POP POP POP POP POP JUMP JUMPDEST PUSH1 0x3 PUSH32 0xDD970DD9B5BFE707922155B058A407655CB18288B807E2216442BCA8AD83D6B5 PUSH1 0x9 PUSH1 0x0 SWAP1 SLOAD SWAP1 PUSH2 0x100 EXP SWAP1 DIV PUSH1 0xFF AND PUSH1 0x4 DUP2 GT ISZERO PUSH2 0x12D2 JUMPI PUSH2 0x12D1 PUSH2 0x33B0 JUMP JUMPDEST JUMPDEST PUSH1 0x40 MLOAD PUSH2 0x12DF SWAP2 SWAP1 PUSH2 0x2DCD JUMP JUMPDEST PUSH1 0x40 MLOAD DUP1 SWAP2 SUB SWAP1 LOG1 PUSH32 0xDD970DD9B5BFE707922155B058A407655CB18288B807E2216442BCA8AD83D6B5 DUP2 PUSH1 0x4 DUP2 GT ISZERO PUSH2 0x131B JUMPI PUSH2 0x131A PUSH2 0x33B0 JUMP JUMPDEST JUMPDEST PUSH1 0x40 MLOAD PUSH2 0x1328 SWAP2 SWAP1 PUSH2 0x2DFB JUMP JUMPDEST PUSH1 0x40 MLOAD DUP1 SWAP2 SUB SWAP1 LOG1 DUP1 PUSH1 0x4 DUP2 GT ISZERO PUSH2 0x1343 JUMPI PUSH2 0x1342 PUSH2 0x33B0 JUMP JUMPDEST JUMPDEST PUSH1 0x9 PUSH1 0x0 SWAP1 SLOAD SWAP1 PUSH2 0x100 EXP SWAP1 DIV PUSH1 0xFF AND PUSH1 0x4 DUP2 GT ISZERO PUSH2 0x1365 JUMPI PUSH2 0x1364 PUSH2 0x33B0 JUMP JUMPDEST JUMPDEST EQ PUSH2 0x13A5 JUMPI PUSH1 0x40 MLOAD PUSH32 0x8C379A000000000000000000000000000000000000000000000000000000000 DUP2 MSTORE PUSH1 0x4 ADD PUSH2 0x139C SWAP1 PUSH2 0x2E49 JUMP JUMPDEST PUSH1 0x40 MLOAD DUP1 SWAP2 SUB SWAP1 REVERT JUMPDEST PUSH1 0x0 JUMPDEST PUSH1 0x23 SLOAD DUP2 LT ISZERO PUSH2 0x149E JUMPI PUSH1 0x0 PUSH1 0x1A DUP3 PUSH1 0x8 DUP2 LT PUSH2 0x13C8 JUMPI PUSH2 0x13C7 PUSH2 0x340E JUMP JUMPDEST JUMPDEST ADD SLOAD SWAP1 POP PUSH1 0x0 PUSH1 0x12 DUP4 PUSH1 0x8 DUP2 LT PUSH2 0x13E2 JUMPI PUSH2 0x13E1 PUSH2 0x340E JUMP JUMPDEST JUMPDEST ADD SLOAD SWAP1 POP PUSH1 0x0 PUSH1 0x25 SLOAD PUSH1 0x24 PUSH1 0x0 DUP7 DUP2 MSTORE PUSH1 0x20 ADD SWAP1 DUP2 MSTORE PUSH1 0x20 ADD PUSH1 0x0 KECCAK256 SLOAD PUSH2 0x1409 SWAP2 SWAP1 PUSH2 0x30CE JUMP JUMPDEST SWAP1 POP PUSH2 0x1416 DUP4 DUP3 DUP5 PUSH2 0x1EE4 JUMP JUMPDEST PUSH2 0x1488 JUMPI PUSH2 0x1422 PUSH2 0x1F6E JUMP JUMPDEST CALLER PUSH20 0xFFFFFFFFFFFFFFFFFFFFFFFFFFFFFFFFFFFFFFFF AND PUSH32 0xA84226BF2D14BDE3FAC454F52EAEAB63AAEB1934DA88F9263DD4FF7DD12ACF71 PUSH1 0x9 PUSH1 0x1 SWAP1 SLOAD SWAP1 PUSH2 0x100 EXP SWAP1 DIV PUSH1 0xFF AND PUSH1 0x40 MLOAD PUSH2 0x1477 SWAP2 SWAP1 PUSH2 0x2C41 JUMP JUMPDEST PUSH1 0x40 MLOAD DUP1 SWAP2 SUB SWAP1 LOG2 POP POP POP POP PUSH2 0x1520 JUMP JUMPDEST POP POP POP DUP1 DUP1 PUSH2 0x1496 SWAP1 PUSH2 0x3309 JUMP JUMPDEST SWAP2 POP POP PUSH2 0x13A8 JUMP JUMPDEST POP PUSH1 0x1 PUSH1 0x9 PUSH1 0x1 PUSH2 0x100 EXP DUP2 SLOAD DUP2 PUSH1 0xFF MUL NOT AND SWAP1 DUP4 ISZERO ISZERO MUL OR SWAP1 SSTORE POP CALLER PUSH20 0xFFFFFFFFFFFFFFFFFFFFFFFFFFFFFFFFFFFFFFFF AND PUSH32 0xA84226BF2D14BDE3FAC454F52EAEAB63AAEB1934DA88F9263DD4FF7DD12ACF71 PUSH1 0x9 PUSH1 0x1 SWAP1 SLOAD SWAP1 PUSH2 0x100 EXP SWAP1 DIV PUSH1 0xFF AND PUSH1 0x40 MLOAD PUSH2 0x150F SWAP2 SWAP1 PUSH2 0x2C6F JUMP JUMPDEST PUSH1 0x40 MLOAD DUP1 SWAP2 SUB SWAP1 LOG2 PUSH2 0x151F PUSH2 0x1FFE JUMP JUMPDEST JUMPDEST POP JUMP JUMPDEST PUSH1 0x5 SLOAD DUP2 JUMP JUMPDEST PUSH1 0x2 PUSH1 0x0 SWAP1 SLOAD SWAP1 PUSH2 0x100 EXP SWAP1 DIV PUSH20 0xFFFFFFFFFFFFFFFFFFFFFFFFFFFFFFFFFFFFFFFF AND DUP2 JUMP JUMPDEST PUSH1 0x9 PUSH1 0x0 SWAP1 SLOAD SWAP1 PUSH2 0x100 EXP SWAP1 DIV PUSH1 0xFF AND DUP2 JUMP JUMPDEST PUSH1 0x1A DUP2 PUSH1 0x8 DUP2 LT PUSH2 0x1572 JUMPI PUSH1 0x0 DUP1 REVERT JUMPDEST ADD PUSH1 0x0 SWAP2 POP SWAP1 POP SLOAD DUP2 JUMP JUMPDEST PUSH1 0x3 PUSH32 0xDD970DD9B5BFE707922155B058A407655CB18288B807E2216442BCA8AD83D6B5 PUSH1 0x9 PUSH1 0x0 SWAP1 SLOAD SWAP1 PUSH2 0x100 EXP SWAP1 DIV PUSH1 0xFF AND PUSH1 0x4 DUP2 GT ISZERO PUSH2 0x15C2 JUMPI PUSH2 0x15C1 PUSH2 0x33B0 JUMP JUMPDEST JUMPDEST PUSH1 0x40 MLOAD PUSH2 0x15CF SWAP2 SWAP1 PUSH2 0x2DCD JUMP JUMPDEST PUSH1 0x40 MLOAD DUP1 SWAP2 SUB SWAP1 LOG1 PUSH32 0xDD970DD9B5BFE707922155B058A407655CB18288B807E2216442BCA8AD83D6B5 DUP2 PUSH1 0x4 DUP2 GT ISZERO PUSH2 0x160B JUMPI PUSH2 0x160A PUSH2 0x33B0 JUMP JUMPDEST JUMPDEST PUSH1 0x40 MLOAD PUSH2 0x1618 SWAP2 SWAP1 PUSH2 0x2DFB JUMP JUMPDEST PUSH1 0x40 MLOAD DUP1 SWAP2 SUB SWAP1 LOG1 DUP1 PUSH1 0x4 DUP2 GT ISZERO PUSH2 0x1633 JUMPI PUSH2 0x1632 PUSH2 0x33B0 JUMP JUMPDEST JUMPDEST PUSH1 0x9 PUSH1 0x0 SWAP1 SLOAD SWAP1 PUSH2 0x100 EXP SWAP1 DIV PUSH1 0xFF AND PUSH1 0x4 DUP2 GT ISZERO PUSH2 0x1655 JUMPI PUSH2 0x1654 PUSH2 0x33B0 JUMP JUMPDEST JUMPDEST EQ PUSH2 0x1695 JUMPI PUSH1 0x40 MLOAD PUSH32 0x8C379A000000000000000000000000000000000000000000000000000000000 DUP2 MSTORE PUSH1 0x4 ADD PUSH2 0x168C SWAP1 PUSH2 0x2E49 JUMP JUMPDEST PUSH1 0x40 MLOAD DUP1 SWAP2 SUB SWAP1 REVERT JUMPDEST PUSH1 0x0 JUMPDEST PUSH1 0x23 SLOAD DUP2 LT ISZERO PUSH2 0x16F9 JUMPI DUP3 DUP2 DUP2 MLOAD DUP2 LT PUSH2 0x16B5 JUMPI PUSH2 0x16B4 PUSH2 0x340E JUMP JUMPDEST JUMPDEST PUSH1 0x20 MUL PUSH1 0x20 ADD ADD MLOAD PUSH1 0x24 PUSH1 0x0 DUP4 DUP2 MSTORE PUSH1 0x20 ADD SWAP1 DUP2 MSTORE PUSH1 0x20 ADD PUSH1 0x0 KECCAK256 PUSH1 0x0 DUP3 DUP3 SLOAD PUSH2 0x16DF SWAP2 SWAP1 PUSH2 0x2FE4 JUMP JUMPDEST SWAP3 POP POP DUP2 SWAP1 SSTORE POP DUP1 DUP1 PUSH2 0x16F1 SWAP1 PUSH2 0x3309 JUMP JUMPDEST SWAP2 POP POP PUSH2 0x1698 JUMP JUMPDEST POP PUSH1 0x25 PUSH1 0x0 DUP2 SLOAD DUP1 SWAP3 SWAP2 SWAP1 PUSH2 0x170D SWAP1 PUSH2 0x32C0 JUMP JUMPDEST SWAP2 SWAP1 POP SSTORE POP POP POP JUMP JUMPDEST PUSH1 0x3 PUSH32 0xDD970DD9B5BFE707922155B058A407655CB18288B807E2216442BCA8AD83D6B5 PUSH1 0x9 PUSH1 0x0 SWAP1 SLOAD SWAP1 PUSH2 0x100 EXP SWAP1 DIV PUSH1 0xFF AND PUSH1 0x4 DUP2 GT ISZERO PUSH2 0x175B JUMPI PUSH2 0x175A PUSH2 0x33B0 JUMP JUMPDEST JUMPDEST PUSH1 0x40 MLOAD PUSH2 0x1768 SWAP2 SWAP1 PUSH2 0x2DCD JUMP JUMPDEST PUSH1 0x40 MLOAD DUP1 SWAP2 SUB SWAP1 LOG1 PUSH32 0xDD970DD9B5BFE707922155B058A407655CB18288B807E2216442BCA8AD83D6B5 DUP2 PUSH1 0x4 DUP2 GT ISZERO PUSH2 0x17A4 JUMPI PUSH2 0x17A3 PUSH2 0x33B0 JUMP JUMPDEST JUMPDEST PUSH1 0x40 MLOAD PUSH2 0x17B1 SWAP2 SWAP1 PUSH2 0x2DFB JUMP JUMPDEST PUSH1 0x40 MLOAD DUP1 SWAP2 SUB SWAP1 LOG1 DUP1 PUSH1 0x4 DUP2 GT ISZERO PUSH2 0x17CC JUMPI PUSH2 0x17CB PUSH2 0x33B0 JUMP JUMPDEST JUMPDEST PUSH1 0x9 PUSH1 0x0 SWAP1 SLOAD SWAP1 PUSH2 0x100 EXP SWAP1 DIV PUSH1 0xFF AND PUSH1 0x4 DUP2 GT ISZERO PUSH2 0x17EE JUMPI PUSH2 0x17ED PUSH2 0x33B0 JUMP JUMPDEST JUMPDEST EQ PUSH2 0x182E JUMPI PUSH1 0x40 MLOAD PUSH32 0x8C379A000000000000000000000000000000000000000000000000000000000 DUP2 MSTORE PUSH1 0x4 ADD PUSH2 0x1825 SWAP1 PUSH2 0x2E49 JUMP JUMPDEST PUSH1 0x40 MLOAD DUP1 SWAP2 SUB SWAP1 REVERT JUMPDEST PUSH1 0x2 PUSH1 0x9 PUSH1 0x0 PUSH2 0x100 EXP DUP2 SLOAD DUP2 PUSH1 0xFF MUL NOT AND SWAP1 DUP4 PUSH1 0x4 DUP2 GT ISZERO PUSH2 0x1854 JUMPI PUSH2 0x1853 PUSH2 0x33B0 JUMP JUMPDEST JUMPDEST MUL OR SWAP1 SSTORE POP POP JUMP JUMPDEST PUSH1 0x0 DUP1 SLOAD SWAP1 PUSH2 0x100 EXP SWAP1 DIV PUSH20 0xFFFFFFFFFFFFFFFFFFFFFFFFFFFFFFFFFFFFFFFF AND DUP2 JUMP JUMPDEST PUSH1 0x0 PUSH32 0xDD970DD9B5BFE707922155B058A407655CB18288B807E2216442BCA8AD83D6B5 PUSH1 0x9 PUSH1 0x0 SWAP1 SLOAD SWAP1 PUSH2 0x100 EXP SWAP1 DIV PUSH1 0xFF AND PUSH1 0x4 DUP2 GT ISZERO PUSH2 0x18C5 JUMPI PUSH2 0x18C4 PUSH2 0x33B0 JUMP JUMPDEST JUMPDEST PUSH1 0x40 MLOAD PUSH2 0x18D2 SWAP2 SWAP1 PUSH2 0x2DCD JUMP JUMPDEST PUSH1 0x40 MLOAD DUP1 SWAP2 SUB SWAP1 LOG1 PUSH32 0xDD970DD9B5BFE707922155B058A407655CB18288B807E2216442BCA8AD83D6B5 DUP2 PUSH1 0x4 DUP2 GT ISZERO PUSH2 0x190E JUMPI PUSH2 0x190D PUSH2 0x33B0 JUMP JUMPDEST JUMPDEST PUSH1 0x40 MLOAD PUSH2 0x191B SWAP2 SWAP1 PUSH2 0x2DFB JUMP JUMPDEST PUSH1 0x40 MLOAD DUP1 SWAP2 SUB SWAP1 LOG1 DUP1 PUSH1 0x4 DUP2 GT ISZERO PUSH2 0x1936 JUMPI PUSH2 0x1935 PUSH2 0x33B0 JUMP JUMPDEST JUMPDEST PUSH1 0x9 PUSH1 0x0 SWAP1 SLOAD SWAP1 PUSH2 0x100 EXP SWAP1 DIV PUSH1 0xFF AND PUSH1 0x4 DUP2 GT ISZERO PUSH2 0x1958 JUMPI PUSH2 0x1957 PUSH2 0x33B0 JUMP JUMPDEST JUMPDEST EQ PUSH2 0x1998 JUMPI PUSH1 0x40 MLOAD PUSH32 0x8C379A000000000000000000000000000000000000000000000000000000000 DUP2 MSTORE PUSH1 0x4 ADD PUSH2 0x198F SWAP1 PUSH2 0x2E49 JUMP JUMPDEST PUSH1 0x40 MLOAD DUP1 SWAP2 SUB SWAP1 REVERT JUMPDEST PUSH32 0xDD970DD9B5BFE707922155B058A407655CB18288B807E2216442BCA8AD83D6B5 PUSH1 0x9 PUSH1 0x0 SWAP1 SLOAD SWAP1 PUSH2 0x100 EXP SWAP1 DIV PUSH1 0xFF AND PUSH1 0x4 DUP2 GT ISZERO PUSH2 0x19DB JUMPI PUSH2 0x19DA PUSH2 0x33B0 JUMP JUMPDEST JUMPDEST PUSH1 0x40 MLOAD PUSH2 0x19E8 SWAP2 SWAP1 PUSH2 0x2D71 JUMP JUMPDEST PUSH1 0x40 MLOAD DUP1 SWAP2 SUB SWAP1 LOG1 PUSH1 0x0 JUMPDEST PUSH1 0x8 DUP2 LT ISZERO PUSH2 0x1C08 JUMPI PUSH1 0x40 MLOAD DUP1 PUSH1 0x40 ADD PUSH1 0x40 MSTORE DUP1 PUSH1 0x1 DUP2 MSTORE PUSH1 0x20 ADD PUSH32 0x3000000000000000000000000000000000000000000000000000000000000000 DUP2 MSTORE POP DUP1 MLOAD SWAP1 PUSH1 0x20 ADD KECCAK256 DUP6 DUP3 PUSH1 0x8 DUP2 LT PUSH2 0x1A4C JUMPI PUSH2 0x1A4B PUSH2 0x340E JUMP JUMPDEST JUMPDEST PUSH1 0x20 MUL ADD MLOAD DUP1 MLOAD SWAP1 PUSH1 0x20 ADD KECCAK256 EQ ISZERO PUSH2 0x1B1C JUMPI PUSH32 0xDD970DD9B5BFE707922155B058A407655CB18288B807E2216442BCA8AD83D6B5 PUSH1 0x9 PUSH1 0x0 SWAP1 SLOAD SWAP1 PUSH2 0x100 EXP SWAP1 DIV PUSH1 0xFF AND PUSH1 0x4 DUP2 GT ISZERO PUSH2 0x1AA1 JUMPI PUSH2 0x1AA0 PUSH2 0x33B0 JUMP JUMPDEST JUMPDEST PUSH1 0x40 MLOAD PUSH2 0x1AAE SWAP2 SWAP1 PUSH2 0x2D43 JUMP JUMPDEST PUSH1 0x40 MLOAD DUP1 SWAP2 SUB SWAP1 LOG1 PUSH2 0x1ABE PUSH2 0xFC4 JUMP JUMPDEST PUSH32 0xDD970DD9B5BFE707922155B058A407655CB18288B807E2216442BCA8AD83D6B5 PUSH1 0x9 PUSH1 0x0 SWAP1 SLOAD SWAP1 PUSH2 0x100 EXP SWAP1 DIV PUSH1 0xFF AND PUSH1 0x4 DUP2 GT ISZERO PUSH2 0x1B01 JUMPI PUSH2 0x1B00 PUSH2 0x33B0 JUMP JUMPDEST JUMPDEST PUSH1 0x40 MLOAD PUSH2 0x1B0E SWAP2 SWAP1 PUSH2 0x2CF5 JUMP JUMPDEST PUSH1 0x40 MLOAD DUP1 SWAP2 SUB SWAP1 LOG1 POP PUSH2 0x1C0A JUMP JUMPDEST DUP5 DUP2 PUSH1 0x8 DUP2 LT PUSH2 0x1B2F JUMPI PUSH2 0x1B2E PUSH2 0x340E JUMP JUMPDEST JUMPDEST PUSH1 0x20 MUL ADD MLOAD PUSH1 0xA DUP3 PUSH1 0x8 DUP2 LT PUSH2 0x1B48 JUMPI PUSH2 0x1B47 PUSH2 0x340E JUMP JUMPDEST JUMPDEST ADD SWAP1 DUP1 MLOAD SWAP1 PUSH1 0x20 ADD SWAP1 PUSH2 0x1B5C SWAP3 SWAP2 SWAP1 PUSH2 0x212A JUMP JUMPDEST POP DUP4 DUP2 PUSH1 0x8 DUP2 LT PUSH2 0x1B70 JUMPI PUSH2 0x1B6F PUSH2 0x340E JUMP JUMPDEST JUMPDEST PUSH1 0x20 MUL ADD MLOAD PUSH1 0x12 DUP3 PUSH1 0x8 DUP2 LT PUSH2 0x1B89 JUMPI PUSH2 0x1B88 PUSH2 0x340E JUMP JUMPDEST JUMPDEST ADD DUP2 SWAP1 SSTORE POP PUSH1 0x22 DUP4 DUP3 PUSH1 0x8 DUP2 LT PUSH2 0x1BA3 JUMPI PUSH2 0x1BA2 PUSH2 0x340E JUMP JUMPDEST JUMPDEST PUSH1 0x20 MUL ADD MLOAD PUSH1 0x40 MLOAD PUSH2 0x1BB5 SWAP2 SWAP1 PUSH2 0x2AA9 JUMP JUMPDEST SWAP1 DUP2 MSTORE PUSH1 0x20 ADD PUSH1 0x40 MLOAD DUP1 SWAP2 SUB SWAP1 KECCAK256 SLOAD PUSH1 0x1A DUP3 PUSH1 0x8 DUP2 LT PUSH2 0x1BD8 JUMPI PUSH2 0x1BD7 PUSH2 0x340E JUMP JUMPDEST JUMPDEST ADD DUP2 SWAP1 SSTORE POP PUSH1 0x23 PUSH1 0x0 DUP2 SLOAD DUP1 SWAP3 SWAP2 SWAP1 PUSH2 0x1BF0 SWAP1 PUSH2 0x3309 JUMP JUMPDEST SWAP2 SWAP1 POP SSTORE POP DUP1 DUP1 PUSH2 0x1C00 SWAP1 PUSH2 0x3309 JUMP JUMPDEST SWAP2 POP POP PUSH2 0x19F3 JUMP JUMPDEST POP JUMPDEST POP POP POP POP JUMP JUMPDEST PUSH1 0x0 DUP1 PUSH1 0x0 DUP1 PUSH1 0x0 DUP1 PUSH1 0x0 DUP1 PUSH2 0x1C24 PUSH2 0x21B0 JUMP JUMPDEST PUSH2 0x1C2C PUSH2 0x21D8 JUMP JUMPDEST PUSH2 0x1C34 PUSH2 0x21D8 JUMP JUMPDEST PUSH1 0x1 PUSH1 0x0 SWAP1 SLOAD SWAP1 PUSH2 0x100 EXP SWAP1 DIV PUSH20 0xFFFFFFFFFFFFFFFFFFFFFFFFFFFFFFFFFFFFFFFF AND PUSH1 0x2 PUSH1 0x0 SWAP1 SLOAD SWAP1 PUSH2 0x100 EXP SWAP1 DIV PUSH20 0xFFFFFFFFFFFFFFFFFFFFFFFFFFFFFFFFFFFFFFFF AND PUSH1 0x3 SLOAD PUSH1 0x4 SLOAD PUSH1 0x5 SLOAD PUSH1 0x6 SLOAD PUSH1 0x7 SLOAD PUSH1 0x8 SLOAD PUSH1 0xA PUSH1 0x12 PUSH1 0x1A DUP3 PUSH1 0x8 DUP1 PUSH1 0x20 MUL PUSH1 0x40 MLOAD SWAP1 DUP2 ADD PUSH1 0x40 MSTORE DUP1 SWAP3 SWAP2 SWAP1 PUSH1 0x0 SWAP1 JUMPDEST DUP3 DUP3 LT ISZERO PUSH2 0x1D4D JUMPI DUP4 DUP3 ADD DUP1 SLOAD PUSH2 0x1CC0 SWAP1 PUSH2 0x325D JUMP JUMPDEST DUP1 PUSH1 0x1F ADD PUSH1 0x20 DUP1 SWAP2 DIV MUL PUSH1 0x20 ADD PUSH1 0x40 MLOAD SWAP1 DUP2 ADD PUSH1 0x40 MSTORE DUP1 SWAP3 SWAP2 SWAP1 DUP2 DUP2 MSTORE PUSH1 0x20 ADD DUP3 DUP1 SLOAD PUSH2 0x1CEC SWAP1 PUSH2 0x325D JUMP JUMPDEST DUP1 ISZERO PUSH2 0x1D39 JUMPI DUP1 PUSH1 0x1F LT PUSH2 0x1D0E JUMPI PUSH2 0x100 DUP1 DUP4 SLOAD DIV MUL DUP4 MSTORE SWAP2 PUSH1 0x20 ADD SWAP2 PUSH2 0x1D39 JUMP JUMPDEST DUP3 ADD SWAP2 SWAP1 PUSH1 0x0 MSTORE PUSH1 0x20 PUSH1 0x0 KECCAK256 SWAP1 JUMPDEST DUP2 SLOAD DUP2 MSTORE SWAP1 PUSH1 0x1 ADD SWAP1 PUSH1 0x20 ADD DUP1 DUP4 GT PUSH2 0x1D1C JUMPI DUP3 SWAP1 SUB PUSH1 0x1F AND DUP3 ADD SWAP2 JUMPDEST POP POP POP POP POP DUP2 MSTORE PUSH1 0x20 ADD SWAP1 PUSH1 0x1 ADD SWAP1 PUSH2 0x1CAA JUMP JUMPDEST POP POP POP POP SWAP3 POP DUP2 PUSH1 0x8 DUP1 PUSH1 0x20 MUL PUSH1 0x40 MLOAD SWAP1 DUP2 ADD PUSH1 0x40 MSTORE DUP1 SWAP3 SWAP2 SWAP1 DUP3 PUSH1 0x8 DUP1 ISZERO PUSH2 0x1D8B JUMPI PUSH1 0x20 MUL DUP3 ADD SWAP2 JUMPDEST DUP2 SLOAD DUP2 MSTORE PUSH1 0x20 ADD SWAP1 PUSH1 0x1 ADD SWAP1 DUP1 DUP4 GT PUSH2 0x1D77 JUMPI JUMPDEST POP POP POP POP POP SWAP2 POP DUP1 PUSH1 0x8 DUP1 PUSH1 0x20 MUL PUSH1 0x40 MLOAD SWAP1 DUP2 ADD PUSH1 0x40 MSTORE DUP1 SWAP3 SWAP2 SWAP1 DUP3 PUSH1 0x8 DUP1 ISZERO PUSH2 0x1DCA JUMPI PUSH1 0x20 MUL DUP3 ADD SWAP2 JUMPDEST DUP2 SLOAD DUP2 MSTORE PUSH1 0x20 ADD SWAP1 PUSH1 0x1 ADD SWAP1 DUP1 DUP4 GT PUSH2 0x1DB6 JUMPI JUMPDEST POP POP POP POP POP SWAP1 POP SWAP11 POP SWAP11 POP SWAP11 POP SWAP11 POP SWAP11 POP SWAP11 POP SWAP11 POP SWAP11 POP SWAP11 POP SWAP11 POP SWAP11 POP SWAP1 SWAP2 SWAP3 SWAP4 SWAP5 SWAP6 SWAP7 SWAP8 SWAP9 SWAP10 SWAP11 JUMP JUMPDEST PUSH1 0x0 PUSH2 0x1900 DUP3 PUSH2 0x1E04 SWAP2 SWAP1 PUSH2 0x3138 JUMP JUMPDEST NUMBER PUSH2 0x1E0F SWAP2 SWAP1 PUSH2 0x3078 JUMP JUMPDEST SWAP1 POP SWAP2 SWAP1 POP JUMP JUMPDEST PUSH1 0x1 PUSH1 0x22 PUSH1 0x40 MLOAD PUSH2 0x1E26 SWAP1 PUSH2 0x2B29 JUMP JUMPDEST SWAP1 DUP2 MSTORE PUSH1 0x20 ADD PUSH1 0x40 MLOAD DUP1 SWAP2 SUB SWAP1 KECCAK256 DUP2 SWAP1 SSTORE POP PUSH1 0x2 PUSH1 0x22 PUSH1 0x40 MLOAD PUSH2 0x1E48 SWAP1 PUSH2 0x2AD5 JUMP JUMPDEST SWAP1 DUP2 MSTORE PUSH1 0x20 ADD PUSH1 0x40 MLOAD DUP1 SWAP2 SUB SWAP1 KECCAK256 DUP2 SWAP1 SSTORE POP PUSH1 0x3 PUSH1 0x22 PUSH1 0x40 MLOAD PUSH2 0x1E6A SWAP1 PUSH2 0x2AC0 JUMP JUMPDEST SWAP1 DUP2 MSTORE PUSH1 0x20 ADD PUSH1 0x40 MLOAD DUP1 SWAP2 SUB SWAP1 KECCAK256 DUP2 SWAP1 SSTORE POP PUSH1 0x4 PUSH1 0x22 PUSH1 0x40 MLOAD PUSH2 0x1E8C SWAP1 PUSH2 0x2AEA JUMP JUMPDEST SWAP1 DUP2 MSTORE PUSH1 0x20 ADD PUSH1 0x40 MLOAD DUP1 SWAP2 SUB SWAP1 KECCAK256 DUP2 SWAP1 SSTORE POP PUSH1 0x5 PUSH1 0x22 PUSH1 0x40 MLOAD PUSH2 0x1EAE SWAP1 PUSH2 0x2AFF JUMP JUMPDEST SWAP1 DUP2 MSTORE PUSH1 0x20 ADD PUSH1 0x40 MLOAD DUP1 SWAP2 SUB SWAP1 KECCAK256 DUP2 SWAP1 SSTORE POP PUSH1 0x6 PUSH1 0x22 PUSH1 0x40 MLOAD PUSH2 0x1ED0 SWAP1 PUSH2 0x2B14 JUMP JUMPDEST SWAP1 DUP2 MSTORE PUSH1 0x20 ADD PUSH1 0x40 MLOAD DUP1 SWAP2 SUB SWAP1 KECCAK256 DUP2 SWAP1 SSTORE POP JUMP JUMPDEST PUSH1 0x0 PUSH32 0xFFFFFFFFFFFFFFFFFFFFFFFFFFFFFFFFFFFFFFFFFFFFFFFFFFFFFFFFFFFFFFFF DUP5 EQ PUSH2 0x1F62 JUMPI PUSH1 0x1 DUP1 DUP6 AND EQ ISZERO PUSH2 0x1F29 JUMPI DUP2 DUP4 SGT PUSH2 0x1F28 JUMPI PUSH1 0x0 SWAP1 POP PUSH2 0x1F67 JUMP JUMPDEST JUMPDEST PUSH1 0x2 DUP1 DUP6 AND EQ ISZERO PUSH2 0x1F45 JUMPI DUP2 DUP4 EQ PUSH2 0x1F44 JUMPI PUSH1 0x0 SWAP1 POP PUSH2 0x1F67 JUMP JUMPDEST JUMPDEST PUSH1 0x4 DUP1 DUP6 AND EQ ISZERO PUSH2 0x1F61 JUMPI DUP2 DUP4 SLT PUSH2 0x1F60 JUMPI PUSH1 0x0 SWAP1 POP PUSH2 0x1F67 JUMP JUMPDEST JUMPDEST JUMPDEST PUSH1 0x1 SWAP1 POP JUMPDEST SWAP4 SWAP3 POP POP POP JUMP JUMPDEST PUSH1 0x0 PUSH1 0x9 PUSH1 0x1 PUSH2 0x100 EXP DUP2 SLOAD DUP2 PUSH1 0xFF MUL NOT AND SWAP1 DUP4 ISZERO ISZERO MUL OR SWAP1 SSTORE POP PUSH1 0x1 PUSH1 0x0 SWAP1 SLOAD SWAP1 PUSH2 0x100 EXP SWAP1 DIV PUSH20 0xFFFFFFFFFFFFFFFFFFFFFFFFFFFFFFFFFFFFFFFF AND PUSH20 0xFFFFFFFFFFFFFFFFFFFFFFFFFFFFFFFFFFFFFFFF AND PUSH2 0x8FC PUSH1 0x5 SLOAD SWAP1 DUP2 ISZERO MUL SWAP1 PUSH1 0x40 MLOAD PUSH1 0x0 PUSH1 0x40 MLOAD DUP1 DUP4 SUB DUP2 DUP6 DUP9 DUP9 CALL SWAP4 POP POP POP POP ISZERO DUP1 ISZERO PUSH2 0x1FF3 JUMPI RETURNDATASIZE PUSH1 0x0 DUP1 RETURNDATACOPY RETURNDATASIZE PUSH1 0x0 REVERT JUMPDEST POP PUSH2 0x1FFC PUSH2 0x208E JUMP JUMPDEST JUMP JUMPDEST PUSH1 0x1 PUSH1 0x9 PUSH1 0x1 PUSH2 0x100 EXP DUP2 SLOAD DUP2 PUSH1 0xFF MUL NOT AND SWAP1 DUP4 ISZERO ISZERO MUL OR SWAP1 SSTORE POP PUSH1 0x2 PUSH1 0x0 SWAP1 SLOAD SWAP1 PUSH2 0x100 EXP SWAP1 DIV PUSH20 0xFFFFFFFFFFFFFFFFFFFFFFFFFFFFFFFFFFFFFFFF AND PUSH20 0xFFFFFFFFFFFFFFFFFFFFFFFFFFFFFFFFFFFFFFFF AND PUSH2 0x8FC PUSH1 0x5 SLOAD SWAP1 DUP2 ISZERO MUL SWAP1 PUSH1 0x40 MLOAD PUSH1 0x0 PUSH1 0x40 MLOAD DUP1 DUP4 SUB DUP2 DUP6 DUP9 DUP9 CALL SWAP4 POP POP POP POP ISZERO DUP1 ISZERO PUSH2 0x2083 JUMPI RETURNDATASIZE PUSH1 0x0 DUP1 RETURNDATACOPY RETURNDATASIZE PUSH1 0x0 REVERT JUMPDEST POP PUSH2 0x208C PUSH2 0x208E JUMP JUMPDEST JUMP JUMPDEST PUSH1 0x4 SLOAD NUMBER LT PUSH2 0x20C3 JUMPI PUSH1 0x4 PUSH1 0x9 PUSH1 0x0 PUSH2 0x100 EXP DUP2 SLOAD DUP2 PUSH1 0xFF MUL NOT AND SWAP1 DUP4 PUSH1 0x4 DUP2 GT ISZERO PUSH2 0x20BD JUMPI PUSH2 0x20BC PUSH2 0x33B0 JUMP JUMPDEST JUMPDEST MUL OR SWAP1 SSTORE POP JUMPDEST PUSH1 0x7 SLOAD PUSH1 0x6 DUP2 SWAP1 SSTORE POP PUSH2 0x1900 PUSH1 0x1E PUSH2 0x20DB SWAP2 SWAP1 PUSH2 0x3138 JUMP JUMPDEST PUSH1 0x7 SLOAD PUSH2 0x20E8 SWAP2 SWAP1 PUSH2 0x3078 JUMP JUMPDEST PUSH1 0x7 DUP2 SWAP1 SSTORE POP PUSH1 0x0 JUMPDEST PUSH1 0x23 SLOAD DUP2 LT ISZERO PUSH2 0x2127 JUMPI PUSH1 0x0 PUSH1 0x24 PUSH1 0x0 DUP4 DUP2 MSTORE PUSH1 0x20 ADD SWAP1 DUP2 MSTORE PUSH1 0x20 ADD PUSH1 0x0 KECCAK256 DUP2 SWAP1 SSTORE POP DUP1 DUP1 PUSH2 0x211F SWAP1 PUSH2 0x3309 JUMP JUMPDEST SWAP2 POP POP PUSH2 0x20F1 JUMP JUMPDEST POP JUMP JUMPDEST DUP3 DUP1 SLOAD PUSH2 0x2136 SWAP1 PUSH2 0x325D JUMP JUMPDEST SWAP1 PUSH1 0x0 MSTORE PUSH1 0x20 PUSH1 0x0 KECCAK256 SWAP1 PUSH1 0x1F ADD PUSH1 0x20 SWAP1 DIV DUP2 ADD SWAP3 DUP3 PUSH2 0x2158 JUMPI PUSH1 0x0 DUP6 SSTORE PUSH2 0x219F JUMP JUMPDEST DUP3 PUSH1 0x1F LT PUSH2 0x2171 JUMPI DUP1 MLOAD PUSH1 0xFF NOT AND DUP4 DUP1 ADD OR DUP6 SSTORE PUSH2 0x219F JUMP JUMPDEST DUP3 DUP1 ADD PUSH1 0x1 ADD DUP6 SSTORE DUP3 ISZERO PUSH2 0x219F JUMPI SWAP2 DUP3 ADD JUMPDEST DUP3 DUP2 GT ISZERO PUSH2 0x219E JUMPI DUP3 MLOAD DUP3 SSTORE SWAP2 PUSH1 0x20 ADD SWAP2 SWAP1 PUSH1 0x1 ADD SWAP1 PUSH2 0x2183 JUMP JUMPDEST JUMPDEST POP SWAP1 POP PUSH2 0x21AC SWAP2 SWAP1 PUSH2 0x21FB JUMP JUMPDEST POP SWAP1 JUMP JUMPDEST PUSH1 0x40 MLOAD DUP1 PUSH2 0x100 ADD PUSH1 0x40 MSTORE DUP1 PUSH1 0x8 SWAP1 JUMPDEST PUSH1 0x60 DUP2 MSTORE PUSH1 0x20 ADD SWAP1 PUSH1 0x1 SWAP1 SUB SWAP1 DUP2 PUSH2 0x21C0 JUMPI SWAP1 POP POP SWAP1 JUMP JUMPDEST PUSH1 0x40 MLOAD DUP1 PUSH2 0x100 ADD PUSH1 0x40 MSTORE DUP1 PUSH1 0x8 SWAP1 PUSH1 0x20 DUP3 MUL DUP1 CALLDATASIZE DUP4 CALLDATACOPY DUP1 DUP3 ADD SWAP2 POP POP SWAP1 POP POP SWAP1 JUMP JUMPDEST JUMPDEST DUP1 DUP3 GT ISZERO PUSH2 0x2214 JUMPI PUSH1 0x0 DUP2 PUSH1 0x0 SWAP1 SSTORE POP PUSH1 0x1 ADD PUSH2 0x21FC JUMP JUMPDEST POP SWAP1 JUMP JUMPDEST PUSH1 0x0 PUSH2 0x222B PUSH2 0x2226 DUP5 PUSH2 0x2EA9 JUMP JUMPDEST PUSH2 0x2E84 JUMP JUMPDEST SWAP1 POP DUP1 DUP3 DUP6 PUSH1 0x20 DUP7 MUL DUP3 ADD GT ISZERO PUSH2 0x2245 JUMPI PUSH2 0x2244 PUSH2 0x3471 JUMP JUMPDEST JUMPDEST PUSH1 0x0 JUMPDEST DUP6 DUP2 LT ISZERO PUSH2 0x2275 JUMPI DUP2 PUSH2 0x225B DUP9 DUP3 PUSH2 0x244F JUMP JUMPDEST DUP5 MSTORE PUSH1 0x20 DUP5 ADD SWAP4 POP PUSH1 0x20 DUP4 ADD SWAP3 POP POP PUSH1 0x1 DUP2 ADD SWAP1 POP PUSH2 0x2248 JUMP JUMPDEST POP POP POP SWAP4 SWAP3 POP POP POP JUMP JUMPDEST PUSH1 0x0 PUSH2 0x2292 PUSH2 0x228D DUP5 PUSH2 0x2ECF JUMP JUMPDEST PUSH2 0x2E84 JUMP JUMPDEST SWAP1 POP DUP1 DUP4 DUP3 MSTORE PUSH1 0x20 DUP3 ADD SWAP1 POP DUP3 DUP6 PUSH1 0x20 DUP7 MUL DUP3 ADD GT ISZERO PUSH2 0x22B5 JUMPI PUSH2 0x22B4 PUSH2 0x3471 JUMP JUMPDEST JUMPDEST PUSH1 0x0 JUMPDEST DUP6 DUP2 LT ISZERO PUSH2 0x22E5 JUMPI DUP2 PUSH2 0x22CB DUP9 DUP3 PUSH2 0x244F JUMP JUMPDEST DUP5 MSTORE PUSH1 0x20 DUP5 ADD SWAP4 POP PUSH1 0x20 DUP4 ADD SWAP3 POP POP PUSH1 0x1 DUP2 ADD SWAP1 POP PUSH2 0x22B8 JUMP JUMPDEST POP POP POP SWAP4 SWAP3 POP POP POP JUMP JUMPDEST PUSH1 0x0 PUSH2 0x2302 PUSH2 0x22FD DUP5 PUSH2 0x2EFB JUMP JUMPDEST PUSH2 0x2E84 JUMP JUMPDEST SWAP1 POP DUP1 DUP3 DUP6 PUSH1 0x20 DUP7 MUL DUP3 ADD GT ISZERO PUSH2 0x231C JUMPI PUSH2 0x231B PUSH2 0x3471 JUMP JUMPDEST JUMPDEST PUSH1 0x0 JUMPDEST DUP6 DUP2 LT ISZERO PUSH2 0x236A JUMPI DUP2 CALLDATALOAD PUSH8 0xFFFFFFFFFFFFFFFF DUP2 GT ISZERO PUSH2 0x2342 JUMPI PUSH2 0x2341 PUSH2 0x346C JUMP JUMPDEST JUMPDEST DUP1 DUP7 ADD PUSH2 0x234F DUP10 DUP3 PUSH2 0x2464 JUMP JUMPDEST DUP6 MSTORE PUSH1 0x20 DUP6 ADD SWAP5 POP PUSH1 0x20 DUP5 ADD SWAP4 POP POP POP PUSH1 0x1 DUP2 ADD SWAP1 POP PUSH2 0x231F JUMP JUMPDEST POP POP POP SWAP4 SWAP3 POP POP POP JUMP JUMPDEST PUSH1 0x0 PUSH2 0x2387 PUSH2 0x2382 DUP5 PUSH2 0x2F21 JUMP JUMPDEST PUSH2 0x2E84 JUMP JUMPDEST SWAP1 POP DUP3 DUP2 MSTORE PUSH1 0x20 DUP2 ADD DUP5 DUP5 DUP5 ADD GT ISZERO PUSH2 0x23A3 JUMPI PUSH2 0x23A2 PUSH2 0x3476 JUMP JUMPDEST JUMPDEST PUSH2 0x23AE DUP5 DUP3 DUP6 PUSH2 0x321B JUMP JUMPDEST POP SWAP4 SWAP3 POP POP POP JUMP JUMPDEST PUSH1 0x0 DUP2 CALLDATALOAD SWAP1 POP PUSH2 0x23C5 DUP2 PUSH2 0x38B9 JUMP JUMPDEST SWAP3 SWAP2 POP POP JUMP JUMPDEST PUSH1 0x0 DUP3 PUSH1 0x1F DUP4 ADD SLT PUSH2 0x23E0 JUMPI PUSH2 0x23DF PUSH2 0x346C JUMP JUMPDEST JUMPDEST PUSH1 0x8 PUSH2 0x23ED DUP5 DUP3 DUP6 PUSH2 0x2218 JUMP JUMPDEST SWAP2 POP POP SWAP3 SWAP2 POP POP JUMP JUMPDEST PUSH1 0x0 DUP3 PUSH1 0x1F DUP4 ADD SLT PUSH2 0x240B JUMPI PUSH2 0x240A PUSH2 0x346C JUMP JUMPDEST JUMPDEST DUP2 CALLDATALOAD PUSH2 0x241B DUP5 DUP3 PUSH1 0x20 DUP7 ADD PUSH2 0x227F JUMP JUMPDEST SWAP2 POP POP SWAP3 SWAP2 POP POP JUMP JUMPDEST PUSH1 0x0 DUP3 PUSH1 0x1F DUP4 ADD SLT PUSH2 0x2439 JUMPI PUSH2 0x2438 PUSH2 0x346C JUMP JUMPDEST JUMPDEST PUSH1 0x8 PUSH2 0x2446 DUP5 DUP3 DUP6 PUSH2 0x22EF JUMP JUMPDEST SWAP2 POP POP SWAP3 SWAP2 POP POP JUMP JUMPDEST PUSH1 0x0 DUP2 CALLDATALOAD SWAP1 POP PUSH2 0x245E DUP2 PUSH2 0x38D0 JUMP JUMPDEST SWAP3 SWAP2 POP POP JUMP JUMPDEST PUSH1 0x0 DUP3 PUSH1 0x1F DUP4 ADD SLT PUSH2 0x2479 JUMPI PUSH2 0x2478 PUSH2 0x346C JUMP JUMPDEST JUMPDEST DUP2 CALLDATALOAD PUSH2 0x2489 DUP5 DUP3 PUSH1 0x20 DUP7 ADD PUSH2 0x2374 JUMP JUMPDEST SWAP2 POP POP SWAP3 SWAP2 POP POP JUMP JUMPDEST PUSH1 0x0 DUP2 CALLDATALOAD SWAP1 POP PUSH2 0x24A1 DUP2 PUSH2 0x38E7 JUMP JUMPDEST SWAP3 SWAP2 POP POP JUMP JUMPDEST PUSH1 0x0 PUSH1 0x20 DUP3 DUP5 SUB SLT ISZERO PUSH2 0x24BD JUMPI PUSH2 0x24BC PUSH2 0x3480 JUMP JUMPDEST JUMPDEST PUSH1 0x0 PUSH2 0x24CB DUP5 DUP3 DUP6 ADD PUSH2 0x23B6 JUMP JUMPDEST SWAP2 POP POP SWAP3 SWAP2 POP POP JUMP JUMPDEST PUSH1 0x0 DUP1 PUSH1 0x0 DUP1 PUSH1 0x0 PUSH1 0xA0 DUP7 DUP9 SUB SLT ISZERO PUSH2 0x24F0 JUMPI PUSH2 0x24EF PUSH2 0x3480 JUMP JUMPDEST JUMPDEST PUSH1 0x0 PUSH2 0x24FE DUP9 DUP3 DUP10 ADD PUSH2 0x23B6 JUMP JUMPDEST SWAP6 POP POP PUSH1 0x20 PUSH2 0x250F DUP9 DUP3 DUP10 ADD PUSH2 0x2492 JUMP JUMPDEST SWAP5 POP POP PUSH1 0x40 PUSH2 0x2520 DUP9 DUP3 DUP10 ADD PUSH2 0x2492 JUMP JUMPDEST SWAP4 POP POP PUSH1 0x60 PUSH2 0x2531 DUP9 DUP3 DUP10 ADD PUSH2 0x2492 JUMP JUMPDEST SWAP3 POP POP PUSH1 0x80 PUSH2 0x2542 DUP9 DUP3 DUP10 ADD PUSH2 0x2492 JUMP JUMPDEST SWAP2 POP POP SWAP3 SWAP6 POP SWAP3 SWAP6 SWAP1 SWAP4 POP JUMP JUMPDEST PUSH1 0x0 PUSH1 0x20 DUP3 DUP5 SUB SLT ISZERO PUSH2 0x2565 JUMPI PUSH2 0x2564 PUSH2 0x3480 JUMP JUMPDEST JUMPDEST PUSH1 0x0 DUP3 ADD CALLDATALOAD PUSH8 0xFFFFFFFFFFFFFFFF DUP2 GT ISZERO PUSH2 0x2583 JUMPI PUSH2 0x2582 PUSH2 0x347B JUMP JUMPDEST JUMPDEST PUSH2 0x258F DUP5 DUP3 DUP6 ADD PUSH2 0x23F6 JUMP JUMPDEST SWAP2 POP POP SWAP3 SWAP2 POP POP JUMP JUMPDEST PUSH1 0x0 DUP1 PUSH1 0x0 PUSH2 0x140 DUP5 DUP7 SUB SLT ISZERO PUSH2 0x25B2 JUMPI PUSH2 0x25B1 PUSH2 0x3480 JUMP JUMPDEST JUMPDEST PUSH1 0x0 DUP5 ADD CALLDATALOAD PUSH8 0xFFFFFFFFFFFFFFFF DUP2 GT ISZERO PUSH2 0x25D0 JUMPI PUSH2 0x25CF PUSH2 0x347B JUMP JUMPDEST JUMPDEST PUSH2 0x25DC DUP7 DUP3 DUP8 ADD PUSH2 0x2424 JUMP JUMPDEST SWAP4 POP POP PUSH1 0x20 PUSH2 0x25ED DUP7 DUP3 DUP8 ADD PUSH2 0x23CB JUMP JUMPDEST SWAP3 POP POP PUSH2 0x120 DUP5 ADD CALLDATALOAD PUSH8 0xFFFFFFFFFFFFFFFF DUP2 GT ISZERO PUSH2 0x260F JUMPI PUSH2 0x260E PUSH2 0x347B JUMP JUMPDEST JUMPDEST PUSH2 0x261B DUP7 DUP3 DUP8 ADD PUSH2 0x2424 JUMP JUMPDEST SWAP2 POP POP SWAP3 POP SWAP3 POP SWAP3 JUMP JUMPDEST PUSH1 0x0 PUSH1 0x20 DUP3 DUP5 SUB SLT ISZERO PUSH2 0x263B JUMPI PUSH2 0x263A PUSH2 0x3480 JUMP JUMPDEST JUMPDEST PUSH1 0x0 PUSH2 0x2649 DUP5 DUP3 DUP6 ADD PUSH2 0x2492 JUMP JUMPDEST SWAP2 POP POP SWAP3 SWAP2 POP POP JUMP JUMPDEST PUSH1 0x0 PUSH2 0x265E DUP4 DUP4 PUSH2 0x2786 JUMP JUMPDEST PUSH1 0x20 DUP4 ADD SWAP1 POP SWAP3 SWAP2 POP POP JUMP JUMPDEST PUSH1 0x0 PUSH2 0x2676 DUP4 DUP4 PUSH2 0x27A4 JUMP JUMPDEST SWAP1 POP SWAP3 SWAP2 POP POP JUMP JUMPDEST PUSH2 0x2687 DUP2 PUSH2 0x31A4 JUMP JUMPDEST DUP3 MSTORE POP POP JUMP JUMPDEST PUSH2 0x2696 DUP2 PUSH2 0x3192 JUMP JUMPDEST DUP3 MSTORE POP POP JUMP JUMPDEST PUSH2 0x26A5 DUP2 PUSH2 0x2F66 JUMP JUMPDEST PUSH2 0x26AF DUP2 DUP5 PUSH2 0x2FA1 JUMP JUMPDEST SWAP3 POP PUSH2 0x26BA DUP3 PUSH2 0x2F52 JUMP JUMPDEST DUP1 PUSH1 0x0 JUMPDEST DUP4 DUP2 LT ISZERO PUSH2 0x26EB JUMPI DUP2 MLOAD PUSH2 0x26D2 DUP8 DUP3 PUSH2 0x2652 JUMP JUMPDEST SWAP7 POP PUSH2 0x26DD DUP4 PUSH2 0x2F87 JUMP JUMPDEST SWAP3 POP POP PUSH1 0x1 DUP2 ADD SWAP1 POP PUSH2 0x26BE JUMP JUMPDEST POP POP POP POP POP POP JUMP JUMPDEST PUSH1 0x0 PUSH2 0x26FE DUP3 PUSH2 0x2F71 JUMP JUMPDEST PUSH2 0x2708 DUP2 DUP6 PUSH2 0x2FAC JUMP JUMPDEST SWAP4 POP DUP4 PUSH1 0x20 DUP3 MUL DUP6 ADD PUSH2 0x271A DUP6 PUSH2 0x2F5C JUMP JUMPDEST DUP1 PUSH1 0x0 JUMPDEST DUP6 DUP2 LT ISZERO PUSH2 0x2756 JUMPI DUP5 DUP5 SUB DUP10 MSTORE DUP2 MLOAD PUSH2 0x2737 DUP6 DUP3 PUSH2 0x266A JUMP JUMPDEST SWAP5 POP PUSH2 0x2742 DUP4 PUSH2 0x2F94 JUMP JUMPDEST SWAP3 POP PUSH1 0x20 DUP11 ADD SWAP10 POP POP PUSH1 0x1 DUP2 ADD SWAP1 POP PUSH2 0x271E JUMP JUMPDEST POP DUP3 SWAP8 POP DUP8 SWAP6 POP POP POP POP POP POP SWAP3 SWAP2 POP POP JUMP JUMPDEST PUSH2 0x2771 DUP2 PUSH2 0x31B6 JUMP JUMPDEST DUP3 MSTORE POP POP JUMP JUMPDEST PUSH2 0x2780 DUP2 PUSH2 0x3209 JUMP JUMPDEST DUP3 MSTORE POP POP JUMP JUMPDEST PUSH2 0x278F DUP2 PUSH2 0x31D5 JUMP JUMPDEST DUP3 MSTORE POP POP JUMP JUMPDEST PUSH2 0x279E DUP2 PUSH2 0x31D5 JUMP JUMPDEST DUP3 MSTORE POP POP JUMP JUMPDEST PUSH1 0x0 PUSH2 0x27AF DUP3 PUSH2 0x2F7C JUMP JUMPDEST PUSH2 0x27B9 DUP2 DUP6 PUSH2 0x2FB7 JUMP JUMPDEST SWAP4 POP PUSH2 0x27C9 DUP2 DUP6 PUSH1 0x20 DUP7 ADD PUSH2 0x322A JUMP JUMPDEST PUSH2 0x27D2 DUP2 PUSH2 0x3485 JUMP JUMPDEST DUP5 ADD SWAP2 POP POP SWAP3 SWAP2 POP POP JUMP JUMPDEST PUSH1 0x0 PUSH2 0x27E8 DUP3 PUSH2 0x2F7C JUMP JUMPDEST PUSH2 0x27F2 DUP2 DUP6 PUSH2 0x2FC8 JUMP JUMPDEST SWAP4 POP PUSH2 0x2802 DUP2 DUP6 PUSH1 0x20 DUP7 ADD PUSH2 0x322A JUMP JUMPDEST PUSH2 0x280B DUP2 PUSH2 0x3485 JUMP JUMPDEST DUP5 ADD SWAP2 POP POP SWAP3 SWAP2 POP POP JUMP JUMPDEST PUSH1 0x0 PUSH2 0x2821 DUP3 PUSH2 0x2F7C JUMP JUMPDEST PUSH2 0x282B DUP2 DUP6 PUSH2 0x2FD9 JUMP JUMPDEST SWAP4 POP PUSH2 0x283B DUP2 DUP6 PUSH1 0x20 DUP7 ADD PUSH2 0x322A JUMP JUMPDEST DUP1 DUP5 ADD SWAP2 POP POP SWAP3 SWAP2 POP POP JUMP JUMPDEST PUSH1 0x0 PUSH2 0x2854 PUSH1 0x2 DUP4 PUSH2 0x2FD9 JUMP JUMPDEST SWAP2 POP PUSH2 0x285F DUP3 PUSH2 0x3496 JUMP JUMPDEST PUSH1 0x2 DUP3 ADD SWAP1 POP SWAP2 SWAP1 POP JUMP JUMPDEST PUSH1 0x0 PUSH2 0x2877 PUSH1 0x43 DUP4 PUSH2 0x2FC8 JUMP JUMPDEST SWAP2 POP PUSH2 0x2882 DUP3 PUSH2 0x34BF JUMP JUMPDEST PUSH1 0x60 DUP3 ADD SWAP1 POP SWAP2 SWAP1 POP JUMP JUMPDEST PUSH1 0x0 PUSH2 0x289A PUSH1 0x36 DUP4 PUSH2 0x2FC8 JUMP JUMPDEST SWAP2 POP PUSH2 0x28A5 DUP3 PUSH2 0x3534 JUMP JUMPDEST PUSH1 0x40 DUP3 ADD SWAP1 POP SWAP2 SWAP1 POP JUMP JUMPDEST PUSH1 0x0 PUSH2 0x28BD PUSH1 0x2F DUP4 PUSH2 0x2FC8 JUMP JUMPDEST SWAP2 POP PUSH2 0x28C8 DUP3 PUSH2 0x3583 JUMP JUMPDEST PUSH1 0x40 DUP3 ADD SWAP1 POP SWAP2 SWAP1 POP JUMP JUMPDEST PUSH1 0x0 PUSH2 0x28E0 PUSH1 0x12 DUP4 PUSH2 0x2FC8 JUMP JUMPDEST SWAP2 POP PUSH2 0x28EB DUP3 PUSH2 0x35D2 JUMP JUMPDEST PUSH1 0x20 DUP3 ADD SWAP1 POP SWAP2 SWAP1 POP JUMP JUMPDEST PUSH1 0x0 PUSH2 0x2903 PUSH1 0x10 DUP4 PUSH2 0x2FC8 JUMP JUMPDEST SWAP2 POP PUSH2 0x290E DUP3 PUSH2 0x35FB JUMP JUMPDEST PUSH1 0x20 DUP3 ADD SWAP1 POP SWAP2 SWAP1 POP JUMP JUMPDEST PUSH1 0x0 PUSH2 0x2926 PUSH1 0x22 DUP4 PUSH2 0x2FC8 JUMP JUMPDEST SWAP2 POP PUSH2 0x2931 DUP3 PUSH2 0x3624 JUMP JUMPDEST PUSH1 0x40 DUP3 ADD SWAP1 POP SWAP2 SWAP1 POP JUMP JUMPDEST PUSH1 0x0 PUSH2 0x2949 PUSH1 0x2 DUP4 PUSH2 0x2FD9 JUMP JUMPDEST SWAP2 POP PUSH2 0x2954 DUP3 PUSH2 0x3673 JUMP JUMPDEST PUSH1 0x2 DUP3 ADD SWAP1 POP SWAP2 SWAP1 POP JUMP JUMPDEST PUSH1 0x0 PUSH2 0x296C PUSH1 0x26 DUP4 PUSH2 0x2FC8 JUMP JUMPDEST SWAP2 POP PUSH2 0x2977 DUP3 PUSH2 0x369C JUMP JUMPDEST PUSH1 0x40 DUP3 ADD SWAP1 POP SWAP2 SWAP1 POP JUMP JUMPDEST PUSH1 0x0 PUSH2 0x298F PUSH1 0x1 DUP4 PUSH2 0x2FD9 JUMP JUMPDEST SWAP2 POP PUSH2 0x299A DUP3 PUSH2 0x36EB JUMP JUMPDEST PUSH1 0x1 DUP3 ADD SWAP1 POP SWAP2 SWAP1 POP JUMP JUMPDEST PUSH1 0x0 PUSH2 0x29B2 PUSH1 0x2 DUP4 PUSH2 0x2FD9 JUMP JUMPDEST SWAP2 POP PUSH2 0x29BD DUP3 PUSH2 0x3714 JUMP JUMPDEST PUSH1 0x2 DUP3 ADD SWAP1 POP SWAP2 SWAP1 POP JUMP JUMPDEST PUSH1 0x0 PUSH2 0x29D5 PUSH1 0x21 DUP4 PUSH2 0x2FC8 JUMP JUMPDEST SWAP2 POP PUSH2 0x29E0 DUP3 PUSH2 0x373D JUMP JUMPDEST PUSH1 0x40 DUP3 ADD SWAP1 POP SWAP2 SWAP1 POP JUMP JUMPDEST PUSH1 0x0 PUSH2 0x29F8 PUSH1 0x2E DUP4 PUSH2 0x2FC8 JUMP JUMPDEST SWAP2 POP PUSH2 0x2A03 DUP3 PUSH2 0x378C JUMP JUMPDEST PUSH1 0x40 DUP3 ADD SWAP1 POP SWAP2 SWAP1 POP JUMP JUMPDEST PUSH1 0x0 PUSH2 0x2A1B PUSH1 0x2 DUP4 PUSH2 0x2FD9 JUMP JUMPDEST SWAP2 POP PUSH2 0x2A26 DUP3 PUSH2 0x37DB JUMP JUMPDEST PUSH1 0x2 DUP3 ADD SWAP1 POP SWAP2 SWAP1 POP JUMP JUMPDEST PUSH1 0x0 PUSH2 0x2A3E PUSH1 0x1 DUP4 PUSH2 0x2FD9 JUMP JUMPDEST SWAP2 POP PUSH2 0x2A49 DUP3 PUSH2 0x3804 JUMP JUMPDEST PUSH1 0x1 DUP3 ADD SWAP1 POP SWAP2 SWAP1 POP JUMP JUMPDEST PUSH1 0x0 PUSH2 0x2A61 PUSH1 0x1D DUP4 PUSH2 0x2FC8 JUMP JUMPDEST SWAP2 POP PUSH2 0x2A6C DUP3 PUSH2 0x382D JUMP JUMPDEST PUSH1 0x20 DUP3 ADD SWAP1 POP SWAP2 SWAP1 POP JUMP JUMPDEST PUSH1 0x0 PUSH2 0x2A84 PUSH1 0x25 DUP4 PUSH2 0x2FC8 JUMP JUMPDEST SWAP2 POP PUSH2 0x2A8F DUP3 PUSH2 0x3856 JUMP JUMPDEST PUSH1 0x40 DUP3 ADD SWAP1 POP SWAP2 SWAP1 POP JUMP JUMPDEST PUSH2 0x2AA3 DUP2 PUSH2 0x31FF JUMP JUMPDEST DUP3 MSTORE POP POP JUMP JUMPDEST PUSH1 0x0 PUSH2 0x2AB5 DUP3 DUP5 PUSH2 0x2816 JUMP JUMPDEST SWAP2 POP DUP2 SWAP1 POP SWAP3 SWAP2 POP POP JUMP JUMPDEST PUSH1 0x0 PUSH2 0x2ACB DUP3 PUSH2 0x2847 JUMP JUMPDEST SWAP2 POP DUP2 SWAP1 POP SWAP2 SWAP1 POP JUMP JUMPDEST PUSH1 0x0 PUSH2 0x2AE0 DUP3 PUSH2 0x293C JUMP JUMPDEST SWAP2 POP DUP2 SWAP1 POP SWAP2 SWAP1 POP JUMP JUMPDEST PUSH1 0x0 PUSH2 0x2AF5 DUP3 PUSH2 0x2982 JUMP JUMPDEST SWAP2 POP DUP2 SWAP1 POP SWAP2 SWAP1 POP JUMP JUMPDEST PUSH1 0x0 PUSH2 0x2B0A DUP3 PUSH2 0x29A5 JUMP JUMPDEST SWAP2 POP DUP2 SWAP1 POP SWAP2 SWAP1 POP JUMP JUMPDEST PUSH1 0x0 PUSH2 0x2B1F DUP3 PUSH2 0x2A0E JUMP JUMPDEST SWAP2 POP DUP2 SWAP1 POP SWAP2 SWAP1 POP JUMP JUMPDEST PUSH1 0x0 PUSH2 0x2B34 DUP3 PUSH2 0x2A31 JUMP JUMPDEST SWAP2 POP DUP2 SWAP1 POP SWAP2 SWAP1 POP JUMP JUMPDEST PUSH1 0x0 PUSH1 0x20 DUP3 ADD SWAP1 POP PUSH2 0x2B53 PUSH1 0x0 DUP4 ADD DUP5 PUSH2 0x268D JUMP JUMPDEST SWAP3 SWAP2 POP POP JUMP JUMPDEST PUSH1 0x0 PUSH1 0x20 DUP3 ADD SWAP1 POP PUSH2 0x2B6E PUSH1 0x0 DUP4 ADD DUP5 PUSH2 0x267E JUMP JUMPDEST SWAP3 SWAP2 POP POP JUMP JUMPDEST PUSH1 0x0 PUSH2 0x320 DUP3 ADD SWAP1 POP PUSH2 0x2B8A PUSH1 0x0 DUP4 ADD DUP15 PUSH2 0x268D JUMP JUMPDEST PUSH2 0x2B97 PUSH1 0x20 DUP4 ADD DUP14 PUSH2 0x268D JUMP JUMPDEST PUSH2 0x2BA4 PUSH1 0x40 DUP4 ADD DUP13 PUSH2 0x2A9A JUMP JUMPDEST PUSH2 0x2BB1 PUSH1 0x60 DUP4 ADD DUP12 PUSH2 0x2A9A JUMP JUMPDEST PUSH2 0x2BBE PUSH1 0x80 DUP4 ADD DUP11 PUSH2 0x2A9A JUMP JUMPDEST PUSH2 0x2BCB PUSH1 0xA0 DUP4 ADD DUP10 PUSH2 0x2A9A JUMP JUMPDEST PUSH2 0x2BD8 PUSH1 0xC0 DUP4 ADD DUP9 PUSH2 0x2A9A JUMP JUMPDEST PUSH2 0x2BE5 PUSH1 0xE0 DUP4 ADD DUP8 PUSH2 0x2A9A JUMP JUMPDEST DUP2 DUP2 SUB PUSH2 0x100 DUP4 ADD MSTORE PUSH2 0x2BF8 DUP2 DUP7 PUSH2 0x26F3 JUMP JUMPDEST SWAP1 POP PUSH2 0x2C08 PUSH2 0x120 DUP4 ADD DUP6 PUSH2 0x269C JUMP JUMPDEST PUSH2 0x2C16 PUSH2 0x220 DUP4 ADD DUP5 PUSH2 0x269C JUMP JUMPDEST SWAP13 SWAP12 POP POP POP POP POP POP POP POP POP POP POP POP JUMP JUMPDEST PUSH1 0x0 PUSH1 0x20 DUP3 ADD SWAP1 POP PUSH2 0x2C3B PUSH1 0x0 DUP4 ADD DUP5 PUSH2 0x2768 JUMP JUMPDEST SWAP3 SWAP2 POP POP JUMP JUMPDEST PUSH1 0x0 PUSH1 0x40 DUP3 ADD SWAP1 POP PUSH2 0x2C56 PUSH1 0x0 DUP4 ADD DUP5 PUSH2 0x2768 JUMP JUMPDEST DUP2 DUP2 SUB PUSH1 0x20 DUP4 ADD MSTORE PUSH2 0x2C67 DUP2 PUSH2 0x28D3 JUMP JUMPDEST SWAP1 POP SWAP3 SWAP2 POP POP JUMP JUMPDEST PUSH1 0x0 PUSH1 0x40 DUP3 ADD SWAP1 POP PUSH2 0x2C84 PUSH1 0x0 DUP4 ADD DUP5 PUSH2 0x2768 JUMP JUMPDEST DUP2 DUP2 SUB PUSH1 0x20 DUP4 ADD MSTORE PUSH2 0x2C95 DUP2 PUSH2 0x28F6 JUMP JUMPDEST SWAP1 POP SWAP3 SWAP2 POP POP JUMP JUMPDEST PUSH1 0x0 PUSH1 0x20 DUP3 ADD SWAP1 POP PUSH2 0x2CB2 PUSH1 0x0 DUP4 ADD DUP5 PUSH2 0x2777 JUMP JUMPDEST SWAP3 SWAP2 POP POP JUMP JUMPDEST PUSH1 0x0 PUSH1 0x20 DUP3 ADD SWAP1 POP PUSH2 0x2CCD PUSH1 0x0 DUP4 ADD DUP5 PUSH2 0x2795 JUMP JUMPDEST SWAP3 SWAP2 POP POP JUMP JUMPDEST PUSH1 0x0 PUSH1 0x20 DUP3 ADD SWAP1 POP DUP2 DUP2 SUB PUSH1 0x0 DUP4 ADD MSTORE PUSH2 0x2CED DUP2 DUP5 PUSH2 0x27DD JUMP JUMPDEST SWAP1 POP SWAP3 SWAP2 POP POP JUMP JUMPDEST PUSH1 0x0 PUSH1 0x40 DUP3 ADD SWAP1 POP DUP2 DUP2 SUB PUSH1 0x0 DUP4 ADD MSTORE PUSH2 0x2D0E DUP2 PUSH2 0x286A JUMP JUMPDEST SWAP1 POP PUSH2 0x2D1D PUSH1 0x20 DUP4 ADD DUP5 PUSH2 0x2A9A JUMP JUMPDEST SWAP3 SWAP2 POP POP JUMP JUMPDEST PUSH1 0x0 PUSH1 0x20 DUP3 ADD SWAP1 POP DUP2 DUP2 SUB PUSH1 0x0 DUP4 ADD MSTORE PUSH2 0x2D3C DUP2 PUSH2 0x288D JUMP JUMPDEST SWAP1 POP SWAP2 SWAP1 POP JUMP JUMPDEST PUSH1 0x0 PUSH1 0x40 DUP3 ADD SWAP1 POP DUP2 DUP2 SUB PUSH1 0x0 DUP4 ADD MSTORE PUSH2 0x2D5C DUP2 PUSH2 0x28B0 JUMP JUMPDEST SWAP1 POP PUSH2 0x2D6B PUSH1 0x20 DUP4 ADD DUP5 PUSH2 0x2A9A JUMP JUMPDEST SWAP3 SWAP2 POP POP JUMP JUMPDEST PUSH1 0x0 PUSH1 0x40 DUP3 ADD SWAP1 POP DUP2 DUP2 SUB PUSH1 0x0 DUP4 ADD MSTORE PUSH2 0x2D8A DUP2 PUSH2 0x2919 JUMP JUMPDEST SWAP1 POP PUSH2 0x2D99 PUSH1 0x20 DUP4 ADD DUP5 PUSH2 0x2A9A JUMP JUMPDEST SWAP3 SWAP2 POP POP JUMP JUMPDEST PUSH1 0x0 PUSH1 0x40 DUP3 ADD SWAP1 POP DUP2 DUP2 SUB PUSH1 0x0 DUP4 ADD MSTORE PUSH2 0x2DB8 DUP2 PUSH2 0x295F JUMP JUMPDEST SWAP1 POP PUSH2 0x2DC7 PUSH1 0x20 DUP4 ADD DUP5 PUSH2 0x2A9A JUMP JUMPDEST SWAP3 SWAP2 POP POP JUMP JUMPDEST PUSH1 0x0 PUSH1 0x40 DUP3 ADD SWAP1 POP DUP2 DUP2 SUB PUSH1 0x0 DUP4 ADD MSTORE PUSH2 0x2DE6 DUP2 PUSH2 0x29C8 JUMP JUMPDEST SWAP1 POP PUSH2 0x2DF5 PUSH1 0x20 DUP4 ADD DUP5 PUSH2 0x2A9A JUMP JUMPDEST SWAP3 SWAP2 POP POP JUMP JUMPDEST PUSH1 0x0 PUSH1 0x40 DUP3 ADD SWAP1 POP DUP2 DUP2 SUB PUSH1 0x0 DUP4 ADD MSTORE PUSH2 0x2E14 DUP2 PUSH2 0x29EB JUMP JUMPDEST SWAP1 POP PUSH2 0x2E23 PUSH1 0x20 DUP4 ADD DUP5 PUSH2 0x2A9A JUMP JUMPDEST SWAP3 SWAP2 POP POP JUMP JUMPDEST PUSH1 0x0 PUSH1 0x20 DUP3 ADD SWAP1 POP DUP2 DUP2 SUB PUSH1 0x0 DUP4 ADD MSTORE PUSH2 0x2E42 DUP2 PUSH2 0x2A54 JUMP JUMPDEST SWAP1 POP SWAP2 SWAP1 POP JUMP JUMPDEST PUSH1 0x0 PUSH1 0x20 DUP3 ADD SWAP1 POP DUP2 DUP2 SUB PUSH1 0x0 DUP4 ADD MSTORE PUSH2 0x2E62 DUP2 PUSH2 0x2A77 JUMP JUMPDEST SWAP1 POP SWAP2 SWAP1 POP JUMP JUMPDEST PUSH1 0x0 PUSH1 0x20 DUP3 ADD SWAP1 POP PUSH2 0x2E7E PUSH1 0x0 DUP4 ADD DUP5 PUSH2 0x2A9A JUMP JUMPDEST SWAP3 SWAP2 POP POP JUMP JUMPDEST PUSH1 0x0 PUSH2 0x2E8E PUSH2 0x2E9F JUMP JUMPDEST SWAP1 POP PUSH2 0x2E9A DUP3 DUP3 PUSH2 0x328F JUMP JUMPDEST SWAP2 SWAP1 POP JUMP JUMPDEST PUSH1 0x0 PUSH1 0x40 MLOAD SWAP1 POP SWAP1 JUMP JUMPDEST PUSH1 0x0 PUSH8 0xFFFFFFFFFFFFFFFF DUP3 GT ISZERO PUSH2 0x2EC4 JUMPI PUSH2 0x2EC3 PUSH2 0x343D JUMP JUMPDEST JUMPDEST PUSH1 0x20 DUP3 MUL SWAP1 POP SWAP2 SWAP1 POP JUMP JUMPDEST PUSH1 0x0 PUSH8 0xFFFFFFFFFFFFFFFF DUP3 GT ISZERO PUSH2 0x2EEA JUMPI PUSH2 0x2EE9 PUSH2 0x343D JUMP JUMPDEST JUMPDEST PUSH1 0x20 DUP3 MUL SWAP1 POP PUSH1 0x20 DUP2 ADD SWAP1 POP SWAP2 SWAP1 POP JUMP JUMPDEST PUSH1 0x0 PUSH8 0xFFFFFFFFFFFFFFFF DUP3 GT ISZERO PUSH2 0x2F16 JUMPI PUSH2 0x2F15 PUSH2 0x343D JUMP JUMPDEST JUMPDEST PUSH1 0x20 DUP3 MUL SWAP1 POP SWAP2 SWAP1 POP JUMP JUMPDEST PUSH1 0x0 PUSH8 0xFFFFFFFFFFFFFFFF DUP3 GT ISZERO PUSH2 0x2F3C JUMPI PUSH2 0x2F3B PUSH2 0x343D JUMP JUMPDEST JUMPDEST PUSH2 0x2F45 DUP3 PUSH2 0x3485 JUMP JUMPDEST SWAP1 POP PUSH1 0x20 DUP2 ADD SWAP1 POP SWAP2 SWAP1 POP JUMP JUMPDEST PUSH1 0x0 DUP2 SWAP1 POP SWAP2 SWAP1 POP JUMP JUMPDEST PUSH1 0x0 DUP2 SWAP1 POP SWAP2 SWAP1 POP JUMP JUMPDEST PUSH1 0x0 PUSH1 0x8 SWAP1 POP SWAP2 SWAP1 POP JUMP JUMPDEST PUSH1 0x0 PUSH1 0x8 SWAP1 POP SWAP2 SWAP1 POP JUMP JUMPDEST PUSH1 0x0 DUP2 MLOAD SWAP1 POP SWAP2 SWAP1 POP JUMP JUMPDEST PUSH1 0x0 PUSH1 0x20 DUP3 ADD SWAP1 POP SWAP2 SWAP1 POP JUMP JUMPDEST PUSH1 0x0 PUSH1 0x20 DUP3 ADD SWAP1 POP SWAP2 SWAP1 POP JUMP JUMPDEST PUSH1 0x0 DUP2 SWAP1 POP SWAP3 SWAP2 POP POP JUMP JUMPDEST PUSH1 0x0 DUP2 SWAP1 POP SWAP3 SWAP2 POP POP JUMP JUMPDEST PUSH1 0x0 DUP3 DUP3 MSTORE PUSH1 0x20 DUP3 ADD SWAP1 POP SWAP3 SWAP2 POP POP JUMP JUMPDEST PUSH1 0x0 DUP3 DUP3 MSTORE PUSH1 0x20 DUP3 ADD SWAP1 POP SWAP3 SWAP2 POP POP JUMP JUMPDEST PUSH1 0x0 DUP2 SWAP1 POP SWAP3 SWAP2 POP POP JUMP JUMPDEST PUSH1 0x0 PUSH2 0x2FEF DUP3 PUSH2 0x31D5 JUMP JUMPDEST SWAP2 POP PUSH2 0x2FFA DUP4 PUSH2 0x31D5 JUMP JUMPDEST SWAP3 POP DUP2 PUSH32 0x7FFFFFFFFFFFFFFFFFFFFFFFFFFFFFFFFFFFFFFFFFFFFFFFFFFFFFFFFFFFFFFF SUB DUP4 SGT PUSH1 0x0 DUP4 SLT ISZERO AND ISZERO PUSH2 0x3035 JUMPI PUSH2 0x3034 PUSH2 0x3352 JUMP JUMPDEST JUMPDEST DUP2 PUSH32 0x8000000000000000000000000000000000000000000000000000000000000000 SUB DUP4 SLT PUSH1 0x0 DUP4 SLT AND ISZERO PUSH2 0x306D JUMPI PUSH2 0x306C PUSH2 0x3352 JUMP JUMPDEST JUMPDEST DUP3 DUP3 ADD SWAP1 POP SWAP3 SWAP2 POP POP JUMP JUMPDEST PUSH1 0x0 PUSH2 0x3083 DUP3 PUSH2 0x31FF JUMP JUMPDEST SWAP2 POP PUSH2 0x308E DUP4 PUSH2 0x31FF JUMP JUMPDEST SWAP3 POP DUP3 PUSH32 0xFFFFFFFFFFFFFFFFFFFFFFFFFFFFFFFFFFFFFFFFFFFFFFFFFFFFFFFFFFFFFFFF SUB DUP3 GT ISZERO PUSH2 0x30C3 JUMPI PUSH2 0x30C2 PUSH2 0x3352 JUMP JUMPDEST JUMPDEST DUP3 DUP3 ADD SWAP1 POP SWAP3 SWAP2 POP POP JUMP JUMPDEST PUSH1 0x0 PUSH2 0x30D9 DUP3 PUSH2 0x31D5 JUMP JUMPDEST SWAP2 POP PUSH2 0x30E4 DUP4 PUSH2 0x31D5 JUMP JUMPDEST SWAP3 POP DUP3 PUSH2 0x30F4 JUMPI PUSH2 0x30F3 PUSH2 0x3381 JUMP JUMPDEST JUMPDEST PUSH1 0x1 PUSH1 0x0 SUB DUP4 EQ PUSH32 0x8000000000000000000000000000000000000000000000000000000000000000 DUP4 EQ AND ISZERO PUSH2 0x312D JUMPI PUSH2 0x312C PUSH2 0x3352 JUMP JUMPDEST JUMPDEST DUP3 DUP3 SDIV SWAP1 POP SWAP3 SWAP2 POP POP JUMP JUMPDEST PUSH1 0x0 PUSH2 0x3143 DUP3 PUSH2 0x31FF JUMP JUMPDEST SWAP2 POP PUSH2 0x314E DUP4 PUSH2 0x31FF JUMP JUMPDEST SWAP3 POP DUP2 PUSH32 0xFFFFFFFFFFFFFFFFFFFFFFFFFFFFFFFFFFFFFFFFFFFFFFFFFFFFFFFFFFFFFFFF DIV DUP4 GT DUP3 ISZERO ISZERO AND ISZERO PUSH2 0x3187 JUMPI PUSH2 0x3186 PUSH2 0x3352 JUMP JUMPDEST JUMPDEST DUP3 DUP3 MUL SWAP1 POP SWAP3 SWAP2 POP POP JUMP JUMPDEST PUSH1 0x0 PUSH2 0x319D DUP3 PUSH2 0x31DF JUMP JUMPDEST SWAP1 POP SWAP2 SWAP1 POP JUMP JUMPDEST PUSH1 0x0 PUSH2 0x31AF DUP3 PUSH2 0x31DF JUMP JUMPDEST SWAP1 POP SWAP2 SWAP1 POP JUMP JUMPDEST PUSH1 0x0 DUP2 ISZERO ISZERO SWAP1 POP SWAP2 SWAP1 POP JUMP JUMPDEST PUSH1 0x0 DUP2 SWAP1 POP PUSH2 0x31D0 DUP3 PUSH2 0x38A5 JUMP JUMPDEST SWAP2 SWAP1 POP JUMP JUMPDEST PUSH1 0x0 DUP2 SWAP1 POP SWAP2 SWAP1 POP JUMP JUMPDEST PUSH1 0x0 PUSH20 0xFFFFFFFFFFFFFFFFFFFFFFFFFFFFFFFFFFFFFFFF DUP3 AND SWAP1 POP SWAP2 SWAP1 POP JUMP JUMPDEST PUSH1 0x0 DUP2 SWAP1 POP SWAP2 SWAP1 POP JUMP JUMPDEST PUSH1 0x0 PUSH2 0x3214 DUP3 PUSH2 0x31C2 JUMP JUMPDEST SWAP1 POP SWAP2 SWAP1 POP JUMP JUMPDEST DUP3 DUP2 DUP4 CALLDATACOPY PUSH1 0x0 DUP4 DUP4 ADD MSTORE POP POP POP JUMP JUMPDEST PUSH1 0x0 JUMPDEST DUP4 DUP2 LT ISZERO PUSH2 0x3248 JUMPI DUP1 DUP3 ADD MLOAD DUP2 DUP5 ADD MSTORE PUSH1 0x20 DUP2 ADD SWAP1 POP PUSH2 0x322D JUMP JUMPDEST DUP4 DUP2 GT ISZERO PUSH2 0x3257 JUMPI PUSH1 0x0 DUP5 DUP5 ADD MSTORE JUMPDEST POP POP POP POP JUMP JUMPDEST PUSH1 0x0 PUSH1 0x2 DUP3 DIV SWAP1 POP PUSH1 0x1 DUP3 AND DUP1 PUSH2 0x3275 JUMPI PUSH1 0x7F DUP3 AND SWAP2 POP JUMPDEST PUSH1 0x20 DUP3 LT DUP2 EQ ISZERO PUSH2 0x3289 JUMPI PUSH2 0x3288 PUSH2 0x33DF JUMP JUMPDEST JUMPDEST POP SWAP2 SWAP1 POP JUMP JUMPDEST PUSH2 0x3298 DUP3 PUSH2 0x3485 JUMP JUMPDEST DUP2 ADD DUP2 DUP2 LT PUSH8 0xFFFFFFFFFFFFFFFF DUP3 GT OR ISZERO PUSH2 0x32B7 JUMPI PUSH2 0x32B6 PUSH2 0x343D JUMP JUMPDEST JUMPDEST DUP1 PUSH1 0x40 MSTORE POP POP POP JUMP JUMPDEST PUSH1 0x0 PUSH2 0x32CB DUP3 PUSH2 0x31D5 JUMP JUMPDEST SWAP2 POP PUSH32 0x7FFFFFFFFFFFFFFFFFFFFFFFFFFFFFFFFFFFFFFFFFFFFFFFFFFFFFFFFFFFFFFF DUP3 EQ ISZERO PUSH2 0x32FE JUMPI PUSH2 0x32FD PUSH2 0x3352 JUMP JUMPDEST JUMPDEST PUSH1 0x1 DUP3 ADD SWAP1 POP SWAP2 SWAP1 POP JUMP JUMPDEST PUSH1 0x0 PUSH2 0x3314 DUP3 PUSH2 0x31FF JUMP JUMPDEST SWAP2 POP PUSH32 0xFFFFFFFFFFFFFFFFFFFFFFFFFFFFFFFFFFFFFFFFFFFFFFFFFFFFFFFFFFFFFFFF DUP3 EQ ISZERO PUSH2 0x3347 JUMPI PUSH2 0x3346 PUSH2 0x3352 JUMP JUMPDEST JUMPDEST PUSH1 0x1 DUP3 ADD SWAP1 POP SWAP2 SWAP1 POP JUMP JUMPDEST PUSH32 0x4E487B7100000000000000000000000000000000000000000000000000000000 PUSH1 0x0 MSTORE PUSH1 0x11 PUSH1 0x4 MSTORE PUSH1 0x24 PUSH1 0x0 REVERT JUMPDEST PUSH32 0x4E487B7100000000000000000000000000000000000000000000000000000000 PUSH1 0x0 MSTORE PUSH1 0x12 PUSH1 0x4 MSTORE PUSH1 0x24 PUSH1 0x0 REVERT JUMPDEST PUSH32 0x4E487B7100000000000000000000000000000000000000000000000000000000 PUSH1 0x0 MSTORE PUSH1 0x21 PUSH1 0x4 MSTORE PUSH1 0x24 PUSH1 0x0 REVERT JUMPDEST PUSH32 0x4E487B7100000000000000000000000000000000000000000000000000000000 PUSH1 0x0 MSTORE PUSH1 0x22 PUSH1 0x4 MSTORE PUSH1 0x24 PUSH1 0x0 REVERT JUMPDEST PUSH32 0x4E487B7100000000000000000000000000000000000000000000000000000000 PUSH1 0x0 MSTORE PUSH1 0x32 PUSH1 0x4 MSTORE PUSH1 0x24 PUSH1 0x0 REVERT JUMPDEST PUSH32 0x4E487B7100000000000000000000000000000000000000000000000000000000 PUSH1 0x0 MSTORE PUSH1 0x41 PUSH1 0x4 MSTORE PUSH1 0x24 PUSH1 0x0 REVERT JUMPDEST PUSH1 0x0 DUP1 REVERT JUMPDEST PUSH1 0x0 DUP1 REVERT JUMPDEST PUSH1 0x0 DUP1 REVERT JUMPDEST PUSH1 0x0 DUP1 REVERT JUMPDEST PUSH1 0x0 DUP1 REVERT JUMPDEST PUSH1 0x0 PUSH1 0x1F NOT PUSH1 0x1F DUP4 ADD AND SWAP1 POP SWAP2 SWAP1 POP JUMP JUMPDEST PUSH32 0x3E3D000000000000000000000000000000000000000000000000000000000000 PUSH1 0x0 DUP3 ADD MSTORE POP JUMP JUMPDEST PUSH32 0x696E7369646520736574436F6E64732069662073746174656D656E742C206166 PUSH1 0x0 DUP3 ADD MSTORE PUSH32 0x74657220656E64496E697453746167652C2063757272656E7420737461676520 PUSH1 0x20 DUP3 ADD MSTORE PUSH32 0x69733A0000000000000000000000000000000000000000000000000000000000 PUSH1 0x40 DUP3 ADD MSTORE POP JUMP JUMPDEST PUSH32 0x43616E6E6F742063616C6C20746869732066756E6374696F6E20646972656374 PUSH1 0x0 DUP3 ADD MSTORE PUSH32 0x6C792C207573652056656E646F72466163746F72792E00000000000000000000 PUSH1 0x20 DUP3 ADD MSTORE POP JUMP JUMPDEST PUSH32 0x696E7369646520736574436F6E64732069662073746174656D656E742C206375 PUSH1 0x0 DUP3 ADD MSTORE PUSH32 0x7272656E742073746167652069733A0000000000000000000000000000000000 PUSH1 0x20 DUP3 ADD MSTORE POP JUMP JUMPDEST PUSH32 0x526566756E64696E67207061796D656E742E0000000000000000000000000000 PUSH1 0x0 DUP3 ADD MSTORE POP JUMP JUMPDEST PUSH32 0x53656E64696E67207061796D656E742E00000000000000000000000000000000 PUSH1 0x0 DUP3 ADD MSTORE POP JUMP JUMPDEST PUSH32 0x696E7369646520736574436F6E64732C2063757272656E742073746167652069 PUSH1 0x0 DUP3 ADD MSTORE PUSH32 0x733A000000000000000000000000000000000000000000000000000000000000 PUSH1 0x20 DUP3 ADD MSTORE POP JUMP JUMPDEST PUSH32 0x3D3D000000000000000000000000000000000000000000000000000000000000 PUSH1 0x0 DUP3 ADD MSTORE POP JUMP JUMPDEST PUSH32 0x696E7369646520656E64496E697453746167652C2063757272656E7420737461 PUSH1 0x0 DUP3 ADD MSTORE PUSH32 0x67652069733A0000000000000000000000000000000000000000000000000000 PUSH1 0x20 DUP3 ADD MSTORE POP JUMP JUMPDEST PUSH32 0x3C00000000000000000000000000000000000000000000000000000000000000 PUSH1 0x0 DUP3 ADD MSTORE POP JUMP JUMPDEST PUSH32 0x213D000000000000000000000000000000000000000000000000000000000000 PUSH1 0x0 DUP3 ADD MSTORE POP JUMP JUMPDEST PUSH32 0x696E7369646520617453746167652C2063757272656E74207374616765206973 PUSH1 0x0 DUP3 ADD MSTORE PUSH32 0x3A00000000000000000000000000000000000000000000000000000000000000 PUSH1 0x20 DUP3 ADD MSTORE POP JUMP JUMPDEST PUSH32 0x7374696C6C20696E7369646520617453746167652C20747279696E6720746F20 PUSH1 0x0 DUP3 ADD MSTORE PUSH32 0x636F6D7061726520697420746F3A000000000000000000000000000000000000 PUSH1 0x20 DUP3 ADD MSTORE POP JUMP JUMPDEST PUSH32 0x3C3D000000000000000000000000000000000000000000000000000000000000 PUSH1 0x0 DUP3 ADD MSTORE POP JUMP JUMPDEST PUSH32 0x3E00000000000000000000000000000000000000000000000000000000000000 PUSH1 0x0 DUP3 ADD MSTORE POP JUMP JUMPDEST PUSH32 0x4E6F742077697468696E207468652062696C6C696E6720706572696F64000000 PUSH1 0x0 DUP3 ADD MSTORE POP JUMP JUMPDEST PUSH32 0x436F6E7472616374206973206E6F7420696E2074686520726571756972656420 PUSH1 0x0 DUP3 ADD MSTORE PUSH32 0x7374617465000000000000000000000000000000000000000000000000000000 PUSH1 0x20 DUP3 ADD MSTORE POP JUMP JUMPDEST PUSH1 0x5 DUP2 LT PUSH2 0x38B6 JUMPI PUSH2 0x38B5 PUSH2 0x33B0 JUMP JUMPDEST JUMPDEST POP JUMP JUMPDEST PUSH2 0x38C2 DUP2 PUSH2 0x3192 JUMP JUMPDEST DUP2 EQ PUSH2 0x38CD JUMPI PUSH1 0x0 DUP1 REVERT JUMPDEST POP JUMP JUMPDEST PUSH2 0x38D9 DUP2 PUSH2 0x31D5 JUMP JUMPDEST DUP2 EQ PUSH2 0x38E4 JUMPI PUSH1 0x0 DUP1 REVERT JUMPDEST POP JUMP JUMPDEST PUSH2 0x38F0 DUP2 PUSH2 0x31FF JUMP JUMPDEST DUP2 EQ PUSH2 0x38FB JUMPI PUSH1 0x0 DUP1 REVERT JUMPDEST POP JUMP INVALID LOG2 PUSH5 0x6970667358 0x22 SLT KECCAK256 GT SHR DIV PUSH23 0x72E298B6CCE16C72D67911FE77B4CB26049DC163C0EF3C 0xB7 DUP3 RETURNDATASIZE 0xA7 0xB4 PUSH5 0x736F6C6343 STOP ADDMOD MOD STOP CALLER "
    },
    "gasEstimates": {
      "creation": {
        "codeDepositCost": "2928800",
        "executionCost": "61836",
        "totalCost": "2990636"
      },
      "external": {
        "admin()": "2577",
        "amount()": "2540",
        "approve()": "infinite",
        "balanceOf()": "406",
        "client()": "2583",
        "contractHash()": "2497",
        "destroy()": "infinite",
        "endInitStage()": "infinite",
        "expiryDate()": "2519",
        "getDetails()": "infinite",
        "init(address,uint256,uint256,uint256,uint256)": "infinite",
        "isSatisfied()": "infinite",
        "names(uint256)": "infinite",
        "nextBillingDate()": "2475",
        "operators(uint256)": "2820",
        "payee()": "2559",
        "payeeApproved()": "2566",
        "prevBillingDate()": "2497",
        "receiveServiceData(int256[])": "infinite",
        "receiveServiceDataBypass(int256[])": "infinite",
        "satisfied()": "2611",
        "setActive()": "infinite",
        "setConds(string[8],int256[8],string[8])": "infinite",
        "setInactive()": "infinite",
        "setPayee(address)": "24834",
        "stage()": "2627",
        "startDate()": "2476",
        "storePayment()": "infinite",
        "values(uint256)": "2776"
      },
      "internal": {
        "calcDate(uint256)": "infinite",
        "condValid(int256,int256,int256)": "229",
        "initOperators()": "infinite",
        "payVendor()": "infinite",
        "refund()": "infinite",
        "setNewDates()": "infinite"
      }
    },
    "methodIdentifiers": {
      "admin()": "f851a440",
      "amount()": "aa8c217c",
      "approve()": "12424e3f",
      "balanceOf()": "722713f7",
      "client()": "109e94cf",
      "contractHash()": "904c6094",
      "destroy()": "83197ef0",
      "endInitStage()": "9503fe3d",
      "expiryDate()": "516dde43",
      "getDetails()": "fbbf93a0",
      "init(address,uint256,uint256,uint256,uint256)": "9a730617",
      "isSatisfied()": "a2c14ad3",
      "names(uint256)": "4622ab03",
      "nextBillingDate()": "43885314",
      "operators(uint256)": "e28d4906",
      "payee()": "ae90b213",
      "payeeApproved()": "97c0bba1",
      "prevBillingDate()": "25419c24",
      "receiveServiceData(int256[])": "21ce5afd",
      "receiveServiceDataBypass(int256[])": "e9d94c58",
      "satisfied()": "3a40f3b2",
      "setActive()": "760a8c2a",
      "setConds(string[8],int256[8],string[8])": "fadeaa59",
      "setInactive()": "f1b9ee24",
      "setPayee(address)": "410459ad",
      "stage()": "c040e6b8",
      "startDate()": "0b97bc86",
      "storePayment()": "84ac4446",
      "values(uint256)": "5e383d21"
    }
  },
  "storageLayout": {
    "storage": [
      {
        "astId": 41,
        "contract": "Vendor.sol:Vendor",
        "label": "admin",
        "offset": 0,
        "slot": "0",
        "type": "t_address"
      },
      {
        "astId": 43,
        "contract": "Vendor.sol:Vendor",
        "label": "client",
        "offset": 0,
        "slot": "1",
        "type": "t_address_payable"
      },
      {
        "astId": 45,
        "contract": "Vendor.sol:Vendor",
        "label": "payee",
        "offset": 0,
        "slot": "2",
        "type": "t_address_payable"
      },
      {
        "astId": 47,
        "contract": "Vendor.sol:Vendor",
        "label": "payeeApproved",
        "offset": 20,
        "slot": "2",
        "type": "t_bool"
      },
      {
        "astId": 49,
        "contract": "Vendor.sol:Vendor",
        "label": "startDate",
        "offset": 0,
        "slot": "3",
        "type": "t_uint256"
      },
      {
        "astId": 51,
        "contract": "Vendor.sol:Vendor",
        "label": "expiryDate",
        "offset": 0,
        "slot": "4",
        "type": "t_uint256"
      },
      {
        "astId": 53,
        "contract": "Vendor.sol:Vendor",
        "label": "amount",
        "offset": 0,
        "slot": "5",
        "type": "t_uint256"
      },
      {
        "astId": 55,
        "contract": "Vendor.sol:Vendor",
        "label": "prevBillingDate",
        "offset": 0,
        "slot": "6",
        "type": "t_uint256"
      },
      {
        "astId": 57,
        "contract": "Vendor.sol:Vendor",
        "label": "nextBillingDate",
        "offset": 0,
        "slot": "7",
        "type": "t_uint256"
      },
      {
        "astId": 59,
        "contract": "Vendor.sol:Vendor",
        "label": "contractHash",
        "offset": 0,
        "slot": "8",
        "type": "t_uint256"
      },
      {
        "astId": 70,
        "contract": "Vendor.sol:Vendor",
        "label": "stage",
        "offset": 0,
        "slot": "9",
        "type": "t_enum(Stages)65"
      },
      {
        "astId": 73,
        "contract": "Vendor.sol:Vendor",
        "label": "satisfied",
        "offset": 1,
        "slot": "9",
        "type": "t_bool"
      },
      {
        "astId": 77,
        "contract": "Vendor.sol:Vendor",
        "label": "names",
        "offset": 0,
        "slot": "10",
        "type": "t_array(t_string_storage)8_storage"
      },
      {
        "astId": 81,
        "contract": "Vendor.sol:Vendor",
        "label": "values",
        "offset": 0,
        "slot": "18",
        "type": "t_array(t_int256)8_storage"
      },
      {
        "astId": 85,
        "contract": "Vendor.sol:Vendor",
        "label": "operators",
        "offset": 0,
        "slot": "26",
        "type": "t_array(t_int256)8_storage"
      },
      {
        "astId": 89,
        "contract": "Vendor.sol:Vendor",
        "label": "convert",
        "offset": 0,
        "slot": "34",
        "type": "t_mapping(t_string_memory_ptr,t_int256)"
      },
      {
        "astId": 92,
        "contract": "Vendor.sol:Vendor",
        "label": "conditionCount",
        "offset": 0,
        "slot": "35",
        "type": "t_uint256"
      },
      {
        "astId": 99,
        "contract": "Vendor.sol:Vendor",
        "label": "cumulative",
        "offset": 0,
        "slot": "36",
        "type": "t_mapping(t_uint256,t_int256)"
      },
      {
        "astId": 102,
        "contract": "Vendor.sol:Vendor",
        "label": "count",
        "offset": 0,
        "slot": "37",
        "type": "t_int256"
      }
    ],
    "types": {
      "t_address": {
        "encoding": "inplace",
        "label": "address",
        "numberOfBytes": "20"
      },
      "t_address_payable": {
        "encoding": "inplace",
        "label": "address payable",
        "numberOfBytes": "20"
      },
      "t_array(t_int256)8_storage": {
        "base": "t_int256",
        "encoding": "inplace",
        "label": "int256[8]",
        "numberOfBytes": "256"
      },
      "t_array(t_string_storage)8_storage": {
        "base": "t_string_storage",
        "encoding": "inplace",
        "label": "string[8]",
        "numberOfBytes": "256"
      },
      "t_bool": {
        "encoding": "inplace",
        "label": "bool",
        "numberOfBytes": "1"
      },
      "t_enum(Stages)65": {
        "encoding": "inplace",
        "label": "enum Vendor.Stages",
        "numberOfBytes": "1"
      },
      "t_int256": {
        "encoding": "inplace",
        "label": "int256",
        "numberOfBytes": "32"
      },
      "t_mapping(t_string_memory_ptr,t_int256)": {
        "encoding": "mapping",
        "key": "t_string_memory_ptr",
        "label": "mapping(string => int256)",
        "numberOfBytes": "32",
        "value": "t_int256"
      },
      "t_mapping(t_uint256,t_int256)": {
        "encoding": "mapping",
        "key": "t_uint256",
        "label": "mapping(uint256 => int256)",
        "numberOfBytes": "32",
        "value": "t_int256"
      },
      "t_string_memory_ptr": {
        "encoding": "bytes",
        "label": "string",
        "numberOfBytes": "32"
      },
      "t_string_storage": {
        "encoding": "bytes",
        "label": "string",
        "numberOfBytes": "32"
      },
      "t_uint256": {
        "encoding": "inplace",
        "label": "uint256",
        "numberOfBytes": "32"
      }
    }
  },
  "userdoc": {
    "kind": "user",
    "methods": {},
    "notice": "Contract that handles automated payment, considering if conditions are satisfied.",
    "version": 1
  }
}