{
  "abi": [
    {
      "inputs": [
        {
          "internalType": "address",
          "name": "_implementation",
          "type": "address"
        }
      ],
      "stateMutability": "nonpayable",
      "type": "constructor"
    },
    {
      "anonymous": false,
      "inputs": [
        {
          "indexed": false,
          "internalType": "address",
          "name": "_approved",
          "type": "address"
        },
        {
          "indexed": false,
          "internalType": "int256",
          "name": "index",
          "type": "int256"
        }
      ],
      "name": "ApprovedContract",
      "type": "event"
    },
    {
      "anonymous": false,
      "inputs": [
        {
          "indexed": false,
          "internalType": "address",
          "name": "_cloned",
          "type": "address"
        }
      ],
      "name": "ClonedContract",
      "type": "event"
    },
    {
      "inputs": [
        {
          "internalType": "address",
          "name": "_contract",
          "type": "address"
        },
        {
          "internalType": "int256",
          "name": "_index",
          "type": "int256"
        }
      ],
      "name": "approve",
      "outputs": [
        {
          "internalType": "address",
          "name": "",
          "type": "address"
        },
        {
          "internalType": "int256",
          "name": "",
          "type": "int256"
        }
      ],
      "stateMutability": "nonpayable",
      "type": "function"
    },
    {
      "inputs": [
        {
          "internalType": "address",
          "name": "_client",
          "type": "address"
        },
        {
          "internalType": "uint256",
          "name": "_expiryDate",
          "type": "uint256"
        },
        {
          "internalType": "uint256",
          "name": "_startDate",
          "type": "uint256"
        },
        {
          "internalType": "uint256",
          "name": "_contractHash",
          "type": "uint256"
        },
        {
          "internalType": "uint256",
          "name": "_amount",
          "type": "uint256"
        },
        {
          "internalType": "int256",
          "name": "_index",
          "type": "int256"
        }
      ],
      "name": "createVendor",
      "outputs": [
        {
          "internalType": "address",
          "name": "",
          "type": "address"
        }
      ],
      "stateMutability": "nonpayable",
      "type": "function"
    }
  ],
  "devdoc": {
    "kind": "dev",
    "methods": {},
    "version": 1
  },
  "evm": {
    "assembly": "    /* \"VendorFactory.sol\":193:2213  contract VendorFactory is CloneFactory {... */\n  mstore(0x40, 0x80)\n    /* \"VendorFactory.sol\":565:736  constructor(address _implementation) {... */\n  callvalue\n  dup1\n  iszero\n  tag_1\n  jumpi\n  0x00\n  dup1\n  revert\ntag_1:\n  pop\n  mload(0x40)\n  sub(codesize, bytecodeSize)\n  dup1\n  bytecodeSize\n  dup4\n  codecopy\n  dup2\n  dup2\n  add\n  0x40\n  mstore\n  dup2\n  add\n  swap1\n  tag_2\n  swap2\n  swap1\n  tag_3\n  jump\t// in\ntag_2:\n    /* \"VendorFactory.sol\":629:644  _implementation */\n  dup1\n    /* \"VendorFactory.sol\":612:626  implementation */\n  0x01\n  0x00\n    /* \"VendorFactory.sol\":612:644  implementation = _implementation */\n  0x0100\n  exp\n  dup2\n  sload\n  dup2\n  0xffffffffffffffffffffffffffffffffffffffff\n  mul\n  not\n  and\n  swap1\n  dup4\n  0xffffffffffffffffffffffffffffffffffffffff\n  and\n  mul\n  or\n  swap1\n  sstore\n  pop\n    /* \"VendorFactory.sol\":719:729  msg.sender */\n  caller\n    /* \"VendorFactory.sol\":711:716  admin */\n  0x00\n  dup1\n    /* \"VendorFactory.sol\":711:729  admin = msg.sender */\n  0x0100\n  exp\n  dup2\n  sload\n  dup2\n  0xffffffffffffffffffffffffffffffffffffffff\n  mul\n  not\n  and\n  swap1\n  dup4\n  0xffffffffffffffffffffffffffffffffffffffff\n  and\n  mul\n  or\n  swap1\n  sstore\n  pop\n    /* \"VendorFactory.sol\":565:736  constructor(address _implementation) {... */\n  pop\n    /* \"VendorFactory.sol\":193:2213  contract VendorFactory is CloneFactory {... */\n  jump(tag_6)\n    /* \"#utility.yul\":7:150   */\ntag_8:\n    /* \"#utility.yul\":64:69   */\n  0x00\n    /* \"#utility.yul\":95:101   */\n  dup2\n    /* \"#utility.yul\":89:102   */\n  mload\n    /* \"#utility.yul\":80:102   */\n  swap1\n  pop\n    /* \"#utility.yul\":111:144   */\n  tag_10\n    /* \"#utility.yul\":138:143   */\n  dup2\n    /* \"#utility.yul\":111:144   */\n  tag_11\n  jump\t// in\ntag_10:\n    /* \"#utility.yul\":70:150   */\n  swap3\n  swap2\n  pop\n  pop\n  jump\t// out\n    /* \"#utility.yul\":156:507   */\ntag_3:\n    /* \"#utility.yul\":226:232   */\n  0x00\n    /* \"#utility.yul\":275:277   */\n  0x20\n    /* \"#utility.yul\":263:272   */\n  dup3\n    /* \"#utility.yul\":254:261   */\n  dup5\n    /* \"#utility.yul\":250:273   */\n  sub\n    /* \"#utility.yul\":246:278   */\n  slt\n    /* \"#utility.yul\":243:245   */\n  iszero\n  tag_13\n  jumpi\n    /* \"#utility.yul\":281:360   */\n  tag_14\n  tag_15\n  jump\t// in\ntag_14:\n    /* \"#utility.yul\":243:245   */\ntag_13:\n    /* \"#utility.yul\":401:402   */\n  0x00\n    /* \"#utility.yul\":426:490   */\n  tag_16\n    /* \"#utility.yul\":482:489   */\n  dup5\n    /* \"#utility.yul\":473:479   */\n  dup3\n    /* \"#utility.yul\":462:471   */\n  dup6\n    /* \"#utility.yul\":458:480   */\n  add\n    /* \"#utility.yul\":426:490   */\n  tag_8\n  jump\t// in\ntag_16:\n    /* \"#utility.yul\":416:490   */\n  swap2\n  pop\n    /* \"#utility.yul\":372:500   */\n  pop\n    /* \"#utility.yul\":233:507   */\n  swap3\n  swap2\n  pop\n  pop\n  jump\t// out\n    /* \"#utility.yul\":594:690   */\ntag_19:\n    /* \"#utility.yul\":631:638   */\n  0x00\n    /* \"#utility.yul\":660:684   */\n  tag_21\n    /* \"#utility.yul\":678:683   */\n  dup3\n    /* \"#utility.yul\":660:684   */\n  tag_22\n  jump\t// in\ntag_21:\n    /* \"#utility.yul\":649:684   */\n  swap1\n  pop\n    /* \"#utility.yul\":639:690   */\n  swap2\n  swap1\n  pop\n  jump\t// out\n    /* \"#utility.yul\":696:822   */\ntag_22:\n    /* \"#utility.yul\":733:740   */\n  0x00\n    /* \"#utility.yul\":773:815   */\n  0xffffffffffffffffffffffffffffffffffffffff\n    /* \"#utility.yul\":766:771   */\n  dup3\n    /* \"#utility.yul\":762:816   */\n  and\n    /* \"#utility.yul\":751:816   */\n  swap1\n  pop\n    /* \"#utility.yul\":741:822   */\n  swap2\n  swap1\n  pop\n  jump\t// out\n    /* \"#utility.yul\":951:1068   */\ntag_15:\n    /* \"#utility.yul\":1060:1061   */\n  0x00\n    /* \"#utility.yul\":1057:1058   */\n  dup1\n    /* \"#utility.yul\":1050:1062   */\n  revert\n    /* \"#utility.yul\":1074:1196   */\ntag_11:\n    /* \"#utility.yul\":1147:1171   */\n  tag_28\n    /* \"#utility.yul\":1165:1170   */\n  dup2\n    /* \"#utility.yul\":1147:1171   */\n  tag_19\n  jump\t// in\ntag_28:\n    /* \"#utility.yul\":1140:1145   */\n  dup2\n    /* \"#utility.yul\":1137:1172   */\n  eq\n    /* \"#utility.yul\":1127:1129   */\n  tag_29\n  jumpi\n    /* \"#utility.yul\":1186:1187   */\n  0x00\n    /* \"#utility.yul\":1183:1184   */\n  dup1\n    /* \"#utility.yul\":1176:1188   */\n  revert\n    /* \"#utility.yul\":1127:1129   */\ntag_29:\n    /* \"#utility.yul\":1117:1196   */\n  pop\n  jump\t// out\n    /* \"VendorFactory.sol\":193:2213  contract VendorFactory is CloneFactory {... */\ntag_6:\n  dataSize(sub_0)\n  dup1\n  dataOffset(sub_0)\n  0x00\n  codecopy\n  0x00\n  return\nstop\n\nsub_0: assembly {\n        /* \"VendorFactory.sol\":193:2213  contract VendorFactory is CloneFactory {... */\n      mstore(0x40, 0x80)\n      callvalue\n      dup1\n      iszero\n      tag_1\n      jumpi\n      0x00\n      dup1\n      revert\n    tag_1:\n      pop\n      jumpi(tag_2, lt(calldatasize, 0x04))\n      shr(0xe0, calldataload(0x00))\n      dup1\n      0x0dfd002d\n      eq\n      tag_3\n      jumpi\n      dup1\n      0xd4e12f2e\n      eq\n      tag_4\n      jumpi\n    tag_2:\n      0x00\n      dup1\n      revert\n        /* \"VendorFactory.sol\":795:1514  function createVendor... */\n    tag_3:\n      tag_5\n      0x04\n      dup1\n      calldatasize\n      sub\n      dup2\n      add\n      swap1\n      tag_6\n      swap2\n      swap1\n      tag_7\n      jump\t// in\n    tag_6:\n      tag_8\n      jump\t// in\n    tag_5:\n      mload(0x40)\n      tag_9\n      swap2\n      swap1\n      tag_10\n      jump\t// in\n    tag_9:\n      mload(0x40)\n      dup1\n      swap2\n      sub\n      swap1\n      return\n        /* \"VendorFactory.sol\":1551:2088  function approve(address _contract, int _index) external returns (address, int) {... */\n    tag_4:\n      tag_11\n      0x04\n      dup1\n      calldatasize\n      sub\n      dup2\n      add\n      swap1\n      tag_12\n      swap2\n      swap1\n      tag_13\n      jump\t// in\n    tag_12:\n      tag_14\n      jump\t// in\n    tag_11:\n      mload(0x40)\n      tag_15\n      swap3\n      swap2\n      swap1\n      tag_16\n      jump\t// in\n    tag_15:\n      mload(0x40)\n      dup1\n      swap2\n      sub\n      swap1\n      return\n        /* \"VendorFactory.sol\":795:1514  function createVendor... */\n    tag_8:\n        /* \"VendorFactory.sol\":1010:1017  address */\n      0x00\n        /* \"VendorFactory.sol\":2147:2152  admin */\n      dup1\n      0x00\n      swap1\n      sload\n      swap1\n      0x0100\n      exp\n      swap1\n      div\n      0xffffffffffffffffffffffffffffffffffffffff\n      and\n        /* \"VendorFactory.sol\":2133:2152  msg.sender == admin */\n      0xffffffffffffffffffffffffffffffffffffffff\n      and\n        /* \"VendorFactory.sol\":2133:2143  msg.sender */\n      caller\n        /* \"VendorFactory.sol\":2133:2152  msg.sender == admin */\n      0xffffffffffffffffffffffffffffffffffffffff\n      and\n      eq\n        /* \"VendorFactory.sol\":2125:2193  require(msg.sender == admin, 'Only the admin can use this function') */\n      tag_18\n      jumpi\n      mload(0x40)\n      0x08c379a000000000000000000000000000000000000000000000000000000000\n      dup2\n      mstore\n      0x04\n      add\n      tag_19\n      swap1\n      tag_20\n      jump\t// in\n    tag_19:\n      mload(0x40)\n      dup1\n      swap2\n      sub\n      swap1\n      revert\n    tag_18:\n        /* \"VendorFactory.sol\":1030:1047  address newVendor */\n      0x00\n        /* \"VendorFactory.sol\":1050:1077  createClone(implementation) */\n      tag_22\n        /* \"VendorFactory.sol\":1062:1076  implementation */\n      0x01\n      0x00\n      swap1\n      sload\n      swap1\n      0x0100\n      exp\n      swap1\n      div\n      0xffffffffffffffffffffffffffffffffffffffff\n      and\n        /* \"VendorFactory.sol\":1050:1061  createClone */\n      tag_23\n        /* \"VendorFactory.sol\":1050:1077  createClone(implementation) */\n      jump\t// in\n    tag_22:\n        /* \"VendorFactory.sol\":1030:1077  address newVendor = createClone(implementation) */\n      swap1\n      pop\n        /* \"VendorFactory.sol\":1094:1103  newVendor */\n      dup1\n        /* \"VendorFactory.sol\":1087:1109  Vendor(newVendor).init */\n      0xffffffffffffffffffffffffffffffffffffffff\n      and\n      0x9a730617\n        /* \"VendorFactory.sol\":1110:1117  _client */\n      dup10\n        /* \"VendorFactory.sol\":1119:1130  _expiryDate */\n      dup10\n        /* \"VendorFactory.sol\":1132:1142  _startDate */\n      dup10\n        /* \"VendorFactory.sol\":1144:1157  _contractHash */\n      dup10\n        /* \"VendorFactory.sol\":1159:1166  _amount */\n      dup10\n        /* \"VendorFactory.sol\":1087:1167  Vendor(newVendor).init(_client, _expiryDate, _startDate, _contractHash, _amount) */\n      mload(0x40)\n      dup7\n      0xffffffff\n      and\n      0xe0\n      shl\n      dup2\n      mstore\n      0x04\n      add\n      tag_24\n      swap6\n      swap5\n      swap4\n      swap3\n      swap2\n      swap1\n      tag_25\n      jump\t// in\n    tag_24:\n      0x00\n      mload(0x40)\n      dup1\n      dup4\n      sub\n      dup2\n      0x00\n      dup8\n      dup1\n      extcodesize\n      iszero\n      dup1\n      iszero\n      tag_26\n      jumpi\n      0x00\n      dup1\n      revert\n    tag_26:\n      pop\n      gas\n      call\n      iszero\n      dup1\n      iszero\n      tag_28\n      jumpi\n      returndatasize\n      0x00\n      dup1\n      returndatacopy\n      revert(0x00, returndatasize)\n    tag_28:\n      pop\n      pop\n      pop\n      pop\n        /* \"VendorFactory.sol\":1209:1212  0x0 */\n      0x00\n        /* \"VendorFactory.sol\":1182:1213  vendors[_index] != address(0x0) */\n      0xffffffffffffffffffffffffffffffffffffffff\n      and\n        /* \"VendorFactory.sol\":1182:1189  vendors */\n      0x02\n        /* \"VendorFactory.sol\":1182:1197  vendors[_index] */\n      0x00\n        /* \"VendorFactory.sol\":1190:1196  _index */\n      dup6\n        /* \"VendorFactory.sol\":1182:1197  vendors[_index] */\n      dup2\n      mstore\n      0x20\n      add\n      swap1\n      dup2\n      mstore\n      0x20\n      add\n      0x00\n      keccak256\n      0x00\n      swap1\n      sload\n      swap1\n      0x0100\n      exp\n      swap1\n      div\n      0xffffffffffffffffffffffffffffffffffffffff\n      and\n        /* \"VendorFactory.sol\":1182:1213  vendors[_index] != address(0x0) */\n      0xffffffffffffffffffffffffffffffffffffffff\n      and\n      eq\n        /* \"VendorFactory.sol\":1178:1438  if (vendors[_index] != address(0x0)) {  // check if an existing contract lies at the index... */\n      tag_29\n      jumpi\n        /* \"VendorFactory.sol\":1300:1309  newVendor */\n      dup1\n        /* \"VendorFactory.sol\":1281:1289  updating */\n      0x03\n        /* \"VendorFactory.sol\":1281:1297  updating[_index] */\n      0x00\n        /* \"VendorFactory.sol\":1290:1296  _index */\n      dup6\n        /* \"VendorFactory.sol\":1281:1297  updating[_index] */\n      dup2\n      mstore\n      0x20\n      add\n      swap1\n      dup2\n      mstore\n      0x20\n      add\n      0x00\n      keccak256\n      0x00\n        /* \"VendorFactory.sol\":1281:1309  updating[_index] = newVendor */\n      0x0100\n      exp\n      dup2\n      sload\n      dup2\n      0xffffffffffffffffffffffffffffffffffffffff\n      mul\n      not\n      and\n      swap1\n      dup4\n      0xffffffffffffffffffffffffffffffffffffffff\n      and\n      mul\n      or\n      swap1\n      sstore\n      pop\n        /* \"VendorFactory.sol\":1178:1438  if (vendors[_index] != address(0x0)) {  // check if an existing contract lies at the index... */\n      jump(tag_30)\n    tag_29:\n        /* \"VendorFactory.sol\":1418:1427  newVendor */\n      dup1\n        /* \"VendorFactory.sol\":1400:1407  vendors */\n      0x02\n        /* \"VendorFactory.sol\":1400:1415  vendors[_index] */\n      0x00\n        /* \"VendorFactory.sol\":1408:1414  _index */\n      dup6\n        /* \"VendorFactory.sol\":1400:1415  vendors[_index] */\n      dup2\n      mstore\n      0x20\n      add\n      swap1\n      dup2\n      mstore\n      0x20\n      add\n      0x00\n      keccak256\n      0x00\n        /* \"VendorFactory.sol\":1400:1427  vendors[_index] = newVendor */\n      0x0100\n      exp\n      dup2\n      sload\n      dup2\n      0xffffffffffffffffffffffffffffffffffffffff\n      mul\n      not\n      and\n      swap1\n      dup4\n      0xffffffffffffffffffffffffffffffffffffffff\n      and\n      mul\n      or\n      swap1\n      sstore\n      pop\n        /* \"VendorFactory.sol\":1178:1438  if (vendors[_index] != address(0x0)) {  // check if an existing contract lies at the index... */\n    tag_30:\n        /* \"VendorFactory.sol\":1498:1507  newVendor */\n      dup1\n        /* \"VendorFactory.sol\":1491:1507  return newVendor */\n      swap2\n      pop\n      pop\n        /* \"VendorFactory.sol\":795:1514  function createVendor... */\n      swap7\n      swap6\n      pop\n      pop\n      pop\n      pop\n      pop\n      pop\n      jump\t// out\n        /* \"VendorFactory.sol\":1551:2088  function approve(address _contract, int _index) external returns (address, int) {... */\n    tag_14:\n        /* \"VendorFactory.sol\":1617:1624  address */\n      0x00\n        /* \"VendorFactory.sol\":1626:1629  int */\n      dup1\n        /* \"VendorFactory.sol\":1679:1688  _contract */\n      dup4\n        /* \"VendorFactory.sol\":1672:1695  Vendor(_contract).payee */\n      0xffffffffffffffffffffffffffffffffffffffff\n      and\n      0xae90b213\n        /* \"VendorFactory.sol\":1672:1697  Vendor(_contract).payee() */\n      mload(0x40)\n      dup2\n      0xffffffff\n      and\n      0xe0\n      shl\n      dup2\n      mstore\n      0x04\n      add\n      0x20\n      mload(0x40)\n      dup1\n      dup4\n      sub\n      dup2\n      dup7\n      dup1\n      extcodesize\n      iszero\n      dup1\n      iszero\n      tag_32\n      jumpi\n      0x00\n      dup1\n      revert\n    tag_32:\n      pop\n      gas\n      staticcall\n      iszero\n      dup1\n      iszero\n      tag_34\n      jumpi\n      returndatasize\n      0x00\n      dup1\n      returndatacopy\n      revert(0x00, returndatasize)\n    tag_34:\n      pop\n      pop\n      pop\n      pop\n      mload(0x40)\n      returndatasize\n      not(0x1f)\n      0x1f\n      dup3\n      add\n      and\n      dup3\n      add\n      dup1\n      0x40\n      mstore\n      pop\n      dup2\n      add\n      swap1\n      tag_35\n      swap2\n      swap1\n      tag_36\n      jump\t// in\n    tag_35:\n        /* \"VendorFactory.sol\":1649:1697  payable(msg.sender) == Vendor(_contract).payee() */\n      0xffffffffffffffffffffffffffffffffffffffff\n      and\n        /* \"VendorFactory.sol\":1657:1667  msg.sender */\n      caller\n        /* \"VendorFactory.sol\":1649:1697  payable(msg.sender) == Vendor(_contract).payee() */\n      0xffffffffffffffffffffffffffffffffffffffff\n      and\n      eq\n        /* \"VendorFactory.sol\":1641:1743  require(payable(msg.sender) == Vendor(_contract).payee(), \"Only the payee can approve this contract.\") */\n      tag_37\n      jumpi\n      mload(0x40)\n      0x08c379a000000000000000000000000000000000000000000000000000000000\n      dup2\n      mstore\n      0x04\n      add\n      tag_38\n      swap1\n      tag_39\n      jump\t// in\n    tag_38:\n      mload(0x40)\n      dup1\n      swap2\n      sub\n      swap1\n      revert\n    tag_37:\n        /* \"VendorFactory.sol\":1760:1769  _contract */\n      dup4\n        /* \"VendorFactory.sol\":1753:1778  Vendor(_contract).approve */\n      0xffffffffffffffffffffffffffffffffffffffff\n      and\n      0x12424e3f\n        /* \"VendorFactory.sol\":1753:1780  Vendor(_contract).approve() */\n      mload(0x40)\n      dup2\n      0xffffffff\n      and\n      0xe0\n      shl\n      dup2\n      mstore\n      0x04\n      add\n      0x00\n      mload(0x40)\n      dup1\n      dup4\n      sub\n      dup2\n      0x00\n      dup8\n      dup1\n      extcodesize\n      iszero\n      dup1\n      iszero\n      tag_40\n      jumpi\n      0x00\n      dup1\n      revert\n    tag_40:\n      pop\n      gas\n      call\n      iszero\n      dup1\n      iszero\n      tag_42\n      jumpi\n      returndatasize\n      0x00\n      dup1\n      returndatacopy\n      revert(0x00, returndatasize)\n    tag_42:\n      pop\n      pop\n      pop\n      pop\n        /* \"VendorFactory.sol\":1822:1825  0x0 */\n      0x00\n        /* \"VendorFactory.sol\":1795:1826  vendors[_index] != address(0x0) */\n      0xffffffffffffffffffffffffffffffffffffffff\n      and\n        /* \"VendorFactory.sol\":1795:1802  vendors */\n      0x02\n        /* \"VendorFactory.sol\":1795:1810  vendors[_index] */\n      0x00\n        /* \"VendorFactory.sol\":1803:1809  _index */\n      dup6\n        /* \"VendorFactory.sol\":1795:1810  vendors[_index] */\n      dup2\n      mstore\n      0x20\n      add\n      swap1\n      dup2\n      mstore\n      0x20\n      add\n      0x00\n      keccak256\n      0x00\n      swap1\n      sload\n      swap1\n      0x0100\n      exp\n      swap1\n      div\n      0xffffffffffffffffffffffffffffffffffffffff\n      and\n        /* \"VendorFactory.sol\":1795:1826  vendors[_index] != address(0x0) */\n      0xffffffffffffffffffffffffffffffffffffffff\n      and\n      eq\n        /* \"VendorFactory.sol\":1791:1995  if (vendors[_index] != address(0x0)) {     // know if it's an update... */\n      tag_43\n      jumpi\n        /* \"VendorFactory.sol\":1879:1886  vendors */\n      0x02\n        /* \"VendorFactory.sol\":1879:1894  vendors[_index] */\n      0x00\n        /* \"VendorFactory.sol\":1887:1893  _index */\n      dup5\n        /* \"VendorFactory.sol\":1879:1894  vendors[_index] */\n      dup2\n      mstore\n      0x20\n      add\n      swap1\n      dup2\n      mstore\n      0x20\n      add\n      0x00\n      keccak256\n      0x00\n      swap1\n      sload\n      swap1\n      0x0100\n      exp\n      swap1\n      div\n      0xffffffffffffffffffffffffffffffffffffffff\n      and\n        /* \"VendorFactory.sol\":1872:1903  Vendor(vendors[_index]).destroy */\n      0xffffffffffffffffffffffffffffffffffffffff\n      and\n      0x83197ef0\n        /* \"VendorFactory.sol\":1872:1905  Vendor(vendors[_index]).destroy() */\n      mload(0x40)\n      dup2\n      0xffffffff\n      and\n      0xe0\n      shl\n      dup2\n      mstore\n      0x04\n      add\n      0x00\n      mload(0x40)\n      dup1\n      dup4\n      sub\n      dup2\n      0x00\n      dup8\n      dup1\n      extcodesize\n      iszero\n      dup1\n      iszero\n      tag_44\n      jumpi\n      0x00\n      dup1\n      revert\n    tag_44:\n      pop\n      gas\n      call\n      iszero\n      dup1\n      iszero\n      tag_46\n      jumpi\n      returndatasize\n      0x00\n      dup1\n      returndatacopy\n      revert(0x00, returndatasize)\n    tag_46:\n      pop\n      pop\n      pop\n      pop\n        /* \"VendorFactory.sol\":1926:1934  updating */\n      0x03\n        /* \"VendorFactory.sol\":1926:1942  updating[_index] */\n      0x00\n        /* \"VendorFactory.sol\":1935:1941  _index */\n      dup5\n        /* \"VendorFactory.sol\":1926:1942  updating[_index] */\n      dup2\n      mstore\n      0x20\n      add\n      swap1\n      dup2\n      mstore\n      0x20\n      add\n      0x00\n      keccak256\n      0x00\n        /* \"VendorFactory.sol\":1919:1943  delete(updating[_index]) */\n      0x0100\n      exp\n      dup2\n      sload\n      swap1\n      0xffffffffffffffffffffffffffffffffffffffff\n      mul\n      not\n      and\n      swap1\n      sstore\n        /* \"VendorFactory.sol\":1975:1984  _contract */\n      dup4\n        /* \"VendorFactory.sol\":1957:1964  vendors */\n      0x02\n        /* \"VendorFactory.sol\":1957:1972  vendors[_index] */\n      0x00\n        /* \"VendorFactory.sol\":1965:1971  _index */\n      dup6\n        /* \"VendorFactory.sol\":1957:1972  vendors[_index] */\n      dup2\n      mstore\n      0x20\n      add\n      swap1\n      dup2\n      mstore\n      0x20\n      add\n      0x00\n      keccak256\n      0x00\n        /* \"VendorFactory.sol\":1957:1984  vendors[_index] = _contract */\n      0x0100\n      exp\n      dup2\n      sload\n      dup2\n      0xffffffffffffffffffffffffffffffffffffffff\n      mul\n      not\n      and\n      swap1\n      dup4\n      0xffffffffffffffffffffffffffffffffffffffff\n      and\n      mul\n      or\n      swap1\n      sstore\n      pop\n        /* \"VendorFactory.sol\":1791:1995  if (vendors[_index] != address(0x0)) {     // know if it's an update... */\n    tag_43:\n        /* \"VendorFactory.sol\":2010:2045  ApprovedContract(_contract, _index) */\n      0xa632268b4e910a424b413fd0bd0a48d43ad05e1cf3920dfb1573c2c39b495f5b\n        /* \"VendorFactory.sol\":2027:2036  _contract */\n      dup5\n        /* \"VendorFactory.sol\":2038:2044  _index */\n      dup5\n        /* \"VendorFactory.sol\":2010:2045  ApprovedContract(_contract, _index) */\n      mload(0x40)\n      tag_47\n      swap3\n      swap2\n      swap1\n      tag_16\n      jump\t// in\n    tag_47:\n      mload(0x40)\n      dup1\n      swap2\n      sub\n      swap1\n      log1\n        /* \"VendorFactory.sol\":2063:2072  _contract */\n      dup4\n        /* \"VendorFactory.sol\":2074:2080  _index */\n      dup4\n        /* \"VendorFactory.sol\":2055:2081  return (_contract, _index) */\n      swap2\n      pop\n      swap2\n      pop\n        /* \"VendorFactory.sol\":1551:2088  function approve(address _contract, int _index) external returns (address, int) {... */\n      swap3\n      pop\n      swap3\n      swap1\n      pop\n      jump\t// out\n        /* \"CloneFactory.sol\":1247:1688  function createClone(address target) internal returns (address result) {... */\n    tag_23:\n        /* \"CloneFactory.sol\":1302:1316  address result */\n      0x00\n        /* \"CloneFactory.sol\":1324:1343  bytes20 targetBytes */\n      dup1\n        /* \"CloneFactory.sol\":1354:1360  target */\n      dup3\n        /* \"CloneFactory.sol\":1346:1361  bytes20(target) */\n      0x60\n      shl\n        /* \"CloneFactory.sol\":1324:1361  bytes20 targetBytes = bytes20(target) */\n      swap1\n      pop\n        /* \"CloneFactory.sol\":1403:1407  0x40 */\n      0x40\n        /* \"CloneFactory.sol\":1397:1408  mload(0x40) */\n      mload\n        /* \"CloneFactory.sol\":1429:1495  0x3d602d80600a3d3981f3363d3d373d3d3d363d73000000000000000000000000 */\n      0x3d602d80600a3d3981f3363d3d373d3d3d363d73000000000000000000000000\n        /* \"CloneFactory.sol\":1422:1427  clone */\n      dup2\n        /* \"CloneFactory.sol\":1415:1496  mstore(clone, 0x3d602d80600a3d3981f3363d3d373d3d3d363d73000000000000000000000000) */\n      mstore\n        /* \"CloneFactory.sol\":1528:1539  targetBytes */\n      dup2\n        /* \"CloneFactory.sol\":1521:1525  0x14 */\n      0x14\n        /* \"CloneFactory.sol\":1514:1519  clone */\n      dup3\n        /* \"CloneFactory.sol\":1510:1526  add(clone, 0x14) */\n      add\n        /* \"CloneFactory.sol\":1503:1540  mstore(add(clone, 0x14), targetBytes) */\n      mstore\n        /* \"CloneFactory.sol\":1572:1638  0x5af43d82803e903d91602b57fd5bf30000000000000000000000000000000000 */\n      0x5af43d82803e903d91602b57fd5bf30000000000000000000000000000000000\n        /* \"CloneFactory.sol\":1565:1569  0x28 */\n      0x28\n        /* \"CloneFactory.sol\":1558:1563  clone */\n      dup3\n        /* \"CloneFactory.sol\":1554:1570  add(clone, 0x28) */\n      add\n        /* \"CloneFactory.sol\":1547:1639  mstore(add(clone, 0x28), 0x5af43d82803e903d91602b57fd5bf30000000000000000000000000000000000) */\n      mstore\n        /* \"CloneFactory.sol\":1673:1677  0x37 */\n      0x37\n        /* \"CloneFactory.sol\":1666:1671  clone */\n      dup2\n        /* \"CloneFactory.sol\":1663:1664  0 */\n      0x00\n        /* \"CloneFactory.sol\":1656:1678  create(0, clone, 0x37) */\n      create\n        /* \"CloneFactory.sol\":1646:1678  result := create(0, clone, 0x37) */\n      swap3\n      pop\n        /* \"CloneFactory.sol\":1376:1684  {... */\n      pop\n      pop\n        /* \"CloneFactory.sol\":1247:1688  function createClone(address target) internal returns (address result) {... */\n      swap2\n      swap1\n      pop\n      jump\t// out\n        /* \"#utility.yul\":7:146   */\n    tag_50:\n        /* \"#utility.yul\":53:58   */\n      0x00\n        /* \"#utility.yul\":91:97   */\n      dup2\n        /* \"#utility.yul\":78:98   */\n      calldataload\n        /* \"#utility.yul\":69:98   */\n      swap1\n      pop\n        /* \"#utility.yul\":107:140   */\n      tag_52\n        /* \"#utility.yul\":134:139   */\n      dup2\n        /* \"#utility.yul\":107:140   */\n      tag_53\n      jump\t// in\n    tag_52:\n        /* \"#utility.yul\":59:146   */\n      swap3\n      swap2\n      pop\n      pop\n      jump\t// out\n        /* \"#utility.yul\":152:311   */\n    tag_54:\n        /* \"#utility.yul\":217:222   */\n      0x00\n        /* \"#utility.yul\":248:254   */\n      dup2\n        /* \"#utility.yul\":242:255   */\n      mload\n        /* \"#utility.yul\":233:255   */\n      swap1\n      pop\n        /* \"#utility.yul\":264:305   */\n      tag_56\n        /* \"#utility.yul\":299:304   */\n      dup2\n        /* \"#utility.yul\":264:305   */\n      tag_57\n      jump\t// in\n    tag_56:\n        /* \"#utility.yul\":223:311   */\n      swap3\n      swap2\n      pop\n      pop\n      jump\t// out\n        /* \"#utility.yul\":317:454   */\n    tag_58:\n        /* \"#utility.yul\":362:367   */\n      0x00\n        /* \"#utility.yul\":400:406   */\n      dup2\n        /* \"#utility.yul\":387:407   */\n      calldataload\n        /* \"#utility.yul\":378:407   */\n      swap1\n      pop\n        /* \"#utility.yul\":416:448   */\n      tag_60\n        /* \"#utility.yul\":442:447   */\n      dup2\n        /* \"#utility.yul\":416:448   */\n      tag_61\n      jump\t// in\n    tag_60:\n        /* \"#utility.yul\":368:454   */\n      swap3\n      swap2\n      pop\n      pop\n      jump\t// out\n        /* \"#utility.yul\":460:599   */\n    tag_62:\n        /* \"#utility.yul\":506:511   */\n      0x00\n        /* \"#utility.yul\":544:550   */\n      dup2\n        /* \"#utility.yul\":531:551   */\n      calldataload\n        /* \"#utility.yul\":522:551   */\n      swap1\n      pop\n        /* \"#utility.yul\":560:593   */\n      tag_64\n        /* \"#utility.yul\":587:592   */\n      dup2\n        /* \"#utility.yul\":560:593   */\n      tag_65\n      jump\t// in\n    tag_64:\n        /* \"#utility.yul\":512:599   */\n      swap3\n      swap2\n      pop\n      pop\n      jump\t// out\n        /* \"#utility.yul\":605:972   */\n    tag_36:\n        /* \"#utility.yul\":683:689   */\n      0x00\n        /* \"#utility.yul\":732:734   */\n      0x20\n        /* \"#utility.yul\":720:729   */\n      dup3\n        /* \"#utility.yul\":711:718   */\n      dup5\n        /* \"#utility.yul\":707:730   */\n      sub\n        /* \"#utility.yul\":703:735   */\n      slt\n        /* \"#utility.yul\":700:702   */\n      iszero\n      tag_67\n      jumpi\n        /* \"#utility.yul\":738:817   */\n      tag_68\n      tag_69\n      jump\t// in\n    tag_68:\n        /* \"#utility.yul\":700:702   */\n    tag_67:\n        /* \"#utility.yul\":858:859   */\n      0x00\n        /* \"#utility.yul\":883:955   */\n      tag_70\n        /* \"#utility.yul\":947:954   */\n      dup5\n        /* \"#utility.yul\":938:944   */\n      dup3\n        /* \"#utility.yul\":927:936   */\n      dup6\n        /* \"#utility.yul\":923:945   */\n      add\n        /* \"#utility.yul\":883:955   */\n      tag_54\n      jump\t// in\n    tag_70:\n        /* \"#utility.yul\":873:955   */\n      swap2\n      pop\n        /* \"#utility.yul\":829:965   */\n      pop\n        /* \"#utility.yul\":690:972   */\n      swap3\n      swap2\n      pop\n      pop\n      jump\t// out\n        /* \"#utility.yul\":978:1450   */\n    tag_13:\n        /* \"#utility.yul\":1045:1051   */\n      0x00\n        /* \"#utility.yul\":1053:1059   */\n      dup1\n        /* \"#utility.yul\":1102:1104   */\n      0x40\n        /* \"#utility.yul\":1090:1099   */\n      dup4\n        /* \"#utility.yul\":1081:1088   */\n      dup6\n        /* \"#utility.yul\":1077:1100   */\n      sub\n        /* \"#utility.yul\":1073:1105   */\n      slt\n        /* \"#utility.yul\":1070:1072   */\n      iszero\n      tag_72\n      jumpi\n        /* \"#utility.yul\":1108:1187   */\n      tag_73\n      tag_69\n      jump\t// in\n    tag_73:\n        /* \"#utility.yul\":1070:1072   */\n    tag_72:\n        /* \"#utility.yul\":1228:1229   */\n      0x00\n        /* \"#utility.yul\":1253:1306   */\n      tag_74\n        /* \"#utility.yul\":1298:1305   */\n      dup6\n        /* \"#utility.yul\":1289:1295   */\n      dup3\n        /* \"#utility.yul\":1278:1287   */\n      dup7\n        /* \"#utility.yul\":1274:1296   */\n      add\n        /* \"#utility.yul\":1253:1306   */\n      tag_50\n      jump\t// in\n    tag_74:\n        /* \"#utility.yul\":1243:1306   */\n      swap3\n      pop\n        /* \"#utility.yul\":1199:1316   */\n      pop\n        /* \"#utility.yul\":1355:1357   */\n      0x20\n        /* \"#utility.yul\":1381:1433   */\n      tag_75\n        /* \"#utility.yul\":1425:1432   */\n      dup6\n        /* \"#utility.yul\":1416:1422   */\n      dup3\n        /* \"#utility.yul\":1405:1414   */\n      dup7\n        /* \"#utility.yul\":1401:1423   */\n      add\n        /* \"#utility.yul\":1381:1433   */\n      tag_58\n      jump\t// in\n    tag_75:\n        /* \"#utility.yul\":1371:1433   */\n      swap2\n      pop\n        /* \"#utility.yul\":1326:1443   */\n      pop\n        /* \"#utility.yul\":1060:1450   */\n      swap3\n      pop\n      swap3\n      swap1\n      pop\n      jump\t// out\n        /* \"#utility.yul\":1456:2511   */\n    tag_7:\n        /* \"#utility.yul\":1559:1565   */\n      0x00\n        /* \"#utility.yul\":1567:1573   */\n      dup1\n        /* \"#utility.yul\":1575:1581   */\n      0x00\n        /* \"#utility.yul\":1583:1589   */\n      dup1\n        /* \"#utility.yul\":1591:1597   */\n      0x00\n        /* \"#utility.yul\":1599:1605   */\n      dup1\n        /* \"#utility.yul\":1648:1651   */\n      0xc0\n        /* \"#utility.yul\":1636:1645   */\n      dup8\n        /* \"#utility.yul\":1627:1634   */\n      dup10\n        /* \"#utility.yul\":1623:1646   */\n      sub\n        /* \"#utility.yul\":1619:1652   */\n      slt\n        /* \"#utility.yul\":1616:1618   */\n      iszero\n      tag_77\n      jumpi\n        /* \"#utility.yul\":1655:1734   */\n      tag_78\n      tag_69\n      jump\t// in\n    tag_78:\n        /* \"#utility.yul\":1616:1618   */\n    tag_77:\n        /* \"#utility.yul\":1775:1776   */\n      0x00\n        /* \"#utility.yul\":1800:1853   */\n      tag_79\n        /* \"#utility.yul\":1845:1852   */\n      dup10\n        /* \"#utility.yul\":1836:1842   */\n      dup3\n        /* \"#utility.yul\":1825:1834   */\n      dup11\n        /* \"#utility.yul\":1821:1843   */\n      add\n        /* \"#utility.yul\":1800:1853   */\n      tag_50\n      jump\t// in\n    tag_79:\n        /* \"#utility.yul\":1790:1853   */\n      swap7\n      pop\n        /* \"#utility.yul\":1746:1863   */\n      pop\n        /* \"#utility.yul\":1902:1904   */\n      0x20\n        /* \"#utility.yul\":1928:1981   */\n      tag_80\n        /* \"#utility.yul\":1973:1980   */\n      dup10\n        /* \"#utility.yul\":1964:1970   */\n      dup3\n        /* \"#utility.yul\":1953:1962   */\n      dup11\n        /* \"#utility.yul\":1949:1971   */\n      add\n        /* \"#utility.yul\":1928:1981   */\n      tag_62\n      jump\t// in\n    tag_80:\n        /* \"#utility.yul\":1918:1981   */\n      swap6\n      pop\n        /* \"#utility.yul\":1873:1991   */\n      pop\n        /* \"#utility.yul\":2030:2032   */\n      0x40\n        /* \"#utility.yul\":2056:2109   */\n      tag_81\n        /* \"#utility.yul\":2101:2108   */\n      dup10\n        /* \"#utility.yul\":2092:2098   */\n      dup3\n        /* \"#utility.yul\":2081:2090   */\n      dup11\n        /* \"#utility.yul\":2077:2099   */\n      add\n        /* \"#utility.yul\":2056:2109   */\n      tag_62\n      jump\t// in\n    tag_81:\n        /* \"#utility.yul\":2046:2109   */\n      swap5\n      pop\n        /* \"#utility.yul\":2001:2119   */\n      pop\n        /* \"#utility.yul\":2158:2160   */\n      0x60\n        /* \"#utility.yul\":2184:2237   */\n      tag_82\n        /* \"#utility.yul\":2229:2236   */\n      dup10\n        /* \"#utility.yul\":2220:2226   */\n      dup3\n        /* \"#utility.yul\":2209:2218   */\n      dup11\n        /* \"#utility.yul\":2205:2227   */\n      add\n        /* \"#utility.yul\":2184:2237   */\n      tag_62\n      jump\t// in\n    tag_82:\n        /* \"#utility.yul\":2174:2237   */\n      swap4\n      pop\n        /* \"#utility.yul\":2129:2247   */\n      pop\n        /* \"#utility.yul\":2286:2289   */\n      0x80\n        /* \"#utility.yul\":2313:2366   */\n      tag_83\n        /* \"#utility.yul\":2358:2365   */\n      dup10\n        /* \"#utility.yul\":2349:2355   */\n      dup3\n        /* \"#utility.yul\":2338:2347   */\n      dup11\n        /* \"#utility.yul\":2334:2356   */\n      add\n        /* \"#utility.yul\":2313:2366   */\n      tag_62\n      jump\t// in\n    tag_83:\n        /* \"#utility.yul\":2303:2366   */\n      swap3\n      pop\n        /* \"#utility.yul\":2257:2376   */\n      pop\n        /* \"#utility.yul\":2415:2418   */\n      0xa0\n        /* \"#utility.yul\":2442:2494   */\n      tag_84\n        /* \"#utility.yul\":2486:2493   */\n      dup10\n        /* \"#utility.yul\":2477:2483   */\n      dup3\n        /* \"#utility.yul\":2466:2475   */\n      dup11\n        /* \"#utility.yul\":2462:2484   */\n      add\n        /* \"#utility.yul\":2442:2494   */\n      tag_58\n      jump\t// in\n    tag_84:\n        /* \"#utility.yul\":2432:2494   */\n      swap2\n      pop\n        /* \"#utility.yul\":2386:2504   */\n      pop\n        /* \"#utility.yul\":1606:2511   */\n      swap3\n      swap6\n      pop\n      swap3\n      swap6\n      pop\n      swap3\n      swap6\n      jump\t// out\n        /* \"#utility.yul\":2517:2635   */\n    tag_85:\n        /* \"#utility.yul\":2604:2628   */\n      tag_87\n        /* \"#utility.yul\":2622:2627   */\n      dup2\n        /* \"#utility.yul\":2604:2628   */\n      tag_88\n      jump\t// in\n    tag_87:\n        /* \"#utility.yul\":2599:2602   */\n      dup3\n        /* \"#utility.yul\":2592:2629   */\n      mstore\n        /* \"#utility.yul\":2582:2635   */\n      pop\n      pop\n      jump\t// out\n        /* \"#utility.yul\":2641:2756   */\n    tag_89:\n        /* \"#utility.yul\":2726:2749   */\n      tag_91\n        /* \"#utility.yul\":2743:2748   */\n      dup2\n        /* \"#utility.yul\":2726:2749   */\n      tag_92\n      jump\t// in\n    tag_91:\n        /* \"#utility.yul\":2721:2724   */\n      dup3\n        /* \"#utility.yul\":2714:2750   */\n      mstore\n        /* \"#utility.yul\":2704:2756   */\n      pop\n      pop\n      jump\t// out\n        /* \"#utility.yul\":2762:3128   */\n    tag_93:\n        /* \"#utility.yul\":2904:2907   */\n      0x00\n        /* \"#utility.yul\":2925:2992   */\n      tag_95\n        /* \"#utility.yul\":2989:2991   */\n      0x24\n        /* \"#utility.yul\":2984:2987   */\n      dup4\n        /* \"#utility.yul\":2925:2992   */\n      tag_96\n      jump\t// in\n    tag_95:\n        /* \"#utility.yul\":2918:2992   */\n      swap2\n      pop\n        /* \"#utility.yul\":3001:3094   */\n      tag_97\n        /* \"#utility.yul\":3090:3093   */\n      dup3\n        /* \"#utility.yul\":3001:3094   */\n      tag_98\n      jump\t// in\n    tag_97:\n        /* \"#utility.yul\":3119:3121   */\n      0x40\n        /* \"#utility.yul\":3114:3117   */\n      dup3\n        /* \"#utility.yul\":3110:3122   */\n      add\n        /* \"#utility.yul\":3103:3122   */\n      swap1\n      pop\n        /* \"#utility.yul\":2908:3128   */\n      swap2\n      swap1\n      pop\n      jump\t// out\n        /* \"#utility.yul\":3134:3500   */\n    tag_99:\n        /* \"#utility.yul\":3276:3279   */\n      0x00\n        /* \"#utility.yul\":3297:3364   */\n      tag_101\n        /* \"#utility.yul\":3361:3363   */\n      0x29\n        /* \"#utility.yul\":3356:3359   */\n      dup4\n        /* \"#utility.yul\":3297:3364   */\n      tag_96\n      jump\t// in\n    tag_101:\n        /* \"#utility.yul\":3290:3364   */\n      swap2\n      pop\n        /* \"#utility.yul\":3373:3466   */\n      tag_102\n        /* \"#utility.yul\":3462:3465   */\n      dup3\n        /* \"#utility.yul\":3373:3466   */\n      tag_103\n      jump\t// in\n    tag_102:\n        /* \"#utility.yul\":3491:3493   */\n      0x40\n        /* \"#utility.yul\":3486:3489   */\n      dup3\n        /* \"#utility.yul\":3482:3494   */\n      add\n        /* \"#utility.yul\":3475:3494   */\n      swap1\n      pop\n        /* \"#utility.yul\":3280:3500   */\n      swap2\n      swap1\n      pop\n      jump\t// out\n        /* \"#utility.yul\":3506:3624   */\n    tag_104:\n        /* \"#utility.yul\":3593:3617   */\n      tag_106\n        /* \"#utility.yul\":3611:3616   */\n      dup2\n        /* \"#utility.yul\":3593:3617   */\n      tag_107\n      jump\t// in\n    tag_106:\n        /* \"#utility.yul\":3588:3591   */\n      dup3\n        /* \"#utility.yul\":3581:3618   */\n      mstore\n        /* \"#utility.yul\":3571:3624   */\n      pop\n      pop\n      jump\t// out\n        /* \"#utility.yul\":3630:3852   */\n    tag_10:\n        /* \"#utility.yul\":3723:3727   */\n      0x00\n        /* \"#utility.yul\":3761:3763   */\n      0x20\n        /* \"#utility.yul\":3750:3759   */\n      dup3\n        /* \"#utility.yul\":3746:3764   */\n      add\n        /* \"#utility.yul\":3738:3764   */\n      swap1\n      pop\n        /* \"#utility.yul\":3774:3845   */\n      tag_109\n        /* \"#utility.yul\":3842:3843   */\n      0x00\n        /* \"#utility.yul\":3831:3840   */\n      dup4\n        /* \"#utility.yul\":3827:3844   */\n      add\n        /* \"#utility.yul\":3818:3824   */\n      dup5\n        /* \"#utility.yul\":3774:3845   */\n      tag_85\n      jump\t// in\n    tag_109:\n        /* \"#utility.yul\":3728:3852   */\n      swap3\n      swap2\n      pop\n      pop\n      jump\t// out\n        /* \"#utility.yul\":3858:4186   */\n    tag_16:\n        /* \"#utility.yul\":3977:3981   */\n      0x00\n        /* \"#utility.yul\":4015:4017   */\n      0x40\n        /* \"#utility.yul\":4004:4013   */\n      dup3\n        /* \"#utility.yul\":4000:4018   */\n      add\n        /* \"#utility.yul\":3992:4018   */\n      swap1\n      pop\n        /* \"#utility.yul\":4028:4099   */\n      tag_111\n        /* \"#utility.yul\":4096:4097   */\n      0x00\n        /* \"#utility.yul\":4085:4094   */\n      dup4\n        /* \"#utility.yul\":4081:4098   */\n      add\n        /* \"#utility.yul\":4072:4078   */\n      dup6\n        /* \"#utility.yul\":4028:4099   */\n      tag_85\n      jump\t// in\n    tag_111:\n        /* \"#utility.yul\":4109:4179   */\n      tag_112\n        /* \"#utility.yul\":4175:4177   */\n      0x20\n        /* \"#utility.yul\":4164:4173   */\n      dup4\n        /* \"#utility.yul\":4160:4178   */\n      add\n        /* \"#utility.yul\":4151:4157   */\n      dup5\n        /* \"#utility.yul\":4109:4179   */\n      tag_89\n      jump\t// in\n    tag_112:\n        /* \"#utility.yul\":3982:4186   */\n      swap4\n      swap3\n      pop\n      pop\n      pop\n      jump\t// out\n        /* \"#utility.yul\":4192:4856   */\n    tag_25:\n        /* \"#utility.yul\":4397:4401   */\n      0x00\n        /* \"#utility.yul\":4435:4438   */\n      0xa0\n        /* \"#utility.yul\":4424:4433   */\n      dup3\n        /* \"#utility.yul\":4420:4439   */\n      add\n        /* \"#utility.yul\":4412:4439   */\n      swap1\n      pop\n        /* \"#utility.yul\":4449:4520   */\n      tag_114\n        /* \"#utility.yul\":4517:4518   */\n      0x00\n        /* \"#utility.yul\":4506:4515   */\n      dup4\n        /* \"#utility.yul\":4502:4519   */\n      add\n        /* \"#utility.yul\":4493:4499   */\n      dup9\n        /* \"#utility.yul\":4449:4520   */\n      tag_85\n      jump\t// in\n    tag_114:\n        /* \"#utility.yul\":4530:4602   */\n      tag_115\n        /* \"#utility.yul\":4598:4600   */\n      0x20\n        /* \"#utility.yul\":4587:4596   */\n      dup4\n        /* \"#utility.yul\":4583:4601   */\n      add\n        /* \"#utility.yul\":4574:4580   */\n      dup8\n        /* \"#utility.yul\":4530:4602   */\n      tag_104\n      jump\t// in\n    tag_115:\n        /* \"#utility.yul\":4612:4684   */\n      tag_116\n        /* \"#utility.yul\":4680:4682   */\n      0x40\n        /* \"#utility.yul\":4669:4678   */\n      dup4\n        /* \"#utility.yul\":4665:4683   */\n      add\n        /* \"#utility.yul\":4656:4662   */\n      dup7\n        /* \"#utility.yul\":4612:4684   */\n      tag_104\n      jump\t// in\n    tag_116:\n        /* \"#utility.yul\":4694:4766   */\n      tag_117\n        /* \"#utility.yul\":4762:4764   */\n      0x60\n        /* \"#utility.yul\":4751:4760   */\n      dup4\n        /* \"#utility.yul\":4747:4765   */\n      add\n        /* \"#utility.yul\":4738:4744   */\n      dup6\n        /* \"#utility.yul\":4694:4766   */\n      tag_104\n      jump\t// in\n    tag_117:\n        /* \"#utility.yul\":4776:4849   */\n      tag_118\n        /* \"#utility.yul\":4844:4847   */\n      0x80\n        /* \"#utility.yul\":4833:4842   */\n      dup4\n        /* \"#utility.yul\":4829:4848   */\n      add\n        /* \"#utility.yul\":4820:4826   */\n      dup5\n        /* \"#utility.yul\":4776:4849   */\n      tag_104\n      jump\t// in\n    tag_118:\n        /* \"#utility.yul\":4402:4856   */\n      swap7\n      swap6\n      pop\n      pop\n      pop\n      pop\n      pop\n      pop\n      jump\t// out\n        /* \"#utility.yul\":4862:5281   */\n    tag_20:\n        /* \"#utility.yul\":5028:5032   */\n      0x00\n        /* \"#utility.yul\":5066:5068   */\n      0x20\n        /* \"#utility.yul\":5055:5064   */\n      dup3\n        /* \"#utility.yul\":5051:5069   */\n      add\n        /* \"#utility.yul\":5043:5069   */\n      swap1\n      pop\n        /* \"#utility.yul\":5115:5124   */\n      dup2\n        /* \"#utility.yul\":5109:5113   */\n      dup2\n        /* \"#utility.yul\":5105:5125   */\n      sub\n        /* \"#utility.yul\":5101:5102   */\n      0x00\n        /* \"#utility.yul\":5090:5099   */\n      dup4\n        /* \"#utility.yul\":5086:5103   */\n      add\n        /* \"#utility.yul\":5079:5126   */\n      mstore\n        /* \"#utility.yul\":5143:5274   */\n      tag_120\n        /* \"#utility.yul\":5269:5273   */\n      dup2\n        /* \"#utility.yul\":5143:5274   */\n      tag_93\n      jump\t// in\n    tag_120:\n        /* \"#utility.yul\":5135:5274   */\n      swap1\n      pop\n        /* \"#utility.yul\":5033:5281   */\n      swap2\n      swap1\n      pop\n      jump\t// out\n        /* \"#utility.yul\":5287:5706   */\n    tag_39:\n        /* \"#utility.yul\":5453:5457   */\n      0x00\n        /* \"#utility.yul\":5491:5493   */\n      0x20\n        /* \"#utility.yul\":5480:5489   */\n      dup3\n        /* \"#utility.yul\":5476:5494   */\n      add\n        /* \"#utility.yul\":5468:5494   */\n      swap1\n      pop\n        /* \"#utility.yul\":5540:5549   */\n      dup2\n        /* \"#utility.yul\":5534:5538   */\n      dup2\n        /* \"#utility.yul\":5530:5550   */\n      sub\n        /* \"#utility.yul\":5526:5527   */\n      0x00\n        /* \"#utility.yul\":5515:5524   */\n      dup4\n        /* \"#utility.yul\":5511:5528   */\n      add\n        /* \"#utility.yul\":5504:5551   */\n      mstore\n        /* \"#utility.yul\":5568:5699   */\n      tag_122\n        /* \"#utility.yul\":5694:5698   */\n      dup2\n        /* \"#utility.yul\":5568:5699   */\n      tag_99\n      jump\t// in\n    tag_122:\n        /* \"#utility.yul\":5560:5699   */\n      swap1\n      pop\n        /* \"#utility.yul\":5458:5706   */\n      swap2\n      swap1\n      pop\n      jump\t// out\n        /* \"#utility.yul\":5793:5962   */\n    tag_96:\n        /* \"#utility.yul\":5877:5888   */\n      0x00\n        /* \"#utility.yul\":5911:5917   */\n      dup3\n        /* \"#utility.yul\":5906:5909   */\n      dup3\n        /* \"#utility.yul\":5899:5918   */\n      mstore\n        /* \"#utility.yul\":5951:5955   */\n      0x20\n        /* \"#utility.yul\":5946:5949   */\n      dup3\n        /* \"#utility.yul\":5942:5956   */\n      add\n        /* \"#utility.yul\":5927:5956   */\n      swap1\n      pop\n        /* \"#utility.yul\":5889:5962   */\n      swap3\n      swap2\n      pop\n      pop\n      jump\t// out\n        /* \"#utility.yul\":5968:6064   */\n    tag_88:\n        /* \"#utility.yul\":6005:6012   */\n      0x00\n        /* \"#utility.yul\":6034:6058   */\n      tag_127\n        /* \"#utility.yul\":6052:6057   */\n      dup3\n        /* \"#utility.yul\":6034:6058   */\n      tag_128\n      jump\t// in\n    tag_127:\n        /* \"#utility.yul\":6023:6058   */\n      swap1\n      pop\n        /* \"#utility.yul\":6013:6064   */\n      swap2\n      swap1\n      pop\n      jump\t// out\n        /* \"#utility.yul\":6070:6174   */\n    tag_129:\n        /* \"#utility.yul\":6115:6122   */\n      0x00\n        /* \"#utility.yul\":6144:6168   */\n      tag_131\n        /* \"#utility.yul\":6162:6167   */\n      dup3\n        /* \"#utility.yul\":6144:6168   */\n      tag_128\n      jump\t// in\n    tag_131:\n        /* \"#utility.yul\":6133:6168   */\n      swap1\n      pop\n        /* \"#utility.yul\":6123:6174   */\n      swap2\n      swap1\n      pop\n      jump\t// out\n        /* \"#utility.yul\":6180:6256   */\n    tag_92:\n        /* \"#utility.yul\":6216:6223   */\n      0x00\n        /* \"#utility.yul\":6245:6250   */\n      dup2\n        /* \"#utility.yul\":6234:6250   */\n      swap1\n      pop\n        /* \"#utility.yul\":6224:6256   */\n      swap2\n      swap1\n      pop\n      jump\t// out\n        /* \"#utility.yul\":6262:6388   */\n    tag_128:\n        /* \"#utility.yul\":6299:6306   */\n      0x00\n        /* \"#utility.yul\":6339:6381   */\n      0xffffffffffffffffffffffffffffffffffffffff\n        /* \"#utility.yul\":6332:6337   */\n      dup3\n        /* \"#utility.yul\":6328:6382   */\n      and\n        /* \"#utility.yul\":6317:6382   */\n      swap1\n      pop\n        /* \"#utility.yul\":6307:6388   */\n      swap2\n      swap1\n      pop\n      jump\t// out\n        /* \"#utility.yul\":6394:6471   */\n    tag_107:\n        /* \"#utility.yul\":6431:6438   */\n      0x00\n        /* \"#utility.yul\":6460:6465   */\n      dup2\n        /* \"#utility.yul\":6449:6465   */\n      swap1\n      pop\n        /* \"#utility.yul\":6439:6471   */\n      swap2\n      swap1\n      pop\n      jump\t// out\n        /* \"#utility.yul\":6600:6717   */\n    tag_69:\n        /* \"#utility.yul\":6709:6710   */\n      0x00\n        /* \"#utility.yul\":6706:6707   */\n      dup1\n        /* \"#utility.yul\":6699:6711   */\n      revert\n        /* \"#utility.yul\":6723:6946   */\n    tag_98:\n        /* \"#utility.yul\":6863:6897   */\n      0x4f6e6c79207468652061646d696e2063616e2075736520746869732066756e63\n        /* \"#utility.yul\":6859:6860   */\n      0x00\n        /* \"#utility.yul\":6851:6857   */\n      dup3\n        /* \"#utility.yul\":6847:6861   */\n      add\n        /* \"#utility.yul\":6840:6898   */\n      mstore\n        /* \"#utility.yul\":6932:6938   */\n      0x74696f6e00000000000000000000000000000000000000000000000000000000\n        /* \"#utility.yul\":6927:6929   */\n      0x20\n        /* \"#utility.yul\":6919:6925   */\n      dup3\n        /* \"#utility.yul\":6915:6930   */\n      add\n        /* \"#utility.yul\":6908:6939   */\n      mstore\n        /* \"#utility.yul\":6829:6946   */\n      pop\n      jump\t// out\n        /* \"#utility.yul\":6952:7180   */\n    tag_103:\n        /* \"#utility.yul\":7092:7126   */\n      0x4f6e6c79207468652070617965652063616e20617070726f7665207468697320\n        /* \"#utility.yul\":7088:7089   */\n      0x00\n        /* \"#utility.yul\":7080:7086   */\n      dup3\n        /* \"#utility.yul\":7076:7090   */\n      add\n        /* \"#utility.yul\":7069:7127   */\n      mstore\n        /* \"#utility.yul\":7161:7172   */\n      0x636f6e74726163742e0000000000000000000000000000000000000000000000\n        /* \"#utility.yul\":7156:7158   */\n      0x20\n        /* \"#utility.yul\":7148:7154   */\n      dup3\n        /* \"#utility.yul\":7144:7159   */\n      add\n        /* \"#utility.yul\":7137:7173   */\n      mstore\n        /* \"#utility.yul\":7058:7180   */\n      pop\n      jump\t// out\n        /* \"#utility.yul\":7186:7308   */\n    tag_53:\n        /* \"#utility.yul\":7259:7283   */\n      tag_141\n        /* \"#utility.yul\":7277:7282   */\n      dup2\n        /* \"#utility.yul\":7259:7283   */\n      tag_88\n      jump\t// in\n    tag_141:\n        /* \"#utility.yul\":7252:7257   */\n      dup2\n        /* \"#utility.yul\":7249:7284   */\n      eq\n        /* \"#utility.yul\":7239:7241   */\n      tag_142\n      jumpi\n        /* \"#utility.yul\":7298:7299   */\n      0x00\n        /* \"#utility.yul\":7295:7296   */\n      dup1\n        /* \"#utility.yul\":7288:7300   */\n      revert\n        /* \"#utility.yul\":7239:7241   */\n    tag_142:\n        /* \"#utility.yul\":7229:7308   */\n      pop\n      jump\t// out\n        /* \"#utility.yul\":7314:7452   */\n    tag_57:\n        /* \"#utility.yul\":7395:7427   */\n      tag_144\n        /* \"#utility.yul\":7421:7426   */\n      dup2\n        /* \"#utility.yul\":7395:7427   */\n      tag_129\n      jump\t// in\n    tag_144:\n        /* \"#utility.yul\":7388:7393   */\n      dup2\n        /* \"#utility.yul\":7385:7428   */\n      eq\n        /* \"#utility.yul\":7375:7377   */\n      tag_145\n      jumpi\n        /* \"#utility.yul\":7442:7443   */\n      0x00\n        /* \"#utility.yul\":7439:7440   */\n      dup1\n        /* \"#utility.yul\":7432:7444   */\n      revert\n        /* \"#utility.yul\":7375:7377   */\n    tag_145:\n        /* \"#utility.yul\":7365:7452   */\n      pop\n      jump\t// out\n        /* \"#utility.yul\":7458:7578   */\n    tag_61:\n        /* \"#utility.yul\":7530:7553   */\n      tag_147\n        /* \"#utility.yul\":7547:7552   */\n      dup2\n        /* \"#utility.yul\":7530:7553   */\n      tag_92\n      jump\t// in\n    tag_147:\n        /* \"#utility.yul\":7523:7528   */\n      dup2\n        /* \"#utility.yul\":7520:7554   */\n      eq\n        /* \"#utility.yul\":7510:7512   */\n      tag_148\n      jumpi\n        /* \"#utility.yul\":7568:7569   */\n      0x00\n        /* \"#utility.yul\":7565:7566   */\n      dup1\n        /* \"#utility.yul\":7558:7570   */\n      revert\n        /* \"#utility.yul\":7510:7512   */\n    tag_148:\n        /* \"#utility.yul\":7500:7578   */\n      pop\n      jump\t// out\n        /* \"#utility.yul\":7584:7706   */\n    tag_65:\n        /* \"#utility.yul\":7657:7681   */\n      tag_150\n        /* \"#utility.yul\":7675:7680   */\n      dup2\n        /* \"#utility.yul\":7657:7681   */\n      tag_107\n      jump\t// in\n    tag_150:\n        /* \"#utility.yul\":7650:7655   */\n      dup2\n        /* \"#utility.yul\":7647:7682   */\n      eq\n        /* \"#utility.yul\":7637:7639   */\n      tag_151\n      jumpi\n        /* \"#utility.yul\":7696:7697   */\n      0x00\n        /* \"#utility.yul\":7693:7694   */\n      dup1\n        /* \"#utility.yul\":7686:7698   */\n      revert\n        /* \"#utility.yul\":7637:7639   */\n    tag_151:\n        /* \"#utility.yul\":7627:7706   */\n      pop\n      jump\t// out\n\n    auxdata: 0xa26469706673582212205a187851540ef5f266d2dcbbc78d36169d5f77aeabe7f09de683ededdb3d23e264736f6c63430008060033\n}\n",
    "bytecode": {
      "linkReferences": {},
      "object": "608060405234801561001057600080fd5b50604051610bfd380380610bfd833981810160405281019061003291906100ce565b80600160006101000a81548173ffffffffffffffffffffffffffffffffffffffff021916908373ffffffffffffffffffffffffffffffffffffffff160217905550336000806101000a81548173ffffffffffffffffffffffffffffffffffffffff021916908373ffffffffffffffffffffffffffffffffffffffff16021790555050610149565b6000815190506100c881610132565b92915050565b6000602082840312156100e4576100e361012d565b5b60006100f2848285016100b9565b91505092915050565b60006101068261010d565b9050919050565b600073ffffffffffffffffffffffffffffffffffffffff82169050919050565b600080fd5b61013b816100fb565b811461014657600080fd5b50565b610aa5806101586000396000f3fe608060405234801561001057600080fd5b50600436106100365760003560e01c80630dfd002d1461003b578063d4e12f2e1461006b575b600080fd5b61005560048036038101906100509190610730565b61009c565b6040516100629190610830565b60405180910390f35b610085600480360381019061008091906106f0565b6102ee565b60405161009392919061084b565b60405180910390f35b60008060009054906101000a900473ffffffffffffffffffffffffffffffffffffffff1673ffffffffffffffffffffffffffffffffffffffff163373ffffffffffffffffffffffffffffffffffffffff161461012d576040517f08c379a0000000000000000000000000000000000000000000000000000000008152600401610124906108c7565b60405180910390fd5b600061015a600160009054906101000a900473ffffffffffffffffffffffffffffffffffffffff16610605565b90508073ffffffffffffffffffffffffffffffffffffffff16639a73061789898989896040518663ffffffff1660e01b815260040161019d959493929190610874565b600060405180830381600087803b1580156101b757600080fd5b505af11580156101cb573d6000803e3d6000fd5b50505050600073ffffffffffffffffffffffffffffffffffffffff166002600085815260200190815260200160002060009054906101000a900473ffffffffffffffffffffffffffffffffffffffff1673ffffffffffffffffffffffffffffffffffffffff161461028d57806003600085815260200190815260200160002060006101000a81548173ffffffffffffffffffffffffffffffffffffffff021916908373ffffffffffffffffffffffffffffffffffffffff1602179055506102e0565b806002600085815260200190815260200160002060006101000a81548173ffffffffffffffffffffffffffffffffffffffff021916908373ffffffffffffffffffffffffffffffffffffffff1602179055505b809150509695505050505050565b6000808373ffffffffffffffffffffffffffffffffffffffff1663ae90b2136040518163ffffffff1660e01b815260040160206040518083038186803b15801561033757600080fd5b505afa15801561034b573d6000803e3d6000fd5b505050506040513d601f19601f8201168201806040525081019061036f91906106c3565b73ffffffffffffffffffffffffffffffffffffffff163373ffffffffffffffffffffffffffffffffffffffff16146103dc576040517f08c379a00000000000000000000000000000000000000000000000000000000081526004016103d3906108e7565b60405180910390fd5b8373ffffffffffffffffffffffffffffffffffffffff166312424e3f6040518163ffffffff1660e01b8152600401600060405180830381600087803b15801561042457600080fd5b505af1158015610438573d6000803e3d6000fd5b50505050600073ffffffffffffffffffffffffffffffffffffffff166002600085815260200190815260200160002060009054906101000a900473ffffffffffffffffffffffffffffffffffffffff1673ffffffffffffffffffffffffffffffffffffffff16146105bf576002600084815260200190815260200160002060009054906101000a900473ffffffffffffffffffffffffffffffffffffffff1673ffffffffffffffffffffffffffffffffffffffff166383197ef06040518163ffffffff1660e01b8152600401600060405180830381600087803b15801561051e57600080fd5b505af1158015610532573d6000803e3d6000fd5b505050506003600084815260200190815260200160002060006101000a81549073ffffffffffffffffffffffffffffffffffffffff0219169055836002600085815260200190815260200160002060006101000a81548173ffffffffffffffffffffffffffffffffffffffff021916908373ffffffffffffffffffffffffffffffffffffffff1602179055505b7fa632268b4e910a424b413fd0bd0a48d43ad05e1cf3920dfb1573c2c39b495f5b84846040516105f092919061084b565b60405180910390a18383915091509250929050565b6000808260601b90506040517f3d602d80600a3d3981f3363d3d373d3d3d363d7300000000000000000000000081528160148201527f5af43d82803e903d91602b57fd5bf3000000000000000000000000000000000060288201526037816000f092505050919050565b60008135905061067e81610a13565b92915050565b60008151905061069381610a2a565b92915050565b6000813590506106a881610a41565b92915050565b6000813590506106bd81610a58565b92915050565b6000602082840312156106d9576106d8610970565b5b60006106e784828501610684565b91505092915050565b6000806040838503121561070757610706610970565b5b60006107158582860161066f565b925050602061072685828601610699565b9150509250929050565b60008060008060008060c0878903121561074d5761074c610970565b5b600061075b89828a0161066f565b965050602061076c89828a016106ae565b955050604061077d89828a016106ae565b945050606061078e89828a016106ae565b935050608061079f89828a016106ae565b92505060a06107b089828a01610699565b9150509295509295509295565b6107c681610918565b82525050565b6107d58161093c565b82525050565b60006107e8602483610907565b91506107f382610975565b604082019050919050565b600061080b602983610907565b9150610816826109c4565b604082019050919050565b61082a81610966565b82525050565b600060208201905061084560008301846107bd565b92915050565b600060408201905061086060008301856107bd565b61086d60208301846107cc565b9392505050565b600060a08201905061088960008301886107bd565b6108966020830187610821565b6108a36040830186610821565b6108b06060830185610821565b6108bd6080830184610821565b9695505050505050565b600060208201905081810360008301526108e0816107db565b9050919050565b60006020820190508181036000830152610900816107fe565b9050919050565b600082825260208201905092915050565b600061092382610946565b9050919050565b600061093582610946565b9050919050565b6000819050919050565b600073ffffffffffffffffffffffffffffffffffffffff82169050919050565b6000819050919050565b600080fd5b7f4f6e6c79207468652061646d696e2063616e2075736520746869732066756e6360008201527f74696f6e00000000000000000000000000000000000000000000000000000000602082015250565b7f4f6e6c79207468652070617965652063616e20617070726f766520746869732060008201527f636f6e74726163742e0000000000000000000000000000000000000000000000602082015250565b610a1c81610918565b8114610a2757600080fd5b50565b610a338161092a565b8114610a3e57600080fd5b50565b610a4a8161093c565b8114610a5557600080fd5b50565b610a6181610966565b8114610a6c57600080fd5b5056fea26469706673582212205a187851540ef5f266d2dcbbc78d36169d5f77aeabe7f09de683ededdb3d23e264736f6c63430008060033",
      "opcodes": "PUSH1 0x80 PUSH1 0x40 MSTORE CALLVALUE DUP1 ISZERO PUSH2 0x10 JUMPI PUSH1 0x0 DUP1 REVERT JUMPDEST POP PUSH1 0x40 MLOAD PUSH2 0xBFD CODESIZE SUB DUP1 PUSH2 0xBFD DUP4 CODECOPY DUP2 DUP2 ADD PUSH1 0x40 MSTORE DUP2 ADD SWAP1 PUSH2 0x32 SWAP2 SWAP1 PUSH2 0xCE JUMP JUMPDEST DUP1 PUSH1 0x1 PUSH1 0x0 PUSH2 0x100 EXP DUP2 SLOAD DUP2 PUSH20 0xFFFFFFFFFFFFFFFFFFFFFFFFFFFFFFFFFFFFFFFF MUL NOT AND SWAP1 DUP4 PUSH20 0xFFFFFFFFFFFFFFFFFFFFFFFFFFFFFFFFFFFFFFFF AND MUL OR SWAP1 SSTORE POP CALLER PUSH1 0x0 DUP1 PUSH2 0x100 EXP DUP2 SLOAD DUP2 PUSH20 0xFFFFFFFFFFFFFFFFFFFFFFFFFFFFFFFFFFFFFFFF MUL NOT AND SWAP1 DUP4 PUSH20 0xFFFFFFFFFFFFFFFFFFFFFFFFFFFFFFFFFFFFFFFF AND MUL OR SWAP1 SSTORE POP POP PUSH2 0x149 JUMP JUMPDEST PUSH1 0x0 DUP2 MLOAD SWAP1 POP PUSH2 0xC8 DUP2 PUSH2 0x132 JUMP JUMPDEST SWAP3 SWAP2 POP POP JUMP JUMPDEST PUSH1 0x0 PUSH1 0x20 DUP3 DUP5 SUB SLT ISZERO PUSH2 0xE4 JUMPI PUSH2 0xE3 PUSH2 0x12D JUMP JUMPDEST JUMPDEST PUSH1 0x0 PUSH2 0xF2 DUP5 DUP3 DUP6 ADD PUSH2 0xB9 JUMP JUMPDEST SWAP2 POP POP SWAP3 SWAP2 POP POP JUMP JUMPDEST PUSH1 0x0 PUSH2 0x106 DUP3 PUSH2 0x10D JUMP JUMPDEST SWAP1 POP SWAP2 SWAP1 POP JUMP JUMPDEST PUSH1 0x0 PUSH20 0xFFFFFFFFFFFFFFFFFFFFFFFFFFFFFFFFFFFFFFFF DUP3 AND SWAP1 POP SWAP2 SWAP1 POP JUMP JUMPDEST PUSH1 0x0 DUP1 REVERT JUMPDEST PUSH2 0x13B DUP2 PUSH2 0xFB JUMP JUMPDEST DUP2 EQ PUSH2 0x146 JUMPI PUSH1 0x0 DUP1 REVERT JUMPDEST POP JUMP JUMPDEST PUSH2 0xAA5 DUP1 PUSH2 0x158 PUSH1 0x0 CODECOPY PUSH1 0x0 RETURN INVALID PUSH1 0x80 PUSH1 0x40 MSTORE CALLVALUE DUP1 ISZERO PUSH2 0x10 JUMPI PUSH1 0x0 DUP1 REVERT JUMPDEST POP PUSH1 0x4 CALLDATASIZE LT PUSH2 0x36 JUMPI PUSH1 0x0 CALLDATALOAD PUSH1 0xE0 SHR DUP1 PUSH4 0xDFD002D EQ PUSH2 0x3B JUMPI DUP1 PUSH4 0xD4E12F2E EQ PUSH2 0x6B JUMPI JUMPDEST PUSH1 0x0 DUP1 REVERT JUMPDEST PUSH2 0x55 PUSH1 0x4 DUP1 CALLDATASIZE SUB DUP2 ADD SWAP1 PUSH2 0x50 SWAP2 SWAP1 PUSH2 0x730 JUMP JUMPDEST PUSH2 0x9C JUMP JUMPDEST PUSH1 0x40 MLOAD PUSH2 0x62 SWAP2 SWAP1 PUSH2 0x830 JUMP JUMPDEST PUSH1 0x40 MLOAD DUP1 SWAP2 SUB SWAP1 RETURN JUMPDEST PUSH2 0x85 PUSH1 0x4 DUP1 CALLDATASIZE SUB DUP2 ADD SWAP1 PUSH2 0x80 SWAP2 SWAP1 PUSH2 0x6F0 JUMP JUMPDEST PUSH2 0x2EE JUMP JUMPDEST PUSH1 0x40 MLOAD PUSH2 0x93 SWAP3 SWAP2 SWAP1 PUSH2 0x84B JUMP JUMPDEST PUSH1 0x40 MLOAD DUP1 SWAP2 SUB SWAP1 RETURN JUMPDEST PUSH1 0x0 DUP1 PUSH1 0x0 SWAP1 SLOAD SWAP1 PUSH2 0x100 EXP SWAP1 DIV PUSH20 0xFFFFFFFFFFFFFFFFFFFFFFFFFFFFFFFFFFFFFFFF AND PUSH20 0xFFFFFFFFFFFFFFFFFFFFFFFFFFFFFFFFFFFFFFFF AND CALLER PUSH20 0xFFFFFFFFFFFFFFFFFFFFFFFFFFFFFFFFFFFFFFFF AND EQ PUSH2 0x12D JUMPI PUSH1 0x40 MLOAD PUSH32 0x8C379A000000000000000000000000000000000000000000000000000000000 DUP2 MSTORE PUSH1 0x4 ADD PUSH2 0x124 SWAP1 PUSH2 0x8C7 JUMP JUMPDEST PUSH1 0x40 MLOAD DUP1 SWAP2 SUB SWAP1 REVERT JUMPDEST PUSH1 0x0 PUSH2 0x15A PUSH1 0x1 PUSH1 0x0 SWAP1 SLOAD SWAP1 PUSH2 0x100 EXP SWAP1 DIV PUSH20 0xFFFFFFFFFFFFFFFFFFFFFFFFFFFFFFFFFFFFFFFF AND PUSH2 0x605 JUMP JUMPDEST SWAP1 POP DUP1 PUSH20 0xFFFFFFFFFFFFFFFFFFFFFFFFFFFFFFFFFFFFFFFF AND PUSH4 0x9A730617 DUP10 DUP10 DUP10 DUP10 DUP10 PUSH1 0x40 MLOAD DUP7 PUSH4 0xFFFFFFFF AND PUSH1 0xE0 SHL DUP2 MSTORE PUSH1 0x4 ADD PUSH2 0x19D SWAP6 SWAP5 SWAP4 SWAP3 SWAP2 SWAP1 PUSH2 0x874 JUMP JUMPDEST PUSH1 0x0 PUSH1 0x40 MLOAD DUP1 DUP4 SUB DUP2 PUSH1 0x0 DUP8 DUP1 EXTCODESIZE ISZERO DUP1 ISZERO PUSH2 0x1B7 JUMPI PUSH1 0x0 DUP1 REVERT JUMPDEST POP GAS CALL ISZERO DUP1 ISZERO PUSH2 0x1CB JUMPI RETURNDATASIZE PUSH1 0x0 DUP1 RETURNDATACOPY RETURNDATASIZE PUSH1 0x0 REVERT JUMPDEST POP POP POP POP PUSH1 0x0 PUSH20 0xFFFFFFFFFFFFFFFFFFFFFFFFFFFFFFFFFFFFFFFF AND PUSH1 0x2 PUSH1 0x0 DUP6 DUP2 MSTORE PUSH1 0x20 ADD SWAP1 DUP2 MSTORE PUSH1 0x20 ADD PUSH1 0x0 KECCAK256 PUSH1 0x0 SWAP1 SLOAD SWAP1 PUSH2 0x100 EXP SWAP1 DIV PUSH20 0xFFFFFFFFFFFFFFFFFFFFFFFFFFFFFFFFFFFFFFFF AND PUSH20 0xFFFFFFFFFFFFFFFFFFFFFFFFFFFFFFFFFFFFFFFF AND EQ PUSH2 0x28D JUMPI DUP1 PUSH1 0x3 PUSH1 0x0 DUP6 DUP2 MSTORE PUSH1 0x20 ADD SWAP1 DUP2 MSTORE PUSH1 0x20 ADD PUSH1 0x0 KECCAK256 PUSH1 0x0 PUSH2 0x100 EXP DUP2 SLOAD DUP2 PUSH20 0xFFFFFFFFFFFFFFFFFFFFFFFFFFFFFFFFFFFFFFFF MUL NOT AND SWAP1 DUP4 PUSH20 0xFFFFFFFFFFFFFFFFFFFFFFFFFFFFFFFFFFFFFFFF AND MUL OR SWAP1 SSTORE POP PUSH2 0x2E0 JUMP JUMPDEST DUP1 PUSH1 0x2 PUSH1 0x0 DUP6 DUP2 MSTORE PUSH1 0x20 ADD SWAP1 DUP2 MSTORE PUSH1 0x20 ADD PUSH1 0x0 KECCAK256 PUSH1 0x0 PUSH2 0x100 EXP DUP2 SLOAD DUP2 PUSH20 0xFFFFFFFFFFFFFFFFFFFFFFFFFFFFFFFFFFFFFFFF MUL NOT AND SWAP1 DUP4 PUSH20 0xFFFFFFFFFFFFFFFFFFFFFFFFFFFFFFFFFFFFFFFF AND MUL OR SWAP1 SSTORE POP JUMPDEST DUP1 SWAP2 POP POP SWAP7 SWAP6 POP POP POP POP POP POP JUMP JUMPDEST PUSH1 0x0 DUP1 DUP4 PUSH20 0xFFFFFFFFFFFFFFFFFFFFFFFFFFFFFFFFFFFFFFFF AND PUSH4 0xAE90B213 PUSH1 0x40 MLOAD DUP2 PUSH4 0xFFFFFFFF AND PUSH1 0xE0 SHL DUP2 MSTORE PUSH1 0x4 ADD PUSH1 0x20 PUSH1 0x40 MLOAD DUP1 DUP4 SUB DUP2 DUP7 DUP1 EXTCODESIZE ISZERO DUP1 ISZERO PUSH2 0x337 JUMPI PUSH1 0x0 DUP1 REVERT JUMPDEST POP GAS STATICCALL ISZERO DUP1 ISZERO PUSH2 0x34B JUMPI RETURNDATASIZE PUSH1 0x0 DUP1 RETURNDATACOPY RETURNDATASIZE PUSH1 0x0 REVERT JUMPDEST POP POP POP POP PUSH1 0x40 MLOAD RETURNDATASIZE PUSH1 0x1F NOT PUSH1 0x1F DUP3 ADD AND DUP3 ADD DUP1 PUSH1 0x40 MSTORE POP DUP2 ADD SWAP1 PUSH2 0x36F SWAP2 SWAP1 PUSH2 0x6C3 JUMP JUMPDEST PUSH20 0xFFFFFFFFFFFFFFFFFFFFFFFFFFFFFFFFFFFFFFFF AND CALLER PUSH20 0xFFFFFFFFFFFFFFFFFFFFFFFFFFFFFFFFFFFFFFFF AND EQ PUSH2 0x3DC JUMPI PUSH1 0x40 MLOAD PUSH32 0x8C379A000000000000000000000000000000000000000000000000000000000 DUP2 MSTORE PUSH1 0x4 ADD PUSH2 0x3D3 SWAP1 PUSH2 0x8E7 JUMP JUMPDEST PUSH1 0x40 MLOAD DUP1 SWAP2 SUB SWAP1 REVERT JUMPDEST DUP4 PUSH20 0xFFFFFFFFFFFFFFFFFFFFFFFFFFFFFFFFFFFFFFFF AND PUSH4 0x12424E3F PUSH1 0x40 MLOAD DUP2 PUSH4 0xFFFFFFFF AND PUSH1 0xE0 SHL DUP2 MSTORE PUSH1 0x4 ADD PUSH1 0x0 PUSH1 0x40 MLOAD DUP1 DUP4 SUB DUP2 PUSH1 0x0 DUP8 DUP1 EXTCODESIZE ISZERO DUP1 ISZERO PUSH2 0x424 JUMPI PUSH1 0x0 DUP1 REVERT JUMPDEST POP GAS CALL ISZERO DUP1 ISZERO PUSH2 0x438 JUMPI RETURNDATASIZE PUSH1 0x0 DUP1 RETURNDATACOPY RETURNDATASIZE PUSH1 0x0 REVERT JUMPDEST POP POP POP POP PUSH1 0x0 PUSH20 0xFFFFFFFFFFFFFFFFFFFFFFFFFFFFFFFFFFFFFFFF AND PUSH1 0x2 PUSH1 0x0 DUP6 DUP2 MSTORE PUSH1 0x20 ADD SWAP1 DUP2 MSTORE PUSH1 0x20 ADD PUSH1 0x0 KECCAK256 PUSH1 0x0 SWAP1 SLOAD SWAP1 PUSH2 0x100 EXP SWAP1 DIV PUSH20 0xFFFFFFFFFFFFFFFFFFFFFFFFFFFFFFFFFFFFFFFF AND PUSH20 0xFFFFFFFFFFFFFFFFFFFFFFFFFFFFFFFFFFFFFFFF AND EQ PUSH2 0x5BF JUMPI PUSH1 0x2 PUSH1 0x0 DUP5 DUP2 MSTORE PUSH1 0x20 ADD SWAP1 DUP2 MSTORE PUSH1 0x20 ADD PUSH1 0x0 KECCAK256 PUSH1 0x0 SWAP1 SLOAD SWAP1 PUSH2 0x100 EXP SWAP1 DIV PUSH20 0xFFFFFFFFFFFFFFFFFFFFFFFFFFFFFFFFFFFFFFFF AND PUSH20 0xFFFFFFFFFFFFFFFFFFFFFFFFFFFFFFFFFFFFFFFF AND PUSH4 0x83197EF0 PUSH1 0x40 MLOAD DUP2 PUSH4 0xFFFFFFFF AND PUSH1 0xE0 SHL DUP2 MSTORE PUSH1 0x4 ADD PUSH1 0x0 PUSH1 0x40 MLOAD DUP1 DUP4 SUB DUP2 PUSH1 0x0 DUP8 DUP1 EXTCODESIZE ISZERO DUP1 ISZERO PUSH2 0x51E JUMPI PUSH1 0x0 DUP1 REVERT JUMPDEST POP GAS CALL ISZERO DUP1 ISZERO PUSH2 0x532 JUMPI RETURNDATASIZE PUSH1 0x0 DUP1 RETURNDATACOPY RETURNDATASIZE PUSH1 0x0 REVERT JUMPDEST POP POP POP POP PUSH1 0x3 PUSH1 0x0 DUP5 DUP2 MSTORE PUSH1 0x20 ADD SWAP1 DUP2 MSTORE PUSH1 0x20 ADD PUSH1 0x0 KECCAK256 PUSH1 0x0 PUSH2 0x100 EXP DUP2 SLOAD SWAP1 PUSH20 0xFFFFFFFFFFFFFFFFFFFFFFFFFFFFFFFFFFFFFFFF MUL NOT AND SWAP1 SSTORE DUP4 PUSH1 0x2 PUSH1 0x0 DUP6 DUP2 MSTORE PUSH1 0x20 ADD SWAP1 DUP2 MSTORE PUSH1 0x20 ADD PUSH1 0x0 KECCAK256 PUSH1 0x0 PUSH2 0x100 EXP DUP2 SLOAD DUP2 PUSH20 0xFFFFFFFFFFFFFFFFFFFFFFFFFFFFFFFFFFFFFFFF MUL NOT AND SWAP1 DUP4 PUSH20 0xFFFFFFFFFFFFFFFFFFFFFFFFFFFFFFFFFFFFFFFF AND MUL OR SWAP1 SSTORE POP JUMPDEST PUSH32 0xA632268B4E910A424B413FD0BD0A48D43AD05E1CF3920DFB1573C2C39B495F5B DUP5 DUP5 PUSH1 0x40 MLOAD PUSH2 0x5F0 SWAP3 SWAP2 SWAP1 PUSH2 0x84B JUMP JUMPDEST PUSH1 0x40 MLOAD DUP1 SWAP2 SUB SWAP1 LOG1 DUP4 DUP4 SWAP2 POP SWAP2 POP SWAP3 POP SWAP3 SWAP1 POP JUMP JUMPDEST PUSH1 0x0 DUP1 DUP3 PUSH1 0x60 SHL SWAP1 POP PUSH1 0x40 MLOAD PUSH32 0x3D602D80600A3D3981F3363D3D373D3D3D363D73000000000000000000000000 DUP2 MSTORE DUP2 PUSH1 0x14 DUP3 ADD MSTORE PUSH32 0x5AF43D82803E903D91602B57FD5BF30000000000000000000000000000000000 PUSH1 0x28 DUP3 ADD MSTORE PUSH1 0x37 DUP2 PUSH1 0x0 CREATE SWAP3 POP POP POP SWAP2 SWAP1 POP JUMP JUMPDEST PUSH1 0x0 DUP2 CALLDATALOAD SWAP1 POP PUSH2 0x67E DUP2 PUSH2 0xA13 JUMP JUMPDEST SWAP3 SWAP2 POP POP JUMP JUMPDEST PUSH1 0x0 DUP2 MLOAD SWAP1 POP PUSH2 0x693 DUP2 PUSH2 0xA2A JUMP JUMPDEST SWAP3 SWAP2 POP POP JUMP JUMPDEST PUSH1 0x0 DUP2 CALLDATALOAD SWAP1 POP PUSH2 0x6A8 DUP2 PUSH2 0xA41 JUMP JUMPDEST SWAP3 SWAP2 POP POP JUMP JUMPDEST PUSH1 0x0 DUP2 CALLDATALOAD SWAP1 POP PUSH2 0x6BD DUP2 PUSH2 0xA58 JUMP JUMPDEST SWAP3 SWAP2 POP POP JUMP JUMPDEST PUSH1 0x0 PUSH1 0x20 DUP3 DUP5 SUB SLT ISZERO PUSH2 0x6D9 JUMPI PUSH2 0x6D8 PUSH2 0x970 JUMP JUMPDEST JUMPDEST PUSH1 0x0 PUSH2 0x6E7 DUP5 DUP3 DUP6 ADD PUSH2 0x684 JUMP JUMPDEST SWAP2 POP POP SWAP3 SWAP2 POP POP JUMP JUMPDEST PUSH1 0x0 DUP1 PUSH1 0x40 DUP4 DUP6 SUB SLT ISZERO PUSH2 0x707 JUMPI PUSH2 0x706 PUSH2 0x970 JUMP JUMPDEST JUMPDEST PUSH1 0x0 PUSH2 0x715 DUP6 DUP3 DUP7 ADD PUSH2 0x66F JUMP JUMPDEST SWAP3 POP POP PUSH1 0x20 PUSH2 0x726 DUP6 DUP3 DUP7 ADD PUSH2 0x699 JUMP JUMPDEST SWAP2 POP POP SWAP3 POP SWAP3 SWAP1 POP JUMP JUMPDEST PUSH1 0x0 DUP1 PUSH1 0x0 DUP1 PUSH1 0x0 DUP1 PUSH1 0xC0 DUP8 DUP10 SUB SLT ISZERO PUSH2 0x74D JUMPI PUSH2 0x74C PUSH2 0x970 JUMP JUMPDEST JUMPDEST PUSH1 0x0 PUSH2 0x75B DUP10 DUP3 DUP11 ADD PUSH2 0x66F JUMP JUMPDEST SWAP7 POP POP PUSH1 0x20 PUSH2 0x76C DUP10 DUP3 DUP11 ADD PUSH2 0x6AE JUMP JUMPDEST SWAP6 POP POP PUSH1 0x40 PUSH2 0x77D DUP10 DUP3 DUP11 ADD PUSH2 0x6AE JUMP JUMPDEST SWAP5 POP POP PUSH1 0x60 PUSH2 0x78E DUP10 DUP3 DUP11 ADD PUSH2 0x6AE JUMP JUMPDEST SWAP4 POP POP PUSH1 0x80 PUSH2 0x79F DUP10 DUP3 DUP11 ADD PUSH2 0x6AE JUMP JUMPDEST SWAP3 POP POP PUSH1 0xA0 PUSH2 0x7B0 DUP10 DUP3 DUP11 ADD PUSH2 0x699 JUMP JUMPDEST SWAP2 POP POP SWAP3 SWAP6 POP SWAP3 SWAP6 POP SWAP3 SWAP6 JUMP JUMPDEST PUSH2 0x7C6 DUP2 PUSH2 0x918 JUMP JUMPDEST DUP3 MSTORE POP POP JUMP JUMPDEST PUSH2 0x7D5 DUP2 PUSH2 0x93C JUMP JUMPDEST DUP3 MSTORE POP POP JUMP JUMPDEST PUSH1 0x0 PUSH2 0x7E8 PUSH1 0x24 DUP4 PUSH2 0x907 JUMP JUMPDEST SWAP2 POP PUSH2 0x7F3 DUP3 PUSH2 0x975 JUMP JUMPDEST PUSH1 0x40 DUP3 ADD SWAP1 POP SWAP2 SWAP1 POP JUMP JUMPDEST PUSH1 0x0 PUSH2 0x80B PUSH1 0x29 DUP4 PUSH2 0x907 JUMP JUMPDEST SWAP2 POP PUSH2 0x816 DUP3 PUSH2 0x9C4 JUMP JUMPDEST PUSH1 0x40 DUP3 ADD SWAP1 POP SWAP2 SWAP1 POP JUMP JUMPDEST PUSH2 0x82A DUP2 PUSH2 0x966 JUMP JUMPDEST DUP3 MSTORE POP POP JUMP JUMPDEST PUSH1 0x0 PUSH1 0x20 DUP3 ADD SWAP1 POP PUSH2 0x845 PUSH1 0x0 DUP4 ADD DUP5 PUSH2 0x7BD JUMP JUMPDEST SWAP3 SWAP2 POP POP JUMP JUMPDEST PUSH1 0x0 PUSH1 0x40 DUP3 ADD SWAP1 POP PUSH2 0x860 PUSH1 0x0 DUP4 ADD DUP6 PUSH2 0x7BD JUMP JUMPDEST PUSH2 0x86D PUSH1 0x20 DUP4 ADD DUP5 PUSH2 0x7CC JUMP JUMPDEST SWAP4 SWAP3 POP POP POP JUMP JUMPDEST PUSH1 0x0 PUSH1 0xA0 DUP3 ADD SWAP1 POP PUSH2 0x889 PUSH1 0x0 DUP4 ADD DUP9 PUSH2 0x7BD JUMP JUMPDEST PUSH2 0x896 PUSH1 0x20 DUP4 ADD DUP8 PUSH2 0x821 JUMP JUMPDEST PUSH2 0x8A3 PUSH1 0x40 DUP4 ADD DUP7 PUSH2 0x821 JUMP JUMPDEST PUSH2 0x8B0 PUSH1 0x60 DUP4 ADD DUP6 PUSH2 0x821 JUMP JUMPDEST PUSH2 0x8BD PUSH1 0x80 DUP4 ADD DUP5 PUSH2 0x821 JUMP JUMPDEST SWAP7 SWAP6 POP POP POP POP POP POP JUMP JUMPDEST PUSH1 0x0 PUSH1 0x20 DUP3 ADD SWAP1 POP DUP2 DUP2 SUB PUSH1 0x0 DUP4 ADD MSTORE PUSH2 0x8E0 DUP2 PUSH2 0x7DB JUMP JUMPDEST SWAP1 POP SWAP2 SWAP1 POP JUMP JUMPDEST PUSH1 0x0 PUSH1 0x20 DUP3 ADD SWAP1 POP DUP2 DUP2 SUB PUSH1 0x0 DUP4 ADD MSTORE PUSH2 0x900 DUP2 PUSH2 0x7FE JUMP JUMPDEST SWAP1 POP SWAP2 SWAP1 POP JUMP JUMPDEST PUSH1 0x0 DUP3 DUP3 MSTORE PUSH1 0x20 DUP3 ADD SWAP1 POP SWAP3 SWAP2 POP POP JUMP JUMPDEST PUSH1 0x0 PUSH2 0x923 DUP3 PUSH2 0x946 JUMP JUMPDEST SWAP1 POP SWAP2 SWAP1 POP JUMP JUMPDEST PUSH1 0x0 PUSH2 0x935 DUP3 PUSH2 0x946 JUMP JUMPDEST SWAP1 POP SWAP2 SWAP1 POP JUMP JUMPDEST PUSH1 0x0 DUP2 SWAP1 POP SWAP2 SWAP1 POP JUMP JUMPDEST PUSH1 0x0 PUSH20 0xFFFFFFFFFFFFFFFFFFFFFFFFFFFFFFFFFFFFFFFF DUP3 AND SWAP1 POP SWAP2 SWAP1 POP JUMP JUMPDEST PUSH1 0x0 DUP2 SWAP1 POP SWAP2 SWAP1 POP JUMP JUMPDEST PUSH1 0x0 DUP1 REVERT JUMPDEST PUSH32 0x4F6E6C79207468652061646D696E2063616E2075736520746869732066756E63 PUSH1 0x0 DUP3 ADD MSTORE PUSH32 0x74696F6E00000000000000000000000000000000000000000000000000000000 PUSH1 0x20 DUP3 ADD MSTORE POP JUMP JUMPDEST PUSH32 0x4F6E6C79207468652070617965652063616E20617070726F7665207468697320 PUSH1 0x0 DUP3 ADD MSTORE PUSH32 0x636F6E74726163742E0000000000000000000000000000000000000000000000 PUSH1 0x20 DUP3 ADD MSTORE POP JUMP JUMPDEST PUSH2 0xA1C DUP2 PUSH2 0x918 JUMP JUMPDEST DUP2 EQ PUSH2 0xA27 JUMPI PUSH1 0x0 DUP1 REVERT JUMPDEST POP JUMP JUMPDEST PUSH2 0xA33 DUP2 PUSH2 0x92A JUMP JUMPDEST DUP2 EQ PUSH2 0xA3E JUMPI PUSH1 0x0 DUP1 REVERT JUMPDEST POP JUMP JUMPDEST PUSH2 0xA4A DUP2 PUSH2 0x93C JUMP JUMPDEST DUP2 EQ PUSH2 0xA55 JUMPI PUSH1 0x0 DUP1 REVERT JUMPDEST POP JUMP JUMPDEST PUSH2 0xA61 DUP2 PUSH2 0x966 JUMP JUMPDEST DUP2 EQ PUSH2 0xA6C JUMPI PUSH1 0x0 DUP1 REVERT JUMPDEST POP JUMP INVALID LOG2 PUSH5 0x6970667358 0x22 SLT KECCAK256 GAS XOR PUSH25 0x51540EF5F266D2DCBBC78D36169D5F77AEABE7F09DE683EDED 0xDB RETURNDATASIZE 0x23 0xE2 PUSH5 0x736F6C6343 STOP ADDMOD MOD STOP CALLER "
    },
    "gasEstimates": {
      "creation": {
        "codeDepositCost": "545000",
        "executionCost": "infinite",
        "totalCost": "infinite"
      },
      "external": {
        "approve(address,int256)": "infinite",
        "createVendor(address,uint256,uint256,uint256,uint256,int256)": "infinite"
      }
    },
    "methodIdentifiers": {
      "approve(address,int256)": "d4e12f2e",
      "createVendor(address,uint256,uint256,uint256,uint256,int256)": "0dfd002d"
    }
  },
  "storageLayout": {
    "storage": [
      {
        "astId": 747,
        "contract": "VendorFactory.sol:VendorFactory",
        "label": "admin",
        "offset": 0,
        "slot": "0",
        "type": "t_address"
      },
      {
        "astId": 749,
        "contract": "VendorFactory.sol:VendorFactory",
        "label": "implementation",
        "offset": 0,
        "slot": "1",
        "type": "t_address"
      },
      {
        "astId": 753,
        "contract": "VendorFactory.sol:VendorFactory",
        "label": "vendors",
        "offset": 0,
        "slot": "2",
        "type": "t_mapping(t_int256,t_address)"
      },
      {
        "astId": 757,
        "contract": "VendorFactory.sol:VendorFactory",
        "label": "updating",
        "offset": 0,
        "slot": "3",
        "type": "t_mapping(t_int256,t_address)"
      }
    ],
    "types": {
      "t_address": {
        "encoding": "inplace",
        "label": "address",
        "numberOfBytes": "20"
      },
      "t_int256": {
        "encoding": "inplace",
        "label": "int256",
        "numberOfBytes": "32"
      },
      "t_mapping(t_int256,t_address)": {
        "encoding": "mapping",
        "key": "t_int256",
        "label": "mapping(int256 => address)",
        "numberOfBytes": "32",
        "value": "t_address"
      }
    }
  },
  "userdoc": {
    "kind": "user",
    "methods": {},
    "notice": "Factory contract that creates new contracts with different conditions.",
    "version": 1
  }
}