{
  "abi": [
    {
      "anonymous": false,
      "inputs": [
        {
          "indexed": true,
          "internalType": "address",
          "name": "sender",
          "type": "address"
        },
        {
          "indexed": false,
          "internalType": "bool",
          "name": "isSatisfied",
          "type": "bool"
        },
        {
          "indexed": false,
          "internalType": "string",
          "name": "message",
          "type": "string"
        }
      ],
      "name": "State",
      "type": "event"
    },
    {
      "inputs": [],
      "name": "admin",
      "outputs": [
        {
          "internalType": "address",
          "name": "",
          "type": "address"
        }
      ],
      "stateMutability": "view",
      "type": "function"
    },
    {
      "inputs": [],
      "name": "amount",
      "outputs": [
        {
          "internalType": "uint256",
          "name": "",
          "type": "uint256"
        }
      ],
      "stateMutability": "view",
      "type": "function"
    },
    {
      "inputs": [],
      "name": "approve",
      "outputs": [],
      "stateMutability": "nonpayable",
      "type": "function"
    },
    {
      "inputs": [],
      "name": "balanceOf",
      "outputs": [
        {
          "internalType": "uint256",
          "name": "",
          "type": "uint256"
        }
      ],
      "stateMutability": "view",
      "type": "function"
    },
    {
      "inputs": [],
      "name": "client",
      "outputs": [
        {
          "internalType": "address payable",
          "name": "",
          "type": "address"
        }
      ],
      "stateMutability": "view",
      "type": "function"
    },
    {
      "inputs": [
        {
          "internalType": "uint256",
          "name": "",
          "type": "uint256"
        }
      ],
      "name": "conditionArray",
      "outputs": [
        {
          "internalType": "int256",
          "name": "value",
          "type": "int256"
        },
        {
          "internalType": "int256",
          "name": "operator",
          "type": "int256"
        },
        {
          "internalType": "string",
          "name": "name",
          "type": "string"
        }
      ],
      "stateMutability": "view",
      "type": "function"
    },
    {
      "inputs": [],
      "name": "contractHash",
      "outputs": [
        {
          "internalType": "uint256",
          "name": "",
          "type": "uint256"
        }
      ],
      "stateMutability": "view",
      "type": "function"
    },
    {
      "inputs": [],
      "name": "destroy",
      "outputs": [],
      "stateMutability": "nonpayable",
      "type": "function"
    },
    {
      "inputs": [],
      "name": "endInitStage",
      "outputs": [],
      "stateMutability": "nonpayable",
      "type": "function"
    },
    {
      "inputs": [],
      "name": "expiryDate",
      "outputs": [
        {
          "internalType": "uint256",
          "name": "",
          "type": "uint256"
        }
      ],
      "stateMutability": "view",
      "type": "function"
    },
    {
      "inputs": [
        {
          "internalType": "address",
          "name": "_client",
          "type": "address"
        },
        {
          "internalType": "uint256",
          "name": "_expiredOn",
          "type": "uint256"
        },
        {
          "internalType": "uint256",
          "name": "_startDate",
          "type": "uint256"
        },
        {
          "internalType": "uint256",
          "name": "_contractHash",
          "type": "uint256"
        },
        {
          "internalType": "uint256",
          "name": "_amount",
          "type": "uint256"
        }
      ],
      "name": "init",
      "outputs": [],
      "stateMutability": "nonpayable",
      "type": "function"
    },
    {
      "inputs": [],
      "name": "nextBillingDate",
      "outputs": [
        {
          "internalType": "uint256",
          "name": "",
          "type": "uint256"
        }
      ],
      "stateMutability": "view",
      "type": "function"
    },
    {
      "inputs": [],
      "name": "payee",
      "outputs": [
        {
          "internalType": "address payable",
          "name": "",
          "type": "address"
        }
      ],
      "stateMutability": "view",
      "type": "function"
    },
    {
      "inputs": [],
      "name": "payeeApproved",
      "outputs": [
        {
          "internalType": "bool",
          "name": "",
          "type": "bool"
        }
      ],
      "stateMutability": "view",
      "type": "function"
    },
    {
      "inputs": [],
      "name": "prevBillingDate",
      "outputs": [
        {
          "internalType": "uint256",
          "name": "",
          "type": "uint256"
        }
      ],
      "stateMutability": "view",
      "type": "function"
    },
    {
      "inputs": [
        {
          "internalType": "int256[]",
          "name": "_cumulative",
          "type": "int256[]"
        }
      ],
      "name": "receiveServiceData",
      "outputs": [],
      "stateMutability": "nonpayable",
      "type": "function"
    },
    {
      "inputs": [],
      "name": "satisfied",
      "outputs": [
        {
          "internalType": "bool",
          "name": "",
          "type": "bool"
        }
      ],
      "stateMutability": "view",
      "type": "function"
    },
    {
      "inputs": [],
      "name": "setActive",
      "outputs": [],
      "stateMutability": "nonpayable",
      "type": "function"
    },
    {
      "inputs": [
        {
          "internalType": "string[8]",
          "name": "_names",
          "type": "string[8]"
        },
        {
          "internalType": "int256[8]",
          "name": "_values",
          "type": "int256[8]"
        },
        {
          "internalType": "string[8]",
          "name": "_operators",
          "type": "string[8]"
        }
      ],
      "name": "setConds",
      "outputs": [],
      "stateMutability": "nonpayable",
      "type": "function"
    },
    {
      "inputs": [],
      "name": "setInactive",
      "outputs": [],
      "stateMutability": "nonpayable",
      "type": "function"
    },
    {
      "inputs": [
        {
          "internalType": "address",
          "name": "_payee",
          "type": "address"
        }
      ],
      "name": "setPayee",
      "outputs": [],
      "stateMutability": "nonpayable",
      "type": "function"
    },
    {
      "inputs": [],
      "name": "stage",
      "outputs": [
        {
          "internalType": "enum Vendor.Stages",
          "name": "",
          "type": "uint8"
        }
      ],
      "stateMutability": "view",
      "type": "function"
    },
    {
      "inputs": [],
      "name": "startDate",
      "outputs": [
        {
          "internalType": "uint256",
          "name": "",
          "type": "uint256"
        }
      ],
      "stateMutability": "view",
      "type": "function"
    },
    {
      "inputs": [],
      "name": "storePayment",
      "outputs": [],
      "stateMutability": "payable",
      "type": "function"
    }
  ],
  "devdoc": {
    "kind": "dev",
    "methods": {},
    "version": 1
  },
  "evm": {
    "assembly": "    /* \"Vendor.sol\":151:8239  contract Vendor {... */\n  mstore(0x40, 0x80)\n    /* \"Vendor.sol\":615:634  Stages.Initialising */\n  0x00\n    /* \"Vendor.sol\":593:634  Stages public stage = Stages.Initialising */\n  0x09\n  exp(0x0100, 0x00)\n  dup2\n  sload\n  dup2\n  0xff\n  mul\n  not\n  and\n  swap1\n  dup4\n  0x04\n  dup2\n  gt\n  iszero\n  tag_1\n  jumpi\n  tag_2\n  tag_3\n  jump\t// in\ntag_2:\ntag_1:\n  mul\n  or\n  swap1\n  sstore\n  pop\n    /* \"Vendor.sol\":665:670  false */\n  0x00\n    /* \"Vendor.sol\":641:670  bool public satisfied = false */\n  0x09\n  exp(0x0100, 0x01)\n  dup2\n  sload\n  dup2\n  0xff\n  mul\n  not\n  and\n  swap1\n  dup4\n  iszero\n  iszero\n  mul\n  or\n  swap1\n  sstore\n  pop\n    /* \"Vendor.sol\":1149:1151  60 */\n  0x3c\n    /* \"Vendor.sol\":1146:1148  60 */\n  dup1\n    /* \"Vendor.sol\":1143:1145  24 */\n  0x18\n    /* \"Vendor.sol\":1047:1051  6400 */\n  0x1900\n    /* \"Vendor.sol\":1131:1145  blocksDaily/24 */\n  tag_4\n  swap2\n  swap1\n  tag_5\n  jump\t// in\ntag_4:\n    /* \"Vendor.sol\":1131:1148  blocksDaily/24/60 */\n  tag_6\n  swap2\n  swap1\n  tag_5\n  jump\t// in\ntag_6:\n    /* \"Vendor.sol\":1131:1151  blocksDaily/24/60/60 */\n  tag_7\n  swap2\n  swap1\n  tag_5\n  jump\t// in\ntag_7:\n    /* \"Vendor.sol\":1111:1151  uint blocksSecond = blocksDaily/24/60/60 */\n  0x0c\n  sstore\n    /* \"Vendor.sol\":151:8239  contract Vendor {... */\n  callvalue\n  dup1\n  iszero\n  tag_8\n  jumpi\n  0x00\n  dup1\n  revert\ntag_8:\n  pop\n  jump(tag_9)\n    /* \"#utility.yul\":7:192   */\ntag_5:\n    /* \"#utility.yul\":47:48   */\n  0x00\n    /* \"#utility.yul\":64:84   */\n  tag_12\n    /* \"#utility.yul\":82:83   */\n  dup3\n    /* \"#utility.yul\":64:84   */\n  tag_13\n  jump\t// in\ntag_12:\n    /* \"#utility.yul\":59:84   */\n  swap2\n  pop\n    /* \"#utility.yul\":98:118   */\n  tag_14\n    /* \"#utility.yul\":116:117   */\n  dup4\n    /* \"#utility.yul\":98:118   */\n  tag_13\n  jump\t// in\ntag_14:\n    /* \"#utility.yul\":93:118   */\n  swap3\n  pop\n    /* \"#utility.yul\":137:138   */\n  dup3\n    /* \"#utility.yul\":127:129   */\n  tag_15\n  jumpi\n    /* \"#utility.yul\":142:160   */\n  tag_16\n  tag_17\n  jump\t// in\ntag_16:\n    /* \"#utility.yul\":127:129   */\ntag_15:\n    /* \"#utility.yul\":184:185   */\n  dup3\n    /* \"#utility.yul\":181:182   */\n  dup3\n    /* \"#utility.yul\":177:186   */\n  div\n    /* \"#utility.yul\":172:186   */\n  swap1\n  pop\n    /* \"#utility.yul\":49:192   */\n  swap3\n  swap2\n  pop\n  pop\n  jump\t// out\n    /* \"#utility.yul\":198:275   */\ntag_13:\n    /* \"#utility.yul\":235:242   */\n  0x00\n    /* \"#utility.yul\":264:269   */\n  dup2\n    /* \"#utility.yul\":253:269   */\n  swap1\n  pop\n    /* \"#utility.yul\":243:275   */\n  swap2\n  swap1\n  pop\n  jump\t// out\n    /* \"#utility.yul\":467:647   */\ntag_17:\n    /* \"#utility.yul\":515:592   */\n  0x4e487b7100000000000000000000000000000000000000000000000000000000\n    /* \"#utility.yul\":512:513   */\n  0x00\n    /* \"#utility.yul\":505:593   */\n  mstore\n    /* \"#utility.yul\":612:616   */\n  0x12\n    /* \"#utility.yul\":609:610   */\n  0x04\n    /* \"#utility.yul\":602:617   */\n  mstore\n    /* \"#utility.yul\":636:640   */\n  0x24\n    /* \"#utility.yul\":633:634   */\n  0x00\n    /* \"#utility.yul\":626:641   */\n  revert\n    /* \"#utility.yul\":653:833   */\ntag_3:\n    /* \"#utility.yul\":701:778   */\n  0x4e487b7100000000000000000000000000000000000000000000000000000000\n    /* \"#utility.yul\":698:699   */\n  0x00\n    /* \"#utility.yul\":691:779   */\n  mstore\n    /* \"#utility.yul\":798:802   */\n  0x21\n    /* \"#utility.yul\":795:796   */\n  0x04\n    /* \"#utility.yul\":788:803   */\n  mstore\n    /* \"#utility.yul\":822:826   */\n  0x24\n    /* \"#utility.yul\":819:820   */\n  0x00\n    /* \"#utility.yul\":812:827   */\n  revert\n    /* \"Vendor.sol\":151:8239  contract Vendor {... */\ntag_9:\n  dataSize(sub_0)\n  dup1\n  dataOffset(sub_0)\n  0x00\n  codecopy\n  0x00\n  return\nstop\n\nsub_0: assembly {\n        /* \"Vendor.sol\":151:8239  contract Vendor {... */\n      mstore(0x40, 0x80)\n      jumpi(tag_1, lt(calldatasize, 0x04))\n      shr(0xe0, calldataload(0x00))\n      dup1\n      0x83197ef0\n      gt\n      tag_26\n      jumpi\n      dup1\n      0xaa8c217c\n      gt\n      tag_27\n      jumpi\n      dup1\n      0xaa8c217c\n      eq\n      tag_20\n      jumpi\n      dup1\n      0xae90b213\n      eq\n      tag_21\n      jumpi\n      dup1\n      0xc040e6b8\n      eq\n      tag_22\n      jumpi\n      dup1\n      0xf1b9ee24\n      eq\n      tag_23\n      jumpi\n      dup1\n      0xf851a440\n      eq\n      tag_24\n      jumpi\n      dup1\n      0xfadeaa59\n      eq\n      tag_25\n      jumpi\n      jump(tag_1)\n    tag_27:\n      dup1\n      0x83197ef0\n      eq\n      tag_14\n      jumpi\n      dup1\n      0x84ac4446\n      eq\n      tag_15\n      jumpi\n      dup1\n      0x904c6094\n      eq\n      tag_16\n      jumpi\n      dup1\n      0x9503fe3d\n      eq\n      tag_17\n      jumpi\n      dup1\n      0x97c0bba1\n      eq\n      tag_18\n      jumpi\n      dup1\n      0x9a730617\n      eq\n      tag_19\n      jumpi\n      jump(tag_1)\n    tag_26:\n      dup1\n      0x3a40f3b2\n      gt\n      tag_28\n      jumpi\n      dup1\n      0x3a40f3b2\n      eq\n      tag_8\n      jumpi\n      dup1\n      0x410459ad\n      eq\n      tag_9\n      jumpi\n      dup1\n      0x43885314\n      eq\n      tag_10\n      jumpi\n      dup1\n      0x516dde43\n      eq\n      tag_11\n      jumpi\n      dup1\n      0x722713f7\n      eq\n      tag_12\n      jumpi\n      dup1\n      0x760a8c2a\n      eq\n      tag_13\n      jumpi\n      jump(tag_1)\n    tag_28:\n      dup1\n      0x0b97bc86\n      eq\n      tag_2\n      jumpi\n      dup1\n      0x109e94cf\n      eq\n      tag_3\n      jumpi\n      dup1\n      0x12424e3f\n      eq\n      tag_4\n      jumpi\n      dup1\n      0x182541d2\n      eq\n      tag_5\n      jumpi\n      dup1\n      0x21ce5afd\n      eq\n      tag_6\n      jumpi\n      dup1\n      0x25419c24\n      eq\n      tag_7\n      jumpi\n    tag_1:\n      0x00\n      dup1\n      revert\n        /* \"Vendor.sol\":300:321  uint public startDate */\n    tag_2:\n      callvalue\n      dup1\n      iszero\n      tag_29\n      jumpi\n      0x00\n      dup1\n      revert\n    tag_29:\n      pop\n      tag_30\n      tag_31\n      jump\t// in\n    tag_30:\n      mload(0x40)\n      tag_32\n      swap2\n      swap1\n      tag_33\n      jump\t// in\n    tag_32:\n      mload(0x40)\n      dup1\n      swap2\n      sub\n      swap1\n      return\n        /* \"Vendor.sol\":199:228  address payable public client */\n    tag_3:\n      callvalue\n      dup1\n      iszero\n      tag_34\n      jumpi\n      0x00\n      dup1\n      revert\n    tag_34:\n      pop\n      tag_35\n      tag_36\n      jump\t// in\n    tag_35:\n      mload(0x40)\n      tag_37\n      swap2\n      swap1\n      tag_38\n      jump\t// in\n    tag_37:\n      mload(0x40)\n      dup1\n      swap2\n      sub\n      swap1\n      return\n        /* \"Vendor.sol\":3764:3980  function approve() external atStage(Stages.Pending) {... */\n    tag_4:\n      callvalue\n      dup1\n      iszero\n      tag_39\n      jumpi\n      0x00\n      dup1\n      revert\n    tag_39:\n      pop\n      tag_40\n      tag_41\n      jump\t// in\n    tag_40:\n      stop\n        /* \"Vendor.sol\":901:935  Conditions[] public conditionArray */\n    tag_5:\n      callvalue\n      dup1\n      iszero\n      tag_42\n      jumpi\n      0x00\n      dup1\n      revert\n    tag_42:\n      pop\n      tag_43\n      0x04\n      dup1\n      calldatasize\n      sub\n      dup2\n      add\n      swap1\n      tag_44\n      swap2\n      swap1\n      tag_45\n      jump\t// in\n    tag_44:\n      tag_46\n      jump\t// in\n    tag_43:\n      mload(0x40)\n      tag_47\n      swap4\n      swap3\n      swap2\n      swap1\n      tag_48\n      jump\t// in\n    tag_47:\n      mload(0x40)\n      dup1\n      swap2\n      sub\n      swap1\n      return\n        /* \"Vendor.sol\":4978:5218  function receiveServiceData(int[] memory _cumulative) external atStage(Stages.Active) checkBillingDate() {... */\n    tag_6:\n      callvalue\n      dup1\n      iszero\n      tag_49\n      jumpi\n      0x00\n      dup1\n      revert\n    tag_49:\n      pop\n      tag_50\n      0x04\n      dup1\n      calldatasize\n      sub\n      dup2\n      add\n      swap1\n      tag_51\n      swap2\n      swap1\n      tag_52\n      jump\t// in\n    tag_51:\n      tag_53\n      jump\t// in\n    tag_50:\n      stop\n        /* \"Vendor.sol\":379:406  uint public prevBillingDate */\n    tag_7:\n      callvalue\n      dup1\n      iszero\n      tag_54\n      jumpi\n      0x00\n      dup1\n      revert\n    tag_54:\n      pop\n      tag_55\n      tag_56\n      jump\t// in\n    tag_55:\n      mload(0x40)\n      tag_57\n      swap2\n      swap1\n      tag_33\n      jump\t// in\n    tag_57:\n      mload(0x40)\n      dup1\n      swap2\n      sub\n      swap1\n      return\n        /* \"Vendor.sol\":641:670  bool public satisfied = false */\n    tag_8:\n      callvalue\n      dup1\n      iszero\n      tag_58\n      jumpi\n      0x00\n      dup1\n      revert\n    tag_58:\n      pop\n      tag_59\n      tag_60\n      jump\t// in\n    tag_59:\n      mload(0x40)\n      tag_61\n      swap2\n      swap1\n      tag_62\n      jump\t// in\n    tag_61:\n      mload(0x40)\n      dup1\n      swap2\n      sub\n      swap1\n      return\n        /* \"Vendor.sol\":3197:3280  function setPayee(address _payee) external {... */\n    tag_9:\n      callvalue\n      dup1\n      iszero\n      tag_63\n      jumpi\n      0x00\n      dup1\n      revert\n    tag_63:\n      pop\n      tag_64\n      0x04\n      dup1\n      calldatasize\n      sub\n      dup2\n      add\n      swap1\n      tag_65\n      swap2\n      swap1\n      tag_66\n      jump\t// in\n    tag_65:\n      tag_67\n      jump\t// in\n    tag_64:\n      stop\n        /* \"Vendor.sol\":412:439  uint public nextBillingDate */\n    tag_10:\n      callvalue\n      dup1\n      iszero\n      tag_68\n      jumpi\n      0x00\n      dup1\n      revert\n    tag_68:\n      pop\n      tag_69\n      tag_70\n      jump\t// in\n    tag_69:\n      mload(0x40)\n      tag_71\n      swap2\n      swap1\n      tag_33\n      jump\t// in\n    tag_71:\n      mload(0x40)\n      dup1\n      swap2\n      sub\n      swap1\n      return\n        /* \"Vendor.sol\":327:349  uint public expiryDate */\n    tag_11:\n      callvalue\n      dup1\n      iszero\n      tag_72\n      jumpi\n      0x00\n      dup1\n      revert\n    tag_72:\n      pop\n      tag_73\n      tag_74\n      jump\t// in\n    tag_73:\n      mload(0x40)\n      tag_75\n      swap2\n      swap1\n      tag_33\n      jump\t// in\n    tag_75:\n      mload(0x40)\n      dup1\n      swap2\n      sub\n      swap1\n      return\n        /* \"Vendor.sol\":4301:4396  function balanceOf() external view returns (uint) {... */\n    tag_12:\n      callvalue\n      dup1\n      iszero\n      tag_76\n      jumpi\n      0x00\n      dup1\n      revert\n    tag_76:\n      pop\n      tag_77\n      tag_78\n      jump\t// in\n    tag_77:\n      mload(0x40)\n      tag_79\n      swap2\n      swap1\n      tag_33\n      jump\t// in\n    tag_79:\n      mload(0x40)\n      dup1\n      swap2\n      sub\n      swap1\n      return\n        /* \"Vendor.sol\":6870:6963  function setActive() external atStage(Stages.Inactive) {... */\n    tag_13:\n      callvalue\n      dup1\n      iszero\n      tag_80\n      jumpi\n      0x00\n      dup1\n      revert\n    tag_80:\n      pop\n      tag_81\n      tag_82\n      jump\t// in\n    tag_81:\n      stop\n        /* \"Vendor.sol\":7070:7160  function destroy() external atStage(Stages.Inactive) {... */\n    tag_14:\n      callvalue\n      dup1\n      iszero\n      tag_83\n      jumpi\n      0x00\n      dup1\n      revert\n    tag_83:\n      pop\n      tag_84\n      tag_85\n      jump\t// in\n    tag_84:\n      stop\n        /* \"Vendor.sol\":4138:4295  function storePayment() external payable atStage(Stages.Active) checkBillingDate() {... */\n    tag_15:\n      tag_86\n      tag_87\n      jump\t// in\n    tag_86:\n      stop\n        /* \"Vendor.sol\":445:469  uint public contractHash */\n    tag_16:\n      callvalue\n      dup1\n      iszero\n      tag_88\n      jumpi\n      0x00\n      dup1\n      revert\n    tag_88:\n      pop\n      tag_89\n      tag_90\n      jump\t// in\n    tag_89:\n      mload(0x40)\n      tag_91\n      swap2\n      swap1\n      tag_33\n      jump\t// in\n    tag_91:\n      mload(0x40)\n      dup1\n      swap2\n      sub\n      swap1\n      return\n        /* \"Vendor.sol\":3286:3533  function endInitStage() public atStage(Stages.Initialising) {... */\n    tag_17:\n      callvalue\n      dup1\n      iszero\n      tag_92\n      jumpi\n      0x00\n      dup1\n      revert\n    tag_92:\n      pop\n      tag_93\n      tag_94\n      jump\t// in\n    tag_93:\n      stop\n        /* \"Vendor.sol\":268:293  bool public payeeApproved */\n    tag_18:\n      callvalue\n      dup1\n      iszero\n      tag_95\n      jumpi\n      0x00\n      dup1\n      revert\n    tag_95:\n      pop\n      tag_96\n      tag_97\n      jump\t// in\n    tag_96:\n      mload(0x40)\n      tag_98\n      swap2\n      swap1\n      tag_62\n      jump\t// in\n    tag_98:\n      mload(0x40)\n      dup1\n      swap2\n      sub\n      swap1\n      return\n        /* \"Vendor.sol\":1731:2167  function init(address _client, uint _expiredOn, uint _startDate, uint _contractHash, uint _amount) public {... */\n    tag_19:\n      callvalue\n      dup1\n      iszero\n      tag_99\n      jumpi\n      0x00\n      dup1\n      revert\n    tag_99:\n      pop\n      tag_100\n      0x04\n      dup1\n      calldatasize\n      sub\n      dup2\n      add\n      swap1\n      tag_101\n      swap2\n      swap1\n      tag_102\n      jump\t// in\n    tag_101:\n      tag_103\n      jump\t// in\n    tag_100:\n      stop\n        /* \"Vendor.sol\":355:373  uint public amount */\n    tag_20:\n      callvalue\n      dup1\n      iszero\n      tag_104\n      jumpi\n      0x00\n      dup1\n      revert\n    tag_104:\n      pop\n      tag_105\n      tag_106\n      jump\t// in\n    tag_105:\n      mload(0x40)\n      tag_107\n      swap2\n      swap1\n      tag_33\n      jump\t// in\n    tag_107:\n      mload(0x40)\n      dup1\n      swap2\n      sub\n      swap1\n      return\n        /* \"Vendor.sol\":234:262  address payable public payee */\n    tag_21:\n      callvalue\n      dup1\n      iszero\n      tag_108\n      jumpi\n      0x00\n      dup1\n      revert\n    tag_108:\n      pop\n      tag_109\n      tag_110\n      jump\t// in\n    tag_109:\n      mload(0x40)\n      tag_111\n      swap2\n      swap1\n      tag_38\n      jump\t// in\n    tag_111:\n      mload(0x40)\n      dup1\n      swap2\n      sub\n      swap1\n      return\n        /* \"Vendor.sol\":593:634  Stages public stage = Stages.Initialising */\n    tag_22:\n      callvalue\n      dup1\n      iszero\n      tag_112\n      jumpi\n      0x00\n      dup1\n      revert\n    tag_112:\n      pop\n      tag_113\n      tag_114\n      jump\t// in\n    tag_113:\n      mload(0x40)\n      tag_115\n      swap2\n      swap1\n      tag_116\n      jump\t// in\n    tag_115:\n      mload(0x40)\n      dup1\n      swap2\n      sub\n      swap1\n      return\n        /* \"Vendor.sol\":6969:7064  function setInactive() external atStage(Stages.Active) {... */\n    tag_23:\n      callvalue\n      dup1\n      iszero\n      tag_117\n      jumpi\n      0x00\n      dup1\n      revert\n    tag_117:\n      pop\n      tag_118\n      tag_119\n      jump\t// in\n    tag_118:\n      stop\n        /* \"Vendor.sol\":173:193  address public admin */\n    tag_24:\n      callvalue\n      dup1\n      iszero\n      tag_120\n      jumpi\n      0x00\n      dup1\n      revert\n    tag_120:\n      pop\n      tag_121\n      tag_122\n      jump\t// in\n    tag_121:\n      mload(0x40)\n      tag_123\n      swap2\n      swap1\n      tag_124\n      jump\t// in\n    tag_123:\n      mload(0x40)\n      dup1\n      swap2\n      sub\n      swap1\n      return\n        /* \"Vendor.sol\":2722:3191  function setConds(string[8] memory _names, int[8] memory _values, string[8] memory _operators) external atStage(Stages.Initialising) {... */\n    tag_25:\n      callvalue\n      dup1\n      iszero\n      tag_125\n      jumpi\n      0x00\n      dup1\n      revert\n    tag_125:\n      pop\n      tag_126\n      0x04\n      dup1\n      calldatasize\n      sub\n      dup2\n      add\n      swap1\n      tag_127\n      swap2\n      swap1\n      tag_128\n      jump\t// in\n    tag_127:\n      tag_129\n      jump\t// in\n    tag_126:\n      stop\n        /* \"Vendor.sol\":300:321  uint public startDate */\n    tag_31:\n      sload(0x03)\n      dup2\n      jump\t// out\n        /* \"Vendor.sol\":199:228  address payable public client */\n    tag_36:\n      0x01\n      0x00\n      swap1\n      sload\n      swap1\n      0x0100\n      exp\n      swap1\n      div\n      0xffffffffffffffffffffffffffffffffffffffff\n      and\n      dup2\n      jump\t// out\n        /* \"Vendor.sol\":3764:3980  function approve() external atStage(Stages.Pending) {... */\n    tag_41:\n        /* \"Vendor.sol\":3800:3814  Stages.Pending */\n      0x01\n        /* \"Vendor.sol\":8048:8054  _stage */\n      dup1\n        /* \"Vendor.sol\":8039:8054  stage == _stage */\n      0x04\n      dup2\n      gt\n      iszero\n      tag_131\n      jumpi\n      tag_132\n      tag_133\n      jump\t// in\n    tag_132:\n    tag_131:\n        /* \"Vendor.sol\":8039:8044  stage */\n      0x09\n      0x00\n      swap1\n      sload\n      swap1\n      0x0100\n      exp\n      swap1\n      div\n      0xff\n      and\n        /* \"Vendor.sol\":8039:8054  stage == _stage */\n      0x04\n      dup2\n      gt\n      iszero\n      tag_134\n      jumpi\n      tag_135\n      tag_133\n      jump\t// in\n    tag_135:\n    tag_134:\n      eq\n        /* \"Vendor.sol\":8031:8096  require(stage == _stage, \"Contract is not in the required state\") */\n      tag_136\n      jumpi\n      mload(0x40)\n      0x08c379a000000000000000000000000000000000000000000000000000000000\n      dup2\n      mstore\n      0x04\n      add\n      tag_137\n      swap1\n      tag_138\n      jump\t// in\n    tag_137:\n      mload(0x40)\n      dup1\n      swap2\n      sub\n      swap1\n      revert\n    tag_136:\n        /* \"Vendor.sol\":3848:3853  admin */\n      0x00\n      dup1\n      sload\n      swap1\n      0x0100\n      exp\n      swap1\n      div\n      0xffffffffffffffffffffffffffffffffffffffff\n      and\n        /* \"Vendor.sol\":3834:3853  msg.sender == admin */\n      0xffffffffffffffffffffffffffffffffffffffff\n      and\n        /* \"Vendor.sol\":3834:3844  msg.sender */\n      caller\n        /* \"Vendor.sol\":3834:3853  msg.sender == admin */\n      0xffffffffffffffffffffffffffffffffffffffff\n      and\n      eq\n        /* \"Vendor.sol\":3826:3912  require(msg.sender == admin, \"Cannot call this function directly, use VendorFactory.\") */\n      tag_140\n      jumpi\n      mload(0x40)\n      0x08c379a000000000000000000000000000000000000000000000000000000000\n      dup2\n      mstore\n      0x04\n      add\n      tag_141\n      swap1\n      tag_142\n      jump\t// in\n    tag_141:\n      mload(0x40)\n      dup1\n      swap2\n      sub\n      swap1\n      revert\n    tag_140:\n        /* \"Vendor.sol\":3938:3942  true */\n      0x01\n        /* \"Vendor.sol\":3922:3935  payeeApproved */\n      0x02\n      0x14\n        /* \"Vendor.sol\":3922:3942  payeeApproved = true */\n      0x0100\n      exp\n      dup2\n      sload\n      dup2\n      0xff\n      mul\n      not\n      and\n      swap1\n      dup4\n      iszero\n      iszero\n      mul\n      or\n      swap1\n      sstore\n      pop\n        /* \"Vendor.sol\":3960:3973  Stages.Active */\n      0x03\n        /* \"Vendor.sol\":3952:3957  stage */\n      0x09\n      0x00\n        /* \"Vendor.sol\":3952:3973  stage = Stages.Active */\n      0x0100\n      exp\n      dup2\n      sload\n      dup2\n      0xff\n      mul\n      not\n      and\n      swap1\n      dup4\n      0x04\n      dup2\n      gt\n      iszero\n      tag_143\n      jumpi\n      tag_144\n      tag_133\n      jump\t// in\n    tag_144:\n    tag_143:\n      mul\n      or\n      swap1\n      sstore\n      pop\n        /* \"Vendor.sol\":3764:3980  function approve() external atStage(Stages.Pending) {... */\n      pop\n      jump\t// out\n        /* \"Vendor.sol\":901:935  Conditions[] public conditionArray */\n    tag_46:\n      0x0a\n      dup2\n      dup2\n      sload\n      dup2\n      lt\n      tag_145\n      jumpi\n      0x00\n      dup1\n      revert\n    tag_145:\n      swap1\n      0x00\n      mstore\n      keccak256(0x00, 0x20)\n      swap1\n      0x03\n      mul\n      add\n      0x00\n      swap2\n      pop\n      swap1\n      pop\n      dup1\n      0x00\n      add\n      sload\n      swap1\n      dup1\n      0x01\n      add\n      sload\n      swap1\n      dup1\n      0x02\n      add\n      dup1\n      sload\n      tag_147\n      swap1\n      tag_148\n      jump\t// in\n    tag_147:\n      dup1\n      0x1f\n      add\n      0x20\n      dup1\n      swap2\n      div\n      mul\n      0x20\n      add\n      mload(0x40)\n      swap1\n      dup2\n      add\n      0x40\n      mstore\n      dup1\n      swap3\n      swap2\n      swap1\n      dup2\n      dup2\n      mstore\n      0x20\n      add\n      dup3\n      dup1\n      sload\n      tag_149\n      swap1\n      tag_148\n      jump\t// in\n    tag_149:\n      dup1\n      iszero\n      tag_150\n      jumpi\n      dup1\n      0x1f\n      lt\n      tag_151\n      jumpi\n      0x0100\n      dup1\n      dup4\n      sload\n      div\n      mul\n      dup4\n      mstore\n      swap2\n      0x20\n      add\n      swap2\n      jump(tag_150)\n    tag_151:\n      dup3\n      add\n      swap2\n      swap1\n      0x00\n      mstore\n      keccak256(0x00, 0x20)\n      swap1\n    tag_152:\n      dup2\n      sload\n      dup2\n      mstore\n      swap1\n      0x01\n      add\n      swap1\n      0x20\n      add\n      dup1\n      dup4\n      gt\n      tag_152\n      jumpi\n      dup3\n      swap1\n      sub\n      0x1f\n      and\n      dup3\n      add\n      swap2\n    tag_150:\n      pop\n      pop\n      pop\n      pop\n      pop\n      swap1\n      pop\n      dup4\n      jump\t// out\n        /* \"Vendor.sol\":4978:5218  function receiveServiceData(int[] memory _cumulative) external atStage(Stages.Active) checkBillingDate() {... */\n    tag_53:\n        /* \"Vendor.sol\":5049:5062  Stages.Active */\n      0x03\n        /* \"Vendor.sol\":8048:8054  _stage */\n      dup1\n        /* \"Vendor.sol\":8039:8054  stage == _stage */\n      0x04\n      dup2\n      gt\n      iszero\n      tag_154\n      jumpi\n      tag_155\n      tag_133\n      jump\t// in\n    tag_155:\n    tag_154:\n        /* \"Vendor.sol\":8039:8044  stage */\n      0x09\n      0x00\n      swap1\n      sload\n      swap1\n      0x0100\n      exp\n      swap1\n      div\n      0xff\n      and\n        /* \"Vendor.sol\":8039:8054  stage == _stage */\n      0x04\n      dup2\n      gt\n      iszero\n      tag_156\n      jumpi\n      tag_157\n      tag_133\n      jump\t// in\n    tag_157:\n    tag_156:\n      eq\n        /* \"Vendor.sol\":8031:8096  require(stage == _stage, \"Contract is not in the required state\") */\n      tag_158\n      jumpi\n      mload(0x40)\n      0x08c379a000000000000000000000000000000000000000000000000000000000\n      dup2\n      mstore\n      0x04\n      add\n      tag_159\n      swap1\n      tag_138\n      jump\t// in\n    tag_159:\n      mload(0x40)\n      dup1\n      swap2\n      sub\n      swap1\n      revert\n    tag_158:\n        /* \"Vendor.sol\":7569:7584  nextBillingDate */\n      sload(0x07)\n        /* \"Vendor.sol\":7554:7566  block.number */\n      number\n        /* \"Vendor.sol\":7554:7584  block.number > nextBillingDate */\n      gt\n        /* \"Vendor.sol\":7550:7778  if (block.number > nextBillingDate) {... */\n      iszero\n      tag_161\n      jumpi\n        /* \"Vendor.sol\":7600:7613  isSatisfied() */\n      tag_162\n        /* \"Vendor.sol\":7600:7611  isSatisfied */\n      tag_163\n        /* \"Vendor.sol\":7600:7613  isSatisfied() */\n      jump\t// in\n    tag_162:\n        /* \"Vendor.sol\":7550:7778  if (block.number > nextBillingDate) {... */\n      jump(tag_164)\n    tag_161:\n        /* \"Vendor.sol\":7668:7683  prevBillingDate */\n      sload(0x06)\n        /* \"Vendor.sol\":7652:7664  block.number */\n      number\n        /* \"Vendor.sol\":7652:7683  block.number >= prevBillingDate */\n      lt\n      iszero\n        /* \"Vendor.sol\":7652:7718  block.number >= prevBillingDate && block.number <= nextBillingDate */\n      dup1\n      iszero\n      tag_165\n      jumpi\n      pop\n        /* \"Vendor.sol\":7703:7718  nextBillingDate */\n      sload(0x07)\n        /* \"Vendor.sol\":7687:7699  block.number */\n      number\n        /* \"Vendor.sol\":7687:7718  block.number <= nextBillingDate */\n      gt\n      iszero\n        /* \"Vendor.sol\":7652:7718  block.number >= prevBillingDate && block.number <= nextBillingDate */\n    tag_165:\n        /* \"Vendor.sol\":7644:7752  require(block.number >= prevBillingDate && block.number <= nextBillingDate, \"Not within the billing period\") */\n      tag_166\n      jumpi\n      mload(0x40)\n      0x08c379a000000000000000000000000000000000000000000000000000000000\n      dup2\n      mstore\n      0x04\n      add\n      tag_167\n      swap1\n      tag_168\n      jump\t// in\n    tag_167:\n      mload(0x40)\n      dup1\n      swap2\n      sub\n      swap1\n      revert\n    tag_166:\n        /* \"Vendor.sol\":5098:5104  uint i */\n      0x00\n        /* \"Vendor.sol\":5093:5195  for (uint i = 0; i < _cumulative.length; i++) {... */\n    tag_170:\n        /* \"Vendor.sol\":5114:5125  _cumulative */\n      dup3\n        /* \"Vendor.sol\":5114:5132  _cumulative.length */\n      mload\n        /* \"Vendor.sol\":5110:5111  i */\n      dup2\n        /* \"Vendor.sol\":5110:5132  i < _cumulative.length */\n      lt\n        /* \"Vendor.sol\":5093:5195  for (uint i = 0; i < _cumulative.length; i++) {... */\n      iszero\n      tag_171\n      jumpi\n        /* \"Vendor.sol\":5170:5181  _cumulative */\n      dup3\n        /* \"Vendor.sol\":5182:5183  i */\n      dup2\n        /* \"Vendor.sol\":5170:5184  _cumulative[i] */\n      dup2\n      mload\n      dup2\n      lt\n      tag_173\n      jumpi\n      tag_174\n      tag_175\n      jump\t// in\n    tag_174:\n    tag_173:\n      0x20\n      mul\n      0x20\n      add\n      add\n      mload\n        /* \"Vendor.sol\":5153:5163  cumulative */\n      0x0d\n        /* \"Vendor.sol\":5153:5166  cumulative[i] */\n      0x00\n        /* \"Vendor.sol\":5164:5165  i */\n      dup4\n        /* \"Vendor.sol\":5153:5166  cumulative[i] */\n      dup2\n      mstore\n      0x20\n      add\n      swap1\n      dup2\n      mstore\n      0x20\n      add\n      0x00\n      keccak256\n      0x00\n        /* \"Vendor.sol\":5153:5184  cumulative[i] += _cumulative[i] */\n      dup3\n      dup3\n      sload\n      tag_176\n      swap2\n      swap1\n      tag_177\n      jump\t// in\n    tag_176:\n      swap3\n      pop\n      pop\n      dup2\n      swap1\n      sstore\n      pop\n        /* \"Vendor.sol\":5134:5137  i++ */\n      dup1\n      dup1\n      tag_178\n      swap1\n      tag_179\n      jump\t// in\n    tag_178:\n      swap2\n      pop\n      pop\n        /* \"Vendor.sol\":5093:5195  for (uint i = 0; i < _cumulative.length; i++) {... */\n      jump(tag_170)\n    tag_171:\n      pop\n        /* \"Vendor.sol\":5204:5209  count */\n      0x0e\n      0x00\n        /* \"Vendor.sol\":5204:5211  count++ */\n      dup2\n      sload\n      dup1\n      swap3\n      swap2\n      swap1\n      tag_180\n      swap1\n      tag_181\n      jump\t// in\n    tag_180:\n      swap2\n      swap1\n      pop\n      sstore\n      pop\n        /* \"Vendor.sol\":7550:7778  if (block.number > nextBillingDate) {... */\n    tag_164:\n        /* \"Vendor.sol\":4978:5218  function receiveServiceData(int[] memory _cumulative) external atStage(Stages.Active) checkBillingDate() {... */\n      pop\n      pop\n      jump\t// out\n        /* \"Vendor.sol\":379:406  uint public prevBillingDate */\n    tag_56:\n      sload(0x06)\n      dup2\n      jump\t// out\n        /* \"Vendor.sol\":641:670  bool public satisfied = false */\n    tag_60:\n      0x09\n      0x01\n      swap1\n      sload\n      swap1\n      0x0100\n      exp\n      swap1\n      div\n      0xff\n      and\n      dup2\n      jump\t// out\n        /* \"Vendor.sol\":3197:3280  function setPayee(address _payee) external {... */\n    tag_67:\n        /* \"Vendor.sol\":3266:3272  _payee */\n      dup1\n        /* \"Vendor.sol\":3250:3255  payee */\n      0x02\n      0x00\n        /* \"Vendor.sol\":3250:3273  payee = payable(_payee) */\n      0x0100\n      exp\n      dup2\n      sload\n      dup2\n      0xffffffffffffffffffffffffffffffffffffffff\n      mul\n      not\n      and\n      swap1\n      dup4\n      0xffffffffffffffffffffffffffffffffffffffff\n      and\n      mul\n      or\n      swap1\n      sstore\n      pop\n        /* \"Vendor.sol\":3197:3280  function setPayee(address _payee) external {... */\n      pop\n      jump\t// out\n        /* \"Vendor.sol\":412:439  uint public nextBillingDate */\n    tag_70:\n      sload(0x07)\n      dup2\n      jump\t// out\n        /* \"Vendor.sol\":327:349  uint public expiryDate */\n    tag_74:\n      sload(0x04)\n      dup2\n      jump\t// out\n        /* \"Vendor.sol\":4301:4396  function balanceOf() external view returns (uint) {... */\n    tag_78:\n        /* \"Vendor.sol\":4345:4349  uint */\n      0x00\n        /* \"Vendor.sol\":4368:4389  address(this).balance */\n      selfbalance\n        /* \"Vendor.sol\":4361:4389  return address(this).balance */\n      swap1\n      pop\n        /* \"Vendor.sol\":4301:4396  function balanceOf() external view returns (uint) {... */\n      swap1\n      jump\t// out\n        /* \"Vendor.sol\":6870:6963  function setActive() external atStage(Stages.Inactive) {... */\n    tag_82:\n        /* \"Vendor.sol\":6908:6923  Stages.Inactive */\n      0x02\n        /* \"Vendor.sol\":8048:8054  _stage */\n      dup1\n        /* \"Vendor.sol\":8039:8054  stage == _stage */\n      0x04\n      dup2\n      gt\n      iszero\n      tag_185\n      jumpi\n      tag_186\n      tag_133\n      jump\t// in\n    tag_186:\n    tag_185:\n        /* \"Vendor.sol\":8039:8044  stage */\n      0x09\n      0x00\n      swap1\n      sload\n      swap1\n      0x0100\n      exp\n      swap1\n      div\n      0xff\n      and\n        /* \"Vendor.sol\":8039:8054  stage == _stage */\n      0x04\n      dup2\n      gt\n      iszero\n      tag_187\n      jumpi\n      tag_188\n      tag_133\n      jump\t// in\n    tag_188:\n    tag_187:\n      eq\n        /* \"Vendor.sol\":8031:8096  require(stage == _stage, \"Contract is not in the required state\") */\n      tag_189\n      jumpi\n      mload(0x40)\n      0x08c379a000000000000000000000000000000000000000000000000000000000\n      dup2\n      mstore\n      0x04\n      add\n      tag_190\n      swap1\n      tag_138\n      jump\t// in\n    tag_190:\n      mload(0x40)\n      dup1\n      swap2\n      sub\n      swap1\n      revert\n    tag_189:\n        /* \"Vendor.sol\":6943:6956  Stages.Active */\n      0x03\n        /* \"Vendor.sol\":6935:6940  stage */\n      0x09\n      0x00\n        /* \"Vendor.sol\":6935:6956  stage = Stages.Active */\n      0x0100\n      exp\n      dup2\n      sload\n      dup2\n      0xff\n      mul\n      not\n      and\n      swap1\n      dup4\n      0x04\n      dup2\n      gt\n      iszero\n      tag_192\n      jumpi\n      tag_193\n      tag_133\n      jump\t// in\n    tag_193:\n    tag_192:\n      mul\n      or\n      swap1\n      sstore\n      pop\n        /* \"Vendor.sol\":6870:6963  function setActive() external atStage(Stages.Inactive) {... */\n      pop\n      jump\t// out\n        /* \"Vendor.sol\":7070:7160  function destroy() external atStage(Stages.Inactive) {... */\n    tag_85:\n        /* \"Vendor.sol\":7106:7121  Stages.Inactive */\n      0x02\n        /* \"Vendor.sol\":8048:8054  _stage */\n      dup1\n        /* \"Vendor.sol\":8039:8054  stage == _stage */\n      0x04\n      dup2\n      gt\n      iszero\n      tag_195\n      jumpi\n      tag_196\n      tag_133\n      jump\t// in\n    tag_196:\n    tag_195:\n        /* \"Vendor.sol\":8039:8044  stage */\n      0x09\n      0x00\n      swap1\n      sload\n      swap1\n      0x0100\n      exp\n      swap1\n      div\n      0xff\n      and\n        /* \"Vendor.sol\":8039:8054  stage == _stage */\n      0x04\n      dup2\n      gt\n      iszero\n      tag_197\n      jumpi\n      tag_198\n      tag_133\n      jump\t// in\n    tag_198:\n    tag_197:\n      eq\n        /* \"Vendor.sol\":8031:8096  require(stage == _stage, \"Contract is not in the required state\") */\n      tag_199\n      jumpi\n      mload(0x40)\n      0x08c379a000000000000000000000000000000000000000000000000000000000\n      dup2\n      mstore\n      0x04\n      add\n      tag_200\n      swap1\n      tag_138\n      jump\t// in\n    tag_200:\n      mload(0x40)\n      dup1\n      swap2\n      sub\n      swap1\n      revert\n    tag_199:\n        /* \"Vendor.sol\":7146:7152  client */\n      0x01\n      0x00\n      swap1\n      sload\n      swap1\n      0x0100\n      exp\n      swap1\n      div\n      0xffffffffffffffffffffffffffffffffffffffff\n      and\n        /* \"Vendor.sol\":7133:7153  selfdestruct(client) */\n      0xffffffffffffffffffffffffffffffffffffffff\n      and\n      selfdestruct\n        /* \"Vendor.sol\":4138:4295  function storePayment() external payable atStage(Stages.Active) checkBillingDate() {... */\n    tag_87:\n        /* \"Vendor.sol\":4187:4200  Stages.Active */\n      0x03\n        /* \"Vendor.sol\":8048:8054  _stage */\n      dup1\n        /* \"Vendor.sol\":8039:8054  stage == _stage */\n      0x04\n      dup2\n      gt\n      iszero\n      tag_203\n      jumpi\n      tag_204\n      tag_133\n      jump\t// in\n    tag_204:\n    tag_203:\n        /* \"Vendor.sol\":8039:8044  stage */\n      0x09\n      0x00\n      swap1\n      sload\n      swap1\n      0x0100\n      exp\n      swap1\n      div\n      0xff\n      and\n        /* \"Vendor.sol\":8039:8054  stage == _stage */\n      0x04\n      dup2\n      gt\n      iszero\n      tag_205\n      jumpi\n      tag_206\n      tag_133\n      jump\t// in\n    tag_206:\n    tag_205:\n      eq\n        /* \"Vendor.sol\":8031:8096  require(stage == _stage, \"Contract is not in the required state\") */\n      tag_207\n      jumpi\n      mload(0x40)\n      0x08c379a000000000000000000000000000000000000000000000000000000000\n      dup2\n      mstore\n      0x04\n      add\n      tag_208\n      swap1\n      tag_138\n      jump\t// in\n    tag_208:\n      mload(0x40)\n      dup1\n      swap2\n      sub\n      swap1\n      revert\n    tag_207:\n        /* \"Vendor.sol\":7569:7584  nextBillingDate */\n      sload(0x07)\n        /* \"Vendor.sol\":7554:7566  block.number */\n      number\n        /* \"Vendor.sol\":7554:7584  block.number > nextBillingDate */\n      gt\n        /* \"Vendor.sol\":7550:7778  if (block.number > nextBillingDate) {... */\n      iszero\n      tag_210\n      jumpi\n        /* \"Vendor.sol\":7600:7613  isSatisfied() */\n      tag_211\n        /* \"Vendor.sol\":7600:7611  isSatisfied */\n      tag_163\n        /* \"Vendor.sol\":7600:7613  isSatisfied() */\n      jump\t// in\n    tag_211:\n        /* \"Vendor.sol\":7550:7778  if (block.number > nextBillingDate) {... */\n      jump(tag_212)\n    tag_210:\n        /* \"Vendor.sol\":7668:7683  prevBillingDate */\n      sload(0x06)\n        /* \"Vendor.sol\":7652:7664  block.number */\n      number\n        /* \"Vendor.sol\":7652:7683  block.number >= prevBillingDate */\n      lt\n      iszero\n        /* \"Vendor.sol\":7652:7718  block.number >= prevBillingDate && block.number <= nextBillingDate */\n      dup1\n      iszero\n      tag_213\n      jumpi\n      pop\n        /* \"Vendor.sol\":7703:7718  nextBillingDate */\n      sload(0x07)\n        /* \"Vendor.sol\":7687:7699  block.number */\n      number\n        /* \"Vendor.sol\":7687:7718  block.number <= nextBillingDate */\n      gt\n      iszero\n        /* \"Vendor.sol\":7652:7718  block.number >= prevBillingDate && block.number <= nextBillingDate */\n    tag_213:\n        /* \"Vendor.sol\":7644:7752  require(block.number >= prevBillingDate && block.number <= nextBillingDate, \"Not within the billing period\") */\n      tag_214\n      jumpi\n      mload(0x40)\n      0x08c379a000000000000000000000000000000000000000000000000000000000\n      dup2\n      mstore\n      0x04\n      add\n      tag_215\n      swap1\n      tag_168\n      jump\t// in\n    tag_215:\n      mload(0x40)\n      dup1\n      swap2\n      sub\n      swap1\n      revert\n    tag_214:\n        /* \"Vendor.sol\":4248:4254  amount */\n      sload(0x05)\n        /* \"Vendor.sol\":4235:4244  msg.value */\n      callvalue\n        /* \"Vendor.sol\":4235:4254  msg.value != amount */\n      eq\n        /* \"Vendor.sol\":4231:4289  if (msg.value != amount) {... */\n      tag_217\n      jumpi\n        /* \"Vendor.sol\":4270:4278  revert() */\n      0x00\n      dup1\n      revert\n        /* \"Vendor.sol\":4231:4289  if (msg.value != amount) {... */\n    tag_217:\n        /* \"Vendor.sol\":7550:7778  if (block.number > nextBillingDate) {... */\n    tag_212:\n        /* \"Vendor.sol\":4138:4295  function storePayment() external payable atStage(Stages.Active) checkBillingDate() {... */\n      pop\n      jump\t// out\n        /* \"Vendor.sol\":445:469  uint public contractHash */\n    tag_90:\n      sload(0x08)\n      dup2\n      jump\t// out\n        /* \"Vendor.sol\":3286:3533  function endInitStage() public atStage(Stages.Initialising) {... */\n    tag_94:\n        /* \"Vendor.sol\":3325:3344  Stages.Initialising */\n      0x00\n        /* \"Vendor.sol\":8048:8054  _stage */\n      dup1\n        /* \"Vendor.sol\":8039:8054  stage == _stage */\n      0x04\n      dup2\n      gt\n      iszero\n      tag_219\n      jumpi\n      tag_220\n      tag_133\n      jump\t// in\n    tag_220:\n    tag_219:\n        /* \"Vendor.sol\":8039:8044  stage */\n      0x09\n      0x00\n      swap1\n      sload\n      swap1\n      0x0100\n      exp\n      swap1\n      div\n      0xff\n      and\n        /* \"Vendor.sol\":8039:8054  stage == _stage */\n      0x04\n      dup2\n      gt\n      iszero\n      tag_221\n      jumpi\n      tag_222\n      tag_133\n      jump\t// in\n    tag_222:\n    tag_221:\n      eq\n        /* \"Vendor.sol\":8031:8096  require(stage == _stage, \"Contract is not in the required state\") */\n      tag_223\n      jumpi\n      mload(0x40)\n      0x08c379a000000000000000000000000000000000000000000000000000000000\n      dup2\n      mstore\n      0x04\n      add\n      tag_224\n      swap1\n      tag_138\n      jump\t// in\n    tag_224:\n      mload(0x40)\n      dup1\n      swap2\n      sub\n      swap1\n      revert\n    tag_223:\n        /* \"Vendor.sol\":3364:3378  Stages.Pending */\n      0x01\n        /* \"Vendor.sol\":3356:3361  stage */\n      0x09\n      0x00\n        /* \"Vendor.sol\":3356:3378  stage = Stages.Pending */\n      0x0100\n      exp\n      dup2\n      sload\n      dup2\n      0xff\n      mul\n      not\n      and\n      swap1\n      dup4\n      0x04\n      dup2\n      gt\n      iszero\n      tag_226\n      jumpi\n      tag_227\n      tag_133\n      jump\t// in\n    tag_227:\n    tag_226:\n      mul\n      or\n      swap1\n      sstore\n      pop\n        /* \"Vendor.sol\":3441:3447  uint i */\n      0x00\n        /* \"Vendor.sol\":3436:3527  for (uint i = 0; i < conditionArray.length; i++) {... */\n    tag_228:\n        /* \"Vendor.sol\":3457:3471  conditionArray */\n      0x0a\n        /* \"Vendor.sol\":3457:3478  conditionArray.length */\n      dup1\n      sload\n      swap1\n      pop\n        /* \"Vendor.sol\":3453:3454  i */\n      dup2\n        /* \"Vendor.sol\":3453:3478  i < conditionArray.length */\n      lt\n        /* \"Vendor.sol\":3436:3527  for (uint i = 0; i < conditionArray.length; i++) {... */\n      iszero\n      tag_229\n      jumpi\n        /* \"Vendor.sol\":3515:3516  0 */\n      0x00\n        /* \"Vendor.sol\":3499:3509  cumulative */\n      0x0d\n        /* \"Vendor.sol\":3499:3512  cumulative[i] */\n      0x00\n        /* \"Vendor.sol\":3510:3511  i */\n      dup4\n        /* \"Vendor.sol\":3499:3512  cumulative[i] */\n      dup2\n      mstore\n      0x20\n      add\n      swap1\n      dup2\n      mstore\n      0x20\n      add\n      0x00\n      keccak256\n        /* \"Vendor.sol\":3499:3516  cumulative[i] = 0 */\n      dup2\n      swap1\n      sstore\n      pop\n        /* \"Vendor.sol\":3480:3483  i++ */\n      dup1\n      dup1\n      tag_231\n      swap1\n      tag_179\n      jump\t// in\n    tag_231:\n      swap2\n      pop\n      pop\n        /* \"Vendor.sol\":3436:3527  for (uint i = 0; i < conditionArray.length; i++) {... */\n      jump(tag_228)\n    tag_229:\n      pop\n        /* \"Vendor.sol\":3286:3533  function endInitStage() public atStage(Stages.Initialising) {... */\n      pop\n      jump\t// out\n        /* \"Vendor.sol\":268:293  bool public payeeApproved */\n    tag_97:\n      0x02\n      0x14\n      swap1\n      sload\n      swap1\n      0x0100\n      exp\n      swap1\n      div\n      0xff\n      and\n      dup2\n      jump\t// out\n        /* \"Vendor.sol\":1731:2167  function init(address _client, uint _expiredOn, uint _startDate, uint _contractHash, uint _amount) public {... */\n    tag_103:\n        /* \"Vendor.sol\":1855:1865  msg.sender */\n      caller\n        /* \"Vendor.sol\":1847:1852  admin */\n      0x00\n      dup1\n        /* \"Vendor.sol\":1847:1865  admin = msg.sender */\n      0x0100\n      exp\n      dup2\n      sload\n      dup2\n      0xffffffffffffffffffffffffffffffffffffffff\n      mul\n      not\n      and\n      swap1\n      dup4\n      0xffffffffffffffffffffffffffffffffffffffff\n      and\n      mul\n      or\n      swap1\n      sstore\n      pop\n        /* \"Vendor.sol\":1892:1899  _client */\n      dup5\n        /* \"Vendor.sol\":1875:1881  client */\n      0x01\n      0x00\n        /* \"Vendor.sol\":1875:1900  client = payable(_client) */\n      0x0100\n      exp\n      dup2\n      sload\n      dup2\n      0xffffffffffffffffffffffffffffffffffffffff\n      mul\n      not\n      and\n      swap1\n      dup4\n      0xffffffffffffffffffffffffffffffffffffffff\n      and\n      mul\n      or\n      swap1\n      sstore\n      pop\n        /* \"Vendor.sol\":1923:1933  _expiredOn */\n      dup4\n        /* \"Vendor.sol\":1910:1920  expiryDate */\n      0x04\n        /* \"Vendor.sol\":1910:1933  expiryDate = _expiredOn */\n      dup2\n      swap1\n      sstore\n      pop\n        /* \"Vendor.sol\":1955:1965  _startDate */\n      dup3\n        /* \"Vendor.sol\":1943:1952  startDate */\n      0x03\n        /* \"Vendor.sol\":1943:1965  startDate = _startDate */\n      dup2\n      swap1\n      sstore\n      pop\n        /* \"Vendor.sol\":1993:2013  calcDate(_startDate) */\n      tag_233\n        /* \"Vendor.sol\":2002:2012  _startDate */\n      dup4\n        /* \"Vendor.sol\":1993:2001  calcDate */\n      tag_234\n        /* \"Vendor.sol\":1993:2013  calcDate(_startDate) */\n      jump\t// in\n    tag_233:\n        /* \"Vendor.sol\":1975:1990  prevBillingDate */\n      0x06\n        /* \"Vendor.sol\":1975:2013  prevBillingDate = calcDate(_startDate) */\n      dup2\n      swap1\n      sstore\n      pop\n        /* \"Vendor.sol\":2041:2071  calcDate(_startDate + 30 days) */\n      tag_235\n        /* \"Vendor.sol\":2063:2070  30 days */\n      0x278d00\n        /* \"Vendor.sol\":2050:2060  _startDate */\n      dup5\n        /* \"Vendor.sol\":2050:2070  _startDate + 30 days */\n      tag_236\n      swap2\n      swap1\n      tag_237\n      jump\t// in\n    tag_236:\n        /* \"Vendor.sol\":2041:2049  calcDate */\n      tag_234\n        /* \"Vendor.sol\":2041:2071  calcDate(_startDate + 30 days) */\n      jump\t// in\n    tag_235:\n        /* \"Vendor.sol\":2023:2038  nextBillingDate */\n      0x07\n        /* \"Vendor.sol\":2023:2071  nextBillingDate = calcDate(_startDate + 30 days) */\n      dup2\n      swap1\n      sstore\n      pop\n        /* \"Vendor.sol\":2096:2109  _contractHash */\n      dup2\n        /* \"Vendor.sol\":2081:2093  contractHash */\n      0x08\n        /* \"Vendor.sol\":2081:2109  contractHash = _contractHash */\n      dup2\n      swap1\n      sstore\n      pop\n        /* \"Vendor.sol\":2128:2135  _amount */\n      dup1\n        /* \"Vendor.sol\":2119:2125  amount */\n      0x05\n        /* \"Vendor.sol\":2119:2135  amount = _amount */\n      dup2\n      swap1\n      sstore\n      pop\n        /* \"Vendor.sol\":2145:2160  initOperators() */\n      tag_238\n        /* \"Vendor.sol\":2145:2158  initOperators */\n      tag_239\n        /* \"Vendor.sol\":2145:2160  initOperators() */\n      jump\t// in\n    tag_238:\n        /* \"Vendor.sol\":1731:2167  function init(address _client, uint _expiredOn, uint _startDate, uint _contractHash, uint _amount) public {... */\n      pop\n      pop\n      pop\n      pop\n      pop\n      jump\t// out\n        /* \"Vendor.sol\":355:373  uint public amount */\n    tag_106:\n      sload(0x05)\n      dup2\n      jump\t// out\n        /* \"Vendor.sol\":234:262  address payable public payee */\n    tag_110:\n      0x02\n      0x00\n      swap1\n      sload\n      swap1\n      0x0100\n      exp\n      swap1\n      div\n      0xffffffffffffffffffffffffffffffffffffffff\n      and\n      dup2\n      jump\t// out\n        /* \"Vendor.sol\":593:634  Stages public stage = Stages.Initialising */\n    tag_114:\n      0x09\n      0x00\n      swap1\n      sload\n      swap1\n      0x0100\n      exp\n      swap1\n      div\n      0xff\n      and\n      dup2\n      jump\t// out\n        /* \"Vendor.sol\":6969:7064  function setInactive() external atStage(Stages.Active) {... */\n    tag_119:\n        /* \"Vendor.sol\":7009:7022  Stages.Active */\n      0x03\n        /* \"Vendor.sol\":8048:8054  _stage */\n      dup1\n        /* \"Vendor.sol\":8039:8054  stage == _stage */\n      0x04\n      dup2\n      gt\n      iszero\n      tag_241\n      jumpi\n      tag_242\n      tag_133\n      jump\t// in\n    tag_242:\n    tag_241:\n        /* \"Vendor.sol\":8039:8044  stage */\n      0x09\n      0x00\n      swap1\n      sload\n      swap1\n      0x0100\n      exp\n      swap1\n      div\n      0xff\n      and\n        /* \"Vendor.sol\":8039:8054  stage == _stage */\n      0x04\n      dup2\n      gt\n      iszero\n      tag_243\n      jumpi\n      tag_244\n      tag_133\n      jump\t// in\n    tag_244:\n    tag_243:\n      eq\n        /* \"Vendor.sol\":8031:8096  require(stage == _stage, \"Contract is not in the required state\") */\n      tag_245\n      jumpi\n      mload(0x40)\n      0x08c379a000000000000000000000000000000000000000000000000000000000\n      dup2\n      mstore\n      0x04\n      add\n      tag_246\n      swap1\n      tag_138\n      jump\t// in\n    tag_246:\n      mload(0x40)\n      dup1\n      swap2\n      sub\n      swap1\n      revert\n    tag_245:\n        /* \"Vendor.sol\":7042:7057  Stages.Inactive */\n      0x02\n        /* \"Vendor.sol\":7034:7039  stage */\n      0x09\n      0x00\n        /* \"Vendor.sol\":7034:7057  stage = Stages.Inactive */\n      0x0100\n      exp\n      dup2\n      sload\n      dup2\n      0xff\n      mul\n      not\n      and\n      swap1\n      dup4\n      0x04\n      dup2\n      gt\n      iszero\n      tag_248\n      jumpi\n      tag_249\n      tag_133\n      jump\t// in\n    tag_249:\n    tag_248:\n      mul\n      or\n      swap1\n      sstore\n      pop\n        /* \"Vendor.sol\":6969:7064  function setInactive() external atStage(Stages.Active) {... */\n      pop\n      jump\t// out\n        /* \"Vendor.sol\":173:193  address public admin */\n    tag_122:\n      0x00\n      dup1\n      sload\n      swap1\n      0x0100\n      exp\n      swap1\n      div\n      0xffffffffffffffffffffffffffffffffffffffff\n      and\n      dup2\n      jump\t// out\n        /* \"Vendor.sol\":2722:3191  function setConds(string[8] memory _names, int[8] memory _values, string[8] memory _operators) external atStage(Stages.Initialising) {... */\n    tag_129:\n        /* \"Vendor.sol\":2834:2853  Stages.Initialising */\n      0x00\n        /* \"Vendor.sol\":8048:8054  _stage */\n      dup1\n        /* \"Vendor.sol\":8039:8054  stage == _stage */\n      0x04\n      dup2\n      gt\n      iszero\n      tag_251\n      jumpi\n      tag_252\n      tag_133\n      jump\t// in\n    tag_252:\n    tag_251:\n        /* \"Vendor.sol\":8039:8044  stage */\n      0x09\n      0x00\n      swap1\n      sload\n      swap1\n      0x0100\n      exp\n      swap1\n      div\n      0xff\n      and\n        /* \"Vendor.sol\":8039:8054  stage == _stage */\n      0x04\n      dup2\n      gt\n      iszero\n      tag_253\n      jumpi\n      tag_254\n      tag_133\n      jump\t// in\n    tag_254:\n    tag_253:\n      eq\n        /* \"Vendor.sol\":8031:8096  require(stage == _stage, \"Contract is not in the required state\") */\n      tag_255\n      jumpi\n      mload(0x40)\n      0x08c379a000000000000000000000000000000000000000000000000000000000\n      dup2\n      mstore\n      0x04\n      add\n      tag_256\n      swap1\n      tag_138\n      jump\t// in\n    tag_256:\n      mload(0x40)\n      dup1\n      swap2\n      sub\n      swap1\n      revert\n    tag_255:\n        /* \"Vendor.sol\":2870:2876  uint i */\n      0x00\n        /* \"Vendor.sol\":2865:3185  for (uint i = 0; i < 8; i++) {... */\n    tag_258:\n        /* \"Vendor.sol\":2886:2887  8 */\n      0x08\n        /* \"Vendor.sol\":2882:2883  i */\n      dup2\n        /* \"Vendor.sol\":2882:2887  i < 8 */\n      lt\n        /* \"Vendor.sol\":2865:3185  for (uint i = 0; i < 8; i++) {... */\n      iszero\n      tag_259\n      jumpi\n        /* \"Vendor.sol\":2939:2940  0 */\n      0x00\n        /* \"Vendor.sol\":2918:2924  _names */\n      dup6\n        /* \"Vendor.sol\":2925:2926  i */\n      dup3\n        /* \"Vendor.sol\":2918:2927  _names[i] */\n      0x08\n      dup2\n      lt\n      tag_261\n      jumpi\n      tag_262\n      tag_175\n      jump\t// in\n    tag_262:\n    tag_261:\n      0x20\n      mul\n      add\n      mload\n        /* \"Vendor.sol\":2912:2935  bytes(_names[i]).length */\n      mload\n        /* \"Vendor.sol\":2912:2940  bytes(_names[i]).length == 0 */\n      eq\n        /* \"Vendor.sol\":2908:3081  if (bytes(_names[i]).length == 0) {... */\n      iszero\n      tag_263\n      jumpi\n        /* \"Vendor.sol\":2960:2974  endInitStage() */\n      tag_264\n        /* \"Vendor.sol\":2960:2972  endInitStage */\n      tag_94\n        /* \"Vendor.sol\":2960:2974  endInitStage() */\n      jump\t// in\n    tag_264:\n        /* \"Vendor.sol\":2992:2999  return; */\n      pop\n      jump(tag_257)\n        /* \"Vendor.sol\":2908:3081  if (bytes(_names[i]).length == 0) {... */\n    tag_263:\n        /* \"Vendor.sol\":3094:3108  conditionArray */\n      0x0a\n        /* \"Vendor.sol\":3114:3173  Conditions(_values[i], operators[_operators[i]], _names[i]) */\n      mload(0x40)\n      dup1\n      0x60\n      add\n      0x40\n      mstore\n      dup1\n        /* \"Vendor.sol\":3125:3132  _values */\n      dup7\n        /* \"Vendor.sol\":3133:3134  i */\n      dup5\n        /* \"Vendor.sol\":3125:3135  _values[i] */\n      0x08\n      dup2\n      lt\n      tag_265\n      jumpi\n      tag_266\n      tag_175\n      jump\t// in\n    tag_266:\n    tag_265:\n      0x20\n      mul\n      add\n      mload\n        /* \"Vendor.sol\":3114:3173  Conditions(_values[i], operators[_operators[i]], _names[i]) */\n      dup2\n      mstore\n      0x20\n      add\n        /* \"Vendor.sol\":3137:3146  operators */\n      0x0b\n        /* \"Vendor.sol\":3147:3157  _operators */\n      dup7\n        /* \"Vendor.sol\":3158:3159  i */\n      dup6\n        /* \"Vendor.sol\":3147:3160  _operators[i] */\n      0x08\n      dup2\n      lt\n      tag_267\n      jumpi\n      tag_268\n      tag_175\n      jump\t// in\n    tag_268:\n    tag_267:\n      0x20\n      mul\n      add\n      mload\n        /* \"Vendor.sol\":3137:3161  operators[_operators[i]] */\n      mload(0x40)\n      tag_269\n      swap2\n      swap1\n      tag_270\n      jump\t// in\n    tag_269:\n      swap1\n      dup2\n      mstore\n      0x20\n      add\n      mload(0x40)\n      dup1\n      swap2\n      sub\n      swap1\n      keccak256\n      sload\n        /* \"Vendor.sol\":3114:3173  Conditions(_values[i], operators[_operators[i]], _names[i]) */\n      dup2\n      mstore\n      0x20\n      add\n        /* \"Vendor.sol\":3163:3169  _names */\n      dup8\n        /* \"Vendor.sol\":3170:3171  i */\n      dup5\n        /* \"Vendor.sol\":3163:3172  _names[i] */\n      0x08\n      dup2\n      lt\n      tag_271\n      jumpi\n      tag_272\n      tag_175\n      jump\t// in\n    tag_272:\n    tag_271:\n      0x20\n      mul\n      add\n      mload\n        /* \"Vendor.sol\":3114:3173  Conditions(_values[i], operators[_operators[i]], _names[i]) */\n      dup2\n      mstore\n      pop\n        /* \"Vendor.sol\":3094:3174  conditionArray.push(Conditions(_values[i], operators[_operators[i]], _names[i])) */\n      swap1\n      dup1\n      0x01\n      dup2\n      sload\n      add\n      dup1\n      dup3\n      sstore\n      dup1\n      swap2\n      pop\n      pop\n      0x01\n      swap1\n      sub\n      swap1\n      0x00\n      mstore\n      keccak256(0x00, 0x20)\n      swap1\n      0x03\n      mul\n      add\n      0x00\n      swap1\n      swap2\n      swap1\n      swap2\n      swap1\n      swap2\n      pop\n      0x00\n      dup3\n      add\n      mload\n      dup2\n      0x00\n      add\n      sstore\n      0x20\n      dup3\n      add\n      mload\n      dup2\n      0x01\n      add\n      sstore\n      0x40\n      dup3\n      add\n      mload\n      dup2\n      0x02\n      add\n      swap1\n      dup1\n      mload\n      swap1\n      0x20\n      add\n      swap1\n      tag_274\n      swap3\n      swap2\n      swap1\n      tag_275\n      jump\t// in\n    tag_274:\n      pop\n      pop\n      pop\n        /* \"Vendor.sol\":2889:2892  i++ */\n      dup1\n      dup1\n      tag_276\n      swap1\n      tag_179\n      jump\t// in\n    tag_276:\n      swap2\n      pop\n      pop\n        /* \"Vendor.sol\":2865:3185  for (uint i = 0; i < 8; i++) {... */\n      jump(tag_258)\n    tag_259:\n      pop\n        /* \"Vendor.sol\":8106:8107  _ */\n    tag_257:\n        /* \"Vendor.sol\":2722:3191  function setConds(string[8] memory _names, int[8] memory _values, string[8] memory _operators) external atStage(Stages.Initialising) {... */\n      pop\n      pop\n      pop\n      pop\n      jump\t// out\n        /* \"Vendor.sol\":5329:5976  function isSatisfied() private atStage(Stages.Active) {... */\n    tag_163:\n        /* \"Vendor.sol\":5368:5381  Stages.Active */\n      0x03\n        /* \"Vendor.sol\":8048:8054  _stage */\n      dup1\n        /* \"Vendor.sol\":8039:8054  stage == _stage */\n      0x04\n      dup2\n      gt\n      iszero\n      tag_278\n      jumpi\n      tag_279\n      tag_133\n      jump\t// in\n    tag_279:\n    tag_278:\n        /* \"Vendor.sol\":8039:8044  stage */\n      0x09\n      0x00\n      swap1\n      sload\n      swap1\n      0x0100\n      exp\n      swap1\n      div\n      0xff\n      and\n        /* \"Vendor.sol\":8039:8054  stage == _stage */\n      0x04\n      dup2\n      gt\n      iszero\n      tag_280\n      jumpi\n      tag_281\n      tag_133\n      jump\t// in\n    tag_281:\n    tag_280:\n      eq\n        /* \"Vendor.sol\":8031:8096  require(stage == _stage, \"Contract is not in the required state\") */\n      tag_282\n      jumpi\n      mload(0x40)\n      0x08c379a000000000000000000000000000000000000000000000000000000000\n      dup2\n      mstore\n      0x04\n      add\n      tag_283\n      swap1\n      tag_138\n      jump\t// in\n    tag_283:\n      mload(0x40)\n      dup1\n      swap2\n      sub\n      swap1\n      revert\n    tag_282:\n        /* \"Vendor.sol\":5398:5404  uint i */\n      0x00\n        /* \"Vendor.sol\":5393:5812  for (uint i = 0; i < conditionArray.length; i++) {... */\n    tag_285:\n        /* \"Vendor.sol\":5414:5428  conditionArray */\n      0x0a\n        /* \"Vendor.sol\":5414:5435  conditionArray.length */\n      dup1\n      sload\n      swap1\n      pop\n        /* \"Vendor.sol\":5410:5411  i */\n      dup2\n        /* \"Vendor.sol\":5410:5435  i < conditionArray.length */\n      lt\n        /* \"Vendor.sol\":5393:5812  for (uint i = 0; i < conditionArray.length; i++) {... */\n      iszero\n      tag_286\n      jumpi\n        /* \"Vendor.sol\":5456:5468  int operator */\n      0x00\n        /* \"Vendor.sol\":5471:5485  conditionArray */\n      0x0a\n        /* \"Vendor.sol\":5486:5487  i */\n      dup3\n        /* \"Vendor.sol\":5471:5488  conditionArray[i] */\n      dup2\n      sload\n      dup2\n      lt\n      tag_288\n      jumpi\n      tag_289\n      tag_175\n      jump\t// in\n    tag_289:\n    tag_288:\n      swap1\n      0x00\n      mstore\n      keccak256(0x00, 0x20)\n      swap1\n      0x03\n      mul\n      add\n        /* \"Vendor.sol\":5471:5497  conditionArray[i].operator */\n      0x01\n      add\n      sload\n        /* \"Vendor.sol\":5456:5497  int operator = conditionArray[i].operator */\n      swap1\n      pop\n        /* \"Vendor.sol\":5511:5520  int value */\n      0x00\n        /* \"Vendor.sol\":5523:5537  conditionArray */\n      0x0a\n        /* \"Vendor.sol\":5538:5539  i */\n      dup4\n        /* \"Vendor.sol\":5523:5540  conditionArray[i] */\n      dup2\n      sload\n      dup2\n      lt\n      tag_291\n      jumpi\n      tag_292\n      tag_175\n      jump\t// in\n    tag_292:\n    tag_291:\n      swap1\n      0x00\n      mstore\n      keccak256(0x00, 0x20)\n      swap1\n      0x03\n      mul\n      add\n        /* \"Vendor.sol\":5523:5546  conditionArray[i].value */\n      0x00\n      add\n      sload\n        /* \"Vendor.sol\":5511:5546  int value = conditionArray[i].value */\n      swap1\n      pop\n        /* \"Vendor.sol\":5560:5572  int _toCheck */\n      0x00\n        /* \"Vendor.sol\":5589:5594  count */\n      sload(0x0e)\n        /* \"Vendor.sol\":5575:5585  cumulative */\n      0x0d\n        /* \"Vendor.sol\":5575:5588  cumulative[i] */\n      0x00\n        /* \"Vendor.sol\":5586:5587  i */\n      dup7\n        /* \"Vendor.sol\":5575:5588  cumulative[i] */\n      dup2\n      mstore\n      0x20\n      add\n      swap1\n      dup2\n      mstore\n      0x20\n      add\n      0x00\n      keccak256\n      sload\n        /* \"Vendor.sol\":5575:5594  cumulative[i]/count */\n      tag_294\n      swap2\n      swap1\n      tag_295\n      jump\t// in\n    tag_294:\n        /* \"Vendor.sol\":5560:5594  int _toCheck = cumulative[i]/count */\n      swap1\n      pop\n        /* \"Vendor.sol\":5626:5662  condValid(operator, _toCheck, value) */\n      tag_296\n        /* \"Vendor.sol\":5636:5644  operator */\n      dup4\n        /* \"Vendor.sol\":5646:5654  _toCheck */\n      dup3\n        /* \"Vendor.sol\":5656:5661  value */\n      dup5\n        /* \"Vendor.sol\":5626:5635  condValid */\n      tag_297\n        /* \"Vendor.sol\":5626:5662  condValid(operator, _toCheck, value) */\n      jump\t// in\n    tag_296:\n        /* \"Vendor.sol\":5621:5802  if (!condValid(operator, _toCheck, value)) {... */\n      tag_298\n      jumpi\n        /* \"Vendor.sol\":5682:5690  refund() */\n      tag_299\n        /* \"Vendor.sol\":5682:5688  refund */\n      tag_300\n        /* \"Vendor.sol\":5682:5690  refund() */\n      jump\t// in\n    tag_299:\n        /* \"Vendor.sol\":5719:5729  msg.sender */\n      caller\n        /* \"Vendor.sol\":5713:5763  State(msg.sender, satisfied, \"Refunding payment.\") */\n      0xffffffffffffffffffffffffffffffffffffffff\n      and\n      0xa84226bf2d14bde3fac454f52eaeab63aaeb1934da88f9263dd4ff7dd12acf71\n        /* \"Vendor.sol\":5731:5740  satisfied */\n      0x09\n      0x01\n      swap1\n      sload\n      swap1\n      0x0100\n      exp\n      swap1\n      div\n      0xff\n      and\n        /* \"Vendor.sol\":5713:5763  State(msg.sender, satisfied, \"Refunding payment.\") */\n      mload(0x40)\n      tag_301\n      swap2\n      swap1\n      tag_302\n      jump\t// in\n    tag_301:\n      mload(0x40)\n      dup1\n      swap2\n      sub\n      swap1\n      log2\n        /* \"Vendor.sol\":5781:5788  return; */\n      pop\n      pop\n      pop\n      pop\n      jump(tag_284)\n        /* \"Vendor.sol\":5621:5802  if (!condValid(operator, _toCheck, value)) {... */\n    tag_298:\n        /* \"Vendor.sol\":5442:5812  {... */\n      pop\n      pop\n      pop\n        /* \"Vendor.sol\":5437:5440  i++ */\n      dup1\n      dup1\n      tag_303\n      swap1\n      tag_179\n      jump\t// in\n    tag_303:\n      swap2\n      pop\n      pop\n        /* \"Vendor.sol\":5393:5812  for (uint i = 0; i < conditionArray.length; i++) {... */\n      jump(tag_285)\n    tag_286:\n      pop\n        /* \"Vendor.sol\":5833:5837  true */\n      0x01\n        /* \"Vendor.sol\":5821:5830  satisfied */\n      0x09\n      0x01\n        /* \"Vendor.sol\":5821:5837  satisfied = true */\n      0x0100\n      exp\n      dup2\n      sload\n      dup2\n      0xff\n      mul\n      not\n      and\n      swap1\n      dup4\n      iszero\n      iszero\n      mul\n      or\n      swap1\n      sstore\n      pop\n        /* \"Vendor.sol\":5858:5868  msg.sender */\n      caller\n        /* \"Vendor.sol\":5852:5900  State(msg.sender, satisfied, \"Sending payment.\") */\n      0xffffffffffffffffffffffffffffffffffffffff\n      and\n      0xa84226bf2d14bde3fac454f52eaeab63aaeb1934da88f9263dd4ff7dd12acf71\n        /* \"Vendor.sol\":5870:5879  satisfied */\n      0x09\n      0x01\n      swap1\n      sload\n      swap1\n      0x0100\n      exp\n      swap1\n      div\n      0xff\n      and\n        /* \"Vendor.sol\":5852:5900  State(msg.sender, satisfied, \"Sending payment.\") */\n      mload(0x40)\n      tag_304\n      swap2\n      swap1\n      tag_305\n      jump\t// in\n    tag_304:\n      mload(0x40)\n      dup1\n      swap2\n      sub\n      swap1\n      log2\n        /* \"Vendor.sol\":5958:5969  payVendor() */\n      tag_306\n        /* \"Vendor.sol\":5958:5967  payVendor */\n      tag_307\n        /* \"Vendor.sol\":5958:5969  payVendor() */\n      jump\t// in\n    tag_306:\n        /* \"Vendor.sol\":8106:8107  _ */\n    tag_284:\n        /* \"Vendor.sol\":5329:5976  function isSatisfied() private atStage(Stages.Active) {... */\n      pop\n      jump\t// out\n        /* \"Vendor.sol\":2452:2716  function calcDate(uint _billingDate) private view returns (uint) {... */\n    tag_234:\n        /* \"Vendor.sol\":2511:2515  uint */\n      0x00\n        /* \"Vendor.sol\":2527:2545  uint blockInterval */\n      dup1\n        /* \"Vendor.sol\":2581:2593  blocksSecond */\n      sload(0x0c)\n        /* \"Vendor.sol\":2564:2579  block.timestamp */\n      timestamp\n        /* \"Vendor.sol\":2549:2561  _billingDate */\n      dup5\n        /* \"Vendor.sol\":2549:2579  _billingDate - block.timestamp */\n      tag_309\n      swap2\n      swap1\n      tag_310\n      jump\t// in\n    tag_309:\n        /* \"Vendor.sol\":2548:2593  (_billingDate - block.timestamp)/blocksSecond */\n      tag_311\n      swap2\n      swap1\n      tag_312\n      jump\t// in\n    tag_311:\n        /* \"Vendor.sol\":2527:2593  uint blockInterval = (_billingDate - block.timestamp)/blocksSecond */\n      swap1\n      pop\n        /* \"Vendor.sol\":2696:2709  blockInterval */\n      dup1\n        /* \"Vendor.sol\":2681:2693  block.number */\n      number\n        /* \"Vendor.sol\":2681:2709  block.number + blockInterval */\n      tag_313\n      swap2\n      swap1\n      tag_237\n      jump\t// in\n    tag_313:\n        /* \"Vendor.sol\":2674:2709  return block.number + blockInterval */\n      swap2\n      pop\n      pop\n        /* \"Vendor.sol\":2452:2716  function calcDate(uint _billingDate) private view returns (uint) {... */\n      swap2\n      swap1\n      pop\n      jump\t// out\n        /* \"Vendor.sol\":2173:2385  function initOperators() private {... */\n    tag_239:\n        /* \"Vendor.sol\":2233:2234  1 */\n      0x01\n        /* \"Vendor.sol\":2216:2225  operators */\n      0x0b\n        /* \"Vendor.sol\":2216:2230  operators['>'] */\n      mload(0x40)\n      tag_315\n      swap1\n      tag_316\n      jump\t// in\n    tag_315:\n      swap1\n      dup2\n      mstore\n      0x20\n      add\n      mload(0x40)\n      dup1\n      swap2\n      sub\n      swap1\n      keccak256\n        /* \"Vendor.sol\":2216:2234  operators['>'] = 1 */\n      dup2\n      swap1\n      sstore\n      pop\n        /* \"Vendor.sol\":2262:2263  2 */\n      0x02\n        /* \"Vendor.sol\":2244:2253  operators */\n      0x0b\n        /* \"Vendor.sol\":2244:2259  operators['=='] */\n      mload(0x40)\n      tag_317\n      swap1\n      tag_318\n      jump\t// in\n    tag_317:\n      swap1\n      dup2\n      mstore\n      0x20\n      add\n      mload(0x40)\n      dup1\n      swap2\n      sub\n      swap1\n      keccak256\n        /* \"Vendor.sol\":2244:2263  operators['=='] = 2 */\n      dup2\n      swap1\n      sstore\n      pop\n        /* \"Vendor.sol\":2291:2292  3 */\n      0x03\n        /* \"Vendor.sol\":2273:2282  operators */\n      0x0b\n        /* \"Vendor.sol\":2273:2288  operators['=>'] */\n      mload(0x40)\n      tag_319\n      swap1\n      tag_320\n      jump\t// in\n    tag_319:\n      swap1\n      dup2\n      mstore\n      0x20\n      add\n      mload(0x40)\n      dup1\n      swap2\n      sub\n      swap1\n      keccak256\n        /* \"Vendor.sol\":2273:2292  operators['=>'] = 3 */\n      dup2\n      swap1\n      sstore\n      pop\n        /* \"Vendor.sol\":2319:2320  4 */\n      0x04\n        /* \"Vendor.sol\":2302:2311  operators */\n      0x0b\n        /* \"Vendor.sol\":2302:2316  operators['<'] */\n      mload(0x40)\n      tag_321\n      swap1\n      tag_322\n      jump\t// in\n    tag_321:\n      swap1\n      dup2\n      mstore\n      0x20\n      add\n      mload(0x40)\n      dup1\n      swap2\n      sub\n      swap1\n      keccak256\n        /* \"Vendor.sol\":2302:2320  operators['<'] = 4 */\n      dup2\n      swap1\n      sstore\n      pop\n        /* \"Vendor.sol\":2348:2349  5 */\n      0x05\n        /* \"Vendor.sol\":2330:2339  operators */\n      0x0b\n        /* \"Vendor.sol\":2330:2345  operators['!='] */\n      mload(0x40)\n      tag_323\n      swap1\n      tag_324\n      jump\t// in\n    tag_323:\n      swap1\n      dup2\n      mstore\n      0x20\n      add\n      mload(0x40)\n      dup1\n      swap2\n      sub\n      swap1\n      keccak256\n        /* \"Vendor.sol\":2330:2349  operators['!='] = 5 */\n      dup2\n      swap1\n      sstore\n      pop\n        /* \"Vendor.sol\":2377:2378  6 */\n      0x06\n        /* \"Vendor.sol\":2359:2368  operators */\n      0x0b\n        /* \"Vendor.sol\":2359:2374  operators['<='] */\n      mload(0x40)\n      tag_325\n      swap1\n      tag_326\n      jump\t// in\n    tag_325:\n      swap1\n      dup2\n      mstore\n      0x20\n      add\n      mload(0x40)\n      dup1\n      swap2\n      sub\n      swap1\n      keccak256\n        /* \"Vendor.sol\":2359:2378  operators['<='] = 6 */\n      dup2\n      swap1\n      sstore\n      pop\n        /* \"Vendor.sol\":2173:2385  function initOperators() private {... */\n      jump\t// out\n        /* \"Vendor.sol\":6123:6716  function condValid(int operator, int _toCheck, int value) private pure returns (bool) {... */\n    tag_297:\n        /* \"Vendor.sol\":6203:6207  bool */\n      0x00\n        /* \"Vendor.sol\":6235:6237  -1 */\n      0xffffffffffffffffffffffffffffffffffffffffffffffffffffffffffffffff\n        /* \"Vendor.sol\":6223:6231  operator */\n      dup5\n        /* \"Vendor.sol\":6223:6237  operator != -1 */\n      eq\n        /* \"Vendor.sol\":6219:6689  if (operator != -1) {... */\n      tag_328\n      jumpi\n        /* \"Vendor.sol\":6273:6274  1 */\n      0x01\n        /* \"Vendor.sol\":6268:6269  1 */\n      dup1\n        /* \"Vendor.sol\":6257:6265  operator */\n      dup6\n        /* \"Vendor.sol\":6257:6269  operator & 1 */\n      and\n        /* \"Vendor.sol\":6257:6274  operator & 1 == 1 */\n      eq\n        /* \"Vendor.sol\":6253:6386  if (operator & 1 == 1) {... */\n      iszero\n      tag_329\n      jumpi\n        /* \"Vendor.sol\":6311:6316  value */\n      dup2\n        /* \"Vendor.sol\":6300:6308  _toCheck */\n      dup4\n        /* \"Vendor.sol\":6300:6316  _toCheck > value */\n      sgt\n        /* \"Vendor.sol\":6294:6372  if (!(_toCheck > value)) {... */\n      tag_330\n      jumpi\n        /* \"Vendor.sol\":6348:6353  false */\n      0x00\n        /* \"Vendor.sol\":6341:6353  return false */\n      swap1\n      pop\n      jump(tag_327)\n        /* \"Vendor.sol\":6294:6372  if (!(_toCheck > value)) {... */\n    tag_330:\n        /* \"Vendor.sol\":6253:6386  if (operator & 1 == 1) {... */\n    tag_329:\n        /* \"Vendor.sol\":6419:6420  2 */\n      0x02\n        /* \"Vendor.sol\":6414:6415  2 */\n      dup1\n        /* \"Vendor.sol\":6403:6411  operator */\n      dup6\n        /* \"Vendor.sol\":6403:6415  operator & 2 */\n      and\n        /* \"Vendor.sol\":6403:6420  operator & 2 == 2 */\n      eq\n        /* \"Vendor.sol\":6399:6533  if (operator & 2 == 2) {... */\n      iszero\n      tag_331\n      jumpi\n        /* \"Vendor.sol\":6458:6463  value */\n      dup2\n        /* \"Vendor.sol\":6446:6454  _toCheck */\n      dup4\n        /* \"Vendor.sol\":6446:6463  _toCheck == value */\n      eq\n        /* \"Vendor.sol\":6440:6519  if (!(_toCheck == value)) {... */\n      tag_332\n      jumpi\n        /* \"Vendor.sol\":6495:6500  false */\n      0x00\n        /* \"Vendor.sol\":6488:6500  return false */\n      swap1\n      pop\n      jump(tag_327)\n        /* \"Vendor.sol\":6440:6519  if (!(_toCheck == value)) {... */\n    tag_332:\n        /* \"Vendor.sol\":6399:6533  if (operator & 2 == 2) {... */\n    tag_331:\n        /* \"Vendor.sol\":6566:6567  4 */\n      0x04\n        /* \"Vendor.sol\":6561:6562  4 */\n      dup1\n        /* \"Vendor.sol\":6550:6558  operator */\n      dup6\n        /* \"Vendor.sol\":6550:6562  operator & 4 */\n      and\n        /* \"Vendor.sol\":6550:6567  operator & 4 == 4 */\n      eq\n        /* \"Vendor.sol\":6546:6679  if (operator & 4 == 4) {... */\n      iszero\n      tag_333\n      jumpi\n        /* \"Vendor.sol\":6604:6609  value */\n      dup2\n        /* \"Vendor.sol\":6593:6601  _toCheck */\n      dup4\n        /* \"Vendor.sol\":6593:6609  _toCheck < value */\n      slt\n        /* \"Vendor.sol\":6587:6665  if (!(_toCheck < value)) {... */\n      tag_334\n      jumpi\n        /* \"Vendor.sol\":6641:6646  false */\n      0x00\n        /* \"Vendor.sol\":6634:6646  return false */\n      swap1\n      pop\n      jump(tag_327)\n        /* \"Vendor.sol\":6587:6665  if (!(_toCheck < value)) {... */\n    tag_334:\n        /* \"Vendor.sol\":6546:6679  if (operator & 4 == 4) {... */\n    tag_333:\n        /* \"Vendor.sol\":6219:6689  if (operator != -1) {... */\n    tag_328:\n        /* \"Vendor.sol\":6705:6709  true */\n      0x01\n        /* \"Vendor.sol\":6698:6709  return true */\n      swap1\n      pop\n        /* \"Vendor.sol\":6123:6716  function condValid(int operator, int _toCheck, int value) private pure returns (bool) {... */\n    tag_327:\n      swap4\n      swap3\n      pop\n      pop\n      pop\n      jump\t// out\n        /* \"Vendor.sol\":4507:4596  function refund() private {... */\n    tag_300:\n        /* \"Vendor.sol\":4543:4549  client */\n      0x01\n      0x00\n      swap1\n      sload\n      swap1\n      0x0100\n      exp\n      swap1\n      div\n      0xffffffffffffffffffffffffffffffffffffffff\n      and\n        /* \"Vendor.sol\":4543:4558  client.transfer */\n      0xffffffffffffffffffffffffffffffffffffffff\n      and\n        /* \"Vendor.sol\":4543:4566  client.transfer(amount) */\n      0x08fc\n        /* \"Vendor.sol\":4559:4565  amount */\n      sload(0x05)\n        /* \"Vendor.sol\":4543:4566  client.transfer(amount) */\n      swap1\n      dup2\n      iszero\n      mul\n      swap1\n      mload(0x40)\n      0x00\n      mload(0x40)\n      dup1\n      dup4\n      sub\n      dup2\n      dup6\n      dup9\n      dup9\n      call\n      swap4\n      pop\n      pop\n      pop\n      pop\n      iszero\n      dup1\n      iszero\n      tag_337\n      jumpi\n      returndatasize\n      0x00\n      dup1\n      returndatacopy\n      revert(0x00, returndatasize)\n    tag_337:\n      pop\n        /* \"Vendor.sol\":4576:4589  setNewDates() */\n      tag_338\n        /* \"Vendor.sol\":4576:4587  setNewDates */\n      tag_339\n        /* \"Vendor.sol\":4576:4589  setNewDates() */\n      jump\t// in\n    tag_338:\n        /* \"Vendor.sol\":4507:4596  function refund() private {... */\n      jump\t// out\n        /* \"Vendor.sol\":4406:4497  function payVendor() private {... */\n    tag_307:\n        /* \"Vendor.sol\":4445:4450  payee */\n      0x02\n      0x00\n      swap1\n      sload\n      swap1\n      0x0100\n      exp\n      swap1\n      div\n      0xffffffffffffffffffffffffffffffffffffffff\n      and\n        /* \"Vendor.sol\":4445:4459  payee.transfer */\n      0xffffffffffffffffffffffffffffffffffffffff\n      and\n        /* \"Vendor.sol\":4445:4467  payee.transfer(amount) */\n      0x08fc\n        /* \"Vendor.sol\":4460:4466  amount */\n      sload(0x05)\n        /* \"Vendor.sol\":4445:4467  payee.transfer(amount) */\n      swap1\n      dup2\n      iszero\n      mul\n      swap1\n      mload(0x40)\n      0x00\n      mload(0x40)\n      dup1\n      dup4\n      sub\n      dup2\n      dup6\n      dup9\n      dup9\n      call\n      swap4\n      pop\n      pop\n      pop\n      pop\n      iszero\n      dup1\n      iszero\n      tag_342\n      jumpi\n      returndatasize\n      0x00\n      dup1\n      returndatacopy\n      revert(0x00, returndatasize)\n    tag_342:\n      pop\n        /* \"Vendor.sol\":4477:4490  setNewDates() */\n      tag_343\n        /* \"Vendor.sol\":4477:4488  setNewDates */\n      tag_339\n        /* \"Vendor.sol\":4477:4490  setNewDates() */\n      jump\t// in\n    tag_343:\n        /* \"Vendor.sol\":4406:4497  function payVendor() private {... */\n      jump\t// out\n        /* \"Vendor.sol\":4602:4786  function setNewDates() private checkExpiry() {... */\n    tag_339:\n        /* \"Vendor.sol\":7868:7878  expiryDate */\n      sload(0x04)\n        /* \"Vendor.sol\":7853:7865  block.number */\n      number\n        /* \"Vendor.sol\":7853:7878  block.number < expiryDate */\n      lt\n        /* \"Vendor.sol\":7849:7906  if (block.number < expiryDate) {... */\n      iszero\n      tag_345\n      jumpi\n        /* \"Vendor.sol\":4669:4674  false */\n      0x00\n        /* \"Vendor.sol\":4657:4666  satisfied */\n      0x09\n      0x01\n        /* \"Vendor.sol\":4657:4674  satisfied = false */\n      0x0100\n      exp\n      dup2\n      sload\n      dup2\n      0xff\n      mul\n      not\n      and\n      swap1\n      dup4\n      iszero\n      iszero\n      mul\n      or\n      swap1\n      sstore\n      pop\n        /* \"Vendor.sol\":4702:4717  nextBillingDate */\n      sload(0x07)\n        /* \"Vendor.sol\":4684:4699  prevBillingDate */\n      0x06\n        /* \"Vendor.sol\":4684:4717  prevBillingDate = nextBillingDate */\n      dup2\n      swap1\n      sstore\n      pop\n        /* \"Vendor.sol\":1047:1051  6400 */\n      0x1900\n        /* \"Vendor.sol\":4763:4765  30 */\n      0x1e\n        /* \"Vendor.sol\":4763:4779  30 * blocksDaily */\n      tag_347\n      swap2\n      swap1\n      tag_348\n      jump\t// in\n    tag_347:\n        /* \"Vendor.sol\":4745:4760  nextBillingDate */\n      sload(0x07)\n        /* \"Vendor.sol\":4745:4779  nextBillingDate + 30 * blocksDaily */\n      tag_349\n      swap2\n      swap1\n      tag_237\n      jump\t// in\n    tag_349:\n        /* \"Vendor.sol\":4727:4742  nextBillingDate */\n      0x07\n        /* \"Vendor.sol\":4727:4779  nextBillingDate = nextBillingDate + 30 * blocksDaily */\n      dup2\n      swap1\n      sstore\n      pop\n        /* \"Vendor.sol\":7849:7906  if (block.number < expiryDate) {... */\n    tag_345:\n        /* \"Vendor.sol\":7923:7937  Stages.Expired */\n      0x04\n        /* \"Vendor.sol\":7915:7920  stage */\n      0x09\n      0x00\n        /* \"Vendor.sol\":7915:7937  stage = Stages.Expired */\n      0x0100\n      exp\n      dup2\n      sload\n      dup2\n      0xff\n      mul\n      not\n      and\n      swap1\n      dup4\n      0x04\n      dup2\n      gt\n      iszero\n      tag_350\n      jumpi\n      tag_351\n      tag_133\n      jump\t// in\n    tag_351:\n    tag_350:\n      mul\n      or\n      swap1\n      sstore\n      pop\n        /* \"Vendor.sol\":4602:4786  function setNewDates() private checkExpiry() {... */\n      jump\t// out\n    tag_275:\n      dup3\n      dup1\n      sload\n      tag_352\n      swap1\n      tag_148\n      jump\t// in\n    tag_352:\n      swap1\n      0x00\n      mstore\n      keccak256(0x00, 0x20)\n      swap1\n      0x1f\n      add\n      0x20\n      swap1\n      div\n      dup2\n      add\n      swap3\n      dup3\n      tag_354\n      jumpi\n      0x00\n      dup6\n      sstore\n      jump(tag_353)\n    tag_354:\n      dup3\n      0x1f\n      lt\n      tag_355\n      jumpi\n      dup1\n      mload\n      not(0xff)\n      and\n      dup4\n      dup1\n      add\n      or\n      dup6\n      sstore\n      jump(tag_353)\n    tag_355:\n      dup3\n      dup1\n      add\n      0x01\n      add\n      dup6\n      sstore\n      dup3\n      iszero\n      tag_353\n      jumpi\n      swap2\n      dup3\n      add\n    tag_356:\n      dup3\n      dup2\n      gt\n      iszero\n      tag_357\n      jumpi\n      dup3\n      mload\n      dup3\n      sstore\n      swap2\n      0x20\n      add\n      swap2\n      swap1\n      0x01\n      add\n      swap1\n      jump(tag_356)\n    tag_357:\n    tag_353:\n      pop\n      swap1\n      pop\n      tag_358\n      swap2\n      swap1\n      tag_359\n      jump\t// in\n    tag_358:\n      pop\n      swap1\n      jump\t// out\n    tag_359:\n    tag_360:\n      dup1\n      dup3\n      gt\n      iszero\n      tag_361\n      jumpi\n      0x00\n      dup2\n      0x00\n      swap1\n      sstore\n      pop\n      0x01\n      add\n      jump(tag_360)\n    tag_361:\n      pop\n      swap1\n      jump\t// out\n        /* \"#utility.yul\":24:676   */\n    tag_363:\n        /* \"#utility.yul\":117:122   */\n      0x00\n        /* \"#utility.yul\":142:220   */\n      tag_365\n        /* \"#utility.yul\":158:219   */\n      tag_366\n        /* \"#utility.yul\":212:218   */\n      dup5\n        /* \"#utility.yul\":158:219   */\n      tag_367\n      jump\t// in\n    tag_366:\n        /* \"#utility.yul\":142:220   */\n      tag_368\n      jump\t// in\n    tag_365:\n        /* \"#utility.yul\":133:220   */\n      swap1\n      pop\n        /* \"#utility.yul\":240:245   */\n      dup1\n        /* \"#utility.yul\":266:272   */\n      dup3\n        /* \"#utility.yul\":316:319   */\n      dup6\n        /* \"#utility.yul\":308:312   */\n      0x20\n        /* \"#utility.yul\":300:306   */\n      dup7\n        /* \"#utility.yul\":296:313   */\n      mul\n        /* \"#utility.yul\":291:294   */\n      dup3\n        /* \"#utility.yul\":287:314   */\n      add\n        /* \"#utility.yul\":284:320   */\n      gt\n        /* \"#utility.yul\":281:283   */\n      iszero\n      tag_369\n      jumpi\n        /* \"#utility.yul\":335:414   */\n      tag_370\n      tag_371\n      jump\t// in\n    tag_370:\n        /* \"#utility.yul\":281:283   */\n    tag_369:\n        /* \"#utility.yul\":448:449   */\n      0x00\n        /* \"#utility.yul\":433:670   */\n    tag_372:\n        /* \"#utility.yul\":458:464   */\n      dup6\n        /* \"#utility.yul\":455:456   */\n      dup2\n        /* \"#utility.yul\":452:465   */\n      lt\n        /* \"#utility.yul\":433:670   */\n      iszero\n      tag_374\n      jumpi\n        /* \"#utility.yul\":526:529   */\n      dup2\n        /* \"#utility.yul\":555:591   */\n      tag_375\n        /* \"#utility.yul\":587:590   */\n      dup9\n        /* \"#utility.yul\":575:585   */\n      dup3\n        /* \"#utility.yul\":555:591   */\n      tag_376\n      jump\t// in\n    tag_375:\n        /* \"#utility.yul\":550:553   */\n      dup5\n        /* \"#utility.yul\":543:592   */\n      mstore\n        /* \"#utility.yul\":621:625   */\n      0x20\n        /* \"#utility.yul\":616:619   */\n      dup5\n        /* \"#utility.yul\":612:626   */\n      add\n        /* \"#utility.yul\":605:626   */\n      swap4\n      pop\n        /* \"#utility.yul\":655:659   */\n      0x20\n        /* \"#utility.yul\":650:653   */\n      dup4\n        /* \"#utility.yul\":646:660   */\n      add\n        /* \"#utility.yul\":639:660   */\n      swap3\n      pop\n        /* \"#utility.yul\":493:670   */\n      pop\n        /* \"#utility.yul\":480:481   */\n      0x01\n        /* \"#utility.yul\":477:478   */\n      dup2\n        /* \"#utility.yul\":473:482   */\n      add\n        /* \"#utility.yul\":468:482   */\n      swap1\n      pop\n        /* \"#utility.yul\":433:670   */\n      jump(tag_372)\n    tag_374:\n        /* \"#utility.yul\":437:451   */\n      pop\n        /* \"#utility.yul\":123:676   */\n      pop\n      pop\n      swap4\n      swap3\n      pop\n      pop\n      pop\n      jump\t// out\n        /* \"#utility.yul\":698:1417   */\n    tag_377:\n        /* \"#utility.yul\":793:798   */\n      0x00\n        /* \"#utility.yul\":818:898   */\n      tag_379\n        /* \"#utility.yul\":834:897   */\n      tag_380\n        /* \"#utility.yul\":890:896   */\n      dup5\n        /* \"#utility.yul\":834:897   */\n      tag_381\n      jump\t// in\n    tag_380:\n        /* \"#utility.yul\":818:898   */\n      tag_368\n      jump\t// in\n    tag_379:\n        /* \"#utility.yul\":809:898   */\n      swap1\n      pop\n        /* \"#utility.yul\":918:923   */\n      dup1\n        /* \"#utility.yul\":947:953   */\n      dup4\n        /* \"#utility.yul\":940:945   */\n      dup3\n        /* \"#utility.yul\":933:954   */\n      mstore\n        /* \"#utility.yul\":981:985   */\n      0x20\n        /* \"#utility.yul\":974:979   */\n      dup3\n        /* \"#utility.yul\":970:986   */\n      add\n        /* \"#utility.yul\":963:986   */\n      swap1\n      pop\n        /* \"#utility.yul\":1007:1013   */\n      dup3\n        /* \"#utility.yul\":1057:1060   */\n      dup6\n        /* \"#utility.yul\":1049:1053   */\n      0x20\n        /* \"#utility.yul\":1041:1047   */\n      dup7\n        /* \"#utility.yul\":1037:1054   */\n      mul\n        /* \"#utility.yul\":1032:1035   */\n      dup3\n        /* \"#utility.yul\":1028:1055   */\n      add\n        /* \"#utility.yul\":1025:1061   */\n      gt\n        /* \"#utility.yul\":1022:1024   */\n      iszero\n      tag_382\n      jumpi\n        /* \"#utility.yul\":1076:1155   */\n      tag_383\n      tag_371\n      jump\t// in\n    tag_383:\n        /* \"#utility.yul\":1022:1024   */\n    tag_382:\n        /* \"#utility.yul\":1189:1190   */\n      0x00\n        /* \"#utility.yul\":1174:1411   */\n    tag_384:\n        /* \"#utility.yul\":1199:1205   */\n      dup6\n        /* \"#utility.yul\":1196:1197   */\n      dup2\n        /* \"#utility.yul\":1193:1206   */\n      lt\n        /* \"#utility.yul\":1174:1411   */\n      iszero\n      tag_386\n      jumpi\n        /* \"#utility.yul\":1267:1270   */\n      dup2\n        /* \"#utility.yul\":1296:1332   */\n      tag_387\n        /* \"#utility.yul\":1328:1331   */\n      dup9\n        /* \"#utility.yul\":1316:1326   */\n      dup3\n        /* \"#utility.yul\":1296:1332   */\n      tag_376\n      jump\t// in\n    tag_387:\n        /* \"#utility.yul\":1291:1294   */\n      dup5\n        /* \"#utility.yul\":1284:1333   */\n      mstore\n        /* \"#utility.yul\":1362:1366   */\n      0x20\n        /* \"#utility.yul\":1357:1360   */\n      dup5\n        /* \"#utility.yul\":1353:1367   */\n      add\n        /* \"#utility.yul\":1346:1367   */\n      swap4\n      pop\n        /* \"#utility.yul\":1396:1400   */\n      0x20\n        /* \"#utility.yul\":1391:1394   */\n      dup4\n        /* \"#utility.yul\":1387:1401   */\n      add\n        /* \"#utility.yul\":1380:1401   */\n      swap3\n      pop\n        /* \"#utility.yul\":1234:1411   */\n      pop\n        /* \"#utility.yul\":1221:1222   */\n      0x01\n        /* \"#utility.yul\":1218:1219   */\n      dup2\n        /* \"#utility.yul\":1214:1223   */\n      add\n        /* \"#utility.yul\":1209:1223   */\n      swap1\n      pop\n        /* \"#utility.yul\":1174:1411   */\n      jump(tag_384)\n    tag_386:\n        /* \"#utility.yul\":1178:1192   */\n      pop\n        /* \"#utility.yul\":799:1417   */\n      pop\n      pop\n      swap4\n      swap3\n      pop\n      pop\n      pop\n      jump\t// out\n        /* \"#utility.yul\":1440:2330   */\n    tag_388:\n        /* \"#utility.yul\":1544:1549   */\n      0x00\n        /* \"#utility.yul\":1569:1658   */\n      tag_390\n        /* \"#utility.yul\":1585:1657   */\n      tag_391\n        /* \"#utility.yul\":1650:1656   */\n      dup5\n        /* \"#utility.yul\":1585:1657   */\n      tag_392\n      jump\t// in\n    tag_391:\n        /* \"#utility.yul\":1569:1658   */\n      tag_368\n      jump\t// in\n    tag_390:\n        /* \"#utility.yul\":1560:1658   */\n      swap1\n      pop\n        /* \"#utility.yul\":1678:1683   */\n      dup1\n        /* \"#utility.yul\":1704:1710   */\n      dup3\n        /* \"#utility.yul\":1754:1757   */\n      dup6\n        /* \"#utility.yul\":1746:1750   */\n      0x20\n        /* \"#utility.yul\":1738:1744   */\n      dup7\n        /* \"#utility.yul\":1734:1751   */\n      mul\n        /* \"#utility.yul\":1729:1732   */\n      dup3\n        /* \"#utility.yul\":1725:1752   */\n      add\n        /* \"#utility.yul\":1722:1758   */\n      gt\n        /* \"#utility.yul\":1719:1721   */\n      iszero\n      tag_393\n      jumpi\n        /* \"#utility.yul\":1773:1852   */\n      tag_394\n      tag_371\n      jump\t// in\n    tag_394:\n        /* \"#utility.yul\":1719:1721   */\n    tag_393:\n        /* \"#utility.yul\":1886:1887   */\n      0x00\n        /* \"#utility.yul\":1871:2324   */\n    tag_395:\n        /* \"#utility.yul\":1896:1902   */\n      dup6\n        /* \"#utility.yul\":1893:1894   */\n      dup2\n        /* \"#utility.yul\":1890:1903   */\n      lt\n        /* \"#utility.yul\":1871:2324   */\n      iszero\n      tag_397\n      jumpi\n        /* \"#utility.yul\":1978:1981   */\n      dup2\n        /* \"#utility.yul\":1965:1982   */\n      calldataload\n        /* \"#utility.yul\":2014:2032   */\n      0xffffffffffffffff\n        /* \"#utility.yul\":2001:2012   */\n      dup2\n        /* \"#utility.yul\":1998:2033   */\n      gt\n        /* \"#utility.yul\":1995:1997   */\n      iszero\n      tag_398\n      jumpi\n        /* \"#utility.yul\":2036:2115   */\n      tag_399\n      tag_400\n      jump\t// in\n    tag_399:\n        /* \"#utility.yul\":1995:1997   */\n    tag_398:\n        /* \"#utility.yul\":2160:2171   */\n      dup1\n        /* \"#utility.yul\":2152:2158   */\n      dup7\n        /* \"#utility.yul\":2148:2172   */\n      add\n        /* \"#utility.yul\":2198:2245   */\n      tag_401\n        /* \"#utility.yul\":2241:2244   */\n      dup10\n        /* \"#utility.yul\":2229:2239   */\n      dup3\n        /* \"#utility.yul\":2198:2245   */\n      tag_402\n      jump\t// in\n    tag_401:\n        /* \"#utility.yul\":2193:2196   */\n      dup6\n        /* \"#utility.yul\":2186:2246   */\n      mstore\n        /* \"#utility.yul\":2275:2279   */\n      0x20\n        /* \"#utility.yul\":2270:2273   */\n      dup6\n        /* \"#utility.yul\":2266:2280   */\n      add\n        /* \"#utility.yul\":2259:2280   */\n      swap5\n      pop\n        /* \"#utility.yul\":2309:2313   */\n      0x20\n        /* \"#utility.yul\":2304:2307   */\n      dup5\n        /* \"#utility.yul\":2300:2314   */\n      add\n        /* \"#utility.yul\":2293:2314   */\n      swap4\n      pop\n        /* \"#utility.yul\":1931:2324   */\n      pop\n      pop\n        /* \"#utility.yul\":1918:1919   */\n      0x01\n        /* \"#utility.yul\":1915:1916   */\n      dup2\n        /* \"#utility.yul\":1911:1920   */\n      add\n        /* \"#utility.yul\":1906:1920   */\n      swap1\n      pop\n        /* \"#utility.yul\":1871:2324   */\n      jump(tag_395)\n    tag_397:\n        /* \"#utility.yul\":1875:1889   */\n      pop\n        /* \"#utility.yul\":1550:2330   */\n      pop\n      pop\n      swap4\n      swap3\n      pop\n      pop\n      pop\n      jump\t// out\n        /* \"#utility.yul\":2336:2748   */\n    tag_403:\n        /* \"#utility.yul\":2414:2419   */\n      0x00\n        /* \"#utility.yul\":2439:2505   */\n      tag_405\n        /* \"#utility.yul\":2455:2504   */\n      tag_406\n        /* \"#utility.yul\":2497:2503   */\n      dup5\n        /* \"#utility.yul\":2455:2504   */\n      tag_407\n      jump\t// in\n    tag_406:\n        /* \"#utility.yul\":2439:2505   */\n      tag_368\n      jump\t// in\n    tag_405:\n        /* \"#utility.yul\":2430:2505   */\n      swap1\n      pop\n        /* \"#utility.yul\":2528:2534   */\n      dup3\n        /* \"#utility.yul\":2521:2526   */\n      dup2\n        /* \"#utility.yul\":2514:2535   */\n      mstore\n        /* \"#utility.yul\":2566:2570   */\n      0x20\n        /* \"#utility.yul\":2559:2564   */\n      dup2\n        /* \"#utility.yul\":2555:2571   */\n      add\n        /* \"#utility.yul\":2604:2607   */\n      dup5\n        /* \"#utility.yul\":2595:2601   */\n      dup5\n        /* \"#utility.yul\":2590:2593   */\n      dup5\n        /* \"#utility.yul\":2586:2602   */\n      add\n        /* \"#utility.yul\":2583:2608   */\n      gt\n        /* \"#utility.yul\":2580:2582   */\n      iszero\n      tag_408\n      jumpi\n        /* \"#utility.yul\":2611:2690   */\n      tag_409\n      tag_410\n      jump\t// in\n    tag_409:\n        /* \"#utility.yul\":2580:2582   */\n    tag_408:\n        /* \"#utility.yul\":2701:2742   */\n      tag_411\n        /* \"#utility.yul\":2735:2741   */\n      dup5\n        /* \"#utility.yul\":2730:2733   */\n      dup3\n        /* \"#utility.yul\":2725:2728   */\n      dup6\n        /* \"#utility.yul\":2701:2742   */\n      tag_412\n      jump\t// in\n    tag_411:\n        /* \"#utility.yul\":2420:2748   */\n      pop\n      swap4\n      swap3\n      pop\n      pop\n      pop\n      jump\t// out\n        /* \"#utility.yul\":2754:2893   */\n    tag_413:\n        /* \"#utility.yul\":2800:2805   */\n      0x00\n        /* \"#utility.yul\":2838:2844   */\n      dup2\n        /* \"#utility.yul\":2825:2845   */\n      calldataload\n        /* \"#utility.yul\":2816:2845   */\n      swap1\n      pop\n        /* \"#utility.yul\":2854:2887   */\n      tag_415\n        /* \"#utility.yul\":2881:2886   */\n      dup2\n        /* \"#utility.yul\":2854:2887   */\n      tag_416\n      jump\t// in\n    tag_415:\n        /* \"#utility.yul\":2806:2893   */\n      swap3\n      swap2\n      pop\n      pop\n      jump\t// out\n        /* \"#utility.yul\":2916:3253   */\n    tag_417:\n        /* \"#utility.yul\":2984:2989   */\n      0x00\n        /* \"#utility.yul\":3033:3036   */\n      dup3\n        /* \"#utility.yul\":3026:3030   */\n      0x1f\n        /* \"#utility.yul\":3018:3024   */\n      dup4\n        /* \"#utility.yul\":3014:3031   */\n      add\n        /* \"#utility.yul\":3010:3037   */\n      slt\n        /* \"#utility.yul\":3000:3002   */\n      tag_419\n      jumpi\n        /* \"#utility.yul\":3041:3120   */\n      tag_420\n      tag_400\n      jump\t// in\n    tag_420:\n        /* \"#utility.yul\":3000:3002   */\n    tag_419:\n        /* \"#utility.yul\":3145:3149   */\n      0x08\n        /* \"#utility.yul\":3167:3247   */\n      tag_421\n        /* \"#utility.yul\":3243:3246   */\n      dup5\n        /* \"#utility.yul\":3235:3241   */\n      dup3\n        /* \"#utility.yul\":3227:3233   */\n      dup6\n        /* \"#utility.yul\":3167:3247   */\n      tag_363\n      jump\t// in\n    tag_421:\n        /* \"#utility.yul\":3158:3247   */\n      swap2\n      pop\n        /* \"#utility.yul\":2990:3253   */\n      pop\n      swap3\n      swap2\n      pop\n      pop\n      jump\t// out\n        /* \"#utility.yul\":3275:3643   */\n    tag_422:\n        /* \"#utility.yul\":3345:3350   */\n      0x00\n        /* \"#utility.yul\":3394:3397   */\n      dup3\n        /* \"#utility.yul\":3387:3391   */\n      0x1f\n        /* \"#utility.yul\":3379:3385   */\n      dup4\n        /* \"#utility.yul\":3375:3392   */\n      add\n        /* \"#utility.yul\":3371:3398   */\n      slt\n        /* \"#utility.yul\":3361:3363   */\n      tag_424\n      jumpi\n        /* \"#utility.yul\":3402:3481   */\n      tag_425\n      tag_400\n      jump\t// in\n    tag_425:\n        /* \"#utility.yul\":3361:3363   */\n    tag_424:\n        /* \"#utility.yul\":3519:3525   */\n      dup2\n        /* \"#utility.yul\":3506:3526   */\n      calldataload\n        /* \"#utility.yul\":3544:3637   */\n      tag_426\n        /* \"#utility.yul\":3633:3636   */\n      dup5\n        /* \"#utility.yul\":3625:3631   */\n      dup3\n        /* \"#utility.yul\":3618:3622   */\n      0x20\n        /* \"#utility.yul\":3610:3616   */\n      dup7\n        /* \"#utility.yul\":3606:3623   */\n      add\n        /* \"#utility.yul\":3544:3637   */\n      tag_377\n      jump\t// in\n    tag_426:\n        /* \"#utility.yul\":3535:3637   */\n      swap2\n      pop\n        /* \"#utility.yul\":3351:3643   */\n      pop\n      swap3\n      swap2\n      pop\n      pop\n      jump\t// out\n        /* \"#utility.yul\":3666:4025   */\n    tag_427:\n        /* \"#utility.yul\":3745:3750   */\n      0x00\n        /* \"#utility.yul\":3794:3797   */\n      dup3\n        /* \"#utility.yul\":3787:3791   */\n      0x1f\n        /* \"#utility.yul\":3779:3785   */\n      dup4\n        /* \"#utility.yul\":3775:3792   */\n      add\n        /* \"#utility.yul\":3771:3798   */\n      slt\n        /* \"#utility.yul\":3761:3763   */\n      tag_429\n      jumpi\n        /* \"#utility.yul\":3802:3881   */\n      tag_430\n      tag_400\n      jump\t// in\n    tag_430:\n        /* \"#utility.yul\":3761:3763   */\n    tag_429:\n        /* \"#utility.yul\":3906:3910   */\n      0x08\n        /* \"#utility.yul\":3928:4019   */\n      tag_431\n        /* \"#utility.yul\":4015:4018   */\n      dup5\n        /* \"#utility.yul\":4007:4013   */\n      dup3\n        /* \"#utility.yul\":3999:4005   */\n      dup6\n        /* \"#utility.yul\":3928:4019   */\n      tag_388\n      jump\t// in\n    tag_431:\n        /* \"#utility.yul\":3919:4019   */\n      swap2\n      pop\n        /* \"#utility.yul\":3751:4025   */\n      pop\n      swap3\n      swap2\n      pop\n      pop\n      jump\t// out\n        /* \"#utility.yul\":4031:4168   */\n    tag_376:\n        /* \"#utility.yul\":4076:4081   */\n      0x00\n        /* \"#utility.yul\":4114:4120   */\n      dup2\n        /* \"#utility.yul\":4101:4121   */\n      calldataload\n        /* \"#utility.yul\":4092:4121   */\n      swap1\n      pop\n        /* \"#utility.yul\":4130:4162   */\n      tag_433\n        /* \"#utility.yul\":4156:4161   */\n      dup2\n        /* \"#utility.yul\":4130:4162   */\n      tag_434\n      jump\t// in\n    tag_433:\n        /* \"#utility.yul\":4082:4168   */\n      swap3\n      swap2\n      pop\n      pop\n      jump\t// out\n        /* \"#utility.yul\":4188:4528   */\n    tag_402:\n        /* \"#utility.yul\":4244:4249   */\n      0x00\n        /* \"#utility.yul\":4293:4296   */\n      dup3\n        /* \"#utility.yul\":4286:4290   */\n      0x1f\n        /* \"#utility.yul\":4278:4284   */\n      dup4\n        /* \"#utility.yul\":4274:4291   */\n      add\n        /* \"#utility.yul\":4270:4297   */\n      slt\n        /* \"#utility.yul\":4260:4262   */\n      tag_436\n      jumpi\n        /* \"#utility.yul\":4301:4380   */\n      tag_437\n      tag_400\n      jump\t// in\n    tag_437:\n        /* \"#utility.yul\":4260:4262   */\n    tag_436:\n        /* \"#utility.yul\":4418:4424   */\n      dup2\n        /* \"#utility.yul\":4405:4425   */\n      calldataload\n        /* \"#utility.yul\":4443:4522   */\n      tag_438\n        /* \"#utility.yul\":4518:4521   */\n      dup5\n        /* \"#utility.yul\":4510:4516   */\n      dup3\n        /* \"#utility.yul\":4503:4507   */\n      0x20\n        /* \"#utility.yul\":4495:4501   */\n      dup7\n        /* \"#utility.yul\":4491:4508   */\n      add\n        /* \"#utility.yul\":4443:4522   */\n      tag_403\n      jump\t// in\n    tag_438:\n        /* \"#utility.yul\":4434:4522   */\n      swap2\n      pop\n        /* \"#utility.yul\":4250:4528   */\n      pop\n      swap3\n      swap2\n      pop\n      pop\n      jump\t// out\n        /* \"#utility.yul\":4534:4673   */\n    tag_439:\n        /* \"#utility.yul\":4580:4585   */\n      0x00\n        /* \"#utility.yul\":4618:4624   */\n      dup2\n        /* \"#utility.yul\":4605:4625   */\n      calldataload\n        /* \"#utility.yul\":4596:4625   */\n      swap1\n      pop\n        /* \"#utility.yul\":4634:4667   */\n      tag_441\n        /* \"#utility.yul\":4661:4666   */\n      dup2\n        /* \"#utility.yul\":4634:4667   */\n      tag_442\n      jump\t// in\n    tag_441:\n        /* \"#utility.yul\":4586:4673   */\n      swap3\n      swap2\n      pop\n      pop\n      jump\t// out\n        /* \"#utility.yul\":4679:5008   */\n    tag_66:\n        /* \"#utility.yul\":4738:4744   */\n      0x00\n        /* \"#utility.yul\":4787:4789   */\n      0x20\n        /* \"#utility.yul\":4775:4784   */\n      dup3\n        /* \"#utility.yul\":4766:4773   */\n      dup5\n        /* \"#utility.yul\":4762:4785   */\n      sub\n        /* \"#utility.yul\":4758:4790   */\n      slt\n        /* \"#utility.yul\":4755:4757   */\n      iszero\n      tag_444\n      jumpi\n        /* \"#utility.yul\":4793:4872   */\n      tag_445\n      tag_446\n      jump\t// in\n    tag_445:\n        /* \"#utility.yul\":4755:4757   */\n    tag_444:\n        /* \"#utility.yul\":4913:4914   */\n      0x00\n        /* \"#utility.yul\":4938:4991   */\n      tag_447\n        /* \"#utility.yul\":4983:4990   */\n      dup5\n        /* \"#utility.yul\":4974:4980   */\n      dup3\n        /* \"#utility.yul\":4963:4972   */\n      dup6\n        /* \"#utility.yul\":4959:4981   */\n      add\n        /* \"#utility.yul\":4938:4991   */\n      tag_413\n      jump\t// in\n    tag_447:\n        /* \"#utility.yul\":4928:4991   */\n      swap2\n      pop\n        /* \"#utility.yul\":4884:5001   */\n      pop\n        /* \"#utility.yul\":4745:5008   */\n      swap3\n      swap2\n      pop\n      pop\n      jump\t// out\n        /* \"#utility.yul\":5014:5925   */\n    tag_102:\n        /* \"#utility.yul\":5109:5115   */\n      0x00\n        /* \"#utility.yul\":5117:5123   */\n      dup1\n        /* \"#utility.yul\":5125:5131   */\n      0x00\n        /* \"#utility.yul\":5133:5139   */\n      dup1\n        /* \"#utility.yul\":5141:5147   */\n      0x00\n        /* \"#utility.yul\":5190:5193   */\n      0xa0\n        /* \"#utility.yul\":5178:5187   */\n      dup7\n        /* \"#utility.yul\":5169:5176   */\n      dup9\n        /* \"#utility.yul\":5165:5188   */\n      sub\n        /* \"#utility.yul\":5161:5194   */\n      slt\n        /* \"#utility.yul\":5158:5160   */\n      iszero\n      tag_449\n      jumpi\n        /* \"#utility.yul\":5197:5276   */\n      tag_450\n      tag_446\n      jump\t// in\n    tag_450:\n        /* \"#utility.yul\":5158:5160   */\n    tag_449:\n        /* \"#utility.yul\":5317:5318   */\n      0x00\n        /* \"#utility.yul\":5342:5395   */\n      tag_451\n        /* \"#utility.yul\":5387:5394   */\n      dup9\n        /* \"#utility.yul\":5378:5384   */\n      dup3\n        /* \"#utility.yul\":5367:5376   */\n      dup10\n        /* \"#utility.yul\":5363:5385   */\n      add\n        /* \"#utility.yul\":5342:5395   */\n      tag_413\n      jump\t// in\n    tag_451:\n        /* \"#utility.yul\":5332:5395   */\n      swap6\n      pop\n        /* \"#utility.yul\":5288:5405   */\n      pop\n        /* \"#utility.yul\":5444:5446   */\n      0x20\n        /* \"#utility.yul\":5470:5523   */\n      tag_452\n        /* \"#utility.yul\":5515:5522   */\n      dup9\n        /* \"#utility.yul\":5506:5512   */\n      dup3\n        /* \"#utility.yul\":5495:5504   */\n      dup10\n        /* \"#utility.yul\":5491:5513   */\n      add\n        /* \"#utility.yul\":5470:5523   */\n      tag_439\n      jump\t// in\n    tag_452:\n        /* \"#utility.yul\":5460:5523   */\n      swap5\n      pop\n        /* \"#utility.yul\":5415:5533   */\n      pop\n        /* \"#utility.yul\":5572:5574   */\n      0x40\n        /* \"#utility.yul\":5598:5651   */\n      tag_453\n        /* \"#utility.yul\":5643:5650   */\n      dup9\n        /* \"#utility.yul\":5634:5640   */\n      dup3\n        /* \"#utility.yul\":5623:5632   */\n      dup10\n        /* \"#utility.yul\":5619:5641   */\n      add\n        /* \"#utility.yul\":5598:5651   */\n      tag_439\n      jump\t// in\n    tag_453:\n        /* \"#utility.yul\":5588:5651   */\n      swap4\n      pop\n        /* \"#utility.yul\":5543:5661   */\n      pop\n        /* \"#utility.yul\":5700:5702   */\n      0x60\n        /* \"#utility.yul\":5726:5779   */\n      tag_454\n        /* \"#utility.yul\":5771:5778   */\n      dup9\n        /* \"#utility.yul\":5762:5768   */\n      dup3\n        /* \"#utility.yul\":5751:5760   */\n      dup10\n        /* \"#utility.yul\":5747:5769   */\n      add\n        /* \"#utility.yul\":5726:5779   */\n      tag_439\n      jump\t// in\n    tag_454:\n        /* \"#utility.yul\":5716:5779   */\n      swap3\n      pop\n        /* \"#utility.yul\":5671:5789   */\n      pop\n        /* \"#utility.yul\":5828:5831   */\n      0x80\n        /* \"#utility.yul\":5855:5908   */\n      tag_455\n        /* \"#utility.yul\":5900:5907   */\n      dup9\n        /* \"#utility.yul\":5891:5897   */\n      dup3\n        /* \"#utility.yul\":5880:5889   */\n      dup10\n        /* \"#utility.yul\":5876:5898   */\n      add\n        /* \"#utility.yul\":5855:5908   */\n      tag_439\n      jump\t// in\n    tag_455:\n        /* \"#utility.yul\":5845:5908   */\n      swap2\n      pop\n        /* \"#utility.yul\":5799:5918   */\n      pop\n        /* \"#utility.yul\":5148:5925   */\n      swap3\n      swap6\n      pop\n      swap3\n      swap6\n      swap1\n      swap4\n      pop\n      jump\t// out\n        /* \"#utility.yul\":5931:6468   */\n    tag_52:\n        /* \"#utility.yul\":6014:6020   */\n      0x00\n        /* \"#utility.yul\":6063:6065   */\n      0x20\n        /* \"#utility.yul\":6051:6060   */\n      dup3\n        /* \"#utility.yul\":6042:6049   */\n      dup5\n        /* \"#utility.yul\":6038:6061   */\n      sub\n        /* \"#utility.yul\":6034:6066   */\n      slt\n        /* \"#utility.yul\":6031:6033   */\n      iszero\n      tag_457\n      jumpi\n        /* \"#utility.yul\":6069:6148   */\n      tag_458\n      tag_446\n      jump\t// in\n    tag_458:\n        /* \"#utility.yul\":6031:6033   */\n    tag_457:\n        /* \"#utility.yul\":6217:6218   */\n      0x00\n        /* \"#utility.yul\":6206:6215   */\n      dup3\n        /* \"#utility.yul\":6202:6219   */\n      add\n        /* \"#utility.yul\":6189:6220   */\n      calldataload\n        /* \"#utility.yul\":6247:6265   */\n      0xffffffffffffffff\n        /* \"#utility.yul\":6239:6245   */\n      dup2\n        /* \"#utility.yul\":6236:6266   */\n      gt\n        /* \"#utility.yul\":6233:6235   */\n      iszero\n      tag_459\n      jumpi\n        /* \"#utility.yul\":6269:6348   */\n      tag_460\n      tag_461\n      jump\t// in\n    tag_460:\n        /* \"#utility.yul\":6233:6235   */\n    tag_459:\n        /* \"#utility.yul\":6374:6451   */\n      tag_462\n        /* \"#utility.yul\":6443:6450   */\n      dup5\n        /* \"#utility.yul\":6434:6440   */\n      dup3\n        /* \"#utility.yul\":6423:6432   */\n      dup6\n        /* \"#utility.yul\":6419:6441   */\n      add\n        /* \"#utility.yul\":6374:6451   */\n      tag_422\n      jump\t// in\n    tag_462:\n        /* \"#utility.yul\":6364:6451   */\n      swap2\n      pop\n        /* \"#utility.yul\":6160:6461   */\n      pop\n        /* \"#utility.yul\":6021:6468   */\n      swap3\n      swap2\n      pop\n      pop\n      jump\t// out\n        /* \"#utility.yul\":6474:7591   */\n    tag_128:\n        /* \"#utility.yul\":6639:6645   */\n      0x00\n        /* \"#utility.yul\":6647:6653   */\n      dup1\n        /* \"#utility.yul\":6655:6661   */\n      0x00\n        /* \"#utility.yul\":6704:6707   */\n      0x0140\n        /* \"#utility.yul\":6692:6701   */\n      dup5\n        /* \"#utility.yul\":6683:6690   */\n      dup7\n        /* \"#utility.yul\":6679:6702   */\n      sub\n        /* \"#utility.yul\":6675:6708   */\n      slt\n        /* \"#utility.yul\":6672:6674   */\n      iszero\n      tag_464\n      jumpi\n        /* \"#utility.yul\":6711:6790   */\n      tag_465\n      tag_446\n      jump\t// in\n    tag_465:\n        /* \"#utility.yul\":6672:6674   */\n    tag_464:\n        /* \"#utility.yul\":6859:6860   */\n      0x00\n        /* \"#utility.yul\":6848:6857   */\n      dup5\n        /* \"#utility.yul\":6844:6861   */\n      add\n        /* \"#utility.yul\":6831:6862   */\n      calldataload\n        /* \"#utility.yul\":6889:6907   */\n      0xffffffffffffffff\n        /* \"#utility.yul\":6881:6887   */\n      dup2\n        /* \"#utility.yul\":6878:6908   */\n      gt\n        /* \"#utility.yul\":6875:6877   */\n      iszero\n      tag_466\n      jumpi\n        /* \"#utility.yul\":6911:6990   */\n      tag_467\n      tag_461\n      jump\t// in\n    tag_467:\n        /* \"#utility.yul\":6875:6877   */\n    tag_466:\n        /* \"#utility.yul\":7016:7102   */\n      tag_468\n        /* \"#utility.yul\":7094:7101   */\n      dup7\n        /* \"#utility.yul\":7085:7091   */\n      dup3\n        /* \"#utility.yul\":7074:7083   */\n      dup8\n        /* \"#utility.yul\":7070:7092   */\n      add\n        /* \"#utility.yul\":7016:7102   */\n      tag_427\n      jump\t// in\n    tag_468:\n        /* \"#utility.yul\":7006:7102   */\n      swap4\n      pop\n        /* \"#utility.yul\":6802:7112   */\n      pop\n        /* \"#utility.yul\":7151:7153   */\n      0x20\n        /* \"#utility.yul\":7177:7252   */\n      tag_469\n        /* \"#utility.yul\":7244:7251   */\n      dup7\n        /* \"#utility.yul\":7235:7241   */\n      dup3\n        /* \"#utility.yul\":7224:7233   */\n      dup8\n        /* \"#utility.yul\":7220:7242   */\n      add\n        /* \"#utility.yul\":7177:7252   */\n      tag_417\n      jump\t// in\n    tag_469:\n        /* \"#utility.yul\":7167:7252   */\n      swap3\n      pop\n        /* \"#utility.yul\":7122:7262   */\n      pop\n        /* \"#utility.yul\":7329:7332   */\n      0x0120\n        /* \"#utility.yul\":7318:7327   */\n      dup5\n        /* \"#utility.yul\":7314:7333   */\n      add\n        /* \"#utility.yul\":7301:7334   */\n      calldataload\n        /* \"#utility.yul\":7361:7379   */\n      0xffffffffffffffff\n        /* \"#utility.yul\":7353:7359   */\n      dup2\n        /* \"#utility.yul\":7350:7380   */\n      gt\n        /* \"#utility.yul\":7347:7349   */\n      iszero\n      tag_470\n      jumpi\n        /* \"#utility.yul\":7383:7462   */\n      tag_471\n      tag_461\n      jump\t// in\n    tag_471:\n        /* \"#utility.yul\":7347:7349   */\n    tag_470:\n        /* \"#utility.yul\":7488:7574   */\n      tag_472\n        /* \"#utility.yul\":7566:7573   */\n      dup7\n        /* \"#utility.yul\":7557:7563   */\n      dup3\n        /* \"#utility.yul\":7546:7555   */\n      dup8\n        /* \"#utility.yul\":7542:7564   */\n      add\n        /* \"#utility.yul\":7488:7574   */\n      tag_427\n      jump\t// in\n    tag_472:\n        /* \"#utility.yul\":7478:7574   */\n      swap2\n      pop\n        /* \"#utility.yul\":7272:7584   */\n      pop\n        /* \"#utility.yul\":6662:7591   */\n      swap3\n      pop\n      swap3\n      pop\n      swap3\n      jump\t// out\n        /* \"#utility.yul\":7597:7926   */\n    tag_45:\n        /* \"#utility.yul\":7656:7662   */\n      0x00\n        /* \"#utility.yul\":7705:7707   */\n      0x20\n        /* \"#utility.yul\":7693:7702   */\n      dup3\n        /* \"#utility.yul\":7684:7691   */\n      dup5\n        /* \"#utility.yul\":7680:7703   */\n      sub\n        /* \"#utility.yul\":7676:7708   */\n      slt\n        /* \"#utility.yul\":7673:7675   */\n      iszero\n      tag_474\n      jumpi\n        /* \"#utility.yul\":7711:7790   */\n      tag_475\n      tag_446\n      jump\t// in\n    tag_475:\n        /* \"#utility.yul\":7673:7675   */\n    tag_474:\n        /* \"#utility.yul\":7831:7832   */\n      0x00\n        /* \"#utility.yul\":7856:7909   */\n      tag_476\n        /* \"#utility.yul\":7901:7908   */\n      dup5\n        /* \"#utility.yul\":7892:7898   */\n      dup3\n        /* \"#utility.yul\":7881:7890   */\n      dup6\n        /* \"#utility.yul\":7877:7899   */\n      add\n        /* \"#utility.yul\":7856:7909   */\n      tag_439\n      jump\t// in\n    tag_476:\n        /* \"#utility.yul\":7846:7909   */\n      swap2\n      pop\n        /* \"#utility.yul\":7802:7919   */\n      pop\n        /* \"#utility.yul\":7663:7926   */\n      swap3\n      swap2\n      pop\n      pop\n      jump\t// out\n        /* \"#utility.yul\":7932:8074   */\n    tag_477:\n        /* \"#utility.yul\":8035:8067   */\n      tag_479\n        /* \"#utility.yul\":8061:8066   */\n      dup2\n        /* \"#utility.yul\":8035:8067   */\n      tag_480\n      jump\t// in\n    tag_479:\n        /* \"#utility.yul\":8030:8033   */\n      dup3\n        /* \"#utility.yul\":8023:8068   */\n      mstore\n        /* \"#utility.yul\":8013:8074   */\n      pop\n      pop\n      jump\t// out\n        /* \"#utility.yul\":8080:8198   */\n    tag_481:\n        /* \"#utility.yul\":8167:8191   */\n      tag_483\n        /* \"#utility.yul\":8185:8190   */\n      dup2\n        /* \"#utility.yul\":8167:8191   */\n      tag_484\n      jump\t// in\n    tag_483:\n        /* \"#utility.yul\":8162:8165   */\n      dup3\n        /* \"#utility.yul\":8155:8192   */\n      mstore\n        /* \"#utility.yul\":8145:8198   */\n      pop\n      pop\n      jump\t// out\n        /* \"#utility.yul\":8204:8313   */\n    tag_485:\n        /* \"#utility.yul\":8285:8306   */\n      tag_487\n        /* \"#utility.yul\":8300:8305   */\n      dup2\n        /* \"#utility.yul\":8285:8306   */\n      tag_488\n      jump\t// in\n    tag_487:\n        /* \"#utility.yul\":8280:8283   */\n      dup3\n        /* \"#utility.yul\":8273:8307   */\n      mstore\n        /* \"#utility.yul\":8263:8313   */\n      pop\n      pop\n      jump\t// out\n        /* \"#utility.yul\":8319:8464   */\n    tag_489:\n        /* \"#utility.yul\":8413:8457   */\n      tag_491\n        /* \"#utility.yul\":8451:8456   */\n      dup2\n        /* \"#utility.yul\":8413:8457   */\n      tag_492\n      jump\t// in\n    tag_491:\n        /* \"#utility.yul\":8408:8411   */\n      dup3\n        /* \"#utility.yul\":8401:8458   */\n      mstore\n        /* \"#utility.yul\":8391:8464   */\n      pop\n      pop\n      jump\t// out\n        /* \"#utility.yul\":8470:8585   */\n    tag_493:\n        /* \"#utility.yul\":8555:8578   */\n      tag_495\n        /* \"#utility.yul\":8572:8577   */\n      dup2\n        /* \"#utility.yul\":8555:8578   */\n      tag_496\n      jump\t// in\n    tag_495:\n        /* \"#utility.yul\":8550:8553   */\n      dup3\n        /* \"#utility.yul\":8543:8579   */\n      mstore\n        /* \"#utility.yul\":8533:8585   */\n      pop\n      pop\n      jump\t// out\n        /* \"#utility.yul\":8591:8955   */\n    tag_497:\n        /* \"#utility.yul\":8679:8682   */\n      0x00\n        /* \"#utility.yul\":8707:8746   */\n      tag_499\n        /* \"#utility.yul\":8740:8745   */\n      dup3\n        /* \"#utility.yul\":8707:8746   */\n      tag_500\n      jump\t// in\n    tag_499:\n        /* \"#utility.yul\":8762:8833   */\n      tag_501\n        /* \"#utility.yul\":8826:8832   */\n      dup2\n        /* \"#utility.yul\":8821:8824   */\n      dup6\n        /* \"#utility.yul\":8762:8833   */\n      tag_502\n      jump\t// in\n    tag_501:\n        /* \"#utility.yul\":8755:8833   */\n      swap4\n      pop\n        /* \"#utility.yul\":8842:8894   */\n      tag_503\n        /* \"#utility.yul\":8887:8893   */\n      dup2\n        /* \"#utility.yul\":8882:8885   */\n      dup6\n        /* \"#utility.yul\":8875:8879   */\n      0x20\n        /* \"#utility.yul\":8868:8873   */\n      dup7\n        /* \"#utility.yul\":8864:8880   */\n      add\n        /* \"#utility.yul\":8842:8894   */\n      tag_504\n      jump\t// in\n    tag_503:\n        /* \"#utility.yul\":8919:8948   */\n      tag_505\n        /* \"#utility.yul\":8941:8947   */\n      dup2\n        /* \"#utility.yul\":8919:8948   */\n      tag_506\n      jump\t// in\n    tag_505:\n        /* \"#utility.yul\":8914:8917   */\n      dup5\n        /* \"#utility.yul\":8910:8949   */\n      add\n        /* \"#utility.yul\":8903:8949   */\n      swap2\n      pop\n        /* \"#utility.yul\":8683:8955   */\n      pop\n      swap3\n      swap2\n      pop\n      pop\n      jump\t// out\n        /* \"#utility.yul\":8961:9338   */\n    tag_507:\n        /* \"#utility.yul\":9067:9070   */\n      0x00\n        /* \"#utility.yul\":9095:9134   */\n      tag_509\n        /* \"#utility.yul\":9128:9133   */\n      dup3\n        /* \"#utility.yul\":9095:9134   */\n      tag_500\n      jump\t// in\n    tag_509:\n        /* \"#utility.yul\":9150:9239   */\n      tag_510\n        /* \"#utility.yul\":9232:9238   */\n      dup2\n        /* \"#utility.yul\":9227:9230   */\n      dup6\n        /* \"#utility.yul\":9150:9239   */\n      tag_511\n      jump\t// in\n    tag_510:\n        /* \"#utility.yul\":9143:9239   */\n      swap4\n      pop\n        /* \"#utility.yul\":9248:9300   */\n      tag_512\n        /* \"#utility.yul\":9293:9299   */\n      dup2\n        /* \"#utility.yul\":9288:9291   */\n      dup6\n        /* \"#utility.yul\":9281:9285   */\n      0x20\n        /* \"#utility.yul\":9274:9279   */\n      dup7\n        /* \"#utility.yul\":9270:9286   */\n      add\n        /* \"#utility.yul\":9248:9300   */\n      tag_504\n      jump\t// in\n    tag_512:\n        /* \"#utility.yul\":9325:9331   */\n      dup1\n        /* \"#utility.yul\":9320:9323   */\n      dup5\n        /* \"#utility.yul\":9316:9332   */\n      add\n        /* \"#utility.yul\":9309:9332   */\n      swap2\n      pop\n        /* \"#utility.yul\":9071:9338   */\n      pop\n      swap3\n      swap2\n      pop\n      pop\n      jump\t// out\n        /* \"#utility.yul\":9344:9710   */\n    tag_513:\n        /* \"#utility.yul\":9486:9489   */\n      0x00\n        /* \"#utility.yul\":9507:9574   */\n      tag_515\n        /* \"#utility.yul\":9571:9573   */\n      0x36\n        /* \"#utility.yul\":9566:9569   */\n      dup4\n        /* \"#utility.yul\":9507:9574   */\n      tag_502\n      jump\t// in\n    tag_515:\n        /* \"#utility.yul\":9500:9574   */\n      swap2\n      pop\n        /* \"#utility.yul\":9583:9676   */\n      tag_516\n        /* \"#utility.yul\":9672:9675   */\n      dup3\n        /* \"#utility.yul\":9583:9676   */\n      tag_517\n      jump\t// in\n    tag_516:\n        /* \"#utility.yul\":9701:9703   */\n      0x40\n        /* \"#utility.yul\":9696:9699   */\n      dup3\n        /* \"#utility.yul\":9692:9704   */\n      add\n        /* \"#utility.yul\":9685:9704   */\n      swap1\n      pop\n        /* \"#utility.yul\":9490:9710   */\n      swap2\n      swap1\n      pop\n      jump\t// out\n        /* \"#utility.yul\":9716:10082   */\n    tag_518:\n        /* \"#utility.yul\":9858:9861   */\n      0x00\n        /* \"#utility.yul\":9879:9946   */\n      tag_520\n        /* \"#utility.yul\":9943:9945   */\n      0x12\n        /* \"#utility.yul\":9938:9941   */\n      dup4\n        /* \"#utility.yul\":9879:9946   */\n      tag_502\n      jump\t// in\n    tag_520:\n        /* \"#utility.yul\":9872:9946   */\n      swap2\n      pop\n        /* \"#utility.yul\":9955:10048   */\n      tag_521\n        /* \"#utility.yul\":10044:10047   */\n      dup3\n        /* \"#utility.yul\":9955:10048   */\n      tag_522\n      jump\t// in\n    tag_521:\n        /* \"#utility.yul\":10073:10075   */\n      0x20\n        /* \"#utility.yul\":10068:10071   */\n      dup3\n        /* \"#utility.yul\":10064:10076   */\n      add\n        /* \"#utility.yul\":10057:10076   */\n      swap1\n      pop\n        /* \"#utility.yul\":9862:10082   */\n      swap2\n      swap1\n      pop\n      jump\t// out\n        /* \"#utility.yul\":10088:10454   */\n    tag_523:\n        /* \"#utility.yul\":10230:10233   */\n      0x00\n        /* \"#utility.yul\":10251:10318   */\n      tag_525\n        /* \"#utility.yul\":10315:10317   */\n      0x10\n        /* \"#utility.yul\":10310:10313   */\n      dup4\n        /* \"#utility.yul\":10251:10318   */\n      tag_502\n      jump\t// in\n    tag_525:\n        /* \"#utility.yul\":10244:10318   */\n      swap2\n      pop\n        /* \"#utility.yul\":10327:10420   */\n      tag_526\n        /* \"#utility.yul\":10416:10419   */\n      dup3\n        /* \"#utility.yul\":10327:10420   */\n      tag_527\n      jump\t// in\n    tag_526:\n        /* \"#utility.yul\":10445:10447   */\n      0x20\n        /* \"#utility.yul\":10440:10443   */\n      dup3\n        /* \"#utility.yul\":10436:10448   */\n      add\n        /* \"#utility.yul\":10429:10448   */\n      swap1\n      pop\n        /* \"#utility.yul\":10234:10454   */\n      swap2\n      swap1\n      pop\n      jump\t// out\n        /* \"#utility.yul\":10460:10860   */\n    tag_528:\n        /* \"#utility.yul\":10620:10623   */\n      0x00\n        /* \"#utility.yul\":10641:10725   */\n      tag_530\n        /* \"#utility.yul\":10723:10724   */\n      0x02\n        /* \"#utility.yul\":10718:10721   */\n      dup4\n        /* \"#utility.yul\":10641:10725   */\n      tag_511\n      jump\t// in\n    tag_530:\n        /* \"#utility.yul\":10634:10725   */\n      swap2\n      pop\n        /* \"#utility.yul\":10734:10827   */\n      tag_531\n        /* \"#utility.yul\":10823:10826   */\n      dup3\n        /* \"#utility.yul\":10734:10827   */\n      tag_532\n      jump\t// in\n    tag_531:\n        /* \"#utility.yul\":10852:10853   */\n      0x02\n        /* \"#utility.yul\":10847:10850   */\n      dup3\n        /* \"#utility.yul\":10843:10854   */\n      add\n        /* \"#utility.yul\":10836:10854   */\n      swap1\n      pop\n        /* \"#utility.yul\":10624:10860   */\n      swap2\n      swap1\n      pop\n      jump\t// out\n        /* \"#utility.yul\":10866:11266   */\n    tag_533:\n        /* \"#utility.yul\":11026:11029   */\n      0x00\n        /* \"#utility.yul\":11047:11131   */\n      tag_535\n        /* \"#utility.yul\":11129:11130   */\n      0x01\n        /* \"#utility.yul\":11124:11127   */\n      dup4\n        /* \"#utility.yul\":11047:11131   */\n      tag_511\n      jump\t// in\n    tag_535:\n        /* \"#utility.yul\":11040:11131   */\n      swap2\n      pop\n        /* \"#utility.yul\":11140:11233   */\n      tag_536\n        /* \"#utility.yul\":11229:11232   */\n      dup3\n        /* \"#utility.yul\":11140:11233   */\n      tag_537\n      jump\t// in\n    tag_536:\n        /* \"#utility.yul\":11258:11259   */\n      0x01\n        /* \"#utility.yul\":11253:11256   */\n      dup3\n        /* \"#utility.yul\":11249:11260   */\n      add\n        /* \"#utility.yul\":11242:11260   */\n      swap1\n      pop\n        /* \"#utility.yul\":11030:11266   */\n      swap2\n      swap1\n      pop\n      jump\t// out\n        /* \"#utility.yul\":11272:11672   */\n    tag_538:\n        /* \"#utility.yul\":11432:11435   */\n      0x00\n        /* \"#utility.yul\":11453:11537   */\n      tag_540\n        /* \"#utility.yul\":11535:11536   */\n      0x02\n        /* \"#utility.yul\":11530:11533   */\n      dup4\n        /* \"#utility.yul\":11453:11537   */\n      tag_511\n      jump\t// in\n    tag_540:\n        /* \"#utility.yul\":11446:11537   */\n      swap2\n      pop\n        /* \"#utility.yul\":11546:11639   */\n      tag_541\n        /* \"#utility.yul\":11635:11638   */\n      dup3\n        /* \"#utility.yul\":11546:11639   */\n      tag_542\n      jump\t// in\n    tag_541:\n        /* \"#utility.yul\":11664:11665   */\n      0x02\n        /* \"#utility.yul\":11659:11662   */\n      dup3\n        /* \"#utility.yul\":11655:11666   */\n      add\n        /* \"#utility.yul\":11648:11666   */\n      swap1\n      pop\n        /* \"#utility.yul\":11436:11672   */\n      swap2\n      swap1\n      pop\n      jump\t// out\n        /* \"#utility.yul\":11678:12078   */\n    tag_543:\n        /* \"#utility.yul\":11838:11841   */\n      0x00\n        /* \"#utility.yul\":11859:11943   */\n      tag_545\n        /* \"#utility.yul\":11941:11942   */\n      0x02\n        /* \"#utility.yul\":11936:11939   */\n      dup4\n        /* \"#utility.yul\":11859:11943   */\n      tag_511\n      jump\t// in\n    tag_545:\n        /* \"#utility.yul\":11852:11943   */\n      swap2\n      pop\n        /* \"#utility.yul\":11952:12045   */\n      tag_546\n        /* \"#utility.yul\":12041:12044   */\n      dup3\n        /* \"#utility.yul\":11952:12045   */\n      tag_547\n      jump\t// in\n    tag_546:\n        /* \"#utility.yul\":12070:12071   */\n      0x02\n        /* \"#utility.yul\":12065:12068   */\n      dup3\n        /* \"#utility.yul\":12061:12072   */\n      add\n        /* \"#utility.yul\":12054:12072   */\n      swap1\n      pop\n        /* \"#utility.yul\":11842:12078   */\n      swap2\n      swap1\n      pop\n      jump\t// out\n        /* \"#utility.yul\":12084:12484   */\n    tag_548:\n        /* \"#utility.yul\":12244:12247   */\n      0x00\n        /* \"#utility.yul\":12265:12349   */\n      tag_550\n        /* \"#utility.yul\":12347:12348   */\n      0x02\n        /* \"#utility.yul\":12342:12345   */\n      dup4\n        /* \"#utility.yul\":12265:12349   */\n      tag_511\n      jump\t// in\n    tag_550:\n        /* \"#utility.yul\":12258:12349   */\n      swap2\n      pop\n        /* \"#utility.yul\":12358:12451   */\n      tag_551\n        /* \"#utility.yul\":12447:12450   */\n      dup3\n        /* \"#utility.yul\":12358:12451   */\n      tag_552\n      jump\t// in\n    tag_551:\n        /* \"#utility.yul\":12476:12477   */\n      0x02\n        /* \"#utility.yul\":12471:12474   */\n      dup3\n        /* \"#utility.yul\":12467:12478   */\n      add\n        /* \"#utility.yul\":12460:12478   */\n      swap1\n      pop\n        /* \"#utility.yul\":12248:12484   */\n      swap2\n      swap1\n      pop\n      jump\t// out\n        /* \"#utility.yul\":12490:12890   */\n    tag_553:\n        /* \"#utility.yul\":12650:12653   */\n      0x00\n        /* \"#utility.yul\":12671:12755   */\n      tag_555\n        /* \"#utility.yul\":12753:12754   */\n      0x01\n        /* \"#utility.yul\":12748:12751   */\n      dup4\n        /* \"#utility.yul\":12671:12755   */\n      tag_511\n      jump\t// in\n    tag_555:\n        /* \"#utility.yul\":12664:12755   */\n      swap2\n      pop\n        /* \"#utility.yul\":12764:12857   */\n      tag_556\n        /* \"#utility.yul\":12853:12856   */\n      dup3\n        /* \"#utility.yul\":12764:12857   */\n      tag_557\n      jump\t// in\n    tag_556:\n        /* \"#utility.yul\":12882:12883   */\n      0x01\n        /* \"#utility.yul\":12877:12880   */\n      dup3\n        /* \"#utility.yul\":12873:12884   */\n      add\n        /* \"#utility.yul\":12866:12884   */\n      swap1\n      pop\n        /* \"#utility.yul\":12654:12890   */\n      swap2\n      swap1\n      pop\n      jump\t// out\n        /* \"#utility.yul\":12896:13262   */\n    tag_558:\n        /* \"#utility.yul\":13038:13041   */\n      0x00\n        /* \"#utility.yul\":13059:13126   */\n      tag_560\n        /* \"#utility.yul\":13123:13125   */\n      0x1d\n        /* \"#utility.yul\":13118:13121   */\n      dup4\n        /* \"#utility.yul\":13059:13126   */\n      tag_502\n      jump\t// in\n    tag_560:\n        /* \"#utility.yul\":13052:13126   */\n      swap2\n      pop\n        /* \"#utility.yul\":13135:13228   */\n      tag_561\n        /* \"#utility.yul\":13224:13227   */\n      dup3\n        /* \"#utility.yul\":13135:13228   */\n      tag_562\n      jump\t// in\n    tag_561:\n        /* \"#utility.yul\":13253:13255   */\n      0x20\n        /* \"#utility.yul\":13248:13251   */\n      dup3\n        /* \"#utility.yul\":13244:13256   */\n      add\n        /* \"#utility.yul\":13237:13256   */\n      swap1\n      pop\n        /* \"#utility.yul\":13042:13262   */\n      swap2\n      swap1\n      pop\n      jump\t// out\n        /* \"#utility.yul\":13268:13634   */\n    tag_563:\n        /* \"#utility.yul\":13410:13413   */\n      0x00\n        /* \"#utility.yul\":13431:13498   */\n      tag_565\n        /* \"#utility.yul\":13495:13497   */\n      0x25\n        /* \"#utility.yul\":13490:13493   */\n      dup4\n        /* \"#utility.yul\":13431:13498   */\n      tag_502\n      jump\t// in\n    tag_565:\n        /* \"#utility.yul\":13424:13498   */\n      swap2\n      pop\n        /* \"#utility.yul\":13507:13600   */\n      tag_566\n        /* \"#utility.yul\":13596:13599   */\n      dup3\n        /* \"#utility.yul\":13507:13600   */\n      tag_567\n      jump\t// in\n    tag_566:\n        /* \"#utility.yul\":13625:13627   */\n      0x40\n        /* \"#utility.yul\":13620:13623   */\n      dup3\n        /* \"#utility.yul\":13616:13628   */\n      add\n        /* \"#utility.yul\":13609:13628   */\n      swap1\n      pop\n        /* \"#utility.yul\":13414:13634   */\n      swap2\n      swap1\n      pop\n      jump\t// out\n        /* \"#utility.yul\":13640:13758   */\n    tag_568:\n        /* \"#utility.yul\":13727:13751   */\n      tag_570\n        /* \"#utility.yul\":13745:13750   */\n      dup2\n        /* \"#utility.yul\":13727:13751   */\n      tag_571\n      jump\t// in\n    tag_570:\n        /* \"#utility.yul\":13722:13725   */\n      dup3\n        /* \"#utility.yul\":13715:13752   */\n      mstore\n        /* \"#utility.yul\":13705:13758   */\n      pop\n      pop\n      jump\t// out\n        /* \"#utility.yul\":13764:14039   */\n    tag_270:\n        /* \"#utility.yul\":13896:13899   */\n      0x00\n        /* \"#utility.yul\":13918:14013   */\n      tag_573\n        /* \"#utility.yul\":14009:14012   */\n      dup3\n        /* \"#utility.yul\":14000:14006   */\n      dup5\n        /* \"#utility.yul\":13918:14013   */\n      tag_507\n      jump\t// in\n    tag_573:\n        /* \"#utility.yul\":13911:14013   */\n      swap2\n      pop\n        /* \"#utility.yul\":14030:14033   */\n      dup2\n        /* \"#utility.yul\":14023:14033   */\n      swap1\n      pop\n        /* \"#utility.yul\":13900:14039   */\n      swap3\n      swap2\n      pop\n      pop\n      jump\t// out\n        /* \"#utility.yul\":14045:14426   */\n    tag_318:\n        /* \"#utility.yul\":14230:14233   */\n      0x00\n        /* \"#utility.yul\":14252:14400   */\n      tag_575\n        /* \"#utility.yul\":14396:14399   */\n      dup3\n        /* \"#utility.yul\":14252:14400   */\n      tag_528\n      jump\t// in\n    tag_575:\n        /* \"#utility.yul\":14245:14400   */\n      swap2\n      pop\n        /* \"#utility.yul\":14417:14420   */\n      dup2\n        /* \"#utility.yul\":14410:14420   */\n      swap1\n      pop\n        /* \"#utility.yul\":14234:14426   */\n      swap2\n      swap1\n      pop\n      jump\t// out\n        /* \"#utility.yul\":14432:14813   */\n    tag_322:\n        /* \"#utility.yul\":14617:14620   */\n      0x00\n        /* \"#utility.yul\":14639:14787   */\n      tag_577\n        /* \"#utility.yul\":14783:14786   */\n      dup3\n        /* \"#utility.yul\":14639:14787   */\n      tag_533\n      jump\t// in\n    tag_577:\n        /* \"#utility.yul\":14632:14787   */\n      swap2\n      pop\n        /* \"#utility.yul\":14804:14807   */\n      dup2\n        /* \"#utility.yul\":14797:14807   */\n      swap1\n      pop\n        /* \"#utility.yul\":14621:14813   */\n      swap2\n      swap1\n      pop\n      jump\t// out\n        /* \"#utility.yul\":14819:15200   */\n    tag_324:\n        /* \"#utility.yul\":15004:15007   */\n      0x00\n        /* \"#utility.yul\":15026:15174   */\n      tag_579\n        /* \"#utility.yul\":15170:15173   */\n      dup3\n        /* \"#utility.yul\":15026:15174   */\n      tag_538\n      jump\t// in\n    tag_579:\n        /* \"#utility.yul\":15019:15174   */\n      swap2\n      pop\n        /* \"#utility.yul\":15191:15194   */\n      dup2\n        /* \"#utility.yul\":15184:15194   */\n      swap1\n      pop\n        /* \"#utility.yul\":15008:15200   */\n      swap2\n      swap1\n      pop\n      jump\t// out\n        /* \"#utility.yul\":15206:15587   */\n    tag_320:\n        /* \"#utility.yul\":15391:15394   */\n      0x00\n        /* \"#utility.yul\":15413:15561   */\n      tag_581\n        /* \"#utility.yul\":15557:15560   */\n      dup3\n        /* \"#utility.yul\":15413:15561   */\n      tag_543\n      jump\t// in\n    tag_581:\n        /* \"#utility.yul\":15406:15561   */\n      swap2\n      pop\n        /* \"#utility.yul\":15578:15581   */\n      dup2\n        /* \"#utility.yul\":15571:15581   */\n      swap1\n      pop\n        /* \"#utility.yul\":15395:15587   */\n      swap2\n      swap1\n      pop\n      jump\t// out\n        /* \"#utility.yul\":15593:15974   */\n    tag_326:\n        /* \"#utility.yul\":15778:15781   */\n      0x00\n        /* \"#utility.yul\":15800:15948   */\n      tag_583\n        /* \"#utility.yul\":15944:15947   */\n      dup3\n        /* \"#utility.yul\":15800:15948   */\n      tag_548\n      jump\t// in\n    tag_583:\n        /* \"#utility.yul\":15793:15948   */\n      swap2\n      pop\n        /* \"#utility.yul\":15965:15968   */\n      dup2\n        /* \"#utility.yul\":15958:15968   */\n      swap1\n      pop\n        /* \"#utility.yul\":15782:15974   */\n      swap2\n      swap1\n      pop\n      jump\t// out\n        /* \"#utility.yul\":15980:16361   */\n    tag_316:\n        /* \"#utility.yul\":16165:16168   */\n      0x00\n        /* \"#utility.yul\":16187:16335   */\n      tag_585\n        /* \"#utility.yul\":16331:16334   */\n      dup3\n        /* \"#utility.yul\":16187:16335   */\n      tag_553\n      jump\t// in\n    tag_585:\n        /* \"#utility.yul\":16180:16335   */\n      swap2\n      pop\n        /* \"#utility.yul\":16352:16355   */\n      dup2\n        /* \"#utility.yul\":16345:16355   */\n      swap1\n      pop\n        /* \"#utility.yul\":16169:16361   */\n      swap2\n      swap1\n      pop\n      jump\t// out\n        /* \"#utility.yul\":16367:16589   */\n    tag_124:\n        /* \"#utility.yul\":16460:16464   */\n      0x00\n        /* \"#utility.yul\":16498:16500   */\n      0x20\n        /* \"#utility.yul\":16487:16496   */\n      dup3\n        /* \"#utility.yul\":16483:16501   */\n      add\n        /* \"#utility.yul\":16475:16501   */\n      swap1\n      pop\n        /* \"#utility.yul\":16511:16582   */\n      tag_587\n        /* \"#utility.yul\":16579:16580   */\n      0x00\n        /* \"#utility.yul\":16568:16577   */\n      dup4\n        /* \"#utility.yul\":16564:16581   */\n      add\n        /* \"#utility.yul\":16555:16561   */\n      dup5\n        /* \"#utility.yul\":16511:16582   */\n      tag_481\n      jump\t// in\n    tag_587:\n        /* \"#utility.yul\":16465:16589   */\n      swap3\n      swap2\n      pop\n      pop\n      jump\t// out\n        /* \"#utility.yul\":16595:16849   */\n    tag_38:\n        /* \"#utility.yul\":16704:16708   */\n      0x00\n        /* \"#utility.yul\":16742:16744   */\n      0x20\n        /* \"#utility.yul\":16731:16740   */\n      dup3\n        /* \"#utility.yul\":16727:16745   */\n      add\n        /* \"#utility.yul\":16719:16745   */\n      swap1\n      pop\n        /* \"#utility.yul\":16755:16842   */\n      tag_589\n        /* \"#utility.yul\":16839:16840   */\n      0x00\n        /* \"#utility.yul\":16828:16837   */\n      dup4\n        /* \"#utility.yul\":16824:16841   */\n      add\n        /* \"#utility.yul\":16815:16821   */\n      dup5\n        /* \"#utility.yul\":16755:16842   */\n      tag_477\n      jump\t// in\n    tag_589:\n        /* \"#utility.yul\":16709:16849   */\n      swap3\n      swap2\n      pop\n      pop\n      jump\t// out\n        /* \"#utility.yul\":16855:17065   */\n    tag_62:\n        /* \"#utility.yul\":16942:16946   */\n      0x00\n        /* \"#utility.yul\":16980:16982   */\n      0x20\n        /* \"#utility.yul\":16969:16978   */\n      dup3\n        /* \"#utility.yul\":16965:16983   */\n      add\n        /* \"#utility.yul\":16957:16983   */\n      swap1\n      pop\n        /* \"#utility.yul\":16993:17058   */\n      tag_591\n        /* \"#utility.yul\":17055:17056   */\n      0x00\n        /* \"#utility.yul\":17044:17053   */\n      dup4\n        /* \"#utility.yul\":17040:17057   */\n      add\n        /* \"#utility.yul\":17031:17037   */\n      dup5\n        /* \"#utility.yul\":16993:17058   */\n      tag_485\n      jump\t// in\n    tag_591:\n        /* \"#utility.yul\":16947:17065   */\n      swap3\n      swap2\n      pop\n      pop\n      jump\t// out\n        /* \"#utility.yul\":17071:17588   */\n    tag_302:\n        /* \"#utility.yul\":17259:17263   */\n      0x00\n        /* \"#utility.yul\":17297:17299   */\n      0x40\n        /* \"#utility.yul\":17286:17295   */\n      dup3\n        /* \"#utility.yul\":17282:17300   */\n      add\n        /* \"#utility.yul\":17274:17300   */\n      swap1\n      pop\n        /* \"#utility.yul\":17310:17375   */\n      tag_593\n        /* \"#utility.yul\":17372:17373   */\n      0x00\n        /* \"#utility.yul\":17361:17370   */\n      dup4\n        /* \"#utility.yul\":17357:17374   */\n      add\n        /* \"#utility.yul\":17348:17354   */\n      dup5\n        /* \"#utility.yul\":17310:17375   */\n      tag_485\n      jump\t// in\n    tag_593:\n        /* \"#utility.yul\":17422:17431   */\n      dup2\n        /* \"#utility.yul\":17416:17420   */\n      dup2\n        /* \"#utility.yul\":17412:17432   */\n      sub\n        /* \"#utility.yul\":17407:17409   */\n      0x20\n        /* \"#utility.yul\":17396:17405   */\n      dup4\n        /* \"#utility.yul\":17392:17410   */\n      add\n        /* \"#utility.yul\":17385:17433   */\n      mstore\n        /* \"#utility.yul\":17450:17581   */\n      tag_594\n        /* \"#utility.yul\":17576:17580   */\n      dup2\n        /* \"#utility.yul\":17450:17581   */\n      tag_518\n      jump\t// in\n    tag_594:\n        /* \"#utility.yul\":17442:17581   */\n      swap1\n      pop\n        /* \"#utility.yul\":17264:17588   */\n      swap3\n      swap2\n      pop\n      pop\n      jump\t// out\n        /* \"#utility.yul\":17594:18111   */\n    tag_305:\n        /* \"#utility.yul\":17782:17786   */\n      0x00\n        /* \"#utility.yul\":17820:17822   */\n      0x40\n        /* \"#utility.yul\":17809:17818   */\n      dup3\n        /* \"#utility.yul\":17805:17823   */\n      add\n        /* \"#utility.yul\":17797:17823   */\n      swap1\n      pop\n        /* \"#utility.yul\":17833:17898   */\n      tag_596\n        /* \"#utility.yul\":17895:17896   */\n      0x00\n        /* \"#utility.yul\":17884:17893   */\n      dup4\n        /* \"#utility.yul\":17880:17897   */\n      add\n        /* \"#utility.yul\":17871:17877   */\n      dup5\n        /* \"#utility.yul\":17833:17898   */\n      tag_485\n      jump\t// in\n    tag_596:\n        /* \"#utility.yul\":17945:17954   */\n      dup2\n        /* \"#utility.yul\":17939:17943   */\n      dup2\n        /* \"#utility.yul\":17935:17955   */\n      sub\n        /* \"#utility.yul\":17930:17932   */\n      0x20\n        /* \"#utility.yul\":17919:17928   */\n      dup4\n        /* \"#utility.yul\":17915:17933   */\n      add\n        /* \"#utility.yul\":17908:17956   */\n      mstore\n        /* \"#utility.yul\":17973:18104   */\n      tag_597\n        /* \"#utility.yul\":18099:18103   */\n      dup2\n        /* \"#utility.yul\":17973:18104   */\n      tag_523\n      jump\t// in\n    tag_597:\n        /* \"#utility.yul\":17965:18104   */\n      swap1\n      pop\n        /* \"#utility.yul\":17787:18111   */\n      swap3\n      swap2\n      pop\n      pop\n      jump\t// out\n        /* \"#utility.yul\":18117:18353   */\n    tag_116:\n        /* \"#utility.yul\":18217:18221   */\n      0x00\n        /* \"#utility.yul\":18255:18257   */\n      0x20\n        /* \"#utility.yul\":18244:18253   */\n      dup3\n        /* \"#utility.yul\":18240:18258   */\n      add\n        /* \"#utility.yul\":18232:18258   */\n      swap1\n      pop\n        /* \"#utility.yul\":18268:18346   */\n      tag_599\n        /* \"#utility.yul\":18343:18344   */\n      0x00\n        /* \"#utility.yul\":18332:18341   */\n      dup4\n        /* \"#utility.yul\":18328:18345   */\n      add\n        /* \"#utility.yul\":18319:18325   */\n      dup5\n        /* \"#utility.yul\":18268:18346   */\n      tag_489\n      jump\t// in\n    tag_599:\n        /* \"#utility.yul\":18222:18353   */\n      swap3\n      swap2\n      pop\n      pop\n      jump\t// out\n        /* \"#utility.yul\":18359:18884   */\n    tag_48:\n        /* \"#utility.yul\":18524:18528   */\n      0x00\n        /* \"#utility.yul\":18562:18564   */\n      0x60\n        /* \"#utility.yul\":18551:18560   */\n      dup3\n        /* \"#utility.yul\":18547:18565   */\n      add\n        /* \"#utility.yul\":18539:18565   */\n      swap1\n      pop\n        /* \"#utility.yul\":18575:18644   */\n      tag_601\n        /* \"#utility.yul\":18641:18642   */\n      0x00\n        /* \"#utility.yul\":18630:18639   */\n      dup4\n        /* \"#utility.yul\":18626:18643   */\n      add\n        /* \"#utility.yul\":18617:18623   */\n      dup7\n        /* \"#utility.yul\":18575:18644   */\n      tag_493\n      jump\t// in\n    tag_601:\n        /* \"#utility.yul\":18654:18724   */\n      tag_602\n        /* \"#utility.yul\":18720:18722   */\n      0x20\n        /* \"#utility.yul\":18709:18718   */\n      dup4\n        /* \"#utility.yul\":18705:18723   */\n      add\n        /* \"#utility.yul\":18696:18702   */\n      dup6\n        /* \"#utility.yul\":18654:18724   */\n      tag_493\n      jump\t// in\n    tag_602:\n        /* \"#utility.yul\":18771:18780   */\n      dup2\n        /* \"#utility.yul\":18765:18769   */\n      dup2\n        /* \"#utility.yul\":18761:18781   */\n      sub\n        /* \"#utility.yul\":18756:18758   */\n      0x40\n        /* \"#utility.yul\":18745:18754   */\n      dup4\n        /* \"#utility.yul\":18741:18759   */\n      add\n        /* \"#utility.yul\":18734:18782   */\n      mstore\n        /* \"#utility.yul\":18799:18877   */\n      tag_603\n        /* \"#utility.yul\":18872:18876   */\n      dup2\n        /* \"#utility.yul\":18863:18869   */\n      dup5\n        /* \"#utility.yul\":18799:18877   */\n      tag_497\n      jump\t// in\n    tag_603:\n        /* \"#utility.yul\":18791:18877   */\n      swap1\n      pop\n        /* \"#utility.yul\":18529:18884   */\n      swap5\n      swap4\n      pop\n      pop\n      pop\n      pop\n      jump\t// out\n        /* \"#utility.yul\":18890:19309   */\n    tag_142:\n        /* \"#utility.yul\":19056:19060   */\n      0x00\n        /* \"#utility.yul\":19094:19096   */\n      0x20\n        /* \"#utility.yul\":19083:19092   */\n      dup3\n        /* \"#utility.yul\":19079:19097   */\n      add\n        /* \"#utility.yul\":19071:19097   */\n      swap1\n      pop\n        /* \"#utility.yul\":19143:19152   */\n      dup2\n        /* \"#utility.yul\":19137:19141   */\n      dup2\n        /* \"#utility.yul\":19133:19153   */\n      sub\n        /* \"#utility.yul\":19129:19130   */\n      0x00\n        /* \"#utility.yul\":19118:19127   */\n      dup4\n        /* \"#utility.yul\":19114:19131   */\n      add\n        /* \"#utility.yul\":19107:19154   */\n      mstore\n        /* \"#utility.yul\":19171:19302   */\n      tag_605\n        /* \"#utility.yul\":19297:19301   */\n      dup2\n        /* \"#utility.yul\":19171:19302   */\n      tag_513\n      jump\t// in\n    tag_605:\n        /* \"#utility.yul\":19163:19302   */\n      swap1\n      pop\n        /* \"#utility.yul\":19061:19309   */\n      swap2\n      swap1\n      pop\n      jump\t// out\n        /* \"#utility.yul\":19315:19734   */\n    tag_168:\n        /* \"#utility.yul\":19481:19485   */\n      0x00\n        /* \"#utility.yul\":19519:19521   */\n      0x20\n        /* \"#utility.yul\":19508:19517   */\n      dup3\n        /* \"#utility.yul\":19504:19522   */\n      add\n        /* \"#utility.yul\":19496:19522   */\n      swap1\n      pop\n        /* \"#utility.yul\":19568:19577   */\n      dup2\n        /* \"#utility.yul\":19562:19566   */\n      dup2\n        /* \"#utility.yul\":19558:19578   */\n      sub\n        /* \"#utility.yul\":19554:19555   */\n      0x00\n        /* \"#utility.yul\":19543:19552   */\n      dup4\n        /* \"#utility.yul\":19539:19556   */\n      add\n        /* \"#utility.yul\":19532:19579   */\n      mstore\n        /* \"#utility.yul\":19596:19727   */\n      tag_607\n        /* \"#utility.yul\":19722:19726   */\n      dup2\n        /* \"#utility.yul\":19596:19727   */\n      tag_558\n      jump\t// in\n    tag_607:\n        /* \"#utility.yul\":19588:19727   */\n      swap1\n      pop\n        /* \"#utility.yul\":19486:19734   */\n      swap2\n      swap1\n      pop\n      jump\t// out\n        /* \"#utility.yul\":19740:20159   */\n    tag_138:\n        /* \"#utility.yul\":19906:19910   */\n      0x00\n        /* \"#utility.yul\":19944:19946   */\n      0x20\n        /* \"#utility.yul\":19933:19942   */\n      dup3\n        /* \"#utility.yul\":19929:19947   */\n      add\n        /* \"#utility.yul\":19921:19947   */\n      swap1\n      pop\n        /* \"#utility.yul\":19993:20002   */\n      dup2\n        /* \"#utility.yul\":19987:19991   */\n      dup2\n        /* \"#utility.yul\":19983:20003   */\n      sub\n        /* \"#utility.yul\":19979:19980   */\n      0x00\n        /* \"#utility.yul\":19968:19977   */\n      dup4\n        /* \"#utility.yul\":19964:19981   */\n      add\n        /* \"#utility.yul\":19957:20004   */\n      mstore\n        /* \"#utility.yul\":20021:20152   */\n      tag_609\n        /* \"#utility.yul\":20147:20151   */\n      dup2\n        /* \"#utility.yul\":20021:20152   */\n      tag_563\n      jump\t// in\n    tag_609:\n        /* \"#utility.yul\":20013:20152   */\n      swap1\n      pop\n        /* \"#utility.yul\":19911:20159   */\n      swap2\n      swap1\n      pop\n      jump\t// out\n        /* \"#utility.yul\":20165:20387   */\n    tag_33:\n        /* \"#utility.yul\":20258:20262   */\n      0x00\n        /* \"#utility.yul\":20296:20298   */\n      0x20\n        /* \"#utility.yul\":20285:20294   */\n      dup3\n        /* \"#utility.yul\":20281:20299   */\n      add\n        /* \"#utility.yul\":20273:20299   */\n      swap1\n      pop\n        /* \"#utility.yul\":20309:20380   */\n      tag_611\n        /* \"#utility.yul\":20377:20378   */\n      0x00\n        /* \"#utility.yul\":20366:20375   */\n      dup4\n        /* \"#utility.yul\":20362:20379   */\n      add\n        /* \"#utility.yul\":20353:20359   */\n      dup5\n        /* \"#utility.yul\":20309:20380   */\n      tag_568\n      jump\t// in\n    tag_611:\n        /* \"#utility.yul\":20263:20387   */\n      swap3\n      swap2\n      pop\n      pop\n      jump\t// out\n        /* \"#utility.yul\":20393:20522   */\n    tag_368:\n        /* \"#utility.yul\":20427:20433   */\n      0x00\n        /* \"#utility.yul\":20454:20474   */\n      tag_613\n      tag_614\n      jump\t// in\n    tag_613:\n        /* \"#utility.yul\":20444:20474   */\n      swap1\n      pop\n        /* \"#utility.yul\":20483:20516   */\n      tag_615\n        /* \"#utility.yul\":20511:20515   */\n      dup3\n        /* \"#utility.yul\":20503:20509   */\n      dup3\n        /* \"#utility.yul\":20483:20516   */\n      tag_616\n      jump\t// in\n    tag_615:\n        /* \"#utility.yul\":20434:20522   */\n      swap2\n      swap1\n      pop\n      jump\t// out\n        /* \"#utility.yul\":20528:20603   */\n    tag_614:\n        /* \"#utility.yul\":20561:20567   */\n      0x00\n        /* \"#utility.yul\":20594:20596   */\n      0x40\n        /* \"#utility.yul\":20588:20597   */\n      mload\n        /* \"#utility.yul\":20578:20597   */\n      swap1\n      pop\n        /* \"#utility.yul\":20568:20603   */\n      swap1\n      jump\t// out\n        /* \"#utility.yul\":20609:20857   */\n    tag_367:\n        /* \"#utility.yul\":20683:20687   */\n      0x00\n        /* \"#utility.yul\":20773:20791   */\n      0xffffffffffffffff\n        /* \"#utility.yul\":20765:20771   */\n      dup3\n        /* \"#utility.yul\":20762:20792   */\n      gt\n        /* \"#utility.yul\":20759:20761   */\n      iszero\n      tag_619\n      jumpi\n        /* \"#utility.yul\":20795:20813   */\n      tag_620\n      tag_621\n      jump\t// in\n    tag_620:\n        /* \"#utility.yul\":20759:20761   */\n    tag_619:\n        /* \"#utility.yul\":20845:20849   */\n      0x20\n        /* \"#utility.yul\":20837:20843   */\n      dup3\n        /* \"#utility.yul\":20833:20850   */\n      mul\n        /* \"#utility.yul\":20825:20850   */\n      swap1\n      pop\n        /* \"#utility.yul\":20688:20857   */\n      swap2\n      swap1\n      pop\n      jump\t// out\n        /* \"#utility.yul\":20863:21173   */\n    tag_381:\n        /* \"#utility.yul\":20939:20943   */\n      0x00\n        /* \"#utility.yul\":21029:21047   */\n      0xffffffffffffffff\n        /* \"#utility.yul\":21021:21027   */\n      dup3\n        /* \"#utility.yul\":21018:21048   */\n      gt\n        /* \"#utility.yul\":21015:21017   */\n      iszero\n      tag_623\n      jumpi\n        /* \"#utility.yul\":21051:21069   */\n      tag_624\n      tag_621\n      jump\t// in\n    tag_624:\n        /* \"#utility.yul\":21015:21017   */\n    tag_623:\n        /* \"#utility.yul\":21101:21105   */\n      0x20\n        /* \"#utility.yul\":21093:21099   */\n      dup3\n        /* \"#utility.yul\":21089:21106   */\n      mul\n        /* \"#utility.yul\":21081:21106   */\n      swap1\n      pop\n        /* \"#utility.yul\":21161:21165   */\n      0x20\n        /* \"#utility.yul\":21155:21159   */\n      dup2\n        /* \"#utility.yul\":21151:21166   */\n      add\n        /* \"#utility.yul\":21143:21166   */\n      swap1\n      pop\n        /* \"#utility.yul\":20944:21173   */\n      swap2\n      swap1\n      pop\n      jump\t// out\n        /* \"#utility.yul\":21179:21438   */\n    tag_392:\n        /* \"#utility.yul\":21264:21268   */\n      0x00\n        /* \"#utility.yul\":21354:21372   */\n      0xffffffffffffffff\n        /* \"#utility.yul\":21346:21352   */\n      dup3\n        /* \"#utility.yul\":21343:21373   */\n      gt\n        /* \"#utility.yul\":21340:21342   */\n      iszero\n      tag_626\n      jumpi\n        /* \"#utility.yul\":21376:21394   */\n      tag_627\n      tag_621\n      jump\t// in\n    tag_627:\n        /* \"#utility.yul\":21340:21342   */\n    tag_626:\n        /* \"#utility.yul\":21426:21430   */\n      0x20\n        /* \"#utility.yul\":21418:21424   */\n      dup3\n        /* \"#utility.yul\":21414:21431   */\n      mul\n        /* \"#utility.yul\":21406:21431   */\n      swap1\n      pop\n        /* \"#utility.yul\":21269:21438   */\n      swap2\n      swap1\n      pop\n      jump\t// out\n        /* \"#utility.yul\":21444:21752   */\n    tag_407:\n        /* \"#utility.yul\":21506:21510   */\n      0x00\n        /* \"#utility.yul\":21596:21614   */\n      0xffffffffffffffff\n        /* \"#utility.yul\":21588:21594   */\n      dup3\n        /* \"#utility.yul\":21585:21615   */\n      gt\n        /* \"#utility.yul\":21582:21584   */\n      iszero\n      tag_629\n      jumpi\n        /* \"#utility.yul\":21618:21636   */\n      tag_630\n      tag_621\n      jump\t// in\n    tag_630:\n        /* \"#utility.yul\":21582:21584   */\n    tag_629:\n        /* \"#utility.yul\":21656:21685   */\n      tag_631\n        /* \"#utility.yul\":21678:21684   */\n      dup3\n        /* \"#utility.yul\":21656:21685   */\n      tag_506\n      jump\t// in\n    tag_631:\n        /* \"#utility.yul\":21648:21685   */\n      swap1\n      pop\n        /* \"#utility.yul\":21740:21744   */\n      0x20\n        /* \"#utility.yul\":21734:21738   */\n      dup2\n        /* \"#utility.yul\":21730:21745   */\n      add\n        /* \"#utility.yul\":21722:21745   */\n      swap1\n      pop\n        /* \"#utility.yul\":21511:21752   */\n      swap2\n      swap1\n      pop\n      jump\t// out\n        /* \"#utility.yul\":21758:21857   */\n    tag_500:\n        /* \"#utility.yul\":21810:21816   */\n      0x00\n        /* \"#utility.yul\":21844:21849   */\n      dup2\n        /* \"#utility.yul\":21838:21850   */\n      mload\n        /* \"#utility.yul\":21828:21850   */\n      swap1\n      pop\n        /* \"#utility.yul\":21817:21857   */\n      swap2\n      swap1\n      pop\n      jump\t// out\n        /* \"#utility.yul\":21863:22032   */\n    tag_502:\n        /* \"#utility.yul\":21947:21958   */\n      0x00\n        /* \"#utility.yul\":21981:21987   */\n      dup3\n        /* \"#utility.yul\":21976:21979   */\n      dup3\n        /* \"#utility.yul\":21969:21988   */\n      mstore\n        /* \"#utility.yul\":22021:22025   */\n      0x20\n        /* \"#utility.yul\":22016:22019   */\n      dup3\n        /* \"#utility.yul\":22012:22026   */\n      add\n        /* \"#utility.yul\":21997:22026   */\n      swap1\n      pop\n        /* \"#utility.yul\":21959:22032   */\n      swap3\n      swap2\n      pop\n      pop\n      jump\t// out\n        /* \"#utility.yul\":22038:22186   */\n    tag_511:\n        /* \"#utility.yul\":22140:22151   */\n      0x00\n        /* \"#utility.yul\":22177:22180   */\n      dup2\n        /* \"#utility.yul\":22162:22180   */\n      swap1\n      pop\n        /* \"#utility.yul\":22152:22186   */\n      swap3\n      swap2\n      pop\n      pop\n      jump\t// out\n        /* \"#utility.yul\":22192:22717   */\n    tag_177:\n        /* \"#utility.yul\":22231:22234   */\n      0x00\n        /* \"#utility.yul\":22250:22269   */\n      tag_636\n        /* \"#utility.yul\":22267:22268   */\n      dup3\n        /* \"#utility.yul\":22250:22269   */\n      tag_496\n      jump\t// in\n    tag_636:\n        /* \"#utility.yul\":22245:22269   */\n      swap2\n      pop\n        /* \"#utility.yul\":22283:22302   */\n      tag_637\n        /* \"#utility.yul\":22300:22301   */\n      dup4\n        /* \"#utility.yul\":22283:22302   */\n      tag_496\n      jump\t// in\n    tag_637:\n        /* \"#utility.yul\":22278:22302   */\n      swap3\n      pop\n        /* \"#utility.yul\":22471:22472   */\n      dup2\n        /* \"#utility.yul\":22403:22469   */\n      0x7fffffffffffffffffffffffffffffffffffffffffffffffffffffffffffffff\n        /* \"#utility.yul\":22399:22473   */\n      sub\n        /* \"#utility.yul\":22396:22397   */\n      dup4\n        /* \"#utility.yul\":22392:22474   */\n      sgt\n        /* \"#utility.yul\":22387:22388   */\n      0x00\n        /* \"#utility.yul\":22384:22385   */\n      dup4\n        /* \"#utility.yul\":22380:22389   */\n      slt\n        /* \"#utility.yul\":22373:22390   */\n      iszero\n        /* \"#utility.yul\":22369:22475   */\n      and\n        /* \"#utility.yul\":22366:22368   */\n      iszero\n      tag_638\n      jumpi\n        /* \"#utility.yul\":22478:22496   */\n      tag_639\n      tag_640\n      jump\t// in\n    tag_639:\n        /* \"#utility.yul\":22366:22368   */\n    tag_638:\n        /* \"#utility.yul\":22658:22659   */\n      dup2\n        /* \"#utility.yul\":22590:22656   */\n      0x8000000000000000000000000000000000000000000000000000000000000000\n        /* \"#utility.yul\":22586:22660   */\n      sub\n        /* \"#utility.yul\":22583:22584   */\n      dup4\n        /* \"#utility.yul\":22579:22661   */\n      slt\n        /* \"#utility.yul\":22575:22576   */\n      0x00\n        /* \"#utility.yul\":22572:22573   */\n      dup4\n        /* \"#utility.yul\":22568:22577   */\n      slt\n        /* \"#utility.yul\":22564:22662   */\n      and\n        /* \"#utility.yul\":22561:22563   */\n      iszero\n      tag_641\n      jumpi\n        /* \"#utility.yul\":22665:22683   */\n      tag_642\n      tag_640\n      jump\t// in\n    tag_642:\n        /* \"#utility.yul\":22561:22563   */\n    tag_641:\n        /* \"#utility.yul\":22709:22710   */\n      dup3\n        /* \"#utility.yul\":22706:22707   */\n      dup3\n        /* \"#utility.yul\":22702:22711   */\n      add\n        /* \"#utility.yul\":22695:22711   */\n      swap1\n      pop\n        /* \"#utility.yul\":22235:22717   */\n      swap3\n      swap2\n      pop\n      pop\n      jump\t// out\n        /* \"#utility.yul\":22723:23028   */\n    tag_237:\n        /* \"#utility.yul\":22763:22766   */\n      0x00\n        /* \"#utility.yul\":22782:22802   */\n      tag_644\n        /* \"#utility.yul\":22800:22801   */\n      dup3\n        /* \"#utility.yul\":22782:22802   */\n      tag_571\n      jump\t// in\n    tag_644:\n        /* \"#utility.yul\":22777:22802   */\n      swap2\n      pop\n        /* \"#utility.yul\":22816:22836   */\n      tag_645\n        /* \"#utility.yul\":22834:22835   */\n      dup4\n        /* \"#utility.yul\":22816:22836   */\n      tag_571\n      jump\t// in\n    tag_645:\n        /* \"#utility.yul\":22811:22836   */\n      swap3\n      pop\n        /* \"#utility.yul\":22970:22971   */\n      dup3\n        /* \"#utility.yul\":22902:22968   */\n      0xffffffffffffffffffffffffffffffffffffffffffffffffffffffffffffffff\n        /* \"#utility.yul\":22898:22972   */\n      sub\n        /* \"#utility.yul\":22895:22896   */\n      dup3\n        /* \"#utility.yul\":22892:22973   */\n      gt\n        /* \"#utility.yul\":22889:22891   */\n      iszero\n      tag_646\n      jumpi\n        /* \"#utility.yul\":22976:22994   */\n      tag_647\n      tag_640\n      jump\t// in\n    tag_647:\n        /* \"#utility.yul\":22889:22891   */\n    tag_646:\n        /* \"#utility.yul\":23020:23021   */\n      dup3\n        /* \"#utility.yul\":23017:23018   */\n      dup3\n        /* \"#utility.yul\":23013:23022   */\n      add\n        /* \"#utility.yul\":23006:23022   */\n      swap1\n      pop\n        /* \"#utility.yul\":22767:23028   */\n      swap3\n      swap2\n      pop\n      pop\n      jump\t// out\n        /* \"#utility.yul\":23034:23419   */\n    tag_295:\n        /* \"#utility.yul\":23073:23074   */\n      0x00\n        /* \"#utility.yul\":23090:23109   */\n      tag_649\n        /* \"#utility.yul\":23107:23108   */\n      dup3\n        /* \"#utility.yul\":23090:23109   */\n      tag_496\n      jump\t// in\n    tag_649:\n        /* \"#utility.yul\":23085:23109   */\n      swap2\n      pop\n        /* \"#utility.yul\":23123:23142   */\n      tag_650\n        /* \"#utility.yul\":23140:23141   */\n      dup4\n        /* \"#utility.yul\":23123:23142   */\n      tag_496\n      jump\t// in\n    tag_650:\n        /* \"#utility.yul\":23118:23142   */\n      swap3\n      pop\n        /* \"#utility.yul\":23161:23162   */\n      dup3\n        /* \"#utility.yul\":23151:23153   */\n      tag_651\n      jumpi\n        /* \"#utility.yul\":23166:23184   */\n      tag_652\n      tag_653\n      jump\t// in\n    tag_652:\n        /* \"#utility.yul\":23151:23153   */\n    tag_651:\n        /* \"#utility.yul\":23352:23353   */\n      0x01\n        /* \"#utility.yul\":23349:23350   */\n      0x00\n        /* \"#utility.yul\":23345:23354   */\n      sub\n        /* \"#utility.yul\":23342:23343   */\n      dup4\n        /* \"#utility.yul\":23339:23355   */\n      eq\n        /* \"#utility.yul\":23258:23324   */\n      0x8000000000000000000000000000000000000000000000000000000000000000\n        /* \"#utility.yul\":23255:23256   */\n      dup4\n        /* \"#utility.yul\":23252:23325   */\n      eq\n        /* \"#utility.yul\":23235:23365   */\n      and\n        /* \"#utility.yul\":23232:23234   */\n      iszero\n      tag_654\n      jumpi\n        /* \"#utility.yul\":23368:23386   */\n      tag_655\n      tag_640\n      jump\t// in\n    tag_655:\n        /* \"#utility.yul\":23232:23234   */\n    tag_654:\n        /* \"#utility.yul\":23411:23412   */\n      dup3\n        /* \"#utility.yul\":23408:23409   */\n      dup3\n        /* \"#utility.yul\":23403:23413   */\n      sdiv\n        /* \"#utility.yul\":23398:23413   */\n      swap1\n      pop\n        /* \"#utility.yul\":23075:23419   */\n      swap3\n      swap2\n      pop\n      pop\n      jump\t// out\n        /* \"#utility.yul\":23425:23610   */\n    tag_312:\n        /* \"#utility.yul\":23465:23466   */\n      0x00\n        /* \"#utility.yul\":23482:23502   */\n      tag_657\n        /* \"#utility.yul\":23500:23501   */\n      dup3\n        /* \"#utility.yul\":23482:23502   */\n      tag_571\n      jump\t// in\n    tag_657:\n        /* \"#utility.yul\":23477:23502   */\n      swap2\n      pop\n        /* \"#utility.yul\":23516:23536   */\n      tag_658\n        /* \"#utility.yul\":23534:23535   */\n      dup4\n        /* \"#utility.yul\":23516:23536   */\n      tag_571\n      jump\t// in\n    tag_658:\n        /* \"#utility.yul\":23511:23536   */\n      swap3\n      pop\n        /* \"#utility.yul\":23555:23556   */\n      dup3\n        /* \"#utility.yul\":23545:23547   */\n      tag_659\n      jumpi\n        /* \"#utility.yul\":23560:23578   */\n      tag_660\n      tag_653\n      jump\t// in\n    tag_660:\n        /* \"#utility.yul\":23545:23547   */\n    tag_659:\n        /* \"#utility.yul\":23602:23603   */\n      dup3\n        /* \"#utility.yul\":23599:23600   */\n      dup3\n        /* \"#utility.yul\":23595:23604   */\n      div\n        /* \"#utility.yul\":23590:23604   */\n      swap1\n      pop\n        /* \"#utility.yul\":23467:23610   */\n      swap3\n      swap2\n      pop\n      pop\n      jump\t// out\n        /* \"#utility.yul\":23616:23964   */\n    tag_348:\n        /* \"#utility.yul\":23656:23663   */\n      0x00\n        /* \"#utility.yul\":23679:23699   */\n      tag_662\n        /* \"#utility.yul\":23697:23698   */\n      dup3\n        /* \"#utility.yul\":23679:23699   */\n      tag_571\n      jump\t// in\n    tag_662:\n        /* \"#utility.yul\":23674:23699   */\n      swap2\n      pop\n        /* \"#utility.yul\":23713:23733   */\n      tag_663\n        /* \"#utility.yul\":23731:23732   */\n      dup4\n        /* \"#utility.yul\":23713:23733   */\n      tag_571\n      jump\t// in\n    tag_663:\n        /* \"#utility.yul\":23708:23733   */\n      swap3\n      pop\n        /* \"#utility.yul\":23901:23902   */\n      dup2\n        /* \"#utility.yul\":23833:23899   */\n      0xffffffffffffffffffffffffffffffffffffffffffffffffffffffffffffffff\n        /* \"#utility.yul\":23829:23903   */\n      div\n        /* \"#utility.yul\":23826:23827   */\n      dup4\n        /* \"#utility.yul\":23823:23904   */\n      gt\n        /* \"#utility.yul\":23818:23819   */\n      dup3\n        /* \"#utility.yul\":23811:23820   */\n      iszero\n        /* \"#utility.yul\":23804:23821   */\n      iszero\n        /* \"#utility.yul\":23800:23905   */\n      and\n        /* \"#utility.yul\":23797:23799   */\n      iszero\n      tag_664\n      jumpi\n        /* \"#utility.yul\":23908:23926   */\n      tag_665\n      tag_640\n      jump\t// in\n    tag_665:\n        /* \"#utility.yul\":23797:23799   */\n    tag_664:\n        /* \"#utility.yul\":23956:23957   */\n      dup3\n        /* \"#utility.yul\":23953:23954   */\n      dup3\n        /* \"#utility.yul\":23949:23958   */\n      mul\n        /* \"#utility.yul\":23938:23958   */\n      swap1\n      pop\n        /* \"#utility.yul\":23664:23964   */\n      swap3\n      swap2\n      pop\n      pop\n      jump\t// out\n        /* \"#utility.yul\":23970:24161   */\n    tag_310:\n        /* \"#utility.yul\":24010:24014   */\n      0x00\n        /* \"#utility.yul\":24030:24050   */\n      tag_667\n        /* \"#utility.yul\":24048:24049   */\n      dup3\n        /* \"#utility.yul\":24030:24050   */\n      tag_571\n      jump\t// in\n    tag_667:\n        /* \"#utility.yul\":24025:24050   */\n      swap2\n      pop\n        /* \"#utility.yul\":24064:24084   */\n      tag_668\n        /* \"#utility.yul\":24082:24083   */\n      dup4\n        /* \"#utility.yul\":24064:24084   */\n      tag_571\n      jump\t// in\n    tag_668:\n        /* \"#utility.yul\":24059:24084   */\n      swap3\n      pop\n        /* \"#utility.yul\":24103:24104   */\n      dup3\n        /* \"#utility.yul\":24100:24101   */\n      dup3\n        /* \"#utility.yul\":24097:24105   */\n      lt\n        /* \"#utility.yul\":24094:24096   */\n      iszero\n      tag_669\n      jumpi\n        /* \"#utility.yul\":24108:24126   */\n      tag_670\n      tag_640\n      jump\t// in\n    tag_670:\n        /* \"#utility.yul\":24094:24096   */\n    tag_669:\n        /* \"#utility.yul\":24153:24154   */\n      dup3\n        /* \"#utility.yul\":24150:24151   */\n      dup3\n        /* \"#utility.yul\":24146:24155   */\n      sub\n        /* \"#utility.yul\":24138:24155   */\n      swap1\n      pop\n        /* \"#utility.yul\":24015:24161   */\n      swap3\n      swap2\n      pop\n      pop\n      jump\t// out\n        /* \"#utility.yul\":24167:24263   */\n    tag_484:\n        /* \"#utility.yul\":24204:24211   */\n      0x00\n        /* \"#utility.yul\":24233:24257   */\n      tag_672\n        /* \"#utility.yul\":24251:24256   */\n      dup3\n        /* \"#utility.yul\":24233:24257   */\n      tag_673\n      jump\t// in\n    tag_672:\n        /* \"#utility.yul\":24222:24257   */\n      swap1\n      pop\n        /* \"#utility.yul\":24212:24263   */\n      swap2\n      swap1\n      pop\n      jump\t// out\n        /* \"#utility.yul\":24269:24373   */\n    tag_480:\n        /* \"#utility.yul\":24314:24321   */\n      0x00\n        /* \"#utility.yul\":24343:24367   */\n      tag_675\n        /* \"#utility.yul\":24361:24366   */\n      dup3\n        /* \"#utility.yul\":24343:24367   */\n      tag_673\n      jump\t// in\n    tag_675:\n        /* \"#utility.yul\":24332:24367   */\n      swap1\n      pop\n        /* \"#utility.yul\":24322:24373   */\n      swap2\n      swap1\n      pop\n      jump\t// out\n        /* \"#utility.yul\":24379:24469   */\n    tag_488:\n        /* \"#utility.yul\":24413:24420   */\n      0x00\n        /* \"#utility.yul\":24456:24461   */\n      dup2\n        /* \"#utility.yul\":24449:24462   */\n      iszero\n        /* \"#utility.yul\":24442:24463   */\n      iszero\n        /* \"#utility.yul\":24431:24463   */\n      swap1\n      pop\n        /* \"#utility.yul\":24421:24469   */\n      swap2\n      swap1\n      pop\n      jump\t// out\n        /* \"#utility.yul\":24475:24604   */\n    tag_677:\n        /* \"#utility.yul\":24521:24528   */\n      0x00\n        /* \"#utility.yul\":24550:24555   */\n      dup2\n        /* \"#utility.yul\":24539:24555   */\n      swap1\n      pop\n        /* \"#utility.yul\":24556:24598   */\n      tag_679\n        /* \"#utility.yul\":24592:24597   */\n      dup3\n        /* \"#utility.yul\":24556:24598   */\n      tag_680\n      jump\t// in\n    tag_679:\n        /* \"#utility.yul\":24529:24604   */\n      swap2\n      swap1\n      pop\n      jump\t// out\n        /* \"#utility.yul\":24610:24686   */\n    tag_496:\n        /* \"#utility.yul\":24646:24653   */\n      0x00\n        /* \"#utility.yul\":24675:24680   */\n      dup2\n        /* \"#utility.yul\":24664:24680   */\n      swap1\n      pop\n        /* \"#utility.yul\":24654:24686   */\n      swap2\n      swap1\n      pop\n      jump\t// out\n        /* \"#utility.yul\":24692:24818   */\n    tag_673:\n        /* \"#utility.yul\":24729:24736   */\n      0x00\n        /* \"#utility.yul\":24769:24811   */\n      0xffffffffffffffffffffffffffffffffffffffff\n        /* \"#utility.yul\":24762:24767   */\n      dup3\n        /* \"#utility.yul\":24758:24812   */\n      and\n        /* \"#utility.yul\":24747:24812   */\n      swap1\n      pop\n        /* \"#utility.yul\":24737:24818   */\n      swap2\n      swap1\n      pop\n      jump\t// out\n        /* \"#utility.yul\":24824:24901   */\n    tag_571:\n        /* \"#utility.yul\":24861:24868   */\n      0x00\n        /* \"#utility.yul\":24890:24895   */\n      dup2\n        /* \"#utility.yul\":24879:24895   */\n      swap1\n      pop\n        /* \"#utility.yul\":24869:24901   */\n      swap2\n      swap1\n      pop\n      jump\t// out\n        /* \"#utility.yul\":24907:25036   */\n    tag_492:\n        /* \"#utility.yul\":24964:24973   */\n      0x00\n        /* \"#utility.yul\":24997:25030   */\n      tag_685\n        /* \"#utility.yul\":25024:25029   */\n      dup3\n        /* \"#utility.yul\":24997:25030   */\n      tag_677\n      jump\t// in\n    tag_685:\n        /* \"#utility.yul\":24984:25030   */\n      swap1\n      pop\n        /* \"#utility.yul\":24974:25036   */\n      swap2\n      swap1\n      pop\n      jump\t// out\n        /* \"#utility.yul\":25042:25196   */\n    tag_412:\n        /* \"#utility.yul\":25126:25132   */\n      dup3\n        /* \"#utility.yul\":25121:25124   */\n      dup2\n        /* \"#utility.yul\":25116:25119   */\n      dup4\n        /* \"#utility.yul\":25103:25133   */\n      calldatacopy\n        /* \"#utility.yul\":25188:25189   */\n      0x00\n        /* \"#utility.yul\":25179:25185   */\n      dup4\n        /* \"#utility.yul\":25174:25177   */\n      dup4\n        /* \"#utility.yul\":25170:25186   */\n      add\n        /* \"#utility.yul\":25163:25190   */\n      mstore\n        /* \"#utility.yul\":25093:25196   */\n      pop\n      pop\n      pop\n      jump\t// out\n        /* \"#utility.yul\":25202:25509   */\n    tag_504:\n        /* \"#utility.yul\":25270:25271   */\n      0x00\n        /* \"#utility.yul\":25280:25393   */\n    tag_688:\n        /* \"#utility.yul\":25294:25300   */\n      dup4\n        /* \"#utility.yul\":25291:25292   */\n      dup2\n        /* \"#utility.yul\":25288:25301   */\n      lt\n        /* \"#utility.yul\":25280:25393   */\n      iszero\n      tag_690\n      jumpi\n        /* \"#utility.yul\":25379:25380   */\n      dup1\n        /* \"#utility.yul\":25374:25377   */\n      dup3\n        /* \"#utility.yul\":25370:25381   */\n      add\n        /* \"#utility.yul\":25364:25382   */\n      mload\n        /* \"#utility.yul\":25360:25361   */\n      dup2\n        /* \"#utility.yul\":25355:25358   */\n      dup5\n        /* \"#utility.yul\":25351:25362   */\n      add\n        /* \"#utility.yul\":25344:25383   */\n      mstore\n        /* \"#utility.yul\":25316:25318   */\n      0x20\n        /* \"#utility.yul\":25313:25314   */\n      dup2\n        /* \"#utility.yul\":25309:25319   */\n      add\n        /* \"#utility.yul\":25304:25319   */\n      swap1\n      pop\n        /* \"#utility.yul\":25280:25393   */\n      jump(tag_688)\n    tag_690:\n        /* \"#utility.yul\":25411:25417   */\n      dup4\n        /* \"#utility.yul\":25408:25409   */\n      dup2\n        /* \"#utility.yul\":25405:25418   */\n      gt\n        /* \"#utility.yul\":25402:25404   */\n      iszero\n      tag_691\n      jumpi\n        /* \"#utility.yul\":25491:25492   */\n      0x00\n        /* \"#utility.yul\":25482:25488   */\n      dup5\n        /* \"#utility.yul\":25477:25480   */\n      dup5\n        /* \"#utility.yul\":25473:25489   */\n      add\n        /* \"#utility.yul\":25466:25493   */\n      mstore\n        /* \"#utility.yul\":25402:25404   */\n    tag_691:\n        /* \"#utility.yul\":25251:25509   */\n      pop\n      pop\n      pop\n      pop\n      jump\t// out\n        /* \"#utility.yul\":25515:25835   */\n    tag_148:\n        /* \"#utility.yul\":25559:25565   */\n      0x00\n        /* \"#utility.yul\":25596:25597   */\n      0x02\n        /* \"#utility.yul\":25590:25594   */\n      dup3\n        /* \"#utility.yul\":25586:25598   */\n      div\n        /* \"#utility.yul\":25576:25598   */\n      swap1\n      pop\n        /* \"#utility.yul\":25643:25644   */\n      0x01\n        /* \"#utility.yul\":25637:25641   */\n      dup3\n        /* \"#utility.yul\":25633:25645   */\n      and\n        /* \"#utility.yul\":25664:25682   */\n      dup1\n        /* \"#utility.yul\":25654:25656   */\n      tag_693\n      jumpi\n        /* \"#utility.yul\":25720:25724   */\n      0x7f\n        /* \"#utility.yul\":25712:25718   */\n      dup3\n        /* \"#utility.yul\":25708:25725   */\n      and\n        /* \"#utility.yul\":25698:25725   */\n      swap2\n      pop\n        /* \"#utility.yul\":25654:25656   */\n    tag_693:\n        /* \"#utility.yul\":25782:25784   */\n      0x20\n        /* \"#utility.yul\":25774:25780   */\n      dup3\n        /* \"#utility.yul\":25771:25785   */\n      lt\n        /* \"#utility.yul\":25751:25769   */\n      dup2\n        /* \"#utility.yul\":25748:25786   */\n      eq\n        /* \"#utility.yul\":25745:25747   */\n      iszero\n      tag_694\n      jumpi\n        /* \"#utility.yul\":25801:25819   */\n      tag_695\n      tag_696\n      jump\t// in\n    tag_695:\n        /* \"#utility.yul\":25745:25747   */\n    tag_694:\n        /* \"#utility.yul\":25566:25835   */\n      pop\n      swap2\n      swap1\n      pop\n      jump\t// out\n        /* \"#utility.yul\":25841:26122   */\n    tag_616:\n        /* \"#utility.yul\":25924:25951   */\n      tag_698\n        /* \"#utility.yul\":25946:25950   */\n      dup3\n        /* \"#utility.yul\":25924:25951   */\n      tag_506\n      jump\t// in\n    tag_698:\n        /* \"#utility.yul\":25916:25922   */\n      dup2\n        /* \"#utility.yul\":25912:25952   */\n      add\n        /* \"#utility.yul\":26054:26060   */\n      dup2\n        /* \"#utility.yul\":26042:26052   */\n      dup2\n        /* \"#utility.yul\":26039:26061   */\n      lt\n        /* \"#utility.yul\":26018:26036   */\n      0xffffffffffffffff\n        /* \"#utility.yul\":26006:26016   */\n      dup3\n        /* \"#utility.yul\":26003:26037   */\n      gt\n        /* \"#utility.yul\":26000:26062   */\n      or\n        /* \"#utility.yul\":25997:25999   */\n      iszero\n      tag_699\n      jumpi\n        /* \"#utility.yul\":26065:26083   */\n      tag_700\n      tag_621\n      jump\t// in\n    tag_700:\n        /* \"#utility.yul\":25997:25999   */\n    tag_699:\n        /* \"#utility.yul\":26105:26115   */\n      dup1\n        /* \"#utility.yul\":26101:26103   */\n      0x40\n        /* \"#utility.yul\":26094:26116   */\n      mstore\n        /* \"#utility.yul\":25884:26122   */\n      pop\n      pop\n      pop\n      jump\t// out\n        /* \"#utility.yul\":26128:26359   */\n    tag_181:\n        /* \"#utility.yul\":26166:26169   */\n      0x00\n        /* \"#utility.yul\":26189:26212   */\n      tag_702\n        /* \"#utility.yul\":26206:26211   */\n      dup3\n        /* \"#utility.yul\":26189:26212   */\n      tag_496\n      jump\t// in\n    tag_702:\n        /* \"#utility.yul\":26180:26212   */\n      swap2\n      pop\n        /* \"#utility.yul\":26234:26300   */\n      0x7fffffffffffffffffffffffffffffffffffffffffffffffffffffffffffffff\n        /* \"#utility.yul\":26227:26232   */\n      dup3\n        /* \"#utility.yul\":26224:26301   */\n      eq\n        /* \"#utility.yul\":26221:26223   */\n      iszero\n      tag_703\n      jumpi\n        /* \"#utility.yul\":26304:26322   */\n      tag_704\n      tag_640\n      jump\t// in\n    tag_704:\n        /* \"#utility.yul\":26221:26223   */\n    tag_703:\n        /* \"#utility.yul\":26351:26352   */\n      0x01\n        /* \"#utility.yul\":26344:26349   */\n      dup3\n        /* \"#utility.yul\":26340:26353   */\n      add\n        /* \"#utility.yul\":26333:26353   */\n      swap1\n      pop\n        /* \"#utility.yul\":26170:26359   */\n      swap2\n      swap1\n      pop\n      jump\t// out\n        /* \"#utility.yul\":26365:26598   */\n    tag_179:\n        /* \"#utility.yul\":26404:26407   */\n      0x00\n        /* \"#utility.yul\":26427:26451   */\n      tag_706\n        /* \"#utility.yul\":26445:26450   */\n      dup3\n        /* \"#utility.yul\":26427:26451   */\n      tag_571\n      jump\t// in\n    tag_706:\n        /* \"#utility.yul\":26418:26451   */\n      swap2\n      pop\n        /* \"#utility.yul\":26473:26539   */\n      0xffffffffffffffffffffffffffffffffffffffffffffffffffffffffffffffff\n        /* \"#utility.yul\":26466:26471   */\n      dup3\n        /* \"#utility.yul\":26463:26540   */\n      eq\n        /* \"#utility.yul\":26460:26462   */\n      iszero\n      tag_707\n      jumpi\n        /* \"#utility.yul\":26543:26561   */\n      tag_708\n      tag_640\n      jump\t// in\n    tag_708:\n        /* \"#utility.yul\":26460:26462   */\n    tag_707:\n        /* \"#utility.yul\":26590:26591   */\n      0x01\n        /* \"#utility.yul\":26583:26588   */\n      dup3\n        /* \"#utility.yul\":26579:26592   */\n      add\n        /* \"#utility.yul\":26572:26592   */\n      swap1\n      pop\n        /* \"#utility.yul\":26408:26598   */\n      swap2\n      swap1\n      pop\n      jump\t// out\n        /* \"#utility.yul\":26604:26784   */\n    tag_640:\n        /* \"#utility.yul\":26652:26729   */\n      0x4e487b7100000000000000000000000000000000000000000000000000000000\n        /* \"#utility.yul\":26649:26650   */\n      0x00\n        /* \"#utility.yul\":26642:26730   */\n      mstore\n        /* \"#utility.yul\":26749:26753   */\n      0x11\n        /* \"#utility.yul\":26746:26747   */\n      0x04\n        /* \"#utility.yul\":26739:26754   */\n      mstore\n        /* \"#utility.yul\":26773:26777   */\n      0x24\n        /* \"#utility.yul\":26770:26771   */\n      0x00\n        /* \"#utility.yul\":26763:26778   */\n      revert\n        /* \"#utility.yul\":26790:26970   */\n    tag_653:\n        /* \"#utility.yul\":26838:26915   */\n      0x4e487b7100000000000000000000000000000000000000000000000000000000\n        /* \"#utility.yul\":26835:26836   */\n      0x00\n        /* \"#utility.yul\":26828:26916   */\n      mstore\n        /* \"#utility.yul\":26935:26939   */\n      0x12\n        /* \"#utility.yul\":26932:26933   */\n      0x04\n        /* \"#utility.yul\":26925:26940   */\n      mstore\n        /* \"#utility.yul\":26959:26963   */\n      0x24\n        /* \"#utility.yul\":26956:26957   */\n      0x00\n        /* \"#utility.yul\":26949:26964   */\n      revert\n        /* \"#utility.yul\":26976:27156   */\n    tag_133:\n        /* \"#utility.yul\":27024:27101   */\n      0x4e487b7100000000000000000000000000000000000000000000000000000000\n        /* \"#utility.yul\":27021:27022   */\n      0x00\n        /* \"#utility.yul\":27014:27102   */\n      mstore\n        /* \"#utility.yul\":27121:27125   */\n      0x21\n        /* \"#utility.yul\":27118:27119   */\n      0x04\n        /* \"#utility.yul\":27111:27126   */\n      mstore\n        /* \"#utility.yul\":27145:27149   */\n      0x24\n        /* \"#utility.yul\":27142:27143   */\n      0x00\n        /* \"#utility.yul\":27135:27150   */\n      revert\n        /* \"#utility.yul\":27162:27342   */\n    tag_696:\n        /* \"#utility.yul\":27210:27287   */\n      0x4e487b7100000000000000000000000000000000000000000000000000000000\n        /* \"#utility.yul\":27207:27208   */\n      0x00\n        /* \"#utility.yul\":27200:27288   */\n      mstore\n        /* \"#utility.yul\":27307:27311   */\n      0x22\n        /* \"#utility.yul\":27304:27305   */\n      0x04\n        /* \"#utility.yul\":27297:27312   */\n      mstore\n        /* \"#utility.yul\":27331:27335   */\n      0x24\n        /* \"#utility.yul\":27328:27329   */\n      0x00\n        /* \"#utility.yul\":27321:27336   */\n      revert\n        /* \"#utility.yul\":27348:27528   */\n    tag_175:\n        /* \"#utility.yul\":27396:27473   */\n      0x4e487b7100000000000000000000000000000000000000000000000000000000\n        /* \"#utility.yul\":27393:27394   */\n      0x00\n        /* \"#utility.yul\":27386:27474   */\n      mstore\n        /* \"#utility.yul\":27493:27497   */\n      0x32\n        /* \"#utility.yul\":27490:27491   */\n      0x04\n        /* \"#utility.yul\":27483:27498   */\n      mstore\n        /* \"#utility.yul\":27517:27521   */\n      0x24\n        /* \"#utility.yul\":27514:27515   */\n      0x00\n        /* \"#utility.yul\":27507:27522   */\n      revert\n        /* \"#utility.yul\":27534:27714   */\n    tag_621:\n        /* \"#utility.yul\":27582:27659   */\n      0x4e487b7100000000000000000000000000000000000000000000000000000000\n        /* \"#utility.yul\":27579:27580   */\n      0x00\n        /* \"#utility.yul\":27572:27660   */\n      mstore\n        /* \"#utility.yul\":27679:27683   */\n      0x41\n        /* \"#utility.yul\":27676:27677   */\n      0x04\n        /* \"#utility.yul\":27669:27684   */\n      mstore\n        /* \"#utility.yul\":27703:27707   */\n      0x24\n        /* \"#utility.yul\":27700:27701   */\n      0x00\n        /* \"#utility.yul\":27693:27708   */\n      revert\n        /* \"#utility.yul\":27720:27837   */\n    tag_400:\n        /* \"#utility.yul\":27829:27830   */\n      0x00\n        /* \"#utility.yul\":27826:27827   */\n      dup1\n        /* \"#utility.yul\":27819:27831   */\n      revert\n        /* \"#utility.yul\":27843:27960   */\n    tag_371:\n        /* \"#utility.yul\":27952:27953   */\n      0x00\n        /* \"#utility.yul\":27949:27950   */\n      dup1\n        /* \"#utility.yul\":27942:27954   */\n      revert\n        /* \"#utility.yul\":27966:28083   */\n    tag_410:\n        /* \"#utility.yul\":28075:28076   */\n      0x00\n        /* \"#utility.yul\":28072:28073   */\n      dup1\n        /* \"#utility.yul\":28065:28077   */\n      revert\n        /* \"#utility.yul\":28089:28206   */\n    tag_461:\n        /* \"#utility.yul\":28198:28199   */\n      0x00\n        /* \"#utility.yul\":28195:28196   */\n      dup1\n        /* \"#utility.yul\":28188:28200   */\n      revert\n        /* \"#utility.yul\":28212:28329   */\n    tag_446:\n        /* \"#utility.yul\":28321:28322   */\n      0x00\n        /* \"#utility.yul\":28318:28319   */\n      dup1\n        /* \"#utility.yul\":28311:28323   */\n      revert\n        /* \"#utility.yul\":28335:28437   */\n    tag_506:\n        /* \"#utility.yul\":28376:28382   */\n      0x00\n        /* \"#utility.yul\":28427:28429   */\n      0x1f\n        /* \"#utility.yul\":28423:28430   */\n      not\n        /* \"#utility.yul\":28418:28420   */\n      0x1f\n        /* \"#utility.yul\":28411:28416   */\n      dup4\n        /* \"#utility.yul\":28407:28421   */\n      add\n        /* \"#utility.yul\":28403:28431   */\n      and\n        /* \"#utility.yul\":28393:28431   */\n      swap1\n      pop\n        /* \"#utility.yul\":28383:28437   */\n      swap2\n      swap1\n      pop\n      jump\t// out\n        /* \"#utility.yul\":28443:28684   */\n    tag_517:\n        /* \"#utility.yul\":28583:28617   */\n      0x43616e6e6f742063616c6c20746869732066756e6374696f6e20646972656374\n        /* \"#utility.yul\":28579:28580   */\n      0x00\n        /* \"#utility.yul\":28571:28577   */\n      dup3\n        /* \"#utility.yul\":28567:28581   */\n      add\n        /* \"#utility.yul\":28560:28618   */\n      mstore\n        /* \"#utility.yul\":28652:28676   */\n      0x6c792c207573652056656e646f72466163746f72792e00000000000000000000\n        /* \"#utility.yul\":28647:28649   */\n      0x20\n        /* \"#utility.yul\":28639:28645   */\n      dup3\n        /* \"#utility.yul\":28635:28650   */\n      add\n        /* \"#utility.yul\":28628:28677   */\n      mstore\n        /* \"#utility.yul\":28549:28684   */\n      pop\n      jump\t// out\n        /* \"#utility.yul\":28690:28858   */\n    tag_522:\n        /* \"#utility.yul\":28830:28850   */\n      0x526566756e64696e67207061796d656e742e0000000000000000000000000000\n        /* \"#utility.yul\":28826:28827   */\n      0x00\n        /* \"#utility.yul\":28818:28824   */\n      dup3\n        /* \"#utility.yul\":28814:28828   */\n      add\n        /* \"#utility.yul\":28807:28851   */\n      mstore\n        /* \"#utility.yul\":28796:28858   */\n      pop\n      jump\t// out\n        /* \"#utility.yul\":28864:29030   */\n    tag_527:\n        /* \"#utility.yul\":29004:29022   */\n      0x53656e64696e67207061796d656e742e00000000000000000000000000000000\n        /* \"#utility.yul\":29000:29001   */\n      0x00\n        /* \"#utility.yul\":28992:28998   */\n      dup3\n        /* \"#utility.yul\":28988:29002   */\n      add\n        /* \"#utility.yul\":28981:29023   */\n      mstore\n        /* \"#utility.yul\":28970:29030   */\n      pop\n      jump\t// out\n        /* \"#utility.yul\":29036:29188   */\n    tag_532:\n        /* \"#utility.yul\":29176:29180   */\n      0x3d3d000000000000000000000000000000000000000000000000000000000000\n        /* \"#utility.yul\":29172:29173   */\n      0x00\n        /* \"#utility.yul\":29164:29170   */\n      dup3\n        /* \"#utility.yul\":29160:29174   */\n      add\n        /* \"#utility.yul\":29153:29181   */\n      mstore\n        /* \"#utility.yul\":29142:29188   */\n      pop\n      jump\t// out\n        /* \"#utility.yul\":29194:29345   */\n    tag_537:\n        /* \"#utility.yul\":29334:29337   */\n      0x3c00000000000000000000000000000000000000000000000000000000000000\n        /* \"#utility.yul\":29330:29331   */\n      0x00\n        /* \"#utility.yul\":29322:29328   */\n      dup3\n        /* \"#utility.yul\":29318:29332   */\n      add\n        /* \"#utility.yul\":29311:29338   */\n      mstore\n        /* \"#utility.yul\":29300:29345   */\n      pop\n      jump\t// out\n        /* \"#utility.yul\":29351:29503   */\n    tag_542:\n        /* \"#utility.yul\":29491:29495   */\n      0x213d000000000000000000000000000000000000000000000000000000000000\n        /* \"#utility.yul\":29487:29488   */\n      0x00\n        /* \"#utility.yul\":29479:29485   */\n      dup3\n        /* \"#utility.yul\":29475:29489   */\n      add\n        /* \"#utility.yul\":29468:29496   */\n      mstore\n        /* \"#utility.yul\":29457:29503   */\n      pop\n      jump\t// out\n        /* \"#utility.yul\":29509:29661   */\n    tag_547:\n        /* \"#utility.yul\":29649:29653   */\n      0x3d3e000000000000000000000000000000000000000000000000000000000000\n        /* \"#utility.yul\":29645:29646   */\n      0x00\n        /* \"#utility.yul\":29637:29643   */\n      dup3\n        /* \"#utility.yul\":29633:29647   */\n      add\n        /* \"#utility.yul\":29626:29654   */\n      mstore\n        /* \"#utility.yul\":29615:29661   */\n      pop\n      jump\t// out\n        /* \"#utility.yul\":29667:29819   */\n    tag_552:\n        /* \"#utility.yul\":29807:29811   */\n      0x3c3d000000000000000000000000000000000000000000000000000000000000\n        /* \"#utility.yul\":29803:29804   */\n      0x00\n        /* \"#utility.yul\":29795:29801   */\n      dup3\n        /* \"#utility.yul\":29791:29805   */\n      add\n        /* \"#utility.yul\":29784:29812   */\n      mstore\n        /* \"#utility.yul\":29773:29819   */\n      pop\n      jump\t// out\n        /* \"#utility.yul\":29825:29976   */\n    tag_557:\n        /* \"#utility.yul\":29965:29968   */\n      0x3e00000000000000000000000000000000000000000000000000000000000000\n        /* \"#utility.yul\":29961:29962   */\n      0x00\n        /* \"#utility.yul\":29953:29959   */\n      dup3\n        /* \"#utility.yul\":29949:29963   */\n      add\n        /* \"#utility.yul\":29942:29969   */\n      mstore\n        /* \"#utility.yul\":29931:29976   */\n      pop\n      jump\t// out\n        /* \"#utility.yul\":29982:30161   */\n    tag_562:\n        /* \"#utility.yul\":30122:30153   */\n      0x4e6f742077697468696e207468652062696c6c696e6720706572696f64000000\n        /* \"#utility.yul\":30118:30119   */\n      0x00\n        /* \"#utility.yul\":30110:30116   */\n      dup3\n        /* \"#utility.yul\":30106:30120   */\n      add\n        /* \"#utility.yul\":30099:30154   */\n      mstore\n        /* \"#utility.yul\":30088:30161   */\n      pop\n      jump\t// out\n        /* \"#utility.yul\":30167:30391   */\n    tag_567:\n        /* \"#utility.yul\":30307:30341   */\n      0x436f6e7472616374206973206e6f7420696e2074686520726571756972656420\n        /* \"#utility.yul\":30303:30304   */\n      0x00\n        /* \"#utility.yul\":30295:30301   */\n      dup3\n        /* \"#utility.yul\":30291:30305   */\n      add\n        /* \"#utility.yul\":30284:30342   */\n      mstore\n        /* \"#utility.yul\":30376:30383   */\n      0x7374617465000000000000000000000000000000000000000000000000000000\n        /* \"#utility.yul\":30371:30373   */\n      0x20\n        /* \"#utility.yul\":30363:30369   */\n      dup3\n        /* \"#utility.yul\":30359:30374   */\n      add\n        /* \"#utility.yul\":30352:30384   */\n      mstore\n        /* \"#utility.yul\":30273:30391   */\n      pop\n      jump\t// out\n        /* \"#utility.yul\":30397:30511   */\n    tag_680:\n        /* \"#utility.yul\":30479:30480   */\n      0x05\n        /* \"#utility.yul\":30472:30477   */\n      dup2\n        /* \"#utility.yul\":30469:30481   */\n      lt\n        /* \"#utility.yul\":30459:30461   */\n      tag_733\n      jumpi\n        /* \"#utility.yul\":30485:30503   */\n      tag_734\n      tag_133\n      jump\t// in\n    tag_734:\n        /* \"#utility.yul\":30459:30461   */\n    tag_733:\n        /* \"#utility.yul\":30449:30511   */\n      pop\n      jump\t// out\n        /* \"#utility.yul\":30517:30639   */\n    tag_416:\n        /* \"#utility.yul\":30590:30614   */\n      tag_736\n        /* \"#utility.yul\":30608:30613   */\n      dup2\n        /* \"#utility.yul\":30590:30614   */\n      tag_484\n      jump\t// in\n    tag_736:\n        /* \"#utility.yul\":30583:30588   */\n      dup2\n        /* \"#utility.yul\":30580:30615   */\n      eq\n        /* \"#utility.yul\":30570:30572   */\n      tag_737\n      jumpi\n        /* \"#utility.yul\":30629:30630   */\n      0x00\n        /* \"#utility.yul\":30626:30627   */\n      dup1\n        /* \"#utility.yul\":30619:30631   */\n      revert\n        /* \"#utility.yul\":30570:30572   */\n    tag_737:\n        /* \"#utility.yul\":30560:30639   */\n      pop\n      jump\t// out\n        /* \"#utility.yul\":30645:30765   */\n    tag_434:\n        /* \"#utility.yul\":30717:30740   */\n      tag_739\n        /* \"#utility.yul\":30734:30739   */\n      dup2\n        /* \"#utility.yul\":30717:30740   */\n      tag_496\n      jump\t// in\n    tag_739:\n        /* \"#utility.yul\":30710:30715   */\n      dup2\n        /* \"#utility.yul\":30707:30741   */\n      eq\n        /* \"#utility.yul\":30697:30699   */\n      tag_740\n      jumpi\n        /* \"#utility.yul\":30755:30756   */\n      0x00\n        /* \"#utility.yul\":30752:30753   */\n      dup1\n        /* \"#utility.yul\":30745:30757   */\n      revert\n        /* \"#utility.yul\":30697:30699   */\n    tag_740:\n        /* \"#utility.yul\":30687:30765   */\n      pop\n      jump\t// out\n        /* \"#utility.yul\":30771:30893   */\n    tag_442:\n        /* \"#utility.yul\":30844:30868   */\n      tag_742\n        /* \"#utility.yul\":30862:30867   */\n      dup2\n        /* \"#utility.yul\":30844:30868   */\n      tag_571\n      jump\t// in\n    tag_742:\n        /* \"#utility.yul\":30837:30842   */\n      dup2\n        /* \"#utility.yul\":30834:30869   */\n      eq\n        /* \"#utility.yul\":30824:30826   */\n      tag_743\n      jumpi\n        /* \"#utility.yul\":30883:30884   */\n      0x00\n        /* \"#utility.yul\":30880:30881   */\n      dup1\n        /* \"#utility.yul\":30873:30885   */\n      revert\n        /* \"#utility.yul\":30824:30826   */\n    tag_743:\n        /* \"#utility.yul\":30814:30893   */\n      pop\n      jump\t// out\n\n    auxdata: 0xa2646970667358221220f1697e7b2450756e559d84e0eeb3082a311dd97dea93a4c4b9af835c8c931ee564736f6c63430008060033\n}\n",
    "bytecode": {
      "linkReferences": {},
      "object": "60806040526000600960006101000a81548160ff021916908360048111156200002d576200002c62000101565b5b02179055506000600960016101000a81548160ff021916908315150217905550603c80601861190062000061919062000090565b6200006d919062000090565b62000079919062000090565b600c553480156200008957600080fd5b5062000130565b60006200009d82620000c8565b9150620000aa83620000c8565b925082620000bd57620000bc620000d2565b5b828204905092915050565b6000819050919050565b7f4e487b7100000000000000000000000000000000000000000000000000000000600052601260045260246000fd5b7f4e487b7100000000000000000000000000000000000000000000000000000000600052602160045260246000fd5b6126a880620001406000396000f3fe60806040526004361061014b5760003560e01c806383197ef0116100b6578063aa8c217c1161006f578063aa8c217c146103f3578063ae90b2131461041e578063c040e6b814610449578063f1b9ee2414610474578063f851a4401461048b578063fadeaa59146104b65761014b565b806383197ef01461033c57806384ac444614610353578063904c60941461035d5780639503fe3d1461038857806397c0bba11461039f5780639a730617146103ca5761014b565b80633a40f3b2116101085780633a40f3b214610250578063410459ad1461027b57806343885314146102a4578063516dde43146102cf578063722713f7146102fa578063760a8c2a146103255761014b565b80630b97bc8614610150578063109e94cf1461017b57806312424e3f146101a6578063182541d2146101bd57806321ce5afd146101fc57806325419c2414610225575b600080fd5b34801561015c57600080fd5b506101656104df565b6040516101729190611de3565b60405180910390f35b34801561018757600080fd5b506101906104e5565b60405161019d9190611c98565b60405180910390f35b3480156101b257600080fd5b506101bb61050b565b005b3480156101c957600080fd5b506101e460048036038101906101df9190611976565b610659565b6040516101f393929190611d45565b60405180910390f35b34801561020857600080fd5b50610223600480360381019061021e91906118a0565b61071b565b005b34801561023157600080fd5b5061023a61087d565b6040516102479190611de3565b60405180910390f35b34801561025c57600080fd5b50610265610883565b6040516102729190611cb3565b60405180910390f35b34801561028757600080fd5b506102a2600480360381019061029d91906117f8565b610896565b005b3480156102b057600080fd5b506102b96108da565b6040516102c69190611de3565b60405180910390f35b3480156102db57600080fd5b506102e46108e0565b6040516102f19190611de3565b60405180910390f35b34801561030657600080fd5b5061030f6108e6565b60405161031c9190611de3565b60405180910390f35b34801561033157600080fd5b5061033a6108ee565b005b34801561034857600080fd5b50610351610993565b005b61035b610a45565b005b34801561036957600080fd5b50610372610b38565b60405161037f9190611de3565b60405180910390f35b34801561039457600080fd5b5061039d610b3e565b005b3480156103ab57600080fd5b506103b4610c20565b6040516103c19190611cb3565b60405180910390f35b3480156103d657600080fd5b506103f160048036038101906103ec9190611825565b610c33565b005b3480156103ff57600080fd5b50610408610d0b565b6040516104159190611de3565b60405180910390f35b34801561042a57600080fd5b50610433610d11565b6040516104409190611c98565b60405180910390f35b34801561045557600080fd5b5061045e610d37565b60405161046b9190611d2a565b60405180910390f35b34801561048057600080fd5b50610489610d4a565b005b34801561049757600080fd5b506104a0610def565b6040516104ad9190611c7d565b60405180910390f35b3480156104c257600080fd5b506104dd60048036038101906104d891906118e9565b610e13565b005b60035481565b600160009054906101000a900473ffffffffffffffffffffffffffffffffffffffff1681565b60018060048111156105205761051f612324565b5b600960009054906101000a900460ff16600481111561054257610541612324565b5b14610582576040517f08c379a000000000000000000000000000000000000000000000000000000000815260040161057990611dc3565b60405180910390fd5b60008054906101000a900473ffffffffffffffffffffffffffffffffffffffff1673ffffffffffffffffffffffffffffffffffffffff163373ffffffffffffffffffffffffffffffffffffffff1614610610576040517f08c379a000000000000000000000000000000000000000000000000000000000815260040161060790611d83565b60405180910390fd5b6001600260146101000a81548160ff0219169083151502179055506003600960006101000a81548160ff0219169083600481111561065157610650612324565b5b021790555050565b600a818154811061066957600080fd5b9060005260206000209060030201600091509050806000015490806001015490806002018054610698906121d1565b80601f01602080910402602001604051908101604052809291908181526020018280546106c4906121d1565b80156107115780601f106106e657610100808354040283529160200191610711565b820191906000526020600020905b8154815290600101906020018083116106f457829003601f168201915b5050505050905083565b60038060048111156107305761072f612324565b5b600960009054906101000a900460ff16600481111561075257610751612324565b5b14610792576040517f08c379a000000000000000000000000000000000000000000000000000000000815260040161078990611dc3565b60405180910390fd5b6007544311156107a9576107a4610fbc565b610879565b60065443101580156107bd57506007544311155b6107fc576040517f08c379a00000000000000000000000000000000000000000000000000000000081526004016107f390611da3565b60405180910390fd5b60005b825181101561085f5782818151811061081b5761081a612382565b5b6020026020010151600d600083815260200190815260200160002060008282546108459190611ef3565b9250508190555080806108579061227d565b9150506107ff565b50600e600081548092919061087390612234565b91905055505b5050565b60065481565b600960019054906101000a900460ff1681565b80600260006101000a81548173ffffffffffffffffffffffffffffffffffffffff021916908373ffffffffffffffffffffffffffffffffffffffff16021790555050565b60075481565b60045481565b600047905090565b600280600481111561090357610902612324565b5b600960009054906101000a900460ff16600481111561092557610924612324565b5b14610965576040517f08c379a000000000000000000000000000000000000000000000000000000000815260040161095c90611dc3565b60405180910390fd5b6003600960006101000a81548160ff0219169083600481111561098b5761098a612324565b5b021790555050565b60028060048111156109a8576109a7612324565b5b600960009054906101000a900460ff1660048111156109ca576109c9612324565b5b14610a0a576040517f08c379a0000000000000000000000000000000000000000000000000000000008152600401610a0190611dc3565b60405180910390fd5b600160009054906101000a900473ffffffffffffffffffffffffffffffffffffffff1673ffffffffffffffffffffffffffffffffffffffff16ff5b6003806004811115610a5a57610a59612324565b5b600960009054906101000a900460ff166004811115610a7c57610a7b612324565b5b14610abc576040517f08c379a0000000000000000000000000000000000000000000000000000000008152600401610ab390611dc3565b60405180910390fd5b600754431115610ad357610ace610fbc565b610b35565b6006544310158015610ae757506007544311155b610b26576040517f08c379a0000000000000000000000000000000000000000000000000000000008152600401610b1d90611da3565b60405180910390fd5b6005543414610b3457600080fd5b5b50565b60085481565b6000806004811115610b5357610b52612324565b5b600960009054906101000a900460ff166004811115610b7557610b74612324565b5b14610bb5576040517f08c379a0000000000000000000000000000000000000000000000000000000008152600401610bac90611dc3565b60405180910390fd5b6001600960006101000a81548160ff02191690836004811115610bdb57610bda612324565b5b021790555060005b600a80549050811015610c1c576000600d6000838152602001908152602001600020819055508080610c149061227d565b915050610be3565b5050565b600260149054906101000a900460ff1681565b336000806101000a81548173ffffffffffffffffffffffffffffffffffffffff021916908373ffffffffffffffffffffffffffffffffffffffff16021790555084600160006101000a81548173ffffffffffffffffffffffffffffffffffffffff021916908373ffffffffffffffffffffffffffffffffffffffff1602179055508360048190555082600381905550610ccb836111d4565b600681905550610ce862278d0084610ce39190611f87565b6111d4565b6007819055508160088190555080600581905550610d04611206565b5050505050565b60055481565b600260009054906101000a900473ffffffffffffffffffffffffffffffffffffffff1681565b600960009054906101000a900460ff1681565b6003806004811115610d5f57610d5e612324565b5b600960009054906101000a900460ff166004811115610d8157610d80612324565b5b14610dc1576040517f08c379a0000000000000000000000000000000000000000000000000000000008152600401610db890611dc3565b60405180910390fd5b6002600960006101000a81548160ff02191690836004811115610de757610de6612324565b5b021790555050565b60008054906101000a900473ffffffffffffffffffffffffffffffffffffffff1681565b6000806004811115610e2857610e27612324565b5b600960009054906101000a900460ff166004811115610e4a57610e49612324565b5b14610e8a576040517f08c379a0000000000000000000000000000000000000000000000000000000008152600401610e8190611dc3565b60405180910390fd5b60005b6008811015610fb4576000858260088110610eab57610eaa612382565b5b6020020151511415610ec557610ebf610b3e565b50610fb6565b600a6040518060600160405280868460088110610ee557610ee4612382565b5b60200201518152602001600b868560088110610f0457610f03612382565b5b6020020151604051610f169190611be8565b9081526020016040518091039020548152602001878460088110610f3d57610f3c612382565b5b6020020151815250908060018154018082558091505060019003906000526020600020906003020160009091909190915060008201518160000155602082015181600101556040820151816002019080519060200190610f9e9291906114c6565b5050508080610fac9061227d565b915050610e8d565b505b50505050565b6003806004811115610fd157610fd0612324565b5b600960009054906101000a900460ff166004811115610ff357610ff2612324565b5b14611033576040517f08c379a000000000000000000000000000000000000000000000000000000000815260040161102a90611dc3565b60405180910390fd5b60005b600a8054905081101561114f576000600a828154811061105957611058612382565b5b90600052602060002090600302016001015490506000600a838154811061108357611082612382565b5b90600052602060002090600302016000015490506000600e54600d6000868152602001908152602001600020546110ba9190611fdd565b90506110c78382846112d4565b611139576110d361135e565b3373ffffffffffffffffffffffffffffffffffffffff167fa84226bf2d14bde3fac454f52eaeab63aaeb1934da88f9263dd4ff7dd12acf71600960019054906101000a900460ff166040516111289190611cce565b60405180910390a2505050506111d1565b50505080806111479061227d565b915050611036565b506001600960016101000a81548160ff0219169083151502179055503373ffffffffffffffffffffffffffffffffffffffff167fa84226bf2d14bde3fac454f52eaeab63aaeb1934da88f9263dd4ff7dd12acf71600960019054906101000a900460ff166040516111c09190611cfc565b60405180910390a26111d06113d3565b5b50565b600080600c5442846111e691906120d2565b6111f09190612047565b905080436111fe9190611f87565b915050919050565b6001600b60405161121690611c68565b9081526020016040518091039020819055506002600b60405161123890611bff565b9081526020016040518091039020819055506003600b60405161125a90611c3e565b9081526020016040518091039020819055506004600b60405161127c90611c14565b9081526020016040518091039020819055506005600b60405161129e90611c29565b9081526020016040518091039020819055506006600b6040516112c090611c53565b908152602001604051809103902081905550565b60007fffffffffffffffffffffffffffffffffffffffffffffffffffffffffffffffff84146113525760018085161415611319578183136113185760009050611357565b5b60028085161415611335578183146113345760009050611357565b5b60048085161415611351578183126113505760009050611357565b5b5b600190505b9392505050565b600160009054906101000a900473ffffffffffffffffffffffffffffffffffffffff1673ffffffffffffffffffffffffffffffffffffffff166108fc6005549081150290604051600060405180830381858888f193505050501580156113c8573d6000803e3d6000fd5b506113d1611448565b565b600260009054906101000a900473ffffffffffffffffffffffffffffffffffffffff1673ffffffffffffffffffffffffffffffffffffffff166108fc6005549081150290604051600060405180830381858888f1935050505015801561143d573d6000803e3d6000fd5b50611446611448565b565b600454431015611499576000600960016101000a81548160ff021916908315150217905550600754600681905550611900601e6114859190612078565b6007546114929190611f87565b6007819055505b6004600960006101000a81548160ff021916908360048111156114bf576114be612324565b5b0217905550565b8280546114d2906121d1565b90600052602060002090601f0160209004810192826114f4576000855561153b565b82601f1061150d57805160ff191683800117855561153b565b8280016001018555821561153b579182015b8281111561153a57825182559160200191906001019061151f565b5b509050611548919061154c565b5090565b5b8082111561156557600081600090555060010161154d565b5090565b600061157c61157784611e23565b611dfe565b90508082856020860282011115611596576115956123e5565b5b60005b858110156115c657816115ac88826117a0565b845260208401935060208301925050600181019050611599565b5050509392505050565b60006115e36115de84611e49565b611dfe565b90508083825260208201905082856020860282011115611606576116056123e5565b5b60005b85811015611636578161161c88826117a0565b845260208401935060208301925050600181019050611609565b5050509392505050565b600061165361164e84611e75565b611dfe565b9050808285602086028201111561166d5761166c6123e5565b5b60005b858110156116bb57813567ffffffffffffffff811115611693576116926123e0565b5b8086016116a089826117b5565b85526020850194506020840193505050600181019050611670565b5050509392505050565b60006116d86116d384611e9b565b611dfe565b9050828152602081018484840111156116f4576116f36123ea565b5b6116ff84828561218f565b509392505050565b6000813590506117168161262d565b92915050565b600082601f830112611731576117306123e0565b5b600861173e848285611569565b91505092915050565b600082601f83011261175c5761175b6123e0565b5b813561176c8482602086016115d0565b91505092915050565b600082601f83011261178a576117896123e0565b5b6008611797848285611640565b91505092915050565b6000813590506117af81612644565b92915050565b600082601f8301126117ca576117c96123e0565b5b81356117da8482602086016116c5565b91505092915050565b6000813590506117f28161265b565b92915050565b60006020828403121561180e5761180d6123f4565b5b600061181c84828501611707565b91505092915050565b600080600080600060a08688031215611841576118406123f4565b5b600061184f88828901611707565b9550506020611860888289016117e3565b9450506040611871888289016117e3565b9350506060611882888289016117e3565b9250506080611893888289016117e3565b9150509295509295909350565b6000602082840312156118b6576118b56123f4565b5b600082013567ffffffffffffffff8111156118d4576118d36123ef565b5b6118e084828501611747565b91505092915050565b60008060006101408486031215611903576119026123f4565b5b600084013567ffffffffffffffff811115611921576119206123ef565b5b61192d86828701611775565b935050602061193e8682870161171c565b92505061012084013567ffffffffffffffff8111156119605761195f6123ef565b5b61196c86828701611775565b9150509250925092565b60006020828403121561198c5761198b6123f4565b5b600061199a848285016117e3565b91505092915050565b6119ac81612118565b82525050565b6119bb81612106565b82525050565b6119ca8161212a565b82525050565b6119d98161217d565b82525050565b6119e881612149565b82525050565b60006119f982611ecc565b611a038185611ed7565b9350611a1381856020860161219e565b611a1c816123f9565b840191505092915050565b6000611a3282611ecc565b611a3c8185611ee8565b9350611a4c81856020860161219e565b80840191505092915050565b6000611a65603683611ed7565b9150611a708261240a565b604082019050919050565b6000611a88601283611ed7565b9150611a9382612459565b602082019050919050565b6000611aab601083611ed7565b9150611ab682612482565b602082019050919050565b6000611ace600283611ee8565b9150611ad9826124ab565b600282019050919050565b6000611af1600183611ee8565b9150611afc826124d4565b600182019050919050565b6000611b14600283611ee8565b9150611b1f826124fd565b600282019050919050565b6000611b37600283611ee8565b9150611b4282612526565b600282019050919050565b6000611b5a600283611ee8565b9150611b658261254f565b600282019050919050565b6000611b7d600183611ee8565b9150611b8882612578565b600182019050919050565b6000611ba0601d83611ed7565b9150611bab826125a1565b602082019050919050565b6000611bc3602583611ed7565b9150611bce826125ca565b604082019050919050565b611be281612173565b82525050565b6000611bf48284611a27565b915081905092915050565b6000611c0a82611ac1565b9150819050919050565b6000611c1f82611ae4565b9150819050919050565b6000611c3482611b07565b9150819050919050565b6000611c4982611b2a565b9150819050919050565b6000611c5e82611b4d565b9150819050919050565b6000611c7382611b70565b9150819050919050565b6000602082019050611c9260008301846119b2565b92915050565b6000602082019050611cad60008301846119a3565b92915050565b6000602082019050611cc860008301846119c1565b92915050565b6000604082019050611ce360008301846119c1565b8181036020830152611cf481611a7b565b905092915050565b6000604082019050611d1160008301846119c1565b8181036020830152611d2281611a9e565b905092915050565b6000602082019050611d3f60008301846119d0565b92915050565b6000606082019050611d5a60008301866119df565b611d6760208301856119df565b8181036040830152611d7981846119ee565b9050949350505050565b60006020820190508181036000830152611d9c81611a58565b9050919050565b60006020820190508181036000830152611dbc81611b93565b9050919050565b60006020820190508181036000830152611ddc81611bb6565b9050919050565b6000602082019050611df86000830184611bd9565b92915050565b6000611e08611e19565b9050611e148282612203565b919050565b6000604051905090565b600067ffffffffffffffff821115611e3e57611e3d6123b1565b5b602082029050919050565b600067ffffffffffffffff821115611e6457611e636123b1565b5b602082029050602081019050919050565b600067ffffffffffffffff821115611e9057611e8f6123b1565b5b602082029050919050565b600067ffffffffffffffff821115611eb657611eb56123b1565b5b611ebf826123f9565b9050602081019050919050565b600081519050919050565b600082825260208201905092915050565b600081905092915050565b6000611efe82612149565b9150611f0983612149565b9250817f7fffffffffffffffffffffffffffffffffffffffffffffffffffffffffffffff03831360008312151615611f4457611f436122c6565b5b817f8000000000000000000000000000000000000000000000000000000000000000038312600083121615611f7c57611f7b6122c6565b5b828201905092915050565b6000611f9282612173565b9150611f9d83612173565b9250827fffffffffffffffffffffffffffffffffffffffffffffffffffffffffffffffff03821115611fd257611fd16122c6565b5b828201905092915050565b6000611fe882612149565b9150611ff383612149565b925082612003576120026122f5565b5b600160000383147f80000000000000000000000000000000000000000000000000000000000000008314161561203c5761203b6122c6565b5b828205905092915050565b600061205282612173565b915061205d83612173565b92508261206d5761206c6122f5565b5b828204905092915050565b600061208382612173565b915061208e83612173565b9250817fffffffffffffffffffffffffffffffffffffffffffffffffffffffffffffffff04831182151516156120c7576120c66122c6565b5b828202905092915050565b60006120dd82612173565b91506120e883612173565b9250828210156120fb576120fa6122c6565b5b828203905092915050565b600061211182612153565b9050919050565b600061212382612153565b9050919050565b60008115159050919050565b600081905061214482612619565b919050565b6000819050919050565b600073ffffffffffffffffffffffffffffffffffffffff82169050919050565b6000819050919050565b600061218882612136565b9050919050565b82818337600083830152505050565b60005b838110156121bc5780820151818401526020810190506121a1565b838111156121cb576000848401525b50505050565b600060028204905060018216806121e957607f821691505b602082108114156121fd576121fc612353565b5b50919050565b61220c826123f9565b810181811067ffffffffffffffff8211171561222b5761222a6123b1565b5b80604052505050565b600061223f82612149565b91507f7fffffffffffffffffffffffffffffffffffffffffffffffffffffffffffffff821415612272576122716122c6565b5b600182019050919050565b600061228882612173565b91507fffffffffffffffffffffffffffffffffffffffffffffffffffffffffffffffff8214156122bb576122ba6122c6565b5b600182019050919050565b7f4e487b7100000000000000000000000000000000000000000000000000000000600052601160045260246000fd5b7f4e487b7100000000000000000000000000000000000000000000000000000000600052601260045260246000fd5b7f4e487b7100000000000000000000000000000000000000000000000000000000600052602160045260246000fd5b7f4e487b7100000000000000000000000000000000000000000000000000000000600052602260045260246000fd5b7f4e487b7100000000000000000000000000000000000000000000000000000000600052603260045260246000fd5b7f4e487b7100000000000000000000000000000000000000000000000000000000600052604160045260246000fd5b600080fd5b600080fd5b600080fd5b600080fd5b600080fd5b6000601f19601f8301169050919050565b7f43616e6e6f742063616c6c20746869732066756e6374696f6e2064697265637460008201527f6c792c207573652056656e646f72466163746f72792e00000000000000000000602082015250565b7f526566756e64696e67207061796d656e742e0000000000000000000000000000600082015250565b7f53656e64696e67207061796d656e742e00000000000000000000000000000000600082015250565b7f3d3d000000000000000000000000000000000000000000000000000000000000600082015250565b7f3c00000000000000000000000000000000000000000000000000000000000000600082015250565b7f213d000000000000000000000000000000000000000000000000000000000000600082015250565b7f3d3e000000000000000000000000000000000000000000000000000000000000600082015250565b7f3c3d000000000000000000000000000000000000000000000000000000000000600082015250565b7f3e00000000000000000000000000000000000000000000000000000000000000600082015250565b7f4e6f742077697468696e207468652062696c6c696e6720706572696f64000000600082015250565b7f436f6e7472616374206973206e6f7420696e207468652072657175697265642060008201527f7374617465000000000000000000000000000000000000000000000000000000602082015250565b6005811061262a57612629612324565b5b50565b61263681612106565b811461264157600080fd5b50565b61264d81612149565b811461265857600080fd5b50565b61266481612173565b811461266f57600080fd5b5056fea2646970667358221220f1697e7b2450756e559d84e0eeb3082a311dd97dea93a4c4b9af835c8c931ee564736f6c63430008060033",
      "opcodes": "PUSH1 0x80 PUSH1 0x40 MSTORE PUSH1 0x0 PUSH1 0x9 PUSH1 0x0 PUSH2 0x100 EXP DUP2 SLOAD DUP2 PUSH1 0xFF MUL NOT AND SWAP1 DUP4 PUSH1 0x4 DUP2 GT ISZERO PUSH3 0x2D JUMPI PUSH3 0x2C PUSH3 0x101 JUMP JUMPDEST JUMPDEST MUL OR SWAP1 SSTORE POP PUSH1 0x0 PUSH1 0x9 PUSH1 0x1 PUSH2 0x100 EXP DUP2 SLOAD DUP2 PUSH1 0xFF MUL NOT AND SWAP1 DUP4 ISZERO ISZERO MUL OR SWAP1 SSTORE POP PUSH1 0x3C DUP1 PUSH1 0x18 PUSH2 0x1900 PUSH3 0x61 SWAP2 SWAP1 PUSH3 0x90 JUMP JUMPDEST PUSH3 0x6D SWAP2 SWAP1 PUSH3 0x90 JUMP JUMPDEST PUSH3 0x79 SWAP2 SWAP1 PUSH3 0x90 JUMP JUMPDEST PUSH1 0xC SSTORE CALLVALUE DUP1 ISZERO PUSH3 0x89 JUMPI PUSH1 0x0 DUP1 REVERT JUMPDEST POP PUSH3 0x130 JUMP JUMPDEST PUSH1 0x0 PUSH3 0x9D DUP3 PUSH3 0xC8 JUMP JUMPDEST SWAP2 POP PUSH3 0xAA DUP4 PUSH3 0xC8 JUMP JUMPDEST SWAP3 POP DUP3 PUSH3 0xBD JUMPI PUSH3 0xBC PUSH3 0xD2 JUMP JUMPDEST JUMPDEST DUP3 DUP3 DIV SWAP1 POP SWAP3 SWAP2 POP POP JUMP JUMPDEST PUSH1 0x0 DUP2 SWAP1 POP SWAP2 SWAP1 POP JUMP JUMPDEST PUSH32 0x4E487B7100000000000000000000000000000000000000000000000000000000 PUSH1 0x0 MSTORE PUSH1 0x12 PUSH1 0x4 MSTORE PUSH1 0x24 PUSH1 0x0 REVERT JUMPDEST PUSH32 0x4E487B7100000000000000000000000000000000000000000000000000000000 PUSH1 0x0 MSTORE PUSH1 0x21 PUSH1 0x4 MSTORE PUSH1 0x24 PUSH1 0x0 REVERT JUMPDEST PUSH2 0x26A8 DUP1 PUSH3 0x140 PUSH1 0x0 CODECOPY PUSH1 0x0 RETURN INVALID PUSH1 0x80 PUSH1 0x40 MSTORE PUSH1 0x4 CALLDATASIZE LT PUSH2 0x14B JUMPI PUSH1 0x0 CALLDATALOAD PUSH1 0xE0 SHR DUP1 PUSH4 0x83197EF0 GT PUSH2 0xB6 JUMPI DUP1 PUSH4 0xAA8C217C GT PUSH2 0x6F JUMPI DUP1 PUSH4 0xAA8C217C EQ PUSH2 0x3F3 JUMPI DUP1 PUSH4 0xAE90B213 EQ PUSH2 0x41E JUMPI DUP1 PUSH4 0xC040E6B8 EQ PUSH2 0x449 JUMPI DUP1 PUSH4 0xF1B9EE24 EQ PUSH2 0x474 JUMPI DUP1 PUSH4 0xF851A440 EQ PUSH2 0x48B JUMPI DUP1 PUSH4 0xFADEAA59 EQ PUSH2 0x4B6 JUMPI PUSH2 0x14B JUMP JUMPDEST DUP1 PUSH4 0x83197EF0 EQ PUSH2 0x33C JUMPI DUP1 PUSH4 0x84AC4446 EQ PUSH2 0x353 JUMPI DUP1 PUSH4 0x904C6094 EQ PUSH2 0x35D JUMPI DUP1 PUSH4 0x9503FE3D EQ PUSH2 0x388 JUMPI DUP1 PUSH4 0x97C0BBA1 EQ PUSH2 0x39F JUMPI DUP1 PUSH4 0x9A730617 EQ PUSH2 0x3CA JUMPI PUSH2 0x14B JUMP JUMPDEST DUP1 PUSH4 0x3A40F3B2 GT PUSH2 0x108 JUMPI DUP1 PUSH4 0x3A40F3B2 EQ PUSH2 0x250 JUMPI DUP1 PUSH4 0x410459AD EQ PUSH2 0x27B JUMPI DUP1 PUSH4 0x43885314 EQ PUSH2 0x2A4 JUMPI DUP1 PUSH4 0x516DDE43 EQ PUSH2 0x2CF JUMPI DUP1 PUSH4 0x722713F7 EQ PUSH2 0x2FA JUMPI DUP1 PUSH4 0x760A8C2A EQ PUSH2 0x325 JUMPI PUSH2 0x14B JUMP JUMPDEST DUP1 PUSH4 0xB97BC86 EQ PUSH2 0x150 JUMPI DUP1 PUSH4 0x109E94CF EQ PUSH2 0x17B JUMPI DUP1 PUSH4 0x12424E3F EQ PUSH2 0x1A6 JUMPI DUP1 PUSH4 0x182541D2 EQ PUSH2 0x1BD JUMPI DUP1 PUSH4 0x21CE5AFD EQ PUSH2 0x1FC JUMPI DUP1 PUSH4 0x25419C24 EQ PUSH2 0x225 JUMPI JUMPDEST PUSH1 0x0 DUP1 REVERT JUMPDEST CALLVALUE DUP1 ISZERO PUSH2 0x15C JUMPI PUSH1 0x0 DUP1 REVERT JUMPDEST POP PUSH2 0x165 PUSH2 0x4DF JUMP JUMPDEST PUSH1 0x40 MLOAD PUSH2 0x172 SWAP2 SWAP1 PUSH2 0x1DE3 JUMP JUMPDEST PUSH1 0x40 MLOAD DUP1 SWAP2 SUB SWAP1 RETURN JUMPDEST CALLVALUE DUP1 ISZERO PUSH2 0x187 JUMPI PUSH1 0x0 DUP1 REVERT JUMPDEST POP PUSH2 0x190 PUSH2 0x4E5 JUMP JUMPDEST PUSH1 0x40 MLOAD PUSH2 0x19D SWAP2 SWAP1 PUSH2 0x1C98 JUMP JUMPDEST PUSH1 0x40 MLOAD DUP1 SWAP2 SUB SWAP1 RETURN JUMPDEST CALLVALUE DUP1 ISZERO PUSH2 0x1B2 JUMPI PUSH1 0x0 DUP1 REVERT JUMPDEST POP PUSH2 0x1BB PUSH2 0x50B JUMP JUMPDEST STOP JUMPDEST CALLVALUE DUP1 ISZERO PUSH2 0x1C9 JUMPI PUSH1 0x0 DUP1 REVERT JUMPDEST POP PUSH2 0x1E4 PUSH1 0x4 DUP1 CALLDATASIZE SUB DUP2 ADD SWAP1 PUSH2 0x1DF SWAP2 SWAP1 PUSH2 0x1976 JUMP JUMPDEST PUSH2 0x659 JUMP JUMPDEST PUSH1 0x40 MLOAD PUSH2 0x1F3 SWAP4 SWAP3 SWAP2 SWAP1 PUSH2 0x1D45 JUMP JUMPDEST PUSH1 0x40 MLOAD DUP1 SWAP2 SUB SWAP1 RETURN JUMPDEST CALLVALUE DUP1 ISZERO PUSH2 0x208 JUMPI PUSH1 0x0 DUP1 REVERT JUMPDEST POP PUSH2 0x223 PUSH1 0x4 DUP1 CALLDATASIZE SUB DUP2 ADD SWAP1 PUSH2 0x21E SWAP2 SWAP1 PUSH2 0x18A0 JUMP JUMPDEST PUSH2 0x71B JUMP JUMPDEST STOP JUMPDEST CALLVALUE DUP1 ISZERO PUSH2 0x231 JUMPI PUSH1 0x0 DUP1 REVERT JUMPDEST POP PUSH2 0x23A PUSH2 0x87D JUMP JUMPDEST PUSH1 0x40 MLOAD PUSH2 0x247 SWAP2 SWAP1 PUSH2 0x1DE3 JUMP JUMPDEST PUSH1 0x40 MLOAD DUP1 SWAP2 SUB SWAP1 RETURN JUMPDEST CALLVALUE DUP1 ISZERO PUSH2 0x25C JUMPI PUSH1 0x0 DUP1 REVERT JUMPDEST POP PUSH2 0x265 PUSH2 0x883 JUMP JUMPDEST PUSH1 0x40 MLOAD PUSH2 0x272 SWAP2 SWAP1 PUSH2 0x1CB3 JUMP JUMPDEST PUSH1 0x40 MLOAD DUP1 SWAP2 SUB SWAP1 RETURN JUMPDEST CALLVALUE DUP1 ISZERO PUSH2 0x287 JUMPI PUSH1 0x0 DUP1 REVERT JUMPDEST POP PUSH2 0x2A2 PUSH1 0x4 DUP1 CALLDATASIZE SUB DUP2 ADD SWAP1 PUSH2 0x29D SWAP2 SWAP1 PUSH2 0x17F8 JUMP JUMPDEST PUSH2 0x896 JUMP JUMPDEST STOP JUMPDEST CALLVALUE DUP1 ISZERO PUSH2 0x2B0 JUMPI PUSH1 0x0 DUP1 REVERT JUMPDEST POP PUSH2 0x2B9 PUSH2 0x8DA JUMP JUMPDEST PUSH1 0x40 MLOAD PUSH2 0x2C6 SWAP2 SWAP1 PUSH2 0x1DE3 JUMP JUMPDEST PUSH1 0x40 MLOAD DUP1 SWAP2 SUB SWAP1 RETURN JUMPDEST CALLVALUE DUP1 ISZERO PUSH2 0x2DB JUMPI PUSH1 0x0 DUP1 REVERT JUMPDEST POP PUSH2 0x2E4 PUSH2 0x8E0 JUMP JUMPDEST PUSH1 0x40 MLOAD PUSH2 0x2F1 SWAP2 SWAP1 PUSH2 0x1DE3 JUMP JUMPDEST PUSH1 0x40 MLOAD DUP1 SWAP2 SUB SWAP1 RETURN JUMPDEST CALLVALUE DUP1 ISZERO PUSH2 0x306 JUMPI PUSH1 0x0 DUP1 REVERT JUMPDEST POP PUSH2 0x30F PUSH2 0x8E6 JUMP JUMPDEST PUSH1 0x40 MLOAD PUSH2 0x31C SWAP2 SWAP1 PUSH2 0x1DE3 JUMP JUMPDEST PUSH1 0x40 MLOAD DUP1 SWAP2 SUB SWAP1 RETURN JUMPDEST CALLVALUE DUP1 ISZERO PUSH2 0x331 JUMPI PUSH1 0x0 DUP1 REVERT JUMPDEST POP PUSH2 0x33A PUSH2 0x8EE JUMP JUMPDEST STOP JUMPDEST CALLVALUE DUP1 ISZERO PUSH2 0x348 JUMPI PUSH1 0x0 DUP1 REVERT JUMPDEST POP PUSH2 0x351 PUSH2 0x993 JUMP JUMPDEST STOP JUMPDEST PUSH2 0x35B PUSH2 0xA45 JUMP JUMPDEST STOP JUMPDEST CALLVALUE DUP1 ISZERO PUSH2 0x369 JUMPI PUSH1 0x0 DUP1 REVERT JUMPDEST POP PUSH2 0x372 PUSH2 0xB38 JUMP JUMPDEST PUSH1 0x40 MLOAD PUSH2 0x37F SWAP2 SWAP1 PUSH2 0x1DE3 JUMP JUMPDEST PUSH1 0x40 MLOAD DUP1 SWAP2 SUB SWAP1 RETURN JUMPDEST CALLVALUE DUP1 ISZERO PUSH2 0x394 JUMPI PUSH1 0x0 DUP1 REVERT JUMPDEST POP PUSH2 0x39D PUSH2 0xB3E JUMP JUMPDEST STOP JUMPDEST CALLVALUE DUP1 ISZERO PUSH2 0x3AB JUMPI PUSH1 0x0 DUP1 REVERT JUMPDEST POP PUSH2 0x3B4 PUSH2 0xC20 JUMP JUMPDEST PUSH1 0x40 MLOAD PUSH2 0x3C1 SWAP2 SWAP1 PUSH2 0x1CB3 JUMP JUMPDEST PUSH1 0x40 MLOAD DUP1 SWAP2 SUB SWAP1 RETURN JUMPDEST CALLVALUE DUP1 ISZERO PUSH2 0x3D6 JUMPI PUSH1 0x0 DUP1 REVERT JUMPDEST POP PUSH2 0x3F1 PUSH1 0x4 DUP1 CALLDATASIZE SUB DUP2 ADD SWAP1 PUSH2 0x3EC SWAP2 SWAP1 PUSH2 0x1825 JUMP JUMPDEST PUSH2 0xC33 JUMP JUMPDEST STOP JUMPDEST CALLVALUE DUP1 ISZERO PUSH2 0x3FF JUMPI PUSH1 0x0 DUP1 REVERT JUMPDEST POP PUSH2 0x408 PUSH2 0xD0B JUMP JUMPDEST PUSH1 0x40 MLOAD PUSH2 0x415 SWAP2 SWAP1 PUSH2 0x1DE3 JUMP JUMPDEST PUSH1 0x40 MLOAD DUP1 SWAP2 SUB SWAP1 RETURN JUMPDEST CALLVALUE DUP1 ISZERO PUSH2 0x42A JUMPI PUSH1 0x0 DUP1 REVERT JUMPDEST POP PUSH2 0x433 PUSH2 0xD11 JUMP JUMPDEST PUSH1 0x40 MLOAD PUSH2 0x440 SWAP2 SWAP1 PUSH2 0x1C98 JUMP JUMPDEST PUSH1 0x40 MLOAD DUP1 SWAP2 SUB SWAP1 RETURN JUMPDEST CALLVALUE DUP1 ISZERO PUSH2 0x455 JUMPI PUSH1 0x0 DUP1 REVERT JUMPDEST POP PUSH2 0x45E PUSH2 0xD37 JUMP JUMPDEST PUSH1 0x40 MLOAD PUSH2 0x46B SWAP2 SWAP1 PUSH2 0x1D2A JUMP JUMPDEST PUSH1 0x40 MLOAD DUP1 SWAP2 SUB SWAP1 RETURN JUMPDEST CALLVALUE DUP1 ISZERO PUSH2 0x480 JUMPI PUSH1 0x0 DUP1 REVERT JUMPDEST POP PUSH2 0x489 PUSH2 0xD4A JUMP JUMPDEST STOP JUMPDEST CALLVALUE DUP1 ISZERO PUSH2 0x497 JUMPI PUSH1 0x0 DUP1 REVERT JUMPDEST POP PUSH2 0x4A0 PUSH2 0xDEF JUMP JUMPDEST PUSH1 0x40 MLOAD PUSH2 0x4AD SWAP2 SWAP1 PUSH2 0x1C7D JUMP JUMPDEST PUSH1 0x40 MLOAD DUP1 SWAP2 SUB SWAP1 RETURN JUMPDEST CALLVALUE DUP1 ISZERO PUSH2 0x4C2 JUMPI PUSH1 0x0 DUP1 REVERT JUMPDEST POP PUSH2 0x4DD PUSH1 0x4 DUP1 CALLDATASIZE SUB DUP2 ADD SWAP1 PUSH2 0x4D8 SWAP2 SWAP1 PUSH2 0x18E9 JUMP JUMPDEST PUSH2 0xE13 JUMP JUMPDEST STOP JUMPDEST PUSH1 0x3 SLOAD DUP2 JUMP JUMPDEST PUSH1 0x1 PUSH1 0x0 SWAP1 SLOAD SWAP1 PUSH2 0x100 EXP SWAP1 DIV PUSH20 0xFFFFFFFFFFFFFFFFFFFFFFFFFFFFFFFFFFFFFFFF AND DUP2 JUMP JUMPDEST PUSH1 0x1 DUP1 PUSH1 0x4 DUP2 GT ISZERO PUSH2 0x520 JUMPI PUSH2 0x51F PUSH2 0x2324 JUMP JUMPDEST JUMPDEST PUSH1 0x9 PUSH1 0x0 SWAP1 SLOAD SWAP1 PUSH2 0x100 EXP SWAP1 DIV PUSH1 0xFF AND PUSH1 0x4 DUP2 GT ISZERO PUSH2 0x542 JUMPI PUSH2 0x541 PUSH2 0x2324 JUMP JUMPDEST JUMPDEST EQ PUSH2 0x582 JUMPI PUSH1 0x40 MLOAD PUSH32 0x8C379A000000000000000000000000000000000000000000000000000000000 DUP2 MSTORE PUSH1 0x4 ADD PUSH2 0x579 SWAP1 PUSH2 0x1DC3 JUMP JUMPDEST PUSH1 0x40 MLOAD DUP1 SWAP2 SUB SWAP1 REVERT JUMPDEST PUSH1 0x0 DUP1 SLOAD SWAP1 PUSH2 0x100 EXP SWAP1 DIV PUSH20 0xFFFFFFFFFFFFFFFFFFFFFFFFFFFFFFFFFFFFFFFF AND PUSH20 0xFFFFFFFFFFFFFFFFFFFFFFFFFFFFFFFFFFFFFFFF AND CALLER PUSH20 0xFFFFFFFFFFFFFFFFFFFFFFFFFFFFFFFFFFFFFFFF AND EQ PUSH2 0x610 JUMPI PUSH1 0x40 MLOAD PUSH32 0x8C379A000000000000000000000000000000000000000000000000000000000 DUP2 MSTORE PUSH1 0x4 ADD PUSH2 0x607 SWAP1 PUSH2 0x1D83 JUMP JUMPDEST PUSH1 0x40 MLOAD DUP1 SWAP2 SUB SWAP1 REVERT JUMPDEST PUSH1 0x1 PUSH1 0x2 PUSH1 0x14 PUSH2 0x100 EXP DUP2 SLOAD DUP2 PUSH1 0xFF MUL NOT AND SWAP1 DUP4 ISZERO ISZERO MUL OR SWAP1 SSTORE POP PUSH1 0x3 PUSH1 0x9 PUSH1 0x0 PUSH2 0x100 EXP DUP2 SLOAD DUP2 PUSH1 0xFF MUL NOT AND SWAP1 DUP4 PUSH1 0x4 DUP2 GT ISZERO PUSH2 0x651 JUMPI PUSH2 0x650 PUSH2 0x2324 JUMP JUMPDEST JUMPDEST MUL OR SWAP1 SSTORE POP POP JUMP JUMPDEST PUSH1 0xA DUP2 DUP2 SLOAD DUP2 LT PUSH2 0x669 JUMPI PUSH1 0x0 DUP1 REVERT JUMPDEST SWAP1 PUSH1 0x0 MSTORE PUSH1 0x20 PUSH1 0x0 KECCAK256 SWAP1 PUSH1 0x3 MUL ADD PUSH1 0x0 SWAP2 POP SWAP1 POP DUP1 PUSH1 0x0 ADD SLOAD SWAP1 DUP1 PUSH1 0x1 ADD SLOAD SWAP1 DUP1 PUSH1 0x2 ADD DUP1 SLOAD PUSH2 0x698 SWAP1 PUSH2 0x21D1 JUMP JUMPDEST DUP1 PUSH1 0x1F ADD PUSH1 0x20 DUP1 SWAP2 DIV MUL PUSH1 0x20 ADD PUSH1 0x40 MLOAD SWAP1 DUP2 ADD PUSH1 0x40 MSTORE DUP1 SWAP3 SWAP2 SWAP1 DUP2 DUP2 MSTORE PUSH1 0x20 ADD DUP3 DUP1 SLOAD PUSH2 0x6C4 SWAP1 PUSH2 0x21D1 JUMP JUMPDEST DUP1 ISZERO PUSH2 0x711 JUMPI DUP1 PUSH1 0x1F LT PUSH2 0x6E6 JUMPI PUSH2 0x100 DUP1 DUP4 SLOAD DIV MUL DUP4 MSTORE SWAP2 PUSH1 0x20 ADD SWAP2 PUSH2 0x711 JUMP JUMPDEST DUP3 ADD SWAP2 SWAP1 PUSH1 0x0 MSTORE PUSH1 0x20 PUSH1 0x0 KECCAK256 SWAP1 JUMPDEST DUP2 SLOAD DUP2 MSTORE SWAP1 PUSH1 0x1 ADD SWAP1 PUSH1 0x20 ADD DUP1 DUP4 GT PUSH2 0x6F4 JUMPI DUP3 SWAP1 SUB PUSH1 0x1F AND DUP3 ADD SWAP2 JUMPDEST POP POP POP POP POP SWAP1 POP DUP4 JUMP JUMPDEST PUSH1 0x3 DUP1 PUSH1 0x4 DUP2 GT ISZERO PUSH2 0x730 JUMPI PUSH2 0x72F PUSH2 0x2324 JUMP JUMPDEST JUMPDEST PUSH1 0x9 PUSH1 0x0 SWAP1 SLOAD SWAP1 PUSH2 0x100 EXP SWAP1 DIV PUSH1 0xFF AND PUSH1 0x4 DUP2 GT ISZERO PUSH2 0x752 JUMPI PUSH2 0x751 PUSH2 0x2324 JUMP JUMPDEST JUMPDEST EQ PUSH2 0x792 JUMPI PUSH1 0x40 MLOAD PUSH32 0x8C379A000000000000000000000000000000000000000000000000000000000 DUP2 MSTORE PUSH1 0x4 ADD PUSH2 0x789 SWAP1 PUSH2 0x1DC3 JUMP JUMPDEST PUSH1 0x40 MLOAD DUP1 SWAP2 SUB SWAP1 REVERT JUMPDEST PUSH1 0x7 SLOAD NUMBER GT ISZERO PUSH2 0x7A9 JUMPI PUSH2 0x7A4 PUSH2 0xFBC JUMP JUMPDEST PUSH2 0x879 JUMP JUMPDEST PUSH1 0x6 SLOAD NUMBER LT ISZERO DUP1 ISZERO PUSH2 0x7BD JUMPI POP PUSH1 0x7 SLOAD NUMBER GT ISZERO JUMPDEST PUSH2 0x7FC JUMPI PUSH1 0x40 MLOAD PUSH32 0x8C379A000000000000000000000000000000000000000000000000000000000 DUP2 MSTORE PUSH1 0x4 ADD PUSH2 0x7F3 SWAP1 PUSH2 0x1DA3 JUMP JUMPDEST PUSH1 0x40 MLOAD DUP1 SWAP2 SUB SWAP1 REVERT JUMPDEST PUSH1 0x0 JUMPDEST DUP3 MLOAD DUP2 LT ISZERO PUSH2 0x85F JUMPI DUP3 DUP2 DUP2 MLOAD DUP2 LT PUSH2 0x81B JUMPI PUSH2 0x81A PUSH2 0x2382 JUMP JUMPDEST JUMPDEST PUSH1 0x20 MUL PUSH1 0x20 ADD ADD MLOAD PUSH1 0xD PUSH1 0x0 DUP4 DUP2 MSTORE PUSH1 0x20 ADD SWAP1 DUP2 MSTORE PUSH1 0x20 ADD PUSH1 0x0 KECCAK256 PUSH1 0x0 DUP3 DUP3 SLOAD PUSH2 0x845 SWAP2 SWAP1 PUSH2 0x1EF3 JUMP JUMPDEST SWAP3 POP POP DUP2 SWAP1 SSTORE POP DUP1 DUP1 PUSH2 0x857 SWAP1 PUSH2 0x227D JUMP JUMPDEST SWAP2 POP POP PUSH2 0x7FF JUMP JUMPDEST POP PUSH1 0xE PUSH1 0x0 DUP2 SLOAD DUP1 SWAP3 SWAP2 SWAP1 PUSH2 0x873 SWAP1 PUSH2 0x2234 JUMP JUMPDEST SWAP2 SWAP1 POP SSTORE POP JUMPDEST POP POP JUMP JUMPDEST PUSH1 0x6 SLOAD DUP2 JUMP JUMPDEST PUSH1 0x9 PUSH1 0x1 SWAP1 SLOAD SWAP1 PUSH2 0x100 EXP SWAP1 DIV PUSH1 0xFF AND DUP2 JUMP JUMPDEST DUP1 PUSH1 0x2 PUSH1 0x0 PUSH2 0x100 EXP DUP2 SLOAD DUP2 PUSH20 0xFFFFFFFFFFFFFFFFFFFFFFFFFFFFFFFFFFFFFFFF MUL NOT AND SWAP1 DUP4 PUSH20 0xFFFFFFFFFFFFFFFFFFFFFFFFFFFFFFFFFFFFFFFF AND MUL OR SWAP1 SSTORE POP POP JUMP JUMPDEST PUSH1 0x7 SLOAD DUP2 JUMP JUMPDEST PUSH1 0x4 SLOAD DUP2 JUMP JUMPDEST PUSH1 0x0 SELFBALANCE SWAP1 POP SWAP1 JUMP JUMPDEST PUSH1 0x2 DUP1 PUSH1 0x4 DUP2 GT ISZERO PUSH2 0x903 JUMPI PUSH2 0x902 PUSH2 0x2324 JUMP JUMPDEST JUMPDEST PUSH1 0x9 PUSH1 0x0 SWAP1 SLOAD SWAP1 PUSH2 0x100 EXP SWAP1 DIV PUSH1 0xFF AND PUSH1 0x4 DUP2 GT ISZERO PUSH2 0x925 JUMPI PUSH2 0x924 PUSH2 0x2324 JUMP JUMPDEST JUMPDEST EQ PUSH2 0x965 JUMPI PUSH1 0x40 MLOAD PUSH32 0x8C379A000000000000000000000000000000000000000000000000000000000 DUP2 MSTORE PUSH1 0x4 ADD PUSH2 0x95C SWAP1 PUSH2 0x1DC3 JUMP JUMPDEST PUSH1 0x40 MLOAD DUP1 SWAP2 SUB SWAP1 REVERT JUMPDEST PUSH1 0x3 PUSH1 0x9 PUSH1 0x0 PUSH2 0x100 EXP DUP2 SLOAD DUP2 PUSH1 0xFF MUL NOT AND SWAP1 DUP4 PUSH1 0x4 DUP2 GT ISZERO PUSH2 0x98B JUMPI PUSH2 0x98A PUSH2 0x2324 JUMP JUMPDEST JUMPDEST MUL OR SWAP1 SSTORE POP POP JUMP JUMPDEST PUSH1 0x2 DUP1 PUSH1 0x4 DUP2 GT ISZERO PUSH2 0x9A8 JUMPI PUSH2 0x9A7 PUSH2 0x2324 JUMP JUMPDEST JUMPDEST PUSH1 0x9 PUSH1 0x0 SWAP1 SLOAD SWAP1 PUSH2 0x100 EXP SWAP1 DIV PUSH1 0xFF AND PUSH1 0x4 DUP2 GT ISZERO PUSH2 0x9CA JUMPI PUSH2 0x9C9 PUSH2 0x2324 JUMP JUMPDEST JUMPDEST EQ PUSH2 0xA0A JUMPI PUSH1 0x40 MLOAD PUSH32 0x8C379A000000000000000000000000000000000000000000000000000000000 DUP2 MSTORE PUSH1 0x4 ADD PUSH2 0xA01 SWAP1 PUSH2 0x1DC3 JUMP JUMPDEST PUSH1 0x40 MLOAD DUP1 SWAP2 SUB SWAP1 REVERT JUMPDEST PUSH1 0x1 PUSH1 0x0 SWAP1 SLOAD SWAP1 PUSH2 0x100 EXP SWAP1 DIV PUSH20 0xFFFFFFFFFFFFFFFFFFFFFFFFFFFFFFFFFFFFFFFF AND PUSH20 0xFFFFFFFFFFFFFFFFFFFFFFFFFFFFFFFFFFFFFFFF AND SELFDESTRUCT JUMPDEST PUSH1 0x3 DUP1 PUSH1 0x4 DUP2 GT ISZERO PUSH2 0xA5A JUMPI PUSH2 0xA59 PUSH2 0x2324 JUMP JUMPDEST JUMPDEST PUSH1 0x9 PUSH1 0x0 SWAP1 SLOAD SWAP1 PUSH2 0x100 EXP SWAP1 DIV PUSH1 0xFF AND PUSH1 0x4 DUP2 GT ISZERO PUSH2 0xA7C JUMPI PUSH2 0xA7B PUSH2 0x2324 JUMP JUMPDEST JUMPDEST EQ PUSH2 0xABC JUMPI PUSH1 0x40 MLOAD PUSH32 0x8C379A000000000000000000000000000000000000000000000000000000000 DUP2 MSTORE PUSH1 0x4 ADD PUSH2 0xAB3 SWAP1 PUSH2 0x1DC3 JUMP JUMPDEST PUSH1 0x40 MLOAD DUP1 SWAP2 SUB SWAP1 REVERT JUMPDEST PUSH1 0x7 SLOAD NUMBER GT ISZERO PUSH2 0xAD3 JUMPI PUSH2 0xACE PUSH2 0xFBC JUMP JUMPDEST PUSH2 0xB35 JUMP JUMPDEST PUSH1 0x6 SLOAD NUMBER LT ISZERO DUP1 ISZERO PUSH2 0xAE7 JUMPI POP PUSH1 0x7 SLOAD NUMBER GT ISZERO JUMPDEST PUSH2 0xB26 JUMPI PUSH1 0x40 MLOAD PUSH32 0x8C379A000000000000000000000000000000000000000000000000000000000 DUP2 MSTORE PUSH1 0x4 ADD PUSH2 0xB1D SWAP1 PUSH2 0x1DA3 JUMP JUMPDEST PUSH1 0x40 MLOAD DUP1 SWAP2 SUB SWAP1 REVERT JUMPDEST PUSH1 0x5 SLOAD CALLVALUE EQ PUSH2 0xB34 JUMPI PUSH1 0x0 DUP1 REVERT JUMPDEST JUMPDEST POP JUMP JUMPDEST PUSH1 0x8 SLOAD DUP2 JUMP JUMPDEST PUSH1 0x0 DUP1 PUSH1 0x4 DUP2 GT ISZERO PUSH2 0xB53 JUMPI PUSH2 0xB52 PUSH2 0x2324 JUMP JUMPDEST JUMPDEST PUSH1 0x9 PUSH1 0x0 SWAP1 SLOAD SWAP1 PUSH2 0x100 EXP SWAP1 DIV PUSH1 0xFF AND PUSH1 0x4 DUP2 GT ISZERO PUSH2 0xB75 JUMPI PUSH2 0xB74 PUSH2 0x2324 JUMP JUMPDEST JUMPDEST EQ PUSH2 0xBB5 JUMPI PUSH1 0x40 MLOAD PUSH32 0x8C379A000000000000000000000000000000000000000000000000000000000 DUP2 MSTORE PUSH1 0x4 ADD PUSH2 0xBAC SWAP1 PUSH2 0x1DC3 JUMP JUMPDEST PUSH1 0x40 MLOAD DUP1 SWAP2 SUB SWAP1 REVERT JUMPDEST PUSH1 0x1 PUSH1 0x9 PUSH1 0x0 PUSH2 0x100 EXP DUP2 SLOAD DUP2 PUSH1 0xFF MUL NOT AND SWAP1 DUP4 PUSH1 0x4 DUP2 GT ISZERO PUSH2 0xBDB JUMPI PUSH2 0xBDA PUSH2 0x2324 JUMP JUMPDEST JUMPDEST MUL OR SWAP1 SSTORE POP PUSH1 0x0 JUMPDEST PUSH1 0xA DUP1 SLOAD SWAP1 POP DUP2 LT ISZERO PUSH2 0xC1C JUMPI PUSH1 0x0 PUSH1 0xD PUSH1 0x0 DUP4 DUP2 MSTORE PUSH1 0x20 ADD SWAP1 DUP2 MSTORE PUSH1 0x20 ADD PUSH1 0x0 KECCAK256 DUP2 SWAP1 SSTORE POP DUP1 DUP1 PUSH2 0xC14 SWAP1 PUSH2 0x227D JUMP JUMPDEST SWAP2 POP POP PUSH2 0xBE3 JUMP JUMPDEST POP POP JUMP JUMPDEST PUSH1 0x2 PUSH1 0x14 SWAP1 SLOAD SWAP1 PUSH2 0x100 EXP SWAP1 DIV PUSH1 0xFF AND DUP2 JUMP JUMPDEST CALLER PUSH1 0x0 DUP1 PUSH2 0x100 EXP DUP2 SLOAD DUP2 PUSH20 0xFFFFFFFFFFFFFFFFFFFFFFFFFFFFFFFFFFFFFFFF MUL NOT AND SWAP1 DUP4 PUSH20 0xFFFFFFFFFFFFFFFFFFFFFFFFFFFFFFFFFFFFFFFF AND MUL OR SWAP1 SSTORE POP DUP5 PUSH1 0x1 PUSH1 0x0 PUSH2 0x100 EXP DUP2 SLOAD DUP2 PUSH20 0xFFFFFFFFFFFFFFFFFFFFFFFFFFFFFFFFFFFFFFFF MUL NOT AND SWAP1 DUP4 PUSH20 0xFFFFFFFFFFFFFFFFFFFFFFFFFFFFFFFFFFFFFFFF AND MUL OR SWAP1 SSTORE POP DUP4 PUSH1 0x4 DUP2 SWAP1 SSTORE POP DUP3 PUSH1 0x3 DUP2 SWAP1 SSTORE POP PUSH2 0xCCB DUP4 PUSH2 0x11D4 JUMP JUMPDEST PUSH1 0x6 DUP2 SWAP1 SSTORE POP PUSH2 0xCE8 PUSH3 0x278D00 DUP5 PUSH2 0xCE3 SWAP2 SWAP1 PUSH2 0x1F87 JUMP JUMPDEST PUSH2 0x11D4 JUMP JUMPDEST PUSH1 0x7 DUP2 SWAP1 SSTORE POP DUP2 PUSH1 0x8 DUP2 SWAP1 SSTORE POP DUP1 PUSH1 0x5 DUP2 SWAP1 SSTORE POP PUSH2 0xD04 PUSH2 0x1206 JUMP JUMPDEST POP POP POP POP POP JUMP JUMPDEST PUSH1 0x5 SLOAD DUP2 JUMP JUMPDEST PUSH1 0x2 PUSH1 0x0 SWAP1 SLOAD SWAP1 PUSH2 0x100 EXP SWAP1 DIV PUSH20 0xFFFFFFFFFFFFFFFFFFFFFFFFFFFFFFFFFFFFFFFF AND DUP2 JUMP JUMPDEST PUSH1 0x9 PUSH1 0x0 SWAP1 SLOAD SWAP1 PUSH2 0x100 EXP SWAP1 DIV PUSH1 0xFF AND DUP2 JUMP JUMPDEST PUSH1 0x3 DUP1 PUSH1 0x4 DUP2 GT ISZERO PUSH2 0xD5F JUMPI PUSH2 0xD5E PUSH2 0x2324 JUMP JUMPDEST JUMPDEST PUSH1 0x9 PUSH1 0x0 SWAP1 SLOAD SWAP1 PUSH2 0x100 EXP SWAP1 DIV PUSH1 0xFF AND PUSH1 0x4 DUP2 GT ISZERO PUSH2 0xD81 JUMPI PUSH2 0xD80 PUSH2 0x2324 JUMP JUMPDEST JUMPDEST EQ PUSH2 0xDC1 JUMPI PUSH1 0x40 MLOAD PUSH32 0x8C379A000000000000000000000000000000000000000000000000000000000 DUP2 MSTORE PUSH1 0x4 ADD PUSH2 0xDB8 SWAP1 PUSH2 0x1DC3 JUMP JUMPDEST PUSH1 0x40 MLOAD DUP1 SWAP2 SUB SWAP1 REVERT JUMPDEST PUSH1 0x2 PUSH1 0x9 PUSH1 0x0 PUSH2 0x100 EXP DUP2 SLOAD DUP2 PUSH1 0xFF MUL NOT AND SWAP1 DUP4 PUSH1 0x4 DUP2 GT ISZERO PUSH2 0xDE7 JUMPI PUSH2 0xDE6 PUSH2 0x2324 JUMP JUMPDEST JUMPDEST MUL OR SWAP1 SSTORE POP POP JUMP JUMPDEST PUSH1 0x0 DUP1 SLOAD SWAP1 PUSH2 0x100 EXP SWAP1 DIV PUSH20 0xFFFFFFFFFFFFFFFFFFFFFFFFFFFFFFFFFFFFFFFF AND DUP2 JUMP JUMPDEST PUSH1 0x0 DUP1 PUSH1 0x4 DUP2 GT ISZERO PUSH2 0xE28 JUMPI PUSH2 0xE27 PUSH2 0x2324 JUMP JUMPDEST JUMPDEST PUSH1 0x9 PUSH1 0x0 SWAP1 SLOAD SWAP1 PUSH2 0x100 EXP SWAP1 DIV PUSH1 0xFF AND PUSH1 0x4 DUP2 GT ISZERO PUSH2 0xE4A JUMPI PUSH2 0xE49 PUSH2 0x2324 JUMP JUMPDEST JUMPDEST EQ PUSH2 0xE8A JUMPI PUSH1 0x40 MLOAD PUSH32 0x8C379A000000000000000000000000000000000000000000000000000000000 DUP2 MSTORE PUSH1 0x4 ADD PUSH2 0xE81 SWAP1 PUSH2 0x1DC3 JUMP JUMPDEST PUSH1 0x40 MLOAD DUP1 SWAP2 SUB SWAP1 REVERT JUMPDEST PUSH1 0x0 JUMPDEST PUSH1 0x8 DUP2 LT ISZERO PUSH2 0xFB4 JUMPI PUSH1 0x0 DUP6 DUP3 PUSH1 0x8 DUP2 LT PUSH2 0xEAB JUMPI PUSH2 0xEAA PUSH2 0x2382 JUMP JUMPDEST JUMPDEST PUSH1 0x20 MUL ADD MLOAD MLOAD EQ ISZERO PUSH2 0xEC5 JUMPI PUSH2 0xEBF PUSH2 0xB3E JUMP JUMPDEST POP PUSH2 0xFB6 JUMP JUMPDEST PUSH1 0xA PUSH1 0x40 MLOAD DUP1 PUSH1 0x60 ADD PUSH1 0x40 MSTORE DUP1 DUP7 DUP5 PUSH1 0x8 DUP2 LT PUSH2 0xEE5 JUMPI PUSH2 0xEE4 PUSH2 0x2382 JUMP JUMPDEST JUMPDEST PUSH1 0x20 MUL ADD MLOAD DUP2 MSTORE PUSH1 0x20 ADD PUSH1 0xB DUP7 DUP6 PUSH1 0x8 DUP2 LT PUSH2 0xF04 JUMPI PUSH2 0xF03 PUSH2 0x2382 JUMP JUMPDEST JUMPDEST PUSH1 0x20 MUL ADD MLOAD PUSH1 0x40 MLOAD PUSH2 0xF16 SWAP2 SWAP1 PUSH2 0x1BE8 JUMP JUMPDEST SWAP1 DUP2 MSTORE PUSH1 0x20 ADD PUSH1 0x40 MLOAD DUP1 SWAP2 SUB SWAP1 KECCAK256 SLOAD DUP2 MSTORE PUSH1 0x20 ADD DUP8 DUP5 PUSH1 0x8 DUP2 LT PUSH2 0xF3D JUMPI PUSH2 0xF3C PUSH2 0x2382 JUMP JUMPDEST JUMPDEST PUSH1 0x20 MUL ADD MLOAD DUP2 MSTORE POP SWAP1 DUP1 PUSH1 0x1 DUP2 SLOAD ADD DUP1 DUP3 SSTORE DUP1 SWAP2 POP POP PUSH1 0x1 SWAP1 SUB SWAP1 PUSH1 0x0 MSTORE PUSH1 0x20 PUSH1 0x0 KECCAK256 SWAP1 PUSH1 0x3 MUL ADD PUSH1 0x0 SWAP1 SWAP2 SWAP1 SWAP2 SWAP1 SWAP2 POP PUSH1 0x0 DUP3 ADD MLOAD DUP2 PUSH1 0x0 ADD SSTORE PUSH1 0x20 DUP3 ADD MLOAD DUP2 PUSH1 0x1 ADD SSTORE PUSH1 0x40 DUP3 ADD MLOAD DUP2 PUSH1 0x2 ADD SWAP1 DUP1 MLOAD SWAP1 PUSH1 0x20 ADD SWAP1 PUSH2 0xF9E SWAP3 SWAP2 SWAP1 PUSH2 0x14C6 JUMP JUMPDEST POP POP POP DUP1 DUP1 PUSH2 0xFAC SWAP1 PUSH2 0x227D JUMP JUMPDEST SWAP2 POP POP PUSH2 0xE8D JUMP JUMPDEST POP JUMPDEST POP POP POP POP JUMP JUMPDEST PUSH1 0x3 DUP1 PUSH1 0x4 DUP2 GT ISZERO PUSH2 0xFD1 JUMPI PUSH2 0xFD0 PUSH2 0x2324 JUMP JUMPDEST JUMPDEST PUSH1 0x9 PUSH1 0x0 SWAP1 SLOAD SWAP1 PUSH2 0x100 EXP SWAP1 DIV PUSH1 0xFF AND PUSH1 0x4 DUP2 GT ISZERO PUSH2 0xFF3 JUMPI PUSH2 0xFF2 PUSH2 0x2324 JUMP JUMPDEST JUMPDEST EQ PUSH2 0x1033 JUMPI PUSH1 0x40 MLOAD PUSH32 0x8C379A000000000000000000000000000000000000000000000000000000000 DUP2 MSTORE PUSH1 0x4 ADD PUSH2 0x102A SWAP1 PUSH2 0x1DC3 JUMP JUMPDEST PUSH1 0x40 MLOAD DUP1 SWAP2 SUB SWAP1 REVERT JUMPDEST PUSH1 0x0 JUMPDEST PUSH1 0xA DUP1 SLOAD SWAP1 POP DUP2 LT ISZERO PUSH2 0x114F JUMPI PUSH1 0x0 PUSH1 0xA DUP3 DUP2 SLOAD DUP2 LT PUSH2 0x1059 JUMPI PUSH2 0x1058 PUSH2 0x2382 JUMP JUMPDEST JUMPDEST SWAP1 PUSH1 0x0 MSTORE PUSH1 0x20 PUSH1 0x0 KECCAK256 SWAP1 PUSH1 0x3 MUL ADD PUSH1 0x1 ADD SLOAD SWAP1 POP PUSH1 0x0 PUSH1 0xA DUP4 DUP2 SLOAD DUP2 LT PUSH2 0x1083 JUMPI PUSH2 0x1082 PUSH2 0x2382 JUMP JUMPDEST JUMPDEST SWAP1 PUSH1 0x0 MSTORE PUSH1 0x20 PUSH1 0x0 KECCAK256 SWAP1 PUSH1 0x3 MUL ADD PUSH1 0x0 ADD SLOAD SWAP1 POP PUSH1 0x0 PUSH1 0xE SLOAD PUSH1 0xD PUSH1 0x0 DUP7 DUP2 MSTORE PUSH1 0x20 ADD SWAP1 DUP2 MSTORE PUSH1 0x20 ADD PUSH1 0x0 KECCAK256 SLOAD PUSH2 0x10BA SWAP2 SWAP1 PUSH2 0x1FDD JUMP JUMPDEST SWAP1 POP PUSH2 0x10C7 DUP4 DUP3 DUP5 PUSH2 0x12D4 JUMP JUMPDEST PUSH2 0x1139 JUMPI PUSH2 0x10D3 PUSH2 0x135E JUMP JUMPDEST CALLER PUSH20 0xFFFFFFFFFFFFFFFFFFFFFFFFFFFFFFFFFFFFFFFF AND PUSH32 0xA84226BF2D14BDE3FAC454F52EAEAB63AAEB1934DA88F9263DD4FF7DD12ACF71 PUSH1 0x9 PUSH1 0x1 SWAP1 SLOAD SWAP1 PUSH2 0x100 EXP SWAP1 DIV PUSH1 0xFF AND PUSH1 0x40 MLOAD PUSH2 0x1128 SWAP2 SWAP1 PUSH2 0x1CCE JUMP JUMPDEST PUSH1 0x40 MLOAD DUP1 SWAP2 SUB SWAP1 LOG2 POP POP POP POP PUSH2 0x11D1 JUMP JUMPDEST POP POP POP DUP1 DUP1 PUSH2 0x1147 SWAP1 PUSH2 0x227D JUMP JUMPDEST SWAP2 POP POP PUSH2 0x1036 JUMP JUMPDEST POP PUSH1 0x1 PUSH1 0x9 PUSH1 0x1 PUSH2 0x100 EXP DUP2 SLOAD DUP2 PUSH1 0xFF MUL NOT AND SWAP1 DUP4 ISZERO ISZERO MUL OR SWAP1 SSTORE POP CALLER PUSH20 0xFFFFFFFFFFFFFFFFFFFFFFFFFFFFFFFFFFFFFFFF AND PUSH32 0xA84226BF2D14BDE3FAC454F52EAEAB63AAEB1934DA88F9263DD4FF7DD12ACF71 PUSH1 0x9 PUSH1 0x1 SWAP1 SLOAD SWAP1 PUSH2 0x100 EXP SWAP1 DIV PUSH1 0xFF AND PUSH1 0x40 MLOAD PUSH2 0x11C0 SWAP2 SWAP1 PUSH2 0x1CFC JUMP JUMPDEST PUSH1 0x40 MLOAD DUP1 SWAP2 SUB SWAP1 LOG2 PUSH2 0x11D0 PUSH2 0x13D3 JUMP JUMPDEST JUMPDEST POP JUMP JUMPDEST PUSH1 0x0 DUP1 PUSH1 0xC SLOAD TIMESTAMP DUP5 PUSH2 0x11E6 SWAP2 SWAP1 PUSH2 0x20D2 JUMP JUMPDEST PUSH2 0x11F0 SWAP2 SWAP1 PUSH2 0x2047 JUMP JUMPDEST SWAP1 POP DUP1 NUMBER PUSH2 0x11FE SWAP2 SWAP1 PUSH2 0x1F87 JUMP JUMPDEST SWAP2 POP POP SWAP2 SWAP1 POP JUMP JUMPDEST PUSH1 0x1 PUSH1 0xB PUSH1 0x40 MLOAD PUSH2 0x1216 SWAP1 PUSH2 0x1C68 JUMP JUMPDEST SWAP1 DUP2 MSTORE PUSH1 0x20 ADD PUSH1 0x40 MLOAD DUP1 SWAP2 SUB SWAP1 KECCAK256 DUP2 SWAP1 SSTORE POP PUSH1 0x2 PUSH1 0xB PUSH1 0x40 MLOAD PUSH2 0x1238 SWAP1 PUSH2 0x1BFF JUMP JUMPDEST SWAP1 DUP2 MSTORE PUSH1 0x20 ADD PUSH1 0x40 MLOAD DUP1 SWAP2 SUB SWAP1 KECCAK256 DUP2 SWAP1 SSTORE POP PUSH1 0x3 PUSH1 0xB PUSH1 0x40 MLOAD PUSH2 0x125A SWAP1 PUSH2 0x1C3E JUMP JUMPDEST SWAP1 DUP2 MSTORE PUSH1 0x20 ADD PUSH1 0x40 MLOAD DUP1 SWAP2 SUB SWAP1 KECCAK256 DUP2 SWAP1 SSTORE POP PUSH1 0x4 PUSH1 0xB PUSH1 0x40 MLOAD PUSH2 0x127C SWAP1 PUSH2 0x1C14 JUMP JUMPDEST SWAP1 DUP2 MSTORE PUSH1 0x20 ADD PUSH1 0x40 MLOAD DUP1 SWAP2 SUB SWAP1 KECCAK256 DUP2 SWAP1 SSTORE POP PUSH1 0x5 PUSH1 0xB PUSH1 0x40 MLOAD PUSH2 0x129E SWAP1 PUSH2 0x1C29 JUMP JUMPDEST SWAP1 DUP2 MSTORE PUSH1 0x20 ADD PUSH1 0x40 MLOAD DUP1 SWAP2 SUB SWAP1 KECCAK256 DUP2 SWAP1 SSTORE POP PUSH1 0x6 PUSH1 0xB PUSH1 0x40 MLOAD PUSH2 0x12C0 SWAP1 PUSH2 0x1C53 JUMP JUMPDEST SWAP1 DUP2 MSTORE PUSH1 0x20 ADD PUSH1 0x40 MLOAD DUP1 SWAP2 SUB SWAP1 KECCAK256 DUP2 SWAP1 SSTORE POP JUMP JUMPDEST PUSH1 0x0 PUSH32 0xFFFFFFFFFFFFFFFFFFFFFFFFFFFFFFFFFFFFFFFFFFFFFFFFFFFFFFFFFFFFFFFF DUP5 EQ PUSH2 0x1352 JUMPI PUSH1 0x1 DUP1 DUP6 AND EQ ISZERO PUSH2 0x1319 JUMPI DUP2 DUP4 SGT PUSH2 0x1318 JUMPI PUSH1 0x0 SWAP1 POP PUSH2 0x1357 JUMP JUMPDEST JUMPDEST PUSH1 0x2 DUP1 DUP6 AND EQ ISZERO PUSH2 0x1335 JUMPI DUP2 DUP4 EQ PUSH2 0x1334 JUMPI PUSH1 0x0 SWAP1 POP PUSH2 0x1357 JUMP JUMPDEST JUMPDEST PUSH1 0x4 DUP1 DUP6 AND EQ ISZERO PUSH2 0x1351 JUMPI DUP2 DUP4 SLT PUSH2 0x1350 JUMPI PUSH1 0x0 SWAP1 POP PUSH2 0x1357 JUMP JUMPDEST JUMPDEST JUMPDEST PUSH1 0x1 SWAP1 POP JUMPDEST SWAP4 SWAP3 POP POP POP JUMP JUMPDEST PUSH1 0x1 PUSH1 0x0 SWAP1 SLOAD SWAP1 PUSH2 0x100 EXP SWAP1 DIV PUSH20 0xFFFFFFFFFFFFFFFFFFFFFFFFFFFFFFFFFFFFFFFF AND PUSH20 0xFFFFFFFFFFFFFFFFFFFFFFFFFFFFFFFFFFFFFFFF AND PUSH2 0x8FC PUSH1 0x5 SLOAD SWAP1 DUP2 ISZERO MUL SWAP1 PUSH1 0x40 MLOAD PUSH1 0x0 PUSH1 0x40 MLOAD DUP1 DUP4 SUB DUP2 DUP6 DUP9 DUP9 CALL SWAP4 POP POP POP POP ISZERO DUP1 ISZERO PUSH2 0x13C8 JUMPI RETURNDATASIZE PUSH1 0x0 DUP1 RETURNDATACOPY RETURNDATASIZE PUSH1 0x0 REVERT JUMPDEST POP PUSH2 0x13D1 PUSH2 0x1448 JUMP JUMPDEST JUMP JUMPDEST PUSH1 0x2 PUSH1 0x0 SWAP1 SLOAD SWAP1 PUSH2 0x100 EXP SWAP1 DIV PUSH20 0xFFFFFFFFFFFFFFFFFFFFFFFFFFFFFFFFFFFFFFFF AND PUSH20 0xFFFFFFFFFFFFFFFFFFFFFFFFFFFFFFFFFFFFFFFF AND PUSH2 0x8FC PUSH1 0x5 SLOAD SWAP1 DUP2 ISZERO MUL SWAP1 PUSH1 0x40 MLOAD PUSH1 0x0 PUSH1 0x40 MLOAD DUP1 DUP4 SUB DUP2 DUP6 DUP9 DUP9 CALL SWAP4 POP POP POP POP ISZERO DUP1 ISZERO PUSH2 0x143D JUMPI RETURNDATASIZE PUSH1 0x0 DUP1 RETURNDATACOPY RETURNDATASIZE PUSH1 0x0 REVERT JUMPDEST POP PUSH2 0x1446 PUSH2 0x1448 JUMP JUMPDEST JUMP JUMPDEST PUSH1 0x4 SLOAD NUMBER LT ISZERO PUSH2 0x1499 JUMPI PUSH1 0x0 PUSH1 0x9 PUSH1 0x1 PUSH2 0x100 EXP DUP2 SLOAD DUP2 PUSH1 0xFF MUL NOT AND SWAP1 DUP4 ISZERO ISZERO MUL OR SWAP1 SSTORE POP PUSH1 0x7 SLOAD PUSH1 0x6 DUP2 SWAP1 SSTORE POP PUSH2 0x1900 PUSH1 0x1E PUSH2 0x1485 SWAP2 SWAP1 PUSH2 0x2078 JUMP JUMPDEST PUSH1 0x7 SLOAD PUSH2 0x1492 SWAP2 SWAP1 PUSH2 0x1F87 JUMP JUMPDEST PUSH1 0x7 DUP2 SWAP1 SSTORE POP JUMPDEST PUSH1 0x4 PUSH1 0x9 PUSH1 0x0 PUSH2 0x100 EXP DUP2 SLOAD DUP2 PUSH1 0xFF MUL NOT AND SWAP1 DUP4 PUSH1 0x4 DUP2 GT ISZERO PUSH2 0x14BF JUMPI PUSH2 0x14BE PUSH2 0x2324 JUMP JUMPDEST JUMPDEST MUL OR SWAP1 SSTORE POP JUMP JUMPDEST DUP3 DUP1 SLOAD PUSH2 0x14D2 SWAP1 PUSH2 0x21D1 JUMP JUMPDEST SWAP1 PUSH1 0x0 MSTORE PUSH1 0x20 PUSH1 0x0 KECCAK256 SWAP1 PUSH1 0x1F ADD PUSH1 0x20 SWAP1 DIV DUP2 ADD SWAP3 DUP3 PUSH2 0x14F4 JUMPI PUSH1 0x0 DUP6 SSTORE PUSH2 0x153B JUMP JUMPDEST DUP3 PUSH1 0x1F LT PUSH2 0x150D JUMPI DUP1 MLOAD PUSH1 0xFF NOT AND DUP4 DUP1 ADD OR DUP6 SSTORE PUSH2 0x153B JUMP JUMPDEST DUP3 DUP1 ADD PUSH1 0x1 ADD DUP6 SSTORE DUP3 ISZERO PUSH2 0x153B JUMPI SWAP2 DUP3 ADD JUMPDEST DUP3 DUP2 GT ISZERO PUSH2 0x153A JUMPI DUP3 MLOAD DUP3 SSTORE SWAP2 PUSH1 0x20 ADD SWAP2 SWAP1 PUSH1 0x1 ADD SWAP1 PUSH2 0x151F JUMP JUMPDEST JUMPDEST POP SWAP1 POP PUSH2 0x1548 SWAP2 SWAP1 PUSH2 0x154C JUMP JUMPDEST POP SWAP1 JUMP JUMPDEST JUMPDEST DUP1 DUP3 GT ISZERO PUSH2 0x1565 JUMPI PUSH1 0x0 DUP2 PUSH1 0x0 SWAP1 SSTORE POP PUSH1 0x1 ADD PUSH2 0x154D JUMP JUMPDEST POP SWAP1 JUMP JUMPDEST PUSH1 0x0 PUSH2 0x157C PUSH2 0x1577 DUP5 PUSH2 0x1E23 JUMP JUMPDEST PUSH2 0x1DFE JUMP JUMPDEST SWAP1 POP DUP1 DUP3 DUP6 PUSH1 0x20 DUP7 MUL DUP3 ADD GT ISZERO PUSH2 0x1596 JUMPI PUSH2 0x1595 PUSH2 0x23E5 JUMP JUMPDEST JUMPDEST PUSH1 0x0 JUMPDEST DUP6 DUP2 LT ISZERO PUSH2 0x15C6 JUMPI DUP2 PUSH2 0x15AC DUP9 DUP3 PUSH2 0x17A0 JUMP JUMPDEST DUP5 MSTORE PUSH1 0x20 DUP5 ADD SWAP4 POP PUSH1 0x20 DUP4 ADD SWAP3 POP POP PUSH1 0x1 DUP2 ADD SWAP1 POP PUSH2 0x1599 JUMP JUMPDEST POP POP POP SWAP4 SWAP3 POP POP POP JUMP JUMPDEST PUSH1 0x0 PUSH2 0x15E3 PUSH2 0x15DE DUP5 PUSH2 0x1E49 JUMP JUMPDEST PUSH2 0x1DFE JUMP JUMPDEST SWAP1 POP DUP1 DUP4 DUP3 MSTORE PUSH1 0x20 DUP3 ADD SWAP1 POP DUP3 DUP6 PUSH1 0x20 DUP7 MUL DUP3 ADD GT ISZERO PUSH2 0x1606 JUMPI PUSH2 0x1605 PUSH2 0x23E5 JUMP JUMPDEST JUMPDEST PUSH1 0x0 JUMPDEST DUP6 DUP2 LT ISZERO PUSH2 0x1636 JUMPI DUP2 PUSH2 0x161C DUP9 DUP3 PUSH2 0x17A0 JUMP JUMPDEST DUP5 MSTORE PUSH1 0x20 DUP5 ADD SWAP4 POP PUSH1 0x20 DUP4 ADD SWAP3 POP POP PUSH1 0x1 DUP2 ADD SWAP1 POP PUSH2 0x1609 JUMP JUMPDEST POP POP POP SWAP4 SWAP3 POP POP POP JUMP JUMPDEST PUSH1 0x0 PUSH2 0x1653 PUSH2 0x164E DUP5 PUSH2 0x1E75 JUMP JUMPDEST PUSH2 0x1DFE JUMP JUMPDEST SWAP1 POP DUP1 DUP3 DUP6 PUSH1 0x20 DUP7 MUL DUP3 ADD GT ISZERO PUSH2 0x166D JUMPI PUSH2 0x166C PUSH2 0x23E5 JUMP JUMPDEST JUMPDEST PUSH1 0x0 JUMPDEST DUP6 DUP2 LT ISZERO PUSH2 0x16BB JUMPI DUP2 CALLDATALOAD PUSH8 0xFFFFFFFFFFFFFFFF DUP2 GT ISZERO PUSH2 0x1693 JUMPI PUSH2 0x1692 PUSH2 0x23E0 JUMP JUMPDEST JUMPDEST DUP1 DUP7 ADD PUSH2 0x16A0 DUP10 DUP3 PUSH2 0x17B5 JUMP JUMPDEST DUP6 MSTORE PUSH1 0x20 DUP6 ADD SWAP5 POP PUSH1 0x20 DUP5 ADD SWAP4 POP POP POP PUSH1 0x1 DUP2 ADD SWAP1 POP PUSH2 0x1670 JUMP JUMPDEST POP POP POP SWAP4 SWAP3 POP POP POP JUMP JUMPDEST PUSH1 0x0 PUSH2 0x16D8 PUSH2 0x16D3 DUP5 PUSH2 0x1E9B JUMP JUMPDEST PUSH2 0x1DFE JUMP JUMPDEST SWAP1 POP DUP3 DUP2 MSTORE PUSH1 0x20 DUP2 ADD DUP5 DUP5 DUP5 ADD GT ISZERO PUSH2 0x16F4 JUMPI PUSH2 0x16F3 PUSH2 0x23EA JUMP JUMPDEST JUMPDEST PUSH2 0x16FF DUP5 DUP3 DUP6 PUSH2 0x218F JUMP JUMPDEST POP SWAP4 SWAP3 POP POP POP JUMP JUMPDEST PUSH1 0x0 DUP2 CALLDATALOAD SWAP1 POP PUSH2 0x1716 DUP2 PUSH2 0x262D JUMP JUMPDEST SWAP3 SWAP2 POP POP JUMP JUMPDEST PUSH1 0x0 DUP3 PUSH1 0x1F DUP4 ADD SLT PUSH2 0x1731 JUMPI PUSH2 0x1730 PUSH2 0x23E0 JUMP JUMPDEST JUMPDEST PUSH1 0x8 PUSH2 0x173E DUP5 DUP3 DUP6 PUSH2 0x1569 JUMP JUMPDEST SWAP2 POP POP SWAP3 SWAP2 POP POP JUMP JUMPDEST PUSH1 0x0 DUP3 PUSH1 0x1F DUP4 ADD SLT PUSH2 0x175C JUMPI PUSH2 0x175B PUSH2 0x23E0 JUMP JUMPDEST JUMPDEST DUP2 CALLDATALOAD PUSH2 0x176C DUP5 DUP3 PUSH1 0x20 DUP7 ADD PUSH2 0x15D0 JUMP JUMPDEST SWAP2 POP POP SWAP3 SWAP2 POP POP JUMP JUMPDEST PUSH1 0x0 DUP3 PUSH1 0x1F DUP4 ADD SLT PUSH2 0x178A JUMPI PUSH2 0x1789 PUSH2 0x23E0 JUMP JUMPDEST JUMPDEST PUSH1 0x8 PUSH2 0x1797 DUP5 DUP3 DUP6 PUSH2 0x1640 JUMP JUMPDEST SWAP2 POP POP SWAP3 SWAP2 POP POP JUMP JUMPDEST PUSH1 0x0 DUP2 CALLDATALOAD SWAP1 POP PUSH2 0x17AF DUP2 PUSH2 0x2644 JUMP JUMPDEST SWAP3 SWAP2 POP POP JUMP JUMPDEST PUSH1 0x0 DUP3 PUSH1 0x1F DUP4 ADD SLT PUSH2 0x17CA JUMPI PUSH2 0x17C9 PUSH2 0x23E0 JUMP JUMPDEST JUMPDEST DUP2 CALLDATALOAD PUSH2 0x17DA DUP5 DUP3 PUSH1 0x20 DUP7 ADD PUSH2 0x16C5 JUMP JUMPDEST SWAP2 POP POP SWAP3 SWAP2 POP POP JUMP JUMPDEST PUSH1 0x0 DUP2 CALLDATALOAD SWAP1 POP PUSH2 0x17F2 DUP2 PUSH2 0x265B JUMP JUMPDEST SWAP3 SWAP2 POP POP JUMP JUMPDEST PUSH1 0x0 PUSH1 0x20 DUP3 DUP5 SUB SLT ISZERO PUSH2 0x180E JUMPI PUSH2 0x180D PUSH2 0x23F4 JUMP JUMPDEST JUMPDEST PUSH1 0x0 PUSH2 0x181C DUP5 DUP3 DUP6 ADD PUSH2 0x1707 JUMP JUMPDEST SWAP2 POP POP SWAP3 SWAP2 POP POP JUMP JUMPDEST PUSH1 0x0 DUP1 PUSH1 0x0 DUP1 PUSH1 0x0 PUSH1 0xA0 DUP7 DUP9 SUB SLT ISZERO PUSH2 0x1841 JUMPI PUSH2 0x1840 PUSH2 0x23F4 JUMP JUMPDEST JUMPDEST PUSH1 0x0 PUSH2 0x184F DUP9 DUP3 DUP10 ADD PUSH2 0x1707 JUMP JUMPDEST SWAP6 POP POP PUSH1 0x20 PUSH2 0x1860 DUP9 DUP3 DUP10 ADD PUSH2 0x17E3 JUMP JUMPDEST SWAP5 POP POP PUSH1 0x40 PUSH2 0x1871 DUP9 DUP3 DUP10 ADD PUSH2 0x17E3 JUMP JUMPDEST SWAP4 POP POP PUSH1 0x60 PUSH2 0x1882 DUP9 DUP3 DUP10 ADD PUSH2 0x17E3 JUMP JUMPDEST SWAP3 POP POP PUSH1 0x80 PUSH2 0x1893 DUP9 DUP3 DUP10 ADD PUSH2 0x17E3 JUMP JUMPDEST SWAP2 POP POP SWAP3 SWAP6 POP SWAP3 SWAP6 SWAP1 SWAP4 POP JUMP JUMPDEST PUSH1 0x0 PUSH1 0x20 DUP3 DUP5 SUB SLT ISZERO PUSH2 0x18B6 JUMPI PUSH2 0x18B5 PUSH2 0x23F4 JUMP JUMPDEST JUMPDEST PUSH1 0x0 DUP3 ADD CALLDATALOAD PUSH8 0xFFFFFFFFFFFFFFFF DUP2 GT ISZERO PUSH2 0x18D4 JUMPI PUSH2 0x18D3 PUSH2 0x23EF JUMP JUMPDEST JUMPDEST PUSH2 0x18E0 DUP5 DUP3 DUP6 ADD PUSH2 0x1747 JUMP JUMPDEST SWAP2 POP POP SWAP3 SWAP2 POP POP JUMP JUMPDEST PUSH1 0x0 DUP1 PUSH1 0x0 PUSH2 0x140 DUP5 DUP7 SUB SLT ISZERO PUSH2 0x1903 JUMPI PUSH2 0x1902 PUSH2 0x23F4 JUMP JUMPDEST JUMPDEST PUSH1 0x0 DUP5 ADD CALLDATALOAD PUSH8 0xFFFFFFFFFFFFFFFF DUP2 GT ISZERO PUSH2 0x1921 JUMPI PUSH2 0x1920 PUSH2 0x23EF JUMP JUMPDEST JUMPDEST PUSH2 0x192D DUP7 DUP3 DUP8 ADD PUSH2 0x1775 JUMP JUMPDEST SWAP4 POP POP PUSH1 0x20 PUSH2 0x193E DUP7 DUP3 DUP8 ADD PUSH2 0x171C JUMP JUMPDEST SWAP3 POP POP PUSH2 0x120 DUP5 ADD CALLDATALOAD PUSH8 0xFFFFFFFFFFFFFFFF DUP2 GT ISZERO PUSH2 0x1960 JUMPI PUSH2 0x195F PUSH2 0x23EF JUMP JUMPDEST JUMPDEST PUSH2 0x196C DUP7 DUP3 DUP8 ADD PUSH2 0x1775 JUMP JUMPDEST SWAP2 POP POP SWAP3 POP SWAP3 POP SWAP3 JUMP JUMPDEST PUSH1 0x0 PUSH1 0x20 DUP3 DUP5 SUB SLT ISZERO PUSH2 0x198C JUMPI PUSH2 0x198B PUSH2 0x23F4 JUMP JUMPDEST JUMPDEST PUSH1 0x0 PUSH2 0x199A DUP5 DUP3 DUP6 ADD PUSH2 0x17E3 JUMP JUMPDEST SWAP2 POP POP SWAP3 SWAP2 POP POP JUMP JUMPDEST PUSH2 0x19AC DUP2 PUSH2 0x2118 JUMP JUMPDEST DUP3 MSTORE POP POP JUMP JUMPDEST PUSH2 0x19BB DUP2 PUSH2 0x2106 JUMP JUMPDEST DUP3 MSTORE POP POP JUMP JUMPDEST PUSH2 0x19CA DUP2 PUSH2 0x212A JUMP JUMPDEST DUP3 MSTORE POP POP JUMP JUMPDEST PUSH2 0x19D9 DUP2 PUSH2 0x217D JUMP JUMPDEST DUP3 MSTORE POP POP JUMP JUMPDEST PUSH2 0x19E8 DUP2 PUSH2 0x2149 JUMP JUMPDEST DUP3 MSTORE POP POP JUMP JUMPDEST PUSH1 0x0 PUSH2 0x19F9 DUP3 PUSH2 0x1ECC JUMP JUMPDEST PUSH2 0x1A03 DUP2 DUP6 PUSH2 0x1ED7 JUMP JUMPDEST SWAP4 POP PUSH2 0x1A13 DUP2 DUP6 PUSH1 0x20 DUP7 ADD PUSH2 0x219E JUMP JUMPDEST PUSH2 0x1A1C DUP2 PUSH2 0x23F9 JUMP JUMPDEST DUP5 ADD SWAP2 POP POP SWAP3 SWAP2 POP POP JUMP JUMPDEST PUSH1 0x0 PUSH2 0x1A32 DUP3 PUSH2 0x1ECC JUMP JUMPDEST PUSH2 0x1A3C DUP2 DUP6 PUSH2 0x1EE8 JUMP JUMPDEST SWAP4 POP PUSH2 0x1A4C DUP2 DUP6 PUSH1 0x20 DUP7 ADD PUSH2 0x219E JUMP JUMPDEST DUP1 DUP5 ADD SWAP2 POP POP SWAP3 SWAP2 POP POP JUMP JUMPDEST PUSH1 0x0 PUSH2 0x1A65 PUSH1 0x36 DUP4 PUSH2 0x1ED7 JUMP JUMPDEST SWAP2 POP PUSH2 0x1A70 DUP3 PUSH2 0x240A JUMP JUMPDEST PUSH1 0x40 DUP3 ADD SWAP1 POP SWAP2 SWAP1 POP JUMP JUMPDEST PUSH1 0x0 PUSH2 0x1A88 PUSH1 0x12 DUP4 PUSH2 0x1ED7 JUMP JUMPDEST SWAP2 POP PUSH2 0x1A93 DUP3 PUSH2 0x2459 JUMP JUMPDEST PUSH1 0x20 DUP3 ADD SWAP1 POP SWAP2 SWAP1 POP JUMP JUMPDEST PUSH1 0x0 PUSH2 0x1AAB PUSH1 0x10 DUP4 PUSH2 0x1ED7 JUMP JUMPDEST SWAP2 POP PUSH2 0x1AB6 DUP3 PUSH2 0x2482 JUMP JUMPDEST PUSH1 0x20 DUP3 ADD SWAP1 POP SWAP2 SWAP1 POP JUMP JUMPDEST PUSH1 0x0 PUSH2 0x1ACE PUSH1 0x2 DUP4 PUSH2 0x1EE8 JUMP JUMPDEST SWAP2 POP PUSH2 0x1AD9 DUP3 PUSH2 0x24AB JUMP JUMPDEST PUSH1 0x2 DUP3 ADD SWAP1 POP SWAP2 SWAP1 POP JUMP JUMPDEST PUSH1 0x0 PUSH2 0x1AF1 PUSH1 0x1 DUP4 PUSH2 0x1EE8 JUMP JUMPDEST SWAP2 POP PUSH2 0x1AFC DUP3 PUSH2 0x24D4 JUMP JUMPDEST PUSH1 0x1 DUP3 ADD SWAP1 POP SWAP2 SWAP1 POP JUMP JUMPDEST PUSH1 0x0 PUSH2 0x1B14 PUSH1 0x2 DUP4 PUSH2 0x1EE8 JUMP JUMPDEST SWAP2 POP PUSH2 0x1B1F DUP3 PUSH2 0x24FD JUMP JUMPDEST PUSH1 0x2 DUP3 ADD SWAP1 POP SWAP2 SWAP1 POP JUMP JUMPDEST PUSH1 0x0 PUSH2 0x1B37 PUSH1 0x2 DUP4 PUSH2 0x1EE8 JUMP JUMPDEST SWAP2 POP PUSH2 0x1B42 DUP3 PUSH2 0x2526 JUMP JUMPDEST PUSH1 0x2 DUP3 ADD SWAP1 POP SWAP2 SWAP1 POP JUMP JUMPDEST PUSH1 0x0 PUSH2 0x1B5A PUSH1 0x2 DUP4 PUSH2 0x1EE8 JUMP JUMPDEST SWAP2 POP PUSH2 0x1B65 DUP3 PUSH2 0x254F JUMP JUMPDEST PUSH1 0x2 DUP3 ADD SWAP1 POP SWAP2 SWAP1 POP JUMP JUMPDEST PUSH1 0x0 PUSH2 0x1B7D PUSH1 0x1 DUP4 PUSH2 0x1EE8 JUMP JUMPDEST SWAP2 POP PUSH2 0x1B88 DUP3 PUSH2 0x2578 JUMP JUMPDEST PUSH1 0x1 DUP3 ADD SWAP1 POP SWAP2 SWAP1 POP JUMP JUMPDEST PUSH1 0x0 PUSH2 0x1BA0 PUSH1 0x1D DUP4 PUSH2 0x1ED7 JUMP JUMPDEST SWAP2 POP PUSH2 0x1BAB DUP3 PUSH2 0x25A1 JUMP JUMPDEST PUSH1 0x20 DUP3 ADD SWAP1 POP SWAP2 SWAP1 POP JUMP JUMPDEST PUSH1 0x0 PUSH2 0x1BC3 PUSH1 0x25 DUP4 PUSH2 0x1ED7 JUMP JUMPDEST SWAP2 POP PUSH2 0x1BCE DUP3 PUSH2 0x25CA JUMP JUMPDEST PUSH1 0x40 DUP3 ADD SWAP1 POP SWAP2 SWAP1 POP JUMP JUMPDEST PUSH2 0x1BE2 DUP2 PUSH2 0x2173 JUMP JUMPDEST DUP3 MSTORE POP POP JUMP JUMPDEST PUSH1 0x0 PUSH2 0x1BF4 DUP3 DUP5 PUSH2 0x1A27 JUMP JUMPDEST SWAP2 POP DUP2 SWAP1 POP SWAP3 SWAP2 POP POP JUMP JUMPDEST PUSH1 0x0 PUSH2 0x1C0A DUP3 PUSH2 0x1AC1 JUMP JUMPDEST SWAP2 POP DUP2 SWAP1 POP SWAP2 SWAP1 POP JUMP JUMPDEST PUSH1 0x0 PUSH2 0x1C1F DUP3 PUSH2 0x1AE4 JUMP JUMPDEST SWAP2 POP DUP2 SWAP1 POP SWAP2 SWAP1 POP JUMP JUMPDEST PUSH1 0x0 PUSH2 0x1C34 DUP3 PUSH2 0x1B07 JUMP JUMPDEST SWAP2 POP DUP2 SWAP1 POP SWAP2 SWAP1 POP JUMP JUMPDEST PUSH1 0x0 PUSH2 0x1C49 DUP3 PUSH2 0x1B2A JUMP JUMPDEST SWAP2 POP DUP2 SWAP1 POP SWAP2 SWAP1 POP JUMP JUMPDEST PUSH1 0x0 PUSH2 0x1C5E DUP3 PUSH2 0x1B4D JUMP JUMPDEST SWAP2 POP DUP2 SWAP1 POP SWAP2 SWAP1 POP JUMP JUMPDEST PUSH1 0x0 PUSH2 0x1C73 DUP3 PUSH2 0x1B70 JUMP JUMPDEST SWAP2 POP DUP2 SWAP1 POP SWAP2 SWAP1 POP JUMP JUMPDEST PUSH1 0x0 PUSH1 0x20 DUP3 ADD SWAP1 POP PUSH2 0x1C92 PUSH1 0x0 DUP4 ADD DUP5 PUSH2 0x19B2 JUMP JUMPDEST SWAP3 SWAP2 POP POP JUMP JUMPDEST PUSH1 0x0 PUSH1 0x20 DUP3 ADD SWAP1 POP PUSH2 0x1CAD PUSH1 0x0 DUP4 ADD DUP5 PUSH2 0x19A3 JUMP JUMPDEST SWAP3 SWAP2 POP POP JUMP JUMPDEST PUSH1 0x0 PUSH1 0x20 DUP3 ADD SWAP1 POP PUSH2 0x1CC8 PUSH1 0x0 DUP4 ADD DUP5 PUSH2 0x19C1 JUMP JUMPDEST SWAP3 SWAP2 POP POP JUMP JUMPDEST PUSH1 0x0 PUSH1 0x40 DUP3 ADD SWAP1 POP PUSH2 0x1CE3 PUSH1 0x0 DUP4 ADD DUP5 PUSH2 0x19C1 JUMP JUMPDEST DUP2 DUP2 SUB PUSH1 0x20 DUP4 ADD MSTORE PUSH2 0x1CF4 DUP2 PUSH2 0x1A7B JUMP JUMPDEST SWAP1 POP SWAP3 SWAP2 POP POP JUMP JUMPDEST PUSH1 0x0 PUSH1 0x40 DUP3 ADD SWAP1 POP PUSH2 0x1D11 PUSH1 0x0 DUP4 ADD DUP5 PUSH2 0x19C1 JUMP JUMPDEST DUP2 DUP2 SUB PUSH1 0x20 DUP4 ADD MSTORE PUSH2 0x1D22 DUP2 PUSH2 0x1A9E JUMP JUMPDEST SWAP1 POP SWAP3 SWAP2 POP POP JUMP JUMPDEST PUSH1 0x0 PUSH1 0x20 DUP3 ADD SWAP1 POP PUSH2 0x1D3F PUSH1 0x0 DUP4 ADD DUP5 PUSH2 0x19D0 JUMP JUMPDEST SWAP3 SWAP2 POP POP JUMP JUMPDEST PUSH1 0x0 PUSH1 0x60 DUP3 ADD SWAP1 POP PUSH2 0x1D5A PUSH1 0x0 DUP4 ADD DUP7 PUSH2 0x19DF JUMP JUMPDEST PUSH2 0x1D67 PUSH1 0x20 DUP4 ADD DUP6 PUSH2 0x19DF JUMP JUMPDEST DUP2 DUP2 SUB PUSH1 0x40 DUP4 ADD MSTORE PUSH2 0x1D79 DUP2 DUP5 PUSH2 0x19EE JUMP JUMPDEST SWAP1 POP SWAP5 SWAP4 POP POP POP POP JUMP JUMPDEST PUSH1 0x0 PUSH1 0x20 DUP3 ADD SWAP1 POP DUP2 DUP2 SUB PUSH1 0x0 DUP4 ADD MSTORE PUSH2 0x1D9C DUP2 PUSH2 0x1A58 JUMP JUMPDEST SWAP1 POP SWAP2 SWAP1 POP JUMP JUMPDEST PUSH1 0x0 PUSH1 0x20 DUP3 ADD SWAP1 POP DUP2 DUP2 SUB PUSH1 0x0 DUP4 ADD MSTORE PUSH2 0x1DBC DUP2 PUSH2 0x1B93 JUMP JUMPDEST SWAP1 POP SWAP2 SWAP1 POP JUMP JUMPDEST PUSH1 0x0 PUSH1 0x20 DUP3 ADD SWAP1 POP DUP2 DUP2 SUB PUSH1 0x0 DUP4 ADD MSTORE PUSH2 0x1DDC DUP2 PUSH2 0x1BB6 JUMP JUMPDEST SWAP1 POP SWAP2 SWAP1 POP JUMP JUMPDEST PUSH1 0x0 PUSH1 0x20 DUP3 ADD SWAP1 POP PUSH2 0x1DF8 PUSH1 0x0 DUP4 ADD DUP5 PUSH2 0x1BD9 JUMP JUMPDEST SWAP3 SWAP2 POP POP JUMP JUMPDEST PUSH1 0x0 PUSH2 0x1E08 PUSH2 0x1E19 JUMP JUMPDEST SWAP1 POP PUSH2 0x1E14 DUP3 DUP3 PUSH2 0x2203 JUMP JUMPDEST SWAP2 SWAP1 POP JUMP JUMPDEST PUSH1 0x0 PUSH1 0x40 MLOAD SWAP1 POP SWAP1 JUMP JUMPDEST PUSH1 0x0 PUSH8 0xFFFFFFFFFFFFFFFF DUP3 GT ISZERO PUSH2 0x1E3E JUMPI PUSH2 0x1E3D PUSH2 0x23B1 JUMP JUMPDEST JUMPDEST PUSH1 0x20 DUP3 MUL SWAP1 POP SWAP2 SWAP1 POP JUMP JUMPDEST PUSH1 0x0 PUSH8 0xFFFFFFFFFFFFFFFF DUP3 GT ISZERO PUSH2 0x1E64 JUMPI PUSH2 0x1E63 PUSH2 0x23B1 JUMP JUMPDEST JUMPDEST PUSH1 0x20 DUP3 MUL SWAP1 POP PUSH1 0x20 DUP2 ADD SWAP1 POP SWAP2 SWAP1 POP JUMP JUMPDEST PUSH1 0x0 PUSH8 0xFFFFFFFFFFFFFFFF DUP3 GT ISZERO PUSH2 0x1E90 JUMPI PUSH2 0x1E8F PUSH2 0x23B1 JUMP JUMPDEST JUMPDEST PUSH1 0x20 DUP3 MUL SWAP1 POP SWAP2 SWAP1 POP JUMP JUMPDEST PUSH1 0x0 PUSH8 0xFFFFFFFFFFFFFFFF DUP3 GT ISZERO PUSH2 0x1EB6 JUMPI PUSH2 0x1EB5 PUSH2 0x23B1 JUMP JUMPDEST JUMPDEST PUSH2 0x1EBF DUP3 PUSH2 0x23F9 JUMP JUMPDEST SWAP1 POP PUSH1 0x20 DUP2 ADD SWAP1 POP SWAP2 SWAP1 POP JUMP JUMPDEST PUSH1 0x0 DUP2 MLOAD SWAP1 POP SWAP2 SWAP1 POP JUMP JUMPDEST PUSH1 0x0 DUP3 DUP3 MSTORE PUSH1 0x20 DUP3 ADD SWAP1 POP SWAP3 SWAP2 POP POP JUMP JUMPDEST PUSH1 0x0 DUP2 SWAP1 POP SWAP3 SWAP2 POP POP JUMP JUMPDEST PUSH1 0x0 PUSH2 0x1EFE DUP3 PUSH2 0x2149 JUMP JUMPDEST SWAP2 POP PUSH2 0x1F09 DUP4 PUSH2 0x2149 JUMP JUMPDEST SWAP3 POP DUP2 PUSH32 0x7FFFFFFFFFFFFFFFFFFFFFFFFFFFFFFFFFFFFFFFFFFFFFFFFFFFFFFFFFFFFFFF SUB DUP4 SGT PUSH1 0x0 DUP4 SLT ISZERO AND ISZERO PUSH2 0x1F44 JUMPI PUSH2 0x1F43 PUSH2 0x22C6 JUMP JUMPDEST JUMPDEST DUP2 PUSH32 0x8000000000000000000000000000000000000000000000000000000000000000 SUB DUP4 SLT PUSH1 0x0 DUP4 SLT AND ISZERO PUSH2 0x1F7C JUMPI PUSH2 0x1F7B PUSH2 0x22C6 JUMP JUMPDEST JUMPDEST DUP3 DUP3 ADD SWAP1 POP SWAP3 SWAP2 POP POP JUMP JUMPDEST PUSH1 0x0 PUSH2 0x1F92 DUP3 PUSH2 0x2173 JUMP JUMPDEST SWAP2 POP PUSH2 0x1F9D DUP4 PUSH2 0x2173 JUMP JUMPDEST SWAP3 POP DUP3 PUSH32 0xFFFFFFFFFFFFFFFFFFFFFFFFFFFFFFFFFFFFFFFFFFFFFFFFFFFFFFFFFFFFFFFF SUB DUP3 GT ISZERO PUSH2 0x1FD2 JUMPI PUSH2 0x1FD1 PUSH2 0x22C6 JUMP JUMPDEST JUMPDEST DUP3 DUP3 ADD SWAP1 POP SWAP3 SWAP2 POP POP JUMP JUMPDEST PUSH1 0x0 PUSH2 0x1FE8 DUP3 PUSH2 0x2149 JUMP JUMPDEST SWAP2 POP PUSH2 0x1FF3 DUP4 PUSH2 0x2149 JUMP JUMPDEST SWAP3 POP DUP3 PUSH2 0x2003 JUMPI PUSH2 0x2002 PUSH2 0x22F5 JUMP JUMPDEST JUMPDEST PUSH1 0x1 PUSH1 0x0 SUB DUP4 EQ PUSH32 0x8000000000000000000000000000000000000000000000000000000000000000 DUP4 EQ AND ISZERO PUSH2 0x203C JUMPI PUSH2 0x203B PUSH2 0x22C6 JUMP JUMPDEST JUMPDEST DUP3 DUP3 SDIV SWAP1 POP SWAP3 SWAP2 POP POP JUMP JUMPDEST PUSH1 0x0 PUSH2 0x2052 DUP3 PUSH2 0x2173 JUMP JUMPDEST SWAP2 POP PUSH2 0x205D DUP4 PUSH2 0x2173 JUMP JUMPDEST SWAP3 POP DUP3 PUSH2 0x206D JUMPI PUSH2 0x206C PUSH2 0x22F5 JUMP JUMPDEST JUMPDEST DUP3 DUP3 DIV SWAP1 POP SWAP3 SWAP2 POP POP JUMP JUMPDEST PUSH1 0x0 PUSH2 0x2083 DUP3 PUSH2 0x2173 JUMP JUMPDEST SWAP2 POP PUSH2 0x208E DUP4 PUSH2 0x2173 JUMP JUMPDEST SWAP3 POP DUP2 PUSH32 0xFFFFFFFFFFFFFFFFFFFFFFFFFFFFFFFFFFFFFFFFFFFFFFFFFFFFFFFFFFFFFFFF DIV DUP4 GT DUP3 ISZERO ISZERO AND ISZERO PUSH2 0x20C7 JUMPI PUSH2 0x20C6 PUSH2 0x22C6 JUMP JUMPDEST JUMPDEST DUP3 DUP3 MUL SWAP1 POP SWAP3 SWAP2 POP POP JUMP JUMPDEST PUSH1 0x0 PUSH2 0x20DD DUP3 PUSH2 0x2173 JUMP JUMPDEST SWAP2 POP PUSH2 0x20E8 DUP4 PUSH2 0x2173 JUMP JUMPDEST SWAP3 POP DUP3 DUP3 LT ISZERO PUSH2 0x20FB JUMPI PUSH2 0x20FA PUSH2 0x22C6 JUMP JUMPDEST JUMPDEST DUP3 DUP3 SUB SWAP1 POP SWAP3 SWAP2 POP POP JUMP JUMPDEST PUSH1 0x0 PUSH2 0x2111 DUP3 PUSH2 0x2153 JUMP JUMPDEST SWAP1 POP SWAP2 SWAP1 POP JUMP JUMPDEST PUSH1 0x0 PUSH2 0x2123 DUP3 PUSH2 0x2153 JUMP JUMPDEST SWAP1 POP SWAP2 SWAP1 POP JUMP JUMPDEST PUSH1 0x0 DUP2 ISZERO ISZERO SWAP1 POP SWAP2 SWAP1 POP JUMP JUMPDEST PUSH1 0x0 DUP2 SWAP1 POP PUSH2 0x2144 DUP3 PUSH2 0x2619 JUMP JUMPDEST SWAP2 SWAP1 POP JUMP JUMPDEST PUSH1 0x0 DUP2 SWAP1 POP SWAP2 SWAP1 POP JUMP JUMPDEST PUSH1 0x0 PUSH20 0xFFFFFFFFFFFFFFFFFFFFFFFFFFFFFFFFFFFFFFFF DUP3 AND SWAP1 POP SWAP2 SWAP1 POP JUMP JUMPDEST PUSH1 0x0 DUP2 SWAP1 POP SWAP2 SWAP1 POP JUMP JUMPDEST PUSH1 0x0 PUSH2 0x2188 DUP3 PUSH2 0x2136 JUMP JUMPDEST SWAP1 POP SWAP2 SWAP1 POP JUMP JUMPDEST DUP3 DUP2 DUP4 CALLDATACOPY PUSH1 0x0 DUP4 DUP4 ADD MSTORE POP POP POP JUMP JUMPDEST PUSH1 0x0 JUMPDEST DUP4 DUP2 LT ISZERO PUSH2 0x21BC JUMPI DUP1 DUP3 ADD MLOAD DUP2 DUP5 ADD MSTORE PUSH1 0x20 DUP2 ADD SWAP1 POP PUSH2 0x21A1 JUMP JUMPDEST DUP4 DUP2 GT ISZERO PUSH2 0x21CB JUMPI PUSH1 0x0 DUP5 DUP5 ADD MSTORE JUMPDEST POP POP POP POP JUMP JUMPDEST PUSH1 0x0 PUSH1 0x2 DUP3 DIV SWAP1 POP PUSH1 0x1 DUP3 AND DUP1 PUSH2 0x21E9 JUMPI PUSH1 0x7F DUP3 AND SWAP2 POP JUMPDEST PUSH1 0x20 DUP3 LT DUP2 EQ ISZERO PUSH2 0x21FD JUMPI PUSH2 0x21FC PUSH2 0x2353 JUMP JUMPDEST JUMPDEST POP SWAP2 SWAP1 POP JUMP JUMPDEST PUSH2 0x220C DUP3 PUSH2 0x23F9 JUMP JUMPDEST DUP2 ADD DUP2 DUP2 LT PUSH8 0xFFFFFFFFFFFFFFFF DUP3 GT OR ISZERO PUSH2 0x222B JUMPI PUSH2 0x222A PUSH2 0x23B1 JUMP JUMPDEST JUMPDEST DUP1 PUSH1 0x40 MSTORE POP POP POP JUMP JUMPDEST PUSH1 0x0 PUSH2 0x223F DUP3 PUSH2 0x2149 JUMP JUMPDEST SWAP2 POP PUSH32 0x7FFFFFFFFFFFFFFFFFFFFFFFFFFFFFFFFFFFFFFFFFFFFFFFFFFFFFFFFFFFFFFF DUP3 EQ ISZERO PUSH2 0x2272 JUMPI PUSH2 0x2271 PUSH2 0x22C6 JUMP JUMPDEST JUMPDEST PUSH1 0x1 DUP3 ADD SWAP1 POP SWAP2 SWAP1 POP JUMP JUMPDEST PUSH1 0x0 PUSH2 0x2288 DUP3 PUSH2 0x2173 JUMP JUMPDEST SWAP2 POP PUSH32 0xFFFFFFFFFFFFFFFFFFFFFFFFFFFFFFFFFFFFFFFFFFFFFFFFFFFFFFFFFFFFFFFF DUP3 EQ ISZERO PUSH2 0x22BB JUMPI PUSH2 0x22BA PUSH2 0x22C6 JUMP JUMPDEST JUMPDEST PUSH1 0x1 DUP3 ADD SWAP1 POP SWAP2 SWAP1 POP JUMP JUMPDEST PUSH32 0x4E487B7100000000000000000000000000000000000000000000000000000000 PUSH1 0x0 MSTORE PUSH1 0x11 PUSH1 0x4 MSTORE PUSH1 0x24 PUSH1 0x0 REVERT JUMPDEST PUSH32 0x4E487B7100000000000000000000000000000000000000000000000000000000 PUSH1 0x0 MSTORE PUSH1 0x12 PUSH1 0x4 MSTORE PUSH1 0x24 PUSH1 0x0 REVERT JUMPDEST PUSH32 0x4E487B7100000000000000000000000000000000000000000000000000000000 PUSH1 0x0 MSTORE PUSH1 0x21 PUSH1 0x4 MSTORE PUSH1 0x24 PUSH1 0x0 REVERT JUMPDEST PUSH32 0x4E487B7100000000000000000000000000000000000000000000000000000000 PUSH1 0x0 MSTORE PUSH1 0x22 PUSH1 0x4 MSTORE PUSH1 0x24 PUSH1 0x0 REVERT JUMPDEST PUSH32 0x4E487B7100000000000000000000000000000000000000000000000000000000 PUSH1 0x0 MSTORE PUSH1 0x32 PUSH1 0x4 MSTORE PUSH1 0x24 PUSH1 0x0 REVERT JUMPDEST PUSH32 0x4E487B7100000000000000000000000000000000000000000000000000000000 PUSH1 0x0 MSTORE PUSH1 0x41 PUSH1 0x4 MSTORE PUSH1 0x24 PUSH1 0x0 REVERT JUMPDEST PUSH1 0x0 DUP1 REVERT JUMPDEST PUSH1 0x0 DUP1 REVERT JUMPDEST PUSH1 0x0 DUP1 REVERT JUMPDEST PUSH1 0x0 DUP1 REVERT JUMPDEST PUSH1 0x0 DUP1 REVERT JUMPDEST PUSH1 0x0 PUSH1 0x1F NOT PUSH1 0x1F DUP4 ADD AND SWAP1 POP SWAP2 SWAP1 POP JUMP JUMPDEST PUSH32 0x43616E6E6F742063616C6C20746869732066756E6374696F6E20646972656374 PUSH1 0x0 DUP3 ADD MSTORE PUSH32 0x6C792C207573652056656E646F72466163746F72792E00000000000000000000 PUSH1 0x20 DUP3 ADD MSTORE POP JUMP JUMPDEST PUSH32 0x526566756E64696E67207061796D656E742E0000000000000000000000000000 PUSH1 0x0 DUP3 ADD MSTORE POP JUMP JUMPDEST PUSH32 0x53656E64696E67207061796D656E742E00000000000000000000000000000000 PUSH1 0x0 DUP3 ADD MSTORE POP JUMP JUMPDEST PUSH32 0x3D3D000000000000000000000000000000000000000000000000000000000000 PUSH1 0x0 DUP3 ADD MSTORE POP JUMP JUMPDEST PUSH32 0x3C00000000000000000000000000000000000000000000000000000000000000 PUSH1 0x0 DUP3 ADD MSTORE POP JUMP JUMPDEST PUSH32 0x213D000000000000000000000000000000000000000000000000000000000000 PUSH1 0x0 DUP3 ADD MSTORE POP JUMP JUMPDEST PUSH32 0x3D3E000000000000000000000000000000000000000000000000000000000000 PUSH1 0x0 DUP3 ADD MSTORE POP JUMP JUMPDEST PUSH32 0x3C3D000000000000000000000000000000000000000000000000000000000000 PUSH1 0x0 DUP3 ADD MSTORE POP JUMP JUMPDEST PUSH32 0x3E00000000000000000000000000000000000000000000000000000000000000 PUSH1 0x0 DUP3 ADD MSTORE POP JUMP JUMPDEST PUSH32 0x4E6F742077697468696E207468652062696C6C696E6720706572696F64000000 PUSH1 0x0 DUP3 ADD MSTORE POP JUMP JUMPDEST PUSH32 0x436F6E7472616374206973206E6F7420696E2074686520726571756972656420 PUSH1 0x0 DUP3 ADD MSTORE PUSH32 0x7374617465000000000000000000000000000000000000000000000000000000 PUSH1 0x20 DUP3 ADD MSTORE POP JUMP JUMPDEST PUSH1 0x5 DUP2 LT PUSH2 0x262A JUMPI PUSH2 0x2629 PUSH2 0x2324 JUMP JUMPDEST JUMPDEST POP JUMP JUMPDEST PUSH2 0x2636 DUP2 PUSH2 0x2106 JUMP JUMPDEST DUP2 EQ PUSH2 0x2641 JUMPI PUSH1 0x0 DUP1 REVERT JUMPDEST POP JUMP JUMPDEST PUSH2 0x264D DUP2 PUSH2 0x2149 JUMP JUMPDEST DUP2 EQ PUSH2 0x2658 JUMPI PUSH1 0x0 DUP1 REVERT JUMPDEST POP JUMP JUMPDEST PUSH2 0x2664 DUP2 PUSH2 0x2173 JUMP JUMPDEST DUP2 EQ PUSH2 0x266F JUMPI PUSH1 0x0 DUP1 REVERT JUMPDEST POP JUMP INVALID LOG2 PUSH5 0x6970667358 0x22 SLT KECCAK256 CALL PUSH10 0x7E7B2450756E559D84E0 0xEE 0xB3 ADDMOD 0x2A BALANCE SAR 0xD9 PUSH30 0xEA93A4C4B9AF835C8C931EE564736F6C6343000806003300000000000000 "
    },
    "gasEstimates": {
      "creation": {
        "codeDepositCost": "1979200",
        "executionCost": "infinite",
        "totalCost": "infinite"
      },
      "external": {
        "admin()": "2621",
        "amount()": "2451",
        "approve()": "53199",
        "balanceOf()": "450",
        "client()": "2560",
        "conditionArray(uint256)": "infinite",
        "contractHash()": "2496",
        "destroy()": "32117",
        "endInitStage()": "infinite",
        "expiryDate()": "2518",
        "init(address,uint256,uint256,uint256,uint256)": "infinite",
        "nextBillingDate()": "2496",
        "payee()": "2558",
        "payeeApproved()": "2632",
        "prevBillingDate()": "2563",
        "receiveServiceData(int256[])": "infinite",
        "satisfied()": "2544",
        "setActive()": "26780",
        "setConds(string[8],int256[8],string[8])": "infinite",
        "setInactive()": "26735",
        "setPayee(address)": "24767",
        "stage()": "2626",
        "startDate()": "2453",
        "storePayment()": "infinite"
      },
      "internal": {
        "calcDate(uint256)": "infinite",
        "condValid(int256,int256,int256)": "229",
        "initOperators()": "infinite",
        "isSatisfied()": "infinite",
        "payVendor()": "infinite",
        "refund()": "infinite",
        "setNewDates()": "infinite"
      }
    },
    "methodIdentifiers": {
      "admin()": "f851a440",
      "amount()": "aa8c217c",
      "approve()": "12424e3f",
      "balanceOf()": "722713f7",
      "client()": "109e94cf",
      "conditionArray(uint256)": "182541d2",
      "contractHash()": "904c6094",
      "destroy()": "83197ef0",
      "endInitStage()": "9503fe3d",
      "expiryDate()": "516dde43",
      "init(address,uint256,uint256,uint256,uint256)": "9a730617",
      "nextBillingDate()": "43885314",
      "payee()": "ae90b213",
      "payeeApproved()": "97c0bba1",
      "prevBillingDate()": "25419c24",
      "receiveServiceData(int256[])": "21ce5afd",
      "satisfied()": "3a40f3b2",
      "setActive()": "760a8c2a",
      "setConds(string[8],int256[8],string[8])": "fadeaa59",
      "setInactive()": "f1b9ee24",
      "setPayee(address)": "410459ad",
      "stage()": "c040e6b8",
      "startDate()": "0b97bc86",
      "storePayment()": "84ac4446"
    }
  },
  "storageLayout": {
    "storage": [
      {
        "astId": 41,
        "contract": "Vendor.sol:Vendor",
        "label": "admin",
        "offset": 0,
        "slot": "0",
        "type": "t_address"
      },
      {
        "astId": 43,
        "contract": "Vendor.sol:Vendor",
        "label": "client",
        "offset": 0,
        "slot": "1",
        "type": "t_address_payable"
      },
      {
        "astId": 45,
        "contract": "Vendor.sol:Vendor",
        "label": "payee",
        "offset": 0,
        "slot": "2",
        "type": "t_address_payable"
      },
      {
        "astId": 47,
        "contract": "Vendor.sol:Vendor",
        "label": "payeeApproved",
        "offset": 20,
        "slot": "2",
        "type": "t_bool"
      },
      {
        "astId": 49,
        "contract": "Vendor.sol:Vendor",
        "label": "startDate",
        "offset": 0,
        "slot": "3",
        "type": "t_uint256"
      },
      {
        "astId": 51,
        "contract": "Vendor.sol:Vendor",
        "label": "expiryDate",
        "offset": 0,
        "slot": "4",
        "type": "t_uint256"
      },
      {
        "astId": 53,
        "contract": "Vendor.sol:Vendor",
        "label": "amount",
        "offset": 0,
        "slot": "5",
        "type": "t_uint256"
      },
      {
        "astId": 55,
        "contract": "Vendor.sol:Vendor",
        "label": "prevBillingDate",
        "offset": 0,
        "slot": "6",
        "type": "t_uint256"
      },
      {
        "astId": 57,
        "contract": "Vendor.sol:Vendor",
        "label": "nextBillingDate",
        "offset": 0,
        "slot": "7",
        "type": "t_uint256"
      },
      {
        "astId": 59,
        "contract": "Vendor.sol:Vendor",
        "label": "contractHash",
        "offset": 0,
        "slot": "8",
        "type": "t_uint256"
      },
      {
        "astId": 70,
        "contract": "Vendor.sol:Vendor",
        "label": "stage",
        "offset": 0,
        "slot": "9",
        "type": "t_enum(Stages)65"
      },
      {
        "astId": 73,
        "contract": "Vendor.sol:Vendor",
        "label": "satisfied",
        "offset": 1,
        "slot": "9",
        "type": "t_bool"
      },
      {
        "astId": 84,
        "contract": "Vendor.sol:Vendor",
        "label": "conditionArray",
        "offset": 0,
        "slot": "10",
        "type": "t_array(t_struct(Conditions)80_storage)dyn_storage"
      },
      {
        "astId": 88,
        "contract": "Vendor.sol:Vendor",
        "label": "operators",
        "offset": 0,
        "slot": "11",
        "type": "t_mapping(t_string_memory_ptr,t_int256)"
      },
      {
        "astId": 100,
        "contract": "Vendor.sol:Vendor",
        "label": "blocksSecond",
        "offset": 0,
        "slot": "12",
        "type": "t_uint256"
      },
      {
        "astId": 104,
        "contract": "Vendor.sol:Vendor",
        "label": "cumulative",
        "offset": 0,
        "slot": "13",
        "type": "t_mapping(t_uint256,t_int256)"
      },
      {
        "astId": 106,
        "contract": "Vendor.sol:Vendor",
        "label": "count",
        "offset": 0,
        "slot": "14",
        "type": "t_int256"
      }
    ],
    "types": {
      "t_address": {
        "encoding": "inplace",
        "label": "address",
        "numberOfBytes": "20"
      },
      "t_address_payable": {
        "encoding": "inplace",
        "label": "address payable",
        "numberOfBytes": "20"
      },
      "t_array(t_struct(Conditions)80_storage)dyn_storage": {
        "base": "t_struct(Conditions)80_storage",
        "encoding": "dynamic_array",
        "label": "struct Vendor.Conditions[]",
        "numberOfBytes": "32"
      },
      "t_bool": {
        "encoding": "inplace",
        "label": "bool",
        "numberOfBytes": "1"
      },
      "t_enum(Stages)65": {
        "encoding": "inplace",
        "label": "enum Vendor.Stages",
        "numberOfBytes": "1"
      },
      "t_int256": {
        "encoding": "inplace",
        "label": "int256",
        "numberOfBytes": "32"
      },
      "t_mapping(t_string_memory_ptr,t_int256)": {
        "encoding": "mapping",
        "key": "t_string_memory_ptr",
        "label": "mapping(string => int256)",
        "numberOfBytes": "32",
        "value": "t_int256"
      },
      "t_mapping(t_uint256,t_int256)": {
        "encoding": "mapping",
        "key": "t_uint256",
        "label": "mapping(uint256 => int256)",
        "numberOfBytes": "32",
        "value": "t_int256"
      },
      "t_string_memory_ptr": {
        "encoding": "bytes",
        "label": "string",
        "numberOfBytes": "32"
      },
      "t_string_storage": {
        "encoding": "bytes",
        "label": "string",
        "numberOfBytes": "32"
      },
      "t_struct(Conditions)80_storage": {
        "encoding": "inplace",
        "label": "struct Vendor.Conditions",
        "members": [
          {
            "astId": 75,
            "contract": "Vendor.sol:Vendor",
            "label": "value",
            "offset": 0,
            "slot": "0",
            "type": "t_int256"
          },
          {
            "astId": 77,
            "contract": "Vendor.sol:Vendor",
            "label": "operator",
            "offset": 0,
            "slot": "1",
            "type": "t_int256"
          },
          {
            "astId": 79,
            "contract": "Vendor.sol:Vendor",
            "label": "name",
            "offset": 0,
            "slot": "2",
            "type": "t_string_storage"
          }
        ],
        "numberOfBytes": "96"
      },
      "t_uint256": {
        "encoding": "inplace",
        "label": "uint256",
        "numberOfBytes": "32"
      }
    }
  },
  "userdoc": {
    "kind": "user",
    "methods": {},
    "notice": "Contract that handles automated payment, considering if conditions are satisfied.",
    "version": 1
  }
}