{
  "abi": [
    {
      "anonymous": false,
      "inputs": [
        {
          "indexed": false,
          "internalType": "address",
          "name": "client",
          "type": "address"
        },
        {
          "indexed": false,
          "internalType": "address",
          "name": "payee",
          "type": "address"
        },
        {
          "indexed": false,
          "internalType": "uint256",
          "name": "startDate",
          "type": "uint256"
        },
        {
          "indexed": false,
          "internalType": "uint256",
          "name": "expiryDate",
          "type": "uint256"
        },
        {
          "indexed": false,
          "internalType": "uint256",
          "name": "amount",
          "type": "uint256"
        },
        {
          "indexed": false,
          "internalType": "uint256",
          "name": "prevBillingDate",
          "type": "uint256"
        },
        {
          "indexed": false,
          "internalType": "uint256",
          "name": "nextBillingDate",
          "type": "uint256"
        },
        {
          "indexed": false,
          "internalType": "uint256",
          "name": "contractHash",
          "type": "uint256"
        },
        {
          "indexed": false,
          "internalType": "string[8]",
          "name": "names",
          "type": "string[8]"
        },
        {
          "indexed": false,
          "internalType": "int256[8]",
          "name": "values",
          "type": "int256[8]"
        },
        {
          "indexed": false,
          "internalType": "string[8]",
          "name": "operators",
          "type": "string[8]"
        }
      ],
      "name": "Details",
      "type": "event"
    },
    {
      "anonymous": false,
      "inputs": [
        {
          "indexed": false,
          "internalType": "string",
          "name": "message",
          "type": "string"
        },
        {
          "indexed": false,
          "internalType": "uint256",
          "name": "whatever",
          "type": "uint256"
        }
      ],
      "name": "Log",
      "type": "event"
    },
    {
      "anonymous": false,
      "inputs": [
        {
          "indexed": true,
          "internalType": "address",
          "name": "sender",
          "type": "address"
        },
        {
          "indexed": false,
          "internalType": "bool",
          "name": "isSatisfied",
          "type": "bool"
        },
        {
          "indexed": false,
          "internalType": "string",
          "name": "message",
          "type": "string"
        }
      ],
      "name": "State",
      "type": "event"
    },
    {
      "inputs": [],
      "name": "admin",
      "outputs": [
        {
          "internalType": "address",
          "name": "",
          "type": "address"
        }
      ],
      "stateMutability": "view",
      "type": "function"
    },
    {
      "inputs": [],
      "name": "amount",
      "outputs": [
        {
          "internalType": "uint256",
          "name": "",
          "type": "uint256"
        }
      ],
      "stateMutability": "view",
      "type": "function"
    },
    {
      "inputs": [],
      "name": "approve",
      "outputs": [],
      "stateMutability": "nonpayable",
      "type": "function"
    },
    {
      "inputs": [],
      "name": "balanceOf",
      "outputs": [
        {
          "internalType": "uint256",
          "name": "",
          "type": "uint256"
        }
      ],
      "stateMutability": "view",
      "type": "function"
    },
    {
      "inputs": [],
      "name": "client",
      "outputs": [
        {
          "internalType": "address payable",
          "name": "",
          "type": "address"
        }
      ],
      "stateMutability": "view",
      "type": "function"
    },
    {
      "inputs": [],
      "name": "contractHash",
      "outputs": [
        {
          "internalType": "uint256",
          "name": "",
          "type": "uint256"
        }
      ],
      "stateMutability": "view",
      "type": "function"
    },
    {
      "inputs": [],
      "name": "destroy",
      "outputs": [],
      "stateMutability": "nonpayable",
      "type": "function"
    },
    {
      "inputs": [],
      "name": "endInitStage",
      "outputs": [],
      "stateMutability": "nonpayable",
      "type": "function"
    },
    {
      "inputs": [],
      "name": "expiryDate",
      "outputs": [
        {
          "internalType": "uint256",
          "name": "",
          "type": "uint256"
        }
      ],
      "stateMutability": "view",
      "type": "function"
    },
    {
      "inputs": [],
      "name": "getDetails",
      "outputs": [
        {
          "internalType": "address",
          "name": "",
          "type": "address"
        },
        {
          "internalType": "address",
          "name": "",
          "type": "address"
        },
        {
          "internalType": "uint256",
          "name": "",
          "type": "uint256"
        },
        {
          "internalType": "uint256",
          "name": "",
          "type": "uint256"
        },
        {
          "internalType": "uint256",
          "name": "",
          "type": "uint256"
        },
        {
          "internalType": "uint256",
          "name": "",
          "type": "uint256"
        },
        {
          "internalType": "uint256",
          "name": "",
          "type": "uint256"
        },
        {
          "internalType": "uint256",
          "name": "",
          "type": "uint256"
        },
        {
          "internalType": "string[8]",
          "name": "",
          "type": "string[8]"
        },
        {
          "internalType": "int256[8]",
          "name": "",
          "type": "int256[8]"
        },
        {
          "internalType": "string[8]",
          "name": "",
          "type": "string[8]"
        }
      ],
      "stateMutability": "view",
      "type": "function"
    },
    {
      "inputs": [
        {
          "internalType": "address",
          "name": "_client",
          "type": "address"
        },
        {
          "internalType": "uint256",
          "name": "_expiredOn",
          "type": "uint256"
        },
        {
          "internalType": "uint256",
          "name": "_startDate",
          "type": "uint256"
        },
        {
          "internalType": "uint256",
          "name": "_contractHash",
          "type": "uint256"
        },
        {
          "internalType": "uint256",
          "name": "_amount",
          "type": "uint256"
        }
      ],
      "name": "init",
      "outputs": [],
      "stateMutability": "nonpayable",
      "type": "function"
    },
    {
      "inputs": [],
      "name": "isSatisfied",
      "outputs": [],
      "stateMutability": "nonpayable",
      "type": "function"
    },
    {
      "inputs": [
        {
          "internalType": "uint256",
          "name": "",
          "type": "uint256"
        }
      ],
      "name": "names",
      "outputs": [
        {
          "internalType": "string",
          "name": "",
          "type": "string"
        }
      ],
      "stateMutability": "view",
      "type": "function"
    },
    {
      "inputs": [],
      "name": "nextBillingDate",
      "outputs": [
        {
          "internalType": "uint256",
          "name": "",
          "type": "uint256"
        }
      ],
      "stateMutability": "view",
      "type": "function"
    },
    {
      "inputs": [
        {
          "internalType": "uint256",
          "name": "",
          "type": "uint256"
        }
      ],
      "name": "operators",
      "outputs": [
        {
          "internalType": "int256",
          "name": "",
          "type": "int256"
        }
      ],
      "stateMutability": "view",
      "type": "function"
    },
    {
      "inputs": [
        {
          "internalType": "uint256",
          "name": "",
          "type": "uint256"
        }
      ],
      "name": "original",
      "outputs": [
        {
          "internalType": "string",
          "name": "",
          "type": "string"
        }
      ],
      "stateMutability": "view",
      "type": "function"
    },
    {
      "inputs": [],
      "name": "paid",
      "outputs": [
        {
          "internalType": "bool",
          "name": "",
          "type": "bool"
        }
      ],
      "stateMutability": "view",
      "type": "function"
    },
    {
      "inputs": [],
      "name": "payee",
      "outputs": [
        {
          "internalType": "address payable",
          "name": "",
          "type": "address"
        }
      ],
      "stateMutability": "view",
      "type": "function"
    },
    {
      "inputs": [],
      "name": "payeeApproved",
      "outputs": [
        {
          "internalType": "bool",
          "name": "",
          "type": "bool"
        }
      ],
      "stateMutability": "view",
      "type": "function"
    },
    {
      "inputs": [],
      "name": "prevBillingDate",
      "outputs": [
        {
          "internalType": "uint256",
          "name": "",
          "type": "uint256"
        }
      ],
      "stateMutability": "view",
      "type": "function"
    },
    {
      "inputs": [
        {
          "internalType": "int256[]",
          "name": "_cumulative",
          "type": "int256[]"
        }
      ],
      "name": "receiveServiceData",
      "outputs": [],
      "stateMutability": "nonpayable",
      "type": "function"
    },
    {
      "inputs": [
        {
          "internalType": "int256[]",
          "name": "_cumulative",
          "type": "int256[]"
        }
      ],
      "name": "receiveServiceDataBypass",
      "outputs": [],
      "stateMutability": "nonpayable",
      "type": "function"
    },
    {
      "inputs": [],
      "name": "satisfied",
      "outputs": [
        {
          "internalType": "bool",
          "name": "",
          "type": "bool"
        }
      ],
      "stateMutability": "view",
      "type": "function"
    },
    {
      "inputs": [],
      "name": "setActive",
      "outputs": [],
      "stateMutability": "nonpayable",
      "type": "function"
    },
    {
      "inputs": [
        {
          "internalType": "string[8]",
          "name": "_names",
          "type": "string[8]"
        },
        {
          "internalType": "int256[8]",
          "name": "_values",
          "type": "int256[8]"
        },
        {
          "internalType": "string[8]",
          "name": "_operators",
          "type": "string[8]"
        }
      ],
      "name": "setConds",
      "outputs": [],
      "stateMutability": "nonpayable",
      "type": "function"
    },
    {
      "inputs": [],
      "name": "setInactive",
      "outputs": [],
      "stateMutability": "nonpayable",
      "type": "function"
    },
    {
      "inputs": [
        {
          "internalType": "address",
          "name": "_payee",
          "type": "address"
        }
      ],
      "name": "setPayee",
      "outputs": [],
      "stateMutability": "nonpayable",
      "type": "function"
    },
    {
      "inputs": [],
      "name": "stage",
      "outputs": [
        {
          "internalType": "enum Vendor.Stages",
          "name": "",
          "type": "uint8"
        }
      ],
      "stateMutability": "view",
      "type": "function"
    },
    {
      "inputs": [],
      "name": "startDate",
      "outputs": [
        {
          "internalType": "uint256",
          "name": "",
          "type": "uint256"
        }
      ],
      "stateMutability": "view",
      "type": "function"
    },
    {
      "inputs": [],
      "name": "storePayment",
      "outputs": [],
      "stateMutability": "payable",
      "type": "function"
    },
    {
      "inputs": [
        {
          "internalType": "uint256",
          "name": "",
          "type": "uint256"
        }
      ],
      "name": "values",
      "outputs": [
        {
          "internalType": "int256",
          "name": "",
          "type": "int256"
        }
      ],
      "stateMutability": "view",
      "type": "function"
    }
  ],
  "devdoc": {
    "kind": "dev",
    "methods": {},
    "version": 1
  },
  "evm": {
    "assembly": "    /* \"Vendor.sol\":151:10730  contract Vendor {... */\n  mstore(0x40, 0x80)\n    /* \"Vendor.sol\":637:656  Stages.Initialising */\n  0x00\n    /* \"Vendor.sol\":615:656  Stages public stage = Stages.Initialising */\n  0x09\n  exp(0x0100, 0x00)\n  dup2\n  sload\n  dup2\n  0xff\n  mul\n  not\n  and\n  swap1\n  dup4\n  0x04\n  dup2\n  gt\n  iszero\n  tag_1\n  jumpi\n  tag_2\n  tag_3\n  jump\t// in\ntag_2:\ntag_1:\n  mul\n  or\n  swap1\n  sstore\n  pop\n    /* \"Vendor.sol\":687:692  false */\n  0x00\n    /* \"Vendor.sol\":663:692  bool public satisfied = false */\n  0x09\n  exp(0x0100, 0x01)\n  dup2\n  sload\n  dup2\n  0xff\n  mul\n  not\n  and\n  swap1\n  dup4\n  iszero\n  iszero\n  mul\n  or\n  swap1\n  sstore\n  pop\n    /* \"Vendor.sol\":918:919  0 */\n  0x00\n    /* \"Vendor.sol\":888:919  uint private conditionCount = 0 */\n  0x2b\n  sstore\n    /* \"Vendor.sol\":1268:1269  0 */\n  0x00\n    /* \"Vendor.sol\":1248:1269  int private count = 0 */\n  0x2d\n  sstore\n    /* \"Vendor.sol\":151:10730  contract Vendor {... */\n  callvalue\n  dup1\n  iszero\n  tag_4\n  jumpi\n  0x00\n  dup1\n  revert\ntag_4:\n  pop\n  jump(tag_5)\n    /* \"#utility.yul\":7:187   */\ntag_3:\n    /* \"#utility.yul\":55:132   */\n  0x4e487b7100000000000000000000000000000000000000000000000000000000\n    /* \"#utility.yul\":52:53   */\n  0x00\n    /* \"#utility.yul\":45:133   */\n  mstore\n    /* \"#utility.yul\":152:156   */\n  0x21\n    /* \"#utility.yul\":149:150   */\n  0x04\n    /* \"#utility.yul\":142:157   */\n  mstore\n    /* \"#utility.yul\":176:180   */\n  0x24\n    /* \"#utility.yul\":173:174   */\n  0x00\n    /* \"#utility.yul\":166:181   */\n  revert\n    /* \"Vendor.sol\":151:10730  contract Vendor {... */\ntag_5:\n  dataSize(sub_0)\n  dup1\n  dataOffset(sub_0)\n  0x00\n  codecopy\n  0x00\n  return\nstop\n\nsub_0: assembly {\n        /* \"Vendor.sol\":151:10730  contract Vendor {... */\n      mstore(0x40, 0x80)\n      jumpi(tag_1, lt(calldatasize, 0x04))\n      shr(0xe0, calldataload(0x00))\n      dup1\n      0x83197ef0\n      gt\n      tag_33\n      jumpi\n      dup1\n      0xae90b213\n      gt\n      tag_34\n      jumpi\n      dup1\n      0xf1b9ee24\n      gt\n      tag_35\n      jumpi\n      dup1\n      0xf1b9ee24\n      eq\n      tag_29\n      jumpi\n      dup1\n      0xf851a440\n      eq\n      tag_30\n      jumpi\n      dup1\n      0xfadeaa59\n      eq\n      tag_31\n      jumpi\n      dup1\n      0xfbbf93a0\n      eq\n      tag_32\n      jumpi\n      jump(tag_1)\n    tag_35:\n      dup1\n      0xae90b213\n      eq\n      tag_25\n      jumpi\n      dup1\n      0xc040e6b8\n      eq\n      tag_26\n      jumpi\n      dup1\n      0xe28d4906\n      eq\n      tag_27\n      jumpi\n      dup1\n      0xe9d94c58\n      eq\n      tag_28\n      jumpi\n      jump(tag_1)\n    tag_34:\n      dup1\n      0x97c0bba1\n      gt\n      tag_36\n      jumpi\n      dup1\n      0x97c0bba1\n      eq\n      tag_21\n      jumpi\n      dup1\n      0x9a730617\n      eq\n      tag_22\n      jumpi\n      dup1\n      0xa2c14ad3\n      eq\n      tag_23\n      jumpi\n      dup1\n      0xaa8c217c\n      eq\n      tag_24\n      jumpi\n      jump(tag_1)\n    tag_36:\n      dup1\n      0x83197ef0\n      eq\n      tag_17\n      jumpi\n      dup1\n      0x84ac4446\n      eq\n      tag_18\n      jumpi\n      dup1\n      0x904c6094\n      eq\n      tag_19\n      jumpi\n      dup1\n      0x9503fe3d\n      eq\n      tag_20\n      jumpi\n      jump(tag_1)\n    tag_33:\n      dup1\n      0x410459ad\n      gt\n      tag_37\n      jumpi\n      dup1\n      0x5e383d21\n      gt\n      tag_38\n      jumpi\n      dup1\n      0x5e383d21\n      eq\n      tag_13\n      jumpi\n      dup1\n      0x717eb03f\n      eq\n      tag_14\n      jumpi\n      dup1\n      0x722713f7\n      eq\n      tag_15\n      jumpi\n      dup1\n      0x760a8c2a\n      eq\n      tag_16\n      jumpi\n      jump(tag_1)\n    tag_38:\n      dup1\n      0x410459ad\n      eq\n      tag_9\n      jumpi\n      dup1\n      0x43885314\n      eq\n      tag_10\n      jumpi\n      dup1\n      0x4622ab03\n      eq\n      tag_11\n      jumpi\n      dup1\n      0x516dde43\n      eq\n      tag_12\n      jumpi\n      jump(tag_1)\n    tag_37:\n      dup1\n      0x21ce5afd\n      gt\n      tag_39\n      jumpi\n      dup1\n      0x21ce5afd\n      eq\n      tag_5\n      jumpi\n      dup1\n      0x25419c24\n      eq\n      tag_6\n      jumpi\n      dup1\n      0x295b4e17\n      eq\n      tag_7\n      jumpi\n      dup1\n      0x3a40f3b2\n      eq\n      tag_8\n      jumpi\n      jump(tag_1)\n    tag_39:\n      dup1\n      0x0b97bc86\n      eq\n      tag_2\n      jumpi\n      dup1\n      0x109e94cf\n      eq\n      tag_3\n      jumpi\n      dup1\n      0x12424e3f\n      eq\n      tag_4\n      jumpi\n    tag_1:\n      0x00\n      dup1\n      revert\n        /* \"Vendor.sol\":322:343  uint public startDate */\n    tag_2:\n      callvalue\n      dup1\n      iszero\n      tag_40\n      jumpi\n      0x00\n      dup1\n      revert\n    tag_40:\n      pop\n      tag_41\n      tag_42\n      jump\t// in\n    tag_41:\n      mload(0x40)\n      tag_43\n      swap2\n      swap1\n      tag_44\n      jump\t// in\n    tag_43:\n      mload(0x40)\n      dup1\n      swap2\n      sub\n      swap1\n      return\n        /* \"Vendor.sol\":199:228  address payable public client */\n    tag_3:\n      callvalue\n      dup1\n      iszero\n      tag_45\n      jumpi\n      0x00\n      dup1\n      revert\n    tag_45:\n      pop\n      tag_46\n      tag_47\n      jump\t// in\n    tag_46:\n      mload(0x40)\n      tag_48\n      swap2\n      swap1\n      tag_49\n      jump\t// in\n    tag_48:\n      mload(0x40)\n      dup1\n      swap2\n      sub\n      swap1\n      return\n        /* \"Vendor.sol\":4360:4576  function approve() external atStage(Stages.Pending) {... */\n    tag_4:\n      callvalue\n      dup1\n      iszero\n      tag_50\n      jumpi\n      0x00\n      dup1\n      revert\n    tag_50:\n      pop\n      tag_51\n      tag_52\n      jump\t// in\n    tag_51:\n      stop\n        /* \"Vendor.sol\":6050:6286  function receiveServiceData(int[] memory _cumulative) external atStage(Stages.Active) checkBillingDate() {... */\n    tag_5:\n      callvalue\n      dup1\n      iszero\n      tag_53\n      jumpi\n      0x00\n      dup1\n      revert\n    tag_53:\n      pop\n      tag_54\n      0x04\n      dup1\n      calldatasize\n      sub\n      dup2\n      add\n      swap1\n      tag_55\n      swap2\n      swap1\n      tag_56\n      jump\t// in\n    tag_55:\n      tag_57\n      jump\t// in\n    tag_54:\n      stop\n        /* \"Vendor.sol\":401:428  uint public prevBillingDate */\n    tag_6:\n      callvalue\n      dup1\n      iszero\n      tag_58\n      jumpi\n      0x00\n      dup1\n      revert\n    tag_58:\n      pop\n      tag_59\n      tag_60\n      jump\t// in\n    tag_59:\n      mload(0x40)\n      tag_61\n      swap2\n      swap1\n      tag_44\n      jump\t// in\n    tag_61:\n      mload(0x40)\n      dup1\n      swap2\n      sub\n      swap1\n      return\n        /* \"Vendor.sol\":299:315  bool public paid */\n    tag_7:\n      callvalue\n      dup1\n      iszero\n      tag_62\n      jumpi\n      0x00\n      dup1\n      revert\n    tag_62:\n      pop\n      tag_63\n      tag_64\n      jump\t// in\n    tag_63:\n      mload(0x40)\n      tag_65\n      swap2\n      swap1\n      tag_66\n      jump\t// in\n    tag_65:\n      mload(0x40)\n      dup1\n      swap2\n      sub\n      swap1\n      return\n        /* \"Vendor.sol\":663:692  bool public satisfied = false */\n    tag_8:\n      callvalue\n      dup1\n      iszero\n      tag_67\n      jumpi\n      0x00\n      dup1\n      revert\n    tag_67:\n      pop\n      tag_68\n      tag_69\n      jump\t// in\n    tag_68:\n      mload(0x40)\n      tag_70\n      swap2\n      swap1\n      tag_66\n      jump\t// in\n    tag_70:\n      mload(0x40)\n      dup1\n      swap2\n      sub\n      swap1\n      return\n        /* \"Vendor.sol\":3740:3823  function setPayee(address _payee) external {... */\n    tag_9:\n      callvalue\n      dup1\n      iszero\n      tag_71\n      jumpi\n      0x00\n      dup1\n      revert\n    tag_71:\n      pop\n      tag_72\n      0x04\n      dup1\n      calldatasize\n      sub\n      dup2\n      add\n      swap1\n      tag_73\n      swap2\n      swap1\n      tag_74\n      jump\t// in\n    tag_73:\n      tag_75\n      jump\t// in\n    tag_72:\n      stop\n        /* \"Vendor.sol\":434:461  uint public nextBillingDate */\n    tag_10:\n      callvalue\n      dup1\n      iszero\n      tag_76\n      jumpi\n      0x00\n      dup1\n      revert\n    tag_76:\n      pop\n      tag_77\n      tag_78\n      jump\t// in\n    tag_77:\n      mload(0x40)\n      tag_79\n      swap2\n      swap1\n      tag_44\n      jump\t// in\n    tag_79:\n      mload(0x40)\n      dup1\n      swap2\n      sub\n      swap1\n      return\n        /* \"Vendor.sol\":729:751  string[8] public names */\n    tag_11:\n      callvalue\n      dup1\n      iszero\n      tag_80\n      jumpi\n      0x00\n      dup1\n      revert\n    tag_80:\n      pop\n      tag_81\n      0x04\n      dup1\n      calldatasize\n      sub\n      dup2\n      add\n      swap1\n      tag_82\n      swap2\n      swap1\n      tag_83\n      jump\t// in\n    tag_82:\n      tag_84\n      jump\t// in\n    tag_81:\n      mload(0x40)\n      tag_85\n      swap2\n      swap1\n      tag_86\n      jump\t// in\n    tag_85:\n      mload(0x40)\n      dup1\n      swap2\n      sub\n      swap1\n      return\n        /* \"Vendor.sol\":349:371  uint public expiryDate */\n    tag_12:\n      callvalue\n      dup1\n      iszero\n      tag_87\n      jumpi\n      0x00\n      dup1\n      revert\n    tag_87:\n      pop\n      tag_88\n      tag_89\n      jump\t// in\n    tag_88:\n      mload(0x40)\n      tag_90\n      swap2\n      swap1\n      tag_44\n      jump\t// in\n    tag_90:\n      mload(0x40)\n      dup1\n      swap2\n      sub\n      swap1\n      return\n        /* \"Vendor.sol\":757:777  int[8] public values */\n    tag_13:\n      callvalue\n      dup1\n      iszero\n      tag_91\n      jumpi\n      0x00\n      dup1\n      revert\n    tag_91:\n      pop\n      tag_92\n      0x04\n      dup1\n      calldatasize\n      sub\n      dup2\n      add\n      swap1\n      tag_93\n      swap2\n      swap1\n      tag_83\n      jump\t// in\n    tag_93:\n      tag_94\n      jump\t// in\n    tag_92:\n      mload(0x40)\n      tag_95\n      swap2\n      swap1\n      tag_96\n      jump\t// in\n    tag_95:\n      mload(0x40)\n      dup1\n      swap2\n      sub\n      swap1\n      return\n        /* \"Vendor.sol\":812:837  string[8] public original */\n    tag_14:\n      callvalue\n      dup1\n      iszero\n      tag_97\n      jumpi\n      0x00\n      dup1\n      revert\n    tag_97:\n      pop\n      tag_98\n      0x04\n      dup1\n      calldatasize\n      sub\n      dup2\n      add\n      swap1\n      tag_99\n      swap2\n      swap1\n      tag_83\n      jump\t// in\n    tag_99:\n      tag_100\n      jump\t// in\n    tag_98:\n      mload(0x40)\n      tag_101\n      swap2\n      swap1\n      tag_86\n      jump\t// in\n    tag_101:\n      mload(0x40)\n      dup1\n      swap2\n      sub\n      swap1\n      return\n        /* \"Vendor.sol\":5217:5312  function balanceOf() external view returns (uint) {... */\n    tag_15:\n      callvalue\n      dup1\n      iszero\n      tag_102\n      jumpi\n      0x00\n      dup1\n      revert\n    tag_102:\n      pop\n      tag_103\n      tag_104\n      jump\t// in\n    tag_103:\n      mload(0x40)\n      tag_105\n      swap2\n      swap1\n      tag_44\n      jump\t// in\n    tag_105:\n      mload(0x40)\n      dup1\n      swap2\n      sub\n      swap1\n      return\n        /* \"Vendor.sol\":9178:9271  function setActive() external atStage(Stages.Inactive) {... */\n    tag_16:\n      callvalue\n      dup1\n      iszero\n      tag_106\n      jumpi\n      0x00\n      dup1\n      revert\n    tag_106:\n      pop\n      tag_107\n      tag_108\n      jump\t// in\n    tag_107:\n      stop\n        /* \"Vendor.sol\":9378:9468  function destroy() external atStage(Stages.Inactive) {... */\n    tag_17:\n      callvalue\n      dup1\n      iszero\n      tag_109\n      jumpi\n      0x00\n      dup1\n      revert\n    tag_109:\n      pop\n      tag_110\n      tag_111\n      jump\t// in\n    tag_110:\n      stop\n        /* \"Vendor.sol\":5033:5211  function storePayment() external payable atStage(Stages.Active) checkBillingDate() {... */\n    tag_18:\n      tag_112\n      tag_113\n      jump\t// in\n    tag_112:\n      stop\n        /* \"Vendor.sol\":467:491  uint public contractHash */\n    tag_19:\n      callvalue\n      dup1\n      iszero\n      tag_114\n      jumpi\n      0x00\n      dup1\n      revert\n    tag_114:\n      pop\n      tag_115\n      tag_116\n      jump\t// in\n    tag_115:\n      mload(0x40)\n      tag_117\n      swap2\n      swap1\n      tag_44\n      jump\t// in\n    tag_117:\n      mload(0x40)\n      dup1\n      swap2\n      sub\n      swap1\n      return\n        /* \"Vendor.sol\":3829:4129  function endInitStage() public atStage(Stages.Initialising) {... */\n    tag_20:\n      callvalue\n      dup1\n      iszero\n      tag_118\n      jumpi\n      0x00\n      dup1\n      revert\n    tag_118:\n      pop\n      tag_119\n      tag_120\n      jump\t// in\n    tag_119:\n      stop\n        /* \"Vendor.sol\":268:293  bool public payeeApproved */\n    tag_21:\n      callvalue\n      dup1\n      iszero\n      tag_121\n      jumpi\n      0x00\n      dup1\n      revert\n    tag_121:\n      pop\n      tag_122\n      tag_123\n      jump\t// in\n    tag_122:\n      mload(0x40)\n      tag_124\n      swap2\n      swap1\n      tag_66\n      jump\t// in\n    tag_124:\n      mload(0x40)\n      dup1\n      swap2\n      sub\n      swap1\n      return\n        /* \"Vendor.sol\":2027:2458  function init(address _client, uint _expiredOn, uint _startDate, uint _contractHash, uint _amount) public {... */\n    tag_22:\n      callvalue\n      dup1\n      iszero\n      tag_125\n      jumpi\n      0x00\n      dup1\n      revert\n    tag_125:\n      pop\n      tag_126\n      0x04\n      dup1\n      calldatasize\n      sub\n      dup2\n      add\n      swap1\n      tag_127\n      swap2\n      swap1\n      tag_128\n      jump\t// in\n    tag_127:\n      tag_129\n      jump\t// in\n    tag_126:\n      stop\n        /* \"Vendor.sol\":6626:7237  function isSatisfied() public atStage(Stages.Active) {... */\n    tag_23:\n      callvalue\n      dup1\n      iszero\n      tag_130\n      jumpi\n      0x00\n      dup1\n      revert\n    tag_130:\n      pop\n      tag_131\n      tag_132\n      jump\t// in\n    tag_131:\n      stop\n        /* \"Vendor.sol\":377:395  uint public amount */\n    tag_24:\n      callvalue\n      dup1\n      iszero\n      tag_133\n      jumpi\n      0x00\n      dup1\n      revert\n    tag_133:\n      pop\n      tag_134\n      tag_135\n      jump\t// in\n    tag_134:\n      mload(0x40)\n      tag_136\n      swap2\n      swap1\n      tag_44\n      jump\t// in\n    tag_136:\n      mload(0x40)\n      dup1\n      swap2\n      sub\n      swap1\n      return\n        /* \"Vendor.sol\":234:262  address payable public payee */\n    tag_25:\n      callvalue\n      dup1\n      iszero\n      tag_137\n      jumpi\n      0x00\n      dup1\n      revert\n    tag_137:\n      pop\n      tag_138\n      tag_139\n      jump\t// in\n    tag_138:\n      mload(0x40)\n      tag_140\n      swap2\n      swap1\n      tag_49\n      jump\t// in\n    tag_140:\n      mload(0x40)\n      dup1\n      swap2\n      sub\n      swap1\n      return\n        /* \"Vendor.sol\":615:656  Stages public stage = Stages.Initialising */\n    tag_26:\n      callvalue\n      dup1\n      iszero\n      tag_141\n      jumpi\n      0x00\n      dup1\n      revert\n    tag_141:\n      pop\n      tag_142\n      tag_143\n      jump\t// in\n    tag_142:\n      mload(0x40)\n      tag_144\n      swap2\n      swap1\n      tag_145\n      jump\t// in\n    tag_144:\n      mload(0x40)\n      dup1\n      swap2\n      sub\n      swap1\n      return\n        /* \"Vendor.sol\":783:806  int[8] public operators */\n    tag_27:\n      callvalue\n      dup1\n      iszero\n      tag_146\n      jumpi\n      0x00\n      dup1\n      revert\n    tag_146:\n      pop\n      tag_147\n      0x04\n      dup1\n      calldatasize\n      sub\n      dup2\n      add\n      swap1\n      tag_148\n      swap2\n      swap1\n      tag_83\n      jump\t// in\n    tag_148:\n      tag_149\n      jump\t// in\n    tag_147:\n      mload(0x40)\n      tag_150\n      swap2\n      swap1\n      tag_96\n      jump\t// in\n    tag_150:\n      mload(0x40)\n      dup1\n      swap2\n      sub\n      swap1\n      return\n        /* \"Vendor.sol\":6296:6519  function receiveServiceDataBypass(int[] memory _cumulative) external atStage(Stages.Active) {... */\n    tag_28:\n      callvalue\n      dup1\n      iszero\n      tag_151\n      jumpi\n      0x00\n      dup1\n      revert\n    tag_151:\n      pop\n      tag_152\n      0x04\n      dup1\n      calldatasize\n      sub\n      dup2\n      add\n      swap1\n      tag_153\n      swap2\n      swap1\n      tag_56\n      jump\t// in\n    tag_153:\n      tag_154\n      jump\t// in\n    tag_152:\n      stop\n        /* \"Vendor.sol\":9277:9372  function setInactive() external atStage(Stages.Active) {... */\n    tag_29:\n      callvalue\n      dup1\n      iszero\n      tag_155\n      jumpi\n      0x00\n      dup1\n      revert\n    tag_155:\n      pop\n      tag_156\n      tag_157\n      jump\t// in\n    tag_156:\n      stop\n        /* \"Vendor.sol\":173:193  address public admin */\n    tag_30:\n      callvalue\n      dup1\n      iszero\n      tag_158\n      jumpi\n      0x00\n      dup1\n      revert\n    tag_158:\n      pop\n      tag_159\n      tag_160\n      jump\t// in\n    tag_159:\n      mload(0x40)\n      tag_161\n      swap2\n      swap1\n      tag_162\n      jump\t// in\n    tag_161:\n      mload(0x40)\n      dup1\n      swap2\n      sub\n      swap1\n      return\n        /* \"Vendor.sol\":2874:3734  function setConds(string[8] memory _names, int[8] memory _values, string[8] memory _operators) external atStage(Stages.Initialising) {... */\n    tag_31:\n      callvalue\n      dup1\n      iszero\n      tag_163\n      jumpi\n      0x00\n      dup1\n      revert\n    tag_163:\n      pop\n      tag_164\n      0x04\n      dup1\n      calldatasize\n      sub\n      dup2\n      add\n      swap1\n      tag_165\n      swap2\n      swap1\n      tag_166\n      jump\t// in\n    tag_165:\n      tag_167\n      jump\t// in\n    tag_164:\n      stop\n        /* \"Vendor.sol\":4734:5027  function getDetails() external view returns (address, address, uint, uint, uint, uint, uint, uint, string[8] memory, int[8] memory, string[8] memory) {... */\n    tag_32:\n      callvalue\n      dup1\n      iszero\n      tag_168\n      jumpi\n      0x00\n      dup1\n      revert\n    tag_168:\n      pop\n      tag_169\n      tag_170\n      jump\t// in\n    tag_169:\n      mload(0x40)\n      tag_171\n      swap12\n      swap11\n      swap10\n      swap9\n      swap8\n      swap7\n      swap6\n      swap5\n      swap4\n      swap3\n      swap2\n      swap1\n      tag_172\n      jump\t// in\n    tag_171:\n      mload(0x40)\n      dup1\n      swap2\n      sub\n      swap1\n      return\n        /* \"Vendor.sol\":322:343  uint public startDate */\n    tag_42:\n      sload(0x03)\n      dup2\n      jump\t// out\n        /* \"Vendor.sol\":199:228  address payable public client */\n    tag_47:\n      0x01\n      0x00\n      swap1\n      sload\n      swap1\n      0x0100\n      exp\n      swap1\n      div\n      0xffffffffffffffffffffffffffffffffffffffff\n      and\n      dup2\n      jump\t// out\n        /* \"Vendor.sol\":4360:4576  function approve() external atStage(Stages.Pending) {... */\n    tag_52:\n        /* \"Vendor.sol\":4396:4410  Stages.Pending */\n      0x01\n        /* \"Vendor.sol\":10365:10418  Log(\"inside atStage, current stage is:\", uint(stage)) */\n      0xdd970dd9b5bfe707922155b058a407655cb18288b807e2216442bca8ad83d6b5\n        /* \"Vendor.sol\":10411:10416  stage */\n      0x09\n      0x00\n      swap1\n      sload\n      swap1\n      0x0100\n      exp\n      swap1\n      div\n      0xff\n      and\n        /* \"Vendor.sol\":10406:10417  uint(stage) */\n      0x04\n      dup2\n      gt\n      iszero\n      tag_174\n      jumpi\n      tag_175\n      tag_176\n      jump\t// in\n    tag_175:\n    tag_174:\n        /* \"Vendor.sol\":10365:10418  Log(\"inside atStage, current stage is:\", uint(stage)) */\n      mload(0x40)\n      tag_177\n      swap2\n      swap1\n      tag_178\n      jump\t// in\n    tag_177:\n      mload(0x40)\n      dup1\n      swap2\n      sub\n      swap1\n      log1\n        /* \"Vendor.sol\":10433:10500  Log(\"still inside atStage, trying to compare it to:\", uint(_stage)) */\n      0xdd970dd9b5bfe707922155b058a407655cb18288b807e2216442bca8ad83d6b5\n        /* \"Vendor.sol\":10492:10498  _stage */\n      dup2\n        /* \"Vendor.sol\":10487:10499  uint(_stage) */\n      0x04\n      dup2\n      gt\n      iszero\n      tag_179\n      jumpi\n      tag_180\n      tag_176\n      jump\t// in\n    tag_180:\n    tag_179:\n        /* \"Vendor.sol\":10433:10500  Log(\"still inside atStage, trying to compare it to:\", uint(_stage)) */\n      mload(0x40)\n      tag_181\n      swap2\n      swap1\n      tag_182\n      jump\t// in\n    tag_181:\n      mload(0x40)\n      dup1\n      swap2\n      sub\n      swap1\n      log1\n        /* \"Vendor.sol\":10538:10544  _stage */\n      dup1\n        /* \"Vendor.sol\":10533:10545  uint(_stage) */\n      0x04\n      dup2\n      gt\n      iszero\n      tag_183\n      jumpi\n      tag_184\n      tag_176\n      jump\t// in\n    tag_184:\n    tag_183:\n        /* \"Vendor.sol\":10523:10528  stage */\n      0x09\n      0x00\n      swap1\n      sload\n      swap1\n      0x0100\n      exp\n      swap1\n      div\n      0xff\n      and\n        /* \"Vendor.sol\":10518:10529  uint(stage) */\n      0x04\n      dup2\n      gt\n      iszero\n      tag_185\n      jumpi\n      tag_186\n      tag_176\n      jump\t// in\n    tag_186:\n    tag_185:\n        /* \"Vendor.sol\":10518:10545  uint(stage) == uint(_stage) */\n      eq\n        /* \"Vendor.sol\":10510:10587  require(uint(stage) == uint(_stage), \"Contract is not in the required state\") */\n      tag_187\n      jumpi\n      mload(0x40)\n      0x08c379a000000000000000000000000000000000000000000000000000000000\n      dup2\n      mstore\n      0x04\n      add\n      tag_188\n      swap1\n      tag_189\n      jump\t// in\n    tag_188:\n      mload(0x40)\n      dup1\n      swap2\n      sub\n      swap1\n      revert\n    tag_187:\n        /* \"Vendor.sol\":4444:4449  admin */\n      0x00\n      dup1\n      sload\n      swap1\n      0x0100\n      exp\n      swap1\n      div\n      0xffffffffffffffffffffffffffffffffffffffff\n      and\n        /* \"Vendor.sol\":4430:4449  msg.sender == admin */\n      0xffffffffffffffffffffffffffffffffffffffff\n      and\n        /* \"Vendor.sol\":4430:4440  msg.sender */\n      caller\n        /* \"Vendor.sol\":4430:4449  msg.sender == admin */\n      0xffffffffffffffffffffffffffffffffffffffff\n      and\n      eq\n        /* \"Vendor.sol\":4422:4508  require(msg.sender == admin, \"Cannot call this function directly, use VendorFactory.\") */\n      tag_191\n      jumpi\n      mload(0x40)\n      0x08c379a000000000000000000000000000000000000000000000000000000000\n      dup2\n      mstore\n      0x04\n      add\n      tag_192\n      swap1\n      tag_193\n      jump\t// in\n    tag_192:\n      mload(0x40)\n      dup1\n      swap2\n      sub\n      swap1\n      revert\n    tag_191:\n        /* \"Vendor.sol\":4534:4538  true */\n      0x01\n        /* \"Vendor.sol\":4518:4531  payeeApproved */\n      0x02\n      0x14\n        /* \"Vendor.sol\":4518:4538  payeeApproved = true */\n      0x0100\n      exp\n      dup2\n      sload\n      dup2\n      0xff\n      mul\n      not\n      and\n      swap1\n      dup4\n      iszero\n      iszero\n      mul\n      or\n      swap1\n      sstore\n      pop\n        /* \"Vendor.sol\":4556:4569  Stages.Active */\n      0x03\n        /* \"Vendor.sol\":4548:4553  stage */\n      0x09\n      0x00\n        /* \"Vendor.sol\":4548:4569  stage = Stages.Active */\n      0x0100\n      exp\n      dup2\n      sload\n      dup2\n      0xff\n      mul\n      not\n      and\n      swap1\n      dup4\n      0x04\n      dup2\n      gt\n      iszero\n      tag_194\n      jumpi\n      tag_195\n      tag_176\n      jump\t// in\n    tag_195:\n    tag_194:\n      mul\n      or\n      swap1\n      sstore\n      pop\n        /* \"Vendor.sol\":4360:4576  function approve() external atStage(Stages.Pending) {... */\n      pop\n      jump\t// out\n        /* \"Vendor.sol\":6050:6286  function receiveServiceData(int[] memory _cumulative) external atStage(Stages.Active) checkBillingDate() {... */\n    tag_57:\n        /* \"Vendor.sol\":6121:6134  Stages.Active */\n      0x03\n        /* \"Vendor.sol\":10365:10418  Log(\"inside atStage, current stage is:\", uint(stage)) */\n      0xdd970dd9b5bfe707922155b058a407655cb18288b807e2216442bca8ad83d6b5\n        /* \"Vendor.sol\":10411:10416  stage */\n      0x09\n      0x00\n      swap1\n      sload\n      swap1\n      0x0100\n      exp\n      swap1\n      div\n      0xff\n      and\n        /* \"Vendor.sol\":10406:10417  uint(stage) */\n      0x04\n      dup2\n      gt\n      iszero\n      tag_197\n      jumpi\n      tag_198\n      tag_176\n      jump\t// in\n    tag_198:\n    tag_197:\n        /* \"Vendor.sol\":10365:10418  Log(\"inside atStage, current stage is:\", uint(stage)) */\n      mload(0x40)\n      tag_199\n      swap2\n      swap1\n      tag_178\n      jump\t// in\n    tag_199:\n      mload(0x40)\n      dup1\n      swap2\n      sub\n      swap1\n      log1\n        /* \"Vendor.sol\":10433:10500  Log(\"still inside atStage, trying to compare it to:\", uint(_stage)) */\n      0xdd970dd9b5bfe707922155b058a407655cb18288b807e2216442bca8ad83d6b5\n        /* \"Vendor.sol\":10492:10498  _stage */\n      dup2\n        /* \"Vendor.sol\":10487:10499  uint(_stage) */\n      0x04\n      dup2\n      gt\n      iszero\n      tag_200\n      jumpi\n      tag_201\n      tag_176\n      jump\t// in\n    tag_201:\n    tag_200:\n        /* \"Vendor.sol\":10433:10500  Log(\"still inside atStage, trying to compare it to:\", uint(_stage)) */\n      mload(0x40)\n      tag_202\n      swap2\n      swap1\n      tag_182\n      jump\t// in\n    tag_202:\n      mload(0x40)\n      dup1\n      swap2\n      sub\n      swap1\n      log1\n        /* \"Vendor.sol\":10538:10544  _stage */\n      dup1\n        /* \"Vendor.sol\":10533:10545  uint(_stage) */\n      0x04\n      dup2\n      gt\n      iszero\n      tag_203\n      jumpi\n      tag_204\n      tag_176\n      jump\t// in\n    tag_204:\n    tag_203:\n        /* \"Vendor.sol\":10523:10528  stage */\n      0x09\n      0x00\n      swap1\n      sload\n      swap1\n      0x0100\n      exp\n      swap1\n      div\n      0xff\n      and\n        /* \"Vendor.sol\":10518:10529  uint(stage) */\n      0x04\n      dup2\n      gt\n      iszero\n      tag_205\n      jumpi\n      tag_206\n      tag_176\n      jump\t// in\n    tag_206:\n    tag_205:\n        /* \"Vendor.sol\":10518:10545  uint(stage) == uint(_stage) */\n      eq\n        /* \"Vendor.sol\":10510:10587  require(uint(stage) == uint(_stage), \"Contract is not in the required state\") */\n      tag_207\n      jumpi\n      mload(0x40)\n      0x08c379a000000000000000000000000000000000000000000000000000000000\n      dup2\n      mstore\n      0x04\n      add\n      tag_208\n      swap1\n      tag_189\n      jump\t// in\n    tag_208:\n      mload(0x40)\n      dup1\n      swap2\n      sub\n      swap1\n      revert\n    tag_207:\n        /* \"Vendor.sol\":9877:9892  nextBillingDate */\n      sload(0x07)\n        /* \"Vendor.sol\":9862:9874  block.number */\n      number\n        /* \"Vendor.sol\":9862:9892  block.number > nextBillingDate */\n      gt\n        /* \"Vendor.sol\":9858:10086  if (block.number > nextBillingDate) {... */\n      iszero\n      tag_210\n      jumpi\n        /* \"Vendor.sol\":9908:9921  isSatisfied() */\n      tag_211\n        /* \"Vendor.sol\":9908:9919  isSatisfied */\n      tag_132\n        /* \"Vendor.sol\":9908:9921  isSatisfied() */\n      jump\t// in\n    tag_211:\n        /* \"Vendor.sol\":9858:10086  if (block.number > nextBillingDate) {... */\n      jump(tag_212)\n    tag_210:\n        /* \"Vendor.sol\":9976:9991  prevBillingDate */\n      sload(0x06)\n        /* \"Vendor.sol\":9960:9972  block.number */\n      number\n        /* \"Vendor.sol\":9960:9991  block.number >= prevBillingDate */\n      lt\n      iszero\n        /* \"Vendor.sol\":9960:10026  block.number >= prevBillingDate && block.number <= nextBillingDate */\n      dup1\n      iszero\n      tag_213\n      jumpi\n      pop\n        /* \"Vendor.sol\":10011:10026  nextBillingDate */\n      sload(0x07)\n        /* \"Vendor.sol\":9995:10007  block.number */\n      number\n        /* \"Vendor.sol\":9995:10026  block.number <= nextBillingDate */\n      gt\n      iszero\n        /* \"Vendor.sol\":9960:10026  block.number >= prevBillingDate && block.number <= nextBillingDate */\n    tag_213:\n        /* \"Vendor.sol\":9952:10060  require(block.number >= prevBillingDate && block.number <= nextBillingDate, \"Not within the billing period\") */\n      tag_214\n      jumpi\n      mload(0x40)\n      0x08c379a000000000000000000000000000000000000000000000000000000000\n      dup2\n      mstore\n      0x04\n      add\n      tag_215\n      swap1\n      tag_216\n      jump\t// in\n    tag_215:\n      mload(0x40)\n      dup1\n      swap2\n      sub\n      swap1\n      revert\n    tag_214:\n        /* \"Vendor.sol\":6170:6176  uint i */\n      0x00\n        /* \"Vendor.sol\":6165:6263  for (uint i = 0; i < conditionCount; i++) {... */\n    tag_218:\n        /* \"Vendor.sol\":6186:6200  conditionCount */\n      sload(0x2b)\n        /* \"Vendor.sol\":6182:6183  i */\n      dup2\n        /* \"Vendor.sol\":6182:6200  i < conditionCount */\n      lt\n        /* \"Vendor.sol\":6165:6263  for (uint i = 0; i < conditionCount; i++) {... */\n      iszero\n      tag_219\n      jumpi\n        /* \"Vendor.sol\":6238:6249  _cumulative */\n      dup3\n        /* \"Vendor.sol\":6250:6251  i */\n      dup2\n        /* \"Vendor.sol\":6238:6252  _cumulative[i] */\n      dup2\n      mload\n      dup2\n      lt\n      tag_221\n      jumpi\n      tag_222\n      tag_223\n      jump\t// in\n    tag_222:\n    tag_221:\n      0x20\n      mul\n      0x20\n      add\n      add\n      mload\n        /* \"Vendor.sol\":6221:6231  cumulative */\n      0x2c\n        /* \"Vendor.sol\":6221:6234  cumulative[i] */\n      0x00\n        /* \"Vendor.sol\":6232:6233  i */\n      dup4\n        /* \"Vendor.sol\":6221:6234  cumulative[i] */\n      dup2\n      mstore\n      0x20\n      add\n      swap1\n      dup2\n      mstore\n      0x20\n      add\n      0x00\n      keccak256\n      0x00\n        /* \"Vendor.sol\":6221:6252  cumulative[i] += _cumulative[i] */\n      dup3\n      dup3\n      sload\n      tag_224\n      swap2\n      swap1\n      tag_225\n      jump\t// in\n    tag_224:\n      swap3\n      pop\n      pop\n      dup2\n      swap1\n      sstore\n      pop\n        /* \"Vendor.sol\":6202:6205  i++ */\n      dup1\n      dup1\n      tag_226\n      swap1\n      tag_227\n      jump\t// in\n    tag_226:\n      swap2\n      pop\n      pop\n        /* \"Vendor.sol\":6165:6263  for (uint i = 0; i < conditionCount; i++) {... */\n      jump(tag_218)\n    tag_219:\n      pop\n        /* \"Vendor.sol\":6272:6277  count */\n      0x2d\n      0x00\n        /* \"Vendor.sol\":6272:6279  count++ */\n      dup2\n      sload\n      dup1\n      swap3\n      swap2\n      swap1\n      tag_228\n      swap1\n      tag_229\n      jump\t// in\n    tag_228:\n      swap2\n      swap1\n      pop\n      sstore\n      pop\n        /* \"Vendor.sol\":9858:10086  if (block.number > nextBillingDate) {... */\n    tag_212:\n        /* \"Vendor.sol\":6050:6286  function receiveServiceData(int[] memory _cumulative) external atStage(Stages.Active) checkBillingDate() {... */\n      pop\n      pop\n      jump\t// out\n        /* \"Vendor.sol\":401:428  uint public prevBillingDate */\n    tag_60:\n      sload(0x06)\n      dup2\n      jump\t// out\n        /* \"Vendor.sol\":299:315  bool public paid */\n    tag_64:\n      0x02\n      0x15\n      swap1\n      sload\n      swap1\n      0x0100\n      exp\n      swap1\n      div\n      0xff\n      and\n      dup2\n      jump\t// out\n        /* \"Vendor.sol\":663:692  bool public satisfied = false */\n    tag_69:\n      0x09\n      0x01\n      swap1\n      sload\n      swap1\n      0x0100\n      exp\n      swap1\n      div\n      0xff\n      and\n      dup2\n      jump\t// out\n        /* \"Vendor.sol\":3740:3823  function setPayee(address _payee) external {... */\n    tag_75:\n        /* \"Vendor.sol\":3809:3815  _payee */\n      dup1\n        /* \"Vendor.sol\":3793:3798  payee */\n      0x02\n      0x00\n        /* \"Vendor.sol\":3793:3816  payee = payable(_payee) */\n      0x0100\n      exp\n      dup2\n      sload\n      dup2\n      0xffffffffffffffffffffffffffffffffffffffff\n      mul\n      not\n      and\n      swap1\n      dup4\n      0xffffffffffffffffffffffffffffffffffffffff\n      and\n      mul\n      or\n      swap1\n      sstore\n      pop\n        /* \"Vendor.sol\":3740:3823  function setPayee(address _payee) external {... */\n      pop\n      jump\t// out\n        /* \"Vendor.sol\":434:461  uint public nextBillingDate */\n    tag_78:\n      sload(0x07)\n      dup2\n      jump\t// out\n        /* \"Vendor.sol\":729:751  string[8] public names */\n    tag_84:\n      0x0a\n      dup2\n      0x08\n      dup2\n      lt\n      tag_231\n      jumpi\n      0x00\n      dup1\n      revert\n    tag_231:\n      add\n      0x00\n      swap2\n      pop\n      swap1\n      pop\n      dup1\n      sload\n      tag_233\n      swap1\n      tag_234\n      jump\t// in\n    tag_233:\n      dup1\n      0x1f\n      add\n      0x20\n      dup1\n      swap2\n      div\n      mul\n      0x20\n      add\n      mload(0x40)\n      swap1\n      dup2\n      add\n      0x40\n      mstore\n      dup1\n      swap3\n      swap2\n      swap1\n      dup2\n      dup2\n      mstore\n      0x20\n      add\n      dup3\n      dup1\n      sload\n      tag_235\n      swap1\n      tag_234\n      jump\t// in\n    tag_235:\n      dup1\n      iszero\n      tag_236\n      jumpi\n      dup1\n      0x1f\n      lt\n      tag_237\n      jumpi\n      0x0100\n      dup1\n      dup4\n      sload\n      div\n      mul\n      dup4\n      mstore\n      swap2\n      0x20\n      add\n      swap2\n      jump(tag_236)\n    tag_237:\n      dup3\n      add\n      swap2\n      swap1\n      0x00\n      mstore\n      keccak256(0x00, 0x20)\n      swap1\n    tag_238:\n      dup2\n      sload\n      dup2\n      mstore\n      swap1\n      0x01\n      add\n      swap1\n      0x20\n      add\n      dup1\n      dup4\n      gt\n      tag_238\n      jumpi\n      dup3\n      swap1\n      sub\n      0x1f\n      and\n      dup3\n      add\n      swap2\n    tag_236:\n      pop\n      pop\n      pop\n      pop\n      pop\n      dup2\n      jump\t// out\n        /* \"Vendor.sol\":349:371  uint public expiryDate */\n    tag_89:\n      sload(0x04)\n      dup2\n      jump\t// out\n        /* \"Vendor.sol\":757:777  int[8] public values */\n    tag_94:\n      0x12\n      dup2\n      0x08\n      dup2\n      lt\n      tag_239\n      jumpi\n      0x00\n      dup1\n      revert\n    tag_239:\n      add\n      0x00\n      swap2\n      pop\n      swap1\n      pop\n      sload\n      dup2\n      jump\t// out\n        /* \"Vendor.sol\":812:837  string[8] public original */\n    tag_100:\n      0x22\n      dup2\n      0x08\n      dup2\n      lt\n      tag_241\n      jumpi\n      0x00\n      dup1\n      revert\n    tag_241:\n      add\n      0x00\n      swap2\n      pop\n      swap1\n      pop\n      dup1\n      sload\n      tag_243\n      swap1\n      tag_234\n      jump\t// in\n    tag_243:\n      dup1\n      0x1f\n      add\n      0x20\n      dup1\n      swap2\n      div\n      mul\n      0x20\n      add\n      mload(0x40)\n      swap1\n      dup2\n      add\n      0x40\n      mstore\n      dup1\n      swap3\n      swap2\n      swap1\n      dup2\n      dup2\n      mstore\n      0x20\n      add\n      dup3\n      dup1\n      sload\n      tag_244\n      swap1\n      tag_234\n      jump\t// in\n    tag_244:\n      dup1\n      iszero\n      tag_245\n      jumpi\n      dup1\n      0x1f\n      lt\n      tag_246\n      jumpi\n      0x0100\n      dup1\n      dup4\n      sload\n      div\n      mul\n      dup4\n      mstore\n      swap2\n      0x20\n      add\n      swap2\n      jump(tag_245)\n    tag_246:\n      dup3\n      add\n      swap2\n      swap1\n      0x00\n      mstore\n      keccak256(0x00, 0x20)\n      swap1\n    tag_247:\n      dup2\n      sload\n      dup2\n      mstore\n      swap1\n      0x01\n      add\n      swap1\n      0x20\n      add\n      dup1\n      dup4\n      gt\n      tag_247\n      jumpi\n      dup3\n      swap1\n      sub\n      0x1f\n      and\n      dup3\n      add\n      swap2\n    tag_245:\n      pop\n      pop\n      pop\n      pop\n      pop\n      dup2\n      jump\t// out\n        /* \"Vendor.sol\":5217:5312  function balanceOf() external view returns (uint) {... */\n    tag_104:\n        /* \"Vendor.sol\":5261:5265  uint */\n      0x00\n        /* \"Vendor.sol\":5284:5305  address(this).balance */\n      selfbalance\n        /* \"Vendor.sol\":5277:5305  return address(this).balance */\n      swap1\n      pop\n        /* \"Vendor.sol\":5217:5312  function balanceOf() external view returns (uint) {... */\n      swap1\n      jump\t// out\n        /* \"Vendor.sol\":9178:9271  function setActive() external atStage(Stages.Inactive) {... */\n    tag_108:\n        /* \"Vendor.sol\":9216:9231  Stages.Inactive */\n      0x02\n        /* \"Vendor.sol\":10365:10418  Log(\"inside atStage, current stage is:\", uint(stage)) */\n      0xdd970dd9b5bfe707922155b058a407655cb18288b807e2216442bca8ad83d6b5\n        /* \"Vendor.sol\":10411:10416  stage */\n      0x09\n      0x00\n      swap1\n      sload\n      swap1\n      0x0100\n      exp\n      swap1\n      div\n      0xff\n      and\n        /* \"Vendor.sol\":10406:10417  uint(stage) */\n      0x04\n      dup2\n      gt\n      iszero\n      tag_250\n      jumpi\n      tag_251\n      tag_176\n      jump\t// in\n    tag_251:\n    tag_250:\n        /* \"Vendor.sol\":10365:10418  Log(\"inside atStage, current stage is:\", uint(stage)) */\n      mload(0x40)\n      tag_252\n      swap2\n      swap1\n      tag_178\n      jump\t// in\n    tag_252:\n      mload(0x40)\n      dup1\n      swap2\n      sub\n      swap1\n      log1\n        /* \"Vendor.sol\":10433:10500  Log(\"still inside atStage, trying to compare it to:\", uint(_stage)) */\n      0xdd970dd9b5bfe707922155b058a407655cb18288b807e2216442bca8ad83d6b5\n        /* \"Vendor.sol\":10492:10498  _stage */\n      dup2\n        /* \"Vendor.sol\":10487:10499  uint(_stage) */\n      0x04\n      dup2\n      gt\n      iszero\n      tag_253\n      jumpi\n      tag_254\n      tag_176\n      jump\t// in\n    tag_254:\n    tag_253:\n        /* \"Vendor.sol\":10433:10500  Log(\"still inside atStage, trying to compare it to:\", uint(_stage)) */\n      mload(0x40)\n      tag_255\n      swap2\n      swap1\n      tag_182\n      jump\t// in\n    tag_255:\n      mload(0x40)\n      dup1\n      swap2\n      sub\n      swap1\n      log1\n        /* \"Vendor.sol\":10538:10544  _stage */\n      dup1\n        /* \"Vendor.sol\":10533:10545  uint(_stage) */\n      0x04\n      dup2\n      gt\n      iszero\n      tag_256\n      jumpi\n      tag_257\n      tag_176\n      jump\t// in\n    tag_257:\n    tag_256:\n        /* \"Vendor.sol\":10523:10528  stage */\n      0x09\n      0x00\n      swap1\n      sload\n      swap1\n      0x0100\n      exp\n      swap1\n      div\n      0xff\n      and\n        /* \"Vendor.sol\":10518:10529  uint(stage) */\n      0x04\n      dup2\n      gt\n      iszero\n      tag_258\n      jumpi\n      tag_259\n      tag_176\n      jump\t// in\n    tag_259:\n    tag_258:\n        /* \"Vendor.sol\":10518:10545  uint(stage) == uint(_stage) */\n      eq\n        /* \"Vendor.sol\":10510:10587  require(uint(stage) == uint(_stage), \"Contract is not in the required state\") */\n      tag_260\n      jumpi\n      mload(0x40)\n      0x08c379a000000000000000000000000000000000000000000000000000000000\n      dup2\n      mstore\n      0x04\n      add\n      tag_261\n      swap1\n      tag_189\n      jump\t// in\n    tag_261:\n      mload(0x40)\n      dup1\n      swap2\n      sub\n      swap1\n      revert\n    tag_260:\n        /* \"Vendor.sol\":9251:9264  Stages.Active */\n      0x03\n        /* \"Vendor.sol\":9243:9248  stage */\n      0x09\n      0x00\n        /* \"Vendor.sol\":9243:9264  stage = Stages.Active */\n      0x0100\n      exp\n      dup2\n      sload\n      dup2\n      0xff\n      mul\n      not\n      and\n      swap1\n      dup4\n      0x04\n      dup2\n      gt\n      iszero\n      tag_263\n      jumpi\n      tag_264\n      tag_176\n      jump\t// in\n    tag_264:\n    tag_263:\n      mul\n      or\n      swap1\n      sstore\n      pop\n        /* \"Vendor.sol\":9178:9271  function setActive() external atStage(Stages.Inactive) {... */\n      pop\n      jump\t// out\n        /* \"Vendor.sol\":9378:9468  function destroy() external atStage(Stages.Inactive) {... */\n    tag_111:\n        /* \"Vendor.sol\":9414:9429  Stages.Inactive */\n      0x02\n        /* \"Vendor.sol\":10365:10418  Log(\"inside atStage, current stage is:\", uint(stage)) */\n      0xdd970dd9b5bfe707922155b058a407655cb18288b807e2216442bca8ad83d6b5\n        /* \"Vendor.sol\":10411:10416  stage */\n      0x09\n      0x00\n      swap1\n      sload\n      swap1\n      0x0100\n      exp\n      swap1\n      div\n      0xff\n      and\n        /* \"Vendor.sol\":10406:10417  uint(stage) */\n      0x04\n      dup2\n      gt\n      iszero\n      tag_266\n      jumpi\n      tag_267\n      tag_176\n      jump\t// in\n    tag_267:\n    tag_266:\n        /* \"Vendor.sol\":10365:10418  Log(\"inside atStage, current stage is:\", uint(stage)) */\n      mload(0x40)\n      tag_268\n      swap2\n      swap1\n      tag_178\n      jump\t// in\n    tag_268:\n      mload(0x40)\n      dup1\n      swap2\n      sub\n      swap1\n      log1\n        /* \"Vendor.sol\":10433:10500  Log(\"still inside atStage, trying to compare it to:\", uint(_stage)) */\n      0xdd970dd9b5bfe707922155b058a407655cb18288b807e2216442bca8ad83d6b5\n        /* \"Vendor.sol\":10492:10498  _stage */\n      dup2\n        /* \"Vendor.sol\":10487:10499  uint(_stage) */\n      0x04\n      dup2\n      gt\n      iszero\n      tag_269\n      jumpi\n      tag_270\n      tag_176\n      jump\t// in\n    tag_270:\n    tag_269:\n        /* \"Vendor.sol\":10433:10500  Log(\"still inside atStage, trying to compare it to:\", uint(_stage)) */\n      mload(0x40)\n      tag_271\n      swap2\n      swap1\n      tag_182\n      jump\t// in\n    tag_271:\n      mload(0x40)\n      dup1\n      swap2\n      sub\n      swap1\n      log1\n        /* \"Vendor.sol\":10538:10544  _stage */\n      dup1\n        /* \"Vendor.sol\":10533:10545  uint(_stage) */\n      0x04\n      dup2\n      gt\n      iszero\n      tag_272\n      jumpi\n      tag_273\n      tag_176\n      jump\t// in\n    tag_273:\n    tag_272:\n        /* \"Vendor.sol\":10523:10528  stage */\n      0x09\n      0x00\n      swap1\n      sload\n      swap1\n      0x0100\n      exp\n      swap1\n      div\n      0xff\n      and\n        /* \"Vendor.sol\":10518:10529  uint(stage) */\n      0x04\n      dup2\n      gt\n      iszero\n      tag_274\n      jumpi\n      tag_275\n      tag_176\n      jump\t// in\n    tag_275:\n    tag_274:\n        /* \"Vendor.sol\":10518:10545  uint(stage) == uint(_stage) */\n      eq\n        /* \"Vendor.sol\":10510:10587  require(uint(stage) == uint(_stage), \"Contract is not in the required state\") */\n      tag_276\n      jumpi\n      mload(0x40)\n      0x08c379a000000000000000000000000000000000000000000000000000000000\n      dup2\n      mstore\n      0x04\n      add\n      tag_277\n      swap1\n      tag_189\n      jump\t// in\n    tag_277:\n      mload(0x40)\n      dup1\n      swap2\n      sub\n      swap1\n      revert\n    tag_276:\n        /* \"Vendor.sol\":9454:9460  client */\n      0x01\n      0x00\n      swap1\n      sload\n      swap1\n      0x0100\n      exp\n      swap1\n      div\n      0xffffffffffffffffffffffffffffffffffffffff\n      and\n        /* \"Vendor.sol\":9441:9461  selfdestruct(client) */\n      0xffffffffffffffffffffffffffffffffffffffff\n      and\n      selfdestruct\n        /* \"Vendor.sol\":5033:5211  function storePayment() external payable atStage(Stages.Active) checkBillingDate() {... */\n    tag_113:\n        /* \"Vendor.sol\":5082:5095  Stages.Active */\n      0x03\n        /* \"Vendor.sol\":10365:10418  Log(\"inside atStage, current stage is:\", uint(stage)) */\n      0xdd970dd9b5bfe707922155b058a407655cb18288b807e2216442bca8ad83d6b5\n        /* \"Vendor.sol\":10411:10416  stage */\n      0x09\n      0x00\n      swap1\n      sload\n      swap1\n      0x0100\n      exp\n      swap1\n      div\n      0xff\n      and\n        /* \"Vendor.sol\":10406:10417  uint(stage) */\n      0x04\n      dup2\n      gt\n      iszero\n      tag_280\n      jumpi\n      tag_281\n      tag_176\n      jump\t// in\n    tag_281:\n    tag_280:\n        /* \"Vendor.sol\":10365:10418  Log(\"inside atStage, current stage is:\", uint(stage)) */\n      mload(0x40)\n      tag_282\n      swap2\n      swap1\n      tag_178\n      jump\t// in\n    tag_282:\n      mload(0x40)\n      dup1\n      swap2\n      sub\n      swap1\n      log1\n        /* \"Vendor.sol\":10433:10500  Log(\"still inside atStage, trying to compare it to:\", uint(_stage)) */\n      0xdd970dd9b5bfe707922155b058a407655cb18288b807e2216442bca8ad83d6b5\n        /* \"Vendor.sol\":10492:10498  _stage */\n      dup2\n        /* \"Vendor.sol\":10487:10499  uint(_stage) */\n      0x04\n      dup2\n      gt\n      iszero\n      tag_283\n      jumpi\n      tag_284\n      tag_176\n      jump\t// in\n    tag_284:\n    tag_283:\n        /* \"Vendor.sol\":10433:10500  Log(\"still inside atStage, trying to compare it to:\", uint(_stage)) */\n      mload(0x40)\n      tag_285\n      swap2\n      swap1\n      tag_182\n      jump\t// in\n    tag_285:\n      mload(0x40)\n      dup1\n      swap2\n      sub\n      swap1\n      log1\n        /* \"Vendor.sol\":10538:10544  _stage */\n      dup1\n        /* \"Vendor.sol\":10533:10545  uint(_stage) */\n      0x04\n      dup2\n      gt\n      iszero\n      tag_286\n      jumpi\n      tag_287\n      tag_176\n      jump\t// in\n    tag_287:\n    tag_286:\n        /* \"Vendor.sol\":10523:10528  stage */\n      0x09\n      0x00\n      swap1\n      sload\n      swap1\n      0x0100\n      exp\n      swap1\n      div\n      0xff\n      and\n        /* \"Vendor.sol\":10518:10529  uint(stage) */\n      0x04\n      dup2\n      gt\n      iszero\n      tag_288\n      jumpi\n      tag_289\n      tag_176\n      jump\t// in\n    tag_289:\n    tag_288:\n        /* \"Vendor.sol\":10518:10545  uint(stage) == uint(_stage) */\n      eq\n        /* \"Vendor.sol\":10510:10587  require(uint(stage) == uint(_stage), \"Contract is not in the required state\") */\n      tag_290\n      jumpi\n      mload(0x40)\n      0x08c379a000000000000000000000000000000000000000000000000000000000\n      dup2\n      mstore\n      0x04\n      add\n      tag_291\n      swap1\n      tag_189\n      jump\t// in\n    tag_291:\n      mload(0x40)\n      dup1\n      swap2\n      sub\n      swap1\n      revert\n    tag_290:\n        /* \"Vendor.sol\":9877:9892  nextBillingDate */\n      sload(0x07)\n        /* \"Vendor.sol\":9862:9874  block.number */\n      number\n        /* \"Vendor.sol\":9862:9892  block.number > nextBillingDate */\n      gt\n        /* \"Vendor.sol\":9858:10086  if (block.number > nextBillingDate) {... */\n      iszero\n      tag_293\n      jumpi\n        /* \"Vendor.sol\":9908:9921  isSatisfied() */\n      tag_294\n        /* \"Vendor.sol\":9908:9919  isSatisfied */\n      tag_132\n        /* \"Vendor.sol\":9908:9921  isSatisfied() */\n      jump\t// in\n    tag_294:\n        /* \"Vendor.sol\":9858:10086  if (block.number > nextBillingDate) {... */\n      jump(tag_295)\n    tag_293:\n        /* \"Vendor.sol\":9976:9991  prevBillingDate */\n      sload(0x06)\n        /* \"Vendor.sol\":9960:9972  block.number */\n      number\n        /* \"Vendor.sol\":9960:9991  block.number >= prevBillingDate */\n      lt\n      iszero\n        /* \"Vendor.sol\":9960:10026  block.number >= prevBillingDate && block.number <= nextBillingDate */\n      dup1\n      iszero\n      tag_296\n      jumpi\n      pop\n        /* \"Vendor.sol\":10011:10026  nextBillingDate */\n      sload(0x07)\n        /* \"Vendor.sol\":9995:10007  block.number */\n      number\n        /* \"Vendor.sol\":9995:10026  block.number <= nextBillingDate */\n      gt\n      iszero\n        /* \"Vendor.sol\":9960:10026  block.number >= prevBillingDate && block.number <= nextBillingDate */\n    tag_296:\n        /* \"Vendor.sol\":9952:10060  require(block.number >= prevBillingDate && block.number <= nextBillingDate, \"Not within the billing period\") */\n      tag_297\n      jumpi\n      mload(0x40)\n      0x08c379a000000000000000000000000000000000000000000000000000000000\n      dup2\n      mstore\n      0x04\n      add\n      tag_298\n      swap1\n      tag_216\n      jump\t// in\n    tag_298:\n      mload(0x40)\n      dup1\n      swap2\n      sub\n      swap1\n      revert\n    tag_297:\n        /* \"Vendor.sol\":5143:5149  amount */\n      sload(0x05)\n        /* \"Vendor.sol\":5130:5139  msg.value */\n      callvalue\n        /* \"Vendor.sol\":5130:5149  msg.value != amount */\n      eq\n        /* \"Vendor.sol\":5126:5184  if (msg.value != amount) {... */\n      tag_300\n      jumpi\n        /* \"Vendor.sol\":5165:5173  revert() */\n      0x00\n      dup1\n      revert\n        /* \"Vendor.sol\":5126:5184  if (msg.value != amount) {... */\n    tag_300:\n        /* \"Vendor.sol\":5200:5204  true */\n      0x01\n        /* \"Vendor.sol\":5193:5197  paid */\n      0x02\n      0x15\n        /* \"Vendor.sol\":5193:5204  paid = true */\n      0x0100\n      exp\n      dup2\n      sload\n      dup2\n      0xff\n      mul\n      not\n      and\n      swap1\n      dup4\n      iszero\n      iszero\n      mul\n      or\n      swap1\n      sstore\n      pop\n        /* \"Vendor.sol\":9858:10086  if (block.number > nextBillingDate) {... */\n    tag_295:\n        /* \"Vendor.sol\":5033:5211  function storePayment() external payable atStage(Stages.Active) checkBillingDate() {... */\n      pop\n      jump\t// out\n        /* \"Vendor.sol\":467:491  uint public contractHash */\n    tag_116:\n      sload(0x08)\n      dup2\n      jump\t// out\n        /* \"Vendor.sol\":3829:4129  function endInitStage() public atStage(Stages.Initialising) {... */\n    tag_120:\n        /* \"Vendor.sol\":3868:3887  Stages.Initialising */\n      0x00\n        /* \"Vendor.sol\":10365:10418  Log(\"inside atStage, current stage is:\", uint(stage)) */\n      0xdd970dd9b5bfe707922155b058a407655cb18288b807e2216442bca8ad83d6b5\n        /* \"Vendor.sol\":10411:10416  stage */\n      0x09\n      0x00\n      swap1\n      sload\n      swap1\n      0x0100\n      exp\n      swap1\n      div\n      0xff\n      and\n        /* \"Vendor.sol\":10406:10417  uint(stage) */\n      0x04\n      dup2\n      gt\n      iszero\n      tag_302\n      jumpi\n      tag_303\n      tag_176\n      jump\t// in\n    tag_303:\n    tag_302:\n        /* \"Vendor.sol\":10365:10418  Log(\"inside atStage, current stage is:\", uint(stage)) */\n      mload(0x40)\n      tag_304\n      swap2\n      swap1\n      tag_178\n      jump\t// in\n    tag_304:\n      mload(0x40)\n      dup1\n      swap2\n      sub\n      swap1\n      log1\n        /* \"Vendor.sol\":10433:10500  Log(\"still inside atStage, trying to compare it to:\", uint(_stage)) */\n      0xdd970dd9b5bfe707922155b058a407655cb18288b807e2216442bca8ad83d6b5\n        /* \"Vendor.sol\":10492:10498  _stage */\n      dup2\n        /* \"Vendor.sol\":10487:10499  uint(_stage) */\n      0x04\n      dup2\n      gt\n      iszero\n      tag_305\n      jumpi\n      tag_306\n      tag_176\n      jump\t// in\n    tag_306:\n    tag_305:\n        /* \"Vendor.sol\":10433:10500  Log(\"still inside atStage, trying to compare it to:\", uint(_stage)) */\n      mload(0x40)\n      tag_307\n      swap2\n      swap1\n      tag_182\n      jump\t// in\n    tag_307:\n      mload(0x40)\n      dup1\n      swap2\n      sub\n      swap1\n      log1\n        /* \"Vendor.sol\":10538:10544  _stage */\n      dup1\n        /* \"Vendor.sol\":10533:10545  uint(_stage) */\n      0x04\n      dup2\n      gt\n      iszero\n      tag_308\n      jumpi\n      tag_309\n      tag_176\n      jump\t// in\n    tag_309:\n    tag_308:\n        /* \"Vendor.sol\":10523:10528  stage */\n      0x09\n      0x00\n      swap1\n      sload\n      swap1\n      0x0100\n      exp\n      swap1\n      div\n      0xff\n      and\n        /* \"Vendor.sol\":10518:10529  uint(stage) */\n      0x04\n      dup2\n      gt\n      iszero\n      tag_310\n      jumpi\n      tag_311\n      tag_176\n      jump\t// in\n    tag_311:\n    tag_310:\n        /* \"Vendor.sol\":10518:10545  uint(stage) == uint(_stage) */\n      eq\n        /* \"Vendor.sol\":10510:10587  require(uint(stage) == uint(_stage), \"Contract is not in the required state\") */\n      tag_312\n      jumpi\n      mload(0x40)\n      0x08c379a000000000000000000000000000000000000000000000000000000000\n      dup2\n      mstore\n      0x04\n      add\n      tag_313\n      swap1\n      tag_189\n      jump\t// in\n    tag_313:\n      mload(0x40)\n      dup1\n      swap2\n      sub\n      swap1\n      revert\n    tag_312:\n        /* \"Vendor.sol\":3904:3962  Log(\"inside endInitStage, current stage is:\", uint(stage)) */\n      0xdd970dd9b5bfe707922155b058a407655cb18288b807e2216442bca8ad83d6b5\n        /* \"Vendor.sol\":3955:3960  stage */\n      0x09\n      0x00\n      swap1\n      sload\n      swap1\n      0x0100\n      exp\n      swap1\n      div\n      0xff\n      and\n        /* \"Vendor.sol\":3950:3961  uint(stage) */\n      0x04\n      dup2\n      gt\n      iszero\n      tag_315\n      jumpi\n      tag_316\n      tag_176\n      jump\t// in\n    tag_316:\n    tag_315:\n        /* \"Vendor.sol\":3904:3962  Log(\"inside endInitStage, current stage is:\", uint(stage)) */\n      mload(0x40)\n      tag_317\n      swap2\n      swap1\n      tag_318\n      jump\t// in\n    tag_317:\n      mload(0x40)\n      dup1\n      swap2\n      sub\n      swap1\n      log1\n        /* \"Vendor.sol\":3980:3994  Stages.Pending */\n      0x01\n        /* \"Vendor.sol\":3972:3977  stage */\n      0x09\n      0x00\n        /* \"Vendor.sol\":3972:3994  stage = Stages.Pending */\n      0x0100\n      exp\n      dup2\n      sload\n      dup2\n      0xff\n      mul\n      not\n      and\n      swap1\n      dup4\n      0x04\n      dup2\n      gt\n      iszero\n      tag_319\n      jumpi\n      tag_320\n      tag_176\n      jump\t// in\n    tag_320:\n    tag_319:\n      mul\n      or\n      swap1\n      sstore\n      pop\n        /* \"Vendor.sol\":4057:4063  uint i */\n      0x00\n        /* \"Vendor.sol\":4052:4123  for (uint i = 0; i < 8; i++) {... */\n    tag_321:\n        /* \"Vendor.sol\":4073:4074  8 */\n      0x08\n        /* \"Vendor.sol\":4069:4070  i */\n      dup2\n        /* \"Vendor.sol\":4069:4074  i < 8 */\n      lt\n        /* \"Vendor.sol\":4052:4123  for (uint i = 0; i < 8; i++) {... */\n      iszero\n      tag_322\n      jumpi\n        /* \"Vendor.sol\":4111:4112  0 */\n      0x00\n        /* \"Vendor.sol\":4095:4105  cumulative */\n      0x2c\n        /* \"Vendor.sol\":4095:4108  cumulative[i] */\n      0x00\n        /* \"Vendor.sol\":4106:4107  i */\n      dup4\n        /* \"Vendor.sol\":4095:4108  cumulative[i] */\n      dup2\n      mstore\n      0x20\n      add\n      swap1\n      dup2\n      mstore\n      0x20\n      add\n      0x00\n      keccak256\n        /* \"Vendor.sol\":4095:4112  cumulative[i] = 0 */\n      dup2\n      swap1\n      sstore\n      pop\n        /* \"Vendor.sol\":4076:4079  i++ */\n      dup1\n      dup1\n      tag_324\n      swap1\n      tag_227\n      jump\t// in\n    tag_324:\n      swap2\n      pop\n      pop\n        /* \"Vendor.sol\":4052:4123  for (uint i = 0; i < 8; i++) {... */\n      jump(tag_321)\n    tag_322:\n      pop\n        /* \"Vendor.sol\":3829:4129  function endInitStage() public atStage(Stages.Initialising) {... */\n      pop\n      jump\t// out\n        /* \"Vendor.sol\":268:293  bool public payeeApproved */\n    tag_123:\n      0x02\n      0x14\n      swap1\n      sload\n      swap1\n      0x0100\n      exp\n      swap1\n      div\n      0xff\n      and\n      dup2\n      jump\t// out\n        /* \"Vendor.sol\":2027:2458  function init(address _client, uint _expiredOn, uint _startDate, uint _contractHash, uint _amount) public {... */\n    tag_129:\n        /* \"Vendor.sol\":2151:2161  msg.sender */\n      caller\n        /* \"Vendor.sol\":2143:2148  admin */\n      0x00\n      dup1\n        /* \"Vendor.sol\":2143:2161  admin = msg.sender */\n      0x0100\n      exp\n      dup2\n      sload\n      dup2\n      0xffffffffffffffffffffffffffffffffffffffff\n      mul\n      not\n      and\n      swap1\n      dup4\n      0xffffffffffffffffffffffffffffffffffffffff\n      and\n      mul\n      or\n      swap1\n      sstore\n      pop\n        /* \"Vendor.sol\":2188:2195  _client */\n      dup5\n        /* \"Vendor.sol\":2171:2177  client */\n      0x01\n      0x00\n        /* \"Vendor.sol\":2171:2196  client = payable(_client) */\n      0x0100\n      exp\n      dup2\n      sload\n      dup2\n      0xffffffffffffffffffffffffffffffffffffffff\n      mul\n      not\n      and\n      swap1\n      dup4\n      0xffffffffffffffffffffffffffffffffffffffff\n      and\n      mul\n      or\n      swap1\n      sstore\n      pop\n        /* \"Vendor.sol\":2219:2229  _expiredOn */\n      dup4\n        /* \"Vendor.sol\":2206:2216  expiryDate */\n      0x04\n        /* \"Vendor.sol\":2206:2229  expiryDate = _expiredOn */\n      dup2\n      swap1\n      sstore\n      pop\n        /* \"Vendor.sol\":2251:2261  _startDate */\n      dup3\n        /* \"Vendor.sol\":2239:2248  startDate */\n      0x03\n        /* \"Vendor.sol\":2239:2261  startDate = _startDate */\n      dup2\n      swap1\n      sstore\n      pop\n        /* \"Vendor.sol\":2289:2309  calcDate(_startDate) */\n      tag_326\n        /* \"Vendor.sol\":2298:2308  _startDate */\n      dup4\n        /* \"Vendor.sol\":2289:2297  calcDate */\n      tag_327\n        /* \"Vendor.sol\":2289:2309  calcDate(_startDate) */\n      jump\t// in\n    tag_326:\n        /* \"Vendor.sol\":2271:2286  prevBillingDate */\n      0x06\n        /* \"Vendor.sol\":2271:2309  prevBillingDate = calcDate(_startDate) */\n      dup2\n      swap1\n      sstore\n      pop\n        /* \"Vendor.sol\":2337:2362  calcDate(_startDate + 30) */\n      tag_328\n        /* \"Vendor.sol\":2359:2361  30 */\n      0x1e\n        /* \"Vendor.sol\":2346:2356  _startDate */\n      dup5\n        /* \"Vendor.sol\":2346:2361  _startDate + 30 */\n      tag_329\n      swap2\n      swap1\n      tag_330\n      jump\t// in\n    tag_329:\n        /* \"Vendor.sol\":2337:2345  calcDate */\n      tag_327\n        /* \"Vendor.sol\":2337:2362  calcDate(_startDate + 30) */\n      jump\t// in\n    tag_328:\n        /* \"Vendor.sol\":2319:2334  nextBillingDate */\n      0x07\n        /* \"Vendor.sol\":2319:2362  nextBillingDate = calcDate(_startDate + 30) */\n      dup2\n      swap1\n      sstore\n      pop\n        /* \"Vendor.sol\":2387:2400  _contractHash */\n      dup2\n        /* \"Vendor.sol\":2372:2384  contractHash */\n      0x08\n        /* \"Vendor.sol\":2372:2400  contractHash = _contractHash */\n      dup2\n      swap1\n      sstore\n      pop\n        /* \"Vendor.sol\":2419:2426  _amount */\n      dup1\n        /* \"Vendor.sol\":2410:2416  amount */\n      0x05\n        /* \"Vendor.sol\":2410:2426  amount = _amount */\n      dup2\n      swap1\n      sstore\n      pop\n        /* \"Vendor.sol\":2436:2451  initOperators() */\n      tag_331\n        /* \"Vendor.sol\":2436:2449  initOperators */\n      tag_332\n        /* \"Vendor.sol\":2436:2451  initOperators() */\n      jump\t// in\n    tag_331:\n        /* \"Vendor.sol\":2027:2458  function init(address _client, uint _expiredOn, uint _startDate, uint _contractHash, uint _amount) public {... */\n      pop\n      pop\n      pop\n      pop\n      pop\n      jump\t// out\n        /* \"Vendor.sol\":6626:7237  function isSatisfied() public atStage(Stages.Active) {... */\n    tag_132:\n        /* \"Vendor.sol\":6664:6677  Stages.Active */\n      0x03\n        /* \"Vendor.sol\":10365:10418  Log(\"inside atStage, current stage is:\", uint(stage)) */\n      0xdd970dd9b5bfe707922155b058a407655cb18288b807e2216442bca8ad83d6b5\n        /* \"Vendor.sol\":10411:10416  stage */\n      0x09\n      0x00\n      swap1\n      sload\n      swap1\n      0x0100\n      exp\n      swap1\n      div\n      0xff\n      and\n        /* \"Vendor.sol\":10406:10417  uint(stage) */\n      0x04\n      dup2\n      gt\n      iszero\n      tag_334\n      jumpi\n      tag_335\n      tag_176\n      jump\t// in\n    tag_335:\n    tag_334:\n        /* \"Vendor.sol\":10365:10418  Log(\"inside atStage, current stage is:\", uint(stage)) */\n      mload(0x40)\n      tag_336\n      swap2\n      swap1\n      tag_178\n      jump\t// in\n    tag_336:\n      mload(0x40)\n      dup1\n      swap2\n      sub\n      swap1\n      log1\n        /* \"Vendor.sol\":10433:10500  Log(\"still inside atStage, trying to compare it to:\", uint(_stage)) */\n      0xdd970dd9b5bfe707922155b058a407655cb18288b807e2216442bca8ad83d6b5\n        /* \"Vendor.sol\":10492:10498  _stage */\n      dup2\n        /* \"Vendor.sol\":10487:10499  uint(_stage) */\n      0x04\n      dup2\n      gt\n      iszero\n      tag_337\n      jumpi\n      tag_338\n      tag_176\n      jump\t// in\n    tag_338:\n    tag_337:\n        /* \"Vendor.sol\":10433:10500  Log(\"still inside atStage, trying to compare it to:\", uint(_stage)) */\n      mload(0x40)\n      tag_339\n      swap2\n      swap1\n      tag_182\n      jump\t// in\n    tag_339:\n      mload(0x40)\n      dup1\n      swap2\n      sub\n      swap1\n      log1\n        /* \"Vendor.sol\":10538:10544  _stage */\n      dup1\n        /* \"Vendor.sol\":10533:10545  uint(_stage) */\n      0x04\n      dup2\n      gt\n      iszero\n      tag_340\n      jumpi\n      tag_341\n      tag_176\n      jump\t// in\n    tag_341:\n    tag_340:\n        /* \"Vendor.sol\":10523:10528  stage */\n      0x09\n      0x00\n      swap1\n      sload\n      swap1\n      0x0100\n      exp\n      swap1\n      div\n      0xff\n      and\n        /* \"Vendor.sol\":10518:10529  uint(stage) */\n      0x04\n      dup2\n      gt\n      iszero\n      tag_342\n      jumpi\n      tag_343\n      tag_176\n      jump\t// in\n    tag_343:\n    tag_342:\n        /* \"Vendor.sol\":10518:10545  uint(stage) == uint(_stage) */\n      eq\n        /* \"Vendor.sol\":10510:10587  require(uint(stage) == uint(_stage), \"Contract is not in the required state\") */\n      tag_344\n      jumpi\n      mload(0x40)\n      0x08c379a000000000000000000000000000000000000000000000000000000000\n      dup2\n      mstore\n      0x04\n      add\n      tag_345\n      swap1\n      tag_189\n      jump\t// in\n    tag_345:\n      mload(0x40)\n      dup1\n      swap2\n      sub\n      swap1\n      revert\n    tag_344:\n        /* \"Vendor.sol\":6694:6700  uint i */\n      0x00\n        /* \"Vendor.sol\":6689:7073  for (uint i = 0; i < conditionCount; i++) {... */\n    tag_347:\n        /* \"Vendor.sol\":6710:6724  conditionCount */\n      sload(0x2b)\n        /* \"Vendor.sol\":6706:6707  i */\n      dup2\n        /* \"Vendor.sol\":6706:6724  i < conditionCount */\n      lt\n        /* \"Vendor.sol\":6689:7073  for (uint i = 0; i < conditionCount; i++) {... */\n      iszero\n      tag_348\n      jumpi\n        /* \"Vendor.sol\":6745:6757  int operator */\n      0x00\n        /* \"Vendor.sol\":6760:6769  operators */\n      0x1a\n        /* \"Vendor.sol\":6770:6771  i */\n      dup3\n        /* \"Vendor.sol\":6760:6772  operators[i] */\n      0x08\n      dup2\n      lt\n      tag_350\n      jumpi\n      tag_351\n      tag_223\n      jump\t// in\n    tag_351:\n    tag_350:\n      add\n      sload\n        /* \"Vendor.sol\":6745:6772  int operator = operators[i] */\n      swap1\n      pop\n        /* \"Vendor.sol\":6786:6795  int value */\n      0x00\n        /* \"Vendor.sol\":6798:6804  values */\n      0x12\n        /* \"Vendor.sol\":6805:6806  i */\n      dup4\n        /* \"Vendor.sol\":6798:6807  values[i] */\n      0x08\n      dup2\n      lt\n      tag_353\n      jumpi\n      tag_354\n      tag_223\n      jump\t// in\n    tag_354:\n    tag_353:\n      add\n      sload\n        /* \"Vendor.sol\":6786:6807  int value = values[i] */\n      swap1\n      pop\n        /* \"Vendor.sol\":6821:6833  int _toCheck */\n      0x00\n        /* \"Vendor.sol\":6850:6855  count */\n      sload(0x2d)\n        /* \"Vendor.sol\":6836:6846  cumulative */\n      0x2c\n        /* \"Vendor.sol\":6836:6849  cumulative[i] */\n      0x00\n        /* \"Vendor.sol\":6847:6848  i */\n      dup7\n        /* \"Vendor.sol\":6836:6849  cumulative[i] */\n      dup2\n      mstore\n      0x20\n      add\n      swap1\n      dup2\n      mstore\n      0x20\n      add\n      0x00\n      keccak256\n      sload\n        /* \"Vendor.sol\":6836:6855  cumulative[i]/count */\n      tag_356\n      swap2\n      swap1\n      tag_357\n      jump\t// in\n    tag_356:\n        /* \"Vendor.sol\":6821:6855  int _toCheck = cumulative[i]/count */\n      swap1\n      pop\n        /* \"Vendor.sol\":6887:6923  condValid(operator, _toCheck, value) */\n      tag_358\n        /* \"Vendor.sol\":6897:6905  operator */\n      dup4\n        /* \"Vendor.sol\":6907:6915  _toCheck */\n      dup3\n        /* \"Vendor.sol\":6917:6922  value */\n      dup5\n        /* \"Vendor.sol\":6887:6896  condValid */\n      tag_359\n        /* \"Vendor.sol\":6887:6923  condValid(operator, _toCheck, value) */\n      jump\t// in\n    tag_358:\n        /* \"Vendor.sol\":6882:7063  if (!condValid(operator, _toCheck, value)) {... */\n      tag_360\n      jumpi\n        /* \"Vendor.sol\":6943:6951  refund() */\n      tag_361\n        /* \"Vendor.sol\":6943:6949  refund */\n      tag_362\n        /* \"Vendor.sol\":6943:6951  refund() */\n      jump\t// in\n    tag_361:\n        /* \"Vendor.sol\":6980:6990  msg.sender */\n      caller\n        /* \"Vendor.sol\":6974:7024  State(msg.sender, satisfied, \"Refunding payment.\") */\n      0xffffffffffffffffffffffffffffffffffffffff\n      and\n      0xa84226bf2d14bde3fac454f52eaeab63aaeb1934da88f9263dd4ff7dd12acf71\n        /* \"Vendor.sol\":6992:7001  satisfied */\n      0x09\n      0x01\n      swap1\n      sload\n      swap1\n      0x0100\n      exp\n      swap1\n      div\n      0xff\n      and\n        /* \"Vendor.sol\":6974:7024  State(msg.sender, satisfied, \"Refunding payment.\") */\n      mload(0x40)\n      tag_363\n      swap2\n      swap1\n      tag_364\n      jump\t// in\n    tag_363:\n      mload(0x40)\n      dup1\n      swap2\n      sub\n      swap1\n      log2\n        /* \"Vendor.sol\":7042:7049  return; */\n      pop\n      pop\n      pop\n      pop\n      jump(tag_346)\n        /* \"Vendor.sol\":6882:7063  if (!condValid(operator, _toCheck, value)) {... */\n    tag_360:\n        /* \"Vendor.sol\":6731:7073  {... */\n      pop\n      pop\n      pop\n        /* \"Vendor.sol\":6726:6729  i++ */\n      dup1\n      dup1\n      tag_365\n      swap1\n      tag_227\n      jump\t// in\n    tag_365:\n      swap2\n      pop\n      pop\n        /* \"Vendor.sol\":6689:7073  for (uint i = 0; i < conditionCount; i++) {... */\n      jump(tag_347)\n    tag_348:\n      pop\n        /* \"Vendor.sol\":7094:7098  true */\n      0x01\n        /* \"Vendor.sol\":7082:7091  satisfied */\n      0x09\n      0x01\n        /* \"Vendor.sol\":7082:7098  satisfied = true */\n      0x0100\n      exp\n      dup2\n      sload\n      dup2\n      0xff\n      mul\n      not\n      and\n      swap1\n      dup4\n      iszero\n      iszero\n      mul\n      or\n      swap1\n      sstore\n      pop\n        /* \"Vendor.sol\":7119:7129  msg.sender */\n      caller\n        /* \"Vendor.sol\":7113:7161  State(msg.sender, satisfied, \"Sending payment.\") */\n      0xffffffffffffffffffffffffffffffffffffffff\n      and\n      0xa84226bf2d14bde3fac454f52eaeab63aaeb1934da88f9263dd4ff7dd12acf71\n        /* \"Vendor.sol\":7131:7140  satisfied */\n      0x09\n      0x01\n      swap1\n      sload\n      swap1\n      0x0100\n      exp\n      swap1\n      div\n      0xff\n      and\n        /* \"Vendor.sol\":7113:7161  State(msg.sender, satisfied, \"Sending payment.\") */\n      mload(0x40)\n      tag_366\n      swap2\n      swap1\n      tag_367\n      jump\t// in\n    tag_366:\n      mload(0x40)\n      dup1\n      swap2\n      sub\n      swap1\n      log2\n        /* \"Vendor.sol\":7219:7230  payVendor() */\n      tag_368\n        /* \"Vendor.sol\":7219:7228  payVendor */\n      tag_369\n        /* \"Vendor.sol\":7219:7230  payVendor() */\n      jump\t// in\n    tag_368:\n        /* \"Vendor.sol\":10597:10598  _ */\n    tag_346:\n        /* \"Vendor.sol\":6626:7237  function isSatisfied() public atStage(Stages.Active) {... */\n      pop\n      jump\t// out\n        /* \"Vendor.sol\":377:395  uint public amount */\n    tag_135:\n      sload(0x05)\n      dup2\n      jump\t// out\n        /* \"Vendor.sol\":234:262  address payable public payee */\n    tag_139:\n      0x02\n      0x00\n      swap1\n      sload\n      swap1\n      0x0100\n      exp\n      swap1\n      div\n      0xffffffffffffffffffffffffffffffffffffffff\n      and\n      dup2\n      jump\t// out\n        /* \"Vendor.sol\":615:656  Stages public stage = Stages.Initialising */\n    tag_143:\n      0x09\n      0x00\n      swap1\n      sload\n      swap1\n      0x0100\n      exp\n      swap1\n      div\n      0xff\n      and\n      dup2\n      jump\t// out\n        /* \"Vendor.sol\":783:806  int[8] public operators */\n    tag_149:\n      0x1a\n      dup2\n      0x08\n      dup2\n      lt\n      tag_370\n      jumpi\n      0x00\n      dup1\n      revert\n    tag_370:\n      add\n      0x00\n      swap2\n      pop\n      swap1\n      pop\n      sload\n      dup2\n      jump\t// out\n        /* \"Vendor.sol\":6296:6519  function receiveServiceDataBypass(int[] memory _cumulative) external atStage(Stages.Active) {... */\n    tag_154:\n        /* \"Vendor.sol\":6373:6386  Stages.Active */\n      0x03\n        /* \"Vendor.sol\":10365:10418  Log(\"inside atStage, current stage is:\", uint(stage)) */\n      0xdd970dd9b5bfe707922155b058a407655cb18288b807e2216442bca8ad83d6b5\n        /* \"Vendor.sol\":10411:10416  stage */\n      0x09\n      0x00\n      swap1\n      sload\n      swap1\n      0x0100\n      exp\n      swap1\n      div\n      0xff\n      and\n        /* \"Vendor.sol\":10406:10417  uint(stage) */\n      0x04\n      dup2\n      gt\n      iszero\n      tag_373\n      jumpi\n      tag_374\n      tag_176\n      jump\t// in\n    tag_374:\n    tag_373:\n        /* \"Vendor.sol\":10365:10418  Log(\"inside atStage, current stage is:\", uint(stage)) */\n      mload(0x40)\n      tag_375\n      swap2\n      swap1\n      tag_178\n      jump\t// in\n    tag_375:\n      mload(0x40)\n      dup1\n      swap2\n      sub\n      swap1\n      log1\n        /* \"Vendor.sol\":10433:10500  Log(\"still inside atStage, trying to compare it to:\", uint(_stage)) */\n      0xdd970dd9b5bfe707922155b058a407655cb18288b807e2216442bca8ad83d6b5\n        /* \"Vendor.sol\":10492:10498  _stage */\n      dup2\n        /* \"Vendor.sol\":10487:10499  uint(_stage) */\n      0x04\n      dup2\n      gt\n      iszero\n      tag_376\n      jumpi\n      tag_377\n      tag_176\n      jump\t// in\n    tag_377:\n    tag_376:\n        /* \"Vendor.sol\":10433:10500  Log(\"still inside atStage, trying to compare it to:\", uint(_stage)) */\n      mload(0x40)\n      tag_378\n      swap2\n      swap1\n      tag_182\n      jump\t// in\n    tag_378:\n      mload(0x40)\n      dup1\n      swap2\n      sub\n      swap1\n      log1\n        /* \"Vendor.sol\":10538:10544  _stage */\n      dup1\n        /* \"Vendor.sol\":10533:10545  uint(_stage) */\n      0x04\n      dup2\n      gt\n      iszero\n      tag_379\n      jumpi\n      tag_380\n      tag_176\n      jump\t// in\n    tag_380:\n    tag_379:\n        /* \"Vendor.sol\":10523:10528  stage */\n      0x09\n      0x00\n      swap1\n      sload\n      swap1\n      0x0100\n      exp\n      swap1\n      div\n      0xff\n      and\n        /* \"Vendor.sol\":10518:10529  uint(stage) */\n      0x04\n      dup2\n      gt\n      iszero\n      tag_381\n      jumpi\n      tag_382\n      tag_176\n      jump\t// in\n    tag_382:\n    tag_381:\n        /* \"Vendor.sol\":10518:10545  uint(stage) == uint(_stage) */\n      eq\n        /* \"Vendor.sol\":10510:10587  require(uint(stage) == uint(_stage), \"Contract is not in the required state\") */\n      tag_383\n      jumpi\n      mload(0x40)\n      0x08c379a000000000000000000000000000000000000000000000000000000000\n      dup2\n      mstore\n      0x04\n      add\n      tag_384\n      swap1\n      tag_189\n      jump\t// in\n    tag_384:\n      mload(0x40)\n      dup1\n      swap2\n      sub\n      swap1\n      revert\n    tag_383:\n        /* \"Vendor.sol\":6403:6409  uint i */\n      0x00\n        /* \"Vendor.sol\":6398:6496  for (uint i = 0; i < conditionCount; i++) {... */\n    tag_386:\n        /* \"Vendor.sol\":6419:6433  conditionCount */\n      sload(0x2b)\n        /* \"Vendor.sol\":6415:6416  i */\n      dup2\n        /* \"Vendor.sol\":6415:6433  i < conditionCount */\n      lt\n        /* \"Vendor.sol\":6398:6496  for (uint i = 0; i < conditionCount; i++) {... */\n      iszero\n      tag_387\n      jumpi\n        /* \"Vendor.sol\":6471:6482  _cumulative */\n      dup3\n        /* \"Vendor.sol\":6483:6484  i */\n      dup2\n        /* \"Vendor.sol\":6471:6485  _cumulative[i] */\n      dup2\n      mload\n      dup2\n      lt\n      tag_389\n      jumpi\n      tag_390\n      tag_223\n      jump\t// in\n    tag_390:\n    tag_389:\n      0x20\n      mul\n      0x20\n      add\n      add\n      mload\n        /* \"Vendor.sol\":6454:6464  cumulative */\n      0x2c\n        /* \"Vendor.sol\":6454:6467  cumulative[i] */\n      0x00\n        /* \"Vendor.sol\":6465:6466  i */\n      dup4\n        /* \"Vendor.sol\":6454:6467  cumulative[i] */\n      dup2\n      mstore\n      0x20\n      add\n      swap1\n      dup2\n      mstore\n      0x20\n      add\n      0x00\n      keccak256\n      0x00\n        /* \"Vendor.sol\":6454:6485  cumulative[i] += _cumulative[i] */\n      dup3\n      dup3\n      sload\n      tag_391\n      swap2\n      swap1\n      tag_225\n      jump\t// in\n    tag_391:\n      swap3\n      pop\n      pop\n      dup2\n      swap1\n      sstore\n      pop\n        /* \"Vendor.sol\":6435:6438  i++ */\n      dup1\n      dup1\n      tag_392\n      swap1\n      tag_227\n      jump\t// in\n    tag_392:\n      swap2\n      pop\n      pop\n        /* \"Vendor.sol\":6398:6496  for (uint i = 0; i < conditionCount; i++) {... */\n      jump(tag_386)\n    tag_387:\n      pop\n        /* \"Vendor.sol\":6505:6510  count */\n      0x2d\n      0x00\n        /* \"Vendor.sol\":6505:6512  count++ */\n      dup2\n      sload\n      dup1\n      swap3\n      swap2\n      swap1\n      tag_393\n      swap1\n      tag_229\n      jump\t// in\n    tag_393:\n      swap2\n      swap1\n      pop\n      sstore\n      pop\n        /* \"Vendor.sol\":6296:6519  function receiveServiceDataBypass(int[] memory _cumulative) external atStage(Stages.Active) {... */\n      pop\n      pop\n      jump\t// out\n        /* \"Vendor.sol\":9277:9372  function setInactive() external atStage(Stages.Active) {... */\n    tag_157:\n        /* \"Vendor.sol\":9317:9330  Stages.Active */\n      0x03\n        /* \"Vendor.sol\":10365:10418  Log(\"inside atStage, current stage is:\", uint(stage)) */\n      0xdd970dd9b5bfe707922155b058a407655cb18288b807e2216442bca8ad83d6b5\n        /* \"Vendor.sol\":10411:10416  stage */\n      0x09\n      0x00\n      swap1\n      sload\n      swap1\n      0x0100\n      exp\n      swap1\n      div\n      0xff\n      and\n        /* \"Vendor.sol\":10406:10417  uint(stage) */\n      0x04\n      dup2\n      gt\n      iszero\n      tag_395\n      jumpi\n      tag_396\n      tag_176\n      jump\t// in\n    tag_396:\n    tag_395:\n        /* \"Vendor.sol\":10365:10418  Log(\"inside atStage, current stage is:\", uint(stage)) */\n      mload(0x40)\n      tag_397\n      swap2\n      swap1\n      tag_178\n      jump\t// in\n    tag_397:\n      mload(0x40)\n      dup1\n      swap2\n      sub\n      swap1\n      log1\n        /* \"Vendor.sol\":10433:10500  Log(\"still inside atStage, trying to compare it to:\", uint(_stage)) */\n      0xdd970dd9b5bfe707922155b058a407655cb18288b807e2216442bca8ad83d6b5\n        /* \"Vendor.sol\":10492:10498  _stage */\n      dup2\n        /* \"Vendor.sol\":10487:10499  uint(_stage) */\n      0x04\n      dup2\n      gt\n      iszero\n      tag_398\n      jumpi\n      tag_399\n      tag_176\n      jump\t// in\n    tag_399:\n    tag_398:\n        /* \"Vendor.sol\":10433:10500  Log(\"still inside atStage, trying to compare it to:\", uint(_stage)) */\n      mload(0x40)\n      tag_400\n      swap2\n      swap1\n      tag_182\n      jump\t// in\n    tag_400:\n      mload(0x40)\n      dup1\n      swap2\n      sub\n      swap1\n      log1\n        /* \"Vendor.sol\":10538:10544  _stage */\n      dup1\n        /* \"Vendor.sol\":10533:10545  uint(_stage) */\n      0x04\n      dup2\n      gt\n      iszero\n      tag_401\n      jumpi\n      tag_402\n      tag_176\n      jump\t// in\n    tag_402:\n    tag_401:\n        /* \"Vendor.sol\":10523:10528  stage */\n      0x09\n      0x00\n      swap1\n      sload\n      swap1\n      0x0100\n      exp\n      swap1\n      div\n      0xff\n      and\n        /* \"Vendor.sol\":10518:10529  uint(stage) */\n      0x04\n      dup2\n      gt\n      iszero\n      tag_403\n      jumpi\n      tag_404\n      tag_176\n      jump\t// in\n    tag_404:\n    tag_403:\n        /* \"Vendor.sol\":10518:10545  uint(stage) == uint(_stage) */\n      eq\n        /* \"Vendor.sol\":10510:10587  require(uint(stage) == uint(_stage), \"Contract is not in the required state\") */\n      tag_405\n      jumpi\n      mload(0x40)\n      0x08c379a000000000000000000000000000000000000000000000000000000000\n      dup2\n      mstore\n      0x04\n      add\n      tag_406\n      swap1\n      tag_189\n      jump\t// in\n    tag_406:\n      mload(0x40)\n      dup1\n      swap2\n      sub\n      swap1\n      revert\n    tag_405:\n        /* \"Vendor.sol\":9350:9365  Stages.Inactive */\n      0x02\n        /* \"Vendor.sol\":9342:9347  stage */\n      0x09\n      0x00\n        /* \"Vendor.sol\":9342:9365  stage = Stages.Inactive */\n      0x0100\n      exp\n      dup2\n      sload\n      dup2\n      0xff\n      mul\n      not\n      and\n      swap1\n      dup4\n      0x04\n      dup2\n      gt\n      iszero\n      tag_408\n      jumpi\n      tag_409\n      tag_176\n      jump\t// in\n    tag_409:\n    tag_408:\n      mul\n      or\n      swap1\n      sstore\n      pop\n        /* \"Vendor.sol\":9277:9372  function setInactive() external atStage(Stages.Active) {... */\n      pop\n      jump\t// out\n        /* \"Vendor.sol\":173:193  address public admin */\n    tag_160:\n      0x00\n      dup1\n      sload\n      swap1\n      0x0100\n      exp\n      swap1\n      div\n      0xffffffffffffffffffffffffffffffffffffffff\n      and\n      dup2\n      jump\t// out\n        /* \"Vendor.sol\":2874:3734  function setConds(string[8] memory _names, int[8] memory _values, string[8] memory _operators) external atStage(Stages.Initialising) {... */\n    tag_167:\n        /* \"Vendor.sol\":2986:3005  Stages.Initialising */\n      0x00\n        /* \"Vendor.sol\":10365:10418  Log(\"inside atStage, current stage is:\", uint(stage)) */\n      0xdd970dd9b5bfe707922155b058a407655cb18288b807e2216442bca8ad83d6b5\n        /* \"Vendor.sol\":10411:10416  stage */\n      0x09\n      0x00\n      swap1\n      sload\n      swap1\n      0x0100\n      exp\n      swap1\n      div\n      0xff\n      and\n        /* \"Vendor.sol\":10406:10417  uint(stage) */\n      0x04\n      dup2\n      gt\n      iszero\n      tag_411\n      jumpi\n      tag_412\n      tag_176\n      jump\t// in\n    tag_412:\n    tag_411:\n        /* \"Vendor.sol\":10365:10418  Log(\"inside atStage, current stage is:\", uint(stage)) */\n      mload(0x40)\n      tag_413\n      swap2\n      swap1\n      tag_178\n      jump\t// in\n    tag_413:\n      mload(0x40)\n      dup1\n      swap2\n      sub\n      swap1\n      log1\n        /* \"Vendor.sol\":10433:10500  Log(\"still inside atStage, trying to compare it to:\", uint(_stage)) */\n      0xdd970dd9b5bfe707922155b058a407655cb18288b807e2216442bca8ad83d6b5\n        /* \"Vendor.sol\":10492:10498  _stage */\n      dup2\n        /* \"Vendor.sol\":10487:10499  uint(_stage) */\n      0x04\n      dup2\n      gt\n      iszero\n      tag_414\n      jumpi\n      tag_415\n      tag_176\n      jump\t// in\n    tag_415:\n    tag_414:\n        /* \"Vendor.sol\":10433:10500  Log(\"still inside atStage, trying to compare it to:\", uint(_stage)) */\n      mload(0x40)\n      tag_416\n      swap2\n      swap1\n      tag_182\n      jump\t// in\n    tag_416:\n      mload(0x40)\n      dup1\n      swap2\n      sub\n      swap1\n      log1\n        /* \"Vendor.sol\":10538:10544  _stage */\n      dup1\n        /* \"Vendor.sol\":10533:10545  uint(_stage) */\n      0x04\n      dup2\n      gt\n      iszero\n      tag_417\n      jumpi\n      tag_418\n      tag_176\n      jump\t// in\n    tag_418:\n    tag_417:\n        /* \"Vendor.sol\":10523:10528  stage */\n      0x09\n      0x00\n      swap1\n      sload\n      swap1\n      0x0100\n      exp\n      swap1\n      div\n      0xff\n      and\n        /* \"Vendor.sol\":10518:10529  uint(stage) */\n      0x04\n      dup2\n      gt\n      iszero\n      tag_419\n      jumpi\n      tag_420\n      tag_176\n      jump\t// in\n    tag_420:\n    tag_419:\n        /* \"Vendor.sol\":10518:10545  uint(stage) == uint(_stage) */\n      eq\n        /* \"Vendor.sol\":10510:10587  require(uint(stage) == uint(_stage), \"Contract is not in the required state\") */\n      tag_421\n      jumpi\n      mload(0x40)\n      0x08c379a000000000000000000000000000000000000000000000000000000000\n      dup2\n      mstore\n      0x04\n      add\n      tag_422\n      swap1\n      tag_189\n      jump\t// in\n    tag_422:\n      mload(0x40)\n      dup1\n      swap2\n      sub\n      swap1\n      revert\n    tag_421:\n        /* \"Vendor.sol\":3022:3076  Log(\"inside setConds, current stage is:\", uint(stage)) */\n      0xdd970dd9b5bfe707922155b058a407655cb18288b807e2216442bca8ad83d6b5\n        /* \"Vendor.sol\":3069:3074  stage */\n      0x09\n      0x00\n      swap1\n      sload\n      swap1\n      0x0100\n      exp\n      swap1\n      div\n      0xff\n      and\n        /* \"Vendor.sol\":3064:3075  uint(stage) */\n      0x04\n      dup2\n      gt\n      iszero\n      tag_424\n      jumpi\n      tag_425\n      tag_176\n      jump\t// in\n    tag_425:\n    tag_424:\n        /* \"Vendor.sol\":3022:3076  Log(\"inside setConds, current stage is:\", uint(stage)) */\n      mload(0x40)\n      tag_426\n      swap2\n      swap1\n      tag_427\n      jump\t// in\n    tag_426:\n      mload(0x40)\n      dup1\n      swap2\n      sub\n      swap1\n      log1\n        /* \"Vendor.sol\":3091:3097  uint i */\n      0x00\n        /* \"Vendor.sol\":3086:3728  for (uint i = 0; i < 8; i++) {... */\n    tag_428:\n        /* \"Vendor.sol\":3107:3108  8 */\n      0x08\n        /* \"Vendor.sol\":3103:3104  i */\n      dup2\n        /* \"Vendor.sol\":3103:3108  i < 8 */\n      lt\n        /* \"Vendor.sol\":3086:3728  for (uint i = 0; i < 8; i++) {... */\n      iszero\n      tag_429\n      jumpi\n        /* \"Vendor.sol\":3174:3184  bytes(\"0\") */\n      mload(0x40)\n      dup1\n      0x40\n      add\n      0x40\n      mstore\n      dup1\n      0x01\n      dup2\n      mstore\n      0x20\n      add\n      0x3000000000000000000000000000000000000000000000000000000000000000\n      dup2\n      mstore\n      pop\n        /* \"Vendor.sol\":3164:3185  keccak256(bytes(\"0\")) */\n      dup1\n      mload\n      swap1\n      0x20\n      add\n      keccak256\n        /* \"Vendor.sol\":3149:3155  _names */\n      dup6\n        /* \"Vendor.sol\":3156:3157  i */\n      dup3\n        /* \"Vendor.sol\":3149:3158  _names[i] */\n      0x08\n      dup2\n      lt\n      tag_431\n      jumpi\n      tag_432\n      tag_223\n      jump\t// in\n    tag_432:\n    tag_431:\n      0x20\n      mul\n      add\n      mload\n        /* \"Vendor.sol\":3133:3160  keccak256(bytes(_names[i])) */\n      dup1\n      mload\n      swap1\n      0x20\n      add\n      keccak256\n        /* \"Vendor.sol\":3133:3185  keccak256(bytes(_names[i])) == keccak256(bytes(\"0\")) */\n      eq\n        /* \"Vendor.sol\":3129:3526  if (keccak256(bytes(_names[i])) == keccak256(bytes(\"0\"))) {... */\n      iszero\n      tag_433\n      jumpi\n        /* \"Vendor.sol\":3210:3277  Log(\"inside setConds if statement, current stage is:\", uint(stage)) */\n      0xdd970dd9b5bfe707922155b058a407655cb18288b807e2216442bca8ad83d6b5\n        /* \"Vendor.sol\":3270:3275  stage */\n      0x09\n      0x00\n      swap1\n      sload\n      swap1\n      0x0100\n      exp\n      swap1\n      div\n      0xff\n      and\n        /* \"Vendor.sol\":3265:3276  uint(stage) */\n      0x04\n      dup2\n      gt\n      iszero\n      tag_434\n      jumpi\n      tag_435\n      tag_176\n      jump\t// in\n    tag_435:\n    tag_434:\n        /* \"Vendor.sol\":3210:3277  Log(\"inside setConds if statement, current stage is:\", uint(stage)) */\n      mload(0x40)\n      tag_436\n      swap2\n      swap1\n      tag_437\n      jump\t// in\n    tag_436:\n      mload(0x40)\n      dup1\n      swap2\n      sub\n      swap1\n      log1\n        /* \"Vendor.sol\":3295:3309  endInitStage() */\n      tag_438\n        /* \"Vendor.sol\":3295:3307  endInitStage */\n      tag_120\n        /* \"Vendor.sol\":3295:3309  endInitStage() */\n      jump\t// in\n    tag_438:\n        /* \"Vendor.sol\":3332:3419  Log(\"inside setConds if statement, after endInitStage, current stage is:\", uint(stage)) */\n      0xdd970dd9b5bfe707922155b058a407655cb18288b807e2216442bca8ad83d6b5\n        /* \"Vendor.sol\":3412:3417  stage */\n      0x09\n      0x00\n      swap1\n      sload\n      swap1\n      0x0100\n      exp\n      swap1\n      div\n      0xff\n      and\n        /* \"Vendor.sol\":3407:3418  uint(stage) */\n      0x04\n      dup2\n      gt\n      iszero\n      tag_439\n      jumpi\n      tag_440\n      tag_176\n      jump\t// in\n    tag_440:\n    tag_439:\n        /* \"Vendor.sol\":3332:3419  Log(\"inside setConds if statement, after endInitStage, current stage is:\", uint(stage)) */\n      mload(0x40)\n      tag_441\n      swap2\n      swap1\n      tag_442\n      jump\t// in\n    tag_441:\n      mload(0x40)\n      dup1\n      swap2\n      sub\n      swap1\n      log1\n        /* \"Vendor.sol\":3437:3444  return; */\n      pop\n      jump(tag_423)\n        /* \"Vendor.sol\":3129:3526  if (keccak256(bytes(_names[i])) == keccak256(bytes(\"0\"))) {... */\n    tag_433:\n        /* \"Vendor.sol\":3550:3556  _names */\n      dup5\n        /* \"Vendor.sol\":3557:3558  i */\n      dup2\n        /* \"Vendor.sol\":3550:3559  _names[i] */\n      0x08\n      dup2\n      lt\n      tag_443\n      jumpi\n      tag_444\n      tag_223\n      jump\t// in\n    tag_444:\n    tag_443:\n      0x20\n      mul\n      add\n      mload\n        /* \"Vendor.sol\":3539:3544  names */\n      0x0a\n        /* \"Vendor.sol\":3545:3546  i */\n      dup3\n        /* \"Vendor.sol\":3539:3547  names[i] */\n      0x08\n      dup2\n      lt\n      tag_445\n      jumpi\n      tag_446\n      tag_223\n      jump\t// in\n    tag_446:\n    tag_445:\n      add\n        /* \"Vendor.sol\":3539:3559  names[i] = _names[i] */\n      swap1\n      dup1\n      mload\n      swap1\n      0x20\n      add\n      swap1\n      tag_448\n      swap3\n      swap2\n      swap1\n      tag_449\n      jump\t// in\n    tag_448:\n      pop\n        /* \"Vendor.sol\":3585:3592  _values */\n      dup4\n        /* \"Vendor.sol\":3593:3594  i */\n      dup2\n        /* \"Vendor.sol\":3585:3595  _values[i] */\n      0x08\n      dup2\n      lt\n      tag_450\n      jumpi\n      tag_451\n      tag_223\n      jump\t// in\n    tag_451:\n    tag_450:\n      0x20\n      mul\n      add\n      mload\n        /* \"Vendor.sol\":3573:3579  values */\n      0x12\n        /* \"Vendor.sol\":3580:3581  i */\n      dup3\n        /* \"Vendor.sol\":3573:3582  values[i] */\n      0x08\n      dup2\n      lt\n      tag_452\n      jumpi\n      tag_453\n      tag_223\n      jump\t// in\n    tag_453:\n    tag_452:\n      add\n        /* \"Vendor.sol\":3573:3595  values[i] = _values[i] */\n      dup2\n      swap1\n      sstore\n      pop\n        /* \"Vendor.sol\":3624:3631  convert */\n      0x2a\n        /* \"Vendor.sol\":3632:3642  _operators */\n      dup4\n        /* \"Vendor.sol\":3643:3644  i */\n      dup3\n        /* \"Vendor.sol\":3632:3645  _operators[i] */\n      0x08\n      dup2\n      lt\n      tag_455\n      jumpi\n      tag_456\n      tag_223\n      jump\t// in\n    tag_456:\n    tag_455:\n      0x20\n      mul\n      add\n      mload\n        /* \"Vendor.sol\":3624:3646  convert[_operators[i]] */\n      mload(0x40)\n      tag_457\n      swap2\n      swap1\n      tag_458\n      jump\t// in\n    tag_457:\n      swap1\n      dup2\n      mstore\n      0x20\n      add\n      mload(0x40)\n      dup1\n      swap2\n      sub\n      swap1\n      keccak256\n      sload\n        /* \"Vendor.sol\":3609:3618  operators */\n      0x1a\n        /* \"Vendor.sol\":3619:3620  i */\n      dup3\n        /* \"Vendor.sol\":3609:3621  operators[i] */\n      0x08\n      dup2\n      lt\n      tag_459\n      jumpi\n      tag_460\n      tag_223\n      jump\t// in\n    tag_460:\n    tag_459:\n      add\n        /* \"Vendor.sol\":3609:3646  operators[i] = convert[_operators[i]] */\n      dup2\n      swap1\n      sstore\n      pop\n        /* \"Vendor.sol\":3674:3684  _operators */\n      dup3\n        /* \"Vendor.sol\":3685:3686  i */\n      dup2\n        /* \"Vendor.sol\":3674:3687  _operators[i] */\n      0x08\n      dup2\n      lt\n      tag_462\n      jumpi\n      tag_463\n      tag_223\n      jump\t// in\n    tag_463:\n    tag_462:\n      0x20\n      mul\n      add\n      mload\n        /* \"Vendor.sol\":3660:3668  original */\n      0x22\n        /* \"Vendor.sol\":3669:3670  i */\n      dup3\n        /* \"Vendor.sol\":3660:3671  original[i] */\n      0x08\n      dup2\n      lt\n      tag_464\n      jumpi\n      tag_465\n      tag_223\n      jump\t// in\n    tag_465:\n    tag_464:\n      add\n        /* \"Vendor.sol\":3660:3687  original[i] = _operators[i] */\n      swap1\n      dup1\n      mload\n      swap1\n      0x20\n      add\n      swap1\n      tag_467\n      swap3\n      swap2\n      swap1\n      tag_449\n      jump\t// in\n    tag_467:\n      pop\n        /* \"Vendor.sol\":3701:3715  conditionCount */\n      0x2b\n      0x00\n        /* \"Vendor.sol\":3701:3717  conditionCount++ */\n      dup2\n      sload\n      dup1\n      swap3\n      swap2\n      swap1\n      tag_468\n      swap1\n      tag_227\n      jump\t// in\n    tag_468:\n      swap2\n      swap1\n      pop\n      sstore\n      pop\n        /* \"Vendor.sol\":3110:3113  i++ */\n      dup1\n      dup1\n      tag_469\n      swap1\n      tag_227\n      jump\t// in\n    tag_469:\n      swap2\n      pop\n      pop\n        /* \"Vendor.sol\":3086:3728  for (uint i = 0; i < 8; i++) {... */\n      jump(tag_428)\n    tag_429:\n      pop\n        /* \"Vendor.sol\":10597:10598  _ */\n    tag_423:\n        /* \"Vendor.sol\":2874:3734  function setConds(string[8] memory _names, int[8] memory _values, string[8] memory _operators) external atStage(Stages.Initialising) {... */\n      pop\n      pop\n      pop\n      pop\n      jump\t// out\n        /* \"Vendor.sol\":4734:5027  function getDetails() external view returns (address, address, uint, uint, uint, uint, uint, uint, string[8] memory, int[8] memory, string[8] memory) {... */\n    tag_170:\n        /* \"Vendor.sol\":4779:4786  address */\n      0x00\n        /* \"Vendor.sol\":4788:4795  address */\n      dup1\n        /* \"Vendor.sol\":4797:4801  uint */\n      0x00\n        /* \"Vendor.sol\":4803:4807  uint */\n      dup1\n        /* \"Vendor.sol\":4809:4813  uint */\n      0x00\n        /* \"Vendor.sol\":4815:4819  uint */\n      dup1\n        /* \"Vendor.sol\":4821:4825  uint */\n      0x00\n        /* \"Vendor.sol\":4827:4831  uint */\n      dup1\n        /* \"Vendor.sol\":4833:4849  string[8] memory */\n      tag_470\n      tag_471\n      jump\t// in\n    tag_470:\n        /* \"Vendor.sol\":4851:4864  int[8] memory */\n      tag_472\n      tag_473\n      jump\t// in\n    tag_472:\n        /* \"Vendor.sol\":4866:4882  string[8] memory */\n      tag_474\n      tag_471\n      jump\t// in\n    tag_474:\n        /* \"Vendor.sol\":4902:4908  client */\n      0x01\n      0x00\n      swap1\n      sload\n      swap1\n      0x0100\n      exp\n      swap1\n      div\n      0xffffffffffffffffffffffffffffffffffffffff\n      and\n        /* \"Vendor.sol\":4910:4915  payee */\n      0x02\n      0x00\n      swap1\n      sload\n      swap1\n      0x0100\n      exp\n      swap1\n      div\n      0xffffffffffffffffffffffffffffffffffffffff\n      and\n        /* \"Vendor.sol\":4917:4926  startDate */\n      sload(0x03)\n        /* \"Vendor.sol\":4928:4938  expiryDate */\n      sload(0x04)\n        /* \"Vendor.sol\":4940:4946  amount */\n      sload(0x05)\n        /* \"Vendor.sol\":4948:4963  prevBillingDate */\n      sload(0x06)\n        /* \"Vendor.sol\":4965:4980  nextBillingDate */\n      sload(0x07)\n        /* \"Vendor.sol\":4982:4994  contractHash */\n      sload(0x08)\n        /* \"Vendor.sol\":4996:5001  names */\n      0x0a\n        /* \"Vendor.sol\":5003:5009  values */\n      0x12\n        /* \"Vendor.sol\":5011:5019  original */\n      0x22\n        /* \"Vendor.sol\":4894:5020  return (client, payee, startDate, expiryDate, amount, prevBillingDate, nextBillingDate, contractHash, names, values, original) */\n      dup3\n      0x08\n      dup1\n      0x20\n      mul\n      mload(0x40)\n      swap1\n      dup2\n      add\n      0x40\n      mstore\n      dup1\n      swap3\n      swap2\n      swap1\n      0x00\n      swap1\n    tag_476:\n      dup3\n      dup3\n      lt\n      iszero\n      tag_477\n      jumpi\n      dup4\n      dup3\n      add\n      dup1\n      sload\n      tag_479\n      swap1\n      tag_234\n      jump\t// in\n    tag_479:\n      dup1\n      0x1f\n      add\n      0x20\n      dup1\n      swap2\n      div\n      mul\n      0x20\n      add\n      mload(0x40)\n      swap1\n      dup2\n      add\n      0x40\n      mstore\n      dup1\n      swap3\n      swap2\n      swap1\n      dup2\n      dup2\n      mstore\n      0x20\n      add\n      dup3\n      dup1\n      sload\n      tag_480\n      swap1\n      tag_234\n      jump\t// in\n    tag_480:\n      dup1\n      iszero\n      tag_481\n      jumpi\n      dup1\n      0x1f\n      lt\n      tag_482\n      jumpi\n      0x0100\n      dup1\n      dup4\n      sload\n      div\n      mul\n      dup4\n      mstore\n      swap2\n      0x20\n      add\n      swap2\n      jump(tag_481)\n    tag_482:\n      dup3\n      add\n      swap2\n      swap1\n      0x00\n      mstore\n      keccak256(0x00, 0x20)\n      swap1\n    tag_483:\n      dup2\n      sload\n      dup2\n      mstore\n      swap1\n      0x01\n      add\n      swap1\n      0x20\n      add\n      dup1\n      dup4\n      gt\n      tag_483\n      jumpi\n      dup3\n      swap1\n      sub\n      0x1f\n      and\n      dup3\n      add\n      swap2\n    tag_481:\n      pop\n      pop\n      pop\n      pop\n      pop\n      dup2\n      mstore\n      0x20\n      add\n      swap1\n      0x01\n      add\n      swap1\n      jump(tag_476)\n    tag_477:\n      pop\n      pop\n      pop\n      pop\n      swap3\n      pop\n      dup2\n      0x08\n      dup1\n      0x20\n      mul\n      mload(0x40)\n      swap1\n      dup2\n      add\n      0x40\n      mstore\n      dup1\n      swap3\n      swap2\n      swap1\n      dup3\n      0x08\n      dup1\n      iszero\n      tag_484\n      jumpi\n      0x20\n      mul\n      dup3\n      add\n      swap2\n    tag_485:\n      dup2\n      sload\n      dup2\n      mstore\n      0x20\n      add\n      swap1\n      0x01\n      add\n      swap1\n      dup1\n      dup4\n      gt\n      tag_485\n      jumpi\n    tag_484:\n      pop\n      pop\n      pop\n      pop\n      pop\n      swap2\n      pop\n      dup1\n      0x08\n      dup1\n      0x20\n      mul\n      mload(0x40)\n      swap1\n      dup2\n      add\n      0x40\n      mstore\n      dup1\n      swap3\n      swap2\n      swap1\n      0x00\n      swap1\n    tag_486:\n      dup3\n      dup3\n      lt\n      iszero\n      tag_487\n      jumpi\n      dup4\n      dup3\n      add\n      dup1\n      sload\n      tag_489\n      swap1\n      tag_234\n      jump\t// in\n    tag_489:\n      dup1\n      0x1f\n      add\n      0x20\n      dup1\n      swap2\n      div\n      mul\n      0x20\n      add\n      mload(0x40)\n      swap1\n      dup2\n      add\n      0x40\n      mstore\n      dup1\n      swap3\n      swap2\n      swap1\n      dup2\n      dup2\n      mstore\n      0x20\n      add\n      dup3\n      dup1\n      sload\n      tag_490\n      swap1\n      tag_234\n      jump\t// in\n    tag_490:\n      dup1\n      iszero\n      tag_491\n      jumpi\n      dup1\n      0x1f\n      lt\n      tag_492\n      jumpi\n      0x0100\n      dup1\n      dup4\n      sload\n      div\n      mul\n      dup4\n      mstore\n      swap2\n      0x20\n      add\n      swap2\n      jump(tag_491)\n    tag_492:\n      dup3\n      add\n      swap2\n      swap1\n      0x00\n      mstore\n      keccak256(0x00, 0x20)\n      swap1\n    tag_493:\n      dup2\n      sload\n      dup2\n      mstore\n      swap1\n      0x01\n      add\n      swap1\n      0x20\n      add\n      dup1\n      dup4\n      gt\n      tag_493\n      jumpi\n      dup3\n      swap1\n      sub\n      0x1f\n      and\n      dup3\n      add\n      swap2\n    tag_491:\n      pop\n      pop\n      pop\n      pop\n      pop\n      dup2\n      mstore\n      0x20\n      add\n      swap1\n      0x01\n      add\n      swap1\n      jump(tag_486)\n    tag_487:\n      pop\n      pop\n      pop\n      pop\n      swap1\n      pop\n      swap11\n      pop\n      swap11\n      pop\n      swap11\n      pop\n      swap11\n      pop\n      swap11\n      pop\n      swap11\n      pop\n      swap11\n      pop\n      swap11\n      pop\n      swap11\n      pop\n      swap11\n      pop\n      swap11\n      pop\n        /* \"Vendor.sol\":4734:5027  function getDetails() external view returns (address, address, uint, uint, uint, uint, uint, uint, string[8] memory, int[8] memory, string[8] memory) {... */\n      swap1\n      swap2\n      swap3\n      swap4\n      swap5\n      swap6\n      swap7\n      swap8\n      swap9\n      swap10\n      swap11\n      jump\t// out\n        /* \"Vendor.sol\":2736:2864  function calcDate(uint _billingDate) private view returns (uint) {... */\n    tag_327:\n        /* \"Vendor.sol\":2795:2799  uint */\n      0x00\n        /* \"Vendor.sol\":984:988  6400 */\n      0x1900\n        /* \"Vendor.sol\":2833:2845  _billingDate */\n      dup3\n        /* \"Vendor.sol\":2833:2857  _billingDate*blocksDaily */\n      tag_495\n      swap2\n      swap1\n      tag_496\n      jump\t// in\n    tag_495:\n        /* \"Vendor.sol\":2818:2830  block.number */\n      number\n        /* \"Vendor.sol\":2818:2857  block.number + _billingDate*blocksDaily */\n      tag_497\n      swap2\n      swap1\n      tag_330\n      jump\t// in\n    tag_497:\n        /* \"Vendor.sol\":2811:2857  return block.number + _billingDate*blocksDaily */\n      swap1\n      pop\n        /* \"Vendor.sol\":2736:2864  function calcDate(uint _billingDate) private view returns (uint) {... */\n      swap2\n      swap1\n      pop\n      jump\t// out\n        /* \"Vendor.sol\":2469:2669  function initOperators() private {... */\n    tag_332:\n        /* \"Vendor.sol\":2527:2528  1 */\n      0x01\n        /* \"Vendor.sol\":2512:2519  convert */\n      0x2a\n        /* \"Vendor.sol\":2512:2524  convert['>'] */\n      mload(0x40)\n      tag_499\n      swap1\n      tag_500\n      jump\t// in\n    tag_499:\n      swap1\n      dup2\n      mstore\n      0x20\n      add\n      mload(0x40)\n      dup1\n      swap2\n      sub\n      swap1\n      keccak256\n        /* \"Vendor.sol\":2512:2528  convert['>'] = 1 */\n      dup2\n      swap1\n      sstore\n      pop\n        /* \"Vendor.sol\":2554:2555  2 */\n      0x02\n        /* \"Vendor.sol\":2538:2545  convert */\n      0x2a\n        /* \"Vendor.sol\":2538:2551  convert['=='] */\n      mload(0x40)\n      tag_501\n      swap1\n      tag_502\n      jump\t// in\n    tag_501:\n      swap1\n      dup2\n      mstore\n      0x20\n      add\n      mload(0x40)\n      dup1\n      swap2\n      sub\n      swap1\n      keccak256\n        /* \"Vendor.sol\":2538:2555  convert['=='] = 2 */\n      dup2\n      swap1\n      sstore\n      pop\n        /* \"Vendor.sol\":2581:2582  3 */\n      0x03\n        /* \"Vendor.sol\":2565:2572  convert */\n      0x2a\n        /* \"Vendor.sol\":2565:2578  convert['>='] */\n      mload(0x40)\n      tag_503\n      swap1\n      tag_504\n      jump\t// in\n    tag_503:\n      swap1\n      dup2\n      mstore\n      0x20\n      add\n      mload(0x40)\n      dup1\n      swap2\n      sub\n      swap1\n      keccak256\n        /* \"Vendor.sol\":2565:2582  convert['>='] = 3 */\n      dup2\n      swap1\n      sstore\n      pop\n        /* \"Vendor.sol\":2607:2608  4 */\n      0x04\n        /* \"Vendor.sol\":2592:2599  convert */\n      0x2a\n        /* \"Vendor.sol\":2592:2604  convert['<'] */\n      mload(0x40)\n      tag_505\n      swap1\n      tag_506\n      jump\t// in\n    tag_505:\n      swap1\n      dup2\n      mstore\n      0x20\n      add\n      mload(0x40)\n      dup1\n      swap2\n      sub\n      swap1\n      keccak256\n        /* \"Vendor.sol\":2592:2608  convert['<'] = 4 */\n      dup2\n      swap1\n      sstore\n      pop\n        /* \"Vendor.sol\":2634:2635  5 */\n      0x05\n        /* \"Vendor.sol\":2618:2625  convert */\n      0x2a\n        /* \"Vendor.sol\":2618:2631  convert['!='] */\n      mload(0x40)\n      tag_507\n      swap1\n      tag_508\n      jump\t// in\n    tag_507:\n      swap1\n      dup2\n      mstore\n      0x20\n      add\n      mload(0x40)\n      dup1\n      swap2\n      sub\n      swap1\n      keccak256\n        /* \"Vendor.sol\":2618:2635  convert['!='] = 5 */\n      dup2\n      swap1\n      sstore\n      pop\n        /* \"Vendor.sol\":2661:2662  6 */\n      0x06\n        /* \"Vendor.sol\":2645:2652  convert */\n      0x2a\n        /* \"Vendor.sol\":2645:2658  convert['<='] */\n      mload(0x40)\n      tag_509\n      swap1\n      tag_510\n      jump\t// in\n    tag_509:\n      swap1\n      dup2\n      mstore\n      0x20\n      add\n      mload(0x40)\n      dup1\n      swap2\n      sub\n      swap1\n      keccak256\n        /* \"Vendor.sol\":2645:2662  convert['<='] = 6 */\n      dup2\n      swap1\n      sstore\n      pop\n        /* \"Vendor.sol\":2469:2669  function initOperators() private {... */\n      jump\t// out\n        /* \"Vendor.sol\":7384:8020  function condValid(int operator, int _toCheck, int value) private pure returns (bool) {... */\n    tag_359:\n        /* \"Vendor.sol\":7464:7468  bool */\n      0x00\n        /* \"Vendor.sol\":7496:7498  -1 */\n      0xffffffffffffffffffffffffffffffffffffffffffffffffffffffffffffffff\n        /* \"Vendor.sol\":7484:7492  operator */\n      dup5\n        /* \"Vendor.sol\":7484:7498  operator != -1 */\n      eq\n        /* \"Vendor.sol\":7480:7993  if (operator != -1) {... */\n      tag_512\n      jumpi\n        /* \"Vendor.sol\":7534:7535  1 */\n      0x01\n        /* \"Vendor.sol\":7529:7530  1 */\n      dup1\n        /* \"Vendor.sol\":7518:7526  operator */\n      dup6\n        /* \"Vendor.sol\":7518:7530  operator & 1 */\n      and\n        /* \"Vendor.sol\":7518:7535  operator & 1 == 1 */\n      eq\n        /* \"Vendor.sol\":7514:7983  if (operator & 1 == 1) {... */\n      iszero\n      tag_513\n      jumpi\n        /* \"Vendor.sol\":7560:7599  checkGreater(operator, _toCheck, value) */\n      tag_514\n        /* \"Vendor.sol\":7573:7581  operator */\n      dup5\n        /* \"Vendor.sol\":7583:7591  _toCheck */\n      dup5\n        /* \"Vendor.sol\":7593:7598  value */\n      dup5\n        /* \"Vendor.sol\":7560:7572  checkGreater */\n      tag_515\n        /* \"Vendor.sol\":7560:7599  checkGreater(operator, _toCheck, value) */\n      jump\t// in\n    tag_514:\n        /* \"Vendor.sol\":7555:7654  if (!checkGreater(operator, _toCheck, value)) {... */\n      tag_516\n      jumpi\n        /* \"Vendor.sol\":7630:7635  false */\n      0x00\n        /* \"Vendor.sol\":7623:7635  return false */\n      swap1\n      pop\n      jump(tag_511)\n        /* \"Vendor.sol\":7555:7654  if (!checkGreater(operator, _toCheck, value)) {... */\n    tag_516:\n        /* \"Vendor.sol\":7514:7983  if (operator & 1 == 1) {... */\n      jump(tag_517)\n    tag_513:\n        /* \"Vendor.sol\":7694:7695  4 */\n      0x04\n        /* \"Vendor.sol\":7689:7690  4 */\n      dup1\n        /* \"Vendor.sol\":7678:7686  operator */\n      dup6\n        /* \"Vendor.sol\":7678:7690  operator & 4 */\n      and\n        /* \"Vendor.sol\":7678:7695  operator & 4 == 4 */\n      eq\n        /* \"Vendor.sol\":7674:7983  if (operator & 4 == 4) {... */\n      iszero\n      tag_518\n      jumpi\n        /* \"Vendor.sol\":7720:7756  checkLess(operator, _toCheck, value) */\n      tag_519\n        /* \"Vendor.sol\":7730:7738  operator */\n      dup5\n        /* \"Vendor.sol\":7740:7748  _toCheck */\n      dup5\n        /* \"Vendor.sol\":7750:7755  value */\n      dup5\n        /* \"Vendor.sol\":7720:7729  checkLess */\n      tag_520\n        /* \"Vendor.sol\":7720:7756  checkLess(operator, _toCheck, value) */\n      jump\t// in\n    tag_519:\n        /* \"Vendor.sol\":7715:7811  if (!checkLess(operator, _toCheck, value)) {... */\n      tag_521\n      jumpi\n        /* \"Vendor.sol\":7787:7792  false */\n      0x00\n        /* \"Vendor.sol\":7780:7792  return false */\n      swap1\n      pop\n      jump(tag_511)\n        /* \"Vendor.sol\":7715:7811  if (!checkLess(operator, _toCheck, value)) {... */\n    tag_521:\n        /* \"Vendor.sol\":7674:7983  if (operator & 4 == 4) {... */\n      jump(tag_522)\n    tag_518:\n        /* \"Vendor.sol\":7851:7852  2 */\n      0x02\n        /* \"Vendor.sol\":7846:7847  2 */\n      dup1\n        /* \"Vendor.sol\":7835:7843  operator */\n      dup6\n        /* \"Vendor.sol\":7835:7847  operator & 2 */\n      and\n        /* \"Vendor.sol\":7835:7852  operator & 2 == 2 */\n      eq\n        /* \"Vendor.sol\":7831:7983  if (operator & 2 == 2) {... */\n      iszero\n      tag_523\n      jumpi\n        /* \"Vendor.sol\":7877:7914  checkEqual(operator, _toCheck, value) */\n      tag_524\n        /* \"Vendor.sol\":7888:7896  operator */\n      dup5\n        /* \"Vendor.sol\":7898:7906  _toCheck */\n      dup5\n        /* \"Vendor.sol\":7908:7913  value */\n      dup5\n        /* \"Vendor.sol\":7877:7887  checkEqual */\n      tag_525\n        /* \"Vendor.sol\":7877:7914  checkEqual(operator, _toCheck, value) */\n      jump\t// in\n    tag_524:\n        /* \"Vendor.sol\":7872:7969  if (!checkEqual(operator, _toCheck, value)) {... */\n      tag_526\n      jumpi\n        /* \"Vendor.sol\":7945:7950  false */\n      0x00\n        /* \"Vendor.sol\":7938:7950  return false */\n      swap1\n      pop\n      jump(tag_511)\n        /* \"Vendor.sol\":7872:7969  if (!checkEqual(operator, _toCheck, value)) {... */\n    tag_526:\n        /* \"Vendor.sol\":7831:7983  if (operator & 2 == 2) {... */\n    tag_523:\n        /* \"Vendor.sol\":7674:7983  if (operator & 4 == 4) {... */\n    tag_522:\n        /* \"Vendor.sol\":7514:7983  if (operator & 1 == 1) {... */\n    tag_517:\n        /* \"Vendor.sol\":7480:7993  if (operator != -1) {... */\n    tag_512:\n        /* \"Vendor.sol\":8009:8013  true */\n      0x01\n        /* \"Vendor.sol\":8002:8013  return true */\n      swap1\n      pop\n        /* \"Vendor.sol\":7384:8020  function condValid(int operator, int _toCheck, int value) private pure returns (bool) {... */\n    tag_511:\n      swap4\n      swap3\n      pop\n      pop\n      pop\n      jump\t// out\n        /* \"Vendor.sol\":5449:5565  function refund() private {... */\n    tag_362:\n        /* \"Vendor.sol\":5497:5502  false */\n      0x00\n        /* \"Vendor.sol\":5485:5494  satisfied */\n      0x09\n      0x01\n        /* \"Vendor.sol\":5485:5502  satisfied = false */\n      0x0100\n      exp\n      dup2\n      sload\n      dup2\n      0xff\n      mul\n      not\n      and\n      swap1\n      dup4\n      iszero\n      iszero\n      mul\n      or\n      swap1\n      sstore\n      pop\n        /* \"Vendor.sol\":5512:5518  client */\n      0x01\n      0x00\n      swap1\n      sload\n      swap1\n      0x0100\n      exp\n      swap1\n      div\n      0xffffffffffffffffffffffffffffffffffffffff\n      and\n        /* \"Vendor.sol\":5512:5527  client.transfer */\n      0xffffffffffffffffffffffffffffffffffffffff\n      and\n        /* \"Vendor.sol\":5512:5535  client.transfer(amount) */\n      0x08fc\n        /* \"Vendor.sol\":5528:5534  amount */\n      sload(0x05)\n        /* \"Vendor.sol\":5512:5535  client.transfer(amount) */\n      swap1\n      dup2\n      iszero\n      mul\n      swap1\n      mload(0x40)\n      0x00\n      mload(0x40)\n      dup1\n      dup4\n      sub\n      dup2\n      dup6\n      dup9\n      dup9\n      call\n      swap4\n      pop\n      pop\n      pop\n      pop\n      iszero\n      dup1\n      iszero\n      tag_529\n      jumpi\n      returndatasize\n      0x00\n      dup1\n      returndatacopy\n      revert(0x00, returndatasize)\n    tag_529:\n      pop\n        /* \"Vendor.sol\":5545:5558  setNewDates() */\n      tag_530\n        /* \"Vendor.sol\":5545:5556  setNewDates */\n      tag_531\n        /* \"Vendor.sol\":5545:5558  setNewDates() */\n      jump\t// in\n    tag_530:\n        /* \"Vendor.sol\":5449:5565  function refund() private {... */\n      jump\t// out\n        /* \"Vendor.sol\":5322:5439  function payVendor() private {... */\n    tag_369:\n        /* \"Vendor.sol\":5373:5377  true */\n      0x01\n        /* \"Vendor.sol\":5361:5370  satisfied */\n      0x09\n      0x01\n        /* \"Vendor.sol\":5361:5377  satisfied = true */\n      0x0100\n      exp\n      dup2\n      sload\n      dup2\n      0xff\n      mul\n      not\n      and\n      swap1\n      dup4\n      iszero\n      iszero\n      mul\n      or\n      swap1\n      sstore\n      pop\n        /* \"Vendor.sol\":5387:5392  payee */\n      0x02\n      0x00\n      swap1\n      sload\n      swap1\n      0x0100\n      exp\n      swap1\n      div\n      0xffffffffffffffffffffffffffffffffffffffff\n      and\n        /* \"Vendor.sol\":5387:5401  payee.transfer */\n      0xffffffffffffffffffffffffffffffffffffffff\n      and\n        /* \"Vendor.sol\":5387:5409  payee.transfer(amount) */\n      0x08fc\n        /* \"Vendor.sol\":5402:5408  amount */\n      sload(0x05)\n        /* \"Vendor.sol\":5387:5409  payee.transfer(amount) */\n      swap1\n      dup2\n      iszero\n      mul\n      swap1\n      mload(0x40)\n      0x00\n      mload(0x40)\n      dup1\n      dup4\n      sub\n      dup2\n      dup6\n      dup9\n      dup9\n      call\n      swap4\n      pop\n      pop\n      pop\n      pop\n      iszero\n      dup1\n      iszero\n      tag_534\n      jumpi\n      returndatasize\n      0x00\n      dup1\n      returndatacopy\n      revert(0x00, returndatasize)\n    tag_534:\n      pop\n        /* \"Vendor.sol\":5419:5432  setNewDates() */\n      tag_535\n        /* \"Vendor.sol\":5419:5430  setNewDates */\n      tag_531\n        /* \"Vendor.sol\":5419:5432  setNewDates() */\n      jump\t// in\n    tag_535:\n        /* \"Vendor.sol\":5322:5439  function payVendor() private {... */\n      jump\t// out\n        /* \"Vendor.sol\":8030:8404  function checkGreater(int operator, int _toCheck, int value) private pure returns (bool) {... */\n    tag_515:\n        /* \"Vendor.sol\":8113:8117  bool */\n      0x00\n        /* \"Vendor.sol\":8129:8140  bool status */\n      dup1\n        /* \"Vendor.sol\":8143:8148  false */\n      0x00\n        /* \"Vendor.sol\":8129:8148  bool status = false */\n      swap1\n      pop\n        /* \"Vendor.sol\":8178:8179  1 */\n      0x01\n        /* \"Vendor.sol\":8173:8174  1 */\n      dup1\n        /* \"Vendor.sol\":8162:8170  operator */\n      dup7\n        /* \"Vendor.sol\":8162:8174  operator & 1 */\n      and\n        /* \"Vendor.sol\":8162:8179  operator & 1 == 1 */\n      eq\n        /* \"Vendor.sol\":8158:8375  if (operator & 1 == 1) {... */\n      iszero\n      tag_537\n      jumpi\n        /* \"Vendor.sol\":8210:8215  value */\n      dup3\n        /* \"Vendor.sol\":8199:8207  _toCheck */\n      dup5\n        /* \"Vendor.sol\":8199:8215  _toCheck > value */\n      sgt\n        /* \"Vendor.sol\":8195:8263  if (_toCheck > value) {... */\n      iszero\n      tag_538\n      jumpi\n        /* \"Vendor.sol\":8244:8248  true */\n      0x01\n        /* \"Vendor.sol\":8235:8248  status = true */\n      swap1\n      pop\n        /* \"Vendor.sol\":8195:8263  if (_toCheck > value) {... */\n    tag_538:\n        /* \"Vendor.sol\":8280:8317  checkEqual(operator, _toCheck, value) */\n      tag_539\n        /* \"Vendor.sol\":8291:8299  operator */\n      dup6\n        /* \"Vendor.sol\":8301:8309  _toCheck */\n      dup6\n        /* \"Vendor.sol\":8311:8316  value */\n      dup6\n        /* \"Vendor.sol\":8280:8290  checkEqual */\n      tag_525\n        /* \"Vendor.sol\":8280:8317  checkEqual(operator, _toCheck, value) */\n      jump\t// in\n    tag_539:\n        /* \"Vendor.sol\":8276:8365  if (checkEqual(operator, _toCheck, value)) {... */\n      iszero\n      tag_540\n      jumpi\n        /* \"Vendor.sol\":8346:8350  true */\n      0x01\n        /* \"Vendor.sol\":8337:8350  status = true */\n      swap1\n      pop\n        /* \"Vendor.sol\":8276:8365  if (checkEqual(operator, _toCheck, value)) {... */\n    tag_540:\n        /* \"Vendor.sol\":8158:8375  if (operator & 1 == 1) {... */\n    tag_537:\n        /* \"Vendor.sol\":8391:8397  status */\n      dup1\n        /* \"Vendor.sol\":8384:8397  return status */\n      swap2\n      pop\n      pop\n        /* \"Vendor.sol\":8030:8404  function checkGreater(int operator, int _toCheck, int value) private pure returns (bool) {... */\n      swap4\n      swap3\n      pop\n      pop\n      pop\n      jump\t// out\n        /* \"Vendor.sol\":8409:8780  function checkLess(int operator, int _toCheck, int value) private pure returns (bool) {... */\n    tag_520:\n        /* \"Vendor.sol\":8489:8493  bool */\n      0x00\n        /* \"Vendor.sol\":8505:8516  bool status */\n      dup1\n        /* \"Vendor.sol\":8519:8524  false */\n      0x00\n        /* \"Vendor.sol\":8505:8524  bool status = false */\n      swap1\n      pop\n        /* \"Vendor.sol\":8554:8555  4 */\n      0x04\n        /* \"Vendor.sol\":8549:8550  4 */\n      dup1\n        /* \"Vendor.sol\":8538:8546  operator */\n      dup7\n        /* \"Vendor.sol\":8538:8550  operator & 4 */\n      and\n        /* \"Vendor.sol\":8538:8555  operator & 4 == 4 */\n      eq\n        /* \"Vendor.sol\":8534:8751  if (operator & 4 == 4) {... */\n      iszero\n      tag_542\n      jumpi\n        /* \"Vendor.sol\":8586:8591  value */\n      dup3\n        /* \"Vendor.sol\":8575:8583  _toCheck */\n      dup5\n        /* \"Vendor.sol\":8575:8591  _toCheck < value */\n      slt\n        /* \"Vendor.sol\":8571:8639  if (_toCheck < value) {... */\n      iszero\n      tag_543\n      jumpi\n        /* \"Vendor.sol\":8620:8624  true */\n      0x01\n        /* \"Vendor.sol\":8611:8624  status = true */\n      swap1\n      pop\n        /* \"Vendor.sol\":8571:8639  if (_toCheck < value) {... */\n    tag_543:\n        /* \"Vendor.sol\":8656:8693  checkEqual(operator, _toCheck, value) */\n      tag_544\n        /* \"Vendor.sol\":8667:8675  operator */\n      dup6\n        /* \"Vendor.sol\":8677:8685  _toCheck */\n      dup6\n        /* \"Vendor.sol\":8687:8692  value */\n      dup6\n        /* \"Vendor.sol\":8656:8666  checkEqual */\n      tag_525\n        /* \"Vendor.sol\":8656:8693  checkEqual(operator, _toCheck, value) */\n      jump\t// in\n    tag_544:\n        /* \"Vendor.sol\":8652:8741  if (checkEqual(operator, _toCheck, value)) {... */\n      iszero\n      tag_545\n      jumpi\n        /* \"Vendor.sol\":8722:8726  true */\n      0x01\n        /* \"Vendor.sol\":8713:8726  status = true */\n      swap1\n      pop\n        /* \"Vendor.sol\":8652:8741  if (checkEqual(operator, _toCheck, value)) {... */\n    tag_545:\n        /* \"Vendor.sol\":8534:8751  if (operator & 4 == 4) {... */\n    tag_542:\n        /* \"Vendor.sol\":8767:8773  status */\n      dup1\n        /* \"Vendor.sol\":8760:8773  return status */\n      swap2\n      pop\n      pop\n        /* \"Vendor.sol\":8409:8780  function checkLess(int operator, int _toCheck, int value) private pure returns (bool) {... */\n      swap4\n      swap3\n      pop\n      pop\n      pop\n      jump\t// out\n        /* \"Vendor.sol\":8785:9024  function checkEqual(int operator, int _toCheck, int value) private pure returns (bool) {... */\n    tag_525:\n        /* \"Vendor.sol\":8866:8870  bool */\n      0x00\n        /* \"Vendor.sol\":8902:8903  2 */\n      0x02\n        /* \"Vendor.sol\":8897:8898  2 */\n      dup1\n        /* \"Vendor.sol\":8886:8894  operator */\n      dup6\n        /* \"Vendor.sol\":8886:8898  operator & 2 */\n      and\n        /* \"Vendor.sol\":8886:8903  operator & 2 == 2 */\n      eq\n        /* \"Vendor.sol\":8882:8996  if (operator & 2 == 2) {... */\n      iszero\n      tag_547\n      jumpi\n        /* \"Vendor.sol\":8935:8940  value */\n      dup2\n        /* \"Vendor.sol\":8923:8931  _toCheck */\n      dup4\n        /* \"Vendor.sol\":8923:8940  _toCheck == value */\n      eq\n        /* \"Vendor.sol\":8919:8986  if (_toCheck == value) {... */\n      iszero\n      tag_548\n      jumpi\n        /* \"Vendor.sol\":8967:8971  true */\n      0x01\n        /* \"Vendor.sol\":8960:8971  return true */\n      swap1\n      pop\n      jump(tag_546)\n        /* \"Vendor.sol\":8919:8986  if (_toCheck == value) {... */\n    tag_548:\n        /* \"Vendor.sol\":8882:8996  if (operator & 2 == 2) {... */\n    tag_547:\n        /* \"Vendor.sol\":9012:9017  false */\n      0x00\n        /* \"Vendor.sol\":9005:9017  return false */\n      swap1\n      pop\n        /* \"Vendor.sol\":8785:9024  function checkEqual(int operator, int _toCheck, int value) private pure returns (bool) {... */\n    tag_546:\n      swap4\n      swap3\n      pop\n      pop\n      pop\n      jump\t// out\n        /* \"Vendor.sol\":5571:5858  function setNewDates() private checkExpiry() {... */\n    tag_531:\n        /* \"Vendor.sol\":10177:10197  calcDate(expiryDate) */\n      tag_550\n        /* \"Vendor.sol\":10186:10196  expiryDate */\n      sload(0x04)\n        /* \"Vendor.sol\":10177:10185  calcDate */\n      tag_327\n        /* \"Vendor.sol\":10177:10197  calcDate(expiryDate) */\n      jump\t// in\n    tag_550:\n        /* \"Vendor.sol\":10161:10173  block.number */\n      number\n        /* \"Vendor.sol\":10161:10197  block.number >= calcDate(expiryDate) */\n      lt\n        /* \"Vendor.sol\":10157:10248  if (block.number >= calcDate(expiryDate)) {... */\n      tag_551\n      jumpi\n        /* \"Vendor.sol\":10221:10235  Stages.Expired */\n      0x04\n        /* \"Vendor.sol\":10213:10218  stage */\n      0x09\n      0x00\n        /* \"Vendor.sol\":10213:10235  stage = Stages.Expired */\n      0x0100\n      exp\n      dup2\n      sload\n      dup2\n      0xff\n      mul\n      not\n      and\n      swap1\n      dup4\n      0x04\n      dup2\n      gt\n      iszero\n      tag_552\n      jumpi\n      tag_553\n      tag_176\n      jump\t// in\n    tag_553:\n    tag_552:\n      mul\n      or\n      swap1\n      sstore\n      pop\n        /* \"Vendor.sol\":10157:10248  if (block.number >= calcDate(expiryDate)) {... */\n    tag_551:\n        /* \"Vendor.sol\":5630:5636  uint i */\n      0x00\n        /* \"Vendor.sol\":5626:5706  for(uint i = 0; i<conditionCount; i++){... */\n    tag_555:\n        /* \"Vendor.sol\":5644:5658  conditionCount */\n      sload(0x2b)\n        /* \"Vendor.sol\":5642:5643  i */\n      dup2\n        /* \"Vendor.sol\":5642:5658  i<conditionCount */\n      lt\n        /* \"Vendor.sol\":5626:5706  for(uint i = 0; i<conditionCount; i++){... */\n      iszero\n      tag_556\n      jumpi\n        /* \"Vendor.sol\":5694:5695  0 */\n      0x00\n        /* \"Vendor.sol\":5678:5688  cumulative */\n      0x2c\n        /* \"Vendor.sol\":5678:5691  cumulative[i] */\n      0x00\n        /* \"Vendor.sol\":5689:5690  i */\n      dup4\n        /* \"Vendor.sol\":5678:5691  cumulative[i] */\n      dup2\n      mstore\n      0x20\n      add\n      swap1\n      dup2\n      mstore\n      0x20\n      add\n      0x00\n      keccak256\n        /* \"Vendor.sol\":5678:5695  cumulative[i] = 0 */\n      dup2\n      swap1\n      sstore\n      pop\n        /* \"Vendor.sol\":5660:5663  i++ */\n      dup1\n      dup1\n      tag_558\n      swap1\n      tag_227\n      jump\t// in\n    tag_558:\n      swap2\n      pop\n      pop\n        /* \"Vendor.sol\":5626:5706  for(uint i = 0; i<conditionCount; i++){... */\n      jump(tag_555)\n    tag_556:\n      pop\n        /* \"Vendor.sol\":5723:5724  0 */\n      0x00\n        /* \"Vendor.sol\":5715:5720  count */\n      0x2d\n        /* \"Vendor.sol\":5715:5724  count = 0 */\n      dup2\n      swap1\n      sstore\n      pop\n        /* \"Vendor.sol\":5741:5746  false */\n      0x00\n        /* \"Vendor.sol\":5734:5738  paid */\n      0x02\n      0x15\n        /* \"Vendor.sol\":5734:5746  paid = false */\n      0x0100\n      exp\n      dup2\n      sload\n      dup2\n      0xff\n      mul\n      not\n      and\n      swap1\n      dup4\n      iszero\n      iszero\n      mul\n      or\n      swap1\n      sstore\n      pop\n        /* \"Vendor.sol\":5774:5789  nextBillingDate */\n      sload(0x07)\n        /* \"Vendor.sol\":5756:5771  prevBillingDate */\n      0x06\n        /* \"Vendor.sol\":5756:5789  prevBillingDate = nextBillingDate */\n      dup2\n      swap1\n      sstore\n      pop\n        /* \"Vendor.sol\":984:988  6400 */\n      0x1900\n        /* \"Vendor.sol\":5835:5837  30 */\n      0x1e\n        /* \"Vendor.sol\":5835:5851  30 * blocksDaily */\n      tag_559\n      swap2\n      swap1\n      tag_496\n      jump\t// in\n    tag_559:\n        /* \"Vendor.sol\":5817:5832  nextBillingDate */\n      sload(0x07)\n        /* \"Vendor.sol\":5817:5851  nextBillingDate + 30 * blocksDaily */\n      tag_560\n      swap2\n      swap1\n      tag_330\n      jump\t// in\n    tag_560:\n        /* \"Vendor.sol\":5799:5814  nextBillingDate */\n      0x07\n        /* \"Vendor.sol\":5799:5851  nextBillingDate = nextBillingDate + 30 * blocksDaily */\n      dup2\n      swap1\n      sstore\n      pop\n        /* \"Vendor.sol\":5571:5858  function setNewDates() private checkExpiry() {... */\n      jump\t// out\n    tag_449:\n      dup3\n      dup1\n      sload\n      tag_561\n      swap1\n      tag_234\n      jump\t// in\n    tag_561:\n      swap1\n      0x00\n      mstore\n      keccak256(0x00, 0x20)\n      swap1\n      0x1f\n      add\n      0x20\n      swap1\n      div\n      dup2\n      add\n      swap3\n      dup3\n      tag_563\n      jumpi\n      0x00\n      dup6\n      sstore\n      jump(tag_562)\n    tag_563:\n      dup3\n      0x1f\n      lt\n      tag_564\n      jumpi\n      dup1\n      mload\n      not(0xff)\n      and\n      dup4\n      dup1\n      add\n      or\n      dup6\n      sstore\n      jump(tag_562)\n    tag_564:\n      dup3\n      dup1\n      add\n      0x01\n      add\n      dup6\n      sstore\n      dup3\n      iszero\n      tag_562\n      jumpi\n      swap2\n      dup3\n      add\n    tag_565:\n      dup3\n      dup2\n      gt\n      iszero\n      tag_566\n      jumpi\n      dup3\n      mload\n      dup3\n      sstore\n      swap2\n      0x20\n      add\n      swap2\n      swap1\n      0x01\n      add\n      swap1\n      jump(tag_565)\n    tag_566:\n    tag_562:\n      pop\n      swap1\n      pop\n      tag_567\n      swap2\n      swap1\n      tag_568\n      jump\t// in\n    tag_567:\n      pop\n      swap1\n      jump\t// out\n    tag_471:\n      mload(0x40)\n      dup1\n      0x0100\n      add\n      0x40\n      mstore\n      dup1\n      0x08\n      swap1\n    tag_569:\n      0x60\n      dup2\n      mstore\n      0x20\n      add\n      swap1\n      0x01\n      swap1\n      sub\n      swap1\n      dup2\n      tag_569\n      jumpi\n      swap1\n      pop\n      pop\n      swap1\n      jump\t// out\n    tag_473:\n      mload(0x40)\n      dup1\n      0x0100\n      add\n      0x40\n      mstore\n      dup1\n      0x08\n      swap1\n      0x20\n      dup3\n      mul\n      dup1\n      calldatasize\n      dup4\n      calldatacopy\n      dup1\n      dup3\n      add\n      swap2\n      pop\n      pop\n      swap1\n      pop\n      pop\n      swap1\n      jump\t// out\n    tag_568:\n    tag_570:\n      dup1\n      dup3\n      gt\n      iszero\n      tag_571\n      jumpi\n      0x00\n      dup2\n      0x00\n      swap1\n      sstore\n      pop\n      0x01\n      add\n      jump(tag_570)\n    tag_571:\n      pop\n      swap1\n      jump\t// out\n        /* \"#utility.yul\":24:676   */\n    tag_573:\n        /* \"#utility.yul\":117:122   */\n      0x00\n        /* \"#utility.yul\":142:220   */\n      tag_575\n        /* \"#utility.yul\":158:219   */\n      tag_576\n        /* \"#utility.yul\":212:218   */\n      dup5\n        /* \"#utility.yul\":158:219   */\n      tag_577\n      jump\t// in\n    tag_576:\n        /* \"#utility.yul\":142:220   */\n      tag_578\n      jump\t// in\n    tag_575:\n        /* \"#utility.yul\":133:220   */\n      swap1\n      pop\n        /* \"#utility.yul\":240:245   */\n      dup1\n        /* \"#utility.yul\":266:272   */\n      dup3\n        /* \"#utility.yul\":316:319   */\n      dup6\n        /* \"#utility.yul\":308:312   */\n      0x20\n        /* \"#utility.yul\":300:306   */\n      dup7\n        /* \"#utility.yul\":296:313   */\n      mul\n        /* \"#utility.yul\":291:294   */\n      dup3\n        /* \"#utility.yul\":287:314   */\n      add\n        /* \"#utility.yul\":284:320   */\n      gt\n        /* \"#utility.yul\":281:283   */\n      iszero\n      tag_579\n      jumpi\n        /* \"#utility.yul\":335:414   */\n      tag_580\n      tag_581\n      jump\t// in\n    tag_580:\n        /* \"#utility.yul\":281:283   */\n    tag_579:\n        /* \"#utility.yul\":448:449   */\n      0x00\n        /* \"#utility.yul\":433:670   */\n    tag_582:\n        /* \"#utility.yul\":458:464   */\n      dup6\n        /* \"#utility.yul\":455:456   */\n      dup2\n        /* \"#utility.yul\":452:465   */\n      lt\n        /* \"#utility.yul\":433:670   */\n      iszero\n      tag_584\n      jumpi\n        /* \"#utility.yul\":526:529   */\n      dup2\n        /* \"#utility.yul\":555:591   */\n      tag_585\n        /* \"#utility.yul\":587:590   */\n      dup9\n        /* \"#utility.yul\":575:585   */\n      dup3\n        /* \"#utility.yul\":555:591   */\n      tag_586\n      jump\t// in\n    tag_585:\n        /* \"#utility.yul\":550:553   */\n      dup5\n        /* \"#utility.yul\":543:592   */\n      mstore\n        /* \"#utility.yul\":621:625   */\n      0x20\n        /* \"#utility.yul\":616:619   */\n      dup5\n        /* \"#utility.yul\":612:626   */\n      add\n        /* \"#utility.yul\":605:626   */\n      swap4\n      pop\n        /* \"#utility.yul\":655:659   */\n      0x20\n        /* \"#utility.yul\":650:653   */\n      dup4\n        /* \"#utility.yul\":646:660   */\n      add\n        /* \"#utility.yul\":639:660   */\n      swap3\n      pop\n        /* \"#utility.yul\":493:670   */\n      pop\n        /* \"#utility.yul\":480:481   */\n      0x01\n        /* \"#utility.yul\":477:478   */\n      dup2\n        /* \"#utility.yul\":473:482   */\n      add\n        /* \"#utility.yul\":468:482   */\n      swap1\n      pop\n        /* \"#utility.yul\":433:670   */\n      jump(tag_582)\n    tag_584:\n        /* \"#utility.yul\":437:451   */\n      pop\n        /* \"#utility.yul\":123:676   */\n      pop\n      pop\n      swap4\n      swap3\n      pop\n      pop\n      pop\n      jump\t// out\n        /* \"#utility.yul\":698:1417   */\n    tag_587:\n        /* \"#utility.yul\":793:798   */\n      0x00\n        /* \"#utility.yul\":818:898   */\n      tag_589\n        /* \"#utility.yul\":834:897   */\n      tag_590\n        /* \"#utility.yul\":890:896   */\n      dup5\n        /* \"#utility.yul\":834:897   */\n      tag_591\n      jump\t// in\n    tag_590:\n        /* \"#utility.yul\":818:898   */\n      tag_578\n      jump\t// in\n    tag_589:\n        /* \"#utility.yul\":809:898   */\n      swap1\n      pop\n        /* \"#utility.yul\":918:923   */\n      dup1\n        /* \"#utility.yul\":947:953   */\n      dup4\n        /* \"#utility.yul\":940:945   */\n      dup3\n        /* \"#utility.yul\":933:954   */\n      mstore\n        /* \"#utility.yul\":981:985   */\n      0x20\n        /* \"#utility.yul\":974:979   */\n      dup3\n        /* \"#utility.yul\":970:986   */\n      add\n        /* \"#utility.yul\":963:986   */\n      swap1\n      pop\n        /* \"#utility.yul\":1007:1013   */\n      dup3\n        /* \"#utility.yul\":1057:1060   */\n      dup6\n        /* \"#utility.yul\":1049:1053   */\n      0x20\n        /* \"#utility.yul\":1041:1047   */\n      dup7\n        /* \"#utility.yul\":1037:1054   */\n      mul\n        /* \"#utility.yul\":1032:1035   */\n      dup3\n        /* \"#utility.yul\":1028:1055   */\n      add\n        /* \"#utility.yul\":1025:1061   */\n      gt\n        /* \"#utility.yul\":1022:1024   */\n      iszero\n      tag_592\n      jumpi\n        /* \"#utility.yul\":1076:1155   */\n      tag_593\n      tag_581\n      jump\t// in\n    tag_593:\n        /* \"#utility.yul\":1022:1024   */\n    tag_592:\n        /* \"#utility.yul\":1189:1190   */\n      0x00\n        /* \"#utility.yul\":1174:1411   */\n    tag_594:\n        /* \"#utility.yul\":1199:1205   */\n      dup6\n        /* \"#utility.yul\":1196:1197   */\n      dup2\n        /* \"#utility.yul\":1193:1206   */\n      lt\n        /* \"#utility.yul\":1174:1411   */\n      iszero\n      tag_596\n      jumpi\n        /* \"#utility.yul\":1267:1270   */\n      dup2\n        /* \"#utility.yul\":1296:1332   */\n      tag_597\n        /* \"#utility.yul\":1328:1331   */\n      dup9\n        /* \"#utility.yul\":1316:1326   */\n      dup3\n        /* \"#utility.yul\":1296:1332   */\n      tag_586\n      jump\t// in\n    tag_597:\n        /* \"#utility.yul\":1291:1294   */\n      dup5\n        /* \"#utility.yul\":1284:1333   */\n      mstore\n        /* \"#utility.yul\":1362:1366   */\n      0x20\n        /* \"#utility.yul\":1357:1360   */\n      dup5\n        /* \"#utility.yul\":1353:1367   */\n      add\n        /* \"#utility.yul\":1346:1367   */\n      swap4\n      pop\n        /* \"#utility.yul\":1396:1400   */\n      0x20\n        /* \"#utility.yul\":1391:1394   */\n      dup4\n        /* \"#utility.yul\":1387:1401   */\n      add\n        /* \"#utility.yul\":1380:1401   */\n      swap3\n      pop\n        /* \"#utility.yul\":1234:1411   */\n      pop\n        /* \"#utility.yul\":1221:1222   */\n      0x01\n        /* \"#utility.yul\":1218:1219   */\n      dup2\n        /* \"#utility.yul\":1214:1223   */\n      add\n        /* \"#utility.yul\":1209:1223   */\n      swap1\n      pop\n        /* \"#utility.yul\":1174:1411   */\n      jump(tag_594)\n    tag_596:\n        /* \"#utility.yul\":1178:1192   */\n      pop\n        /* \"#utility.yul\":799:1417   */\n      pop\n      pop\n      swap4\n      swap3\n      pop\n      pop\n      pop\n      jump\t// out\n        /* \"#utility.yul\":1440:2330   */\n    tag_598:\n        /* \"#utility.yul\":1544:1549   */\n      0x00\n        /* \"#utility.yul\":1569:1658   */\n      tag_600\n        /* \"#utility.yul\":1585:1657   */\n      tag_601\n        /* \"#utility.yul\":1650:1656   */\n      dup5\n        /* \"#utility.yul\":1585:1657   */\n      tag_602\n      jump\t// in\n    tag_601:\n        /* \"#utility.yul\":1569:1658   */\n      tag_578\n      jump\t// in\n    tag_600:\n        /* \"#utility.yul\":1560:1658   */\n      swap1\n      pop\n        /* \"#utility.yul\":1678:1683   */\n      dup1\n        /* \"#utility.yul\":1704:1710   */\n      dup3\n        /* \"#utility.yul\":1754:1757   */\n      dup6\n        /* \"#utility.yul\":1746:1750   */\n      0x20\n        /* \"#utility.yul\":1738:1744   */\n      dup7\n        /* \"#utility.yul\":1734:1751   */\n      mul\n        /* \"#utility.yul\":1729:1732   */\n      dup3\n        /* \"#utility.yul\":1725:1752   */\n      add\n        /* \"#utility.yul\":1722:1758   */\n      gt\n        /* \"#utility.yul\":1719:1721   */\n      iszero\n      tag_603\n      jumpi\n        /* \"#utility.yul\":1773:1852   */\n      tag_604\n      tag_581\n      jump\t// in\n    tag_604:\n        /* \"#utility.yul\":1719:1721   */\n    tag_603:\n        /* \"#utility.yul\":1886:1887   */\n      0x00\n        /* \"#utility.yul\":1871:2324   */\n    tag_605:\n        /* \"#utility.yul\":1896:1902   */\n      dup6\n        /* \"#utility.yul\":1893:1894   */\n      dup2\n        /* \"#utility.yul\":1890:1903   */\n      lt\n        /* \"#utility.yul\":1871:2324   */\n      iszero\n      tag_607\n      jumpi\n        /* \"#utility.yul\":1978:1981   */\n      dup2\n        /* \"#utility.yul\":1965:1982   */\n      calldataload\n        /* \"#utility.yul\":2014:2032   */\n      0xffffffffffffffff\n        /* \"#utility.yul\":2001:2012   */\n      dup2\n        /* \"#utility.yul\":1998:2033   */\n      gt\n        /* \"#utility.yul\":1995:1997   */\n      iszero\n      tag_608\n      jumpi\n        /* \"#utility.yul\":2036:2115   */\n      tag_609\n      tag_610\n      jump\t// in\n    tag_609:\n        /* \"#utility.yul\":1995:1997   */\n    tag_608:\n        /* \"#utility.yul\":2160:2171   */\n      dup1\n        /* \"#utility.yul\":2152:2158   */\n      dup7\n        /* \"#utility.yul\":2148:2172   */\n      add\n        /* \"#utility.yul\":2198:2245   */\n      tag_611\n        /* \"#utility.yul\":2241:2244   */\n      dup10\n        /* \"#utility.yul\":2229:2239   */\n      dup3\n        /* \"#utility.yul\":2198:2245   */\n      tag_612\n      jump\t// in\n    tag_611:\n        /* \"#utility.yul\":2193:2196   */\n      dup6\n        /* \"#utility.yul\":2186:2246   */\n      mstore\n        /* \"#utility.yul\":2275:2279   */\n      0x20\n        /* \"#utility.yul\":2270:2273   */\n      dup6\n        /* \"#utility.yul\":2266:2280   */\n      add\n        /* \"#utility.yul\":2259:2280   */\n      swap5\n      pop\n        /* \"#utility.yul\":2309:2313   */\n      0x20\n        /* \"#utility.yul\":2304:2307   */\n      dup5\n        /* \"#utility.yul\":2300:2314   */\n      add\n        /* \"#utility.yul\":2293:2314   */\n      swap4\n      pop\n        /* \"#utility.yul\":1931:2324   */\n      pop\n      pop\n        /* \"#utility.yul\":1918:1919   */\n      0x01\n        /* \"#utility.yul\":1915:1916   */\n      dup2\n        /* \"#utility.yul\":1911:1920   */\n      add\n        /* \"#utility.yul\":1906:1920   */\n      swap1\n      pop\n        /* \"#utility.yul\":1871:2324   */\n      jump(tag_605)\n    tag_607:\n        /* \"#utility.yul\":1875:1889   */\n      pop\n        /* \"#utility.yul\":1550:2330   */\n      pop\n      pop\n      swap4\n      swap3\n      pop\n      pop\n      pop\n      jump\t// out\n        /* \"#utility.yul\":2336:2748   */\n    tag_613:\n        /* \"#utility.yul\":2414:2419   */\n      0x00\n        /* \"#utility.yul\":2439:2505   */\n      tag_615\n        /* \"#utility.yul\":2455:2504   */\n      tag_616\n        /* \"#utility.yul\":2497:2503   */\n      dup5\n        /* \"#utility.yul\":2455:2504   */\n      tag_617\n      jump\t// in\n    tag_616:\n        /* \"#utility.yul\":2439:2505   */\n      tag_578\n      jump\t// in\n    tag_615:\n        /* \"#utility.yul\":2430:2505   */\n      swap1\n      pop\n        /* \"#utility.yul\":2528:2534   */\n      dup3\n        /* \"#utility.yul\":2521:2526   */\n      dup2\n        /* \"#utility.yul\":2514:2535   */\n      mstore\n        /* \"#utility.yul\":2566:2570   */\n      0x20\n        /* \"#utility.yul\":2559:2564   */\n      dup2\n        /* \"#utility.yul\":2555:2571   */\n      add\n        /* \"#utility.yul\":2604:2607   */\n      dup5\n        /* \"#utility.yul\":2595:2601   */\n      dup5\n        /* \"#utility.yul\":2590:2593   */\n      dup5\n        /* \"#utility.yul\":2586:2602   */\n      add\n        /* \"#utility.yul\":2583:2608   */\n      gt\n        /* \"#utility.yul\":2580:2582   */\n      iszero\n      tag_618\n      jumpi\n        /* \"#utility.yul\":2611:2690   */\n      tag_619\n      tag_620\n      jump\t// in\n    tag_619:\n        /* \"#utility.yul\":2580:2582   */\n    tag_618:\n        /* \"#utility.yul\":2701:2742   */\n      tag_621\n        /* \"#utility.yul\":2735:2741   */\n      dup5\n        /* \"#utility.yul\":2730:2733   */\n      dup3\n        /* \"#utility.yul\":2725:2728   */\n      dup6\n        /* \"#utility.yul\":2701:2742   */\n      tag_622\n      jump\t// in\n    tag_621:\n        /* \"#utility.yul\":2420:2748   */\n      pop\n      swap4\n      swap3\n      pop\n      pop\n      pop\n      jump\t// out\n        /* \"#utility.yul\":2754:2893   */\n    tag_623:\n        /* \"#utility.yul\":2800:2805   */\n      0x00\n        /* \"#utility.yul\":2838:2844   */\n      dup2\n        /* \"#utility.yul\":2825:2845   */\n      calldataload\n        /* \"#utility.yul\":2816:2845   */\n      swap1\n      pop\n        /* \"#utility.yul\":2854:2887   */\n      tag_625\n        /* \"#utility.yul\":2881:2886   */\n      dup2\n        /* \"#utility.yul\":2854:2887   */\n      tag_626\n      jump\t// in\n    tag_625:\n        /* \"#utility.yul\":2806:2893   */\n      swap3\n      swap2\n      pop\n      pop\n      jump\t// out\n        /* \"#utility.yul\":2916:3253   */\n    tag_627:\n        /* \"#utility.yul\":2984:2989   */\n      0x00\n        /* \"#utility.yul\":3033:3036   */\n      dup3\n        /* \"#utility.yul\":3026:3030   */\n      0x1f\n        /* \"#utility.yul\":3018:3024   */\n      dup4\n        /* \"#utility.yul\":3014:3031   */\n      add\n        /* \"#utility.yul\":3010:3037   */\n      slt\n        /* \"#utility.yul\":3000:3002   */\n      tag_629\n      jumpi\n        /* \"#utility.yul\":3041:3120   */\n      tag_630\n      tag_610\n      jump\t// in\n    tag_630:\n        /* \"#utility.yul\":3000:3002   */\n    tag_629:\n        /* \"#utility.yul\":3145:3149   */\n      0x08\n        /* \"#utility.yul\":3167:3247   */\n      tag_631\n        /* \"#utility.yul\":3243:3246   */\n      dup5\n        /* \"#utility.yul\":3235:3241   */\n      dup3\n        /* \"#utility.yul\":3227:3233   */\n      dup6\n        /* \"#utility.yul\":3167:3247   */\n      tag_573\n      jump\t// in\n    tag_631:\n        /* \"#utility.yul\":3158:3247   */\n      swap2\n      pop\n        /* \"#utility.yul\":2990:3253   */\n      pop\n      swap3\n      swap2\n      pop\n      pop\n      jump\t// out\n        /* \"#utility.yul\":3275:3643   */\n    tag_632:\n        /* \"#utility.yul\":3345:3350   */\n      0x00\n        /* \"#utility.yul\":3394:3397   */\n      dup3\n        /* \"#utility.yul\":3387:3391   */\n      0x1f\n        /* \"#utility.yul\":3379:3385   */\n      dup4\n        /* \"#utility.yul\":3375:3392   */\n      add\n        /* \"#utility.yul\":3371:3398   */\n      slt\n        /* \"#utility.yul\":3361:3363   */\n      tag_634\n      jumpi\n        /* \"#utility.yul\":3402:3481   */\n      tag_635\n      tag_610\n      jump\t// in\n    tag_635:\n        /* \"#utility.yul\":3361:3363   */\n    tag_634:\n        /* \"#utility.yul\":3519:3525   */\n      dup2\n        /* \"#utility.yul\":3506:3526   */\n      calldataload\n        /* \"#utility.yul\":3544:3637   */\n      tag_636\n        /* \"#utility.yul\":3633:3636   */\n      dup5\n        /* \"#utility.yul\":3625:3631   */\n      dup3\n        /* \"#utility.yul\":3618:3622   */\n      0x20\n        /* \"#utility.yul\":3610:3616   */\n      dup7\n        /* \"#utility.yul\":3606:3623   */\n      add\n        /* \"#utility.yul\":3544:3637   */\n      tag_587\n      jump\t// in\n    tag_636:\n        /* \"#utility.yul\":3535:3637   */\n      swap2\n      pop\n        /* \"#utility.yul\":3351:3643   */\n      pop\n      swap3\n      swap2\n      pop\n      pop\n      jump\t// out\n        /* \"#utility.yul\":3666:4025   */\n    tag_637:\n        /* \"#utility.yul\":3745:3750   */\n      0x00\n        /* \"#utility.yul\":3794:3797   */\n      dup3\n        /* \"#utility.yul\":3787:3791   */\n      0x1f\n        /* \"#utility.yul\":3779:3785   */\n      dup4\n        /* \"#utility.yul\":3775:3792   */\n      add\n        /* \"#utility.yul\":3771:3798   */\n      slt\n        /* \"#utility.yul\":3761:3763   */\n      tag_639\n      jumpi\n        /* \"#utility.yul\":3802:3881   */\n      tag_640\n      tag_610\n      jump\t// in\n    tag_640:\n        /* \"#utility.yul\":3761:3763   */\n    tag_639:\n        /* \"#utility.yul\":3906:3910   */\n      0x08\n        /* \"#utility.yul\":3928:4019   */\n      tag_641\n        /* \"#utility.yul\":4015:4018   */\n      dup5\n        /* \"#utility.yul\":4007:4013   */\n      dup3\n        /* \"#utility.yul\":3999:4005   */\n      dup6\n        /* \"#utility.yul\":3928:4019   */\n      tag_598\n      jump\t// in\n    tag_641:\n        /* \"#utility.yul\":3919:4019   */\n      swap2\n      pop\n        /* \"#utility.yul\":3751:4025   */\n      pop\n      swap3\n      swap2\n      pop\n      pop\n      jump\t// out\n        /* \"#utility.yul\":4031:4168   */\n    tag_586:\n        /* \"#utility.yul\":4076:4081   */\n      0x00\n        /* \"#utility.yul\":4114:4120   */\n      dup2\n        /* \"#utility.yul\":4101:4121   */\n      calldataload\n        /* \"#utility.yul\":4092:4121   */\n      swap1\n      pop\n        /* \"#utility.yul\":4130:4162   */\n      tag_643\n        /* \"#utility.yul\":4156:4161   */\n      dup2\n        /* \"#utility.yul\":4130:4162   */\n      tag_644\n      jump\t// in\n    tag_643:\n        /* \"#utility.yul\":4082:4168   */\n      swap3\n      swap2\n      pop\n      pop\n      jump\t// out\n        /* \"#utility.yul\":4188:4528   */\n    tag_612:\n        /* \"#utility.yul\":4244:4249   */\n      0x00\n        /* \"#utility.yul\":4293:4296   */\n      dup3\n        /* \"#utility.yul\":4286:4290   */\n      0x1f\n        /* \"#utility.yul\":4278:4284   */\n      dup4\n        /* \"#utility.yul\":4274:4291   */\n      add\n        /* \"#utility.yul\":4270:4297   */\n      slt\n        /* \"#utility.yul\":4260:4262   */\n      tag_646\n      jumpi\n        /* \"#utility.yul\":4301:4380   */\n      tag_647\n      tag_610\n      jump\t// in\n    tag_647:\n        /* \"#utility.yul\":4260:4262   */\n    tag_646:\n        /* \"#utility.yul\":4418:4424   */\n      dup2\n        /* \"#utility.yul\":4405:4425   */\n      calldataload\n        /* \"#utility.yul\":4443:4522   */\n      tag_648\n        /* \"#utility.yul\":4518:4521   */\n      dup5\n        /* \"#utility.yul\":4510:4516   */\n      dup3\n        /* \"#utility.yul\":4503:4507   */\n      0x20\n        /* \"#utility.yul\":4495:4501   */\n      dup7\n        /* \"#utility.yul\":4491:4508   */\n      add\n        /* \"#utility.yul\":4443:4522   */\n      tag_613\n      jump\t// in\n    tag_648:\n        /* \"#utility.yul\":4434:4522   */\n      swap2\n      pop\n        /* \"#utility.yul\":4250:4528   */\n      pop\n      swap3\n      swap2\n      pop\n      pop\n      jump\t// out\n        /* \"#utility.yul\":4534:4673   */\n    tag_649:\n        /* \"#utility.yul\":4580:4585   */\n      0x00\n        /* \"#utility.yul\":4618:4624   */\n      dup2\n        /* \"#utility.yul\":4605:4625   */\n      calldataload\n        /* \"#utility.yul\":4596:4625   */\n      swap1\n      pop\n        /* \"#utility.yul\":4634:4667   */\n      tag_651\n        /* \"#utility.yul\":4661:4666   */\n      dup2\n        /* \"#utility.yul\":4634:4667   */\n      tag_652\n      jump\t// in\n    tag_651:\n        /* \"#utility.yul\":4586:4673   */\n      swap3\n      swap2\n      pop\n      pop\n      jump\t// out\n        /* \"#utility.yul\":4679:5008   */\n    tag_74:\n        /* \"#utility.yul\":4738:4744   */\n      0x00\n        /* \"#utility.yul\":4787:4789   */\n      0x20\n        /* \"#utility.yul\":4775:4784   */\n      dup3\n        /* \"#utility.yul\":4766:4773   */\n      dup5\n        /* \"#utility.yul\":4762:4785   */\n      sub\n        /* \"#utility.yul\":4758:4790   */\n      slt\n        /* \"#utility.yul\":4755:4757   */\n      iszero\n      tag_654\n      jumpi\n        /* \"#utility.yul\":4793:4872   */\n      tag_655\n      tag_656\n      jump\t// in\n    tag_655:\n        /* \"#utility.yul\":4755:4757   */\n    tag_654:\n        /* \"#utility.yul\":4913:4914   */\n      0x00\n        /* \"#utility.yul\":4938:4991   */\n      tag_657\n        /* \"#utility.yul\":4983:4990   */\n      dup5\n        /* \"#utility.yul\":4974:4980   */\n      dup3\n        /* \"#utility.yul\":4963:4972   */\n      dup6\n        /* \"#utility.yul\":4959:4981   */\n      add\n        /* \"#utility.yul\":4938:4991   */\n      tag_623\n      jump\t// in\n    tag_657:\n        /* \"#utility.yul\":4928:4991   */\n      swap2\n      pop\n        /* \"#utility.yul\":4884:5001   */\n      pop\n        /* \"#utility.yul\":4745:5008   */\n      swap3\n      swap2\n      pop\n      pop\n      jump\t// out\n        /* \"#utility.yul\":5014:5925   */\n    tag_128:\n        /* \"#utility.yul\":5109:5115   */\n      0x00\n        /* \"#utility.yul\":5117:5123   */\n      dup1\n        /* \"#utility.yul\":5125:5131   */\n      0x00\n        /* \"#utility.yul\":5133:5139   */\n      dup1\n        /* \"#utility.yul\":5141:5147   */\n      0x00\n        /* \"#utility.yul\":5190:5193   */\n      0xa0\n        /* \"#utility.yul\":5178:5187   */\n      dup7\n        /* \"#utility.yul\":5169:5176   */\n      dup9\n        /* \"#utility.yul\":5165:5188   */\n      sub\n        /* \"#utility.yul\":5161:5194   */\n      slt\n        /* \"#utility.yul\":5158:5160   */\n      iszero\n      tag_659\n      jumpi\n        /* \"#utility.yul\":5197:5276   */\n      tag_660\n      tag_656\n      jump\t// in\n    tag_660:\n        /* \"#utility.yul\":5158:5160   */\n    tag_659:\n        /* \"#utility.yul\":5317:5318   */\n      0x00\n        /* \"#utility.yul\":5342:5395   */\n      tag_661\n        /* \"#utility.yul\":5387:5394   */\n      dup9\n        /* \"#utility.yul\":5378:5384   */\n      dup3\n        /* \"#utility.yul\":5367:5376   */\n      dup10\n        /* \"#utility.yul\":5363:5385   */\n      add\n        /* \"#utility.yul\":5342:5395   */\n      tag_623\n      jump\t// in\n    tag_661:\n        /* \"#utility.yul\":5332:5395   */\n      swap6\n      pop\n        /* \"#utility.yul\":5288:5405   */\n      pop\n        /* \"#utility.yul\":5444:5446   */\n      0x20\n        /* \"#utility.yul\":5470:5523   */\n      tag_662\n        /* \"#utility.yul\":5515:5522   */\n      dup9\n        /* \"#utility.yul\":5506:5512   */\n      dup3\n        /* \"#utility.yul\":5495:5504   */\n      dup10\n        /* \"#utility.yul\":5491:5513   */\n      add\n        /* \"#utility.yul\":5470:5523   */\n      tag_649\n      jump\t// in\n    tag_662:\n        /* \"#utility.yul\":5460:5523   */\n      swap5\n      pop\n        /* \"#utility.yul\":5415:5533   */\n      pop\n        /* \"#utility.yul\":5572:5574   */\n      0x40\n        /* \"#utility.yul\":5598:5651   */\n      tag_663\n        /* \"#utility.yul\":5643:5650   */\n      dup9\n        /* \"#utility.yul\":5634:5640   */\n      dup3\n        /* \"#utility.yul\":5623:5632   */\n      dup10\n        /* \"#utility.yul\":5619:5641   */\n      add\n        /* \"#utility.yul\":5598:5651   */\n      tag_649\n      jump\t// in\n    tag_663:\n        /* \"#utility.yul\":5588:5651   */\n      swap4\n      pop\n        /* \"#utility.yul\":5543:5661   */\n      pop\n        /* \"#utility.yul\":5700:5702   */\n      0x60\n        /* \"#utility.yul\":5726:5779   */\n      tag_664\n        /* \"#utility.yul\":5771:5778   */\n      dup9\n        /* \"#utility.yul\":5762:5768   */\n      dup3\n        /* \"#utility.yul\":5751:5760   */\n      dup10\n        /* \"#utility.yul\":5747:5769   */\n      add\n        /* \"#utility.yul\":5726:5779   */\n      tag_649\n      jump\t// in\n    tag_664:\n        /* \"#utility.yul\":5716:5779   */\n      swap3\n      pop\n        /* \"#utility.yul\":5671:5789   */\n      pop\n        /* \"#utility.yul\":5828:5831   */\n      0x80\n        /* \"#utility.yul\":5855:5908   */\n      tag_665\n        /* \"#utility.yul\":5900:5907   */\n      dup9\n        /* \"#utility.yul\":5891:5897   */\n      dup3\n        /* \"#utility.yul\":5880:5889   */\n      dup10\n        /* \"#utility.yul\":5876:5898   */\n      add\n        /* \"#utility.yul\":5855:5908   */\n      tag_649\n      jump\t// in\n    tag_665:\n        /* \"#utility.yul\":5845:5908   */\n      swap2\n      pop\n        /* \"#utility.yul\":5799:5918   */\n      pop\n        /* \"#utility.yul\":5148:5925   */\n      swap3\n      swap6\n      pop\n      swap3\n      swap6\n      swap1\n      swap4\n      pop\n      jump\t// out\n        /* \"#utility.yul\":5931:6468   */\n    tag_56:\n        /* \"#utility.yul\":6014:6020   */\n      0x00\n        /* \"#utility.yul\":6063:6065   */\n      0x20\n        /* \"#utility.yul\":6051:6060   */\n      dup3\n        /* \"#utility.yul\":6042:6049   */\n      dup5\n        /* \"#utility.yul\":6038:6061   */\n      sub\n        /* \"#utility.yul\":6034:6066   */\n      slt\n        /* \"#utility.yul\":6031:6033   */\n      iszero\n      tag_667\n      jumpi\n        /* \"#utility.yul\":6069:6148   */\n      tag_668\n      tag_656\n      jump\t// in\n    tag_668:\n        /* \"#utility.yul\":6031:6033   */\n    tag_667:\n        /* \"#utility.yul\":6217:6218   */\n      0x00\n        /* \"#utility.yul\":6206:6215   */\n      dup3\n        /* \"#utility.yul\":6202:6219   */\n      add\n        /* \"#utility.yul\":6189:6220   */\n      calldataload\n        /* \"#utility.yul\":6247:6265   */\n      0xffffffffffffffff\n        /* \"#utility.yul\":6239:6245   */\n      dup2\n        /* \"#utility.yul\":6236:6266   */\n      gt\n        /* \"#utility.yul\":6233:6235   */\n      iszero\n      tag_669\n      jumpi\n        /* \"#utility.yul\":6269:6348   */\n      tag_670\n      tag_671\n      jump\t// in\n    tag_670:\n        /* \"#utility.yul\":6233:6235   */\n    tag_669:\n        /* \"#utility.yul\":6374:6451   */\n      tag_672\n        /* \"#utility.yul\":6443:6450   */\n      dup5\n        /* \"#utility.yul\":6434:6440   */\n      dup3\n        /* \"#utility.yul\":6423:6432   */\n      dup6\n        /* \"#utility.yul\":6419:6441   */\n      add\n        /* \"#utility.yul\":6374:6451   */\n      tag_632\n      jump\t// in\n    tag_672:\n        /* \"#utility.yul\":6364:6451   */\n      swap2\n      pop\n        /* \"#utility.yul\":6160:6461   */\n      pop\n        /* \"#utility.yul\":6021:6468   */\n      swap3\n      swap2\n      pop\n      pop\n      jump\t// out\n        /* \"#utility.yul\":6474:7591   */\n    tag_166:\n        /* \"#utility.yul\":6639:6645   */\n      0x00\n        /* \"#utility.yul\":6647:6653   */\n      dup1\n        /* \"#utility.yul\":6655:6661   */\n      0x00\n        /* \"#utility.yul\":6704:6707   */\n      0x0140\n        /* \"#utility.yul\":6692:6701   */\n      dup5\n        /* \"#utility.yul\":6683:6690   */\n      dup7\n        /* \"#utility.yul\":6679:6702   */\n      sub\n        /* \"#utility.yul\":6675:6708   */\n      slt\n        /* \"#utility.yul\":6672:6674   */\n      iszero\n      tag_674\n      jumpi\n        /* \"#utility.yul\":6711:6790   */\n      tag_675\n      tag_656\n      jump\t// in\n    tag_675:\n        /* \"#utility.yul\":6672:6674   */\n    tag_674:\n        /* \"#utility.yul\":6859:6860   */\n      0x00\n        /* \"#utility.yul\":6848:6857   */\n      dup5\n        /* \"#utility.yul\":6844:6861   */\n      add\n        /* \"#utility.yul\":6831:6862   */\n      calldataload\n        /* \"#utility.yul\":6889:6907   */\n      0xffffffffffffffff\n        /* \"#utility.yul\":6881:6887   */\n      dup2\n        /* \"#utility.yul\":6878:6908   */\n      gt\n        /* \"#utility.yul\":6875:6877   */\n      iszero\n      tag_676\n      jumpi\n        /* \"#utility.yul\":6911:6990   */\n      tag_677\n      tag_671\n      jump\t// in\n    tag_677:\n        /* \"#utility.yul\":6875:6877   */\n    tag_676:\n        /* \"#utility.yul\":7016:7102   */\n      tag_678\n        /* \"#utility.yul\":7094:7101   */\n      dup7\n        /* \"#utility.yul\":7085:7091   */\n      dup3\n        /* \"#utility.yul\":7074:7083   */\n      dup8\n        /* \"#utility.yul\":7070:7092   */\n      add\n        /* \"#utility.yul\":7016:7102   */\n      tag_637\n      jump\t// in\n    tag_678:\n        /* \"#utility.yul\":7006:7102   */\n      swap4\n      pop\n        /* \"#utility.yul\":6802:7112   */\n      pop\n        /* \"#utility.yul\":7151:7153   */\n      0x20\n        /* \"#utility.yul\":7177:7252   */\n      tag_679\n        /* \"#utility.yul\":7244:7251   */\n      dup7\n        /* \"#utility.yul\":7235:7241   */\n      dup3\n        /* \"#utility.yul\":7224:7233   */\n      dup8\n        /* \"#utility.yul\":7220:7242   */\n      add\n        /* \"#utility.yul\":7177:7252   */\n      tag_627\n      jump\t// in\n    tag_679:\n        /* \"#utility.yul\":7167:7252   */\n      swap3\n      pop\n        /* \"#utility.yul\":7122:7262   */\n      pop\n        /* \"#utility.yul\":7329:7332   */\n      0x0120\n        /* \"#utility.yul\":7318:7327   */\n      dup5\n        /* \"#utility.yul\":7314:7333   */\n      add\n        /* \"#utility.yul\":7301:7334   */\n      calldataload\n        /* \"#utility.yul\":7361:7379   */\n      0xffffffffffffffff\n        /* \"#utility.yul\":7353:7359   */\n      dup2\n        /* \"#utility.yul\":7350:7380   */\n      gt\n        /* \"#utility.yul\":7347:7349   */\n      iszero\n      tag_680\n      jumpi\n        /* \"#utility.yul\":7383:7462   */\n      tag_681\n      tag_671\n      jump\t// in\n    tag_681:\n        /* \"#utility.yul\":7347:7349   */\n    tag_680:\n        /* \"#utility.yul\":7488:7574   */\n      tag_682\n        /* \"#utility.yul\":7566:7573   */\n      dup7\n        /* \"#utility.yul\":7557:7563   */\n      dup3\n        /* \"#utility.yul\":7546:7555   */\n      dup8\n        /* \"#utility.yul\":7542:7564   */\n      add\n        /* \"#utility.yul\":7488:7574   */\n      tag_637\n      jump\t// in\n    tag_682:\n        /* \"#utility.yul\":7478:7574   */\n      swap2\n      pop\n        /* \"#utility.yul\":7272:7584   */\n      pop\n        /* \"#utility.yul\":6662:7591   */\n      swap3\n      pop\n      swap3\n      pop\n      swap3\n      jump\t// out\n        /* \"#utility.yul\":7597:7926   */\n    tag_83:\n        /* \"#utility.yul\":7656:7662   */\n      0x00\n        /* \"#utility.yul\":7705:7707   */\n      0x20\n        /* \"#utility.yul\":7693:7702   */\n      dup3\n        /* \"#utility.yul\":7684:7691   */\n      dup5\n        /* \"#utility.yul\":7680:7703   */\n      sub\n        /* \"#utility.yul\":7676:7708   */\n      slt\n        /* \"#utility.yul\":7673:7675   */\n      iszero\n      tag_684\n      jumpi\n        /* \"#utility.yul\":7711:7790   */\n      tag_685\n      tag_656\n      jump\t// in\n    tag_685:\n        /* \"#utility.yul\":7673:7675   */\n    tag_684:\n        /* \"#utility.yul\":7831:7832   */\n      0x00\n        /* \"#utility.yul\":7856:7909   */\n      tag_686\n        /* \"#utility.yul\":7901:7908   */\n      dup5\n        /* \"#utility.yul\":7892:7898   */\n      dup3\n        /* \"#utility.yul\":7881:7890   */\n      dup6\n        /* \"#utility.yul\":7877:7899   */\n      add\n        /* \"#utility.yul\":7856:7909   */\n      tag_649\n      jump\t// in\n    tag_686:\n        /* \"#utility.yul\":7846:7909   */\n      swap2\n      pop\n        /* \"#utility.yul\":7802:7919   */\n      pop\n        /* \"#utility.yul\":7663:7926   */\n      swap3\n      swap2\n      pop\n      pop\n      jump\t// out\n        /* \"#utility.yul\":7932:8107   */\n    tag_687:\n        /* \"#utility.yul\":7999:8009   */\n      0x00\n        /* \"#utility.yul\":8020:8064   */\n      tag_689\n        /* \"#utility.yul\":8060:8063   */\n      dup4\n        /* \"#utility.yul\":8052:8058   */\n      dup4\n        /* \"#utility.yul\":8020:8064   */\n      tag_690\n      jump\t// in\n    tag_689:\n        /* \"#utility.yul\":8096:8100   */\n      0x20\n        /* \"#utility.yul\":8091:8094   */\n      dup4\n        /* \"#utility.yul\":8087:8101   */\n      add\n        /* \"#utility.yul\":8073:8101   */\n      swap1\n      pop\n        /* \"#utility.yul\":8010:8107   */\n      swap3\n      swap2\n      pop\n      pop\n      jump\t// out\n        /* \"#utility.yul\":8113:8309   */\n    tag_691:\n        /* \"#utility.yul\":8202:8212   */\n      0x00\n        /* \"#utility.yul\":8237:8303   */\n      tag_693\n        /* \"#utility.yul\":8299:8302   */\n      dup4\n        /* \"#utility.yul\":8291:8297   */\n      dup4\n        /* \"#utility.yul\":8237:8303   */\n      tag_694\n      jump\t// in\n    tag_693:\n        /* \"#utility.yul\":8223:8303   */\n      swap1\n      pop\n        /* \"#utility.yul\":8213:8309   */\n      swap3\n      swap2\n      pop\n      pop\n      jump\t// out\n        /* \"#utility.yul\":8315:8457   */\n    tag_695:\n        /* \"#utility.yul\":8418:8450   */\n      tag_697\n        /* \"#utility.yul\":8444:8449   */\n      dup2\n        /* \"#utility.yul\":8418:8450   */\n      tag_698\n      jump\t// in\n    tag_697:\n        /* \"#utility.yul\":8413:8416   */\n      dup3\n        /* \"#utility.yul\":8406:8451   */\n      mstore\n        /* \"#utility.yul\":8396:8457   */\n      pop\n      pop\n      jump\t// out\n        /* \"#utility.yul\":8463:8581   */\n    tag_699:\n        /* \"#utility.yul\":8550:8574   */\n      tag_701\n        /* \"#utility.yul\":8568:8573   */\n      dup2\n        /* \"#utility.yul\":8550:8574   */\n      tag_702\n      jump\t// in\n    tag_701:\n        /* \"#utility.yul\":8545:8548   */\n      dup3\n        /* \"#utility.yul\":8538:8575   */\n      mstore\n        /* \"#utility.yul\":8528:8581   */\n      pop\n      pop\n      jump\t// out\n        /* \"#utility.yul\":8617:9303   */\n    tag_703:\n        /* \"#utility.yul\":8751:8802   */\n      tag_705\n        /* \"#utility.yul\":8796:8801   */\n      dup2\n        /* \"#utility.yul\":8751:8802   */\n      tag_706\n      jump\t// in\n    tag_705:\n        /* \"#utility.yul\":8818:8901   */\n      tag_707\n        /* \"#utility.yul\":8894:8900   */\n      dup2\n        /* \"#utility.yul\":8889:8892   */\n      dup5\n        /* \"#utility.yul\":8818:8901   */\n      tag_708\n      jump\t// in\n    tag_707:\n        /* \"#utility.yul\":8811:8901   */\n      swap3\n      pop\n        /* \"#utility.yul\":8925:8978   */\n      tag_709\n        /* \"#utility.yul\":8972:8977   */\n      dup3\n        /* \"#utility.yul\":8925:8978   */\n      tag_710\n      jump\t// in\n    tag_709:\n        /* \"#utility.yul\":9001:9008   */\n      dup1\n        /* \"#utility.yul\":9032:9033   */\n      0x00\n        /* \"#utility.yul\":9017:9296   */\n    tag_711:\n        /* \"#utility.yul\":9042:9048   */\n      dup4\n        /* \"#utility.yul\":9039:9040   */\n      dup2\n        /* \"#utility.yul\":9036:9049   */\n      lt\n        /* \"#utility.yul\":9017:9296   */\n      iszero\n      tag_713\n      jumpi\n        /* \"#utility.yul\":9118:9124   */\n      dup2\n        /* \"#utility.yul\":9112:9125   */\n      mload\n        /* \"#utility.yul\":9145:9206   */\n      tag_714\n        /* \"#utility.yul\":9202:9205   */\n      dup8\n        /* \"#utility.yul\":9187:9200   */\n      dup3\n        /* \"#utility.yul\":9145:9206   */\n      tag_687\n      jump\t// in\n    tag_714:\n        /* \"#utility.yul\":9138:9206   */\n      swap7\n      pop\n        /* \"#utility.yul\":9229:9286   */\n      tag_715\n        /* \"#utility.yul\":9279:9285   */\n      dup4\n        /* \"#utility.yul\":9229:9286   */\n      tag_716\n      jump\t// in\n    tag_715:\n        /* \"#utility.yul\":9219:9286   */\n      swap3\n      pop\n        /* \"#utility.yul\":9077:9296   */\n      pop\n        /* \"#utility.yul\":9064:9065   */\n      0x01\n        /* \"#utility.yul\":9061:9062   */\n      dup2\n        /* \"#utility.yul\":9057:9066   */\n      add\n        /* \"#utility.yul\":9052:9066   */\n      swap1\n      pop\n        /* \"#utility.yul\":9017:9296   */\n      jump(tag_711)\n    tag_713:\n        /* \"#utility.yul\":9021:9035   */\n      pop\n        /* \"#utility.yul\":8727:9303   */\n      pop\n      pop\n      pop\n      pop\n      pop\n      jump\t// out\n        /* \"#utility.yul\":9339:10318   */\n    tag_717:\n        /* \"#utility.yul\":9474:9477   */\n      0x00\n        /* \"#utility.yul\":9503:9565   */\n      tag_719\n        /* \"#utility.yul\":9559:9564   */\n      dup3\n        /* \"#utility.yul\":9503:9565   */\n      tag_720\n      jump\t// in\n    tag_719:\n        /* \"#utility.yul\":9581:9675   */\n      tag_721\n        /* \"#utility.yul\":9668:9674   */\n      dup2\n        /* \"#utility.yul\":9663:9666   */\n      dup6\n        /* \"#utility.yul\":9581:9675   */\n      tag_722\n      jump\t// in\n    tag_721:\n        /* \"#utility.yul\":9574:9675   */\n      swap4\n      pop\n        /* \"#utility.yul\":9701:9704   */\n      dup4\n        /* \"#utility.yul\":9746:9750   */\n      0x20\n        /* \"#utility.yul\":9738:9744   */\n      dup3\n        /* \"#utility.yul\":9734:9751   */\n      mul\n        /* \"#utility.yul\":9729:9732   */\n      dup6\n        /* \"#utility.yul\":9725:9752   */\n      add\n        /* \"#utility.yul\":9776:9840   */\n      tag_723\n        /* \"#utility.yul\":9834:9839   */\n      dup6\n        /* \"#utility.yul\":9776:9840   */\n      tag_724\n      jump\t// in\n    tag_723:\n        /* \"#utility.yul\":9863:9870   */\n      dup1\n        /* \"#utility.yul\":9894:9895   */\n      0x00\n        /* \"#utility.yul\":9879:10273   */\n    tag_725:\n        /* \"#utility.yul\":9904:9910   */\n      dup6\n        /* \"#utility.yul\":9901:9902   */\n      dup2\n        /* \"#utility.yul\":9898:9911   */\n      lt\n        /* \"#utility.yul\":9879:10273   */\n      iszero\n      tag_727\n      jumpi\n        /* \"#utility.yul\":9975:9984   */\n      dup5\n        /* \"#utility.yul\":9969:9973   */\n      dup5\n        /* \"#utility.yul\":9965:9985   */\n      sub\n        /* \"#utility.yul\":9960:9963   */\n      dup10\n        /* \"#utility.yul\":9953:9986   */\n      mstore\n        /* \"#utility.yul\":10026:10032   */\n      dup2\n        /* \"#utility.yul\":10020:10033   */\n      mload\n        /* \"#utility.yul\":10054:10138   */\n      tag_728\n        /* \"#utility.yul\":10133:10137   */\n      dup6\n        /* \"#utility.yul\":10118:10131   */\n      dup3\n        /* \"#utility.yul\":10054:10138   */\n      tag_691\n      jump\t// in\n    tag_728:\n        /* \"#utility.yul\":10046:10138   */\n      swap5\n      pop\n        /* \"#utility.yul\":10161:10229   */\n      tag_729\n        /* \"#utility.yul\":10222:10228   */\n      dup4\n        /* \"#utility.yul\":10161:10229   */\n      tag_730\n      jump\t// in\n    tag_729:\n        /* \"#utility.yul\":10151:10229   */\n      swap3\n      pop\n        /* \"#utility.yul\":10258:10262   */\n      0x20\n        /* \"#utility.yul\":10253:10256   */\n      dup11\n        /* \"#utility.yul\":10249:10263   */\n      add\n        /* \"#utility.yul\":10242:10263   */\n      swap10\n      pop\n        /* \"#utility.yul\":9939:10273   */\n      pop\n        /* \"#utility.yul\":9926:9927   */\n      0x01\n        /* \"#utility.yul\":9923:9924   */\n      dup2\n        /* \"#utility.yul\":9919:9928   */\n      add\n        /* \"#utility.yul\":9914:9928   */\n      swap1\n      pop\n        /* \"#utility.yul\":9879:10273   */\n      jump(tag_725)\n    tag_727:\n        /* \"#utility.yul\":9883:9897   */\n      pop\n        /* \"#utility.yul\":10289:10293   */\n      dup3\n        /* \"#utility.yul\":10282:10293   */\n      swap8\n      pop\n        /* \"#utility.yul\":10309:10312   */\n      dup8\n        /* \"#utility.yul\":10302:10312   */\n      swap6\n      pop\n        /* \"#utility.yul\":9479:10318   */\n      pop\n      pop\n      pop\n      pop\n      pop\n      swap3\n      swap2\n      pop\n      pop\n      jump\t// out\n        /* \"#utility.yul\":10324:10433   */\n    tag_731:\n        /* \"#utility.yul\":10405:10426   */\n      tag_733\n        /* \"#utility.yul\":10420:10425   */\n      dup2\n        /* \"#utility.yul\":10405:10426   */\n      tag_734\n      jump\t// in\n    tag_733:\n        /* \"#utility.yul\":10400:10403   */\n      dup3\n        /* \"#utility.yul\":10393:10427   */\n      mstore\n        /* \"#utility.yul\":10383:10433   */\n      pop\n      pop\n      jump\t// out\n        /* \"#utility.yul\":10439:10584   */\n    tag_735:\n        /* \"#utility.yul\":10533:10577   */\n      tag_737\n        /* \"#utility.yul\":10571:10576   */\n      dup2\n        /* \"#utility.yul\":10533:10577   */\n      tag_738\n      jump\t// in\n    tag_737:\n        /* \"#utility.yul\":10528:10531   */\n      dup3\n        /* \"#utility.yul\":10521:10578   */\n      mstore\n        /* \"#utility.yul\":10511:10584   */\n      pop\n      pop\n      jump\t// out\n        /* \"#utility.yul\":10590:10695   */\n    tag_690:\n        /* \"#utility.yul\":10665:10688   */\n      tag_740\n        /* \"#utility.yul\":10682:10687   */\n      dup2\n        /* \"#utility.yul\":10665:10688   */\n      tag_741\n      jump\t// in\n    tag_740:\n        /* \"#utility.yul\":10660:10663   */\n      dup3\n        /* \"#utility.yul\":10653:10689   */\n      mstore\n        /* \"#utility.yul\":10643:10695   */\n      pop\n      pop\n      jump\t// out\n        /* \"#utility.yul\":10701:10816   */\n    tag_742:\n        /* \"#utility.yul\":10786:10809   */\n      tag_744\n        /* \"#utility.yul\":10803:10808   */\n      dup2\n        /* \"#utility.yul\":10786:10809   */\n      tag_741\n      jump\t// in\n    tag_744:\n        /* \"#utility.yul\":10781:10784   */\n      dup3\n        /* \"#utility.yul\":10774:10810   */\n      mstore\n        /* \"#utility.yul\":10764:10816   */\n      pop\n      pop\n      jump\t// out\n        /* \"#utility.yul\":10822:11166   */\n    tag_694:\n        /* \"#utility.yul\":10900:10903   */\n      0x00\n        /* \"#utility.yul\":10928:10967   */\n      tag_746\n        /* \"#utility.yul\":10961:10966   */\n      dup3\n        /* \"#utility.yul\":10928:10967   */\n      tag_747\n      jump\t// in\n    tag_746:\n        /* \"#utility.yul\":10983:11044   */\n      tag_748\n        /* \"#utility.yul\":11037:11043   */\n      dup2\n        /* \"#utility.yul\":11032:11035   */\n      dup6\n        /* \"#utility.yul\":10983:11044   */\n      tag_749\n      jump\t// in\n    tag_748:\n        /* \"#utility.yul\":10976:11044   */\n      swap4\n      pop\n        /* \"#utility.yul\":11053:11105   */\n      tag_750\n        /* \"#utility.yul\":11098:11104   */\n      dup2\n        /* \"#utility.yul\":11093:11096   */\n      dup6\n        /* \"#utility.yul\":11086:11090   */\n      0x20\n        /* \"#utility.yul\":11079:11084   */\n      dup7\n        /* \"#utility.yul\":11075:11091   */\n      add\n        /* \"#utility.yul\":11053:11105   */\n      tag_751\n      jump\t// in\n    tag_750:\n        /* \"#utility.yul\":11130:11159   */\n      tag_752\n        /* \"#utility.yul\":11152:11158   */\n      dup2\n        /* \"#utility.yul\":11130:11159   */\n      tag_753\n      jump\t// in\n    tag_752:\n        /* \"#utility.yul\":11125:11128   */\n      dup5\n        /* \"#utility.yul\":11121:11160   */\n      add\n        /* \"#utility.yul\":11114:11160   */\n      swap2\n      pop\n        /* \"#utility.yul\":10904:11166   */\n      pop\n      swap3\n      swap2\n      pop\n      pop\n      jump\t// out\n        /* \"#utility.yul\":11172:11536   */\n    tag_754:\n        /* \"#utility.yul\":11260:11263   */\n      0x00\n        /* \"#utility.yul\":11288:11327   */\n      tag_756\n        /* \"#utility.yul\":11321:11326   */\n      dup3\n        /* \"#utility.yul\":11288:11327   */\n      tag_747\n      jump\t// in\n    tag_756:\n        /* \"#utility.yul\":11343:11414   */\n      tag_757\n        /* \"#utility.yul\":11407:11413   */\n      dup2\n        /* \"#utility.yul\":11402:11405   */\n      dup6\n        /* \"#utility.yul\":11343:11414   */\n      tag_758\n      jump\t// in\n    tag_757:\n        /* \"#utility.yul\":11336:11414   */\n      swap4\n      pop\n        /* \"#utility.yul\":11423:11475   */\n      tag_759\n        /* \"#utility.yul\":11468:11474   */\n      dup2\n        /* \"#utility.yul\":11463:11466   */\n      dup6\n        /* \"#utility.yul\":11456:11460   */\n      0x20\n        /* \"#utility.yul\":11449:11454   */\n      dup7\n        /* \"#utility.yul\":11445:11461   */\n      add\n        /* \"#utility.yul\":11423:11475   */\n      tag_751\n      jump\t// in\n    tag_759:\n        /* \"#utility.yul\":11500:11529   */\n      tag_760\n        /* \"#utility.yul\":11522:11528   */\n      dup2\n        /* \"#utility.yul\":11500:11529   */\n      tag_753\n      jump\t// in\n    tag_760:\n        /* \"#utility.yul\":11495:11498   */\n      dup5\n        /* \"#utility.yul\":11491:11530   */\n      add\n        /* \"#utility.yul\":11484:11530   */\n      swap2\n      pop\n        /* \"#utility.yul\":11264:11536   */\n      pop\n      swap3\n      swap2\n      pop\n      pop\n      jump\t// out\n        /* \"#utility.yul\":11542:11919   */\n    tag_761:\n        /* \"#utility.yul\":11648:11651   */\n      0x00\n        /* \"#utility.yul\":11676:11715   */\n      tag_763\n        /* \"#utility.yul\":11709:11714   */\n      dup3\n        /* \"#utility.yul\":11676:11715   */\n      tag_747\n      jump\t// in\n    tag_763:\n        /* \"#utility.yul\":11731:11820   */\n      tag_764\n        /* \"#utility.yul\":11813:11819   */\n      dup2\n        /* \"#utility.yul\":11808:11811   */\n      dup6\n        /* \"#utility.yul\":11731:11820   */\n      tag_765\n      jump\t// in\n    tag_764:\n        /* \"#utility.yul\":11724:11820   */\n      swap4\n      pop\n        /* \"#utility.yul\":11829:11881   */\n      tag_766\n        /* \"#utility.yul\":11874:11880   */\n      dup2\n        /* \"#utility.yul\":11869:11872   */\n      dup6\n        /* \"#utility.yul\":11862:11866   */\n      0x20\n        /* \"#utility.yul\":11855:11860   */\n      dup7\n        /* \"#utility.yul\":11851:11867   */\n      add\n        /* \"#utility.yul\":11829:11881   */\n      tag_751\n      jump\t// in\n    tag_766:\n        /* \"#utility.yul\":11906:11912   */\n      dup1\n        /* \"#utility.yul\":11901:11904   */\n      dup5\n        /* \"#utility.yul\":11897:11913   */\n      add\n        /* \"#utility.yul\":11890:11913   */\n      swap2\n      pop\n        /* \"#utility.yul\":11652:11919   */\n      pop\n      swap3\n      swap2\n      pop\n      pop\n      jump\t// out\n        /* \"#utility.yul\":11925:12325   */\n    tag_767:\n        /* \"#utility.yul\":12085:12088   */\n      0x00\n        /* \"#utility.yul\":12106:12190   */\n      tag_769\n        /* \"#utility.yul\":12188:12189   */\n      0x02\n        /* \"#utility.yul\":12183:12186   */\n      dup4\n        /* \"#utility.yul\":12106:12190   */\n      tag_765\n      jump\t// in\n    tag_769:\n        /* \"#utility.yul\":12099:12190   */\n      swap2\n      pop\n        /* \"#utility.yul\":12199:12292   */\n      tag_770\n        /* \"#utility.yul\":12288:12291   */\n      dup3\n        /* \"#utility.yul\":12199:12292   */\n      tag_771\n      jump\t// in\n    tag_770:\n        /* \"#utility.yul\":12317:12318   */\n      0x02\n        /* \"#utility.yul\":12312:12315   */\n      dup3\n        /* \"#utility.yul\":12308:12319   */\n      add\n        /* \"#utility.yul\":12301:12319   */\n      swap1\n      pop\n        /* \"#utility.yul\":12089:12325   */\n      swap2\n      swap1\n      pop\n      jump\t// out\n        /* \"#utility.yul\":12331:12697   */\n    tag_772:\n        /* \"#utility.yul\":12473:12476   */\n      0x00\n        /* \"#utility.yul\":12494:12561   */\n      tag_774\n        /* \"#utility.yul\":12558:12560   */\n      0x43\n        /* \"#utility.yul\":12553:12556   */\n      dup4\n        /* \"#utility.yul\":12494:12561   */\n      tag_758\n      jump\t// in\n    tag_774:\n        /* \"#utility.yul\":12487:12561   */\n      swap2\n      pop\n        /* \"#utility.yul\":12570:12663   */\n      tag_775\n        /* \"#utility.yul\":12659:12662   */\n      dup3\n        /* \"#utility.yul\":12570:12663   */\n      tag_776\n      jump\t// in\n    tag_775:\n        /* \"#utility.yul\":12688:12690   */\n      0x60\n        /* \"#utility.yul\":12683:12686   */\n      dup3\n        /* \"#utility.yul\":12679:12691   */\n      add\n        /* \"#utility.yul\":12672:12691   */\n      swap1\n      pop\n        /* \"#utility.yul\":12477:12697   */\n      swap2\n      swap1\n      pop\n      jump\t// out\n        /* \"#utility.yul\":12703:13069   */\n    tag_777:\n        /* \"#utility.yul\":12845:12848   */\n      0x00\n        /* \"#utility.yul\":12866:12933   */\n      tag_779\n        /* \"#utility.yul\":12930:12932   */\n      0x36\n        /* \"#utility.yul\":12925:12928   */\n      dup4\n        /* \"#utility.yul\":12866:12933   */\n      tag_758\n      jump\t// in\n    tag_779:\n        /* \"#utility.yul\":12859:12933   */\n      swap2\n      pop\n        /* \"#utility.yul\":12942:13035   */\n      tag_780\n        /* \"#utility.yul\":13031:13034   */\n      dup3\n        /* \"#utility.yul\":12942:13035   */\n      tag_781\n      jump\t// in\n    tag_780:\n        /* \"#utility.yul\":13060:13062   */\n      0x40\n        /* \"#utility.yul\":13055:13058   */\n      dup3\n        /* \"#utility.yul\":13051:13063   */\n      add\n        /* \"#utility.yul\":13044:13063   */\n      swap1\n      pop\n        /* \"#utility.yul\":12849:13069   */\n      swap2\n      swap1\n      pop\n      jump\t// out\n        /* \"#utility.yul\":13075:13441   */\n    tag_782:\n        /* \"#utility.yul\":13217:13220   */\n      0x00\n        /* \"#utility.yul\":13238:13305   */\n      tag_784\n        /* \"#utility.yul\":13302:13304   */\n      0x2f\n        /* \"#utility.yul\":13297:13300   */\n      dup4\n        /* \"#utility.yul\":13238:13305   */\n      tag_758\n      jump\t// in\n    tag_784:\n        /* \"#utility.yul\":13231:13305   */\n      swap2\n      pop\n        /* \"#utility.yul\":13314:13407   */\n      tag_785\n        /* \"#utility.yul\":13403:13406   */\n      dup3\n        /* \"#utility.yul\":13314:13407   */\n      tag_786\n      jump\t// in\n    tag_785:\n        /* \"#utility.yul\":13432:13434   */\n      0x40\n        /* \"#utility.yul\":13427:13430   */\n      dup3\n        /* \"#utility.yul\":13423:13435   */\n      add\n        /* \"#utility.yul\":13416:13435   */\n      swap1\n      pop\n        /* \"#utility.yul\":13221:13441   */\n      swap2\n      swap1\n      pop\n      jump\t// out\n        /* \"#utility.yul\":13447:13813   */\n    tag_787:\n        /* \"#utility.yul\":13589:13592   */\n      0x00\n        /* \"#utility.yul\":13610:13677   */\n      tag_789\n        /* \"#utility.yul\":13674:13676   */\n      0x12\n        /* \"#utility.yul\":13669:13672   */\n      dup4\n        /* \"#utility.yul\":13610:13677   */\n      tag_758\n      jump\t// in\n    tag_789:\n        /* \"#utility.yul\":13603:13677   */\n      swap2\n      pop\n        /* \"#utility.yul\":13686:13779   */\n      tag_790\n        /* \"#utility.yul\":13775:13778   */\n      dup3\n        /* \"#utility.yul\":13686:13779   */\n      tag_791\n      jump\t// in\n    tag_790:\n        /* \"#utility.yul\":13804:13806   */\n      0x20\n        /* \"#utility.yul\":13799:13802   */\n      dup3\n        /* \"#utility.yul\":13795:13807   */\n      add\n        /* \"#utility.yul\":13788:13807   */\n      swap1\n      pop\n        /* \"#utility.yul\":13593:13813   */\n      swap2\n      swap1\n      pop\n      jump\t// out\n        /* \"#utility.yul\":13819:14185   */\n    tag_792:\n        /* \"#utility.yul\":13961:13964   */\n      0x00\n        /* \"#utility.yul\":13982:14049   */\n      tag_794\n        /* \"#utility.yul\":14046:14048   */\n      0x10\n        /* \"#utility.yul\":14041:14044   */\n      dup4\n        /* \"#utility.yul\":13982:14049   */\n      tag_758\n      jump\t// in\n    tag_794:\n        /* \"#utility.yul\":13975:14049   */\n      swap2\n      pop\n        /* \"#utility.yul\":14058:14151   */\n      tag_795\n        /* \"#utility.yul\":14147:14150   */\n      dup3\n        /* \"#utility.yul\":14058:14151   */\n      tag_796\n      jump\t// in\n    tag_795:\n        /* \"#utility.yul\":14176:14178   */\n      0x20\n        /* \"#utility.yul\":14171:14174   */\n      dup3\n        /* \"#utility.yul\":14167:14179   */\n      add\n        /* \"#utility.yul\":14160:14179   */\n      swap1\n      pop\n        /* \"#utility.yul\":13965:14185   */\n      swap2\n      swap1\n      pop\n      jump\t// out\n        /* \"#utility.yul\":14191:14557   */\n    tag_797:\n        /* \"#utility.yul\":14333:14336   */\n      0x00\n        /* \"#utility.yul\":14354:14421   */\n      tag_799\n        /* \"#utility.yul\":14418:14420   */\n      0x22\n        /* \"#utility.yul\":14413:14416   */\n      dup4\n        /* \"#utility.yul\":14354:14421   */\n      tag_758\n      jump\t// in\n    tag_799:\n        /* \"#utility.yul\":14347:14421   */\n      swap2\n      pop\n        /* \"#utility.yul\":14430:14523   */\n      tag_800\n        /* \"#utility.yul\":14519:14522   */\n      dup3\n        /* \"#utility.yul\":14430:14523   */\n      tag_801\n      jump\t// in\n    tag_800:\n        /* \"#utility.yul\":14548:14550   */\n      0x40\n        /* \"#utility.yul\":14543:14546   */\n      dup3\n        /* \"#utility.yul\":14539:14551   */\n      add\n        /* \"#utility.yul\":14532:14551   */\n      swap1\n      pop\n        /* \"#utility.yul\":14337:14557   */\n      swap2\n      swap1\n      pop\n      jump\t// out\n        /* \"#utility.yul\":14563:14963   */\n    tag_802:\n        /* \"#utility.yul\":14723:14726   */\n      0x00\n        /* \"#utility.yul\":14744:14828   */\n      tag_804\n        /* \"#utility.yul\":14826:14827   */\n      0x02\n        /* \"#utility.yul\":14821:14824   */\n      dup4\n        /* \"#utility.yul\":14744:14828   */\n      tag_765\n      jump\t// in\n    tag_804:\n        /* \"#utility.yul\":14737:14828   */\n      swap2\n      pop\n        /* \"#utility.yul\":14837:14930   */\n      tag_805\n        /* \"#utility.yul\":14926:14929   */\n      dup3\n        /* \"#utility.yul\":14837:14930   */\n      tag_806\n      jump\t// in\n    tag_805:\n        /* \"#utility.yul\":14955:14956   */\n      0x02\n        /* \"#utility.yul\":14950:14953   */\n      dup3\n        /* \"#utility.yul\":14946:14957   */\n      add\n        /* \"#utility.yul\":14939:14957   */\n      swap1\n      pop\n        /* \"#utility.yul\":14727:14963   */\n      swap2\n      swap1\n      pop\n      jump\t// out\n        /* \"#utility.yul\":14969:15335   */\n    tag_807:\n        /* \"#utility.yul\":15111:15114   */\n      0x00\n        /* \"#utility.yul\":15132:15199   */\n      tag_809\n        /* \"#utility.yul\":15196:15198   */\n      0x26\n        /* \"#utility.yul\":15191:15194   */\n      dup4\n        /* \"#utility.yul\":15132:15199   */\n      tag_758\n      jump\t// in\n    tag_809:\n        /* \"#utility.yul\":15125:15199   */\n      swap2\n      pop\n        /* \"#utility.yul\":15208:15301   */\n      tag_810\n        /* \"#utility.yul\":15297:15300   */\n      dup3\n        /* \"#utility.yul\":15208:15301   */\n      tag_811\n      jump\t// in\n    tag_810:\n        /* \"#utility.yul\":15326:15328   */\n      0x40\n        /* \"#utility.yul\":15321:15324   */\n      dup3\n        /* \"#utility.yul\":15317:15329   */\n      add\n        /* \"#utility.yul\":15310:15329   */\n      swap1\n      pop\n        /* \"#utility.yul\":15115:15335   */\n      swap2\n      swap1\n      pop\n      jump\t// out\n        /* \"#utility.yul\":15341:15741   */\n    tag_812:\n        /* \"#utility.yul\":15501:15504   */\n      0x00\n        /* \"#utility.yul\":15522:15606   */\n      tag_814\n        /* \"#utility.yul\":15604:15605   */\n      0x01\n        /* \"#utility.yul\":15599:15602   */\n      dup4\n        /* \"#utility.yul\":15522:15606   */\n      tag_765\n      jump\t// in\n    tag_814:\n        /* \"#utility.yul\":15515:15606   */\n      swap2\n      pop\n        /* \"#utility.yul\":15615:15708   */\n      tag_815\n        /* \"#utility.yul\":15704:15707   */\n      dup3\n        /* \"#utility.yul\":15615:15708   */\n      tag_816\n      jump\t// in\n    tag_815:\n        /* \"#utility.yul\":15733:15734   */\n      0x01\n        /* \"#utility.yul\":15728:15731   */\n      dup3\n        /* \"#utility.yul\":15724:15735   */\n      add\n        /* \"#utility.yul\":15717:15735   */\n      swap1\n      pop\n        /* \"#utility.yul\":15505:15741   */\n      swap2\n      swap1\n      pop\n      jump\t// out\n        /* \"#utility.yul\":15747:16147   */\n    tag_817:\n        /* \"#utility.yul\":15907:15910   */\n      0x00\n        /* \"#utility.yul\":15928:16012   */\n      tag_819\n        /* \"#utility.yul\":16010:16011   */\n      0x02\n        /* \"#utility.yul\":16005:16008   */\n      dup4\n        /* \"#utility.yul\":15928:16012   */\n      tag_765\n      jump\t// in\n    tag_819:\n        /* \"#utility.yul\":15921:16012   */\n      swap2\n      pop\n        /* \"#utility.yul\":16021:16114   */\n      tag_820\n        /* \"#utility.yul\":16110:16113   */\n      dup3\n        /* \"#utility.yul\":16021:16114   */\n      tag_821\n      jump\t// in\n    tag_820:\n        /* \"#utility.yul\":16139:16140   */\n      0x02\n        /* \"#utility.yul\":16134:16137   */\n      dup3\n        /* \"#utility.yul\":16130:16141   */\n      add\n        /* \"#utility.yul\":16123:16141   */\n      swap1\n      pop\n        /* \"#utility.yul\":15911:16147   */\n      swap2\n      swap1\n      pop\n      jump\t// out\n        /* \"#utility.yul\":16153:16519   */\n    tag_822:\n        /* \"#utility.yul\":16295:16298   */\n      0x00\n        /* \"#utility.yul\":16316:16383   */\n      tag_824\n        /* \"#utility.yul\":16380:16382   */\n      0x21\n        /* \"#utility.yul\":16375:16378   */\n      dup4\n        /* \"#utility.yul\":16316:16383   */\n      tag_758\n      jump\t// in\n    tag_824:\n        /* \"#utility.yul\":16309:16383   */\n      swap2\n      pop\n        /* \"#utility.yul\":16392:16485   */\n      tag_825\n        /* \"#utility.yul\":16481:16484   */\n      dup3\n        /* \"#utility.yul\":16392:16485   */\n      tag_826\n      jump\t// in\n    tag_825:\n        /* \"#utility.yul\":16510:16512   */\n      0x40\n        /* \"#utility.yul\":16505:16508   */\n      dup3\n        /* \"#utility.yul\":16501:16513   */\n      add\n        /* \"#utility.yul\":16494:16513   */\n      swap1\n      pop\n        /* \"#utility.yul\":16299:16519   */\n      swap2\n      swap1\n      pop\n      jump\t// out\n        /* \"#utility.yul\":16525:16891   */\n    tag_827:\n        /* \"#utility.yul\":16667:16670   */\n      0x00\n        /* \"#utility.yul\":16688:16755   */\n      tag_829\n        /* \"#utility.yul\":16752:16754   */\n      0x2e\n        /* \"#utility.yul\":16747:16750   */\n      dup4\n        /* \"#utility.yul\":16688:16755   */\n      tag_758\n      jump\t// in\n    tag_829:\n        /* \"#utility.yul\":16681:16755   */\n      swap2\n      pop\n        /* \"#utility.yul\":16764:16857   */\n      tag_830\n        /* \"#utility.yul\":16853:16856   */\n      dup3\n        /* \"#utility.yul\":16764:16857   */\n      tag_831\n      jump\t// in\n    tag_830:\n        /* \"#utility.yul\":16882:16884   */\n      0x40\n        /* \"#utility.yul\":16877:16880   */\n      dup3\n        /* \"#utility.yul\":16873:16885   */\n      add\n        /* \"#utility.yul\":16866:16885   */\n      swap1\n      pop\n        /* \"#utility.yul\":16671:16891   */\n      swap2\n      swap1\n      pop\n      jump\t// out\n        /* \"#utility.yul\":16897:17297   */\n    tag_832:\n        /* \"#utility.yul\":17057:17060   */\n      0x00\n        /* \"#utility.yul\":17078:17162   */\n      tag_834\n        /* \"#utility.yul\":17160:17161   */\n      0x02\n        /* \"#utility.yul\":17155:17158   */\n      dup4\n        /* \"#utility.yul\":17078:17162   */\n      tag_765\n      jump\t// in\n    tag_834:\n        /* \"#utility.yul\":17071:17162   */\n      swap2\n      pop\n        /* \"#utility.yul\":17171:17264   */\n      tag_835\n        /* \"#utility.yul\":17260:17263   */\n      dup3\n        /* \"#utility.yul\":17171:17264   */\n      tag_836\n      jump\t// in\n    tag_835:\n        /* \"#utility.yul\":17289:17290   */\n      0x02\n        /* \"#utility.yul\":17284:17287   */\n      dup3\n        /* \"#utility.yul\":17280:17291   */\n      add\n        /* \"#utility.yul\":17273:17291   */\n      swap1\n      pop\n        /* \"#utility.yul\":17061:17297   */\n      swap2\n      swap1\n      pop\n      jump\t// out\n        /* \"#utility.yul\":17303:17703   */\n    tag_837:\n        /* \"#utility.yul\":17463:17466   */\n      0x00\n        /* \"#utility.yul\":17484:17568   */\n      tag_839\n        /* \"#utility.yul\":17566:17567   */\n      0x01\n        /* \"#utility.yul\":17561:17564   */\n      dup4\n        /* \"#utility.yul\":17484:17568   */\n      tag_765\n      jump\t// in\n    tag_839:\n        /* \"#utility.yul\":17477:17568   */\n      swap2\n      pop\n        /* \"#utility.yul\":17577:17670   */\n      tag_840\n        /* \"#utility.yul\":17666:17669   */\n      dup3\n        /* \"#utility.yul\":17577:17670   */\n      tag_841\n      jump\t// in\n    tag_840:\n        /* \"#utility.yul\":17695:17696   */\n      0x01\n        /* \"#utility.yul\":17690:17693   */\n      dup3\n        /* \"#utility.yul\":17686:17697   */\n      add\n        /* \"#utility.yul\":17679:17697   */\n      swap1\n      pop\n        /* \"#utility.yul\":17467:17703   */\n      swap2\n      swap1\n      pop\n      jump\t// out\n        /* \"#utility.yul\":17709:18075   */\n    tag_842:\n        /* \"#utility.yul\":17851:17854   */\n      0x00\n        /* \"#utility.yul\":17872:17939   */\n      tag_844\n        /* \"#utility.yul\":17936:17938   */\n      0x1d\n        /* \"#utility.yul\":17931:17934   */\n      dup4\n        /* \"#utility.yul\":17872:17939   */\n      tag_758\n      jump\t// in\n    tag_844:\n        /* \"#utility.yul\":17865:17939   */\n      swap2\n      pop\n        /* \"#utility.yul\":17948:18041   */\n      tag_845\n        /* \"#utility.yul\":18037:18040   */\n      dup3\n        /* \"#utility.yul\":17948:18041   */\n      tag_846\n      jump\t// in\n    tag_845:\n        /* \"#utility.yul\":18066:18068   */\n      0x20\n        /* \"#utility.yul\":18061:18064   */\n      dup3\n        /* \"#utility.yul\":18057:18069   */\n      add\n        /* \"#utility.yul\":18050:18069   */\n      swap1\n      pop\n        /* \"#utility.yul\":17855:18075   */\n      swap2\n      swap1\n      pop\n      jump\t// out\n        /* \"#utility.yul\":18081:18447   */\n    tag_847:\n        /* \"#utility.yul\":18223:18226   */\n      0x00\n        /* \"#utility.yul\":18244:18311   */\n      tag_849\n        /* \"#utility.yul\":18308:18310   */\n      0x25\n        /* \"#utility.yul\":18303:18306   */\n      dup4\n        /* \"#utility.yul\":18244:18311   */\n      tag_758\n      jump\t// in\n    tag_849:\n        /* \"#utility.yul\":18237:18311   */\n      swap2\n      pop\n        /* \"#utility.yul\":18320:18413   */\n      tag_850\n        /* \"#utility.yul\":18409:18412   */\n      dup3\n        /* \"#utility.yul\":18320:18413   */\n      tag_851\n      jump\t// in\n    tag_850:\n        /* \"#utility.yul\":18438:18440   */\n      0x40\n        /* \"#utility.yul\":18433:18436   */\n      dup3\n        /* \"#utility.yul\":18429:18441   */\n      add\n        /* \"#utility.yul\":18422:18441   */\n      swap1\n      pop\n        /* \"#utility.yul\":18227:18447   */\n      swap2\n      swap1\n      pop\n      jump\t// out\n        /* \"#utility.yul\":18453:18571   */\n    tag_852:\n        /* \"#utility.yul\":18540:18564   */\n      tag_854\n        /* \"#utility.yul\":18558:18563   */\n      dup2\n        /* \"#utility.yul\":18540:18564   */\n      tag_855\n      jump\t// in\n    tag_854:\n        /* \"#utility.yul\":18535:18538   */\n      dup3\n        /* \"#utility.yul\":18528:18565   */\n      mstore\n        /* \"#utility.yul\":18518:18571   */\n      pop\n      pop\n      jump\t// out\n        /* \"#utility.yul\":18577:18852   */\n    tag_458:\n        /* \"#utility.yul\":18709:18712   */\n      0x00\n        /* \"#utility.yul\":18731:18826   */\n      tag_857\n        /* \"#utility.yul\":18822:18825   */\n      dup3\n        /* \"#utility.yul\":18813:18819   */\n      dup5\n        /* \"#utility.yul\":18731:18826   */\n      tag_761\n      jump\t// in\n    tag_857:\n        /* \"#utility.yul\":18724:18826   */\n      swap2\n      pop\n        /* \"#utility.yul\":18843:18846   */\n      dup2\n        /* \"#utility.yul\":18836:18846   */\n      swap1\n      pop\n        /* \"#utility.yul\":18713:18852   */\n      swap3\n      swap2\n      pop\n      pop\n      jump\t// out\n        /* \"#utility.yul\":18858:19239   */\n    tag_504:\n        /* \"#utility.yul\":19043:19046   */\n      0x00\n        /* \"#utility.yul\":19065:19213   */\n      tag_859\n        /* \"#utility.yul\":19209:19212   */\n      dup3\n        /* \"#utility.yul\":19065:19213   */\n      tag_767\n      jump\t// in\n    tag_859:\n        /* \"#utility.yul\":19058:19213   */\n      swap2\n      pop\n        /* \"#utility.yul\":19230:19233   */\n      dup2\n        /* \"#utility.yul\":19223:19233   */\n      swap1\n      pop\n        /* \"#utility.yul\":19047:19239   */\n      swap2\n      swap1\n      pop\n      jump\t// out\n        /* \"#utility.yul\":19245:19626   */\n    tag_502:\n        /* \"#utility.yul\":19430:19433   */\n      0x00\n        /* \"#utility.yul\":19452:19600   */\n      tag_861\n        /* \"#utility.yul\":19596:19599   */\n      dup3\n        /* \"#utility.yul\":19452:19600   */\n      tag_802\n      jump\t// in\n    tag_861:\n        /* \"#utility.yul\":19445:19600   */\n      swap2\n      pop\n        /* \"#utility.yul\":19617:19620   */\n      dup2\n        /* \"#utility.yul\":19610:19620   */\n      swap1\n      pop\n        /* \"#utility.yul\":19434:19626   */\n      swap2\n      swap1\n      pop\n      jump\t// out\n        /* \"#utility.yul\":19632:20013   */\n    tag_506:\n        /* \"#utility.yul\":19817:19820   */\n      0x00\n        /* \"#utility.yul\":19839:19987   */\n      tag_863\n        /* \"#utility.yul\":19983:19986   */\n      dup3\n        /* \"#utility.yul\":19839:19987   */\n      tag_812\n      jump\t// in\n    tag_863:\n        /* \"#utility.yul\":19832:19987   */\n      swap2\n      pop\n        /* \"#utility.yul\":20004:20007   */\n      dup2\n        /* \"#utility.yul\":19997:20007   */\n      swap1\n      pop\n        /* \"#utility.yul\":19821:20013   */\n      swap2\n      swap1\n      pop\n      jump\t// out\n        /* \"#utility.yul\":20019:20400   */\n    tag_508:\n        /* \"#utility.yul\":20204:20207   */\n      0x00\n        /* \"#utility.yul\":20226:20374   */\n      tag_865\n        /* \"#utility.yul\":20370:20373   */\n      dup3\n        /* \"#utility.yul\":20226:20374   */\n      tag_817\n      jump\t// in\n    tag_865:\n        /* \"#utility.yul\":20219:20374   */\n      swap2\n      pop\n        /* \"#utility.yul\":20391:20394   */\n      dup2\n        /* \"#utility.yul\":20384:20394   */\n      swap1\n      pop\n        /* \"#utility.yul\":20208:20400   */\n      swap2\n      swap1\n      pop\n      jump\t// out\n        /* \"#utility.yul\":20406:20787   */\n    tag_510:\n        /* \"#utility.yul\":20591:20594   */\n      0x00\n        /* \"#utility.yul\":20613:20761   */\n      tag_867\n        /* \"#utility.yul\":20757:20760   */\n      dup3\n        /* \"#utility.yul\":20613:20761   */\n      tag_832\n      jump\t// in\n    tag_867:\n        /* \"#utility.yul\":20606:20761   */\n      swap2\n      pop\n        /* \"#utility.yul\":20778:20781   */\n      dup2\n        /* \"#utility.yul\":20771:20781   */\n      swap1\n      pop\n        /* \"#utility.yul\":20595:20787   */\n      swap2\n      swap1\n      pop\n      jump\t// out\n        /* \"#utility.yul\":20793:21174   */\n    tag_500:\n        /* \"#utility.yul\":20978:20981   */\n      0x00\n        /* \"#utility.yul\":21000:21148   */\n      tag_869\n        /* \"#utility.yul\":21144:21147   */\n      dup3\n        /* \"#utility.yul\":21000:21148   */\n      tag_837\n      jump\t// in\n    tag_869:\n        /* \"#utility.yul\":20993:21148   */\n      swap2\n      pop\n        /* \"#utility.yul\":21165:21168   */\n      dup2\n        /* \"#utility.yul\":21158:21168   */\n      swap1\n      pop\n        /* \"#utility.yul\":20982:21174   */\n      swap2\n      swap1\n      pop\n      jump\t// out\n        /* \"#utility.yul\":21180:21402   */\n    tag_162:\n        /* \"#utility.yul\":21273:21277   */\n      0x00\n        /* \"#utility.yul\":21311:21313   */\n      0x20\n        /* \"#utility.yul\":21300:21309   */\n      dup3\n        /* \"#utility.yul\":21296:21314   */\n      add\n        /* \"#utility.yul\":21288:21314   */\n      swap1\n      pop\n        /* \"#utility.yul\":21324:21395   */\n      tag_871\n        /* \"#utility.yul\":21392:21393   */\n      0x00\n        /* \"#utility.yul\":21381:21390   */\n      dup4\n        /* \"#utility.yul\":21377:21394   */\n      add\n        /* \"#utility.yul\":21368:21374   */\n      dup5\n        /* \"#utility.yul\":21324:21395   */\n      tag_699\n      jump\t// in\n    tag_871:\n        /* \"#utility.yul\":21278:21402   */\n      swap3\n      swap2\n      pop\n      pop\n      jump\t// out\n        /* \"#utility.yul\":21408:21662   */\n    tag_49:\n        /* \"#utility.yul\":21517:21521   */\n      0x00\n        /* \"#utility.yul\":21555:21557   */\n      0x20\n        /* \"#utility.yul\":21544:21553   */\n      dup3\n        /* \"#utility.yul\":21540:21558   */\n      add\n        /* \"#utility.yul\":21532:21558   */\n      swap1\n      pop\n        /* \"#utility.yul\":21568:21655   */\n      tag_873\n        /* \"#utility.yul\":21652:21653   */\n      0x00\n        /* \"#utility.yul\":21641:21650   */\n      dup4\n        /* \"#utility.yul\":21637:21654   */\n      add\n        /* \"#utility.yul\":21628:21634   */\n      dup5\n        /* \"#utility.yul\":21568:21655   */\n      tag_695\n      jump\t// in\n    tag_873:\n        /* \"#utility.yul\":21522:21662   */\n      swap3\n      swap2\n      pop\n      pop\n      jump\t// out\n        /* \"#utility.yul\":21668:23454   */\n    tag_172:\n        /* \"#utility.yul\":22218:22222   */\n      0x00\n        /* \"#utility.yul\":22256:22259   */\n      0x0240\n        /* \"#utility.yul\":22245:22254   */\n      dup3\n        /* \"#utility.yul\":22241:22260   */\n      add\n        /* \"#utility.yul\":22233:22260   */\n      swap1\n      pop\n        /* \"#utility.yul\":22270:22341   */\n      tag_875\n        /* \"#utility.yul\":22338:22339   */\n      0x00\n        /* \"#utility.yul\":22327:22336   */\n      dup4\n        /* \"#utility.yul\":22323:22340   */\n      add\n        /* \"#utility.yul\":22314:22320   */\n      dup15\n        /* \"#utility.yul\":22270:22341   */\n      tag_699\n      jump\t// in\n    tag_875:\n        /* \"#utility.yul\":22351:22423   */\n      tag_876\n        /* \"#utility.yul\":22419:22421   */\n      0x20\n        /* \"#utility.yul\":22408:22417   */\n      dup4\n        /* \"#utility.yul\":22404:22422   */\n      add\n        /* \"#utility.yul\":22395:22401   */\n      dup14\n        /* \"#utility.yul\":22351:22423   */\n      tag_699\n      jump\t// in\n    tag_876:\n        /* \"#utility.yul\":22433:22505   */\n      tag_877\n        /* \"#utility.yul\":22501:22503   */\n      0x40\n        /* \"#utility.yul\":22490:22499   */\n      dup4\n        /* \"#utility.yul\":22486:22504   */\n      add\n        /* \"#utility.yul\":22477:22483   */\n      dup13\n        /* \"#utility.yul\":22433:22505   */\n      tag_852\n      jump\t// in\n    tag_877:\n        /* \"#utility.yul\":22515:22587   */\n      tag_878\n        /* \"#utility.yul\":22583:22585   */\n      0x60\n        /* \"#utility.yul\":22572:22581   */\n      dup4\n        /* \"#utility.yul\":22568:22586   */\n      add\n        /* \"#utility.yul\":22559:22565   */\n      dup12\n        /* \"#utility.yul\":22515:22587   */\n      tag_852\n      jump\t// in\n    tag_878:\n        /* \"#utility.yul\":22597:22670   */\n      tag_879\n        /* \"#utility.yul\":22665:22668   */\n      0x80\n        /* \"#utility.yul\":22654:22663   */\n      dup4\n        /* \"#utility.yul\":22650:22669   */\n      add\n        /* \"#utility.yul\":22641:22647   */\n      dup11\n        /* \"#utility.yul\":22597:22670   */\n      tag_852\n      jump\t// in\n    tag_879:\n        /* \"#utility.yul\":22680:22753   */\n      tag_880\n        /* \"#utility.yul\":22748:22751   */\n      0xa0\n        /* \"#utility.yul\":22737:22746   */\n      dup4\n        /* \"#utility.yul\":22733:22752   */\n      add\n        /* \"#utility.yul\":22724:22730   */\n      dup10\n        /* \"#utility.yul\":22680:22753   */\n      tag_852\n      jump\t// in\n    tag_880:\n        /* \"#utility.yul\":22763:22836   */\n      tag_881\n        /* \"#utility.yul\":22831:22834   */\n      0xc0\n        /* \"#utility.yul\":22820:22829   */\n      dup4\n        /* \"#utility.yul\":22816:22835   */\n      add\n        /* \"#utility.yul\":22807:22813   */\n      dup9\n        /* \"#utility.yul\":22763:22836   */\n      tag_852\n      jump\t// in\n    tag_881:\n        /* \"#utility.yul\":22846:22919   */\n      tag_882\n        /* \"#utility.yul\":22914:22917   */\n      0xe0\n        /* \"#utility.yul\":22903:22912   */\n      dup4\n        /* \"#utility.yul\":22899:22918   */\n      add\n        /* \"#utility.yul\":22890:22896   */\n      dup8\n        /* \"#utility.yul\":22846:22919   */\n      tag_852\n      jump\t// in\n    tag_882:\n        /* \"#utility.yul\":22967:22976   */\n      dup2\n        /* \"#utility.yul\":22961:22965   */\n      dup2\n        /* \"#utility.yul\":22957:22977   */\n      sub\n        /* \"#utility.yul\":22951:22954   */\n      0x0100\n        /* \"#utility.yul\":22940:22949   */\n      dup4\n        /* \"#utility.yul\":22936:22955   */\n      add\n        /* \"#utility.yul\":22929:22978   */\n      mstore\n        /* \"#utility.yul\":22995:23119   */\n      tag_883\n        /* \"#utility.yul\":23114:23118   */\n      dup2\n        /* \"#utility.yul\":23105:23111   */\n      dup7\n        /* \"#utility.yul\":22995:23119   */\n      tag_717\n      jump\t// in\n    tag_883:\n        /* \"#utility.yul\":22987:23119   */\n      swap1\n      pop\n        /* \"#utility.yul\":23129:23246   */\n      tag_884\n        /* \"#utility.yul\":23241:23244   */\n      0x0120\n        /* \"#utility.yul\":23230:23239   */\n      dup4\n        /* \"#utility.yul\":23226:23245   */\n      add\n        /* \"#utility.yul\":23217:23223   */\n      dup6\n        /* \"#utility.yul\":23129:23246   */\n      tag_703\n      jump\t// in\n    tag_884:\n        /* \"#utility.yul\":23294:23303   */\n      dup2\n        /* \"#utility.yul\":23288:23292   */\n      dup2\n        /* \"#utility.yul\":23284:23304   */\n      sub\n        /* \"#utility.yul\":23278:23281   */\n      0x0220\n        /* \"#utility.yul\":23267:23276   */\n      dup4\n        /* \"#utility.yul\":23263:23282   */\n      add\n        /* \"#utility.yul\":23256:23305   */\n      mstore\n        /* \"#utility.yul\":23322:23447   */\n      tag_885\n        /* \"#utility.yul\":23442:23446   */\n      dup2\n        /* \"#utility.yul\":23432:23439   */\n      dup5\n        /* \"#utility.yul\":23322:23447   */\n      tag_717\n      jump\t// in\n    tag_885:\n        /* \"#utility.yul\":23314:23447   */\n      swap1\n      pop\n        /* \"#utility.yul\":22223:23454   */\n      swap13\n      swap12\n      pop\n      pop\n      pop\n      pop\n      pop\n      pop\n      pop\n      pop\n      pop\n      pop\n      pop\n      pop\n      jump\t// out\n        /* \"#utility.yul\":23460:23670   */\n    tag_66:\n        /* \"#utility.yul\":23547:23551   */\n      0x00\n        /* \"#utility.yul\":23585:23587   */\n      0x20\n        /* \"#utility.yul\":23574:23583   */\n      dup3\n        /* \"#utility.yul\":23570:23588   */\n      add\n        /* \"#utility.yul\":23562:23588   */\n      swap1\n      pop\n        /* \"#utility.yul\":23598:23663   */\n      tag_887\n        /* \"#utility.yul\":23660:23661   */\n      0x00\n        /* \"#utility.yul\":23649:23658   */\n      dup4\n        /* \"#utility.yul\":23645:23662   */\n      add\n        /* \"#utility.yul\":23636:23642   */\n      dup5\n        /* \"#utility.yul\":23598:23663   */\n      tag_731\n      jump\t// in\n    tag_887:\n        /* \"#utility.yul\":23552:23670   */\n      swap3\n      swap2\n      pop\n      pop\n      jump\t// out\n        /* \"#utility.yul\":23676:24193   */\n    tag_364:\n        /* \"#utility.yul\":23864:23868   */\n      0x00\n        /* \"#utility.yul\":23902:23904   */\n      0x40\n        /* \"#utility.yul\":23891:23900   */\n      dup3\n        /* \"#utility.yul\":23887:23905   */\n      add\n        /* \"#utility.yul\":23879:23905   */\n      swap1\n      pop\n        /* \"#utility.yul\":23915:23980   */\n      tag_889\n        /* \"#utility.yul\":23977:23978   */\n      0x00\n        /* \"#utility.yul\":23966:23975   */\n      dup4\n        /* \"#utility.yul\":23962:23979   */\n      add\n        /* \"#utility.yul\":23953:23959   */\n      dup5\n        /* \"#utility.yul\":23915:23980   */\n      tag_731\n      jump\t// in\n    tag_889:\n        /* \"#utility.yul\":24027:24036   */\n      dup2\n        /* \"#utility.yul\":24021:24025   */\n      dup2\n        /* \"#utility.yul\":24017:24037   */\n      sub\n        /* \"#utility.yul\":24012:24014   */\n      0x20\n        /* \"#utility.yul\":24001:24010   */\n      dup4\n        /* \"#utility.yul\":23997:24015   */\n      add\n        /* \"#utility.yul\":23990:24038   */\n      mstore\n        /* \"#utility.yul\":24055:24186   */\n      tag_890\n        /* \"#utility.yul\":24181:24185   */\n      dup2\n        /* \"#utility.yul\":24055:24186   */\n      tag_787\n      jump\t// in\n    tag_890:\n        /* \"#utility.yul\":24047:24186   */\n      swap1\n      pop\n        /* \"#utility.yul\":23869:24193   */\n      swap3\n      swap2\n      pop\n      pop\n      jump\t// out\n        /* \"#utility.yul\":24199:24716   */\n    tag_367:\n        /* \"#utility.yul\":24387:24391   */\n      0x00\n        /* \"#utility.yul\":24425:24427   */\n      0x40\n        /* \"#utility.yul\":24414:24423   */\n      dup3\n        /* \"#utility.yul\":24410:24428   */\n      add\n        /* \"#utility.yul\":24402:24428   */\n      swap1\n      pop\n        /* \"#utility.yul\":24438:24503   */\n      tag_892\n        /* \"#utility.yul\":24500:24501   */\n      0x00\n        /* \"#utility.yul\":24489:24498   */\n      dup4\n        /* \"#utility.yul\":24485:24502   */\n      add\n        /* \"#utility.yul\":24476:24482   */\n      dup5\n        /* \"#utility.yul\":24438:24503   */\n      tag_731\n      jump\t// in\n    tag_892:\n        /* \"#utility.yul\":24550:24559   */\n      dup2\n        /* \"#utility.yul\":24544:24548   */\n      dup2\n        /* \"#utility.yul\":24540:24560   */\n      sub\n        /* \"#utility.yul\":24535:24537   */\n      0x20\n        /* \"#utility.yul\":24524:24533   */\n      dup4\n        /* \"#utility.yul\":24520:24538   */\n      add\n        /* \"#utility.yul\":24513:24561   */\n      mstore\n        /* \"#utility.yul\":24578:24709   */\n      tag_893\n        /* \"#utility.yul\":24704:24708   */\n      dup2\n        /* \"#utility.yul\":24578:24709   */\n      tag_792\n      jump\t// in\n    tag_893:\n        /* \"#utility.yul\":24570:24709   */\n      swap1\n      pop\n        /* \"#utility.yul\":24392:24716   */\n      swap3\n      swap2\n      pop\n      pop\n      jump\t// out\n        /* \"#utility.yul\":24722:24958   */\n    tag_145:\n        /* \"#utility.yul\":24822:24826   */\n      0x00\n        /* \"#utility.yul\":24860:24862   */\n      0x20\n        /* \"#utility.yul\":24849:24858   */\n      dup3\n        /* \"#utility.yul\":24845:24863   */\n      add\n        /* \"#utility.yul\":24837:24863   */\n      swap1\n      pop\n        /* \"#utility.yul\":24873:24951   */\n      tag_895\n        /* \"#utility.yul\":24948:24949   */\n      0x00\n        /* \"#utility.yul\":24937:24946   */\n      dup4\n        /* \"#utility.yul\":24933:24950   */\n      add\n        /* \"#utility.yul\":24924:24930   */\n      dup5\n        /* \"#utility.yul\":24873:24951   */\n      tag_735\n      jump\t// in\n    tag_895:\n        /* \"#utility.yul\":24827:24958   */\n      swap3\n      swap2\n      pop\n      pop\n      jump\t// out\n        /* \"#utility.yul\":24964:25182   */\n    tag_96:\n        /* \"#utility.yul\":25055:25059   */\n      0x00\n        /* \"#utility.yul\":25093:25095   */\n      0x20\n        /* \"#utility.yul\":25082:25091   */\n      dup3\n        /* \"#utility.yul\":25078:25096   */\n      add\n        /* \"#utility.yul\":25070:25096   */\n      swap1\n      pop\n        /* \"#utility.yul\":25106:25175   */\n      tag_897\n        /* \"#utility.yul\":25172:25173   */\n      0x00\n        /* \"#utility.yul\":25161:25170   */\n      dup4\n        /* \"#utility.yul\":25157:25174   */\n      add\n        /* \"#utility.yul\":25148:25154   */\n      dup5\n        /* \"#utility.yul\":25106:25175   */\n      tag_742\n      jump\t// in\n    tag_897:\n        /* \"#utility.yul\":25060:25182   */\n      swap3\n      swap2\n      pop\n      pop\n      jump\t// out\n        /* \"#utility.yul\":25188:25501   */\n    tag_86:\n        /* \"#utility.yul\":25301:25305   */\n      0x00\n        /* \"#utility.yul\":25339:25341   */\n      0x20\n        /* \"#utility.yul\":25328:25337   */\n      dup3\n        /* \"#utility.yul\":25324:25342   */\n      add\n        /* \"#utility.yul\":25316:25342   */\n      swap1\n      pop\n        /* \"#utility.yul\":25388:25397   */\n      dup2\n        /* \"#utility.yul\":25382:25386   */\n      dup2\n        /* \"#utility.yul\":25378:25398   */\n      sub\n        /* \"#utility.yul\":25374:25375   */\n      0x00\n        /* \"#utility.yul\":25363:25372   */\n      dup4\n        /* \"#utility.yul\":25359:25376   */\n      add\n        /* \"#utility.yul\":25352:25399   */\n      mstore\n        /* \"#utility.yul\":25416:25494   */\n      tag_899\n        /* \"#utility.yul\":25489:25493   */\n      dup2\n        /* \"#utility.yul\":25480:25486   */\n      dup5\n        /* \"#utility.yul\":25416:25494   */\n      tag_754\n      jump\t// in\n    tag_899:\n        /* \"#utility.yul\":25408:25494   */\n      swap1\n      pop\n        /* \"#utility.yul\":25306:25501   */\n      swap3\n      swap2\n      pop\n      pop\n      jump\t// out\n        /* \"#utility.yul\":25507:26036   */\n    tag_442:\n        /* \"#utility.yul\":25701:25705   */\n      0x00\n        /* \"#utility.yul\":25739:25741   */\n      0x40\n        /* \"#utility.yul\":25728:25737   */\n      dup3\n        /* \"#utility.yul\":25724:25742   */\n      add\n        /* \"#utility.yul\":25716:25742   */\n      swap1\n      pop\n        /* \"#utility.yul\":25788:25797   */\n      dup2\n        /* \"#utility.yul\":25782:25786   */\n      dup2\n        /* \"#utility.yul\":25778:25798   */\n      sub\n        /* \"#utility.yul\":25774:25775   */\n      0x00\n        /* \"#utility.yul\":25763:25772   */\n      dup4\n        /* \"#utility.yul\":25759:25776   */\n      add\n        /* \"#utility.yul\":25752:25799   */\n      mstore\n        /* \"#utility.yul\":25816:25947   */\n      tag_901\n        /* \"#utility.yul\":25942:25946   */\n      dup2\n        /* \"#utility.yul\":25816:25947   */\n      tag_772\n      jump\t// in\n    tag_901:\n        /* \"#utility.yul\":25808:25947   */\n      swap1\n      pop\n        /* \"#utility.yul\":25957:26029   */\n      tag_902\n        /* \"#utility.yul\":26025:26027   */\n      0x20\n        /* \"#utility.yul\":26014:26023   */\n      dup4\n        /* \"#utility.yul\":26010:26028   */\n      add\n        /* \"#utility.yul\":26001:26007   */\n      dup5\n        /* \"#utility.yul\":25957:26029   */\n      tag_852\n      jump\t// in\n    tag_902:\n        /* \"#utility.yul\":25706:26036   */\n      swap3\n      swap2\n      pop\n      pop\n      jump\t// out\n        /* \"#utility.yul\":26042:26461   */\n    tag_193:\n        /* \"#utility.yul\":26208:26212   */\n      0x00\n        /* \"#utility.yul\":26246:26248   */\n      0x20\n        /* \"#utility.yul\":26235:26244   */\n      dup3\n        /* \"#utility.yul\":26231:26249   */\n      add\n        /* \"#utility.yul\":26223:26249   */\n      swap1\n      pop\n        /* \"#utility.yul\":26295:26304   */\n      dup2\n        /* \"#utility.yul\":26289:26293   */\n      dup2\n        /* \"#utility.yul\":26285:26305   */\n      sub\n        /* \"#utility.yul\":26281:26282   */\n      0x00\n        /* \"#utility.yul\":26270:26279   */\n      dup4\n        /* \"#utility.yul\":26266:26283   */\n      add\n        /* \"#utility.yul\":26259:26306   */\n      mstore\n        /* \"#utility.yul\":26323:26454   */\n      tag_904\n        /* \"#utility.yul\":26449:26453   */\n      dup2\n        /* \"#utility.yul\":26323:26454   */\n      tag_777\n      jump\t// in\n    tag_904:\n        /* \"#utility.yul\":26315:26454   */\n      swap1\n      pop\n        /* \"#utility.yul\":26213:26461   */\n      swap2\n      swap1\n      pop\n      jump\t// out\n        /* \"#utility.yul\":26467:26996   */\n    tag_437:\n        /* \"#utility.yul\":26661:26665   */\n      0x00\n        /* \"#utility.yul\":26699:26701   */\n      0x40\n        /* \"#utility.yul\":26688:26697   */\n      dup3\n        /* \"#utility.yul\":26684:26702   */\n      add\n        /* \"#utility.yul\":26676:26702   */\n      swap1\n      pop\n        /* \"#utility.yul\":26748:26757   */\n      dup2\n        /* \"#utility.yul\":26742:26746   */\n      dup2\n        /* \"#utility.yul\":26738:26758   */\n      sub\n        /* \"#utility.yul\":26734:26735   */\n      0x00\n        /* \"#utility.yul\":26723:26732   */\n      dup4\n        /* \"#utility.yul\":26719:26736   */\n      add\n        /* \"#utility.yul\":26712:26759   */\n      mstore\n        /* \"#utility.yul\":26776:26907   */\n      tag_906\n        /* \"#utility.yul\":26902:26906   */\n      dup2\n        /* \"#utility.yul\":26776:26907   */\n      tag_782\n      jump\t// in\n    tag_906:\n        /* \"#utility.yul\":26768:26907   */\n      swap1\n      pop\n        /* \"#utility.yul\":26917:26989   */\n      tag_907\n        /* \"#utility.yul\":26985:26987   */\n      0x20\n        /* \"#utility.yul\":26974:26983   */\n      dup4\n        /* \"#utility.yul\":26970:26988   */\n      add\n        /* \"#utility.yul\":26961:26967   */\n      dup5\n        /* \"#utility.yul\":26917:26989   */\n      tag_852\n      jump\t// in\n    tag_907:\n        /* \"#utility.yul\":26666:26996   */\n      swap3\n      swap2\n      pop\n      pop\n      jump\t// out\n        /* \"#utility.yul\":27002:27531   */\n    tag_427:\n        /* \"#utility.yul\":27196:27200   */\n      0x00\n        /* \"#utility.yul\":27234:27236   */\n      0x40\n        /* \"#utility.yul\":27223:27232   */\n      dup3\n        /* \"#utility.yul\":27219:27237   */\n      add\n        /* \"#utility.yul\":27211:27237   */\n      swap1\n      pop\n        /* \"#utility.yul\":27283:27292   */\n      dup2\n        /* \"#utility.yul\":27277:27281   */\n      dup2\n        /* \"#utility.yul\":27273:27293   */\n      sub\n        /* \"#utility.yul\":27269:27270   */\n      0x00\n        /* \"#utility.yul\":27258:27267   */\n      dup4\n        /* \"#utility.yul\":27254:27271   */\n      add\n        /* \"#utility.yul\":27247:27294   */\n      mstore\n        /* \"#utility.yul\":27311:27442   */\n      tag_909\n        /* \"#utility.yul\":27437:27441   */\n      dup2\n        /* \"#utility.yul\":27311:27442   */\n      tag_797\n      jump\t// in\n    tag_909:\n        /* \"#utility.yul\":27303:27442   */\n      swap1\n      pop\n        /* \"#utility.yul\":27452:27524   */\n      tag_910\n        /* \"#utility.yul\":27520:27522   */\n      0x20\n        /* \"#utility.yul\":27509:27518   */\n      dup4\n        /* \"#utility.yul\":27505:27523   */\n      add\n        /* \"#utility.yul\":27496:27502   */\n      dup5\n        /* \"#utility.yul\":27452:27524   */\n      tag_852\n      jump\t// in\n    tag_910:\n        /* \"#utility.yul\":27201:27531   */\n      swap3\n      swap2\n      pop\n      pop\n      jump\t// out\n        /* \"#utility.yul\":27537:28066   */\n    tag_318:\n        /* \"#utility.yul\":27731:27735   */\n      0x00\n        /* \"#utility.yul\":27769:27771   */\n      0x40\n        /* \"#utility.yul\":27758:27767   */\n      dup3\n        /* \"#utility.yul\":27754:27772   */\n      add\n        /* \"#utility.yul\":27746:27772   */\n      swap1\n      pop\n        /* \"#utility.yul\":27818:27827   */\n      dup2\n        /* \"#utility.yul\":27812:27816   */\n      dup2\n        /* \"#utility.yul\":27808:27828   */\n      sub\n        /* \"#utility.yul\":27804:27805   */\n      0x00\n        /* \"#utility.yul\":27793:27802   */\n      dup4\n        /* \"#utility.yul\":27789:27806   */\n      add\n        /* \"#utility.yul\":27782:27829   */\n      mstore\n        /* \"#utility.yul\":27846:27977   */\n      tag_912\n        /* \"#utility.yul\":27972:27976   */\n      dup2\n        /* \"#utility.yul\":27846:27977   */\n      tag_807\n      jump\t// in\n    tag_912:\n        /* \"#utility.yul\":27838:27977   */\n      swap1\n      pop\n        /* \"#utility.yul\":27987:28059   */\n      tag_913\n        /* \"#utility.yul\":28055:28057   */\n      0x20\n        /* \"#utility.yul\":28044:28053   */\n      dup4\n        /* \"#utility.yul\":28040:28058   */\n      add\n        /* \"#utility.yul\":28031:28037   */\n      dup5\n        /* \"#utility.yul\":27987:28059   */\n      tag_852\n      jump\t// in\n    tag_913:\n        /* \"#utility.yul\":27736:28066   */\n      swap3\n      swap2\n      pop\n      pop\n      jump\t// out\n        /* \"#utility.yul\":28072:28601   */\n    tag_178:\n        /* \"#utility.yul\":28266:28270   */\n      0x00\n        /* \"#utility.yul\":28304:28306   */\n      0x40\n        /* \"#utility.yul\":28293:28302   */\n      dup3\n        /* \"#utility.yul\":28289:28307   */\n      add\n        /* \"#utility.yul\":28281:28307   */\n      swap1\n      pop\n        /* \"#utility.yul\":28353:28362   */\n      dup2\n        /* \"#utility.yul\":28347:28351   */\n      dup2\n        /* \"#utility.yul\":28343:28363   */\n      sub\n        /* \"#utility.yul\":28339:28340   */\n      0x00\n        /* \"#utility.yul\":28328:28337   */\n      dup4\n        /* \"#utility.yul\":28324:28341   */\n      add\n        /* \"#utility.yul\":28317:28364   */\n      mstore\n        /* \"#utility.yul\":28381:28512   */\n      tag_915\n        /* \"#utility.yul\":28507:28511   */\n      dup2\n        /* \"#utility.yul\":28381:28512   */\n      tag_822\n      jump\t// in\n    tag_915:\n        /* \"#utility.yul\":28373:28512   */\n      swap1\n      pop\n        /* \"#utility.yul\":28522:28594   */\n      tag_916\n        /* \"#utility.yul\":28590:28592   */\n      0x20\n        /* \"#utility.yul\":28579:28588   */\n      dup4\n        /* \"#utility.yul\":28575:28593   */\n      add\n        /* \"#utility.yul\":28566:28572   */\n      dup5\n        /* \"#utility.yul\":28522:28594   */\n      tag_852\n      jump\t// in\n    tag_916:\n        /* \"#utility.yul\":28271:28601   */\n      swap3\n      swap2\n      pop\n      pop\n      jump\t// out\n        /* \"#utility.yul\":28607:29136   */\n    tag_182:\n        /* \"#utility.yul\":28801:28805   */\n      0x00\n        /* \"#utility.yul\":28839:28841   */\n      0x40\n        /* \"#utility.yul\":28828:28837   */\n      dup3\n        /* \"#utility.yul\":28824:28842   */\n      add\n        /* \"#utility.yul\":28816:28842   */\n      swap1\n      pop\n        /* \"#utility.yul\":28888:28897   */\n      dup2\n        /* \"#utility.yul\":28882:28886   */\n      dup2\n        /* \"#utility.yul\":28878:28898   */\n      sub\n        /* \"#utility.yul\":28874:28875   */\n      0x00\n        /* \"#utility.yul\":28863:28872   */\n      dup4\n        /* \"#utility.yul\":28859:28876   */\n      add\n        /* \"#utility.yul\":28852:28899   */\n      mstore\n        /* \"#utility.yul\":28916:29047   */\n      tag_918\n        /* \"#utility.yul\":29042:29046   */\n      dup2\n        /* \"#utility.yul\":28916:29047   */\n      tag_827\n      jump\t// in\n    tag_918:\n        /* \"#utility.yul\":28908:29047   */\n      swap1\n      pop\n        /* \"#utility.yul\":29057:29129   */\n      tag_919\n        /* \"#utility.yul\":29125:29127   */\n      0x20\n        /* \"#utility.yul\":29114:29123   */\n      dup4\n        /* \"#utility.yul\":29110:29128   */\n      add\n        /* \"#utility.yul\":29101:29107   */\n      dup5\n        /* \"#utility.yul\":29057:29129   */\n      tag_852\n      jump\t// in\n    tag_919:\n        /* \"#utility.yul\":28806:29136   */\n      swap3\n      swap2\n      pop\n      pop\n      jump\t// out\n        /* \"#utility.yul\":29142:29561   */\n    tag_216:\n        /* \"#utility.yul\":29308:29312   */\n      0x00\n        /* \"#utility.yul\":29346:29348   */\n      0x20\n        /* \"#utility.yul\":29335:29344   */\n      dup3\n        /* \"#utility.yul\":29331:29349   */\n      add\n        /* \"#utility.yul\":29323:29349   */\n      swap1\n      pop\n        /* \"#utility.yul\":29395:29404   */\n      dup2\n        /* \"#utility.yul\":29389:29393   */\n      dup2\n        /* \"#utility.yul\":29385:29405   */\n      sub\n        /* \"#utility.yul\":29381:29382   */\n      0x00\n        /* \"#utility.yul\":29370:29379   */\n      dup4\n        /* \"#utility.yul\":29366:29383   */\n      add\n        /* \"#utility.yul\":29359:29406   */\n      mstore\n        /* \"#utility.yul\":29423:29554   */\n      tag_921\n        /* \"#utility.yul\":29549:29553   */\n      dup2\n        /* \"#utility.yul\":29423:29554   */\n      tag_842\n      jump\t// in\n    tag_921:\n        /* \"#utility.yul\":29415:29554   */\n      swap1\n      pop\n        /* \"#utility.yul\":29313:29561   */\n      swap2\n      swap1\n      pop\n      jump\t// out\n        /* \"#utility.yul\":29567:29986   */\n    tag_189:\n        /* \"#utility.yul\":29733:29737   */\n      0x00\n        /* \"#utility.yul\":29771:29773   */\n      0x20\n        /* \"#utility.yul\":29760:29769   */\n      dup3\n        /* \"#utility.yul\":29756:29774   */\n      add\n        /* \"#utility.yul\":29748:29774   */\n      swap1\n      pop\n        /* \"#utility.yul\":29820:29829   */\n      dup2\n        /* \"#utility.yul\":29814:29818   */\n      dup2\n        /* \"#utility.yul\":29810:29830   */\n      sub\n        /* \"#utility.yul\":29806:29807   */\n      0x00\n        /* \"#utility.yul\":29795:29804   */\n      dup4\n        /* \"#utility.yul\":29791:29808   */\n      add\n        /* \"#utility.yul\":29784:29831   */\n      mstore\n        /* \"#utility.yul\":29848:29979   */\n      tag_923\n        /* \"#utility.yul\":29974:29978   */\n      dup2\n        /* \"#utility.yul\":29848:29979   */\n      tag_847\n      jump\t// in\n    tag_923:\n        /* \"#utility.yul\":29840:29979   */\n      swap1\n      pop\n        /* \"#utility.yul\":29738:29986   */\n      swap2\n      swap1\n      pop\n      jump\t// out\n        /* \"#utility.yul\":29992:30214   */\n    tag_44:\n        /* \"#utility.yul\":30085:30089   */\n      0x00\n        /* \"#utility.yul\":30123:30125   */\n      0x20\n        /* \"#utility.yul\":30112:30121   */\n      dup3\n        /* \"#utility.yul\":30108:30126   */\n      add\n        /* \"#utility.yul\":30100:30126   */\n      swap1\n      pop\n        /* \"#utility.yul\":30136:30207   */\n      tag_925\n        /* \"#utility.yul\":30204:30205   */\n      0x00\n        /* \"#utility.yul\":30193:30202   */\n      dup4\n        /* \"#utility.yul\":30189:30206   */\n      add\n        /* \"#utility.yul\":30180:30186   */\n      dup5\n        /* \"#utility.yul\":30136:30207   */\n      tag_852\n      jump\t// in\n    tag_925:\n        /* \"#utility.yul\":30090:30214   */\n      swap3\n      swap2\n      pop\n      pop\n      jump\t// out\n        /* \"#utility.yul\":30220:30349   */\n    tag_578:\n        /* \"#utility.yul\":30254:30260   */\n      0x00\n        /* \"#utility.yul\":30281:30301   */\n      tag_927\n      tag_928\n      jump\t// in\n    tag_927:\n        /* \"#utility.yul\":30271:30301   */\n      swap1\n      pop\n        /* \"#utility.yul\":30310:30343   */\n      tag_929\n        /* \"#utility.yul\":30338:30342   */\n      dup3\n        /* \"#utility.yul\":30330:30336   */\n      dup3\n        /* \"#utility.yul\":30310:30343   */\n      tag_930\n      jump\t// in\n    tag_929:\n        /* \"#utility.yul\":30261:30349   */\n      swap2\n      swap1\n      pop\n      jump\t// out\n        /* \"#utility.yul\":30355:30430   */\n    tag_928:\n        /* \"#utility.yul\":30388:30394   */\n      0x00\n        /* \"#utility.yul\":30421:30423   */\n      0x40\n        /* \"#utility.yul\":30415:30424   */\n      mload\n        /* \"#utility.yul\":30405:30424   */\n      swap1\n      pop\n        /* \"#utility.yul\":30395:30430   */\n      swap1\n      jump\t// out\n        /* \"#utility.yul\":30436:30684   */\n    tag_577:\n        /* \"#utility.yul\":30510:30514   */\n      0x00\n        /* \"#utility.yul\":30600:30618   */\n      0xffffffffffffffff\n        /* \"#utility.yul\":30592:30598   */\n      dup3\n        /* \"#utility.yul\":30589:30619   */\n      gt\n        /* \"#utility.yul\":30586:30588   */\n      iszero\n      tag_933\n      jumpi\n        /* \"#utility.yul\":30622:30640   */\n      tag_934\n      tag_935\n      jump\t// in\n    tag_934:\n        /* \"#utility.yul\":30586:30588   */\n    tag_933:\n        /* \"#utility.yul\":30672:30676   */\n      0x20\n        /* \"#utility.yul\":30664:30670   */\n      dup3\n        /* \"#utility.yul\":30660:30677   */\n      mul\n        /* \"#utility.yul\":30652:30677   */\n      swap1\n      pop\n        /* \"#utility.yul\":30515:30684   */\n      swap2\n      swap1\n      pop\n      jump\t// out\n        /* \"#utility.yul\":30690:31000   */\n    tag_591:\n        /* \"#utility.yul\":30766:30770   */\n      0x00\n        /* \"#utility.yul\":30856:30874   */\n      0xffffffffffffffff\n        /* \"#utility.yul\":30848:30854   */\n      dup3\n        /* \"#utility.yul\":30845:30875   */\n      gt\n        /* \"#utility.yul\":30842:30844   */\n      iszero\n      tag_937\n      jumpi\n        /* \"#utility.yul\":30878:30896   */\n      tag_938\n      tag_935\n      jump\t// in\n    tag_938:\n        /* \"#utility.yul\":30842:30844   */\n    tag_937:\n        /* \"#utility.yul\":30928:30932   */\n      0x20\n        /* \"#utility.yul\":30920:30926   */\n      dup3\n        /* \"#utility.yul\":30916:30933   */\n      mul\n        /* \"#utility.yul\":30908:30933   */\n      swap1\n      pop\n        /* \"#utility.yul\":30988:30992   */\n      0x20\n        /* \"#utility.yul\":30982:30986   */\n      dup2\n        /* \"#utility.yul\":30978:30993   */\n      add\n        /* \"#utility.yul\":30970:30993   */\n      swap1\n      pop\n        /* \"#utility.yul\":30771:31000   */\n      swap2\n      swap1\n      pop\n      jump\t// out\n        /* \"#utility.yul\":31006:31265   */\n    tag_602:\n        /* \"#utility.yul\":31091:31095   */\n      0x00\n        /* \"#utility.yul\":31181:31199   */\n      0xffffffffffffffff\n        /* \"#utility.yul\":31173:31179   */\n      dup3\n        /* \"#utility.yul\":31170:31200   */\n      gt\n        /* \"#utility.yul\":31167:31169   */\n      iszero\n      tag_940\n      jumpi\n        /* \"#utility.yul\":31203:31221   */\n      tag_941\n      tag_935\n      jump\t// in\n    tag_941:\n        /* \"#utility.yul\":31167:31169   */\n    tag_940:\n        /* \"#utility.yul\":31253:31257   */\n      0x20\n        /* \"#utility.yul\":31245:31251   */\n      dup3\n        /* \"#utility.yul\":31241:31258   */\n      mul\n        /* \"#utility.yul\":31233:31258   */\n      swap1\n      pop\n        /* \"#utility.yul\":31096:31265   */\n      swap2\n      swap1\n      pop\n      jump\t// out\n        /* \"#utility.yul\":31271:31579   */\n    tag_617:\n        /* \"#utility.yul\":31333:31337   */\n      0x00\n        /* \"#utility.yul\":31423:31441   */\n      0xffffffffffffffff\n        /* \"#utility.yul\":31415:31421   */\n      dup3\n        /* \"#utility.yul\":31412:31442   */\n      gt\n        /* \"#utility.yul\":31409:31411   */\n      iszero\n      tag_943\n      jumpi\n        /* \"#utility.yul\":31445:31463   */\n      tag_944\n      tag_935\n      jump\t// in\n    tag_944:\n        /* \"#utility.yul\":31409:31411   */\n    tag_943:\n        /* \"#utility.yul\":31483:31512   */\n      tag_945\n        /* \"#utility.yul\":31505:31511   */\n      dup3\n        /* \"#utility.yul\":31483:31512   */\n      tag_753\n      jump\t// in\n    tag_945:\n        /* \"#utility.yul\":31475:31512   */\n      swap1\n      pop\n        /* \"#utility.yul\":31567:31571   */\n      0x20\n        /* \"#utility.yul\":31561:31565   */\n      dup2\n        /* \"#utility.yul\":31557:31572   */\n      add\n        /* \"#utility.yul\":31549:31572   */\n      swap1\n      pop\n        /* \"#utility.yul\":31338:31579   */\n      swap2\n      swap1\n      pop\n      jump\t// out\n        /* \"#utility.yul\":31585:31682   */\n    tag_710:\n        /* \"#utility.yul\":31649:31653   */\n      0x00\n        /* \"#utility.yul\":31672:31675   */\n      dup2\n        /* \"#utility.yul\":31664:31675   */\n      swap1\n      pop\n        /* \"#utility.yul\":31654:31682   */\n      swap2\n      swap1\n      pop\n      jump\t// out\n        /* \"#utility.yul\":31688:31796   */\n    tag_724:\n        /* \"#utility.yul\":31763:31767   */\n      0x00\n        /* \"#utility.yul\":31786:31789   */\n      dup2\n        /* \"#utility.yul\":31778:31789   */\n      swap1\n      pop\n        /* \"#utility.yul\":31768:31796   */\n      swap2\n      swap1\n      pop\n      jump\t// out\n        /* \"#utility.yul\":31802:31905   */\n    tag_706:\n        /* \"#utility.yul\":31866:31872   */\n      0x00\n        /* \"#utility.yul\":31894:31898   */\n      0x08\n        /* \"#utility.yul\":31884:31898   */\n      swap1\n      pop\n        /* \"#utility.yul\":31873:31905   */\n      swap2\n      swap1\n      pop\n      jump\t// out\n        /* \"#utility.yul\":31911:32025   */\n    tag_720:\n        /* \"#utility.yul\":31986:31992   */\n      0x00\n        /* \"#utility.yul\":32014:32018   */\n      0x08\n        /* \"#utility.yul\":32004:32018   */\n      swap1\n      pop\n        /* \"#utility.yul\":31993:32025   */\n      swap2\n      swap1\n      pop\n      jump\t// out\n        /* \"#utility.yul\":32031:32130   */\n    tag_747:\n        /* \"#utility.yul\":32083:32089   */\n      0x00\n        /* \"#utility.yul\":32117:32122   */\n      dup2\n        /* \"#utility.yul\":32111:32123   */\n      mload\n        /* \"#utility.yul\":32101:32123   */\n      swap1\n      pop\n        /* \"#utility.yul\":32090:32130   */\n      swap2\n      swap1\n      pop\n      jump\t// out\n        /* \"#utility.yul\":32136:32246   */\n    tag_716:\n        /* \"#utility.yul\":32203:32207   */\n      0x00\n        /* \"#utility.yul\":32235:32239   */\n      0x20\n        /* \"#utility.yul\":32230:32233   */\n      dup3\n        /* \"#utility.yul\":32226:32240   */\n      add\n        /* \"#utility.yul\":32218:32240   */\n      swap1\n      pop\n        /* \"#utility.yul\":32208:32246   */\n      swap2\n      swap1\n      pop\n      jump\t// out\n        /* \"#utility.yul\":32252:32373   */\n    tag_730:\n        /* \"#utility.yul\":32330:32334   */\n      0x00\n        /* \"#utility.yul\":32362:32366   */\n      0x20\n        /* \"#utility.yul\":32357:32360   */\n      dup3\n        /* \"#utility.yul\":32353:32367   */\n      add\n        /* \"#utility.yul\":32345:32367   */\n      swap1\n      pop\n        /* \"#utility.yul\":32335:32373   */\n      swap2\n      swap1\n      pop\n      jump\t// out\n        /* \"#utility.yul\":32379:32521   */\n    tag_708:\n        /* \"#utility.yul\":32475:32486   */\n      0x00\n        /* \"#utility.yul\":32512:32515   */\n      dup2\n        /* \"#utility.yul\":32497:32515   */\n      swap1\n      pop\n        /* \"#utility.yul\":32487:32521   */\n      swap3\n      swap2\n      pop\n      pop\n      jump\t// out\n        /* \"#utility.yul\":32527:32680   */\n    tag_722:\n        /* \"#utility.yul\":32634:32645   */\n      0x00\n        /* \"#utility.yul\":32671:32674   */\n      dup2\n        /* \"#utility.yul\":32656:32674   */\n      swap1\n      pop\n        /* \"#utility.yul\":32646:32680   */\n      swap3\n      swap2\n      pop\n      pop\n      jump\t// out\n        /* \"#utility.yul\":32686:32845   */\n    tag_749:\n        /* \"#utility.yul\":32760:32771   */\n      0x00\n        /* \"#utility.yul\":32794:32800   */\n      dup3\n        /* \"#utility.yul\":32789:32792   */\n      dup3\n        /* \"#utility.yul\":32782:32801   */\n      mstore\n        /* \"#utility.yul\":32834:32838   */\n      0x20\n        /* \"#utility.yul\":32829:32832   */\n      dup3\n        /* \"#utility.yul\":32825:32839   */\n      add\n        /* \"#utility.yul\":32810:32839   */\n      swap1\n      pop\n        /* \"#utility.yul\":32772:32845   */\n      swap3\n      swap2\n      pop\n      pop\n      jump\t// out\n        /* \"#utility.yul\":32851:33020   */\n    tag_758:\n        /* \"#utility.yul\":32935:32946   */\n      0x00\n        /* \"#utility.yul\":32969:32975   */\n      dup3\n        /* \"#utility.yul\":32964:32967   */\n      dup3\n        /* \"#utility.yul\":32957:32976   */\n      mstore\n        /* \"#utility.yul\":33009:33013   */\n      0x20\n        /* \"#utility.yul\":33004:33007   */\n      dup3\n        /* \"#utility.yul\":33000:33014   */\n      add\n        /* \"#utility.yul\":32985:33014   */\n      swap1\n      pop\n        /* \"#utility.yul\":32947:33020   */\n      swap3\n      swap2\n      pop\n      pop\n      jump\t// out\n        /* \"#utility.yul\":33026:33174   */\n    tag_765:\n        /* \"#utility.yul\":33128:33139   */\n      0x00\n        /* \"#utility.yul\":33165:33168   */\n      dup2\n        /* \"#utility.yul\":33150:33168   */\n      swap1\n      pop\n        /* \"#utility.yul\":33140:33174   */\n      swap3\n      swap2\n      pop\n      pop\n      jump\t// out\n        /* \"#utility.yul\":33180:33705   */\n    tag_225:\n        /* \"#utility.yul\":33219:33222   */\n      0x00\n        /* \"#utility.yul\":33238:33257   */\n      tag_959\n        /* \"#utility.yul\":33255:33256   */\n      dup3\n        /* \"#utility.yul\":33238:33257   */\n      tag_741\n      jump\t// in\n    tag_959:\n        /* \"#utility.yul\":33233:33257   */\n      swap2\n      pop\n        /* \"#utility.yul\":33271:33290   */\n      tag_960\n        /* \"#utility.yul\":33288:33289   */\n      dup4\n        /* \"#utility.yul\":33271:33290   */\n      tag_741\n      jump\t// in\n    tag_960:\n        /* \"#utility.yul\":33266:33290   */\n      swap3\n      pop\n        /* \"#utility.yul\":33459:33460   */\n      dup2\n        /* \"#utility.yul\":33391:33457   */\n      0x7fffffffffffffffffffffffffffffffffffffffffffffffffffffffffffffff\n        /* \"#utility.yul\":33387:33461   */\n      sub\n        /* \"#utility.yul\":33384:33385   */\n      dup4\n        /* \"#utility.yul\":33380:33462   */\n      sgt\n        /* \"#utility.yul\":33375:33376   */\n      0x00\n        /* \"#utility.yul\":33372:33373   */\n      dup4\n        /* \"#utility.yul\":33368:33377   */\n      slt\n        /* \"#utility.yul\":33361:33378   */\n      iszero\n        /* \"#utility.yul\":33357:33463   */\n      and\n        /* \"#utility.yul\":33354:33356   */\n      iszero\n      tag_961\n      jumpi\n        /* \"#utility.yul\":33466:33484   */\n      tag_962\n      tag_963\n      jump\t// in\n    tag_962:\n        /* \"#utility.yul\":33354:33356   */\n    tag_961:\n        /* \"#utility.yul\":33646:33647   */\n      dup2\n        /* \"#utility.yul\":33578:33644   */\n      0x8000000000000000000000000000000000000000000000000000000000000000\n        /* \"#utility.yul\":33574:33648   */\n      sub\n        /* \"#utility.yul\":33571:33572   */\n      dup4\n        /* \"#utility.yul\":33567:33649   */\n      slt\n        /* \"#utility.yul\":33563:33564   */\n      0x00\n        /* \"#utility.yul\":33560:33561   */\n      dup4\n        /* \"#utility.yul\":33556:33565   */\n      slt\n        /* \"#utility.yul\":33552:33650   */\n      and\n        /* \"#utility.yul\":33549:33551   */\n      iszero\n      tag_964\n      jumpi\n        /* \"#utility.yul\":33653:33671   */\n      tag_965\n      tag_963\n      jump\t// in\n    tag_965:\n        /* \"#utility.yul\":33549:33551   */\n    tag_964:\n        /* \"#utility.yul\":33697:33698   */\n      dup3\n        /* \"#utility.yul\":33694:33695   */\n      dup3\n        /* \"#utility.yul\":33690:33699   */\n      add\n        /* \"#utility.yul\":33683:33699   */\n      swap1\n      pop\n        /* \"#utility.yul\":33223:33705   */\n      swap3\n      swap2\n      pop\n      pop\n      jump\t// out\n        /* \"#utility.yul\":33711:34016   */\n    tag_330:\n        /* \"#utility.yul\":33751:33754   */\n      0x00\n        /* \"#utility.yul\":33770:33790   */\n      tag_967\n        /* \"#utility.yul\":33788:33789   */\n      dup3\n        /* \"#utility.yul\":33770:33790   */\n      tag_855\n      jump\t// in\n    tag_967:\n        /* \"#utility.yul\":33765:33790   */\n      swap2\n      pop\n        /* \"#utility.yul\":33804:33824   */\n      tag_968\n        /* \"#utility.yul\":33822:33823   */\n      dup4\n        /* \"#utility.yul\":33804:33824   */\n      tag_855\n      jump\t// in\n    tag_968:\n        /* \"#utility.yul\":33799:33824   */\n      swap3\n      pop\n        /* \"#utility.yul\":33958:33959   */\n      dup3\n        /* \"#utility.yul\":33890:33956   */\n      0xffffffffffffffffffffffffffffffffffffffffffffffffffffffffffffffff\n        /* \"#utility.yul\":33886:33960   */\n      sub\n        /* \"#utility.yul\":33883:33884   */\n      dup3\n        /* \"#utility.yul\":33880:33961   */\n      gt\n        /* \"#utility.yul\":33877:33879   */\n      iszero\n      tag_969\n      jumpi\n        /* \"#utility.yul\":33964:33982   */\n      tag_970\n      tag_963\n      jump\t// in\n    tag_970:\n        /* \"#utility.yul\":33877:33879   */\n    tag_969:\n        /* \"#utility.yul\":34008:34009   */\n      dup3\n        /* \"#utility.yul\":34005:34006   */\n      dup3\n        /* \"#utility.yul\":34001:34010   */\n      add\n        /* \"#utility.yul\":33994:34010   */\n      swap1\n      pop\n        /* \"#utility.yul\":33755:34016   */\n      swap3\n      swap2\n      pop\n      pop\n      jump\t// out\n        /* \"#utility.yul\":34022:34407   */\n    tag_357:\n        /* \"#utility.yul\":34061:34062   */\n      0x00\n        /* \"#utility.yul\":34078:34097   */\n      tag_972\n        /* \"#utility.yul\":34095:34096   */\n      dup3\n        /* \"#utility.yul\":34078:34097   */\n      tag_741\n      jump\t// in\n    tag_972:\n        /* \"#utility.yul\":34073:34097   */\n      swap2\n      pop\n        /* \"#utility.yul\":34111:34130   */\n      tag_973\n        /* \"#utility.yul\":34128:34129   */\n      dup4\n        /* \"#utility.yul\":34111:34130   */\n      tag_741\n      jump\t// in\n    tag_973:\n        /* \"#utility.yul\":34106:34130   */\n      swap3\n      pop\n        /* \"#utility.yul\":34149:34150   */\n      dup3\n        /* \"#utility.yul\":34139:34141   */\n      tag_974\n      jumpi\n        /* \"#utility.yul\":34154:34172   */\n      tag_975\n      tag_976\n      jump\t// in\n    tag_975:\n        /* \"#utility.yul\":34139:34141   */\n    tag_974:\n        /* \"#utility.yul\":34340:34341   */\n      0x01\n        /* \"#utility.yul\":34337:34338   */\n      0x00\n        /* \"#utility.yul\":34333:34342   */\n      sub\n        /* \"#utility.yul\":34330:34331   */\n      dup4\n        /* \"#utility.yul\":34327:34343   */\n      eq\n        /* \"#utility.yul\":34246:34312   */\n      0x8000000000000000000000000000000000000000000000000000000000000000\n        /* \"#utility.yul\":34243:34244   */\n      dup4\n        /* \"#utility.yul\":34240:34313   */\n      eq\n        /* \"#utility.yul\":34223:34353   */\n      and\n        /* \"#utility.yul\":34220:34222   */\n      iszero\n      tag_977\n      jumpi\n        /* \"#utility.yul\":34356:34374   */\n      tag_978\n      tag_963\n      jump\t// in\n    tag_978:\n        /* \"#utility.yul\":34220:34222   */\n    tag_977:\n        /* \"#utility.yul\":34399:34400   */\n      dup3\n        /* \"#utility.yul\":34396:34397   */\n      dup3\n        /* \"#utility.yul\":34391:34401   */\n      sdiv\n        /* \"#utility.yul\":34386:34401   */\n      swap1\n      pop\n        /* \"#utility.yul\":34063:34407   */\n      swap3\n      swap2\n      pop\n      pop\n      jump\t// out\n        /* \"#utility.yul\":34413:34761   */\n    tag_496:\n        /* \"#utility.yul\":34453:34460   */\n      0x00\n        /* \"#utility.yul\":34476:34496   */\n      tag_980\n        /* \"#utility.yul\":34494:34495   */\n      dup3\n        /* \"#utility.yul\":34476:34496   */\n      tag_855\n      jump\t// in\n    tag_980:\n        /* \"#utility.yul\":34471:34496   */\n      swap2\n      pop\n        /* \"#utility.yul\":34510:34530   */\n      tag_981\n        /* \"#utility.yul\":34528:34529   */\n      dup4\n        /* \"#utility.yul\":34510:34530   */\n      tag_855\n      jump\t// in\n    tag_981:\n        /* \"#utility.yul\":34505:34530   */\n      swap3\n      pop\n        /* \"#utility.yul\":34698:34699   */\n      dup2\n        /* \"#utility.yul\":34630:34696   */\n      0xffffffffffffffffffffffffffffffffffffffffffffffffffffffffffffffff\n        /* \"#utility.yul\":34626:34700   */\n      div\n        /* \"#utility.yul\":34623:34624   */\n      dup4\n        /* \"#utility.yul\":34620:34701   */\n      gt\n        /* \"#utility.yul\":34615:34616   */\n      dup3\n        /* \"#utility.yul\":34608:34617   */\n      iszero\n        /* \"#utility.yul\":34601:34618   */\n      iszero\n        /* \"#utility.yul\":34597:34702   */\n      and\n        /* \"#utility.yul\":34594:34596   */\n      iszero\n      tag_982\n      jumpi\n        /* \"#utility.yul\":34705:34723   */\n      tag_983\n      tag_963\n      jump\t// in\n    tag_983:\n        /* \"#utility.yul\":34594:34596   */\n    tag_982:\n        /* \"#utility.yul\":34753:34754   */\n      dup3\n        /* \"#utility.yul\":34750:34751   */\n      dup3\n        /* \"#utility.yul\":34746:34755   */\n      mul\n        /* \"#utility.yul\":34735:34755   */\n      swap1\n      pop\n        /* \"#utility.yul\":34461:34761   */\n      swap3\n      swap2\n      pop\n      pop\n      jump\t// out\n        /* \"#utility.yul\":34767:34863   */\n    tag_702:\n        /* \"#utility.yul\":34804:34811   */\n      0x00\n        /* \"#utility.yul\":34833:34857   */\n      tag_985\n        /* \"#utility.yul\":34851:34856   */\n      dup3\n        /* \"#utility.yul\":34833:34857   */\n      tag_986\n      jump\t// in\n    tag_985:\n        /* \"#utility.yul\":34822:34857   */\n      swap1\n      pop\n        /* \"#utility.yul\":34812:34863   */\n      swap2\n      swap1\n      pop\n      jump\t// out\n        /* \"#utility.yul\":34869:34973   */\n    tag_698:\n        /* \"#utility.yul\":34914:34921   */\n      0x00\n        /* \"#utility.yul\":34943:34967   */\n      tag_988\n        /* \"#utility.yul\":34961:34966   */\n      dup3\n        /* \"#utility.yul\":34943:34967   */\n      tag_986\n      jump\t// in\n    tag_988:\n        /* \"#utility.yul\":34932:34967   */\n      swap1\n      pop\n        /* \"#utility.yul\":34922:34973   */\n      swap2\n      swap1\n      pop\n      jump\t// out\n        /* \"#utility.yul\":34979:35069   */\n    tag_734:\n        /* \"#utility.yul\":35013:35020   */\n      0x00\n        /* \"#utility.yul\":35056:35061   */\n      dup2\n        /* \"#utility.yul\":35049:35062   */\n      iszero\n        /* \"#utility.yul\":35042:35063   */\n      iszero\n        /* \"#utility.yul\":35031:35063   */\n      swap1\n      pop\n        /* \"#utility.yul\":35021:35069   */\n      swap2\n      swap1\n      pop\n      jump\t// out\n        /* \"#utility.yul\":35075:35204   */\n    tag_990:\n        /* \"#utility.yul\":35121:35128   */\n      0x00\n        /* \"#utility.yul\":35150:35155   */\n      dup2\n        /* \"#utility.yul\":35139:35155   */\n      swap1\n      pop\n        /* \"#utility.yul\":35156:35198   */\n      tag_992\n        /* \"#utility.yul\":35192:35197   */\n      dup3\n        /* \"#utility.yul\":35156:35198   */\n      tag_993\n      jump\t// in\n    tag_992:\n        /* \"#utility.yul\":35129:35204   */\n      swap2\n      swap1\n      pop\n      jump\t// out\n        /* \"#utility.yul\":35210:35286   */\n    tag_741:\n        /* \"#utility.yul\":35246:35253   */\n      0x00\n        /* \"#utility.yul\":35275:35280   */\n      dup2\n        /* \"#utility.yul\":35264:35280   */\n      swap1\n      pop\n        /* \"#utility.yul\":35254:35286   */\n      swap2\n      swap1\n      pop\n      jump\t// out\n        /* \"#utility.yul\":35292:35418   */\n    tag_986:\n        /* \"#utility.yul\":35329:35336   */\n      0x00\n        /* \"#utility.yul\":35369:35411   */\n      0xffffffffffffffffffffffffffffffffffffffff\n        /* \"#utility.yul\":35362:35367   */\n      dup3\n        /* \"#utility.yul\":35358:35412   */\n      and\n        /* \"#utility.yul\":35347:35412   */\n      swap1\n      pop\n        /* \"#utility.yul\":35337:35418   */\n      swap2\n      swap1\n      pop\n      jump\t// out\n        /* \"#utility.yul\":35424:35501   */\n    tag_855:\n        /* \"#utility.yul\":35461:35468   */\n      0x00\n        /* \"#utility.yul\":35490:35495   */\n      dup2\n        /* \"#utility.yul\":35479:35495   */\n      swap1\n      pop\n        /* \"#utility.yul\":35469:35501   */\n      swap2\n      swap1\n      pop\n      jump\t// out\n        /* \"#utility.yul\":35507:35636   */\n    tag_738:\n        /* \"#utility.yul\":35564:35573   */\n      0x00\n        /* \"#utility.yul\":35597:35630   */\n      tag_998\n        /* \"#utility.yul\":35624:35629   */\n      dup3\n        /* \"#utility.yul\":35597:35630   */\n      tag_990\n      jump\t// in\n    tag_998:\n        /* \"#utility.yul\":35584:35630   */\n      swap1\n      pop\n        /* \"#utility.yul\":35574:35636   */\n      swap2\n      swap1\n      pop\n      jump\t// out\n        /* \"#utility.yul\":35642:35796   */\n    tag_622:\n        /* \"#utility.yul\":35726:35732   */\n      dup3\n        /* \"#utility.yul\":35721:35724   */\n      dup2\n        /* \"#utility.yul\":35716:35719   */\n      dup4\n        /* \"#utility.yul\":35703:35733   */\n      calldatacopy\n        /* \"#utility.yul\":35788:35789   */\n      0x00\n        /* \"#utility.yul\":35779:35785   */\n      dup4\n        /* \"#utility.yul\":35774:35777   */\n      dup4\n        /* \"#utility.yul\":35770:35786   */\n      add\n        /* \"#utility.yul\":35763:35790   */\n      mstore\n        /* \"#utility.yul\":35693:35796   */\n      pop\n      pop\n      pop\n      jump\t// out\n        /* \"#utility.yul\":35802:36109   */\n    tag_751:\n        /* \"#utility.yul\":35870:35871   */\n      0x00\n        /* \"#utility.yul\":35880:35993   */\n    tag_1001:\n        /* \"#utility.yul\":35894:35900   */\n      dup4\n        /* \"#utility.yul\":35891:35892   */\n      dup2\n        /* \"#utility.yul\":35888:35901   */\n      lt\n        /* \"#utility.yul\":35880:35993   */\n      iszero\n      tag_1003\n      jumpi\n        /* \"#utility.yul\":35979:35980   */\n      dup1\n        /* \"#utility.yul\":35974:35977   */\n      dup3\n        /* \"#utility.yul\":35970:35981   */\n      add\n        /* \"#utility.yul\":35964:35982   */\n      mload\n        /* \"#utility.yul\":35960:35961   */\n      dup2\n        /* \"#utility.yul\":35955:35958   */\n      dup5\n        /* \"#utility.yul\":35951:35962   */\n      add\n        /* \"#utility.yul\":35944:35983   */\n      mstore\n        /* \"#utility.yul\":35916:35918   */\n      0x20\n        /* \"#utility.yul\":35913:35914   */\n      dup2\n        /* \"#utility.yul\":35909:35919   */\n      add\n        /* \"#utility.yul\":35904:35919   */\n      swap1\n      pop\n        /* \"#utility.yul\":35880:35993   */\n      jump(tag_1001)\n    tag_1003:\n        /* \"#utility.yul\":36011:36017   */\n      dup4\n        /* \"#utility.yul\":36008:36009   */\n      dup2\n        /* \"#utility.yul\":36005:36018   */\n      gt\n        /* \"#utility.yul\":36002:36004   */\n      iszero\n      tag_1004\n      jumpi\n        /* \"#utility.yul\":36091:36092   */\n      0x00\n        /* \"#utility.yul\":36082:36088   */\n      dup5\n        /* \"#utility.yul\":36077:36080   */\n      dup5\n        /* \"#utility.yul\":36073:36089   */\n      add\n        /* \"#utility.yul\":36066:36093   */\n      mstore\n        /* \"#utility.yul\":36002:36004   */\n    tag_1004:\n        /* \"#utility.yul\":35851:36109   */\n      pop\n      pop\n      pop\n      pop\n      jump\t// out\n        /* \"#utility.yul\":36115:36435   */\n    tag_234:\n        /* \"#utility.yul\":36159:36165   */\n      0x00\n        /* \"#utility.yul\":36196:36197   */\n      0x02\n        /* \"#utility.yul\":36190:36194   */\n      dup3\n        /* \"#utility.yul\":36186:36198   */\n      div\n        /* \"#utility.yul\":36176:36198   */\n      swap1\n      pop\n        /* \"#utility.yul\":36243:36244   */\n      0x01\n        /* \"#utility.yul\":36237:36241   */\n      dup3\n        /* \"#utility.yul\":36233:36245   */\n      and\n        /* \"#utility.yul\":36264:36282   */\n      dup1\n        /* \"#utility.yul\":36254:36256   */\n      tag_1006\n      jumpi\n        /* \"#utility.yul\":36320:36324   */\n      0x7f\n        /* \"#utility.yul\":36312:36318   */\n      dup3\n        /* \"#utility.yul\":36308:36325   */\n      and\n        /* \"#utility.yul\":36298:36325   */\n      swap2\n      pop\n        /* \"#utility.yul\":36254:36256   */\n    tag_1006:\n        /* \"#utility.yul\":36382:36384   */\n      0x20\n        /* \"#utility.yul\":36374:36380   */\n      dup3\n        /* \"#utility.yul\":36371:36385   */\n      lt\n        /* \"#utility.yul\":36351:36369   */\n      dup2\n        /* \"#utility.yul\":36348:36386   */\n      eq\n        /* \"#utility.yul\":36345:36347   */\n      iszero\n      tag_1007\n      jumpi\n        /* \"#utility.yul\":36401:36419   */\n      tag_1008\n      tag_1009\n      jump\t// in\n    tag_1008:\n        /* \"#utility.yul\":36345:36347   */\n    tag_1007:\n        /* \"#utility.yul\":36166:36435   */\n      pop\n      swap2\n      swap1\n      pop\n      jump\t// out\n        /* \"#utility.yul\":36441:36722   */\n    tag_930:\n        /* \"#utility.yul\":36524:36551   */\n      tag_1011\n        /* \"#utility.yul\":36546:36550   */\n      dup3\n        /* \"#utility.yul\":36524:36551   */\n      tag_753\n      jump\t// in\n    tag_1011:\n        /* \"#utility.yul\":36516:36522   */\n      dup2\n        /* \"#utility.yul\":36512:36552   */\n      add\n        /* \"#utility.yul\":36654:36660   */\n      dup2\n        /* \"#utility.yul\":36642:36652   */\n      dup2\n        /* \"#utility.yul\":36639:36661   */\n      lt\n        /* \"#utility.yul\":36618:36636   */\n      0xffffffffffffffff\n        /* \"#utility.yul\":36606:36616   */\n      dup3\n        /* \"#utility.yul\":36603:36637   */\n      gt\n        /* \"#utility.yul\":36600:36662   */\n      or\n        /* \"#utility.yul\":36597:36599   */\n      iszero\n      tag_1012\n      jumpi\n        /* \"#utility.yul\":36665:36683   */\n      tag_1013\n      tag_935\n      jump\t// in\n    tag_1013:\n        /* \"#utility.yul\":36597:36599   */\n    tag_1012:\n        /* \"#utility.yul\":36705:36715   */\n      dup1\n        /* \"#utility.yul\":36701:36703   */\n      0x40\n        /* \"#utility.yul\":36694:36716   */\n      mstore\n        /* \"#utility.yul\":36484:36722   */\n      pop\n      pop\n      pop\n      jump\t// out\n        /* \"#utility.yul\":36728:36959   */\n    tag_229:\n        /* \"#utility.yul\":36766:36769   */\n      0x00\n        /* \"#utility.yul\":36789:36812   */\n      tag_1015\n        /* \"#utility.yul\":36806:36811   */\n      dup3\n        /* \"#utility.yul\":36789:36812   */\n      tag_741\n      jump\t// in\n    tag_1015:\n        /* \"#utility.yul\":36780:36812   */\n      swap2\n      pop\n        /* \"#utility.yul\":36834:36900   */\n      0x7fffffffffffffffffffffffffffffffffffffffffffffffffffffffffffffff\n        /* \"#utility.yul\":36827:36832   */\n      dup3\n        /* \"#utility.yul\":36824:36901   */\n      eq\n        /* \"#utility.yul\":36821:36823   */\n      iszero\n      tag_1016\n      jumpi\n        /* \"#utility.yul\":36904:36922   */\n      tag_1017\n      tag_963\n      jump\t// in\n    tag_1017:\n        /* \"#utility.yul\":36821:36823   */\n    tag_1016:\n        /* \"#utility.yul\":36951:36952   */\n      0x01\n        /* \"#utility.yul\":36944:36949   */\n      dup3\n        /* \"#utility.yul\":36940:36953   */\n      add\n        /* \"#utility.yul\":36933:36953   */\n      swap1\n      pop\n        /* \"#utility.yul\":36770:36959   */\n      swap2\n      swap1\n      pop\n      jump\t// out\n        /* \"#utility.yul\":36965:37198   */\n    tag_227:\n        /* \"#utility.yul\":37004:37007   */\n      0x00\n        /* \"#utility.yul\":37027:37051   */\n      tag_1019\n        /* \"#utility.yul\":37045:37050   */\n      dup3\n        /* \"#utility.yul\":37027:37051   */\n      tag_855\n      jump\t// in\n    tag_1019:\n        /* \"#utility.yul\":37018:37051   */\n      swap2\n      pop\n        /* \"#utility.yul\":37073:37139   */\n      0xffffffffffffffffffffffffffffffffffffffffffffffffffffffffffffffff\n        /* \"#utility.yul\":37066:37071   */\n      dup3\n        /* \"#utility.yul\":37063:37140   */\n      eq\n        /* \"#utility.yul\":37060:37062   */\n      iszero\n      tag_1020\n      jumpi\n        /* \"#utility.yul\":37143:37161   */\n      tag_1021\n      tag_963\n      jump\t// in\n    tag_1021:\n        /* \"#utility.yul\":37060:37062   */\n    tag_1020:\n        /* \"#utility.yul\":37190:37191   */\n      0x01\n        /* \"#utility.yul\":37183:37188   */\n      dup3\n        /* \"#utility.yul\":37179:37192   */\n      add\n        /* \"#utility.yul\":37172:37192   */\n      swap1\n      pop\n        /* \"#utility.yul\":37008:37198   */\n      swap2\n      swap1\n      pop\n      jump\t// out\n        /* \"#utility.yul\":37204:37384   */\n    tag_963:\n        /* \"#utility.yul\":37252:37329   */\n      0x4e487b7100000000000000000000000000000000000000000000000000000000\n        /* \"#utility.yul\":37249:37250   */\n      0x00\n        /* \"#utility.yul\":37242:37330   */\n      mstore\n        /* \"#utility.yul\":37349:37353   */\n      0x11\n        /* \"#utility.yul\":37346:37347   */\n      0x04\n        /* \"#utility.yul\":37339:37354   */\n      mstore\n        /* \"#utility.yul\":37373:37377   */\n      0x24\n        /* \"#utility.yul\":37370:37371   */\n      0x00\n        /* \"#utility.yul\":37363:37378   */\n      revert\n        /* \"#utility.yul\":37390:37570   */\n    tag_976:\n        /* \"#utility.yul\":37438:37515   */\n      0x4e487b7100000000000000000000000000000000000000000000000000000000\n        /* \"#utility.yul\":37435:37436   */\n      0x00\n        /* \"#utility.yul\":37428:37516   */\n      mstore\n        /* \"#utility.yul\":37535:37539   */\n      0x12\n        /* \"#utility.yul\":37532:37533   */\n      0x04\n        /* \"#utility.yul\":37525:37540   */\n      mstore\n        /* \"#utility.yul\":37559:37563   */\n      0x24\n        /* \"#utility.yul\":37556:37557   */\n      0x00\n        /* \"#utility.yul\":37549:37564   */\n      revert\n        /* \"#utility.yul\":37576:37756   */\n    tag_176:\n        /* \"#utility.yul\":37624:37701   */\n      0x4e487b7100000000000000000000000000000000000000000000000000000000\n        /* \"#utility.yul\":37621:37622   */\n      0x00\n        /* \"#utility.yul\":37614:37702   */\n      mstore\n        /* \"#utility.yul\":37721:37725   */\n      0x21\n        /* \"#utility.yul\":37718:37719   */\n      0x04\n        /* \"#utility.yul\":37711:37726   */\n      mstore\n        /* \"#utility.yul\":37745:37749   */\n      0x24\n        /* \"#utility.yul\":37742:37743   */\n      0x00\n        /* \"#utility.yul\":37735:37750   */\n      revert\n        /* \"#utility.yul\":37762:37942   */\n    tag_1009:\n        /* \"#utility.yul\":37810:37887   */\n      0x4e487b7100000000000000000000000000000000000000000000000000000000\n        /* \"#utility.yul\":37807:37808   */\n      0x00\n        /* \"#utility.yul\":37800:37888   */\n      mstore\n        /* \"#utility.yul\":37907:37911   */\n      0x22\n        /* \"#utility.yul\":37904:37905   */\n      0x04\n        /* \"#utility.yul\":37897:37912   */\n      mstore\n        /* \"#utility.yul\":37931:37935   */\n      0x24\n        /* \"#utility.yul\":37928:37929   */\n      0x00\n        /* \"#utility.yul\":37921:37936   */\n      revert\n        /* \"#utility.yul\":37948:38128   */\n    tag_223:\n        /* \"#utility.yul\":37996:38073   */\n      0x4e487b7100000000000000000000000000000000000000000000000000000000\n        /* \"#utility.yul\":37993:37994   */\n      0x00\n        /* \"#utility.yul\":37986:38074   */\n      mstore\n        /* \"#utility.yul\":38093:38097   */\n      0x32\n        /* \"#utility.yul\":38090:38091   */\n      0x04\n        /* \"#utility.yul\":38083:38098   */\n      mstore\n        /* \"#utility.yul\":38117:38121   */\n      0x24\n        /* \"#utility.yul\":38114:38115   */\n      0x00\n        /* \"#utility.yul\":38107:38122   */\n      revert\n        /* \"#utility.yul\":38134:38314   */\n    tag_935:\n        /* \"#utility.yul\":38182:38259   */\n      0x4e487b7100000000000000000000000000000000000000000000000000000000\n        /* \"#utility.yul\":38179:38180   */\n      0x00\n        /* \"#utility.yul\":38172:38260   */\n      mstore\n        /* \"#utility.yul\":38279:38283   */\n      0x41\n        /* \"#utility.yul\":38276:38277   */\n      0x04\n        /* \"#utility.yul\":38269:38284   */\n      mstore\n        /* \"#utility.yul\":38303:38307   */\n      0x24\n        /* \"#utility.yul\":38300:38301   */\n      0x00\n        /* \"#utility.yul\":38293:38308   */\n      revert\n        /* \"#utility.yul\":38320:38437   */\n    tag_610:\n        /* \"#utility.yul\":38429:38430   */\n      0x00\n        /* \"#utility.yul\":38426:38427   */\n      dup1\n        /* \"#utility.yul\":38419:38431   */\n      revert\n        /* \"#utility.yul\":38443:38560   */\n    tag_581:\n        /* \"#utility.yul\":38552:38553   */\n      0x00\n        /* \"#utility.yul\":38549:38550   */\n      dup1\n        /* \"#utility.yul\":38542:38554   */\n      revert\n        /* \"#utility.yul\":38566:38683   */\n    tag_620:\n        /* \"#utility.yul\":38675:38676   */\n      0x00\n        /* \"#utility.yul\":38672:38673   */\n      dup1\n        /* \"#utility.yul\":38665:38677   */\n      revert\n        /* \"#utility.yul\":38689:38806   */\n    tag_671:\n        /* \"#utility.yul\":38798:38799   */\n      0x00\n        /* \"#utility.yul\":38795:38796   */\n      dup1\n        /* \"#utility.yul\":38788:38800   */\n      revert\n        /* \"#utility.yul\":38812:38929   */\n    tag_656:\n        /* \"#utility.yul\":38921:38922   */\n      0x00\n        /* \"#utility.yul\":38918:38919   */\n      dup1\n        /* \"#utility.yul\":38911:38923   */\n      revert\n        /* \"#utility.yul\":38935:39037   */\n    tag_753:\n        /* \"#utility.yul\":38976:38982   */\n      0x00\n        /* \"#utility.yul\":39027:39029   */\n      0x1f\n        /* \"#utility.yul\":39023:39030   */\n      not\n        /* \"#utility.yul\":39018:39020   */\n      0x1f\n        /* \"#utility.yul\":39011:39016   */\n      dup4\n        /* \"#utility.yul\":39007:39021   */\n      add\n        /* \"#utility.yul\":39003:39031   */\n      and\n        /* \"#utility.yul\":38993:39031   */\n      swap1\n      pop\n        /* \"#utility.yul\":38983:39037   */\n      swap2\n      swap1\n      pop\n      jump\t// out\n        /* \"#utility.yul\":39043:39195   */\n    tag_771:\n        /* \"#utility.yul\":39183:39187   */\n      0x3e3d000000000000000000000000000000000000000000000000000000000000\n        /* \"#utility.yul\":39179:39180   */\n      0x00\n        /* \"#utility.yul\":39171:39177   */\n      dup3\n        /* \"#utility.yul\":39167:39181   */\n      add\n        /* \"#utility.yul\":39160:39188   */\n      mstore\n        /* \"#utility.yul\":39149:39195   */\n      pop\n      jump\t// out\n        /* \"#utility.yul\":39201:39492   */\n    tag_776:\n        /* \"#utility.yul\":39341:39375   */\n      0x696e7369646520736574436f6e64732069662073746174656d656e742c206166\n        /* \"#utility.yul\":39337:39338   */\n      0x00\n        /* \"#utility.yul\":39329:39335   */\n      dup3\n        /* \"#utility.yul\":39325:39339   */\n      add\n        /* \"#utility.yul\":39318:39376   */\n      mstore\n        /* \"#utility.yul\":39410:39444   */\n      0x74657220656e64496e697453746167652c2063757272656e7420737461676520\n        /* \"#utility.yul\":39405:39407   */\n      0x20\n        /* \"#utility.yul\":39397:39403   */\n      dup3\n        /* \"#utility.yul\":39393:39408   */\n      add\n        /* \"#utility.yul\":39386:39445   */\n      mstore\n        /* \"#utility.yul\":39479:39484   */\n      0x69733a0000000000000000000000000000000000000000000000000000000000\n        /* \"#utility.yul\":39474:39476   */\n      0x40\n        /* \"#utility.yul\":39466:39472   */\n      dup3\n        /* \"#utility.yul\":39462:39477   */\n      add\n        /* \"#utility.yul\":39455:39485   */\n      mstore\n        /* \"#utility.yul\":39307:39492   */\n      pop\n      jump\t// out\n        /* \"#utility.yul\":39498:39739   */\n    tag_781:\n        /* \"#utility.yul\":39638:39672   */\n      0x43616e6e6f742063616c6c20746869732066756e6374696f6e20646972656374\n        /* \"#utility.yul\":39634:39635   */\n      0x00\n        /* \"#utility.yul\":39626:39632   */\n      dup3\n        /* \"#utility.yul\":39622:39636   */\n      add\n        /* \"#utility.yul\":39615:39673   */\n      mstore\n        /* \"#utility.yul\":39707:39731   */\n      0x6c792c207573652056656e646f72466163746f72792e00000000000000000000\n        /* \"#utility.yul\":39702:39704   */\n      0x20\n        /* \"#utility.yul\":39694:39700   */\n      dup3\n        /* \"#utility.yul\":39690:39705   */\n      add\n        /* \"#utility.yul\":39683:39732   */\n      mstore\n        /* \"#utility.yul\":39604:39739   */\n      pop\n      jump\t// out\n        /* \"#utility.yul\":39745:39979   */\n    tag_786:\n        /* \"#utility.yul\":39885:39919   */\n      0x696e7369646520736574436f6e64732069662073746174656d656e742c206375\n        /* \"#utility.yul\":39881:39882   */\n      0x00\n        /* \"#utility.yul\":39873:39879   */\n      dup3\n        /* \"#utility.yul\":39869:39883   */\n      add\n        /* \"#utility.yul\":39862:39920   */\n      mstore\n        /* \"#utility.yul\":39954:39971   */\n      0x7272656e742073746167652069733a0000000000000000000000000000000000\n        /* \"#utility.yul\":39949:39951   */\n      0x20\n        /* \"#utility.yul\":39941:39947   */\n      dup3\n        /* \"#utility.yul\":39937:39952   */\n      add\n        /* \"#utility.yul\":39930:39972   */\n      mstore\n        /* \"#utility.yul\":39851:39979   */\n      pop\n      jump\t// out\n        /* \"#utility.yul\":39985:40153   */\n    tag_791:\n        /* \"#utility.yul\":40125:40145   */\n      0x526566756e64696e67207061796d656e742e0000000000000000000000000000\n        /* \"#utility.yul\":40121:40122   */\n      0x00\n        /* \"#utility.yul\":40113:40119   */\n      dup3\n        /* \"#utility.yul\":40109:40123   */\n      add\n        /* \"#utility.yul\":40102:40146   */\n      mstore\n        /* \"#utility.yul\":40091:40153   */\n      pop\n      jump\t// out\n        /* \"#utility.yul\":40159:40325   */\n    tag_796:\n        /* \"#utility.yul\":40299:40317   */\n      0x53656e64696e67207061796d656e742e00000000000000000000000000000000\n        /* \"#utility.yul\":40295:40296   */\n      0x00\n        /* \"#utility.yul\":40287:40293   */\n      dup3\n        /* \"#utility.yul\":40283:40297   */\n      add\n        /* \"#utility.yul\":40276:40318   */\n      mstore\n        /* \"#utility.yul\":40265:40325   */\n      pop\n      jump\t// out\n        /* \"#utility.yul\":40331:40552   */\n    tag_801:\n        /* \"#utility.yul\":40471:40505   */\n      0x696e7369646520736574436f6e64732c2063757272656e742073746167652069\n        /* \"#utility.yul\":40467:40468   */\n      0x00\n        /* \"#utility.yul\":40459:40465   */\n      dup3\n        /* \"#utility.yul\":40455:40469   */\n      add\n        /* \"#utility.yul\":40448:40506   */\n      mstore\n        /* \"#utility.yul\":40540:40544   */\n      0x733a000000000000000000000000000000000000000000000000000000000000\n        /* \"#utility.yul\":40535:40537   */\n      0x20\n        /* \"#utility.yul\":40527:40533   */\n      dup3\n        /* \"#utility.yul\":40523:40538   */\n      add\n        /* \"#utility.yul\":40516:40545   */\n      mstore\n        /* \"#utility.yul\":40437:40552   */\n      pop\n      jump\t// out\n        /* \"#utility.yul\":40558:40710   */\n    tag_806:\n        /* \"#utility.yul\":40698:40702   */\n      0x3d3d000000000000000000000000000000000000000000000000000000000000\n        /* \"#utility.yul\":40694:40695   */\n      0x00\n        /* \"#utility.yul\":40686:40692   */\n      dup3\n        /* \"#utility.yul\":40682:40696   */\n      add\n        /* \"#utility.yul\":40675:40703   */\n      mstore\n        /* \"#utility.yul\":40664:40710   */\n      pop\n      jump\t// out\n        /* \"#utility.yul\":40716:40941   */\n    tag_811:\n        /* \"#utility.yul\":40856:40890   */\n      0x696e7369646520656e64496e697453746167652c2063757272656e7420737461\n        /* \"#utility.yul\":40852:40853   */\n      0x00\n        /* \"#utility.yul\":40844:40850   */\n      dup3\n        /* \"#utility.yul\":40840:40854   */\n      add\n        /* \"#utility.yul\":40833:40891   */\n      mstore\n        /* \"#utility.yul\":40925:40933   */\n      0x67652069733a0000000000000000000000000000000000000000000000000000\n        /* \"#utility.yul\":40920:40922   */\n      0x20\n        /* \"#utility.yul\":40912:40918   */\n      dup3\n        /* \"#utility.yul\":40908:40923   */\n      add\n        /* \"#utility.yul\":40901:40934   */\n      mstore\n        /* \"#utility.yul\":40822:40941   */\n      pop\n      jump\t// out\n        /* \"#utility.yul\":40947:41098   */\n    tag_816:\n        /* \"#utility.yul\":41087:41090   */\n      0x3c00000000000000000000000000000000000000000000000000000000000000\n        /* \"#utility.yul\":41083:41084   */\n      0x00\n        /* \"#utility.yul\":41075:41081   */\n      dup3\n        /* \"#utility.yul\":41071:41085   */\n      add\n        /* \"#utility.yul\":41064:41091   */\n      mstore\n        /* \"#utility.yul\":41053:41098   */\n      pop\n      jump\t// out\n        /* \"#utility.yul\":41104:41256   */\n    tag_821:\n        /* \"#utility.yul\":41244:41248   */\n      0x213d000000000000000000000000000000000000000000000000000000000000\n        /* \"#utility.yul\":41240:41241   */\n      0x00\n        /* \"#utility.yul\":41232:41238   */\n      dup3\n        /* \"#utility.yul\":41228:41242   */\n      add\n        /* \"#utility.yul\":41221:41249   */\n      mstore\n        /* \"#utility.yul\":41210:41256   */\n      pop\n      jump\t// out\n        /* \"#utility.yul\":41262:41482   */\n    tag_826:\n        /* \"#utility.yul\":41402:41436   */\n      0x696e7369646520617453746167652c2063757272656e74207374616765206973\n        /* \"#utility.yul\":41398:41399   */\n      0x00\n        /* \"#utility.yul\":41390:41396   */\n      dup3\n        /* \"#utility.yul\":41386:41400   */\n      add\n        /* \"#utility.yul\":41379:41437   */\n      mstore\n        /* \"#utility.yul\":41471:41474   */\n      0x3a00000000000000000000000000000000000000000000000000000000000000\n        /* \"#utility.yul\":41466:41468   */\n      0x20\n        /* \"#utility.yul\":41458:41464   */\n      dup3\n        /* \"#utility.yul\":41454:41469   */\n      add\n        /* \"#utility.yul\":41447:41475   */\n      mstore\n        /* \"#utility.yul\":41368:41482   */\n      pop\n      jump\t// out\n        /* \"#utility.yul\":41488:41721   */\n    tag_831:\n        /* \"#utility.yul\":41628:41662   */\n      0x7374696c6c20696e7369646520617453746167652c20747279696e6720746f20\n        /* \"#utility.yul\":41624:41625   */\n      0x00\n        /* \"#utility.yul\":41616:41622   */\n      dup3\n        /* \"#utility.yul\":41612:41626   */\n      add\n        /* \"#utility.yul\":41605:41663   */\n      mstore\n        /* \"#utility.yul\":41697:41713   */\n      0x636f6d7061726520697420746f3a000000000000000000000000000000000000\n        /* \"#utility.yul\":41692:41694   */\n      0x20\n        /* \"#utility.yul\":41684:41690   */\n      dup3\n        /* \"#utility.yul\":41680:41695   */\n      add\n        /* \"#utility.yul\":41673:41714   */\n      mstore\n        /* \"#utility.yul\":41594:41721   */\n      pop\n      jump\t// out\n        /* \"#utility.yul\":41727:41879   */\n    tag_836:\n        /* \"#utility.yul\":41867:41871   */\n      0x3c3d000000000000000000000000000000000000000000000000000000000000\n        /* \"#utility.yul\":41863:41864   */\n      0x00\n        /* \"#utility.yul\":41855:41861   */\n      dup3\n        /* \"#utility.yul\":41851:41865   */\n      add\n        /* \"#utility.yul\":41844:41872   */\n      mstore\n        /* \"#utility.yul\":41833:41879   */\n      pop\n      jump\t// out\n        /* \"#utility.yul\":41885:42036   */\n    tag_841:\n        /* \"#utility.yul\":42025:42028   */\n      0x3e00000000000000000000000000000000000000000000000000000000000000\n        /* \"#utility.yul\":42021:42022   */\n      0x00\n        /* \"#utility.yul\":42013:42019   */\n      dup3\n        /* \"#utility.yul\":42009:42023   */\n      add\n        /* \"#utility.yul\":42002:42029   */\n      mstore\n        /* \"#utility.yul\":41991:42036   */\n      pop\n      jump\t// out\n        /* \"#utility.yul\":42042:42221   */\n    tag_846:\n        /* \"#utility.yul\":42182:42213   */\n      0x4e6f742077697468696e207468652062696c6c696e6720706572696f64000000\n        /* \"#utility.yul\":42178:42179   */\n      0x00\n        /* \"#utility.yul\":42170:42176   */\n      dup3\n        /* \"#utility.yul\":42166:42180   */\n      add\n        /* \"#utility.yul\":42159:42214   */\n      mstore\n        /* \"#utility.yul\":42148:42221   */\n      pop\n      jump\t// out\n        /* \"#utility.yul\":42227:42451   */\n    tag_851:\n        /* \"#utility.yul\":42367:42401   */\n      0x436f6e7472616374206973206e6f7420696e2074686520726571756972656420\n        /* \"#utility.yul\":42363:42364   */\n      0x00\n        /* \"#utility.yul\":42355:42361   */\n      dup3\n        /* \"#utility.yul\":42351:42365   */\n      add\n        /* \"#utility.yul\":42344:42402   */\n      mstore\n        /* \"#utility.yul\":42436:42443   */\n      0x7374617465000000000000000000000000000000000000000000000000000000\n        /* \"#utility.yul\":42431:42433   */\n      0x20\n        /* \"#utility.yul\":42423:42429   */\n      dup3\n        /* \"#utility.yul\":42419:42434   */\n      add\n        /* \"#utility.yul\":42412:42444   */\n      mstore\n        /* \"#utility.yul\":42333:42451   */\n      pop\n      jump\t// out\n        /* \"#utility.yul\":42457:42571   */\n    tag_993:\n        /* \"#utility.yul\":42539:42540   */\n      0x05\n        /* \"#utility.yul\":42532:42537   */\n      dup2\n        /* \"#utility.yul\":42529:42541   */\n      lt\n        /* \"#utility.yul\":42519:42521   */\n      tag_1052\n      jumpi\n        /* \"#utility.yul\":42545:42563   */\n      tag_1053\n      tag_176\n      jump\t// in\n    tag_1053:\n        /* \"#utility.yul\":42519:42521   */\n    tag_1052:\n        /* \"#utility.yul\":42509:42571   */\n      pop\n      jump\t// out\n        /* \"#utility.yul\":42577:42699   */\n    tag_626:\n        /* \"#utility.yul\":42650:42674   */\n      tag_1055\n        /* \"#utility.yul\":42668:42673   */\n      dup2\n        /* \"#utility.yul\":42650:42674   */\n      tag_702\n      jump\t// in\n    tag_1055:\n        /* \"#utility.yul\":42643:42648   */\n      dup2\n        /* \"#utility.yul\":42640:42675   */\n      eq\n        /* \"#utility.yul\":42630:42632   */\n      tag_1056\n      jumpi\n        /* \"#utility.yul\":42689:42690   */\n      0x00\n        /* \"#utility.yul\":42686:42687   */\n      dup1\n        /* \"#utility.yul\":42679:42691   */\n      revert\n        /* \"#utility.yul\":42630:42632   */\n    tag_1056:\n        /* \"#utility.yul\":42620:42699   */\n      pop\n      jump\t// out\n        /* \"#utility.yul\":42705:42825   */\n    tag_644:\n        /* \"#utility.yul\":42777:42800   */\n      tag_1058\n        /* \"#utility.yul\":42794:42799   */\n      dup2\n        /* \"#utility.yul\":42777:42800   */\n      tag_741\n      jump\t// in\n    tag_1058:\n        /* \"#utility.yul\":42770:42775   */\n      dup2\n        /* \"#utility.yul\":42767:42801   */\n      eq\n        /* \"#utility.yul\":42757:42759   */\n      tag_1059\n      jumpi\n        /* \"#utility.yul\":42815:42816   */\n      0x00\n        /* \"#utility.yul\":42812:42813   */\n      dup1\n        /* \"#utility.yul\":42805:42817   */\n      revert\n        /* \"#utility.yul\":42757:42759   */\n    tag_1059:\n        /* \"#utility.yul\":42747:42825   */\n      pop\n      jump\t// out\n        /* \"#utility.yul\":42831:42953   */\n    tag_652:\n        /* \"#utility.yul\":42904:42928   */\n      tag_1061\n        /* \"#utility.yul\":42922:42927   */\n      dup2\n        /* \"#utility.yul\":42904:42928   */\n      tag_855\n      jump\t// in\n    tag_1061:\n        /* \"#utility.yul\":42897:42902   */\n      dup2\n        /* \"#utility.yul\":42894:42929   */\n      eq\n        /* \"#utility.yul\":42884:42886   */\n      tag_1062\n      jumpi\n        /* \"#utility.yul\":42943:42944   */\n      0x00\n        /* \"#utility.yul\":42940:42941   */\n      dup1\n        /* \"#utility.yul\":42933:42945   */\n      revert\n        /* \"#utility.yul\":42884:42886   */\n    tag_1062:\n        /* \"#utility.yul\":42874:42953   */\n      pop\n      jump\t// out\n\n    auxdata: 0xa2646970667358221220ee611bf2b2985bbb77858d0fb1457bd4eb9653b441849440eef270e3ac43a50b64736f6c63430008060033\n}\n",
    "bytecode": {
      "linkReferences": {},
      "object": "60806040526000600960006101000a81548160ff021916908360048111156200002d576200002c6200006b565b5b02179055506000600960016101000a81548160ff0219169083151502179055506000602b556000602d553480156200006457600080fd5b506200009a565b7f4e487b7100000000000000000000000000000000000000000000000000000000600052602160045260246000fd5b613c3c80620000aa6000396000f3fe6080604052600436106101d85760003560e01c806383197ef011610102578063ae90b21311610095578063f1b9ee2411610064578063f1b9ee2414610621578063f851a44014610638578063fadeaa5914610663578063fbbf93a01461068c576101d8565b8063ae90b21314610565578063c040e6b814610590578063e28d4906146105bb578063e9d94c58146105f8576101d8565b806397c0bba1116100d157806397c0bba1146104cf5780639a730617146104fa578063a2c14ad314610523578063aa8c217c1461053a576101d8565b806383197ef01461046c57806384ac444614610483578063904c60941461048d5780639503fe3d146104b8576101d8565b8063410459ad1161017a5780635e383d21116101495780635e383d21146103b0578063717eb03f146103ed578063722713f71461042a578063760a8c2a14610455576101d8565b8063410459ad146102f4578063438853141461031d5780634622ab0314610348578063516dde4314610385576101d8565b806321ce5afd116101b657806321ce5afd1461024a57806325419c2414610273578063295b4e171461029e5780633a40f3b2146102c9576101d8565b80630b97bc86146101dd578063109e94cf1461020857806312424e3f14610233575b600080fd5b3480156101e957600080fd5b506101f26106c1565b6040516101ff9190613171565b60405180910390f35b34801561021457600080fd5b5061021d6106c7565b60405161022a9190612e5a565b60405180910390f35b34801561023f57600080fd5b506102486106ed565b005b34801561025657600080fd5b50610271600480360381019061026c9190612850565b6108dc565b005b34801561027f57600080fd5b50610288610ae0565b6040516102959190613171565b60405180910390f35b3480156102aa57600080fd5b506102b3610ae6565b6040516102c09190612f2e565b60405180910390f35b3480156102d557600080fd5b506102de610af9565b6040516102eb9190612f2e565b60405180910390f35b34801561030057600080fd5b5061031b600480360381019061031691906127a8565b610b0c565b005b34801561032957600080fd5b50610332610b50565b60405161033f9190613171565b60405180910390f35b34801561035457600080fd5b5061036f600480360381019061036a9190612926565b610b56565b60405161037c9190612fdb565b60405180910390f35b34801561039157600080fd5b5061039a610bf9565b6040516103a79190613171565b60405180910390f35b3480156103bc57600080fd5b506103d760048036038101906103d29190612926565b610bff565b6040516103e49190612fc0565b60405180910390f35b3480156103f957600080fd5b50610414600480360381019061040f9190612926565b610c1a565b6040516104219190612fdb565b60405180910390f35b34801561043657600080fd5b5061043f610cbd565b60405161044c9190613171565b60405180910390f35b34801561046157600080fd5b5061046a610cc5565b005b34801561047857600080fd5b50610481610e0b565b005b61048b610f5e565b005b34801561049957600080fd5b506104a261110d565b6040516104af9190613171565b60405180910390f35b3480156104c457600080fd5b506104cd611113565b005b3480156104db57600080fd5b506104e46112ea565b6040516104f19190612f2e565b60405180910390f35b34801561050657600080fd5b50610521600480360381019061051c91906127d5565b6112fd565b005b34801561052f57600080fd5b506105386113d3565b005b34801561054657600080fd5b5061054f611669565b60405161055c9190613171565b60405180910390f35b34801561057157600080fd5b5061057a61166f565b6040516105879190612e5a565b60405180910390f35b34801561059c57600080fd5b506105a5611695565b6040516105b29190612fa5565b60405180910390f35b3480156105c757600080fd5b506105e260048036038101906105dd9190612926565b6116a8565b6040516105ef9190612fc0565b60405180910390f35b34801561060457600080fd5b5061061f600480360381019061061a9190612850565b6116c3565b005b34801561062d57600080fd5b5061063661185c565b005b34801561064457600080fd5b5061064d6119a2565b60405161065a9190612e3f565b60405180910390f35b34801561066f57600080fd5b5061068a60048036038101906106859190612899565b6119c6565b005b34801561069857600080fd5b506106a1611d97565b6040516106b89b9a99989796959493929190612e75565b60405180910390f35b60035481565b600160009054906101000a900473ffffffffffffffffffffffffffffffffffffffff1681565b60017fdd970dd9b5bfe707922155b058a407655cb18288b807e2216442bca8ad83d6b5600960009054906101000a900460ff166004811115610732576107316136b8565b5b60405161073f91906130d5565b60405180910390a17fdd970dd9b5bfe707922155b058a407655cb18288b807e2216442bca8ad83d6b581600481111561077b5761077a6136b8565b5b6040516107889190613103565b60405180910390a18060048111156107a3576107a26136b8565b5b600960009054906101000a900460ff1660048111156107c5576107c46136b8565b5b14610805576040517f08c379a00000000000000000000000000000000000000000000000000000000081526004016107fc90613151565b60405180910390fd5b60008054906101000a900473ffffffffffffffffffffffffffffffffffffffff1673ffffffffffffffffffffffffffffffffffffffff163373ffffffffffffffffffffffffffffffffffffffff1614610893576040517f08c379a000000000000000000000000000000000000000000000000000000000815260040161088a9061302b565b60405180910390fd5b6001600260146101000a81548160ff0219169083151502179055506003600960006101000a81548160ff021916908360048111156108d4576108d36136b8565b5b021790555050565b60037fdd970dd9b5bfe707922155b058a407655cb18288b807e2216442bca8ad83d6b5600960009054906101000a900460ff166004811115610921576109206136b8565b5b60405161092e91906130d5565b60405180910390a17fdd970dd9b5bfe707922155b058a407655cb18288b807e2216442bca8ad83d6b581600481111561096a576109696136b8565b5b6040516109779190613103565b60405180910390a1806004811115610992576109916136b8565b5b600960009054906101000a900460ff1660048111156109b4576109b36136b8565b5b146109f4576040517f08c379a00000000000000000000000000000000000000000000000000000000081526004016109eb90613151565b60405180910390fd5b600754431115610a0b57610a066113d3565b610adc565b6006544310158015610a1f57506007544311155b610a5e576040517f08c379a0000000000000000000000000000000000000000000000000000000008152600401610a5590613131565b60405180910390fd5b60005b602b54811015610ac257828181518110610a7e57610a7d613716565b5b6020026020010151602c60008381526020019081526020016000206000828254610aa891906132ec565b925050819055508080610aba90613611565b915050610a61565b50602d6000815480929190610ad6906135c8565b91905055505b5050565b60065481565b600260159054906101000a900460ff1681565b600960019054906101000a900460ff1681565b80600260006101000a81548173ffffffffffffffffffffffffffffffffffffffff021916908373ffffffffffffffffffffffffffffffffffffffff16021790555050565b60075481565b600a8160088110610b6657600080fd5b016000915090508054610b7890613565565b80601f0160208091040260200160405190810160405280929190818152602001828054610ba490613565565b8015610bf15780601f10610bc657610100808354040283529160200191610bf1565b820191906000526020600020905b815481529060010190602001808311610bd457829003601f168201915b505050505081565b60045481565b60128160088110610c0f57600080fd5b016000915090505481565b60228160088110610c2a57600080fd5b016000915090508054610c3c90613565565b80601f0160208091040260200160405190810160405280929190818152602001828054610c6890613565565b8015610cb55780601f10610c8a57610100808354040283529160200191610cb5565b820191906000526020600020905b815481529060010190602001808311610c9857829003601f168201915b505050505081565b600047905090565b60027fdd970dd9b5bfe707922155b058a407655cb18288b807e2216442bca8ad83d6b5600960009054906101000a900460ff166004811115610d0a57610d096136b8565b5b604051610d1791906130d5565b60405180910390a17fdd970dd9b5bfe707922155b058a407655cb18288b807e2216442bca8ad83d6b5816004811115610d5357610d526136b8565b5b604051610d609190613103565b60405180910390a1806004811115610d7b57610d7a6136b8565b5b600960009054906101000a900460ff166004811115610d9d57610d9c6136b8565b5b14610ddd576040517f08c379a0000000000000000000000000000000000000000000000000000000008152600401610dd490613151565b60405180910390fd5b6003600960006101000a81548160ff02191690836004811115610e0357610e026136b8565b5b021790555050565b60027fdd970dd9b5bfe707922155b058a407655cb18288b807e2216442bca8ad83d6b5600960009054906101000a900460ff166004811115610e5057610e4f6136b8565b5b604051610e5d91906130d5565b60405180910390a17fdd970dd9b5bfe707922155b058a407655cb18288b807e2216442bca8ad83d6b5816004811115610e9957610e986136b8565b5b604051610ea69190613103565b60405180910390a1806004811115610ec157610ec06136b8565b5b600960009054906101000a900460ff166004811115610ee357610ee26136b8565b5b14610f23576040517f08c379a0000000000000000000000000000000000000000000000000000000008152600401610f1a90613151565b60405180910390fd5b600160009054906101000a900473ffffffffffffffffffffffffffffffffffffffff1673ffffffffffffffffffffffffffffffffffffffff16ff5b60037fdd970dd9b5bfe707922155b058a407655cb18288b807e2216442bca8ad83d6b5600960009054906101000a900460ff166004811115610fa357610fa26136b8565b5b604051610fb091906130d5565b60405180910390a17fdd970dd9b5bfe707922155b058a407655cb18288b807e2216442bca8ad83d6b5816004811115610fec57610feb6136b8565b5b604051610ff99190613103565b60405180910390a1806004811115611014576110136136b8565b5b600960009054906101000a900460ff166004811115611036576110356136b8565b5b14611076576040517f08c379a000000000000000000000000000000000000000000000000000000000815260040161106d90613151565b60405180910390fd5b60075443111561108d576110886113d3565b61110a565b60065443101580156110a157506007544311155b6110e0576040517f08c379a00000000000000000000000000000000000000000000000000000000081526004016110d790613131565b60405180910390fd5b60055434146110ee57600080fd5b6001600260156101000a81548160ff0219169083151502179055505b50565b60085481565b60007fdd970dd9b5bfe707922155b058a407655cb18288b807e2216442bca8ad83d6b5600960009054906101000a900460ff166004811115611158576111576136b8565b5b60405161116591906130d5565b60405180910390a17fdd970dd9b5bfe707922155b058a407655cb18288b807e2216442bca8ad83d6b58160048111156111a1576111a06136b8565b5b6040516111ae9190613103565b60405180910390a18060048111156111c9576111c86136b8565b5b600960009054906101000a900460ff1660048111156111eb576111ea6136b8565b5b1461122b576040517f08c379a000000000000000000000000000000000000000000000000000000000815260040161122290613151565b60405180910390fd5b7fdd970dd9b5bfe707922155b058a407655cb18288b807e2216442bca8ad83d6b5600960009054906101000a900460ff16600481111561126e5761126d6136b8565b5b60405161127b91906130a7565b60405180910390a16001600960006101000a81548160ff021916908360048111156112a9576112a86136b8565b5b021790555060005b60088110156112e6576000602c60008381526020019081526020016000208190555080806112de90613611565b9150506112b1565b5050565b600260149054906101000a900460ff1681565b336000806101000a81548173ffffffffffffffffffffffffffffffffffffffff021916908373ffffffffffffffffffffffffffffffffffffffff16021790555084600160006101000a81548173ffffffffffffffffffffffffffffffffffffffff021916908373ffffffffffffffffffffffffffffffffffffffff160217905550836004819055508260038190555061139583611ffd565b6006819055506113b0601e846113ab9190613380565b611ffd565b60078190555081600881905550806005819055506113cc61201f565b5050505050565b60037fdd970dd9b5bfe707922155b058a407655cb18288b807e2216442bca8ad83d6b5600960009054906101000a900460ff166004811115611418576114176136b8565b5b60405161142591906130d5565b60405180910390a17fdd970dd9b5bfe707922155b058a407655cb18288b807e2216442bca8ad83d6b5816004811115611461576114606136b8565b5b60405161146e9190613103565b60405180910390a1806004811115611489576114886136b8565b5b600960009054906101000a900460ff1660048111156114ab576114aa6136b8565b5b146114eb576040517f08c379a00000000000000000000000000000000000000000000000000000000081526004016114e290613151565b60405180910390fd5b60005b602b548110156115e4576000601a826008811061150e5761150d613716565b5b0154905060006012836008811061152857611527613716565b5b015490506000602d54602c60008681526020019081526020016000205461154f91906133d6565b905061155c8382846120ed565b6115ce57611568612199565b3373ffffffffffffffffffffffffffffffffffffffff167fa84226bf2d14bde3fac454f52eaeab63aaeb1934da88f9263dd4ff7dd12acf71600960019054906101000a900460ff166040516115bd9190612f49565b60405180910390a250505050611666565b50505080806115dc90613611565b9150506114ee565b506001600960016101000a81548160ff0219169083151502179055503373ffffffffffffffffffffffffffffffffffffffff167fa84226bf2d14bde3fac454f52eaeab63aaeb1934da88f9263dd4ff7dd12acf71600960019054906101000a900460ff166040516116559190612f77565b60405180910390a2611665612229565b5b50565b60055481565b600260009054906101000a900473ffffffffffffffffffffffffffffffffffffffff1681565b600960009054906101000a900460ff1681565b601a81600881106116b857600080fd5b016000915090505481565b60037fdd970dd9b5bfe707922155b058a407655cb18288b807e2216442bca8ad83d6b5600960009054906101000a900460ff166004811115611708576117076136b8565b5b60405161171591906130d5565b60405180910390a17fdd970dd9b5bfe707922155b058a407655cb18288b807e2216442bca8ad83d6b5816004811115611751576117506136b8565b5b60405161175e9190613103565b60405180910390a1806004811115611779576117786136b8565b5b600960009054906101000a900460ff16600481111561179b5761179a6136b8565b5b146117db576040517f08c379a00000000000000000000000000000000000000000000000000000000081526004016117d290613151565b60405180910390fd5b60005b602b5481101561183f578281815181106117fb576117fa613716565b5b6020026020010151602c6000838152602001908152602001600020600082825461182591906132ec565b92505081905550808061183790613611565b9150506117de565b50602d6000815480929190611853906135c8565b91905055505050565b60037fdd970dd9b5bfe707922155b058a407655cb18288b807e2216442bca8ad83d6b5600960009054906101000a900460ff1660048111156118a1576118a06136b8565b5b6040516118ae91906130d5565b60405180910390a17fdd970dd9b5bfe707922155b058a407655cb18288b807e2216442bca8ad83d6b58160048111156118ea576118e96136b8565b5b6040516118f79190613103565b60405180910390a1806004811115611912576119116136b8565b5b600960009054906101000a900460ff166004811115611934576119336136b8565b5b14611974576040517f08c379a000000000000000000000000000000000000000000000000000000000815260040161196b90613151565b60405180910390fd5b6002600960006101000a81548160ff0219169083600481111561199a576119996136b8565b5b021790555050565b60008054906101000a900473ffffffffffffffffffffffffffffffffffffffff1681565b60007fdd970dd9b5bfe707922155b058a407655cb18288b807e2216442bca8ad83d6b5600960009054906101000a900460ff166004811115611a0b57611a0a6136b8565b5b604051611a1891906130d5565b60405180910390a17fdd970dd9b5bfe707922155b058a407655cb18288b807e2216442bca8ad83d6b5816004811115611a5457611a536136b8565b5b604051611a619190613103565b60405180910390a1806004811115611a7c57611a7b6136b8565b5b600960009054906101000a900460ff166004811115611a9e57611a9d6136b8565b5b14611ade576040517f08c379a0000000000000000000000000000000000000000000000000000000008152600401611ad590613151565b60405180910390fd5b7fdd970dd9b5bfe707922155b058a407655cb18288b807e2216442bca8ad83d6b5600960009054906101000a900460ff166004811115611b2157611b206136b8565b5b604051611b2e9190613079565b60405180910390a160005b6008811015611d8f576040518060400160405280600181526020017f300000000000000000000000000000000000000000000000000000000000000081525080519060200120858260088110611b9257611b91613716565b5b6020020151805190602001201415611c62577fdd970dd9b5bfe707922155b058a407655cb18288b807e2216442bca8ad83d6b5600960009054906101000a900460ff166004811115611be757611be66136b8565b5b604051611bf4919061304b565b60405180910390a1611c04611113565b7fdd970dd9b5bfe707922155b058a407655cb18288b807e2216442bca8ad83d6b5600960009054906101000a900460ff166004811115611c4757611c466136b8565b5b604051611c549190612ffd565b60405180910390a150611d91565b848160088110611c7557611c74613716565b5b6020020151600a8260088110611c8e57611c8d613716565b5b019080519060200190611ca292919061242b565b50838160088110611cb657611cb5613716565b5b602002015160128260088110611ccf57611cce613716565b5b0181905550602a838260088110611ce957611ce8613716565b5b6020020151604051611cfb9190612daa565b908152602001604051809103902054601a8260088110611d1e57611d1d613716565b5b0181905550828160088110611d3657611d35613716565b5b602002015160228260088110611d4f57611d4e613716565b5b019080519060200190611d6392919061242b565b50602b6000815480929190611d7790613611565b91905055508080611d8790613611565b915050611b39565b505b50505050565b600080600080600080600080611dab6124b1565b611db36124d9565b611dbb6124b1565b600160009054906101000a900473ffffffffffffffffffffffffffffffffffffffff16600260009054906101000a900473ffffffffffffffffffffffffffffffffffffffff16600354600454600554600654600754600854600a6012602282600880602002604051908101604052809291906000905b82821015611ed4578382018054611e4790613565565b80601f0160208091040260200160405190810160405280929190818152602001828054611e7390613565565b8015611ec05780601f10611e9557610100808354040283529160200191611ec0565b820191906000526020600020905b815481529060010190602001808311611ea357829003601f168201915b505050505081526020019060010190611e31565b50505050925081600880602002604051908101604052809291908260088015611f12576020028201915b815481526020019060010190808311611efe575b5050505050915080600880602002604051908101604052809291906000905b82821015611fd4578382018054611f4790613565565b80601f0160208091040260200160405190810160405280929190818152602001828054611f7390613565565b8015611fc05780601f10611f9557610100808354040283529160200191611fc0565b820191906000526020600020905b815481529060010190602001808311611fa357829003601f168201915b505050505081526020019060010190611f31565b5050505090509a509a509a509a509a509a509a509a509a509a509a50909192939495969798999a565b60006119008261200d9190613440565b436120189190613380565b9050919050565b6001602a60405161202f90612e2a565b9081526020016040518091039020819055506002602a60405161205190612dd6565b9081526020016040518091039020819055506003602a60405161207390612dc1565b9081526020016040518091039020819055506004602a60405161209590612deb565b9081526020016040518091039020819055506005602a6040516120b790612e00565b9081526020016040518091039020819055506006602a6040516120d990612e15565b908152602001604051809103902081905550565b60007fffffffffffffffffffffffffffffffffffffffffffffffffffffffffffffffff841461218d576001808516141561213e5761212c8484846122b9565b6121395760009050612192565b61218c565b60048085161415612166576121548484846122f9565b6121615760009050612192565b61218b565b6002808516141561218a5761217c848484612339565b6121895760009050612192565b5b5b5b5b600190505b9392505050565b6000600960016101000a81548160ff021916908315150217905550600160009054906101000a900473ffffffffffffffffffffffffffffffffffffffff1673ffffffffffffffffffffffffffffffffffffffff166108fc6005549081150290604051600060405180830381858888f1935050505015801561221e573d6000803e3d6000fd5b50612227612364565b565b6001600960016101000a81548160ff021916908315150217905550600260009054906101000a900473ffffffffffffffffffffffffffffffffffffffff1673ffffffffffffffffffffffffffffffffffffffff166108fc6005549081150290604051600060405180830381858888f193505050501580156122ae573d6000803e3d6000fd5b506122b7612364565b565b60008060009050600180861614156122ee57828413156122d857600190505b6122e3858585612339565b156122ed57600190505b5b809150509392505050565b600080600090506004808616141561232e578284121561231857600190505b612323858585612339565b1561232d57600190505b5b809150509392505050565b6000600280851614156123585781831415612357576001905061235d565b5b600090505b9392505050565b61236f600454611ffd565b43106123a1576004600960006101000a81548160ff0219169083600481111561239b5761239a6136b8565b5b02179055505b60005b602b548110156123da576000602c60008381526020019081526020016000208190555080806123d290613611565b9150506123a4565b506000602d819055506000600260156101000a81548160ff021916908315150217905550600754600681905550611900601e6124169190613440565b6007546124239190613380565b600781905550565b82805461243790613565565b90600052602060002090601f01602090048101928261245957600085556124a0565b82601f1061247257805160ff19168380011785556124a0565b828001600101855582156124a0579182015b8281111561249f578251825591602001919060010190612484565b5b5090506124ad91906124fc565b5090565b6040518061010001604052806008905b60608152602001906001900390816124c15790505090565b604051806101000160405280600890602082028036833780820191505090505090565b5b808211156125155760008160009055506001016124fd565b5090565b600061252c612527846131b1565b61318c565b9050808285602086028201111561254657612545613779565b5b60005b85811015612576578161255c8882612750565b845260208401935060208301925050600181019050612549565b5050509392505050565b600061259361258e846131d7565b61318c565b905080838252602082019050828560208602820111156125b6576125b5613779565b5b60005b858110156125e657816125cc8882612750565b8452602084019350602083019250506001810190506125b9565b5050509392505050565b60006126036125fe84613203565b61318c565b9050808285602086028201111561261d5761261c613779565b5b60005b8581101561266b57813567ffffffffffffffff81111561264357612642613774565b5b8086016126508982612765565b85526020850194506020840193505050600181019050612620565b5050509392505050565b600061268861268384613229565b61318c565b9050828152602081018484840111156126a4576126a361377e565b5b6126af848285613523565b509392505050565b6000813590506126c681613bc1565b92915050565b600082601f8301126126e1576126e0613774565b5b60086126ee848285612519565b91505092915050565b600082601f83011261270c5761270b613774565b5b813561271c848260208601612580565b91505092915050565b600082601f83011261273a57612739613774565b5b60086127478482856125f0565b91505092915050565b60008135905061275f81613bd8565b92915050565b600082601f83011261277a57612779613774565b5b813561278a848260208601612675565b91505092915050565b6000813590506127a281613bef565b92915050565b6000602082840312156127be576127bd613788565b5b60006127cc848285016126b7565b91505092915050565b600080600080600060a086880312156127f1576127f0613788565b5b60006127ff888289016126b7565b955050602061281088828901612793565b945050604061282188828901612793565b935050606061283288828901612793565b925050608061284388828901612793565b9150509295509295909350565b60006020828403121561286657612865613788565b5b600082013567ffffffffffffffff81111561288457612883613783565b5b612890848285016126f7565b91505092915050565b600080600061014084860312156128b3576128b2613788565b5b600084013567ffffffffffffffff8111156128d1576128d0613783565b5b6128dd86828701612725565b93505060206128ee868287016126cc565b92505061012084013567ffffffffffffffff8111156129105761290f613783565b5b61291c86828701612725565b9150509250925092565b60006020828403121561293c5761293b613788565b5b600061294a84828501612793565b91505092915050565b600061295f8383612a87565b60208301905092915050565b60006129778383612aa5565b905092915050565b612988816134ac565b82525050565b6129978161349a565b82525050565b6129a68161326e565b6129b081846132a9565b92506129bb8261325a565b8060005b838110156129ec5781516129d38782612953565b96506129de8361328f565b9250506001810190506129bf565b505050505050565b60006129ff82613279565b612a0981856132b4565b935083602082028501612a1b85613264565b8060005b85811015612a575784840389528151612a38858261296b565b9450612a438361329c565b925060208a01995050600181019050612a1f565b50829750879550505050505092915050565b612a72816134be565b82525050565b612a8181613511565b82525050565b612a90816134dd565b82525050565b612a9f816134dd565b82525050565b6000612ab082613284565b612aba81856132bf565b9350612aca818560208601613532565b612ad38161378d565b840191505092915050565b6000612ae982613284565b612af381856132d0565b9350612b03818560208601613532565b612b0c8161378d565b840191505092915050565b6000612b2282613284565b612b2c81856132e1565b9350612b3c818560208601613532565b80840191505092915050565b6000612b556002836132e1565b9150612b608261379e565b600282019050919050565b6000612b786043836132d0565b9150612b83826137c7565b606082019050919050565b6000612b9b6036836132d0565b9150612ba68261383c565b604082019050919050565b6000612bbe602f836132d0565b9150612bc98261388b565b604082019050919050565b6000612be16012836132d0565b9150612bec826138da565b602082019050919050565b6000612c046010836132d0565b9150612c0f82613903565b602082019050919050565b6000612c276022836132d0565b9150612c328261392c565b604082019050919050565b6000612c4a6002836132e1565b9150612c558261397b565b600282019050919050565b6000612c6d6026836132d0565b9150612c78826139a4565b604082019050919050565b6000612c906001836132e1565b9150612c9b826139f3565b600182019050919050565b6000612cb36002836132e1565b9150612cbe82613a1c565b600282019050919050565b6000612cd66021836132d0565b9150612ce182613a45565b604082019050919050565b6000612cf9602e836132d0565b9150612d0482613a94565b604082019050919050565b6000612d1c6002836132e1565b9150612d2782613ae3565b600282019050919050565b6000612d3f6001836132e1565b9150612d4a82613b0c565b600182019050919050565b6000612d62601d836132d0565b9150612d6d82613b35565b602082019050919050565b6000612d856025836132d0565b9150612d9082613b5e565b604082019050919050565b612da481613507565b82525050565b6000612db68284612b17565b915081905092915050565b6000612dcc82612b48565b9150819050919050565b6000612de182612c3d565b9150819050919050565b6000612df682612c83565b9150819050919050565b6000612e0b82612ca6565b9150819050919050565b6000612e2082612d0f565b9150819050919050565b6000612e3582612d32565b9150819050919050565b6000602082019050612e54600083018461298e565b92915050565b6000602082019050612e6f600083018461297f565b92915050565b600061024082019050612e8b600083018e61298e565b612e98602083018d61298e565b612ea5604083018c612d9b565b612eb2606083018b612d9b565b612ebf608083018a612d9b565b612ecc60a0830189612d9b565b612ed960c0830188612d9b565b612ee660e0830187612d9b565b818103610100830152612ef981866129f4565b9050612f0961012083018561299d565b818103610220830152612f1c81846129f4565b90509c9b505050505050505050505050565b6000602082019050612f436000830184612a69565b92915050565b6000604082019050612f5e6000830184612a69565b8181036020830152612f6f81612bd4565b905092915050565b6000604082019050612f8c6000830184612a69565b8181036020830152612f9d81612bf7565b905092915050565b6000602082019050612fba6000830184612a78565b92915050565b6000602082019050612fd56000830184612a96565b92915050565b60006020820190508181036000830152612ff58184612ade565b905092915050565b6000604082019050818103600083015261301681612b6b565b90506130256020830184612d9b565b92915050565b6000602082019050818103600083015261304481612b8e565b9050919050565b6000604082019050818103600083015261306481612bb1565b90506130736020830184612d9b565b92915050565b6000604082019050818103600083015261309281612c1a565b90506130a16020830184612d9b565b92915050565b600060408201905081810360008301526130c081612c60565b90506130cf6020830184612d9b565b92915050565b600060408201905081810360008301526130ee81612cc9565b90506130fd6020830184612d9b565b92915050565b6000604082019050818103600083015261311c81612cec565b905061312b6020830184612d9b565b92915050565b6000602082019050818103600083015261314a81612d55565b9050919050565b6000602082019050818103600083015261316a81612d78565b9050919050565b60006020820190506131866000830184612d9b565b92915050565b60006131966131a7565b90506131a28282613597565b919050565b6000604051905090565b600067ffffffffffffffff8211156131cc576131cb613745565b5b602082029050919050565b600067ffffffffffffffff8211156131f2576131f1613745565b5b602082029050602081019050919050565b600067ffffffffffffffff82111561321e5761321d613745565b5b602082029050919050565b600067ffffffffffffffff82111561324457613243613745565b5b61324d8261378d565b9050602081019050919050565b6000819050919050565b6000819050919050565b600060089050919050565b600060089050919050565b600081519050919050565b6000602082019050919050565b6000602082019050919050565b600081905092915050565b600081905092915050565b600082825260208201905092915050565b600082825260208201905092915050565b600081905092915050565b60006132f7826134dd565b9150613302836134dd565b9250817f7fffffffffffffffffffffffffffffffffffffffffffffffffffffffffffffff0383136000831215161561333d5761333c61365a565b5b817f80000000000000000000000000000000000000000000000000000000000000000383126000831216156133755761337461365a565b5b828201905092915050565b600061338b82613507565b915061339683613507565b9250827fffffffffffffffffffffffffffffffffffffffffffffffffffffffffffffffff038211156133cb576133ca61365a565b5b828201905092915050565b60006133e1826134dd565b91506133ec836134dd565b9250826133fc576133fb613689565b5b600160000383147f8000000000000000000000000000000000000000000000000000000000000000831416156134355761343461365a565b5b828205905092915050565b600061344b82613507565b915061345683613507565b9250817fffffffffffffffffffffffffffffffffffffffffffffffffffffffffffffffff048311821515161561348f5761348e61365a565b5b828202905092915050565b60006134a5826134e7565b9050919050565b60006134b7826134e7565b9050919050565b60008115159050919050565b60008190506134d882613bad565b919050565b6000819050919050565b600073ffffffffffffffffffffffffffffffffffffffff82169050919050565b6000819050919050565b600061351c826134ca565b9050919050565b82818337600083830152505050565b60005b83811015613550578082015181840152602081019050613535565b8381111561355f576000848401525b50505050565b6000600282049050600182168061357d57607f821691505b60208210811415613591576135906136e7565b5b50919050565b6135a08261378d565b810181811067ffffffffffffffff821117156135bf576135be613745565b5b80604052505050565b60006135d3826134dd565b91507f7fffffffffffffffffffffffffffffffffffffffffffffffffffffffffffffff8214156136065761360561365a565b5b600182019050919050565b600061361c82613507565b91507fffffffffffffffffffffffffffffffffffffffffffffffffffffffffffffffff82141561364f5761364e61365a565b5b600182019050919050565b7f4e487b7100000000000000000000000000000000000000000000000000000000600052601160045260246000fd5b7f4e487b7100000000000000000000000000000000000000000000000000000000600052601260045260246000fd5b7f4e487b7100000000000000000000000000000000000000000000000000000000600052602160045260246000fd5b7f4e487b7100000000000000000000000000000000000000000000000000000000600052602260045260246000fd5b7f4e487b7100000000000000000000000000000000000000000000000000000000600052603260045260246000fd5b7f4e487b7100000000000000000000000000000000000000000000000000000000600052604160045260246000fd5b600080fd5b600080fd5b600080fd5b600080fd5b600080fd5b6000601f19601f8301169050919050565b7f3e3d000000000000000000000000000000000000000000000000000000000000600082015250565b7f696e7369646520736574436f6e64732069662073746174656d656e742c20616660008201527f74657220656e64496e697453746167652c2063757272656e742073746167652060208201527f69733a0000000000000000000000000000000000000000000000000000000000604082015250565b7f43616e6e6f742063616c6c20746869732066756e6374696f6e2064697265637460008201527f6c792c207573652056656e646f72466163746f72792e00000000000000000000602082015250565b7f696e7369646520736574436f6e64732069662073746174656d656e742c20637560008201527f7272656e742073746167652069733a0000000000000000000000000000000000602082015250565b7f526566756e64696e67207061796d656e742e0000000000000000000000000000600082015250565b7f53656e64696e67207061796d656e742e00000000000000000000000000000000600082015250565b7f696e7369646520736574436f6e64732c2063757272656e74207374616765206960008201527f733a000000000000000000000000000000000000000000000000000000000000602082015250565b7f3d3d000000000000000000000000000000000000000000000000000000000000600082015250565b7f696e7369646520656e64496e697453746167652c2063757272656e742073746160008201527f67652069733a0000000000000000000000000000000000000000000000000000602082015250565b7f3c00000000000000000000000000000000000000000000000000000000000000600082015250565b7f213d000000000000000000000000000000000000000000000000000000000000600082015250565b7f696e7369646520617453746167652c2063757272656e7420737461676520697360008201527f3a00000000000000000000000000000000000000000000000000000000000000602082015250565b7f7374696c6c20696e7369646520617453746167652c20747279696e6720746f2060008201527f636f6d7061726520697420746f3a000000000000000000000000000000000000602082015250565b7f3c3d000000000000000000000000000000000000000000000000000000000000600082015250565b7f3e00000000000000000000000000000000000000000000000000000000000000600082015250565b7f4e6f742077697468696e207468652062696c6c696e6720706572696f64000000600082015250565b7f436f6e7472616374206973206e6f7420696e207468652072657175697265642060008201527f7374617465000000000000000000000000000000000000000000000000000000602082015250565b60058110613bbe57613bbd6136b8565b5b50565b613bca8161349a565b8114613bd557600080fd5b50565b613be1816134dd565b8114613bec57600080fd5b50565b613bf881613507565b8114613c0357600080fd5b5056fea2646970667358221220ee611bf2b2985bbb77858d0fb1457bd4eb9653b441849440eef270e3ac43a50b64736f6c63430008060033",
      "opcodes": "PUSH1 0x80 PUSH1 0x40 MSTORE PUSH1 0x0 PUSH1 0x9 PUSH1 0x0 PUSH2 0x100 EXP DUP2 SLOAD DUP2 PUSH1 0xFF MUL NOT AND SWAP1 DUP4 PUSH1 0x4 DUP2 GT ISZERO PUSH3 0x2D JUMPI PUSH3 0x2C PUSH3 0x6B JUMP JUMPDEST JUMPDEST MUL OR SWAP1 SSTORE POP PUSH1 0x0 PUSH1 0x9 PUSH1 0x1 PUSH2 0x100 EXP DUP2 SLOAD DUP2 PUSH1 0xFF MUL NOT AND SWAP1 DUP4 ISZERO ISZERO MUL OR SWAP1 SSTORE POP PUSH1 0x0 PUSH1 0x2B SSTORE PUSH1 0x0 PUSH1 0x2D SSTORE CALLVALUE DUP1 ISZERO PUSH3 0x64 JUMPI PUSH1 0x0 DUP1 REVERT JUMPDEST POP PUSH3 0x9A JUMP JUMPDEST PUSH32 0x4E487B7100000000000000000000000000000000000000000000000000000000 PUSH1 0x0 MSTORE PUSH1 0x21 PUSH1 0x4 MSTORE PUSH1 0x24 PUSH1 0x0 REVERT JUMPDEST PUSH2 0x3C3C DUP1 PUSH3 0xAA PUSH1 0x0 CODECOPY PUSH1 0x0 RETURN INVALID PUSH1 0x80 PUSH1 0x40 MSTORE PUSH1 0x4 CALLDATASIZE LT PUSH2 0x1D8 JUMPI PUSH1 0x0 CALLDATALOAD PUSH1 0xE0 SHR DUP1 PUSH4 0x83197EF0 GT PUSH2 0x102 JUMPI DUP1 PUSH4 0xAE90B213 GT PUSH2 0x95 JUMPI DUP1 PUSH4 0xF1B9EE24 GT PUSH2 0x64 JUMPI DUP1 PUSH4 0xF1B9EE24 EQ PUSH2 0x621 JUMPI DUP1 PUSH4 0xF851A440 EQ PUSH2 0x638 JUMPI DUP1 PUSH4 0xFADEAA59 EQ PUSH2 0x663 JUMPI DUP1 PUSH4 0xFBBF93A0 EQ PUSH2 0x68C JUMPI PUSH2 0x1D8 JUMP JUMPDEST DUP1 PUSH4 0xAE90B213 EQ PUSH2 0x565 JUMPI DUP1 PUSH4 0xC040E6B8 EQ PUSH2 0x590 JUMPI DUP1 PUSH4 0xE28D4906 EQ PUSH2 0x5BB JUMPI DUP1 PUSH4 0xE9D94C58 EQ PUSH2 0x5F8 JUMPI PUSH2 0x1D8 JUMP JUMPDEST DUP1 PUSH4 0x97C0BBA1 GT PUSH2 0xD1 JUMPI DUP1 PUSH4 0x97C0BBA1 EQ PUSH2 0x4CF JUMPI DUP1 PUSH4 0x9A730617 EQ PUSH2 0x4FA JUMPI DUP1 PUSH4 0xA2C14AD3 EQ PUSH2 0x523 JUMPI DUP1 PUSH4 0xAA8C217C EQ PUSH2 0x53A JUMPI PUSH2 0x1D8 JUMP JUMPDEST DUP1 PUSH4 0x83197EF0 EQ PUSH2 0x46C JUMPI DUP1 PUSH4 0x84AC4446 EQ PUSH2 0x483 JUMPI DUP1 PUSH4 0x904C6094 EQ PUSH2 0x48D JUMPI DUP1 PUSH4 0x9503FE3D EQ PUSH2 0x4B8 JUMPI PUSH2 0x1D8 JUMP JUMPDEST DUP1 PUSH4 0x410459AD GT PUSH2 0x17A JUMPI DUP1 PUSH4 0x5E383D21 GT PUSH2 0x149 JUMPI DUP1 PUSH4 0x5E383D21 EQ PUSH2 0x3B0 JUMPI DUP1 PUSH4 0x717EB03F EQ PUSH2 0x3ED JUMPI DUP1 PUSH4 0x722713F7 EQ PUSH2 0x42A JUMPI DUP1 PUSH4 0x760A8C2A EQ PUSH2 0x455 JUMPI PUSH2 0x1D8 JUMP JUMPDEST DUP1 PUSH4 0x410459AD EQ PUSH2 0x2F4 JUMPI DUP1 PUSH4 0x43885314 EQ PUSH2 0x31D JUMPI DUP1 PUSH4 0x4622AB03 EQ PUSH2 0x348 JUMPI DUP1 PUSH4 0x516DDE43 EQ PUSH2 0x385 JUMPI PUSH2 0x1D8 JUMP JUMPDEST DUP1 PUSH4 0x21CE5AFD GT PUSH2 0x1B6 JUMPI DUP1 PUSH4 0x21CE5AFD EQ PUSH2 0x24A JUMPI DUP1 PUSH4 0x25419C24 EQ PUSH2 0x273 JUMPI DUP1 PUSH4 0x295B4E17 EQ PUSH2 0x29E JUMPI DUP1 PUSH4 0x3A40F3B2 EQ PUSH2 0x2C9 JUMPI PUSH2 0x1D8 JUMP JUMPDEST DUP1 PUSH4 0xB97BC86 EQ PUSH2 0x1DD JUMPI DUP1 PUSH4 0x109E94CF EQ PUSH2 0x208 JUMPI DUP1 PUSH4 0x12424E3F EQ PUSH2 0x233 JUMPI JUMPDEST PUSH1 0x0 DUP1 REVERT JUMPDEST CALLVALUE DUP1 ISZERO PUSH2 0x1E9 JUMPI PUSH1 0x0 DUP1 REVERT JUMPDEST POP PUSH2 0x1F2 PUSH2 0x6C1 JUMP JUMPDEST PUSH1 0x40 MLOAD PUSH2 0x1FF SWAP2 SWAP1 PUSH2 0x3171 JUMP JUMPDEST PUSH1 0x40 MLOAD DUP1 SWAP2 SUB SWAP1 RETURN JUMPDEST CALLVALUE DUP1 ISZERO PUSH2 0x214 JUMPI PUSH1 0x0 DUP1 REVERT JUMPDEST POP PUSH2 0x21D PUSH2 0x6C7 JUMP JUMPDEST PUSH1 0x40 MLOAD PUSH2 0x22A SWAP2 SWAP1 PUSH2 0x2E5A JUMP JUMPDEST PUSH1 0x40 MLOAD DUP1 SWAP2 SUB SWAP1 RETURN JUMPDEST CALLVALUE DUP1 ISZERO PUSH2 0x23F JUMPI PUSH1 0x0 DUP1 REVERT JUMPDEST POP PUSH2 0x248 PUSH2 0x6ED JUMP JUMPDEST STOP JUMPDEST CALLVALUE DUP1 ISZERO PUSH2 0x256 JUMPI PUSH1 0x0 DUP1 REVERT JUMPDEST POP PUSH2 0x271 PUSH1 0x4 DUP1 CALLDATASIZE SUB DUP2 ADD SWAP1 PUSH2 0x26C SWAP2 SWAP1 PUSH2 0x2850 JUMP JUMPDEST PUSH2 0x8DC JUMP JUMPDEST STOP JUMPDEST CALLVALUE DUP1 ISZERO PUSH2 0x27F JUMPI PUSH1 0x0 DUP1 REVERT JUMPDEST POP PUSH2 0x288 PUSH2 0xAE0 JUMP JUMPDEST PUSH1 0x40 MLOAD PUSH2 0x295 SWAP2 SWAP1 PUSH2 0x3171 JUMP JUMPDEST PUSH1 0x40 MLOAD DUP1 SWAP2 SUB SWAP1 RETURN JUMPDEST CALLVALUE DUP1 ISZERO PUSH2 0x2AA JUMPI PUSH1 0x0 DUP1 REVERT JUMPDEST POP PUSH2 0x2B3 PUSH2 0xAE6 JUMP JUMPDEST PUSH1 0x40 MLOAD PUSH2 0x2C0 SWAP2 SWAP1 PUSH2 0x2F2E JUMP JUMPDEST PUSH1 0x40 MLOAD DUP1 SWAP2 SUB SWAP1 RETURN JUMPDEST CALLVALUE DUP1 ISZERO PUSH2 0x2D5 JUMPI PUSH1 0x0 DUP1 REVERT JUMPDEST POP PUSH2 0x2DE PUSH2 0xAF9 JUMP JUMPDEST PUSH1 0x40 MLOAD PUSH2 0x2EB SWAP2 SWAP1 PUSH2 0x2F2E JUMP JUMPDEST PUSH1 0x40 MLOAD DUP1 SWAP2 SUB SWAP1 RETURN JUMPDEST CALLVALUE DUP1 ISZERO PUSH2 0x300 JUMPI PUSH1 0x0 DUP1 REVERT JUMPDEST POP PUSH2 0x31B PUSH1 0x4 DUP1 CALLDATASIZE SUB DUP2 ADD SWAP1 PUSH2 0x316 SWAP2 SWAP1 PUSH2 0x27A8 JUMP JUMPDEST PUSH2 0xB0C JUMP JUMPDEST STOP JUMPDEST CALLVALUE DUP1 ISZERO PUSH2 0x329 JUMPI PUSH1 0x0 DUP1 REVERT JUMPDEST POP PUSH2 0x332 PUSH2 0xB50 JUMP JUMPDEST PUSH1 0x40 MLOAD PUSH2 0x33F SWAP2 SWAP1 PUSH2 0x3171 JUMP JUMPDEST PUSH1 0x40 MLOAD DUP1 SWAP2 SUB SWAP1 RETURN JUMPDEST CALLVALUE DUP1 ISZERO PUSH2 0x354 JUMPI PUSH1 0x0 DUP1 REVERT JUMPDEST POP PUSH2 0x36F PUSH1 0x4 DUP1 CALLDATASIZE SUB DUP2 ADD SWAP1 PUSH2 0x36A SWAP2 SWAP1 PUSH2 0x2926 JUMP JUMPDEST PUSH2 0xB56 JUMP JUMPDEST PUSH1 0x40 MLOAD PUSH2 0x37C SWAP2 SWAP1 PUSH2 0x2FDB JUMP JUMPDEST PUSH1 0x40 MLOAD DUP1 SWAP2 SUB SWAP1 RETURN JUMPDEST CALLVALUE DUP1 ISZERO PUSH2 0x391 JUMPI PUSH1 0x0 DUP1 REVERT JUMPDEST POP PUSH2 0x39A PUSH2 0xBF9 JUMP JUMPDEST PUSH1 0x40 MLOAD PUSH2 0x3A7 SWAP2 SWAP1 PUSH2 0x3171 JUMP JUMPDEST PUSH1 0x40 MLOAD DUP1 SWAP2 SUB SWAP1 RETURN JUMPDEST CALLVALUE DUP1 ISZERO PUSH2 0x3BC JUMPI PUSH1 0x0 DUP1 REVERT JUMPDEST POP PUSH2 0x3D7 PUSH1 0x4 DUP1 CALLDATASIZE SUB DUP2 ADD SWAP1 PUSH2 0x3D2 SWAP2 SWAP1 PUSH2 0x2926 JUMP JUMPDEST PUSH2 0xBFF JUMP JUMPDEST PUSH1 0x40 MLOAD PUSH2 0x3E4 SWAP2 SWAP1 PUSH2 0x2FC0 JUMP JUMPDEST PUSH1 0x40 MLOAD DUP1 SWAP2 SUB SWAP1 RETURN JUMPDEST CALLVALUE DUP1 ISZERO PUSH2 0x3F9 JUMPI PUSH1 0x0 DUP1 REVERT JUMPDEST POP PUSH2 0x414 PUSH1 0x4 DUP1 CALLDATASIZE SUB DUP2 ADD SWAP1 PUSH2 0x40F SWAP2 SWAP1 PUSH2 0x2926 JUMP JUMPDEST PUSH2 0xC1A JUMP JUMPDEST PUSH1 0x40 MLOAD PUSH2 0x421 SWAP2 SWAP1 PUSH2 0x2FDB JUMP JUMPDEST PUSH1 0x40 MLOAD DUP1 SWAP2 SUB SWAP1 RETURN JUMPDEST CALLVALUE DUP1 ISZERO PUSH2 0x436 JUMPI PUSH1 0x0 DUP1 REVERT JUMPDEST POP PUSH2 0x43F PUSH2 0xCBD JUMP JUMPDEST PUSH1 0x40 MLOAD PUSH2 0x44C SWAP2 SWAP1 PUSH2 0x3171 JUMP JUMPDEST PUSH1 0x40 MLOAD DUP1 SWAP2 SUB SWAP1 RETURN JUMPDEST CALLVALUE DUP1 ISZERO PUSH2 0x461 JUMPI PUSH1 0x0 DUP1 REVERT JUMPDEST POP PUSH2 0x46A PUSH2 0xCC5 JUMP JUMPDEST STOP JUMPDEST CALLVALUE DUP1 ISZERO PUSH2 0x478 JUMPI PUSH1 0x0 DUP1 REVERT JUMPDEST POP PUSH2 0x481 PUSH2 0xE0B JUMP JUMPDEST STOP JUMPDEST PUSH2 0x48B PUSH2 0xF5E JUMP JUMPDEST STOP JUMPDEST CALLVALUE DUP1 ISZERO PUSH2 0x499 JUMPI PUSH1 0x0 DUP1 REVERT JUMPDEST POP PUSH2 0x4A2 PUSH2 0x110D JUMP JUMPDEST PUSH1 0x40 MLOAD PUSH2 0x4AF SWAP2 SWAP1 PUSH2 0x3171 JUMP JUMPDEST PUSH1 0x40 MLOAD DUP1 SWAP2 SUB SWAP1 RETURN JUMPDEST CALLVALUE DUP1 ISZERO PUSH2 0x4C4 JUMPI PUSH1 0x0 DUP1 REVERT JUMPDEST POP PUSH2 0x4CD PUSH2 0x1113 JUMP JUMPDEST STOP JUMPDEST CALLVALUE DUP1 ISZERO PUSH2 0x4DB JUMPI PUSH1 0x0 DUP1 REVERT JUMPDEST POP PUSH2 0x4E4 PUSH2 0x12EA JUMP JUMPDEST PUSH1 0x40 MLOAD PUSH2 0x4F1 SWAP2 SWAP1 PUSH2 0x2F2E JUMP JUMPDEST PUSH1 0x40 MLOAD DUP1 SWAP2 SUB SWAP1 RETURN JUMPDEST CALLVALUE DUP1 ISZERO PUSH2 0x506 JUMPI PUSH1 0x0 DUP1 REVERT JUMPDEST POP PUSH2 0x521 PUSH1 0x4 DUP1 CALLDATASIZE SUB DUP2 ADD SWAP1 PUSH2 0x51C SWAP2 SWAP1 PUSH2 0x27D5 JUMP JUMPDEST PUSH2 0x12FD JUMP JUMPDEST STOP JUMPDEST CALLVALUE DUP1 ISZERO PUSH2 0x52F JUMPI PUSH1 0x0 DUP1 REVERT JUMPDEST POP PUSH2 0x538 PUSH2 0x13D3 JUMP JUMPDEST STOP JUMPDEST CALLVALUE DUP1 ISZERO PUSH2 0x546 JUMPI PUSH1 0x0 DUP1 REVERT JUMPDEST POP PUSH2 0x54F PUSH2 0x1669 JUMP JUMPDEST PUSH1 0x40 MLOAD PUSH2 0x55C SWAP2 SWAP1 PUSH2 0x3171 JUMP JUMPDEST PUSH1 0x40 MLOAD DUP1 SWAP2 SUB SWAP1 RETURN JUMPDEST CALLVALUE DUP1 ISZERO PUSH2 0x571 JUMPI PUSH1 0x0 DUP1 REVERT JUMPDEST POP PUSH2 0x57A PUSH2 0x166F JUMP JUMPDEST PUSH1 0x40 MLOAD PUSH2 0x587 SWAP2 SWAP1 PUSH2 0x2E5A JUMP JUMPDEST PUSH1 0x40 MLOAD DUP1 SWAP2 SUB SWAP1 RETURN JUMPDEST CALLVALUE DUP1 ISZERO PUSH2 0x59C JUMPI PUSH1 0x0 DUP1 REVERT JUMPDEST POP PUSH2 0x5A5 PUSH2 0x1695 JUMP JUMPDEST PUSH1 0x40 MLOAD PUSH2 0x5B2 SWAP2 SWAP1 PUSH2 0x2FA5 JUMP JUMPDEST PUSH1 0x40 MLOAD DUP1 SWAP2 SUB SWAP1 RETURN JUMPDEST CALLVALUE DUP1 ISZERO PUSH2 0x5C7 JUMPI PUSH1 0x0 DUP1 REVERT JUMPDEST POP PUSH2 0x5E2 PUSH1 0x4 DUP1 CALLDATASIZE SUB DUP2 ADD SWAP1 PUSH2 0x5DD SWAP2 SWAP1 PUSH2 0x2926 JUMP JUMPDEST PUSH2 0x16A8 JUMP JUMPDEST PUSH1 0x40 MLOAD PUSH2 0x5EF SWAP2 SWAP1 PUSH2 0x2FC0 JUMP JUMPDEST PUSH1 0x40 MLOAD DUP1 SWAP2 SUB SWAP1 RETURN JUMPDEST CALLVALUE DUP1 ISZERO PUSH2 0x604 JUMPI PUSH1 0x0 DUP1 REVERT JUMPDEST POP PUSH2 0x61F PUSH1 0x4 DUP1 CALLDATASIZE SUB DUP2 ADD SWAP1 PUSH2 0x61A SWAP2 SWAP1 PUSH2 0x2850 JUMP JUMPDEST PUSH2 0x16C3 JUMP JUMPDEST STOP JUMPDEST CALLVALUE DUP1 ISZERO PUSH2 0x62D JUMPI PUSH1 0x0 DUP1 REVERT JUMPDEST POP PUSH2 0x636 PUSH2 0x185C JUMP JUMPDEST STOP JUMPDEST CALLVALUE DUP1 ISZERO PUSH2 0x644 JUMPI PUSH1 0x0 DUP1 REVERT JUMPDEST POP PUSH2 0x64D PUSH2 0x19A2 JUMP JUMPDEST PUSH1 0x40 MLOAD PUSH2 0x65A SWAP2 SWAP1 PUSH2 0x2E3F JUMP JUMPDEST PUSH1 0x40 MLOAD DUP1 SWAP2 SUB SWAP1 RETURN JUMPDEST CALLVALUE DUP1 ISZERO PUSH2 0x66F JUMPI PUSH1 0x0 DUP1 REVERT JUMPDEST POP PUSH2 0x68A PUSH1 0x4 DUP1 CALLDATASIZE SUB DUP2 ADD SWAP1 PUSH2 0x685 SWAP2 SWAP1 PUSH2 0x2899 JUMP JUMPDEST PUSH2 0x19C6 JUMP JUMPDEST STOP JUMPDEST CALLVALUE DUP1 ISZERO PUSH2 0x698 JUMPI PUSH1 0x0 DUP1 REVERT JUMPDEST POP PUSH2 0x6A1 PUSH2 0x1D97 JUMP JUMPDEST PUSH1 0x40 MLOAD PUSH2 0x6B8 SWAP12 SWAP11 SWAP10 SWAP9 SWAP8 SWAP7 SWAP6 SWAP5 SWAP4 SWAP3 SWAP2 SWAP1 PUSH2 0x2E75 JUMP JUMPDEST PUSH1 0x40 MLOAD DUP1 SWAP2 SUB SWAP1 RETURN JUMPDEST PUSH1 0x3 SLOAD DUP2 JUMP JUMPDEST PUSH1 0x1 PUSH1 0x0 SWAP1 SLOAD SWAP1 PUSH2 0x100 EXP SWAP1 DIV PUSH20 0xFFFFFFFFFFFFFFFFFFFFFFFFFFFFFFFFFFFFFFFF AND DUP2 JUMP JUMPDEST PUSH1 0x1 PUSH32 0xDD970DD9B5BFE707922155B058A407655CB18288B807E2216442BCA8AD83D6B5 PUSH1 0x9 PUSH1 0x0 SWAP1 SLOAD SWAP1 PUSH2 0x100 EXP SWAP1 DIV PUSH1 0xFF AND PUSH1 0x4 DUP2 GT ISZERO PUSH2 0x732 JUMPI PUSH2 0x731 PUSH2 0x36B8 JUMP JUMPDEST JUMPDEST PUSH1 0x40 MLOAD PUSH2 0x73F SWAP2 SWAP1 PUSH2 0x30D5 JUMP JUMPDEST PUSH1 0x40 MLOAD DUP1 SWAP2 SUB SWAP1 LOG1 PUSH32 0xDD970DD9B5BFE707922155B058A407655CB18288B807E2216442BCA8AD83D6B5 DUP2 PUSH1 0x4 DUP2 GT ISZERO PUSH2 0x77B JUMPI PUSH2 0x77A PUSH2 0x36B8 JUMP JUMPDEST JUMPDEST PUSH1 0x40 MLOAD PUSH2 0x788 SWAP2 SWAP1 PUSH2 0x3103 JUMP JUMPDEST PUSH1 0x40 MLOAD DUP1 SWAP2 SUB SWAP1 LOG1 DUP1 PUSH1 0x4 DUP2 GT ISZERO PUSH2 0x7A3 JUMPI PUSH2 0x7A2 PUSH2 0x36B8 JUMP JUMPDEST JUMPDEST PUSH1 0x9 PUSH1 0x0 SWAP1 SLOAD SWAP1 PUSH2 0x100 EXP SWAP1 DIV PUSH1 0xFF AND PUSH1 0x4 DUP2 GT ISZERO PUSH2 0x7C5 JUMPI PUSH2 0x7C4 PUSH2 0x36B8 JUMP JUMPDEST JUMPDEST EQ PUSH2 0x805 JUMPI PUSH1 0x40 MLOAD PUSH32 0x8C379A000000000000000000000000000000000000000000000000000000000 DUP2 MSTORE PUSH1 0x4 ADD PUSH2 0x7FC SWAP1 PUSH2 0x3151 JUMP JUMPDEST PUSH1 0x40 MLOAD DUP1 SWAP2 SUB SWAP1 REVERT JUMPDEST PUSH1 0x0 DUP1 SLOAD SWAP1 PUSH2 0x100 EXP SWAP1 DIV PUSH20 0xFFFFFFFFFFFFFFFFFFFFFFFFFFFFFFFFFFFFFFFF AND PUSH20 0xFFFFFFFFFFFFFFFFFFFFFFFFFFFFFFFFFFFFFFFF AND CALLER PUSH20 0xFFFFFFFFFFFFFFFFFFFFFFFFFFFFFFFFFFFFFFFF AND EQ PUSH2 0x893 JUMPI PUSH1 0x40 MLOAD PUSH32 0x8C379A000000000000000000000000000000000000000000000000000000000 DUP2 MSTORE PUSH1 0x4 ADD PUSH2 0x88A SWAP1 PUSH2 0x302B JUMP JUMPDEST PUSH1 0x40 MLOAD DUP1 SWAP2 SUB SWAP1 REVERT JUMPDEST PUSH1 0x1 PUSH1 0x2 PUSH1 0x14 PUSH2 0x100 EXP DUP2 SLOAD DUP2 PUSH1 0xFF MUL NOT AND SWAP1 DUP4 ISZERO ISZERO MUL OR SWAP1 SSTORE POP PUSH1 0x3 PUSH1 0x9 PUSH1 0x0 PUSH2 0x100 EXP DUP2 SLOAD DUP2 PUSH1 0xFF MUL NOT AND SWAP1 DUP4 PUSH1 0x4 DUP2 GT ISZERO PUSH2 0x8D4 JUMPI PUSH2 0x8D3 PUSH2 0x36B8 JUMP JUMPDEST JUMPDEST MUL OR SWAP1 SSTORE POP POP JUMP JUMPDEST PUSH1 0x3 PUSH32 0xDD970DD9B5BFE707922155B058A407655CB18288B807E2216442BCA8AD83D6B5 PUSH1 0x9 PUSH1 0x0 SWAP1 SLOAD SWAP1 PUSH2 0x100 EXP SWAP1 DIV PUSH1 0xFF AND PUSH1 0x4 DUP2 GT ISZERO PUSH2 0x921 JUMPI PUSH2 0x920 PUSH2 0x36B8 JUMP JUMPDEST JUMPDEST PUSH1 0x40 MLOAD PUSH2 0x92E SWAP2 SWAP1 PUSH2 0x30D5 JUMP JUMPDEST PUSH1 0x40 MLOAD DUP1 SWAP2 SUB SWAP1 LOG1 PUSH32 0xDD970DD9B5BFE707922155B058A407655CB18288B807E2216442BCA8AD83D6B5 DUP2 PUSH1 0x4 DUP2 GT ISZERO PUSH2 0x96A JUMPI PUSH2 0x969 PUSH2 0x36B8 JUMP JUMPDEST JUMPDEST PUSH1 0x40 MLOAD PUSH2 0x977 SWAP2 SWAP1 PUSH2 0x3103 JUMP JUMPDEST PUSH1 0x40 MLOAD DUP1 SWAP2 SUB SWAP1 LOG1 DUP1 PUSH1 0x4 DUP2 GT ISZERO PUSH2 0x992 JUMPI PUSH2 0x991 PUSH2 0x36B8 JUMP JUMPDEST JUMPDEST PUSH1 0x9 PUSH1 0x0 SWAP1 SLOAD SWAP1 PUSH2 0x100 EXP SWAP1 DIV PUSH1 0xFF AND PUSH1 0x4 DUP2 GT ISZERO PUSH2 0x9B4 JUMPI PUSH2 0x9B3 PUSH2 0x36B8 JUMP JUMPDEST JUMPDEST EQ PUSH2 0x9F4 JUMPI PUSH1 0x40 MLOAD PUSH32 0x8C379A000000000000000000000000000000000000000000000000000000000 DUP2 MSTORE PUSH1 0x4 ADD PUSH2 0x9EB SWAP1 PUSH2 0x3151 JUMP JUMPDEST PUSH1 0x40 MLOAD DUP1 SWAP2 SUB SWAP1 REVERT JUMPDEST PUSH1 0x7 SLOAD NUMBER GT ISZERO PUSH2 0xA0B JUMPI PUSH2 0xA06 PUSH2 0x13D3 JUMP JUMPDEST PUSH2 0xADC JUMP JUMPDEST PUSH1 0x6 SLOAD NUMBER LT ISZERO DUP1 ISZERO PUSH2 0xA1F JUMPI POP PUSH1 0x7 SLOAD NUMBER GT ISZERO JUMPDEST PUSH2 0xA5E JUMPI PUSH1 0x40 MLOAD PUSH32 0x8C379A000000000000000000000000000000000000000000000000000000000 DUP2 MSTORE PUSH1 0x4 ADD PUSH2 0xA55 SWAP1 PUSH2 0x3131 JUMP JUMPDEST PUSH1 0x40 MLOAD DUP1 SWAP2 SUB SWAP1 REVERT JUMPDEST PUSH1 0x0 JUMPDEST PUSH1 0x2B SLOAD DUP2 LT ISZERO PUSH2 0xAC2 JUMPI DUP3 DUP2 DUP2 MLOAD DUP2 LT PUSH2 0xA7E JUMPI PUSH2 0xA7D PUSH2 0x3716 JUMP JUMPDEST JUMPDEST PUSH1 0x20 MUL PUSH1 0x20 ADD ADD MLOAD PUSH1 0x2C PUSH1 0x0 DUP4 DUP2 MSTORE PUSH1 0x20 ADD SWAP1 DUP2 MSTORE PUSH1 0x20 ADD PUSH1 0x0 KECCAK256 PUSH1 0x0 DUP3 DUP3 SLOAD PUSH2 0xAA8 SWAP2 SWAP1 PUSH2 0x32EC JUMP JUMPDEST SWAP3 POP POP DUP2 SWAP1 SSTORE POP DUP1 DUP1 PUSH2 0xABA SWAP1 PUSH2 0x3611 JUMP JUMPDEST SWAP2 POP POP PUSH2 0xA61 JUMP JUMPDEST POP PUSH1 0x2D PUSH1 0x0 DUP2 SLOAD DUP1 SWAP3 SWAP2 SWAP1 PUSH2 0xAD6 SWAP1 PUSH2 0x35C8 JUMP JUMPDEST SWAP2 SWAP1 POP SSTORE POP JUMPDEST POP POP JUMP JUMPDEST PUSH1 0x6 SLOAD DUP2 JUMP JUMPDEST PUSH1 0x2 PUSH1 0x15 SWAP1 SLOAD SWAP1 PUSH2 0x100 EXP SWAP1 DIV PUSH1 0xFF AND DUP2 JUMP JUMPDEST PUSH1 0x9 PUSH1 0x1 SWAP1 SLOAD SWAP1 PUSH2 0x100 EXP SWAP1 DIV PUSH1 0xFF AND DUP2 JUMP JUMPDEST DUP1 PUSH1 0x2 PUSH1 0x0 PUSH2 0x100 EXP DUP2 SLOAD DUP2 PUSH20 0xFFFFFFFFFFFFFFFFFFFFFFFFFFFFFFFFFFFFFFFF MUL NOT AND SWAP1 DUP4 PUSH20 0xFFFFFFFFFFFFFFFFFFFFFFFFFFFFFFFFFFFFFFFF AND MUL OR SWAP1 SSTORE POP POP JUMP JUMPDEST PUSH1 0x7 SLOAD DUP2 JUMP JUMPDEST PUSH1 0xA DUP2 PUSH1 0x8 DUP2 LT PUSH2 0xB66 JUMPI PUSH1 0x0 DUP1 REVERT JUMPDEST ADD PUSH1 0x0 SWAP2 POP SWAP1 POP DUP1 SLOAD PUSH2 0xB78 SWAP1 PUSH2 0x3565 JUMP JUMPDEST DUP1 PUSH1 0x1F ADD PUSH1 0x20 DUP1 SWAP2 DIV MUL PUSH1 0x20 ADD PUSH1 0x40 MLOAD SWAP1 DUP2 ADD PUSH1 0x40 MSTORE DUP1 SWAP3 SWAP2 SWAP1 DUP2 DUP2 MSTORE PUSH1 0x20 ADD DUP3 DUP1 SLOAD PUSH2 0xBA4 SWAP1 PUSH2 0x3565 JUMP JUMPDEST DUP1 ISZERO PUSH2 0xBF1 JUMPI DUP1 PUSH1 0x1F LT PUSH2 0xBC6 JUMPI PUSH2 0x100 DUP1 DUP4 SLOAD DIV MUL DUP4 MSTORE SWAP2 PUSH1 0x20 ADD SWAP2 PUSH2 0xBF1 JUMP JUMPDEST DUP3 ADD SWAP2 SWAP1 PUSH1 0x0 MSTORE PUSH1 0x20 PUSH1 0x0 KECCAK256 SWAP1 JUMPDEST DUP2 SLOAD DUP2 MSTORE SWAP1 PUSH1 0x1 ADD SWAP1 PUSH1 0x20 ADD DUP1 DUP4 GT PUSH2 0xBD4 JUMPI DUP3 SWAP1 SUB PUSH1 0x1F AND DUP3 ADD SWAP2 JUMPDEST POP POP POP POP POP DUP2 JUMP JUMPDEST PUSH1 0x4 SLOAD DUP2 JUMP JUMPDEST PUSH1 0x12 DUP2 PUSH1 0x8 DUP2 LT PUSH2 0xC0F JUMPI PUSH1 0x0 DUP1 REVERT JUMPDEST ADD PUSH1 0x0 SWAP2 POP SWAP1 POP SLOAD DUP2 JUMP JUMPDEST PUSH1 0x22 DUP2 PUSH1 0x8 DUP2 LT PUSH2 0xC2A JUMPI PUSH1 0x0 DUP1 REVERT JUMPDEST ADD PUSH1 0x0 SWAP2 POP SWAP1 POP DUP1 SLOAD PUSH2 0xC3C SWAP1 PUSH2 0x3565 JUMP JUMPDEST DUP1 PUSH1 0x1F ADD PUSH1 0x20 DUP1 SWAP2 DIV MUL PUSH1 0x20 ADD PUSH1 0x40 MLOAD SWAP1 DUP2 ADD PUSH1 0x40 MSTORE DUP1 SWAP3 SWAP2 SWAP1 DUP2 DUP2 MSTORE PUSH1 0x20 ADD DUP3 DUP1 SLOAD PUSH2 0xC68 SWAP1 PUSH2 0x3565 JUMP JUMPDEST DUP1 ISZERO PUSH2 0xCB5 JUMPI DUP1 PUSH1 0x1F LT PUSH2 0xC8A JUMPI PUSH2 0x100 DUP1 DUP4 SLOAD DIV MUL DUP4 MSTORE SWAP2 PUSH1 0x20 ADD SWAP2 PUSH2 0xCB5 JUMP JUMPDEST DUP3 ADD SWAP2 SWAP1 PUSH1 0x0 MSTORE PUSH1 0x20 PUSH1 0x0 KECCAK256 SWAP1 JUMPDEST DUP2 SLOAD DUP2 MSTORE SWAP1 PUSH1 0x1 ADD SWAP1 PUSH1 0x20 ADD DUP1 DUP4 GT PUSH2 0xC98 JUMPI DUP3 SWAP1 SUB PUSH1 0x1F AND DUP3 ADD SWAP2 JUMPDEST POP POP POP POP POP DUP2 JUMP JUMPDEST PUSH1 0x0 SELFBALANCE SWAP1 POP SWAP1 JUMP JUMPDEST PUSH1 0x2 PUSH32 0xDD970DD9B5BFE707922155B058A407655CB18288B807E2216442BCA8AD83D6B5 PUSH1 0x9 PUSH1 0x0 SWAP1 SLOAD SWAP1 PUSH2 0x100 EXP SWAP1 DIV PUSH1 0xFF AND PUSH1 0x4 DUP2 GT ISZERO PUSH2 0xD0A JUMPI PUSH2 0xD09 PUSH2 0x36B8 JUMP JUMPDEST JUMPDEST PUSH1 0x40 MLOAD PUSH2 0xD17 SWAP2 SWAP1 PUSH2 0x30D5 JUMP JUMPDEST PUSH1 0x40 MLOAD DUP1 SWAP2 SUB SWAP1 LOG1 PUSH32 0xDD970DD9B5BFE707922155B058A407655CB18288B807E2216442BCA8AD83D6B5 DUP2 PUSH1 0x4 DUP2 GT ISZERO PUSH2 0xD53 JUMPI PUSH2 0xD52 PUSH2 0x36B8 JUMP JUMPDEST JUMPDEST PUSH1 0x40 MLOAD PUSH2 0xD60 SWAP2 SWAP1 PUSH2 0x3103 JUMP JUMPDEST PUSH1 0x40 MLOAD DUP1 SWAP2 SUB SWAP1 LOG1 DUP1 PUSH1 0x4 DUP2 GT ISZERO PUSH2 0xD7B JUMPI PUSH2 0xD7A PUSH2 0x36B8 JUMP JUMPDEST JUMPDEST PUSH1 0x9 PUSH1 0x0 SWAP1 SLOAD SWAP1 PUSH2 0x100 EXP SWAP1 DIV PUSH1 0xFF AND PUSH1 0x4 DUP2 GT ISZERO PUSH2 0xD9D JUMPI PUSH2 0xD9C PUSH2 0x36B8 JUMP JUMPDEST JUMPDEST EQ PUSH2 0xDDD JUMPI PUSH1 0x40 MLOAD PUSH32 0x8C379A000000000000000000000000000000000000000000000000000000000 DUP2 MSTORE PUSH1 0x4 ADD PUSH2 0xDD4 SWAP1 PUSH2 0x3151 JUMP JUMPDEST PUSH1 0x40 MLOAD DUP1 SWAP2 SUB SWAP1 REVERT JUMPDEST PUSH1 0x3 PUSH1 0x9 PUSH1 0x0 PUSH2 0x100 EXP DUP2 SLOAD DUP2 PUSH1 0xFF MUL NOT AND SWAP1 DUP4 PUSH1 0x4 DUP2 GT ISZERO PUSH2 0xE03 JUMPI PUSH2 0xE02 PUSH2 0x36B8 JUMP JUMPDEST JUMPDEST MUL OR SWAP1 SSTORE POP POP JUMP JUMPDEST PUSH1 0x2 PUSH32 0xDD970DD9B5BFE707922155B058A407655CB18288B807E2216442BCA8AD83D6B5 PUSH1 0x9 PUSH1 0x0 SWAP1 SLOAD SWAP1 PUSH2 0x100 EXP SWAP1 DIV PUSH1 0xFF AND PUSH1 0x4 DUP2 GT ISZERO PUSH2 0xE50 JUMPI PUSH2 0xE4F PUSH2 0x36B8 JUMP JUMPDEST JUMPDEST PUSH1 0x40 MLOAD PUSH2 0xE5D SWAP2 SWAP1 PUSH2 0x30D5 JUMP JUMPDEST PUSH1 0x40 MLOAD DUP1 SWAP2 SUB SWAP1 LOG1 PUSH32 0xDD970DD9B5BFE707922155B058A407655CB18288B807E2216442BCA8AD83D6B5 DUP2 PUSH1 0x4 DUP2 GT ISZERO PUSH2 0xE99 JUMPI PUSH2 0xE98 PUSH2 0x36B8 JUMP JUMPDEST JUMPDEST PUSH1 0x40 MLOAD PUSH2 0xEA6 SWAP2 SWAP1 PUSH2 0x3103 JUMP JUMPDEST PUSH1 0x40 MLOAD DUP1 SWAP2 SUB SWAP1 LOG1 DUP1 PUSH1 0x4 DUP2 GT ISZERO PUSH2 0xEC1 JUMPI PUSH2 0xEC0 PUSH2 0x36B8 JUMP JUMPDEST JUMPDEST PUSH1 0x9 PUSH1 0x0 SWAP1 SLOAD SWAP1 PUSH2 0x100 EXP SWAP1 DIV PUSH1 0xFF AND PUSH1 0x4 DUP2 GT ISZERO PUSH2 0xEE3 JUMPI PUSH2 0xEE2 PUSH2 0x36B8 JUMP JUMPDEST JUMPDEST EQ PUSH2 0xF23 JUMPI PUSH1 0x40 MLOAD PUSH32 0x8C379A000000000000000000000000000000000000000000000000000000000 DUP2 MSTORE PUSH1 0x4 ADD PUSH2 0xF1A SWAP1 PUSH2 0x3151 JUMP JUMPDEST PUSH1 0x40 MLOAD DUP1 SWAP2 SUB SWAP1 REVERT JUMPDEST PUSH1 0x1 PUSH1 0x0 SWAP1 SLOAD SWAP1 PUSH2 0x100 EXP SWAP1 DIV PUSH20 0xFFFFFFFFFFFFFFFFFFFFFFFFFFFFFFFFFFFFFFFF AND PUSH20 0xFFFFFFFFFFFFFFFFFFFFFFFFFFFFFFFFFFFFFFFF AND SELFDESTRUCT JUMPDEST PUSH1 0x3 PUSH32 0xDD970DD9B5BFE707922155B058A407655CB18288B807E2216442BCA8AD83D6B5 PUSH1 0x9 PUSH1 0x0 SWAP1 SLOAD SWAP1 PUSH2 0x100 EXP SWAP1 DIV PUSH1 0xFF AND PUSH1 0x4 DUP2 GT ISZERO PUSH2 0xFA3 JUMPI PUSH2 0xFA2 PUSH2 0x36B8 JUMP JUMPDEST JUMPDEST PUSH1 0x40 MLOAD PUSH2 0xFB0 SWAP2 SWAP1 PUSH2 0x30D5 JUMP JUMPDEST PUSH1 0x40 MLOAD DUP1 SWAP2 SUB SWAP1 LOG1 PUSH32 0xDD970DD9B5BFE707922155B058A407655CB18288B807E2216442BCA8AD83D6B5 DUP2 PUSH1 0x4 DUP2 GT ISZERO PUSH2 0xFEC JUMPI PUSH2 0xFEB PUSH2 0x36B8 JUMP JUMPDEST JUMPDEST PUSH1 0x40 MLOAD PUSH2 0xFF9 SWAP2 SWAP1 PUSH2 0x3103 JUMP JUMPDEST PUSH1 0x40 MLOAD DUP1 SWAP2 SUB SWAP1 LOG1 DUP1 PUSH1 0x4 DUP2 GT ISZERO PUSH2 0x1014 JUMPI PUSH2 0x1013 PUSH2 0x36B8 JUMP JUMPDEST JUMPDEST PUSH1 0x9 PUSH1 0x0 SWAP1 SLOAD SWAP1 PUSH2 0x100 EXP SWAP1 DIV PUSH1 0xFF AND PUSH1 0x4 DUP2 GT ISZERO PUSH2 0x1036 JUMPI PUSH2 0x1035 PUSH2 0x36B8 JUMP JUMPDEST JUMPDEST EQ PUSH2 0x1076 JUMPI PUSH1 0x40 MLOAD PUSH32 0x8C379A000000000000000000000000000000000000000000000000000000000 DUP2 MSTORE PUSH1 0x4 ADD PUSH2 0x106D SWAP1 PUSH2 0x3151 JUMP JUMPDEST PUSH1 0x40 MLOAD DUP1 SWAP2 SUB SWAP1 REVERT JUMPDEST PUSH1 0x7 SLOAD NUMBER GT ISZERO PUSH2 0x108D JUMPI PUSH2 0x1088 PUSH2 0x13D3 JUMP JUMPDEST PUSH2 0x110A JUMP JUMPDEST PUSH1 0x6 SLOAD NUMBER LT ISZERO DUP1 ISZERO PUSH2 0x10A1 JUMPI POP PUSH1 0x7 SLOAD NUMBER GT ISZERO JUMPDEST PUSH2 0x10E0 JUMPI PUSH1 0x40 MLOAD PUSH32 0x8C379A000000000000000000000000000000000000000000000000000000000 DUP2 MSTORE PUSH1 0x4 ADD PUSH2 0x10D7 SWAP1 PUSH2 0x3131 JUMP JUMPDEST PUSH1 0x40 MLOAD DUP1 SWAP2 SUB SWAP1 REVERT JUMPDEST PUSH1 0x5 SLOAD CALLVALUE EQ PUSH2 0x10EE JUMPI PUSH1 0x0 DUP1 REVERT JUMPDEST PUSH1 0x1 PUSH1 0x2 PUSH1 0x15 PUSH2 0x100 EXP DUP2 SLOAD DUP2 PUSH1 0xFF MUL NOT AND SWAP1 DUP4 ISZERO ISZERO MUL OR SWAP1 SSTORE POP JUMPDEST POP JUMP JUMPDEST PUSH1 0x8 SLOAD DUP2 JUMP JUMPDEST PUSH1 0x0 PUSH32 0xDD970DD9B5BFE707922155B058A407655CB18288B807E2216442BCA8AD83D6B5 PUSH1 0x9 PUSH1 0x0 SWAP1 SLOAD SWAP1 PUSH2 0x100 EXP SWAP1 DIV PUSH1 0xFF AND PUSH1 0x4 DUP2 GT ISZERO PUSH2 0x1158 JUMPI PUSH2 0x1157 PUSH2 0x36B8 JUMP JUMPDEST JUMPDEST PUSH1 0x40 MLOAD PUSH2 0x1165 SWAP2 SWAP1 PUSH2 0x30D5 JUMP JUMPDEST PUSH1 0x40 MLOAD DUP1 SWAP2 SUB SWAP1 LOG1 PUSH32 0xDD970DD9B5BFE707922155B058A407655CB18288B807E2216442BCA8AD83D6B5 DUP2 PUSH1 0x4 DUP2 GT ISZERO PUSH2 0x11A1 JUMPI PUSH2 0x11A0 PUSH2 0x36B8 JUMP JUMPDEST JUMPDEST PUSH1 0x40 MLOAD PUSH2 0x11AE SWAP2 SWAP1 PUSH2 0x3103 JUMP JUMPDEST PUSH1 0x40 MLOAD DUP1 SWAP2 SUB SWAP1 LOG1 DUP1 PUSH1 0x4 DUP2 GT ISZERO PUSH2 0x11C9 JUMPI PUSH2 0x11C8 PUSH2 0x36B8 JUMP JUMPDEST JUMPDEST PUSH1 0x9 PUSH1 0x0 SWAP1 SLOAD SWAP1 PUSH2 0x100 EXP SWAP1 DIV PUSH1 0xFF AND PUSH1 0x4 DUP2 GT ISZERO PUSH2 0x11EB JUMPI PUSH2 0x11EA PUSH2 0x36B8 JUMP JUMPDEST JUMPDEST EQ PUSH2 0x122B JUMPI PUSH1 0x40 MLOAD PUSH32 0x8C379A000000000000000000000000000000000000000000000000000000000 DUP2 MSTORE PUSH1 0x4 ADD PUSH2 0x1222 SWAP1 PUSH2 0x3151 JUMP JUMPDEST PUSH1 0x40 MLOAD DUP1 SWAP2 SUB SWAP1 REVERT JUMPDEST PUSH32 0xDD970DD9B5BFE707922155B058A407655CB18288B807E2216442BCA8AD83D6B5 PUSH1 0x9 PUSH1 0x0 SWAP1 SLOAD SWAP1 PUSH2 0x100 EXP SWAP1 DIV PUSH1 0xFF AND PUSH1 0x4 DUP2 GT ISZERO PUSH2 0x126E JUMPI PUSH2 0x126D PUSH2 0x36B8 JUMP JUMPDEST JUMPDEST PUSH1 0x40 MLOAD PUSH2 0x127B SWAP2 SWAP1 PUSH2 0x30A7 JUMP JUMPDEST PUSH1 0x40 MLOAD DUP1 SWAP2 SUB SWAP1 LOG1 PUSH1 0x1 PUSH1 0x9 PUSH1 0x0 PUSH2 0x100 EXP DUP2 SLOAD DUP2 PUSH1 0xFF MUL NOT AND SWAP1 DUP4 PUSH1 0x4 DUP2 GT ISZERO PUSH2 0x12A9 JUMPI PUSH2 0x12A8 PUSH2 0x36B8 JUMP JUMPDEST JUMPDEST MUL OR SWAP1 SSTORE POP PUSH1 0x0 JUMPDEST PUSH1 0x8 DUP2 LT ISZERO PUSH2 0x12E6 JUMPI PUSH1 0x0 PUSH1 0x2C PUSH1 0x0 DUP4 DUP2 MSTORE PUSH1 0x20 ADD SWAP1 DUP2 MSTORE PUSH1 0x20 ADD PUSH1 0x0 KECCAK256 DUP2 SWAP1 SSTORE POP DUP1 DUP1 PUSH2 0x12DE SWAP1 PUSH2 0x3611 JUMP JUMPDEST SWAP2 POP POP PUSH2 0x12B1 JUMP JUMPDEST POP POP JUMP JUMPDEST PUSH1 0x2 PUSH1 0x14 SWAP1 SLOAD SWAP1 PUSH2 0x100 EXP SWAP1 DIV PUSH1 0xFF AND DUP2 JUMP JUMPDEST CALLER PUSH1 0x0 DUP1 PUSH2 0x100 EXP DUP2 SLOAD DUP2 PUSH20 0xFFFFFFFFFFFFFFFFFFFFFFFFFFFFFFFFFFFFFFFF MUL NOT AND SWAP1 DUP4 PUSH20 0xFFFFFFFFFFFFFFFFFFFFFFFFFFFFFFFFFFFFFFFF AND MUL OR SWAP1 SSTORE POP DUP5 PUSH1 0x1 PUSH1 0x0 PUSH2 0x100 EXP DUP2 SLOAD DUP2 PUSH20 0xFFFFFFFFFFFFFFFFFFFFFFFFFFFFFFFFFFFFFFFF MUL NOT AND SWAP1 DUP4 PUSH20 0xFFFFFFFFFFFFFFFFFFFFFFFFFFFFFFFFFFFFFFFF AND MUL OR SWAP1 SSTORE POP DUP4 PUSH1 0x4 DUP2 SWAP1 SSTORE POP DUP3 PUSH1 0x3 DUP2 SWAP1 SSTORE POP PUSH2 0x1395 DUP4 PUSH2 0x1FFD JUMP JUMPDEST PUSH1 0x6 DUP2 SWAP1 SSTORE POP PUSH2 0x13B0 PUSH1 0x1E DUP5 PUSH2 0x13AB SWAP2 SWAP1 PUSH2 0x3380 JUMP JUMPDEST PUSH2 0x1FFD JUMP JUMPDEST PUSH1 0x7 DUP2 SWAP1 SSTORE POP DUP2 PUSH1 0x8 DUP2 SWAP1 SSTORE POP DUP1 PUSH1 0x5 DUP2 SWAP1 SSTORE POP PUSH2 0x13CC PUSH2 0x201F JUMP JUMPDEST POP POP POP POP POP JUMP JUMPDEST PUSH1 0x3 PUSH32 0xDD970DD9B5BFE707922155B058A407655CB18288B807E2216442BCA8AD83D6B5 PUSH1 0x9 PUSH1 0x0 SWAP1 SLOAD SWAP1 PUSH2 0x100 EXP SWAP1 DIV PUSH1 0xFF AND PUSH1 0x4 DUP2 GT ISZERO PUSH2 0x1418 JUMPI PUSH2 0x1417 PUSH2 0x36B8 JUMP JUMPDEST JUMPDEST PUSH1 0x40 MLOAD PUSH2 0x1425 SWAP2 SWAP1 PUSH2 0x30D5 JUMP JUMPDEST PUSH1 0x40 MLOAD DUP1 SWAP2 SUB SWAP1 LOG1 PUSH32 0xDD970DD9B5BFE707922155B058A407655CB18288B807E2216442BCA8AD83D6B5 DUP2 PUSH1 0x4 DUP2 GT ISZERO PUSH2 0x1461 JUMPI PUSH2 0x1460 PUSH2 0x36B8 JUMP JUMPDEST JUMPDEST PUSH1 0x40 MLOAD PUSH2 0x146E SWAP2 SWAP1 PUSH2 0x3103 JUMP JUMPDEST PUSH1 0x40 MLOAD DUP1 SWAP2 SUB SWAP1 LOG1 DUP1 PUSH1 0x4 DUP2 GT ISZERO PUSH2 0x1489 JUMPI PUSH2 0x1488 PUSH2 0x36B8 JUMP JUMPDEST JUMPDEST PUSH1 0x9 PUSH1 0x0 SWAP1 SLOAD SWAP1 PUSH2 0x100 EXP SWAP1 DIV PUSH1 0xFF AND PUSH1 0x4 DUP2 GT ISZERO PUSH2 0x14AB JUMPI PUSH2 0x14AA PUSH2 0x36B8 JUMP JUMPDEST JUMPDEST EQ PUSH2 0x14EB JUMPI PUSH1 0x40 MLOAD PUSH32 0x8C379A000000000000000000000000000000000000000000000000000000000 DUP2 MSTORE PUSH1 0x4 ADD PUSH2 0x14E2 SWAP1 PUSH2 0x3151 JUMP JUMPDEST PUSH1 0x40 MLOAD DUP1 SWAP2 SUB SWAP1 REVERT JUMPDEST PUSH1 0x0 JUMPDEST PUSH1 0x2B SLOAD DUP2 LT ISZERO PUSH2 0x15E4 JUMPI PUSH1 0x0 PUSH1 0x1A DUP3 PUSH1 0x8 DUP2 LT PUSH2 0x150E JUMPI PUSH2 0x150D PUSH2 0x3716 JUMP JUMPDEST JUMPDEST ADD SLOAD SWAP1 POP PUSH1 0x0 PUSH1 0x12 DUP4 PUSH1 0x8 DUP2 LT PUSH2 0x1528 JUMPI PUSH2 0x1527 PUSH2 0x3716 JUMP JUMPDEST JUMPDEST ADD SLOAD SWAP1 POP PUSH1 0x0 PUSH1 0x2D SLOAD PUSH1 0x2C PUSH1 0x0 DUP7 DUP2 MSTORE PUSH1 0x20 ADD SWAP1 DUP2 MSTORE PUSH1 0x20 ADD PUSH1 0x0 KECCAK256 SLOAD PUSH2 0x154F SWAP2 SWAP1 PUSH2 0x33D6 JUMP JUMPDEST SWAP1 POP PUSH2 0x155C DUP4 DUP3 DUP5 PUSH2 0x20ED JUMP JUMPDEST PUSH2 0x15CE JUMPI PUSH2 0x1568 PUSH2 0x2199 JUMP JUMPDEST CALLER PUSH20 0xFFFFFFFFFFFFFFFFFFFFFFFFFFFFFFFFFFFFFFFF AND PUSH32 0xA84226BF2D14BDE3FAC454F52EAEAB63AAEB1934DA88F9263DD4FF7DD12ACF71 PUSH1 0x9 PUSH1 0x1 SWAP1 SLOAD SWAP1 PUSH2 0x100 EXP SWAP1 DIV PUSH1 0xFF AND PUSH1 0x40 MLOAD PUSH2 0x15BD SWAP2 SWAP1 PUSH2 0x2F49 JUMP JUMPDEST PUSH1 0x40 MLOAD DUP1 SWAP2 SUB SWAP1 LOG2 POP POP POP POP PUSH2 0x1666 JUMP JUMPDEST POP POP POP DUP1 DUP1 PUSH2 0x15DC SWAP1 PUSH2 0x3611 JUMP JUMPDEST SWAP2 POP POP PUSH2 0x14EE JUMP JUMPDEST POP PUSH1 0x1 PUSH1 0x9 PUSH1 0x1 PUSH2 0x100 EXP DUP2 SLOAD DUP2 PUSH1 0xFF MUL NOT AND SWAP1 DUP4 ISZERO ISZERO MUL OR SWAP1 SSTORE POP CALLER PUSH20 0xFFFFFFFFFFFFFFFFFFFFFFFFFFFFFFFFFFFFFFFF AND PUSH32 0xA84226BF2D14BDE3FAC454F52EAEAB63AAEB1934DA88F9263DD4FF7DD12ACF71 PUSH1 0x9 PUSH1 0x1 SWAP1 SLOAD SWAP1 PUSH2 0x100 EXP SWAP1 DIV PUSH1 0xFF AND PUSH1 0x40 MLOAD PUSH2 0x1655 SWAP2 SWAP1 PUSH2 0x2F77 JUMP JUMPDEST PUSH1 0x40 MLOAD DUP1 SWAP2 SUB SWAP1 LOG2 PUSH2 0x1665 PUSH2 0x2229 JUMP JUMPDEST JUMPDEST POP JUMP JUMPDEST PUSH1 0x5 SLOAD DUP2 JUMP JUMPDEST PUSH1 0x2 PUSH1 0x0 SWAP1 SLOAD SWAP1 PUSH2 0x100 EXP SWAP1 DIV PUSH20 0xFFFFFFFFFFFFFFFFFFFFFFFFFFFFFFFFFFFFFFFF AND DUP2 JUMP JUMPDEST PUSH1 0x9 PUSH1 0x0 SWAP1 SLOAD SWAP1 PUSH2 0x100 EXP SWAP1 DIV PUSH1 0xFF AND DUP2 JUMP JUMPDEST PUSH1 0x1A DUP2 PUSH1 0x8 DUP2 LT PUSH2 0x16B8 JUMPI PUSH1 0x0 DUP1 REVERT JUMPDEST ADD PUSH1 0x0 SWAP2 POP SWAP1 POP SLOAD DUP2 JUMP JUMPDEST PUSH1 0x3 PUSH32 0xDD970DD9B5BFE707922155B058A407655CB18288B807E2216442BCA8AD83D6B5 PUSH1 0x9 PUSH1 0x0 SWAP1 SLOAD SWAP1 PUSH2 0x100 EXP SWAP1 DIV PUSH1 0xFF AND PUSH1 0x4 DUP2 GT ISZERO PUSH2 0x1708 JUMPI PUSH2 0x1707 PUSH2 0x36B8 JUMP JUMPDEST JUMPDEST PUSH1 0x40 MLOAD PUSH2 0x1715 SWAP2 SWAP1 PUSH2 0x30D5 JUMP JUMPDEST PUSH1 0x40 MLOAD DUP1 SWAP2 SUB SWAP1 LOG1 PUSH32 0xDD970DD9B5BFE707922155B058A407655CB18288B807E2216442BCA8AD83D6B5 DUP2 PUSH1 0x4 DUP2 GT ISZERO PUSH2 0x1751 JUMPI PUSH2 0x1750 PUSH2 0x36B8 JUMP JUMPDEST JUMPDEST PUSH1 0x40 MLOAD PUSH2 0x175E SWAP2 SWAP1 PUSH2 0x3103 JUMP JUMPDEST PUSH1 0x40 MLOAD DUP1 SWAP2 SUB SWAP1 LOG1 DUP1 PUSH1 0x4 DUP2 GT ISZERO PUSH2 0x1779 JUMPI PUSH2 0x1778 PUSH2 0x36B8 JUMP JUMPDEST JUMPDEST PUSH1 0x9 PUSH1 0x0 SWAP1 SLOAD SWAP1 PUSH2 0x100 EXP SWAP1 DIV PUSH1 0xFF AND PUSH1 0x4 DUP2 GT ISZERO PUSH2 0x179B JUMPI PUSH2 0x179A PUSH2 0x36B8 JUMP JUMPDEST JUMPDEST EQ PUSH2 0x17DB JUMPI PUSH1 0x40 MLOAD PUSH32 0x8C379A000000000000000000000000000000000000000000000000000000000 DUP2 MSTORE PUSH1 0x4 ADD PUSH2 0x17D2 SWAP1 PUSH2 0x3151 JUMP JUMPDEST PUSH1 0x40 MLOAD DUP1 SWAP2 SUB SWAP1 REVERT JUMPDEST PUSH1 0x0 JUMPDEST PUSH1 0x2B SLOAD DUP2 LT ISZERO PUSH2 0x183F JUMPI DUP3 DUP2 DUP2 MLOAD DUP2 LT PUSH2 0x17FB JUMPI PUSH2 0x17FA PUSH2 0x3716 JUMP JUMPDEST JUMPDEST PUSH1 0x20 MUL PUSH1 0x20 ADD ADD MLOAD PUSH1 0x2C PUSH1 0x0 DUP4 DUP2 MSTORE PUSH1 0x20 ADD SWAP1 DUP2 MSTORE PUSH1 0x20 ADD PUSH1 0x0 KECCAK256 PUSH1 0x0 DUP3 DUP3 SLOAD PUSH2 0x1825 SWAP2 SWAP1 PUSH2 0x32EC JUMP JUMPDEST SWAP3 POP POP DUP2 SWAP1 SSTORE POP DUP1 DUP1 PUSH2 0x1837 SWAP1 PUSH2 0x3611 JUMP JUMPDEST SWAP2 POP POP PUSH2 0x17DE JUMP JUMPDEST POP PUSH1 0x2D PUSH1 0x0 DUP2 SLOAD DUP1 SWAP3 SWAP2 SWAP1 PUSH2 0x1853 SWAP1 PUSH2 0x35C8 JUMP JUMPDEST SWAP2 SWAP1 POP SSTORE POP POP POP JUMP JUMPDEST PUSH1 0x3 PUSH32 0xDD970DD9B5BFE707922155B058A407655CB18288B807E2216442BCA8AD83D6B5 PUSH1 0x9 PUSH1 0x0 SWAP1 SLOAD SWAP1 PUSH2 0x100 EXP SWAP1 DIV PUSH1 0xFF AND PUSH1 0x4 DUP2 GT ISZERO PUSH2 0x18A1 JUMPI PUSH2 0x18A0 PUSH2 0x36B8 JUMP JUMPDEST JUMPDEST PUSH1 0x40 MLOAD PUSH2 0x18AE SWAP2 SWAP1 PUSH2 0x30D5 JUMP JUMPDEST PUSH1 0x40 MLOAD DUP1 SWAP2 SUB SWAP1 LOG1 PUSH32 0xDD970DD9B5BFE707922155B058A407655CB18288B807E2216442BCA8AD83D6B5 DUP2 PUSH1 0x4 DUP2 GT ISZERO PUSH2 0x18EA JUMPI PUSH2 0x18E9 PUSH2 0x36B8 JUMP JUMPDEST JUMPDEST PUSH1 0x40 MLOAD PUSH2 0x18F7 SWAP2 SWAP1 PUSH2 0x3103 JUMP JUMPDEST PUSH1 0x40 MLOAD DUP1 SWAP2 SUB SWAP1 LOG1 DUP1 PUSH1 0x4 DUP2 GT ISZERO PUSH2 0x1912 JUMPI PUSH2 0x1911 PUSH2 0x36B8 JUMP JUMPDEST JUMPDEST PUSH1 0x9 PUSH1 0x0 SWAP1 SLOAD SWAP1 PUSH2 0x100 EXP SWAP1 DIV PUSH1 0xFF AND PUSH1 0x4 DUP2 GT ISZERO PUSH2 0x1934 JUMPI PUSH2 0x1933 PUSH2 0x36B8 JUMP JUMPDEST JUMPDEST EQ PUSH2 0x1974 JUMPI PUSH1 0x40 MLOAD PUSH32 0x8C379A000000000000000000000000000000000000000000000000000000000 DUP2 MSTORE PUSH1 0x4 ADD PUSH2 0x196B SWAP1 PUSH2 0x3151 JUMP JUMPDEST PUSH1 0x40 MLOAD DUP1 SWAP2 SUB SWAP1 REVERT JUMPDEST PUSH1 0x2 PUSH1 0x9 PUSH1 0x0 PUSH2 0x100 EXP DUP2 SLOAD DUP2 PUSH1 0xFF MUL NOT AND SWAP1 DUP4 PUSH1 0x4 DUP2 GT ISZERO PUSH2 0x199A JUMPI PUSH2 0x1999 PUSH2 0x36B8 JUMP JUMPDEST JUMPDEST MUL OR SWAP1 SSTORE POP POP JUMP JUMPDEST PUSH1 0x0 DUP1 SLOAD SWAP1 PUSH2 0x100 EXP SWAP1 DIV PUSH20 0xFFFFFFFFFFFFFFFFFFFFFFFFFFFFFFFFFFFFFFFF AND DUP2 JUMP JUMPDEST PUSH1 0x0 PUSH32 0xDD970DD9B5BFE707922155B058A407655CB18288B807E2216442BCA8AD83D6B5 PUSH1 0x9 PUSH1 0x0 SWAP1 SLOAD SWAP1 PUSH2 0x100 EXP SWAP1 DIV PUSH1 0xFF AND PUSH1 0x4 DUP2 GT ISZERO PUSH2 0x1A0B JUMPI PUSH2 0x1A0A PUSH2 0x36B8 JUMP JUMPDEST JUMPDEST PUSH1 0x40 MLOAD PUSH2 0x1A18 SWAP2 SWAP1 PUSH2 0x30D5 JUMP JUMPDEST PUSH1 0x40 MLOAD DUP1 SWAP2 SUB SWAP1 LOG1 PUSH32 0xDD970DD9B5BFE707922155B058A407655CB18288B807E2216442BCA8AD83D6B5 DUP2 PUSH1 0x4 DUP2 GT ISZERO PUSH2 0x1A54 JUMPI PUSH2 0x1A53 PUSH2 0x36B8 JUMP JUMPDEST JUMPDEST PUSH1 0x40 MLOAD PUSH2 0x1A61 SWAP2 SWAP1 PUSH2 0x3103 JUMP JUMPDEST PUSH1 0x40 MLOAD DUP1 SWAP2 SUB SWAP1 LOG1 DUP1 PUSH1 0x4 DUP2 GT ISZERO PUSH2 0x1A7C JUMPI PUSH2 0x1A7B PUSH2 0x36B8 JUMP JUMPDEST JUMPDEST PUSH1 0x9 PUSH1 0x0 SWAP1 SLOAD SWAP1 PUSH2 0x100 EXP SWAP1 DIV PUSH1 0xFF AND PUSH1 0x4 DUP2 GT ISZERO PUSH2 0x1A9E JUMPI PUSH2 0x1A9D PUSH2 0x36B8 JUMP JUMPDEST JUMPDEST EQ PUSH2 0x1ADE JUMPI PUSH1 0x40 MLOAD PUSH32 0x8C379A000000000000000000000000000000000000000000000000000000000 DUP2 MSTORE PUSH1 0x4 ADD PUSH2 0x1AD5 SWAP1 PUSH2 0x3151 JUMP JUMPDEST PUSH1 0x40 MLOAD DUP1 SWAP2 SUB SWAP1 REVERT JUMPDEST PUSH32 0xDD970DD9B5BFE707922155B058A407655CB18288B807E2216442BCA8AD83D6B5 PUSH1 0x9 PUSH1 0x0 SWAP1 SLOAD SWAP1 PUSH2 0x100 EXP SWAP1 DIV PUSH1 0xFF AND PUSH1 0x4 DUP2 GT ISZERO PUSH2 0x1B21 JUMPI PUSH2 0x1B20 PUSH2 0x36B8 JUMP JUMPDEST JUMPDEST PUSH1 0x40 MLOAD PUSH2 0x1B2E SWAP2 SWAP1 PUSH2 0x3079 JUMP JUMPDEST PUSH1 0x40 MLOAD DUP1 SWAP2 SUB SWAP1 LOG1 PUSH1 0x0 JUMPDEST PUSH1 0x8 DUP2 LT ISZERO PUSH2 0x1D8F JUMPI PUSH1 0x40 MLOAD DUP1 PUSH1 0x40 ADD PUSH1 0x40 MSTORE DUP1 PUSH1 0x1 DUP2 MSTORE PUSH1 0x20 ADD PUSH32 0x3000000000000000000000000000000000000000000000000000000000000000 DUP2 MSTORE POP DUP1 MLOAD SWAP1 PUSH1 0x20 ADD KECCAK256 DUP6 DUP3 PUSH1 0x8 DUP2 LT PUSH2 0x1B92 JUMPI PUSH2 0x1B91 PUSH2 0x3716 JUMP JUMPDEST JUMPDEST PUSH1 0x20 MUL ADD MLOAD DUP1 MLOAD SWAP1 PUSH1 0x20 ADD KECCAK256 EQ ISZERO PUSH2 0x1C62 JUMPI PUSH32 0xDD970DD9B5BFE707922155B058A407655CB18288B807E2216442BCA8AD83D6B5 PUSH1 0x9 PUSH1 0x0 SWAP1 SLOAD SWAP1 PUSH2 0x100 EXP SWAP1 DIV PUSH1 0xFF AND PUSH1 0x4 DUP2 GT ISZERO PUSH2 0x1BE7 JUMPI PUSH2 0x1BE6 PUSH2 0x36B8 JUMP JUMPDEST JUMPDEST PUSH1 0x40 MLOAD PUSH2 0x1BF4 SWAP2 SWAP1 PUSH2 0x304B JUMP JUMPDEST PUSH1 0x40 MLOAD DUP1 SWAP2 SUB SWAP1 LOG1 PUSH2 0x1C04 PUSH2 0x1113 JUMP JUMPDEST PUSH32 0xDD970DD9B5BFE707922155B058A407655CB18288B807E2216442BCA8AD83D6B5 PUSH1 0x9 PUSH1 0x0 SWAP1 SLOAD SWAP1 PUSH2 0x100 EXP SWAP1 DIV PUSH1 0xFF AND PUSH1 0x4 DUP2 GT ISZERO PUSH2 0x1C47 JUMPI PUSH2 0x1C46 PUSH2 0x36B8 JUMP JUMPDEST JUMPDEST PUSH1 0x40 MLOAD PUSH2 0x1C54 SWAP2 SWAP1 PUSH2 0x2FFD JUMP JUMPDEST PUSH1 0x40 MLOAD DUP1 SWAP2 SUB SWAP1 LOG1 POP PUSH2 0x1D91 JUMP JUMPDEST DUP5 DUP2 PUSH1 0x8 DUP2 LT PUSH2 0x1C75 JUMPI PUSH2 0x1C74 PUSH2 0x3716 JUMP JUMPDEST JUMPDEST PUSH1 0x20 MUL ADD MLOAD PUSH1 0xA DUP3 PUSH1 0x8 DUP2 LT PUSH2 0x1C8E JUMPI PUSH2 0x1C8D PUSH2 0x3716 JUMP JUMPDEST JUMPDEST ADD SWAP1 DUP1 MLOAD SWAP1 PUSH1 0x20 ADD SWAP1 PUSH2 0x1CA2 SWAP3 SWAP2 SWAP1 PUSH2 0x242B JUMP JUMPDEST POP DUP4 DUP2 PUSH1 0x8 DUP2 LT PUSH2 0x1CB6 JUMPI PUSH2 0x1CB5 PUSH2 0x3716 JUMP JUMPDEST JUMPDEST PUSH1 0x20 MUL ADD MLOAD PUSH1 0x12 DUP3 PUSH1 0x8 DUP2 LT PUSH2 0x1CCF JUMPI PUSH2 0x1CCE PUSH2 0x3716 JUMP JUMPDEST JUMPDEST ADD DUP2 SWAP1 SSTORE POP PUSH1 0x2A DUP4 DUP3 PUSH1 0x8 DUP2 LT PUSH2 0x1CE9 JUMPI PUSH2 0x1CE8 PUSH2 0x3716 JUMP JUMPDEST JUMPDEST PUSH1 0x20 MUL ADD MLOAD PUSH1 0x40 MLOAD PUSH2 0x1CFB SWAP2 SWAP1 PUSH2 0x2DAA JUMP JUMPDEST SWAP1 DUP2 MSTORE PUSH1 0x20 ADD PUSH1 0x40 MLOAD DUP1 SWAP2 SUB SWAP1 KECCAK256 SLOAD PUSH1 0x1A DUP3 PUSH1 0x8 DUP2 LT PUSH2 0x1D1E JUMPI PUSH2 0x1D1D PUSH2 0x3716 JUMP JUMPDEST JUMPDEST ADD DUP2 SWAP1 SSTORE POP DUP3 DUP2 PUSH1 0x8 DUP2 LT PUSH2 0x1D36 JUMPI PUSH2 0x1D35 PUSH2 0x3716 JUMP JUMPDEST JUMPDEST PUSH1 0x20 MUL ADD MLOAD PUSH1 0x22 DUP3 PUSH1 0x8 DUP2 LT PUSH2 0x1D4F JUMPI PUSH2 0x1D4E PUSH2 0x3716 JUMP JUMPDEST JUMPDEST ADD SWAP1 DUP1 MLOAD SWAP1 PUSH1 0x20 ADD SWAP1 PUSH2 0x1D63 SWAP3 SWAP2 SWAP1 PUSH2 0x242B JUMP JUMPDEST POP PUSH1 0x2B PUSH1 0x0 DUP2 SLOAD DUP1 SWAP3 SWAP2 SWAP1 PUSH2 0x1D77 SWAP1 PUSH2 0x3611 JUMP JUMPDEST SWAP2 SWAP1 POP SSTORE POP DUP1 DUP1 PUSH2 0x1D87 SWAP1 PUSH2 0x3611 JUMP JUMPDEST SWAP2 POP POP PUSH2 0x1B39 JUMP JUMPDEST POP JUMPDEST POP POP POP POP JUMP JUMPDEST PUSH1 0x0 DUP1 PUSH1 0x0 DUP1 PUSH1 0x0 DUP1 PUSH1 0x0 DUP1 PUSH2 0x1DAB PUSH2 0x24B1 JUMP JUMPDEST PUSH2 0x1DB3 PUSH2 0x24D9 JUMP JUMPDEST PUSH2 0x1DBB PUSH2 0x24B1 JUMP JUMPDEST PUSH1 0x1 PUSH1 0x0 SWAP1 SLOAD SWAP1 PUSH2 0x100 EXP SWAP1 DIV PUSH20 0xFFFFFFFFFFFFFFFFFFFFFFFFFFFFFFFFFFFFFFFF AND PUSH1 0x2 PUSH1 0x0 SWAP1 SLOAD SWAP1 PUSH2 0x100 EXP SWAP1 DIV PUSH20 0xFFFFFFFFFFFFFFFFFFFFFFFFFFFFFFFFFFFFFFFF AND PUSH1 0x3 SLOAD PUSH1 0x4 SLOAD PUSH1 0x5 SLOAD PUSH1 0x6 SLOAD PUSH1 0x7 SLOAD PUSH1 0x8 SLOAD PUSH1 0xA PUSH1 0x12 PUSH1 0x22 DUP3 PUSH1 0x8 DUP1 PUSH1 0x20 MUL PUSH1 0x40 MLOAD SWAP1 DUP2 ADD PUSH1 0x40 MSTORE DUP1 SWAP3 SWAP2 SWAP1 PUSH1 0x0 SWAP1 JUMPDEST DUP3 DUP3 LT ISZERO PUSH2 0x1ED4 JUMPI DUP4 DUP3 ADD DUP1 SLOAD PUSH2 0x1E47 SWAP1 PUSH2 0x3565 JUMP JUMPDEST DUP1 PUSH1 0x1F ADD PUSH1 0x20 DUP1 SWAP2 DIV MUL PUSH1 0x20 ADD PUSH1 0x40 MLOAD SWAP1 DUP2 ADD PUSH1 0x40 MSTORE DUP1 SWAP3 SWAP2 SWAP1 DUP2 DUP2 MSTORE PUSH1 0x20 ADD DUP3 DUP1 SLOAD PUSH2 0x1E73 SWAP1 PUSH2 0x3565 JUMP JUMPDEST DUP1 ISZERO PUSH2 0x1EC0 JUMPI DUP1 PUSH1 0x1F LT PUSH2 0x1E95 JUMPI PUSH2 0x100 DUP1 DUP4 SLOAD DIV MUL DUP4 MSTORE SWAP2 PUSH1 0x20 ADD SWAP2 PUSH2 0x1EC0 JUMP JUMPDEST DUP3 ADD SWAP2 SWAP1 PUSH1 0x0 MSTORE PUSH1 0x20 PUSH1 0x0 KECCAK256 SWAP1 JUMPDEST DUP2 SLOAD DUP2 MSTORE SWAP1 PUSH1 0x1 ADD SWAP1 PUSH1 0x20 ADD DUP1 DUP4 GT PUSH2 0x1EA3 JUMPI DUP3 SWAP1 SUB PUSH1 0x1F AND DUP3 ADD SWAP2 JUMPDEST POP POP POP POP POP DUP2 MSTORE PUSH1 0x20 ADD SWAP1 PUSH1 0x1 ADD SWAP1 PUSH2 0x1E31 JUMP JUMPDEST POP POP POP POP SWAP3 POP DUP2 PUSH1 0x8 DUP1 PUSH1 0x20 MUL PUSH1 0x40 MLOAD SWAP1 DUP2 ADD PUSH1 0x40 MSTORE DUP1 SWAP3 SWAP2 SWAP1 DUP3 PUSH1 0x8 DUP1 ISZERO PUSH2 0x1F12 JUMPI PUSH1 0x20 MUL DUP3 ADD SWAP2 JUMPDEST DUP2 SLOAD DUP2 MSTORE PUSH1 0x20 ADD SWAP1 PUSH1 0x1 ADD SWAP1 DUP1 DUP4 GT PUSH2 0x1EFE JUMPI JUMPDEST POP POP POP POP POP SWAP2 POP DUP1 PUSH1 0x8 DUP1 PUSH1 0x20 MUL PUSH1 0x40 MLOAD SWAP1 DUP2 ADD PUSH1 0x40 MSTORE DUP1 SWAP3 SWAP2 SWAP1 PUSH1 0x0 SWAP1 JUMPDEST DUP3 DUP3 LT ISZERO PUSH2 0x1FD4 JUMPI DUP4 DUP3 ADD DUP1 SLOAD PUSH2 0x1F47 SWAP1 PUSH2 0x3565 JUMP JUMPDEST DUP1 PUSH1 0x1F ADD PUSH1 0x20 DUP1 SWAP2 DIV MUL PUSH1 0x20 ADD PUSH1 0x40 MLOAD SWAP1 DUP2 ADD PUSH1 0x40 MSTORE DUP1 SWAP3 SWAP2 SWAP1 DUP2 DUP2 MSTORE PUSH1 0x20 ADD DUP3 DUP1 SLOAD PUSH2 0x1F73 SWAP1 PUSH2 0x3565 JUMP JUMPDEST DUP1 ISZERO PUSH2 0x1FC0 JUMPI DUP1 PUSH1 0x1F LT PUSH2 0x1F95 JUMPI PUSH2 0x100 DUP1 DUP4 SLOAD DIV MUL DUP4 MSTORE SWAP2 PUSH1 0x20 ADD SWAP2 PUSH2 0x1FC0 JUMP JUMPDEST DUP3 ADD SWAP2 SWAP1 PUSH1 0x0 MSTORE PUSH1 0x20 PUSH1 0x0 KECCAK256 SWAP1 JUMPDEST DUP2 SLOAD DUP2 MSTORE SWAP1 PUSH1 0x1 ADD SWAP1 PUSH1 0x20 ADD DUP1 DUP4 GT PUSH2 0x1FA3 JUMPI DUP3 SWAP1 SUB PUSH1 0x1F AND DUP3 ADD SWAP2 JUMPDEST POP POP POP POP POP DUP2 MSTORE PUSH1 0x20 ADD SWAP1 PUSH1 0x1 ADD SWAP1 PUSH2 0x1F31 JUMP JUMPDEST POP POP POP POP SWAP1 POP SWAP11 POP SWAP11 POP SWAP11 POP SWAP11 POP SWAP11 POP SWAP11 POP SWAP11 POP SWAP11 POP SWAP11 POP SWAP11 POP SWAP11 POP SWAP1 SWAP2 SWAP3 SWAP4 SWAP5 SWAP6 SWAP7 SWAP8 SWAP9 SWAP10 SWAP11 JUMP JUMPDEST PUSH1 0x0 PUSH2 0x1900 DUP3 PUSH2 0x200D SWAP2 SWAP1 PUSH2 0x3440 JUMP JUMPDEST NUMBER PUSH2 0x2018 SWAP2 SWAP1 PUSH2 0x3380 JUMP JUMPDEST SWAP1 POP SWAP2 SWAP1 POP JUMP JUMPDEST PUSH1 0x1 PUSH1 0x2A PUSH1 0x40 MLOAD PUSH2 0x202F SWAP1 PUSH2 0x2E2A JUMP JUMPDEST SWAP1 DUP2 MSTORE PUSH1 0x20 ADD PUSH1 0x40 MLOAD DUP1 SWAP2 SUB SWAP1 KECCAK256 DUP2 SWAP1 SSTORE POP PUSH1 0x2 PUSH1 0x2A PUSH1 0x40 MLOAD PUSH2 0x2051 SWAP1 PUSH2 0x2DD6 JUMP JUMPDEST SWAP1 DUP2 MSTORE PUSH1 0x20 ADD PUSH1 0x40 MLOAD DUP1 SWAP2 SUB SWAP1 KECCAK256 DUP2 SWAP1 SSTORE POP PUSH1 0x3 PUSH1 0x2A PUSH1 0x40 MLOAD PUSH2 0x2073 SWAP1 PUSH2 0x2DC1 JUMP JUMPDEST SWAP1 DUP2 MSTORE PUSH1 0x20 ADD PUSH1 0x40 MLOAD DUP1 SWAP2 SUB SWAP1 KECCAK256 DUP2 SWAP1 SSTORE POP PUSH1 0x4 PUSH1 0x2A PUSH1 0x40 MLOAD PUSH2 0x2095 SWAP1 PUSH2 0x2DEB JUMP JUMPDEST SWAP1 DUP2 MSTORE PUSH1 0x20 ADD PUSH1 0x40 MLOAD DUP1 SWAP2 SUB SWAP1 KECCAK256 DUP2 SWAP1 SSTORE POP PUSH1 0x5 PUSH1 0x2A PUSH1 0x40 MLOAD PUSH2 0x20B7 SWAP1 PUSH2 0x2E00 JUMP JUMPDEST SWAP1 DUP2 MSTORE PUSH1 0x20 ADD PUSH1 0x40 MLOAD DUP1 SWAP2 SUB SWAP1 KECCAK256 DUP2 SWAP1 SSTORE POP PUSH1 0x6 PUSH1 0x2A PUSH1 0x40 MLOAD PUSH2 0x20D9 SWAP1 PUSH2 0x2E15 JUMP JUMPDEST SWAP1 DUP2 MSTORE PUSH1 0x20 ADD PUSH1 0x40 MLOAD DUP1 SWAP2 SUB SWAP1 KECCAK256 DUP2 SWAP1 SSTORE POP JUMP JUMPDEST PUSH1 0x0 PUSH32 0xFFFFFFFFFFFFFFFFFFFFFFFFFFFFFFFFFFFFFFFFFFFFFFFFFFFFFFFFFFFFFFFF DUP5 EQ PUSH2 0x218D JUMPI PUSH1 0x1 DUP1 DUP6 AND EQ ISZERO PUSH2 0x213E JUMPI PUSH2 0x212C DUP5 DUP5 DUP5 PUSH2 0x22B9 JUMP JUMPDEST PUSH2 0x2139 JUMPI PUSH1 0x0 SWAP1 POP PUSH2 0x2192 JUMP JUMPDEST PUSH2 0x218C JUMP JUMPDEST PUSH1 0x4 DUP1 DUP6 AND EQ ISZERO PUSH2 0x2166 JUMPI PUSH2 0x2154 DUP5 DUP5 DUP5 PUSH2 0x22F9 JUMP JUMPDEST PUSH2 0x2161 JUMPI PUSH1 0x0 SWAP1 POP PUSH2 0x2192 JUMP JUMPDEST PUSH2 0x218B JUMP JUMPDEST PUSH1 0x2 DUP1 DUP6 AND EQ ISZERO PUSH2 0x218A JUMPI PUSH2 0x217C DUP5 DUP5 DUP5 PUSH2 0x2339 JUMP JUMPDEST PUSH2 0x2189 JUMPI PUSH1 0x0 SWAP1 POP PUSH2 0x2192 JUMP JUMPDEST JUMPDEST JUMPDEST JUMPDEST JUMPDEST PUSH1 0x1 SWAP1 POP JUMPDEST SWAP4 SWAP3 POP POP POP JUMP JUMPDEST PUSH1 0x0 PUSH1 0x9 PUSH1 0x1 PUSH2 0x100 EXP DUP2 SLOAD DUP2 PUSH1 0xFF MUL NOT AND SWAP1 DUP4 ISZERO ISZERO MUL OR SWAP1 SSTORE POP PUSH1 0x1 PUSH1 0x0 SWAP1 SLOAD SWAP1 PUSH2 0x100 EXP SWAP1 DIV PUSH20 0xFFFFFFFFFFFFFFFFFFFFFFFFFFFFFFFFFFFFFFFF AND PUSH20 0xFFFFFFFFFFFFFFFFFFFFFFFFFFFFFFFFFFFFFFFF AND PUSH2 0x8FC PUSH1 0x5 SLOAD SWAP1 DUP2 ISZERO MUL SWAP1 PUSH1 0x40 MLOAD PUSH1 0x0 PUSH1 0x40 MLOAD DUP1 DUP4 SUB DUP2 DUP6 DUP9 DUP9 CALL SWAP4 POP POP POP POP ISZERO DUP1 ISZERO PUSH2 0x221E JUMPI RETURNDATASIZE PUSH1 0x0 DUP1 RETURNDATACOPY RETURNDATASIZE PUSH1 0x0 REVERT JUMPDEST POP PUSH2 0x2227 PUSH2 0x2364 JUMP JUMPDEST JUMP JUMPDEST PUSH1 0x1 PUSH1 0x9 PUSH1 0x1 PUSH2 0x100 EXP DUP2 SLOAD DUP2 PUSH1 0xFF MUL NOT AND SWAP1 DUP4 ISZERO ISZERO MUL OR SWAP1 SSTORE POP PUSH1 0x2 PUSH1 0x0 SWAP1 SLOAD SWAP1 PUSH2 0x100 EXP SWAP1 DIV PUSH20 0xFFFFFFFFFFFFFFFFFFFFFFFFFFFFFFFFFFFFFFFF AND PUSH20 0xFFFFFFFFFFFFFFFFFFFFFFFFFFFFFFFFFFFFFFFF AND PUSH2 0x8FC PUSH1 0x5 SLOAD SWAP1 DUP2 ISZERO MUL SWAP1 PUSH1 0x40 MLOAD PUSH1 0x0 PUSH1 0x40 MLOAD DUP1 DUP4 SUB DUP2 DUP6 DUP9 DUP9 CALL SWAP4 POP POP POP POP ISZERO DUP1 ISZERO PUSH2 0x22AE JUMPI RETURNDATASIZE PUSH1 0x0 DUP1 RETURNDATACOPY RETURNDATASIZE PUSH1 0x0 REVERT JUMPDEST POP PUSH2 0x22B7 PUSH2 0x2364 JUMP JUMPDEST JUMP JUMPDEST PUSH1 0x0 DUP1 PUSH1 0x0 SWAP1 POP PUSH1 0x1 DUP1 DUP7 AND EQ ISZERO PUSH2 0x22EE JUMPI DUP3 DUP5 SGT ISZERO PUSH2 0x22D8 JUMPI PUSH1 0x1 SWAP1 POP JUMPDEST PUSH2 0x22E3 DUP6 DUP6 DUP6 PUSH2 0x2339 JUMP JUMPDEST ISZERO PUSH2 0x22ED JUMPI PUSH1 0x1 SWAP1 POP JUMPDEST JUMPDEST DUP1 SWAP2 POP POP SWAP4 SWAP3 POP POP POP JUMP JUMPDEST PUSH1 0x0 DUP1 PUSH1 0x0 SWAP1 POP PUSH1 0x4 DUP1 DUP7 AND EQ ISZERO PUSH2 0x232E JUMPI DUP3 DUP5 SLT ISZERO PUSH2 0x2318 JUMPI PUSH1 0x1 SWAP1 POP JUMPDEST PUSH2 0x2323 DUP6 DUP6 DUP6 PUSH2 0x2339 JUMP JUMPDEST ISZERO PUSH2 0x232D JUMPI PUSH1 0x1 SWAP1 POP JUMPDEST JUMPDEST DUP1 SWAP2 POP POP SWAP4 SWAP3 POP POP POP JUMP JUMPDEST PUSH1 0x0 PUSH1 0x2 DUP1 DUP6 AND EQ ISZERO PUSH2 0x2358 JUMPI DUP2 DUP4 EQ ISZERO PUSH2 0x2357 JUMPI PUSH1 0x1 SWAP1 POP PUSH2 0x235D JUMP JUMPDEST JUMPDEST PUSH1 0x0 SWAP1 POP JUMPDEST SWAP4 SWAP3 POP POP POP JUMP JUMPDEST PUSH2 0x236F PUSH1 0x4 SLOAD PUSH2 0x1FFD JUMP JUMPDEST NUMBER LT PUSH2 0x23A1 JUMPI PUSH1 0x4 PUSH1 0x9 PUSH1 0x0 PUSH2 0x100 EXP DUP2 SLOAD DUP2 PUSH1 0xFF MUL NOT AND SWAP1 DUP4 PUSH1 0x4 DUP2 GT ISZERO PUSH2 0x239B JUMPI PUSH2 0x239A PUSH2 0x36B8 JUMP JUMPDEST JUMPDEST MUL OR SWAP1 SSTORE POP JUMPDEST PUSH1 0x0 JUMPDEST PUSH1 0x2B SLOAD DUP2 LT ISZERO PUSH2 0x23DA JUMPI PUSH1 0x0 PUSH1 0x2C PUSH1 0x0 DUP4 DUP2 MSTORE PUSH1 0x20 ADD SWAP1 DUP2 MSTORE PUSH1 0x20 ADD PUSH1 0x0 KECCAK256 DUP2 SWAP1 SSTORE POP DUP1 DUP1 PUSH2 0x23D2 SWAP1 PUSH2 0x3611 JUMP JUMPDEST SWAP2 POP POP PUSH2 0x23A4 JUMP JUMPDEST POP PUSH1 0x0 PUSH1 0x2D DUP2 SWAP1 SSTORE POP PUSH1 0x0 PUSH1 0x2 PUSH1 0x15 PUSH2 0x100 EXP DUP2 SLOAD DUP2 PUSH1 0xFF MUL NOT AND SWAP1 DUP4 ISZERO ISZERO MUL OR SWAP1 SSTORE POP PUSH1 0x7 SLOAD PUSH1 0x6 DUP2 SWAP1 SSTORE POP PUSH2 0x1900 PUSH1 0x1E PUSH2 0x2416 SWAP2 SWAP1 PUSH2 0x3440 JUMP JUMPDEST PUSH1 0x7 SLOAD PUSH2 0x2423 SWAP2 SWAP1 PUSH2 0x3380 JUMP JUMPDEST PUSH1 0x7 DUP2 SWAP1 SSTORE POP JUMP JUMPDEST DUP3 DUP1 SLOAD PUSH2 0x2437 SWAP1 PUSH2 0x3565 JUMP JUMPDEST SWAP1 PUSH1 0x0 MSTORE PUSH1 0x20 PUSH1 0x0 KECCAK256 SWAP1 PUSH1 0x1F ADD PUSH1 0x20 SWAP1 DIV DUP2 ADD SWAP3 DUP3 PUSH2 0x2459 JUMPI PUSH1 0x0 DUP6 SSTORE PUSH2 0x24A0 JUMP JUMPDEST DUP3 PUSH1 0x1F LT PUSH2 0x2472 JUMPI DUP1 MLOAD PUSH1 0xFF NOT AND DUP4 DUP1 ADD OR DUP6 SSTORE PUSH2 0x24A0 JUMP JUMPDEST DUP3 DUP1 ADD PUSH1 0x1 ADD DUP6 SSTORE DUP3 ISZERO PUSH2 0x24A0 JUMPI SWAP2 DUP3 ADD JUMPDEST DUP3 DUP2 GT ISZERO PUSH2 0x249F JUMPI DUP3 MLOAD DUP3 SSTORE SWAP2 PUSH1 0x20 ADD SWAP2 SWAP1 PUSH1 0x1 ADD SWAP1 PUSH2 0x2484 JUMP JUMPDEST JUMPDEST POP SWAP1 POP PUSH2 0x24AD SWAP2 SWAP1 PUSH2 0x24FC JUMP JUMPDEST POP SWAP1 JUMP JUMPDEST PUSH1 0x40 MLOAD DUP1 PUSH2 0x100 ADD PUSH1 0x40 MSTORE DUP1 PUSH1 0x8 SWAP1 JUMPDEST PUSH1 0x60 DUP2 MSTORE PUSH1 0x20 ADD SWAP1 PUSH1 0x1 SWAP1 SUB SWAP1 DUP2 PUSH2 0x24C1 JUMPI SWAP1 POP POP SWAP1 JUMP JUMPDEST PUSH1 0x40 MLOAD DUP1 PUSH2 0x100 ADD PUSH1 0x40 MSTORE DUP1 PUSH1 0x8 SWAP1 PUSH1 0x20 DUP3 MUL DUP1 CALLDATASIZE DUP4 CALLDATACOPY DUP1 DUP3 ADD SWAP2 POP POP SWAP1 POP POP SWAP1 JUMP JUMPDEST JUMPDEST DUP1 DUP3 GT ISZERO PUSH2 0x2515 JUMPI PUSH1 0x0 DUP2 PUSH1 0x0 SWAP1 SSTORE POP PUSH1 0x1 ADD PUSH2 0x24FD JUMP JUMPDEST POP SWAP1 JUMP JUMPDEST PUSH1 0x0 PUSH2 0x252C PUSH2 0x2527 DUP5 PUSH2 0x31B1 JUMP JUMPDEST PUSH2 0x318C JUMP JUMPDEST SWAP1 POP DUP1 DUP3 DUP6 PUSH1 0x20 DUP7 MUL DUP3 ADD GT ISZERO PUSH2 0x2546 JUMPI PUSH2 0x2545 PUSH2 0x3779 JUMP JUMPDEST JUMPDEST PUSH1 0x0 JUMPDEST DUP6 DUP2 LT ISZERO PUSH2 0x2576 JUMPI DUP2 PUSH2 0x255C DUP9 DUP3 PUSH2 0x2750 JUMP JUMPDEST DUP5 MSTORE PUSH1 0x20 DUP5 ADD SWAP4 POP PUSH1 0x20 DUP4 ADD SWAP3 POP POP PUSH1 0x1 DUP2 ADD SWAP1 POP PUSH2 0x2549 JUMP JUMPDEST POP POP POP SWAP4 SWAP3 POP POP POP JUMP JUMPDEST PUSH1 0x0 PUSH2 0x2593 PUSH2 0x258E DUP5 PUSH2 0x31D7 JUMP JUMPDEST PUSH2 0x318C JUMP JUMPDEST SWAP1 POP DUP1 DUP4 DUP3 MSTORE PUSH1 0x20 DUP3 ADD SWAP1 POP DUP3 DUP6 PUSH1 0x20 DUP7 MUL DUP3 ADD GT ISZERO PUSH2 0x25B6 JUMPI PUSH2 0x25B5 PUSH2 0x3779 JUMP JUMPDEST JUMPDEST PUSH1 0x0 JUMPDEST DUP6 DUP2 LT ISZERO PUSH2 0x25E6 JUMPI DUP2 PUSH2 0x25CC DUP9 DUP3 PUSH2 0x2750 JUMP JUMPDEST DUP5 MSTORE PUSH1 0x20 DUP5 ADD SWAP4 POP PUSH1 0x20 DUP4 ADD SWAP3 POP POP PUSH1 0x1 DUP2 ADD SWAP1 POP PUSH2 0x25B9 JUMP JUMPDEST POP POP POP SWAP4 SWAP3 POP POP POP JUMP JUMPDEST PUSH1 0x0 PUSH2 0x2603 PUSH2 0x25FE DUP5 PUSH2 0x3203 JUMP JUMPDEST PUSH2 0x318C JUMP JUMPDEST SWAP1 POP DUP1 DUP3 DUP6 PUSH1 0x20 DUP7 MUL DUP3 ADD GT ISZERO PUSH2 0x261D JUMPI PUSH2 0x261C PUSH2 0x3779 JUMP JUMPDEST JUMPDEST PUSH1 0x0 JUMPDEST DUP6 DUP2 LT ISZERO PUSH2 0x266B JUMPI DUP2 CALLDATALOAD PUSH8 0xFFFFFFFFFFFFFFFF DUP2 GT ISZERO PUSH2 0x2643 JUMPI PUSH2 0x2642 PUSH2 0x3774 JUMP JUMPDEST JUMPDEST DUP1 DUP7 ADD PUSH2 0x2650 DUP10 DUP3 PUSH2 0x2765 JUMP JUMPDEST DUP6 MSTORE PUSH1 0x20 DUP6 ADD SWAP5 POP PUSH1 0x20 DUP5 ADD SWAP4 POP POP POP PUSH1 0x1 DUP2 ADD SWAP1 POP PUSH2 0x2620 JUMP JUMPDEST POP POP POP SWAP4 SWAP3 POP POP POP JUMP JUMPDEST PUSH1 0x0 PUSH2 0x2688 PUSH2 0x2683 DUP5 PUSH2 0x3229 JUMP JUMPDEST PUSH2 0x318C JUMP JUMPDEST SWAP1 POP DUP3 DUP2 MSTORE PUSH1 0x20 DUP2 ADD DUP5 DUP5 DUP5 ADD GT ISZERO PUSH2 0x26A4 JUMPI PUSH2 0x26A3 PUSH2 0x377E JUMP JUMPDEST JUMPDEST PUSH2 0x26AF DUP5 DUP3 DUP6 PUSH2 0x3523 JUMP JUMPDEST POP SWAP4 SWAP3 POP POP POP JUMP JUMPDEST PUSH1 0x0 DUP2 CALLDATALOAD SWAP1 POP PUSH2 0x26C6 DUP2 PUSH2 0x3BC1 JUMP JUMPDEST SWAP3 SWAP2 POP POP JUMP JUMPDEST PUSH1 0x0 DUP3 PUSH1 0x1F DUP4 ADD SLT PUSH2 0x26E1 JUMPI PUSH2 0x26E0 PUSH2 0x3774 JUMP JUMPDEST JUMPDEST PUSH1 0x8 PUSH2 0x26EE DUP5 DUP3 DUP6 PUSH2 0x2519 JUMP JUMPDEST SWAP2 POP POP SWAP3 SWAP2 POP POP JUMP JUMPDEST PUSH1 0x0 DUP3 PUSH1 0x1F DUP4 ADD SLT PUSH2 0x270C JUMPI PUSH2 0x270B PUSH2 0x3774 JUMP JUMPDEST JUMPDEST DUP2 CALLDATALOAD PUSH2 0x271C DUP5 DUP3 PUSH1 0x20 DUP7 ADD PUSH2 0x2580 JUMP JUMPDEST SWAP2 POP POP SWAP3 SWAP2 POP POP JUMP JUMPDEST PUSH1 0x0 DUP3 PUSH1 0x1F DUP4 ADD SLT PUSH2 0x273A JUMPI PUSH2 0x2739 PUSH2 0x3774 JUMP JUMPDEST JUMPDEST PUSH1 0x8 PUSH2 0x2747 DUP5 DUP3 DUP6 PUSH2 0x25F0 JUMP JUMPDEST SWAP2 POP POP SWAP3 SWAP2 POP POP JUMP JUMPDEST PUSH1 0x0 DUP2 CALLDATALOAD SWAP1 POP PUSH2 0x275F DUP2 PUSH2 0x3BD8 JUMP JUMPDEST SWAP3 SWAP2 POP POP JUMP JUMPDEST PUSH1 0x0 DUP3 PUSH1 0x1F DUP4 ADD SLT PUSH2 0x277A JUMPI PUSH2 0x2779 PUSH2 0x3774 JUMP JUMPDEST JUMPDEST DUP2 CALLDATALOAD PUSH2 0x278A DUP5 DUP3 PUSH1 0x20 DUP7 ADD PUSH2 0x2675 JUMP JUMPDEST SWAP2 POP POP SWAP3 SWAP2 POP POP JUMP JUMPDEST PUSH1 0x0 DUP2 CALLDATALOAD SWAP1 POP PUSH2 0x27A2 DUP2 PUSH2 0x3BEF JUMP JUMPDEST SWAP3 SWAP2 POP POP JUMP JUMPDEST PUSH1 0x0 PUSH1 0x20 DUP3 DUP5 SUB SLT ISZERO PUSH2 0x27BE JUMPI PUSH2 0x27BD PUSH2 0x3788 JUMP JUMPDEST JUMPDEST PUSH1 0x0 PUSH2 0x27CC DUP5 DUP3 DUP6 ADD PUSH2 0x26B7 JUMP JUMPDEST SWAP2 POP POP SWAP3 SWAP2 POP POP JUMP JUMPDEST PUSH1 0x0 DUP1 PUSH1 0x0 DUP1 PUSH1 0x0 PUSH1 0xA0 DUP7 DUP9 SUB SLT ISZERO PUSH2 0x27F1 JUMPI PUSH2 0x27F0 PUSH2 0x3788 JUMP JUMPDEST JUMPDEST PUSH1 0x0 PUSH2 0x27FF DUP9 DUP3 DUP10 ADD PUSH2 0x26B7 JUMP JUMPDEST SWAP6 POP POP PUSH1 0x20 PUSH2 0x2810 DUP9 DUP3 DUP10 ADD PUSH2 0x2793 JUMP JUMPDEST SWAP5 POP POP PUSH1 0x40 PUSH2 0x2821 DUP9 DUP3 DUP10 ADD PUSH2 0x2793 JUMP JUMPDEST SWAP4 POP POP PUSH1 0x60 PUSH2 0x2832 DUP9 DUP3 DUP10 ADD PUSH2 0x2793 JUMP JUMPDEST SWAP3 POP POP PUSH1 0x80 PUSH2 0x2843 DUP9 DUP3 DUP10 ADD PUSH2 0x2793 JUMP JUMPDEST SWAP2 POP POP SWAP3 SWAP6 POP SWAP3 SWAP6 SWAP1 SWAP4 POP JUMP JUMPDEST PUSH1 0x0 PUSH1 0x20 DUP3 DUP5 SUB SLT ISZERO PUSH2 0x2866 JUMPI PUSH2 0x2865 PUSH2 0x3788 JUMP JUMPDEST JUMPDEST PUSH1 0x0 DUP3 ADD CALLDATALOAD PUSH8 0xFFFFFFFFFFFFFFFF DUP2 GT ISZERO PUSH2 0x2884 JUMPI PUSH2 0x2883 PUSH2 0x3783 JUMP JUMPDEST JUMPDEST PUSH2 0x2890 DUP5 DUP3 DUP6 ADD PUSH2 0x26F7 JUMP JUMPDEST SWAP2 POP POP SWAP3 SWAP2 POP POP JUMP JUMPDEST PUSH1 0x0 DUP1 PUSH1 0x0 PUSH2 0x140 DUP5 DUP7 SUB SLT ISZERO PUSH2 0x28B3 JUMPI PUSH2 0x28B2 PUSH2 0x3788 JUMP JUMPDEST JUMPDEST PUSH1 0x0 DUP5 ADD CALLDATALOAD PUSH8 0xFFFFFFFFFFFFFFFF DUP2 GT ISZERO PUSH2 0x28D1 JUMPI PUSH2 0x28D0 PUSH2 0x3783 JUMP JUMPDEST JUMPDEST PUSH2 0x28DD DUP7 DUP3 DUP8 ADD PUSH2 0x2725 JUMP JUMPDEST SWAP4 POP POP PUSH1 0x20 PUSH2 0x28EE DUP7 DUP3 DUP8 ADD PUSH2 0x26CC JUMP JUMPDEST SWAP3 POP POP PUSH2 0x120 DUP5 ADD CALLDATALOAD PUSH8 0xFFFFFFFFFFFFFFFF DUP2 GT ISZERO PUSH2 0x2910 JUMPI PUSH2 0x290F PUSH2 0x3783 JUMP JUMPDEST JUMPDEST PUSH2 0x291C DUP7 DUP3 DUP8 ADD PUSH2 0x2725 JUMP JUMPDEST SWAP2 POP POP SWAP3 POP SWAP3 POP SWAP3 JUMP JUMPDEST PUSH1 0x0 PUSH1 0x20 DUP3 DUP5 SUB SLT ISZERO PUSH2 0x293C JUMPI PUSH2 0x293B PUSH2 0x3788 JUMP JUMPDEST JUMPDEST PUSH1 0x0 PUSH2 0x294A DUP5 DUP3 DUP6 ADD PUSH2 0x2793 JUMP JUMPDEST SWAP2 POP POP SWAP3 SWAP2 POP POP JUMP JUMPDEST PUSH1 0x0 PUSH2 0x295F DUP4 DUP4 PUSH2 0x2A87 JUMP JUMPDEST PUSH1 0x20 DUP4 ADD SWAP1 POP SWAP3 SWAP2 POP POP JUMP JUMPDEST PUSH1 0x0 PUSH2 0x2977 DUP4 DUP4 PUSH2 0x2AA5 JUMP JUMPDEST SWAP1 POP SWAP3 SWAP2 POP POP JUMP JUMPDEST PUSH2 0x2988 DUP2 PUSH2 0x34AC JUMP JUMPDEST DUP3 MSTORE POP POP JUMP JUMPDEST PUSH2 0x2997 DUP2 PUSH2 0x349A JUMP JUMPDEST DUP3 MSTORE POP POP JUMP JUMPDEST PUSH2 0x29A6 DUP2 PUSH2 0x326E JUMP JUMPDEST PUSH2 0x29B0 DUP2 DUP5 PUSH2 0x32A9 JUMP JUMPDEST SWAP3 POP PUSH2 0x29BB DUP3 PUSH2 0x325A JUMP JUMPDEST DUP1 PUSH1 0x0 JUMPDEST DUP4 DUP2 LT ISZERO PUSH2 0x29EC JUMPI DUP2 MLOAD PUSH2 0x29D3 DUP8 DUP3 PUSH2 0x2953 JUMP JUMPDEST SWAP7 POP PUSH2 0x29DE DUP4 PUSH2 0x328F JUMP JUMPDEST SWAP3 POP POP PUSH1 0x1 DUP2 ADD SWAP1 POP PUSH2 0x29BF JUMP JUMPDEST POP POP POP POP POP POP JUMP JUMPDEST PUSH1 0x0 PUSH2 0x29FF DUP3 PUSH2 0x3279 JUMP JUMPDEST PUSH2 0x2A09 DUP2 DUP6 PUSH2 0x32B4 JUMP JUMPDEST SWAP4 POP DUP4 PUSH1 0x20 DUP3 MUL DUP6 ADD PUSH2 0x2A1B DUP6 PUSH2 0x3264 JUMP JUMPDEST DUP1 PUSH1 0x0 JUMPDEST DUP6 DUP2 LT ISZERO PUSH2 0x2A57 JUMPI DUP5 DUP5 SUB DUP10 MSTORE DUP2 MLOAD PUSH2 0x2A38 DUP6 DUP3 PUSH2 0x296B JUMP JUMPDEST SWAP5 POP PUSH2 0x2A43 DUP4 PUSH2 0x329C JUMP JUMPDEST SWAP3 POP PUSH1 0x20 DUP11 ADD SWAP10 POP POP PUSH1 0x1 DUP2 ADD SWAP1 POP PUSH2 0x2A1F JUMP JUMPDEST POP DUP3 SWAP8 POP DUP8 SWAP6 POP POP POP POP POP POP SWAP3 SWAP2 POP POP JUMP JUMPDEST PUSH2 0x2A72 DUP2 PUSH2 0x34BE JUMP JUMPDEST DUP3 MSTORE POP POP JUMP JUMPDEST PUSH2 0x2A81 DUP2 PUSH2 0x3511 JUMP JUMPDEST DUP3 MSTORE POP POP JUMP JUMPDEST PUSH2 0x2A90 DUP2 PUSH2 0x34DD JUMP JUMPDEST DUP3 MSTORE POP POP JUMP JUMPDEST PUSH2 0x2A9F DUP2 PUSH2 0x34DD JUMP JUMPDEST DUP3 MSTORE POP POP JUMP JUMPDEST PUSH1 0x0 PUSH2 0x2AB0 DUP3 PUSH2 0x3284 JUMP JUMPDEST PUSH2 0x2ABA DUP2 DUP6 PUSH2 0x32BF JUMP JUMPDEST SWAP4 POP PUSH2 0x2ACA DUP2 DUP6 PUSH1 0x20 DUP7 ADD PUSH2 0x3532 JUMP JUMPDEST PUSH2 0x2AD3 DUP2 PUSH2 0x378D JUMP JUMPDEST DUP5 ADD SWAP2 POP POP SWAP3 SWAP2 POP POP JUMP JUMPDEST PUSH1 0x0 PUSH2 0x2AE9 DUP3 PUSH2 0x3284 JUMP JUMPDEST PUSH2 0x2AF3 DUP2 DUP6 PUSH2 0x32D0 JUMP JUMPDEST SWAP4 POP PUSH2 0x2B03 DUP2 DUP6 PUSH1 0x20 DUP7 ADD PUSH2 0x3532 JUMP JUMPDEST PUSH2 0x2B0C DUP2 PUSH2 0x378D JUMP JUMPDEST DUP5 ADD SWAP2 POP POP SWAP3 SWAP2 POP POP JUMP JUMPDEST PUSH1 0x0 PUSH2 0x2B22 DUP3 PUSH2 0x3284 JUMP JUMPDEST PUSH2 0x2B2C DUP2 DUP6 PUSH2 0x32E1 JUMP JUMPDEST SWAP4 POP PUSH2 0x2B3C DUP2 DUP6 PUSH1 0x20 DUP7 ADD PUSH2 0x3532 JUMP JUMPDEST DUP1 DUP5 ADD SWAP2 POP POP SWAP3 SWAP2 POP POP JUMP JUMPDEST PUSH1 0x0 PUSH2 0x2B55 PUSH1 0x2 DUP4 PUSH2 0x32E1 JUMP JUMPDEST SWAP2 POP PUSH2 0x2B60 DUP3 PUSH2 0x379E JUMP JUMPDEST PUSH1 0x2 DUP3 ADD SWAP1 POP SWAP2 SWAP1 POP JUMP JUMPDEST PUSH1 0x0 PUSH2 0x2B78 PUSH1 0x43 DUP4 PUSH2 0x32D0 JUMP JUMPDEST SWAP2 POP PUSH2 0x2B83 DUP3 PUSH2 0x37C7 JUMP JUMPDEST PUSH1 0x60 DUP3 ADD SWAP1 POP SWAP2 SWAP1 POP JUMP JUMPDEST PUSH1 0x0 PUSH2 0x2B9B PUSH1 0x36 DUP4 PUSH2 0x32D0 JUMP JUMPDEST SWAP2 POP PUSH2 0x2BA6 DUP3 PUSH2 0x383C JUMP JUMPDEST PUSH1 0x40 DUP3 ADD SWAP1 POP SWAP2 SWAP1 POP JUMP JUMPDEST PUSH1 0x0 PUSH2 0x2BBE PUSH1 0x2F DUP4 PUSH2 0x32D0 JUMP JUMPDEST SWAP2 POP PUSH2 0x2BC9 DUP3 PUSH2 0x388B JUMP JUMPDEST PUSH1 0x40 DUP3 ADD SWAP1 POP SWAP2 SWAP1 POP JUMP JUMPDEST PUSH1 0x0 PUSH2 0x2BE1 PUSH1 0x12 DUP4 PUSH2 0x32D0 JUMP JUMPDEST SWAP2 POP PUSH2 0x2BEC DUP3 PUSH2 0x38DA JUMP JUMPDEST PUSH1 0x20 DUP3 ADD SWAP1 POP SWAP2 SWAP1 POP JUMP JUMPDEST PUSH1 0x0 PUSH2 0x2C04 PUSH1 0x10 DUP4 PUSH2 0x32D0 JUMP JUMPDEST SWAP2 POP PUSH2 0x2C0F DUP3 PUSH2 0x3903 JUMP JUMPDEST PUSH1 0x20 DUP3 ADD SWAP1 POP SWAP2 SWAP1 POP JUMP JUMPDEST PUSH1 0x0 PUSH2 0x2C27 PUSH1 0x22 DUP4 PUSH2 0x32D0 JUMP JUMPDEST SWAP2 POP PUSH2 0x2C32 DUP3 PUSH2 0x392C JUMP JUMPDEST PUSH1 0x40 DUP3 ADD SWAP1 POP SWAP2 SWAP1 POP JUMP JUMPDEST PUSH1 0x0 PUSH2 0x2C4A PUSH1 0x2 DUP4 PUSH2 0x32E1 JUMP JUMPDEST SWAP2 POP PUSH2 0x2C55 DUP3 PUSH2 0x397B JUMP JUMPDEST PUSH1 0x2 DUP3 ADD SWAP1 POP SWAP2 SWAP1 POP JUMP JUMPDEST PUSH1 0x0 PUSH2 0x2C6D PUSH1 0x26 DUP4 PUSH2 0x32D0 JUMP JUMPDEST SWAP2 POP PUSH2 0x2C78 DUP3 PUSH2 0x39A4 JUMP JUMPDEST PUSH1 0x40 DUP3 ADD SWAP1 POP SWAP2 SWAP1 POP JUMP JUMPDEST PUSH1 0x0 PUSH2 0x2C90 PUSH1 0x1 DUP4 PUSH2 0x32E1 JUMP JUMPDEST SWAP2 POP PUSH2 0x2C9B DUP3 PUSH2 0x39F3 JUMP JUMPDEST PUSH1 0x1 DUP3 ADD SWAP1 POP SWAP2 SWAP1 POP JUMP JUMPDEST PUSH1 0x0 PUSH2 0x2CB3 PUSH1 0x2 DUP4 PUSH2 0x32E1 JUMP JUMPDEST SWAP2 POP PUSH2 0x2CBE DUP3 PUSH2 0x3A1C JUMP JUMPDEST PUSH1 0x2 DUP3 ADD SWAP1 POP SWAP2 SWAP1 POP JUMP JUMPDEST PUSH1 0x0 PUSH2 0x2CD6 PUSH1 0x21 DUP4 PUSH2 0x32D0 JUMP JUMPDEST SWAP2 POP PUSH2 0x2CE1 DUP3 PUSH2 0x3A45 JUMP JUMPDEST PUSH1 0x40 DUP3 ADD SWAP1 POP SWAP2 SWAP1 POP JUMP JUMPDEST PUSH1 0x0 PUSH2 0x2CF9 PUSH1 0x2E DUP4 PUSH2 0x32D0 JUMP JUMPDEST SWAP2 POP PUSH2 0x2D04 DUP3 PUSH2 0x3A94 JUMP JUMPDEST PUSH1 0x40 DUP3 ADD SWAP1 POP SWAP2 SWAP1 POP JUMP JUMPDEST PUSH1 0x0 PUSH2 0x2D1C PUSH1 0x2 DUP4 PUSH2 0x32E1 JUMP JUMPDEST SWAP2 POP PUSH2 0x2D27 DUP3 PUSH2 0x3AE3 JUMP JUMPDEST PUSH1 0x2 DUP3 ADD SWAP1 POP SWAP2 SWAP1 POP JUMP JUMPDEST PUSH1 0x0 PUSH2 0x2D3F PUSH1 0x1 DUP4 PUSH2 0x32E1 JUMP JUMPDEST SWAP2 POP PUSH2 0x2D4A DUP3 PUSH2 0x3B0C JUMP JUMPDEST PUSH1 0x1 DUP3 ADD SWAP1 POP SWAP2 SWAP1 POP JUMP JUMPDEST PUSH1 0x0 PUSH2 0x2D62 PUSH1 0x1D DUP4 PUSH2 0x32D0 JUMP JUMPDEST SWAP2 POP PUSH2 0x2D6D DUP3 PUSH2 0x3B35 JUMP JUMPDEST PUSH1 0x20 DUP3 ADD SWAP1 POP SWAP2 SWAP1 POP JUMP JUMPDEST PUSH1 0x0 PUSH2 0x2D85 PUSH1 0x25 DUP4 PUSH2 0x32D0 JUMP JUMPDEST SWAP2 POP PUSH2 0x2D90 DUP3 PUSH2 0x3B5E JUMP JUMPDEST PUSH1 0x40 DUP3 ADD SWAP1 POP SWAP2 SWAP1 POP JUMP JUMPDEST PUSH2 0x2DA4 DUP2 PUSH2 0x3507 JUMP JUMPDEST DUP3 MSTORE POP POP JUMP JUMPDEST PUSH1 0x0 PUSH2 0x2DB6 DUP3 DUP5 PUSH2 0x2B17 JUMP JUMPDEST SWAP2 POP DUP2 SWAP1 POP SWAP3 SWAP2 POP POP JUMP JUMPDEST PUSH1 0x0 PUSH2 0x2DCC DUP3 PUSH2 0x2B48 JUMP JUMPDEST SWAP2 POP DUP2 SWAP1 POP SWAP2 SWAP1 POP JUMP JUMPDEST PUSH1 0x0 PUSH2 0x2DE1 DUP3 PUSH2 0x2C3D JUMP JUMPDEST SWAP2 POP DUP2 SWAP1 POP SWAP2 SWAP1 POP JUMP JUMPDEST PUSH1 0x0 PUSH2 0x2DF6 DUP3 PUSH2 0x2C83 JUMP JUMPDEST SWAP2 POP DUP2 SWAP1 POP SWAP2 SWAP1 POP JUMP JUMPDEST PUSH1 0x0 PUSH2 0x2E0B DUP3 PUSH2 0x2CA6 JUMP JUMPDEST SWAP2 POP DUP2 SWAP1 POP SWAP2 SWAP1 POP JUMP JUMPDEST PUSH1 0x0 PUSH2 0x2E20 DUP3 PUSH2 0x2D0F JUMP JUMPDEST SWAP2 POP DUP2 SWAP1 POP SWAP2 SWAP1 POP JUMP JUMPDEST PUSH1 0x0 PUSH2 0x2E35 DUP3 PUSH2 0x2D32 JUMP JUMPDEST SWAP2 POP DUP2 SWAP1 POP SWAP2 SWAP1 POP JUMP JUMPDEST PUSH1 0x0 PUSH1 0x20 DUP3 ADD SWAP1 POP PUSH2 0x2E54 PUSH1 0x0 DUP4 ADD DUP5 PUSH2 0x298E JUMP JUMPDEST SWAP3 SWAP2 POP POP JUMP JUMPDEST PUSH1 0x0 PUSH1 0x20 DUP3 ADD SWAP1 POP PUSH2 0x2E6F PUSH1 0x0 DUP4 ADD DUP5 PUSH2 0x297F JUMP JUMPDEST SWAP3 SWAP2 POP POP JUMP JUMPDEST PUSH1 0x0 PUSH2 0x240 DUP3 ADD SWAP1 POP PUSH2 0x2E8B PUSH1 0x0 DUP4 ADD DUP15 PUSH2 0x298E JUMP JUMPDEST PUSH2 0x2E98 PUSH1 0x20 DUP4 ADD DUP14 PUSH2 0x298E JUMP JUMPDEST PUSH2 0x2EA5 PUSH1 0x40 DUP4 ADD DUP13 PUSH2 0x2D9B JUMP JUMPDEST PUSH2 0x2EB2 PUSH1 0x60 DUP4 ADD DUP12 PUSH2 0x2D9B JUMP JUMPDEST PUSH2 0x2EBF PUSH1 0x80 DUP4 ADD DUP11 PUSH2 0x2D9B JUMP JUMPDEST PUSH2 0x2ECC PUSH1 0xA0 DUP4 ADD DUP10 PUSH2 0x2D9B JUMP JUMPDEST PUSH2 0x2ED9 PUSH1 0xC0 DUP4 ADD DUP9 PUSH2 0x2D9B JUMP JUMPDEST PUSH2 0x2EE6 PUSH1 0xE0 DUP4 ADD DUP8 PUSH2 0x2D9B JUMP JUMPDEST DUP2 DUP2 SUB PUSH2 0x100 DUP4 ADD MSTORE PUSH2 0x2EF9 DUP2 DUP7 PUSH2 0x29F4 JUMP JUMPDEST SWAP1 POP PUSH2 0x2F09 PUSH2 0x120 DUP4 ADD DUP6 PUSH2 0x299D JUMP JUMPDEST DUP2 DUP2 SUB PUSH2 0x220 DUP4 ADD MSTORE PUSH2 0x2F1C DUP2 DUP5 PUSH2 0x29F4 JUMP JUMPDEST SWAP1 POP SWAP13 SWAP12 POP POP POP POP POP POP POP POP POP POP POP POP JUMP JUMPDEST PUSH1 0x0 PUSH1 0x20 DUP3 ADD SWAP1 POP PUSH2 0x2F43 PUSH1 0x0 DUP4 ADD DUP5 PUSH2 0x2A69 JUMP JUMPDEST SWAP3 SWAP2 POP POP JUMP JUMPDEST PUSH1 0x0 PUSH1 0x40 DUP3 ADD SWAP1 POP PUSH2 0x2F5E PUSH1 0x0 DUP4 ADD DUP5 PUSH2 0x2A69 JUMP JUMPDEST DUP2 DUP2 SUB PUSH1 0x20 DUP4 ADD MSTORE PUSH2 0x2F6F DUP2 PUSH2 0x2BD4 JUMP JUMPDEST SWAP1 POP SWAP3 SWAP2 POP POP JUMP JUMPDEST PUSH1 0x0 PUSH1 0x40 DUP3 ADD SWAP1 POP PUSH2 0x2F8C PUSH1 0x0 DUP4 ADD DUP5 PUSH2 0x2A69 JUMP JUMPDEST DUP2 DUP2 SUB PUSH1 0x20 DUP4 ADD MSTORE PUSH2 0x2F9D DUP2 PUSH2 0x2BF7 JUMP JUMPDEST SWAP1 POP SWAP3 SWAP2 POP POP JUMP JUMPDEST PUSH1 0x0 PUSH1 0x20 DUP3 ADD SWAP1 POP PUSH2 0x2FBA PUSH1 0x0 DUP4 ADD DUP5 PUSH2 0x2A78 JUMP JUMPDEST SWAP3 SWAP2 POP POP JUMP JUMPDEST PUSH1 0x0 PUSH1 0x20 DUP3 ADD SWAP1 POP PUSH2 0x2FD5 PUSH1 0x0 DUP4 ADD DUP5 PUSH2 0x2A96 JUMP JUMPDEST SWAP3 SWAP2 POP POP JUMP JUMPDEST PUSH1 0x0 PUSH1 0x20 DUP3 ADD SWAP1 POP DUP2 DUP2 SUB PUSH1 0x0 DUP4 ADD MSTORE PUSH2 0x2FF5 DUP2 DUP5 PUSH2 0x2ADE JUMP JUMPDEST SWAP1 POP SWAP3 SWAP2 POP POP JUMP JUMPDEST PUSH1 0x0 PUSH1 0x40 DUP3 ADD SWAP1 POP DUP2 DUP2 SUB PUSH1 0x0 DUP4 ADD MSTORE PUSH2 0x3016 DUP2 PUSH2 0x2B6B JUMP JUMPDEST SWAP1 POP PUSH2 0x3025 PUSH1 0x20 DUP4 ADD DUP5 PUSH2 0x2D9B JUMP JUMPDEST SWAP3 SWAP2 POP POP JUMP JUMPDEST PUSH1 0x0 PUSH1 0x20 DUP3 ADD SWAP1 POP DUP2 DUP2 SUB PUSH1 0x0 DUP4 ADD MSTORE PUSH2 0x3044 DUP2 PUSH2 0x2B8E JUMP JUMPDEST SWAP1 POP SWAP2 SWAP1 POP JUMP JUMPDEST PUSH1 0x0 PUSH1 0x40 DUP3 ADD SWAP1 POP DUP2 DUP2 SUB PUSH1 0x0 DUP4 ADD MSTORE PUSH2 0x3064 DUP2 PUSH2 0x2BB1 JUMP JUMPDEST SWAP1 POP PUSH2 0x3073 PUSH1 0x20 DUP4 ADD DUP5 PUSH2 0x2D9B JUMP JUMPDEST SWAP3 SWAP2 POP POP JUMP JUMPDEST PUSH1 0x0 PUSH1 0x40 DUP3 ADD SWAP1 POP DUP2 DUP2 SUB PUSH1 0x0 DUP4 ADD MSTORE PUSH2 0x3092 DUP2 PUSH2 0x2C1A JUMP JUMPDEST SWAP1 POP PUSH2 0x30A1 PUSH1 0x20 DUP4 ADD DUP5 PUSH2 0x2D9B JUMP JUMPDEST SWAP3 SWAP2 POP POP JUMP JUMPDEST PUSH1 0x0 PUSH1 0x40 DUP3 ADD SWAP1 POP DUP2 DUP2 SUB PUSH1 0x0 DUP4 ADD MSTORE PUSH2 0x30C0 DUP2 PUSH2 0x2C60 JUMP JUMPDEST SWAP1 POP PUSH2 0x30CF PUSH1 0x20 DUP4 ADD DUP5 PUSH2 0x2D9B JUMP JUMPDEST SWAP3 SWAP2 POP POP JUMP JUMPDEST PUSH1 0x0 PUSH1 0x40 DUP3 ADD SWAP1 POP DUP2 DUP2 SUB PUSH1 0x0 DUP4 ADD MSTORE PUSH2 0x30EE DUP2 PUSH2 0x2CC9 JUMP JUMPDEST SWAP1 POP PUSH2 0x30FD PUSH1 0x20 DUP4 ADD DUP5 PUSH2 0x2D9B JUMP JUMPDEST SWAP3 SWAP2 POP POP JUMP JUMPDEST PUSH1 0x0 PUSH1 0x40 DUP3 ADD SWAP1 POP DUP2 DUP2 SUB PUSH1 0x0 DUP4 ADD MSTORE PUSH2 0x311C DUP2 PUSH2 0x2CEC JUMP JUMPDEST SWAP1 POP PUSH2 0x312B PUSH1 0x20 DUP4 ADD DUP5 PUSH2 0x2D9B JUMP JUMPDEST SWAP3 SWAP2 POP POP JUMP JUMPDEST PUSH1 0x0 PUSH1 0x20 DUP3 ADD SWAP1 POP DUP2 DUP2 SUB PUSH1 0x0 DUP4 ADD MSTORE PUSH2 0x314A DUP2 PUSH2 0x2D55 JUMP JUMPDEST SWAP1 POP SWAP2 SWAP1 POP JUMP JUMPDEST PUSH1 0x0 PUSH1 0x20 DUP3 ADD SWAP1 POP DUP2 DUP2 SUB PUSH1 0x0 DUP4 ADD MSTORE PUSH2 0x316A DUP2 PUSH2 0x2D78 JUMP JUMPDEST SWAP1 POP SWAP2 SWAP1 POP JUMP JUMPDEST PUSH1 0x0 PUSH1 0x20 DUP3 ADD SWAP1 POP PUSH2 0x3186 PUSH1 0x0 DUP4 ADD DUP5 PUSH2 0x2D9B JUMP JUMPDEST SWAP3 SWAP2 POP POP JUMP JUMPDEST PUSH1 0x0 PUSH2 0x3196 PUSH2 0x31A7 JUMP JUMPDEST SWAP1 POP PUSH2 0x31A2 DUP3 DUP3 PUSH2 0x3597 JUMP JUMPDEST SWAP2 SWAP1 POP JUMP JUMPDEST PUSH1 0x0 PUSH1 0x40 MLOAD SWAP1 POP SWAP1 JUMP JUMPDEST PUSH1 0x0 PUSH8 0xFFFFFFFFFFFFFFFF DUP3 GT ISZERO PUSH2 0x31CC JUMPI PUSH2 0x31CB PUSH2 0x3745 JUMP JUMPDEST JUMPDEST PUSH1 0x20 DUP3 MUL SWAP1 POP SWAP2 SWAP1 POP JUMP JUMPDEST PUSH1 0x0 PUSH8 0xFFFFFFFFFFFFFFFF DUP3 GT ISZERO PUSH2 0x31F2 JUMPI PUSH2 0x31F1 PUSH2 0x3745 JUMP JUMPDEST JUMPDEST PUSH1 0x20 DUP3 MUL SWAP1 POP PUSH1 0x20 DUP2 ADD SWAP1 POP SWAP2 SWAP1 POP JUMP JUMPDEST PUSH1 0x0 PUSH8 0xFFFFFFFFFFFFFFFF DUP3 GT ISZERO PUSH2 0x321E JUMPI PUSH2 0x321D PUSH2 0x3745 JUMP JUMPDEST JUMPDEST PUSH1 0x20 DUP3 MUL SWAP1 POP SWAP2 SWAP1 POP JUMP JUMPDEST PUSH1 0x0 PUSH8 0xFFFFFFFFFFFFFFFF DUP3 GT ISZERO PUSH2 0x3244 JUMPI PUSH2 0x3243 PUSH2 0x3745 JUMP JUMPDEST JUMPDEST PUSH2 0x324D DUP3 PUSH2 0x378D JUMP JUMPDEST SWAP1 POP PUSH1 0x20 DUP2 ADD SWAP1 POP SWAP2 SWAP1 POP JUMP JUMPDEST PUSH1 0x0 DUP2 SWAP1 POP SWAP2 SWAP1 POP JUMP JUMPDEST PUSH1 0x0 DUP2 SWAP1 POP SWAP2 SWAP1 POP JUMP JUMPDEST PUSH1 0x0 PUSH1 0x8 SWAP1 POP SWAP2 SWAP1 POP JUMP JUMPDEST PUSH1 0x0 PUSH1 0x8 SWAP1 POP SWAP2 SWAP1 POP JUMP JUMPDEST PUSH1 0x0 DUP2 MLOAD SWAP1 POP SWAP2 SWAP1 POP JUMP JUMPDEST PUSH1 0x0 PUSH1 0x20 DUP3 ADD SWAP1 POP SWAP2 SWAP1 POP JUMP JUMPDEST PUSH1 0x0 PUSH1 0x20 DUP3 ADD SWAP1 POP SWAP2 SWAP1 POP JUMP JUMPDEST PUSH1 0x0 DUP2 SWAP1 POP SWAP3 SWAP2 POP POP JUMP JUMPDEST PUSH1 0x0 DUP2 SWAP1 POP SWAP3 SWAP2 POP POP JUMP JUMPDEST PUSH1 0x0 DUP3 DUP3 MSTORE PUSH1 0x20 DUP3 ADD SWAP1 POP SWAP3 SWAP2 POP POP JUMP JUMPDEST PUSH1 0x0 DUP3 DUP3 MSTORE PUSH1 0x20 DUP3 ADD SWAP1 POP SWAP3 SWAP2 POP POP JUMP JUMPDEST PUSH1 0x0 DUP2 SWAP1 POP SWAP3 SWAP2 POP POP JUMP JUMPDEST PUSH1 0x0 PUSH2 0x32F7 DUP3 PUSH2 0x34DD JUMP JUMPDEST SWAP2 POP PUSH2 0x3302 DUP4 PUSH2 0x34DD JUMP JUMPDEST SWAP3 POP DUP2 PUSH32 0x7FFFFFFFFFFFFFFFFFFFFFFFFFFFFFFFFFFFFFFFFFFFFFFFFFFFFFFFFFFFFFFF SUB DUP4 SGT PUSH1 0x0 DUP4 SLT ISZERO AND ISZERO PUSH2 0x333D JUMPI PUSH2 0x333C PUSH2 0x365A JUMP JUMPDEST JUMPDEST DUP2 PUSH32 0x8000000000000000000000000000000000000000000000000000000000000000 SUB DUP4 SLT PUSH1 0x0 DUP4 SLT AND ISZERO PUSH2 0x3375 JUMPI PUSH2 0x3374 PUSH2 0x365A JUMP JUMPDEST JUMPDEST DUP3 DUP3 ADD SWAP1 POP SWAP3 SWAP2 POP POP JUMP JUMPDEST PUSH1 0x0 PUSH2 0x338B DUP3 PUSH2 0x3507 JUMP JUMPDEST SWAP2 POP PUSH2 0x3396 DUP4 PUSH2 0x3507 JUMP JUMPDEST SWAP3 POP DUP3 PUSH32 0xFFFFFFFFFFFFFFFFFFFFFFFFFFFFFFFFFFFFFFFFFFFFFFFFFFFFFFFFFFFFFFFF SUB DUP3 GT ISZERO PUSH2 0x33CB JUMPI PUSH2 0x33CA PUSH2 0x365A JUMP JUMPDEST JUMPDEST DUP3 DUP3 ADD SWAP1 POP SWAP3 SWAP2 POP POP JUMP JUMPDEST PUSH1 0x0 PUSH2 0x33E1 DUP3 PUSH2 0x34DD JUMP JUMPDEST SWAP2 POP PUSH2 0x33EC DUP4 PUSH2 0x34DD JUMP JUMPDEST SWAP3 POP DUP3 PUSH2 0x33FC JUMPI PUSH2 0x33FB PUSH2 0x3689 JUMP JUMPDEST JUMPDEST PUSH1 0x1 PUSH1 0x0 SUB DUP4 EQ PUSH32 0x8000000000000000000000000000000000000000000000000000000000000000 DUP4 EQ AND ISZERO PUSH2 0x3435 JUMPI PUSH2 0x3434 PUSH2 0x365A JUMP JUMPDEST JUMPDEST DUP3 DUP3 SDIV SWAP1 POP SWAP3 SWAP2 POP POP JUMP JUMPDEST PUSH1 0x0 PUSH2 0x344B DUP3 PUSH2 0x3507 JUMP JUMPDEST SWAP2 POP PUSH2 0x3456 DUP4 PUSH2 0x3507 JUMP JUMPDEST SWAP3 POP DUP2 PUSH32 0xFFFFFFFFFFFFFFFFFFFFFFFFFFFFFFFFFFFFFFFFFFFFFFFFFFFFFFFFFFFFFFFF DIV DUP4 GT DUP3 ISZERO ISZERO AND ISZERO PUSH2 0x348F JUMPI PUSH2 0x348E PUSH2 0x365A JUMP JUMPDEST JUMPDEST DUP3 DUP3 MUL SWAP1 POP SWAP3 SWAP2 POP POP JUMP JUMPDEST PUSH1 0x0 PUSH2 0x34A5 DUP3 PUSH2 0x34E7 JUMP JUMPDEST SWAP1 POP SWAP2 SWAP1 POP JUMP JUMPDEST PUSH1 0x0 PUSH2 0x34B7 DUP3 PUSH2 0x34E7 JUMP JUMPDEST SWAP1 POP SWAP2 SWAP1 POP JUMP JUMPDEST PUSH1 0x0 DUP2 ISZERO ISZERO SWAP1 POP SWAP2 SWAP1 POP JUMP JUMPDEST PUSH1 0x0 DUP2 SWAP1 POP PUSH2 0x34D8 DUP3 PUSH2 0x3BAD JUMP JUMPDEST SWAP2 SWAP1 POP JUMP JUMPDEST PUSH1 0x0 DUP2 SWAP1 POP SWAP2 SWAP1 POP JUMP JUMPDEST PUSH1 0x0 PUSH20 0xFFFFFFFFFFFFFFFFFFFFFFFFFFFFFFFFFFFFFFFF DUP3 AND SWAP1 POP SWAP2 SWAP1 POP JUMP JUMPDEST PUSH1 0x0 DUP2 SWAP1 POP SWAP2 SWAP1 POP JUMP JUMPDEST PUSH1 0x0 PUSH2 0x351C DUP3 PUSH2 0x34CA JUMP JUMPDEST SWAP1 POP SWAP2 SWAP1 POP JUMP JUMPDEST DUP3 DUP2 DUP4 CALLDATACOPY PUSH1 0x0 DUP4 DUP4 ADD MSTORE POP POP POP JUMP JUMPDEST PUSH1 0x0 JUMPDEST DUP4 DUP2 LT ISZERO PUSH2 0x3550 JUMPI DUP1 DUP3 ADD MLOAD DUP2 DUP5 ADD MSTORE PUSH1 0x20 DUP2 ADD SWAP1 POP PUSH2 0x3535 JUMP JUMPDEST DUP4 DUP2 GT ISZERO PUSH2 0x355F JUMPI PUSH1 0x0 DUP5 DUP5 ADD MSTORE JUMPDEST POP POP POP POP JUMP JUMPDEST PUSH1 0x0 PUSH1 0x2 DUP3 DIV SWAP1 POP PUSH1 0x1 DUP3 AND DUP1 PUSH2 0x357D JUMPI PUSH1 0x7F DUP3 AND SWAP2 POP JUMPDEST PUSH1 0x20 DUP3 LT DUP2 EQ ISZERO PUSH2 0x3591 JUMPI PUSH2 0x3590 PUSH2 0x36E7 JUMP JUMPDEST JUMPDEST POP SWAP2 SWAP1 POP JUMP JUMPDEST PUSH2 0x35A0 DUP3 PUSH2 0x378D JUMP JUMPDEST DUP2 ADD DUP2 DUP2 LT PUSH8 0xFFFFFFFFFFFFFFFF DUP3 GT OR ISZERO PUSH2 0x35BF JUMPI PUSH2 0x35BE PUSH2 0x3745 JUMP JUMPDEST JUMPDEST DUP1 PUSH1 0x40 MSTORE POP POP POP JUMP JUMPDEST PUSH1 0x0 PUSH2 0x35D3 DUP3 PUSH2 0x34DD JUMP JUMPDEST SWAP2 POP PUSH32 0x7FFFFFFFFFFFFFFFFFFFFFFFFFFFFFFFFFFFFFFFFFFFFFFFFFFFFFFFFFFFFFFF DUP3 EQ ISZERO PUSH2 0x3606 JUMPI PUSH2 0x3605 PUSH2 0x365A JUMP JUMPDEST JUMPDEST PUSH1 0x1 DUP3 ADD SWAP1 POP SWAP2 SWAP1 POP JUMP JUMPDEST PUSH1 0x0 PUSH2 0x361C DUP3 PUSH2 0x3507 JUMP JUMPDEST SWAP2 POP PUSH32 0xFFFFFFFFFFFFFFFFFFFFFFFFFFFFFFFFFFFFFFFFFFFFFFFFFFFFFFFFFFFFFFFF DUP3 EQ ISZERO PUSH2 0x364F JUMPI PUSH2 0x364E PUSH2 0x365A JUMP JUMPDEST JUMPDEST PUSH1 0x1 DUP3 ADD SWAP1 POP SWAP2 SWAP1 POP JUMP JUMPDEST PUSH32 0x4E487B7100000000000000000000000000000000000000000000000000000000 PUSH1 0x0 MSTORE PUSH1 0x11 PUSH1 0x4 MSTORE PUSH1 0x24 PUSH1 0x0 REVERT JUMPDEST PUSH32 0x4E487B7100000000000000000000000000000000000000000000000000000000 PUSH1 0x0 MSTORE PUSH1 0x12 PUSH1 0x4 MSTORE PUSH1 0x24 PUSH1 0x0 REVERT JUMPDEST PUSH32 0x4E487B7100000000000000000000000000000000000000000000000000000000 PUSH1 0x0 MSTORE PUSH1 0x21 PUSH1 0x4 MSTORE PUSH1 0x24 PUSH1 0x0 REVERT JUMPDEST PUSH32 0x4E487B7100000000000000000000000000000000000000000000000000000000 PUSH1 0x0 MSTORE PUSH1 0x22 PUSH1 0x4 MSTORE PUSH1 0x24 PUSH1 0x0 REVERT JUMPDEST PUSH32 0x4E487B7100000000000000000000000000000000000000000000000000000000 PUSH1 0x0 MSTORE PUSH1 0x32 PUSH1 0x4 MSTORE PUSH1 0x24 PUSH1 0x0 REVERT JUMPDEST PUSH32 0x4E487B7100000000000000000000000000000000000000000000000000000000 PUSH1 0x0 MSTORE PUSH1 0x41 PUSH1 0x4 MSTORE PUSH1 0x24 PUSH1 0x0 REVERT JUMPDEST PUSH1 0x0 DUP1 REVERT JUMPDEST PUSH1 0x0 DUP1 REVERT JUMPDEST PUSH1 0x0 DUP1 REVERT JUMPDEST PUSH1 0x0 DUP1 REVERT JUMPDEST PUSH1 0x0 DUP1 REVERT JUMPDEST PUSH1 0x0 PUSH1 0x1F NOT PUSH1 0x1F DUP4 ADD AND SWAP1 POP SWAP2 SWAP1 POP JUMP JUMPDEST PUSH32 0x3E3D000000000000000000000000000000000000000000000000000000000000 PUSH1 0x0 DUP3 ADD MSTORE POP JUMP JUMPDEST PUSH32 0x696E7369646520736574436F6E64732069662073746174656D656E742C206166 PUSH1 0x0 DUP3 ADD MSTORE PUSH32 0x74657220656E64496E697453746167652C2063757272656E7420737461676520 PUSH1 0x20 DUP3 ADD MSTORE PUSH32 0x69733A0000000000000000000000000000000000000000000000000000000000 PUSH1 0x40 DUP3 ADD MSTORE POP JUMP JUMPDEST PUSH32 0x43616E6E6F742063616C6C20746869732066756E6374696F6E20646972656374 PUSH1 0x0 DUP3 ADD MSTORE PUSH32 0x6C792C207573652056656E646F72466163746F72792E00000000000000000000 PUSH1 0x20 DUP3 ADD MSTORE POP JUMP JUMPDEST PUSH32 0x696E7369646520736574436F6E64732069662073746174656D656E742C206375 PUSH1 0x0 DUP3 ADD MSTORE PUSH32 0x7272656E742073746167652069733A0000000000000000000000000000000000 PUSH1 0x20 DUP3 ADD MSTORE POP JUMP JUMPDEST PUSH32 0x526566756E64696E67207061796D656E742E0000000000000000000000000000 PUSH1 0x0 DUP3 ADD MSTORE POP JUMP JUMPDEST PUSH32 0x53656E64696E67207061796D656E742E00000000000000000000000000000000 PUSH1 0x0 DUP3 ADD MSTORE POP JUMP JUMPDEST PUSH32 0x696E7369646520736574436F6E64732C2063757272656E742073746167652069 PUSH1 0x0 DUP3 ADD MSTORE PUSH32 0x733A000000000000000000000000000000000000000000000000000000000000 PUSH1 0x20 DUP3 ADD MSTORE POP JUMP JUMPDEST PUSH32 0x3D3D000000000000000000000000000000000000000000000000000000000000 PUSH1 0x0 DUP3 ADD MSTORE POP JUMP JUMPDEST PUSH32 0x696E7369646520656E64496E697453746167652C2063757272656E7420737461 PUSH1 0x0 DUP3 ADD MSTORE PUSH32 0x67652069733A0000000000000000000000000000000000000000000000000000 PUSH1 0x20 DUP3 ADD MSTORE POP JUMP JUMPDEST PUSH32 0x3C00000000000000000000000000000000000000000000000000000000000000 PUSH1 0x0 DUP3 ADD MSTORE POP JUMP JUMPDEST PUSH32 0x213D000000000000000000000000000000000000000000000000000000000000 PUSH1 0x0 DUP3 ADD MSTORE POP JUMP JUMPDEST PUSH32 0x696E7369646520617453746167652C2063757272656E74207374616765206973 PUSH1 0x0 DUP3 ADD MSTORE PUSH32 0x3A00000000000000000000000000000000000000000000000000000000000000 PUSH1 0x20 DUP3 ADD MSTORE POP JUMP JUMPDEST PUSH32 0x7374696C6C20696E7369646520617453746167652C20747279696E6720746F20 PUSH1 0x0 DUP3 ADD MSTORE PUSH32 0x636F6D7061726520697420746F3A000000000000000000000000000000000000 PUSH1 0x20 DUP3 ADD MSTORE POP JUMP JUMPDEST PUSH32 0x3C3D000000000000000000000000000000000000000000000000000000000000 PUSH1 0x0 DUP3 ADD MSTORE POP JUMP JUMPDEST PUSH32 0x3E00000000000000000000000000000000000000000000000000000000000000 PUSH1 0x0 DUP3 ADD MSTORE POP JUMP JUMPDEST PUSH32 0x4E6F742077697468696E207468652062696C6C696E6720706572696F64000000 PUSH1 0x0 DUP3 ADD MSTORE POP JUMP JUMPDEST PUSH32 0x436F6E7472616374206973206E6F7420696E2074686520726571756972656420 PUSH1 0x0 DUP3 ADD MSTORE PUSH32 0x7374617465000000000000000000000000000000000000000000000000000000 PUSH1 0x20 DUP3 ADD MSTORE POP JUMP JUMPDEST PUSH1 0x5 DUP2 LT PUSH2 0x3BBE JUMPI PUSH2 0x3BBD PUSH2 0x36B8 JUMP JUMPDEST JUMPDEST POP JUMP JUMPDEST PUSH2 0x3BCA DUP2 PUSH2 0x349A JUMP JUMPDEST DUP2 EQ PUSH2 0x3BD5 JUMPI PUSH1 0x0 DUP1 REVERT JUMPDEST POP JUMP JUMPDEST PUSH2 0x3BE1 DUP2 PUSH2 0x34DD JUMP JUMPDEST DUP2 EQ PUSH2 0x3BEC JUMPI PUSH1 0x0 DUP1 REVERT JUMPDEST POP JUMP JUMPDEST PUSH2 0x3BF8 DUP2 PUSH2 0x3507 JUMP JUMPDEST DUP2 EQ PUSH2 0x3C03 JUMPI PUSH1 0x0 DUP1 REVERT JUMPDEST POP JUMP INVALID LOG2 PUSH5 0x6970667358 0x22 SLT KECCAK256 0xEE PUSH2 0x1BF2 0xB2 SWAP9 JUMPDEST 0xBB PUSH24 0x858D0FB1457BD4EB9653B441849440EEF270E3AC43A50B64 PUSH20 0x6F6C634300080600330000000000000000000000 "
    },
    "gasEstimates": {
      "creation": {
        "codeDepositCost": "3084000",
        "executionCost": "62024",
        "totalCost": "3146024"
      },
      "external": {
        "admin()": "2577",
        "amount()": "2540",
        "approve()": "infinite",
        "balanceOf()": "428",
        "client()": "2583",
        "contractHash()": "2519",
        "destroy()": "infinite",
        "endInitStage()": "infinite",
        "expiryDate()": "2541",
        "getDetails()": "infinite",
        "init(address,uint256,uint256,uint256,uint256)": "infinite",
        "isSatisfied()": "infinite",
        "names(uint256)": "infinite",
        "nextBillingDate()": "2497",
        "operators(uint256)": "2820",
        "original(uint256)": "infinite",
        "paid()": "2611",
        "payee()": "2559",
        "payeeApproved()": "2566",
        "prevBillingDate()": "2497",
        "receiveServiceData(int256[])": "infinite",
        "receiveServiceDataBypass(int256[])": "infinite",
        "satisfied()": "2633",
        "setActive()": "infinite",
        "setConds(string[8],int256[8],string[8])": "infinite",
        "setInactive()": "infinite",
        "setPayee(address)": "24768",
        "stage()": "2627",
        "startDate()": "2476",
        "storePayment()": "infinite",
        "values(uint256)": "2776"
      },
      "internal": {
        "calcDate(uint256)": "infinite",
        "checkEqual(int256,int256,int256)": "100",
        "checkGreater(int256,int256,int256)": "260",
        "checkLess(int256,int256,int256)": "260",
        "condValid(int256,int256,int256)": "430",
        "initOperators()": "infinite",
        "payVendor()": "infinite",
        "refund()": "infinite",
        "setNewDates()": "infinite"
      }
    },
    "methodIdentifiers": {
      "admin()": "f851a440",
      "amount()": "aa8c217c",
      "approve()": "12424e3f",
      "balanceOf()": "722713f7",
      "client()": "109e94cf",
      "contractHash()": "904c6094",
      "destroy()": "83197ef0",
      "endInitStage()": "9503fe3d",
      "expiryDate()": "516dde43",
      "getDetails()": "fbbf93a0",
      "init(address,uint256,uint256,uint256,uint256)": "9a730617",
      "isSatisfied()": "a2c14ad3",
      "names(uint256)": "4622ab03",
      "nextBillingDate()": "43885314",
      "operators(uint256)": "e28d4906",
      "original(uint256)": "717eb03f",
      "paid()": "295b4e17",
      "payee()": "ae90b213",
      "payeeApproved()": "97c0bba1",
      "prevBillingDate()": "25419c24",
      "receiveServiceData(int256[])": "21ce5afd",
      "receiveServiceDataBypass(int256[])": "e9d94c58",
      "satisfied()": "3a40f3b2",
      "setActive()": "760a8c2a",
      "setConds(string[8],int256[8],string[8])": "fadeaa59",
      "setInactive()": "f1b9ee24",
      "setPayee(address)": "410459ad",
      "stage()": "c040e6b8",
      "startDate()": "0b97bc86",
      "storePayment()": "84ac4446",
      "values(uint256)": "5e383d21"
    }
  },
  "storageLayout": {
    "storage": [
      {
        "astId": 41,
        "contract": "Vendor.sol:Vendor",
        "label": "admin",
        "offset": 0,
        "slot": "0",
        "type": "t_address"
      },
      {
        "astId": 43,
        "contract": "Vendor.sol:Vendor",
        "label": "client",
        "offset": 0,
        "slot": "1",
        "type": "t_address_payable"
      },
      {
        "astId": 45,
        "contract": "Vendor.sol:Vendor",
        "label": "payee",
        "offset": 0,
        "slot": "2",
        "type": "t_address_payable"
      },
      {
        "astId": 47,
        "contract": "Vendor.sol:Vendor",
        "label": "payeeApproved",
        "offset": 20,
        "slot": "2",
        "type": "t_bool"
      },
      {
        "astId": 49,
        "contract": "Vendor.sol:Vendor",
        "label": "paid",
        "offset": 21,
        "slot": "2",
        "type": "t_bool"
      },
      {
        "astId": 51,
        "contract": "Vendor.sol:Vendor",
        "label": "startDate",
        "offset": 0,
        "slot": "3",
        "type": "t_uint256"
      },
      {
        "astId": 53,
        "contract": "Vendor.sol:Vendor",
        "label": "expiryDate",
        "offset": 0,
        "slot": "4",
        "type": "t_uint256"
      },
      {
        "astId": 55,
        "contract": "Vendor.sol:Vendor",
        "label": "amount",
        "offset": 0,
        "slot": "5",
        "type": "t_uint256"
      },
      {
        "astId": 57,
        "contract": "Vendor.sol:Vendor",
        "label": "prevBillingDate",
        "offset": 0,
        "slot": "6",
        "type": "t_uint256"
      },
      {
        "astId": 59,
        "contract": "Vendor.sol:Vendor",
        "label": "nextBillingDate",
        "offset": 0,
        "slot": "7",
        "type": "t_uint256"
      },
      {
        "astId": 61,
        "contract": "Vendor.sol:Vendor",
        "label": "contractHash",
        "offset": 0,
        "slot": "8",
        "type": "t_uint256"
      },
      {
        "astId": 72,
        "contract": "Vendor.sol:Vendor",
        "label": "stage",
        "offset": 0,
        "slot": "9",
        "type": "t_enum(Stages)67"
      },
      {
        "astId": 75,
        "contract": "Vendor.sol:Vendor",
        "label": "satisfied",
        "offset": 1,
        "slot": "9",
        "type": "t_bool"
      },
      {
        "astId": 79,
        "contract": "Vendor.sol:Vendor",
        "label": "names",
        "offset": 0,
        "slot": "10",
        "type": "t_array(t_string_storage)8_storage"
      },
      {
        "astId": 83,
        "contract": "Vendor.sol:Vendor",
        "label": "values",
        "offset": 0,
        "slot": "18",
        "type": "t_array(t_int256)8_storage"
      },
      {
        "astId": 87,
        "contract": "Vendor.sol:Vendor",
        "label": "operators",
        "offset": 0,
        "slot": "26",
        "type": "t_array(t_int256)8_storage"
      },
      {
        "astId": 91,
        "contract": "Vendor.sol:Vendor",
        "label": "original",
        "offset": 0,
        "slot": "34",
        "type": "t_array(t_string_storage)8_storage"
      },
      {
        "astId": 95,
        "contract": "Vendor.sol:Vendor",
        "label": "convert",
        "offset": 0,
        "slot": "42",
        "type": "t_mapping(t_string_memory_ptr,t_int256)"
      },
      {
        "astId": 98,
        "contract": "Vendor.sol:Vendor",
        "label": "conditionCount",
        "offset": 0,
        "slot": "43",
        "type": "t_uint256"
      },
      {
        "astId": 105,
        "contract": "Vendor.sol:Vendor",
        "label": "cumulative",
        "offset": 0,
        "slot": "44",
        "type": "t_mapping(t_uint256,t_int256)"
      },
      {
        "astId": 108,
        "contract": "Vendor.sol:Vendor",
        "label": "count",
        "offset": 0,
        "slot": "45",
        "type": "t_int256"
      }
    ],
    "types": {
      "t_address": {
        "encoding": "inplace",
        "label": "address",
        "numberOfBytes": "20"
      },
      "t_address_payable": {
        "encoding": "inplace",
        "label": "address payable",
        "numberOfBytes": "20"
      },
      "t_array(t_int256)8_storage": {
        "base": "t_int256",
        "encoding": "inplace",
        "label": "int256[8]",
        "numberOfBytes": "256"
      },
      "t_array(t_string_storage)8_storage": {
        "base": "t_string_storage",
        "encoding": "inplace",
        "label": "string[8]",
        "numberOfBytes": "256"
      },
      "t_bool": {
        "encoding": "inplace",
        "label": "bool",
        "numberOfBytes": "1"
      },
      "t_enum(Stages)67": {
        "encoding": "inplace",
        "label": "enum Vendor.Stages",
        "numberOfBytes": "1"
      },
      "t_int256": {
        "encoding": "inplace",
        "label": "int256",
        "numberOfBytes": "32"
      },
      "t_mapping(t_string_memory_ptr,t_int256)": {
        "encoding": "mapping",
        "key": "t_string_memory_ptr",
        "label": "mapping(string => int256)",
        "numberOfBytes": "32",
        "value": "t_int256"
      },
      "t_mapping(t_uint256,t_int256)": {
        "encoding": "mapping",
        "key": "t_uint256",
        "label": "mapping(uint256 => int256)",
        "numberOfBytes": "32",
        "value": "t_int256"
      },
      "t_string_memory_ptr": {
        "encoding": "bytes",
        "label": "string",
        "numberOfBytes": "32"
      },
      "t_string_storage": {
        "encoding": "bytes",
        "label": "string",
        "numberOfBytes": "32"
      },
      "t_uint256": {
        "encoding": "inplace",
        "label": "uint256",
        "numberOfBytes": "32"
      }
    }
  },
  "userdoc": {
    "kind": "user",
    "methods": {},
    "notice": "Contract that handles automated payment, considering if conditions are satisfied.",
    "version": 1
  }
}