{
  "abi": [
    {
      "anonymous": false,
      "inputs": [
        {
          "indexed": true,
          "internalType": "address",
          "name": "sender",
          "type": "address"
        },
        {
          "indexed": false,
          "internalType": "bool",
          "name": "isSatisfied",
          "type": "bool"
        },
        {
          "indexed": false,
          "internalType": "string",
          "name": "message",
          "type": "string"
        }
      ],
      "name": "State",
      "type": "event"
    },
    {
      "inputs": [],
      "name": "admin",
      "outputs": [
        {
          "internalType": "address",
          "name": "",
          "type": "address"
        }
      ],
      "stateMutability": "view",
      "type": "function"
    },
    {
      "inputs": [],
      "name": "amount",
      "outputs": [
        {
          "internalType": "uint256",
          "name": "",
          "type": "uint256"
        }
      ],
      "stateMutability": "view",
      "type": "function"
    },
    {
      "inputs": [],
      "name": "approve",
      "outputs": [],
      "stateMutability": "nonpayable",
      "type": "function"
    },
    {
      "inputs": [],
      "name": "balanceOf",
      "outputs": [
        {
          "internalType": "uint256",
          "name": "",
          "type": "uint256"
        }
      ],
      "stateMutability": "view",
      "type": "function"
    },
    {
      "inputs": [],
      "name": "client",
      "outputs": [
        {
          "internalType": "address payable",
          "name": "",
          "type": "address"
        }
      ],
      "stateMutability": "view",
      "type": "function"
    },
    {
      "inputs": [
        {
          "internalType": "uint256",
          "name": "",
          "type": "uint256"
        }
      ],
      "name": "conditionArray",
      "outputs": [
        {
          "internalType": "int256",
          "name": "value",
          "type": "int256"
        },
        {
          "internalType": "int256",
          "name": "operator",
          "type": "int256"
        },
        {
          "internalType": "string",
          "name": "name",
          "type": "string"
        }
      ],
      "stateMutability": "view",
      "type": "function"
    },
    {
      "inputs": [],
      "name": "contractHash",
      "outputs": [
        {
          "internalType": "uint256",
          "name": "",
          "type": "uint256"
        }
      ],
      "stateMutability": "view",
      "type": "function"
    },
    {
      "inputs": [],
      "name": "destroy",
      "outputs": [],
      "stateMutability": "nonpayable",
      "type": "function"
    },
    {
      "inputs": [],
      "name": "endInitStage",
      "outputs": [],
      "stateMutability": "nonpayable",
      "type": "function"
    },
    {
      "inputs": [],
      "name": "expiryDate",
      "outputs": [
        {
          "internalType": "uint256",
          "name": "",
          "type": "uint256"
        }
      ],
      "stateMutability": "view",
      "type": "function"
    },
    {
      "inputs": [],
      "name": "getDetails",
      "outputs": [
        {
          "internalType": "address",
          "name": "",
          "type": "address"
        },
        {
          "internalType": "address",
          "name": "",
          "type": "address"
        },
        {
          "internalType": "uint256",
          "name": "",
          "type": "uint256"
        },
        {
          "internalType": "uint256",
          "name": "",
          "type": "uint256"
        },
        {
          "internalType": "uint256",
          "name": "",
          "type": "uint256"
        },
        {
          "internalType": "uint256",
          "name": "",
          "type": "uint256"
        },
        {
          "internalType": "uint256",
          "name": "",
          "type": "uint256"
        },
        {
          "internalType": "uint256",
          "name": "",
          "type": "uint256"
        }
      ],
      "stateMutability": "view",
      "type": "function"
    },
    {
      "inputs": [
        {
          "internalType": "address",
          "name": "_client",
          "type": "address"
        },
        {
          "internalType": "uint256",
          "name": "_expiredOn",
          "type": "uint256"
        },
        {
          "internalType": "uint256",
          "name": "_startDate",
          "type": "uint256"
        },
        {
          "internalType": "uint256",
          "name": "_contractHash",
          "type": "uint256"
        },
        {
          "internalType": "uint256",
          "name": "_amount",
          "type": "uint256"
        }
      ],
      "name": "init",
      "outputs": [],
      "stateMutability": "nonpayable",
      "type": "function"
    },
    {
      "inputs": [],
      "name": "nextBillingDate",
      "outputs": [
        {
          "internalType": "uint256",
          "name": "",
          "type": "uint256"
        }
      ],
      "stateMutability": "view",
      "type": "function"
    },
    {
      "inputs": [],
      "name": "payee",
      "outputs": [
        {
          "internalType": "address payable",
          "name": "",
          "type": "address"
        }
      ],
      "stateMutability": "view",
      "type": "function"
    },
    {
      "inputs": [],
      "name": "payeeApproved",
      "outputs": [
        {
          "internalType": "bool",
          "name": "",
          "type": "bool"
        }
      ],
      "stateMutability": "view",
      "type": "function"
    },
    {
      "inputs": [],
      "name": "prevBillingDate",
      "outputs": [
        {
          "internalType": "uint256",
          "name": "",
          "type": "uint256"
        }
      ],
      "stateMutability": "view",
      "type": "function"
    },
    {
      "inputs": [
        {
          "internalType": "int256[]",
          "name": "_cumulative",
          "type": "int256[]"
        }
      ],
      "name": "receiveServiceData",
      "outputs": [],
      "stateMutability": "nonpayable",
      "type": "function"
    },
    {
      "inputs": [],
      "name": "satisfied",
      "outputs": [
        {
          "internalType": "bool",
          "name": "",
          "type": "bool"
        }
      ],
      "stateMutability": "view",
      "type": "function"
    },
    {
      "inputs": [],
      "name": "setActive",
      "outputs": [],
      "stateMutability": "nonpayable",
      "type": "function"
    },
    {
      "inputs": [
        {
          "internalType": "string[8]",
          "name": "_names",
          "type": "string[8]"
        },
        {
          "internalType": "int256[8]",
          "name": "_values",
          "type": "int256[8]"
        },
        {
          "internalType": "string[8]",
          "name": "_operators",
          "type": "string[8]"
        }
      ],
      "name": "setConds",
      "outputs": [],
      "stateMutability": "nonpayable",
      "type": "function"
    },
    {
      "inputs": [],
      "name": "setInactive",
      "outputs": [],
      "stateMutability": "nonpayable",
      "type": "function"
    },
    {
      "inputs": [
        {
          "internalType": "address",
          "name": "_payee",
          "type": "address"
        }
      ],
      "name": "setPayee",
      "outputs": [],
      "stateMutability": "nonpayable",
      "type": "function"
    },
    {
      "inputs": [],
      "name": "stage",
      "outputs": [
        {
          "internalType": "enum Vendor.Stages",
          "name": "",
          "type": "uint8"
        }
      ],
      "stateMutability": "view",
      "type": "function"
    },
    {
      "inputs": [],
      "name": "startDate",
      "outputs": [
        {
          "internalType": "uint256",
          "name": "",
          "type": "uint256"
        }
      ],
      "stateMutability": "view",
      "type": "function"
    },
    {
      "inputs": [],
      "name": "storePayment",
      "outputs": [],
      "stateMutability": "payable",
      "type": "function"
    }
  ],
  "devdoc": {
    "kind": "dev",
    "methods": {},
    "version": 1
  },
  "evm": {
    "assembly": "    /* \"Vendor.sol\":151:8212  contract Vendor {... */\n  mstore(0x40, 0x80)\n    /* \"Vendor.sol\":615:634  Stages.Initialising */\n  0x00\n    /* \"Vendor.sol\":593:634  Stages public stage = Stages.Initialising */\n  0x09\n  exp(0x0100, 0x00)\n  dup2\n  sload\n  dup2\n  0xff\n  mul\n  not\n  and\n  swap1\n  dup4\n  0x04\n  dup2\n  gt\n  iszero\n  tag_1\n  jumpi\n  tag_2\n  tag_3\n  jump\t// in\ntag_2:\ntag_1:\n  mul\n  or\n  swap1\n  sstore\n  pop\n    /* \"Vendor.sol\":665:670  false */\n  0x00\n    /* \"Vendor.sol\":641:670  bool public satisfied = false */\n  0x09\n  exp(0x0100, 0x01)\n  dup2\n  sload\n  dup2\n  0xff\n  mul\n  not\n  and\n  swap1\n  dup4\n  iszero\n  iszero\n  mul\n  or\n  swap1\n  sstore\n  pop\n    /* \"Vendor.sol\":151:8212  contract Vendor {... */\n  callvalue\n  dup1\n  iszero\n  tag_4\n  jumpi\n  0x00\n  dup1\n  revert\ntag_4:\n  pop\n  jump(tag_5)\n    /* \"#utility.yul\":7:187   */\ntag_3:\n    /* \"#utility.yul\":55:132   */\n  0x4e487b7100000000000000000000000000000000000000000000000000000000\n    /* \"#utility.yul\":52:53   */\n  0x00\n    /* \"#utility.yul\":45:133   */\n  mstore\n    /* \"#utility.yul\":152:156   */\n  0x21\n    /* \"#utility.yul\":149:150   */\n  0x04\n    /* \"#utility.yul\":142:157   */\n  mstore\n    /* \"#utility.yul\":176:180   */\n  0x24\n    /* \"#utility.yul\":173:174   */\n  0x00\n    /* \"#utility.yul\":166:181   */\n  revert\n    /* \"Vendor.sol\":151:8212  contract Vendor {... */\ntag_5:\n  dataSize(sub_0)\n  dup1\n  dataOffset(sub_0)\n  0x00\n  codecopy\n  0x00\n  return\nstop\n\nsub_0: assembly {\n        /* \"Vendor.sol\":151:8212  contract Vendor {... */\n      mstore(0x40, 0x80)\n      jumpi(tag_1, lt(calldatasize, 0x04))\n      shr(0xe0, calldataload(0x00))\n      dup1\n      0x83197ef0\n      gt\n      tag_27\n      jumpi\n      dup1\n      0xaa8c217c\n      gt\n      tag_28\n      jumpi\n      dup1\n      0xf1b9ee24\n      gt\n      tag_29\n      jumpi\n      dup1\n      0xf1b9ee24\n      eq\n      tag_23\n      jumpi\n      dup1\n      0xf851a440\n      eq\n      tag_24\n      jumpi\n      dup1\n      0xfadeaa59\n      eq\n      tag_25\n      jumpi\n      dup1\n      0xfbbf93a0\n      eq\n      tag_26\n      jumpi\n      jump(tag_1)\n    tag_29:\n      dup1\n      0xaa8c217c\n      eq\n      tag_20\n      jumpi\n      dup1\n      0xae90b213\n      eq\n      tag_21\n      jumpi\n      dup1\n      0xc040e6b8\n      eq\n      tag_22\n      jumpi\n      jump(tag_1)\n    tag_28:\n      dup1\n      0x83197ef0\n      eq\n      tag_14\n      jumpi\n      dup1\n      0x84ac4446\n      eq\n      tag_15\n      jumpi\n      dup1\n      0x904c6094\n      eq\n      tag_16\n      jumpi\n      dup1\n      0x9503fe3d\n      eq\n      tag_17\n      jumpi\n      dup1\n      0x97c0bba1\n      eq\n      tag_18\n      jumpi\n      dup1\n      0x9a730617\n      eq\n      tag_19\n      jumpi\n      jump(tag_1)\n    tag_27:\n      dup1\n      0x3a40f3b2\n      gt\n      tag_30\n      jumpi\n      dup1\n      0x3a40f3b2\n      eq\n      tag_8\n      jumpi\n      dup1\n      0x410459ad\n      eq\n      tag_9\n      jumpi\n      dup1\n      0x43885314\n      eq\n      tag_10\n      jumpi\n      dup1\n      0x516dde43\n      eq\n      tag_11\n      jumpi\n      dup1\n      0x722713f7\n      eq\n      tag_12\n      jumpi\n      dup1\n      0x760a8c2a\n      eq\n      tag_13\n      jumpi\n      jump(tag_1)\n    tag_30:\n      dup1\n      0x0b97bc86\n      eq\n      tag_2\n      jumpi\n      dup1\n      0x109e94cf\n      eq\n      tag_3\n      jumpi\n      dup1\n      0x12424e3f\n      eq\n      tag_4\n      jumpi\n      dup1\n      0x182541d2\n      eq\n      tag_5\n      jumpi\n      dup1\n      0x21ce5afd\n      eq\n      tag_6\n      jumpi\n      dup1\n      0x25419c24\n      eq\n      tag_7\n      jumpi\n    tag_1:\n      0x00\n      dup1\n      revert\n        /* \"Vendor.sol\":300:321  uint public startDate */\n    tag_2:\n      callvalue\n      dup1\n      iszero\n      tag_31\n      jumpi\n      0x00\n      dup1\n      revert\n    tag_31:\n      pop\n      tag_32\n      tag_33\n      jump\t// in\n    tag_32:\n      mload(0x40)\n      tag_34\n      swap2\n      swap1\n      tag_35\n      jump\t// in\n    tag_34:\n      mload(0x40)\n      dup1\n      swap2\n      sub\n      swap1\n      return\n        /* \"Vendor.sol\":199:228  address payable public client */\n    tag_3:\n      callvalue\n      dup1\n      iszero\n      tag_36\n      jumpi\n      0x00\n      dup1\n      revert\n    tag_36:\n      pop\n      tag_37\n      tag_38\n      jump\t// in\n    tag_37:\n      mload(0x40)\n      tag_39\n      swap2\n      swap1\n      tag_40\n      jump\t// in\n    tag_39:\n      mload(0x40)\n      dup1\n      swap2\n      sub\n      swap1\n      return\n        /* \"Vendor.sol\":3538:3730  function approve() external {... */\n    tag_4:\n      callvalue\n      dup1\n      iszero\n      tag_41\n      jumpi\n      0x00\n      dup1\n      revert\n    tag_41:\n      pop\n      tag_42\n      tag_43\n      jump\t// in\n    tag_42:\n      stop\n        /* \"Vendor.sol\":901:935  Conditions[] public conditionArray */\n    tag_5:\n      callvalue\n      dup1\n      iszero\n      tag_44\n      jumpi\n      0x00\n      dup1\n      revert\n    tag_44:\n      pop\n      tag_45\n      0x04\n      dup1\n      calldatasize\n      sub\n      dup2\n      add\n      swap1\n      tag_46\n      swap2\n      swap1\n      tag_47\n      jump\t// in\n    tag_46:\n      tag_48\n      jump\t// in\n    tag_45:\n      mload(0x40)\n      tag_49\n      swap4\n      swap3\n      swap2\n      swap1\n      tag_50\n      jump\t// in\n    tag_49:\n      mload(0x40)\n      dup1\n      swap2\n      sub\n      swap1\n      return\n        /* \"Vendor.sol\":4951:5191  function receiveServiceData(int[] memory _cumulative) external atStage(Stages.Active) checkBillingDate() {... */\n    tag_6:\n      callvalue\n      dup1\n      iszero\n      tag_51\n      jumpi\n      0x00\n      dup1\n      revert\n    tag_51:\n      pop\n      tag_52\n      0x04\n      dup1\n      calldatasize\n      sub\n      dup2\n      add\n      swap1\n      tag_53\n      swap2\n      swap1\n      tag_54\n      jump\t// in\n    tag_53:\n      tag_55\n      jump\t// in\n    tag_52:\n      stop\n        /* \"Vendor.sol\":379:406  uint public prevBillingDate */\n    tag_7:\n      callvalue\n      dup1\n      iszero\n      tag_56\n      jumpi\n      0x00\n      dup1\n      revert\n    tag_56:\n      pop\n      tag_57\n      tag_58\n      jump\t// in\n    tag_57:\n      mload(0x40)\n      tag_59\n      swap2\n      swap1\n      tag_35\n      jump\t// in\n    tag_59:\n      mload(0x40)\n      dup1\n      swap2\n      sub\n      swap1\n      return\n        /* \"Vendor.sol\":641:670  bool public satisfied = false */\n    tag_8:\n      callvalue\n      dup1\n      iszero\n      tag_60\n      jumpi\n      0x00\n      dup1\n      revert\n    tag_60:\n      pop\n      tag_61\n      tag_62\n      jump\t// in\n    tag_61:\n      mload(0x40)\n      tag_63\n      swap2\n      swap1\n      tag_64\n      jump\t// in\n    tag_63:\n      mload(0x40)\n      dup1\n      swap2\n      sub\n      swap1\n      return\n        /* \"Vendor.sol\":2971:3054  function setPayee(address _payee) external {... */\n    tag_9:\n      callvalue\n      dup1\n      iszero\n      tag_65\n      jumpi\n      0x00\n      dup1\n      revert\n    tag_65:\n      pop\n      tag_66\n      0x04\n      dup1\n      calldatasize\n      sub\n      dup2\n      add\n      swap1\n      tag_67\n      swap2\n      swap1\n      tag_68\n      jump\t// in\n    tag_67:\n      tag_69\n      jump\t// in\n    tag_66:\n      stop\n        /* \"Vendor.sol\":412:439  uint public nextBillingDate */\n    tag_10:\n      callvalue\n      dup1\n      iszero\n      tag_70\n      jumpi\n      0x00\n      dup1\n      revert\n    tag_70:\n      pop\n      tag_71\n      tag_72\n      jump\t// in\n    tag_71:\n      mload(0x40)\n      tag_73\n      swap2\n      swap1\n      tag_35\n      jump\t// in\n    tag_73:\n      mload(0x40)\n      dup1\n      swap2\n      sub\n      swap1\n      return\n        /* \"Vendor.sol\":327:349  uint public expiryDate */\n    tag_11:\n      callvalue\n      dup1\n      iszero\n      tag_74\n      jumpi\n      0x00\n      dup1\n      revert\n    tag_74:\n      pop\n      tag_75\n      tag_76\n      jump\t// in\n    tag_75:\n      mload(0x40)\n      tag_77\n      swap2\n      swap1\n      tag_35\n      jump\t// in\n    tag_77:\n      mload(0x40)\n      dup1\n      swap2\n      sub\n      swap1\n      return\n        /* \"Vendor.sol\":4274:4369  function balanceOf() external view returns (uint) {... */\n    tag_12:\n      callvalue\n      dup1\n      iszero\n      tag_78\n      jumpi\n      0x00\n      dup1\n      revert\n    tag_78:\n      pop\n      tag_79\n      tag_80\n      jump\t// in\n    tag_79:\n      mload(0x40)\n      tag_81\n      swap2\n      swap1\n      tag_35\n      jump\t// in\n    tag_81:\n      mload(0x40)\n      dup1\n      swap2\n      sub\n      swap1\n      return\n        /* \"Vendor.sol\":6843:6936  function setActive() external atStage(Stages.Inactive) {... */\n    tag_13:\n      callvalue\n      dup1\n      iszero\n      tag_82\n      jumpi\n      0x00\n      dup1\n      revert\n    tag_82:\n      pop\n      tag_83\n      tag_84\n      jump\t// in\n    tag_83:\n      stop\n        /* \"Vendor.sol\":7043:7133  function destroy() external atStage(Stages.Inactive) {... */\n    tag_14:\n      callvalue\n      dup1\n      iszero\n      tag_85\n      jumpi\n      0x00\n      dup1\n      revert\n    tag_85:\n      pop\n      tag_86\n      tag_87\n      jump\t// in\n    tag_86:\n      stop\n        /* \"Vendor.sol\":4111:4268  function storePayment() external payable atStage(Stages.Active) checkBillingDate() {... */\n    tag_15:\n      tag_88\n      tag_89\n      jump\t// in\n    tag_88:\n      stop\n        /* \"Vendor.sol\":445:469  uint public contractHash */\n    tag_16:\n      callvalue\n      dup1\n      iszero\n      tag_90\n      jumpi\n      0x00\n      dup1\n      revert\n    tag_90:\n      pop\n      tag_91\n      tag_92\n      jump\t// in\n    tag_91:\n      mload(0x40)\n      tag_93\n      swap2\n      swap1\n      tag_35\n      jump\t// in\n    tag_93:\n      mload(0x40)\n      dup1\n      swap2\n      sub\n      swap1\n      return\n        /* \"Vendor.sol\":3060:3307  function endInitStage() public atStage(Stages.Initialising) {... */\n    tag_17:\n      callvalue\n      dup1\n      iszero\n      tag_94\n      jumpi\n      0x00\n      dup1\n      revert\n    tag_94:\n      pop\n      tag_95\n      tag_96\n      jump\t// in\n    tag_95:\n      stop\n        /* \"Vendor.sol\":268:293  bool public payeeApproved */\n    tag_18:\n      callvalue\n      dup1\n      iszero\n      tag_97\n      jumpi\n      0x00\n      dup1\n      revert\n    tag_97:\n      pop\n      tag_98\n      tag_99\n      jump\t// in\n    tag_98:\n      mload(0x40)\n      tag_100\n      swap2\n      swap1\n      tag_64\n      jump\t// in\n    tag_100:\n      mload(0x40)\n      dup1\n      swap2\n      sub\n      swap1\n      return\n        /* \"Vendor.sol\":1642:2073  function init(address _client, uint _expiredOn, uint _startDate, uint _contractHash, uint _amount) public {... */\n    tag_19:\n      callvalue\n      dup1\n      iszero\n      tag_101\n      jumpi\n      0x00\n      dup1\n      revert\n    tag_101:\n      pop\n      tag_102\n      0x04\n      dup1\n      calldatasize\n      sub\n      dup2\n      add\n      swap1\n      tag_103\n      swap2\n      swap1\n      tag_104\n      jump\t// in\n    tag_103:\n      tag_105\n      jump\t// in\n    tag_102:\n      stop\n        /* \"Vendor.sol\":355:373  uint public amount */\n    tag_20:\n      callvalue\n      dup1\n      iszero\n      tag_106\n      jumpi\n      0x00\n      dup1\n      revert\n    tag_106:\n      pop\n      tag_107\n      tag_108\n      jump\t// in\n    tag_107:\n      mload(0x40)\n      tag_109\n      swap2\n      swap1\n      tag_35\n      jump\t// in\n    tag_109:\n      mload(0x40)\n      dup1\n      swap2\n      sub\n      swap1\n      return\n        /* \"Vendor.sol\":234:262  address payable public payee */\n    tag_21:\n      callvalue\n      dup1\n      iszero\n      tag_110\n      jumpi\n      0x00\n      dup1\n      revert\n    tag_110:\n      pop\n      tag_111\n      tag_112\n      jump\t// in\n    tag_111:\n      mload(0x40)\n      tag_113\n      swap2\n      swap1\n      tag_40\n      jump\t// in\n    tag_113:\n      mload(0x40)\n      dup1\n      swap2\n      sub\n      swap1\n      return\n        /* \"Vendor.sol\":593:634  Stages public stage = Stages.Initialising */\n    tag_22:\n      callvalue\n      dup1\n      iszero\n      tag_114\n      jumpi\n      0x00\n      dup1\n      revert\n    tag_114:\n      pop\n      tag_115\n      tag_116\n      jump\t// in\n    tag_115:\n      mload(0x40)\n      tag_117\n      swap2\n      swap1\n      tag_118\n      jump\t// in\n    tag_117:\n      mload(0x40)\n      dup1\n      swap2\n      sub\n      swap1\n      return\n        /* \"Vendor.sol\":6942:7037  function setInactive() external atStage(Stages.Active) {... */\n    tag_23:\n      callvalue\n      dup1\n      iszero\n      tag_119\n      jumpi\n      0x00\n      dup1\n      revert\n    tag_119:\n      pop\n      tag_120\n      tag_121\n      jump\t// in\n    tag_120:\n      stop\n        /* \"Vendor.sol\":173:193  address public admin */\n    tag_24:\n      callvalue\n      dup1\n      iszero\n      tag_122\n      jumpi\n      0x00\n      dup1\n      revert\n    tag_122:\n      pop\n      tag_123\n      tag_124\n      jump\t// in\n    tag_123:\n      mload(0x40)\n      tag_125\n      swap2\n      swap1\n      tag_126\n      jump\t// in\n    tag_125:\n      mload(0x40)\n      dup1\n      swap2\n      sub\n      swap1\n      return\n        /* \"Vendor.sol\":2496:2965  function setConds(string[8] memory _names, int[8] memory _values, string[8] memory _operators) external atStage(Stages.Initialising) {... */\n    tag_25:\n      callvalue\n      dup1\n      iszero\n      tag_127\n      jumpi\n      0x00\n      dup1\n      revert\n    tag_127:\n      pop\n      tag_128\n      0x04\n      dup1\n      calldatasize\n      sub\n      dup2\n      add\n      swap1\n      tag_129\n      swap2\n      swap1\n      tag_130\n      jump\t// in\n    tag_129:\n      tag_131\n      jump\t// in\n    tag_128:\n      stop\n        /* \"Vendor.sol\":3888:4105  function getDetails() external view returns (address, address, uint, uint, uint, uint, uint, uint) {... */\n    tag_26:\n      callvalue\n      dup1\n      iszero\n      tag_132\n      jumpi\n      0x00\n      dup1\n      revert\n    tag_132:\n      pop\n      tag_133\n      tag_134\n      jump\t// in\n    tag_133:\n      mload(0x40)\n      tag_135\n      swap9\n      swap8\n      swap7\n      swap6\n      swap5\n      swap4\n      swap3\n      swap2\n      swap1\n      tag_136\n      jump\t// in\n    tag_135:\n      mload(0x40)\n      dup1\n      swap2\n      sub\n      swap1\n      return\n        /* \"Vendor.sol\":300:321  uint public startDate */\n    tag_33:\n      sload(0x03)\n      dup2\n      jump\t// out\n        /* \"Vendor.sol\":199:228  address payable public client */\n    tag_38:\n      0x01\n      0x00\n      swap1\n      sload\n      swap1\n      0x0100\n      exp\n      swap1\n      div\n      0xffffffffffffffffffffffffffffffffffffffff\n      and\n      dup2\n      jump\t// out\n        /* \"Vendor.sol\":3538:3730  function approve() external {... */\n    tag_43:\n        /* \"Vendor.sol\":3598:3603  admin */\n      0x00\n      dup1\n      sload\n      swap1\n      0x0100\n      exp\n      swap1\n      div\n      0xffffffffffffffffffffffffffffffffffffffff\n      and\n        /* \"Vendor.sol\":3584:3603  msg.sender == admin */\n      0xffffffffffffffffffffffffffffffffffffffff\n      and\n        /* \"Vendor.sol\":3584:3594  msg.sender */\n      caller\n        /* \"Vendor.sol\":3584:3603  msg.sender == admin */\n      0xffffffffffffffffffffffffffffffffffffffff\n      and\n      eq\n        /* \"Vendor.sol\":3576:3662  require(msg.sender == admin, \"Cannot call this function directly, use VendorFactory.\") */\n      tag_138\n      jumpi\n      mload(0x40)\n      0x08c379a000000000000000000000000000000000000000000000000000000000\n      dup2\n      mstore\n      0x04\n      add\n      tag_139\n      swap1\n      tag_140\n      jump\t// in\n    tag_139:\n      mload(0x40)\n      dup1\n      swap2\n      sub\n      swap1\n      revert\n    tag_138:\n        /* \"Vendor.sol\":3688:3692  true */\n      0x01\n        /* \"Vendor.sol\":3672:3685  payeeApproved */\n      0x02\n      0x14\n        /* \"Vendor.sol\":3672:3692  payeeApproved = true */\n      0x0100\n      exp\n      dup2\n      sload\n      dup2\n      0xff\n      mul\n      not\n      and\n      swap1\n      dup4\n      iszero\n      iszero\n      mul\n      or\n      swap1\n      sstore\n      pop\n        /* \"Vendor.sol\":3710:3723  Stages.Active */\n      0x03\n        /* \"Vendor.sol\":3702:3707  stage */\n      0x09\n      0x00\n        /* \"Vendor.sol\":3702:3723  stage = Stages.Active */\n      0x0100\n      exp\n      dup2\n      sload\n      dup2\n      0xff\n      mul\n      not\n      and\n      swap1\n      dup4\n      0x04\n      dup2\n      gt\n      iszero\n      tag_141\n      jumpi\n      tag_142\n      tag_143\n      jump\t// in\n    tag_142:\n    tag_141:\n      mul\n      or\n      swap1\n      sstore\n      pop\n        /* \"Vendor.sol\":3538:3730  function approve() external {... */\n      jump\t// out\n        /* \"Vendor.sol\":901:935  Conditions[] public conditionArray */\n    tag_48:\n      0x0a\n      dup2\n      dup2\n      sload\n      dup2\n      lt\n      tag_144\n      jumpi\n      0x00\n      dup1\n      revert\n    tag_144:\n      swap1\n      0x00\n      mstore\n      keccak256(0x00, 0x20)\n      swap1\n      0x03\n      mul\n      add\n      0x00\n      swap2\n      pop\n      swap1\n      pop\n      dup1\n      0x00\n      add\n      sload\n      swap1\n      dup1\n      0x01\n      add\n      sload\n      swap1\n      dup1\n      0x02\n      add\n      dup1\n      sload\n      tag_146\n      swap1\n      tag_147\n      jump\t// in\n    tag_146:\n      dup1\n      0x1f\n      add\n      0x20\n      dup1\n      swap2\n      div\n      mul\n      0x20\n      add\n      mload(0x40)\n      swap1\n      dup2\n      add\n      0x40\n      mstore\n      dup1\n      swap3\n      swap2\n      swap1\n      dup2\n      dup2\n      mstore\n      0x20\n      add\n      dup3\n      dup1\n      sload\n      tag_148\n      swap1\n      tag_147\n      jump\t// in\n    tag_148:\n      dup1\n      iszero\n      tag_149\n      jumpi\n      dup1\n      0x1f\n      lt\n      tag_150\n      jumpi\n      0x0100\n      dup1\n      dup4\n      sload\n      div\n      mul\n      dup4\n      mstore\n      swap2\n      0x20\n      add\n      swap2\n      jump(tag_149)\n    tag_150:\n      dup3\n      add\n      swap2\n      swap1\n      0x00\n      mstore\n      keccak256(0x00, 0x20)\n      swap1\n    tag_151:\n      dup2\n      sload\n      dup2\n      mstore\n      swap1\n      0x01\n      add\n      swap1\n      0x20\n      add\n      dup1\n      dup4\n      gt\n      tag_151\n      jumpi\n      dup3\n      swap1\n      sub\n      0x1f\n      and\n      dup3\n      add\n      swap2\n    tag_149:\n      pop\n      pop\n      pop\n      pop\n      pop\n      swap1\n      pop\n      dup4\n      jump\t// out\n        /* \"Vendor.sol\":4951:5191  function receiveServiceData(int[] memory _cumulative) external atStage(Stages.Active) checkBillingDate() {... */\n    tag_55:\n        /* \"Vendor.sol\":5022:5035  Stages.Active */\n      0x03\n        /* \"Vendor.sol\":8021:8027  _stage */\n      dup1\n        /* \"Vendor.sol\":8012:8027  stage == _stage */\n      0x04\n      dup2\n      gt\n      iszero\n      tag_153\n      jumpi\n      tag_154\n      tag_143\n      jump\t// in\n    tag_154:\n    tag_153:\n        /* \"Vendor.sol\":8012:8017  stage */\n      0x09\n      0x00\n      swap1\n      sload\n      swap1\n      0x0100\n      exp\n      swap1\n      div\n      0xff\n      and\n        /* \"Vendor.sol\":8012:8027  stage == _stage */\n      0x04\n      dup2\n      gt\n      iszero\n      tag_155\n      jumpi\n      tag_156\n      tag_143\n      jump\t// in\n    tag_156:\n    tag_155:\n      eq\n        /* \"Vendor.sol\":8004:8069  require(stage == _stage, \"Contract is not in the required state\") */\n      tag_157\n      jumpi\n      mload(0x40)\n      0x08c379a000000000000000000000000000000000000000000000000000000000\n      dup2\n      mstore\n      0x04\n      add\n      tag_158\n      swap1\n      tag_159\n      jump\t// in\n    tag_158:\n      mload(0x40)\n      dup1\n      swap2\n      sub\n      swap1\n      revert\n    tag_157:\n        /* \"Vendor.sol\":7542:7557  nextBillingDate */\n      sload(0x07)\n        /* \"Vendor.sol\":7527:7539  block.number */\n      number\n        /* \"Vendor.sol\":7527:7557  block.number > nextBillingDate */\n      gt\n        /* \"Vendor.sol\":7523:7751  if (block.number > nextBillingDate) {... */\n      iszero\n      tag_161\n      jumpi\n        /* \"Vendor.sol\":7573:7586  isSatisfied() */\n      tag_162\n        /* \"Vendor.sol\":7573:7584  isSatisfied */\n      tag_163\n        /* \"Vendor.sol\":7573:7586  isSatisfied() */\n      jump\t// in\n    tag_162:\n        /* \"Vendor.sol\":7523:7751  if (block.number > nextBillingDate) {... */\n      jump(tag_164)\n    tag_161:\n        /* \"Vendor.sol\":7641:7656  prevBillingDate */\n      sload(0x06)\n        /* \"Vendor.sol\":7625:7637  block.number */\n      number\n        /* \"Vendor.sol\":7625:7656  block.number >= prevBillingDate */\n      lt\n      iszero\n        /* \"Vendor.sol\":7625:7691  block.number >= prevBillingDate && block.number <= nextBillingDate */\n      dup1\n      iszero\n      tag_165\n      jumpi\n      pop\n        /* \"Vendor.sol\":7676:7691  nextBillingDate */\n      sload(0x07)\n        /* \"Vendor.sol\":7660:7672  block.number */\n      number\n        /* \"Vendor.sol\":7660:7691  block.number <= nextBillingDate */\n      gt\n      iszero\n        /* \"Vendor.sol\":7625:7691  block.number >= prevBillingDate && block.number <= nextBillingDate */\n    tag_165:\n        /* \"Vendor.sol\":7617:7725  require(block.number >= prevBillingDate && block.number <= nextBillingDate, \"Not within the billing period\") */\n      tag_166\n      jumpi\n      mload(0x40)\n      0x08c379a000000000000000000000000000000000000000000000000000000000\n      dup2\n      mstore\n      0x04\n      add\n      tag_167\n      swap1\n      tag_168\n      jump\t// in\n    tag_167:\n      mload(0x40)\n      dup1\n      swap2\n      sub\n      swap1\n      revert\n    tag_166:\n        /* \"Vendor.sol\":5071:5077  uint i */\n      0x00\n        /* \"Vendor.sol\":5066:5168  for (uint i = 0; i < _cumulative.length; i++) {... */\n    tag_170:\n        /* \"Vendor.sol\":5087:5098  _cumulative */\n      dup3\n        /* \"Vendor.sol\":5087:5105  _cumulative.length */\n      mload\n        /* \"Vendor.sol\":5083:5084  i */\n      dup2\n        /* \"Vendor.sol\":5083:5105  i < _cumulative.length */\n      lt\n        /* \"Vendor.sol\":5066:5168  for (uint i = 0; i < _cumulative.length; i++) {... */\n      iszero\n      tag_171\n      jumpi\n        /* \"Vendor.sol\":5143:5154  _cumulative */\n      dup3\n        /* \"Vendor.sol\":5155:5156  i */\n      dup2\n        /* \"Vendor.sol\":5143:5157  _cumulative[i] */\n      dup2\n      mload\n      dup2\n      lt\n      tag_173\n      jumpi\n      tag_174\n      tag_175\n      jump\t// in\n    tag_174:\n    tag_173:\n      0x20\n      mul\n      0x20\n      add\n      add\n      mload\n        /* \"Vendor.sol\":5126:5136  cumulative */\n      0x0c\n        /* \"Vendor.sol\":5126:5139  cumulative[i] */\n      0x00\n        /* \"Vendor.sol\":5137:5138  i */\n      dup4\n        /* \"Vendor.sol\":5126:5139  cumulative[i] */\n      dup2\n      mstore\n      0x20\n      add\n      swap1\n      dup2\n      mstore\n      0x20\n      add\n      0x00\n      keccak256\n      0x00\n        /* \"Vendor.sol\":5126:5157  cumulative[i] += _cumulative[i] */\n      dup3\n      dup3\n      sload\n      tag_176\n      swap2\n      swap1\n      tag_177\n      jump\t// in\n    tag_176:\n      swap3\n      pop\n      pop\n      dup2\n      swap1\n      sstore\n      pop\n        /* \"Vendor.sol\":5107:5110  i++ */\n      dup1\n      dup1\n      tag_178\n      swap1\n      tag_179\n      jump\t// in\n    tag_178:\n      swap2\n      pop\n      pop\n        /* \"Vendor.sol\":5066:5168  for (uint i = 0; i < _cumulative.length; i++) {... */\n      jump(tag_170)\n    tag_171:\n      pop\n        /* \"Vendor.sol\":5177:5182  count */\n      0x0d\n      0x00\n        /* \"Vendor.sol\":5177:5184  count++ */\n      dup2\n      sload\n      dup1\n      swap3\n      swap2\n      swap1\n      tag_180\n      swap1\n      tag_181\n      jump\t// in\n    tag_180:\n      swap2\n      swap1\n      pop\n      sstore\n      pop\n        /* \"Vendor.sol\":7523:7751  if (block.number > nextBillingDate) {... */\n    tag_164:\n        /* \"Vendor.sol\":4951:5191  function receiveServiceData(int[] memory _cumulative) external atStage(Stages.Active) checkBillingDate() {... */\n      pop\n      pop\n      jump\t// out\n        /* \"Vendor.sol\":379:406  uint public prevBillingDate */\n    tag_58:\n      sload(0x06)\n      dup2\n      jump\t// out\n        /* \"Vendor.sol\":641:670  bool public satisfied = false */\n    tag_62:\n      0x09\n      0x01\n      swap1\n      sload\n      swap1\n      0x0100\n      exp\n      swap1\n      div\n      0xff\n      and\n      dup2\n      jump\t// out\n        /* \"Vendor.sol\":2971:3054  function setPayee(address _payee) external {... */\n    tag_69:\n        /* \"Vendor.sol\":3040:3046  _payee */\n      dup1\n        /* \"Vendor.sol\":3024:3029  payee */\n      0x02\n      0x00\n        /* \"Vendor.sol\":3024:3047  payee = payable(_payee) */\n      0x0100\n      exp\n      dup2\n      sload\n      dup2\n      0xffffffffffffffffffffffffffffffffffffffff\n      mul\n      not\n      and\n      swap1\n      dup4\n      0xffffffffffffffffffffffffffffffffffffffff\n      and\n      mul\n      or\n      swap1\n      sstore\n      pop\n        /* \"Vendor.sol\":2971:3054  function setPayee(address _payee) external {... */\n      pop\n      jump\t// out\n        /* \"Vendor.sol\":412:439  uint public nextBillingDate */\n    tag_72:\n      sload(0x07)\n      dup2\n      jump\t// out\n        /* \"Vendor.sol\":327:349  uint public expiryDate */\n    tag_76:\n      sload(0x04)\n      dup2\n      jump\t// out\n        /* \"Vendor.sol\":4274:4369  function balanceOf() external view returns (uint) {... */\n    tag_80:\n        /* \"Vendor.sol\":4318:4322  uint */\n      0x00\n        /* \"Vendor.sol\":4341:4362  address(this).balance */\n      selfbalance\n        /* \"Vendor.sol\":4334:4362  return address(this).balance */\n      swap1\n      pop\n        /* \"Vendor.sol\":4274:4369  function balanceOf() external view returns (uint) {... */\n      swap1\n      jump\t// out\n        /* \"Vendor.sol\":6843:6936  function setActive() external atStage(Stages.Inactive) {... */\n    tag_84:\n        /* \"Vendor.sol\":6881:6896  Stages.Inactive */\n      0x02\n        /* \"Vendor.sol\":8021:8027  _stage */\n      dup1\n        /* \"Vendor.sol\":8012:8027  stage == _stage */\n      0x04\n      dup2\n      gt\n      iszero\n      tag_185\n      jumpi\n      tag_186\n      tag_143\n      jump\t// in\n    tag_186:\n    tag_185:\n        /* \"Vendor.sol\":8012:8017  stage */\n      0x09\n      0x00\n      swap1\n      sload\n      swap1\n      0x0100\n      exp\n      swap1\n      div\n      0xff\n      and\n        /* \"Vendor.sol\":8012:8027  stage == _stage */\n      0x04\n      dup2\n      gt\n      iszero\n      tag_187\n      jumpi\n      tag_188\n      tag_143\n      jump\t// in\n    tag_188:\n    tag_187:\n      eq\n        /* \"Vendor.sol\":8004:8069  require(stage == _stage, \"Contract is not in the required state\") */\n      tag_189\n      jumpi\n      mload(0x40)\n      0x08c379a000000000000000000000000000000000000000000000000000000000\n      dup2\n      mstore\n      0x04\n      add\n      tag_190\n      swap1\n      tag_159\n      jump\t// in\n    tag_190:\n      mload(0x40)\n      dup1\n      swap2\n      sub\n      swap1\n      revert\n    tag_189:\n        /* \"Vendor.sol\":6916:6929  Stages.Active */\n      0x03\n        /* \"Vendor.sol\":6908:6913  stage */\n      0x09\n      0x00\n        /* \"Vendor.sol\":6908:6929  stage = Stages.Active */\n      0x0100\n      exp\n      dup2\n      sload\n      dup2\n      0xff\n      mul\n      not\n      and\n      swap1\n      dup4\n      0x04\n      dup2\n      gt\n      iszero\n      tag_192\n      jumpi\n      tag_193\n      tag_143\n      jump\t// in\n    tag_193:\n    tag_192:\n      mul\n      or\n      swap1\n      sstore\n      pop\n        /* \"Vendor.sol\":6843:6936  function setActive() external atStage(Stages.Inactive) {... */\n      pop\n      jump\t// out\n        /* \"Vendor.sol\":7043:7133  function destroy() external atStage(Stages.Inactive) {... */\n    tag_87:\n        /* \"Vendor.sol\":7079:7094  Stages.Inactive */\n      0x02\n        /* \"Vendor.sol\":8021:8027  _stage */\n      dup1\n        /* \"Vendor.sol\":8012:8027  stage == _stage */\n      0x04\n      dup2\n      gt\n      iszero\n      tag_195\n      jumpi\n      tag_196\n      tag_143\n      jump\t// in\n    tag_196:\n    tag_195:\n        /* \"Vendor.sol\":8012:8017  stage */\n      0x09\n      0x00\n      swap1\n      sload\n      swap1\n      0x0100\n      exp\n      swap1\n      div\n      0xff\n      and\n        /* \"Vendor.sol\":8012:8027  stage == _stage */\n      0x04\n      dup2\n      gt\n      iszero\n      tag_197\n      jumpi\n      tag_198\n      tag_143\n      jump\t// in\n    tag_198:\n    tag_197:\n      eq\n        /* \"Vendor.sol\":8004:8069  require(stage == _stage, \"Contract is not in the required state\") */\n      tag_199\n      jumpi\n      mload(0x40)\n      0x08c379a000000000000000000000000000000000000000000000000000000000\n      dup2\n      mstore\n      0x04\n      add\n      tag_200\n      swap1\n      tag_159\n      jump\t// in\n    tag_200:\n      mload(0x40)\n      dup1\n      swap2\n      sub\n      swap1\n      revert\n    tag_199:\n        /* \"Vendor.sol\":7119:7125  client */\n      0x01\n      0x00\n      swap1\n      sload\n      swap1\n      0x0100\n      exp\n      swap1\n      div\n      0xffffffffffffffffffffffffffffffffffffffff\n      and\n        /* \"Vendor.sol\":7106:7126  selfdestruct(client) */\n      0xffffffffffffffffffffffffffffffffffffffff\n      and\n      selfdestruct\n        /* \"Vendor.sol\":4111:4268  function storePayment() external payable atStage(Stages.Active) checkBillingDate() {... */\n    tag_89:\n        /* \"Vendor.sol\":4160:4173  Stages.Active */\n      0x03\n        /* \"Vendor.sol\":8021:8027  _stage */\n      dup1\n        /* \"Vendor.sol\":8012:8027  stage == _stage */\n      0x04\n      dup2\n      gt\n      iszero\n      tag_203\n      jumpi\n      tag_204\n      tag_143\n      jump\t// in\n    tag_204:\n    tag_203:\n        /* \"Vendor.sol\":8012:8017  stage */\n      0x09\n      0x00\n      swap1\n      sload\n      swap1\n      0x0100\n      exp\n      swap1\n      div\n      0xff\n      and\n        /* \"Vendor.sol\":8012:8027  stage == _stage */\n      0x04\n      dup2\n      gt\n      iszero\n      tag_205\n      jumpi\n      tag_206\n      tag_143\n      jump\t// in\n    tag_206:\n    tag_205:\n      eq\n        /* \"Vendor.sol\":8004:8069  require(stage == _stage, \"Contract is not in the required state\") */\n      tag_207\n      jumpi\n      mload(0x40)\n      0x08c379a000000000000000000000000000000000000000000000000000000000\n      dup2\n      mstore\n      0x04\n      add\n      tag_208\n      swap1\n      tag_159\n      jump\t// in\n    tag_208:\n      mload(0x40)\n      dup1\n      swap2\n      sub\n      swap1\n      revert\n    tag_207:\n        /* \"Vendor.sol\":7542:7557  nextBillingDate */\n      sload(0x07)\n        /* \"Vendor.sol\":7527:7539  block.number */\n      number\n        /* \"Vendor.sol\":7527:7557  block.number > nextBillingDate */\n      gt\n        /* \"Vendor.sol\":7523:7751  if (block.number > nextBillingDate) {... */\n      iszero\n      tag_210\n      jumpi\n        /* \"Vendor.sol\":7573:7586  isSatisfied() */\n      tag_211\n        /* \"Vendor.sol\":7573:7584  isSatisfied */\n      tag_163\n        /* \"Vendor.sol\":7573:7586  isSatisfied() */\n      jump\t// in\n    tag_211:\n        /* \"Vendor.sol\":7523:7751  if (block.number > nextBillingDate) {... */\n      jump(tag_212)\n    tag_210:\n        /* \"Vendor.sol\":7641:7656  prevBillingDate */\n      sload(0x06)\n        /* \"Vendor.sol\":7625:7637  block.number */\n      number\n        /* \"Vendor.sol\":7625:7656  block.number >= prevBillingDate */\n      lt\n      iszero\n        /* \"Vendor.sol\":7625:7691  block.number >= prevBillingDate && block.number <= nextBillingDate */\n      dup1\n      iszero\n      tag_213\n      jumpi\n      pop\n        /* \"Vendor.sol\":7676:7691  nextBillingDate */\n      sload(0x07)\n        /* \"Vendor.sol\":7660:7672  block.number */\n      number\n        /* \"Vendor.sol\":7660:7691  block.number <= nextBillingDate */\n      gt\n      iszero\n        /* \"Vendor.sol\":7625:7691  block.number >= prevBillingDate && block.number <= nextBillingDate */\n    tag_213:\n        /* \"Vendor.sol\":7617:7725  require(block.number >= prevBillingDate && block.number <= nextBillingDate, \"Not within the billing period\") */\n      tag_214\n      jumpi\n      mload(0x40)\n      0x08c379a000000000000000000000000000000000000000000000000000000000\n      dup2\n      mstore\n      0x04\n      add\n      tag_215\n      swap1\n      tag_168\n      jump\t// in\n    tag_215:\n      mload(0x40)\n      dup1\n      swap2\n      sub\n      swap1\n      revert\n    tag_214:\n        /* \"Vendor.sol\":4221:4227  amount */\n      sload(0x05)\n        /* \"Vendor.sol\":4208:4217  msg.value */\n      callvalue\n        /* \"Vendor.sol\":4208:4227  msg.value != amount */\n      eq\n        /* \"Vendor.sol\":4204:4262  if (msg.value != amount) {... */\n      tag_217\n      jumpi\n        /* \"Vendor.sol\":4243:4251  revert() */\n      0x00\n      dup1\n      revert\n        /* \"Vendor.sol\":4204:4262  if (msg.value != amount) {... */\n    tag_217:\n        /* \"Vendor.sol\":7523:7751  if (block.number > nextBillingDate) {... */\n    tag_212:\n        /* \"Vendor.sol\":4111:4268  function storePayment() external payable atStage(Stages.Active) checkBillingDate() {... */\n      pop\n      jump\t// out\n        /* \"Vendor.sol\":445:469  uint public contractHash */\n    tag_92:\n      sload(0x08)\n      dup2\n      jump\t// out\n        /* \"Vendor.sol\":3060:3307  function endInitStage() public atStage(Stages.Initialising) {... */\n    tag_96:\n        /* \"Vendor.sol\":3099:3118  Stages.Initialising */\n      0x00\n        /* \"Vendor.sol\":8021:8027  _stage */\n      dup1\n        /* \"Vendor.sol\":8012:8027  stage == _stage */\n      0x04\n      dup2\n      gt\n      iszero\n      tag_219\n      jumpi\n      tag_220\n      tag_143\n      jump\t// in\n    tag_220:\n    tag_219:\n        /* \"Vendor.sol\":8012:8017  stage */\n      0x09\n      0x00\n      swap1\n      sload\n      swap1\n      0x0100\n      exp\n      swap1\n      div\n      0xff\n      and\n        /* \"Vendor.sol\":8012:8027  stage == _stage */\n      0x04\n      dup2\n      gt\n      iszero\n      tag_221\n      jumpi\n      tag_222\n      tag_143\n      jump\t// in\n    tag_222:\n    tag_221:\n      eq\n        /* \"Vendor.sol\":8004:8069  require(stage == _stage, \"Contract is not in the required state\") */\n      tag_223\n      jumpi\n      mload(0x40)\n      0x08c379a000000000000000000000000000000000000000000000000000000000\n      dup2\n      mstore\n      0x04\n      add\n      tag_224\n      swap1\n      tag_159\n      jump\t// in\n    tag_224:\n      mload(0x40)\n      dup1\n      swap2\n      sub\n      swap1\n      revert\n    tag_223:\n        /* \"Vendor.sol\":3138:3152  Stages.Pending */\n      0x01\n        /* \"Vendor.sol\":3130:3135  stage */\n      0x09\n      0x00\n        /* \"Vendor.sol\":3130:3152  stage = Stages.Pending */\n      0x0100\n      exp\n      dup2\n      sload\n      dup2\n      0xff\n      mul\n      not\n      and\n      swap1\n      dup4\n      0x04\n      dup2\n      gt\n      iszero\n      tag_226\n      jumpi\n      tag_227\n      tag_143\n      jump\t// in\n    tag_227:\n    tag_226:\n      mul\n      or\n      swap1\n      sstore\n      pop\n        /* \"Vendor.sol\":3215:3221  uint i */\n      0x00\n        /* \"Vendor.sol\":3210:3301  for (uint i = 0; i < conditionArray.length; i++) {... */\n    tag_228:\n        /* \"Vendor.sol\":3231:3245  conditionArray */\n      0x0a\n        /* \"Vendor.sol\":3231:3252  conditionArray.length */\n      dup1\n      sload\n      swap1\n      pop\n        /* \"Vendor.sol\":3227:3228  i */\n      dup2\n        /* \"Vendor.sol\":3227:3252  i < conditionArray.length */\n      lt\n        /* \"Vendor.sol\":3210:3301  for (uint i = 0; i < conditionArray.length; i++) {... */\n      iszero\n      tag_229\n      jumpi\n        /* \"Vendor.sol\":3289:3290  0 */\n      0x00\n        /* \"Vendor.sol\":3273:3283  cumulative */\n      0x0c\n        /* \"Vendor.sol\":3273:3286  cumulative[i] */\n      0x00\n        /* \"Vendor.sol\":3284:3285  i */\n      dup4\n        /* \"Vendor.sol\":3273:3286  cumulative[i] */\n      dup2\n      mstore\n      0x20\n      add\n      swap1\n      dup2\n      mstore\n      0x20\n      add\n      0x00\n      keccak256\n        /* \"Vendor.sol\":3273:3290  cumulative[i] = 0 */\n      dup2\n      swap1\n      sstore\n      pop\n        /* \"Vendor.sol\":3254:3257  i++ */\n      dup1\n      dup1\n      tag_231\n      swap1\n      tag_179\n      jump\t// in\n    tag_231:\n      swap2\n      pop\n      pop\n        /* \"Vendor.sol\":3210:3301  for (uint i = 0; i < conditionArray.length; i++) {... */\n      jump(tag_228)\n    tag_229:\n      pop\n        /* \"Vendor.sol\":3060:3307  function endInitStage() public atStage(Stages.Initialising) {... */\n      pop\n      jump\t// out\n        /* \"Vendor.sol\":268:293  bool public payeeApproved */\n    tag_99:\n      0x02\n      0x14\n      swap1\n      sload\n      swap1\n      0x0100\n      exp\n      swap1\n      div\n      0xff\n      and\n      dup2\n      jump\t// out\n        /* \"Vendor.sol\":1642:2073  function init(address _client, uint _expiredOn, uint _startDate, uint _contractHash, uint _amount) public {... */\n    tag_105:\n        /* \"Vendor.sol\":1766:1776  msg.sender */\n      caller\n        /* \"Vendor.sol\":1758:1763  admin */\n      0x00\n      dup1\n        /* \"Vendor.sol\":1758:1776  admin = msg.sender */\n      0x0100\n      exp\n      dup2\n      sload\n      dup2\n      0xffffffffffffffffffffffffffffffffffffffff\n      mul\n      not\n      and\n      swap1\n      dup4\n      0xffffffffffffffffffffffffffffffffffffffff\n      and\n      mul\n      or\n      swap1\n      sstore\n      pop\n        /* \"Vendor.sol\":1803:1810  _client */\n      dup5\n        /* \"Vendor.sol\":1786:1792  client */\n      0x01\n      0x00\n        /* \"Vendor.sol\":1786:1811  client = payable(_client) */\n      0x0100\n      exp\n      dup2\n      sload\n      dup2\n      0xffffffffffffffffffffffffffffffffffffffff\n      mul\n      not\n      and\n      swap1\n      dup4\n      0xffffffffffffffffffffffffffffffffffffffff\n      and\n      mul\n      or\n      swap1\n      sstore\n      pop\n        /* \"Vendor.sol\":1834:1844  _expiredOn */\n      dup4\n        /* \"Vendor.sol\":1821:1831  expiryDate */\n      0x04\n        /* \"Vendor.sol\":1821:1844  expiryDate = _expiredOn */\n      dup2\n      swap1\n      sstore\n      pop\n        /* \"Vendor.sol\":1866:1876  _startDate */\n      dup3\n        /* \"Vendor.sol\":1854:1863  startDate */\n      0x03\n        /* \"Vendor.sol\":1854:1876  startDate = _startDate */\n      dup2\n      swap1\n      sstore\n      pop\n        /* \"Vendor.sol\":1904:1924  calcDate(_startDate) */\n      tag_233\n        /* \"Vendor.sol\":1913:1923  _startDate */\n      dup4\n        /* \"Vendor.sol\":1904:1912  calcDate */\n      tag_234\n        /* \"Vendor.sol\":1904:1924  calcDate(_startDate) */\n      jump\t// in\n    tag_233:\n        /* \"Vendor.sol\":1886:1901  prevBillingDate */\n      0x06\n        /* \"Vendor.sol\":1886:1924  prevBillingDate = calcDate(_startDate) */\n      dup2\n      swap1\n      sstore\n      pop\n        /* \"Vendor.sol\":1952:1977  calcDate(_startDate + 30) */\n      tag_235\n        /* \"Vendor.sol\":1974:1976  30 */\n      0x1e\n        /* \"Vendor.sol\":1961:1971  _startDate */\n      dup5\n        /* \"Vendor.sol\":1961:1976  _startDate + 30 */\n      tag_236\n      swap2\n      swap1\n      tag_237\n      jump\t// in\n    tag_236:\n        /* \"Vendor.sol\":1952:1960  calcDate */\n      tag_234\n        /* \"Vendor.sol\":1952:1977  calcDate(_startDate + 30) */\n      jump\t// in\n    tag_235:\n        /* \"Vendor.sol\":1934:1949  nextBillingDate */\n      0x07\n        /* \"Vendor.sol\":1934:1977  nextBillingDate = calcDate(_startDate + 30) */\n      dup2\n      swap1\n      sstore\n      pop\n        /* \"Vendor.sol\":2002:2015  _contractHash */\n      dup2\n        /* \"Vendor.sol\":1987:1999  contractHash */\n      0x08\n        /* \"Vendor.sol\":1987:2015  contractHash = _contractHash */\n      dup2\n      swap1\n      sstore\n      pop\n        /* \"Vendor.sol\":2034:2041  _amount */\n      dup1\n        /* \"Vendor.sol\":2025:2031  amount */\n      0x05\n        /* \"Vendor.sol\":2025:2041  amount = _amount */\n      dup2\n      swap1\n      sstore\n      pop\n        /* \"Vendor.sol\":2051:2066  initOperators() */\n      tag_238\n        /* \"Vendor.sol\":2051:2064  initOperators */\n      tag_239\n        /* \"Vendor.sol\":2051:2066  initOperators() */\n      jump\t// in\n    tag_238:\n        /* \"Vendor.sol\":1642:2073  function init(address _client, uint _expiredOn, uint _startDate, uint _contractHash, uint _amount) public {... */\n      pop\n      pop\n      pop\n      pop\n      pop\n      jump\t// out\n        /* \"Vendor.sol\":355:373  uint public amount */\n    tag_108:\n      sload(0x05)\n      dup2\n      jump\t// out\n        /* \"Vendor.sol\":234:262  address payable public payee */\n    tag_112:\n      0x02\n      0x00\n      swap1\n      sload\n      swap1\n      0x0100\n      exp\n      swap1\n      div\n      0xffffffffffffffffffffffffffffffffffffffff\n      and\n      dup2\n      jump\t// out\n        /* \"Vendor.sol\":593:634  Stages public stage = Stages.Initialising */\n    tag_116:\n      0x09\n      0x00\n      swap1\n      sload\n      swap1\n      0x0100\n      exp\n      swap1\n      div\n      0xff\n      and\n      dup2\n      jump\t// out\n        /* \"Vendor.sol\":6942:7037  function setInactive() external atStage(Stages.Active) {... */\n    tag_121:\n        /* \"Vendor.sol\":6982:6995  Stages.Active */\n      0x03\n        /* \"Vendor.sol\":8021:8027  _stage */\n      dup1\n        /* \"Vendor.sol\":8012:8027  stage == _stage */\n      0x04\n      dup2\n      gt\n      iszero\n      tag_241\n      jumpi\n      tag_242\n      tag_143\n      jump\t// in\n    tag_242:\n    tag_241:\n        /* \"Vendor.sol\":8012:8017  stage */\n      0x09\n      0x00\n      swap1\n      sload\n      swap1\n      0x0100\n      exp\n      swap1\n      div\n      0xff\n      and\n        /* \"Vendor.sol\":8012:8027  stage == _stage */\n      0x04\n      dup2\n      gt\n      iszero\n      tag_243\n      jumpi\n      tag_244\n      tag_143\n      jump\t// in\n    tag_244:\n    tag_243:\n      eq\n        /* \"Vendor.sol\":8004:8069  require(stage == _stage, \"Contract is not in the required state\") */\n      tag_245\n      jumpi\n      mload(0x40)\n      0x08c379a000000000000000000000000000000000000000000000000000000000\n      dup2\n      mstore\n      0x04\n      add\n      tag_246\n      swap1\n      tag_159\n      jump\t// in\n    tag_246:\n      mload(0x40)\n      dup1\n      swap2\n      sub\n      swap1\n      revert\n    tag_245:\n        /* \"Vendor.sol\":7015:7030  Stages.Inactive */\n      0x02\n        /* \"Vendor.sol\":7007:7012  stage */\n      0x09\n      0x00\n        /* \"Vendor.sol\":7007:7030  stage = Stages.Inactive */\n      0x0100\n      exp\n      dup2\n      sload\n      dup2\n      0xff\n      mul\n      not\n      and\n      swap1\n      dup4\n      0x04\n      dup2\n      gt\n      iszero\n      tag_248\n      jumpi\n      tag_249\n      tag_143\n      jump\t// in\n    tag_249:\n    tag_248:\n      mul\n      or\n      swap1\n      sstore\n      pop\n        /* \"Vendor.sol\":6942:7037  function setInactive() external atStage(Stages.Active) {... */\n      pop\n      jump\t// out\n        /* \"Vendor.sol\":173:193  address public admin */\n    tag_124:\n      0x00\n      dup1\n      sload\n      swap1\n      0x0100\n      exp\n      swap1\n      div\n      0xffffffffffffffffffffffffffffffffffffffff\n      and\n      dup2\n      jump\t// out\n        /* \"Vendor.sol\":2496:2965  function setConds(string[8] memory _names, int[8] memory _values, string[8] memory _operators) external atStage(Stages.Initialising) {... */\n    tag_131:\n        /* \"Vendor.sol\":2608:2627  Stages.Initialising */\n      0x00\n        /* \"Vendor.sol\":8021:8027  _stage */\n      dup1\n        /* \"Vendor.sol\":8012:8027  stage == _stage */\n      0x04\n      dup2\n      gt\n      iszero\n      tag_251\n      jumpi\n      tag_252\n      tag_143\n      jump\t// in\n    tag_252:\n    tag_251:\n        /* \"Vendor.sol\":8012:8017  stage */\n      0x09\n      0x00\n      swap1\n      sload\n      swap1\n      0x0100\n      exp\n      swap1\n      div\n      0xff\n      and\n        /* \"Vendor.sol\":8012:8027  stage == _stage */\n      0x04\n      dup2\n      gt\n      iszero\n      tag_253\n      jumpi\n      tag_254\n      tag_143\n      jump\t// in\n    tag_254:\n    tag_253:\n      eq\n        /* \"Vendor.sol\":8004:8069  require(stage == _stage, \"Contract is not in the required state\") */\n      tag_255\n      jumpi\n      mload(0x40)\n      0x08c379a000000000000000000000000000000000000000000000000000000000\n      dup2\n      mstore\n      0x04\n      add\n      tag_256\n      swap1\n      tag_159\n      jump\t// in\n    tag_256:\n      mload(0x40)\n      dup1\n      swap2\n      sub\n      swap1\n      revert\n    tag_255:\n        /* \"Vendor.sol\":2644:2650  uint i */\n      0x00\n        /* \"Vendor.sol\":2639:2959  for (uint i = 0; i < 8; i++) {... */\n    tag_258:\n        /* \"Vendor.sol\":2660:2661  8 */\n      0x08\n        /* \"Vendor.sol\":2656:2657  i */\n      dup2\n        /* \"Vendor.sol\":2656:2661  i < 8 */\n      lt\n        /* \"Vendor.sol\":2639:2959  for (uint i = 0; i < 8; i++) {... */\n      iszero\n      tag_259\n      jumpi\n        /* \"Vendor.sol\":2713:2714  0 */\n      0x00\n        /* \"Vendor.sol\":2692:2698  _names */\n      dup6\n        /* \"Vendor.sol\":2699:2700  i */\n      dup3\n        /* \"Vendor.sol\":2692:2701  _names[i] */\n      0x08\n      dup2\n      lt\n      tag_261\n      jumpi\n      tag_262\n      tag_175\n      jump\t// in\n    tag_262:\n    tag_261:\n      0x20\n      mul\n      add\n      mload\n        /* \"Vendor.sol\":2686:2709  bytes(_names[i]).length */\n      mload\n        /* \"Vendor.sol\":2686:2714  bytes(_names[i]).length == 0 */\n      eq\n        /* \"Vendor.sol\":2682:2855  if (bytes(_names[i]).length == 0) {... */\n      iszero\n      tag_263\n      jumpi\n        /* \"Vendor.sol\":2734:2748  endInitStage() */\n      tag_264\n        /* \"Vendor.sol\":2734:2746  endInitStage */\n      tag_96\n        /* \"Vendor.sol\":2734:2748  endInitStage() */\n      jump\t// in\n    tag_264:\n        /* \"Vendor.sol\":2766:2773  return; */\n      pop\n      jump(tag_257)\n        /* \"Vendor.sol\":2682:2855  if (bytes(_names[i]).length == 0) {... */\n    tag_263:\n        /* \"Vendor.sol\":2868:2882  conditionArray */\n      0x0a\n        /* \"Vendor.sol\":2888:2947  Conditions(_values[i], operators[_operators[i]], _names[i]) */\n      mload(0x40)\n      dup1\n      0x60\n      add\n      0x40\n      mstore\n      dup1\n        /* \"Vendor.sol\":2899:2906  _values */\n      dup7\n        /* \"Vendor.sol\":2907:2908  i */\n      dup5\n        /* \"Vendor.sol\":2899:2909  _values[i] */\n      0x08\n      dup2\n      lt\n      tag_265\n      jumpi\n      tag_266\n      tag_175\n      jump\t// in\n    tag_266:\n    tag_265:\n      0x20\n      mul\n      add\n      mload\n        /* \"Vendor.sol\":2888:2947  Conditions(_values[i], operators[_operators[i]], _names[i]) */\n      dup2\n      mstore\n      0x20\n      add\n        /* \"Vendor.sol\":2911:2920  operators */\n      0x0b\n        /* \"Vendor.sol\":2921:2931  _operators */\n      dup7\n        /* \"Vendor.sol\":2932:2933  i */\n      dup6\n        /* \"Vendor.sol\":2921:2934  _operators[i] */\n      0x08\n      dup2\n      lt\n      tag_267\n      jumpi\n      tag_268\n      tag_175\n      jump\t// in\n    tag_268:\n    tag_267:\n      0x20\n      mul\n      add\n      mload\n        /* \"Vendor.sol\":2911:2935  operators[_operators[i]] */\n      mload(0x40)\n      tag_269\n      swap2\n      swap1\n      tag_270\n      jump\t// in\n    tag_269:\n      swap1\n      dup2\n      mstore\n      0x20\n      add\n      mload(0x40)\n      dup1\n      swap2\n      sub\n      swap1\n      keccak256\n      sload\n        /* \"Vendor.sol\":2888:2947  Conditions(_values[i], operators[_operators[i]], _names[i]) */\n      dup2\n      mstore\n      0x20\n      add\n        /* \"Vendor.sol\":2937:2943  _names */\n      dup8\n        /* \"Vendor.sol\":2944:2945  i */\n      dup5\n        /* \"Vendor.sol\":2937:2946  _names[i] */\n      0x08\n      dup2\n      lt\n      tag_271\n      jumpi\n      tag_272\n      tag_175\n      jump\t// in\n    tag_272:\n    tag_271:\n      0x20\n      mul\n      add\n      mload\n        /* \"Vendor.sol\":2888:2947  Conditions(_values[i], operators[_operators[i]], _names[i]) */\n      dup2\n      mstore\n      pop\n        /* \"Vendor.sol\":2868:2948  conditionArray.push(Conditions(_values[i], operators[_operators[i]], _names[i])) */\n      swap1\n      dup1\n      0x01\n      dup2\n      sload\n      add\n      dup1\n      dup3\n      sstore\n      dup1\n      swap2\n      pop\n      pop\n      0x01\n      swap1\n      sub\n      swap1\n      0x00\n      mstore\n      keccak256(0x00, 0x20)\n      swap1\n      0x03\n      mul\n      add\n      0x00\n      swap1\n      swap2\n      swap1\n      swap2\n      swap1\n      swap2\n      pop\n      0x00\n      dup3\n      add\n      mload\n      dup2\n      0x00\n      add\n      sstore\n      0x20\n      dup3\n      add\n      mload\n      dup2\n      0x01\n      add\n      sstore\n      0x40\n      dup3\n      add\n      mload\n      dup2\n      0x02\n      add\n      swap1\n      dup1\n      mload\n      swap1\n      0x20\n      add\n      swap1\n      tag_274\n      swap3\n      swap2\n      swap1\n      tag_275\n      jump\t// in\n    tag_274:\n      pop\n      pop\n      pop\n        /* \"Vendor.sol\":2663:2666  i++ */\n      dup1\n      dup1\n      tag_276\n      swap1\n      tag_179\n      jump\t// in\n    tag_276:\n      swap2\n      pop\n      pop\n        /* \"Vendor.sol\":2639:2959  for (uint i = 0; i < 8; i++) {... */\n      jump(tag_258)\n    tag_259:\n      pop\n        /* \"Vendor.sol\":8079:8080  _ */\n    tag_257:\n        /* \"Vendor.sol\":2496:2965  function setConds(string[8] memory _names, int[8] memory _values, string[8] memory _operators) external atStage(Stages.Initialising) {... */\n      pop\n      pop\n      pop\n      pop\n      jump\t// out\n        /* \"Vendor.sol\":3888:4105  function getDetails() external view returns (address, address, uint, uint, uint, uint, uint, uint) {... */\n    tag_134:\n        /* \"Vendor.sol\":3933:3940  address */\n      0x00\n        /* \"Vendor.sol\":3942:3949  address */\n      dup1\n        /* \"Vendor.sol\":3951:3955  uint */\n      0x00\n        /* \"Vendor.sol\":3957:3961  uint */\n      dup1\n        /* \"Vendor.sol\":3963:3967  uint */\n      0x00\n        /* \"Vendor.sol\":3969:3973  uint */\n      dup1\n        /* \"Vendor.sol\":3975:3979  uint */\n      0x00\n        /* \"Vendor.sol\":3981:3985  uint */\n      dup1\n        /* \"Vendor.sol\":4005:4011  client */\n      0x01\n      0x00\n      swap1\n      sload\n      swap1\n      0x0100\n      exp\n      swap1\n      div\n      0xffffffffffffffffffffffffffffffffffffffff\n      and\n        /* \"Vendor.sol\":4013:4018  payee */\n      0x02\n      0x00\n      swap1\n      sload\n      swap1\n      0x0100\n      exp\n      swap1\n      div\n      0xffffffffffffffffffffffffffffffffffffffff\n      and\n        /* \"Vendor.sol\":4020:4029  startDate */\n      sload(0x03)\n        /* \"Vendor.sol\":4031:4041  expiryDate */\n      sload(0x04)\n        /* \"Vendor.sol\":4043:4049  amount */\n      sload(0x05)\n        /* \"Vendor.sol\":4051:4066  prevBillingDate */\n      sload(0x06)\n        /* \"Vendor.sol\":4068:4083  nextBillingDate */\n      sload(0x07)\n        /* \"Vendor.sol\":4085:4097  contractHash */\n      sload(0x08)\n        /* \"Vendor.sol\":3997:4098  return (client, payee, startDate, expiryDate, amount, prevBillingDate, nextBillingDate, contractHash) */\n      swap8\n      pop\n      swap8\n      pop\n      swap8\n      pop\n      swap8\n      pop\n      swap8\n      pop\n      swap8\n      pop\n      swap8\n      pop\n      swap8\n      pop\n        /* \"Vendor.sol\":3888:4105  function getDetails() external view returns (address, address, uint, uint, uint, uint, uint, uint) {... */\n      swap1\n      swap2\n      swap3\n      swap4\n      swap5\n      swap6\n      swap7\n      swap8\n      jump\t// out\n        /* \"Vendor.sol\":5302:5949  function isSatisfied() private atStage(Stages.Active) {... */\n    tag_163:\n        /* \"Vendor.sol\":5341:5354  Stages.Active */\n      0x03\n        /* \"Vendor.sol\":8021:8027  _stage */\n      dup1\n        /* \"Vendor.sol\":8012:8027  stage == _stage */\n      0x04\n      dup2\n      gt\n      iszero\n      tag_279\n      jumpi\n      tag_280\n      tag_143\n      jump\t// in\n    tag_280:\n    tag_279:\n        /* \"Vendor.sol\":8012:8017  stage */\n      0x09\n      0x00\n      swap1\n      sload\n      swap1\n      0x0100\n      exp\n      swap1\n      div\n      0xff\n      and\n        /* \"Vendor.sol\":8012:8027  stage == _stage */\n      0x04\n      dup2\n      gt\n      iszero\n      tag_281\n      jumpi\n      tag_282\n      tag_143\n      jump\t// in\n    tag_282:\n    tag_281:\n      eq\n        /* \"Vendor.sol\":8004:8069  require(stage == _stage, \"Contract is not in the required state\") */\n      tag_283\n      jumpi\n      mload(0x40)\n      0x08c379a000000000000000000000000000000000000000000000000000000000\n      dup2\n      mstore\n      0x04\n      add\n      tag_284\n      swap1\n      tag_159\n      jump\t// in\n    tag_284:\n      mload(0x40)\n      dup1\n      swap2\n      sub\n      swap1\n      revert\n    tag_283:\n        /* \"Vendor.sol\":5371:5377  uint i */\n      0x00\n        /* \"Vendor.sol\":5366:5785  for (uint i = 0; i < conditionArray.length; i++) {... */\n    tag_286:\n        /* \"Vendor.sol\":5387:5401  conditionArray */\n      0x0a\n        /* \"Vendor.sol\":5387:5408  conditionArray.length */\n      dup1\n      sload\n      swap1\n      pop\n        /* \"Vendor.sol\":5383:5384  i */\n      dup2\n        /* \"Vendor.sol\":5383:5408  i < conditionArray.length */\n      lt\n        /* \"Vendor.sol\":5366:5785  for (uint i = 0; i < conditionArray.length; i++) {... */\n      iszero\n      tag_287\n      jumpi\n        /* \"Vendor.sol\":5429:5441  int operator */\n      0x00\n        /* \"Vendor.sol\":5444:5458  conditionArray */\n      0x0a\n        /* \"Vendor.sol\":5459:5460  i */\n      dup3\n        /* \"Vendor.sol\":5444:5461  conditionArray[i] */\n      dup2\n      sload\n      dup2\n      lt\n      tag_289\n      jumpi\n      tag_290\n      tag_175\n      jump\t// in\n    tag_290:\n    tag_289:\n      swap1\n      0x00\n      mstore\n      keccak256(0x00, 0x20)\n      swap1\n      0x03\n      mul\n      add\n        /* \"Vendor.sol\":5444:5470  conditionArray[i].operator */\n      0x01\n      add\n      sload\n        /* \"Vendor.sol\":5429:5470  int operator = conditionArray[i].operator */\n      swap1\n      pop\n        /* \"Vendor.sol\":5484:5493  int value */\n      0x00\n        /* \"Vendor.sol\":5496:5510  conditionArray */\n      0x0a\n        /* \"Vendor.sol\":5511:5512  i */\n      dup4\n        /* \"Vendor.sol\":5496:5513  conditionArray[i] */\n      dup2\n      sload\n      dup2\n      lt\n      tag_292\n      jumpi\n      tag_293\n      tag_175\n      jump\t// in\n    tag_293:\n    tag_292:\n      swap1\n      0x00\n      mstore\n      keccak256(0x00, 0x20)\n      swap1\n      0x03\n      mul\n      add\n        /* \"Vendor.sol\":5496:5519  conditionArray[i].value */\n      0x00\n      add\n      sload\n        /* \"Vendor.sol\":5484:5519  int value = conditionArray[i].value */\n      swap1\n      pop\n        /* \"Vendor.sol\":5533:5545  int _toCheck */\n      0x00\n        /* \"Vendor.sol\":5562:5567  count */\n      sload(0x0d)\n        /* \"Vendor.sol\":5548:5558  cumulative */\n      0x0c\n        /* \"Vendor.sol\":5548:5561  cumulative[i] */\n      0x00\n        /* \"Vendor.sol\":5559:5560  i */\n      dup7\n        /* \"Vendor.sol\":5548:5561  cumulative[i] */\n      dup2\n      mstore\n      0x20\n      add\n      swap1\n      dup2\n      mstore\n      0x20\n      add\n      0x00\n      keccak256\n      sload\n        /* \"Vendor.sol\":5548:5567  cumulative[i]/count */\n      tag_295\n      swap2\n      swap1\n      tag_296\n      jump\t// in\n    tag_295:\n        /* \"Vendor.sol\":5533:5567  int _toCheck = cumulative[i]/count */\n      swap1\n      pop\n        /* \"Vendor.sol\":5599:5635  condValid(operator, _toCheck, value) */\n      tag_297\n        /* \"Vendor.sol\":5609:5617  operator */\n      dup4\n        /* \"Vendor.sol\":5619:5627  _toCheck */\n      dup3\n        /* \"Vendor.sol\":5629:5634  value */\n      dup5\n        /* \"Vendor.sol\":5599:5608  condValid */\n      tag_298\n        /* \"Vendor.sol\":5599:5635  condValid(operator, _toCheck, value) */\n      jump\t// in\n    tag_297:\n        /* \"Vendor.sol\":5594:5775  if (!condValid(operator, _toCheck, value)) {... */\n      tag_299\n      jumpi\n        /* \"Vendor.sol\":5655:5663  refund() */\n      tag_300\n        /* \"Vendor.sol\":5655:5661  refund */\n      tag_301\n        /* \"Vendor.sol\":5655:5663  refund() */\n      jump\t// in\n    tag_300:\n        /* \"Vendor.sol\":5692:5702  msg.sender */\n      caller\n        /* \"Vendor.sol\":5686:5736  State(msg.sender, satisfied, \"Refunding payment.\") */\n      0xffffffffffffffffffffffffffffffffffffffff\n      and\n      0xa84226bf2d14bde3fac454f52eaeab63aaeb1934da88f9263dd4ff7dd12acf71\n        /* \"Vendor.sol\":5704:5713  satisfied */\n      0x09\n      0x01\n      swap1\n      sload\n      swap1\n      0x0100\n      exp\n      swap1\n      div\n      0xff\n      and\n        /* \"Vendor.sol\":5686:5736  State(msg.sender, satisfied, \"Refunding payment.\") */\n      mload(0x40)\n      tag_302\n      swap2\n      swap1\n      tag_303\n      jump\t// in\n    tag_302:\n      mload(0x40)\n      dup1\n      swap2\n      sub\n      swap1\n      log2\n        /* \"Vendor.sol\":5754:5761  return; */\n      pop\n      pop\n      pop\n      pop\n      jump(tag_285)\n        /* \"Vendor.sol\":5594:5775  if (!condValid(operator, _toCheck, value)) {... */\n    tag_299:\n        /* \"Vendor.sol\":5415:5785  {... */\n      pop\n      pop\n      pop\n        /* \"Vendor.sol\":5410:5413  i++ */\n      dup1\n      dup1\n      tag_304\n      swap1\n      tag_179\n      jump\t// in\n    tag_304:\n      swap2\n      pop\n      pop\n        /* \"Vendor.sol\":5366:5785  for (uint i = 0; i < conditionArray.length; i++) {... */\n      jump(tag_286)\n    tag_287:\n      pop\n        /* \"Vendor.sol\":5806:5810  true */\n      0x01\n        /* \"Vendor.sol\":5794:5803  satisfied */\n      0x09\n      0x01\n        /* \"Vendor.sol\":5794:5810  satisfied = true */\n      0x0100\n      exp\n      dup2\n      sload\n      dup2\n      0xff\n      mul\n      not\n      and\n      swap1\n      dup4\n      iszero\n      iszero\n      mul\n      or\n      swap1\n      sstore\n      pop\n        /* \"Vendor.sol\":5831:5841  msg.sender */\n      caller\n        /* \"Vendor.sol\":5825:5873  State(msg.sender, satisfied, \"Sending payment.\") */\n      0xffffffffffffffffffffffffffffffffffffffff\n      and\n      0xa84226bf2d14bde3fac454f52eaeab63aaeb1934da88f9263dd4ff7dd12acf71\n        /* \"Vendor.sol\":5843:5852  satisfied */\n      0x09\n      0x01\n      swap1\n      sload\n      swap1\n      0x0100\n      exp\n      swap1\n      div\n      0xff\n      and\n        /* \"Vendor.sol\":5825:5873  State(msg.sender, satisfied, \"Sending payment.\") */\n      mload(0x40)\n      tag_305\n      swap2\n      swap1\n      tag_306\n      jump\t// in\n    tag_305:\n      mload(0x40)\n      dup1\n      swap2\n      sub\n      swap1\n      log2\n        /* \"Vendor.sol\":5931:5942  payVendor() */\n      tag_307\n        /* \"Vendor.sol\":5931:5940  payVendor */\n      tag_308\n        /* \"Vendor.sol\":5931:5942  payVendor() */\n      jump\t// in\n    tag_307:\n        /* \"Vendor.sol\":8079:8080  _ */\n    tag_285:\n        /* \"Vendor.sol\":5302:5949  function isSatisfied() private atStage(Stages.Active) {... */\n      pop\n      jump\t// out\n        /* \"Vendor.sol\":2358:2486  function calcDate(uint _billingDate) private view returns (uint) {... */\n    tag_234:\n        /* \"Vendor.sol\":2417:2421  uint */\n      0x00\n        /* \"Vendor.sol\":1047:1051  6400 */\n      0x1900\n        /* \"Vendor.sol\":2455:2467  _billingDate */\n      dup3\n        /* \"Vendor.sol\":2455:2479  _billingDate*blocksDaily */\n      tag_310\n      swap2\n      swap1\n      tag_311\n      jump\t// in\n    tag_310:\n        /* \"Vendor.sol\":2440:2452  block.number */\n      number\n        /* \"Vendor.sol\":2440:2479  block.number + _billingDate*blocksDaily */\n      tag_312\n      swap2\n      swap1\n      tag_237\n      jump\t// in\n    tag_312:\n        /* \"Vendor.sol\":2433:2479  return block.number + _billingDate*blocksDaily */\n      swap1\n      pop\n        /* \"Vendor.sol\":2358:2486  function calcDate(uint _billingDate) private view returns (uint) {... */\n      swap2\n      swap1\n      pop\n      jump\t// out\n        /* \"Vendor.sol\":2079:2291  function initOperators() private {... */\n    tag_239:\n        /* \"Vendor.sol\":2139:2140  1 */\n      0x01\n        /* \"Vendor.sol\":2122:2131  operators */\n      0x0b\n        /* \"Vendor.sol\":2122:2136  operators['>'] */\n      mload(0x40)\n      tag_314\n      swap1\n      tag_315\n      jump\t// in\n    tag_314:\n      swap1\n      dup2\n      mstore\n      0x20\n      add\n      mload(0x40)\n      dup1\n      swap2\n      sub\n      swap1\n      keccak256\n        /* \"Vendor.sol\":2122:2140  operators['>'] = 1 */\n      dup2\n      swap1\n      sstore\n      pop\n        /* \"Vendor.sol\":2168:2169  2 */\n      0x02\n        /* \"Vendor.sol\":2150:2159  operators */\n      0x0b\n        /* \"Vendor.sol\":2150:2165  operators['=='] */\n      mload(0x40)\n      tag_316\n      swap1\n      tag_317\n      jump\t// in\n    tag_316:\n      swap1\n      dup2\n      mstore\n      0x20\n      add\n      mload(0x40)\n      dup1\n      swap2\n      sub\n      swap1\n      keccak256\n        /* \"Vendor.sol\":2150:2169  operators['=='] = 2 */\n      dup2\n      swap1\n      sstore\n      pop\n        /* \"Vendor.sol\":2197:2198  3 */\n      0x03\n        /* \"Vendor.sol\":2179:2188  operators */\n      0x0b\n        /* \"Vendor.sol\":2179:2194  operators['=>'] */\n      mload(0x40)\n      tag_318\n      swap1\n      tag_319\n      jump\t// in\n    tag_318:\n      swap1\n      dup2\n      mstore\n      0x20\n      add\n      mload(0x40)\n      dup1\n      swap2\n      sub\n      swap1\n      keccak256\n        /* \"Vendor.sol\":2179:2198  operators['=>'] = 3 */\n      dup2\n      swap1\n      sstore\n      pop\n        /* \"Vendor.sol\":2225:2226  4 */\n      0x04\n        /* \"Vendor.sol\":2208:2217  operators */\n      0x0b\n        /* \"Vendor.sol\":2208:2222  operators['<'] */\n      mload(0x40)\n      tag_320\n      swap1\n      tag_321\n      jump\t// in\n    tag_320:\n      swap1\n      dup2\n      mstore\n      0x20\n      add\n      mload(0x40)\n      dup1\n      swap2\n      sub\n      swap1\n      keccak256\n        /* \"Vendor.sol\":2208:2226  operators['<'] = 4 */\n      dup2\n      swap1\n      sstore\n      pop\n        /* \"Vendor.sol\":2254:2255  5 */\n      0x05\n        /* \"Vendor.sol\":2236:2245  operators */\n      0x0b\n        /* \"Vendor.sol\":2236:2251  operators['!='] */\n      mload(0x40)\n      tag_322\n      swap1\n      tag_323\n      jump\t// in\n    tag_322:\n      swap1\n      dup2\n      mstore\n      0x20\n      add\n      mload(0x40)\n      dup1\n      swap2\n      sub\n      swap1\n      keccak256\n        /* \"Vendor.sol\":2236:2255  operators['!='] = 5 */\n      dup2\n      swap1\n      sstore\n      pop\n        /* \"Vendor.sol\":2283:2284  6 */\n      0x06\n        /* \"Vendor.sol\":2265:2274  operators */\n      0x0b\n        /* \"Vendor.sol\":2265:2280  operators['<='] */\n      mload(0x40)\n      tag_324\n      swap1\n      tag_325\n      jump\t// in\n    tag_324:\n      swap1\n      dup2\n      mstore\n      0x20\n      add\n      mload(0x40)\n      dup1\n      swap2\n      sub\n      swap1\n      keccak256\n        /* \"Vendor.sol\":2265:2284  operators['<='] = 6 */\n      dup2\n      swap1\n      sstore\n      pop\n        /* \"Vendor.sol\":2079:2291  function initOperators() private {... */\n      jump\t// out\n        /* \"Vendor.sol\":6096:6689  function condValid(int operator, int _toCheck, int value) private pure returns (bool) {... */\n    tag_298:\n        /* \"Vendor.sol\":6176:6180  bool */\n      0x00\n        /* \"Vendor.sol\":6208:6210  -1 */\n      0xffffffffffffffffffffffffffffffffffffffffffffffffffffffffffffffff\n        /* \"Vendor.sol\":6196:6204  operator */\n      dup5\n        /* \"Vendor.sol\":6196:6210  operator != -1 */\n      eq\n        /* \"Vendor.sol\":6192:6662  if (operator != -1) {... */\n      tag_327\n      jumpi\n        /* \"Vendor.sol\":6246:6247  1 */\n      0x01\n        /* \"Vendor.sol\":6241:6242  1 */\n      dup1\n        /* \"Vendor.sol\":6230:6238  operator */\n      dup6\n        /* \"Vendor.sol\":6230:6242  operator & 1 */\n      and\n        /* \"Vendor.sol\":6230:6247  operator & 1 == 1 */\n      eq\n        /* \"Vendor.sol\":6226:6359  if (operator & 1 == 1) {... */\n      iszero\n      tag_328\n      jumpi\n        /* \"Vendor.sol\":6284:6289  value */\n      dup2\n        /* \"Vendor.sol\":6273:6281  _toCheck */\n      dup4\n        /* \"Vendor.sol\":6273:6289  _toCheck > value */\n      sgt\n        /* \"Vendor.sol\":6267:6345  if (!(_toCheck > value)) {... */\n      tag_329\n      jumpi\n        /* \"Vendor.sol\":6321:6326  false */\n      0x00\n        /* \"Vendor.sol\":6314:6326  return false */\n      swap1\n      pop\n      jump(tag_326)\n        /* \"Vendor.sol\":6267:6345  if (!(_toCheck > value)) {... */\n    tag_329:\n        /* \"Vendor.sol\":6226:6359  if (operator & 1 == 1) {... */\n    tag_328:\n        /* \"Vendor.sol\":6392:6393  2 */\n      0x02\n        /* \"Vendor.sol\":6387:6388  2 */\n      dup1\n        /* \"Vendor.sol\":6376:6384  operator */\n      dup6\n        /* \"Vendor.sol\":6376:6388  operator & 2 */\n      and\n        /* \"Vendor.sol\":6376:6393  operator & 2 == 2 */\n      eq\n        /* \"Vendor.sol\":6372:6506  if (operator & 2 == 2) {... */\n      iszero\n      tag_330\n      jumpi\n        /* \"Vendor.sol\":6431:6436  value */\n      dup2\n        /* \"Vendor.sol\":6419:6427  _toCheck */\n      dup4\n        /* \"Vendor.sol\":6419:6436  _toCheck == value */\n      eq\n        /* \"Vendor.sol\":6413:6492  if (!(_toCheck == value)) {... */\n      tag_331\n      jumpi\n        /* \"Vendor.sol\":6468:6473  false */\n      0x00\n        /* \"Vendor.sol\":6461:6473  return false */\n      swap1\n      pop\n      jump(tag_326)\n        /* \"Vendor.sol\":6413:6492  if (!(_toCheck == value)) {... */\n    tag_331:\n        /* \"Vendor.sol\":6372:6506  if (operator & 2 == 2) {... */\n    tag_330:\n        /* \"Vendor.sol\":6539:6540  4 */\n      0x04\n        /* \"Vendor.sol\":6534:6535  4 */\n      dup1\n        /* \"Vendor.sol\":6523:6531  operator */\n      dup6\n        /* \"Vendor.sol\":6523:6535  operator & 4 */\n      and\n        /* \"Vendor.sol\":6523:6540  operator & 4 == 4 */\n      eq\n        /* \"Vendor.sol\":6519:6652  if (operator & 4 == 4) {... */\n      iszero\n      tag_332\n      jumpi\n        /* \"Vendor.sol\":6577:6582  value */\n      dup2\n        /* \"Vendor.sol\":6566:6574  _toCheck */\n      dup4\n        /* \"Vendor.sol\":6566:6582  _toCheck < value */\n      slt\n        /* \"Vendor.sol\":6560:6638  if (!(_toCheck < value)) {... */\n      tag_333\n      jumpi\n        /* \"Vendor.sol\":6614:6619  false */\n      0x00\n        /* \"Vendor.sol\":6607:6619  return false */\n      swap1\n      pop\n      jump(tag_326)\n        /* \"Vendor.sol\":6560:6638  if (!(_toCheck < value)) {... */\n    tag_333:\n        /* \"Vendor.sol\":6519:6652  if (operator & 4 == 4) {... */\n    tag_332:\n        /* \"Vendor.sol\":6192:6662  if (operator != -1) {... */\n    tag_327:\n        /* \"Vendor.sol\":6678:6682  true */\n      0x01\n        /* \"Vendor.sol\":6671:6682  return true */\n      swap1\n      pop\n        /* \"Vendor.sol\":6096:6689  function condValid(int operator, int _toCheck, int value) private pure returns (bool) {... */\n    tag_326:\n      swap4\n      swap3\n      pop\n      pop\n      pop\n      jump\t// out\n        /* \"Vendor.sol\":4480:4569  function refund() private {... */\n    tag_301:\n        /* \"Vendor.sol\":4516:4522  client */\n      0x01\n      0x00\n      swap1\n      sload\n      swap1\n      0x0100\n      exp\n      swap1\n      div\n      0xffffffffffffffffffffffffffffffffffffffff\n      and\n        /* \"Vendor.sol\":4516:4531  client.transfer */\n      0xffffffffffffffffffffffffffffffffffffffff\n      and\n        /* \"Vendor.sol\":4516:4539  client.transfer(amount) */\n      0x08fc\n        /* \"Vendor.sol\":4532:4538  amount */\n      sload(0x05)\n        /* \"Vendor.sol\":4516:4539  client.transfer(amount) */\n      swap1\n      dup2\n      iszero\n      mul\n      swap1\n      mload(0x40)\n      0x00\n      mload(0x40)\n      dup1\n      dup4\n      sub\n      dup2\n      dup6\n      dup9\n      dup9\n      call\n      swap4\n      pop\n      pop\n      pop\n      pop\n      iszero\n      dup1\n      iszero\n      tag_336\n      jumpi\n      returndatasize\n      0x00\n      dup1\n      returndatacopy\n      revert(0x00, returndatasize)\n    tag_336:\n      pop\n        /* \"Vendor.sol\":4549:4562  setNewDates() */\n      tag_337\n        /* \"Vendor.sol\":4549:4560  setNewDates */\n      tag_338\n        /* \"Vendor.sol\":4549:4562  setNewDates() */\n      jump\t// in\n    tag_337:\n        /* \"Vendor.sol\":4480:4569  function refund() private {... */\n      jump\t// out\n        /* \"Vendor.sol\":4379:4470  function payVendor() private {... */\n    tag_308:\n        /* \"Vendor.sol\":4418:4423  payee */\n      0x02\n      0x00\n      swap1\n      sload\n      swap1\n      0x0100\n      exp\n      swap1\n      div\n      0xffffffffffffffffffffffffffffffffffffffff\n      and\n        /* \"Vendor.sol\":4418:4432  payee.transfer */\n      0xffffffffffffffffffffffffffffffffffffffff\n      and\n        /* \"Vendor.sol\":4418:4440  payee.transfer(amount) */\n      0x08fc\n        /* \"Vendor.sol\":4433:4439  amount */\n      sload(0x05)\n        /* \"Vendor.sol\":4418:4440  payee.transfer(amount) */\n      swap1\n      dup2\n      iszero\n      mul\n      swap1\n      mload(0x40)\n      0x00\n      mload(0x40)\n      dup1\n      dup4\n      sub\n      dup2\n      dup6\n      dup9\n      dup9\n      call\n      swap4\n      pop\n      pop\n      pop\n      pop\n      iszero\n      dup1\n      iszero\n      tag_341\n      jumpi\n      returndatasize\n      0x00\n      dup1\n      returndatacopy\n      revert(0x00, returndatasize)\n    tag_341:\n      pop\n        /* \"Vendor.sol\":4450:4463  setNewDates() */\n      tag_342\n        /* \"Vendor.sol\":4450:4461  setNewDates */\n      tag_338\n        /* \"Vendor.sol\":4450:4463  setNewDates() */\n      jump\t// in\n    tag_342:\n        /* \"Vendor.sol\":4379:4470  function payVendor() private {... */\n      jump\t// out\n        /* \"Vendor.sol\":4575:4759  function setNewDates() private checkExpiry() {... */\n    tag_338:\n        /* \"Vendor.sol\":7841:7851  expiryDate */\n      sload(0x04)\n        /* \"Vendor.sol\":7826:7838  block.number */\n      number\n        /* \"Vendor.sol\":7826:7851  block.number < expiryDate */\n      lt\n        /* \"Vendor.sol\":7822:7879  if (block.number < expiryDate) {... */\n      iszero\n      tag_344\n      jumpi\n        /* \"Vendor.sol\":4642:4647  false */\n      0x00\n        /* \"Vendor.sol\":4630:4639  satisfied */\n      0x09\n      0x01\n        /* \"Vendor.sol\":4630:4647  satisfied = false */\n      0x0100\n      exp\n      dup2\n      sload\n      dup2\n      0xff\n      mul\n      not\n      and\n      swap1\n      dup4\n      iszero\n      iszero\n      mul\n      or\n      swap1\n      sstore\n      pop\n        /* \"Vendor.sol\":4675:4690  nextBillingDate */\n      sload(0x07)\n        /* \"Vendor.sol\":4657:4672  prevBillingDate */\n      0x06\n        /* \"Vendor.sol\":4657:4690  prevBillingDate = nextBillingDate */\n      dup2\n      swap1\n      sstore\n      pop\n        /* \"Vendor.sol\":1047:1051  6400 */\n      0x1900\n        /* \"Vendor.sol\":4736:4738  30 */\n      0x1e\n        /* \"Vendor.sol\":4736:4752  30 * blocksDaily */\n      tag_346\n      swap2\n      swap1\n      tag_311\n      jump\t// in\n    tag_346:\n        /* \"Vendor.sol\":4718:4733  nextBillingDate */\n      sload(0x07)\n        /* \"Vendor.sol\":4718:4752  nextBillingDate + 30 * blocksDaily */\n      tag_347\n      swap2\n      swap1\n      tag_237\n      jump\t// in\n    tag_347:\n        /* \"Vendor.sol\":4700:4715  nextBillingDate */\n      0x07\n        /* \"Vendor.sol\":4700:4752  nextBillingDate = nextBillingDate + 30 * blocksDaily */\n      dup2\n      swap1\n      sstore\n      pop\n        /* \"Vendor.sol\":7822:7879  if (block.number < expiryDate) {... */\n    tag_344:\n        /* \"Vendor.sol\":7896:7910  Stages.Expired */\n      0x04\n        /* \"Vendor.sol\":7888:7893  stage */\n      0x09\n      0x00\n        /* \"Vendor.sol\":7888:7910  stage = Stages.Expired */\n      0x0100\n      exp\n      dup2\n      sload\n      dup2\n      0xff\n      mul\n      not\n      and\n      swap1\n      dup4\n      0x04\n      dup2\n      gt\n      iszero\n      tag_348\n      jumpi\n      tag_349\n      tag_143\n      jump\t// in\n    tag_349:\n    tag_348:\n      mul\n      or\n      swap1\n      sstore\n      pop\n        /* \"Vendor.sol\":4575:4759  function setNewDates() private checkExpiry() {... */\n      jump\t// out\n    tag_275:\n      dup3\n      dup1\n      sload\n      tag_350\n      swap1\n      tag_147\n      jump\t// in\n    tag_350:\n      swap1\n      0x00\n      mstore\n      keccak256(0x00, 0x20)\n      swap1\n      0x1f\n      add\n      0x20\n      swap1\n      div\n      dup2\n      add\n      swap3\n      dup3\n      tag_352\n      jumpi\n      0x00\n      dup6\n      sstore\n      jump(tag_351)\n    tag_352:\n      dup3\n      0x1f\n      lt\n      tag_353\n      jumpi\n      dup1\n      mload\n      not(0xff)\n      and\n      dup4\n      dup1\n      add\n      or\n      dup6\n      sstore\n      jump(tag_351)\n    tag_353:\n      dup3\n      dup1\n      add\n      0x01\n      add\n      dup6\n      sstore\n      dup3\n      iszero\n      tag_351\n      jumpi\n      swap2\n      dup3\n      add\n    tag_354:\n      dup3\n      dup2\n      gt\n      iszero\n      tag_355\n      jumpi\n      dup3\n      mload\n      dup3\n      sstore\n      swap2\n      0x20\n      add\n      swap2\n      swap1\n      0x01\n      add\n      swap1\n      jump(tag_354)\n    tag_355:\n    tag_351:\n      pop\n      swap1\n      pop\n      tag_356\n      swap2\n      swap1\n      tag_357\n      jump\t// in\n    tag_356:\n      pop\n      swap1\n      jump\t// out\n    tag_357:\n    tag_358:\n      dup1\n      dup3\n      gt\n      iszero\n      tag_359\n      jumpi\n      0x00\n      dup2\n      0x00\n      swap1\n      sstore\n      pop\n      0x01\n      add\n      jump(tag_358)\n    tag_359:\n      pop\n      swap1\n      jump\t// out\n        /* \"#utility.yul\":24:676   */\n    tag_361:\n        /* \"#utility.yul\":117:122   */\n      0x00\n        /* \"#utility.yul\":142:220   */\n      tag_363\n        /* \"#utility.yul\":158:219   */\n      tag_364\n        /* \"#utility.yul\":212:218   */\n      dup5\n        /* \"#utility.yul\":158:219   */\n      tag_365\n      jump\t// in\n    tag_364:\n        /* \"#utility.yul\":142:220   */\n      tag_366\n      jump\t// in\n    tag_363:\n        /* \"#utility.yul\":133:220   */\n      swap1\n      pop\n        /* \"#utility.yul\":240:245   */\n      dup1\n        /* \"#utility.yul\":266:272   */\n      dup3\n        /* \"#utility.yul\":316:319   */\n      dup6\n        /* \"#utility.yul\":308:312   */\n      0x20\n        /* \"#utility.yul\":300:306   */\n      dup7\n        /* \"#utility.yul\":296:313   */\n      mul\n        /* \"#utility.yul\":291:294   */\n      dup3\n        /* \"#utility.yul\":287:314   */\n      add\n        /* \"#utility.yul\":284:320   */\n      gt\n        /* \"#utility.yul\":281:283   */\n      iszero\n      tag_367\n      jumpi\n        /* \"#utility.yul\":335:414   */\n      tag_368\n      tag_369\n      jump\t// in\n    tag_368:\n        /* \"#utility.yul\":281:283   */\n    tag_367:\n        /* \"#utility.yul\":448:449   */\n      0x00\n        /* \"#utility.yul\":433:670   */\n    tag_370:\n        /* \"#utility.yul\":458:464   */\n      dup6\n        /* \"#utility.yul\":455:456   */\n      dup2\n        /* \"#utility.yul\":452:465   */\n      lt\n        /* \"#utility.yul\":433:670   */\n      iszero\n      tag_372\n      jumpi\n        /* \"#utility.yul\":526:529   */\n      dup2\n        /* \"#utility.yul\":555:591   */\n      tag_373\n        /* \"#utility.yul\":587:590   */\n      dup9\n        /* \"#utility.yul\":575:585   */\n      dup3\n        /* \"#utility.yul\":555:591   */\n      tag_374\n      jump\t// in\n    tag_373:\n        /* \"#utility.yul\":550:553   */\n      dup5\n        /* \"#utility.yul\":543:592   */\n      mstore\n        /* \"#utility.yul\":621:625   */\n      0x20\n        /* \"#utility.yul\":616:619   */\n      dup5\n        /* \"#utility.yul\":612:626   */\n      add\n        /* \"#utility.yul\":605:626   */\n      swap4\n      pop\n        /* \"#utility.yul\":655:659   */\n      0x20\n        /* \"#utility.yul\":650:653   */\n      dup4\n        /* \"#utility.yul\":646:660   */\n      add\n        /* \"#utility.yul\":639:660   */\n      swap3\n      pop\n        /* \"#utility.yul\":493:670   */\n      pop\n        /* \"#utility.yul\":480:481   */\n      0x01\n        /* \"#utility.yul\":477:478   */\n      dup2\n        /* \"#utility.yul\":473:482   */\n      add\n        /* \"#utility.yul\":468:482   */\n      swap1\n      pop\n        /* \"#utility.yul\":433:670   */\n      jump(tag_370)\n    tag_372:\n        /* \"#utility.yul\":437:451   */\n      pop\n        /* \"#utility.yul\":123:676   */\n      pop\n      pop\n      swap4\n      swap3\n      pop\n      pop\n      pop\n      jump\t// out\n        /* \"#utility.yul\":698:1417   */\n    tag_375:\n        /* \"#utility.yul\":793:798   */\n      0x00\n        /* \"#utility.yul\":818:898   */\n      tag_377\n        /* \"#utility.yul\":834:897   */\n      tag_378\n        /* \"#utility.yul\":890:896   */\n      dup5\n        /* \"#utility.yul\":834:897   */\n      tag_379\n      jump\t// in\n    tag_378:\n        /* \"#utility.yul\":818:898   */\n      tag_366\n      jump\t// in\n    tag_377:\n        /* \"#utility.yul\":809:898   */\n      swap1\n      pop\n        /* \"#utility.yul\":918:923   */\n      dup1\n        /* \"#utility.yul\":947:953   */\n      dup4\n        /* \"#utility.yul\":940:945   */\n      dup3\n        /* \"#utility.yul\":933:954   */\n      mstore\n        /* \"#utility.yul\":981:985   */\n      0x20\n        /* \"#utility.yul\":974:979   */\n      dup3\n        /* \"#utility.yul\":970:986   */\n      add\n        /* \"#utility.yul\":963:986   */\n      swap1\n      pop\n        /* \"#utility.yul\":1007:1013   */\n      dup3\n        /* \"#utility.yul\":1057:1060   */\n      dup6\n        /* \"#utility.yul\":1049:1053   */\n      0x20\n        /* \"#utility.yul\":1041:1047   */\n      dup7\n        /* \"#utility.yul\":1037:1054   */\n      mul\n        /* \"#utility.yul\":1032:1035   */\n      dup3\n        /* \"#utility.yul\":1028:1055   */\n      add\n        /* \"#utility.yul\":1025:1061   */\n      gt\n        /* \"#utility.yul\":1022:1024   */\n      iszero\n      tag_380\n      jumpi\n        /* \"#utility.yul\":1076:1155   */\n      tag_381\n      tag_369\n      jump\t// in\n    tag_381:\n        /* \"#utility.yul\":1022:1024   */\n    tag_380:\n        /* \"#utility.yul\":1189:1190   */\n      0x00\n        /* \"#utility.yul\":1174:1411   */\n    tag_382:\n        /* \"#utility.yul\":1199:1205   */\n      dup6\n        /* \"#utility.yul\":1196:1197   */\n      dup2\n        /* \"#utility.yul\":1193:1206   */\n      lt\n        /* \"#utility.yul\":1174:1411   */\n      iszero\n      tag_384\n      jumpi\n        /* \"#utility.yul\":1267:1270   */\n      dup2\n        /* \"#utility.yul\":1296:1332   */\n      tag_385\n        /* \"#utility.yul\":1328:1331   */\n      dup9\n        /* \"#utility.yul\":1316:1326   */\n      dup3\n        /* \"#utility.yul\":1296:1332   */\n      tag_374\n      jump\t// in\n    tag_385:\n        /* \"#utility.yul\":1291:1294   */\n      dup5\n        /* \"#utility.yul\":1284:1333   */\n      mstore\n        /* \"#utility.yul\":1362:1366   */\n      0x20\n        /* \"#utility.yul\":1357:1360   */\n      dup5\n        /* \"#utility.yul\":1353:1367   */\n      add\n        /* \"#utility.yul\":1346:1367   */\n      swap4\n      pop\n        /* \"#utility.yul\":1396:1400   */\n      0x20\n        /* \"#utility.yul\":1391:1394   */\n      dup4\n        /* \"#utility.yul\":1387:1401   */\n      add\n        /* \"#utility.yul\":1380:1401   */\n      swap3\n      pop\n        /* \"#utility.yul\":1234:1411   */\n      pop\n        /* \"#utility.yul\":1221:1222   */\n      0x01\n        /* \"#utility.yul\":1218:1219   */\n      dup2\n        /* \"#utility.yul\":1214:1223   */\n      add\n        /* \"#utility.yul\":1209:1223   */\n      swap1\n      pop\n        /* \"#utility.yul\":1174:1411   */\n      jump(tag_382)\n    tag_384:\n        /* \"#utility.yul\":1178:1192   */\n      pop\n        /* \"#utility.yul\":799:1417   */\n      pop\n      pop\n      swap4\n      swap3\n      pop\n      pop\n      pop\n      jump\t// out\n        /* \"#utility.yul\":1440:2330   */\n    tag_386:\n        /* \"#utility.yul\":1544:1549   */\n      0x00\n        /* \"#utility.yul\":1569:1658   */\n      tag_388\n        /* \"#utility.yul\":1585:1657   */\n      tag_389\n        /* \"#utility.yul\":1650:1656   */\n      dup5\n        /* \"#utility.yul\":1585:1657   */\n      tag_390\n      jump\t// in\n    tag_389:\n        /* \"#utility.yul\":1569:1658   */\n      tag_366\n      jump\t// in\n    tag_388:\n        /* \"#utility.yul\":1560:1658   */\n      swap1\n      pop\n        /* \"#utility.yul\":1678:1683   */\n      dup1\n        /* \"#utility.yul\":1704:1710   */\n      dup3\n        /* \"#utility.yul\":1754:1757   */\n      dup6\n        /* \"#utility.yul\":1746:1750   */\n      0x20\n        /* \"#utility.yul\":1738:1744   */\n      dup7\n        /* \"#utility.yul\":1734:1751   */\n      mul\n        /* \"#utility.yul\":1729:1732   */\n      dup3\n        /* \"#utility.yul\":1725:1752   */\n      add\n        /* \"#utility.yul\":1722:1758   */\n      gt\n        /* \"#utility.yul\":1719:1721   */\n      iszero\n      tag_391\n      jumpi\n        /* \"#utility.yul\":1773:1852   */\n      tag_392\n      tag_369\n      jump\t// in\n    tag_392:\n        /* \"#utility.yul\":1719:1721   */\n    tag_391:\n        /* \"#utility.yul\":1886:1887   */\n      0x00\n        /* \"#utility.yul\":1871:2324   */\n    tag_393:\n        /* \"#utility.yul\":1896:1902   */\n      dup6\n        /* \"#utility.yul\":1893:1894   */\n      dup2\n        /* \"#utility.yul\":1890:1903   */\n      lt\n        /* \"#utility.yul\":1871:2324   */\n      iszero\n      tag_395\n      jumpi\n        /* \"#utility.yul\":1978:1981   */\n      dup2\n        /* \"#utility.yul\":1965:1982   */\n      calldataload\n        /* \"#utility.yul\":2014:2032   */\n      0xffffffffffffffff\n        /* \"#utility.yul\":2001:2012   */\n      dup2\n        /* \"#utility.yul\":1998:2033   */\n      gt\n        /* \"#utility.yul\":1995:1997   */\n      iszero\n      tag_396\n      jumpi\n        /* \"#utility.yul\":2036:2115   */\n      tag_397\n      tag_398\n      jump\t// in\n    tag_397:\n        /* \"#utility.yul\":1995:1997   */\n    tag_396:\n        /* \"#utility.yul\":2160:2171   */\n      dup1\n        /* \"#utility.yul\":2152:2158   */\n      dup7\n        /* \"#utility.yul\":2148:2172   */\n      add\n        /* \"#utility.yul\":2198:2245   */\n      tag_399\n        /* \"#utility.yul\":2241:2244   */\n      dup10\n        /* \"#utility.yul\":2229:2239   */\n      dup3\n        /* \"#utility.yul\":2198:2245   */\n      tag_400\n      jump\t// in\n    tag_399:\n        /* \"#utility.yul\":2193:2196   */\n      dup6\n        /* \"#utility.yul\":2186:2246   */\n      mstore\n        /* \"#utility.yul\":2275:2279   */\n      0x20\n        /* \"#utility.yul\":2270:2273   */\n      dup6\n        /* \"#utility.yul\":2266:2280   */\n      add\n        /* \"#utility.yul\":2259:2280   */\n      swap5\n      pop\n        /* \"#utility.yul\":2309:2313   */\n      0x20\n        /* \"#utility.yul\":2304:2307   */\n      dup5\n        /* \"#utility.yul\":2300:2314   */\n      add\n        /* \"#utility.yul\":2293:2314   */\n      swap4\n      pop\n        /* \"#utility.yul\":1931:2324   */\n      pop\n      pop\n        /* \"#utility.yul\":1918:1919   */\n      0x01\n        /* \"#utility.yul\":1915:1916   */\n      dup2\n        /* \"#utility.yul\":1911:1920   */\n      add\n        /* \"#utility.yul\":1906:1920   */\n      swap1\n      pop\n        /* \"#utility.yul\":1871:2324   */\n      jump(tag_393)\n    tag_395:\n        /* \"#utility.yul\":1875:1889   */\n      pop\n        /* \"#utility.yul\":1550:2330   */\n      pop\n      pop\n      swap4\n      swap3\n      pop\n      pop\n      pop\n      jump\t// out\n        /* \"#utility.yul\":2336:2748   */\n    tag_401:\n        /* \"#utility.yul\":2414:2419   */\n      0x00\n        /* \"#utility.yul\":2439:2505   */\n      tag_403\n        /* \"#utility.yul\":2455:2504   */\n      tag_404\n        /* \"#utility.yul\":2497:2503   */\n      dup5\n        /* \"#utility.yul\":2455:2504   */\n      tag_405\n      jump\t// in\n    tag_404:\n        /* \"#utility.yul\":2439:2505   */\n      tag_366\n      jump\t// in\n    tag_403:\n        /* \"#utility.yul\":2430:2505   */\n      swap1\n      pop\n        /* \"#utility.yul\":2528:2534   */\n      dup3\n        /* \"#utility.yul\":2521:2526   */\n      dup2\n        /* \"#utility.yul\":2514:2535   */\n      mstore\n        /* \"#utility.yul\":2566:2570   */\n      0x20\n        /* \"#utility.yul\":2559:2564   */\n      dup2\n        /* \"#utility.yul\":2555:2571   */\n      add\n        /* \"#utility.yul\":2604:2607   */\n      dup5\n        /* \"#utility.yul\":2595:2601   */\n      dup5\n        /* \"#utility.yul\":2590:2593   */\n      dup5\n        /* \"#utility.yul\":2586:2602   */\n      add\n        /* \"#utility.yul\":2583:2608   */\n      gt\n        /* \"#utility.yul\":2580:2582   */\n      iszero\n      tag_406\n      jumpi\n        /* \"#utility.yul\":2611:2690   */\n      tag_407\n      tag_408\n      jump\t// in\n    tag_407:\n        /* \"#utility.yul\":2580:2582   */\n    tag_406:\n        /* \"#utility.yul\":2701:2742   */\n      tag_409\n        /* \"#utility.yul\":2735:2741   */\n      dup5\n        /* \"#utility.yul\":2730:2733   */\n      dup3\n        /* \"#utility.yul\":2725:2728   */\n      dup6\n        /* \"#utility.yul\":2701:2742   */\n      tag_410\n      jump\t// in\n    tag_409:\n        /* \"#utility.yul\":2420:2748   */\n      pop\n      swap4\n      swap3\n      pop\n      pop\n      pop\n      jump\t// out\n        /* \"#utility.yul\":2754:2893   */\n    tag_411:\n        /* \"#utility.yul\":2800:2805   */\n      0x00\n        /* \"#utility.yul\":2838:2844   */\n      dup2\n        /* \"#utility.yul\":2825:2845   */\n      calldataload\n        /* \"#utility.yul\":2816:2845   */\n      swap1\n      pop\n        /* \"#utility.yul\":2854:2887   */\n      tag_413\n        /* \"#utility.yul\":2881:2886   */\n      dup2\n        /* \"#utility.yul\":2854:2887   */\n      tag_414\n      jump\t// in\n    tag_413:\n        /* \"#utility.yul\":2806:2893   */\n      swap3\n      swap2\n      pop\n      pop\n      jump\t// out\n        /* \"#utility.yul\":2916:3253   */\n    tag_415:\n        /* \"#utility.yul\":2984:2989   */\n      0x00\n        /* \"#utility.yul\":3033:3036   */\n      dup3\n        /* \"#utility.yul\":3026:3030   */\n      0x1f\n        /* \"#utility.yul\":3018:3024   */\n      dup4\n        /* \"#utility.yul\":3014:3031   */\n      add\n        /* \"#utility.yul\":3010:3037   */\n      slt\n        /* \"#utility.yul\":3000:3002   */\n      tag_417\n      jumpi\n        /* \"#utility.yul\":3041:3120   */\n      tag_418\n      tag_398\n      jump\t// in\n    tag_418:\n        /* \"#utility.yul\":3000:3002   */\n    tag_417:\n        /* \"#utility.yul\":3145:3149   */\n      0x08\n        /* \"#utility.yul\":3167:3247   */\n      tag_419\n        /* \"#utility.yul\":3243:3246   */\n      dup5\n        /* \"#utility.yul\":3235:3241   */\n      dup3\n        /* \"#utility.yul\":3227:3233   */\n      dup6\n        /* \"#utility.yul\":3167:3247   */\n      tag_361\n      jump\t// in\n    tag_419:\n        /* \"#utility.yul\":3158:3247   */\n      swap2\n      pop\n        /* \"#utility.yul\":2990:3253   */\n      pop\n      swap3\n      swap2\n      pop\n      pop\n      jump\t// out\n        /* \"#utility.yul\":3275:3643   */\n    tag_420:\n        /* \"#utility.yul\":3345:3350   */\n      0x00\n        /* \"#utility.yul\":3394:3397   */\n      dup3\n        /* \"#utility.yul\":3387:3391   */\n      0x1f\n        /* \"#utility.yul\":3379:3385   */\n      dup4\n        /* \"#utility.yul\":3375:3392   */\n      add\n        /* \"#utility.yul\":3371:3398   */\n      slt\n        /* \"#utility.yul\":3361:3363   */\n      tag_422\n      jumpi\n        /* \"#utility.yul\":3402:3481   */\n      tag_423\n      tag_398\n      jump\t// in\n    tag_423:\n        /* \"#utility.yul\":3361:3363   */\n    tag_422:\n        /* \"#utility.yul\":3519:3525   */\n      dup2\n        /* \"#utility.yul\":3506:3526   */\n      calldataload\n        /* \"#utility.yul\":3544:3637   */\n      tag_424\n        /* \"#utility.yul\":3633:3636   */\n      dup5\n        /* \"#utility.yul\":3625:3631   */\n      dup3\n        /* \"#utility.yul\":3618:3622   */\n      0x20\n        /* \"#utility.yul\":3610:3616   */\n      dup7\n        /* \"#utility.yul\":3606:3623   */\n      add\n        /* \"#utility.yul\":3544:3637   */\n      tag_375\n      jump\t// in\n    tag_424:\n        /* \"#utility.yul\":3535:3637   */\n      swap2\n      pop\n        /* \"#utility.yul\":3351:3643   */\n      pop\n      swap3\n      swap2\n      pop\n      pop\n      jump\t// out\n        /* \"#utility.yul\":3666:4025   */\n    tag_425:\n        /* \"#utility.yul\":3745:3750   */\n      0x00\n        /* \"#utility.yul\":3794:3797   */\n      dup3\n        /* \"#utility.yul\":3787:3791   */\n      0x1f\n        /* \"#utility.yul\":3779:3785   */\n      dup4\n        /* \"#utility.yul\":3775:3792   */\n      add\n        /* \"#utility.yul\":3771:3798   */\n      slt\n        /* \"#utility.yul\":3761:3763   */\n      tag_427\n      jumpi\n        /* \"#utility.yul\":3802:3881   */\n      tag_428\n      tag_398\n      jump\t// in\n    tag_428:\n        /* \"#utility.yul\":3761:3763   */\n    tag_427:\n        /* \"#utility.yul\":3906:3910   */\n      0x08\n        /* \"#utility.yul\":3928:4019   */\n      tag_429\n        /* \"#utility.yul\":4015:4018   */\n      dup5\n        /* \"#utility.yul\":4007:4013   */\n      dup3\n        /* \"#utility.yul\":3999:4005   */\n      dup6\n        /* \"#utility.yul\":3928:4019   */\n      tag_386\n      jump\t// in\n    tag_429:\n        /* \"#utility.yul\":3919:4019   */\n      swap2\n      pop\n        /* \"#utility.yul\":3751:4025   */\n      pop\n      swap3\n      swap2\n      pop\n      pop\n      jump\t// out\n        /* \"#utility.yul\":4031:4168   */\n    tag_374:\n        /* \"#utility.yul\":4076:4081   */\n      0x00\n        /* \"#utility.yul\":4114:4120   */\n      dup2\n        /* \"#utility.yul\":4101:4121   */\n      calldataload\n        /* \"#utility.yul\":4092:4121   */\n      swap1\n      pop\n        /* \"#utility.yul\":4130:4162   */\n      tag_431\n        /* \"#utility.yul\":4156:4161   */\n      dup2\n        /* \"#utility.yul\":4130:4162   */\n      tag_432\n      jump\t// in\n    tag_431:\n        /* \"#utility.yul\":4082:4168   */\n      swap3\n      swap2\n      pop\n      pop\n      jump\t// out\n        /* \"#utility.yul\":4188:4528   */\n    tag_400:\n        /* \"#utility.yul\":4244:4249   */\n      0x00\n        /* \"#utility.yul\":4293:4296   */\n      dup3\n        /* \"#utility.yul\":4286:4290   */\n      0x1f\n        /* \"#utility.yul\":4278:4284   */\n      dup4\n        /* \"#utility.yul\":4274:4291   */\n      add\n        /* \"#utility.yul\":4270:4297   */\n      slt\n        /* \"#utility.yul\":4260:4262   */\n      tag_434\n      jumpi\n        /* \"#utility.yul\":4301:4380   */\n      tag_435\n      tag_398\n      jump\t// in\n    tag_435:\n        /* \"#utility.yul\":4260:4262   */\n    tag_434:\n        /* \"#utility.yul\":4418:4424   */\n      dup2\n        /* \"#utility.yul\":4405:4425   */\n      calldataload\n        /* \"#utility.yul\":4443:4522   */\n      tag_436\n        /* \"#utility.yul\":4518:4521   */\n      dup5\n        /* \"#utility.yul\":4510:4516   */\n      dup3\n        /* \"#utility.yul\":4503:4507   */\n      0x20\n        /* \"#utility.yul\":4495:4501   */\n      dup7\n        /* \"#utility.yul\":4491:4508   */\n      add\n        /* \"#utility.yul\":4443:4522   */\n      tag_401\n      jump\t// in\n    tag_436:\n        /* \"#utility.yul\":4434:4522   */\n      swap2\n      pop\n        /* \"#utility.yul\":4250:4528   */\n      pop\n      swap3\n      swap2\n      pop\n      pop\n      jump\t// out\n        /* \"#utility.yul\":4534:4673   */\n    tag_437:\n        /* \"#utility.yul\":4580:4585   */\n      0x00\n        /* \"#utility.yul\":4618:4624   */\n      dup2\n        /* \"#utility.yul\":4605:4625   */\n      calldataload\n        /* \"#utility.yul\":4596:4625   */\n      swap1\n      pop\n        /* \"#utility.yul\":4634:4667   */\n      tag_439\n        /* \"#utility.yul\":4661:4666   */\n      dup2\n        /* \"#utility.yul\":4634:4667   */\n      tag_440\n      jump\t// in\n    tag_439:\n        /* \"#utility.yul\":4586:4673   */\n      swap3\n      swap2\n      pop\n      pop\n      jump\t// out\n        /* \"#utility.yul\":4679:5008   */\n    tag_68:\n        /* \"#utility.yul\":4738:4744   */\n      0x00\n        /* \"#utility.yul\":4787:4789   */\n      0x20\n        /* \"#utility.yul\":4775:4784   */\n      dup3\n        /* \"#utility.yul\":4766:4773   */\n      dup5\n        /* \"#utility.yul\":4762:4785   */\n      sub\n        /* \"#utility.yul\":4758:4790   */\n      slt\n        /* \"#utility.yul\":4755:4757   */\n      iszero\n      tag_442\n      jumpi\n        /* \"#utility.yul\":4793:4872   */\n      tag_443\n      tag_444\n      jump\t// in\n    tag_443:\n        /* \"#utility.yul\":4755:4757   */\n    tag_442:\n        /* \"#utility.yul\":4913:4914   */\n      0x00\n        /* \"#utility.yul\":4938:4991   */\n      tag_445\n        /* \"#utility.yul\":4983:4990   */\n      dup5\n        /* \"#utility.yul\":4974:4980   */\n      dup3\n        /* \"#utility.yul\":4963:4972   */\n      dup6\n        /* \"#utility.yul\":4959:4981   */\n      add\n        /* \"#utility.yul\":4938:4991   */\n      tag_411\n      jump\t// in\n    tag_445:\n        /* \"#utility.yul\":4928:4991   */\n      swap2\n      pop\n        /* \"#utility.yul\":4884:5001   */\n      pop\n        /* \"#utility.yul\":4745:5008   */\n      swap3\n      swap2\n      pop\n      pop\n      jump\t// out\n        /* \"#utility.yul\":5014:5925   */\n    tag_104:\n        /* \"#utility.yul\":5109:5115   */\n      0x00\n        /* \"#utility.yul\":5117:5123   */\n      dup1\n        /* \"#utility.yul\":5125:5131   */\n      0x00\n        /* \"#utility.yul\":5133:5139   */\n      dup1\n        /* \"#utility.yul\":5141:5147   */\n      0x00\n        /* \"#utility.yul\":5190:5193   */\n      0xa0\n        /* \"#utility.yul\":5178:5187   */\n      dup7\n        /* \"#utility.yul\":5169:5176   */\n      dup9\n        /* \"#utility.yul\":5165:5188   */\n      sub\n        /* \"#utility.yul\":5161:5194   */\n      slt\n        /* \"#utility.yul\":5158:5160   */\n      iszero\n      tag_447\n      jumpi\n        /* \"#utility.yul\":5197:5276   */\n      tag_448\n      tag_444\n      jump\t// in\n    tag_448:\n        /* \"#utility.yul\":5158:5160   */\n    tag_447:\n        /* \"#utility.yul\":5317:5318   */\n      0x00\n        /* \"#utility.yul\":5342:5395   */\n      tag_449\n        /* \"#utility.yul\":5387:5394   */\n      dup9\n        /* \"#utility.yul\":5378:5384   */\n      dup3\n        /* \"#utility.yul\":5367:5376   */\n      dup10\n        /* \"#utility.yul\":5363:5385   */\n      add\n        /* \"#utility.yul\":5342:5395   */\n      tag_411\n      jump\t// in\n    tag_449:\n        /* \"#utility.yul\":5332:5395   */\n      swap6\n      pop\n        /* \"#utility.yul\":5288:5405   */\n      pop\n        /* \"#utility.yul\":5444:5446   */\n      0x20\n        /* \"#utility.yul\":5470:5523   */\n      tag_450\n        /* \"#utility.yul\":5515:5522   */\n      dup9\n        /* \"#utility.yul\":5506:5512   */\n      dup3\n        /* \"#utility.yul\":5495:5504   */\n      dup10\n        /* \"#utility.yul\":5491:5513   */\n      add\n        /* \"#utility.yul\":5470:5523   */\n      tag_437\n      jump\t// in\n    tag_450:\n        /* \"#utility.yul\":5460:5523   */\n      swap5\n      pop\n        /* \"#utility.yul\":5415:5533   */\n      pop\n        /* \"#utility.yul\":5572:5574   */\n      0x40\n        /* \"#utility.yul\":5598:5651   */\n      tag_451\n        /* \"#utility.yul\":5643:5650   */\n      dup9\n        /* \"#utility.yul\":5634:5640   */\n      dup3\n        /* \"#utility.yul\":5623:5632   */\n      dup10\n        /* \"#utility.yul\":5619:5641   */\n      add\n        /* \"#utility.yul\":5598:5651   */\n      tag_437\n      jump\t// in\n    tag_451:\n        /* \"#utility.yul\":5588:5651   */\n      swap4\n      pop\n        /* \"#utility.yul\":5543:5661   */\n      pop\n        /* \"#utility.yul\":5700:5702   */\n      0x60\n        /* \"#utility.yul\":5726:5779   */\n      tag_452\n        /* \"#utility.yul\":5771:5778   */\n      dup9\n        /* \"#utility.yul\":5762:5768   */\n      dup3\n        /* \"#utility.yul\":5751:5760   */\n      dup10\n        /* \"#utility.yul\":5747:5769   */\n      add\n        /* \"#utility.yul\":5726:5779   */\n      tag_437\n      jump\t// in\n    tag_452:\n        /* \"#utility.yul\":5716:5779   */\n      swap3\n      pop\n        /* \"#utility.yul\":5671:5789   */\n      pop\n        /* \"#utility.yul\":5828:5831   */\n      0x80\n        /* \"#utility.yul\":5855:5908   */\n      tag_453\n        /* \"#utility.yul\":5900:5907   */\n      dup9\n        /* \"#utility.yul\":5891:5897   */\n      dup3\n        /* \"#utility.yul\":5880:5889   */\n      dup10\n        /* \"#utility.yul\":5876:5898   */\n      add\n        /* \"#utility.yul\":5855:5908   */\n      tag_437\n      jump\t// in\n    tag_453:\n        /* \"#utility.yul\":5845:5908   */\n      swap2\n      pop\n        /* \"#utility.yul\":5799:5918   */\n      pop\n        /* \"#utility.yul\":5148:5925   */\n      swap3\n      swap6\n      pop\n      swap3\n      swap6\n      swap1\n      swap4\n      pop\n      jump\t// out\n        /* \"#utility.yul\":5931:6468   */\n    tag_54:\n        /* \"#utility.yul\":6014:6020   */\n      0x00\n        /* \"#utility.yul\":6063:6065   */\n      0x20\n        /* \"#utility.yul\":6051:6060   */\n      dup3\n        /* \"#utility.yul\":6042:6049   */\n      dup5\n        /* \"#utility.yul\":6038:6061   */\n      sub\n        /* \"#utility.yul\":6034:6066   */\n      slt\n        /* \"#utility.yul\":6031:6033   */\n      iszero\n      tag_455\n      jumpi\n        /* \"#utility.yul\":6069:6148   */\n      tag_456\n      tag_444\n      jump\t// in\n    tag_456:\n        /* \"#utility.yul\":6031:6033   */\n    tag_455:\n        /* \"#utility.yul\":6217:6218   */\n      0x00\n        /* \"#utility.yul\":6206:6215   */\n      dup3\n        /* \"#utility.yul\":6202:6219   */\n      add\n        /* \"#utility.yul\":6189:6220   */\n      calldataload\n        /* \"#utility.yul\":6247:6265   */\n      0xffffffffffffffff\n        /* \"#utility.yul\":6239:6245   */\n      dup2\n        /* \"#utility.yul\":6236:6266   */\n      gt\n        /* \"#utility.yul\":6233:6235   */\n      iszero\n      tag_457\n      jumpi\n        /* \"#utility.yul\":6269:6348   */\n      tag_458\n      tag_459\n      jump\t// in\n    tag_458:\n        /* \"#utility.yul\":6233:6235   */\n    tag_457:\n        /* \"#utility.yul\":6374:6451   */\n      tag_460\n        /* \"#utility.yul\":6443:6450   */\n      dup5\n        /* \"#utility.yul\":6434:6440   */\n      dup3\n        /* \"#utility.yul\":6423:6432   */\n      dup6\n        /* \"#utility.yul\":6419:6441   */\n      add\n        /* \"#utility.yul\":6374:6451   */\n      tag_420\n      jump\t// in\n    tag_460:\n        /* \"#utility.yul\":6364:6451   */\n      swap2\n      pop\n        /* \"#utility.yul\":6160:6461   */\n      pop\n        /* \"#utility.yul\":6021:6468   */\n      swap3\n      swap2\n      pop\n      pop\n      jump\t// out\n        /* \"#utility.yul\":6474:7591   */\n    tag_130:\n        /* \"#utility.yul\":6639:6645   */\n      0x00\n        /* \"#utility.yul\":6647:6653   */\n      dup1\n        /* \"#utility.yul\":6655:6661   */\n      0x00\n        /* \"#utility.yul\":6704:6707   */\n      0x0140\n        /* \"#utility.yul\":6692:6701   */\n      dup5\n        /* \"#utility.yul\":6683:6690   */\n      dup7\n        /* \"#utility.yul\":6679:6702   */\n      sub\n        /* \"#utility.yul\":6675:6708   */\n      slt\n        /* \"#utility.yul\":6672:6674   */\n      iszero\n      tag_462\n      jumpi\n        /* \"#utility.yul\":6711:6790   */\n      tag_463\n      tag_444\n      jump\t// in\n    tag_463:\n        /* \"#utility.yul\":6672:6674   */\n    tag_462:\n        /* \"#utility.yul\":6859:6860   */\n      0x00\n        /* \"#utility.yul\":6848:6857   */\n      dup5\n        /* \"#utility.yul\":6844:6861   */\n      add\n        /* \"#utility.yul\":6831:6862   */\n      calldataload\n        /* \"#utility.yul\":6889:6907   */\n      0xffffffffffffffff\n        /* \"#utility.yul\":6881:6887   */\n      dup2\n        /* \"#utility.yul\":6878:6908   */\n      gt\n        /* \"#utility.yul\":6875:6877   */\n      iszero\n      tag_464\n      jumpi\n        /* \"#utility.yul\":6911:6990   */\n      tag_465\n      tag_459\n      jump\t// in\n    tag_465:\n        /* \"#utility.yul\":6875:6877   */\n    tag_464:\n        /* \"#utility.yul\":7016:7102   */\n      tag_466\n        /* \"#utility.yul\":7094:7101   */\n      dup7\n        /* \"#utility.yul\":7085:7091   */\n      dup3\n        /* \"#utility.yul\":7074:7083   */\n      dup8\n        /* \"#utility.yul\":7070:7092   */\n      add\n        /* \"#utility.yul\":7016:7102   */\n      tag_425\n      jump\t// in\n    tag_466:\n        /* \"#utility.yul\":7006:7102   */\n      swap4\n      pop\n        /* \"#utility.yul\":6802:7112   */\n      pop\n        /* \"#utility.yul\":7151:7153   */\n      0x20\n        /* \"#utility.yul\":7177:7252   */\n      tag_467\n        /* \"#utility.yul\":7244:7251   */\n      dup7\n        /* \"#utility.yul\":7235:7241   */\n      dup3\n        /* \"#utility.yul\":7224:7233   */\n      dup8\n        /* \"#utility.yul\":7220:7242   */\n      add\n        /* \"#utility.yul\":7177:7252   */\n      tag_415\n      jump\t// in\n    tag_467:\n        /* \"#utility.yul\":7167:7252   */\n      swap3\n      pop\n        /* \"#utility.yul\":7122:7262   */\n      pop\n        /* \"#utility.yul\":7329:7332   */\n      0x0120\n        /* \"#utility.yul\":7318:7327   */\n      dup5\n        /* \"#utility.yul\":7314:7333   */\n      add\n        /* \"#utility.yul\":7301:7334   */\n      calldataload\n        /* \"#utility.yul\":7361:7379   */\n      0xffffffffffffffff\n        /* \"#utility.yul\":7353:7359   */\n      dup2\n        /* \"#utility.yul\":7350:7380   */\n      gt\n        /* \"#utility.yul\":7347:7349   */\n      iszero\n      tag_468\n      jumpi\n        /* \"#utility.yul\":7383:7462   */\n      tag_469\n      tag_459\n      jump\t// in\n    tag_469:\n        /* \"#utility.yul\":7347:7349   */\n    tag_468:\n        /* \"#utility.yul\":7488:7574   */\n      tag_470\n        /* \"#utility.yul\":7566:7573   */\n      dup7\n        /* \"#utility.yul\":7557:7563   */\n      dup3\n        /* \"#utility.yul\":7546:7555   */\n      dup8\n        /* \"#utility.yul\":7542:7564   */\n      add\n        /* \"#utility.yul\":7488:7574   */\n      tag_425\n      jump\t// in\n    tag_470:\n        /* \"#utility.yul\":7478:7574   */\n      swap2\n      pop\n        /* \"#utility.yul\":7272:7584   */\n      pop\n        /* \"#utility.yul\":6662:7591   */\n      swap3\n      pop\n      swap3\n      pop\n      swap3\n      jump\t// out\n        /* \"#utility.yul\":7597:7926   */\n    tag_47:\n        /* \"#utility.yul\":7656:7662   */\n      0x00\n        /* \"#utility.yul\":7705:7707   */\n      0x20\n        /* \"#utility.yul\":7693:7702   */\n      dup3\n        /* \"#utility.yul\":7684:7691   */\n      dup5\n        /* \"#utility.yul\":7680:7703   */\n      sub\n        /* \"#utility.yul\":7676:7708   */\n      slt\n        /* \"#utility.yul\":7673:7675   */\n      iszero\n      tag_472\n      jumpi\n        /* \"#utility.yul\":7711:7790   */\n      tag_473\n      tag_444\n      jump\t// in\n    tag_473:\n        /* \"#utility.yul\":7673:7675   */\n    tag_472:\n        /* \"#utility.yul\":7831:7832   */\n      0x00\n        /* \"#utility.yul\":7856:7909   */\n      tag_474\n        /* \"#utility.yul\":7901:7908   */\n      dup5\n        /* \"#utility.yul\":7892:7898   */\n      dup3\n        /* \"#utility.yul\":7881:7890   */\n      dup6\n        /* \"#utility.yul\":7877:7899   */\n      add\n        /* \"#utility.yul\":7856:7909   */\n      tag_437\n      jump\t// in\n    tag_474:\n        /* \"#utility.yul\":7846:7909   */\n      swap2\n      pop\n        /* \"#utility.yul\":7802:7919   */\n      pop\n        /* \"#utility.yul\":7663:7926   */\n      swap3\n      swap2\n      pop\n      pop\n      jump\t// out\n        /* \"#utility.yul\":7932:8074   */\n    tag_475:\n        /* \"#utility.yul\":8035:8067   */\n      tag_477\n        /* \"#utility.yul\":8061:8066   */\n      dup2\n        /* \"#utility.yul\":8035:8067   */\n      tag_478\n      jump\t// in\n    tag_477:\n        /* \"#utility.yul\":8030:8033   */\n      dup3\n        /* \"#utility.yul\":8023:8068   */\n      mstore\n        /* \"#utility.yul\":8013:8074   */\n      pop\n      pop\n      jump\t// out\n        /* \"#utility.yul\":8080:8198   */\n    tag_479:\n        /* \"#utility.yul\":8167:8191   */\n      tag_481\n        /* \"#utility.yul\":8185:8190   */\n      dup2\n        /* \"#utility.yul\":8167:8191   */\n      tag_482\n      jump\t// in\n    tag_481:\n        /* \"#utility.yul\":8162:8165   */\n      dup3\n        /* \"#utility.yul\":8155:8192   */\n      mstore\n        /* \"#utility.yul\":8145:8198   */\n      pop\n      pop\n      jump\t// out\n        /* \"#utility.yul\":8204:8313   */\n    tag_483:\n        /* \"#utility.yul\":8285:8306   */\n      tag_485\n        /* \"#utility.yul\":8300:8305   */\n      dup2\n        /* \"#utility.yul\":8285:8306   */\n      tag_486\n      jump\t// in\n    tag_485:\n        /* \"#utility.yul\":8280:8283   */\n      dup3\n        /* \"#utility.yul\":8273:8307   */\n      mstore\n        /* \"#utility.yul\":8263:8313   */\n      pop\n      pop\n      jump\t// out\n        /* \"#utility.yul\":8319:8464   */\n    tag_487:\n        /* \"#utility.yul\":8413:8457   */\n      tag_489\n        /* \"#utility.yul\":8451:8456   */\n      dup2\n        /* \"#utility.yul\":8413:8457   */\n      tag_490\n      jump\t// in\n    tag_489:\n        /* \"#utility.yul\":8408:8411   */\n      dup3\n        /* \"#utility.yul\":8401:8458   */\n      mstore\n        /* \"#utility.yul\":8391:8464   */\n      pop\n      pop\n      jump\t// out\n        /* \"#utility.yul\":8470:8585   */\n    tag_491:\n        /* \"#utility.yul\":8555:8578   */\n      tag_493\n        /* \"#utility.yul\":8572:8577   */\n      dup2\n        /* \"#utility.yul\":8555:8578   */\n      tag_494\n      jump\t// in\n    tag_493:\n        /* \"#utility.yul\":8550:8553   */\n      dup3\n        /* \"#utility.yul\":8543:8579   */\n      mstore\n        /* \"#utility.yul\":8533:8585   */\n      pop\n      pop\n      jump\t// out\n        /* \"#utility.yul\":8591:8955   */\n    tag_495:\n        /* \"#utility.yul\":8679:8682   */\n      0x00\n        /* \"#utility.yul\":8707:8746   */\n      tag_497\n        /* \"#utility.yul\":8740:8745   */\n      dup3\n        /* \"#utility.yul\":8707:8746   */\n      tag_498\n      jump\t// in\n    tag_497:\n        /* \"#utility.yul\":8762:8833   */\n      tag_499\n        /* \"#utility.yul\":8826:8832   */\n      dup2\n        /* \"#utility.yul\":8821:8824   */\n      dup6\n        /* \"#utility.yul\":8762:8833   */\n      tag_500\n      jump\t// in\n    tag_499:\n        /* \"#utility.yul\":8755:8833   */\n      swap4\n      pop\n        /* \"#utility.yul\":8842:8894   */\n      tag_501\n        /* \"#utility.yul\":8887:8893   */\n      dup2\n        /* \"#utility.yul\":8882:8885   */\n      dup6\n        /* \"#utility.yul\":8875:8879   */\n      0x20\n        /* \"#utility.yul\":8868:8873   */\n      dup7\n        /* \"#utility.yul\":8864:8880   */\n      add\n        /* \"#utility.yul\":8842:8894   */\n      tag_502\n      jump\t// in\n    tag_501:\n        /* \"#utility.yul\":8919:8948   */\n      tag_503\n        /* \"#utility.yul\":8941:8947   */\n      dup2\n        /* \"#utility.yul\":8919:8948   */\n      tag_504\n      jump\t// in\n    tag_503:\n        /* \"#utility.yul\":8914:8917   */\n      dup5\n        /* \"#utility.yul\":8910:8949   */\n      add\n        /* \"#utility.yul\":8903:8949   */\n      swap2\n      pop\n        /* \"#utility.yul\":8683:8955   */\n      pop\n      swap3\n      swap2\n      pop\n      pop\n      jump\t// out\n        /* \"#utility.yul\":8961:9338   */\n    tag_505:\n        /* \"#utility.yul\":9067:9070   */\n      0x00\n        /* \"#utility.yul\":9095:9134   */\n      tag_507\n        /* \"#utility.yul\":9128:9133   */\n      dup3\n        /* \"#utility.yul\":9095:9134   */\n      tag_498\n      jump\t// in\n    tag_507:\n        /* \"#utility.yul\":9150:9239   */\n      tag_508\n        /* \"#utility.yul\":9232:9238   */\n      dup2\n        /* \"#utility.yul\":9227:9230   */\n      dup6\n        /* \"#utility.yul\":9150:9239   */\n      tag_509\n      jump\t// in\n    tag_508:\n        /* \"#utility.yul\":9143:9239   */\n      swap4\n      pop\n        /* \"#utility.yul\":9248:9300   */\n      tag_510\n        /* \"#utility.yul\":9293:9299   */\n      dup2\n        /* \"#utility.yul\":9288:9291   */\n      dup6\n        /* \"#utility.yul\":9281:9285   */\n      0x20\n        /* \"#utility.yul\":9274:9279   */\n      dup7\n        /* \"#utility.yul\":9270:9286   */\n      add\n        /* \"#utility.yul\":9248:9300   */\n      tag_502\n      jump\t// in\n    tag_510:\n        /* \"#utility.yul\":9325:9331   */\n      dup1\n        /* \"#utility.yul\":9320:9323   */\n      dup5\n        /* \"#utility.yul\":9316:9332   */\n      add\n        /* \"#utility.yul\":9309:9332   */\n      swap2\n      pop\n        /* \"#utility.yul\":9071:9338   */\n      pop\n      swap3\n      swap2\n      pop\n      pop\n      jump\t// out\n        /* \"#utility.yul\":9344:9710   */\n    tag_511:\n        /* \"#utility.yul\":9486:9489   */\n      0x00\n        /* \"#utility.yul\":9507:9574   */\n      tag_513\n        /* \"#utility.yul\":9571:9573   */\n      0x36\n        /* \"#utility.yul\":9566:9569   */\n      dup4\n        /* \"#utility.yul\":9507:9574   */\n      tag_500\n      jump\t// in\n    tag_513:\n        /* \"#utility.yul\":9500:9574   */\n      swap2\n      pop\n        /* \"#utility.yul\":9583:9676   */\n      tag_514\n        /* \"#utility.yul\":9672:9675   */\n      dup3\n        /* \"#utility.yul\":9583:9676   */\n      tag_515\n      jump\t// in\n    tag_514:\n        /* \"#utility.yul\":9701:9703   */\n      0x40\n        /* \"#utility.yul\":9696:9699   */\n      dup3\n        /* \"#utility.yul\":9692:9704   */\n      add\n        /* \"#utility.yul\":9685:9704   */\n      swap1\n      pop\n        /* \"#utility.yul\":9490:9710   */\n      swap2\n      swap1\n      pop\n      jump\t// out\n        /* \"#utility.yul\":9716:10082   */\n    tag_516:\n        /* \"#utility.yul\":9858:9861   */\n      0x00\n        /* \"#utility.yul\":9879:9946   */\n      tag_518\n        /* \"#utility.yul\":9943:9945   */\n      0x12\n        /* \"#utility.yul\":9938:9941   */\n      dup4\n        /* \"#utility.yul\":9879:9946   */\n      tag_500\n      jump\t// in\n    tag_518:\n        /* \"#utility.yul\":9872:9946   */\n      swap2\n      pop\n        /* \"#utility.yul\":9955:10048   */\n      tag_519\n        /* \"#utility.yul\":10044:10047   */\n      dup3\n        /* \"#utility.yul\":9955:10048   */\n      tag_520\n      jump\t// in\n    tag_519:\n        /* \"#utility.yul\":10073:10075   */\n      0x20\n        /* \"#utility.yul\":10068:10071   */\n      dup3\n        /* \"#utility.yul\":10064:10076   */\n      add\n        /* \"#utility.yul\":10057:10076   */\n      swap1\n      pop\n        /* \"#utility.yul\":9862:10082   */\n      swap2\n      swap1\n      pop\n      jump\t// out\n        /* \"#utility.yul\":10088:10454   */\n    tag_521:\n        /* \"#utility.yul\":10230:10233   */\n      0x00\n        /* \"#utility.yul\":10251:10318   */\n      tag_523\n        /* \"#utility.yul\":10315:10317   */\n      0x10\n        /* \"#utility.yul\":10310:10313   */\n      dup4\n        /* \"#utility.yul\":10251:10318   */\n      tag_500\n      jump\t// in\n    tag_523:\n        /* \"#utility.yul\":10244:10318   */\n      swap2\n      pop\n        /* \"#utility.yul\":10327:10420   */\n      tag_524\n        /* \"#utility.yul\":10416:10419   */\n      dup3\n        /* \"#utility.yul\":10327:10420   */\n      tag_525\n      jump\t// in\n    tag_524:\n        /* \"#utility.yul\":10445:10447   */\n      0x20\n        /* \"#utility.yul\":10440:10443   */\n      dup3\n        /* \"#utility.yul\":10436:10448   */\n      add\n        /* \"#utility.yul\":10429:10448   */\n      swap1\n      pop\n        /* \"#utility.yul\":10234:10454   */\n      swap2\n      swap1\n      pop\n      jump\t// out\n        /* \"#utility.yul\":10460:10860   */\n    tag_526:\n        /* \"#utility.yul\":10620:10623   */\n      0x00\n        /* \"#utility.yul\":10641:10725   */\n      tag_528\n        /* \"#utility.yul\":10723:10724   */\n      0x02\n        /* \"#utility.yul\":10718:10721   */\n      dup4\n        /* \"#utility.yul\":10641:10725   */\n      tag_509\n      jump\t// in\n    tag_528:\n        /* \"#utility.yul\":10634:10725   */\n      swap2\n      pop\n        /* \"#utility.yul\":10734:10827   */\n      tag_529\n        /* \"#utility.yul\":10823:10826   */\n      dup3\n        /* \"#utility.yul\":10734:10827   */\n      tag_530\n      jump\t// in\n    tag_529:\n        /* \"#utility.yul\":10852:10853   */\n      0x02\n        /* \"#utility.yul\":10847:10850   */\n      dup3\n        /* \"#utility.yul\":10843:10854   */\n      add\n        /* \"#utility.yul\":10836:10854   */\n      swap1\n      pop\n        /* \"#utility.yul\":10624:10860   */\n      swap2\n      swap1\n      pop\n      jump\t// out\n        /* \"#utility.yul\":10866:11266   */\n    tag_531:\n        /* \"#utility.yul\":11026:11029   */\n      0x00\n        /* \"#utility.yul\":11047:11131   */\n      tag_533\n        /* \"#utility.yul\":11129:11130   */\n      0x01\n        /* \"#utility.yul\":11124:11127   */\n      dup4\n        /* \"#utility.yul\":11047:11131   */\n      tag_509\n      jump\t// in\n    tag_533:\n        /* \"#utility.yul\":11040:11131   */\n      swap2\n      pop\n        /* \"#utility.yul\":11140:11233   */\n      tag_534\n        /* \"#utility.yul\":11229:11232   */\n      dup3\n        /* \"#utility.yul\":11140:11233   */\n      tag_535\n      jump\t// in\n    tag_534:\n        /* \"#utility.yul\":11258:11259   */\n      0x01\n        /* \"#utility.yul\":11253:11256   */\n      dup3\n        /* \"#utility.yul\":11249:11260   */\n      add\n        /* \"#utility.yul\":11242:11260   */\n      swap1\n      pop\n        /* \"#utility.yul\":11030:11266   */\n      swap2\n      swap1\n      pop\n      jump\t// out\n        /* \"#utility.yul\":11272:11672   */\n    tag_536:\n        /* \"#utility.yul\":11432:11435   */\n      0x00\n        /* \"#utility.yul\":11453:11537   */\n      tag_538\n        /* \"#utility.yul\":11535:11536   */\n      0x02\n        /* \"#utility.yul\":11530:11533   */\n      dup4\n        /* \"#utility.yul\":11453:11537   */\n      tag_509\n      jump\t// in\n    tag_538:\n        /* \"#utility.yul\":11446:11537   */\n      swap2\n      pop\n        /* \"#utility.yul\":11546:11639   */\n      tag_539\n        /* \"#utility.yul\":11635:11638   */\n      dup3\n        /* \"#utility.yul\":11546:11639   */\n      tag_540\n      jump\t// in\n    tag_539:\n        /* \"#utility.yul\":11664:11665   */\n      0x02\n        /* \"#utility.yul\":11659:11662   */\n      dup3\n        /* \"#utility.yul\":11655:11666   */\n      add\n        /* \"#utility.yul\":11648:11666   */\n      swap1\n      pop\n        /* \"#utility.yul\":11436:11672   */\n      swap2\n      swap1\n      pop\n      jump\t// out\n        /* \"#utility.yul\":11678:12078   */\n    tag_541:\n        /* \"#utility.yul\":11838:11841   */\n      0x00\n        /* \"#utility.yul\":11859:11943   */\n      tag_543\n        /* \"#utility.yul\":11941:11942   */\n      0x02\n        /* \"#utility.yul\":11936:11939   */\n      dup4\n        /* \"#utility.yul\":11859:11943   */\n      tag_509\n      jump\t// in\n    tag_543:\n        /* \"#utility.yul\":11852:11943   */\n      swap2\n      pop\n        /* \"#utility.yul\":11952:12045   */\n      tag_544\n        /* \"#utility.yul\":12041:12044   */\n      dup3\n        /* \"#utility.yul\":11952:12045   */\n      tag_545\n      jump\t// in\n    tag_544:\n        /* \"#utility.yul\":12070:12071   */\n      0x02\n        /* \"#utility.yul\":12065:12068   */\n      dup3\n        /* \"#utility.yul\":12061:12072   */\n      add\n        /* \"#utility.yul\":12054:12072   */\n      swap1\n      pop\n        /* \"#utility.yul\":11842:12078   */\n      swap2\n      swap1\n      pop\n      jump\t// out\n        /* \"#utility.yul\":12084:12484   */\n    tag_546:\n        /* \"#utility.yul\":12244:12247   */\n      0x00\n        /* \"#utility.yul\":12265:12349   */\n      tag_548\n        /* \"#utility.yul\":12347:12348   */\n      0x02\n        /* \"#utility.yul\":12342:12345   */\n      dup4\n        /* \"#utility.yul\":12265:12349   */\n      tag_509\n      jump\t// in\n    tag_548:\n        /* \"#utility.yul\":12258:12349   */\n      swap2\n      pop\n        /* \"#utility.yul\":12358:12451   */\n      tag_549\n        /* \"#utility.yul\":12447:12450   */\n      dup3\n        /* \"#utility.yul\":12358:12451   */\n      tag_550\n      jump\t// in\n    tag_549:\n        /* \"#utility.yul\":12476:12477   */\n      0x02\n        /* \"#utility.yul\":12471:12474   */\n      dup3\n        /* \"#utility.yul\":12467:12478   */\n      add\n        /* \"#utility.yul\":12460:12478   */\n      swap1\n      pop\n        /* \"#utility.yul\":12248:12484   */\n      swap2\n      swap1\n      pop\n      jump\t// out\n        /* \"#utility.yul\":12490:12890   */\n    tag_551:\n        /* \"#utility.yul\":12650:12653   */\n      0x00\n        /* \"#utility.yul\":12671:12755   */\n      tag_553\n        /* \"#utility.yul\":12753:12754   */\n      0x01\n        /* \"#utility.yul\":12748:12751   */\n      dup4\n        /* \"#utility.yul\":12671:12755   */\n      tag_509\n      jump\t// in\n    tag_553:\n        /* \"#utility.yul\":12664:12755   */\n      swap2\n      pop\n        /* \"#utility.yul\":12764:12857   */\n      tag_554\n        /* \"#utility.yul\":12853:12856   */\n      dup3\n        /* \"#utility.yul\":12764:12857   */\n      tag_555\n      jump\t// in\n    tag_554:\n        /* \"#utility.yul\":12882:12883   */\n      0x01\n        /* \"#utility.yul\":12877:12880   */\n      dup3\n        /* \"#utility.yul\":12873:12884   */\n      add\n        /* \"#utility.yul\":12866:12884   */\n      swap1\n      pop\n        /* \"#utility.yul\":12654:12890   */\n      swap2\n      swap1\n      pop\n      jump\t// out\n        /* \"#utility.yul\":12896:13262   */\n    tag_556:\n        /* \"#utility.yul\":13038:13041   */\n      0x00\n        /* \"#utility.yul\":13059:13126   */\n      tag_558\n        /* \"#utility.yul\":13123:13125   */\n      0x1d\n        /* \"#utility.yul\":13118:13121   */\n      dup4\n        /* \"#utility.yul\":13059:13126   */\n      tag_500\n      jump\t// in\n    tag_558:\n        /* \"#utility.yul\":13052:13126   */\n      swap2\n      pop\n        /* \"#utility.yul\":13135:13228   */\n      tag_559\n        /* \"#utility.yul\":13224:13227   */\n      dup3\n        /* \"#utility.yul\":13135:13228   */\n      tag_560\n      jump\t// in\n    tag_559:\n        /* \"#utility.yul\":13253:13255   */\n      0x20\n        /* \"#utility.yul\":13248:13251   */\n      dup3\n        /* \"#utility.yul\":13244:13256   */\n      add\n        /* \"#utility.yul\":13237:13256   */\n      swap1\n      pop\n        /* \"#utility.yul\":13042:13262   */\n      swap2\n      swap1\n      pop\n      jump\t// out\n        /* \"#utility.yul\":13268:13634   */\n    tag_561:\n        /* \"#utility.yul\":13410:13413   */\n      0x00\n        /* \"#utility.yul\":13431:13498   */\n      tag_563\n        /* \"#utility.yul\":13495:13497   */\n      0x25\n        /* \"#utility.yul\":13490:13493   */\n      dup4\n        /* \"#utility.yul\":13431:13498   */\n      tag_500\n      jump\t// in\n    tag_563:\n        /* \"#utility.yul\":13424:13498   */\n      swap2\n      pop\n        /* \"#utility.yul\":13507:13600   */\n      tag_564\n        /* \"#utility.yul\":13596:13599   */\n      dup3\n        /* \"#utility.yul\":13507:13600   */\n      tag_565\n      jump\t// in\n    tag_564:\n        /* \"#utility.yul\":13625:13627   */\n      0x40\n        /* \"#utility.yul\":13620:13623   */\n      dup3\n        /* \"#utility.yul\":13616:13628   */\n      add\n        /* \"#utility.yul\":13609:13628   */\n      swap1\n      pop\n        /* \"#utility.yul\":13414:13634   */\n      swap2\n      swap1\n      pop\n      jump\t// out\n        /* \"#utility.yul\":13640:13758   */\n    tag_566:\n        /* \"#utility.yul\":13727:13751   */\n      tag_568\n        /* \"#utility.yul\":13745:13750   */\n      dup2\n        /* \"#utility.yul\":13727:13751   */\n      tag_569\n      jump\t// in\n    tag_568:\n        /* \"#utility.yul\":13722:13725   */\n      dup3\n        /* \"#utility.yul\":13715:13752   */\n      mstore\n        /* \"#utility.yul\":13705:13758   */\n      pop\n      pop\n      jump\t// out\n        /* \"#utility.yul\":13764:14039   */\n    tag_270:\n        /* \"#utility.yul\":13896:13899   */\n      0x00\n        /* \"#utility.yul\":13918:14013   */\n      tag_571\n        /* \"#utility.yul\":14009:14012   */\n      dup3\n        /* \"#utility.yul\":14000:14006   */\n      dup5\n        /* \"#utility.yul\":13918:14013   */\n      tag_505\n      jump\t// in\n    tag_571:\n        /* \"#utility.yul\":13911:14013   */\n      swap2\n      pop\n        /* \"#utility.yul\":14030:14033   */\n      dup2\n        /* \"#utility.yul\":14023:14033   */\n      swap1\n      pop\n        /* \"#utility.yul\":13900:14039   */\n      swap3\n      swap2\n      pop\n      pop\n      jump\t// out\n        /* \"#utility.yul\":14045:14426   */\n    tag_317:\n        /* \"#utility.yul\":14230:14233   */\n      0x00\n        /* \"#utility.yul\":14252:14400   */\n      tag_573\n        /* \"#utility.yul\":14396:14399   */\n      dup3\n        /* \"#utility.yul\":14252:14400   */\n      tag_526\n      jump\t// in\n    tag_573:\n        /* \"#utility.yul\":14245:14400   */\n      swap2\n      pop\n        /* \"#utility.yul\":14417:14420   */\n      dup2\n        /* \"#utility.yul\":14410:14420   */\n      swap1\n      pop\n        /* \"#utility.yul\":14234:14426   */\n      swap2\n      swap1\n      pop\n      jump\t// out\n        /* \"#utility.yul\":14432:14813   */\n    tag_321:\n        /* \"#utility.yul\":14617:14620   */\n      0x00\n        /* \"#utility.yul\":14639:14787   */\n      tag_575\n        /* \"#utility.yul\":14783:14786   */\n      dup3\n        /* \"#utility.yul\":14639:14787   */\n      tag_531\n      jump\t// in\n    tag_575:\n        /* \"#utility.yul\":14632:14787   */\n      swap2\n      pop\n        /* \"#utility.yul\":14804:14807   */\n      dup2\n        /* \"#utility.yul\":14797:14807   */\n      swap1\n      pop\n        /* \"#utility.yul\":14621:14813   */\n      swap2\n      swap1\n      pop\n      jump\t// out\n        /* \"#utility.yul\":14819:15200   */\n    tag_323:\n        /* \"#utility.yul\":15004:15007   */\n      0x00\n        /* \"#utility.yul\":15026:15174   */\n      tag_577\n        /* \"#utility.yul\":15170:15173   */\n      dup3\n        /* \"#utility.yul\":15026:15174   */\n      tag_536\n      jump\t// in\n    tag_577:\n        /* \"#utility.yul\":15019:15174   */\n      swap2\n      pop\n        /* \"#utility.yul\":15191:15194   */\n      dup2\n        /* \"#utility.yul\":15184:15194   */\n      swap1\n      pop\n        /* \"#utility.yul\":15008:15200   */\n      swap2\n      swap1\n      pop\n      jump\t// out\n        /* \"#utility.yul\":15206:15587   */\n    tag_319:\n        /* \"#utility.yul\":15391:15394   */\n      0x00\n        /* \"#utility.yul\":15413:15561   */\n      tag_579\n        /* \"#utility.yul\":15557:15560   */\n      dup3\n        /* \"#utility.yul\":15413:15561   */\n      tag_541\n      jump\t// in\n    tag_579:\n        /* \"#utility.yul\":15406:15561   */\n      swap2\n      pop\n        /* \"#utility.yul\":15578:15581   */\n      dup2\n        /* \"#utility.yul\":15571:15581   */\n      swap1\n      pop\n        /* \"#utility.yul\":15395:15587   */\n      swap2\n      swap1\n      pop\n      jump\t// out\n        /* \"#utility.yul\":15593:15974   */\n    tag_325:\n        /* \"#utility.yul\":15778:15781   */\n      0x00\n        /* \"#utility.yul\":15800:15948   */\n      tag_581\n        /* \"#utility.yul\":15944:15947   */\n      dup3\n        /* \"#utility.yul\":15800:15948   */\n      tag_546\n      jump\t// in\n    tag_581:\n        /* \"#utility.yul\":15793:15948   */\n      swap2\n      pop\n        /* \"#utility.yul\":15965:15968   */\n      dup2\n        /* \"#utility.yul\":15958:15968   */\n      swap1\n      pop\n        /* \"#utility.yul\":15782:15974   */\n      swap2\n      swap1\n      pop\n      jump\t// out\n        /* \"#utility.yul\":15980:16361   */\n    tag_315:\n        /* \"#utility.yul\":16165:16168   */\n      0x00\n        /* \"#utility.yul\":16187:16335   */\n      tag_583\n        /* \"#utility.yul\":16331:16334   */\n      dup3\n        /* \"#utility.yul\":16187:16335   */\n      tag_551\n      jump\t// in\n    tag_583:\n        /* \"#utility.yul\":16180:16335   */\n      swap2\n      pop\n        /* \"#utility.yul\":16352:16355   */\n      dup2\n        /* \"#utility.yul\":16345:16355   */\n      swap1\n      pop\n        /* \"#utility.yul\":16169:16361   */\n      swap2\n      swap1\n      pop\n      jump\t// out\n        /* \"#utility.yul\":16367:16589   */\n    tag_126:\n        /* \"#utility.yul\":16460:16464   */\n      0x00\n        /* \"#utility.yul\":16498:16500   */\n      0x20\n        /* \"#utility.yul\":16487:16496   */\n      dup3\n        /* \"#utility.yul\":16483:16501   */\n      add\n        /* \"#utility.yul\":16475:16501   */\n      swap1\n      pop\n        /* \"#utility.yul\":16511:16582   */\n      tag_585\n        /* \"#utility.yul\":16579:16580   */\n      0x00\n        /* \"#utility.yul\":16568:16577   */\n      dup4\n        /* \"#utility.yul\":16564:16581   */\n      add\n        /* \"#utility.yul\":16555:16561   */\n      dup5\n        /* \"#utility.yul\":16511:16582   */\n      tag_479\n      jump\t// in\n    tag_585:\n        /* \"#utility.yul\":16465:16589   */\n      swap3\n      swap2\n      pop\n      pop\n      jump\t// out\n        /* \"#utility.yul\":16595:16849   */\n    tag_40:\n        /* \"#utility.yul\":16704:16708   */\n      0x00\n        /* \"#utility.yul\":16742:16744   */\n      0x20\n        /* \"#utility.yul\":16731:16740   */\n      dup3\n        /* \"#utility.yul\":16727:16745   */\n      add\n        /* \"#utility.yul\":16719:16745   */\n      swap1\n      pop\n        /* \"#utility.yul\":16755:16842   */\n      tag_587\n        /* \"#utility.yul\":16839:16840   */\n      0x00\n        /* \"#utility.yul\":16828:16837   */\n      dup4\n        /* \"#utility.yul\":16824:16841   */\n      add\n        /* \"#utility.yul\":16815:16821   */\n      dup5\n        /* \"#utility.yul\":16755:16842   */\n      tag_475\n      jump\t// in\n    tag_587:\n        /* \"#utility.yul\":16709:16849   */\n      swap3\n      swap2\n      pop\n      pop\n      jump\t// out\n        /* \"#utility.yul\":16855:17852   */\n    tag_136:\n        /* \"#utility.yul\":17144:17148   */\n      0x00\n        /* \"#utility.yul\":17182:17185   */\n      0x0100\n        /* \"#utility.yul\":17171:17180   */\n      dup3\n        /* \"#utility.yul\":17167:17186   */\n      add\n        /* \"#utility.yul\":17159:17186   */\n      swap1\n      pop\n        /* \"#utility.yul\":17196:17267   */\n      tag_589\n        /* \"#utility.yul\":17264:17265   */\n      0x00\n        /* \"#utility.yul\":17253:17262   */\n      dup4\n        /* \"#utility.yul\":17249:17266   */\n      add\n        /* \"#utility.yul\":17240:17246   */\n      dup12\n        /* \"#utility.yul\":17196:17267   */\n      tag_479\n      jump\t// in\n    tag_589:\n        /* \"#utility.yul\":17277:17349   */\n      tag_590\n        /* \"#utility.yul\":17345:17347   */\n      0x20\n        /* \"#utility.yul\":17334:17343   */\n      dup4\n        /* \"#utility.yul\":17330:17348   */\n      add\n        /* \"#utility.yul\":17321:17327   */\n      dup11\n        /* \"#utility.yul\":17277:17349   */\n      tag_479\n      jump\t// in\n    tag_590:\n        /* \"#utility.yul\":17359:17431   */\n      tag_591\n        /* \"#utility.yul\":17427:17429   */\n      0x40\n        /* \"#utility.yul\":17416:17425   */\n      dup4\n        /* \"#utility.yul\":17412:17430   */\n      add\n        /* \"#utility.yul\":17403:17409   */\n      dup10\n        /* \"#utility.yul\":17359:17431   */\n      tag_566\n      jump\t// in\n    tag_591:\n        /* \"#utility.yul\":17441:17513   */\n      tag_592\n        /* \"#utility.yul\":17509:17511   */\n      0x60\n        /* \"#utility.yul\":17498:17507   */\n      dup4\n        /* \"#utility.yul\":17494:17512   */\n      add\n        /* \"#utility.yul\":17485:17491   */\n      dup9\n        /* \"#utility.yul\":17441:17513   */\n      tag_566\n      jump\t// in\n    tag_592:\n        /* \"#utility.yul\":17523:17596   */\n      tag_593\n        /* \"#utility.yul\":17591:17594   */\n      0x80\n        /* \"#utility.yul\":17580:17589   */\n      dup4\n        /* \"#utility.yul\":17576:17595   */\n      add\n        /* \"#utility.yul\":17567:17573   */\n      dup8\n        /* \"#utility.yul\":17523:17596   */\n      tag_566\n      jump\t// in\n    tag_593:\n        /* \"#utility.yul\":17606:17679   */\n      tag_594\n        /* \"#utility.yul\":17674:17677   */\n      0xa0\n        /* \"#utility.yul\":17663:17672   */\n      dup4\n        /* \"#utility.yul\":17659:17678   */\n      add\n        /* \"#utility.yul\":17650:17656   */\n      dup7\n        /* \"#utility.yul\":17606:17679   */\n      tag_566\n      jump\t// in\n    tag_594:\n        /* \"#utility.yul\":17689:17762   */\n      tag_595\n        /* \"#utility.yul\":17757:17760   */\n      0xc0\n        /* \"#utility.yul\":17746:17755   */\n      dup4\n        /* \"#utility.yul\":17742:17761   */\n      add\n        /* \"#utility.yul\":17733:17739   */\n      dup6\n        /* \"#utility.yul\":17689:17762   */\n      tag_566\n      jump\t// in\n    tag_595:\n        /* \"#utility.yul\":17772:17845   */\n      tag_596\n        /* \"#utility.yul\":17840:17843   */\n      0xe0\n        /* \"#utility.yul\":17829:17838   */\n      dup4\n        /* \"#utility.yul\":17825:17844   */\n      add\n        /* \"#utility.yul\":17816:17822   */\n      dup5\n        /* \"#utility.yul\":17772:17845   */\n      tag_566\n      jump\t// in\n    tag_596:\n        /* \"#utility.yul\":17149:17852   */\n      swap10\n      swap9\n      pop\n      pop\n      pop\n      pop\n      pop\n      pop\n      pop\n      pop\n      pop\n      jump\t// out\n        /* \"#utility.yul\":17858:18068   */\n    tag_64:\n        /* \"#utility.yul\":17945:17949   */\n      0x00\n        /* \"#utility.yul\":17983:17985   */\n      0x20\n        /* \"#utility.yul\":17972:17981   */\n      dup3\n        /* \"#utility.yul\":17968:17986   */\n      add\n        /* \"#utility.yul\":17960:17986   */\n      swap1\n      pop\n        /* \"#utility.yul\":17996:18061   */\n      tag_598\n        /* \"#utility.yul\":18058:18059   */\n      0x00\n        /* \"#utility.yul\":18047:18056   */\n      dup4\n        /* \"#utility.yul\":18043:18060   */\n      add\n        /* \"#utility.yul\":18034:18040   */\n      dup5\n        /* \"#utility.yul\":17996:18061   */\n      tag_483\n      jump\t// in\n    tag_598:\n        /* \"#utility.yul\":17950:18068   */\n      swap3\n      swap2\n      pop\n      pop\n      jump\t// out\n        /* \"#utility.yul\":18074:18591   */\n    tag_303:\n        /* \"#utility.yul\":18262:18266   */\n      0x00\n        /* \"#utility.yul\":18300:18302   */\n      0x40\n        /* \"#utility.yul\":18289:18298   */\n      dup3\n        /* \"#utility.yul\":18285:18303   */\n      add\n        /* \"#utility.yul\":18277:18303   */\n      swap1\n      pop\n        /* \"#utility.yul\":18313:18378   */\n      tag_600\n        /* \"#utility.yul\":18375:18376   */\n      0x00\n        /* \"#utility.yul\":18364:18373   */\n      dup4\n        /* \"#utility.yul\":18360:18377   */\n      add\n        /* \"#utility.yul\":18351:18357   */\n      dup5\n        /* \"#utility.yul\":18313:18378   */\n      tag_483\n      jump\t// in\n    tag_600:\n        /* \"#utility.yul\":18425:18434   */\n      dup2\n        /* \"#utility.yul\":18419:18423   */\n      dup2\n        /* \"#utility.yul\":18415:18435   */\n      sub\n        /* \"#utility.yul\":18410:18412   */\n      0x20\n        /* \"#utility.yul\":18399:18408   */\n      dup4\n        /* \"#utility.yul\":18395:18413   */\n      add\n        /* \"#utility.yul\":18388:18436   */\n      mstore\n        /* \"#utility.yul\":18453:18584   */\n      tag_601\n        /* \"#utility.yul\":18579:18583   */\n      dup2\n        /* \"#utility.yul\":18453:18584   */\n      tag_516\n      jump\t// in\n    tag_601:\n        /* \"#utility.yul\":18445:18584   */\n      swap1\n      pop\n        /* \"#utility.yul\":18267:18591   */\n      swap3\n      swap2\n      pop\n      pop\n      jump\t// out\n        /* \"#utility.yul\":18597:19114   */\n    tag_306:\n        /* \"#utility.yul\":18785:18789   */\n      0x00\n        /* \"#utility.yul\":18823:18825   */\n      0x40\n        /* \"#utility.yul\":18812:18821   */\n      dup3\n        /* \"#utility.yul\":18808:18826   */\n      add\n        /* \"#utility.yul\":18800:18826   */\n      swap1\n      pop\n        /* \"#utility.yul\":18836:18901   */\n      tag_603\n        /* \"#utility.yul\":18898:18899   */\n      0x00\n        /* \"#utility.yul\":18887:18896   */\n      dup4\n        /* \"#utility.yul\":18883:18900   */\n      add\n        /* \"#utility.yul\":18874:18880   */\n      dup5\n        /* \"#utility.yul\":18836:18901   */\n      tag_483\n      jump\t// in\n    tag_603:\n        /* \"#utility.yul\":18948:18957   */\n      dup2\n        /* \"#utility.yul\":18942:18946   */\n      dup2\n        /* \"#utility.yul\":18938:18958   */\n      sub\n        /* \"#utility.yul\":18933:18935   */\n      0x20\n        /* \"#utility.yul\":18922:18931   */\n      dup4\n        /* \"#utility.yul\":18918:18936   */\n      add\n        /* \"#utility.yul\":18911:18959   */\n      mstore\n        /* \"#utility.yul\":18976:19107   */\n      tag_604\n        /* \"#utility.yul\":19102:19106   */\n      dup2\n        /* \"#utility.yul\":18976:19107   */\n      tag_521\n      jump\t// in\n    tag_604:\n        /* \"#utility.yul\":18968:19107   */\n      swap1\n      pop\n        /* \"#utility.yul\":18790:19114   */\n      swap3\n      swap2\n      pop\n      pop\n      jump\t// out\n        /* \"#utility.yul\":19120:19356   */\n    tag_118:\n        /* \"#utility.yul\":19220:19224   */\n      0x00\n        /* \"#utility.yul\":19258:19260   */\n      0x20\n        /* \"#utility.yul\":19247:19256   */\n      dup3\n        /* \"#utility.yul\":19243:19261   */\n      add\n        /* \"#utility.yul\":19235:19261   */\n      swap1\n      pop\n        /* \"#utility.yul\":19271:19349   */\n      tag_606\n        /* \"#utility.yul\":19346:19347   */\n      0x00\n        /* \"#utility.yul\":19335:19344   */\n      dup4\n        /* \"#utility.yul\":19331:19348   */\n      add\n        /* \"#utility.yul\":19322:19328   */\n      dup5\n        /* \"#utility.yul\":19271:19349   */\n      tag_487\n      jump\t// in\n    tag_606:\n        /* \"#utility.yul\":19225:19356   */\n      swap3\n      swap2\n      pop\n      pop\n      jump\t// out\n        /* \"#utility.yul\":19362:19887   */\n    tag_50:\n        /* \"#utility.yul\":19527:19531   */\n      0x00\n        /* \"#utility.yul\":19565:19567   */\n      0x60\n        /* \"#utility.yul\":19554:19563   */\n      dup3\n        /* \"#utility.yul\":19550:19568   */\n      add\n        /* \"#utility.yul\":19542:19568   */\n      swap1\n      pop\n        /* \"#utility.yul\":19578:19647   */\n      tag_608\n        /* \"#utility.yul\":19644:19645   */\n      0x00\n        /* \"#utility.yul\":19633:19642   */\n      dup4\n        /* \"#utility.yul\":19629:19646   */\n      add\n        /* \"#utility.yul\":19620:19626   */\n      dup7\n        /* \"#utility.yul\":19578:19647   */\n      tag_491\n      jump\t// in\n    tag_608:\n        /* \"#utility.yul\":19657:19727   */\n      tag_609\n        /* \"#utility.yul\":19723:19725   */\n      0x20\n        /* \"#utility.yul\":19712:19721   */\n      dup4\n        /* \"#utility.yul\":19708:19726   */\n      add\n        /* \"#utility.yul\":19699:19705   */\n      dup6\n        /* \"#utility.yul\":19657:19727   */\n      tag_491\n      jump\t// in\n    tag_609:\n        /* \"#utility.yul\":19774:19783   */\n      dup2\n        /* \"#utility.yul\":19768:19772   */\n      dup2\n        /* \"#utility.yul\":19764:19784   */\n      sub\n        /* \"#utility.yul\":19759:19761   */\n      0x40\n        /* \"#utility.yul\":19748:19757   */\n      dup4\n        /* \"#utility.yul\":19744:19762   */\n      add\n        /* \"#utility.yul\":19737:19785   */\n      mstore\n        /* \"#utility.yul\":19802:19880   */\n      tag_610\n        /* \"#utility.yul\":19875:19879   */\n      dup2\n        /* \"#utility.yul\":19866:19872   */\n      dup5\n        /* \"#utility.yul\":19802:19880   */\n      tag_495\n      jump\t// in\n    tag_610:\n        /* \"#utility.yul\":19794:19880   */\n      swap1\n      pop\n        /* \"#utility.yul\":19532:19887   */\n      swap5\n      swap4\n      pop\n      pop\n      pop\n      pop\n      jump\t// out\n        /* \"#utility.yul\":19893:20312   */\n    tag_140:\n        /* \"#utility.yul\":20059:20063   */\n      0x00\n        /* \"#utility.yul\":20097:20099   */\n      0x20\n        /* \"#utility.yul\":20086:20095   */\n      dup3\n        /* \"#utility.yul\":20082:20100   */\n      add\n        /* \"#utility.yul\":20074:20100   */\n      swap1\n      pop\n        /* \"#utility.yul\":20146:20155   */\n      dup2\n        /* \"#utility.yul\":20140:20144   */\n      dup2\n        /* \"#utility.yul\":20136:20156   */\n      sub\n        /* \"#utility.yul\":20132:20133   */\n      0x00\n        /* \"#utility.yul\":20121:20130   */\n      dup4\n        /* \"#utility.yul\":20117:20134   */\n      add\n        /* \"#utility.yul\":20110:20157   */\n      mstore\n        /* \"#utility.yul\":20174:20305   */\n      tag_612\n        /* \"#utility.yul\":20300:20304   */\n      dup2\n        /* \"#utility.yul\":20174:20305   */\n      tag_511\n      jump\t// in\n    tag_612:\n        /* \"#utility.yul\":20166:20305   */\n      swap1\n      pop\n        /* \"#utility.yul\":20064:20312   */\n      swap2\n      swap1\n      pop\n      jump\t// out\n        /* \"#utility.yul\":20318:20737   */\n    tag_168:\n        /* \"#utility.yul\":20484:20488   */\n      0x00\n        /* \"#utility.yul\":20522:20524   */\n      0x20\n        /* \"#utility.yul\":20511:20520   */\n      dup3\n        /* \"#utility.yul\":20507:20525   */\n      add\n        /* \"#utility.yul\":20499:20525   */\n      swap1\n      pop\n        /* \"#utility.yul\":20571:20580   */\n      dup2\n        /* \"#utility.yul\":20565:20569   */\n      dup2\n        /* \"#utility.yul\":20561:20581   */\n      sub\n        /* \"#utility.yul\":20557:20558   */\n      0x00\n        /* \"#utility.yul\":20546:20555   */\n      dup4\n        /* \"#utility.yul\":20542:20559   */\n      add\n        /* \"#utility.yul\":20535:20582   */\n      mstore\n        /* \"#utility.yul\":20599:20730   */\n      tag_614\n        /* \"#utility.yul\":20725:20729   */\n      dup2\n        /* \"#utility.yul\":20599:20730   */\n      tag_556\n      jump\t// in\n    tag_614:\n        /* \"#utility.yul\":20591:20730   */\n      swap1\n      pop\n        /* \"#utility.yul\":20489:20737   */\n      swap2\n      swap1\n      pop\n      jump\t// out\n        /* \"#utility.yul\":20743:21162   */\n    tag_159:\n        /* \"#utility.yul\":20909:20913   */\n      0x00\n        /* \"#utility.yul\":20947:20949   */\n      0x20\n        /* \"#utility.yul\":20936:20945   */\n      dup3\n        /* \"#utility.yul\":20932:20950   */\n      add\n        /* \"#utility.yul\":20924:20950   */\n      swap1\n      pop\n        /* \"#utility.yul\":20996:21005   */\n      dup2\n        /* \"#utility.yul\":20990:20994   */\n      dup2\n        /* \"#utility.yul\":20986:21006   */\n      sub\n        /* \"#utility.yul\":20982:20983   */\n      0x00\n        /* \"#utility.yul\":20971:20980   */\n      dup4\n        /* \"#utility.yul\":20967:20984   */\n      add\n        /* \"#utility.yul\":20960:21007   */\n      mstore\n        /* \"#utility.yul\":21024:21155   */\n      tag_616\n        /* \"#utility.yul\":21150:21154   */\n      dup2\n        /* \"#utility.yul\":21024:21155   */\n      tag_561\n      jump\t// in\n    tag_616:\n        /* \"#utility.yul\":21016:21155   */\n      swap1\n      pop\n        /* \"#utility.yul\":20914:21162   */\n      swap2\n      swap1\n      pop\n      jump\t// out\n        /* \"#utility.yul\":21168:21390   */\n    tag_35:\n        /* \"#utility.yul\":21261:21265   */\n      0x00\n        /* \"#utility.yul\":21299:21301   */\n      0x20\n        /* \"#utility.yul\":21288:21297   */\n      dup3\n        /* \"#utility.yul\":21284:21302   */\n      add\n        /* \"#utility.yul\":21276:21302   */\n      swap1\n      pop\n        /* \"#utility.yul\":21312:21383   */\n      tag_618\n        /* \"#utility.yul\":21380:21381   */\n      0x00\n        /* \"#utility.yul\":21369:21378   */\n      dup4\n        /* \"#utility.yul\":21365:21382   */\n      add\n        /* \"#utility.yul\":21356:21362   */\n      dup5\n        /* \"#utility.yul\":21312:21383   */\n      tag_566\n      jump\t// in\n    tag_618:\n        /* \"#utility.yul\":21266:21390   */\n      swap3\n      swap2\n      pop\n      pop\n      jump\t// out\n        /* \"#utility.yul\":21396:21525   */\n    tag_366:\n        /* \"#utility.yul\":21430:21436   */\n      0x00\n        /* \"#utility.yul\":21457:21477   */\n      tag_620\n      tag_621\n      jump\t// in\n    tag_620:\n        /* \"#utility.yul\":21447:21477   */\n      swap1\n      pop\n        /* \"#utility.yul\":21486:21519   */\n      tag_622\n        /* \"#utility.yul\":21514:21518   */\n      dup3\n        /* \"#utility.yul\":21506:21512   */\n      dup3\n        /* \"#utility.yul\":21486:21519   */\n      tag_623\n      jump\t// in\n    tag_622:\n        /* \"#utility.yul\":21437:21525   */\n      swap2\n      swap1\n      pop\n      jump\t// out\n        /* \"#utility.yul\":21531:21606   */\n    tag_621:\n        /* \"#utility.yul\":21564:21570   */\n      0x00\n        /* \"#utility.yul\":21597:21599   */\n      0x40\n        /* \"#utility.yul\":21591:21600   */\n      mload\n        /* \"#utility.yul\":21581:21600   */\n      swap1\n      pop\n        /* \"#utility.yul\":21571:21606   */\n      swap1\n      jump\t// out\n        /* \"#utility.yul\":21612:21860   */\n    tag_365:\n        /* \"#utility.yul\":21686:21690   */\n      0x00\n        /* \"#utility.yul\":21776:21794   */\n      0xffffffffffffffff\n        /* \"#utility.yul\":21768:21774   */\n      dup3\n        /* \"#utility.yul\":21765:21795   */\n      gt\n        /* \"#utility.yul\":21762:21764   */\n      iszero\n      tag_626\n      jumpi\n        /* \"#utility.yul\":21798:21816   */\n      tag_627\n      tag_628\n      jump\t// in\n    tag_627:\n        /* \"#utility.yul\":21762:21764   */\n    tag_626:\n        /* \"#utility.yul\":21848:21852   */\n      0x20\n        /* \"#utility.yul\":21840:21846   */\n      dup3\n        /* \"#utility.yul\":21836:21853   */\n      mul\n        /* \"#utility.yul\":21828:21853   */\n      swap1\n      pop\n        /* \"#utility.yul\":21691:21860   */\n      swap2\n      swap1\n      pop\n      jump\t// out\n        /* \"#utility.yul\":21866:22176   */\n    tag_379:\n        /* \"#utility.yul\":21942:21946   */\n      0x00\n        /* \"#utility.yul\":22032:22050   */\n      0xffffffffffffffff\n        /* \"#utility.yul\":22024:22030   */\n      dup3\n        /* \"#utility.yul\":22021:22051   */\n      gt\n        /* \"#utility.yul\":22018:22020   */\n      iszero\n      tag_630\n      jumpi\n        /* \"#utility.yul\":22054:22072   */\n      tag_631\n      tag_628\n      jump\t// in\n    tag_631:\n        /* \"#utility.yul\":22018:22020   */\n    tag_630:\n        /* \"#utility.yul\":22104:22108   */\n      0x20\n        /* \"#utility.yul\":22096:22102   */\n      dup3\n        /* \"#utility.yul\":22092:22109   */\n      mul\n        /* \"#utility.yul\":22084:22109   */\n      swap1\n      pop\n        /* \"#utility.yul\":22164:22168   */\n      0x20\n        /* \"#utility.yul\":22158:22162   */\n      dup2\n        /* \"#utility.yul\":22154:22169   */\n      add\n        /* \"#utility.yul\":22146:22169   */\n      swap1\n      pop\n        /* \"#utility.yul\":21947:22176   */\n      swap2\n      swap1\n      pop\n      jump\t// out\n        /* \"#utility.yul\":22182:22441   */\n    tag_390:\n        /* \"#utility.yul\":22267:22271   */\n      0x00\n        /* \"#utility.yul\":22357:22375   */\n      0xffffffffffffffff\n        /* \"#utility.yul\":22349:22355   */\n      dup3\n        /* \"#utility.yul\":22346:22376   */\n      gt\n        /* \"#utility.yul\":22343:22345   */\n      iszero\n      tag_633\n      jumpi\n        /* \"#utility.yul\":22379:22397   */\n      tag_634\n      tag_628\n      jump\t// in\n    tag_634:\n        /* \"#utility.yul\":22343:22345   */\n    tag_633:\n        /* \"#utility.yul\":22429:22433   */\n      0x20\n        /* \"#utility.yul\":22421:22427   */\n      dup3\n        /* \"#utility.yul\":22417:22434   */\n      mul\n        /* \"#utility.yul\":22409:22434   */\n      swap1\n      pop\n        /* \"#utility.yul\":22272:22441   */\n      swap2\n      swap1\n      pop\n      jump\t// out\n        /* \"#utility.yul\":22447:22755   */\n    tag_405:\n        /* \"#utility.yul\":22509:22513   */\n      0x00\n        /* \"#utility.yul\":22599:22617   */\n      0xffffffffffffffff\n        /* \"#utility.yul\":22591:22597   */\n      dup3\n        /* \"#utility.yul\":22588:22618   */\n      gt\n        /* \"#utility.yul\":22585:22587   */\n      iszero\n      tag_636\n      jumpi\n        /* \"#utility.yul\":22621:22639   */\n      tag_637\n      tag_628\n      jump\t// in\n    tag_637:\n        /* \"#utility.yul\":22585:22587   */\n    tag_636:\n        /* \"#utility.yul\":22659:22688   */\n      tag_638\n        /* \"#utility.yul\":22681:22687   */\n      dup3\n        /* \"#utility.yul\":22659:22688   */\n      tag_504\n      jump\t// in\n    tag_638:\n        /* \"#utility.yul\":22651:22688   */\n      swap1\n      pop\n        /* \"#utility.yul\":22743:22747   */\n      0x20\n        /* \"#utility.yul\":22737:22741   */\n      dup2\n        /* \"#utility.yul\":22733:22748   */\n      add\n        /* \"#utility.yul\":22725:22748   */\n      swap1\n      pop\n        /* \"#utility.yul\":22514:22755   */\n      swap2\n      swap1\n      pop\n      jump\t// out\n        /* \"#utility.yul\":22761:22860   */\n    tag_498:\n        /* \"#utility.yul\":22813:22819   */\n      0x00\n        /* \"#utility.yul\":22847:22852   */\n      dup2\n        /* \"#utility.yul\":22841:22853   */\n      mload\n        /* \"#utility.yul\":22831:22853   */\n      swap1\n      pop\n        /* \"#utility.yul\":22820:22860   */\n      swap2\n      swap1\n      pop\n      jump\t// out\n        /* \"#utility.yul\":22866:23035   */\n    tag_500:\n        /* \"#utility.yul\":22950:22961   */\n      0x00\n        /* \"#utility.yul\":22984:22990   */\n      dup3\n        /* \"#utility.yul\":22979:22982   */\n      dup3\n        /* \"#utility.yul\":22972:22991   */\n      mstore\n        /* \"#utility.yul\":23024:23028   */\n      0x20\n        /* \"#utility.yul\":23019:23022   */\n      dup3\n        /* \"#utility.yul\":23015:23029   */\n      add\n        /* \"#utility.yul\":23000:23029   */\n      swap1\n      pop\n        /* \"#utility.yul\":22962:23035   */\n      swap3\n      swap2\n      pop\n      pop\n      jump\t// out\n        /* \"#utility.yul\":23041:23189   */\n    tag_509:\n        /* \"#utility.yul\":23143:23154   */\n      0x00\n        /* \"#utility.yul\":23180:23183   */\n      dup2\n        /* \"#utility.yul\":23165:23183   */\n      swap1\n      pop\n        /* \"#utility.yul\":23155:23189   */\n      swap3\n      swap2\n      pop\n      pop\n      jump\t// out\n        /* \"#utility.yul\":23195:23720   */\n    tag_177:\n        /* \"#utility.yul\":23234:23237   */\n      0x00\n        /* \"#utility.yul\":23253:23272   */\n      tag_643\n        /* \"#utility.yul\":23270:23271   */\n      dup3\n        /* \"#utility.yul\":23253:23272   */\n      tag_494\n      jump\t// in\n    tag_643:\n        /* \"#utility.yul\":23248:23272   */\n      swap2\n      pop\n        /* \"#utility.yul\":23286:23305   */\n      tag_644\n        /* \"#utility.yul\":23303:23304   */\n      dup4\n        /* \"#utility.yul\":23286:23305   */\n      tag_494\n      jump\t// in\n    tag_644:\n        /* \"#utility.yul\":23281:23305   */\n      swap3\n      pop\n        /* \"#utility.yul\":23474:23475   */\n      dup2\n        /* \"#utility.yul\":23406:23472   */\n      0x7fffffffffffffffffffffffffffffffffffffffffffffffffffffffffffffff\n        /* \"#utility.yul\":23402:23476   */\n      sub\n        /* \"#utility.yul\":23399:23400   */\n      dup4\n        /* \"#utility.yul\":23395:23477   */\n      sgt\n        /* \"#utility.yul\":23390:23391   */\n      0x00\n        /* \"#utility.yul\":23387:23388   */\n      dup4\n        /* \"#utility.yul\":23383:23392   */\n      slt\n        /* \"#utility.yul\":23376:23393   */\n      iszero\n        /* \"#utility.yul\":23372:23478   */\n      and\n        /* \"#utility.yul\":23369:23371   */\n      iszero\n      tag_645\n      jumpi\n        /* \"#utility.yul\":23481:23499   */\n      tag_646\n      tag_647\n      jump\t// in\n    tag_646:\n        /* \"#utility.yul\":23369:23371   */\n    tag_645:\n        /* \"#utility.yul\":23661:23662   */\n      dup2\n        /* \"#utility.yul\":23593:23659   */\n      0x8000000000000000000000000000000000000000000000000000000000000000\n        /* \"#utility.yul\":23589:23663   */\n      sub\n        /* \"#utility.yul\":23586:23587   */\n      dup4\n        /* \"#utility.yul\":23582:23664   */\n      slt\n        /* \"#utility.yul\":23578:23579   */\n      0x00\n        /* \"#utility.yul\":23575:23576   */\n      dup4\n        /* \"#utility.yul\":23571:23580   */\n      slt\n        /* \"#utility.yul\":23567:23665   */\n      and\n        /* \"#utility.yul\":23564:23566   */\n      iszero\n      tag_648\n      jumpi\n        /* \"#utility.yul\":23668:23686   */\n      tag_649\n      tag_647\n      jump\t// in\n    tag_649:\n        /* \"#utility.yul\":23564:23566   */\n    tag_648:\n        /* \"#utility.yul\":23712:23713   */\n      dup3\n        /* \"#utility.yul\":23709:23710   */\n      dup3\n        /* \"#utility.yul\":23705:23714   */\n      add\n        /* \"#utility.yul\":23698:23714   */\n      swap1\n      pop\n        /* \"#utility.yul\":23238:23720   */\n      swap3\n      swap2\n      pop\n      pop\n      jump\t// out\n        /* \"#utility.yul\":23726:24031   */\n    tag_237:\n        /* \"#utility.yul\":23766:23769   */\n      0x00\n        /* \"#utility.yul\":23785:23805   */\n      tag_651\n        /* \"#utility.yul\":23803:23804   */\n      dup3\n        /* \"#utility.yul\":23785:23805   */\n      tag_569\n      jump\t// in\n    tag_651:\n        /* \"#utility.yul\":23780:23805   */\n      swap2\n      pop\n        /* \"#utility.yul\":23819:23839   */\n      tag_652\n        /* \"#utility.yul\":23837:23838   */\n      dup4\n        /* \"#utility.yul\":23819:23839   */\n      tag_569\n      jump\t// in\n    tag_652:\n        /* \"#utility.yul\":23814:23839   */\n      swap3\n      pop\n        /* \"#utility.yul\":23973:23974   */\n      dup3\n        /* \"#utility.yul\":23905:23971   */\n      0xffffffffffffffffffffffffffffffffffffffffffffffffffffffffffffffff\n        /* \"#utility.yul\":23901:23975   */\n      sub\n        /* \"#utility.yul\":23898:23899   */\n      dup3\n        /* \"#utility.yul\":23895:23976   */\n      gt\n        /* \"#utility.yul\":23892:23894   */\n      iszero\n      tag_653\n      jumpi\n        /* \"#utility.yul\":23979:23997   */\n      tag_654\n      tag_647\n      jump\t// in\n    tag_654:\n        /* \"#utility.yul\":23892:23894   */\n    tag_653:\n        /* \"#utility.yul\":24023:24024   */\n      dup3\n        /* \"#utility.yul\":24020:24021   */\n      dup3\n        /* \"#utility.yul\":24016:24025   */\n      add\n        /* \"#utility.yul\":24009:24025   */\n      swap1\n      pop\n        /* \"#utility.yul\":23770:24031   */\n      swap3\n      swap2\n      pop\n      pop\n      jump\t// out\n        /* \"#utility.yul\":24037:24422   */\n    tag_296:\n        /* \"#utility.yul\":24076:24077   */\n      0x00\n        /* \"#utility.yul\":24093:24112   */\n      tag_656\n        /* \"#utility.yul\":24110:24111   */\n      dup3\n        /* \"#utility.yul\":24093:24112   */\n      tag_494\n      jump\t// in\n    tag_656:\n        /* \"#utility.yul\":24088:24112   */\n      swap2\n      pop\n        /* \"#utility.yul\":24126:24145   */\n      tag_657\n        /* \"#utility.yul\":24143:24144   */\n      dup4\n        /* \"#utility.yul\":24126:24145   */\n      tag_494\n      jump\t// in\n    tag_657:\n        /* \"#utility.yul\":24121:24145   */\n      swap3\n      pop\n        /* \"#utility.yul\":24164:24165   */\n      dup3\n        /* \"#utility.yul\":24154:24156   */\n      tag_658\n      jumpi\n        /* \"#utility.yul\":24169:24187   */\n      tag_659\n      tag_660\n      jump\t// in\n    tag_659:\n        /* \"#utility.yul\":24154:24156   */\n    tag_658:\n        /* \"#utility.yul\":24355:24356   */\n      0x01\n        /* \"#utility.yul\":24352:24353   */\n      0x00\n        /* \"#utility.yul\":24348:24357   */\n      sub\n        /* \"#utility.yul\":24345:24346   */\n      dup4\n        /* \"#utility.yul\":24342:24358   */\n      eq\n        /* \"#utility.yul\":24261:24327   */\n      0x8000000000000000000000000000000000000000000000000000000000000000\n        /* \"#utility.yul\":24258:24259   */\n      dup4\n        /* \"#utility.yul\":24255:24328   */\n      eq\n        /* \"#utility.yul\":24238:24368   */\n      and\n        /* \"#utility.yul\":24235:24237   */\n      iszero\n      tag_661\n      jumpi\n        /* \"#utility.yul\":24371:24389   */\n      tag_662\n      tag_647\n      jump\t// in\n    tag_662:\n        /* \"#utility.yul\":24235:24237   */\n    tag_661:\n        /* \"#utility.yul\":24414:24415   */\n      dup3\n        /* \"#utility.yul\":24411:24412   */\n      dup3\n        /* \"#utility.yul\":24406:24416   */\n      sdiv\n        /* \"#utility.yul\":24401:24416   */\n      swap1\n      pop\n        /* \"#utility.yul\":24078:24422   */\n      swap3\n      swap2\n      pop\n      pop\n      jump\t// out\n        /* \"#utility.yul\":24428:24776   */\n    tag_311:\n        /* \"#utility.yul\":24468:24475   */\n      0x00\n        /* \"#utility.yul\":24491:24511   */\n      tag_664\n        /* \"#utility.yul\":24509:24510   */\n      dup3\n        /* \"#utility.yul\":24491:24511   */\n      tag_569\n      jump\t// in\n    tag_664:\n        /* \"#utility.yul\":24486:24511   */\n      swap2\n      pop\n        /* \"#utility.yul\":24525:24545   */\n      tag_665\n        /* \"#utility.yul\":24543:24544   */\n      dup4\n        /* \"#utility.yul\":24525:24545   */\n      tag_569\n      jump\t// in\n    tag_665:\n        /* \"#utility.yul\":24520:24545   */\n      swap3\n      pop\n        /* \"#utility.yul\":24713:24714   */\n      dup2\n        /* \"#utility.yul\":24645:24711   */\n      0xffffffffffffffffffffffffffffffffffffffffffffffffffffffffffffffff\n        /* \"#utility.yul\":24641:24715   */\n      div\n        /* \"#utility.yul\":24638:24639   */\n      dup4\n        /* \"#utility.yul\":24635:24716   */\n      gt\n        /* \"#utility.yul\":24630:24631   */\n      dup3\n        /* \"#utility.yul\":24623:24632   */\n      iszero\n        /* \"#utility.yul\":24616:24633   */\n      iszero\n        /* \"#utility.yul\":24612:24717   */\n      and\n        /* \"#utility.yul\":24609:24611   */\n      iszero\n      tag_666\n      jumpi\n        /* \"#utility.yul\":24720:24738   */\n      tag_667\n      tag_647\n      jump\t// in\n    tag_667:\n        /* \"#utility.yul\":24609:24611   */\n    tag_666:\n        /* \"#utility.yul\":24768:24769   */\n      dup3\n        /* \"#utility.yul\":24765:24766   */\n      dup3\n        /* \"#utility.yul\":24761:24770   */\n      mul\n        /* \"#utility.yul\":24750:24770   */\n      swap1\n      pop\n        /* \"#utility.yul\":24476:24776   */\n      swap3\n      swap2\n      pop\n      pop\n      jump\t// out\n        /* \"#utility.yul\":24782:24878   */\n    tag_482:\n        /* \"#utility.yul\":24819:24826   */\n      0x00\n        /* \"#utility.yul\":24848:24872   */\n      tag_669\n        /* \"#utility.yul\":24866:24871   */\n      dup3\n        /* \"#utility.yul\":24848:24872   */\n      tag_670\n      jump\t// in\n    tag_669:\n        /* \"#utility.yul\":24837:24872   */\n      swap1\n      pop\n        /* \"#utility.yul\":24827:24878   */\n      swap2\n      swap1\n      pop\n      jump\t// out\n        /* \"#utility.yul\":24884:24988   */\n    tag_478:\n        /* \"#utility.yul\":24929:24936   */\n      0x00\n        /* \"#utility.yul\":24958:24982   */\n      tag_672\n        /* \"#utility.yul\":24976:24981   */\n      dup3\n        /* \"#utility.yul\":24958:24982   */\n      tag_670\n      jump\t// in\n    tag_672:\n        /* \"#utility.yul\":24947:24982   */\n      swap1\n      pop\n        /* \"#utility.yul\":24937:24988   */\n      swap2\n      swap1\n      pop\n      jump\t// out\n        /* \"#utility.yul\":24994:25084   */\n    tag_486:\n        /* \"#utility.yul\":25028:25035   */\n      0x00\n        /* \"#utility.yul\":25071:25076   */\n      dup2\n        /* \"#utility.yul\":25064:25077   */\n      iszero\n        /* \"#utility.yul\":25057:25078   */\n      iszero\n        /* \"#utility.yul\":25046:25078   */\n      swap1\n      pop\n        /* \"#utility.yul\":25036:25084   */\n      swap2\n      swap1\n      pop\n      jump\t// out\n        /* \"#utility.yul\":25090:25219   */\n    tag_674:\n        /* \"#utility.yul\":25136:25143   */\n      0x00\n        /* \"#utility.yul\":25165:25170   */\n      dup2\n        /* \"#utility.yul\":25154:25170   */\n      swap1\n      pop\n        /* \"#utility.yul\":25171:25213   */\n      tag_676\n        /* \"#utility.yul\":25207:25212   */\n      dup3\n        /* \"#utility.yul\":25171:25213   */\n      tag_677\n      jump\t// in\n    tag_676:\n        /* \"#utility.yul\":25144:25219   */\n      swap2\n      swap1\n      pop\n      jump\t// out\n        /* \"#utility.yul\":25225:25301   */\n    tag_494:\n        /* \"#utility.yul\":25261:25268   */\n      0x00\n        /* \"#utility.yul\":25290:25295   */\n      dup2\n        /* \"#utility.yul\":25279:25295   */\n      swap1\n      pop\n        /* \"#utility.yul\":25269:25301   */\n      swap2\n      swap1\n      pop\n      jump\t// out\n        /* \"#utility.yul\":25307:25433   */\n    tag_670:\n        /* \"#utility.yul\":25344:25351   */\n      0x00\n        /* \"#utility.yul\":25384:25426   */\n      0xffffffffffffffffffffffffffffffffffffffff\n        /* \"#utility.yul\":25377:25382   */\n      dup3\n        /* \"#utility.yul\":25373:25427   */\n      and\n        /* \"#utility.yul\":25362:25427   */\n      swap1\n      pop\n        /* \"#utility.yul\":25352:25433   */\n      swap2\n      swap1\n      pop\n      jump\t// out\n        /* \"#utility.yul\":25439:25516   */\n    tag_569:\n        /* \"#utility.yul\":25476:25483   */\n      0x00\n        /* \"#utility.yul\":25505:25510   */\n      dup2\n        /* \"#utility.yul\":25494:25510   */\n      swap1\n      pop\n        /* \"#utility.yul\":25484:25516   */\n      swap2\n      swap1\n      pop\n      jump\t// out\n        /* \"#utility.yul\":25522:25651   */\n    tag_490:\n        /* \"#utility.yul\":25579:25588   */\n      0x00\n        /* \"#utility.yul\":25612:25645   */\n      tag_682\n        /* \"#utility.yul\":25639:25644   */\n      dup3\n        /* \"#utility.yul\":25612:25645   */\n      tag_674\n      jump\t// in\n    tag_682:\n        /* \"#utility.yul\":25599:25645   */\n      swap1\n      pop\n        /* \"#utility.yul\":25589:25651   */\n      swap2\n      swap1\n      pop\n      jump\t// out\n        /* \"#utility.yul\":25657:25811   */\n    tag_410:\n        /* \"#utility.yul\":25741:25747   */\n      dup3\n        /* \"#utility.yul\":25736:25739   */\n      dup2\n        /* \"#utility.yul\":25731:25734   */\n      dup4\n        /* \"#utility.yul\":25718:25748   */\n      calldatacopy\n        /* \"#utility.yul\":25803:25804   */\n      0x00\n        /* \"#utility.yul\":25794:25800   */\n      dup4\n        /* \"#utility.yul\":25789:25792   */\n      dup4\n        /* \"#utility.yul\":25785:25801   */\n      add\n        /* \"#utility.yul\":25778:25805   */\n      mstore\n        /* \"#utility.yul\":25708:25811   */\n      pop\n      pop\n      pop\n      jump\t// out\n        /* \"#utility.yul\":25817:26124   */\n    tag_502:\n        /* \"#utility.yul\":25885:25886   */\n      0x00\n        /* \"#utility.yul\":25895:26008   */\n    tag_685:\n        /* \"#utility.yul\":25909:25915   */\n      dup4\n        /* \"#utility.yul\":25906:25907   */\n      dup2\n        /* \"#utility.yul\":25903:25916   */\n      lt\n        /* \"#utility.yul\":25895:26008   */\n      iszero\n      tag_687\n      jumpi\n        /* \"#utility.yul\":25994:25995   */\n      dup1\n        /* \"#utility.yul\":25989:25992   */\n      dup3\n        /* \"#utility.yul\":25985:25996   */\n      add\n        /* \"#utility.yul\":25979:25997   */\n      mload\n        /* \"#utility.yul\":25975:25976   */\n      dup2\n        /* \"#utility.yul\":25970:25973   */\n      dup5\n        /* \"#utility.yul\":25966:25977   */\n      add\n        /* \"#utility.yul\":25959:25998   */\n      mstore\n        /* \"#utility.yul\":25931:25933   */\n      0x20\n        /* \"#utility.yul\":25928:25929   */\n      dup2\n        /* \"#utility.yul\":25924:25934   */\n      add\n        /* \"#utility.yul\":25919:25934   */\n      swap1\n      pop\n        /* \"#utility.yul\":25895:26008   */\n      jump(tag_685)\n    tag_687:\n        /* \"#utility.yul\":26026:26032   */\n      dup4\n        /* \"#utility.yul\":26023:26024   */\n      dup2\n        /* \"#utility.yul\":26020:26033   */\n      gt\n        /* \"#utility.yul\":26017:26019   */\n      iszero\n      tag_688\n      jumpi\n        /* \"#utility.yul\":26106:26107   */\n      0x00\n        /* \"#utility.yul\":26097:26103   */\n      dup5\n        /* \"#utility.yul\":26092:26095   */\n      dup5\n        /* \"#utility.yul\":26088:26104   */\n      add\n        /* \"#utility.yul\":26081:26108   */\n      mstore\n        /* \"#utility.yul\":26017:26019   */\n    tag_688:\n        /* \"#utility.yul\":25866:26124   */\n      pop\n      pop\n      pop\n      pop\n      jump\t// out\n        /* \"#utility.yul\":26130:26450   */\n    tag_147:\n        /* \"#utility.yul\":26174:26180   */\n      0x00\n        /* \"#utility.yul\":26211:26212   */\n      0x02\n        /* \"#utility.yul\":26205:26209   */\n      dup3\n        /* \"#utility.yul\":26201:26213   */\n      div\n        /* \"#utility.yul\":26191:26213   */\n      swap1\n      pop\n        /* \"#utility.yul\":26258:26259   */\n      0x01\n        /* \"#utility.yul\":26252:26256   */\n      dup3\n        /* \"#utility.yul\":26248:26260   */\n      and\n        /* \"#utility.yul\":26279:26297   */\n      dup1\n        /* \"#utility.yul\":26269:26271   */\n      tag_690\n      jumpi\n        /* \"#utility.yul\":26335:26339   */\n      0x7f\n        /* \"#utility.yul\":26327:26333   */\n      dup3\n        /* \"#utility.yul\":26323:26340   */\n      and\n        /* \"#utility.yul\":26313:26340   */\n      swap2\n      pop\n        /* \"#utility.yul\":26269:26271   */\n    tag_690:\n        /* \"#utility.yul\":26397:26399   */\n      0x20\n        /* \"#utility.yul\":26389:26395   */\n      dup3\n        /* \"#utility.yul\":26386:26400   */\n      lt\n        /* \"#utility.yul\":26366:26384   */\n      dup2\n        /* \"#utility.yul\":26363:26401   */\n      eq\n        /* \"#utility.yul\":26360:26362   */\n      iszero\n      tag_691\n      jumpi\n        /* \"#utility.yul\":26416:26434   */\n      tag_692\n      tag_693\n      jump\t// in\n    tag_692:\n        /* \"#utility.yul\":26360:26362   */\n    tag_691:\n        /* \"#utility.yul\":26181:26450   */\n      pop\n      swap2\n      swap1\n      pop\n      jump\t// out\n        /* \"#utility.yul\":26456:26737   */\n    tag_623:\n        /* \"#utility.yul\":26539:26566   */\n      tag_695\n        /* \"#utility.yul\":26561:26565   */\n      dup3\n        /* \"#utility.yul\":26539:26566   */\n      tag_504\n      jump\t// in\n    tag_695:\n        /* \"#utility.yul\":26531:26537   */\n      dup2\n        /* \"#utility.yul\":26527:26567   */\n      add\n        /* \"#utility.yul\":26669:26675   */\n      dup2\n        /* \"#utility.yul\":26657:26667   */\n      dup2\n        /* \"#utility.yul\":26654:26676   */\n      lt\n        /* \"#utility.yul\":26633:26651   */\n      0xffffffffffffffff\n        /* \"#utility.yul\":26621:26631   */\n      dup3\n        /* \"#utility.yul\":26618:26652   */\n      gt\n        /* \"#utility.yul\":26615:26677   */\n      or\n        /* \"#utility.yul\":26612:26614   */\n      iszero\n      tag_696\n      jumpi\n        /* \"#utility.yul\":26680:26698   */\n      tag_697\n      tag_628\n      jump\t// in\n    tag_697:\n        /* \"#utility.yul\":26612:26614   */\n    tag_696:\n        /* \"#utility.yul\":26720:26730   */\n      dup1\n        /* \"#utility.yul\":26716:26718   */\n      0x40\n        /* \"#utility.yul\":26709:26731   */\n      mstore\n        /* \"#utility.yul\":26499:26737   */\n      pop\n      pop\n      pop\n      jump\t// out\n        /* \"#utility.yul\":26743:26974   */\n    tag_181:\n        /* \"#utility.yul\":26781:26784   */\n      0x00\n        /* \"#utility.yul\":26804:26827   */\n      tag_699\n        /* \"#utility.yul\":26821:26826   */\n      dup3\n        /* \"#utility.yul\":26804:26827   */\n      tag_494\n      jump\t// in\n    tag_699:\n        /* \"#utility.yul\":26795:26827   */\n      swap2\n      pop\n        /* \"#utility.yul\":26849:26915   */\n      0x7fffffffffffffffffffffffffffffffffffffffffffffffffffffffffffffff\n        /* \"#utility.yul\":26842:26847   */\n      dup3\n        /* \"#utility.yul\":26839:26916   */\n      eq\n        /* \"#utility.yul\":26836:26838   */\n      iszero\n      tag_700\n      jumpi\n        /* \"#utility.yul\":26919:26937   */\n      tag_701\n      tag_647\n      jump\t// in\n    tag_701:\n        /* \"#utility.yul\":26836:26838   */\n    tag_700:\n        /* \"#utility.yul\":26966:26967   */\n      0x01\n        /* \"#utility.yul\":26959:26964   */\n      dup3\n        /* \"#utility.yul\":26955:26968   */\n      add\n        /* \"#utility.yul\":26948:26968   */\n      swap1\n      pop\n        /* \"#utility.yul\":26785:26974   */\n      swap2\n      swap1\n      pop\n      jump\t// out\n        /* \"#utility.yul\":26980:27213   */\n    tag_179:\n        /* \"#utility.yul\":27019:27022   */\n      0x00\n        /* \"#utility.yul\":27042:27066   */\n      tag_703\n        /* \"#utility.yul\":27060:27065   */\n      dup3\n        /* \"#utility.yul\":27042:27066   */\n      tag_569\n      jump\t// in\n    tag_703:\n        /* \"#utility.yul\":27033:27066   */\n      swap2\n      pop\n        /* \"#utility.yul\":27088:27154   */\n      0xffffffffffffffffffffffffffffffffffffffffffffffffffffffffffffffff\n        /* \"#utility.yul\":27081:27086   */\n      dup3\n        /* \"#utility.yul\":27078:27155   */\n      eq\n        /* \"#utility.yul\":27075:27077   */\n      iszero\n      tag_704\n      jumpi\n        /* \"#utility.yul\":27158:27176   */\n      tag_705\n      tag_647\n      jump\t// in\n    tag_705:\n        /* \"#utility.yul\":27075:27077   */\n    tag_704:\n        /* \"#utility.yul\":27205:27206   */\n      0x01\n        /* \"#utility.yul\":27198:27203   */\n      dup3\n        /* \"#utility.yul\":27194:27207   */\n      add\n        /* \"#utility.yul\":27187:27207   */\n      swap1\n      pop\n        /* \"#utility.yul\":27023:27213   */\n      swap2\n      swap1\n      pop\n      jump\t// out\n        /* \"#utility.yul\":27219:27399   */\n    tag_647:\n        /* \"#utility.yul\":27267:27344   */\n      0x4e487b7100000000000000000000000000000000000000000000000000000000\n        /* \"#utility.yul\":27264:27265   */\n      0x00\n        /* \"#utility.yul\":27257:27345   */\n      mstore\n        /* \"#utility.yul\":27364:27368   */\n      0x11\n        /* \"#utility.yul\":27361:27362   */\n      0x04\n        /* \"#utility.yul\":27354:27369   */\n      mstore\n        /* \"#utility.yul\":27388:27392   */\n      0x24\n        /* \"#utility.yul\":27385:27386   */\n      0x00\n        /* \"#utility.yul\":27378:27393   */\n      revert\n        /* \"#utility.yul\":27405:27585   */\n    tag_660:\n        /* \"#utility.yul\":27453:27530   */\n      0x4e487b7100000000000000000000000000000000000000000000000000000000\n        /* \"#utility.yul\":27450:27451   */\n      0x00\n        /* \"#utility.yul\":27443:27531   */\n      mstore\n        /* \"#utility.yul\":27550:27554   */\n      0x12\n        /* \"#utility.yul\":27547:27548   */\n      0x04\n        /* \"#utility.yul\":27540:27555   */\n      mstore\n        /* \"#utility.yul\":27574:27578   */\n      0x24\n        /* \"#utility.yul\":27571:27572   */\n      0x00\n        /* \"#utility.yul\":27564:27579   */\n      revert\n        /* \"#utility.yul\":27591:27771   */\n    tag_143:\n        /* \"#utility.yul\":27639:27716   */\n      0x4e487b7100000000000000000000000000000000000000000000000000000000\n        /* \"#utility.yul\":27636:27637   */\n      0x00\n        /* \"#utility.yul\":27629:27717   */\n      mstore\n        /* \"#utility.yul\":27736:27740   */\n      0x21\n        /* \"#utility.yul\":27733:27734   */\n      0x04\n        /* \"#utility.yul\":27726:27741   */\n      mstore\n        /* \"#utility.yul\":27760:27764   */\n      0x24\n        /* \"#utility.yul\":27757:27758   */\n      0x00\n        /* \"#utility.yul\":27750:27765   */\n      revert\n        /* \"#utility.yul\":27777:27957   */\n    tag_693:\n        /* \"#utility.yul\":27825:27902   */\n      0x4e487b7100000000000000000000000000000000000000000000000000000000\n        /* \"#utility.yul\":27822:27823   */\n      0x00\n        /* \"#utility.yul\":27815:27903   */\n      mstore\n        /* \"#utility.yul\":27922:27926   */\n      0x22\n        /* \"#utility.yul\":27919:27920   */\n      0x04\n        /* \"#utility.yul\":27912:27927   */\n      mstore\n        /* \"#utility.yul\":27946:27950   */\n      0x24\n        /* \"#utility.yul\":27943:27944   */\n      0x00\n        /* \"#utility.yul\":27936:27951   */\n      revert\n        /* \"#utility.yul\":27963:28143   */\n    tag_175:\n        /* \"#utility.yul\":28011:28088   */\n      0x4e487b7100000000000000000000000000000000000000000000000000000000\n        /* \"#utility.yul\":28008:28009   */\n      0x00\n        /* \"#utility.yul\":28001:28089   */\n      mstore\n        /* \"#utility.yul\":28108:28112   */\n      0x32\n        /* \"#utility.yul\":28105:28106   */\n      0x04\n        /* \"#utility.yul\":28098:28113   */\n      mstore\n        /* \"#utility.yul\":28132:28136   */\n      0x24\n        /* \"#utility.yul\":28129:28130   */\n      0x00\n        /* \"#utility.yul\":28122:28137   */\n      revert\n        /* \"#utility.yul\":28149:28329   */\n    tag_628:\n        /* \"#utility.yul\":28197:28274   */\n      0x4e487b7100000000000000000000000000000000000000000000000000000000\n        /* \"#utility.yul\":28194:28195   */\n      0x00\n        /* \"#utility.yul\":28187:28275   */\n      mstore\n        /* \"#utility.yul\":28294:28298   */\n      0x41\n        /* \"#utility.yul\":28291:28292   */\n      0x04\n        /* \"#utility.yul\":28284:28299   */\n      mstore\n        /* \"#utility.yul\":28318:28322   */\n      0x24\n        /* \"#utility.yul\":28315:28316   */\n      0x00\n        /* \"#utility.yul\":28308:28323   */\n      revert\n        /* \"#utility.yul\":28335:28452   */\n    tag_398:\n        /* \"#utility.yul\":28444:28445   */\n      0x00\n        /* \"#utility.yul\":28441:28442   */\n      dup1\n        /* \"#utility.yul\":28434:28446   */\n      revert\n        /* \"#utility.yul\":28458:28575   */\n    tag_369:\n        /* \"#utility.yul\":28567:28568   */\n      0x00\n        /* \"#utility.yul\":28564:28565   */\n      dup1\n        /* \"#utility.yul\":28557:28569   */\n      revert\n        /* \"#utility.yul\":28581:28698   */\n    tag_408:\n        /* \"#utility.yul\":28690:28691   */\n      0x00\n        /* \"#utility.yul\":28687:28688   */\n      dup1\n        /* \"#utility.yul\":28680:28692   */\n      revert\n        /* \"#utility.yul\":28704:28821   */\n    tag_459:\n        /* \"#utility.yul\":28813:28814   */\n      0x00\n        /* \"#utility.yul\":28810:28811   */\n      dup1\n        /* \"#utility.yul\":28803:28815   */\n      revert\n        /* \"#utility.yul\":28827:28944   */\n    tag_444:\n        /* \"#utility.yul\":28936:28937   */\n      0x00\n        /* \"#utility.yul\":28933:28934   */\n      dup1\n        /* \"#utility.yul\":28926:28938   */\n      revert\n        /* \"#utility.yul\":28950:29052   */\n    tag_504:\n        /* \"#utility.yul\":28991:28997   */\n      0x00\n        /* \"#utility.yul\":29042:29044   */\n      0x1f\n        /* \"#utility.yul\":29038:29045   */\n      not\n        /* \"#utility.yul\":29033:29035   */\n      0x1f\n        /* \"#utility.yul\":29026:29031   */\n      dup4\n        /* \"#utility.yul\":29022:29036   */\n      add\n        /* \"#utility.yul\":29018:29046   */\n      and\n        /* \"#utility.yul\":29008:29046   */\n      swap1\n      pop\n        /* \"#utility.yul\":28998:29052   */\n      swap2\n      swap1\n      pop\n      jump\t// out\n        /* \"#utility.yul\":29058:29299   */\n    tag_515:\n        /* \"#utility.yul\":29198:29232   */\n      0x43616e6e6f742063616c6c20746869732066756e6374696f6e20646972656374\n        /* \"#utility.yul\":29194:29195   */\n      0x00\n        /* \"#utility.yul\":29186:29192   */\n      dup3\n        /* \"#utility.yul\":29182:29196   */\n      add\n        /* \"#utility.yul\":29175:29233   */\n      mstore\n        /* \"#utility.yul\":29267:29291   */\n      0x6c792c207573652056656e646f72466163746f72792e00000000000000000000\n        /* \"#utility.yul\":29262:29264   */\n      0x20\n        /* \"#utility.yul\":29254:29260   */\n      dup3\n        /* \"#utility.yul\":29250:29265   */\n      add\n        /* \"#utility.yul\":29243:29292   */\n      mstore\n        /* \"#utility.yul\":29164:29299   */\n      pop\n      jump\t// out\n        /* \"#utility.yul\":29305:29473   */\n    tag_520:\n        /* \"#utility.yul\":29445:29465   */\n      0x526566756e64696e67207061796d656e742e0000000000000000000000000000\n        /* \"#utility.yul\":29441:29442   */\n      0x00\n        /* \"#utility.yul\":29433:29439   */\n      dup3\n        /* \"#utility.yul\":29429:29443   */\n      add\n        /* \"#utility.yul\":29422:29466   */\n      mstore\n        /* \"#utility.yul\":29411:29473   */\n      pop\n      jump\t// out\n        /* \"#utility.yul\":29479:29645   */\n    tag_525:\n        /* \"#utility.yul\":29619:29637   */\n      0x53656e64696e67207061796d656e742e00000000000000000000000000000000\n        /* \"#utility.yul\":29615:29616   */\n      0x00\n        /* \"#utility.yul\":29607:29613   */\n      dup3\n        /* \"#utility.yul\":29603:29617   */\n      add\n        /* \"#utility.yul\":29596:29638   */\n      mstore\n        /* \"#utility.yul\":29585:29645   */\n      pop\n      jump\t// out\n        /* \"#utility.yul\":29651:29803   */\n    tag_530:\n        /* \"#utility.yul\":29791:29795   */\n      0x3d3d000000000000000000000000000000000000000000000000000000000000\n        /* \"#utility.yul\":29787:29788   */\n      0x00\n        /* \"#utility.yul\":29779:29785   */\n      dup3\n        /* \"#utility.yul\":29775:29789   */\n      add\n        /* \"#utility.yul\":29768:29796   */\n      mstore\n        /* \"#utility.yul\":29757:29803   */\n      pop\n      jump\t// out\n        /* \"#utility.yul\":29809:29960   */\n    tag_535:\n        /* \"#utility.yul\":29949:29952   */\n      0x3c00000000000000000000000000000000000000000000000000000000000000\n        /* \"#utility.yul\":29945:29946   */\n      0x00\n        /* \"#utility.yul\":29937:29943   */\n      dup3\n        /* \"#utility.yul\":29933:29947   */\n      add\n        /* \"#utility.yul\":29926:29953   */\n      mstore\n        /* \"#utility.yul\":29915:29960   */\n      pop\n      jump\t// out\n        /* \"#utility.yul\":29966:30118   */\n    tag_540:\n        /* \"#utility.yul\":30106:30110   */\n      0x213d000000000000000000000000000000000000000000000000000000000000\n        /* \"#utility.yul\":30102:30103   */\n      0x00\n        /* \"#utility.yul\":30094:30100   */\n      dup3\n        /* \"#utility.yul\":30090:30104   */\n      add\n        /* \"#utility.yul\":30083:30111   */\n      mstore\n        /* \"#utility.yul\":30072:30118   */\n      pop\n      jump\t// out\n        /* \"#utility.yul\":30124:30276   */\n    tag_545:\n        /* \"#utility.yul\":30264:30268   */\n      0x3d3e000000000000000000000000000000000000000000000000000000000000\n        /* \"#utility.yul\":30260:30261   */\n      0x00\n        /* \"#utility.yul\":30252:30258   */\n      dup3\n        /* \"#utility.yul\":30248:30262   */\n      add\n        /* \"#utility.yul\":30241:30269   */\n      mstore\n        /* \"#utility.yul\":30230:30276   */\n      pop\n      jump\t// out\n        /* \"#utility.yul\":30282:30434   */\n    tag_550:\n        /* \"#utility.yul\":30422:30426   */\n      0x3c3d000000000000000000000000000000000000000000000000000000000000\n        /* \"#utility.yul\":30418:30419   */\n      0x00\n        /* \"#utility.yul\":30410:30416   */\n      dup3\n        /* \"#utility.yul\":30406:30420   */\n      add\n        /* \"#utility.yul\":30399:30427   */\n      mstore\n        /* \"#utility.yul\":30388:30434   */\n      pop\n      jump\t// out\n        /* \"#utility.yul\":30440:30591   */\n    tag_555:\n        /* \"#utility.yul\":30580:30583   */\n      0x3e00000000000000000000000000000000000000000000000000000000000000\n        /* \"#utility.yul\":30576:30577   */\n      0x00\n        /* \"#utility.yul\":30568:30574   */\n      dup3\n        /* \"#utility.yul\":30564:30578   */\n      add\n        /* \"#utility.yul\":30557:30584   */\n      mstore\n        /* \"#utility.yul\":30546:30591   */\n      pop\n      jump\t// out\n        /* \"#utility.yul\":30597:30776   */\n    tag_560:\n        /* \"#utility.yul\":30737:30768   */\n      0x4e6f742077697468696e207468652062696c6c696e6720706572696f64000000\n        /* \"#utility.yul\":30733:30734   */\n      0x00\n        /* \"#utility.yul\":30725:30731   */\n      dup3\n        /* \"#utility.yul\":30721:30735   */\n      add\n        /* \"#utility.yul\":30714:30769   */\n      mstore\n        /* \"#utility.yul\":30703:30776   */\n      pop\n      jump\t// out\n        /* \"#utility.yul\":30782:31006   */\n    tag_565:\n        /* \"#utility.yul\":30922:30956   */\n      0x436f6e7472616374206973206e6f7420696e2074686520726571756972656420\n        /* \"#utility.yul\":30918:30919   */\n      0x00\n        /* \"#utility.yul\":30910:30916   */\n      dup3\n        /* \"#utility.yul\":30906:30920   */\n      add\n        /* \"#utility.yul\":30899:30957   */\n      mstore\n        /* \"#utility.yul\":30991:30998   */\n      0x7374617465000000000000000000000000000000000000000000000000000000\n        /* \"#utility.yul\":30986:30988   */\n      0x20\n        /* \"#utility.yul\":30978:30984   */\n      dup3\n        /* \"#utility.yul\":30974:30989   */\n      add\n        /* \"#utility.yul\":30967:30999   */\n      mstore\n        /* \"#utility.yul\":30888:31006   */\n      pop\n      jump\t// out\n        /* \"#utility.yul\":31012:31126   */\n    tag_677:\n        /* \"#utility.yul\":31094:31095   */\n      0x05\n        /* \"#utility.yul\":31087:31092   */\n      dup2\n        /* \"#utility.yul\":31084:31096   */\n      lt\n        /* \"#utility.yul\":31074:31076   */\n      tag_730\n      jumpi\n        /* \"#utility.yul\":31100:31118   */\n      tag_731\n      tag_143\n      jump\t// in\n    tag_731:\n        /* \"#utility.yul\":31074:31076   */\n    tag_730:\n        /* \"#utility.yul\":31064:31126   */\n      pop\n      jump\t// out\n        /* \"#utility.yul\":31132:31254   */\n    tag_414:\n        /* \"#utility.yul\":31205:31229   */\n      tag_733\n        /* \"#utility.yul\":31223:31228   */\n      dup2\n        /* \"#utility.yul\":31205:31229   */\n      tag_482\n      jump\t// in\n    tag_733:\n        /* \"#utility.yul\":31198:31203   */\n      dup2\n        /* \"#utility.yul\":31195:31230   */\n      eq\n        /* \"#utility.yul\":31185:31187   */\n      tag_734\n      jumpi\n        /* \"#utility.yul\":31244:31245   */\n      0x00\n        /* \"#utility.yul\":31241:31242   */\n      dup1\n        /* \"#utility.yul\":31234:31246   */\n      revert\n        /* \"#utility.yul\":31185:31187   */\n    tag_734:\n        /* \"#utility.yul\":31175:31254   */\n      pop\n      jump\t// out\n        /* \"#utility.yul\":31260:31380   */\n    tag_432:\n        /* \"#utility.yul\":31332:31355   */\n      tag_736\n        /* \"#utility.yul\":31349:31354   */\n      dup2\n        /* \"#utility.yul\":31332:31355   */\n      tag_494\n      jump\t// in\n    tag_736:\n        /* \"#utility.yul\":31325:31330   */\n      dup2\n        /* \"#utility.yul\":31322:31356   */\n      eq\n        /* \"#utility.yul\":31312:31314   */\n      tag_737\n      jumpi\n        /* \"#utility.yul\":31370:31371   */\n      0x00\n        /* \"#utility.yul\":31367:31368   */\n      dup1\n        /* \"#utility.yul\":31360:31372   */\n      revert\n        /* \"#utility.yul\":31312:31314   */\n    tag_737:\n        /* \"#utility.yul\":31302:31380   */\n      pop\n      jump\t// out\n        /* \"#utility.yul\":31386:31508   */\n    tag_440:\n        /* \"#utility.yul\":31459:31483   */\n      tag_739\n        /* \"#utility.yul\":31477:31482   */\n      dup2\n        /* \"#utility.yul\":31459:31483   */\n      tag_569\n      jump\t// in\n    tag_739:\n        /* \"#utility.yul\":31452:31457   */\n      dup2\n        /* \"#utility.yul\":31449:31484   */\n      eq\n        /* \"#utility.yul\":31439:31441   */\n      tag_740\n      jumpi\n        /* \"#utility.yul\":31498:31499   */\n      0x00\n        /* \"#utility.yul\":31495:31496   */\n      dup1\n        /* \"#utility.yul\":31488:31500   */\n      revert\n        /* \"#utility.yul\":31439:31441   */\n    tag_740:\n        /* \"#utility.yul\":31429:31508   */\n      pop\n      jump\t// out\n\n    auxdata: 0xa26469706673582212209dff73b6c4d0872a8b2f392a1fe57268e4f1bdfdf044a631e5baf5fac20837b164736f6c63430008060033\n}\n",
    "bytecode": {
      "linkReferences": {},
      "object": "60806040526000600960006101000a81548160ff0219169083600481111561002a5761002961005c565b5b02179055506000600960016101000a81548160ff02191690831515021790555034801561005657600080fd5b5061008b565b7f4e487b7100000000000000000000000000000000000000000000000000000000600052602160045260246000fd5b612702806200009b6000396000f3fe6080604052600436106101665760003560e01c806383197ef0116100d1578063aa8c217c1161008a578063f1b9ee2411610064578063f1b9ee241461048f578063f851a440146104a6578063fadeaa59146104d1578063fbbf93a0146104fa57610166565b8063aa8c217c1461040e578063ae90b21314610439578063c040e6b81461046457610166565b806383197ef01461035757806384ac44461461036e578063904c6094146103785780639503fe3d146103a357806397c0bba1146103ba5780639a730617146103e557610166565b80633a40f3b2116101235780633a40f3b21461026b578063410459ad1461029657806343885314146102bf578063516dde43146102ea578063722713f714610315578063760a8c2a1461034057610166565b80630b97bc861461016b578063109e94cf1461019657806312424e3f146101c1578063182541d2146101d857806321ce5afd1461021757806325419c2414610240575b600080fd5b34801561017757600080fd5b5061018061052c565b60405161018d9190611ea2565b60405180910390f35b3480156101a257600080fd5b506101ab610532565b6040516101b89190611cd9565b60405180910390f35b3480156101cd57600080fd5b506101d6610558565b005b3480156101e457600080fd5b506101ff60048036038101906101fa91906119b7565b61062e565b60405161020e93929190611e04565b60405180910390f35b34801561022357600080fd5b5061023e600480360381019061023991906118e1565b6106f0565b005b34801561024c57600080fd5b50610255610852565b6040516102629190611ea2565b60405180910390f35b34801561027757600080fd5b50610280610858565b60405161028d9190611d72565b60405180910390f35b3480156102a257600080fd5b506102bd60048036038101906102b89190611839565b61086b565b005b3480156102cb57600080fd5b506102d46108af565b6040516102e19190611ea2565b60405180910390f35b3480156102f657600080fd5b506102ff6108b5565b60405161030c9190611ea2565b60405180910390f35b34801561032157600080fd5b5061032a6108bb565b6040516103379190611ea2565b60405180910390f35b34801561034c57600080fd5b506103556108c3565b005b34801561036357600080fd5b5061036c610968565b005b610376610a1a565b005b34801561038457600080fd5b5061038d610b0d565b60405161039a9190611ea2565b60405180910390f35b3480156103af57600080fd5b506103b8610b13565b005b3480156103c657600080fd5b506103cf610bf5565b6040516103dc9190611d72565b60405180910390f35b3480156103f157600080fd5b5061040c60048036038101906104079190611866565b610c08565b005b34801561041a57600080fd5b50610423610cde565b6040516104309190611ea2565b60405180910390f35b34801561044557600080fd5b5061044e610ce4565b60405161045b9190611cd9565b60405180910390f35b34801561047057600080fd5b50610479610d0a565b6040516104869190611de9565b60405180910390f35b34801561049b57600080fd5b506104a4610d1d565b005b3480156104b257600080fd5b506104bb610dc2565b6040516104c89190611cbe565b60405180910390f35b3480156104dd57600080fd5b506104f860048036038101906104f3919061192a565b610de6565b005b34801561050657600080fd5b5061050f610f8f565b604051610523989796959493929190611cf4565b60405180910390f35b60035481565b600160009054906101000a900473ffffffffffffffffffffffffffffffffffffffff1681565b60008054906101000a900473ffffffffffffffffffffffffffffffffffffffff1673ffffffffffffffffffffffffffffffffffffffff163373ffffffffffffffffffffffffffffffffffffffff16146105e6576040517f08c379a00000000000000000000000000000000000000000000000000000000081526004016105dd90611e42565b60405180910390fd5b6001600260146101000a81548160ff0219169083151502179055506003600960006101000a81548160ff021916908360048111156106275761062661237e565b5b0217905550565b600a818154811061063e57600080fd5b906000526020600020906003020160009150905080600001549080600101549080600201805461066d9061222b565b80601f01602080910402602001604051908101604052809291908181526020018280546106999061222b565b80156106e65780601f106106bb576101008083540402835291602001916106e6565b820191906000526020600020905b8154815290600101906020018083116106c957829003601f168201915b5050505050905083565b60038060048111156107055761070461237e565b5b600960009054906101000a900460ff1660048111156107275761072661237e565b5b14610767576040517f08c379a000000000000000000000000000000000000000000000000000000000815260040161075e90611e82565b60405180910390fd5b60075443111561077e5761077961100d565b61084e565b600654431015801561079257506007544311155b6107d1576040517f08c379a00000000000000000000000000000000000000000000000000000000081526004016107c890611e62565b60405180910390fd5b60005b8251811015610834578281815181106107f0576107ef6123dc565b5b6020026020010151600c6000838152602001908152602001600020600082825461081a9190611fb2565b92505081905550808061082c906122d7565b9150506107d4565b50600d60008154809291906108489061228e565b91905055505b5050565b60065481565b600960019054906101000a900460ff1681565b80600260006101000a81548173ffffffffffffffffffffffffffffffffffffffff021916908373ffffffffffffffffffffffffffffffffffffffff16021790555050565b60075481565b60045481565b600047905090565b60028060048111156108d8576108d761237e565b5b600960009054906101000a900460ff1660048111156108fa576108f961237e565b5b1461093a576040517f08c379a000000000000000000000000000000000000000000000000000000000815260040161093190611e82565b60405180910390fd5b6003600960006101000a81548160ff021916908360048111156109605761095f61237e565b5b021790555050565b600280600481111561097d5761097c61237e565b5b600960009054906101000a900460ff16600481111561099f5761099e61237e565b5b146109df576040517f08c379a00000000000000000000000000000000000000000000000000000000081526004016109d690611e82565b60405180910390fd5b600160009054906101000a900473ffffffffffffffffffffffffffffffffffffffff1673ffffffffffffffffffffffffffffffffffffffff16ff5b6003806004811115610a2f57610a2e61237e565b5b600960009054906101000a900460ff166004811115610a5157610a5061237e565b5b14610a91576040517f08c379a0000000000000000000000000000000000000000000000000000000008152600401610a8890611e82565b60405180910390fd5b600754431115610aa857610aa361100d565b610b0a565b6006544310158015610abc57506007544311155b610afb576040517f08c379a0000000000000000000000000000000000000000000000000000000008152600401610af290611e62565b60405180910390fd5b6005543414610b0957600080fd5b5b50565b60085481565b6000806004811115610b2857610b2761237e565b5b600960009054906101000a900460ff166004811115610b4a57610b4961237e565b5b14610b8a576040517f08c379a0000000000000000000000000000000000000000000000000000000008152600401610b8190611e82565b60405180910390fd5b6001600960006101000a81548160ff02191690836004811115610bb057610baf61237e565b5b021790555060005b600a80549050811015610bf1576000600c6000838152602001908152602001600020819055508080610be9906122d7565b915050610bb8565b5050565b600260149054906101000a900460ff1681565b336000806101000a81548173ffffffffffffffffffffffffffffffffffffffff021916908373ffffffffffffffffffffffffffffffffffffffff16021790555084600160006101000a81548173ffffffffffffffffffffffffffffffffffffffff021916908373ffffffffffffffffffffffffffffffffffffffff1602179055508360048190555082600381905550610ca083611225565b600681905550610cbb601e84610cb69190612046565b611225565b6007819055508160088190555080600581905550610cd7611247565b5050505050565b60055481565b600260009054906101000a900473ffffffffffffffffffffffffffffffffffffffff1681565b600960009054906101000a900460ff1681565b6003806004811115610d3257610d3161237e565b5b600960009054906101000a900460ff166004811115610d5457610d5361237e565b5b14610d94576040517f08c379a0000000000000000000000000000000000000000000000000000000008152600401610d8b90611e82565b60405180910390fd5b6002600960006101000a81548160ff02191690836004811115610dba57610db961237e565b5b021790555050565b60008054906101000a900473ffffffffffffffffffffffffffffffffffffffff1681565b6000806004811115610dfb57610dfa61237e565b5b600960009054906101000a900460ff166004811115610e1d57610e1c61237e565b5b14610e5d576040517f08c379a0000000000000000000000000000000000000000000000000000000008152600401610e5490611e82565b60405180910390fd5b60005b6008811015610f87576000858260088110610e7e57610e7d6123dc565b5b6020020151511415610e9857610e92610b13565b50610f89565b600a6040518060600160405280868460088110610eb857610eb76123dc565b5b60200201518152602001600b868560088110610ed757610ed66123dc565b5b6020020151604051610ee99190611c29565b9081526020016040518091039020548152602001878460088110610f1057610f0f6123dc565b5b6020020151815250908060018154018082558091505060019003906000526020600020906003020160009091909190915060008201518160000155602082015181600101556040820151816002019080519060200190610f71929190611507565b5050508080610f7f906122d7565b915050610e60565b505b50505050565b600080600080600080600080600160009054906101000a900473ffffffffffffffffffffffffffffffffffffffff16600260009054906101000a900473ffffffffffffffffffffffffffffffffffffffff16600354600454600554600654600754600854975097509750975097509750975097509091929394959697565b60038060048111156110225761102161237e565b5b600960009054906101000a900460ff1660048111156110445761104361237e565b5b14611084576040517f08c379a000000000000000000000000000000000000000000000000000000000815260040161107b90611e82565b60405180910390fd5b60005b600a805490508110156111a0576000600a82815481106110aa576110a96123dc565b5b90600052602060002090600302016001015490506000600a83815481106110d4576110d36123dc565b5b90600052602060002090600302016000015490506000600d54600c60008681526020019081526020016000205461110b919061209c565b9050611118838284611315565b61118a5761112461139f565b3373ffffffffffffffffffffffffffffffffffffffff167fa84226bf2d14bde3fac454f52eaeab63aaeb1934da88f9263dd4ff7dd12acf71600960019054906101000a900460ff166040516111799190611d8d565b60405180910390a250505050611222565b5050508080611198906122d7565b915050611087565b506001600960016101000a81548160ff0219169083151502179055503373ffffffffffffffffffffffffffffffffffffffff167fa84226bf2d14bde3fac454f52eaeab63aaeb1934da88f9263dd4ff7dd12acf71600960019054906101000a900460ff166040516112119190611dbb565b60405180910390a2611221611414565b5b50565b6000611900826112359190612106565b436112409190612046565b9050919050565b6001600b60405161125790611ca9565b9081526020016040518091039020819055506002600b60405161127990611c40565b9081526020016040518091039020819055506003600b60405161129b90611c7f565b9081526020016040518091039020819055506004600b6040516112bd90611c55565b9081526020016040518091039020819055506005600b6040516112df90611c6a565b9081526020016040518091039020819055506006600b60405161130190611c94565b908152602001604051809103902081905550565b60007fffffffffffffffffffffffffffffffffffffffffffffffffffffffffffffffff8414611393576001808516141561135a578183136113595760009050611398565b5b60028085161415611376578183146113755760009050611398565b5b60048085161415611392578183126113915760009050611398565b5b5b600190505b9392505050565b600160009054906101000a900473ffffffffffffffffffffffffffffffffffffffff1673ffffffffffffffffffffffffffffffffffffffff166108fc6005549081150290604051600060405180830381858888f19350505050158015611409573d6000803e3d6000fd5b50611412611489565b565b600260009054906101000a900473ffffffffffffffffffffffffffffffffffffffff1673ffffffffffffffffffffffffffffffffffffffff166108fc6005549081150290604051600060405180830381858888f1935050505015801561147e573d6000803e3d6000fd5b50611487611489565b565b6004544310156114da576000600960016101000a81548160ff021916908315150217905550600754600681905550611900601e6114c69190612106565b6007546114d39190612046565b6007819055505b6004600960006101000a81548160ff02191690836004811115611500576114ff61237e565b5b0217905550565b8280546115139061222b565b90600052602060002090601f016020900481019282611535576000855561157c565b82601f1061154e57805160ff191683800117855561157c565b8280016001018555821561157c579182015b8281111561157b578251825591602001919060010190611560565b5b509050611589919061158d565b5090565b5b808211156115a657600081600090555060010161158e565b5090565b60006115bd6115b884611ee2565b611ebd565b905080828560208602820111156115d7576115d661243f565b5b60005b8581101561160757816115ed88826117e1565b8452602084019350602083019250506001810190506115da565b5050509392505050565b600061162461161f84611f08565b611ebd565b905080838252602082019050828560208602820111156116475761164661243f565b5b60005b85811015611677578161165d88826117e1565b84526020840193506020830192505060018101905061164a565b5050509392505050565b600061169461168f84611f34565b611ebd565b905080828560208602820111156116ae576116ad61243f565b5b60005b858110156116fc57813567ffffffffffffffff8111156116d4576116d361243a565b5b8086016116e189826117f6565b855260208501945060208401935050506001810190506116b1565b5050509392505050565b600061171961171484611f5a565b611ebd565b90508281526020810184848401111561173557611734612444565b5b6117408482856121e9565b509392505050565b60008135905061175781612687565b92915050565b600082601f8301126117725761177161243a565b5b600861177f8482856115aa565b91505092915050565b600082601f83011261179d5761179c61243a565b5b81356117ad848260208601611611565b91505092915050565b600082601f8301126117cb576117ca61243a565b5b60086117d8848285611681565b91505092915050565b6000813590506117f08161269e565b92915050565b600082601f83011261180b5761180a61243a565b5b813561181b848260208601611706565b91505092915050565b600081359050611833816126b5565b92915050565b60006020828403121561184f5761184e61244e565b5b600061185d84828501611748565b91505092915050565b600080600080600060a086880312156118825761188161244e565b5b600061189088828901611748565b95505060206118a188828901611824565b94505060406118b288828901611824565b93505060606118c388828901611824565b92505060806118d488828901611824565b9150509295509295909350565b6000602082840312156118f7576118f661244e565b5b600082013567ffffffffffffffff81111561191557611914612449565b5b61192184828501611788565b91505092915050565b600080600061014084860312156119445761194361244e565b5b600084013567ffffffffffffffff81111561196257611961612449565b5b61196e868287016117b6565b935050602061197f8682870161175d565b92505061012084013567ffffffffffffffff8111156119a1576119a0612449565b5b6119ad868287016117b6565b9150509250925092565b6000602082840312156119cd576119cc61244e565b5b60006119db84828501611824565b91505092915050565b6119ed81612172565b82525050565b6119fc81612160565b82525050565b611a0b81612184565b82525050565b611a1a816121d7565b82525050565b611a29816121a3565b82525050565b6000611a3a82611f8b565b611a448185611f96565b9350611a548185602086016121f8565b611a5d81612453565b840191505092915050565b6000611a7382611f8b565b611a7d8185611fa7565b9350611a8d8185602086016121f8565b80840191505092915050565b6000611aa6603683611f96565b9150611ab182612464565b604082019050919050565b6000611ac9601283611f96565b9150611ad4826124b3565b602082019050919050565b6000611aec601083611f96565b9150611af7826124dc565b602082019050919050565b6000611b0f600283611fa7565b9150611b1a82612505565b600282019050919050565b6000611b32600183611fa7565b9150611b3d8261252e565b600182019050919050565b6000611b55600283611fa7565b9150611b6082612557565b600282019050919050565b6000611b78600283611fa7565b9150611b8382612580565b600282019050919050565b6000611b9b600283611fa7565b9150611ba6826125a9565b600282019050919050565b6000611bbe600183611fa7565b9150611bc9826125d2565b600182019050919050565b6000611be1601d83611f96565b9150611bec826125fb565b602082019050919050565b6000611c04602583611f96565b9150611c0f82612624565b604082019050919050565b611c23816121cd565b82525050565b6000611c358284611a68565b915081905092915050565b6000611c4b82611b02565b9150819050919050565b6000611c6082611b25565b9150819050919050565b6000611c7582611b48565b9150819050919050565b6000611c8a82611b6b565b9150819050919050565b6000611c9f82611b8e565b9150819050919050565b6000611cb482611bb1565b9150819050919050565b6000602082019050611cd360008301846119f3565b92915050565b6000602082019050611cee60008301846119e4565b92915050565b600061010082019050611d0a600083018b6119f3565b611d17602083018a6119f3565b611d246040830189611c1a565b611d316060830188611c1a565b611d3e6080830187611c1a565b611d4b60a0830186611c1a565b611d5860c0830185611c1a565b611d6560e0830184611c1a565b9998505050505050505050565b6000602082019050611d876000830184611a02565b92915050565b6000604082019050611da26000830184611a02565b8181036020830152611db381611abc565b905092915050565b6000604082019050611dd06000830184611a02565b8181036020830152611de181611adf565b905092915050565b6000602082019050611dfe6000830184611a11565b92915050565b6000606082019050611e196000830186611a20565b611e266020830185611a20565b8181036040830152611e388184611a2f565b9050949350505050565b60006020820190508181036000830152611e5b81611a99565b9050919050565b60006020820190508181036000830152611e7b81611bd4565b9050919050565b60006020820190508181036000830152611e9b81611bf7565b9050919050565b6000602082019050611eb76000830184611c1a565b92915050565b6000611ec7611ed8565b9050611ed3828261225d565b919050565b6000604051905090565b600067ffffffffffffffff821115611efd57611efc61240b565b5b602082029050919050565b600067ffffffffffffffff821115611f2357611f2261240b565b5b602082029050602081019050919050565b600067ffffffffffffffff821115611f4f57611f4e61240b565b5b602082029050919050565b600067ffffffffffffffff821115611f7557611f7461240b565b5b611f7e82612453565b9050602081019050919050565b600081519050919050565b600082825260208201905092915050565b600081905092915050565b6000611fbd826121a3565b9150611fc8836121a3565b9250817f7fffffffffffffffffffffffffffffffffffffffffffffffffffffffffffffff0383136000831215161561200357612002612320565b5b817f800000000000000000000000000000000000000000000000000000000000000003831260008312161561203b5761203a612320565b5b828201905092915050565b6000612051826121cd565b915061205c836121cd565b9250827fffffffffffffffffffffffffffffffffffffffffffffffffffffffffffffffff0382111561209157612090612320565b5b828201905092915050565b60006120a7826121a3565b91506120b2836121a3565b9250826120c2576120c161234f565b5b600160000383147f8000000000000000000000000000000000000000000000000000000000000000831416156120fb576120fa612320565b5b828205905092915050565b6000612111826121cd565b915061211c836121cd565b9250817fffffffffffffffffffffffffffffffffffffffffffffffffffffffffffffffff048311821515161561215557612154612320565b5b828202905092915050565b600061216b826121ad565b9050919050565b600061217d826121ad565b9050919050565b60008115159050919050565b600081905061219e82612673565b919050565b6000819050919050565b600073ffffffffffffffffffffffffffffffffffffffff82169050919050565b6000819050919050565b60006121e282612190565b9050919050565b82818337600083830152505050565b60005b838110156122165780820151818401526020810190506121fb565b83811115612225576000848401525b50505050565b6000600282049050600182168061224357607f821691505b60208210811415612257576122566123ad565b5b50919050565b61226682612453565b810181811067ffffffffffffffff821117156122855761228461240b565b5b80604052505050565b6000612299826121a3565b91507f7fffffffffffffffffffffffffffffffffffffffffffffffffffffffffffffff8214156122cc576122cb612320565b5b600182019050919050565b60006122e2826121cd565b91507fffffffffffffffffffffffffffffffffffffffffffffffffffffffffffffffff82141561231557612314612320565b5b600182019050919050565b7f4e487b7100000000000000000000000000000000000000000000000000000000600052601160045260246000fd5b7f4e487b7100000000000000000000000000000000000000000000000000000000600052601260045260246000fd5b7f4e487b7100000000000000000000000000000000000000000000000000000000600052602160045260246000fd5b7f4e487b7100000000000000000000000000000000000000000000000000000000600052602260045260246000fd5b7f4e487b7100000000000000000000000000000000000000000000000000000000600052603260045260246000fd5b7f4e487b7100000000000000000000000000000000000000000000000000000000600052604160045260246000fd5b600080fd5b600080fd5b600080fd5b600080fd5b600080fd5b6000601f19601f8301169050919050565b7f43616e6e6f742063616c6c20746869732066756e6374696f6e2064697265637460008201527f6c792c207573652056656e646f72466163746f72792e00000000000000000000602082015250565b7f526566756e64696e67207061796d656e742e0000000000000000000000000000600082015250565b7f53656e64696e67207061796d656e742e00000000000000000000000000000000600082015250565b7f3d3d000000000000000000000000000000000000000000000000000000000000600082015250565b7f3c00000000000000000000000000000000000000000000000000000000000000600082015250565b7f213d000000000000000000000000000000000000000000000000000000000000600082015250565b7f3d3e000000000000000000000000000000000000000000000000000000000000600082015250565b7f3c3d000000000000000000000000000000000000000000000000000000000000600082015250565b7f3e00000000000000000000000000000000000000000000000000000000000000600082015250565b7f4e6f742077697468696e207468652062696c6c696e6720706572696f64000000600082015250565b7f436f6e7472616374206973206e6f7420696e207468652072657175697265642060008201527f7374617465000000000000000000000000000000000000000000000000000000602082015250565b600581106126845761268361237e565b5b50565b61269081612160565b811461269b57600080fd5b50565b6126a7816121a3565b81146126b257600080fd5b50565b6126be816121cd565b81146126c957600080fd5b5056fea26469706673582212209dff73b6c4d0872a8b2f392a1fe57268e4f1bdfdf044a631e5baf5fac20837b164736f6c63430008060033",
      "opcodes": "PUSH1 0x80 PUSH1 0x40 MSTORE PUSH1 0x0 PUSH1 0x9 PUSH1 0x0 PUSH2 0x100 EXP DUP2 SLOAD DUP2 PUSH1 0xFF MUL NOT AND SWAP1 DUP4 PUSH1 0x4 DUP2 GT ISZERO PUSH2 0x2A JUMPI PUSH2 0x29 PUSH2 0x5C JUMP JUMPDEST JUMPDEST MUL OR SWAP1 SSTORE POP PUSH1 0x0 PUSH1 0x9 PUSH1 0x1 PUSH2 0x100 EXP DUP2 SLOAD DUP2 PUSH1 0xFF MUL NOT AND SWAP1 DUP4 ISZERO ISZERO MUL OR SWAP1 SSTORE POP CALLVALUE DUP1 ISZERO PUSH2 0x56 JUMPI PUSH1 0x0 DUP1 REVERT JUMPDEST POP PUSH2 0x8B JUMP JUMPDEST PUSH32 0x4E487B7100000000000000000000000000000000000000000000000000000000 PUSH1 0x0 MSTORE PUSH1 0x21 PUSH1 0x4 MSTORE PUSH1 0x24 PUSH1 0x0 REVERT JUMPDEST PUSH2 0x2702 DUP1 PUSH3 0x9B PUSH1 0x0 CODECOPY PUSH1 0x0 RETURN INVALID PUSH1 0x80 PUSH1 0x40 MSTORE PUSH1 0x4 CALLDATASIZE LT PUSH2 0x166 JUMPI PUSH1 0x0 CALLDATALOAD PUSH1 0xE0 SHR DUP1 PUSH4 0x83197EF0 GT PUSH2 0xD1 JUMPI DUP1 PUSH4 0xAA8C217C GT PUSH2 0x8A JUMPI DUP1 PUSH4 0xF1B9EE24 GT PUSH2 0x64 JUMPI DUP1 PUSH4 0xF1B9EE24 EQ PUSH2 0x48F JUMPI DUP1 PUSH4 0xF851A440 EQ PUSH2 0x4A6 JUMPI DUP1 PUSH4 0xFADEAA59 EQ PUSH2 0x4D1 JUMPI DUP1 PUSH4 0xFBBF93A0 EQ PUSH2 0x4FA JUMPI PUSH2 0x166 JUMP JUMPDEST DUP1 PUSH4 0xAA8C217C EQ PUSH2 0x40E JUMPI DUP1 PUSH4 0xAE90B213 EQ PUSH2 0x439 JUMPI DUP1 PUSH4 0xC040E6B8 EQ PUSH2 0x464 JUMPI PUSH2 0x166 JUMP JUMPDEST DUP1 PUSH4 0x83197EF0 EQ PUSH2 0x357 JUMPI DUP1 PUSH4 0x84AC4446 EQ PUSH2 0x36E JUMPI DUP1 PUSH4 0x904C6094 EQ PUSH2 0x378 JUMPI DUP1 PUSH4 0x9503FE3D EQ PUSH2 0x3A3 JUMPI DUP1 PUSH4 0x97C0BBA1 EQ PUSH2 0x3BA JUMPI DUP1 PUSH4 0x9A730617 EQ PUSH2 0x3E5 JUMPI PUSH2 0x166 JUMP JUMPDEST DUP1 PUSH4 0x3A40F3B2 GT PUSH2 0x123 JUMPI DUP1 PUSH4 0x3A40F3B2 EQ PUSH2 0x26B JUMPI DUP1 PUSH4 0x410459AD EQ PUSH2 0x296 JUMPI DUP1 PUSH4 0x43885314 EQ PUSH2 0x2BF JUMPI DUP1 PUSH4 0x516DDE43 EQ PUSH2 0x2EA JUMPI DUP1 PUSH4 0x722713F7 EQ PUSH2 0x315 JUMPI DUP1 PUSH4 0x760A8C2A EQ PUSH2 0x340 JUMPI PUSH2 0x166 JUMP JUMPDEST DUP1 PUSH4 0xB97BC86 EQ PUSH2 0x16B JUMPI DUP1 PUSH4 0x109E94CF EQ PUSH2 0x196 JUMPI DUP1 PUSH4 0x12424E3F EQ PUSH2 0x1C1 JUMPI DUP1 PUSH4 0x182541D2 EQ PUSH2 0x1D8 JUMPI DUP1 PUSH4 0x21CE5AFD EQ PUSH2 0x217 JUMPI DUP1 PUSH4 0x25419C24 EQ PUSH2 0x240 JUMPI JUMPDEST PUSH1 0x0 DUP1 REVERT JUMPDEST CALLVALUE DUP1 ISZERO PUSH2 0x177 JUMPI PUSH1 0x0 DUP1 REVERT JUMPDEST POP PUSH2 0x180 PUSH2 0x52C JUMP JUMPDEST PUSH1 0x40 MLOAD PUSH2 0x18D SWAP2 SWAP1 PUSH2 0x1EA2 JUMP JUMPDEST PUSH1 0x40 MLOAD DUP1 SWAP2 SUB SWAP1 RETURN JUMPDEST CALLVALUE DUP1 ISZERO PUSH2 0x1A2 JUMPI PUSH1 0x0 DUP1 REVERT JUMPDEST POP PUSH2 0x1AB PUSH2 0x532 JUMP JUMPDEST PUSH1 0x40 MLOAD PUSH2 0x1B8 SWAP2 SWAP1 PUSH2 0x1CD9 JUMP JUMPDEST PUSH1 0x40 MLOAD DUP1 SWAP2 SUB SWAP1 RETURN JUMPDEST CALLVALUE DUP1 ISZERO PUSH2 0x1CD JUMPI PUSH1 0x0 DUP1 REVERT JUMPDEST POP PUSH2 0x1D6 PUSH2 0x558 JUMP JUMPDEST STOP JUMPDEST CALLVALUE DUP1 ISZERO PUSH2 0x1E4 JUMPI PUSH1 0x0 DUP1 REVERT JUMPDEST POP PUSH2 0x1FF PUSH1 0x4 DUP1 CALLDATASIZE SUB DUP2 ADD SWAP1 PUSH2 0x1FA SWAP2 SWAP1 PUSH2 0x19B7 JUMP JUMPDEST PUSH2 0x62E JUMP JUMPDEST PUSH1 0x40 MLOAD PUSH2 0x20E SWAP4 SWAP3 SWAP2 SWAP1 PUSH2 0x1E04 JUMP JUMPDEST PUSH1 0x40 MLOAD DUP1 SWAP2 SUB SWAP1 RETURN JUMPDEST CALLVALUE DUP1 ISZERO PUSH2 0x223 JUMPI PUSH1 0x0 DUP1 REVERT JUMPDEST POP PUSH2 0x23E PUSH1 0x4 DUP1 CALLDATASIZE SUB DUP2 ADD SWAP1 PUSH2 0x239 SWAP2 SWAP1 PUSH2 0x18E1 JUMP JUMPDEST PUSH2 0x6F0 JUMP JUMPDEST STOP JUMPDEST CALLVALUE DUP1 ISZERO PUSH2 0x24C JUMPI PUSH1 0x0 DUP1 REVERT JUMPDEST POP PUSH2 0x255 PUSH2 0x852 JUMP JUMPDEST PUSH1 0x40 MLOAD PUSH2 0x262 SWAP2 SWAP1 PUSH2 0x1EA2 JUMP JUMPDEST PUSH1 0x40 MLOAD DUP1 SWAP2 SUB SWAP1 RETURN JUMPDEST CALLVALUE DUP1 ISZERO PUSH2 0x277 JUMPI PUSH1 0x0 DUP1 REVERT JUMPDEST POP PUSH2 0x280 PUSH2 0x858 JUMP JUMPDEST PUSH1 0x40 MLOAD PUSH2 0x28D SWAP2 SWAP1 PUSH2 0x1D72 JUMP JUMPDEST PUSH1 0x40 MLOAD DUP1 SWAP2 SUB SWAP1 RETURN JUMPDEST CALLVALUE DUP1 ISZERO PUSH2 0x2A2 JUMPI PUSH1 0x0 DUP1 REVERT JUMPDEST POP PUSH2 0x2BD PUSH1 0x4 DUP1 CALLDATASIZE SUB DUP2 ADD SWAP1 PUSH2 0x2B8 SWAP2 SWAP1 PUSH2 0x1839 JUMP JUMPDEST PUSH2 0x86B JUMP JUMPDEST STOP JUMPDEST CALLVALUE DUP1 ISZERO PUSH2 0x2CB JUMPI PUSH1 0x0 DUP1 REVERT JUMPDEST POP PUSH2 0x2D4 PUSH2 0x8AF JUMP JUMPDEST PUSH1 0x40 MLOAD PUSH2 0x2E1 SWAP2 SWAP1 PUSH2 0x1EA2 JUMP JUMPDEST PUSH1 0x40 MLOAD DUP1 SWAP2 SUB SWAP1 RETURN JUMPDEST CALLVALUE DUP1 ISZERO PUSH2 0x2F6 JUMPI PUSH1 0x0 DUP1 REVERT JUMPDEST POP PUSH2 0x2FF PUSH2 0x8B5 JUMP JUMPDEST PUSH1 0x40 MLOAD PUSH2 0x30C SWAP2 SWAP1 PUSH2 0x1EA2 JUMP JUMPDEST PUSH1 0x40 MLOAD DUP1 SWAP2 SUB SWAP1 RETURN JUMPDEST CALLVALUE DUP1 ISZERO PUSH2 0x321 JUMPI PUSH1 0x0 DUP1 REVERT JUMPDEST POP PUSH2 0x32A PUSH2 0x8BB JUMP JUMPDEST PUSH1 0x40 MLOAD PUSH2 0x337 SWAP2 SWAP1 PUSH2 0x1EA2 JUMP JUMPDEST PUSH1 0x40 MLOAD DUP1 SWAP2 SUB SWAP1 RETURN JUMPDEST CALLVALUE DUP1 ISZERO PUSH2 0x34C JUMPI PUSH1 0x0 DUP1 REVERT JUMPDEST POP PUSH2 0x355 PUSH2 0x8C3 JUMP JUMPDEST STOP JUMPDEST CALLVALUE DUP1 ISZERO PUSH2 0x363 JUMPI PUSH1 0x0 DUP1 REVERT JUMPDEST POP PUSH2 0x36C PUSH2 0x968 JUMP JUMPDEST STOP JUMPDEST PUSH2 0x376 PUSH2 0xA1A JUMP JUMPDEST STOP JUMPDEST CALLVALUE DUP1 ISZERO PUSH2 0x384 JUMPI PUSH1 0x0 DUP1 REVERT JUMPDEST POP PUSH2 0x38D PUSH2 0xB0D JUMP JUMPDEST PUSH1 0x40 MLOAD PUSH2 0x39A SWAP2 SWAP1 PUSH2 0x1EA2 JUMP JUMPDEST PUSH1 0x40 MLOAD DUP1 SWAP2 SUB SWAP1 RETURN JUMPDEST CALLVALUE DUP1 ISZERO PUSH2 0x3AF JUMPI PUSH1 0x0 DUP1 REVERT JUMPDEST POP PUSH2 0x3B8 PUSH2 0xB13 JUMP JUMPDEST STOP JUMPDEST CALLVALUE DUP1 ISZERO PUSH2 0x3C6 JUMPI PUSH1 0x0 DUP1 REVERT JUMPDEST POP PUSH2 0x3CF PUSH2 0xBF5 JUMP JUMPDEST PUSH1 0x40 MLOAD PUSH2 0x3DC SWAP2 SWAP1 PUSH2 0x1D72 JUMP JUMPDEST PUSH1 0x40 MLOAD DUP1 SWAP2 SUB SWAP1 RETURN JUMPDEST CALLVALUE DUP1 ISZERO PUSH2 0x3F1 JUMPI PUSH1 0x0 DUP1 REVERT JUMPDEST POP PUSH2 0x40C PUSH1 0x4 DUP1 CALLDATASIZE SUB DUP2 ADD SWAP1 PUSH2 0x407 SWAP2 SWAP1 PUSH2 0x1866 JUMP JUMPDEST PUSH2 0xC08 JUMP JUMPDEST STOP JUMPDEST CALLVALUE DUP1 ISZERO PUSH2 0x41A JUMPI PUSH1 0x0 DUP1 REVERT JUMPDEST POP PUSH2 0x423 PUSH2 0xCDE JUMP JUMPDEST PUSH1 0x40 MLOAD PUSH2 0x430 SWAP2 SWAP1 PUSH2 0x1EA2 JUMP JUMPDEST PUSH1 0x40 MLOAD DUP1 SWAP2 SUB SWAP1 RETURN JUMPDEST CALLVALUE DUP1 ISZERO PUSH2 0x445 JUMPI PUSH1 0x0 DUP1 REVERT JUMPDEST POP PUSH2 0x44E PUSH2 0xCE4 JUMP JUMPDEST PUSH1 0x40 MLOAD PUSH2 0x45B SWAP2 SWAP1 PUSH2 0x1CD9 JUMP JUMPDEST PUSH1 0x40 MLOAD DUP1 SWAP2 SUB SWAP1 RETURN JUMPDEST CALLVALUE DUP1 ISZERO PUSH2 0x470 JUMPI PUSH1 0x0 DUP1 REVERT JUMPDEST POP PUSH2 0x479 PUSH2 0xD0A JUMP JUMPDEST PUSH1 0x40 MLOAD PUSH2 0x486 SWAP2 SWAP1 PUSH2 0x1DE9 JUMP JUMPDEST PUSH1 0x40 MLOAD DUP1 SWAP2 SUB SWAP1 RETURN JUMPDEST CALLVALUE DUP1 ISZERO PUSH2 0x49B JUMPI PUSH1 0x0 DUP1 REVERT JUMPDEST POP PUSH2 0x4A4 PUSH2 0xD1D JUMP JUMPDEST STOP JUMPDEST CALLVALUE DUP1 ISZERO PUSH2 0x4B2 JUMPI PUSH1 0x0 DUP1 REVERT JUMPDEST POP PUSH2 0x4BB PUSH2 0xDC2 JUMP JUMPDEST PUSH1 0x40 MLOAD PUSH2 0x4C8 SWAP2 SWAP1 PUSH2 0x1CBE JUMP JUMPDEST PUSH1 0x40 MLOAD DUP1 SWAP2 SUB SWAP1 RETURN JUMPDEST CALLVALUE DUP1 ISZERO PUSH2 0x4DD JUMPI PUSH1 0x0 DUP1 REVERT JUMPDEST POP PUSH2 0x4F8 PUSH1 0x4 DUP1 CALLDATASIZE SUB DUP2 ADD SWAP1 PUSH2 0x4F3 SWAP2 SWAP1 PUSH2 0x192A JUMP JUMPDEST PUSH2 0xDE6 JUMP JUMPDEST STOP JUMPDEST CALLVALUE DUP1 ISZERO PUSH2 0x506 JUMPI PUSH1 0x0 DUP1 REVERT JUMPDEST POP PUSH2 0x50F PUSH2 0xF8F JUMP JUMPDEST PUSH1 0x40 MLOAD PUSH2 0x523 SWAP9 SWAP8 SWAP7 SWAP6 SWAP5 SWAP4 SWAP3 SWAP2 SWAP1 PUSH2 0x1CF4 JUMP JUMPDEST PUSH1 0x40 MLOAD DUP1 SWAP2 SUB SWAP1 RETURN JUMPDEST PUSH1 0x3 SLOAD DUP2 JUMP JUMPDEST PUSH1 0x1 PUSH1 0x0 SWAP1 SLOAD SWAP1 PUSH2 0x100 EXP SWAP1 DIV PUSH20 0xFFFFFFFFFFFFFFFFFFFFFFFFFFFFFFFFFFFFFFFF AND DUP2 JUMP JUMPDEST PUSH1 0x0 DUP1 SLOAD SWAP1 PUSH2 0x100 EXP SWAP1 DIV PUSH20 0xFFFFFFFFFFFFFFFFFFFFFFFFFFFFFFFFFFFFFFFF AND PUSH20 0xFFFFFFFFFFFFFFFFFFFFFFFFFFFFFFFFFFFFFFFF AND CALLER PUSH20 0xFFFFFFFFFFFFFFFFFFFFFFFFFFFFFFFFFFFFFFFF AND EQ PUSH2 0x5E6 JUMPI PUSH1 0x40 MLOAD PUSH32 0x8C379A000000000000000000000000000000000000000000000000000000000 DUP2 MSTORE PUSH1 0x4 ADD PUSH2 0x5DD SWAP1 PUSH2 0x1E42 JUMP JUMPDEST PUSH1 0x40 MLOAD DUP1 SWAP2 SUB SWAP1 REVERT JUMPDEST PUSH1 0x1 PUSH1 0x2 PUSH1 0x14 PUSH2 0x100 EXP DUP2 SLOAD DUP2 PUSH1 0xFF MUL NOT AND SWAP1 DUP4 ISZERO ISZERO MUL OR SWAP1 SSTORE POP PUSH1 0x3 PUSH1 0x9 PUSH1 0x0 PUSH2 0x100 EXP DUP2 SLOAD DUP2 PUSH1 0xFF MUL NOT AND SWAP1 DUP4 PUSH1 0x4 DUP2 GT ISZERO PUSH2 0x627 JUMPI PUSH2 0x626 PUSH2 0x237E JUMP JUMPDEST JUMPDEST MUL OR SWAP1 SSTORE POP JUMP JUMPDEST PUSH1 0xA DUP2 DUP2 SLOAD DUP2 LT PUSH2 0x63E JUMPI PUSH1 0x0 DUP1 REVERT JUMPDEST SWAP1 PUSH1 0x0 MSTORE PUSH1 0x20 PUSH1 0x0 KECCAK256 SWAP1 PUSH1 0x3 MUL ADD PUSH1 0x0 SWAP2 POP SWAP1 POP DUP1 PUSH1 0x0 ADD SLOAD SWAP1 DUP1 PUSH1 0x1 ADD SLOAD SWAP1 DUP1 PUSH1 0x2 ADD DUP1 SLOAD PUSH2 0x66D SWAP1 PUSH2 0x222B JUMP JUMPDEST DUP1 PUSH1 0x1F ADD PUSH1 0x20 DUP1 SWAP2 DIV MUL PUSH1 0x20 ADD PUSH1 0x40 MLOAD SWAP1 DUP2 ADD PUSH1 0x40 MSTORE DUP1 SWAP3 SWAP2 SWAP1 DUP2 DUP2 MSTORE PUSH1 0x20 ADD DUP3 DUP1 SLOAD PUSH2 0x699 SWAP1 PUSH2 0x222B JUMP JUMPDEST DUP1 ISZERO PUSH2 0x6E6 JUMPI DUP1 PUSH1 0x1F LT PUSH2 0x6BB JUMPI PUSH2 0x100 DUP1 DUP4 SLOAD DIV MUL DUP4 MSTORE SWAP2 PUSH1 0x20 ADD SWAP2 PUSH2 0x6E6 JUMP JUMPDEST DUP3 ADD SWAP2 SWAP1 PUSH1 0x0 MSTORE PUSH1 0x20 PUSH1 0x0 KECCAK256 SWAP1 JUMPDEST DUP2 SLOAD DUP2 MSTORE SWAP1 PUSH1 0x1 ADD SWAP1 PUSH1 0x20 ADD DUP1 DUP4 GT PUSH2 0x6C9 JUMPI DUP3 SWAP1 SUB PUSH1 0x1F AND DUP3 ADD SWAP2 JUMPDEST POP POP POP POP POP SWAP1 POP DUP4 JUMP JUMPDEST PUSH1 0x3 DUP1 PUSH1 0x4 DUP2 GT ISZERO PUSH2 0x705 JUMPI PUSH2 0x704 PUSH2 0x237E JUMP JUMPDEST JUMPDEST PUSH1 0x9 PUSH1 0x0 SWAP1 SLOAD SWAP1 PUSH2 0x100 EXP SWAP1 DIV PUSH1 0xFF AND PUSH1 0x4 DUP2 GT ISZERO PUSH2 0x727 JUMPI PUSH2 0x726 PUSH2 0x237E JUMP JUMPDEST JUMPDEST EQ PUSH2 0x767 JUMPI PUSH1 0x40 MLOAD PUSH32 0x8C379A000000000000000000000000000000000000000000000000000000000 DUP2 MSTORE PUSH1 0x4 ADD PUSH2 0x75E SWAP1 PUSH2 0x1E82 JUMP JUMPDEST PUSH1 0x40 MLOAD DUP1 SWAP2 SUB SWAP1 REVERT JUMPDEST PUSH1 0x7 SLOAD NUMBER GT ISZERO PUSH2 0x77E JUMPI PUSH2 0x779 PUSH2 0x100D JUMP JUMPDEST PUSH2 0x84E JUMP JUMPDEST PUSH1 0x6 SLOAD NUMBER LT ISZERO DUP1 ISZERO PUSH2 0x792 JUMPI POP PUSH1 0x7 SLOAD NUMBER GT ISZERO JUMPDEST PUSH2 0x7D1 JUMPI PUSH1 0x40 MLOAD PUSH32 0x8C379A000000000000000000000000000000000000000000000000000000000 DUP2 MSTORE PUSH1 0x4 ADD PUSH2 0x7C8 SWAP1 PUSH2 0x1E62 JUMP JUMPDEST PUSH1 0x40 MLOAD DUP1 SWAP2 SUB SWAP1 REVERT JUMPDEST PUSH1 0x0 JUMPDEST DUP3 MLOAD DUP2 LT ISZERO PUSH2 0x834 JUMPI DUP3 DUP2 DUP2 MLOAD DUP2 LT PUSH2 0x7F0 JUMPI PUSH2 0x7EF PUSH2 0x23DC JUMP JUMPDEST JUMPDEST PUSH1 0x20 MUL PUSH1 0x20 ADD ADD MLOAD PUSH1 0xC PUSH1 0x0 DUP4 DUP2 MSTORE PUSH1 0x20 ADD SWAP1 DUP2 MSTORE PUSH1 0x20 ADD PUSH1 0x0 KECCAK256 PUSH1 0x0 DUP3 DUP3 SLOAD PUSH2 0x81A SWAP2 SWAP1 PUSH2 0x1FB2 JUMP JUMPDEST SWAP3 POP POP DUP2 SWAP1 SSTORE POP DUP1 DUP1 PUSH2 0x82C SWAP1 PUSH2 0x22D7 JUMP JUMPDEST SWAP2 POP POP PUSH2 0x7D4 JUMP JUMPDEST POP PUSH1 0xD PUSH1 0x0 DUP2 SLOAD DUP1 SWAP3 SWAP2 SWAP1 PUSH2 0x848 SWAP1 PUSH2 0x228E JUMP JUMPDEST SWAP2 SWAP1 POP SSTORE POP JUMPDEST POP POP JUMP JUMPDEST PUSH1 0x6 SLOAD DUP2 JUMP JUMPDEST PUSH1 0x9 PUSH1 0x1 SWAP1 SLOAD SWAP1 PUSH2 0x100 EXP SWAP1 DIV PUSH1 0xFF AND DUP2 JUMP JUMPDEST DUP1 PUSH1 0x2 PUSH1 0x0 PUSH2 0x100 EXP DUP2 SLOAD DUP2 PUSH20 0xFFFFFFFFFFFFFFFFFFFFFFFFFFFFFFFFFFFFFFFF MUL NOT AND SWAP1 DUP4 PUSH20 0xFFFFFFFFFFFFFFFFFFFFFFFFFFFFFFFFFFFFFFFF AND MUL OR SWAP1 SSTORE POP POP JUMP JUMPDEST PUSH1 0x7 SLOAD DUP2 JUMP JUMPDEST PUSH1 0x4 SLOAD DUP2 JUMP JUMPDEST PUSH1 0x0 SELFBALANCE SWAP1 POP SWAP1 JUMP JUMPDEST PUSH1 0x2 DUP1 PUSH1 0x4 DUP2 GT ISZERO PUSH2 0x8D8 JUMPI PUSH2 0x8D7 PUSH2 0x237E JUMP JUMPDEST JUMPDEST PUSH1 0x9 PUSH1 0x0 SWAP1 SLOAD SWAP1 PUSH2 0x100 EXP SWAP1 DIV PUSH1 0xFF AND PUSH1 0x4 DUP2 GT ISZERO PUSH2 0x8FA JUMPI PUSH2 0x8F9 PUSH2 0x237E JUMP JUMPDEST JUMPDEST EQ PUSH2 0x93A JUMPI PUSH1 0x40 MLOAD PUSH32 0x8C379A000000000000000000000000000000000000000000000000000000000 DUP2 MSTORE PUSH1 0x4 ADD PUSH2 0x931 SWAP1 PUSH2 0x1E82 JUMP JUMPDEST PUSH1 0x40 MLOAD DUP1 SWAP2 SUB SWAP1 REVERT JUMPDEST PUSH1 0x3 PUSH1 0x9 PUSH1 0x0 PUSH2 0x100 EXP DUP2 SLOAD DUP2 PUSH1 0xFF MUL NOT AND SWAP1 DUP4 PUSH1 0x4 DUP2 GT ISZERO PUSH2 0x960 JUMPI PUSH2 0x95F PUSH2 0x237E JUMP JUMPDEST JUMPDEST MUL OR SWAP1 SSTORE POP POP JUMP JUMPDEST PUSH1 0x2 DUP1 PUSH1 0x4 DUP2 GT ISZERO PUSH2 0x97D JUMPI PUSH2 0x97C PUSH2 0x237E JUMP JUMPDEST JUMPDEST PUSH1 0x9 PUSH1 0x0 SWAP1 SLOAD SWAP1 PUSH2 0x100 EXP SWAP1 DIV PUSH1 0xFF AND PUSH1 0x4 DUP2 GT ISZERO PUSH2 0x99F JUMPI PUSH2 0x99E PUSH2 0x237E JUMP JUMPDEST JUMPDEST EQ PUSH2 0x9DF JUMPI PUSH1 0x40 MLOAD PUSH32 0x8C379A000000000000000000000000000000000000000000000000000000000 DUP2 MSTORE PUSH1 0x4 ADD PUSH2 0x9D6 SWAP1 PUSH2 0x1E82 JUMP JUMPDEST PUSH1 0x40 MLOAD DUP1 SWAP2 SUB SWAP1 REVERT JUMPDEST PUSH1 0x1 PUSH1 0x0 SWAP1 SLOAD SWAP1 PUSH2 0x100 EXP SWAP1 DIV PUSH20 0xFFFFFFFFFFFFFFFFFFFFFFFFFFFFFFFFFFFFFFFF AND PUSH20 0xFFFFFFFFFFFFFFFFFFFFFFFFFFFFFFFFFFFFFFFF AND SELFDESTRUCT JUMPDEST PUSH1 0x3 DUP1 PUSH1 0x4 DUP2 GT ISZERO PUSH2 0xA2F JUMPI PUSH2 0xA2E PUSH2 0x237E JUMP JUMPDEST JUMPDEST PUSH1 0x9 PUSH1 0x0 SWAP1 SLOAD SWAP1 PUSH2 0x100 EXP SWAP1 DIV PUSH1 0xFF AND PUSH1 0x4 DUP2 GT ISZERO PUSH2 0xA51 JUMPI PUSH2 0xA50 PUSH2 0x237E JUMP JUMPDEST JUMPDEST EQ PUSH2 0xA91 JUMPI PUSH1 0x40 MLOAD PUSH32 0x8C379A000000000000000000000000000000000000000000000000000000000 DUP2 MSTORE PUSH1 0x4 ADD PUSH2 0xA88 SWAP1 PUSH2 0x1E82 JUMP JUMPDEST PUSH1 0x40 MLOAD DUP1 SWAP2 SUB SWAP1 REVERT JUMPDEST PUSH1 0x7 SLOAD NUMBER GT ISZERO PUSH2 0xAA8 JUMPI PUSH2 0xAA3 PUSH2 0x100D JUMP JUMPDEST PUSH2 0xB0A JUMP JUMPDEST PUSH1 0x6 SLOAD NUMBER LT ISZERO DUP1 ISZERO PUSH2 0xABC JUMPI POP PUSH1 0x7 SLOAD NUMBER GT ISZERO JUMPDEST PUSH2 0xAFB JUMPI PUSH1 0x40 MLOAD PUSH32 0x8C379A000000000000000000000000000000000000000000000000000000000 DUP2 MSTORE PUSH1 0x4 ADD PUSH2 0xAF2 SWAP1 PUSH2 0x1E62 JUMP JUMPDEST PUSH1 0x40 MLOAD DUP1 SWAP2 SUB SWAP1 REVERT JUMPDEST PUSH1 0x5 SLOAD CALLVALUE EQ PUSH2 0xB09 JUMPI PUSH1 0x0 DUP1 REVERT JUMPDEST JUMPDEST POP JUMP JUMPDEST PUSH1 0x8 SLOAD DUP2 JUMP JUMPDEST PUSH1 0x0 DUP1 PUSH1 0x4 DUP2 GT ISZERO PUSH2 0xB28 JUMPI PUSH2 0xB27 PUSH2 0x237E JUMP JUMPDEST JUMPDEST PUSH1 0x9 PUSH1 0x0 SWAP1 SLOAD SWAP1 PUSH2 0x100 EXP SWAP1 DIV PUSH1 0xFF AND PUSH1 0x4 DUP2 GT ISZERO PUSH2 0xB4A JUMPI PUSH2 0xB49 PUSH2 0x237E JUMP JUMPDEST JUMPDEST EQ PUSH2 0xB8A JUMPI PUSH1 0x40 MLOAD PUSH32 0x8C379A000000000000000000000000000000000000000000000000000000000 DUP2 MSTORE PUSH1 0x4 ADD PUSH2 0xB81 SWAP1 PUSH2 0x1E82 JUMP JUMPDEST PUSH1 0x40 MLOAD DUP1 SWAP2 SUB SWAP1 REVERT JUMPDEST PUSH1 0x1 PUSH1 0x9 PUSH1 0x0 PUSH2 0x100 EXP DUP2 SLOAD DUP2 PUSH1 0xFF MUL NOT AND SWAP1 DUP4 PUSH1 0x4 DUP2 GT ISZERO PUSH2 0xBB0 JUMPI PUSH2 0xBAF PUSH2 0x237E JUMP JUMPDEST JUMPDEST MUL OR SWAP1 SSTORE POP PUSH1 0x0 JUMPDEST PUSH1 0xA DUP1 SLOAD SWAP1 POP DUP2 LT ISZERO PUSH2 0xBF1 JUMPI PUSH1 0x0 PUSH1 0xC PUSH1 0x0 DUP4 DUP2 MSTORE PUSH1 0x20 ADD SWAP1 DUP2 MSTORE PUSH1 0x20 ADD PUSH1 0x0 KECCAK256 DUP2 SWAP1 SSTORE POP DUP1 DUP1 PUSH2 0xBE9 SWAP1 PUSH2 0x22D7 JUMP JUMPDEST SWAP2 POP POP PUSH2 0xBB8 JUMP JUMPDEST POP POP JUMP JUMPDEST PUSH1 0x2 PUSH1 0x14 SWAP1 SLOAD SWAP1 PUSH2 0x100 EXP SWAP1 DIV PUSH1 0xFF AND DUP2 JUMP JUMPDEST CALLER PUSH1 0x0 DUP1 PUSH2 0x100 EXP DUP2 SLOAD DUP2 PUSH20 0xFFFFFFFFFFFFFFFFFFFFFFFFFFFFFFFFFFFFFFFF MUL NOT AND SWAP1 DUP4 PUSH20 0xFFFFFFFFFFFFFFFFFFFFFFFFFFFFFFFFFFFFFFFF AND MUL OR SWAP1 SSTORE POP DUP5 PUSH1 0x1 PUSH1 0x0 PUSH2 0x100 EXP DUP2 SLOAD DUP2 PUSH20 0xFFFFFFFFFFFFFFFFFFFFFFFFFFFFFFFFFFFFFFFF MUL NOT AND SWAP1 DUP4 PUSH20 0xFFFFFFFFFFFFFFFFFFFFFFFFFFFFFFFFFFFFFFFF AND MUL OR SWAP1 SSTORE POP DUP4 PUSH1 0x4 DUP2 SWAP1 SSTORE POP DUP3 PUSH1 0x3 DUP2 SWAP1 SSTORE POP PUSH2 0xCA0 DUP4 PUSH2 0x1225 JUMP JUMPDEST PUSH1 0x6 DUP2 SWAP1 SSTORE POP PUSH2 0xCBB PUSH1 0x1E DUP5 PUSH2 0xCB6 SWAP2 SWAP1 PUSH2 0x2046 JUMP JUMPDEST PUSH2 0x1225 JUMP JUMPDEST PUSH1 0x7 DUP2 SWAP1 SSTORE POP DUP2 PUSH1 0x8 DUP2 SWAP1 SSTORE POP DUP1 PUSH1 0x5 DUP2 SWAP1 SSTORE POP PUSH2 0xCD7 PUSH2 0x1247 JUMP JUMPDEST POP POP POP POP POP JUMP JUMPDEST PUSH1 0x5 SLOAD DUP2 JUMP JUMPDEST PUSH1 0x2 PUSH1 0x0 SWAP1 SLOAD SWAP1 PUSH2 0x100 EXP SWAP1 DIV PUSH20 0xFFFFFFFFFFFFFFFFFFFFFFFFFFFFFFFFFFFFFFFF AND DUP2 JUMP JUMPDEST PUSH1 0x9 PUSH1 0x0 SWAP1 SLOAD SWAP1 PUSH2 0x100 EXP SWAP1 DIV PUSH1 0xFF AND DUP2 JUMP JUMPDEST PUSH1 0x3 DUP1 PUSH1 0x4 DUP2 GT ISZERO PUSH2 0xD32 JUMPI PUSH2 0xD31 PUSH2 0x237E JUMP JUMPDEST JUMPDEST PUSH1 0x9 PUSH1 0x0 SWAP1 SLOAD SWAP1 PUSH2 0x100 EXP SWAP1 DIV PUSH1 0xFF AND PUSH1 0x4 DUP2 GT ISZERO PUSH2 0xD54 JUMPI PUSH2 0xD53 PUSH2 0x237E JUMP JUMPDEST JUMPDEST EQ PUSH2 0xD94 JUMPI PUSH1 0x40 MLOAD PUSH32 0x8C379A000000000000000000000000000000000000000000000000000000000 DUP2 MSTORE PUSH1 0x4 ADD PUSH2 0xD8B SWAP1 PUSH2 0x1E82 JUMP JUMPDEST PUSH1 0x40 MLOAD DUP1 SWAP2 SUB SWAP1 REVERT JUMPDEST PUSH1 0x2 PUSH1 0x9 PUSH1 0x0 PUSH2 0x100 EXP DUP2 SLOAD DUP2 PUSH1 0xFF MUL NOT AND SWAP1 DUP4 PUSH1 0x4 DUP2 GT ISZERO PUSH2 0xDBA JUMPI PUSH2 0xDB9 PUSH2 0x237E JUMP JUMPDEST JUMPDEST MUL OR SWAP1 SSTORE POP POP JUMP JUMPDEST PUSH1 0x0 DUP1 SLOAD SWAP1 PUSH2 0x100 EXP SWAP1 DIV PUSH20 0xFFFFFFFFFFFFFFFFFFFFFFFFFFFFFFFFFFFFFFFF AND DUP2 JUMP JUMPDEST PUSH1 0x0 DUP1 PUSH1 0x4 DUP2 GT ISZERO PUSH2 0xDFB JUMPI PUSH2 0xDFA PUSH2 0x237E JUMP JUMPDEST JUMPDEST PUSH1 0x9 PUSH1 0x0 SWAP1 SLOAD SWAP1 PUSH2 0x100 EXP SWAP1 DIV PUSH1 0xFF AND PUSH1 0x4 DUP2 GT ISZERO PUSH2 0xE1D JUMPI PUSH2 0xE1C PUSH2 0x237E JUMP JUMPDEST JUMPDEST EQ PUSH2 0xE5D JUMPI PUSH1 0x40 MLOAD PUSH32 0x8C379A000000000000000000000000000000000000000000000000000000000 DUP2 MSTORE PUSH1 0x4 ADD PUSH2 0xE54 SWAP1 PUSH2 0x1E82 JUMP JUMPDEST PUSH1 0x40 MLOAD DUP1 SWAP2 SUB SWAP1 REVERT JUMPDEST PUSH1 0x0 JUMPDEST PUSH1 0x8 DUP2 LT ISZERO PUSH2 0xF87 JUMPI PUSH1 0x0 DUP6 DUP3 PUSH1 0x8 DUP2 LT PUSH2 0xE7E JUMPI PUSH2 0xE7D PUSH2 0x23DC JUMP JUMPDEST JUMPDEST PUSH1 0x20 MUL ADD MLOAD MLOAD EQ ISZERO PUSH2 0xE98 JUMPI PUSH2 0xE92 PUSH2 0xB13 JUMP JUMPDEST POP PUSH2 0xF89 JUMP JUMPDEST PUSH1 0xA PUSH1 0x40 MLOAD DUP1 PUSH1 0x60 ADD PUSH1 0x40 MSTORE DUP1 DUP7 DUP5 PUSH1 0x8 DUP2 LT PUSH2 0xEB8 JUMPI PUSH2 0xEB7 PUSH2 0x23DC JUMP JUMPDEST JUMPDEST PUSH1 0x20 MUL ADD MLOAD DUP2 MSTORE PUSH1 0x20 ADD PUSH1 0xB DUP7 DUP6 PUSH1 0x8 DUP2 LT PUSH2 0xED7 JUMPI PUSH2 0xED6 PUSH2 0x23DC JUMP JUMPDEST JUMPDEST PUSH1 0x20 MUL ADD MLOAD PUSH1 0x40 MLOAD PUSH2 0xEE9 SWAP2 SWAP1 PUSH2 0x1C29 JUMP JUMPDEST SWAP1 DUP2 MSTORE PUSH1 0x20 ADD PUSH1 0x40 MLOAD DUP1 SWAP2 SUB SWAP1 KECCAK256 SLOAD DUP2 MSTORE PUSH1 0x20 ADD DUP8 DUP5 PUSH1 0x8 DUP2 LT PUSH2 0xF10 JUMPI PUSH2 0xF0F PUSH2 0x23DC JUMP JUMPDEST JUMPDEST PUSH1 0x20 MUL ADD MLOAD DUP2 MSTORE POP SWAP1 DUP1 PUSH1 0x1 DUP2 SLOAD ADD DUP1 DUP3 SSTORE DUP1 SWAP2 POP POP PUSH1 0x1 SWAP1 SUB SWAP1 PUSH1 0x0 MSTORE PUSH1 0x20 PUSH1 0x0 KECCAK256 SWAP1 PUSH1 0x3 MUL ADD PUSH1 0x0 SWAP1 SWAP2 SWAP1 SWAP2 SWAP1 SWAP2 POP PUSH1 0x0 DUP3 ADD MLOAD DUP2 PUSH1 0x0 ADD SSTORE PUSH1 0x20 DUP3 ADD MLOAD DUP2 PUSH1 0x1 ADD SSTORE PUSH1 0x40 DUP3 ADD MLOAD DUP2 PUSH1 0x2 ADD SWAP1 DUP1 MLOAD SWAP1 PUSH1 0x20 ADD SWAP1 PUSH2 0xF71 SWAP3 SWAP2 SWAP1 PUSH2 0x1507 JUMP JUMPDEST POP POP POP DUP1 DUP1 PUSH2 0xF7F SWAP1 PUSH2 0x22D7 JUMP JUMPDEST SWAP2 POP POP PUSH2 0xE60 JUMP JUMPDEST POP JUMPDEST POP POP POP POP JUMP JUMPDEST PUSH1 0x0 DUP1 PUSH1 0x0 DUP1 PUSH1 0x0 DUP1 PUSH1 0x0 DUP1 PUSH1 0x1 PUSH1 0x0 SWAP1 SLOAD SWAP1 PUSH2 0x100 EXP SWAP1 DIV PUSH20 0xFFFFFFFFFFFFFFFFFFFFFFFFFFFFFFFFFFFFFFFF AND PUSH1 0x2 PUSH1 0x0 SWAP1 SLOAD SWAP1 PUSH2 0x100 EXP SWAP1 DIV PUSH20 0xFFFFFFFFFFFFFFFFFFFFFFFFFFFFFFFFFFFFFFFF AND PUSH1 0x3 SLOAD PUSH1 0x4 SLOAD PUSH1 0x5 SLOAD PUSH1 0x6 SLOAD PUSH1 0x7 SLOAD PUSH1 0x8 SLOAD SWAP8 POP SWAP8 POP SWAP8 POP SWAP8 POP SWAP8 POP SWAP8 POP SWAP8 POP SWAP8 POP SWAP1 SWAP2 SWAP3 SWAP4 SWAP5 SWAP6 SWAP7 SWAP8 JUMP JUMPDEST PUSH1 0x3 DUP1 PUSH1 0x4 DUP2 GT ISZERO PUSH2 0x1022 JUMPI PUSH2 0x1021 PUSH2 0x237E JUMP JUMPDEST JUMPDEST PUSH1 0x9 PUSH1 0x0 SWAP1 SLOAD SWAP1 PUSH2 0x100 EXP SWAP1 DIV PUSH1 0xFF AND PUSH1 0x4 DUP2 GT ISZERO PUSH2 0x1044 JUMPI PUSH2 0x1043 PUSH2 0x237E JUMP JUMPDEST JUMPDEST EQ PUSH2 0x1084 JUMPI PUSH1 0x40 MLOAD PUSH32 0x8C379A000000000000000000000000000000000000000000000000000000000 DUP2 MSTORE PUSH1 0x4 ADD PUSH2 0x107B SWAP1 PUSH2 0x1E82 JUMP JUMPDEST PUSH1 0x40 MLOAD DUP1 SWAP2 SUB SWAP1 REVERT JUMPDEST PUSH1 0x0 JUMPDEST PUSH1 0xA DUP1 SLOAD SWAP1 POP DUP2 LT ISZERO PUSH2 0x11A0 JUMPI PUSH1 0x0 PUSH1 0xA DUP3 DUP2 SLOAD DUP2 LT PUSH2 0x10AA JUMPI PUSH2 0x10A9 PUSH2 0x23DC JUMP JUMPDEST JUMPDEST SWAP1 PUSH1 0x0 MSTORE PUSH1 0x20 PUSH1 0x0 KECCAK256 SWAP1 PUSH1 0x3 MUL ADD PUSH1 0x1 ADD SLOAD SWAP1 POP PUSH1 0x0 PUSH1 0xA DUP4 DUP2 SLOAD DUP2 LT PUSH2 0x10D4 JUMPI PUSH2 0x10D3 PUSH2 0x23DC JUMP JUMPDEST JUMPDEST SWAP1 PUSH1 0x0 MSTORE PUSH1 0x20 PUSH1 0x0 KECCAK256 SWAP1 PUSH1 0x3 MUL ADD PUSH1 0x0 ADD SLOAD SWAP1 POP PUSH1 0x0 PUSH1 0xD SLOAD PUSH1 0xC PUSH1 0x0 DUP7 DUP2 MSTORE PUSH1 0x20 ADD SWAP1 DUP2 MSTORE PUSH1 0x20 ADD PUSH1 0x0 KECCAK256 SLOAD PUSH2 0x110B SWAP2 SWAP1 PUSH2 0x209C JUMP JUMPDEST SWAP1 POP PUSH2 0x1118 DUP4 DUP3 DUP5 PUSH2 0x1315 JUMP JUMPDEST PUSH2 0x118A JUMPI PUSH2 0x1124 PUSH2 0x139F JUMP JUMPDEST CALLER PUSH20 0xFFFFFFFFFFFFFFFFFFFFFFFFFFFFFFFFFFFFFFFF AND PUSH32 0xA84226BF2D14BDE3FAC454F52EAEAB63AAEB1934DA88F9263DD4FF7DD12ACF71 PUSH1 0x9 PUSH1 0x1 SWAP1 SLOAD SWAP1 PUSH2 0x100 EXP SWAP1 DIV PUSH1 0xFF AND PUSH1 0x40 MLOAD PUSH2 0x1179 SWAP2 SWAP1 PUSH2 0x1D8D JUMP JUMPDEST PUSH1 0x40 MLOAD DUP1 SWAP2 SUB SWAP1 LOG2 POP POP POP POP PUSH2 0x1222 JUMP JUMPDEST POP POP POP DUP1 DUP1 PUSH2 0x1198 SWAP1 PUSH2 0x22D7 JUMP JUMPDEST SWAP2 POP POP PUSH2 0x1087 JUMP JUMPDEST POP PUSH1 0x1 PUSH1 0x9 PUSH1 0x1 PUSH2 0x100 EXP DUP2 SLOAD DUP2 PUSH1 0xFF MUL NOT AND SWAP1 DUP4 ISZERO ISZERO MUL OR SWAP1 SSTORE POP CALLER PUSH20 0xFFFFFFFFFFFFFFFFFFFFFFFFFFFFFFFFFFFFFFFF AND PUSH32 0xA84226BF2D14BDE3FAC454F52EAEAB63AAEB1934DA88F9263DD4FF7DD12ACF71 PUSH1 0x9 PUSH1 0x1 SWAP1 SLOAD SWAP1 PUSH2 0x100 EXP SWAP1 DIV PUSH1 0xFF AND PUSH1 0x40 MLOAD PUSH2 0x1211 SWAP2 SWAP1 PUSH2 0x1DBB JUMP JUMPDEST PUSH1 0x40 MLOAD DUP1 SWAP2 SUB SWAP1 LOG2 PUSH2 0x1221 PUSH2 0x1414 JUMP JUMPDEST JUMPDEST POP JUMP JUMPDEST PUSH1 0x0 PUSH2 0x1900 DUP3 PUSH2 0x1235 SWAP2 SWAP1 PUSH2 0x2106 JUMP JUMPDEST NUMBER PUSH2 0x1240 SWAP2 SWAP1 PUSH2 0x2046 JUMP JUMPDEST SWAP1 POP SWAP2 SWAP1 POP JUMP JUMPDEST PUSH1 0x1 PUSH1 0xB PUSH1 0x40 MLOAD PUSH2 0x1257 SWAP1 PUSH2 0x1CA9 JUMP JUMPDEST SWAP1 DUP2 MSTORE PUSH1 0x20 ADD PUSH1 0x40 MLOAD DUP1 SWAP2 SUB SWAP1 KECCAK256 DUP2 SWAP1 SSTORE POP PUSH1 0x2 PUSH1 0xB PUSH1 0x40 MLOAD PUSH2 0x1279 SWAP1 PUSH2 0x1C40 JUMP JUMPDEST SWAP1 DUP2 MSTORE PUSH1 0x20 ADD PUSH1 0x40 MLOAD DUP1 SWAP2 SUB SWAP1 KECCAK256 DUP2 SWAP1 SSTORE POP PUSH1 0x3 PUSH1 0xB PUSH1 0x40 MLOAD PUSH2 0x129B SWAP1 PUSH2 0x1C7F JUMP JUMPDEST SWAP1 DUP2 MSTORE PUSH1 0x20 ADD PUSH1 0x40 MLOAD DUP1 SWAP2 SUB SWAP1 KECCAK256 DUP2 SWAP1 SSTORE POP PUSH1 0x4 PUSH1 0xB PUSH1 0x40 MLOAD PUSH2 0x12BD SWAP1 PUSH2 0x1C55 JUMP JUMPDEST SWAP1 DUP2 MSTORE PUSH1 0x20 ADD PUSH1 0x40 MLOAD DUP1 SWAP2 SUB SWAP1 KECCAK256 DUP2 SWAP1 SSTORE POP PUSH1 0x5 PUSH1 0xB PUSH1 0x40 MLOAD PUSH2 0x12DF SWAP1 PUSH2 0x1C6A JUMP JUMPDEST SWAP1 DUP2 MSTORE PUSH1 0x20 ADD PUSH1 0x40 MLOAD DUP1 SWAP2 SUB SWAP1 KECCAK256 DUP2 SWAP1 SSTORE POP PUSH1 0x6 PUSH1 0xB PUSH1 0x40 MLOAD PUSH2 0x1301 SWAP1 PUSH2 0x1C94 JUMP JUMPDEST SWAP1 DUP2 MSTORE PUSH1 0x20 ADD PUSH1 0x40 MLOAD DUP1 SWAP2 SUB SWAP1 KECCAK256 DUP2 SWAP1 SSTORE POP JUMP JUMPDEST PUSH1 0x0 PUSH32 0xFFFFFFFFFFFFFFFFFFFFFFFFFFFFFFFFFFFFFFFFFFFFFFFFFFFFFFFFFFFFFFFF DUP5 EQ PUSH2 0x1393 JUMPI PUSH1 0x1 DUP1 DUP6 AND EQ ISZERO PUSH2 0x135A JUMPI DUP2 DUP4 SGT PUSH2 0x1359 JUMPI PUSH1 0x0 SWAP1 POP PUSH2 0x1398 JUMP JUMPDEST JUMPDEST PUSH1 0x2 DUP1 DUP6 AND EQ ISZERO PUSH2 0x1376 JUMPI DUP2 DUP4 EQ PUSH2 0x1375 JUMPI PUSH1 0x0 SWAP1 POP PUSH2 0x1398 JUMP JUMPDEST JUMPDEST PUSH1 0x4 DUP1 DUP6 AND EQ ISZERO PUSH2 0x1392 JUMPI DUP2 DUP4 SLT PUSH2 0x1391 JUMPI PUSH1 0x0 SWAP1 POP PUSH2 0x1398 JUMP JUMPDEST JUMPDEST JUMPDEST PUSH1 0x1 SWAP1 POP JUMPDEST SWAP4 SWAP3 POP POP POP JUMP JUMPDEST PUSH1 0x1 PUSH1 0x0 SWAP1 SLOAD SWAP1 PUSH2 0x100 EXP SWAP1 DIV PUSH20 0xFFFFFFFFFFFFFFFFFFFFFFFFFFFFFFFFFFFFFFFF AND PUSH20 0xFFFFFFFFFFFFFFFFFFFFFFFFFFFFFFFFFFFFFFFF AND PUSH2 0x8FC PUSH1 0x5 SLOAD SWAP1 DUP2 ISZERO MUL SWAP1 PUSH1 0x40 MLOAD PUSH1 0x0 PUSH1 0x40 MLOAD DUP1 DUP4 SUB DUP2 DUP6 DUP9 DUP9 CALL SWAP4 POP POP POP POP ISZERO DUP1 ISZERO PUSH2 0x1409 JUMPI RETURNDATASIZE PUSH1 0x0 DUP1 RETURNDATACOPY RETURNDATASIZE PUSH1 0x0 REVERT JUMPDEST POP PUSH2 0x1412 PUSH2 0x1489 JUMP JUMPDEST JUMP JUMPDEST PUSH1 0x2 PUSH1 0x0 SWAP1 SLOAD SWAP1 PUSH2 0x100 EXP SWAP1 DIV PUSH20 0xFFFFFFFFFFFFFFFFFFFFFFFFFFFFFFFFFFFFFFFF AND PUSH20 0xFFFFFFFFFFFFFFFFFFFFFFFFFFFFFFFFFFFFFFFF AND PUSH2 0x8FC PUSH1 0x5 SLOAD SWAP1 DUP2 ISZERO MUL SWAP1 PUSH1 0x40 MLOAD PUSH1 0x0 PUSH1 0x40 MLOAD DUP1 DUP4 SUB DUP2 DUP6 DUP9 DUP9 CALL SWAP4 POP POP POP POP ISZERO DUP1 ISZERO PUSH2 0x147E JUMPI RETURNDATASIZE PUSH1 0x0 DUP1 RETURNDATACOPY RETURNDATASIZE PUSH1 0x0 REVERT JUMPDEST POP PUSH2 0x1487 PUSH2 0x1489 JUMP JUMPDEST JUMP JUMPDEST PUSH1 0x4 SLOAD NUMBER LT ISZERO PUSH2 0x14DA JUMPI PUSH1 0x0 PUSH1 0x9 PUSH1 0x1 PUSH2 0x100 EXP DUP2 SLOAD DUP2 PUSH1 0xFF MUL NOT AND SWAP1 DUP4 ISZERO ISZERO MUL OR SWAP1 SSTORE POP PUSH1 0x7 SLOAD PUSH1 0x6 DUP2 SWAP1 SSTORE POP PUSH2 0x1900 PUSH1 0x1E PUSH2 0x14C6 SWAP2 SWAP1 PUSH2 0x2106 JUMP JUMPDEST PUSH1 0x7 SLOAD PUSH2 0x14D3 SWAP2 SWAP1 PUSH2 0x2046 JUMP JUMPDEST PUSH1 0x7 DUP2 SWAP1 SSTORE POP JUMPDEST PUSH1 0x4 PUSH1 0x9 PUSH1 0x0 PUSH2 0x100 EXP DUP2 SLOAD DUP2 PUSH1 0xFF MUL NOT AND SWAP1 DUP4 PUSH1 0x4 DUP2 GT ISZERO PUSH2 0x1500 JUMPI PUSH2 0x14FF PUSH2 0x237E JUMP JUMPDEST JUMPDEST MUL OR SWAP1 SSTORE POP JUMP JUMPDEST DUP3 DUP1 SLOAD PUSH2 0x1513 SWAP1 PUSH2 0x222B JUMP JUMPDEST SWAP1 PUSH1 0x0 MSTORE PUSH1 0x20 PUSH1 0x0 KECCAK256 SWAP1 PUSH1 0x1F ADD PUSH1 0x20 SWAP1 DIV DUP2 ADD SWAP3 DUP3 PUSH2 0x1535 JUMPI PUSH1 0x0 DUP6 SSTORE PUSH2 0x157C JUMP JUMPDEST DUP3 PUSH1 0x1F LT PUSH2 0x154E JUMPI DUP1 MLOAD PUSH1 0xFF NOT AND DUP4 DUP1 ADD OR DUP6 SSTORE PUSH2 0x157C JUMP JUMPDEST DUP3 DUP1 ADD PUSH1 0x1 ADD DUP6 SSTORE DUP3 ISZERO PUSH2 0x157C JUMPI SWAP2 DUP3 ADD JUMPDEST DUP3 DUP2 GT ISZERO PUSH2 0x157B JUMPI DUP3 MLOAD DUP3 SSTORE SWAP2 PUSH1 0x20 ADD SWAP2 SWAP1 PUSH1 0x1 ADD SWAP1 PUSH2 0x1560 JUMP JUMPDEST JUMPDEST POP SWAP1 POP PUSH2 0x1589 SWAP2 SWAP1 PUSH2 0x158D JUMP JUMPDEST POP SWAP1 JUMP JUMPDEST JUMPDEST DUP1 DUP3 GT ISZERO PUSH2 0x15A6 JUMPI PUSH1 0x0 DUP2 PUSH1 0x0 SWAP1 SSTORE POP PUSH1 0x1 ADD PUSH2 0x158E JUMP JUMPDEST POP SWAP1 JUMP JUMPDEST PUSH1 0x0 PUSH2 0x15BD PUSH2 0x15B8 DUP5 PUSH2 0x1EE2 JUMP JUMPDEST PUSH2 0x1EBD JUMP JUMPDEST SWAP1 POP DUP1 DUP3 DUP6 PUSH1 0x20 DUP7 MUL DUP3 ADD GT ISZERO PUSH2 0x15D7 JUMPI PUSH2 0x15D6 PUSH2 0x243F JUMP JUMPDEST JUMPDEST PUSH1 0x0 JUMPDEST DUP6 DUP2 LT ISZERO PUSH2 0x1607 JUMPI DUP2 PUSH2 0x15ED DUP9 DUP3 PUSH2 0x17E1 JUMP JUMPDEST DUP5 MSTORE PUSH1 0x20 DUP5 ADD SWAP4 POP PUSH1 0x20 DUP4 ADD SWAP3 POP POP PUSH1 0x1 DUP2 ADD SWAP1 POP PUSH2 0x15DA JUMP JUMPDEST POP POP POP SWAP4 SWAP3 POP POP POP JUMP JUMPDEST PUSH1 0x0 PUSH2 0x1624 PUSH2 0x161F DUP5 PUSH2 0x1F08 JUMP JUMPDEST PUSH2 0x1EBD JUMP JUMPDEST SWAP1 POP DUP1 DUP4 DUP3 MSTORE PUSH1 0x20 DUP3 ADD SWAP1 POP DUP3 DUP6 PUSH1 0x20 DUP7 MUL DUP3 ADD GT ISZERO PUSH2 0x1647 JUMPI PUSH2 0x1646 PUSH2 0x243F JUMP JUMPDEST JUMPDEST PUSH1 0x0 JUMPDEST DUP6 DUP2 LT ISZERO PUSH2 0x1677 JUMPI DUP2 PUSH2 0x165D DUP9 DUP3 PUSH2 0x17E1 JUMP JUMPDEST DUP5 MSTORE PUSH1 0x20 DUP5 ADD SWAP4 POP PUSH1 0x20 DUP4 ADD SWAP3 POP POP PUSH1 0x1 DUP2 ADD SWAP1 POP PUSH2 0x164A JUMP JUMPDEST POP POP POP SWAP4 SWAP3 POP POP POP JUMP JUMPDEST PUSH1 0x0 PUSH2 0x1694 PUSH2 0x168F DUP5 PUSH2 0x1F34 JUMP JUMPDEST PUSH2 0x1EBD JUMP JUMPDEST SWAP1 POP DUP1 DUP3 DUP6 PUSH1 0x20 DUP7 MUL DUP3 ADD GT ISZERO PUSH2 0x16AE JUMPI PUSH2 0x16AD PUSH2 0x243F JUMP JUMPDEST JUMPDEST PUSH1 0x0 JUMPDEST DUP6 DUP2 LT ISZERO PUSH2 0x16FC JUMPI DUP2 CALLDATALOAD PUSH8 0xFFFFFFFFFFFFFFFF DUP2 GT ISZERO PUSH2 0x16D4 JUMPI PUSH2 0x16D3 PUSH2 0x243A JUMP JUMPDEST JUMPDEST DUP1 DUP7 ADD PUSH2 0x16E1 DUP10 DUP3 PUSH2 0x17F6 JUMP JUMPDEST DUP6 MSTORE PUSH1 0x20 DUP6 ADD SWAP5 POP PUSH1 0x20 DUP5 ADD SWAP4 POP POP POP PUSH1 0x1 DUP2 ADD SWAP1 POP PUSH2 0x16B1 JUMP JUMPDEST POP POP POP SWAP4 SWAP3 POP POP POP JUMP JUMPDEST PUSH1 0x0 PUSH2 0x1719 PUSH2 0x1714 DUP5 PUSH2 0x1F5A JUMP JUMPDEST PUSH2 0x1EBD JUMP JUMPDEST SWAP1 POP DUP3 DUP2 MSTORE PUSH1 0x20 DUP2 ADD DUP5 DUP5 DUP5 ADD GT ISZERO PUSH2 0x1735 JUMPI PUSH2 0x1734 PUSH2 0x2444 JUMP JUMPDEST JUMPDEST PUSH2 0x1740 DUP5 DUP3 DUP6 PUSH2 0x21E9 JUMP JUMPDEST POP SWAP4 SWAP3 POP POP POP JUMP JUMPDEST PUSH1 0x0 DUP2 CALLDATALOAD SWAP1 POP PUSH2 0x1757 DUP2 PUSH2 0x2687 JUMP JUMPDEST SWAP3 SWAP2 POP POP JUMP JUMPDEST PUSH1 0x0 DUP3 PUSH1 0x1F DUP4 ADD SLT PUSH2 0x1772 JUMPI PUSH2 0x1771 PUSH2 0x243A JUMP JUMPDEST JUMPDEST PUSH1 0x8 PUSH2 0x177F DUP5 DUP3 DUP6 PUSH2 0x15AA JUMP JUMPDEST SWAP2 POP POP SWAP3 SWAP2 POP POP JUMP JUMPDEST PUSH1 0x0 DUP3 PUSH1 0x1F DUP4 ADD SLT PUSH2 0x179D JUMPI PUSH2 0x179C PUSH2 0x243A JUMP JUMPDEST JUMPDEST DUP2 CALLDATALOAD PUSH2 0x17AD DUP5 DUP3 PUSH1 0x20 DUP7 ADD PUSH2 0x1611 JUMP JUMPDEST SWAP2 POP POP SWAP3 SWAP2 POP POP JUMP JUMPDEST PUSH1 0x0 DUP3 PUSH1 0x1F DUP4 ADD SLT PUSH2 0x17CB JUMPI PUSH2 0x17CA PUSH2 0x243A JUMP JUMPDEST JUMPDEST PUSH1 0x8 PUSH2 0x17D8 DUP5 DUP3 DUP6 PUSH2 0x1681 JUMP JUMPDEST SWAP2 POP POP SWAP3 SWAP2 POP POP JUMP JUMPDEST PUSH1 0x0 DUP2 CALLDATALOAD SWAP1 POP PUSH2 0x17F0 DUP2 PUSH2 0x269E JUMP JUMPDEST SWAP3 SWAP2 POP POP JUMP JUMPDEST PUSH1 0x0 DUP3 PUSH1 0x1F DUP4 ADD SLT PUSH2 0x180B JUMPI PUSH2 0x180A PUSH2 0x243A JUMP JUMPDEST JUMPDEST DUP2 CALLDATALOAD PUSH2 0x181B DUP5 DUP3 PUSH1 0x20 DUP7 ADD PUSH2 0x1706 JUMP JUMPDEST SWAP2 POP POP SWAP3 SWAP2 POP POP JUMP JUMPDEST PUSH1 0x0 DUP2 CALLDATALOAD SWAP1 POP PUSH2 0x1833 DUP2 PUSH2 0x26B5 JUMP JUMPDEST SWAP3 SWAP2 POP POP JUMP JUMPDEST PUSH1 0x0 PUSH1 0x20 DUP3 DUP5 SUB SLT ISZERO PUSH2 0x184F JUMPI PUSH2 0x184E PUSH2 0x244E JUMP JUMPDEST JUMPDEST PUSH1 0x0 PUSH2 0x185D DUP5 DUP3 DUP6 ADD PUSH2 0x1748 JUMP JUMPDEST SWAP2 POP POP SWAP3 SWAP2 POP POP JUMP JUMPDEST PUSH1 0x0 DUP1 PUSH1 0x0 DUP1 PUSH1 0x0 PUSH1 0xA0 DUP7 DUP9 SUB SLT ISZERO PUSH2 0x1882 JUMPI PUSH2 0x1881 PUSH2 0x244E JUMP JUMPDEST JUMPDEST PUSH1 0x0 PUSH2 0x1890 DUP9 DUP3 DUP10 ADD PUSH2 0x1748 JUMP JUMPDEST SWAP6 POP POP PUSH1 0x20 PUSH2 0x18A1 DUP9 DUP3 DUP10 ADD PUSH2 0x1824 JUMP JUMPDEST SWAP5 POP POP PUSH1 0x40 PUSH2 0x18B2 DUP9 DUP3 DUP10 ADD PUSH2 0x1824 JUMP JUMPDEST SWAP4 POP POP PUSH1 0x60 PUSH2 0x18C3 DUP9 DUP3 DUP10 ADD PUSH2 0x1824 JUMP JUMPDEST SWAP3 POP POP PUSH1 0x80 PUSH2 0x18D4 DUP9 DUP3 DUP10 ADD PUSH2 0x1824 JUMP JUMPDEST SWAP2 POP POP SWAP3 SWAP6 POP SWAP3 SWAP6 SWAP1 SWAP4 POP JUMP JUMPDEST PUSH1 0x0 PUSH1 0x20 DUP3 DUP5 SUB SLT ISZERO PUSH2 0x18F7 JUMPI PUSH2 0x18F6 PUSH2 0x244E JUMP JUMPDEST JUMPDEST PUSH1 0x0 DUP3 ADD CALLDATALOAD PUSH8 0xFFFFFFFFFFFFFFFF DUP2 GT ISZERO PUSH2 0x1915 JUMPI PUSH2 0x1914 PUSH2 0x2449 JUMP JUMPDEST JUMPDEST PUSH2 0x1921 DUP5 DUP3 DUP6 ADD PUSH2 0x1788 JUMP JUMPDEST SWAP2 POP POP SWAP3 SWAP2 POP POP JUMP JUMPDEST PUSH1 0x0 DUP1 PUSH1 0x0 PUSH2 0x140 DUP5 DUP7 SUB SLT ISZERO PUSH2 0x1944 JUMPI PUSH2 0x1943 PUSH2 0x244E JUMP JUMPDEST JUMPDEST PUSH1 0x0 DUP5 ADD CALLDATALOAD PUSH8 0xFFFFFFFFFFFFFFFF DUP2 GT ISZERO PUSH2 0x1962 JUMPI PUSH2 0x1961 PUSH2 0x2449 JUMP JUMPDEST JUMPDEST PUSH2 0x196E DUP7 DUP3 DUP8 ADD PUSH2 0x17B6 JUMP JUMPDEST SWAP4 POP POP PUSH1 0x20 PUSH2 0x197F DUP7 DUP3 DUP8 ADD PUSH2 0x175D JUMP JUMPDEST SWAP3 POP POP PUSH2 0x120 DUP5 ADD CALLDATALOAD PUSH8 0xFFFFFFFFFFFFFFFF DUP2 GT ISZERO PUSH2 0x19A1 JUMPI PUSH2 0x19A0 PUSH2 0x2449 JUMP JUMPDEST JUMPDEST PUSH2 0x19AD DUP7 DUP3 DUP8 ADD PUSH2 0x17B6 JUMP JUMPDEST SWAP2 POP POP SWAP3 POP SWAP3 POP SWAP3 JUMP JUMPDEST PUSH1 0x0 PUSH1 0x20 DUP3 DUP5 SUB SLT ISZERO PUSH2 0x19CD JUMPI PUSH2 0x19CC PUSH2 0x244E JUMP JUMPDEST JUMPDEST PUSH1 0x0 PUSH2 0x19DB DUP5 DUP3 DUP6 ADD PUSH2 0x1824 JUMP JUMPDEST SWAP2 POP POP SWAP3 SWAP2 POP POP JUMP JUMPDEST PUSH2 0x19ED DUP2 PUSH2 0x2172 JUMP JUMPDEST DUP3 MSTORE POP POP JUMP JUMPDEST PUSH2 0x19FC DUP2 PUSH2 0x2160 JUMP JUMPDEST DUP3 MSTORE POP POP JUMP JUMPDEST PUSH2 0x1A0B DUP2 PUSH2 0x2184 JUMP JUMPDEST DUP3 MSTORE POP POP JUMP JUMPDEST PUSH2 0x1A1A DUP2 PUSH2 0x21D7 JUMP JUMPDEST DUP3 MSTORE POP POP JUMP JUMPDEST PUSH2 0x1A29 DUP2 PUSH2 0x21A3 JUMP JUMPDEST DUP3 MSTORE POP POP JUMP JUMPDEST PUSH1 0x0 PUSH2 0x1A3A DUP3 PUSH2 0x1F8B JUMP JUMPDEST PUSH2 0x1A44 DUP2 DUP6 PUSH2 0x1F96 JUMP JUMPDEST SWAP4 POP PUSH2 0x1A54 DUP2 DUP6 PUSH1 0x20 DUP7 ADD PUSH2 0x21F8 JUMP JUMPDEST PUSH2 0x1A5D DUP2 PUSH2 0x2453 JUMP JUMPDEST DUP5 ADD SWAP2 POP POP SWAP3 SWAP2 POP POP JUMP JUMPDEST PUSH1 0x0 PUSH2 0x1A73 DUP3 PUSH2 0x1F8B JUMP JUMPDEST PUSH2 0x1A7D DUP2 DUP6 PUSH2 0x1FA7 JUMP JUMPDEST SWAP4 POP PUSH2 0x1A8D DUP2 DUP6 PUSH1 0x20 DUP7 ADD PUSH2 0x21F8 JUMP JUMPDEST DUP1 DUP5 ADD SWAP2 POP POP SWAP3 SWAP2 POP POP JUMP JUMPDEST PUSH1 0x0 PUSH2 0x1AA6 PUSH1 0x36 DUP4 PUSH2 0x1F96 JUMP JUMPDEST SWAP2 POP PUSH2 0x1AB1 DUP3 PUSH2 0x2464 JUMP JUMPDEST PUSH1 0x40 DUP3 ADD SWAP1 POP SWAP2 SWAP1 POP JUMP JUMPDEST PUSH1 0x0 PUSH2 0x1AC9 PUSH1 0x12 DUP4 PUSH2 0x1F96 JUMP JUMPDEST SWAP2 POP PUSH2 0x1AD4 DUP3 PUSH2 0x24B3 JUMP JUMPDEST PUSH1 0x20 DUP3 ADD SWAP1 POP SWAP2 SWAP1 POP JUMP JUMPDEST PUSH1 0x0 PUSH2 0x1AEC PUSH1 0x10 DUP4 PUSH2 0x1F96 JUMP JUMPDEST SWAP2 POP PUSH2 0x1AF7 DUP3 PUSH2 0x24DC JUMP JUMPDEST PUSH1 0x20 DUP3 ADD SWAP1 POP SWAP2 SWAP1 POP JUMP JUMPDEST PUSH1 0x0 PUSH2 0x1B0F PUSH1 0x2 DUP4 PUSH2 0x1FA7 JUMP JUMPDEST SWAP2 POP PUSH2 0x1B1A DUP3 PUSH2 0x2505 JUMP JUMPDEST PUSH1 0x2 DUP3 ADD SWAP1 POP SWAP2 SWAP1 POP JUMP JUMPDEST PUSH1 0x0 PUSH2 0x1B32 PUSH1 0x1 DUP4 PUSH2 0x1FA7 JUMP JUMPDEST SWAP2 POP PUSH2 0x1B3D DUP3 PUSH2 0x252E JUMP JUMPDEST PUSH1 0x1 DUP3 ADD SWAP1 POP SWAP2 SWAP1 POP JUMP JUMPDEST PUSH1 0x0 PUSH2 0x1B55 PUSH1 0x2 DUP4 PUSH2 0x1FA7 JUMP JUMPDEST SWAP2 POP PUSH2 0x1B60 DUP3 PUSH2 0x2557 JUMP JUMPDEST PUSH1 0x2 DUP3 ADD SWAP1 POP SWAP2 SWAP1 POP JUMP JUMPDEST PUSH1 0x0 PUSH2 0x1B78 PUSH1 0x2 DUP4 PUSH2 0x1FA7 JUMP JUMPDEST SWAP2 POP PUSH2 0x1B83 DUP3 PUSH2 0x2580 JUMP JUMPDEST PUSH1 0x2 DUP3 ADD SWAP1 POP SWAP2 SWAP1 POP JUMP JUMPDEST PUSH1 0x0 PUSH2 0x1B9B PUSH1 0x2 DUP4 PUSH2 0x1FA7 JUMP JUMPDEST SWAP2 POP PUSH2 0x1BA6 DUP3 PUSH2 0x25A9 JUMP JUMPDEST PUSH1 0x2 DUP3 ADD SWAP1 POP SWAP2 SWAP1 POP JUMP JUMPDEST PUSH1 0x0 PUSH2 0x1BBE PUSH1 0x1 DUP4 PUSH2 0x1FA7 JUMP JUMPDEST SWAP2 POP PUSH2 0x1BC9 DUP3 PUSH2 0x25D2 JUMP JUMPDEST PUSH1 0x1 DUP3 ADD SWAP1 POP SWAP2 SWAP1 POP JUMP JUMPDEST PUSH1 0x0 PUSH2 0x1BE1 PUSH1 0x1D DUP4 PUSH2 0x1F96 JUMP JUMPDEST SWAP2 POP PUSH2 0x1BEC DUP3 PUSH2 0x25FB JUMP JUMPDEST PUSH1 0x20 DUP3 ADD SWAP1 POP SWAP2 SWAP1 POP JUMP JUMPDEST PUSH1 0x0 PUSH2 0x1C04 PUSH1 0x25 DUP4 PUSH2 0x1F96 JUMP JUMPDEST SWAP2 POP PUSH2 0x1C0F DUP3 PUSH2 0x2624 JUMP JUMPDEST PUSH1 0x40 DUP3 ADD SWAP1 POP SWAP2 SWAP1 POP JUMP JUMPDEST PUSH2 0x1C23 DUP2 PUSH2 0x21CD JUMP JUMPDEST DUP3 MSTORE POP POP JUMP JUMPDEST PUSH1 0x0 PUSH2 0x1C35 DUP3 DUP5 PUSH2 0x1A68 JUMP JUMPDEST SWAP2 POP DUP2 SWAP1 POP SWAP3 SWAP2 POP POP JUMP JUMPDEST PUSH1 0x0 PUSH2 0x1C4B DUP3 PUSH2 0x1B02 JUMP JUMPDEST SWAP2 POP DUP2 SWAP1 POP SWAP2 SWAP1 POP JUMP JUMPDEST PUSH1 0x0 PUSH2 0x1C60 DUP3 PUSH2 0x1B25 JUMP JUMPDEST SWAP2 POP DUP2 SWAP1 POP SWAP2 SWAP1 POP JUMP JUMPDEST PUSH1 0x0 PUSH2 0x1C75 DUP3 PUSH2 0x1B48 JUMP JUMPDEST SWAP2 POP DUP2 SWAP1 POP SWAP2 SWAP1 POP JUMP JUMPDEST PUSH1 0x0 PUSH2 0x1C8A DUP3 PUSH2 0x1B6B JUMP JUMPDEST SWAP2 POP DUP2 SWAP1 POP SWAP2 SWAP1 POP JUMP JUMPDEST PUSH1 0x0 PUSH2 0x1C9F DUP3 PUSH2 0x1B8E JUMP JUMPDEST SWAP2 POP DUP2 SWAP1 POP SWAP2 SWAP1 POP JUMP JUMPDEST PUSH1 0x0 PUSH2 0x1CB4 DUP3 PUSH2 0x1BB1 JUMP JUMPDEST SWAP2 POP DUP2 SWAP1 POP SWAP2 SWAP1 POP JUMP JUMPDEST PUSH1 0x0 PUSH1 0x20 DUP3 ADD SWAP1 POP PUSH2 0x1CD3 PUSH1 0x0 DUP4 ADD DUP5 PUSH2 0x19F3 JUMP JUMPDEST SWAP3 SWAP2 POP POP JUMP JUMPDEST PUSH1 0x0 PUSH1 0x20 DUP3 ADD SWAP1 POP PUSH2 0x1CEE PUSH1 0x0 DUP4 ADD DUP5 PUSH2 0x19E4 JUMP JUMPDEST SWAP3 SWAP2 POP POP JUMP JUMPDEST PUSH1 0x0 PUSH2 0x100 DUP3 ADD SWAP1 POP PUSH2 0x1D0A PUSH1 0x0 DUP4 ADD DUP12 PUSH2 0x19F3 JUMP JUMPDEST PUSH2 0x1D17 PUSH1 0x20 DUP4 ADD DUP11 PUSH2 0x19F3 JUMP JUMPDEST PUSH2 0x1D24 PUSH1 0x40 DUP4 ADD DUP10 PUSH2 0x1C1A JUMP JUMPDEST PUSH2 0x1D31 PUSH1 0x60 DUP4 ADD DUP9 PUSH2 0x1C1A JUMP JUMPDEST PUSH2 0x1D3E PUSH1 0x80 DUP4 ADD DUP8 PUSH2 0x1C1A JUMP JUMPDEST PUSH2 0x1D4B PUSH1 0xA0 DUP4 ADD DUP7 PUSH2 0x1C1A JUMP JUMPDEST PUSH2 0x1D58 PUSH1 0xC0 DUP4 ADD DUP6 PUSH2 0x1C1A JUMP JUMPDEST PUSH2 0x1D65 PUSH1 0xE0 DUP4 ADD DUP5 PUSH2 0x1C1A JUMP JUMPDEST SWAP10 SWAP9 POP POP POP POP POP POP POP POP POP JUMP JUMPDEST PUSH1 0x0 PUSH1 0x20 DUP3 ADD SWAP1 POP PUSH2 0x1D87 PUSH1 0x0 DUP4 ADD DUP5 PUSH2 0x1A02 JUMP JUMPDEST SWAP3 SWAP2 POP POP JUMP JUMPDEST PUSH1 0x0 PUSH1 0x40 DUP3 ADD SWAP1 POP PUSH2 0x1DA2 PUSH1 0x0 DUP4 ADD DUP5 PUSH2 0x1A02 JUMP JUMPDEST DUP2 DUP2 SUB PUSH1 0x20 DUP4 ADD MSTORE PUSH2 0x1DB3 DUP2 PUSH2 0x1ABC JUMP JUMPDEST SWAP1 POP SWAP3 SWAP2 POP POP JUMP JUMPDEST PUSH1 0x0 PUSH1 0x40 DUP3 ADD SWAP1 POP PUSH2 0x1DD0 PUSH1 0x0 DUP4 ADD DUP5 PUSH2 0x1A02 JUMP JUMPDEST DUP2 DUP2 SUB PUSH1 0x20 DUP4 ADD MSTORE PUSH2 0x1DE1 DUP2 PUSH2 0x1ADF JUMP JUMPDEST SWAP1 POP SWAP3 SWAP2 POP POP JUMP JUMPDEST PUSH1 0x0 PUSH1 0x20 DUP3 ADD SWAP1 POP PUSH2 0x1DFE PUSH1 0x0 DUP4 ADD DUP5 PUSH2 0x1A11 JUMP JUMPDEST SWAP3 SWAP2 POP POP JUMP JUMPDEST PUSH1 0x0 PUSH1 0x60 DUP3 ADD SWAP1 POP PUSH2 0x1E19 PUSH1 0x0 DUP4 ADD DUP7 PUSH2 0x1A20 JUMP JUMPDEST PUSH2 0x1E26 PUSH1 0x20 DUP4 ADD DUP6 PUSH2 0x1A20 JUMP JUMPDEST DUP2 DUP2 SUB PUSH1 0x40 DUP4 ADD MSTORE PUSH2 0x1E38 DUP2 DUP5 PUSH2 0x1A2F JUMP JUMPDEST SWAP1 POP SWAP5 SWAP4 POP POP POP POP JUMP JUMPDEST PUSH1 0x0 PUSH1 0x20 DUP3 ADD SWAP1 POP DUP2 DUP2 SUB PUSH1 0x0 DUP4 ADD MSTORE PUSH2 0x1E5B DUP2 PUSH2 0x1A99 JUMP JUMPDEST SWAP1 POP SWAP2 SWAP1 POP JUMP JUMPDEST PUSH1 0x0 PUSH1 0x20 DUP3 ADD SWAP1 POP DUP2 DUP2 SUB PUSH1 0x0 DUP4 ADD MSTORE PUSH2 0x1E7B DUP2 PUSH2 0x1BD4 JUMP JUMPDEST SWAP1 POP SWAP2 SWAP1 POP JUMP JUMPDEST PUSH1 0x0 PUSH1 0x20 DUP3 ADD SWAP1 POP DUP2 DUP2 SUB PUSH1 0x0 DUP4 ADD MSTORE PUSH2 0x1E9B DUP2 PUSH2 0x1BF7 JUMP JUMPDEST SWAP1 POP SWAP2 SWAP1 POP JUMP JUMPDEST PUSH1 0x0 PUSH1 0x20 DUP3 ADD SWAP1 POP PUSH2 0x1EB7 PUSH1 0x0 DUP4 ADD DUP5 PUSH2 0x1C1A JUMP JUMPDEST SWAP3 SWAP2 POP POP JUMP JUMPDEST PUSH1 0x0 PUSH2 0x1EC7 PUSH2 0x1ED8 JUMP JUMPDEST SWAP1 POP PUSH2 0x1ED3 DUP3 DUP3 PUSH2 0x225D JUMP JUMPDEST SWAP2 SWAP1 POP JUMP JUMPDEST PUSH1 0x0 PUSH1 0x40 MLOAD SWAP1 POP SWAP1 JUMP JUMPDEST PUSH1 0x0 PUSH8 0xFFFFFFFFFFFFFFFF DUP3 GT ISZERO PUSH2 0x1EFD JUMPI PUSH2 0x1EFC PUSH2 0x240B JUMP JUMPDEST JUMPDEST PUSH1 0x20 DUP3 MUL SWAP1 POP SWAP2 SWAP1 POP JUMP JUMPDEST PUSH1 0x0 PUSH8 0xFFFFFFFFFFFFFFFF DUP3 GT ISZERO PUSH2 0x1F23 JUMPI PUSH2 0x1F22 PUSH2 0x240B JUMP JUMPDEST JUMPDEST PUSH1 0x20 DUP3 MUL SWAP1 POP PUSH1 0x20 DUP2 ADD SWAP1 POP SWAP2 SWAP1 POP JUMP JUMPDEST PUSH1 0x0 PUSH8 0xFFFFFFFFFFFFFFFF DUP3 GT ISZERO PUSH2 0x1F4F JUMPI PUSH2 0x1F4E PUSH2 0x240B JUMP JUMPDEST JUMPDEST PUSH1 0x20 DUP3 MUL SWAP1 POP SWAP2 SWAP1 POP JUMP JUMPDEST PUSH1 0x0 PUSH8 0xFFFFFFFFFFFFFFFF DUP3 GT ISZERO PUSH2 0x1F75 JUMPI PUSH2 0x1F74 PUSH2 0x240B JUMP JUMPDEST JUMPDEST PUSH2 0x1F7E DUP3 PUSH2 0x2453 JUMP JUMPDEST SWAP1 POP PUSH1 0x20 DUP2 ADD SWAP1 POP SWAP2 SWAP1 POP JUMP JUMPDEST PUSH1 0x0 DUP2 MLOAD SWAP1 POP SWAP2 SWAP1 POP JUMP JUMPDEST PUSH1 0x0 DUP3 DUP3 MSTORE PUSH1 0x20 DUP3 ADD SWAP1 POP SWAP3 SWAP2 POP POP JUMP JUMPDEST PUSH1 0x0 DUP2 SWAP1 POP SWAP3 SWAP2 POP POP JUMP JUMPDEST PUSH1 0x0 PUSH2 0x1FBD DUP3 PUSH2 0x21A3 JUMP JUMPDEST SWAP2 POP PUSH2 0x1FC8 DUP4 PUSH2 0x21A3 JUMP JUMPDEST SWAP3 POP DUP2 PUSH32 0x7FFFFFFFFFFFFFFFFFFFFFFFFFFFFFFFFFFFFFFFFFFFFFFFFFFFFFFFFFFFFFFF SUB DUP4 SGT PUSH1 0x0 DUP4 SLT ISZERO AND ISZERO PUSH2 0x2003 JUMPI PUSH2 0x2002 PUSH2 0x2320 JUMP JUMPDEST JUMPDEST DUP2 PUSH32 0x8000000000000000000000000000000000000000000000000000000000000000 SUB DUP4 SLT PUSH1 0x0 DUP4 SLT AND ISZERO PUSH2 0x203B JUMPI PUSH2 0x203A PUSH2 0x2320 JUMP JUMPDEST JUMPDEST DUP3 DUP3 ADD SWAP1 POP SWAP3 SWAP2 POP POP JUMP JUMPDEST PUSH1 0x0 PUSH2 0x2051 DUP3 PUSH2 0x21CD JUMP JUMPDEST SWAP2 POP PUSH2 0x205C DUP4 PUSH2 0x21CD JUMP JUMPDEST SWAP3 POP DUP3 PUSH32 0xFFFFFFFFFFFFFFFFFFFFFFFFFFFFFFFFFFFFFFFFFFFFFFFFFFFFFFFFFFFFFFFF SUB DUP3 GT ISZERO PUSH2 0x2091 JUMPI PUSH2 0x2090 PUSH2 0x2320 JUMP JUMPDEST JUMPDEST DUP3 DUP3 ADD SWAP1 POP SWAP3 SWAP2 POP POP JUMP JUMPDEST PUSH1 0x0 PUSH2 0x20A7 DUP3 PUSH2 0x21A3 JUMP JUMPDEST SWAP2 POP PUSH2 0x20B2 DUP4 PUSH2 0x21A3 JUMP JUMPDEST SWAP3 POP DUP3 PUSH2 0x20C2 JUMPI PUSH2 0x20C1 PUSH2 0x234F JUMP JUMPDEST JUMPDEST PUSH1 0x1 PUSH1 0x0 SUB DUP4 EQ PUSH32 0x8000000000000000000000000000000000000000000000000000000000000000 DUP4 EQ AND ISZERO PUSH2 0x20FB JUMPI PUSH2 0x20FA PUSH2 0x2320 JUMP JUMPDEST JUMPDEST DUP3 DUP3 SDIV SWAP1 POP SWAP3 SWAP2 POP POP JUMP JUMPDEST PUSH1 0x0 PUSH2 0x2111 DUP3 PUSH2 0x21CD JUMP JUMPDEST SWAP2 POP PUSH2 0x211C DUP4 PUSH2 0x21CD JUMP JUMPDEST SWAP3 POP DUP2 PUSH32 0xFFFFFFFFFFFFFFFFFFFFFFFFFFFFFFFFFFFFFFFFFFFFFFFFFFFFFFFFFFFFFFFF DIV DUP4 GT DUP3 ISZERO ISZERO AND ISZERO PUSH2 0x2155 JUMPI PUSH2 0x2154 PUSH2 0x2320 JUMP JUMPDEST JUMPDEST DUP3 DUP3 MUL SWAP1 POP SWAP3 SWAP2 POP POP JUMP JUMPDEST PUSH1 0x0 PUSH2 0x216B DUP3 PUSH2 0x21AD JUMP JUMPDEST SWAP1 POP SWAP2 SWAP1 POP JUMP JUMPDEST PUSH1 0x0 PUSH2 0x217D DUP3 PUSH2 0x21AD JUMP JUMPDEST SWAP1 POP SWAP2 SWAP1 POP JUMP JUMPDEST PUSH1 0x0 DUP2 ISZERO ISZERO SWAP1 POP SWAP2 SWAP1 POP JUMP JUMPDEST PUSH1 0x0 DUP2 SWAP1 POP PUSH2 0x219E DUP3 PUSH2 0x2673 JUMP JUMPDEST SWAP2 SWAP1 POP JUMP JUMPDEST PUSH1 0x0 DUP2 SWAP1 POP SWAP2 SWAP1 POP JUMP JUMPDEST PUSH1 0x0 PUSH20 0xFFFFFFFFFFFFFFFFFFFFFFFFFFFFFFFFFFFFFFFF DUP3 AND SWAP1 POP SWAP2 SWAP1 POP JUMP JUMPDEST PUSH1 0x0 DUP2 SWAP1 POP SWAP2 SWAP1 POP JUMP JUMPDEST PUSH1 0x0 PUSH2 0x21E2 DUP3 PUSH2 0x2190 JUMP JUMPDEST SWAP1 POP SWAP2 SWAP1 POP JUMP JUMPDEST DUP3 DUP2 DUP4 CALLDATACOPY PUSH1 0x0 DUP4 DUP4 ADD MSTORE POP POP POP JUMP JUMPDEST PUSH1 0x0 JUMPDEST DUP4 DUP2 LT ISZERO PUSH2 0x2216 JUMPI DUP1 DUP3 ADD MLOAD DUP2 DUP5 ADD MSTORE PUSH1 0x20 DUP2 ADD SWAP1 POP PUSH2 0x21FB JUMP JUMPDEST DUP4 DUP2 GT ISZERO PUSH2 0x2225 JUMPI PUSH1 0x0 DUP5 DUP5 ADD MSTORE JUMPDEST POP POP POP POP JUMP JUMPDEST PUSH1 0x0 PUSH1 0x2 DUP3 DIV SWAP1 POP PUSH1 0x1 DUP3 AND DUP1 PUSH2 0x2243 JUMPI PUSH1 0x7F DUP3 AND SWAP2 POP JUMPDEST PUSH1 0x20 DUP3 LT DUP2 EQ ISZERO PUSH2 0x2257 JUMPI PUSH2 0x2256 PUSH2 0x23AD JUMP JUMPDEST JUMPDEST POP SWAP2 SWAP1 POP JUMP JUMPDEST PUSH2 0x2266 DUP3 PUSH2 0x2453 JUMP JUMPDEST DUP2 ADD DUP2 DUP2 LT PUSH8 0xFFFFFFFFFFFFFFFF DUP3 GT OR ISZERO PUSH2 0x2285 JUMPI PUSH2 0x2284 PUSH2 0x240B JUMP JUMPDEST JUMPDEST DUP1 PUSH1 0x40 MSTORE POP POP POP JUMP JUMPDEST PUSH1 0x0 PUSH2 0x2299 DUP3 PUSH2 0x21A3 JUMP JUMPDEST SWAP2 POP PUSH32 0x7FFFFFFFFFFFFFFFFFFFFFFFFFFFFFFFFFFFFFFFFFFFFFFFFFFFFFFFFFFFFFFF DUP3 EQ ISZERO PUSH2 0x22CC JUMPI PUSH2 0x22CB PUSH2 0x2320 JUMP JUMPDEST JUMPDEST PUSH1 0x1 DUP3 ADD SWAP1 POP SWAP2 SWAP1 POP JUMP JUMPDEST PUSH1 0x0 PUSH2 0x22E2 DUP3 PUSH2 0x21CD JUMP JUMPDEST SWAP2 POP PUSH32 0xFFFFFFFFFFFFFFFFFFFFFFFFFFFFFFFFFFFFFFFFFFFFFFFFFFFFFFFFFFFFFFFF DUP3 EQ ISZERO PUSH2 0x2315 JUMPI PUSH2 0x2314 PUSH2 0x2320 JUMP JUMPDEST JUMPDEST PUSH1 0x1 DUP3 ADD SWAP1 POP SWAP2 SWAP1 POP JUMP JUMPDEST PUSH32 0x4E487B7100000000000000000000000000000000000000000000000000000000 PUSH1 0x0 MSTORE PUSH1 0x11 PUSH1 0x4 MSTORE PUSH1 0x24 PUSH1 0x0 REVERT JUMPDEST PUSH32 0x4E487B7100000000000000000000000000000000000000000000000000000000 PUSH1 0x0 MSTORE PUSH1 0x12 PUSH1 0x4 MSTORE PUSH1 0x24 PUSH1 0x0 REVERT JUMPDEST PUSH32 0x4E487B7100000000000000000000000000000000000000000000000000000000 PUSH1 0x0 MSTORE PUSH1 0x21 PUSH1 0x4 MSTORE PUSH1 0x24 PUSH1 0x0 REVERT JUMPDEST PUSH32 0x4E487B7100000000000000000000000000000000000000000000000000000000 PUSH1 0x0 MSTORE PUSH1 0x22 PUSH1 0x4 MSTORE PUSH1 0x24 PUSH1 0x0 REVERT JUMPDEST PUSH32 0x4E487B7100000000000000000000000000000000000000000000000000000000 PUSH1 0x0 MSTORE PUSH1 0x32 PUSH1 0x4 MSTORE PUSH1 0x24 PUSH1 0x0 REVERT JUMPDEST PUSH32 0x4E487B7100000000000000000000000000000000000000000000000000000000 PUSH1 0x0 MSTORE PUSH1 0x41 PUSH1 0x4 MSTORE PUSH1 0x24 PUSH1 0x0 REVERT JUMPDEST PUSH1 0x0 DUP1 REVERT JUMPDEST PUSH1 0x0 DUP1 REVERT JUMPDEST PUSH1 0x0 DUP1 REVERT JUMPDEST PUSH1 0x0 DUP1 REVERT JUMPDEST PUSH1 0x0 DUP1 REVERT JUMPDEST PUSH1 0x0 PUSH1 0x1F NOT PUSH1 0x1F DUP4 ADD AND SWAP1 POP SWAP2 SWAP1 POP JUMP JUMPDEST PUSH32 0x43616E6E6F742063616C6C20746869732066756E6374696F6E20646972656374 PUSH1 0x0 DUP3 ADD MSTORE PUSH32 0x6C792C207573652056656E646F72466163746F72792E00000000000000000000 PUSH1 0x20 DUP3 ADD MSTORE POP JUMP JUMPDEST PUSH32 0x526566756E64696E67207061796D656E742E0000000000000000000000000000 PUSH1 0x0 DUP3 ADD MSTORE POP JUMP JUMPDEST PUSH32 0x53656E64696E67207061796D656E742E00000000000000000000000000000000 PUSH1 0x0 DUP3 ADD MSTORE POP JUMP JUMPDEST PUSH32 0x3D3D000000000000000000000000000000000000000000000000000000000000 PUSH1 0x0 DUP3 ADD MSTORE POP JUMP JUMPDEST PUSH32 0x3C00000000000000000000000000000000000000000000000000000000000000 PUSH1 0x0 DUP3 ADD MSTORE POP JUMP JUMPDEST PUSH32 0x213D000000000000000000000000000000000000000000000000000000000000 PUSH1 0x0 DUP3 ADD MSTORE POP JUMP JUMPDEST PUSH32 0x3D3E000000000000000000000000000000000000000000000000000000000000 PUSH1 0x0 DUP3 ADD MSTORE POP JUMP JUMPDEST PUSH32 0x3C3D000000000000000000000000000000000000000000000000000000000000 PUSH1 0x0 DUP3 ADD MSTORE POP JUMP JUMPDEST PUSH32 0x3E00000000000000000000000000000000000000000000000000000000000000 PUSH1 0x0 DUP3 ADD MSTORE POP JUMP JUMPDEST PUSH32 0x4E6F742077697468696E207468652062696C6C696E6720706572696F64000000 PUSH1 0x0 DUP3 ADD MSTORE POP JUMP JUMPDEST PUSH32 0x436F6E7472616374206973206E6F7420696E2074686520726571756972656420 PUSH1 0x0 DUP3 ADD MSTORE PUSH32 0x7374617465000000000000000000000000000000000000000000000000000000 PUSH1 0x20 DUP3 ADD MSTORE POP JUMP JUMPDEST PUSH1 0x5 DUP2 LT PUSH2 0x2684 JUMPI PUSH2 0x2683 PUSH2 0x237E JUMP JUMPDEST JUMPDEST POP JUMP JUMPDEST PUSH2 0x2690 DUP2 PUSH2 0x2160 JUMP JUMPDEST DUP2 EQ PUSH2 0x269B JUMPI PUSH1 0x0 DUP1 REVERT JUMPDEST POP JUMP JUMPDEST PUSH2 0x26A7 DUP2 PUSH2 0x21A3 JUMP JUMPDEST DUP2 EQ PUSH2 0x26B2 JUMPI PUSH1 0x0 DUP1 REVERT JUMPDEST POP JUMP JUMPDEST PUSH2 0x26BE DUP2 PUSH2 0x21CD JUMP JUMPDEST DUP2 EQ PUSH2 0x26C9 JUMPI PUSH1 0x0 DUP1 REVERT JUMPDEST POP JUMP INVALID LOG2 PUSH5 0x6970667358 0x22 SLT KECCAK256 SWAP14 SELFDESTRUCT PUSH20 0xB6C4D0872A8B2F392A1FE57268E4F1BDFDF044A6 BALANCE 0xE5 0xBA CREATE2 STATICCALL 0xC2 ADDMOD CALLDATACOPY 0xB1 PUSH5 0x736F6C6343 STOP ADDMOD MOD STOP CALLER "
    },
    "gasEstimates": {
      "creation": {
        "codeDepositCost": "1997200",
        "executionCost": "50736",
        "totalCost": "2047936"
      },
      "external": {
        "admin()": "2577",
        "amount()": "2474",
        "approve()": "50983",
        "balanceOf()": "450",
        "client()": "2560",
        "conditionArray(uint256)": "infinite",
        "contractHash()": "2496",
        "destroy()": "32117",
        "endInitStage()": "infinite",
        "expiryDate()": "2518",
        "getDetails()": "infinite",
        "init(address,uint256,uint256,uint256,uint256)": "infinite",
        "nextBillingDate()": "2496",
        "payee()": "2581",
        "payeeApproved()": "2632",
        "prevBillingDate()": "2563",
        "receiveServiceData(int256[])": "infinite",
        "satisfied()": "2544",
        "setActive()": "26780",
        "setConds(string[8],int256[8],string[8])": "infinite",
        "setInactive()": "26691",
        "setPayee(address)": "24767",
        "stage()": "2649",
        "startDate()": "2453",
        "storePayment()": "infinite"
      },
      "internal": {
        "calcDate(uint256)": "infinite",
        "condValid(int256,int256,int256)": "229",
        "initOperators()": "infinite",
        "isSatisfied()": "infinite",
        "payVendor()": "infinite",
        "refund()": "infinite",
        "setNewDates()": "infinite"
      }
    },
    "methodIdentifiers": {
      "admin()": "f851a440",
      "amount()": "aa8c217c",
      "approve()": "12424e3f",
      "balanceOf()": "722713f7",
      "client()": "109e94cf",
      "conditionArray(uint256)": "182541d2",
      "contractHash()": "904c6094",
      "destroy()": "83197ef0",
      "endInitStage()": "9503fe3d",
      "expiryDate()": "516dde43",
      "getDetails()": "fbbf93a0",
      "init(address,uint256,uint256,uint256,uint256)": "9a730617",
      "nextBillingDate()": "43885314",
      "payee()": "ae90b213",
      "payeeApproved()": "97c0bba1",
      "prevBillingDate()": "25419c24",
      "receiveServiceData(int256[])": "21ce5afd",
      "satisfied()": "3a40f3b2",
      "setActive()": "760a8c2a",
      "setConds(string[8],int256[8],string[8])": "fadeaa59",
      "setInactive()": "f1b9ee24",
      "setPayee(address)": "410459ad",
      "stage()": "c040e6b8",
      "startDate()": "0b97bc86",
      "storePayment()": "84ac4446"
    }
  },
  "storageLayout": {
    "storage": [
      {
        "astId": 41,
        "contract": "Vendor.sol:Vendor",
        "label": "admin",
        "offset": 0,
        "slot": "0",
        "type": "t_address"
      },
      {
        "astId": 43,
        "contract": "Vendor.sol:Vendor",
        "label": "client",
        "offset": 0,
        "slot": "1",
        "type": "t_address_payable"
      },
      {
        "astId": 45,
        "contract": "Vendor.sol:Vendor",
        "label": "payee",
        "offset": 0,
        "slot": "2",
        "type": "t_address_payable"
      },
      {
        "astId": 47,
        "contract": "Vendor.sol:Vendor",
        "label": "payeeApproved",
        "offset": 20,
        "slot": "2",
        "type": "t_bool"
      },
      {
        "astId": 49,
        "contract": "Vendor.sol:Vendor",
        "label": "startDate",
        "offset": 0,
        "slot": "3",
        "type": "t_uint256"
      },
      {
        "astId": 51,
        "contract": "Vendor.sol:Vendor",
        "label": "expiryDate",
        "offset": 0,
        "slot": "4",
        "type": "t_uint256"
      },
      {
        "astId": 53,
        "contract": "Vendor.sol:Vendor",
        "label": "amount",
        "offset": 0,
        "slot": "5",
        "type": "t_uint256"
      },
      {
        "astId": 55,
        "contract": "Vendor.sol:Vendor",
        "label": "prevBillingDate",
        "offset": 0,
        "slot": "6",
        "type": "t_uint256"
      },
      {
        "astId": 57,
        "contract": "Vendor.sol:Vendor",
        "label": "nextBillingDate",
        "offset": 0,
        "slot": "7",
        "type": "t_uint256"
      },
      {
        "astId": 59,
        "contract": "Vendor.sol:Vendor",
        "label": "contractHash",
        "offset": 0,
        "slot": "8",
        "type": "t_uint256"
      },
      {
        "astId": 70,
        "contract": "Vendor.sol:Vendor",
        "label": "stage",
        "offset": 0,
        "slot": "9",
        "type": "t_enum(Stages)65"
      },
      {
        "astId": 73,
        "contract": "Vendor.sol:Vendor",
        "label": "satisfied",
        "offset": 1,
        "slot": "9",
        "type": "t_bool"
      },
      {
        "astId": 84,
        "contract": "Vendor.sol:Vendor",
        "label": "conditionArray",
        "offset": 0,
        "slot": "10",
        "type": "t_array(t_struct(Conditions)80_storage)dyn_storage"
      },
      {
        "astId": 88,
        "contract": "Vendor.sol:Vendor",
        "label": "operators",
        "offset": 0,
        "slot": "11",
        "type": "t_mapping(t_string_memory_ptr,t_int256)"
      },
      {
        "astId": 95,
        "contract": "Vendor.sol:Vendor",
        "label": "cumulative",
        "offset": 0,
        "slot": "12",
        "type": "t_mapping(t_uint256,t_int256)"
      },
      {
        "astId": 97,
        "contract": "Vendor.sol:Vendor",
        "label": "count",
        "offset": 0,
        "slot": "13",
        "type": "t_int256"
      }
    ],
    "types": {
      "t_address": {
        "encoding": "inplace",
        "label": "address",
        "numberOfBytes": "20"
      },
      "t_address_payable": {
        "encoding": "inplace",
        "label": "address payable",
        "numberOfBytes": "20"
      },
      "t_array(t_struct(Conditions)80_storage)dyn_storage": {
        "base": "t_struct(Conditions)80_storage",
        "encoding": "dynamic_array",
        "label": "struct Vendor.Conditions[]",
        "numberOfBytes": "32"
      },
      "t_bool": {
        "encoding": "inplace",
        "label": "bool",
        "numberOfBytes": "1"
      },
      "t_enum(Stages)65": {
        "encoding": "inplace",
        "label": "enum Vendor.Stages",
        "numberOfBytes": "1"
      },
      "t_int256": {
        "encoding": "inplace",
        "label": "int256",
        "numberOfBytes": "32"
      },
      "t_mapping(t_string_memory_ptr,t_int256)": {
        "encoding": "mapping",
        "key": "t_string_memory_ptr",
        "label": "mapping(string => int256)",
        "numberOfBytes": "32",
        "value": "t_int256"
      },
      "t_mapping(t_uint256,t_int256)": {
        "encoding": "mapping",
        "key": "t_uint256",
        "label": "mapping(uint256 => int256)",
        "numberOfBytes": "32",
        "value": "t_int256"
      },
      "t_string_memory_ptr": {
        "encoding": "bytes",
        "label": "string",
        "numberOfBytes": "32"
      },
      "t_string_storage": {
        "encoding": "bytes",
        "label": "string",
        "numberOfBytes": "32"
      },
      "t_struct(Conditions)80_storage": {
        "encoding": "inplace",
        "label": "struct Vendor.Conditions",
        "members": [
          {
            "astId": 75,
            "contract": "Vendor.sol:Vendor",
            "label": "value",
            "offset": 0,
            "slot": "0",
            "type": "t_int256"
          },
          {
            "astId": 77,
            "contract": "Vendor.sol:Vendor",
            "label": "operator",
            "offset": 0,
            "slot": "1",
            "type": "t_int256"
          },
          {
            "astId": 79,
            "contract": "Vendor.sol:Vendor",
            "label": "name",
            "offset": 0,
            "slot": "2",
            "type": "t_string_storage"
          }
        ],
        "numberOfBytes": "96"
      },
      "t_uint256": {
        "encoding": "inplace",
        "label": "uint256",
        "numberOfBytes": "32"
      }
    }
  },
  "userdoc": {
    "kind": "user",
    "methods": {},
    "notice": "Contract that handles automated payment, considering if conditions are satisfied.",
    "version": 1
  }
}