{
  "abi": [
    {
      "anonymous": false,
      "inputs": [
        {
          "indexed": true,
          "internalType": "address",
          "name": "sender",
          "type": "address"
        },
        {
          "indexed": false,
          "internalType": "bool",
          "name": "isSatisfied",
          "type": "bool"
        },
        {
          "indexed": false,
          "internalType": "string",
          "name": "message",
          "type": "string"
        }
      ],
      "name": "State",
      "type": "event"
    },
    {
      "inputs": [],
      "name": "admin",
      "outputs": [
        {
          "internalType": "address",
          "name": "",
          "type": "address"
        }
      ],
      "stateMutability": "view",
      "type": "function"
    },
    {
      "inputs": [],
      "name": "amount",
      "outputs": [
        {
          "internalType": "uint256",
          "name": "",
          "type": "uint256"
        }
      ],
      "stateMutability": "view",
      "type": "function"
    },
    {
      "inputs": [],
      "name": "approve",
      "outputs": [],
      "stateMutability": "nonpayable",
      "type": "function"
    },
    {
      "inputs": [],
      "name": "balanceOf",
      "outputs": [
        {
          "internalType": "uint256",
          "name": "",
          "type": "uint256"
        }
      ],
      "stateMutability": "view",
      "type": "function"
    },
    {
      "inputs": [],
      "name": "client",
      "outputs": [
        {
          "internalType": "address payable",
          "name": "",
          "type": "address"
        }
      ],
      "stateMutability": "view",
      "type": "function"
    },
    {
      "inputs": [
        {
          "internalType": "uint256",
          "name": "",
          "type": "uint256"
        }
      ],
      "name": "conditionArray",
      "outputs": [
        {
          "internalType": "string",
          "name": "name",
          "type": "string"
        },
        {
          "internalType": "int256",
          "name": "value",
          "type": "int256"
        },
        {
          "internalType": "int256",
          "name": "operator",
          "type": "int256"
        }
      ],
      "stateMutability": "view",
      "type": "function"
    },
    {
      "inputs": [],
      "name": "contractHash",
      "outputs": [
        {
          "internalType": "uint256",
          "name": "",
          "type": "uint256"
        }
      ],
      "stateMutability": "view",
      "type": "function"
    },
    {
      "inputs": [],
      "name": "creationDate",
      "outputs": [
        {
          "internalType": "uint256",
          "name": "",
          "type": "uint256"
        }
      ],
      "stateMutability": "view",
      "type": "function"
    },
    {
      "inputs": [],
      "name": "destroy",
      "outputs": [],
      "stateMutability": "nonpayable",
      "type": "function"
    },
    {
      "inputs": [],
      "name": "endInitStage",
      "outputs": [],
      "stateMutability": "nonpayable",
      "type": "function"
    },
    {
      "inputs": [],
      "name": "expiryDate",
      "outputs": [
        {
          "internalType": "uint256",
          "name": "",
          "type": "uint256"
        }
      ],
      "stateMutability": "view",
      "type": "function"
    },
    {
      "inputs": [
        {
          "internalType": "address",
          "name": "_client",
          "type": "address"
        },
        {
          "internalType": "address",
          "name": "_payee",
          "type": "address"
        },
        {
          "internalType": "uint256",
          "name": "_createdOn",
          "type": "uint256"
        },
        {
          "internalType": "uint256",
          "name": "_expiredOn",
          "type": "uint256"
        },
        {
          "internalType": "uint256",
          "name": "_prevBillingDate",
          "type": "uint256"
        },
        {
          "internalType": "uint256",
          "name": "_nextBillingDate",
          "type": "uint256"
        },
        {
          "internalType": "uint256",
          "name": "_contractHash",
          "type": "uint256"
        },
        {
          "internalType": "uint256",
          "name": "_amount",
          "type": "uint256"
        }
      ],
      "name": "init",
      "outputs": [],
      "stateMutability": "nonpayable",
      "type": "function"
    },
    {
      "inputs": [],
      "name": "nextBillingDate",
      "outputs": [
        {
          "internalType": "uint256",
          "name": "",
          "type": "uint256"
        }
      ],
      "stateMutability": "view",
      "type": "function"
    },
    {
      "inputs": [],
      "name": "payee",
      "outputs": [
        {
          "internalType": "address payable",
          "name": "",
          "type": "address"
        }
      ],
      "stateMutability": "view",
      "type": "function"
    },
    {
      "inputs": [],
      "name": "payeeApproved",
      "outputs": [
        {
          "internalType": "bool",
          "name": "",
          "type": "bool"
        }
      ],
      "stateMutability": "view",
      "type": "function"
    },
    {
      "inputs": [],
      "name": "prevBillingDate",
      "outputs": [
        {
          "internalType": "uint256",
          "name": "",
          "type": "uint256"
        }
      ],
      "stateMutability": "view",
      "type": "function"
    },
    {
      "inputs": [
        {
          "internalType": "int256[]",
          "name": "_cumulative",
          "type": "int256[]"
        }
      ],
      "name": "receiveServiceData",
      "outputs": [],
      "stateMutability": "nonpayable",
      "type": "function"
    },
    {
      "inputs": [],
      "name": "satisfied",
      "outputs": [
        {
          "internalType": "bool",
          "name": "",
          "type": "bool"
        }
      ],
      "stateMutability": "view",
      "type": "function"
    },
    {
      "inputs": [],
      "name": "setActive",
      "outputs": [],
      "stateMutability": "nonpayable",
      "type": "function"
    },
    {
      "inputs": [
        {
          "internalType": "string[8]",
          "name": "_names",
          "type": "string[8]"
        },
        {
          "internalType": "int256[8]",
          "name": "_values",
          "type": "int256[8]"
        },
        {
          "internalType": "string[8]",
          "name": "_operators",
          "type": "string[8]"
        }
      ],
      "name": "setConds",
      "outputs": [],
      "stateMutability": "nonpayable",
      "type": "function"
    },
    {
      "inputs": [],
      "name": "setInactive",
      "outputs": [],
      "stateMutability": "nonpayable",
      "type": "function"
    },
    {
      "inputs": [],
      "name": "stage",
      "outputs": [
        {
          "internalType": "enum Vendor.Stages",
          "name": "",
          "type": "uint8"
        }
      ],
      "stateMutability": "view",
      "type": "function"
    },
    {
      "inputs": [],
      "name": "storePayment",
      "outputs": [],
      "stateMutability": "payable",
      "type": "function"
    }
  ],
  "devdoc": {
    "kind": "dev",
    "methods": {},
    "title": "Contract that handles automated payment, considering if conditions are satisfied",
    "version": 1
  },
  "evm": {
    "assembly": "    /* \"Vendor.sol\":195:8589  contract Vendor {... */\n  mstore(0x40, 0x80)\n    /* \"Vendor.sol\":483:502  Stages.Initialising */\n  0x00\n    /* \"Vendor.sol\":461:502  Stages public stage = Stages.Initialising */\n  0x02\n  exp(0x0100, 0x15)\n  dup2\n  sload\n  dup2\n  0xff\n  mul\n  not\n  and\n  swap1\n  dup4\n  0x04\n  dup2\n  gt\n  iszero\n  tag_1\n  jumpi\n  tag_2\n  tag_3\n  jump\t// in\ntag_2:\ntag_1:\n  mul\n  or\n  swap1\n  sstore\n  pop\n    /* \"Vendor.sol\":788:793  false */\n  0x00\n    /* \"Vendor.sol\":764:793  bool public satisfied = false */\n  0x09\n  exp(0x0100, 0x00)\n  dup2\n  sload\n  dup2\n  0xff\n  mul\n  not\n  and\n  swap1\n  dup4\n  iszero\n  iszero\n  mul\n  or\n  swap1\n  sstore\n  pop\n    /* \"Vendor.sol\":1270:1272  60 */\n  0x3c\n    /* \"Vendor.sol\":1267:1269  60 */\n  dup1\n    /* \"Vendor.sol\":1264:1266  24 */\n  0x18\n    /* \"Vendor.sol\":1168:1172  6400 */\n  0x1900\n    /* \"Vendor.sol\":1252:1266  blocksDaily/24 */\n  tag_4\n  swap2\n  swap1\n  tag_5\n  jump\t// in\ntag_4:\n    /* \"Vendor.sol\":1252:1269  blocksDaily/24/60 */\n  tag_6\n  swap2\n  swap1\n  tag_5\n  jump\t// in\ntag_6:\n    /* \"Vendor.sol\":1252:1272  blocksDaily/24/60/60 */\n  tag_7\n  swap2\n  swap1\n  tag_5\n  jump\t// in\ntag_7:\n    /* \"Vendor.sol\":1232:1272  uint blocksSecond = blocksDaily/24/60/60 */\n  0x0c\n  sstore\n    /* \"Vendor.sol\":195:8589  contract Vendor {... */\n  callvalue\n  dup1\n  iszero\n  tag_8\n  jumpi\n  0x00\n  dup1\n  revert\ntag_8:\n  pop\n  jump(tag_9)\n    /* \"#utility.yul\":7:192   */\ntag_5:\n    /* \"#utility.yul\":47:48   */\n  0x00\n    /* \"#utility.yul\":64:84   */\n  tag_12\n    /* \"#utility.yul\":82:83   */\n  dup3\n    /* \"#utility.yul\":64:84   */\n  tag_13\n  jump\t// in\ntag_12:\n    /* \"#utility.yul\":59:84   */\n  swap2\n  pop\n    /* \"#utility.yul\":98:118   */\n  tag_14\n    /* \"#utility.yul\":116:117   */\n  dup4\n    /* \"#utility.yul\":98:118   */\n  tag_13\n  jump\t// in\ntag_14:\n    /* \"#utility.yul\":93:118   */\n  swap3\n  pop\n    /* \"#utility.yul\":137:138   */\n  dup3\n    /* \"#utility.yul\":127:129   */\n  tag_15\n  jumpi\n    /* \"#utility.yul\":142:160   */\n  tag_16\n  tag_17\n  jump\t// in\ntag_16:\n    /* \"#utility.yul\":127:129   */\ntag_15:\n    /* \"#utility.yul\":184:185   */\n  dup3\n    /* \"#utility.yul\":181:182   */\n  dup3\n    /* \"#utility.yul\":177:186   */\n  div\n    /* \"#utility.yul\":172:186   */\n  swap1\n  pop\n    /* \"#utility.yul\":49:192   */\n  swap3\n  swap2\n  pop\n  pop\n  jump\t// out\n    /* \"#utility.yul\":198:275   */\ntag_13:\n    /* \"#utility.yul\":235:242   */\n  0x00\n    /* \"#utility.yul\":264:269   */\n  dup2\n    /* \"#utility.yul\":253:269   */\n  swap1\n  pop\n    /* \"#utility.yul\":243:275   */\n  swap2\n  swap1\n  pop\n  jump\t// out\n    /* \"#utility.yul\":467:647   */\ntag_17:\n    /* \"#utility.yul\":515:592   */\n  0x4e487b7100000000000000000000000000000000000000000000000000000000\n    /* \"#utility.yul\":512:513   */\n  0x00\n    /* \"#utility.yul\":505:593   */\n  mstore\n    /* \"#utility.yul\":612:616   */\n  0x12\n    /* \"#utility.yul\":609:610   */\n  0x04\n    /* \"#utility.yul\":602:617   */\n  mstore\n    /* \"#utility.yul\":636:640   */\n  0x24\n    /* \"#utility.yul\":633:634   */\n  0x00\n    /* \"#utility.yul\":626:641   */\n  revert\n    /* \"#utility.yul\":653:833   */\ntag_3:\n    /* \"#utility.yul\":701:778   */\n  0x4e487b7100000000000000000000000000000000000000000000000000000000\n    /* \"#utility.yul\":698:699   */\n  0x00\n    /* \"#utility.yul\":691:779   */\n  mstore\n    /* \"#utility.yul\":798:802   */\n  0x21\n    /* \"#utility.yul\":795:796   */\n  0x04\n    /* \"#utility.yul\":788:803   */\n  mstore\n    /* \"#utility.yul\":822:826   */\n  0x24\n    /* \"#utility.yul\":819:820   */\n  0x00\n    /* \"#utility.yul\":812:827   */\n  revert\n    /* \"Vendor.sol\":195:8589  contract Vendor {... */\ntag_9:\n  dataSize(sub_0)\n  dup1\n  dataOffset(sub_0)\n  0x00\n  codecopy\n  0x00\n  return\nstop\n\nsub_0: assembly {\n        /* \"Vendor.sol\":195:8589  contract Vendor {... */\n      mstore(0x40, 0x80)\n      jumpi(tag_1, lt(calldatasize, 0x04))\n      shr(0xe0, calldataload(0x00))\n      dup1\n      0x760a8c2a\n      gt\n      tag_25\n      jumpi\n      dup1\n      0xaa8c217c\n      gt\n      tag_26\n      jumpi\n      dup1\n      0xaa8c217c\n      eq\n      tag_19\n      jumpi\n      dup1\n      0xae90b213\n      eq\n      tag_20\n      jumpi\n      dup1\n      0xc040e6b8\n      eq\n      tag_21\n      jumpi\n      dup1\n      0xf1b9ee24\n      eq\n      tag_22\n      jumpi\n      dup1\n      0xf851a440\n      eq\n      tag_23\n      jumpi\n      dup1\n      0xfadeaa59\n      eq\n      tag_24\n      jumpi\n      jump(tag_1)\n    tag_26:\n      dup1\n      0x760a8c2a\n      eq\n      tag_13\n      jumpi\n      dup1\n      0x83197ef0\n      eq\n      tag_14\n      jumpi\n      dup1\n      0x84ac4446\n      eq\n      tag_15\n      jumpi\n      dup1\n      0x904c6094\n      eq\n      tag_16\n      jumpi\n      dup1\n      0x9503fe3d\n      eq\n      tag_17\n      jumpi\n      dup1\n      0x97c0bba1\n      eq\n      tag_18\n      jumpi\n      jump(tag_1)\n    tag_25:\n      dup1\n      0x21ce5afd\n      gt\n      tag_27\n      jumpi\n      dup1\n      0x21ce5afd\n      eq\n      tag_7\n      jumpi\n      dup1\n      0x25419c24\n      eq\n      tag_8\n      jumpi\n      dup1\n      0x3a40f3b2\n      eq\n      tag_9\n      jumpi\n      dup1\n      0x43885314\n      eq\n      tag_10\n      jumpi\n      dup1\n      0x516dde43\n      eq\n      tag_11\n      jumpi\n      dup1\n      0x722713f7\n      eq\n      tag_12\n      jumpi\n      jump(tag_1)\n    tag_27:\n      dup1\n      0x05b34410\n      eq\n      tag_2\n      jumpi\n      dup1\n      0x0d4b8cb9\n      eq\n      tag_3\n      jumpi\n      dup1\n      0x109e94cf\n      eq\n      tag_4\n      jumpi\n      dup1\n      0x12424e3f\n      eq\n      tag_5\n      jumpi\n      dup1\n      0x182541d2\n      eq\n      tag_6\n      jumpi\n    tag_1:\n      0x00\n      dup1\n      revert\n        /* \"Vendor.sol\":509:533  uint public creationDate */\n    tag_2:\n      callvalue\n      dup1\n      iszero\n      tag_28\n      jumpi\n      0x00\n      dup1\n      revert\n    tag_28:\n      pop\n      tag_29\n      tag_30\n      jump\t// in\n    tag_29:\n      mload(0x40)\n      tag_31\n      swap2\n      swap1\n      tag_32\n      jump\t// in\n    tag_31:\n      mload(0x40)\n      dup1\n      swap2\n      sub\n      swap1\n      return\n        /* \"Vendor.sol\":1915:2451  function init(address _client, address _payee, uint _createdOn, uint _expiredOn, uint _prevBillingDate, uint _nextBillingDate, uint _contractHash, uint _amount) public {... */\n    tag_3:\n      callvalue\n      dup1\n      iszero\n      tag_33\n      jumpi\n      0x00\n      dup1\n      revert\n    tag_33:\n      pop\n      tag_34\n      0x04\n      dup1\n      calldatasize\n      sub\n      dup2\n      add\n      swap1\n      tag_35\n      swap2\n      swap1\n      tag_36\n      jump\t// in\n    tag_35:\n      tag_37\n      jump\t// in\n    tag_34:\n      stop\n        /* \"Vendor.sol\":243:272  address payable public client */\n    tag_4:\n      callvalue\n      dup1\n      iszero\n      tag_38\n      jumpi\n      0x00\n      dup1\n      revert\n    tag_38:\n      pop\n      tag_39\n      tag_40\n      jump\t// in\n    tag_39:\n      mload(0x40)\n      tag_41\n      swap2\n      swap1\n      tag_42\n      jump\t// in\n    tag_41:\n      mload(0x40)\n      dup1\n      swap2\n      sub\n      swap1\n      return\n        /* \"Vendor.sol\":4038:4254  function approve() external atStage(Stages.Pending) {... */\n    tag_5:\n      callvalue\n      dup1\n      iszero\n      tag_43\n      jumpi\n      0x00\n      dup1\n      revert\n    tag_43:\n      pop\n      tag_44\n      tag_45\n      jump\t// in\n    tag_44:\n      stop\n        /* \"Vendor.sol\":1023:1057  Conditions[] public conditionArray */\n    tag_6:\n      callvalue\n      dup1\n      iszero\n      tag_46\n      jumpi\n      0x00\n      dup1\n      revert\n    tag_46:\n      pop\n      tag_47\n      0x04\n      dup1\n      calldatasize\n      sub\n      dup2\n      add\n      swap1\n      tag_48\n      swap2\n      swap1\n      tag_49\n      jump\t// in\n    tag_48:\n      tag_50\n      jump\t// in\n    tag_47:\n      mload(0x40)\n      tag_51\n      swap4\n      swap3\n      swap2\n      swap1\n      tag_52\n      jump\t// in\n    tag_51:\n      mload(0x40)\n      dup1\n      swap2\n      sub\n      swap1\n      return\n        /* \"Vendor.sol\":5329:5569  function receiveServiceData(int[] memory _cumulative) external atStage(Stages.Active) checkBillingDate() {... */\n    tag_7:\n      callvalue\n      dup1\n      iszero\n      tag_53\n      jumpi\n      0x00\n      dup1\n      revert\n    tag_53:\n      pop\n      tag_54\n      0x04\n      dup1\n      calldatasize\n      sub\n      dup2\n      add\n      swap1\n      tag_55\n      swap2\n      swap1\n      tag_56\n      jump\t// in\n    tag_55:\n      tag_57\n      jump\t// in\n    tag_54:\n      stop\n        /* \"Vendor.sol\":591:618  uint public prevBillingDate */\n    tag_8:\n      callvalue\n      dup1\n      iszero\n      tag_58\n      jumpi\n      0x00\n      dup1\n      revert\n    tag_58:\n      pop\n      tag_59\n      tag_60\n      jump\t// in\n    tag_59:\n      mload(0x40)\n      tag_61\n      swap2\n      swap1\n      tag_32\n      jump\t// in\n    tag_61:\n      mload(0x40)\n      dup1\n      swap2\n      sub\n      swap1\n      return\n        /* \"Vendor.sol\":764:793  bool public satisfied = false */\n    tag_9:\n      callvalue\n      dup1\n      iszero\n      tag_62\n      jumpi\n      0x00\n      dup1\n      revert\n    tag_62:\n      pop\n      tag_63\n      tag_64\n      jump\t// in\n    tag_63:\n      mload(0x40)\n      tag_65\n      swap2\n      swap1\n      tag_66\n      jump\t// in\n    tag_65:\n      mload(0x40)\n      dup1\n      swap2\n      sub\n      swap1\n      return\n        /* \"Vendor.sol\":624:651  uint public nextBillingDate */\n    tag_10:\n      callvalue\n      dup1\n      iszero\n      tag_67\n      jumpi\n      0x00\n      dup1\n      revert\n    tag_67:\n      pop\n      tag_68\n      tag_69\n      jump\t// in\n    tag_68:\n      mload(0x40)\n      tag_70\n      swap2\n      swap1\n      tag_32\n      jump\t// in\n    tag_70:\n      mload(0x40)\n      dup1\n      swap2\n      sub\n      swap1\n      return\n        /* \"Vendor.sol\":539:561  uint public expiryDate */\n    tag_11:\n      callvalue\n      dup1\n      iszero\n      tag_71\n      jumpi\n      0x00\n      dup1\n      revert\n    tag_71:\n      pop\n      tag_72\n      tag_73\n      jump\t// in\n    tag_72:\n      mload(0x40)\n      tag_74\n      swap2\n      swap1\n      tag_32\n      jump\t// in\n    tag_74:\n      mload(0x40)\n      dup1\n      swap2\n      sub\n      swap1\n      return\n        /* \"Vendor.sol\":4575:4670  function balanceOf() external view returns (uint) {... */\n    tag_12:\n      callvalue\n      dup1\n      iszero\n      tag_75\n      jumpi\n      0x00\n      dup1\n      revert\n    tag_75:\n      pop\n      tag_76\n      tag_77\n      jump\t// in\n    tag_76:\n      mload(0x40)\n      tag_78\n      swap2\n      swap1\n      tag_32\n      jump\t// in\n    tag_78:\n      mload(0x40)\n      dup1\n      swap2\n      sub\n      swap1\n      return\n        /* \"Vendor.sol\":7220:7313  function setActive() external atStage(Stages.Inactive) {... */\n    tag_13:\n      callvalue\n      dup1\n      iszero\n      tag_79\n      jumpi\n      0x00\n      dup1\n      revert\n    tag_79:\n      pop\n      tag_80\n      tag_81\n      jump\t// in\n    tag_80:\n      stop\n        /* \"Vendor.sol\":7420:7510  function destroy() external atStage(Stages.Inactive) {... */\n    tag_14:\n      callvalue\n      dup1\n      iszero\n      tag_82\n      jumpi\n      0x00\n      dup1\n      revert\n    tag_82:\n      pop\n      tag_83\n      tag_84\n      jump\t// in\n    tag_83:\n      stop\n        /* \"Vendor.sol\":4412:4569  function storePayment() external payable atStage(Stages.Active) checkBillingDate() {... */\n    tag_15:\n      tag_85\n      tag_86\n      jump\t// in\n    tag_85:\n      stop\n        /* \"Vendor.sol\":657:681  uint public contractHash */\n    tag_16:\n      callvalue\n      dup1\n      iszero\n      tag_87\n      jumpi\n      0x00\n      dup1\n      revert\n    tag_87:\n      pop\n      tag_88\n      tag_89\n      jump\t// in\n    tag_88:\n      mload(0x40)\n      tag_90\n      swap2\n      swap1\n      tag_32\n      jump\t// in\n    tag_90:\n      mload(0x40)\n      dup1\n      swap2\n      sub\n      swap1\n      return\n        /* \"Vendor.sol\":3560:3807  function endInitStage() public atStage(Stages.Initialising) {... */\n    tag_17:\n      callvalue\n      dup1\n      iszero\n      tag_91\n      jumpi\n      0x00\n      dup1\n      revert\n    tag_91:\n      pop\n      tag_92\n      tag_93\n      jump\t// in\n    tag_92:\n      stop\n        /* \"Vendor.sol\":312:337  bool public payeeApproved */\n    tag_18:\n      callvalue\n      dup1\n      iszero\n      tag_94\n      jumpi\n      0x00\n      dup1\n      revert\n    tag_94:\n      pop\n      tag_95\n      tag_96\n      jump\t// in\n    tag_95:\n      mload(0x40)\n      tag_97\n      swap2\n      swap1\n      tag_66\n      jump\t// in\n    tag_97:\n      mload(0x40)\n      dup1\n      swap2\n      sub\n      swap1\n      return\n        /* \"Vendor.sol\":567:585  uint public amount */\n    tag_19:\n      callvalue\n      dup1\n      iszero\n      tag_98\n      jumpi\n      0x00\n      dup1\n      revert\n    tag_98:\n      pop\n      tag_99\n      tag_100\n      jump\t// in\n    tag_99:\n      mload(0x40)\n      tag_101\n      swap2\n      swap1\n      tag_32\n      jump\t// in\n    tag_101:\n      mload(0x40)\n      dup1\n      swap2\n      sub\n      swap1\n      return\n        /* \"Vendor.sol\":278:306  address payable public payee */\n    tag_20:\n      callvalue\n      dup1\n      iszero\n      tag_102\n      jumpi\n      0x00\n      dup1\n      revert\n    tag_102:\n      pop\n      tag_103\n      tag_104\n      jump\t// in\n    tag_103:\n      mload(0x40)\n      tag_105\n      swap2\n      swap1\n      tag_42\n      jump\t// in\n    tag_105:\n      mload(0x40)\n      dup1\n      swap2\n      sub\n      swap1\n      return\n        /* \"Vendor.sol\":461:502  Stages public stage = Stages.Initialising */\n    tag_21:\n      callvalue\n      dup1\n      iszero\n      tag_106\n      jumpi\n      0x00\n      dup1\n      revert\n    tag_106:\n      pop\n      tag_107\n      tag_108\n      jump\t// in\n    tag_107:\n      mload(0x40)\n      tag_109\n      swap2\n      swap1\n      tag_110\n      jump\t// in\n    tag_109:\n      mload(0x40)\n      dup1\n      swap2\n      sub\n      swap1\n      return\n        /* \"Vendor.sol\":7319:7414  function setInactive() external atStage(Stages.Active) {... */\n    tag_22:\n      callvalue\n      dup1\n      iszero\n      tag_111\n      jumpi\n      0x00\n      dup1\n      revert\n    tag_111:\n      pop\n      tag_112\n      tag_113\n      jump\t// in\n    tag_112:\n      stop\n        /* \"Vendor.sol\":217:237  address public admin */\n    tag_23:\n      callvalue\n      dup1\n      iszero\n      tag_114\n      jumpi\n      0x00\n      dup1\n      revert\n    tag_114:\n      pop\n      tag_115\n      tag_116\n      jump\t// in\n    tag_115:\n      mload(0x40)\n      tag_117\n      swap2\n      swap1\n      tag_118\n      jump\t// in\n    tag_117:\n      mload(0x40)\n      dup1\n      swap2\n      sub\n      swap1\n      return\n        /* \"Vendor.sol\":3058:3554  function setConds(string[8] memory _names, int[8] memory _values, string[8] memory _operators) external atStage(Stages.Initialising) {... */\n    tag_24:\n      callvalue\n      dup1\n      iszero\n      tag_119\n      jumpi\n      0x00\n      dup1\n      revert\n    tag_119:\n      pop\n      tag_120\n      0x04\n      dup1\n      calldatasize\n      sub\n      dup2\n      add\n      swap1\n      tag_121\n      swap2\n      swap1\n      tag_122\n      jump\t// in\n    tag_121:\n      tag_123\n      jump\t// in\n    tag_120:\n      stop\n        /* \"Vendor.sol\":509:533  uint public creationDate */\n    tag_30:\n      sload(0x03)\n      dup2\n      jump\t// out\n        /* \"Vendor.sol\":1915:2451  function init(address _client, address _payee, uint _createdOn, uint _expiredOn, uint _prevBillingDate, uint _nextBillingDate, uint _contractHash, uint _amount) public {... */\n    tag_37:\n        /* \"Vendor.sol\":2101:2111  msg.sender */\n      caller\n        /* \"Vendor.sol\":2093:2098  admin */\n      0x00\n      dup1\n        /* \"Vendor.sol\":2093:2111  admin = msg.sender */\n      0x0100\n      exp\n      dup2\n      sload\n      dup2\n      0xffffffffffffffffffffffffffffffffffffffff\n      mul\n      not\n      and\n      swap1\n      dup4\n      0xffffffffffffffffffffffffffffffffffffffff\n      and\n      mul\n      or\n      swap1\n      sstore\n      pop\n        /* \"Vendor.sol\":2138:2145  _client */\n      dup8\n        /* \"Vendor.sol\":2121:2127  client */\n      0x01\n      0x00\n        /* \"Vendor.sol\":2121:2146  client = payable(_client) */\n      0x0100\n      exp\n      dup2\n      sload\n      dup2\n      0xffffffffffffffffffffffffffffffffffffffff\n      mul\n      not\n      and\n      swap1\n      dup4\n      0xffffffffffffffffffffffffffffffffffffffff\n      and\n      mul\n      or\n      swap1\n      sstore\n      pop\n        /* \"Vendor.sol\":2172:2178  _payee */\n      dup7\n        /* \"Vendor.sol\":2156:2161  payee */\n      0x02\n      0x00\n        /* \"Vendor.sol\":2156:2179  payee = payable(_payee) */\n      0x0100\n      exp\n      dup2\n      sload\n      dup2\n      0xffffffffffffffffffffffffffffffffffffffff\n      mul\n      not\n      and\n      swap1\n      dup4\n      0xffffffffffffffffffffffffffffffffffffffff\n      and\n      mul\n      or\n      swap1\n      sstore\n      pop\n        /* \"Vendor.sol\":2204:2214  _createdOn */\n      dup6\n        /* \"Vendor.sol\":2189:2201  creationDate */\n      0x03\n        /* \"Vendor.sol\":2189:2214  creationDate = _createdOn */\n      dup2\n      swap1\n      sstore\n      pop\n        /* \"Vendor.sol\":2237:2247  _expiredOn */\n      dup5\n        /* \"Vendor.sol\":2224:2234  expiryDate */\n      0x04\n        /* \"Vendor.sol\":2224:2247  expiryDate = _expiredOn */\n      dup2\n      swap1\n      sstore\n      pop\n        /* \"Vendor.sol\":2275:2301  calcDate(_prevBillingDate) */\n      tag_125\n        /* \"Vendor.sol\":2284:2300  _prevBillingDate */\n      dup5\n        /* \"Vendor.sol\":2275:2283  calcDate */\n      tag_126\n        /* \"Vendor.sol\":2275:2301  calcDate(_prevBillingDate) */\n      jump\t// in\n    tag_125:\n        /* \"Vendor.sol\":2257:2272  prevBillingDate */\n      0x06\n        /* \"Vendor.sol\":2257:2301  prevBillingDate = calcDate(_prevBillingDate) */\n      dup2\n      swap1\n      sstore\n      pop\n        /* \"Vendor.sol\":2329:2355  calcDate(_nextBillingDate) */\n      tag_127\n        /* \"Vendor.sol\":2338:2354  _nextBillingDate */\n      dup4\n        /* \"Vendor.sol\":2329:2337  calcDate */\n      tag_126\n        /* \"Vendor.sol\":2329:2355  calcDate(_nextBillingDate) */\n      jump\t// in\n    tag_127:\n        /* \"Vendor.sol\":2311:2326  nextBillingDate */\n      0x07\n        /* \"Vendor.sol\":2311:2355  nextBillingDate = calcDate(_nextBillingDate) */\n      dup2\n      swap1\n      sstore\n      pop\n        /* \"Vendor.sol\":2380:2393  _contractHash */\n      dup2\n        /* \"Vendor.sol\":2365:2377  contractHash */\n      0x08\n        /* \"Vendor.sol\":2365:2393  contractHash = _contractHash */\n      dup2\n      swap1\n      sstore\n      pop\n        /* \"Vendor.sol\":2412:2419  _amount */\n      dup1\n        /* \"Vendor.sol\":2403:2409  amount */\n      0x05\n        /* \"Vendor.sol\":2403:2419  amount = _amount */\n      dup2\n      swap1\n      sstore\n      pop\n        /* \"Vendor.sol\":2429:2444  initOperators() */\n      tag_128\n        /* \"Vendor.sol\":2429:2442  initOperators */\n      tag_129\n        /* \"Vendor.sol\":2429:2444  initOperators() */\n      jump\t// in\n    tag_128:\n        /* \"Vendor.sol\":1915:2451  function init(address _client, address _payee, uint _createdOn, uint _expiredOn, uint _prevBillingDate, uint _nextBillingDate, uint _contractHash, uint _amount) public {... */\n      pop\n      pop\n      pop\n      pop\n      pop\n      pop\n      pop\n      pop\n      jump\t// out\n        /* \"Vendor.sol\":243:272  address payable public client */\n    tag_40:\n      0x01\n      0x00\n      swap1\n      sload\n      swap1\n      0x0100\n      exp\n      swap1\n      div\n      0xffffffffffffffffffffffffffffffffffffffff\n      and\n      dup2\n      jump\t// out\n        /* \"Vendor.sol\":4038:4254  function approve() external atStage(Stages.Pending) {... */\n    tag_45:\n        /* \"Vendor.sol\":4074:4088  Stages.Pending */\n      0x01\n        /* \"Vendor.sol\":8398:8404  _stage */\n      dup1\n        /* \"Vendor.sol\":8389:8404  stage == _stage */\n      0x04\n      dup2\n      gt\n      iszero\n      tag_131\n      jumpi\n      tag_132\n      tag_133\n      jump\t// in\n    tag_132:\n    tag_131:\n        /* \"Vendor.sol\":8389:8394  stage */\n      0x02\n      0x15\n      swap1\n      sload\n      swap1\n      0x0100\n      exp\n      swap1\n      div\n      0xff\n      and\n        /* \"Vendor.sol\":8389:8404  stage == _stage */\n      0x04\n      dup2\n      gt\n      iszero\n      tag_134\n      jumpi\n      tag_135\n      tag_133\n      jump\t// in\n    tag_135:\n    tag_134:\n      eq\n        /* \"Vendor.sol\":8381:8446  require(stage == _stage, \"Contract is not in the required state\") */\n      tag_136\n      jumpi\n      mload(0x40)\n      0x08c379a000000000000000000000000000000000000000000000000000000000\n      dup2\n      mstore\n      0x04\n      add\n      tag_137\n      swap1\n      tag_138\n      jump\t// in\n    tag_137:\n      mload(0x40)\n      dup1\n      swap2\n      sub\n      swap1\n      revert\n    tag_136:\n        /* \"Vendor.sol\":4122:4127  admin */\n      0x00\n      dup1\n      sload\n      swap1\n      0x0100\n      exp\n      swap1\n      div\n      0xffffffffffffffffffffffffffffffffffffffff\n      and\n        /* \"Vendor.sol\":4108:4127  msg.sender == admin */\n      0xffffffffffffffffffffffffffffffffffffffff\n      and\n        /* \"Vendor.sol\":4108:4118  msg.sender */\n      caller\n        /* \"Vendor.sol\":4108:4127  msg.sender == admin */\n      0xffffffffffffffffffffffffffffffffffffffff\n      and\n      eq\n        /* \"Vendor.sol\":4100:4186  require(msg.sender == admin, \"Cannot call this function directly, use VendorFactory.\") */\n      tag_140\n      jumpi\n      mload(0x40)\n      0x08c379a000000000000000000000000000000000000000000000000000000000\n      dup2\n      mstore\n      0x04\n      add\n      tag_141\n      swap1\n      tag_142\n      jump\t// in\n    tag_141:\n      mload(0x40)\n      dup1\n      swap2\n      sub\n      swap1\n      revert\n    tag_140:\n        /* \"Vendor.sol\":4212:4216  true */\n      0x01\n        /* \"Vendor.sol\":4196:4209  payeeApproved */\n      0x02\n      0x14\n        /* \"Vendor.sol\":4196:4216  payeeApproved = true */\n      0x0100\n      exp\n      dup2\n      sload\n      dup2\n      0xff\n      mul\n      not\n      and\n      swap1\n      dup4\n      iszero\n      iszero\n      mul\n      or\n      swap1\n      sstore\n      pop\n        /* \"Vendor.sol\":4234:4247  Stages.Active */\n      0x03\n        /* \"Vendor.sol\":4226:4231  stage */\n      0x02\n      0x15\n        /* \"Vendor.sol\":4226:4247  stage = Stages.Active */\n      0x0100\n      exp\n      dup2\n      sload\n      dup2\n      0xff\n      mul\n      not\n      and\n      swap1\n      dup4\n      0x04\n      dup2\n      gt\n      iszero\n      tag_143\n      jumpi\n      tag_144\n      tag_133\n      jump\t// in\n    tag_144:\n    tag_143:\n      mul\n      or\n      swap1\n      sstore\n      pop\n        /* \"Vendor.sol\":4038:4254  function approve() external atStage(Stages.Pending) {... */\n      pop\n      jump\t// out\n        /* \"Vendor.sol\":1023:1057  Conditions[] public conditionArray */\n    tag_50:\n      0x0a\n      dup2\n      dup2\n      sload\n      dup2\n      lt\n      tag_145\n      jumpi\n      0x00\n      dup1\n      revert\n    tag_145:\n      swap1\n      0x00\n      mstore\n      keccak256(0x00, 0x20)\n      swap1\n      0x03\n      mul\n      add\n      0x00\n      swap2\n      pop\n      swap1\n      pop\n      dup1\n      0x00\n      add\n      dup1\n      sload\n      tag_147\n      swap1\n      tag_148\n      jump\t// in\n    tag_147:\n      dup1\n      0x1f\n      add\n      0x20\n      dup1\n      swap2\n      div\n      mul\n      0x20\n      add\n      mload(0x40)\n      swap1\n      dup2\n      add\n      0x40\n      mstore\n      dup1\n      swap3\n      swap2\n      swap1\n      dup2\n      dup2\n      mstore\n      0x20\n      add\n      dup3\n      dup1\n      sload\n      tag_149\n      swap1\n      tag_148\n      jump\t// in\n    tag_149:\n      dup1\n      iszero\n      tag_150\n      jumpi\n      dup1\n      0x1f\n      lt\n      tag_151\n      jumpi\n      0x0100\n      dup1\n      dup4\n      sload\n      div\n      mul\n      dup4\n      mstore\n      swap2\n      0x20\n      add\n      swap2\n      jump(tag_150)\n    tag_151:\n      dup3\n      add\n      swap2\n      swap1\n      0x00\n      mstore\n      keccak256(0x00, 0x20)\n      swap1\n    tag_152:\n      dup2\n      sload\n      dup2\n      mstore\n      swap1\n      0x01\n      add\n      swap1\n      0x20\n      add\n      dup1\n      dup4\n      gt\n      tag_152\n      jumpi\n      dup3\n      swap1\n      sub\n      0x1f\n      and\n      dup3\n      add\n      swap2\n    tag_150:\n      pop\n      pop\n      pop\n      pop\n      pop\n      swap1\n      dup1\n      0x01\n      add\n      sload\n      swap1\n      dup1\n      0x02\n      add\n      sload\n      swap1\n      pop\n      dup4\n      jump\t// out\n        /* \"Vendor.sol\":5329:5569  function receiveServiceData(int[] memory _cumulative) external atStage(Stages.Active) checkBillingDate() {... */\n    tag_57:\n        /* \"Vendor.sol\":5400:5413  Stages.Active */\n      0x03\n        /* \"Vendor.sol\":8398:8404  _stage */\n      dup1\n        /* \"Vendor.sol\":8389:8404  stage == _stage */\n      0x04\n      dup2\n      gt\n      iszero\n      tag_154\n      jumpi\n      tag_155\n      tag_133\n      jump\t// in\n    tag_155:\n    tag_154:\n        /* \"Vendor.sol\":8389:8394  stage */\n      0x02\n      0x15\n      swap1\n      sload\n      swap1\n      0x0100\n      exp\n      swap1\n      div\n      0xff\n      and\n        /* \"Vendor.sol\":8389:8404  stage == _stage */\n      0x04\n      dup2\n      gt\n      iszero\n      tag_156\n      jumpi\n      tag_157\n      tag_133\n      jump\t// in\n    tag_157:\n    tag_156:\n      eq\n        /* \"Vendor.sol\":8381:8446  require(stage == _stage, \"Contract is not in the required state\") */\n      tag_158\n      jumpi\n      mload(0x40)\n      0x08c379a000000000000000000000000000000000000000000000000000000000\n      dup2\n      mstore\n      0x04\n      add\n      tag_159\n      swap1\n      tag_138\n      jump\t// in\n    tag_159:\n      mload(0x40)\n      dup1\n      swap2\n      sub\n      swap1\n      revert\n    tag_158:\n        /* \"Vendor.sol\":7919:7934  nextBillingDate */\n      sload(0x07)\n        /* \"Vendor.sol\":7904:7916  block.number */\n      number\n        /* \"Vendor.sol\":7904:7934  block.number > nextBillingDate */\n      gt\n        /* \"Vendor.sol\":7900:8128  if (block.number > nextBillingDate) {... */\n      iszero\n      tag_161\n      jumpi\n        /* \"Vendor.sol\":7950:7963  isSatisfied() */\n      tag_162\n        /* \"Vendor.sol\":7950:7961  isSatisfied */\n      tag_163\n        /* \"Vendor.sol\":7950:7963  isSatisfied() */\n      jump\t// in\n    tag_162:\n        /* \"Vendor.sol\":7900:8128  if (block.number > nextBillingDate) {... */\n      jump(tag_164)\n    tag_161:\n        /* \"Vendor.sol\":8018:8033  prevBillingDate */\n      sload(0x06)\n        /* \"Vendor.sol\":8002:8014  block.number */\n      number\n        /* \"Vendor.sol\":8002:8033  block.number >= prevBillingDate */\n      lt\n      iszero\n        /* \"Vendor.sol\":8002:8068  block.number >= prevBillingDate && block.number <= nextBillingDate */\n      dup1\n      iszero\n      tag_165\n      jumpi\n      pop\n        /* \"Vendor.sol\":8053:8068  nextBillingDate */\n      sload(0x07)\n        /* \"Vendor.sol\":8037:8049  block.number */\n      number\n        /* \"Vendor.sol\":8037:8068  block.number <= nextBillingDate */\n      gt\n      iszero\n        /* \"Vendor.sol\":8002:8068  block.number >= prevBillingDate && block.number <= nextBillingDate */\n    tag_165:\n        /* \"Vendor.sol\":7994:8102  require(block.number >= prevBillingDate && block.number <= nextBillingDate, \"Not within the billing period\") */\n      tag_166\n      jumpi\n      mload(0x40)\n      0x08c379a000000000000000000000000000000000000000000000000000000000\n      dup2\n      mstore\n      0x04\n      add\n      tag_167\n      swap1\n      tag_168\n      jump\t// in\n    tag_167:\n      mload(0x40)\n      dup1\n      swap2\n      sub\n      swap1\n      revert\n    tag_166:\n        /* \"Vendor.sol\":5449:5455  uint i */\n      0x00\n        /* \"Vendor.sol\":5444:5546  for (uint i = 0; i < _cumulative.length; i++) {... */\n    tag_170:\n        /* \"Vendor.sol\":5465:5476  _cumulative */\n      dup3\n        /* \"Vendor.sol\":5465:5483  _cumulative.length */\n      mload\n        /* \"Vendor.sol\":5461:5462  i */\n      dup2\n        /* \"Vendor.sol\":5461:5483  i < _cumulative.length */\n      lt\n        /* \"Vendor.sol\":5444:5546  for (uint i = 0; i < _cumulative.length; i++) {... */\n      iszero\n      tag_171\n      jumpi\n        /* \"Vendor.sol\":5521:5532  _cumulative */\n      dup3\n        /* \"Vendor.sol\":5533:5534  i */\n      dup2\n        /* \"Vendor.sol\":5521:5535  _cumulative[i] */\n      dup2\n      mload\n      dup2\n      lt\n      tag_173\n      jumpi\n      tag_174\n      tag_175\n      jump\t// in\n    tag_174:\n    tag_173:\n      0x20\n      mul\n      0x20\n      add\n      add\n      mload\n        /* \"Vendor.sol\":5504:5514  cumulative */\n      0x0d\n        /* \"Vendor.sol\":5504:5517  cumulative[i] */\n      0x00\n        /* \"Vendor.sol\":5515:5516  i */\n      dup4\n        /* \"Vendor.sol\":5504:5517  cumulative[i] */\n      dup2\n      mstore\n      0x20\n      add\n      swap1\n      dup2\n      mstore\n      0x20\n      add\n      0x00\n      keccak256\n      0x00\n        /* \"Vendor.sol\":5504:5535  cumulative[i] += _cumulative[i] */\n      dup3\n      dup3\n      sload\n      tag_176\n      swap2\n      swap1\n      tag_177\n      jump\t// in\n    tag_176:\n      swap3\n      pop\n      pop\n      dup2\n      swap1\n      sstore\n      pop\n        /* \"Vendor.sol\":5485:5488  i++ */\n      dup1\n      dup1\n      tag_178\n      swap1\n      tag_179\n      jump\t// in\n    tag_178:\n      swap2\n      pop\n      pop\n        /* \"Vendor.sol\":5444:5546  for (uint i = 0; i < _cumulative.length; i++) {... */\n      jump(tag_170)\n    tag_171:\n      pop\n        /* \"Vendor.sol\":5555:5560  count */\n      0x0e\n      0x00\n        /* \"Vendor.sol\":5555:5562  count++ */\n      dup2\n      sload\n      dup1\n      swap3\n      swap2\n      swap1\n      tag_180\n      swap1\n      tag_181\n      jump\t// in\n    tag_180:\n      swap2\n      swap1\n      pop\n      sstore\n      pop\n        /* \"Vendor.sol\":7900:8128  if (block.number > nextBillingDate) {... */\n    tag_164:\n        /* \"Vendor.sol\":5329:5569  function receiveServiceData(int[] memory _cumulative) external atStage(Stages.Active) checkBillingDate() {... */\n      pop\n      pop\n      jump\t// out\n        /* \"Vendor.sol\":591:618  uint public prevBillingDate */\n    tag_60:\n      sload(0x06)\n      dup2\n      jump\t// out\n        /* \"Vendor.sol\":764:793  bool public satisfied = false */\n    tag_64:\n      0x09\n      0x00\n      swap1\n      sload\n      swap1\n      0x0100\n      exp\n      swap1\n      div\n      0xff\n      and\n      dup2\n      jump\t// out\n        /* \"Vendor.sol\":624:651  uint public nextBillingDate */\n    tag_69:\n      sload(0x07)\n      dup2\n      jump\t// out\n        /* \"Vendor.sol\":539:561  uint public expiryDate */\n    tag_73:\n      sload(0x04)\n      dup2\n      jump\t// out\n        /* \"Vendor.sol\":4575:4670  function balanceOf() external view returns (uint) {... */\n    tag_77:\n        /* \"Vendor.sol\":4619:4623  uint */\n      0x00\n        /* \"Vendor.sol\":4642:4663  address(this).balance */\n      selfbalance\n        /* \"Vendor.sol\":4635:4663  return address(this).balance */\n      swap1\n      pop\n        /* \"Vendor.sol\":4575:4670  function balanceOf() external view returns (uint) {... */\n      swap1\n      jump\t// out\n        /* \"Vendor.sol\":7220:7313  function setActive() external atStage(Stages.Inactive) {... */\n    tag_81:\n        /* \"Vendor.sol\":7258:7273  Stages.Inactive */\n      0x02\n        /* \"Vendor.sol\":8398:8404  _stage */\n      dup1\n        /* \"Vendor.sol\":8389:8404  stage == _stage */\n      0x04\n      dup2\n      gt\n      iszero\n      tag_184\n      jumpi\n      tag_185\n      tag_133\n      jump\t// in\n    tag_185:\n    tag_184:\n        /* \"Vendor.sol\":8389:8394  stage */\n      0x02\n      0x15\n      swap1\n      sload\n      swap1\n      0x0100\n      exp\n      swap1\n      div\n      0xff\n      and\n        /* \"Vendor.sol\":8389:8404  stage == _stage */\n      0x04\n      dup2\n      gt\n      iszero\n      tag_186\n      jumpi\n      tag_187\n      tag_133\n      jump\t// in\n    tag_187:\n    tag_186:\n      eq\n        /* \"Vendor.sol\":8381:8446  require(stage == _stage, \"Contract is not in the required state\") */\n      tag_188\n      jumpi\n      mload(0x40)\n      0x08c379a000000000000000000000000000000000000000000000000000000000\n      dup2\n      mstore\n      0x04\n      add\n      tag_189\n      swap1\n      tag_138\n      jump\t// in\n    tag_189:\n      mload(0x40)\n      dup1\n      swap2\n      sub\n      swap1\n      revert\n    tag_188:\n        /* \"Vendor.sol\":7293:7306  Stages.Active */\n      0x03\n        /* \"Vendor.sol\":7285:7290  stage */\n      0x02\n      0x15\n        /* \"Vendor.sol\":7285:7306  stage = Stages.Active */\n      0x0100\n      exp\n      dup2\n      sload\n      dup2\n      0xff\n      mul\n      not\n      and\n      swap1\n      dup4\n      0x04\n      dup2\n      gt\n      iszero\n      tag_191\n      jumpi\n      tag_192\n      tag_133\n      jump\t// in\n    tag_192:\n    tag_191:\n      mul\n      or\n      swap1\n      sstore\n      pop\n        /* \"Vendor.sol\":7220:7313  function setActive() external atStage(Stages.Inactive) {... */\n      pop\n      jump\t// out\n        /* \"Vendor.sol\":7420:7510  function destroy() external atStage(Stages.Inactive) {... */\n    tag_84:\n        /* \"Vendor.sol\":7456:7471  Stages.Inactive */\n      0x02\n        /* \"Vendor.sol\":8398:8404  _stage */\n      dup1\n        /* \"Vendor.sol\":8389:8404  stage == _stage */\n      0x04\n      dup2\n      gt\n      iszero\n      tag_194\n      jumpi\n      tag_195\n      tag_133\n      jump\t// in\n    tag_195:\n    tag_194:\n        /* \"Vendor.sol\":8389:8394  stage */\n      0x02\n      0x15\n      swap1\n      sload\n      swap1\n      0x0100\n      exp\n      swap1\n      div\n      0xff\n      and\n        /* \"Vendor.sol\":8389:8404  stage == _stage */\n      0x04\n      dup2\n      gt\n      iszero\n      tag_196\n      jumpi\n      tag_197\n      tag_133\n      jump\t// in\n    tag_197:\n    tag_196:\n      eq\n        /* \"Vendor.sol\":8381:8446  require(stage == _stage, \"Contract is not in the required state\") */\n      tag_198\n      jumpi\n      mload(0x40)\n      0x08c379a000000000000000000000000000000000000000000000000000000000\n      dup2\n      mstore\n      0x04\n      add\n      tag_199\n      swap1\n      tag_138\n      jump\t// in\n    tag_199:\n      mload(0x40)\n      dup1\n      swap2\n      sub\n      swap1\n      revert\n    tag_198:\n        /* \"Vendor.sol\":7496:7502  client */\n      0x01\n      0x00\n      swap1\n      sload\n      swap1\n      0x0100\n      exp\n      swap1\n      div\n      0xffffffffffffffffffffffffffffffffffffffff\n      and\n        /* \"Vendor.sol\":7483:7503  selfdestruct(client) */\n      0xffffffffffffffffffffffffffffffffffffffff\n      and\n      selfdestruct\n        /* \"Vendor.sol\":4412:4569  function storePayment() external payable atStage(Stages.Active) checkBillingDate() {... */\n    tag_86:\n        /* \"Vendor.sol\":4461:4474  Stages.Active */\n      0x03\n        /* \"Vendor.sol\":8398:8404  _stage */\n      dup1\n        /* \"Vendor.sol\":8389:8404  stage == _stage */\n      0x04\n      dup2\n      gt\n      iszero\n      tag_202\n      jumpi\n      tag_203\n      tag_133\n      jump\t// in\n    tag_203:\n    tag_202:\n        /* \"Vendor.sol\":8389:8394  stage */\n      0x02\n      0x15\n      swap1\n      sload\n      swap1\n      0x0100\n      exp\n      swap1\n      div\n      0xff\n      and\n        /* \"Vendor.sol\":8389:8404  stage == _stage */\n      0x04\n      dup2\n      gt\n      iszero\n      tag_204\n      jumpi\n      tag_205\n      tag_133\n      jump\t// in\n    tag_205:\n    tag_204:\n      eq\n        /* \"Vendor.sol\":8381:8446  require(stage == _stage, \"Contract is not in the required state\") */\n      tag_206\n      jumpi\n      mload(0x40)\n      0x08c379a000000000000000000000000000000000000000000000000000000000\n      dup2\n      mstore\n      0x04\n      add\n      tag_207\n      swap1\n      tag_138\n      jump\t// in\n    tag_207:\n      mload(0x40)\n      dup1\n      swap2\n      sub\n      swap1\n      revert\n    tag_206:\n        /* \"Vendor.sol\":7919:7934  nextBillingDate */\n      sload(0x07)\n        /* \"Vendor.sol\":7904:7916  block.number */\n      number\n        /* \"Vendor.sol\":7904:7934  block.number > nextBillingDate */\n      gt\n        /* \"Vendor.sol\":7900:8128  if (block.number > nextBillingDate) {... */\n      iszero\n      tag_209\n      jumpi\n        /* \"Vendor.sol\":7950:7963  isSatisfied() */\n      tag_210\n        /* \"Vendor.sol\":7950:7961  isSatisfied */\n      tag_163\n        /* \"Vendor.sol\":7950:7963  isSatisfied() */\n      jump\t// in\n    tag_210:\n        /* \"Vendor.sol\":7900:8128  if (block.number > nextBillingDate) {... */\n      jump(tag_211)\n    tag_209:\n        /* \"Vendor.sol\":8018:8033  prevBillingDate */\n      sload(0x06)\n        /* \"Vendor.sol\":8002:8014  block.number */\n      number\n        /* \"Vendor.sol\":8002:8033  block.number >= prevBillingDate */\n      lt\n      iszero\n        /* \"Vendor.sol\":8002:8068  block.number >= prevBillingDate && block.number <= nextBillingDate */\n      dup1\n      iszero\n      tag_212\n      jumpi\n      pop\n        /* \"Vendor.sol\":8053:8068  nextBillingDate */\n      sload(0x07)\n        /* \"Vendor.sol\":8037:8049  block.number */\n      number\n        /* \"Vendor.sol\":8037:8068  block.number <= nextBillingDate */\n      gt\n      iszero\n        /* \"Vendor.sol\":8002:8068  block.number >= prevBillingDate && block.number <= nextBillingDate */\n    tag_212:\n        /* \"Vendor.sol\":7994:8102  require(block.number >= prevBillingDate && block.number <= nextBillingDate, \"Not within the billing period\") */\n      tag_213\n      jumpi\n      mload(0x40)\n      0x08c379a000000000000000000000000000000000000000000000000000000000\n      dup2\n      mstore\n      0x04\n      add\n      tag_214\n      swap1\n      tag_168\n      jump\t// in\n    tag_214:\n      mload(0x40)\n      dup1\n      swap2\n      sub\n      swap1\n      revert\n    tag_213:\n        /* \"Vendor.sol\":4522:4528  amount */\n      sload(0x05)\n        /* \"Vendor.sol\":4509:4518  msg.value */\n      callvalue\n        /* \"Vendor.sol\":4509:4528  msg.value != amount */\n      eq\n        /* \"Vendor.sol\":4505:4563  if (msg.value != amount) {... */\n      tag_216\n      jumpi\n        /* \"Vendor.sol\":4544:4552  revert() */\n      0x00\n      dup1\n      revert\n        /* \"Vendor.sol\":4505:4563  if (msg.value != amount) {... */\n    tag_216:\n        /* \"Vendor.sol\":7900:8128  if (block.number > nextBillingDate) {... */\n    tag_211:\n        /* \"Vendor.sol\":4412:4569  function storePayment() external payable atStage(Stages.Active) checkBillingDate() {... */\n      pop\n      jump\t// out\n        /* \"Vendor.sol\":657:681  uint public contractHash */\n    tag_89:\n      sload(0x08)\n      dup2\n      jump\t// out\n        /* \"Vendor.sol\":3560:3807  function endInitStage() public atStage(Stages.Initialising) {... */\n    tag_93:\n        /* \"Vendor.sol\":3599:3618  Stages.Initialising */\n      0x00\n        /* \"Vendor.sol\":8398:8404  _stage */\n      dup1\n        /* \"Vendor.sol\":8389:8404  stage == _stage */\n      0x04\n      dup2\n      gt\n      iszero\n      tag_218\n      jumpi\n      tag_219\n      tag_133\n      jump\t// in\n    tag_219:\n    tag_218:\n        /* \"Vendor.sol\":8389:8394  stage */\n      0x02\n      0x15\n      swap1\n      sload\n      swap1\n      0x0100\n      exp\n      swap1\n      div\n      0xff\n      and\n        /* \"Vendor.sol\":8389:8404  stage == _stage */\n      0x04\n      dup2\n      gt\n      iszero\n      tag_220\n      jumpi\n      tag_221\n      tag_133\n      jump\t// in\n    tag_221:\n    tag_220:\n      eq\n        /* \"Vendor.sol\":8381:8446  require(stage == _stage, \"Contract is not in the required state\") */\n      tag_222\n      jumpi\n      mload(0x40)\n      0x08c379a000000000000000000000000000000000000000000000000000000000\n      dup2\n      mstore\n      0x04\n      add\n      tag_223\n      swap1\n      tag_138\n      jump\t// in\n    tag_223:\n      mload(0x40)\n      dup1\n      swap2\n      sub\n      swap1\n      revert\n    tag_222:\n        /* \"Vendor.sol\":3638:3652  Stages.Pending */\n      0x01\n        /* \"Vendor.sol\":3630:3635  stage */\n      0x02\n      0x15\n        /* \"Vendor.sol\":3630:3652  stage = Stages.Pending */\n      0x0100\n      exp\n      dup2\n      sload\n      dup2\n      0xff\n      mul\n      not\n      and\n      swap1\n      dup4\n      0x04\n      dup2\n      gt\n      iszero\n      tag_225\n      jumpi\n      tag_226\n      tag_133\n      jump\t// in\n    tag_226:\n    tag_225:\n      mul\n      or\n      swap1\n      sstore\n      pop\n        /* \"Vendor.sol\":3715:3721  uint i */\n      0x00\n        /* \"Vendor.sol\":3710:3801  for (uint i = 0; i < conditionArray.length; i++) {... */\n    tag_227:\n        /* \"Vendor.sol\":3731:3745  conditionArray */\n      0x0a\n        /* \"Vendor.sol\":3731:3752  conditionArray.length */\n      dup1\n      sload\n      swap1\n      pop\n        /* \"Vendor.sol\":3727:3728  i */\n      dup2\n        /* \"Vendor.sol\":3727:3752  i < conditionArray.length */\n      lt\n        /* \"Vendor.sol\":3710:3801  for (uint i = 0; i < conditionArray.length; i++) {... */\n      iszero\n      tag_228\n      jumpi\n        /* \"Vendor.sol\":3789:3790  0 */\n      0x00\n        /* \"Vendor.sol\":3773:3783  cumulative */\n      0x0d\n        /* \"Vendor.sol\":3773:3786  cumulative[i] */\n      0x00\n        /* \"Vendor.sol\":3784:3785  i */\n      dup4\n        /* \"Vendor.sol\":3773:3786  cumulative[i] */\n      dup2\n      mstore\n      0x20\n      add\n      swap1\n      dup2\n      mstore\n      0x20\n      add\n      0x00\n      keccak256\n        /* \"Vendor.sol\":3773:3790  cumulative[i] = 0 */\n      dup2\n      swap1\n      sstore\n      pop\n        /* \"Vendor.sol\":3754:3757  i++ */\n      dup1\n      dup1\n      tag_230\n      swap1\n      tag_179\n      jump\t// in\n    tag_230:\n      swap2\n      pop\n      pop\n        /* \"Vendor.sol\":3710:3801  for (uint i = 0; i < conditionArray.length; i++) {... */\n      jump(tag_227)\n    tag_228:\n      pop\n        /* \"Vendor.sol\":3560:3807  function endInitStage() public atStage(Stages.Initialising) {... */\n      pop\n      jump\t// out\n        /* \"Vendor.sol\":312:337  bool public payeeApproved */\n    tag_96:\n      0x02\n      0x14\n      swap1\n      sload\n      swap1\n      0x0100\n      exp\n      swap1\n      div\n      0xff\n      and\n      dup2\n      jump\t// out\n        /* \"Vendor.sol\":567:585  uint public amount */\n    tag_100:\n      sload(0x05)\n      dup2\n      jump\t// out\n        /* \"Vendor.sol\":278:306  address payable public payee */\n    tag_104:\n      0x02\n      0x00\n      swap1\n      sload\n      swap1\n      0x0100\n      exp\n      swap1\n      div\n      0xffffffffffffffffffffffffffffffffffffffff\n      and\n      dup2\n      jump\t// out\n        /* \"Vendor.sol\":461:502  Stages public stage = Stages.Initialising */\n    tag_108:\n      0x02\n      0x15\n      swap1\n      sload\n      swap1\n      0x0100\n      exp\n      swap1\n      div\n      0xff\n      and\n      dup2\n      jump\t// out\n        /* \"Vendor.sol\":7319:7414  function setInactive() external atStage(Stages.Active) {... */\n    tag_113:\n        /* \"Vendor.sol\":7359:7372  Stages.Active */\n      0x03\n        /* \"Vendor.sol\":8398:8404  _stage */\n      dup1\n        /* \"Vendor.sol\":8389:8404  stage == _stage */\n      0x04\n      dup2\n      gt\n      iszero\n      tag_232\n      jumpi\n      tag_233\n      tag_133\n      jump\t// in\n    tag_233:\n    tag_232:\n        /* \"Vendor.sol\":8389:8394  stage */\n      0x02\n      0x15\n      swap1\n      sload\n      swap1\n      0x0100\n      exp\n      swap1\n      div\n      0xff\n      and\n        /* \"Vendor.sol\":8389:8404  stage == _stage */\n      0x04\n      dup2\n      gt\n      iszero\n      tag_234\n      jumpi\n      tag_235\n      tag_133\n      jump\t// in\n    tag_235:\n    tag_234:\n      eq\n        /* \"Vendor.sol\":8381:8446  require(stage == _stage, \"Contract is not in the required state\") */\n      tag_236\n      jumpi\n      mload(0x40)\n      0x08c379a000000000000000000000000000000000000000000000000000000000\n      dup2\n      mstore\n      0x04\n      add\n      tag_237\n      swap1\n      tag_138\n      jump\t// in\n    tag_237:\n      mload(0x40)\n      dup1\n      swap2\n      sub\n      swap1\n      revert\n    tag_236:\n        /* \"Vendor.sol\":7392:7407  Stages.Inactive */\n      0x02\n        /* \"Vendor.sol\":7384:7389  stage */\n      dup1\n      0x15\n        /* \"Vendor.sol\":7384:7407  stage = Stages.Inactive */\n      0x0100\n      exp\n      dup2\n      sload\n      dup2\n      0xff\n      mul\n      not\n      and\n      swap1\n      dup4\n      0x04\n      dup2\n      gt\n      iszero\n      tag_239\n      jumpi\n      tag_240\n      tag_133\n      jump\t// in\n    tag_240:\n    tag_239:\n      mul\n      or\n      swap1\n      sstore\n      pop\n        /* \"Vendor.sol\":7319:7414  function setInactive() external atStage(Stages.Active) {... */\n      pop\n      jump\t// out\n        /* \"Vendor.sol\":217:237  address public admin */\n    tag_116:\n      0x00\n      dup1\n      sload\n      swap1\n      0x0100\n      exp\n      swap1\n      div\n      0xffffffffffffffffffffffffffffffffffffffff\n      and\n      dup2\n      jump\t// out\n        /* \"Vendor.sol\":3058:3554  function setConds(string[8] memory _names, int[8] memory _values, string[8] memory _operators) external atStage(Stages.Initialising) {... */\n    tag_123:\n        /* \"Vendor.sol\":3170:3189  Stages.Initialising */\n      0x00\n        /* \"Vendor.sol\":8398:8404  _stage */\n      dup1\n        /* \"Vendor.sol\":8389:8404  stage == _stage */\n      0x04\n      dup2\n      gt\n      iszero\n      tag_242\n      jumpi\n      tag_243\n      tag_133\n      jump\t// in\n    tag_243:\n    tag_242:\n        /* \"Vendor.sol\":8389:8394  stage */\n      0x02\n      0x15\n      swap1\n      sload\n      swap1\n      0x0100\n      exp\n      swap1\n      div\n      0xff\n      and\n        /* \"Vendor.sol\":8389:8404  stage == _stage */\n      0x04\n      dup2\n      gt\n      iszero\n      tag_244\n      jumpi\n      tag_245\n      tag_133\n      jump\t// in\n    tag_245:\n    tag_244:\n      eq\n        /* \"Vendor.sol\":8381:8446  require(stage == _stage, \"Contract is not in the required state\") */\n      tag_246\n      jumpi\n      mload(0x40)\n      0x08c379a000000000000000000000000000000000000000000000000000000000\n      dup2\n      mstore\n      0x04\n      add\n      tag_247\n      swap1\n      tag_138\n      jump\t// in\n    tag_247:\n      mload(0x40)\n      dup1\n      swap2\n      sub\n      swap1\n      revert\n    tag_246:\n        /* \"Vendor.sol\":3206:3212  uint i */\n      0x00\n        /* \"Vendor.sol\":3201:3548  for (uint i = 0; i < 8; i++) {... */\n    tag_249:\n        /* \"Vendor.sol\":3222:3223  8 */\n      0x08\n        /* \"Vendor.sol\":3218:3219  i */\n      dup2\n        /* \"Vendor.sol\":3218:3223  i < 8 */\n      lt\n        /* \"Vendor.sol\":3201:3548  for (uint i = 0; i < 8; i++) {... */\n      iszero\n      tag_250\n      jumpi\n        /* \"Vendor.sol\":3289:3302  bytes(\"None\") */\n      mload(0x40)\n      dup1\n      0x40\n      add\n      0x40\n      mstore\n      dup1\n      0x04\n      dup2\n      mstore\n      0x20\n      add\n      0x4e6f6e6500000000000000000000000000000000000000000000000000000000\n      dup2\n      mstore\n      pop\n        /* \"Vendor.sol\":3279:3303  keccak256(bytes(\"None\")) */\n      dup1\n      mload\n      swap1\n      0x20\n      add\n      keccak256\n        /* \"Vendor.sol\":3264:3270  _names */\n      dup6\n        /* \"Vendor.sol\":3271:3272  i */\n      dup3\n        /* \"Vendor.sol\":3264:3273  _names[i] */\n      0x08\n      dup2\n      lt\n      tag_252\n      jumpi\n      tag_253\n      tag_175\n      jump\t// in\n    tag_253:\n    tag_252:\n      0x20\n      mul\n      add\n      mload\n        /* \"Vendor.sol\":3248:3275  keccak256(bytes(_names[i])) */\n      dup1\n      mload\n      swap1\n      0x20\n      add\n      keccak256\n        /* \"Vendor.sol\":3248:3303  keccak256(bytes(_names[i])) == keccak256(bytes(\"None\")) */\n      eq\n        /* \"Vendor.sol\":3244:3444  if (keccak256(bytes(_names[i])) == keccak256(bytes(\"None\"))) {... */\n      iszero\n      tag_254\n      jumpi\n        /* \"Vendor.sol\":3323:3337  endInitStage() */\n      tag_255\n        /* \"Vendor.sol\":3323:3335  endInitStage */\n      tag_93\n        /* \"Vendor.sol\":3323:3337  endInitStage() */\n      jump\t// in\n    tag_255:\n        /* \"Vendor.sol\":3355:3362  return; */\n      pop\n      jump(tag_248)\n        /* \"Vendor.sol\":3244:3444  if (keccak256(bytes(_names[i])) == keccak256(bytes(\"None\"))) {... */\n    tag_254:\n        /* \"Vendor.sol\":3457:3471  conditionArray */\n      0x0a\n        /* \"Vendor.sol\":3477:3536  Conditions(_names[i], _values[i], operators[_operators[i]]) */\n      mload(0x40)\n      dup1\n      0x60\n      add\n      0x40\n      mstore\n      dup1\n        /* \"Vendor.sol\":3488:3494  _names */\n      dup8\n        /* \"Vendor.sol\":3495:3496  i */\n      dup5\n        /* \"Vendor.sol\":3488:3497  _names[i] */\n      0x08\n      dup2\n      lt\n      tag_256\n      jumpi\n      tag_257\n      tag_175\n      jump\t// in\n    tag_257:\n    tag_256:\n      0x20\n      mul\n      add\n      mload\n        /* \"Vendor.sol\":3477:3536  Conditions(_names[i], _values[i], operators[_operators[i]]) */\n      dup2\n      mstore\n      0x20\n      add\n        /* \"Vendor.sol\":3499:3506  _values */\n      dup7\n        /* \"Vendor.sol\":3507:3508  i */\n      dup5\n        /* \"Vendor.sol\":3499:3509  _values[i] */\n      0x08\n      dup2\n      lt\n      tag_258\n      jumpi\n      tag_259\n      tag_175\n      jump\t// in\n    tag_259:\n    tag_258:\n      0x20\n      mul\n      add\n      mload\n        /* \"Vendor.sol\":3477:3536  Conditions(_names[i], _values[i], operators[_operators[i]]) */\n      dup2\n      mstore\n      0x20\n      add\n        /* \"Vendor.sol\":3511:3520  operators */\n      0x0b\n        /* \"Vendor.sol\":3521:3531  _operators */\n      dup7\n        /* \"Vendor.sol\":3532:3533  i */\n      dup6\n        /* \"Vendor.sol\":3521:3534  _operators[i] */\n      0x08\n      dup2\n      lt\n      tag_260\n      jumpi\n      tag_261\n      tag_175\n      jump\t// in\n    tag_261:\n    tag_260:\n      0x20\n      mul\n      add\n      mload\n        /* \"Vendor.sol\":3511:3535  operators[_operators[i]] */\n      mload(0x40)\n      tag_262\n      swap2\n      swap1\n      tag_263\n      jump\t// in\n    tag_262:\n      swap1\n      dup2\n      mstore\n      0x20\n      add\n      mload(0x40)\n      dup1\n      swap2\n      sub\n      swap1\n      keccak256\n      sload\n        /* \"Vendor.sol\":3477:3536  Conditions(_names[i], _values[i], operators[_operators[i]]) */\n      dup2\n      mstore\n      pop\n        /* \"Vendor.sol\":3457:3537  conditionArray.push(Conditions(_names[i], _values[i], operators[_operators[i]])) */\n      swap1\n      dup1\n      0x01\n      dup2\n      sload\n      add\n      dup1\n      dup3\n      sstore\n      dup1\n      swap2\n      pop\n      pop\n      0x01\n      swap1\n      sub\n      swap1\n      0x00\n      mstore\n      keccak256(0x00, 0x20)\n      swap1\n      0x03\n      mul\n      add\n      0x00\n      swap1\n      swap2\n      swap1\n      swap2\n      swap1\n      swap2\n      pop\n      0x00\n      dup3\n      add\n      mload\n      dup2\n      0x00\n      add\n      swap1\n      dup1\n      mload\n      swap1\n      0x20\n      add\n      swap1\n      tag_265\n      swap3\n      swap2\n      swap1\n      tag_266\n      jump\t// in\n    tag_265:\n      pop\n      0x20\n      dup3\n      add\n      mload\n      dup2\n      0x01\n      add\n      sstore\n      0x40\n      dup3\n      add\n      mload\n      dup2\n      0x02\n      add\n      sstore\n      pop\n      pop\n        /* \"Vendor.sol\":3225:3228  i++ */\n      dup1\n      dup1\n      tag_267\n      swap1\n      tag_179\n      jump\t// in\n    tag_267:\n      swap2\n      pop\n      pop\n        /* \"Vendor.sol\":3201:3548  for (uint i = 0; i < 8; i++) {... */\n      jump(tag_249)\n    tag_250:\n      pop\n        /* \"Vendor.sol\":8456:8457  _ */\n    tag_248:\n        /* \"Vendor.sol\":3058:3554  function setConds(string[8] memory _names, int[8] memory _values, string[8] memory _operators) external atStage(Stages.Initialising) {... */\n      pop\n      pop\n      pop\n      pop\n      jump\t// out\n        /* \"Vendor.sol\":2735:2999  function calcDate(uint _billingDate) private view returns (uint) {... */\n    tag_126:\n        /* \"Vendor.sol\":2794:2798  uint */\n      0x00\n        /* \"Vendor.sol\":2810:2828  uint blockInterval */\n      dup1\n        /* \"Vendor.sol\":2864:2876  blocksSecond */\n      sload(0x0c)\n        /* \"Vendor.sol\":2847:2862  block.timestamp */\n      timestamp\n        /* \"Vendor.sol\":2832:2844  _billingDate */\n      dup5\n        /* \"Vendor.sol\":2832:2862  _billingDate - block.timestamp */\n      tag_269\n      swap2\n      swap1\n      tag_270\n      jump\t// in\n    tag_269:\n        /* \"Vendor.sol\":2831:2876  (_billingDate - block.timestamp)/blocksSecond */\n      tag_271\n      swap2\n      swap1\n      tag_272\n      jump\t// in\n    tag_271:\n        /* \"Vendor.sol\":2810:2876  uint blockInterval = (_billingDate - block.timestamp)/blocksSecond */\n      swap1\n      pop\n        /* \"Vendor.sol\":2979:2992  blockInterval */\n      dup1\n        /* \"Vendor.sol\":2964:2976  block.number */\n      number\n        /* \"Vendor.sol\":2964:2992  block.number + blockInterval */\n      tag_273\n      swap2\n      swap1\n      tag_274\n      jump\t// in\n    tag_273:\n        /* \"Vendor.sol\":2957:2992  return block.number + blockInterval */\n      swap2\n      pop\n      pop\n        /* \"Vendor.sol\":2735:2999  function calcDate(uint _billingDate) private view returns (uint) {... */\n      swap2\n      swap1\n      pop\n      jump\t// out\n        /* \"Vendor.sol\":2457:2669  function initOperators() private {... */\n    tag_129:\n        /* \"Vendor.sol\":2517:2518  1 */\n      0x01\n        /* \"Vendor.sol\":2500:2509  operators */\n      0x0b\n        /* \"Vendor.sol\":2500:2514  operators['>'] */\n      mload(0x40)\n      tag_276\n      swap1\n      tag_277\n      jump\t// in\n    tag_276:\n      swap1\n      dup2\n      mstore\n      0x20\n      add\n      mload(0x40)\n      dup1\n      swap2\n      sub\n      swap1\n      keccak256\n        /* \"Vendor.sol\":2500:2518  operators['>'] = 1 */\n      dup2\n      swap1\n      sstore\n      pop\n        /* \"Vendor.sol\":2546:2547  2 */\n      0x02\n        /* \"Vendor.sol\":2528:2537  operators */\n      0x0b\n        /* \"Vendor.sol\":2528:2543  operators['=='] */\n      mload(0x40)\n      tag_278\n      swap1\n      tag_279\n      jump\t// in\n    tag_278:\n      swap1\n      dup2\n      mstore\n      0x20\n      add\n      mload(0x40)\n      dup1\n      swap2\n      sub\n      swap1\n      keccak256\n        /* \"Vendor.sol\":2528:2547  operators['=='] = 2 */\n      dup2\n      swap1\n      sstore\n      pop\n        /* \"Vendor.sol\":2575:2576  3 */\n      0x03\n        /* \"Vendor.sol\":2557:2566  operators */\n      0x0b\n        /* \"Vendor.sol\":2557:2572  operators['=>'] */\n      mload(0x40)\n      tag_280\n      swap1\n      tag_281\n      jump\t// in\n    tag_280:\n      swap1\n      dup2\n      mstore\n      0x20\n      add\n      mload(0x40)\n      dup1\n      swap2\n      sub\n      swap1\n      keccak256\n        /* \"Vendor.sol\":2557:2576  operators['=>'] = 3 */\n      dup2\n      swap1\n      sstore\n      pop\n        /* \"Vendor.sol\":2603:2604  4 */\n      0x04\n        /* \"Vendor.sol\":2586:2595  operators */\n      0x0b\n        /* \"Vendor.sol\":2586:2600  operators['<'] */\n      mload(0x40)\n      tag_282\n      swap1\n      tag_283\n      jump\t// in\n    tag_282:\n      swap1\n      dup2\n      mstore\n      0x20\n      add\n      mload(0x40)\n      dup1\n      swap2\n      sub\n      swap1\n      keccak256\n        /* \"Vendor.sol\":2586:2604  operators['<'] = 4 */\n      dup2\n      swap1\n      sstore\n      pop\n        /* \"Vendor.sol\":2632:2633  5 */\n      0x05\n        /* \"Vendor.sol\":2614:2623  operators */\n      0x0b\n        /* \"Vendor.sol\":2614:2629  operators['!='] */\n      mload(0x40)\n      tag_284\n      swap1\n      tag_285\n      jump\t// in\n    tag_284:\n      swap1\n      dup2\n      mstore\n      0x20\n      add\n      mload(0x40)\n      dup1\n      swap2\n      sub\n      swap1\n      keccak256\n        /* \"Vendor.sol\":2614:2633  operators['!='] = 5 */\n      dup2\n      swap1\n      sstore\n      pop\n        /* \"Vendor.sol\":2661:2662  6 */\n      0x06\n        /* \"Vendor.sol\":2643:2652  operators */\n      0x0b\n        /* \"Vendor.sol\":2643:2658  operators['<='] */\n      mload(0x40)\n      tag_286\n      swap1\n      tag_287\n      jump\t// in\n    tag_286:\n      swap1\n      dup2\n      mstore\n      0x20\n      add\n      mload(0x40)\n      dup1\n      swap2\n      sub\n      swap1\n      keccak256\n        /* \"Vendor.sol\":2643:2662  operators['<='] = 6 */\n      dup2\n      swap1\n      sstore\n      pop\n        /* \"Vendor.sol\":2457:2669  function initOperators() private {... */\n      jump\t// out\n        /* \"Vendor.sol\":5680:6327  function isSatisfied() private atStage(Stages.Active) {... */\n    tag_163:\n        /* \"Vendor.sol\":5719:5732  Stages.Active */\n      0x03\n        /* \"Vendor.sol\":8398:8404  _stage */\n      dup1\n        /* \"Vendor.sol\":8389:8404  stage == _stage */\n      0x04\n      dup2\n      gt\n      iszero\n      tag_289\n      jumpi\n      tag_290\n      tag_133\n      jump\t// in\n    tag_290:\n    tag_289:\n        /* \"Vendor.sol\":8389:8394  stage */\n      0x02\n      0x15\n      swap1\n      sload\n      swap1\n      0x0100\n      exp\n      swap1\n      div\n      0xff\n      and\n        /* \"Vendor.sol\":8389:8404  stage == _stage */\n      0x04\n      dup2\n      gt\n      iszero\n      tag_291\n      jumpi\n      tag_292\n      tag_133\n      jump\t// in\n    tag_292:\n    tag_291:\n      eq\n        /* \"Vendor.sol\":8381:8446  require(stage == _stage, \"Contract is not in the required state\") */\n      tag_293\n      jumpi\n      mload(0x40)\n      0x08c379a000000000000000000000000000000000000000000000000000000000\n      dup2\n      mstore\n      0x04\n      add\n      tag_294\n      swap1\n      tag_138\n      jump\t// in\n    tag_294:\n      mload(0x40)\n      dup1\n      swap2\n      sub\n      swap1\n      revert\n    tag_293:\n        /* \"Vendor.sol\":5749:5755  uint i */\n      0x00\n        /* \"Vendor.sol\":5744:6163  for (uint i = 0; i < conditionArray.length; i++) {... */\n    tag_296:\n        /* \"Vendor.sol\":5765:5779  conditionArray */\n      0x0a\n        /* \"Vendor.sol\":5765:5786  conditionArray.length */\n      dup1\n      sload\n      swap1\n      pop\n        /* \"Vendor.sol\":5761:5762  i */\n      dup2\n        /* \"Vendor.sol\":5761:5786  i < conditionArray.length */\n      lt\n        /* \"Vendor.sol\":5744:6163  for (uint i = 0; i < conditionArray.length; i++) {... */\n      iszero\n      tag_297\n      jumpi\n        /* \"Vendor.sol\":5807:5819  int operator */\n      0x00\n        /* \"Vendor.sol\":5822:5836  conditionArray */\n      0x0a\n        /* \"Vendor.sol\":5837:5838  i */\n      dup3\n        /* \"Vendor.sol\":5822:5839  conditionArray[i] */\n      dup2\n      sload\n      dup2\n      lt\n      tag_299\n      jumpi\n      tag_300\n      tag_175\n      jump\t// in\n    tag_300:\n    tag_299:\n      swap1\n      0x00\n      mstore\n      keccak256(0x00, 0x20)\n      swap1\n      0x03\n      mul\n      add\n        /* \"Vendor.sol\":5822:5848  conditionArray[i].operator */\n      0x02\n      add\n      sload\n        /* \"Vendor.sol\":5807:5848  int operator = conditionArray[i].operator */\n      swap1\n      pop\n        /* \"Vendor.sol\":5862:5871  int value */\n      0x00\n        /* \"Vendor.sol\":5874:5888  conditionArray */\n      0x0a\n        /* \"Vendor.sol\":5889:5890  i */\n      dup4\n        /* \"Vendor.sol\":5874:5891  conditionArray[i] */\n      dup2\n      sload\n      dup2\n      lt\n      tag_302\n      jumpi\n      tag_303\n      tag_175\n      jump\t// in\n    tag_303:\n    tag_302:\n      swap1\n      0x00\n      mstore\n      keccak256(0x00, 0x20)\n      swap1\n      0x03\n      mul\n      add\n        /* \"Vendor.sol\":5874:5897  conditionArray[i].value */\n      0x01\n      add\n      sload\n        /* \"Vendor.sol\":5862:5897  int value = conditionArray[i].value */\n      swap1\n      pop\n        /* \"Vendor.sol\":5911:5923  int _toCheck */\n      0x00\n        /* \"Vendor.sol\":5940:5945  count */\n      sload(0x0e)\n        /* \"Vendor.sol\":5926:5936  cumulative */\n      0x0d\n        /* \"Vendor.sol\":5926:5939  cumulative[i] */\n      0x00\n        /* \"Vendor.sol\":5937:5938  i */\n      dup7\n        /* \"Vendor.sol\":5926:5939  cumulative[i] */\n      dup2\n      mstore\n      0x20\n      add\n      swap1\n      dup2\n      mstore\n      0x20\n      add\n      0x00\n      keccak256\n      sload\n        /* \"Vendor.sol\":5926:5945  cumulative[i]/count */\n      tag_305\n      swap2\n      swap1\n      tag_306\n      jump\t// in\n    tag_305:\n        /* \"Vendor.sol\":5911:5945  int _toCheck = cumulative[i]/count */\n      swap1\n      pop\n        /* \"Vendor.sol\":5977:6013  condValid(operator, _toCheck, value) */\n      tag_307\n        /* \"Vendor.sol\":5987:5995  operator */\n      dup4\n        /* \"Vendor.sol\":5997:6005  _toCheck */\n      dup3\n        /* \"Vendor.sol\":6007:6012  value */\n      dup5\n        /* \"Vendor.sol\":5977:5986  condValid */\n      tag_308\n        /* \"Vendor.sol\":5977:6013  condValid(operator, _toCheck, value) */\n      jump\t// in\n    tag_307:\n        /* \"Vendor.sol\":5972:6153  if (!condValid(operator, _toCheck, value)) {... */\n      tag_309\n      jumpi\n        /* \"Vendor.sol\":6033:6041  refund() */\n      tag_310\n        /* \"Vendor.sol\":6033:6039  refund */\n      tag_311\n        /* \"Vendor.sol\":6033:6041  refund() */\n      jump\t// in\n    tag_310:\n        /* \"Vendor.sol\":6070:6080  msg.sender */\n      caller\n        /* \"Vendor.sol\":6064:6114  State(msg.sender, satisfied, \"Refunding payment.\") */\n      0xffffffffffffffffffffffffffffffffffffffff\n      and\n      0xa84226bf2d14bde3fac454f52eaeab63aaeb1934da88f9263dd4ff7dd12acf71\n        /* \"Vendor.sol\":6082:6091  satisfied */\n      0x09\n      0x00\n      swap1\n      sload\n      swap1\n      0x0100\n      exp\n      swap1\n      div\n      0xff\n      and\n        /* \"Vendor.sol\":6064:6114  State(msg.sender, satisfied, \"Refunding payment.\") */\n      mload(0x40)\n      tag_312\n      swap2\n      swap1\n      tag_313\n      jump\t// in\n    tag_312:\n      mload(0x40)\n      dup1\n      swap2\n      sub\n      swap1\n      log2\n        /* \"Vendor.sol\":6132:6139  return; */\n      pop\n      pop\n      pop\n      pop\n      jump(tag_295)\n        /* \"Vendor.sol\":5972:6153  if (!condValid(operator, _toCheck, value)) {... */\n    tag_309:\n        /* \"Vendor.sol\":5793:6163  {... */\n      pop\n      pop\n      pop\n        /* \"Vendor.sol\":5788:5791  i++ */\n      dup1\n      dup1\n      tag_314\n      swap1\n      tag_179\n      jump\t// in\n    tag_314:\n      swap2\n      pop\n      pop\n        /* \"Vendor.sol\":5744:6163  for (uint i = 0; i < conditionArray.length; i++) {... */\n      jump(tag_296)\n    tag_297:\n      pop\n        /* \"Vendor.sol\":6184:6188  true */\n      0x01\n        /* \"Vendor.sol\":6172:6181  satisfied */\n      0x09\n      0x00\n        /* \"Vendor.sol\":6172:6188  satisfied = true */\n      0x0100\n      exp\n      dup2\n      sload\n      dup2\n      0xff\n      mul\n      not\n      and\n      swap1\n      dup4\n      iszero\n      iszero\n      mul\n      or\n      swap1\n      sstore\n      pop\n        /* \"Vendor.sol\":6209:6219  msg.sender */\n      caller\n        /* \"Vendor.sol\":6203:6251  State(msg.sender, satisfied, \"Sending payment.\") */\n      0xffffffffffffffffffffffffffffffffffffffff\n      and\n      0xa84226bf2d14bde3fac454f52eaeab63aaeb1934da88f9263dd4ff7dd12acf71\n        /* \"Vendor.sol\":6221:6230  satisfied */\n      0x09\n      0x00\n      swap1\n      sload\n      swap1\n      0x0100\n      exp\n      swap1\n      div\n      0xff\n      and\n        /* \"Vendor.sol\":6203:6251  State(msg.sender, satisfied, \"Sending payment.\") */\n      mload(0x40)\n      tag_315\n      swap2\n      swap1\n      tag_316\n      jump\t// in\n    tag_315:\n      mload(0x40)\n      dup1\n      swap2\n      sub\n      swap1\n      log2\n        /* \"Vendor.sol\":6309:6320  payVendor() */\n      tag_317\n        /* \"Vendor.sol\":6309:6318  payVendor */\n      tag_318\n        /* \"Vendor.sol\":6309:6320  payVendor() */\n      jump\t// in\n    tag_317:\n        /* \"Vendor.sol\":8456:8457  _ */\n    tag_295:\n        /* \"Vendor.sol\":5680:6327  function isSatisfied() private atStage(Stages.Active) {... */\n      pop\n      jump\t// out\n        /* \"Vendor.sol\":6473:7066  function condValid(int operator, int _toCheck, int value) private pure returns (bool) {... */\n    tag_308:\n        /* \"Vendor.sol\":6553:6557  bool */\n      0x00\n        /* \"Vendor.sol\":6585:6587  -1 */\n      0xffffffffffffffffffffffffffffffffffffffffffffffffffffffffffffffff\n        /* \"Vendor.sol\":6573:6581  operator */\n      dup5\n        /* \"Vendor.sol\":6573:6587  operator != -1 */\n      eq\n        /* \"Vendor.sol\":6569:7039  if (operator != -1) {... */\n      tag_320\n      jumpi\n        /* \"Vendor.sol\":6623:6624  1 */\n      0x01\n        /* \"Vendor.sol\":6618:6619  1 */\n      dup1\n        /* \"Vendor.sol\":6607:6615  operator */\n      dup6\n        /* \"Vendor.sol\":6607:6619  operator & 1 */\n      and\n        /* \"Vendor.sol\":6607:6624  operator & 1 == 1 */\n      eq\n        /* \"Vendor.sol\":6603:6736  if (operator & 1 == 1) {... */\n      iszero\n      tag_321\n      jumpi\n        /* \"Vendor.sol\":6661:6666  value */\n      dup2\n        /* \"Vendor.sol\":6650:6658  _toCheck */\n      dup4\n        /* \"Vendor.sol\":6650:6666  _toCheck > value */\n      sgt\n        /* \"Vendor.sol\":6644:6722  if (!(_toCheck > value)) {... */\n      tag_322\n      jumpi\n        /* \"Vendor.sol\":6698:6703  false */\n      0x00\n        /* \"Vendor.sol\":6691:6703  return false */\n      swap1\n      pop\n      jump(tag_319)\n        /* \"Vendor.sol\":6644:6722  if (!(_toCheck > value)) {... */\n    tag_322:\n        /* \"Vendor.sol\":6603:6736  if (operator & 1 == 1) {... */\n    tag_321:\n        /* \"Vendor.sol\":6769:6770  2 */\n      0x02\n        /* \"Vendor.sol\":6764:6765  2 */\n      dup1\n        /* \"Vendor.sol\":6753:6761  operator */\n      dup6\n        /* \"Vendor.sol\":6753:6765  operator & 2 */\n      and\n        /* \"Vendor.sol\":6753:6770  operator & 2 == 2 */\n      eq\n        /* \"Vendor.sol\":6749:6883  if (operator & 2 == 2) {... */\n      iszero\n      tag_323\n      jumpi\n        /* \"Vendor.sol\":6808:6813  value */\n      dup2\n        /* \"Vendor.sol\":6796:6804  _toCheck */\n      dup4\n        /* \"Vendor.sol\":6796:6813  _toCheck == value */\n      eq\n        /* \"Vendor.sol\":6790:6869  if (!(_toCheck == value)) {... */\n      tag_324\n      jumpi\n        /* \"Vendor.sol\":6845:6850  false */\n      0x00\n        /* \"Vendor.sol\":6838:6850  return false */\n      swap1\n      pop\n      jump(tag_319)\n        /* \"Vendor.sol\":6790:6869  if (!(_toCheck == value)) {... */\n    tag_324:\n        /* \"Vendor.sol\":6749:6883  if (operator & 2 == 2) {... */\n    tag_323:\n        /* \"Vendor.sol\":6916:6917  4 */\n      0x04\n        /* \"Vendor.sol\":6911:6912  4 */\n      dup1\n        /* \"Vendor.sol\":6900:6908  operator */\n      dup6\n        /* \"Vendor.sol\":6900:6912  operator & 4 */\n      and\n        /* \"Vendor.sol\":6900:6917  operator & 4 == 4 */\n      eq\n        /* \"Vendor.sol\":6896:7029  if (operator & 4 == 4) {... */\n      iszero\n      tag_325\n      jumpi\n        /* \"Vendor.sol\":6954:6959  value */\n      dup2\n        /* \"Vendor.sol\":6943:6951  _toCheck */\n      dup4\n        /* \"Vendor.sol\":6943:6959  _toCheck < value */\n      slt\n        /* \"Vendor.sol\":6937:7015  if (!(_toCheck < value)) {... */\n      tag_326\n      jumpi\n        /* \"Vendor.sol\":6991:6996  false */\n      0x00\n        /* \"Vendor.sol\":6984:6996  return false */\n      swap1\n      pop\n      jump(tag_319)\n        /* \"Vendor.sol\":6937:7015  if (!(_toCheck < value)) {... */\n    tag_326:\n        /* \"Vendor.sol\":6896:7029  if (operator & 4 == 4) {... */\n    tag_325:\n        /* \"Vendor.sol\":6569:7039  if (operator != -1) {... */\n    tag_320:\n        /* \"Vendor.sol\":7055:7059  true */\n      0x01\n        /* \"Vendor.sol\":7048:7059  return true */\n      swap1\n      pop\n        /* \"Vendor.sol\":6473:7066  function condValid(int operator, int _toCheck, int value) private pure returns (bool) {... */\n    tag_319:\n      swap4\n      swap3\n      pop\n      pop\n      pop\n      jump\t// out\n        /* \"Vendor.sol\":4858:4947  function refund() private {... */\n    tag_311:\n        /* \"Vendor.sol\":4894:4900  client */\n      0x01\n      0x00\n      swap1\n      sload\n      swap1\n      0x0100\n      exp\n      swap1\n      div\n      0xffffffffffffffffffffffffffffffffffffffff\n      and\n        /* \"Vendor.sol\":4894:4909  client.transfer */\n      0xffffffffffffffffffffffffffffffffffffffff\n      and\n        /* \"Vendor.sol\":4894:4917  client.transfer(amount) */\n      0x08fc\n        /* \"Vendor.sol\":4910:4916  amount */\n      sload(0x05)\n        /* \"Vendor.sol\":4894:4917  client.transfer(amount) */\n      swap1\n      dup2\n      iszero\n      mul\n      swap1\n      mload(0x40)\n      0x00\n      mload(0x40)\n      dup1\n      dup4\n      sub\n      dup2\n      dup6\n      dup9\n      dup9\n      call\n      swap4\n      pop\n      pop\n      pop\n      pop\n      iszero\n      dup1\n      iszero\n      tag_329\n      jumpi\n      returndatasize\n      0x00\n      dup1\n      returndatacopy\n      revert(0x00, returndatasize)\n    tag_329:\n      pop\n        /* \"Vendor.sol\":4927:4940  setNewDates() */\n      tag_330\n        /* \"Vendor.sol\":4927:4938  setNewDates */\n      tag_331\n        /* \"Vendor.sol\":4927:4940  setNewDates() */\n      jump\t// in\n    tag_330:\n        /* \"Vendor.sol\":4858:4947  function refund() private {... */\n      jump\t// out\n        /* \"Vendor.sol\":4757:4848  function payVendor() private {... */\n    tag_318:\n        /* \"Vendor.sol\":4796:4801  payee */\n      0x02\n      0x00\n      swap1\n      sload\n      swap1\n      0x0100\n      exp\n      swap1\n      div\n      0xffffffffffffffffffffffffffffffffffffffff\n      and\n        /* \"Vendor.sol\":4796:4810  payee.transfer */\n      0xffffffffffffffffffffffffffffffffffffffff\n      and\n        /* \"Vendor.sol\":4796:4818  payee.transfer(amount) */\n      0x08fc\n        /* \"Vendor.sol\":4811:4817  amount */\n      sload(0x05)\n        /* \"Vendor.sol\":4796:4818  payee.transfer(amount) */\n      swap1\n      dup2\n      iszero\n      mul\n      swap1\n      mload(0x40)\n      0x00\n      mload(0x40)\n      dup1\n      dup4\n      sub\n      dup2\n      dup6\n      dup9\n      dup9\n      call\n      swap4\n      pop\n      pop\n      pop\n      pop\n      iszero\n      dup1\n      iszero\n      tag_334\n      jumpi\n      returndatasize\n      0x00\n      dup1\n      returndatacopy\n      revert(0x00, returndatasize)\n    tag_334:\n      pop\n        /* \"Vendor.sol\":4828:4841  setNewDates() */\n      tag_335\n        /* \"Vendor.sol\":4828:4839  setNewDates */\n      tag_331\n        /* \"Vendor.sol\":4828:4841  setNewDates() */\n      jump\t// in\n    tag_335:\n        /* \"Vendor.sol\":4757:4848  function payVendor() private {... */\n      jump\t// out\n        /* \"Vendor.sol\":4953:5137  function setNewDates() private checkExpiry() {... */\n    tag_331:\n        /* \"Vendor.sol\":8218:8228  expiryDate */\n      sload(0x04)\n        /* \"Vendor.sol\":8203:8215  block.number */\n      number\n        /* \"Vendor.sol\":8203:8228  block.number < expiryDate */\n      lt\n        /* \"Vendor.sol\":8199:8256  if (block.number < expiryDate) {... */\n      iszero\n      tag_337\n      jumpi\n        /* \"Vendor.sol\":5020:5025  false */\n      0x00\n        /* \"Vendor.sol\":5008:5017  satisfied */\n      0x09\n      0x00\n        /* \"Vendor.sol\":5008:5025  satisfied = false */\n      0x0100\n      exp\n      dup2\n      sload\n      dup2\n      0xff\n      mul\n      not\n      and\n      swap1\n      dup4\n      iszero\n      iszero\n      mul\n      or\n      swap1\n      sstore\n      pop\n        /* \"Vendor.sol\":5053:5068  nextBillingDate */\n      sload(0x07)\n        /* \"Vendor.sol\":5035:5050  prevBillingDate */\n      0x06\n        /* \"Vendor.sol\":5035:5068  prevBillingDate = nextBillingDate */\n      dup2\n      swap1\n      sstore\n      pop\n        /* \"Vendor.sol\":1168:1172  6400 */\n      0x1900\n        /* \"Vendor.sol\":5114:5116  30 */\n      0x1e\n        /* \"Vendor.sol\":5114:5130  30 * blocksDaily */\n      tag_339\n      swap2\n      swap1\n      tag_340\n      jump\t// in\n    tag_339:\n        /* \"Vendor.sol\":5096:5111  nextBillingDate */\n      sload(0x07)\n        /* \"Vendor.sol\":5096:5130  nextBillingDate + 30 * blocksDaily */\n      tag_341\n      swap2\n      swap1\n      tag_274\n      jump\t// in\n    tag_341:\n        /* \"Vendor.sol\":5078:5093  nextBillingDate */\n      0x07\n        /* \"Vendor.sol\":5078:5130  nextBillingDate = nextBillingDate + 30 * blocksDaily */\n      dup2\n      swap1\n      sstore\n      pop\n        /* \"Vendor.sol\":8199:8256  if (block.number < expiryDate) {... */\n    tag_337:\n        /* \"Vendor.sol\":8273:8287  Stages.Expired */\n      0x04\n        /* \"Vendor.sol\":8265:8270  stage */\n      0x02\n      0x15\n        /* \"Vendor.sol\":8265:8287  stage = Stages.Expired */\n      0x0100\n      exp\n      dup2\n      sload\n      dup2\n      0xff\n      mul\n      not\n      and\n      swap1\n      dup4\n      0x04\n      dup2\n      gt\n      iszero\n      tag_342\n      jumpi\n      tag_343\n      tag_133\n      jump\t// in\n    tag_343:\n    tag_342:\n      mul\n      or\n      swap1\n      sstore\n      pop\n        /* \"Vendor.sol\":4953:5137  function setNewDates() private checkExpiry() {... */\n      jump\t// out\n    tag_266:\n      dup3\n      dup1\n      sload\n      tag_344\n      swap1\n      tag_148\n      jump\t// in\n    tag_344:\n      swap1\n      0x00\n      mstore\n      keccak256(0x00, 0x20)\n      swap1\n      0x1f\n      add\n      0x20\n      swap1\n      div\n      dup2\n      add\n      swap3\n      dup3\n      tag_346\n      jumpi\n      0x00\n      dup6\n      sstore\n      jump(tag_345)\n    tag_346:\n      dup3\n      0x1f\n      lt\n      tag_347\n      jumpi\n      dup1\n      mload\n      not(0xff)\n      and\n      dup4\n      dup1\n      add\n      or\n      dup6\n      sstore\n      jump(tag_345)\n    tag_347:\n      dup3\n      dup1\n      add\n      0x01\n      add\n      dup6\n      sstore\n      dup3\n      iszero\n      tag_345\n      jumpi\n      swap2\n      dup3\n      add\n    tag_348:\n      dup3\n      dup2\n      gt\n      iszero\n      tag_349\n      jumpi\n      dup3\n      mload\n      dup3\n      sstore\n      swap2\n      0x20\n      add\n      swap2\n      swap1\n      0x01\n      add\n      swap1\n      jump(tag_348)\n    tag_349:\n    tag_345:\n      pop\n      swap1\n      pop\n      tag_350\n      swap2\n      swap1\n      tag_351\n      jump\t// in\n    tag_350:\n      pop\n      swap1\n      jump\t// out\n    tag_351:\n    tag_352:\n      dup1\n      dup3\n      gt\n      iszero\n      tag_353\n      jumpi\n      0x00\n      dup2\n      0x00\n      swap1\n      sstore\n      pop\n      0x01\n      add\n      jump(tag_352)\n    tag_353:\n      pop\n      swap1\n      jump\t// out\n        /* \"#utility.yul\":24:676   */\n    tag_355:\n        /* \"#utility.yul\":117:122   */\n      0x00\n        /* \"#utility.yul\":142:220   */\n      tag_357\n        /* \"#utility.yul\":158:219   */\n      tag_358\n        /* \"#utility.yul\":212:218   */\n      dup5\n        /* \"#utility.yul\":158:219   */\n      tag_359\n      jump\t// in\n    tag_358:\n        /* \"#utility.yul\":142:220   */\n      tag_360\n      jump\t// in\n    tag_357:\n        /* \"#utility.yul\":133:220   */\n      swap1\n      pop\n        /* \"#utility.yul\":240:245   */\n      dup1\n        /* \"#utility.yul\":266:272   */\n      dup3\n        /* \"#utility.yul\":316:319   */\n      dup6\n        /* \"#utility.yul\":308:312   */\n      0x20\n        /* \"#utility.yul\":300:306   */\n      dup7\n        /* \"#utility.yul\":296:313   */\n      mul\n        /* \"#utility.yul\":291:294   */\n      dup3\n        /* \"#utility.yul\":287:314   */\n      add\n        /* \"#utility.yul\":284:320   */\n      gt\n        /* \"#utility.yul\":281:283   */\n      iszero\n      tag_361\n      jumpi\n        /* \"#utility.yul\":335:414   */\n      tag_362\n      tag_363\n      jump\t// in\n    tag_362:\n        /* \"#utility.yul\":281:283   */\n    tag_361:\n        /* \"#utility.yul\":448:449   */\n      0x00\n        /* \"#utility.yul\":433:670   */\n    tag_364:\n        /* \"#utility.yul\":458:464   */\n      dup6\n        /* \"#utility.yul\":455:456   */\n      dup2\n        /* \"#utility.yul\":452:465   */\n      lt\n        /* \"#utility.yul\":433:670   */\n      iszero\n      tag_366\n      jumpi\n        /* \"#utility.yul\":526:529   */\n      dup2\n        /* \"#utility.yul\":555:591   */\n      tag_367\n        /* \"#utility.yul\":587:590   */\n      dup9\n        /* \"#utility.yul\":575:585   */\n      dup3\n        /* \"#utility.yul\":555:591   */\n      tag_368\n      jump\t// in\n    tag_367:\n        /* \"#utility.yul\":550:553   */\n      dup5\n        /* \"#utility.yul\":543:592   */\n      mstore\n        /* \"#utility.yul\":621:625   */\n      0x20\n        /* \"#utility.yul\":616:619   */\n      dup5\n        /* \"#utility.yul\":612:626   */\n      add\n        /* \"#utility.yul\":605:626   */\n      swap4\n      pop\n        /* \"#utility.yul\":655:659   */\n      0x20\n        /* \"#utility.yul\":650:653   */\n      dup4\n        /* \"#utility.yul\":646:660   */\n      add\n        /* \"#utility.yul\":639:660   */\n      swap3\n      pop\n        /* \"#utility.yul\":493:670   */\n      pop\n        /* \"#utility.yul\":480:481   */\n      0x01\n        /* \"#utility.yul\":477:478   */\n      dup2\n        /* \"#utility.yul\":473:482   */\n      add\n        /* \"#utility.yul\":468:482   */\n      swap1\n      pop\n        /* \"#utility.yul\":433:670   */\n      jump(tag_364)\n    tag_366:\n        /* \"#utility.yul\":437:451   */\n      pop\n        /* \"#utility.yul\":123:676   */\n      pop\n      pop\n      swap4\n      swap3\n      pop\n      pop\n      pop\n      jump\t// out\n        /* \"#utility.yul\":698:1417   */\n    tag_369:\n        /* \"#utility.yul\":793:798   */\n      0x00\n        /* \"#utility.yul\":818:898   */\n      tag_371\n        /* \"#utility.yul\":834:897   */\n      tag_372\n        /* \"#utility.yul\":890:896   */\n      dup5\n        /* \"#utility.yul\":834:897   */\n      tag_373\n      jump\t// in\n    tag_372:\n        /* \"#utility.yul\":818:898   */\n      tag_360\n      jump\t// in\n    tag_371:\n        /* \"#utility.yul\":809:898   */\n      swap1\n      pop\n        /* \"#utility.yul\":918:923   */\n      dup1\n        /* \"#utility.yul\":947:953   */\n      dup4\n        /* \"#utility.yul\":940:945   */\n      dup3\n        /* \"#utility.yul\":933:954   */\n      mstore\n        /* \"#utility.yul\":981:985   */\n      0x20\n        /* \"#utility.yul\":974:979   */\n      dup3\n        /* \"#utility.yul\":970:986   */\n      add\n        /* \"#utility.yul\":963:986   */\n      swap1\n      pop\n        /* \"#utility.yul\":1007:1013   */\n      dup3\n        /* \"#utility.yul\":1057:1060   */\n      dup6\n        /* \"#utility.yul\":1049:1053   */\n      0x20\n        /* \"#utility.yul\":1041:1047   */\n      dup7\n        /* \"#utility.yul\":1037:1054   */\n      mul\n        /* \"#utility.yul\":1032:1035   */\n      dup3\n        /* \"#utility.yul\":1028:1055   */\n      add\n        /* \"#utility.yul\":1025:1061   */\n      gt\n        /* \"#utility.yul\":1022:1024   */\n      iszero\n      tag_374\n      jumpi\n        /* \"#utility.yul\":1076:1155   */\n      tag_375\n      tag_363\n      jump\t// in\n    tag_375:\n        /* \"#utility.yul\":1022:1024   */\n    tag_374:\n        /* \"#utility.yul\":1189:1190   */\n      0x00\n        /* \"#utility.yul\":1174:1411   */\n    tag_376:\n        /* \"#utility.yul\":1199:1205   */\n      dup6\n        /* \"#utility.yul\":1196:1197   */\n      dup2\n        /* \"#utility.yul\":1193:1206   */\n      lt\n        /* \"#utility.yul\":1174:1411   */\n      iszero\n      tag_378\n      jumpi\n        /* \"#utility.yul\":1267:1270   */\n      dup2\n        /* \"#utility.yul\":1296:1332   */\n      tag_379\n        /* \"#utility.yul\":1328:1331   */\n      dup9\n        /* \"#utility.yul\":1316:1326   */\n      dup3\n        /* \"#utility.yul\":1296:1332   */\n      tag_368\n      jump\t// in\n    tag_379:\n        /* \"#utility.yul\":1291:1294   */\n      dup5\n        /* \"#utility.yul\":1284:1333   */\n      mstore\n        /* \"#utility.yul\":1362:1366   */\n      0x20\n        /* \"#utility.yul\":1357:1360   */\n      dup5\n        /* \"#utility.yul\":1353:1367   */\n      add\n        /* \"#utility.yul\":1346:1367   */\n      swap4\n      pop\n        /* \"#utility.yul\":1396:1400   */\n      0x20\n        /* \"#utility.yul\":1391:1394   */\n      dup4\n        /* \"#utility.yul\":1387:1401   */\n      add\n        /* \"#utility.yul\":1380:1401   */\n      swap3\n      pop\n        /* \"#utility.yul\":1234:1411   */\n      pop\n        /* \"#utility.yul\":1221:1222   */\n      0x01\n        /* \"#utility.yul\":1218:1219   */\n      dup2\n        /* \"#utility.yul\":1214:1223   */\n      add\n        /* \"#utility.yul\":1209:1223   */\n      swap1\n      pop\n        /* \"#utility.yul\":1174:1411   */\n      jump(tag_376)\n    tag_378:\n        /* \"#utility.yul\":1178:1192   */\n      pop\n        /* \"#utility.yul\":799:1417   */\n      pop\n      pop\n      swap4\n      swap3\n      pop\n      pop\n      pop\n      jump\t// out\n        /* \"#utility.yul\":1440:2330   */\n    tag_380:\n        /* \"#utility.yul\":1544:1549   */\n      0x00\n        /* \"#utility.yul\":1569:1658   */\n      tag_382\n        /* \"#utility.yul\":1585:1657   */\n      tag_383\n        /* \"#utility.yul\":1650:1656   */\n      dup5\n        /* \"#utility.yul\":1585:1657   */\n      tag_384\n      jump\t// in\n    tag_383:\n        /* \"#utility.yul\":1569:1658   */\n      tag_360\n      jump\t// in\n    tag_382:\n        /* \"#utility.yul\":1560:1658   */\n      swap1\n      pop\n        /* \"#utility.yul\":1678:1683   */\n      dup1\n        /* \"#utility.yul\":1704:1710   */\n      dup3\n        /* \"#utility.yul\":1754:1757   */\n      dup6\n        /* \"#utility.yul\":1746:1750   */\n      0x20\n        /* \"#utility.yul\":1738:1744   */\n      dup7\n        /* \"#utility.yul\":1734:1751   */\n      mul\n        /* \"#utility.yul\":1729:1732   */\n      dup3\n        /* \"#utility.yul\":1725:1752   */\n      add\n        /* \"#utility.yul\":1722:1758   */\n      gt\n        /* \"#utility.yul\":1719:1721   */\n      iszero\n      tag_385\n      jumpi\n        /* \"#utility.yul\":1773:1852   */\n      tag_386\n      tag_363\n      jump\t// in\n    tag_386:\n        /* \"#utility.yul\":1719:1721   */\n    tag_385:\n        /* \"#utility.yul\":1886:1887   */\n      0x00\n        /* \"#utility.yul\":1871:2324   */\n    tag_387:\n        /* \"#utility.yul\":1896:1902   */\n      dup6\n        /* \"#utility.yul\":1893:1894   */\n      dup2\n        /* \"#utility.yul\":1890:1903   */\n      lt\n        /* \"#utility.yul\":1871:2324   */\n      iszero\n      tag_389\n      jumpi\n        /* \"#utility.yul\":1978:1981   */\n      dup2\n        /* \"#utility.yul\":1965:1982   */\n      calldataload\n        /* \"#utility.yul\":2014:2032   */\n      0xffffffffffffffff\n        /* \"#utility.yul\":2001:2012   */\n      dup2\n        /* \"#utility.yul\":1998:2033   */\n      gt\n        /* \"#utility.yul\":1995:1997   */\n      iszero\n      tag_390\n      jumpi\n        /* \"#utility.yul\":2036:2115   */\n      tag_391\n      tag_392\n      jump\t// in\n    tag_391:\n        /* \"#utility.yul\":1995:1997   */\n    tag_390:\n        /* \"#utility.yul\":2160:2171   */\n      dup1\n        /* \"#utility.yul\":2152:2158   */\n      dup7\n        /* \"#utility.yul\":2148:2172   */\n      add\n        /* \"#utility.yul\":2198:2245   */\n      tag_393\n        /* \"#utility.yul\":2241:2244   */\n      dup10\n        /* \"#utility.yul\":2229:2239   */\n      dup3\n        /* \"#utility.yul\":2198:2245   */\n      tag_394\n      jump\t// in\n    tag_393:\n        /* \"#utility.yul\":2193:2196   */\n      dup6\n        /* \"#utility.yul\":2186:2246   */\n      mstore\n        /* \"#utility.yul\":2275:2279   */\n      0x20\n        /* \"#utility.yul\":2270:2273   */\n      dup6\n        /* \"#utility.yul\":2266:2280   */\n      add\n        /* \"#utility.yul\":2259:2280   */\n      swap5\n      pop\n        /* \"#utility.yul\":2309:2313   */\n      0x20\n        /* \"#utility.yul\":2304:2307   */\n      dup5\n        /* \"#utility.yul\":2300:2314   */\n      add\n        /* \"#utility.yul\":2293:2314   */\n      swap4\n      pop\n        /* \"#utility.yul\":1931:2324   */\n      pop\n      pop\n        /* \"#utility.yul\":1918:1919   */\n      0x01\n        /* \"#utility.yul\":1915:1916   */\n      dup2\n        /* \"#utility.yul\":1911:1920   */\n      add\n        /* \"#utility.yul\":1906:1920   */\n      swap1\n      pop\n        /* \"#utility.yul\":1871:2324   */\n      jump(tag_387)\n    tag_389:\n        /* \"#utility.yul\":1875:1889   */\n      pop\n        /* \"#utility.yul\":1550:2330   */\n      pop\n      pop\n      swap4\n      swap3\n      pop\n      pop\n      pop\n      jump\t// out\n        /* \"#utility.yul\":2336:2748   */\n    tag_395:\n        /* \"#utility.yul\":2414:2419   */\n      0x00\n        /* \"#utility.yul\":2439:2505   */\n      tag_397\n        /* \"#utility.yul\":2455:2504   */\n      tag_398\n        /* \"#utility.yul\":2497:2503   */\n      dup5\n        /* \"#utility.yul\":2455:2504   */\n      tag_399\n      jump\t// in\n    tag_398:\n        /* \"#utility.yul\":2439:2505   */\n      tag_360\n      jump\t// in\n    tag_397:\n        /* \"#utility.yul\":2430:2505   */\n      swap1\n      pop\n        /* \"#utility.yul\":2528:2534   */\n      dup3\n        /* \"#utility.yul\":2521:2526   */\n      dup2\n        /* \"#utility.yul\":2514:2535   */\n      mstore\n        /* \"#utility.yul\":2566:2570   */\n      0x20\n        /* \"#utility.yul\":2559:2564   */\n      dup2\n        /* \"#utility.yul\":2555:2571   */\n      add\n        /* \"#utility.yul\":2604:2607   */\n      dup5\n        /* \"#utility.yul\":2595:2601   */\n      dup5\n        /* \"#utility.yul\":2590:2593   */\n      dup5\n        /* \"#utility.yul\":2586:2602   */\n      add\n        /* \"#utility.yul\":2583:2608   */\n      gt\n        /* \"#utility.yul\":2580:2582   */\n      iszero\n      tag_400\n      jumpi\n        /* \"#utility.yul\":2611:2690   */\n      tag_401\n      tag_402\n      jump\t// in\n    tag_401:\n        /* \"#utility.yul\":2580:2582   */\n    tag_400:\n        /* \"#utility.yul\":2701:2742   */\n      tag_403\n        /* \"#utility.yul\":2735:2741   */\n      dup5\n        /* \"#utility.yul\":2730:2733   */\n      dup3\n        /* \"#utility.yul\":2725:2728   */\n      dup6\n        /* \"#utility.yul\":2701:2742   */\n      tag_404\n      jump\t// in\n    tag_403:\n        /* \"#utility.yul\":2420:2748   */\n      pop\n      swap4\n      swap3\n      pop\n      pop\n      pop\n      jump\t// out\n        /* \"#utility.yul\":2754:2893   */\n    tag_405:\n        /* \"#utility.yul\":2800:2805   */\n      0x00\n        /* \"#utility.yul\":2838:2844   */\n      dup2\n        /* \"#utility.yul\":2825:2845   */\n      calldataload\n        /* \"#utility.yul\":2816:2845   */\n      swap1\n      pop\n        /* \"#utility.yul\":2854:2887   */\n      tag_407\n        /* \"#utility.yul\":2881:2886   */\n      dup2\n        /* \"#utility.yul\":2854:2887   */\n      tag_408\n      jump\t// in\n    tag_407:\n        /* \"#utility.yul\":2806:2893   */\n      swap3\n      swap2\n      pop\n      pop\n      jump\t// out\n        /* \"#utility.yul\":2916:3253   */\n    tag_409:\n        /* \"#utility.yul\":2984:2989   */\n      0x00\n        /* \"#utility.yul\":3033:3036   */\n      dup3\n        /* \"#utility.yul\":3026:3030   */\n      0x1f\n        /* \"#utility.yul\":3018:3024   */\n      dup4\n        /* \"#utility.yul\":3014:3031   */\n      add\n        /* \"#utility.yul\":3010:3037   */\n      slt\n        /* \"#utility.yul\":3000:3002   */\n      tag_411\n      jumpi\n        /* \"#utility.yul\":3041:3120   */\n      tag_412\n      tag_392\n      jump\t// in\n    tag_412:\n        /* \"#utility.yul\":3000:3002   */\n    tag_411:\n        /* \"#utility.yul\":3145:3149   */\n      0x08\n        /* \"#utility.yul\":3167:3247   */\n      tag_413\n        /* \"#utility.yul\":3243:3246   */\n      dup5\n        /* \"#utility.yul\":3235:3241   */\n      dup3\n        /* \"#utility.yul\":3227:3233   */\n      dup6\n        /* \"#utility.yul\":3167:3247   */\n      tag_355\n      jump\t// in\n    tag_413:\n        /* \"#utility.yul\":3158:3247   */\n      swap2\n      pop\n        /* \"#utility.yul\":2990:3253   */\n      pop\n      swap3\n      swap2\n      pop\n      pop\n      jump\t// out\n        /* \"#utility.yul\":3275:3643   */\n    tag_414:\n        /* \"#utility.yul\":3345:3350   */\n      0x00\n        /* \"#utility.yul\":3394:3397   */\n      dup3\n        /* \"#utility.yul\":3387:3391   */\n      0x1f\n        /* \"#utility.yul\":3379:3385   */\n      dup4\n        /* \"#utility.yul\":3375:3392   */\n      add\n        /* \"#utility.yul\":3371:3398   */\n      slt\n        /* \"#utility.yul\":3361:3363   */\n      tag_416\n      jumpi\n        /* \"#utility.yul\":3402:3481   */\n      tag_417\n      tag_392\n      jump\t// in\n    tag_417:\n        /* \"#utility.yul\":3361:3363   */\n    tag_416:\n        /* \"#utility.yul\":3519:3525   */\n      dup2\n        /* \"#utility.yul\":3506:3526   */\n      calldataload\n        /* \"#utility.yul\":3544:3637   */\n      tag_418\n        /* \"#utility.yul\":3633:3636   */\n      dup5\n        /* \"#utility.yul\":3625:3631   */\n      dup3\n        /* \"#utility.yul\":3618:3622   */\n      0x20\n        /* \"#utility.yul\":3610:3616   */\n      dup7\n        /* \"#utility.yul\":3606:3623   */\n      add\n        /* \"#utility.yul\":3544:3637   */\n      tag_369\n      jump\t// in\n    tag_418:\n        /* \"#utility.yul\":3535:3637   */\n      swap2\n      pop\n        /* \"#utility.yul\":3351:3643   */\n      pop\n      swap3\n      swap2\n      pop\n      pop\n      jump\t// out\n        /* \"#utility.yul\":3666:4025   */\n    tag_419:\n        /* \"#utility.yul\":3745:3750   */\n      0x00\n        /* \"#utility.yul\":3794:3797   */\n      dup3\n        /* \"#utility.yul\":3787:3791   */\n      0x1f\n        /* \"#utility.yul\":3779:3785   */\n      dup4\n        /* \"#utility.yul\":3775:3792   */\n      add\n        /* \"#utility.yul\":3771:3798   */\n      slt\n        /* \"#utility.yul\":3761:3763   */\n      tag_421\n      jumpi\n        /* \"#utility.yul\":3802:3881   */\n      tag_422\n      tag_392\n      jump\t// in\n    tag_422:\n        /* \"#utility.yul\":3761:3763   */\n    tag_421:\n        /* \"#utility.yul\":3906:3910   */\n      0x08\n        /* \"#utility.yul\":3928:4019   */\n      tag_423\n        /* \"#utility.yul\":4015:4018   */\n      dup5\n        /* \"#utility.yul\":4007:4013   */\n      dup3\n        /* \"#utility.yul\":3999:4005   */\n      dup6\n        /* \"#utility.yul\":3928:4019   */\n      tag_380\n      jump\t// in\n    tag_423:\n        /* \"#utility.yul\":3919:4019   */\n      swap2\n      pop\n        /* \"#utility.yul\":3751:4025   */\n      pop\n      swap3\n      swap2\n      pop\n      pop\n      jump\t// out\n        /* \"#utility.yul\":4031:4168   */\n    tag_368:\n        /* \"#utility.yul\":4076:4081   */\n      0x00\n        /* \"#utility.yul\":4114:4120   */\n      dup2\n        /* \"#utility.yul\":4101:4121   */\n      calldataload\n        /* \"#utility.yul\":4092:4121   */\n      swap1\n      pop\n        /* \"#utility.yul\":4130:4162   */\n      tag_425\n        /* \"#utility.yul\":4156:4161   */\n      dup2\n        /* \"#utility.yul\":4130:4162   */\n      tag_426\n      jump\t// in\n    tag_425:\n        /* \"#utility.yul\":4082:4168   */\n      swap3\n      swap2\n      pop\n      pop\n      jump\t// out\n        /* \"#utility.yul\":4188:4528   */\n    tag_394:\n        /* \"#utility.yul\":4244:4249   */\n      0x00\n        /* \"#utility.yul\":4293:4296   */\n      dup3\n        /* \"#utility.yul\":4286:4290   */\n      0x1f\n        /* \"#utility.yul\":4278:4284   */\n      dup4\n        /* \"#utility.yul\":4274:4291   */\n      add\n        /* \"#utility.yul\":4270:4297   */\n      slt\n        /* \"#utility.yul\":4260:4262   */\n      tag_428\n      jumpi\n        /* \"#utility.yul\":4301:4380   */\n      tag_429\n      tag_392\n      jump\t// in\n    tag_429:\n        /* \"#utility.yul\":4260:4262   */\n    tag_428:\n        /* \"#utility.yul\":4418:4424   */\n      dup2\n        /* \"#utility.yul\":4405:4425   */\n      calldataload\n        /* \"#utility.yul\":4443:4522   */\n      tag_430\n        /* \"#utility.yul\":4518:4521   */\n      dup5\n        /* \"#utility.yul\":4510:4516   */\n      dup3\n        /* \"#utility.yul\":4503:4507   */\n      0x20\n        /* \"#utility.yul\":4495:4501   */\n      dup7\n        /* \"#utility.yul\":4491:4508   */\n      add\n        /* \"#utility.yul\":4443:4522   */\n      tag_395\n      jump\t// in\n    tag_430:\n        /* \"#utility.yul\":4434:4522   */\n      swap2\n      pop\n        /* \"#utility.yul\":4250:4528   */\n      pop\n      swap3\n      swap2\n      pop\n      pop\n      jump\t// out\n        /* \"#utility.yul\":4534:4673   */\n    tag_431:\n        /* \"#utility.yul\":4580:4585   */\n      0x00\n        /* \"#utility.yul\":4618:4624   */\n      dup2\n        /* \"#utility.yul\":4605:4625   */\n      calldataload\n        /* \"#utility.yul\":4596:4625   */\n      swap1\n      pop\n        /* \"#utility.yul\":4634:4667   */\n      tag_433\n        /* \"#utility.yul\":4661:4666   */\n      dup2\n        /* \"#utility.yul\":4634:4667   */\n      tag_434\n      jump\t// in\n    tag_433:\n        /* \"#utility.yul\":4586:4673   */\n      swap3\n      swap2\n      pop\n      pop\n      jump\t// out\n        /* \"#utility.yul\":4679:6028   */\n    tag_36:\n        /* \"#utility.yul\":4801:4807   */\n      0x00\n        /* \"#utility.yul\":4809:4815   */\n      dup1\n        /* \"#utility.yul\":4817:4823   */\n      0x00\n        /* \"#utility.yul\":4825:4831   */\n      dup1\n        /* \"#utility.yul\":4833:4839   */\n      0x00\n        /* \"#utility.yul\":4841:4847   */\n      dup1\n        /* \"#utility.yul\":4849:4855   */\n      0x00\n        /* \"#utility.yul\":4857:4863   */\n      dup1\n        /* \"#utility.yul\":4906:4909   */\n      0x0100\n        /* \"#utility.yul\":4894:4903   */\n      dup10\n        /* \"#utility.yul\":4885:4892   */\n      dup12\n        /* \"#utility.yul\":4881:4904   */\n      sub\n        /* \"#utility.yul\":4877:4910   */\n      slt\n        /* \"#utility.yul\":4874:4876   */\n      iszero\n      tag_436\n      jumpi\n        /* \"#utility.yul\":4913:4992   */\n      tag_437\n      tag_438\n      jump\t// in\n    tag_437:\n        /* \"#utility.yul\":4874:4876   */\n    tag_436:\n        /* \"#utility.yul\":5033:5034   */\n      0x00\n        /* \"#utility.yul\":5058:5111   */\n      tag_439\n        /* \"#utility.yul\":5103:5110   */\n      dup12\n        /* \"#utility.yul\":5094:5100   */\n      dup3\n        /* \"#utility.yul\":5083:5092   */\n      dup13\n        /* \"#utility.yul\":5079:5101   */\n      add\n        /* \"#utility.yul\":5058:5111   */\n      tag_405\n      jump\t// in\n    tag_439:\n        /* \"#utility.yul\":5048:5111   */\n      swap9\n      pop\n        /* \"#utility.yul\":5004:5121   */\n      pop\n        /* \"#utility.yul\":5160:5162   */\n      0x20\n        /* \"#utility.yul\":5186:5239   */\n      tag_440\n        /* \"#utility.yul\":5231:5238   */\n      dup12\n        /* \"#utility.yul\":5222:5228   */\n      dup3\n        /* \"#utility.yul\":5211:5220   */\n      dup13\n        /* \"#utility.yul\":5207:5229   */\n      add\n        /* \"#utility.yul\":5186:5239   */\n      tag_405\n      jump\t// in\n    tag_440:\n        /* \"#utility.yul\":5176:5239   */\n      swap8\n      pop\n        /* \"#utility.yul\":5131:5249   */\n      pop\n        /* \"#utility.yul\":5288:5290   */\n      0x40\n        /* \"#utility.yul\":5314:5367   */\n      tag_441\n        /* \"#utility.yul\":5359:5366   */\n      dup12\n        /* \"#utility.yul\":5350:5356   */\n      dup3\n        /* \"#utility.yul\":5339:5348   */\n      dup13\n        /* \"#utility.yul\":5335:5357   */\n      add\n        /* \"#utility.yul\":5314:5367   */\n      tag_431\n      jump\t// in\n    tag_441:\n        /* \"#utility.yul\":5304:5367   */\n      swap7\n      pop\n        /* \"#utility.yul\":5259:5377   */\n      pop\n        /* \"#utility.yul\":5416:5418   */\n      0x60\n        /* \"#utility.yul\":5442:5495   */\n      tag_442\n        /* \"#utility.yul\":5487:5494   */\n      dup12\n        /* \"#utility.yul\":5478:5484   */\n      dup3\n        /* \"#utility.yul\":5467:5476   */\n      dup13\n        /* \"#utility.yul\":5463:5485   */\n      add\n        /* \"#utility.yul\":5442:5495   */\n      tag_431\n      jump\t// in\n    tag_442:\n        /* \"#utility.yul\":5432:5495   */\n      swap6\n      pop\n        /* \"#utility.yul\":5387:5505   */\n      pop\n        /* \"#utility.yul\":5544:5547   */\n      0x80\n        /* \"#utility.yul\":5571:5624   */\n      tag_443\n        /* \"#utility.yul\":5616:5623   */\n      dup12\n        /* \"#utility.yul\":5607:5613   */\n      dup3\n        /* \"#utility.yul\":5596:5605   */\n      dup13\n        /* \"#utility.yul\":5592:5614   */\n      add\n        /* \"#utility.yul\":5571:5624   */\n      tag_431\n      jump\t// in\n    tag_443:\n        /* \"#utility.yul\":5561:5624   */\n      swap5\n      pop\n        /* \"#utility.yul\":5515:5634   */\n      pop\n        /* \"#utility.yul\":5673:5676   */\n      0xa0\n        /* \"#utility.yul\":5700:5753   */\n      tag_444\n        /* \"#utility.yul\":5745:5752   */\n      dup12\n        /* \"#utility.yul\":5736:5742   */\n      dup3\n        /* \"#utility.yul\":5725:5734   */\n      dup13\n        /* \"#utility.yul\":5721:5743   */\n      add\n        /* \"#utility.yul\":5700:5753   */\n      tag_431\n      jump\t// in\n    tag_444:\n        /* \"#utility.yul\":5690:5753   */\n      swap4\n      pop\n        /* \"#utility.yul\":5644:5763   */\n      pop\n        /* \"#utility.yul\":5802:5805   */\n      0xc0\n        /* \"#utility.yul\":5829:5882   */\n      tag_445\n        /* \"#utility.yul\":5874:5881   */\n      dup12\n        /* \"#utility.yul\":5865:5871   */\n      dup3\n        /* \"#utility.yul\":5854:5863   */\n      dup13\n        /* \"#utility.yul\":5850:5872   */\n      add\n        /* \"#utility.yul\":5829:5882   */\n      tag_431\n      jump\t// in\n    tag_445:\n        /* \"#utility.yul\":5819:5882   */\n      swap3\n      pop\n        /* \"#utility.yul\":5773:5892   */\n      pop\n        /* \"#utility.yul\":5931:5934   */\n      0xe0\n        /* \"#utility.yul\":5958:6011   */\n      tag_446\n        /* \"#utility.yul\":6003:6010   */\n      dup12\n        /* \"#utility.yul\":5994:6000   */\n      dup3\n        /* \"#utility.yul\":5983:5992   */\n      dup13\n        /* \"#utility.yul\":5979:6001   */\n      add\n        /* \"#utility.yul\":5958:6011   */\n      tag_431\n      jump\t// in\n    tag_446:\n        /* \"#utility.yul\":5948:6011   */\n      swap2\n      pop\n        /* \"#utility.yul\":5902:6021   */\n      pop\n        /* \"#utility.yul\":4864:6028   */\n      swap3\n      swap6\n      swap9\n      pop\n      swap3\n      swap6\n      swap9\n      swap1\n      swap4\n      swap7\n      pop\n      jump\t// out\n        /* \"#utility.yul\":6034:6571   */\n    tag_56:\n        /* \"#utility.yul\":6117:6123   */\n      0x00\n        /* \"#utility.yul\":6166:6168   */\n      0x20\n        /* \"#utility.yul\":6154:6163   */\n      dup3\n        /* \"#utility.yul\":6145:6152   */\n      dup5\n        /* \"#utility.yul\":6141:6164   */\n      sub\n        /* \"#utility.yul\":6137:6169   */\n      slt\n        /* \"#utility.yul\":6134:6136   */\n      iszero\n      tag_448\n      jumpi\n        /* \"#utility.yul\":6172:6251   */\n      tag_449\n      tag_438\n      jump\t// in\n    tag_449:\n        /* \"#utility.yul\":6134:6136   */\n    tag_448:\n        /* \"#utility.yul\":6320:6321   */\n      0x00\n        /* \"#utility.yul\":6309:6318   */\n      dup3\n        /* \"#utility.yul\":6305:6322   */\n      add\n        /* \"#utility.yul\":6292:6323   */\n      calldataload\n        /* \"#utility.yul\":6350:6368   */\n      0xffffffffffffffff\n        /* \"#utility.yul\":6342:6348   */\n      dup2\n        /* \"#utility.yul\":6339:6369   */\n      gt\n        /* \"#utility.yul\":6336:6338   */\n      iszero\n      tag_450\n      jumpi\n        /* \"#utility.yul\":6372:6451   */\n      tag_451\n      tag_452\n      jump\t// in\n    tag_451:\n        /* \"#utility.yul\":6336:6338   */\n    tag_450:\n        /* \"#utility.yul\":6477:6554   */\n      tag_453\n        /* \"#utility.yul\":6546:6553   */\n      dup5\n        /* \"#utility.yul\":6537:6543   */\n      dup3\n        /* \"#utility.yul\":6526:6535   */\n      dup6\n        /* \"#utility.yul\":6522:6544   */\n      add\n        /* \"#utility.yul\":6477:6554   */\n      tag_414\n      jump\t// in\n    tag_453:\n        /* \"#utility.yul\":6467:6554   */\n      swap2\n      pop\n        /* \"#utility.yul\":6263:6564   */\n      pop\n        /* \"#utility.yul\":6124:6571   */\n      swap3\n      swap2\n      pop\n      pop\n      jump\t// out\n        /* \"#utility.yul\":6577:7694   */\n    tag_122:\n        /* \"#utility.yul\":6742:6748   */\n      0x00\n        /* \"#utility.yul\":6750:6756   */\n      dup1\n        /* \"#utility.yul\":6758:6764   */\n      0x00\n        /* \"#utility.yul\":6807:6810   */\n      0x0140\n        /* \"#utility.yul\":6795:6804   */\n      dup5\n        /* \"#utility.yul\":6786:6793   */\n      dup7\n        /* \"#utility.yul\":6782:6805   */\n      sub\n        /* \"#utility.yul\":6778:6811   */\n      slt\n        /* \"#utility.yul\":6775:6777   */\n      iszero\n      tag_455\n      jumpi\n        /* \"#utility.yul\":6814:6893   */\n      tag_456\n      tag_438\n      jump\t// in\n    tag_456:\n        /* \"#utility.yul\":6775:6777   */\n    tag_455:\n        /* \"#utility.yul\":6962:6963   */\n      0x00\n        /* \"#utility.yul\":6951:6960   */\n      dup5\n        /* \"#utility.yul\":6947:6964   */\n      add\n        /* \"#utility.yul\":6934:6965   */\n      calldataload\n        /* \"#utility.yul\":6992:7010   */\n      0xffffffffffffffff\n        /* \"#utility.yul\":6984:6990   */\n      dup2\n        /* \"#utility.yul\":6981:7011   */\n      gt\n        /* \"#utility.yul\":6978:6980   */\n      iszero\n      tag_457\n      jumpi\n        /* \"#utility.yul\":7014:7093   */\n      tag_458\n      tag_452\n      jump\t// in\n    tag_458:\n        /* \"#utility.yul\":6978:6980   */\n    tag_457:\n        /* \"#utility.yul\":7119:7205   */\n      tag_459\n        /* \"#utility.yul\":7197:7204   */\n      dup7\n        /* \"#utility.yul\":7188:7194   */\n      dup3\n        /* \"#utility.yul\":7177:7186   */\n      dup8\n        /* \"#utility.yul\":7173:7195   */\n      add\n        /* \"#utility.yul\":7119:7205   */\n      tag_419\n      jump\t// in\n    tag_459:\n        /* \"#utility.yul\":7109:7205   */\n      swap4\n      pop\n        /* \"#utility.yul\":6905:7215   */\n      pop\n        /* \"#utility.yul\":7254:7256   */\n      0x20\n        /* \"#utility.yul\":7280:7355   */\n      tag_460\n        /* \"#utility.yul\":7347:7354   */\n      dup7\n        /* \"#utility.yul\":7338:7344   */\n      dup3\n        /* \"#utility.yul\":7327:7336   */\n      dup8\n        /* \"#utility.yul\":7323:7345   */\n      add\n        /* \"#utility.yul\":7280:7355   */\n      tag_409\n      jump\t// in\n    tag_460:\n        /* \"#utility.yul\":7270:7355   */\n      swap3\n      pop\n        /* \"#utility.yul\":7225:7365   */\n      pop\n        /* \"#utility.yul\":7432:7435   */\n      0x0120\n        /* \"#utility.yul\":7421:7430   */\n      dup5\n        /* \"#utility.yul\":7417:7436   */\n      add\n        /* \"#utility.yul\":7404:7437   */\n      calldataload\n        /* \"#utility.yul\":7464:7482   */\n      0xffffffffffffffff\n        /* \"#utility.yul\":7456:7462   */\n      dup2\n        /* \"#utility.yul\":7453:7483   */\n      gt\n        /* \"#utility.yul\":7450:7452   */\n      iszero\n      tag_461\n      jumpi\n        /* \"#utility.yul\":7486:7565   */\n      tag_462\n      tag_452\n      jump\t// in\n    tag_462:\n        /* \"#utility.yul\":7450:7452   */\n    tag_461:\n        /* \"#utility.yul\":7591:7677   */\n      tag_463\n        /* \"#utility.yul\":7669:7676   */\n      dup7\n        /* \"#utility.yul\":7660:7666   */\n      dup3\n        /* \"#utility.yul\":7649:7658   */\n      dup8\n        /* \"#utility.yul\":7645:7667   */\n      add\n        /* \"#utility.yul\":7591:7677   */\n      tag_419\n      jump\t// in\n    tag_463:\n        /* \"#utility.yul\":7581:7677   */\n      swap2\n      pop\n        /* \"#utility.yul\":7375:7687   */\n      pop\n        /* \"#utility.yul\":6765:7694   */\n      swap3\n      pop\n      swap3\n      pop\n      swap3\n      jump\t// out\n        /* \"#utility.yul\":7700:8029   */\n    tag_49:\n        /* \"#utility.yul\":7759:7765   */\n      0x00\n        /* \"#utility.yul\":7808:7810   */\n      0x20\n        /* \"#utility.yul\":7796:7805   */\n      dup3\n        /* \"#utility.yul\":7787:7794   */\n      dup5\n        /* \"#utility.yul\":7783:7806   */\n      sub\n        /* \"#utility.yul\":7779:7811   */\n      slt\n        /* \"#utility.yul\":7776:7778   */\n      iszero\n      tag_465\n      jumpi\n        /* \"#utility.yul\":7814:7893   */\n      tag_466\n      tag_438\n      jump\t// in\n    tag_466:\n        /* \"#utility.yul\":7776:7778   */\n    tag_465:\n        /* \"#utility.yul\":7934:7935   */\n      0x00\n        /* \"#utility.yul\":7959:8012   */\n      tag_467\n        /* \"#utility.yul\":8004:8011   */\n      dup5\n        /* \"#utility.yul\":7995:8001   */\n      dup3\n        /* \"#utility.yul\":7984:7993   */\n      dup6\n        /* \"#utility.yul\":7980:8002   */\n      add\n        /* \"#utility.yul\":7959:8012   */\n      tag_431\n      jump\t// in\n    tag_467:\n        /* \"#utility.yul\":7949:8012   */\n      swap2\n      pop\n        /* \"#utility.yul\":7905:8022   */\n      pop\n        /* \"#utility.yul\":7766:8029   */\n      swap3\n      swap2\n      pop\n      pop\n      jump\t// out\n        /* \"#utility.yul\":8035:8177   */\n    tag_468:\n        /* \"#utility.yul\":8138:8170   */\n      tag_470\n        /* \"#utility.yul\":8164:8169   */\n      dup2\n        /* \"#utility.yul\":8138:8170   */\n      tag_471\n      jump\t// in\n    tag_470:\n        /* \"#utility.yul\":8133:8136   */\n      dup3\n        /* \"#utility.yul\":8126:8171   */\n      mstore\n        /* \"#utility.yul\":8116:8177   */\n      pop\n      pop\n      jump\t// out\n        /* \"#utility.yul\":8183:8301   */\n    tag_472:\n        /* \"#utility.yul\":8270:8294   */\n      tag_474\n        /* \"#utility.yul\":8288:8293   */\n      dup2\n        /* \"#utility.yul\":8270:8294   */\n      tag_475\n      jump\t// in\n    tag_474:\n        /* \"#utility.yul\":8265:8268   */\n      dup3\n        /* \"#utility.yul\":8258:8295   */\n      mstore\n        /* \"#utility.yul\":8248:8301   */\n      pop\n      pop\n      jump\t// out\n        /* \"#utility.yul\":8307:8416   */\n    tag_476:\n        /* \"#utility.yul\":8388:8409   */\n      tag_478\n        /* \"#utility.yul\":8403:8408   */\n      dup2\n        /* \"#utility.yul\":8388:8409   */\n      tag_479\n      jump\t// in\n    tag_478:\n        /* \"#utility.yul\":8383:8386   */\n      dup3\n        /* \"#utility.yul\":8376:8410   */\n      mstore\n        /* \"#utility.yul\":8366:8416   */\n      pop\n      pop\n      jump\t// out\n        /* \"#utility.yul\":8422:8567   */\n    tag_480:\n        /* \"#utility.yul\":8516:8560   */\n      tag_482\n        /* \"#utility.yul\":8554:8559   */\n      dup2\n        /* \"#utility.yul\":8516:8560   */\n      tag_483\n      jump\t// in\n    tag_482:\n        /* \"#utility.yul\":8511:8514   */\n      dup3\n        /* \"#utility.yul\":8504:8561   */\n      mstore\n        /* \"#utility.yul\":8494:8567   */\n      pop\n      pop\n      jump\t// out\n        /* \"#utility.yul\":8573:8688   */\n    tag_484:\n        /* \"#utility.yul\":8658:8681   */\n      tag_486\n        /* \"#utility.yul\":8675:8680   */\n      dup2\n        /* \"#utility.yul\":8658:8681   */\n      tag_487\n      jump\t// in\n    tag_486:\n        /* \"#utility.yul\":8653:8656   */\n      dup3\n        /* \"#utility.yul\":8646:8682   */\n      mstore\n        /* \"#utility.yul\":8636:8688   */\n      pop\n      pop\n      jump\t// out\n        /* \"#utility.yul\":8694:9058   */\n    tag_488:\n        /* \"#utility.yul\":8782:8785   */\n      0x00\n        /* \"#utility.yul\":8810:8849   */\n      tag_490\n        /* \"#utility.yul\":8843:8848   */\n      dup3\n        /* \"#utility.yul\":8810:8849   */\n      tag_491\n      jump\t// in\n    tag_490:\n        /* \"#utility.yul\":8865:8936   */\n      tag_492\n        /* \"#utility.yul\":8929:8935   */\n      dup2\n        /* \"#utility.yul\":8924:8927   */\n      dup6\n        /* \"#utility.yul\":8865:8936   */\n      tag_493\n      jump\t// in\n    tag_492:\n        /* \"#utility.yul\":8858:8936   */\n      swap4\n      pop\n        /* \"#utility.yul\":8945:8997   */\n      tag_494\n        /* \"#utility.yul\":8990:8996   */\n      dup2\n        /* \"#utility.yul\":8985:8988   */\n      dup6\n        /* \"#utility.yul\":8978:8982   */\n      0x20\n        /* \"#utility.yul\":8971:8976   */\n      dup7\n        /* \"#utility.yul\":8967:8983   */\n      add\n        /* \"#utility.yul\":8945:8997   */\n      tag_495\n      jump\t// in\n    tag_494:\n        /* \"#utility.yul\":9022:9051   */\n      tag_496\n        /* \"#utility.yul\":9044:9050   */\n      dup2\n        /* \"#utility.yul\":9022:9051   */\n      tag_497\n      jump\t// in\n    tag_496:\n        /* \"#utility.yul\":9017:9020   */\n      dup5\n        /* \"#utility.yul\":9013:9052   */\n      add\n        /* \"#utility.yul\":9006:9052   */\n      swap2\n      pop\n        /* \"#utility.yul\":8786:9058   */\n      pop\n      swap3\n      swap2\n      pop\n      pop\n      jump\t// out\n        /* \"#utility.yul\":9064:9441   */\n    tag_498:\n        /* \"#utility.yul\":9170:9173   */\n      0x00\n        /* \"#utility.yul\":9198:9237   */\n      tag_500\n        /* \"#utility.yul\":9231:9236   */\n      dup3\n        /* \"#utility.yul\":9198:9237   */\n      tag_491\n      jump\t// in\n    tag_500:\n        /* \"#utility.yul\":9253:9342   */\n      tag_501\n        /* \"#utility.yul\":9335:9341   */\n      dup2\n        /* \"#utility.yul\":9330:9333   */\n      dup6\n        /* \"#utility.yul\":9253:9342   */\n      tag_502\n      jump\t// in\n    tag_501:\n        /* \"#utility.yul\":9246:9342   */\n      swap4\n      pop\n        /* \"#utility.yul\":9351:9403   */\n      tag_503\n        /* \"#utility.yul\":9396:9402   */\n      dup2\n        /* \"#utility.yul\":9391:9394   */\n      dup6\n        /* \"#utility.yul\":9384:9388   */\n      0x20\n        /* \"#utility.yul\":9377:9382   */\n      dup7\n        /* \"#utility.yul\":9373:9389   */\n      add\n        /* \"#utility.yul\":9351:9403   */\n      tag_495\n      jump\t// in\n    tag_503:\n        /* \"#utility.yul\":9428:9434   */\n      dup1\n        /* \"#utility.yul\":9423:9426   */\n      dup5\n        /* \"#utility.yul\":9419:9435   */\n      add\n        /* \"#utility.yul\":9412:9435   */\n      swap2\n      pop\n        /* \"#utility.yul\":9174:9441   */\n      pop\n      swap3\n      swap2\n      pop\n      pop\n      jump\t// out\n        /* \"#utility.yul\":9447:9813   */\n    tag_504:\n        /* \"#utility.yul\":9589:9592   */\n      0x00\n        /* \"#utility.yul\":9610:9677   */\n      tag_506\n        /* \"#utility.yul\":9674:9676   */\n      0x36\n        /* \"#utility.yul\":9669:9672   */\n      dup4\n        /* \"#utility.yul\":9610:9677   */\n      tag_493\n      jump\t// in\n    tag_506:\n        /* \"#utility.yul\":9603:9677   */\n      swap2\n      pop\n        /* \"#utility.yul\":9686:9779   */\n      tag_507\n        /* \"#utility.yul\":9775:9778   */\n      dup3\n        /* \"#utility.yul\":9686:9779   */\n      tag_508\n      jump\t// in\n    tag_507:\n        /* \"#utility.yul\":9804:9806   */\n      0x40\n        /* \"#utility.yul\":9799:9802   */\n      dup3\n        /* \"#utility.yul\":9795:9807   */\n      add\n        /* \"#utility.yul\":9788:9807   */\n      swap1\n      pop\n        /* \"#utility.yul\":9593:9813   */\n      swap2\n      swap1\n      pop\n      jump\t// out\n        /* \"#utility.yul\":9819:10185   */\n    tag_509:\n        /* \"#utility.yul\":9961:9964   */\n      0x00\n        /* \"#utility.yul\":9982:10049   */\n      tag_511\n        /* \"#utility.yul\":10046:10048   */\n      0x12\n        /* \"#utility.yul\":10041:10044   */\n      dup4\n        /* \"#utility.yul\":9982:10049   */\n      tag_493\n      jump\t// in\n    tag_511:\n        /* \"#utility.yul\":9975:10049   */\n      swap2\n      pop\n        /* \"#utility.yul\":10058:10151   */\n      tag_512\n        /* \"#utility.yul\":10147:10150   */\n      dup3\n        /* \"#utility.yul\":10058:10151   */\n      tag_513\n      jump\t// in\n    tag_512:\n        /* \"#utility.yul\":10176:10178   */\n      0x20\n        /* \"#utility.yul\":10171:10174   */\n      dup3\n        /* \"#utility.yul\":10167:10179   */\n      add\n        /* \"#utility.yul\":10160:10179   */\n      swap1\n      pop\n        /* \"#utility.yul\":9965:10185   */\n      swap2\n      swap1\n      pop\n      jump\t// out\n        /* \"#utility.yul\":10191:10557   */\n    tag_514:\n        /* \"#utility.yul\":10333:10336   */\n      0x00\n        /* \"#utility.yul\":10354:10421   */\n      tag_516\n        /* \"#utility.yul\":10418:10420   */\n      0x10\n        /* \"#utility.yul\":10413:10416   */\n      dup4\n        /* \"#utility.yul\":10354:10421   */\n      tag_493\n      jump\t// in\n    tag_516:\n        /* \"#utility.yul\":10347:10421   */\n      swap2\n      pop\n        /* \"#utility.yul\":10430:10523   */\n      tag_517\n        /* \"#utility.yul\":10519:10522   */\n      dup3\n        /* \"#utility.yul\":10430:10523   */\n      tag_518\n      jump\t// in\n    tag_517:\n        /* \"#utility.yul\":10548:10550   */\n      0x20\n        /* \"#utility.yul\":10543:10546   */\n      dup3\n        /* \"#utility.yul\":10539:10551   */\n      add\n        /* \"#utility.yul\":10532:10551   */\n      swap1\n      pop\n        /* \"#utility.yul\":10337:10557   */\n      swap2\n      swap1\n      pop\n      jump\t// out\n        /* \"#utility.yul\":10563:10963   */\n    tag_519:\n        /* \"#utility.yul\":10723:10726   */\n      0x00\n        /* \"#utility.yul\":10744:10828   */\n      tag_521\n        /* \"#utility.yul\":10826:10827   */\n      0x02\n        /* \"#utility.yul\":10821:10824   */\n      dup4\n        /* \"#utility.yul\":10744:10828   */\n      tag_502\n      jump\t// in\n    tag_521:\n        /* \"#utility.yul\":10737:10828   */\n      swap2\n      pop\n        /* \"#utility.yul\":10837:10930   */\n      tag_522\n        /* \"#utility.yul\":10926:10929   */\n      dup3\n        /* \"#utility.yul\":10837:10930   */\n      tag_523\n      jump\t// in\n    tag_522:\n        /* \"#utility.yul\":10955:10956   */\n      0x02\n        /* \"#utility.yul\":10950:10953   */\n      dup3\n        /* \"#utility.yul\":10946:10957   */\n      add\n        /* \"#utility.yul\":10939:10957   */\n      swap1\n      pop\n        /* \"#utility.yul\":10727:10963   */\n      swap2\n      swap1\n      pop\n      jump\t// out\n        /* \"#utility.yul\":10969:11369   */\n    tag_524:\n        /* \"#utility.yul\":11129:11132   */\n      0x00\n        /* \"#utility.yul\":11150:11234   */\n      tag_526\n        /* \"#utility.yul\":11232:11233   */\n      0x01\n        /* \"#utility.yul\":11227:11230   */\n      dup4\n        /* \"#utility.yul\":11150:11234   */\n      tag_502\n      jump\t// in\n    tag_526:\n        /* \"#utility.yul\":11143:11234   */\n      swap2\n      pop\n        /* \"#utility.yul\":11243:11336   */\n      tag_527\n        /* \"#utility.yul\":11332:11335   */\n      dup3\n        /* \"#utility.yul\":11243:11336   */\n      tag_528\n      jump\t// in\n    tag_527:\n        /* \"#utility.yul\":11361:11362   */\n      0x01\n        /* \"#utility.yul\":11356:11359   */\n      dup3\n        /* \"#utility.yul\":11352:11363   */\n      add\n        /* \"#utility.yul\":11345:11363   */\n      swap1\n      pop\n        /* \"#utility.yul\":11133:11369   */\n      swap2\n      swap1\n      pop\n      jump\t// out\n        /* \"#utility.yul\":11375:11775   */\n    tag_529:\n        /* \"#utility.yul\":11535:11538   */\n      0x00\n        /* \"#utility.yul\":11556:11640   */\n      tag_531\n        /* \"#utility.yul\":11638:11639   */\n      0x02\n        /* \"#utility.yul\":11633:11636   */\n      dup4\n        /* \"#utility.yul\":11556:11640   */\n      tag_502\n      jump\t// in\n    tag_531:\n        /* \"#utility.yul\":11549:11640   */\n      swap2\n      pop\n        /* \"#utility.yul\":11649:11742   */\n      tag_532\n        /* \"#utility.yul\":11738:11741   */\n      dup3\n        /* \"#utility.yul\":11649:11742   */\n      tag_533\n      jump\t// in\n    tag_532:\n        /* \"#utility.yul\":11767:11768   */\n      0x02\n        /* \"#utility.yul\":11762:11765   */\n      dup3\n        /* \"#utility.yul\":11758:11769   */\n      add\n        /* \"#utility.yul\":11751:11769   */\n      swap1\n      pop\n        /* \"#utility.yul\":11539:11775   */\n      swap2\n      swap1\n      pop\n      jump\t// out\n        /* \"#utility.yul\":11781:12181   */\n    tag_534:\n        /* \"#utility.yul\":11941:11944   */\n      0x00\n        /* \"#utility.yul\":11962:12046   */\n      tag_536\n        /* \"#utility.yul\":12044:12045   */\n      0x02\n        /* \"#utility.yul\":12039:12042   */\n      dup4\n        /* \"#utility.yul\":11962:12046   */\n      tag_502\n      jump\t// in\n    tag_536:\n        /* \"#utility.yul\":11955:12046   */\n      swap2\n      pop\n        /* \"#utility.yul\":12055:12148   */\n      tag_537\n        /* \"#utility.yul\":12144:12147   */\n      dup3\n        /* \"#utility.yul\":12055:12148   */\n      tag_538\n      jump\t// in\n    tag_537:\n        /* \"#utility.yul\":12173:12174   */\n      0x02\n        /* \"#utility.yul\":12168:12171   */\n      dup3\n        /* \"#utility.yul\":12164:12175   */\n      add\n        /* \"#utility.yul\":12157:12175   */\n      swap1\n      pop\n        /* \"#utility.yul\":11945:12181   */\n      swap2\n      swap1\n      pop\n      jump\t// out\n        /* \"#utility.yul\":12187:12587   */\n    tag_539:\n        /* \"#utility.yul\":12347:12350   */\n      0x00\n        /* \"#utility.yul\":12368:12452   */\n      tag_541\n        /* \"#utility.yul\":12450:12451   */\n      0x02\n        /* \"#utility.yul\":12445:12448   */\n      dup4\n        /* \"#utility.yul\":12368:12452   */\n      tag_502\n      jump\t// in\n    tag_541:\n        /* \"#utility.yul\":12361:12452   */\n      swap2\n      pop\n        /* \"#utility.yul\":12461:12554   */\n      tag_542\n        /* \"#utility.yul\":12550:12553   */\n      dup3\n        /* \"#utility.yul\":12461:12554   */\n      tag_543\n      jump\t// in\n    tag_542:\n        /* \"#utility.yul\":12579:12580   */\n      0x02\n        /* \"#utility.yul\":12574:12577   */\n      dup3\n        /* \"#utility.yul\":12570:12581   */\n      add\n        /* \"#utility.yul\":12563:12581   */\n      swap1\n      pop\n        /* \"#utility.yul\":12351:12587   */\n      swap2\n      swap1\n      pop\n      jump\t// out\n        /* \"#utility.yul\":12593:12993   */\n    tag_544:\n        /* \"#utility.yul\":12753:12756   */\n      0x00\n        /* \"#utility.yul\":12774:12858   */\n      tag_546\n        /* \"#utility.yul\":12856:12857   */\n      0x01\n        /* \"#utility.yul\":12851:12854   */\n      dup4\n        /* \"#utility.yul\":12774:12858   */\n      tag_502\n      jump\t// in\n    tag_546:\n        /* \"#utility.yul\":12767:12858   */\n      swap2\n      pop\n        /* \"#utility.yul\":12867:12960   */\n      tag_547\n        /* \"#utility.yul\":12956:12959   */\n      dup3\n        /* \"#utility.yul\":12867:12960   */\n      tag_548\n      jump\t// in\n    tag_547:\n        /* \"#utility.yul\":12985:12986   */\n      0x01\n        /* \"#utility.yul\":12980:12983   */\n      dup3\n        /* \"#utility.yul\":12976:12987   */\n      add\n        /* \"#utility.yul\":12969:12987   */\n      swap1\n      pop\n        /* \"#utility.yul\":12757:12993   */\n      swap2\n      swap1\n      pop\n      jump\t// out\n        /* \"#utility.yul\":12999:13365   */\n    tag_549:\n        /* \"#utility.yul\":13141:13144   */\n      0x00\n        /* \"#utility.yul\":13162:13229   */\n      tag_551\n        /* \"#utility.yul\":13226:13228   */\n      0x1d\n        /* \"#utility.yul\":13221:13224   */\n      dup4\n        /* \"#utility.yul\":13162:13229   */\n      tag_493\n      jump\t// in\n    tag_551:\n        /* \"#utility.yul\":13155:13229   */\n      swap2\n      pop\n        /* \"#utility.yul\":13238:13331   */\n      tag_552\n        /* \"#utility.yul\":13327:13330   */\n      dup3\n        /* \"#utility.yul\":13238:13331   */\n      tag_553\n      jump\t// in\n    tag_552:\n        /* \"#utility.yul\":13356:13358   */\n      0x20\n        /* \"#utility.yul\":13351:13354   */\n      dup3\n        /* \"#utility.yul\":13347:13359   */\n      add\n        /* \"#utility.yul\":13340:13359   */\n      swap1\n      pop\n        /* \"#utility.yul\":13145:13365   */\n      swap2\n      swap1\n      pop\n      jump\t// out\n        /* \"#utility.yul\":13371:13737   */\n    tag_554:\n        /* \"#utility.yul\":13513:13516   */\n      0x00\n        /* \"#utility.yul\":13534:13601   */\n      tag_556\n        /* \"#utility.yul\":13598:13600   */\n      0x25\n        /* \"#utility.yul\":13593:13596   */\n      dup4\n        /* \"#utility.yul\":13534:13601   */\n      tag_493\n      jump\t// in\n    tag_556:\n        /* \"#utility.yul\":13527:13601   */\n      swap2\n      pop\n        /* \"#utility.yul\":13610:13703   */\n      tag_557\n        /* \"#utility.yul\":13699:13702   */\n      dup3\n        /* \"#utility.yul\":13610:13703   */\n      tag_558\n      jump\t// in\n    tag_557:\n        /* \"#utility.yul\":13728:13730   */\n      0x40\n        /* \"#utility.yul\":13723:13726   */\n      dup3\n        /* \"#utility.yul\":13719:13731   */\n      add\n        /* \"#utility.yul\":13712:13731   */\n      swap1\n      pop\n        /* \"#utility.yul\":13517:13737   */\n      swap2\n      swap1\n      pop\n      jump\t// out\n        /* \"#utility.yul\":13743:13861   */\n    tag_559:\n        /* \"#utility.yul\":13830:13854   */\n      tag_561\n        /* \"#utility.yul\":13848:13853   */\n      dup2\n        /* \"#utility.yul\":13830:13854   */\n      tag_562\n      jump\t// in\n    tag_561:\n        /* \"#utility.yul\":13825:13828   */\n      dup3\n        /* \"#utility.yul\":13818:13855   */\n      mstore\n        /* \"#utility.yul\":13808:13861   */\n      pop\n      pop\n      jump\t// out\n        /* \"#utility.yul\":13867:14142   */\n    tag_263:\n        /* \"#utility.yul\":13999:14002   */\n      0x00\n        /* \"#utility.yul\":14021:14116   */\n      tag_564\n        /* \"#utility.yul\":14112:14115   */\n      dup3\n        /* \"#utility.yul\":14103:14109   */\n      dup5\n        /* \"#utility.yul\":14021:14116   */\n      tag_498\n      jump\t// in\n    tag_564:\n        /* \"#utility.yul\":14014:14116   */\n      swap2\n      pop\n        /* \"#utility.yul\":14133:14136   */\n      dup2\n        /* \"#utility.yul\":14126:14136   */\n      swap1\n      pop\n        /* \"#utility.yul\":14003:14142   */\n      swap3\n      swap2\n      pop\n      pop\n      jump\t// out\n        /* \"#utility.yul\":14148:14529   */\n    tag_279:\n        /* \"#utility.yul\":14333:14336   */\n      0x00\n        /* \"#utility.yul\":14355:14503   */\n      tag_566\n        /* \"#utility.yul\":14499:14502   */\n      dup3\n        /* \"#utility.yul\":14355:14503   */\n      tag_519\n      jump\t// in\n    tag_566:\n        /* \"#utility.yul\":14348:14503   */\n      swap2\n      pop\n        /* \"#utility.yul\":14520:14523   */\n      dup2\n        /* \"#utility.yul\":14513:14523   */\n      swap1\n      pop\n        /* \"#utility.yul\":14337:14529   */\n      swap2\n      swap1\n      pop\n      jump\t// out\n        /* \"#utility.yul\":14535:14916   */\n    tag_283:\n        /* \"#utility.yul\":14720:14723   */\n      0x00\n        /* \"#utility.yul\":14742:14890   */\n      tag_568\n        /* \"#utility.yul\":14886:14889   */\n      dup3\n        /* \"#utility.yul\":14742:14890   */\n      tag_524\n      jump\t// in\n    tag_568:\n        /* \"#utility.yul\":14735:14890   */\n      swap2\n      pop\n        /* \"#utility.yul\":14907:14910   */\n      dup2\n        /* \"#utility.yul\":14900:14910   */\n      swap1\n      pop\n        /* \"#utility.yul\":14724:14916   */\n      swap2\n      swap1\n      pop\n      jump\t// out\n        /* \"#utility.yul\":14922:15303   */\n    tag_285:\n        /* \"#utility.yul\":15107:15110   */\n      0x00\n        /* \"#utility.yul\":15129:15277   */\n      tag_570\n        /* \"#utility.yul\":15273:15276   */\n      dup3\n        /* \"#utility.yul\":15129:15277   */\n      tag_529\n      jump\t// in\n    tag_570:\n        /* \"#utility.yul\":15122:15277   */\n      swap2\n      pop\n        /* \"#utility.yul\":15294:15297   */\n      dup2\n        /* \"#utility.yul\":15287:15297   */\n      swap1\n      pop\n        /* \"#utility.yul\":15111:15303   */\n      swap2\n      swap1\n      pop\n      jump\t// out\n        /* \"#utility.yul\":15309:15690   */\n    tag_281:\n        /* \"#utility.yul\":15494:15497   */\n      0x00\n        /* \"#utility.yul\":15516:15664   */\n      tag_572\n        /* \"#utility.yul\":15660:15663   */\n      dup3\n        /* \"#utility.yul\":15516:15664   */\n      tag_534\n      jump\t// in\n    tag_572:\n        /* \"#utility.yul\":15509:15664   */\n      swap2\n      pop\n        /* \"#utility.yul\":15681:15684   */\n      dup2\n        /* \"#utility.yul\":15674:15684   */\n      swap1\n      pop\n        /* \"#utility.yul\":15498:15690   */\n      swap2\n      swap1\n      pop\n      jump\t// out\n        /* \"#utility.yul\":15696:16077   */\n    tag_287:\n        /* \"#utility.yul\":15881:15884   */\n      0x00\n        /* \"#utility.yul\":15903:16051   */\n      tag_574\n        /* \"#utility.yul\":16047:16050   */\n      dup3\n        /* \"#utility.yul\":15903:16051   */\n      tag_539\n      jump\t// in\n    tag_574:\n        /* \"#utility.yul\":15896:16051   */\n      swap2\n      pop\n        /* \"#utility.yul\":16068:16071   */\n      dup2\n        /* \"#utility.yul\":16061:16071   */\n      swap1\n      pop\n        /* \"#utility.yul\":15885:16077   */\n      swap2\n      swap1\n      pop\n      jump\t// out\n        /* \"#utility.yul\":16083:16464   */\n    tag_277:\n        /* \"#utility.yul\":16268:16271   */\n      0x00\n        /* \"#utility.yul\":16290:16438   */\n      tag_576\n        /* \"#utility.yul\":16434:16437   */\n      dup3\n        /* \"#utility.yul\":16290:16438   */\n      tag_544\n      jump\t// in\n    tag_576:\n        /* \"#utility.yul\":16283:16438   */\n      swap2\n      pop\n        /* \"#utility.yul\":16455:16458   */\n      dup2\n        /* \"#utility.yul\":16448:16458   */\n      swap1\n      pop\n        /* \"#utility.yul\":16272:16464   */\n      swap2\n      swap1\n      pop\n      jump\t// out\n        /* \"#utility.yul\":16470:16692   */\n    tag_118:\n        /* \"#utility.yul\":16563:16567   */\n      0x00\n        /* \"#utility.yul\":16601:16603   */\n      0x20\n        /* \"#utility.yul\":16590:16599   */\n      dup3\n        /* \"#utility.yul\":16586:16604   */\n      add\n        /* \"#utility.yul\":16578:16604   */\n      swap1\n      pop\n        /* \"#utility.yul\":16614:16685   */\n      tag_578\n        /* \"#utility.yul\":16682:16683   */\n      0x00\n        /* \"#utility.yul\":16671:16680   */\n      dup4\n        /* \"#utility.yul\":16667:16684   */\n      add\n        /* \"#utility.yul\":16658:16664   */\n      dup5\n        /* \"#utility.yul\":16614:16685   */\n      tag_472\n      jump\t// in\n    tag_578:\n        /* \"#utility.yul\":16568:16692   */\n      swap3\n      swap2\n      pop\n      pop\n      jump\t// out\n        /* \"#utility.yul\":16698:16952   */\n    tag_42:\n        /* \"#utility.yul\":16807:16811   */\n      0x00\n        /* \"#utility.yul\":16845:16847   */\n      0x20\n        /* \"#utility.yul\":16834:16843   */\n      dup3\n        /* \"#utility.yul\":16830:16848   */\n      add\n        /* \"#utility.yul\":16822:16848   */\n      swap1\n      pop\n        /* \"#utility.yul\":16858:16945   */\n      tag_580\n        /* \"#utility.yul\":16942:16943   */\n      0x00\n        /* \"#utility.yul\":16931:16940   */\n      dup4\n        /* \"#utility.yul\":16927:16944   */\n      add\n        /* \"#utility.yul\":16918:16924   */\n      dup5\n        /* \"#utility.yul\":16858:16945   */\n      tag_468\n      jump\t// in\n    tag_580:\n        /* \"#utility.yul\":16812:16952   */\n      swap3\n      swap2\n      pop\n      pop\n      jump\t// out\n        /* \"#utility.yul\":16958:17168   */\n    tag_66:\n        /* \"#utility.yul\":17045:17049   */\n      0x00\n        /* \"#utility.yul\":17083:17085   */\n      0x20\n        /* \"#utility.yul\":17072:17081   */\n      dup3\n        /* \"#utility.yul\":17068:17086   */\n      add\n        /* \"#utility.yul\":17060:17086   */\n      swap1\n      pop\n        /* \"#utility.yul\":17096:17161   */\n      tag_582\n        /* \"#utility.yul\":17158:17159   */\n      0x00\n        /* \"#utility.yul\":17147:17156   */\n      dup4\n        /* \"#utility.yul\":17143:17160   */\n      add\n        /* \"#utility.yul\":17134:17140   */\n      dup5\n        /* \"#utility.yul\":17096:17161   */\n      tag_476\n      jump\t// in\n    tag_582:\n        /* \"#utility.yul\":17050:17168   */\n      swap3\n      swap2\n      pop\n      pop\n      jump\t// out\n        /* \"#utility.yul\":17174:17691   */\n    tag_313:\n        /* \"#utility.yul\":17362:17366   */\n      0x00\n        /* \"#utility.yul\":17400:17402   */\n      0x40\n        /* \"#utility.yul\":17389:17398   */\n      dup3\n        /* \"#utility.yul\":17385:17403   */\n      add\n        /* \"#utility.yul\":17377:17403   */\n      swap1\n      pop\n        /* \"#utility.yul\":17413:17478   */\n      tag_584\n        /* \"#utility.yul\":17475:17476   */\n      0x00\n        /* \"#utility.yul\":17464:17473   */\n      dup4\n        /* \"#utility.yul\":17460:17477   */\n      add\n        /* \"#utility.yul\":17451:17457   */\n      dup5\n        /* \"#utility.yul\":17413:17478   */\n      tag_476\n      jump\t// in\n    tag_584:\n        /* \"#utility.yul\":17525:17534   */\n      dup2\n        /* \"#utility.yul\":17519:17523   */\n      dup2\n        /* \"#utility.yul\":17515:17535   */\n      sub\n        /* \"#utility.yul\":17510:17512   */\n      0x20\n        /* \"#utility.yul\":17499:17508   */\n      dup4\n        /* \"#utility.yul\":17495:17513   */\n      add\n        /* \"#utility.yul\":17488:17536   */\n      mstore\n        /* \"#utility.yul\":17553:17684   */\n      tag_585\n        /* \"#utility.yul\":17679:17683   */\n      dup2\n        /* \"#utility.yul\":17553:17684   */\n      tag_509\n      jump\t// in\n    tag_585:\n        /* \"#utility.yul\":17545:17684   */\n      swap1\n      pop\n        /* \"#utility.yul\":17367:17691   */\n      swap3\n      swap2\n      pop\n      pop\n      jump\t// out\n        /* \"#utility.yul\":17697:18214   */\n    tag_316:\n        /* \"#utility.yul\":17885:17889   */\n      0x00\n        /* \"#utility.yul\":17923:17925   */\n      0x40\n        /* \"#utility.yul\":17912:17921   */\n      dup3\n        /* \"#utility.yul\":17908:17926   */\n      add\n        /* \"#utility.yul\":17900:17926   */\n      swap1\n      pop\n        /* \"#utility.yul\":17936:18001   */\n      tag_587\n        /* \"#utility.yul\":17998:17999   */\n      0x00\n        /* \"#utility.yul\":17987:17996   */\n      dup4\n        /* \"#utility.yul\":17983:18000   */\n      add\n        /* \"#utility.yul\":17974:17980   */\n      dup5\n        /* \"#utility.yul\":17936:18001   */\n      tag_476\n      jump\t// in\n    tag_587:\n        /* \"#utility.yul\":18048:18057   */\n      dup2\n        /* \"#utility.yul\":18042:18046   */\n      dup2\n        /* \"#utility.yul\":18038:18058   */\n      sub\n        /* \"#utility.yul\":18033:18035   */\n      0x20\n        /* \"#utility.yul\":18022:18031   */\n      dup4\n        /* \"#utility.yul\":18018:18036   */\n      add\n        /* \"#utility.yul\":18011:18059   */\n      mstore\n        /* \"#utility.yul\":18076:18207   */\n      tag_588\n        /* \"#utility.yul\":18202:18206   */\n      dup2\n        /* \"#utility.yul\":18076:18207   */\n      tag_514\n      jump\t// in\n    tag_588:\n        /* \"#utility.yul\":18068:18207   */\n      swap1\n      pop\n        /* \"#utility.yul\":17890:18214   */\n      swap3\n      swap2\n      pop\n      pop\n      jump\t// out\n        /* \"#utility.yul\":18220:18456   */\n    tag_110:\n        /* \"#utility.yul\":18320:18324   */\n      0x00\n        /* \"#utility.yul\":18358:18360   */\n      0x20\n        /* \"#utility.yul\":18347:18356   */\n      dup3\n        /* \"#utility.yul\":18343:18361   */\n      add\n        /* \"#utility.yul\":18335:18361   */\n      swap1\n      pop\n        /* \"#utility.yul\":18371:18449   */\n      tag_590\n        /* \"#utility.yul\":18446:18447   */\n      0x00\n        /* \"#utility.yul\":18435:18444   */\n      dup4\n        /* \"#utility.yul\":18431:18448   */\n      add\n        /* \"#utility.yul\":18422:18428   */\n      dup5\n        /* \"#utility.yul\":18371:18449   */\n      tag_480\n      jump\t// in\n    tag_590:\n        /* \"#utility.yul\":18325:18456   */\n      swap3\n      swap2\n      pop\n      pop\n      jump\t// out\n        /* \"#utility.yul\":18462:18987   */\n    tag_52:\n        /* \"#utility.yul\":18627:18631   */\n      0x00\n        /* \"#utility.yul\":18665:18667   */\n      0x60\n        /* \"#utility.yul\":18654:18663   */\n      dup3\n        /* \"#utility.yul\":18650:18668   */\n      add\n        /* \"#utility.yul\":18642:18668   */\n      swap1\n      pop\n        /* \"#utility.yul\":18714:18723   */\n      dup2\n        /* \"#utility.yul\":18708:18712   */\n      dup2\n        /* \"#utility.yul\":18704:18724   */\n      sub\n        /* \"#utility.yul\":18700:18701   */\n      0x00\n        /* \"#utility.yul\":18689:18698   */\n      dup4\n        /* \"#utility.yul\":18685:18702   */\n      add\n        /* \"#utility.yul\":18678:18725   */\n      mstore\n        /* \"#utility.yul\":18742:18820   */\n      tag_592\n        /* \"#utility.yul\":18815:18819   */\n      dup2\n        /* \"#utility.yul\":18806:18812   */\n      dup7\n        /* \"#utility.yul\":18742:18820   */\n      tag_488\n      jump\t// in\n    tag_592:\n        /* \"#utility.yul\":18734:18820   */\n      swap1\n      pop\n        /* \"#utility.yul\":18830:18900   */\n      tag_593\n        /* \"#utility.yul\":18896:18898   */\n      0x20\n        /* \"#utility.yul\":18885:18894   */\n      dup4\n        /* \"#utility.yul\":18881:18899   */\n      add\n        /* \"#utility.yul\":18872:18878   */\n      dup6\n        /* \"#utility.yul\":18830:18900   */\n      tag_484\n      jump\t// in\n    tag_593:\n        /* \"#utility.yul\":18910:18980   */\n      tag_594\n        /* \"#utility.yul\":18976:18978   */\n      0x40\n        /* \"#utility.yul\":18965:18974   */\n      dup4\n        /* \"#utility.yul\":18961:18979   */\n      add\n        /* \"#utility.yul\":18952:18958   */\n      dup5\n        /* \"#utility.yul\":18910:18980   */\n      tag_484\n      jump\t// in\n    tag_594:\n        /* \"#utility.yul\":18632:18987   */\n      swap5\n      swap4\n      pop\n      pop\n      pop\n      pop\n      jump\t// out\n        /* \"#utility.yul\":18993:19412   */\n    tag_142:\n        /* \"#utility.yul\":19159:19163   */\n      0x00\n        /* \"#utility.yul\":19197:19199   */\n      0x20\n        /* \"#utility.yul\":19186:19195   */\n      dup3\n        /* \"#utility.yul\":19182:19200   */\n      add\n        /* \"#utility.yul\":19174:19200   */\n      swap1\n      pop\n        /* \"#utility.yul\":19246:19255   */\n      dup2\n        /* \"#utility.yul\":19240:19244   */\n      dup2\n        /* \"#utility.yul\":19236:19256   */\n      sub\n        /* \"#utility.yul\":19232:19233   */\n      0x00\n        /* \"#utility.yul\":19221:19230   */\n      dup4\n        /* \"#utility.yul\":19217:19234   */\n      add\n        /* \"#utility.yul\":19210:19257   */\n      mstore\n        /* \"#utility.yul\":19274:19405   */\n      tag_596\n        /* \"#utility.yul\":19400:19404   */\n      dup2\n        /* \"#utility.yul\":19274:19405   */\n      tag_504\n      jump\t// in\n    tag_596:\n        /* \"#utility.yul\":19266:19405   */\n      swap1\n      pop\n        /* \"#utility.yul\":19164:19412   */\n      swap2\n      swap1\n      pop\n      jump\t// out\n        /* \"#utility.yul\":19418:19837   */\n    tag_168:\n        /* \"#utility.yul\":19584:19588   */\n      0x00\n        /* \"#utility.yul\":19622:19624   */\n      0x20\n        /* \"#utility.yul\":19611:19620   */\n      dup3\n        /* \"#utility.yul\":19607:19625   */\n      add\n        /* \"#utility.yul\":19599:19625   */\n      swap1\n      pop\n        /* \"#utility.yul\":19671:19680   */\n      dup2\n        /* \"#utility.yul\":19665:19669   */\n      dup2\n        /* \"#utility.yul\":19661:19681   */\n      sub\n        /* \"#utility.yul\":19657:19658   */\n      0x00\n        /* \"#utility.yul\":19646:19655   */\n      dup4\n        /* \"#utility.yul\":19642:19659   */\n      add\n        /* \"#utility.yul\":19635:19682   */\n      mstore\n        /* \"#utility.yul\":19699:19830   */\n      tag_598\n        /* \"#utility.yul\":19825:19829   */\n      dup2\n        /* \"#utility.yul\":19699:19830   */\n      tag_549\n      jump\t// in\n    tag_598:\n        /* \"#utility.yul\":19691:19830   */\n      swap1\n      pop\n        /* \"#utility.yul\":19589:19837   */\n      swap2\n      swap1\n      pop\n      jump\t// out\n        /* \"#utility.yul\":19843:20262   */\n    tag_138:\n        /* \"#utility.yul\":20009:20013   */\n      0x00\n        /* \"#utility.yul\":20047:20049   */\n      0x20\n        /* \"#utility.yul\":20036:20045   */\n      dup3\n        /* \"#utility.yul\":20032:20050   */\n      add\n        /* \"#utility.yul\":20024:20050   */\n      swap1\n      pop\n        /* \"#utility.yul\":20096:20105   */\n      dup2\n        /* \"#utility.yul\":20090:20094   */\n      dup2\n        /* \"#utility.yul\":20086:20106   */\n      sub\n        /* \"#utility.yul\":20082:20083   */\n      0x00\n        /* \"#utility.yul\":20071:20080   */\n      dup4\n        /* \"#utility.yul\":20067:20084   */\n      add\n        /* \"#utility.yul\":20060:20107   */\n      mstore\n        /* \"#utility.yul\":20124:20255   */\n      tag_600\n        /* \"#utility.yul\":20250:20254   */\n      dup2\n        /* \"#utility.yul\":20124:20255   */\n      tag_554\n      jump\t// in\n    tag_600:\n        /* \"#utility.yul\":20116:20255   */\n      swap1\n      pop\n        /* \"#utility.yul\":20014:20262   */\n      swap2\n      swap1\n      pop\n      jump\t// out\n        /* \"#utility.yul\":20268:20490   */\n    tag_32:\n        /* \"#utility.yul\":20361:20365   */\n      0x00\n        /* \"#utility.yul\":20399:20401   */\n      0x20\n        /* \"#utility.yul\":20388:20397   */\n      dup3\n        /* \"#utility.yul\":20384:20402   */\n      add\n        /* \"#utility.yul\":20376:20402   */\n      swap1\n      pop\n        /* \"#utility.yul\":20412:20483   */\n      tag_602\n        /* \"#utility.yul\":20480:20481   */\n      0x00\n        /* \"#utility.yul\":20469:20478   */\n      dup4\n        /* \"#utility.yul\":20465:20482   */\n      add\n        /* \"#utility.yul\":20456:20462   */\n      dup5\n        /* \"#utility.yul\":20412:20483   */\n      tag_559\n      jump\t// in\n    tag_602:\n        /* \"#utility.yul\":20366:20490   */\n      swap3\n      swap2\n      pop\n      pop\n      jump\t// out\n        /* \"#utility.yul\":20496:20625   */\n    tag_360:\n        /* \"#utility.yul\":20530:20536   */\n      0x00\n        /* \"#utility.yul\":20557:20577   */\n      tag_604\n      tag_605\n      jump\t// in\n    tag_604:\n        /* \"#utility.yul\":20547:20577   */\n      swap1\n      pop\n        /* \"#utility.yul\":20586:20619   */\n      tag_606\n        /* \"#utility.yul\":20614:20618   */\n      dup3\n        /* \"#utility.yul\":20606:20612   */\n      dup3\n        /* \"#utility.yul\":20586:20619   */\n      tag_607\n      jump\t// in\n    tag_606:\n        /* \"#utility.yul\":20537:20625   */\n      swap2\n      swap1\n      pop\n      jump\t// out\n        /* \"#utility.yul\":20631:20706   */\n    tag_605:\n        /* \"#utility.yul\":20664:20670   */\n      0x00\n        /* \"#utility.yul\":20697:20699   */\n      0x40\n        /* \"#utility.yul\":20691:20700   */\n      mload\n        /* \"#utility.yul\":20681:20700   */\n      swap1\n      pop\n        /* \"#utility.yul\":20671:20706   */\n      swap1\n      jump\t// out\n        /* \"#utility.yul\":20712:20960   */\n    tag_359:\n        /* \"#utility.yul\":20786:20790   */\n      0x00\n        /* \"#utility.yul\":20876:20894   */\n      0xffffffffffffffff\n        /* \"#utility.yul\":20868:20874   */\n      dup3\n        /* \"#utility.yul\":20865:20895   */\n      gt\n        /* \"#utility.yul\":20862:20864   */\n      iszero\n      tag_610\n      jumpi\n        /* \"#utility.yul\":20898:20916   */\n      tag_611\n      tag_612\n      jump\t// in\n    tag_611:\n        /* \"#utility.yul\":20862:20864   */\n    tag_610:\n        /* \"#utility.yul\":20948:20952   */\n      0x20\n        /* \"#utility.yul\":20940:20946   */\n      dup3\n        /* \"#utility.yul\":20936:20953   */\n      mul\n        /* \"#utility.yul\":20928:20953   */\n      swap1\n      pop\n        /* \"#utility.yul\":20791:20960   */\n      swap2\n      swap1\n      pop\n      jump\t// out\n        /* \"#utility.yul\":20966:21276   */\n    tag_373:\n        /* \"#utility.yul\":21042:21046   */\n      0x00\n        /* \"#utility.yul\":21132:21150   */\n      0xffffffffffffffff\n        /* \"#utility.yul\":21124:21130   */\n      dup3\n        /* \"#utility.yul\":21121:21151   */\n      gt\n        /* \"#utility.yul\":21118:21120   */\n      iszero\n      tag_614\n      jumpi\n        /* \"#utility.yul\":21154:21172   */\n      tag_615\n      tag_612\n      jump\t// in\n    tag_615:\n        /* \"#utility.yul\":21118:21120   */\n    tag_614:\n        /* \"#utility.yul\":21204:21208   */\n      0x20\n        /* \"#utility.yul\":21196:21202   */\n      dup3\n        /* \"#utility.yul\":21192:21209   */\n      mul\n        /* \"#utility.yul\":21184:21209   */\n      swap1\n      pop\n        /* \"#utility.yul\":21264:21268   */\n      0x20\n        /* \"#utility.yul\":21258:21262   */\n      dup2\n        /* \"#utility.yul\":21254:21269   */\n      add\n        /* \"#utility.yul\":21246:21269   */\n      swap1\n      pop\n        /* \"#utility.yul\":21047:21276   */\n      swap2\n      swap1\n      pop\n      jump\t// out\n        /* \"#utility.yul\":21282:21541   */\n    tag_384:\n        /* \"#utility.yul\":21367:21371   */\n      0x00\n        /* \"#utility.yul\":21457:21475   */\n      0xffffffffffffffff\n        /* \"#utility.yul\":21449:21455   */\n      dup3\n        /* \"#utility.yul\":21446:21476   */\n      gt\n        /* \"#utility.yul\":21443:21445   */\n      iszero\n      tag_617\n      jumpi\n        /* \"#utility.yul\":21479:21497   */\n      tag_618\n      tag_612\n      jump\t// in\n    tag_618:\n        /* \"#utility.yul\":21443:21445   */\n    tag_617:\n        /* \"#utility.yul\":21529:21533   */\n      0x20\n        /* \"#utility.yul\":21521:21527   */\n      dup3\n        /* \"#utility.yul\":21517:21534   */\n      mul\n        /* \"#utility.yul\":21509:21534   */\n      swap1\n      pop\n        /* \"#utility.yul\":21372:21541   */\n      swap2\n      swap1\n      pop\n      jump\t// out\n        /* \"#utility.yul\":21547:21855   */\n    tag_399:\n        /* \"#utility.yul\":21609:21613   */\n      0x00\n        /* \"#utility.yul\":21699:21717   */\n      0xffffffffffffffff\n        /* \"#utility.yul\":21691:21697   */\n      dup3\n        /* \"#utility.yul\":21688:21718   */\n      gt\n        /* \"#utility.yul\":21685:21687   */\n      iszero\n      tag_620\n      jumpi\n        /* \"#utility.yul\":21721:21739   */\n      tag_621\n      tag_612\n      jump\t// in\n    tag_621:\n        /* \"#utility.yul\":21685:21687   */\n    tag_620:\n        /* \"#utility.yul\":21759:21788   */\n      tag_622\n        /* \"#utility.yul\":21781:21787   */\n      dup3\n        /* \"#utility.yul\":21759:21788   */\n      tag_497\n      jump\t// in\n    tag_622:\n        /* \"#utility.yul\":21751:21788   */\n      swap1\n      pop\n        /* \"#utility.yul\":21843:21847   */\n      0x20\n        /* \"#utility.yul\":21837:21841   */\n      dup2\n        /* \"#utility.yul\":21833:21848   */\n      add\n        /* \"#utility.yul\":21825:21848   */\n      swap1\n      pop\n        /* \"#utility.yul\":21614:21855   */\n      swap2\n      swap1\n      pop\n      jump\t// out\n        /* \"#utility.yul\":21861:21960   */\n    tag_491:\n        /* \"#utility.yul\":21913:21919   */\n      0x00\n        /* \"#utility.yul\":21947:21952   */\n      dup2\n        /* \"#utility.yul\":21941:21953   */\n      mload\n        /* \"#utility.yul\":21931:21953   */\n      swap1\n      pop\n        /* \"#utility.yul\":21920:21960   */\n      swap2\n      swap1\n      pop\n      jump\t// out\n        /* \"#utility.yul\":21966:22135   */\n    tag_493:\n        /* \"#utility.yul\":22050:22061   */\n      0x00\n        /* \"#utility.yul\":22084:22090   */\n      dup3\n        /* \"#utility.yul\":22079:22082   */\n      dup3\n        /* \"#utility.yul\":22072:22091   */\n      mstore\n        /* \"#utility.yul\":22124:22128   */\n      0x20\n        /* \"#utility.yul\":22119:22122   */\n      dup3\n        /* \"#utility.yul\":22115:22129   */\n      add\n        /* \"#utility.yul\":22100:22129   */\n      swap1\n      pop\n        /* \"#utility.yul\":22062:22135   */\n      swap3\n      swap2\n      pop\n      pop\n      jump\t// out\n        /* \"#utility.yul\":22141:22289   */\n    tag_502:\n        /* \"#utility.yul\":22243:22254   */\n      0x00\n        /* \"#utility.yul\":22280:22283   */\n      dup2\n        /* \"#utility.yul\":22265:22283   */\n      swap1\n      pop\n        /* \"#utility.yul\":22255:22289   */\n      swap3\n      swap2\n      pop\n      pop\n      jump\t// out\n        /* \"#utility.yul\":22295:22820   */\n    tag_177:\n        /* \"#utility.yul\":22334:22337   */\n      0x00\n        /* \"#utility.yul\":22353:22372   */\n      tag_627\n        /* \"#utility.yul\":22370:22371   */\n      dup3\n        /* \"#utility.yul\":22353:22372   */\n      tag_487\n      jump\t// in\n    tag_627:\n        /* \"#utility.yul\":22348:22372   */\n      swap2\n      pop\n        /* \"#utility.yul\":22386:22405   */\n      tag_628\n        /* \"#utility.yul\":22403:22404   */\n      dup4\n        /* \"#utility.yul\":22386:22405   */\n      tag_487\n      jump\t// in\n    tag_628:\n        /* \"#utility.yul\":22381:22405   */\n      swap3\n      pop\n        /* \"#utility.yul\":22574:22575   */\n      dup2\n        /* \"#utility.yul\":22506:22572   */\n      0x7fffffffffffffffffffffffffffffffffffffffffffffffffffffffffffffff\n        /* \"#utility.yul\":22502:22576   */\n      sub\n        /* \"#utility.yul\":22499:22500   */\n      dup4\n        /* \"#utility.yul\":22495:22577   */\n      sgt\n        /* \"#utility.yul\":22490:22491   */\n      0x00\n        /* \"#utility.yul\":22487:22488   */\n      dup4\n        /* \"#utility.yul\":22483:22492   */\n      slt\n        /* \"#utility.yul\":22476:22493   */\n      iszero\n        /* \"#utility.yul\":22472:22578   */\n      and\n        /* \"#utility.yul\":22469:22471   */\n      iszero\n      tag_629\n      jumpi\n        /* \"#utility.yul\":22581:22599   */\n      tag_630\n      tag_631\n      jump\t// in\n    tag_630:\n        /* \"#utility.yul\":22469:22471   */\n    tag_629:\n        /* \"#utility.yul\":22761:22762   */\n      dup2\n        /* \"#utility.yul\":22693:22759   */\n      0x8000000000000000000000000000000000000000000000000000000000000000\n        /* \"#utility.yul\":22689:22763   */\n      sub\n        /* \"#utility.yul\":22686:22687   */\n      dup4\n        /* \"#utility.yul\":22682:22764   */\n      slt\n        /* \"#utility.yul\":22678:22679   */\n      0x00\n        /* \"#utility.yul\":22675:22676   */\n      dup4\n        /* \"#utility.yul\":22671:22680   */\n      slt\n        /* \"#utility.yul\":22667:22765   */\n      and\n        /* \"#utility.yul\":22664:22666   */\n      iszero\n      tag_632\n      jumpi\n        /* \"#utility.yul\":22768:22786   */\n      tag_633\n      tag_631\n      jump\t// in\n    tag_633:\n        /* \"#utility.yul\":22664:22666   */\n    tag_632:\n        /* \"#utility.yul\":22812:22813   */\n      dup3\n        /* \"#utility.yul\":22809:22810   */\n      dup3\n        /* \"#utility.yul\":22805:22814   */\n      add\n        /* \"#utility.yul\":22798:22814   */\n      swap1\n      pop\n        /* \"#utility.yul\":22338:22820   */\n      swap3\n      swap2\n      pop\n      pop\n      jump\t// out\n        /* \"#utility.yul\":22826:23131   */\n    tag_274:\n        /* \"#utility.yul\":22866:22869   */\n      0x00\n        /* \"#utility.yul\":22885:22905   */\n      tag_635\n        /* \"#utility.yul\":22903:22904   */\n      dup3\n        /* \"#utility.yul\":22885:22905   */\n      tag_562\n      jump\t// in\n    tag_635:\n        /* \"#utility.yul\":22880:22905   */\n      swap2\n      pop\n        /* \"#utility.yul\":22919:22939   */\n      tag_636\n        /* \"#utility.yul\":22937:22938   */\n      dup4\n        /* \"#utility.yul\":22919:22939   */\n      tag_562\n      jump\t// in\n    tag_636:\n        /* \"#utility.yul\":22914:22939   */\n      swap3\n      pop\n        /* \"#utility.yul\":23073:23074   */\n      dup3\n        /* \"#utility.yul\":23005:23071   */\n      0xffffffffffffffffffffffffffffffffffffffffffffffffffffffffffffffff\n        /* \"#utility.yul\":23001:23075   */\n      sub\n        /* \"#utility.yul\":22998:22999   */\n      dup3\n        /* \"#utility.yul\":22995:23076   */\n      gt\n        /* \"#utility.yul\":22992:22994   */\n      iszero\n      tag_637\n      jumpi\n        /* \"#utility.yul\":23079:23097   */\n      tag_638\n      tag_631\n      jump\t// in\n    tag_638:\n        /* \"#utility.yul\":22992:22994   */\n    tag_637:\n        /* \"#utility.yul\":23123:23124   */\n      dup3\n        /* \"#utility.yul\":23120:23121   */\n      dup3\n        /* \"#utility.yul\":23116:23125   */\n      add\n        /* \"#utility.yul\":23109:23125   */\n      swap1\n      pop\n        /* \"#utility.yul\":22870:23131   */\n      swap3\n      swap2\n      pop\n      pop\n      jump\t// out\n        /* \"#utility.yul\":23137:23522   */\n    tag_306:\n        /* \"#utility.yul\":23176:23177   */\n      0x00\n        /* \"#utility.yul\":23193:23212   */\n      tag_640\n        /* \"#utility.yul\":23210:23211   */\n      dup3\n        /* \"#utility.yul\":23193:23212   */\n      tag_487\n      jump\t// in\n    tag_640:\n        /* \"#utility.yul\":23188:23212   */\n      swap2\n      pop\n        /* \"#utility.yul\":23226:23245   */\n      tag_641\n        /* \"#utility.yul\":23243:23244   */\n      dup4\n        /* \"#utility.yul\":23226:23245   */\n      tag_487\n      jump\t// in\n    tag_641:\n        /* \"#utility.yul\":23221:23245   */\n      swap3\n      pop\n        /* \"#utility.yul\":23264:23265   */\n      dup3\n        /* \"#utility.yul\":23254:23256   */\n      tag_642\n      jumpi\n        /* \"#utility.yul\":23269:23287   */\n      tag_643\n      tag_644\n      jump\t// in\n    tag_643:\n        /* \"#utility.yul\":23254:23256   */\n    tag_642:\n        /* \"#utility.yul\":23455:23456   */\n      0x01\n        /* \"#utility.yul\":23452:23453   */\n      0x00\n        /* \"#utility.yul\":23448:23457   */\n      sub\n        /* \"#utility.yul\":23445:23446   */\n      dup4\n        /* \"#utility.yul\":23442:23458   */\n      eq\n        /* \"#utility.yul\":23361:23427   */\n      0x8000000000000000000000000000000000000000000000000000000000000000\n        /* \"#utility.yul\":23358:23359   */\n      dup4\n        /* \"#utility.yul\":23355:23428   */\n      eq\n        /* \"#utility.yul\":23338:23468   */\n      and\n        /* \"#utility.yul\":23335:23337   */\n      iszero\n      tag_645\n      jumpi\n        /* \"#utility.yul\":23471:23489   */\n      tag_646\n      tag_631\n      jump\t// in\n    tag_646:\n        /* \"#utility.yul\":23335:23337   */\n    tag_645:\n        /* \"#utility.yul\":23514:23515   */\n      dup3\n        /* \"#utility.yul\":23511:23512   */\n      dup3\n        /* \"#utility.yul\":23506:23516   */\n      sdiv\n        /* \"#utility.yul\":23501:23516   */\n      swap1\n      pop\n        /* \"#utility.yul\":23178:23522   */\n      swap3\n      swap2\n      pop\n      pop\n      jump\t// out\n        /* \"#utility.yul\":23528:23713   */\n    tag_272:\n        /* \"#utility.yul\":23568:23569   */\n      0x00\n        /* \"#utility.yul\":23585:23605   */\n      tag_648\n        /* \"#utility.yul\":23603:23604   */\n      dup3\n        /* \"#utility.yul\":23585:23605   */\n      tag_562\n      jump\t// in\n    tag_648:\n        /* \"#utility.yul\":23580:23605   */\n      swap2\n      pop\n        /* \"#utility.yul\":23619:23639   */\n      tag_649\n        /* \"#utility.yul\":23637:23638   */\n      dup4\n        /* \"#utility.yul\":23619:23639   */\n      tag_562\n      jump\t// in\n    tag_649:\n        /* \"#utility.yul\":23614:23639   */\n      swap3\n      pop\n        /* \"#utility.yul\":23658:23659   */\n      dup3\n        /* \"#utility.yul\":23648:23650   */\n      tag_650\n      jumpi\n        /* \"#utility.yul\":23663:23681   */\n      tag_651\n      tag_644\n      jump\t// in\n    tag_651:\n        /* \"#utility.yul\":23648:23650   */\n    tag_650:\n        /* \"#utility.yul\":23705:23706   */\n      dup3\n        /* \"#utility.yul\":23702:23703   */\n      dup3\n        /* \"#utility.yul\":23698:23707   */\n      div\n        /* \"#utility.yul\":23693:23707   */\n      swap1\n      pop\n        /* \"#utility.yul\":23570:23713   */\n      swap3\n      swap2\n      pop\n      pop\n      jump\t// out\n        /* \"#utility.yul\":23719:24067   */\n    tag_340:\n        /* \"#utility.yul\":23759:23766   */\n      0x00\n        /* \"#utility.yul\":23782:23802   */\n      tag_653\n        /* \"#utility.yul\":23800:23801   */\n      dup3\n        /* \"#utility.yul\":23782:23802   */\n      tag_562\n      jump\t// in\n    tag_653:\n        /* \"#utility.yul\":23777:23802   */\n      swap2\n      pop\n        /* \"#utility.yul\":23816:23836   */\n      tag_654\n        /* \"#utility.yul\":23834:23835   */\n      dup4\n        /* \"#utility.yul\":23816:23836   */\n      tag_562\n      jump\t// in\n    tag_654:\n        /* \"#utility.yul\":23811:23836   */\n      swap3\n      pop\n        /* \"#utility.yul\":24004:24005   */\n      dup2\n        /* \"#utility.yul\":23936:24002   */\n      0xffffffffffffffffffffffffffffffffffffffffffffffffffffffffffffffff\n        /* \"#utility.yul\":23932:24006   */\n      div\n        /* \"#utility.yul\":23929:23930   */\n      dup4\n        /* \"#utility.yul\":23926:24007   */\n      gt\n        /* \"#utility.yul\":23921:23922   */\n      dup3\n        /* \"#utility.yul\":23914:23923   */\n      iszero\n        /* \"#utility.yul\":23907:23924   */\n      iszero\n        /* \"#utility.yul\":23903:24008   */\n      and\n        /* \"#utility.yul\":23900:23902   */\n      iszero\n      tag_655\n      jumpi\n        /* \"#utility.yul\":24011:24029   */\n      tag_656\n      tag_631\n      jump\t// in\n    tag_656:\n        /* \"#utility.yul\":23900:23902   */\n    tag_655:\n        /* \"#utility.yul\":24059:24060   */\n      dup3\n        /* \"#utility.yul\":24056:24057   */\n      dup3\n        /* \"#utility.yul\":24052:24061   */\n      mul\n        /* \"#utility.yul\":24041:24061   */\n      swap1\n      pop\n        /* \"#utility.yul\":23767:24067   */\n      swap3\n      swap2\n      pop\n      pop\n      jump\t// out\n        /* \"#utility.yul\":24073:24264   */\n    tag_270:\n        /* \"#utility.yul\":24113:24117   */\n      0x00\n        /* \"#utility.yul\":24133:24153   */\n      tag_658\n        /* \"#utility.yul\":24151:24152   */\n      dup3\n        /* \"#utility.yul\":24133:24153   */\n      tag_562\n      jump\t// in\n    tag_658:\n        /* \"#utility.yul\":24128:24153   */\n      swap2\n      pop\n        /* \"#utility.yul\":24167:24187   */\n      tag_659\n        /* \"#utility.yul\":24185:24186   */\n      dup4\n        /* \"#utility.yul\":24167:24187   */\n      tag_562\n      jump\t// in\n    tag_659:\n        /* \"#utility.yul\":24162:24187   */\n      swap3\n      pop\n        /* \"#utility.yul\":24206:24207   */\n      dup3\n        /* \"#utility.yul\":24203:24204   */\n      dup3\n        /* \"#utility.yul\":24200:24208   */\n      lt\n        /* \"#utility.yul\":24197:24199   */\n      iszero\n      tag_660\n      jumpi\n        /* \"#utility.yul\":24211:24229   */\n      tag_661\n      tag_631\n      jump\t// in\n    tag_661:\n        /* \"#utility.yul\":24197:24199   */\n    tag_660:\n        /* \"#utility.yul\":24256:24257   */\n      dup3\n        /* \"#utility.yul\":24253:24254   */\n      dup3\n        /* \"#utility.yul\":24249:24258   */\n      sub\n        /* \"#utility.yul\":24241:24258   */\n      swap1\n      pop\n        /* \"#utility.yul\":24118:24264   */\n      swap3\n      swap2\n      pop\n      pop\n      jump\t// out\n        /* \"#utility.yul\":24270:24366   */\n    tag_475:\n        /* \"#utility.yul\":24307:24314   */\n      0x00\n        /* \"#utility.yul\":24336:24360   */\n      tag_663\n        /* \"#utility.yul\":24354:24359   */\n      dup3\n        /* \"#utility.yul\":24336:24360   */\n      tag_664\n      jump\t// in\n    tag_663:\n        /* \"#utility.yul\":24325:24360   */\n      swap1\n      pop\n        /* \"#utility.yul\":24315:24366   */\n      swap2\n      swap1\n      pop\n      jump\t// out\n        /* \"#utility.yul\":24372:24476   */\n    tag_471:\n        /* \"#utility.yul\":24417:24424   */\n      0x00\n        /* \"#utility.yul\":24446:24470   */\n      tag_666\n        /* \"#utility.yul\":24464:24469   */\n      dup3\n        /* \"#utility.yul\":24446:24470   */\n      tag_664\n      jump\t// in\n    tag_666:\n        /* \"#utility.yul\":24435:24470   */\n      swap1\n      pop\n        /* \"#utility.yul\":24425:24476   */\n      swap2\n      swap1\n      pop\n      jump\t// out\n        /* \"#utility.yul\":24482:24572   */\n    tag_479:\n        /* \"#utility.yul\":24516:24523   */\n      0x00\n        /* \"#utility.yul\":24559:24564   */\n      dup2\n        /* \"#utility.yul\":24552:24565   */\n      iszero\n        /* \"#utility.yul\":24545:24566   */\n      iszero\n        /* \"#utility.yul\":24534:24566   */\n      swap1\n      pop\n        /* \"#utility.yul\":24524:24572   */\n      swap2\n      swap1\n      pop\n      jump\t// out\n        /* \"#utility.yul\":24578:24707   */\n    tag_668:\n        /* \"#utility.yul\":24624:24631   */\n      0x00\n        /* \"#utility.yul\":24653:24658   */\n      dup2\n        /* \"#utility.yul\":24642:24658   */\n      swap1\n      pop\n        /* \"#utility.yul\":24659:24701   */\n      tag_670\n        /* \"#utility.yul\":24695:24700   */\n      dup3\n        /* \"#utility.yul\":24659:24701   */\n      tag_671\n      jump\t// in\n    tag_670:\n        /* \"#utility.yul\":24632:24707   */\n      swap2\n      swap1\n      pop\n      jump\t// out\n        /* \"#utility.yul\":24713:24789   */\n    tag_487:\n        /* \"#utility.yul\":24749:24756   */\n      0x00\n        /* \"#utility.yul\":24778:24783   */\n      dup2\n        /* \"#utility.yul\":24767:24783   */\n      swap1\n      pop\n        /* \"#utility.yul\":24757:24789   */\n      swap2\n      swap1\n      pop\n      jump\t// out\n        /* \"#utility.yul\":24795:24921   */\n    tag_664:\n        /* \"#utility.yul\":24832:24839   */\n      0x00\n        /* \"#utility.yul\":24872:24914   */\n      0xffffffffffffffffffffffffffffffffffffffff\n        /* \"#utility.yul\":24865:24870   */\n      dup3\n        /* \"#utility.yul\":24861:24915   */\n      and\n        /* \"#utility.yul\":24850:24915   */\n      swap1\n      pop\n        /* \"#utility.yul\":24840:24921   */\n      swap2\n      swap1\n      pop\n      jump\t// out\n        /* \"#utility.yul\":24927:25004   */\n    tag_562:\n        /* \"#utility.yul\":24964:24971   */\n      0x00\n        /* \"#utility.yul\":24993:24998   */\n      dup2\n        /* \"#utility.yul\":24982:24998   */\n      swap1\n      pop\n        /* \"#utility.yul\":24972:25004   */\n      swap2\n      swap1\n      pop\n      jump\t// out\n        /* \"#utility.yul\":25010:25139   */\n    tag_483:\n        /* \"#utility.yul\":25067:25076   */\n      0x00\n        /* \"#utility.yul\":25100:25133   */\n      tag_676\n        /* \"#utility.yul\":25127:25132   */\n      dup3\n        /* \"#utility.yul\":25100:25133   */\n      tag_668\n      jump\t// in\n    tag_676:\n        /* \"#utility.yul\":25087:25133   */\n      swap1\n      pop\n        /* \"#utility.yul\":25077:25139   */\n      swap2\n      swap1\n      pop\n      jump\t// out\n        /* \"#utility.yul\":25145:25299   */\n    tag_404:\n        /* \"#utility.yul\":25229:25235   */\n      dup3\n        /* \"#utility.yul\":25224:25227   */\n      dup2\n        /* \"#utility.yul\":25219:25222   */\n      dup4\n        /* \"#utility.yul\":25206:25236   */\n      calldatacopy\n        /* \"#utility.yul\":25291:25292   */\n      0x00\n        /* \"#utility.yul\":25282:25288   */\n      dup4\n        /* \"#utility.yul\":25277:25280   */\n      dup4\n        /* \"#utility.yul\":25273:25289   */\n      add\n        /* \"#utility.yul\":25266:25293   */\n      mstore\n        /* \"#utility.yul\":25196:25299   */\n      pop\n      pop\n      pop\n      jump\t// out\n        /* \"#utility.yul\":25305:25612   */\n    tag_495:\n        /* \"#utility.yul\":25373:25374   */\n      0x00\n        /* \"#utility.yul\":25383:25496   */\n    tag_679:\n        /* \"#utility.yul\":25397:25403   */\n      dup4\n        /* \"#utility.yul\":25394:25395   */\n      dup2\n        /* \"#utility.yul\":25391:25404   */\n      lt\n        /* \"#utility.yul\":25383:25496   */\n      iszero\n      tag_681\n      jumpi\n        /* \"#utility.yul\":25482:25483   */\n      dup1\n        /* \"#utility.yul\":25477:25480   */\n      dup3\n        /* \"#utility.yul\":25473:25484   */\n      add\n        /* \"#utility.yul\":25467:25485   */\n      mload\n        /* \"#utility.yul\":25463:25464   */\n      dup2\n        /* \"#utility.yul\":25458:25461   */\n      dup5\n        /* \"#utility.yul\":25454:25465   */\n      add\n        /* \"#utility.yul\":25447:25486   */\n      mstore\n        /* \"#utility.yul\":25419:25421   */\n      0x20\n        /* \"#utility.yul\":25416:25417   */\n      dup2\n        /* \"#utility.yul\":25412:25422   */\n      add\n        /* \"#utility.yul\":25407:25422   */\n      swap1\n      pop\n        /* \"#utility.yul\":25383:25496   */\n      jump(tag_679)\n    tag_681:\n        /* \"#utility.yul\":25514:25520   */\n      dup4\n        /* \"#utility.yul\":25511:25512   */\n      dup2\n        /* \"#utility.yul\":25508:25521   */\n      gt\n        /* \"#utility.yul\":25505:25507   */\n      iszero\n      tag_682\n      jumpi\n        /* \"#utility.yul\":25594:25595   */\n      0x00\n        /* \"#utility.yul\":25585:25591   */\n      dup5\n        /* \"#utility.yul\":25580:25583   */\n      dup5\n        /* \"#utility.yul\":25576:25592   */\n      add\n        /* \"#utility.yul\":25569:25596   */\n      mstore\n        /* \"#utility.yul\":25505:25507   */\n    tag_682:\n        /* \"#utility.yul\":25354:25612   */\n      pop\n      pop\n      pop\n      pop\n      jump\t// out\n        /* \"#utility.yul\":25618:25938   */\n    tag_148:\n        /* \"#utility.yul\":25662:25668   */\n      0x00\n        /* \"#utility.yul\":25699:25700   */\n      0x02\n        /* \"#utility.yul\":25693:25697   */\n      dup3\n        /* \"#utility.yul\":25689:25701   */\n      div\n        /* \"#utility.yul\":25679:25701   */\n      swap1\n      pop\n        /* \"#utility.yul\":25746:25747   */\n      0x01\n        /* \"#utility.yul\":25740:25744   */\n      dup3\n        /* \"#utility.yul\":25736:25748   */\n      and\n        /* \"#utility.yul\":25767:25785   */\n      dup1\n        /* \"#utility.yul\":25757:25759   */\n      tag_684\n      jumpi\n        /* \"#utility.yul\":25823:25827   */\n      0x7f\n        /* \"#utility.yul\":25815:25821   */\n      dup3\n        /* \"#utility.yul\":25811:25828   */\n      and\n        /* \"#utility.yul\":25801:25828   */\n      swap2\n      pop\n        /* \"#utility.yul\":25757:25759   */\n    tag_684:\n        /* \"#utility.yul\":25885:25887   */\n      0x20\n        /* \"#utility.yul\":25877:25883   */\n      dup3\n        /* \"#utility.yul\":25874:25888   */\n      lt\n        /* \"#utility.yul\":25854:25872   */\n      dup2\n        /* \"#utility.yul\":25851:25889   */\n      eq\n        /* \"#utility.yul\":25848:25850   */\n      iszero\n      tag_685\n      jumpi\n        /* \"#utility.yul\":25904:25922   */\n      tag_686\n      tag_687\n      jump\t// in\n    tag_686:\n        /* \"#utility.yul\":25848:25850   */\n    tag_685:\n        /* \"#utility.yul\":25669:25938   */\n      pop\n      swap2\n      swap1\n      pop\n      jump\t// out\n        /* \"#utility.yul\":25944:26225   */\n    tag_607:\n        /* \"#utility.yul\":26027:26054   */\n      tag_689\n        /* \"#utility.yul\":26049:26053   */\n      dup3\n        /* \"#utility.yul\":26027:26054   */\n      tag_497\n      jump\t// in\n    tag_689:\n        /* \"#utility.yul\":26019:26025   */\n      dup2\n        /* \"#utility.yul\":26015:26055   */\n      add\n        /* \"#utility.yul\":26157:26163   */\n      dup2\n        /* \"#utility.yul\":26145:26155   */\n      dup2\n        /* \"#utility.yul\":26142:26164   */\n      lt\n        /* \"#utility.yul\":26121:26139   */\n      0xffffffffffffffff\n        /* \"#utility.yul\":26109:26119   */\n      dup3\n        /* \"#utility.yul\":26106:26140   */\n      gt\n        /* \"#utility.yul\":26103:26165   */\n      or\n        /* \"#utility.yul\":26100:26102   */\n      iszero\n      tag_690\n      jumpi\n        /* \"#utility.yul\":26168:26186   */\n      tag_691\n      tag_612\n      jump\t// in\n    tag_691:\n        /* \"#utility.yul\":26100:26102   */\n    tag_690:\n        /* \"#utility.yul\":26208:26218   */\n      dup1\n        /* \"#utility.yul\":26204:26206   */\n      0x40\n        /* \"#utility.yul\":26197:26219   */\n      mstore\n        /* \"#utility.yul\":25987:26225   */\n      pop\n      pop\n      pop\n      jump\t// out\n        /* \"#utility.yul\":26231:26462   */\n    tag_181:\n        /* \"#utility.yul\":26269:26272   */\n      0x00\n        /* \"#utility.yul\":26292:26315   */\n      tag_693\n        /* \"#utility.yul\":26309:26314   */\n      dup3\n        /* \"#utility.yul\":26292:26315   */\n      tag_487\n      jump\t// in\n    tag_693:\n        /* \"#utility.yul\":26283:26315   */\n      swap2\n      pop\n        /* \"#utility.yul\":26337:26403   */\n      0x7fffffffffffffffffffffffffffffffffffffffffffffffffffffffffffffff\n        /* \"#utility.yul\":26330:26335   */\n      dup3\n        /* \"#utility.yul\":26327:26404   */\n      eq\n        /* \"#utility.yul\":26324:26326   */\n      iszero\n      tag_694\n      jumpi\n        /* \"#utility.yul\":26407:26425   */\n      tag_695\n      tag_631\n      jump\t// in\n    tag_695:\n        /* \"#utility.yul\":26324:26326   */\n    tag_694:\n        /* \"#utility.yul\":26454:26455   */\n      0x01\n        /* \"#utility.yul\":26447:26452   */\n      dup3\n        /* \"#utility.yul\":26443:26456   */\n      add\n        /* \"#utility.yul\":26436:26456   */\n      swap1\n      pop\n        /* \"#utility.yul\":26273:26462   */\n      swap2\n      swap1\n      pop\n      jump\t// out\n        /* \"#utility.yul\":26468:26701   */\n    tag_179:\n        /* \"#utility.yul\":26507:26510   */\n      0x00\n        /* \"#utility.yul\":26530:26554   */\n      tag_697\n        /* \"#utility.yul\":26548:26553   */\n      dup3\n        /* \"#utility.yul\":26530:26554   */\n      tag_562\n      jump\t// in\n    tag_697:\n        /* \"#utility.yul\":26521:26554   */\n      swap2\n      pop\n        /* \"#utility.yul\":26576:26642   */\n      0xffffffffffffffffffffffffffffffffffffffffffffffffffffffffffffffff\n        /* \"#utility.yul\":26569:26574   */\n      dup3\n        /* \"#utility.yul\":26566:26643   */\n      eq\n        /* \"#utility.yul\":26563:26565   */\n      iszero\n      tag_698\n      jumpi\n        /* \"#utility.yul\":26646:26664   */\n      tag_699\n      tag_631\n      jump\t// in\n    tag_699:\n        /* \"#utility.yul\":26563:26565   */\n    tag_698:\n        /* \"#utility.yul\":26693:26694   */\n      0x01\n        /* \"#utility.yul\":26686:26691   */\n      dup3\n        /* \"#utility.yul\":26682:26695   */\n      add\n        /* \"#utility.yul\":26675:26695   */\n      swap1\n      pop\n        /* \"#utility.yul\":26511:26701   */\n      swap2\n      swap1\n      pop\n      jump\t// out\n        /* \"#utility.yul\":26707:26887   */\n    tag_631:\n        /* \"#utility.yul\":26755:26832   */\n      0x4e487b7100000000000000000000000000000000000000000000000000000000\n        /* \"#utility.yul\":26752:26753   */\n      0x00\n        /* \"#utility.yul\":26745:26833   */\n      mstore\n        /* \"#utility.yul\":26852:26856   */\n      0x11\n        /* \"#utility.yul\":26849:26850   */\n      0x04\n        /* \"#utility.yul\":26842:26857   */\n      mstore\n        /* \"#utility.yul\":26876:26880   */\n      0x24\n        /* \"#utility.yul\":26873:26874   */\n      0x00\n        /* \"#utility.yul\":26866:26881   */\n      revert\n        /* \"#utility.yul\":26893:27073   */\n    tag_644:\n        /* \"#utility.yul\":26941:27018   */\n      0x4e487b7100000000000000000000000000000000000000000000000000000000\n        /* \"#utility.yul\":26938:26939   */\n      0x00\n        /* \"#utility.yul\":26931:27019   */\n      mstore\n        /* \"#utility.yul\":27038:27042   */\n      0x12\n        /* \"#utility.yul\":27035:27036   */\n      0x04\n        /* \"#utility.yul\":27028:27043   */\n      mstore\n        /* \"#utility.yul\":27062:27066   */\n      0x24\n        /* \"#utility.yul\":27059:27060   */\n      0x00\n        /* \"#utility.yul\":27052:27067   */\n      revert\n        /* \"#utility.yul\":27079:27259   */\n    tag_133:\n        /* \"#utility.yul\":27127:27204   */\n      0x4e487b7100000000000000000000000000000000000000000000000000000000\n        /* \"#utility.yul\":27124:27125   */\n      0x00\n        /* \"#utility.yul\":27117:27205   */\n      mstore\n        /* \"#utility.yul\":27224:27228   */\n      0x21\n        /* \"#utility.yul\":27221:27222   */\n      0x04\n        /* \"#utility.yul\":27214:27229   */\n      mstore\n        /* \"#utility.yul\":27248:27252   */\n      0x24\n        /* \"#utility.yul\":27245:27246   */\n      0x00\n        /* \"#utility.yul\":27238:27253   */\n      revert\n        /* \"#utility.yul\":27265:27445   */\n    tag_687:\n        /* \"#utility.yul\":27313:27390   */\n      0x4e487b7100000000000000000000000000000000000000000000000000000000\n        /* \"#utility.yul\":27310:27311   */\n      0x00\n        /* \"#utility.yul\":27303:27391   */\n      mstore\n        /* \"#utility.yul\":27410:27414   */\n      0x22\n        /* \"#utility.yul\":27407:27408   */\n      0x04\n        /* \"#utility.yul\":27400:27415   */\n      mstore\n        /* \"#utility.yul\":27434:27438   */\n      0x24\n        /* \"#utility.yul\":27431:27432   */\n      0x00\n        /* \"#utility.yul\":27424:27439   */\n      revert\n        /* \"#utility.yul\":27451:27631   */\n    tag_175:\n        /* \"#utility.yul\":27499:27576   */\n      0x4e487b7100000000000000000000000000000000000000000000000000000000\n        /* \"#utility.yul\":27496:27497   */\n      0x00\n        /* \"#utility.yul\":27489:27577   */\n      mstore\n        /* \"#utility.yul\":27596:27600   */\n      0x32\n        /* \"#utility.yul\":27593:27594   */\n      0x04\n        /* \"#utility.yul\":27586:27601   */\n      mstore\n        /* \"#utility.yul\":27620:27624   */\n      0x24\n        /* \"#utility.yul\":27617:27618   */\n      0x00\n        /* \"#utility.yul\":27610:27625   */\n      revert\n        /* \"#utility.yul\":27637:27817   */\n    tag_612:\n        /* \"#utility.yul\":27685:27762   */\n      0x4e487b7100000000000000000000000000000000000000000000000000000000\n        /* \"#utility.yul\":27682:27683   */\n      0x00\n        /* \"#utility.yul\":27675:27763   */\n      mstore\n        /* \"#utility.yul\":27782:27786   */\n      0x41\n        /* \"#utility.yul\":27779:27780   */\n      0x04\n        /* \"#utility.yul\":27772:27787   */\n      mstore\n        /* \"#utility.yul\":27806:27810   */\n      0x24\n        /* \"#utility.yul\":27803:27804   */\n      0x00\n        /* \"#utility.yul\":27796:27811   */\n      revert\n        /* \"#utility.yul\":27823:27940   */\n    tag_392:\n        /* \"#utility.yul\":27932:27933   */\n      0x00\n        /* \"#utility.yul\":27929:27930   */\n      dup1\n        /* \"#utility.yul\":27922:27934   */\n      revert\n        /* \"#utility.yul\":27946:28063   */\n    tag_363:\n        /* \"#utility.yul\":28055:28056   */\n      0x00\n        /* \"#utility.yul\":28052:28053   */\n      dup1\n        /* \"#utility.yul\":28045:28057   */\n      revert\n        /* \"#utility.yul\":28069:28186   */\n    tag_402:\n        /* \"#utility.yul\":28178:28179   */\n      0x00\n        /* \"#utility.yul\":28175:28176   */\n      dup1\n        /* \"#utility.yul\":28168:28180   */\n      revert\n        /* \"#utility.yul\":28192:28309   */\n    tag_452:\n        /* \"#utility.yul\":28301:28302   */\n      0x00\n        /* \"#utility.yul\":28298:28299   */\n      dup1\n        /* \"#utility.yul\":28291:28303   */\n      revert\n        /* \"#utility.yul\":28315:28432   */\n    tag_438:\n        /* \"#utility.yul\":28424:28425   */\n      0x00\n        /* \"#utility.yul\":28421:28422   */\n      dup1\n        /* \"#utility.yul\":28414:28426   */\n      revert\n        /* \"#utility.yul\":28438:28540   */\n    tag_497:\n        /* \"#utility.yul\":28479:28485   */\n      0x00\n        /* \"#utility.yul\":28530:28532   */\n      0x1f\n        /* \"#utility.yul\":28526:28533   */\n      not\n        /* \"#utility.yul\":28521:28523   */\n      0x1f\n        /* \"#utility.yul\":28514:28519   */\n      dup4\n        /* \"#utility.yul\":28510:28524   */\n      add\n        /* \"#utility.yul\":28506:28534   */\n      and\n        /* \"#utility.yul\":28496:28534   */\n      swap1\n      pop\n        /* \"#utility.yul\":28486:28540   */\n      swap2\n      swap1\n      pop\n      jump\t// out\n        /* \"#utility.yul\":28546:28787   */\n    tag_508:\n        /* \"#utility.yul\":28686:28720   */\n      0x43616e6e6f742063616c6c20746869732066756e6374696f6e20646972656374\n        /* \"#utility.yul\":28682:28683   */\n      0x00\n        /* \"#utility.yul\":28674:28680   */\n      dup3\n        /* \"#utility.yul\":28670:28684   */\n      add\n        /* \"#utility.yul\":28663:28721   */\n      mstore\n        /* \"#utility.yul\":28755:28779   */\n      0x6c792c207573652056656e646f72466163746f72792e00000000000000000000\n        /* \"#utility.yul\":28750:28752   */\n      0x20\n        /* \"#utility.yul\":28742:28748   */\n      dup3\n        /* \"#utility.yul\":28738:28753   */\n      add\n        /* \"#utility.yul\":28731:28780   */\n      mstore\n        /* \"#utility.yul\":28652:28787   */\n      pop\n      jump\t// out\n        /* \"#utility.yul\":28793:28961   */\n    tag_513:\n        /* \"#utility.yul\":28933:28953   */\n      0x526566756e64696e67207061796d656e742e0000000000000000000000000000\n        /* \"#utility.yul\":28929:28930   */\n      0x00\n        /* \"#utility.yul\":28921:28927   */\n      dup3\n        /* \"#utility.yul\":28917:28931   */\n      add\n        /* \"#utility.yul\":28910:28954   */\n      mstore\n        /* \"#utility.yul\":28899:28961   */\n      pop\n      jump\t// out\n        /* \"#utility.yul\":28967:29133   */\n    tag_518:\n        /* \"#utility.yul\":29107:29125   */\n      0x53656e64696e67207061796d656e742e00000000000000000000000000000000\n        /* \"#utility.yul\":29103:29104   */\n      0x00\n        /* \"#utility.yul\":29095:29101   */\n      dup3\n        /* \"#utility.yul\":29091:29105   */\n      add\n        /* \"#utility.yul\":29084:29126   */\n      mstore\n        /* \"#utility.yul\":29073:29133   */\n      pop\n      jump\t// out\n        /* \"#utility.yul\":29139:29291   */\n    tag_523:\n        /* \"#utility.yul\":29279:29283   */\n      0x3d3d000000000000000000000000000000000000000000000000000000000000\n        /* \"#utility.yul\":29275:29276   */\n      0x00\n        /* \"#utility.yul\":29267:29273   */\n      dup3\n        /* \"#utility.yul\":29263:29277   */\n      add\n        /* \"#utility.yul\":29256:29284   */\n      mstore\n        /* \"#utility.yul\":29245:29291   */\n      pop\n      jump\t// out\n        /* \"#utility.yul\":29297:29448   */\n    tag_528:\n        /* \"#utility.yul\":29437:29440   */\n      0x3c00000000000000000000000000000000000000000000000000000000000000\n        /* \"#utility.yul\":29433:29434   */\n      0x00\n        /* \"#utility.yul\":29425:29431   */\n      dup3\n        /* \"#utility.yul\":29421:29435   */\n      add\n        /* \"#utility.yul\":29414:29441   */\n      mstore\n        /* \"#utility.yul\":29403:29448   */\n      pop\n      jump\t// out\n        /* \"#utility.yul\":29454:29606   */\n    tag_533:\n        /* \"#utility.yul\":29594:29598   */\n      0x213d000000000000000000000000000000000000000000000000000000000000\n        /* \"#utility.yul\":29590:29591   */\n      0x00\n        /* \"#utility.yul\":29582:29588   */\n      dup3\n        /* \"#utility.yul\":29578:29592   */\n      add\n        /* \"#utility.yul\":29571:29599   */\n      mstore\n        /* \"#utility.yul\":29560:29606   */\n      pop\n      jump\t// out\n        /* \"#utility.yul\":29612:29764   */\n    tag_538:\n        /* \"#utility.yul\":29752:29756   */\n      0x3d3e000000000000000000000000000000000000000000000000000000000000\n        /* \"#utility.yul\":29748:29749   */\n      0x00\n        /* \"#utility.yul\":29740:29746   */\n      dup3\n        /* \"#utility.yul\":29736:29750   */\n      add\n        /* \"#utility.yul\":29729:29757   */\n      mstore\n        /* \"#utility.yul\":29718:29764   */\n      pop\n      jump\t// out\n        /* \"#utility.yul\":29770:29922   */\n    tag_543:\n        /* \"#utility.yul\":29910:29914   */\n      0x3c3d000000000000000000000000000000000000000000000000000000000000\n        /* \"#utility.yul\":29906:29907   */\n      0x00\n        /* \"#utility.yul\":29898:29904   */\n      dup3\n        /* \"#utility.yul\":29894:29908   */\n      add\n        /* \"#utility.yul\":29887:29915   */\n      mstore\n        /* \"#utility.yul\":29876:29922   */\n      pop\n      jump\t// out\n        /* \"#utility.yul\":29928:30079   */\n    tag_548:\n        /* \"#utility.yul\":30068:30071   */\n      0x3e00000000000000000000000000000000000000000000000000000000000000\n        /* \"#utility.yul\":30064:30065   */\n      0x00\n        /* \"#utility.yul\":30056:30062   */\n      dup3\n        /* \"#utility.yul\":30052:30066   */\n      add\n        /* \"#utility.yul\":30045:30072   */\n      mstore\n        /* \"#utility.yul\":30034:30079   */\n      pop\n      jump\t// out\n        /* \"#utility.yul\":30085:30264   */\n    tag_553:\n        /* \"#utility.yul\":30225:30256   */\n      0x4e6f742077697468696e207468652062696c6c696e6720706572696f64000000\n        /* \"#utility.yul\":30221:30222   */\n      0x00\n        /* \"#utility.yul\":30213:30219   */\n      dup3\n        /* \"#utility.yul\":30209:30223   */\n      add\n        /* \"#utility.yul\":30202:30257   */\n      mstore\n        /* \"#utility.yul\":30191:30264   */\n      pop\n      jump\t// out\n        /* \"#utility.yul\":30270:30494   */\n    tag_558:\n        /* \"#utility.yul\":30410:30444   */\n      0x436f6e7472616374206973206e6f7420696e2074686520726571756972656420\n        /* \"#utility.yul\":30406:30407   */\n      0x00\n        /* \"#utility.yul\":30398:30404   */\n      dup3\n        /* \"#utility.yul\":30394:30408   */\n      add\n        /* \"#utility.yul\":30387:30445   */\n      mstore\n        /* \"#utility.yul\":30479:30486   */\n      0x7374617465000000000000000000000000000000000000000000000000000000\n        /* \"#utility.yul\":30474:30476   */\n      0x20\n        /* \"#utility.yul\":30466:30472   */\n      dup3\n        /* \"#utility.yul\":30462:30477   */\n      add\n        /* \"#utility.yul\":30455:30487   */\n      mstore\n        /* \"#utility.yul\":30376:30494   */\n      pop\n      jump\t// out\n        /* \"#utility.yul\":30500:30614   */\n    tag_671:\n        /* \"#utility.yul\":30582:30583   */\n      0x05\n        /* \"#utility.yul\":30575:30580   */\n      dup2\n        /* \"#utility.yul\":30572:30584   */\n      lt\n        /* \"#utility.yul\":30562:30564   */\n      tag_724\n      jumpi\n        /* \"#utility.yul\":30588:30606   */\n      tag_725\n      tag_133\n      jump\t// in\n    tag_725:\n        /* \"#utility.yul\":30562:30564   */\n    tag_724:\n        /* \"#utility.yul\":30552:30614   */\n      pop\n      jump\t// out\n        /* \"#utility.yul\":30620:30742   */\n    tag_408:\n        /* \"#utility.yul\":30693:30717   */\n      tag_727\n        /* \"#utility.yul\":30711:30716   */\n      dup2\n        /* \"#utility.yul\":30693:30717   */\n      tag_475\n      jump\t// in\n    tag_727:\n        /* \"#utility.yul\":30686:30691   */\n      dup2\n        /* \"#utility.yul\":30683:30718   */\n      eq\n        /* \"#utility.yul\":30673:30675   */\n      tag_728\n      jumpi\n        /* \"#utility.yul\":30732:30733   */\n      0x00\n        /* \"#utility.yul\":30729:30730   */\n      dup1\n        /* \"#utility.yul\":30722:30734   */\n      revert\n        /* \"#utility.yul\":30673:30675   */\n    tag_728:\n        /* \"#utility.yul\":30663:30742   */\n      pop\n      jump\t// out\n        /* \"#utility.yul\":30748:30868   */\n    tag_426:\n        /* \"#utility.yul\":30820:30843   */\n      tag_730\n        /* \"#utility.yul\":30837:30842   */\n      dup2\n        /* \"#utility.yul\":30820:30843   */\n      tag_487\n      jump\t// in\n    tag_730:\n        /* \"#utility.yul\":30813:30818   */\n      dup2\n        /* \"#utility.yul\":30810:30844   */\n      eq\n        /* \"#utility.yul\":30800:30802   */\n      tag_731\n      jumpi\n        /* \"#utility.yul\":30858:30859   */\n      0x00\n        /* \"#utility.yul\":30855:30856   */\n      dup1\n        /* \"#utility.yul\":30848:30860   */\n      revert\n        /* \"#utility.yul\":30800:30802   */\n    tag_731:\n        /* \"#utility.yul\":30790:30868   */\n      pop\n      jump\t// out\n        /* \"#utility.yul\":30874:30996   */\n    tag_434:\n        /* \"#utility.yul\":30947:30971   */\n      tag_733\n        /* \"#utility.yul\":30965:30970   */\n      dup2\n        /* \"#utility.yul\":30947:30971   */\n      tag_562\n      jump\t// in\n    tag_733:\n        /* \"#utility.yul\":30940:30945   */\n      dup2\n        /* \"#utility.yul\":30937:30972   */\n      eq\n        /* \"#utility.yul\":30927:30929   */\n      tag_734\n      jumpi\n        /* \"#utility.yul\":30986:30987   */\n      0x00\n        /* \"#utility.yul\":30983:30984   */\n      dup1\n        /* \"#utility.yul\":30976:30988   */\n      revert\n        /* \"#utility.yul\":30927:30929   */\n    tag_734:\n        /* \"#utility.yul\":30917:30996   */\n      pop\n      jump\t// out\n\n    auxdata: 0xa2646970667358221220b2f32b7485ed4da3bbbe12ca26cc9f7fdb49f78ff1e5b1e03c5cf7da88b464e164736f6c63430008060033\n}\n",
    "bytecode": {
      "linkReferences": {},
      "object": "60806040526000600260156101000a81548160ff021916908360048111156200002d576200002c62000101565b5b02179055506000600960006101000a81548160ff021916908315150217905550603c80601861190062000061919062000090565b6200006d919062000090565b62000079919062000090565b600c553480156200008957600080fd5b5062000130565b60006200009d82620000c8565b9150620000aa83620000c8565b925082620000bd57620000bc620000d2565b5b828204905092915050565b6000819050919050565b7f4e487b7100000000000000000000000000000000000000000000000000000000600052601260045260246000fd5b7f4e487b7100000000000000000000000000000000000000000000000000000000600052602160045260246000fd5b6126b480620001406000396000f3fe6080604052600436106101405760003560e01c8063760a8c2a116100b6578063aa8c217c1161006f578063aa8c217c146103bf578063ae90b213146103ea578063c040e6b814610415578063f1b9ee2414610440578063f851a44014610457578063fadeaa591461048257610140565b8063760a8c2a1461031a57806383197ef01461033157806384ac444614610348578063904c6094146103525780639503fe3d1461037d57806397c0bba11461039457610140565b806321ce5afd1161010857806321ce5afd1461021a57806325419c24146102435780633a40f3b21461026e5780634388531414610299578063516dde43146102c4578063722713f7146102ef57610140565b806305b34410146101455780630d4b8cb914610170578063109e94cf1461019957806312424e3f146101c4578063182541d2146101db575b600080fd5b34801561015157600080fd5b5061015a6104ab565b6040516101679190611def565b60405180910390f35b34801561017c57600080fd5b50610197600480360381019061019291906117f6565b6104b1565b005b3480156101a557600080fd5b506101ae6105bf565b6040516101bb9190611ca4565b60405180910390f35b3480156101d057600080fd5b506101d96105e5565b005b3480156101e757600080fd5b5061020260048036038101906101fd9190611982565b610733565b60405161021193929190611d51565b60405180910390f35b34801561022657600080fd5b50610241600480360381019061023c91906118ac565b6107f5565b005b34801561024f57600080fd5b50610258610957565b6040516102659190611def565b60405180910390f35b34801561027a57600080fd5b5061028361095d565b6040516102909190611cbf565b60405180910390f35b3480156102a557600080fd5b506102ae610970565b6040516102bb9190611def565b60405180910390f35b3480156102d057600080fd5b506102d9610976565b6040516102e69190611def565b60405180910390f35b3480156102fb57600080fd5b5061030461097c565b6040516103119190611def565b60405180910390f35b34801561032657600080fd5b5061032f610984565b005b34801561033d57600080fd5b50610346610a29565b005b610350610adb565b005b34801561035e57600080fd5b50610367610bce565b6040516103749190611def565b60405180910390f35b34801561038957600080fd5b50610392610bd4565b005b3480156103a057600080fd5b506103a9610cb6565b6040516103b69190611cbf565b60405180910390f35b3480156103cb57600080fd5b506103d4610cc9565b6040516103e19190611def565b60405180910390f35b3480156103f657600080fd5b506103ff610ccf565b60405161040c9190611ca4565b60405180910390f35b34801561042157600080fd5b5061042a610cf5565b6040516104379190611d36565b60405180910390f35b34801561044c57600080fd5b50610455610d08565b005b34801561046357600080fd5b5061046c610dac565b6040516104799190611c89565b60405180910390f35b34801561048e57600080fd5b506104a960048036038101906104a491906118f5565b610dd0565b005b60035481565b336000806101000a81548173ffffffffffffffffffffffffffffffffffffffff021916908373ffffffffffffffffffffffffffffffffffffffff16021790555087600160006101000a81548173ffffffffffffffffffffffffffffffffffffffff021916908373ffffffffffffffffffffffffffffffffffffffff16021790555086600260006101000a81548173ffffffffffffffffffffffffffffffffffffffff021916908373ffffffffffffffffffffffffffffffffffffffff160217905550856003819055508460048190555061058a84610fba565b60068190555061059983610fba565b60078190555081600881905550806005819055506105b5610fec565b5050505050505050565b600160009054906101000a900473ffffffffffffffffffffffffffffffffffffffff1681565b60018060048111156105fa576105f9612330565b5b600260159054906101000a900460ff16600481111561061c5761061b612330565b5b1461065c576040517f08c379a000000000000000000000000000000000000000000000000000000000815260040161065390611dcf565b60405180910390fd5b60008054906101000a900473ffffffffffffffffffffffffffffffffffffffff1673ffffffffffffffffffffffffffffffffffffffff163373ffffffffffffffffffffffffffffffffffffffff16146106ea576040517f08c379a00000000000000000000000000000000000000000000000000000000081526004016106e190611d8f565b60405180910390fd5b6001600260146101000a81548160ff0219169083151502179055506003600260156101000a81548160ff0219169083600481111561072b5761072a612330565b5b021790555050565b600a818154811061074357600080fd5b9060005260206000209060030201600091509050806000018054610766906121dd565b80601f0160208091040260200160405190810160405280929190818152602001828054610792906121dd565b80156107df5780601f106107b4576101008083540402835291602001916107df565b820191906000526020600020905b8154815290600101906020018083116107c257829003601f168201915b5050505050908060010154908060020154905083565b600380600481111561080a57610809612330565b5b600260159054906101000a900460ff16600481111561082c5761082b612330565b5b1461086c576040517f08c379a000000000000000000000000000000000000000000000000000000000815260040161086390611dcf565b60405180910390fd5b6007544311156108835761087e6110ba565b610953565b600654431015801561089757506007544311155b6108d6576040517f08c379a00000000000000000000000000000000000000000000000000000000081526004016108cd90611daf565b60405180910390fd5b60005b8251811015610939578281815181106108f5576108f461238e565b5b6020026020010151600d6000838152602001908152602001600020600082825461091f9190611eff565b92505081905550808061093190612289565b9150506108d9565b50600e600081548092919061094d90612240565b91905055505b5050565b60065481565b600960009054906101000a900460ff1681565b60075481565b60045481565b600047905090565b600280600481111561099957610998612330565b5b600260159054906101000a900460ff1660048111156109bb576109ba612330565b5b146109fb576040517f08c379a00000000000000000000000000000000000000000000000000000000081526004016109f290611dcf565b60405180910390fd5b6003600260156101000a81548160ff02191690836004811115610a2157610a20612330565b5b021790555050565b6002806004811115610a3e57610a3d612330565b5b600260159054906101000a900460ff166004811115610a6057610a5f612330565b5b14610aa0576040517f08c379a0000000000000000000000000000000000000000000000000000000008152600401610a9790611dcf565b60405180910390fd5b600160009054906101000a900473ffffffffffffffffffffffffffffffffffffffff1673ffffffffffffffffffffffffffffffffffffffff16ff5b6003806004811115610af057610aef612330565b5b600260159054906101000a900460ff166004811115610b1257610b11612330565b5b14610b52576040517f08c379a0000000000000000000000000000000000000000000000000000000008152600401610b4990611dcf565b60405180910390fd5b600754431115610b6957610b646110ba565b610bcb565b6006544310158015610b7d57506007544311155b610bbc576040517f08c379a0000000000000000000000000000000000000000000000000000000008152600401610bb390611daf565b60405180910390fd5b6005543414610bca57600080fd5b5b50565b60085481565b6000806004811115610be957610be8612330565b5b600260159054906101000a900460ff166004811115610c0b57610c0a612330565b5b14610c4b576040517f08c379a0000000000000000000000000000000000000000000000000000000008152600401610c4290611dcf565b60405180910390fd5b6001600260156101000a81548160ff02191690836004811115610c7157610c70612330565b5b021790555060005b600a80549050811015610cb2576000600d6000838152602001908152602001600020819055508080610caa90612289565b915050610c79565b5050565b600260149054906101000a900460ff1681565b60055481565b600260009054906101000a900473ffffffffffffffffffffffffffffffffffffffff1681565b600260159054906101000a900460ff1681565b6003806004811115610d1d57610d1c612330565b5b600260159054906101000a900460ff166004811115610d3f57610d3e612330565b5b14610d7f576040517f08c379a0000000000000000000000000000000000000000000000000000000008152600401610d7690611dcf565b60405180910390fd5b60028060156101000a81548160ff02191690836004811115610da457610da3612330565b5b021790555050565b60008054906101000a900473ffffffffffffffffffffffffffffffffffffffff1681565b6000806004811115610de557610de4612330565b5b600260159054906101000a900460ff166004811115610e0757610e06612330565b5b14610e47576040517f08c379a0000000000000000000000000000000000000000000000000000000008152600401610e3e90611dcf565b60405180910390fd5b60005b6008811015610fb2576040518060400160405280600481526020017f4e6f6e650000000000000000000000000000000000000000000000000000000081525080519060200120858260088110610ea357610ea261238e565b5b6020020151805190602001201415610ec357610ebd610bd4565b50610fb4565b600a6040518060600160405280878460088110610ee357610ee261238e565b5b60200201518152602001868460088110610f0057610eff61238e565b5b60200201518152602001600b868560088110610f1f57610f1e61238e565b5b6020020151604051610f319190611bf4565b90815260200160405180910390205481525090806001815401808255809150506001900390600052602060002090600302016000909190919091506000820151816000019080519060200190610f889291906114c4565b50602082015181600101556040820151816002015550508080610faa90612289565b915050610e4a565b505b50505050565b600080600c544284610fcc91906120de565b610fd69190612053565b90508043610fe49190611f93565b915050919050565b6001600b604051610ffc90611c74565b9081526020016040518091039020819055506002600b60405161101e90611c0b565b9081526020016040518091039020819055506003600b60405161104090611c4a565b9081526020016040518091039020819055506004600b60405161106290611c20565b9081526020016040518091039020819055506005600b60405161108490611c35565b9081526020016040518091039020819055506006600b6040516110a690611c5f565b908152602001604051809103902081905550565b60038060048111156110cf576110ce612330565b5b600260159054906101000a900460ff1660048111156110f1576110f0612330565b5b14611131576040517f08c379a000000000000000000000000000000000000000000000000000000000815260040161112890611dcf565b60405180910390fd5b60005b600a8054905081101561124d576000600a82815481106111575761115661238e565b5b90600052602060002090600302016002015490506000600a83815481106111815761118061238e565b5b90600052602060002090600302016001015490506000600e54600d6000868152602001908152602001600020546111b89190611fe9565b90506111c58382846112d2565b611237576111d161135c565b3373ffffffffffffffffffffffffffffffffffffffff167fa84226bf2d14bde3fac454f52eaeab63aaeb1934da88f9263dd4ff7dd12acf71600960009054906101000a900460ff166040516112269190611cda565b60405180910390a2505050506112cf565b505050808061124590612289565b915050611134565b506001600960006101000a81548160ff0219169083151502179055503373ffffffffffffffffffffffffffffffffffffffff167fa84226bf2d14bde3fac454f52eaeab63aaeb1934da88f9263dd4ff7dd12acf71600960009054906101000a900460ff166040516112be9190611d08565b60405180910390a26112ce6113d1565b5b50565b60007fffffffffffffffffffffffffffffffffffffffffffffffffffffffffffffffff84146113505760018085161415611317578183136113165760009050611355565b5b60028085161415611333578183146113325760009050611355565b5b6004808516141561134f5781831261134e5760009050611355565b5b5b600190505b9392505050565b600160009054906101000a900473ffffffffffffffffffffffffffffffffffffffff1673ffffffffffffffffffffffffffffffffffffffff166108fc6005549081150290604051600060405180830381858888f193505050501580156113c6573d6000803e3d6000fd5b506113cf611446565b565b600260009054906101000a900473ffffffffffffffffffffffffffffffffffffffff1673ffffffffffffffffffffffffffffffffffffffff166108fc6005549081150290604051600060405180830381858888f1935050505015801561143b573d6000803e3d6000fd5b50611444611446565b565b600454431015611497576000600960006101000a81548160ff021916908315150217905550600754600681905550611900601e6114839190612084565b6007546114909190611f93565b6007819055505b6004600260156101000a81548160ff021916908360048111156114bd576114bc612330565b5b0217905550565b8280546114d0906121dd565b90600052602060002090601f0160209004810192826114f25760008555611539565b82601f1061150b57805160ff1916838001178555611539565b82800160010185558215611539579182015b8281111561153857825182559160200191906001019061151d565b5b509050611546919061154a565b5090565b5b8082111561156357600081600090555060010161154b565b5090565b600061157a61157584611e2f565b611e0a565b90508082856020860282011115611594576115936123f1565b5b60005b858110156115c457816115aa888261179e565b845260208401935060208301925050600181019050611597565b5050509392505050565b60006115e16115dc84611e55565b611e0a565b90508083825260208201905082856020860282011115611604576116036123f1565b5b60005b85811015611634578161161a888261179e565b845260208401935060208301925050600181019050611607565b5050509392505050565b600061165161164c84611e81565b611e0a565b9050808285602086028201111561166b5761166a6123f1565b5b60005b858110156116b957813567ffffffffffffffff811115611691576116906123ec565b5b80860161169e89826117b3565b8552602085019450602084019350505060018101905061166e565b5050509392505050565b60006116d66116d184611ea7565b611e0a565b9050828152602081018484840111156116f2576116f16123f6565b5b6116fd84828561219b565b509392505050565b60008135905061171481612639565b92915050565b600082601f83011261172f5761172e6123ec565b5b600861173c848285611567565b91505092915050565b600082601f83011261175a576117596123ec565b5b813561176a8482602086016115ce565b91505092915050565b600082601f830112611788576117876123ec565b5b600861179584828561163e565b91505092915050565b6000813590506117ad81612650565b92915050565b600082601f8301126117c8576117c76123ec565b5b81356117d88482602086016116c3565b91505092915050565b6000813590506117f081612667565b92915050565b600080600080600080600080610100898b03121561181757611816612400565b5b60006118258b828c01611705565b98505060206118368b828c01611705565b97505060406118478b828c016117e1565b96505060606118588b828c016117e1565b95505060806118698b828c016117e1565b94505060a061187a8b828c016117e1565b93505060c061188b8b828c016117e1565b92505060e061189c8b828c016117e1565b9150509295985092959890939650565b6000602082840312156118c2576118c1612400565b5b600082013567ffffffffffffffff8111156118e0576118df6123fb565b5b6118ec84828501611745565b91505092915050565b6000806000610140848603121561190f5761190e612400565b5b600084013567ffffffffffffffff81111561192d5761192c6123fb565b5b61193986828701611773565b935050602061194a8682870161171a565b92505061012084013567ffffffffffffffff81111561196c5761196b6123fb565b5b61197886828701611773565b9150509250925092565b60006020828403121561199857611997612400565b5b60006119a6848285016117e1565b91505092915050565b6119b881612124565b82525050565b6119c781612112565b82525050565b6119d681612136565b82525050565b6119e581612189565b82525050565b6119f481612155565b82525050565b6000611a0582611ed8565b611a0f8185611ee3565b9350611a1f8185602086016121aa565b611a2881612405565b840191505092915050565b6000611a3e82611ed8565b611a488185611ef4565b9350611a588185602086016121aa565b80840191505092915050565b6000611a71603683611ee3565b9150611a7c82612416565b604082019050919050565b6000611a94601283611ee3565b9150611a9f82612465565b602082019050919050565b6000611ab7601083611ee3565b9150611ac28261248e565b602082019050919050565b6000611ada600283611ef4565b9150611ae5826124b7565b600282019050919050565b6000611afd600183611ef4565b9150611b08826124e0565b600182019050919050565b6000611b20600283611ef4565b9150611b2b82612509565b600282019050919050565b6000611b43600283611ef4565b9150611b4e82612532565b600282019050919050565b6000611b66600283611ef4565b9150611b718261255b565b600282019050919050565b6000611b89600183611ef4565b9150611b9482612584565b600182019050919050565b6000611bac601d83611ee3565b9150611bb7826125ad565b602082019050919050565b6000611bcf602583611ee3565b9150611bda826125d6565b604082019050919050565b611bee8161217f565b82525050565b6000611c008284611a33565b915081905092915050565b6000611c1682611acd565b9150819050919050565b6000611c2b82611af0565b9150819050919050565b6000611c4082611b13565b9150819050919050565b6000611c5582611b36565b9150819050919050565b6000611c6a82611b59565b9150819050919050565b6000611c7f82611b7c565b9150819050919050565b6000602082019050611c9e60008301846119be565b92915050565b6000602082019050611cb960008301846119af565b92915050565b6000602082019050611cd460008301846119cd565b92915050565b6000604082019050611cef60008301846119cd565b8181036020830152611d0081611a87565b905092915050565b6000604082019050611d1d60008301846119cd565b8181036020830152611d2e81611aaa565b905092915050565b6000602082019050611d4b60008301846119dc565b92915050565b60006060820190508181036000830152611d6b81866119fa565b9050611d7a60208301856119eb565b611d8760408301846119eb565b949350505050565b60006020820190508181036000830152611da881611a64565b9050919050565b60006020820190508181036000830152611dc881611b9f565b9050919050565b60006020820190508181036000830152611de881611bc2565b9050919050565b6000602082019050611e046000830184611be5565b92915050565b6000611e14611e25565b9050611e20828261220f565b919050565b6000604051905090565b600067ffffffffffffffff821115611e4a57611e496123bd565b5b602082029050919050565b600067ffffffffffffffff821115611e7057611e6f6123bd565b5b602082029050602081019050919050565b600067ffffffffffffffff821115611e9c57611e9b6123bd565b5b602082029050919050565b600067ffffffffffffffff821115611ec257611ec16123bd565b5b611ecb82612405565b9050602081019050919050565b600081519050919050565b600082825260208201905092915050565b600081905092915050565b6000611f0a82612155565b9150611f1583612155565b9250817f7fffffffffffffffffffffffffffffffffffffffffffffffffffffffffffffff03831360008312151615611f5057611f4f6122d2565b5b817f8000000000000000000000000000000000000000000000000000000000000000038312600083121615611f8857611f876122d2565b5b828201905092915050565b6000611f9e8261217f565b9150611fa98361217f565b9250827fffffffffffffffffffffffffffffffffffffffffffffffffffffffffffffffff03821115611fde57611fdd6122d2565b5b828201905092915050565b6000611ff482612155565b9150611fff83612155565b92508261200f5761200e612301565b5b600160000383147f800000000000000000000000000000000000000000000000000000000000000083141615612048576120476122d2565b5b828205905092915050565b600061205e8261217f565b91506120698361217f565b92508261207957612078612301565b5b828204905092915050565b600061208f8261217f565b915061209a8361217f565b9250817fffffffffffffffffffffffffffffffffffffffffffffffffffffffffffffffff04831182151516156120d3576120d26122d2565b5b828202905092915050565b60006120e98261217f565b91506120f48361217f565b925082821015612107576121066122d2565b5b828203905092915050565b600061211d8261215f565b9050919050565b600061212f8261215f565b9050919050565b60008115159050919050565b600081905061215082612625565b919050565b6000819050919050565b600073ffffffffffffffffffffffffffffffffffffffff82169050919050565b6000819050919050565b600061219482612142565b9050919050565b82818337600083830152505050565b60005b838110156121c85780820151818401526020810190506121ad565b838111156121d7576000848401525b50505050565b600060028204905060018216806121f557607f821691505b602082108114156122095761220861235f565b5b50919050565b61221882612405565b810181811067ffffffffffffffff82111715612237576122366123bd565b5b80604052505050565b600061224b82612155565b91507f7fffffffffffffffffffffffffffffffffffffffffffffffffffffffffffffff82141561227e5761227d6122d2565b5b600182019050919050565b60006122948261217f565b91507fffffffffffffffffffffffffffffffffffffffffffffffffffffffffffffffff8214156122c7576122c66122d2565b5b600182019050919050565b7f4e487b7100000000000000000000000000000000000000000000000000000000600052601160045260246000fd5b7f4e487b7100000000000000000000000000000000000000000000000000000000600052601260045260246000fd5b7f4e487b7100000000000000000000000000000000000000000000000000000000600052602160045260246000fd5b7f4e487b7100000000000000000000000000000000000000000000000000000000600052602260045260246000fd5b7f4e487b7100000000000000000000000000000000000000000000000000000000600052603260045260246000fd5b7f4e487b7100000000000000000000000000000000000000000000000000000000600052604160045260246000fd5b600080fd5b600080fd5b600080fd5b600080fd5b600080fd5b6000601f19601f8301169050919050565b7f43616e6e6f742063616c6c20746869732066756e6374696f6e2064697265637460008201527f6c792c207573652056656e646f72466163746f72792e00000000000000000000602082015250565b7f526566756e64696e67207061796d656e742e0000000000000000000000000000600082015250565b7f53656e64696e67207061796d656e742e00000000000000000000000000000000600082015250565b7f3d3d000000000000000000000000000000000000000000000000000000000000600082015250565b7f3c00000000000000000000000000000000000000000000000000000000000000600082015250565b7f213d000000000000000000000000000000000000000000000000000000000000600082015250565b7f3d3e000000000000000000000000000000000000000000000000000000000000600082015250565b7f3c3d000000000000000000000000000000000000000000000000000000000000600082015250565b7f3e00000000000000000000000000000000000000000000000000000000000000600082015250565b7f4e6f742077697468696e207468652062696c6c696e6720706572696f64000000600082015250565b7f436f6e7472616374206973206e6f7420696e207468652072657175697265642060008201527f7374617465000000000000000000000000000000000000000000000000000000602082015250565b6005811061263657612635612330565b5b50565b61264281612112565b811461264d57600080fd5b50565b61265981612155565b811461266457600080fd5b50565b6126708161217f565b811461267b57600080fd5b5056fea2646970667358221220b2f32b7485ed4da3bbbe12ca26cc9f7fdb49f78ff1e5b1e03c5cf7da88b464e164736f6c63430008060033",
      "opcodes": "PUSH1 0x80 PUSH1 0x40 MSTORE PUSH1 0x0 PUSH1 0x2 PUSH1 0x15 PUSH2 0x100 EXP DUP2 SLOAD DUP2 PUSH1 0xFF MUL NOT AND SWAP1 DUP4 PUSH1 0x4 DUP2 GT ISZERO PUSH3 0x2D JUMPI PUSH3 0x2C PUSH3 0x101 JUMP JUMPDEST JUMPDEST MUL OR SWAP1 SSTORE POP PUSH1 0x0 PUSH1 0x9 PUSH1 0x0 PUSH2 0x100 EXP DUP2 SLOAD DUP2 PUSH1 0xFF MUL NOT AND SWAP1 DUP4 ISZERO ISZERO MUL OR SWAP1 SSTORE POP PUSH1 0x3C DUP1 PUSH1 0x18 PUSH2 0x1900 PUSH3 0x61 SWAP2 SWAP1 PUSH3 0x90 JUMP JUMPDEST PUSH3 0x6D SWAP2 SWAP1 PUSH3 0x90 JUMP JUMPDEST PUSH3 0x79 SWAP2 SWAP1 PUSH3 0x90 JUMP JUMPDEST PUSH1 0xC SSTORE CALLVALUE DUP1 ISZERO PUSH3 0x89 JUMPI PUSH1 0x0 DUP1 REVERT JUMPDEST POP PUSH3 0x130 JUMP JUMPDEST PUSH1 0x0 PUSH3 0x9D DUP3 PUSH3 0xC8 JUMP JUMPDEST SWAP2 POP PUSH3 0xAA DUP4 PUSH3 0xC8 JUMP JUMPDEST SWAP3 POP DUP3 PUSH3 0xBD JUMPI PUSH3 0xBC PUSH3 0xD2 JUMP JUMPDEST JUMPDEST DUP3 DUP3 DIV SWAP1 POP SWAP3 SWAP2 POP POP JUMP JUMPDEST PUSH1 0x0 DUP2 SWAP1 POP SWAP2 SWAP1 POP JUMP JUMPDEST PUSH32 0x4E487B7100000000000000000000000000000000000000000000000000000000 PUSH1 0x0 MSTORE PUSH1 0x12 PUSH1 0x4 MSTORE PUSH1 0x24 PUSH1 0x0 REVERT JUMPDEST PUSH32 0x4E487B7100000000000000000000000000000000000000000000000000000000 PUSH1 0x0 MSTORE PUSH1 0x21 PUSH1 0x4 MSTORE PUSH1 0x24 PUSH1 0x0 REVERT JUMPDEST PUSH2 0x26B4 DUP1 PUSH3 0x140 PUSH1 0x0 CODECOPY PUSH1 0x0 RETURN INVALID PUSH1 0x80 PUSH1 0x40 MSTORE PUSH1 0x4 CALLDATASIZE LT PUSH2 0x140 JUMPI PUSH1 0x0 CALLDATALOAD PUSH1 0xE0 SHR DUP1 PUSH4 0x760A8C2A GT PUSH2 0xB6 JUMPI DUP1 PUSH4 0xAA8C217C GT PUSH2 0x6F JUMPI DUP1 PUSH4 0xAA8C217C EQ PUSH2 0x3BF JUMPI DUP1 PUSH4 0xAE90B213 EQ PUSH2 0x3EA JUMPI DUP1 PUSH4 0xC040E6B8 EQ PUSH2 0x415 JUMPI DUP1 PUSH4 0xF1B9EE24 EQ PUSH2 0x440 JUMPI DUP1 PUSH4 0xF851A440 EQ PUSH2 0x457 JUMPI DUP1 PUSH4 0xFADEAA59 EQ PUSH2 0x482 JUMPI PUSH2 0x140 JUMP JUMPDEST DUP1 PUSH4 0x760A8C2A EQ PUSH2 0x31A JUMPI DUP1 PUSH4 0x83197EF0 EQ PUSH2 0x331 JUMPI DUP1 PUSH4 0x84AC4446 EQ PUSH2 0x348 JUMPI DUP1 PUSH4 0x904C6094 EQ PUSH2 0x352 JUMPI DUP1 PUSH4 0x9503FE3D EQ PUSH2 0x37D JUMPI DUP1 PUSH4 0x97C0BBA1 EQ PUSH2 0x394 JUMPI PUSH2 0x140 JUMP JUMPDEST DUP1 PUSH4 0x21CE5AFD GT PUSH2 0x108 JUMPI DUP1 PUSH4 0x21CE5AFD EQ PUSH2 0x21A JUMPI DUP1 PUSH4 0x25419C24 EQ PUSH2 0x243 JUMPI DUP1 PUSH4 0x3A40F3B2 EQ PUSH2 0x26E JUMPI DUP1 PUSH4 0x43885314 EQ PUSH2 0x299 JUMPI DUP1 PUSH4 0x516DDE43 EQ PUSH2 0x2C4 JUMPI DUP1 PUSH4 0x722713F7 EQ PUSH2 0x2EF JUMPI PUSH2 0x140 JUMP JUMPDEST DUP1 PUSH4 0x5B34410 EQ PUSH2 0x145 JUMPI DUP1 PUSH4 0xD4B8CB9 EQ PUSH2 0x170 JUMPI DUP1 PUSH4 0x109E94CF EQ PUSH2 0x199 JUMPI DUP1 PUSH4 0x12424E3F EQ PUSH2 0x1C4 JUMPI DUP1 PUSH4 0x182541D2 EQ PUSH2 0x1DB JUMPI JUMPDEST PUSH1 0x0 DUP1 REVERT JUMPDEST CALLVALUE DUP1 ISZERO PUSH2 0x151 JUMPI PUSH1 0x0 DUP1 REVERT JUMPDEST POP PUSH2 0x15A PUSH2 0x4AB JUMP JUMPDEST PUSH1 0x40 MLOAD PUSH2 0x167 SWAP2 SWAP1 PUSH2 0x1DEF JUMP JUMPDEST PUSH1 0x40 MLOAD DUP1 SWAP2 SUB SWAP1 RETURN JUMPDEST CALLVALUE DUP1 ISZERO PUSH2 0x17C JUMPI PUSH1 0x0 DUP1 REVERT JUMPDEST POP PUSH2 0x197 PUSH1 0x4 DUP1 CALLDATASIZE SUB DUP2 ADD SWAP1 PUSH2 0x192 SWAP2 SWAP1 PUSH2 0x17F6 JUMP JUMPDEST PUSH2 0x4B1 JUMP JUMPDEST STOP JUMPDEST CALLVALUE DUP1 ISZERO PUSH2 0x1A5 JUMPI PUSH1 0x0 DUP1 REVERT JUMPDEST POP PUSH2 0x1AE PUSH2 0x5BF JUMP JUMPDEST PUSH1 0x40 MLOAD PUSH2 0x1BB SWAP2 SWAP1 PUSH2 0x1CA4 JUMP JUMPDEST PUSH1 0x40 MLOAD DUP1 SWAP2 SUB SWAP1 RETURN JUMPDEST CALLVALUE DUP1 ISZERO PUSH2 0x1D0 JUMPI PUSH1 0x0 DUP1 REVERT JUMPDEST POP PUSH2 0x1D9 PUSH2 0x5E5 JUMP JUMPDEST STOP JUMPDEST CALLVALUE DUP1 ISZERO PUSH2 0x1E7 JUMPI PUSH1 0x0 DUP1 REVERT JUMPDEST POP PUSH2 0x202 PUSH1 0x4 DUP1 CALLDATASIZE SUB DUP2 ADD SWAP1 PUSH2 0x1FD SWAP2 SWAP1 PUSH2 0x1982 JUMP JUMPDEST PUSH2 0x733 JUMP JUMPDEST PUSH1 0x40 MLOAD PUSH2 0x211 SWAP4 SWAP3 SWAP2 SWAP1 PUSH2 0x1D51 JUMP JUMPDEST PUSH1 0x40 MLOAD DUP1 SWAP2 SUB SWAP1 RETURN JUMPDEST CALLVALUE DUP1 ISZERO PUSH2 0x226 JUMPI PUSH1 0x0 DUP1 REVERT JUMPDEST POP PUSH2 0x241 PUSH1 0x4 DUP1 CALLDATASIZE SUB DUP2 ADD SWAP1 PUSH2 0x23C SWAP2 SWAP1 PUSH2 0x18AC JUMP JUMPDEST PUSH2 0x7F5 JUMP JUMPDEST STOP JUMPDEST CALLVALUE DUP1 ISZERO PUSH2 0x24F JUMPI PUSH1 0x0 DUP1 REVERT JUMPDEST POP PUSH2 0x258 PUSH2 0x957 JUMP JUMPDEST PUSH1 0x40 MLOAD PUSH2 0x265 SWAP2 SWAP1 PUSH2 0x1DEF JUMP JUMPDEST PUSH1 0x40 MLOAD DUP1 SWAP2 SUB SWAP1 RETURN JUMPDEST CALLVALUE DUP1 ISZERO PUSH2 0x27A JUMPI PUSH1 0x0 DUP1 REVERT JUMPDEST POP PUSH2 0x283 PUSH2 0x95D JUMP JUMPDEST PUSH1 0x40 MLOAD PUSH2 0x290 SWAP2 SWAP1 PUSH2 0x1CBF JUMP JUMPDEST PUSH1 0x40 MLOAD DUP1 SWAP2 SUB SWAP1 RETURN JUMPDEST CALLVALUE DUP1 ISZERO PUSH2 0x2A5 JUMPI PUSH1 0x0 DUP1 REVERT JUMPDEST POP PUSH2 0x2AE PUSH2 0x970 JUMP JUMPDEST PUSH1 0x40 MLOAD PUSH2 0x2BB SWAP2 SWAP1 PUSH2 0x1DEF JUMP JUMPDEST PUSH1 0x40 MLOAD DUP1 SWAP2 SUB SWAP1 RETURN JUMPDEST CALLVALUE DUP1 ISZERO PUSH2 0x2D0 JUMPI PUSH1 0x0 DUP1 REVERT JUMPDEST POP PUSH2 0x2D9 PUSH2 0x976 JUMP JUMPDEST PUSH1 0x40 MLOAD PUSH2 0x2E6 SWAP2 SWAP1 PUSH2 0x1DEF JUMP JUMPDEST PUSH1 0x40 MLOAD DUP1 SWAP2 SUB SWAP1 RETURN JUMPDEST CALLVALUE DUP1 ISZERO PUSH2 0x2FB JUMPI PUSH1 0x0 DUP1 REVERT JUMPDEST POP PUSH2 0x304 PUSH2 0x97C JUMP JUMPDEST PUSH1 0x40 MLOAD PUSH2 0x311 SWAP2 SWAP1 PUSH2 0x1DEF JUMP JUMPDEST PUSH1 0x40 MLOAD DUP1 SWAP2 SUB SWAP1 RETURN JUMPDEST CALLVALUE DUP1 ISZERO PUSH2 0x326 JUMPI PUSH1 0x0 DUP1 REVERT JUMPDEST POP PUSH2 0x32F PUSH2 0x984 JUMP JUMPDEST STOP JUMPDEST CALLVALUE DUP1 ISZERO PUSH2 0x33D JUMPI PUSH1 0x0 DUP1 REVERT JUMPDEST POP PUSH2 0x346 PUSH2 0xA29 JUMP JUMPDEST STOP JUMPDEST PUSH2 0x350 PUSH2 0xADB JUMP JUMPDEST STOP JUMPDEST CALLVALUE DUP1 ISZERO PUSH2 0x35E JUMPI PUSH1 0x0 DUP1 REVERT JUMPDEST POP PUSH2 0x367 PUSH2 0xBCE JUMP JUMPDEST PUSH1 0x40 MLOAD PUSH2 0x374 SWAP2 SWAP1 PUSH2 0x1DEF JUMP JUMPDEST PUSH1 0x40 MLOAD DUP1 SWAP2 SUB SWAP1 RETURN JUMPDEST CALLVALUE DUP1 ISZERO PUSH2 0x389 JUMPI PUSH1 0x0 DUP1 REVERT JUMPDEST POP PUSH2 0x392 PUSH2 0xBD4 JUMP JUMPDEST STOP JUMPDEST CALLVALUE DUP1 ISZERO PUSH2 0x3A0 JUMPI PUSH1 0x0 DUP1 REVERT JUMPDEST POP PUSH2 0x3A9 PUSH2 0xCB6 JUMP JUMPDEST PUSH1 0x40 MLOAD PUSH2 0x3B6 SWAP2 SWAP1 PUSH2 0x1CBF JUMP JUMPDEST PUSH1 0x40 MLOAD DUP1 SWAP2 SUB SWAP1 RETURN JUMPDEST CALLVALUE DUP1 ISZERO PUSH2 0x3CB JUMPI PUSH1 0x0 DUP1 REVERT JUMPDEST POP PUSH2 0x3D4 PUSH2 0xCC9 JUMP JUMPDEST PUSH1 0x40 MLOAD PUSH2 0x3E1 SWAP2 SWAP1 PUSH2 0x1DEF JUMP JUMPDEST PUSH1 0x40 MLOAD DUP1 SWAP2 SUB SWAP1 RETURN JUMPDEST CALLVALUE DUP1 ISZERO PUSH2 0x3F6 JUMPI PUSH1 0x0 DUP1 REVERT JUMPDEST POP PUSH2 0x3FF PUSH2 0xCCF JUMP JUMPDEST PUSH1 0x40 MLOAD PUSH2 0x40C SWAP2 SWAP1 PUSH2 0x1CA4 JUMP JUMPDEST PUSH1 0x40 MLOAD DUP1 SWAP2 SUB SWAP1 RETURN JUMPDEST CALLVALUE DUP1 ISZERO PUSH2 0x421 JUMPI PUSH1 0x0 DUP1 REVERT JUMPDEST POP PUSH2 0x42A PUSH2 0xCF5 JUMP JUMPDEST PUSH1 0x40 MLOAD PUSH2 0x437 SWAP2 SWAP1 PUSH2 0x1D36 JUMP JUMPDEST PUSH1 0x40 MLOAD DUP1 SWAP2 SUB SWAP1 RETURN JUMPDEST CALLVALUE DUP1 ISZERO PUSH2 0x44C JUMPI PUSH1 0x0 DUP1 REVERT JUMPDEST POP PUSH2 0x455 PUSH2 0xD08 JUMP JUMPDEST STOP JUMPDEST CALLVALUE DUP1 ISZERO PUSH2 0x463 JUMPI PUSH1 0x0 DUP1 REVERT JUMPDEST POP PUSH2 0x46C PUSH2 0xDAC JUMP JUMPDEST PUSH1 0x40 MLOAD PUSH2 0x479 SWAP2 SWAP1 PUSH2 0x1C89 JUMP JUMPDEST PUSH1 0x40 MLOAD DUP1 SWAP2 SUB SWAP1 RETURN JUMPDEST CALLVALUE DUP1 ISZERO PUSH2 0x48E JUMPI PUSH1 0x0 DUP1 REVERT JUMPDEST POP PUSH2 0x4A9 PUSH1 0x4 DUP1 CALLDATASIZE SUB DUP2 ADD SWAP1 PUSH2 0x4A4 SWAP2 SWAP1 PUSH2 0x18F5 JUMP JUMPDEST PUSH2 0xDD0 JUMP JUMPDEST STOP JUMPDEST PUSH1 0x3 SLOAD DUP2 JUMP JUMPDEST CALLER PUSH1 0x0 DUP1 PUSH2 0x100 EXP DUP2 SLOAD DUP2 PUSH20 0xFFFFFFFFFFFFFFFFFFFFFFFFFFFFFFFFFFFFFFFF MUL NOT AND SWAP1 DUP4 PUSH20 0xFFFFFFFFFFFFFFFFFFFFFFFFFFFFFFFFFFFFFFFF AND MUL OR SWAP1 SSTORE POP DUP8 PUSH1 0x1 PUSH1 0x0 PUSH2 0x100 EXP DUP2 SLOAD DUP2 PUSH20 0xFFFFFFFFFFFFFFFFFFFFFFFFFFFFFFFFFFFFFFFF MUL NOT AND SWAP1 DUP4 PUSH20 0xFFFFFFFFFFFFFFFFFFFFFFFFFFFFFFFFFFFFFFFF AND MUL OR SWAP1 SSTORE POP DUP7 PUSH1 0x2 PUSH1 0x0 PUSH2 0x100 EXP DUP2 SLOAD DUP2 PUSH20 0xFFFFFFFFFFFFFFFFFFFFFFFFFFFFFFFFFFFFFFFF MUL NOT AND SWAP1 DUP4 PUSH20 0xFFFFFFFFFFFFFFFFFFFFFFFFFFFFFFFFFFFFFFFF AND MUL OR SWAP1 SSTORE POP DUP6 PUSH1 0x3 DUP2 SWAP1 SSTORE POP DUP5 PUSH1 0x4 DUP2 SWAP1 SSTORE POP PUSH2 0x58A DUP5 PUSH2 0xFBA JUMP JUMPDEST PUSH1 0x6 DUP2 SWAP1 SSTORE POP PUSH2 0x599 DUP4 PUSH2 0xFBA JUMP JUMPDEST PUSH1 0x7 DUP2 SWAP1 SSTORE POP DUP2 PUSH1 0x8 DUP2 SWAP1 SSTORE POP DUP1 PUSH1 0x5 DUP2 SWAP1 SSTORE POP PUSH2 0x5B5 PUSH2 0xFEC JUMP JUMPDEST POP POP POP POP POP POP POP POP JUMP JUMPDEST PUSH1 0x1 PUSH1 0x0 SWAP1 SLOAD SWAP1 PUSH2 0x100 EXP SWAP1 DIV PUSH20 0xFFFFFFFFFFFFFFFFFFFFFFFFFFFFFFFFFFFFFFFF AND DUP2 JUMP JUMPDEST PUSH1 0x1 DUP1 PUSH1 0x4 DUP2 GT ISZERO PUSH2 0x5FA JUMPI PUSH2 0x5F9 PUSH2 0x2330 JUMP JUMPDEST JUMPDEST PUSH1 0x2 PUSH1 0x15 SWAP1 SLOAD SWAP1 PUSH2 0x100 EXP SWAP1 DIV PUSH1 0xFF AND PUSH1 0x4 DUP2 GT ISZERO PUSH2 0x61C JUMPI PUSH2 0x61B PUSH2 0x2330 JUMP JUMPDEST JUMPDEST EQ PUSH2 0x65C JUMPI PUSH1 0x40 MLOAD PUSH32 0x8C379A000000000000000000000000000000000000000000000000000000000 DUP2 MSTORE PUSH1 0x4 ADD PUSH2 0x653 SWAP1 PUSH2 0x1DCF JUMP JUMPDEST PUSH1 0x40 MLOAD DUP1 SWAP2 SUB SWAP1 REVERT JUMPDEST PUSH1 0x0 DUP1 SLOAD SWAP1 PUSH2 0x100 EXP SWAP1 DIV PUSH20 0xFFFFFFFFFFFFFFFFFFFFFFFFFFFFFFFFFFFFFFFF AND PUSH20 0xFFFFFFFFFFFFFFFFFFFFFFFFFFFFFFFFFFFFFFFF AND CALLER PUSH20 0xFFFFFFFFFFFFFFFFFFFFFFFFFFFFFFFFFFFFFFFF AND EQ PUSH2 0x6EA JUMPI PUSH1 0x40 MLOAD PUSH32 0x8C379A000000000000000000000000000000000000000000000000000000000 DUP2 MSTORE PUSH1 0x4 ADD PUSH2 0x6E1 SWAP1 PUSH2 0x1D8F JUMP JUMPDEST PUSH1 0x40 MLOAD DUP1 SWAP2 SUB SWAP1 REVERT JUMPDEST PUSH1 0x1 PUSH1 0x2 PUSH1 0x14 PUSH2 0x100 EXP DUP2 SLOAD DUP2 PUSH1 0xFF MUL NOT AND SWAP1 DUP4 ISZERO ISZERO MUL OR SWAP1 SSTORE POP PUSH1 0x3 PUSH1 0x2 PUSH1 0x15 PUSH2 0x100 EXP DUP2 SLOAD DUP2 PUSH1 0xFF MUL NOT AND SWAP1 DUP4 PUSH1 0x4 DUP2 GT ISZERO PUSH2 0x72B JUMPI PUSH2 0x72A PUSH2 0x2330 JUMP JUMPDEST JUMPDEST MUL OR SWAP1 SSTORE POP POP JUMP JUMPDEST PUSH1 0xA DUP2 DUP2 SLOAD DUP2 LT PUSH2 0x743 JUMPI PUSH1 0x0 DUP1 REVERT JUMPDEST SWAP1 PUSH1 0x0 MSTORE PUSH1 0x20 PUSH1 0x0 KECCAK256 SWAP1 PUSH1 0x3 MUL ADD PUSH1 0x0 SWAP2 POP SWAP1 POP DUP1 PUSH1 0x0 ADD DUP1 SLOAD PUSH2 0x766 SWAP1 PUSH2 0x21DD JUMP JUMPDEST DUP1 PUSH1 0x1F ADD PUSH1 0x20 DUP1 SWAP2 DIV MUL PUSH1 0x20 ADD PUSH1 0x40 MLOAD SWAP1 DUP2 ADD PUSH1 0x40 MSTORE DUP1 SWAP3 SWAP2 SWAP1 DUP2 DUP2 MSTORE PUSH1 0x20 ADD DUP3 DUP1 SLOAD PUSH2 0x792 SWAP1 PUSH2 0x21DD JUMP JUMPDEST DUP1 ISZERO PUSH2 0x7DF JUMPI DUP1 PUSH1 0x1F LT PUSH2 0x7B4 JUMPI PUSH2 0x100 DUP1 DUP4 SLOAD DIV MUL DUP4 MSTORE SWAP2 PUSH1 0x20 ADD SWAP2 PUSH2 0x7DF JUMP JUMPDEST DUP3 ADD SWAP2 SWAP1 PUSH1 0x0 MSTORE PUSH1 0x20 PUSH1 0x0 KECCAK256 SWAP1 JUMPDEST DUP2 SLOAD DUP2 MSTORE SWAP1 PUSH1 0x1 ADD SWAP1 PUSH1 0x20 ADD DUP1 DUP4 GT PUSH2 0x7C2 JUMPI DUP3 SWAP1 SUB PUSH1 0x1F AND DUP3 ADD SWAP2 JUMPDEST POP POP POP POP POP SWAP1 DUP1 PUSH1 0x1 ADD SLOAD SWAP1 DUP1 PUSH1 0x2 ADD SLOAD SWAP1 POP DUP4 JUMP JUMPDEST PUSH1 0x3 DUP1 PUSH1 0x4 DUP2 GT ISZERO PUSH2 0x80A JUMPI PUSH2 0x809 PUSH2 0x2330 JUMP JUMPDEST JUMPDEST PUSH1 0x2 PUSH1 0x15 SWAP1 SLOAD SWAP1 PUSH2 0x100 EXP SWAP1 DIV PUSH1 0xFF AND PUSH1 0x4 DUP2 GT ISZERO PUSH2 0x82C JUMPI PUSH2 0x82B PUSH2 0x2330 JUMP JUMPDEST JUMPDEST EQ PUSH2 0x86C JUMPI PUSH1 0x40 MLOAD PUSH32 0x8C379A000000000000000000000000000000000000000000000000000000000 DUP2 MSTORE PUSH1 0x4 ADD PUSH2 0x863 SWAP1 PUSH2 0x1DCF JUMP JUMPDEST PUSH1 0x40 MLOAD DUP1 SWAP2 SUB SWAP1 REVERT JUMPDEST PUSH1 0x7 SLOAD NUMBER GT ISZERO PUSH2 0x883 JUMPI PUSH2 0x87E PUSH2 0x10BA JUMP JUMPDEST PUSH2 0x953 JUMP JUMPDEST PUSH1 0x6 SLOAD NUMBER LT ISZERO DUP1 ISZERO PUSH2 0x897 JUMPI POP PUSH1 0x7 SLOAD NUMBER GT ISZERO JUMPDEST PUSH2 0x8D6 JUMPI PUSH1 0x40 MLOAD PUSH32 0x8C379A000000000000000000000000000000000000000000000000000000000 DUP2 MSTORE PUSH1 0x4 ADD PUSH2 0x8CD SWAP1 PUSH2 0x1DAF JUMP JUMPDEST PUSH1 0x40 MLOAD DUP1 SWAP2 SUB SWAP1 REVERT JUMPDEST PUSH1 0x0 JUMPDEST DUP3 MLOAD DUP2 LT ISZERO PUSH2 0x939 JUMPI DUP3 DUP2 DUP2 MLOAD DUP2 LT PUSH2 0x8F5 JUMPI PUSH2 0x8F4 PUSH2 0x238E JUMP JUMPDEST JUMPDEST PUSH1 0x20 MUL PUSH1 0x20 ADD ADD MLOAD PUSH1 0xD PUSH1 0x0 DUP4 DUP2 MSTORE PUSH1 0x20 ADD SWAP1 DUP2 MSTORE PUSH1 0x20 ADD PUSH1 0x0 KECCAK256 PUSH1 0x0 DUP3 DUP3 SLOAD PUSH2 0x91F SWAP2 SWAP1 PUSH2 0x1EFF JUMP JUMPDEST SWAP3 POP POP DUP2 SWAP1 SSTORE POP DUP1 DUP1 PUSH2 0x931 SWAP1 PUSH2 0x2289 JUMP JUMPDEST SWAP2 POP POP PUSH2 0x8D9 JUMP JUMPDEST POP PUSH1 0xE PUSH1 0x0 DUP2 SLOAD DUP1 SWAP3 SWAP2 SWAP1 PUSH2 0x94D SWAP1 PUSH2 0x2240 JUMP JUMPDEST SWAP2 SWAP1 POP SSTORE POP JUMPDEST POP POP JUMP JUMPDEST PUSH1 0x6 SLOAD DUP2 JUMP JUMPDEST PUSH1 0x9 PUSH1 0x0 SWAP1 SLOAD SWAP1 PUSH2 0x100 EXP SWAP1 DIV PUSH1 0xFF AND DUP2 JUMP JUMPDEST PUSH1 0x7 SLOAD DUP2 JUMP JUMPDEST PUSH1 0x4 SLOAD DUP2 JUMP JUMPDEST PUSH1 0x0 SELFBALANCE SWAP1 POP SWAP1 JUMP JUMPDEST PUSH1 0x2 DUP1 PUSH1 0x4 DUP2 GT ISZERO PUSH2 0x999 JUMPI PUSH2 0x998 PUSH2 0x2330 JUMP JUMPDEST JUMPDEST PUSH1 0x2 PUSH1 0x15 SWAP1 SLOAD SWAP1 PUSH2 0x100 EXP SWAP1 DIV PUSH1 0xFF AND PUSH1 0x4 DUP2 GT ISZERO PUSH2 0x9BB JUMPI PUSH2 0x9BA PUSH2 0x2330 JUMP JUMPDEST JUMPDEST EQ PUSH2 0x9FB JUMPI PUSH1 0x40 MLOAD PUSH32 0x8C379A000000000000000000000000000000000000000000000000000000000 DUP2 MSTORE PUSH1 0x4 ADD PUSH2 0x9F2 SWAP1 PUSH2 0x1DCF JUMP JUMPDEST PUSH1 0x40 MLOAD DUP1 SWAP2 SUB SWAP1 REVERT JUMPDEST PUSH1 0x3 PUSH1 0x2 PUSH1 0x15 PUSH2 0x100 EXP DUP2 SLOAD DUP2 PUSH1 0xFF MUL NOT AND SWAP1 DUP4 PUSH1 0x4 DUP2 GT ISZERO PUSH2 0xA21 JUMPI PUSH2 0xA20 PUSH2 0x2330 JUMP JUMPDEST JUMPDEST MUL OR SWAP1 SSTORE POP POP JUMP JUMPDEST PUSH1 0x2 DUP1 PUSH1 0x4 DUP2 GT ISZERO PUSH2 0xA3E JUMPI PUSH2 0xA3D PUSH2 0x2330 JUMP JUMPDEST JUMPDEST PUSH1 0x2 PUSH1 0x15 SWAP1 SLOAD SWAP1 PUSH2 0x100 EXP SWAP1 DIV PUSH1 0xFF AND PUSH1 0x4 DUP2 GT ISZERO PUSH2 0xA60 JUMPI PUSH2 0xA5F PUSH2 0x2330 JUMP JUMPDEST JUMPDEST EQ PUSH2 0xAA0 JUMPI PUSH1 0x40 MLOAD PUSH32 0x8C379A000000000000000000000000000000000000000000000000000000000 DUP2 MSTORE PUSH1 0x4 ADD PUSH2 0xA97 SWAP1 PUSH2 0x1DCF JUMP JUMPDEST PUSH1 0x40 MLOAD DUP1 SWAP2 SUB SWAP1 REVERT JUMPDEST PUSH1 0x1 PUSH1 0x0 SWAP1 SLOAD SWAP1 PUSH2 0x100 EXP SWAP1 DIV PUSH20 0xFFFFFFFFFFFFFFFFFFFFFFFFFFFFFFFFFFFFFFFF AND PUSH20 0xFFFFFFFFFFFFFFFFFFFFFFFFFFFFFFFFFFFFFFFF AND SELFDESTRUCT JUMPDEST PUSH1 0x3 DUP1 PUSH1 0x4 DUP2 GT ISZERO PUSH2 0xAF0 JUMPI PUSH2 0xAEF PUSH2 0x2330 JUMP JUMPDEST JUMPDEST PUSH1 0x2 PUSH1 0x15 SWAP1 SLOAD SWAP1 PUSH2 0x100 EXP SWAP1 DIV PUSH1 0xFF AND PUSH1 0x4 DUP2 GT ISZERO PUSH2 0xB12 JUMPI PUSH2 0xB11 PUSH2 0x2330 JUMP JUMPDEST JUMPDEST EQ PUSH2 0xB52 JUMPI PUSH1 0x40 MLOAD PUSH32 0x8C379A000000000000000000000000000000000000000000000000000000000 DUP2 MSTORE PUSH1 0x4 ADD PUSH2 0xB49 SWAP1 PUSH2 0x1DCF JUMP JUMPDEST PUSH1 0x40 MLOAD DUP1 SWAP2 SUB SWAP1 REVERT JUMPDEST PUSH1 0x7 SLOAD NUMBER GT ISZERO PUSH2 0xB69 JUMPI PUSH2 0xB64 PUSH2 0x10BA JUMP JUMPDEST PUSH2 0xBCB JUMP JUMPDEST PUSH1 0x6 SLOAD NUMBER LT ISZERO DUP1 ISZERO PUSH2 0xB7D JUMPI POP PUSH1 0x7 SLOAD NUMBER GT ISZERO JUMPDEST PUSH2 0xBBC JUMPI PUSH1 0x40 MLOAD PUSH32 0x8C379A000000000000000000000000000000000000000000000000000000000 DUP2 MSTORE PUSH1 0x4 ADD PUSH2 0xBB3 SWAP1 PUSH2 0x1DAF JUMP JUMPDEST PUSH1 0x40 MLOAD DUP1 SWAP2 SUB SWAP1 REVERT JUMPDEST PUSH1 0x5 SLOAD CALLVALUE EQ PUSH2 0xBCA JUMPI PUSH1 0x0 DUP1 REVERT JUMPDEST JUMPDEST POP JUMP JUMPDEST PUSH1 0x8 SLOAD DUP2 JUMP JUMPDEST PUSH1 0x0 DUP1 PUSH1 0x4 DUP2 GT ISZERO PUSH2 0xBE9 JUMPI PUSH2 0xBE8 PUSH2 0x2330 JUMP JUMPDEST JUMPDEST PUSH1 0x2 PUSH1 0x15 SWAP1 SLOAD SWAP1 PUSH2 0x100 EXP SWAP1 DIV PUSH1 0xFF AND PUSH1 0x4 DUP2 GT ISZERO PUSH2 0xC0B JUMPI PUSH2 0xC0A PUSH2 0x2330 JUMP JUMPDEST JUMPDEST EQ PUSH2 0xC4B JUMPI PUSH1 0x40 MLOAD PUSH32 0x8C379A000000000000000000000000000000000000000000000000000000000 DUP2 MSTORE PUSH1 0x4 ADD PUSH2 0xC42 SWAP1 PUSH2 0x1DCF JUMP JUMPDEST PUSH1 0x40 MLOAD DUP1 SWAP2 SUB SWAP1 REVERT JUMPDEST PUSH1 0x1 PUSH1 0x2 PUSH1 0x15 PUSH2 0x100 EXP DUP2 SLOAD DUP2 PUSH1 0xFF MUL NOT AND SWAP1 DUP4 PUSH1 0x4 DUP2 GT ISZERO PUSH2 0xC71 JUMPI PUSH2 0xC70 PUSH2 0x2330 JUMP JUMPDEST JUMPDEST MUL OR SWAP1 SSTORE POP PUSH1 0x0 JUMPDEST PUSH1 0xA DUP1 SLOAD SWAP1 POP DUP2 LT ISZERO PUSH2 0xCB2 JUMPI PUSH1 0x0 PUSH1 0xD PUSH1 0x0 DUP4 DUP2 MSTORE PUSH1 0x20 ADD SWAP1 DUP2 MSTORE PUSH1 0x20 ADD PUSH1 0x0 KECCAK256 DUP2 SWAP1 SSTORE POP DUP1 DUP1 PUSH2 0xCAA SWAP1 PUSH2 0x2289 JUMP JUMPDEST SWAP2 POP POP PUSH2 0xC79 JUMP JUMPDEST POP POP JUMP JUMPDEST PUSH1 0x2 PUSH1 0x14 SWAP1 SLOAD SWAP1 PUSH2 0x100 EXP SWAP1 DIV PUSH1 0xFF AND DUP2 JUMP JUMPDEST PUSH1 0x5 SLOAD DUP2 JUMP JUMPDEST PUSH1 0x2 PUSH1 0x0 SWAP1 SLOAD SWAP1 PUSH2 0x100 EXP SWAP1 DIV PUSH20 0xFFFFFFFFFFFFFFFFFFFFFFFFFFFFFFFFFFFFFFFF AND DUP2 JUMP JUMPDEST PUSH1 0x2 PUSH1 0x15 SWAP1 SLOAD SWAP1 PUSH2 0x100 EXP SWAP1 DIV PUSH1 0xFF AND DUP2 JUMP JUMPDEST PUSH1 0x3 DUP1 PUSH1 0x4 DUP2 GT ISZERO PUSH2 0xD1D JUMPI PUSH2 0xD1C PUSH2 0x2330 JUMP JUMPDEST JUMPDEST PUSH1 0x2 PUSH1 0x15 SWAP1 SLOAD SWAP1 PUSH2 0x100 EXP SWAP1 DIV PUSH1 0xFF AND PUSH1 0x4 DUP2 GT ISZERO PUSH2 0xD3F JUMPI PUSH2 0xD3E PUSH2 0x2330 JUMP JUMPDEST JUMPDEST EQ PUSH2 0xD7F JUMPI PUSH1 0x40 MLOAD PUSH32 0x8C379A000000000000000000000000000000000000000000000000000000000 DUP2 MSTORE PUSH1 0x4 ADD PUSH2 0xD76 SWAP1 PUSH2 0x1DCF JUMP JUMPDEST PUSH1 0x40 MLOAD DUP1 SWAP2 SUB SWAP1 REVERT JUMPDEST PUSH1 0x2 DUP1 PUSH1 0x15 PUSH2 0x100 EXP DUP2 SLOAD DUP2 PUSH1 0xFF MUL NOT AND SWAP1 DUP4 PUSH1 0x4 DUP2 GT ISZERO PUSH2 0xDA4 JUMPI PUSH2 0xDA3 PUSH2 0x2330 JUMP JUMPDEST JUMPDEST MUL OR SWAP1 SSTORE POP POP JUMP JUMPDEST PUSH1 0x0 DUP1 SLOAD SWAP1 PUSH2 0x100 EXP SWAP1 DIV PUSH20 0xFFFFFFFFFFFFFFFFFFFFFFFFFFFFFFFFFFFFFFFF AND DUP2 JUMP JUMPDEST PUSH1 0x0 DUP1 PUSH1 0x4 DUP2 GT ISZERO PUSH2 0xDE5 JUMPI PUSH2 0xDE4 PUSH2 0x2330 JUMP JUMPDEST JUMPDEST PUSH1 0x2 PUSH1 0x15 SWAP1 SLOAD SWAP1 PUSH2 0x100 EXP SWAP1 DIV PUSH1 0xFF AND PUSH1 0x4 DUP2 GT ISZERO PUSH2 0xE07 JUMPI PUSH2 0xE06 PUSH2 0x2330 JUMP JUMPDEST JUMPDEST EQ PUSH2 0xE47 JUMPI PUSH1 0x40 MLOAD PUSH32 0x8C379A000000000000000000000000000000000000000000000000000000000 DUP2 MSTORE PUSH1 0x4 ADD PUSH2 0xE3E SWAP1 PUSH2 0x1DCF JUMP JUMPDEST PUSH1 0x40 MLOAD DUP1 SWAP2 SUB SWAP1 REVERT JUMPDEST PUSH1 0x0 JUMPDEST PUSH1 0x8 DUP2 LT ISZERO PUSH2 0xFB2 JUMPI PUSH1 0x40 MLOAD DUP1 PUSH1 0x40 ADD PUSH1 0x40 MSTORE DUP1 PUSH1 0x4 DUP2 MSTORE PUSH1 0x20 ADD PUSH32 0x4E6F6E6500000000000000000000000000000000000000000000000000000000 DUP2 MSTORE POP DUP1 MLOAD SWAP1 PUSH1 0x20 ADD KECCAK256 DUP6 DUP3 PUSH1 0x8 DUP2 LT PUSH2 0xEA3 JUMPI PUSH2 0xEA2 PUSH2 0x238E JUMP JUMPDEST JUMPDEST PUSH1 0x20 MUL ADD MLOAD DUP1 MLOAD SWAP1 PUSH1 0x20 ADD KECCAK256 EQ ISZERO PUSH2 0xEC3 JUMPI PUSH2 0xEBD PUSH2 0xBD4 JUMP JUMPDEST POP PUSH2 0xFB4 JUMP JUMPDEST PUSH1 0xA PUSH1 0x40 MLOAD DUP1 PUSH1 0x60 ADD PUSH1 0x40 MSTORE DUP1 DUP8 DUP5 PUSH1 0x8 DUP2 LT PUSH2 0xEE3 JUMPI PUSH2 0xEE2 PUSH2 0x238E JUMP JUMPDEST JUMPDEST PUSH1 0x20 MUL ADD MLOAD DUP2 MSTORE PUSH1 0x20 ADD DUP7 DUP5 PUSH1 0x8 DUP2 LT PUSH2 0xF00 JUMPI PUSH2 0xEFF PUSH2 0x238E JUMP JUMPDEST JUMPDEST PUSH1 0x20 MUL ADD MLOAD DUP2 MSTORE PUSH1 0x20 ADD PUSH1 0xB DUP7 DUP6 PUSH1 0x8 DUP2 LT PUSH2 0xF1F JUMPI PUSH2 0xF1E PUSH2 0x238E JUMP JUMPDEST JUMPDEST PUSH1 0x20 MUL ADD MLOAD PUSH1 0x40 MLOAD PUSH2 0xF31 SWAP2 SWAP1 PUSH2 0x1BF4 JUMP JUMPDEST SWAP1 DUP2 MSTORE PUSH1 0x20 ADD PUSH1 0x40 MLOAD DUP1 SWAP2 SUB SWAP1 KECCAK256 SLOAD DUP2 MSTORE POP SWAP1 DUP1 PUSH1 0x1 DUP2 SLOAD ADD DUP1 DUP3 SSTORE DUP1 SWAP2 POP POP PUSH1 0x1 SWAP1 SUB SWAP1 PUSH1 0x0 MSTORE PUSH1 0x20 PUSH1 0x0 KECCAK256 SWAP1 PUSH1 0x3 MUL ADD PUSH1 0x0 SWAP1 SWAP2 SWAP1 SWAP2 SWAP1 SWAP2 POP PUSH1 0x0 DUP3 ADD MLOAD DUP2 PUSH1 0x0 ADD SWAP1 DUP1 MLOAD SWAP1 PUSH1 0x20 ADD SWAP1 PUSH2 0xF88 SWAP3 SWAP2 SWAP1 PUSH2 0x14C4 JUMP JUMPDEST POP PUSH1 0x20 DUP3 ADD MLOAD DUP2 PUSH1 0x1 ADD SSTORE PUSH1 0x40 DUP3 ADD MLOAD DUP2 PUSH1 0x2 ADD SSTORE POP POP DUP1 DUP1 PUSH2 0xFAA SWAP1 PUSH2 0x2289 JUMP JUMPDEST SWAP2 POP POP PUSH2 0xE4A JUMP JUMPDEST POP JUMPDEST POP POP POP POP JUMP JUMPDEST PUSH1 0x0 DUP1 PUSH1 0xC SLOAD TIMESTAMP DUP5 PUSH2 0xFCC SWAP2 SWAP1 PUSH2 0x20DE JUMP JUMPDEST PUSH2 0xFD6 SWAP2 SWAP1 PUSH2 0x2053 JUMP JUMPDEST SWAP1 POP DUP1 NUMBER PUSH2 0xFE4 SWAP2 SWAP1 PUSH2 0x1F93 JUMP JUMPDEST SWAP2 POP POP SWAP2 SWAP1 POP JUMP JUMPDEST PUSH1 0x1 PUSH1 0xB PUSH1 0x40 MLOAD PUSH2 0xFFC SWAP1 PUSH2 0x1C74 JUMP JUMPDEST SWAP1 DUP2 MSTORE PUSH1 0x20 ADD PUSH1 0x40 MLOAD DUP1 SWAP2 SUB SWAP1 KECCAK256 DUP2 SWAP1 SSTORE POP PUSH1 0x2 PUSH1 0xB PUSH1 0x40 MLOAD PUSH2 0x101E SWAP1 PUSH2 0x1C0B JUMP JUMPDEST SWAP1 DUP2 MSTORE PUSH1 0x20 ADD PUSH1 0x40 MLOAD DUP1 SWAP2 SUB SWAP1 KECCAK256 DUP2 SWAP1 SSTORE POP PUSH1 0x3 PUSH1 0xB PUSH1 0x40 MLOAD PUSH2 0x1040 SWAP1 PUSH2 0x1C4A JUMP JUMPDEST SWAP1 DUP2 MSTORE PUSH1 0x20 ADD PUSH1 0x40 MLOAD DUP1 SWAP2 SUB SWAP1 KECCAK256 DUP2 SWAP1 SSTORE POP PUSH1 0x4 PUSH1 0xB PUSH1 0x40 MLOAD PUSH2 0x1062 SWAP1 PUSH2 0x1C20 JUMP JUMPDEST SWAP1 DUP2 MSTORE PUSH1 0x20 ADD PUSH1 0x40 MLOAD DUP1 SWAP2 SUB SWAP1 KECCAK256 DUP2 SWAP1 SSTORE POP PUSH1 0x5 PUSH1 0xB PUSH1 0x40 MLOAD PUSH2 0x1084 SWAP1 PUSH2 0x1C35 JUMP JUMPDEST SWAP1 DUP2 MSTORE PUSH1 0x20 ADD PUSH1 0x40 MLOAD DUP1 SWAP2 SUB SWAP1 KECCAK256 DUP2 SWAP1 SSTORE POP PUSH1 0x6 PUSH1 0xB PUSH1 0x40 MLOAD PUSH2 0x10A6 SWAP1 PUSH2 0x1C5F JUMP JUMPDEST SWAP1 DUP2 MSTORE PUSH1 0x20 ADD PUSH1 0x40 MLOAD DUP1 SWAP2 SUB SWAP1 KECCAK256 DUP2 SWAP1 SSTORE POP JUMP JUMPDEST PUSH1 0x3 DUP1 PUSH1 0x4 DUP2 GT ISZERO PUSH2 0x10CF JUMPI PUSH2 0x10CE PUSH2 0x2330 JUMP JUMPDEST JUMPDEST PUSH1 0x2 PUSH1 0x15 SWAP1 SLOAD SWAP1 PUSH2 0x100 EXP SWAP1 DIV PUSH1 0xFF AND PUSH1 0x4 DUP2 GT ISZERO PUSH2 0x10F1 JUMPI PUSH2 0x10F0 PUSH2 0x2330 JUMP JUMPDEST JUMPDEST EQ PUSH2 0x1131 JUMPI PUSH1 0x40 MLOAD PUSH32 0x8C379A000000000000000000000000000000000000000000000000000000000 DUP2 MSTORE PUSH1 0x4 ADD PUSH2 0x1128 SWAP1 PUSH2 0x1DCF JUMP JUMPDEST PUSH1 0x40 MLOAD DUP1 SWAP2 SUB SWAP1 REVERT JUMPDEST PUSH1 0x0 JUMPDEST PUSH1 0xA DUP1 SLOAD SWAP1 POP DUP2 LT ISZERO PUSH2 0x124D JUMPI PUSH1 0x0 PUSH1 0xA DUP3 DUP2 SLOAD DUP2 LT PUSH2 0x1157 JUMPI PUSH2 0x1156 PUSH2 0x238E JUMP JUMPDEST JUMPDEST SWAP1 PUSH1 0x0 MSTORE PUSH1 0x20 PUSH1 0x0 KECCAK256 SWAP1 PUSH1 0x3 MUL ADD PUSH1 0x2 ADD SLOAD SWAP1 POP PUSH1 0x0 PUSH1 0xA DUP4 DUP2 SLOAD DUP2 LT PUSH2 0x1181 JUMPI PUSH2 0x1180 PUSH2 0x238E JUMP JUMPDEST JUMPDEST SWAP1 PUSH1 0x0 MSTORE PUSH1 0x20 PUSH1 0x0 KECCAK256 SWAP1 PUSH1 0x3 MUL ADD PUSH1 0x1 ADD SLOAD SWAP1 POP PUSH1 0x0 PUSH1 0xE SLOAD PUSH1 0xD PUSH1 0x0 DUP7 DUP2 MSTORE PUSH1 0x20 ADD SWAP1 DUP2 MSTORE PUSH1 0x20 ADD PUSH1 0x0 KECCAK256 SLOAD PUSH2 0x11B8 SWAP2 SWAP1 PUSH2 0x1FE9 JUMP JUMPDEST SWAP1 POP PUSH2 0x11C5 DUP4 DUP3 DUP5 PUSH2 0x12D2 JUMP JUMPDEST PUSH2 0x1237 JUMPI PUSH2 0x11D1 PUSH2 0x135C JUMP JUMPDEST CALLER PUSH20 0xFFFFFFFFFFFFFFFFFFFFFFFFFFFFFFFFFFFFFFFF AND PUSH32 0xA84226BF2D14BDE3FAC454F52EAEAB63AAEB1934DA88F9263DD4FF7DD12ACF71 PUSH1 0x9 PUSH1 0x0 SWAP1 SLOAD SWAP1 PUSH2 0x100 EXP SWAP1 DIV PUSH1 0xFF AND PUSH1 0x40 MLOAD PUSH2 0x1226 SWAP2 SWAP1 PUSH2 0x1CDA JUMP JUMPDEST PUSH1 0x40 MLOAD DUP1 SWAP2 SUB SWAP1 LOG2 POP POP POP POP PUSH2 0x12CF JUMP JUMPDEST POP POP POP DUP1 DUP1 PUSH2 0x1245 SWAP1 PUSH2 0x2289 JUMP JUMPDEST SWAP2 POP POP PUSH2 0x1134 JUMP JUMPDEST POP PUSH1 0x1 PUSH1 0x9 PUSH1 0x0 PUSH2 0x100 EXP DUP2 SLOAD DUP2 PUSH1 0xFF MUL NOT AND SWAP1 DUP4 ISZERO ISZERO MUL OR SWAP1 SSTORE POP CALLER PUSH20 0xFFFFFFFFFFFFFFFFFFFFFFFFFFFFFFFFFFFFFFFF AND PUSH32 0xA84226BF2D14BDE3FAC454F52EAEAB63AAEB1934DA88F9263DD4FF7DD12ACF71 PUSH1 0x9 PUSH1 0x0 SWAP1 SLOAD SWAP1 PUSH2 0x100 EXP SWAP1 DIV PUSH1 0xFF AND PUSH1 0x40 MLOAD PUSH2 0x12BE SWAP2 SWAP1 PUSH2 0x1D08 JUMP JUMPDEST PUSH1 0x40 MLOAD DUP1 SWAP2 SUB SWAP1 LOG2 PUSH2 0x12CE PUSH2 0x13D1 JUMP JUMPDEST JUMPDEST POP JUMP JUMPDEST PUSH1 0x0 PUSH32 0xFFFFFFFFFFFFFFFFFFFFFFFFFFFFFFFFFFFFFFFFFFFFFFFFFFFFFFFFFFFFFFFF DUP5 EQ PUSH2 0x1350 JUMPI PUSH1 0x1 DUP1 DUP6 AND EQ ISZERO PUSH2 0x1317 JUMPI DUP2 DUP4 SGT PUSH2 0x1316 JUMPI PUSH1 0x0 SWAP1 POP PUSH2 0x1355 JUMP JUMPDEST JUMPDEST PUSH1 0x2 DUP1 DUP6 AND EQ ISZERO PUSH2 0x1333 JUMPI DUP2 DUP4 EQ PUSH2 0x1332 JUMPI PUSH1 0x0 SWAP1 POP PUSH2 0x1355 JUMP JUMPDEST JUMPDEST PUSH1 0x4 DUP1 DUP6 AND EQ ISZERO PUSH2 0x134F JUMPI DUP2 DUP4 SLT PUSH2 0x134E JUMPI PUSH1 0x0 SWAP1 POP PUSH2 0x1355 JUMP JUMPDEST JUMPDEST JUMPDEST PUSH1 0x1 SWAP1 POP JUMPDEST SWAP4 SWAP3 POP POP POP JUMP JUMPDEST PUSH1 0x1 PUSH1 0x0 SWAP1 SLOAD SWAP1 PUSH2 0x100 EXP SWAP1 DIV PUSH20 0xFFFFFFFFFFFFFFFFFFFFFFFFFFFFFFFFFFFFFFFF AND PUSH20 0xFFFFFFFFFFFFFFFFFFFFFFFFFFFFFFFFFFFFFFFF AND PUSH2 0x8FC PUSH1 0x5 SLOAD SWAP1 DUP2 ISZERO MUL SWAP1 PUSH1 0x40 MLOAD PUSH1 0x0 PUSH1 0x40 MLOAD DUP1 DUP4 SUB DUP2 DUP6 DUP9 DUP9 CALL SWAP4 POP POP POP POP ISZERO DUP1 ISZERO PUSH2 0x13C6 JUMPI RETURNDATASIZE PUSH1 0x0 DUP1 RETURNDATACOPY RETURNDATASIZE PUSH1 0x0 REVERT JUMPDEST POP PUSH2 0x13CF PUSH2 0x1446 JUMP JUMPDEST JUMP JUMPDEST PUSH1 0x2 PUSH1 0x0 SWAP1 SLOAD SWAP1 PUSH2 0x100 EXP SWAP1 DIV PUSH20 0xFFFFFFFFFFFFFFFFFFFFFFFFFFFFFFFFFFFFFFFF AND PUSH20 0xFFFFFFFFFFFFFFFFFFFFFFFFFFFFFFFFFFFFFFFF AND PUSH2 0x8FC PUSH1 0x5 SLOAD SWAP1 DUP2 ISZERO MUL SWAP1 PUSH1 0x40 MLOAD PUSH1 0x0 PUSH1 0x40 MLOAD DUP1 DUP4 SUB DUP2 DUP6 DUP9 DUP9 CALL SWAP4 POP POP POP POP ISZERO DUP1 ISZERO PUSH2 0x143B JUMPI RETURNDATASIZE PUSH1 0x0 DUP1 RETURNDATACOPY RETURNDATASIZE PUSH1 0x0 REVERT JUMPDEST POP PUSH2 0x1444 PUSH2 0x1446 JUMP JUMPDEST JUMP JUMPDEST PUSH1 0x4 SLOAD NUMBER LT ISZERO PUSH2 0x1497 JUMPI PUSH1 0x0 PUSH1 0x9 PUSH1 0x0 PUSH2 0x100 EXP DUP2 SLOAD DUP2 PUSH1 0xFF MUL NOT AND SWAP1 DUP4 ISZERO ISZERO MUL OR SWAP1 SSTORE POP PUSH1 0x7 SLOAD PUSH1 0x6 DUP2 SWAP1 SSTORE POP PUSH2 0x1900 PUSH1 0x1E PUSH2 0x1483 SWAP2 SWAP1 PUSH2 0x2084 JUMP JUMPDEST PUSH1 0x7 SLOAD PUSH2 0x1490 SWAP2 SWAP1 PUSH2 0x1F93 JUMP JUMPDEST PUSH1 0x7 DUP2 SWAP1 SSTORE POP JUMPDEST PUSH1 0x4 PUSH1 0x2 PUSH1 0x15 PUSH2 0x100 EXP DUP2 SLOAD DUP2 PUSH1 0xFF MUL NOT AND SWAP1 DUP4 PUSH1 0x4 DUP2 GT ISZERO PUSH2 0x14BD JUMPI PUSH2 0x14BC PUSH2 0x2330 JUMP JUMPDEST JUMPDEST MUL OR SWAP1 SSTORE POP JUMP JUMPDEST DUP3 DUP1 SLOAD PUSH2 0x14D0 SWAP1 PUSH2 0x21DD JUMP JUMPDEST SWAP1 PUSH1 0x0 MSTORE PUSH1 0x20 PUSH1 0x0 KECCAK256 SWAP1 PUSH1 0x1F ADD PUSH1 0x20 SWAP1 DIV DUP2 ADD SWAP3 DUP3 PUSH2 0x14F2 JUMPI PUSH1 0x0 DUP6 SSTORE PUSH2 0x1539 JUMP JUMPDEST DUP3 PUSH1 0x1F LT PUSH2 0x150B JUMPI DUP1 MLOAD PUSH1 0xFF NOT AND DUP4 DUP1 ADD OR DUP6 SSTORE PUSH2 0x1539 JUMP JUMPDEST DUP3 DUP1 ADD PUSH1 0x1 ADD DUP6 SSTORE DUP3 ISZERO PUSH2 0x1539 JUMPI SWAP2 DUP3 ADD JUMPDEST DUP3 DUP2 GT ISZERO PUSH2 0x1538 JUMPI DUP3 MLOAD DUP3 SSTORE SWAP2 PUSH1 0x20 ADD SWAP2 SWAP1 PUSH1 0x1 ADD SWAP1 PUSH2 0x151D JUMP JUMPDEST JUMPDEST POP SWAP1 POP PUSH2 0x1546 SWAP2 SWAP1 PUSH2 0x154A JUMP JUMPDEST POP SWAP1 JUMP JUMPDEST JUMPDEST DUP1 DUP3 GT ISZERO PUSH2 0x1563 JUMPI PUSH1 0x0 DUP2 PUSH1 0x0 SWAP1 SSTORE POP PUSH1 0x1 ADD PUSH2 0x154B JUMP JUMPDEST POP SWAP1 JUMP JUMPDEST PUSH1 0x0 PUSH2 0x157A PUSH2 0x1575 DUP5 PUSH2 0x1E2F JUMP JUMPDEST PUSH2 0x1E0A JUMP JUMPDEST SWAP1 POP DUP1 DUP3 DUP6 PUSH1 0x20 DUP7 MUL DUP3 ADD GT ISZERO PUSH2 0x1594 JUMPI PUSH2 0x1593 PUSH2 0x23F1 JUMP JUMPDEST JUMPDEST PUSH1 0x0 JUMPDEST DUP6 DUP2 LT ISZERO PUSH2 0x15C4 JUMPI DUP2 PUSH2 0x15AA DUP9 DUP3 PUSH2 0x179E JUMP JUMPDEST DUP5 MSTORE PUSH1 0x20 DUP5 ADD SWAP4 POP PUSH1 0x20 DUP4 ADD SWAP3 POP POP PUSH1 0x1 DUP2 ADD SWAP1 POP PUSH2 0x1597 JUMP JUMPDEST POP POP POP SWAP4 SWAP3 POP POP POP JUMP JUMPDEST PUSH1 0x0 PUSH2 0x15E1 PUSH2 0x15DC DUP5 PUSH2 0x1E55 JUMP JUMPDEST PUSH2 0x1E0A JUMP JUMPDEST SWAP1 POP DUP1 DUP4 DUP3 MSTORE PUSH1 0x20 DUP3 ADD SWAP1 POP DUP3 DUP6 PUSH1 0x20 DUP7 MUL DUP3 ADD GT ISZERO PUSH2 0x1604 JUMPI PUSH2 0x1603 PUSH2 0x23F1 JUMP JUMPDEST JUMPDEST PUSH1 0x0 JUMPDEST DUP6 DUP2 LT ISZERO PUSH2 0x1634 JUMPI DUP2 PUSH2 0x161A DUP9 DUP3 PUSH2 0x179E JUMP JUMPDEST DUP5 MSTORE PUSH1 0x20 DUP5 ADD SWAP4 POP PUSH1 0x20 DUP4 ADD SWAP3 POP POP PUSH1 0x1 DUP2 ADD SWAP1 POP PUSH2 0x1607 JUMP JUMPDEST POP POP POP SWAP4 SWAP3 POP POP POP JUMP JUMPDEST PUSH1 0x0 PUSH2 0x1651 PUSH2 0x164C DUP5 PUSH2 0x1E81 JUMP JUMPDEST PUSH2 0x1E0A JUMP JUMPDEST SWAP1 POP DUP1 DUP3 DUP6 PUSH1 0x20 DUP7 MUL DUP3 ADD GT ISZERO PUSH2 0x166B JUMPI PUSH2 0x166A PUSH2 0x23F1 JUMP JUMPDEST JUMPDEST PUSH1 0x0 JUMPDEST DUP6 DUP2 LT ISZERO PUSH2 0x16B9 JUMPI DUP2 CALLDATALOAD PUSH8 0xFFFFFFFFFFFFFFFF DUP2 GT ISZERO PUSH2 0x1691 JUMPI PUSH2 0x1690 PUSH2 0x23EC JUMP JUMPDEST JUMPDEST DUP1 DUP7 ADD PUSH2 0x169E DUP10 DUP3 PUSH2 0x17B3 JUMP JUMPDEST DUP6 MSTORE PUSH1 0x20 DUP6 ADD SWAP5 POP PUSH1 0x20 DUP5 ADD SWAP4 POP POP POP PUSH1 0x1 DUP2 ADD SWAP1 POP PUSH2 0x166E JUMP JUMPDEST POP POP POP SWAP4 SWAP3 POP POP POP JUMP JUMPDEST PUSH1 0x0 PUSH2 0x16D6 PUSH2 0x16D1 DUP5 PUSH2 0x1EA7 JUMP JUMPDEST PUSH2 0x1E0A JUMP JUMPDEST SWAP1 POP DUP3 DUP2 MSTORE PUSH1 0x20 DUP2 ADD DUP5 DUP5 DUP5 ADD GT ISZERO PUSH2 0x16F2 JUMPI PUSH2 0x16F1 PUSH2 0x23F6 JUMP JUMPDEST JUMPDEST PUSH2 0x16FD DUP5 DUP3 DUP6 PUSH2 0x219B JUMP JUMPDEST POP SWAP4 SWAP3 POP POP POP JUMP JUMPDEST PUSH1 0x0 DUP2 CALLDATALOAD SWAP1 POP PUSH2 0x1714 DUP2 PUSH2 0x2639 JUMP JUMPDEST SWAP3 SWAP2 POP POP JUMP JUMPDEST PUSH1 0x0 DUP3 PUSH1 0x1F DUP4 ADD SLT PUSH2 0x172F JUMPI PUSH2 0x172E PUSH2 0x23EC JUMP JUMPDEST JUMPDEST PUSH1 0x8 PUSH2 0x173C DUP5 DUP3 DUP6 PUSH2 0x1567 JUMP JUMPDEST SWAP2 POP POP SWAP3 SWAP2 POP POP JUMP JUMPDEST PUSH1 0x0 DUP3 PUSH1 0x1F DUP4 ADD SLT PUSH2 0x175A JUMPI PUSH2 0x1759 PUSH2 0x23EC JUMP JUMPDEST JUMPDEST DUP2 CALLDATALOAD PUSH2 0x176A DUP5 DUP3 PUSH1 0x20 DUP7 ADD PUSH2 0x15CE JUMP JUMPDEST SWAP2 POP POP SWAP3 SWAP2 POP POP JUMP JUMPDEST PUSH1 0x0 DUP3 PUSH1 0x1F DUP4 ADD SLT PUSH2 0x1788 JUMPI PUSH2 0x1787 PUSH2 0x23EC JUMP JUMPDEST JUMPDEST PUSH1 0x8 PUSH2 0x1795 DUP5 DUP3 DUP6 PUSH2 0x163E JUMP JUMPDEST SWAP2 POP POP SWAP3 SWAP2 POP POP JUMP JUMPDEST PUSH1 0x0 DUP2 CALLDATALOAD SWAP1 POP PUSH2 0x17AD DUP2 PUSH2 0x2650 JUMP JUMPDEST SWAP3 SWAP2 POP POP JUMP JUMPDEST PUSH1 0x0 DUP3 PUSH1 0x1F DUP4 ADD SLT PUSH2 0x17C8 JUMPI PUSH2 0x17C7 PUSH2 0x23EC JUMP JUMPDEST JUMPDEST DUP2 CALLDATALOAD PUSH2 0x17D8 DUP5 DUP3 PUSH1 0x20 DUP7 ADD PUSH2 0x16C3 JUMP JUMPDEST SWAP2 POP POP SWAP3 SWAP2 POP POP JUMP JUMPDEST PUSH1 0x0 DUP2 CALLDATALOAD SWAP1 POP PUSH2 0x17F0 DUP2 PUSH2 0x2667 JUMP JUMPDEST SWAP3 SWAP2 POP POP JUMP JUMPDEST PUSH1 0x0 DUP1 PUSH1 0x0 DUP1 PUSH1 0x0 DUP1 PUSH1 0x0 DUP1 PUSH2 0x100 DUP10 DUP12 SUB SLT ISZERO PUSH2 0x1817 JUMPI PUSH2 0x1816 PUSH2 0x2400 JUMP JUMPDEST JUMPDEST PUSH1 0x0 PUSH2 0x1825 DUP12 DUP3 DUP13 ADD PUSH2 0x1705 JUMP JUMPDEST SWAP9 POP POP PUSH1 0x20 PUSH2 0x1836 DUP12 DUP3 DUP13 ADD PUSH2 0x1705 JUMP JUMPDEST SWAP8 POP POP PUSH1 0x40 PUSH2 0x1847 DUP12 DUP3 DUP13 ADD PUSH2 0x17E1 JUMP JUMPDEST SWAP7 POP POP PUSH1 0x60 PUSH2 0x1858 DUP12 DUP3 DUP13 ADD PUSH2 0x17E1 JUMP JUMPDEST SWAP6 POP POP PUSH1 0x80 PUSH2 0x1869 DUP12 DUP3 DUP13 ADD PUSH2 0x17E1 JUMP JUMPDEST SWAP5 POP POP PUSH1 0xA0 PUSH2 0x187A DUP12 DUP3 DUP13 ADD PUSH2 0x17E1 JUMP JUMPDEST SWAP4 POP POP PUSH1 0xC0 PUSH2 0x188B DUP12 DUP3 DUP13 ADD PUSH2 0x17E1 JUMP JUMPDEST SWAP3 POP POP PUSH1 0xE0 PUSH2 0x189C DUP12 DUP3 DUP13 ADD PUSH2 0x17E1 JUMP JUMPDEST SWAP2 POP POP SWAP3 SWAP6 SWAP9 POP SWAP3 SWAP6 SWAP9 SWAP1 SWAP4 SWAP7 POP JUMP JUMPDEST PUSH1 0x0 PUSH1 0x20 DUP3 DUP5 SUB SLT ISZERO PUSH2 0x18C2 JUMPI PUSH2 0x18C1 PUSH2 0x2400 JUMP JUMPDEST JUMPDEST PUSH1 0x0 DUP3 ADD CALLDATALOAD PUSH8 0xFFFFFFFFFFFFFFFF DUP2 GT ISZERO PUSH2 0x18E0 JUMPI PUSH2 0x18DF PUSH2 0x23FB JUMP JUMPDEST JUMPDEST PUSH2 0x18EC DUP5 DUP3 DUP6 ADD PUSH2 0x1745 JUMP JUMPDEST SWAP2 POP POP SWAP3 SWAP2 POP POP JUMP JUMPDEST PUSH1 0x0 DUP1 PUSH1 0x0 PUSH2 0x140 DUP5 DUP7 SUB SLT ISZERO PUSH2 0x190F JUMPI PUSH2 0x190E PUSH2 0x2400 JUMP JUMPDEST JUMPDEST PUSH1 0x0 DUP5 ADD CALLDATALOAD PUSH8 0xFFFFFFFFFFFFFFFF DUP2 GT ISZERO PUSH2 0x192D JUMPI PUSH2 0x192C PUSH2 0x23FB JUMP JUMPDEST JUMPDEST PUSH2 0x1939 DUP7 DUP3 DUP8 ADD PUSH2 0x1773 JUMP JUMPDEST SWAP4 POP POP PUSH1 0x20 PUSH2 0x194A DUP7 DUP3 DUP8 ADD PUSH2 0x171A JUMP JUMPDEST SWAP3 POP POP PUSH2 0x120 DUP5 ADD CALLDATALOAD PUSH8 0xFFFFFFFFFFFFFFFF DUP2 GT ISZERO PUSH2 0x196C JUMPI PUSH2 0x196B PUSH2 0x23FB JUMP JUMPDEST JUMPDEST PUSH2 0x1978 DUP7 DUP3 DUP8 ADD PUSH2 0x1773 JUMP JUMPDEST SWAP2 POP POP SWAP3 POP SWAP3 POP SWAP3 JUMP JUMPDEST PUSH1 0x0 PUSH1 0x20 DUP3 DUP5 SUB SLT ISZERO PUSH2 0x1998 JUMPI PUSH2 0x1997 PUSH2 0x2400 JUMP JUMPDEST JUMPDEST PUSH1 0x0 PUSH2 0x19A6 DUP5 DUP3 DUP6 ADD PUSH2 0x17E1 JUMP JUMPDEST SWAP2 POP POP SWAP3 SWAP2 POP POP JUMP JUMPDEST PUSH2 0x19B8 DUP2 PUSH2 0x2124 JUMP JUMPDEST DUP3 MSTORE POP POP JUMP JUMPDEST PUSH2 0x19C7 DUP2 PUSH2 0x2112 JUMP JUMPDEST DUP3 MSTORE POP POP JUMP JUMPDEST PUSH2 0x19D6 DUP2 PUSH2 0x2136 JUMP JUMPDEST DUP3 MSTORE POP POP JUMP JUMPDEST PUSH2 0x19E5 DUP2 PUSH2 0x2189 JUMP JUMPDEST DUP3 MSTORE POP POP JUMP JUMPDEST PUSH2 0x19F4 DUP2 PUSH2 0x2155 JUMP JUMPDEST DUP3 MSTORE POP POP JUMP JUMPDEST PUSH1 0x0 PUSH2 0x1A05 DUP3 PUSH2 0x1ED8 JUMP JUMPDEST PUSH2 0x1A0F DUP2 DUP6 PUSH2 0x1EE3 JUMP JUMPDEST SWAP4 POP PUSH2 0x1A1F DUP2 DUP6 PUSH1 0x20 DUP7 ADD PUSH2 0x21AA JUMP JUMPDEST PUSH2 0x1A28 DUP2 PUSH2 0x2405 JUMP JUMPDEST DUP5 ADD SWAP2 POP POP SWAP3 SWAP2 POP POP JUMP JUMPDEST PUSH1 0x0 PUSH2 0x1A3E DUP3 PUSH2 0x1ED8 JUMP JUMPDEST PUSH2 0x1A48 DUP2 DUP6 PUSH2 0x1EF4 JUMP JUMPDEST SWAP4 POP PUSH2 0x1A58 DUP2 DUP6 PUSH1 0x20 DUP7 ADD PUSH2 0x21AA JUMP JUMPDEST DUP1 DUP5 ADD SWAP2 POP POP SWAP3 SWAP2 POP POP JUMP JUMPDEST PUSH1 0x0 PUSH2 0x1A71 PUSH1 0x36 DUP4 PUSH2 0x1EE3 JUMP JUMPDEST SWAP2 POP PUSH2 0x1A7C DUP3 PUSH2 0x2416 JUMP JUMPDEST PUSH1 0x40 DUP3 ADD SWAP1 POP SWAP2 SWAP1 POP JUMP JUMPDEST PUSH1 0x0 PUSH2 0x1A94 PUSH1 0x12 DUP4 PUSH2 0x1EE3 JUMP JUMPDEST SWAP2 POP PUSH2 0x1A9F DUP3 PUSH2 0x2465 JUMP JUMPDEST PUSH1 0x20 DUP3 ADD SWAP1 POP SWAP2 SWAP1 POP JUMP JUMPDEST PUSH1 0x0 PUSH2 0x1AB7 PUSH1 0x10 DUP4 PUSH2 0x1EE3 JUMP JUMPDEST SWAP2 POP PUSH2 0x1AC2 DUP3 PUSH2 0x248E JUMP JUMPDEST PUSH1 0x20 DUP3 ADD SWAP1 POP SWAP2 SWAP1 POP JUMP JUMPDEST PUSH1 0x0 PUSH2 0x1ADA PUSH1 0x2 DUP4 PUSH2 0x1EF4 JUMP JUMPDEST SWAP2 POP PUSH2 0x1AE5 DUP3 PUSH2 0x24B7 JUMP JUMPDEST PUSH1 0x2 DUP3 ADD SWAP1 POP SWAP2 SWAP1 POP JUMP JUMPDEST PUSH1 0x0 PUSH2 0x1AFD PUSH1 0x1 DUP4 PUSH2 0x1EF4 JUMP JUMPDEST SWAP2 POP PUSH2 0x1B08 DUP3 PUSH2 0x24E0 JUMP JUMPDEST PUSH1 0x1 DUP3 ADD SWAP1 POP SWAP2 SWAP1 POP JUMP JUMPDEST PUSH1 0x0 PUSH2 0x1B20 PUSH1 0x2 DUP4 PUSH2 0x1EF4 JUMP JUMPDEST SWAP2 POP PUSH2 0x1B2B DUP3 PUSH2 0x2509 JUMP JUMPDEST PUSH1 0x2 DUP3 ADD SWAP1 POP SWAP2 SWAP1 POP JUMP JUMPDEST PUSH1 0x0 PUSH2 0x1B43 PUSH1 0x2 DUP4 PUSH2 0x1EF4 JUMP JUMPDEST SWAP2 POP PUSH2 0x1B4E DUP3 PUSH2 0x2532 JUMP JUMPDEST PUSH1 0x2 DUP3 ADD SWAP1 POP SWAP2 SWAP1 POP JUMP JUMPDEST PUSH1 0x0 PUSH2 0x1B66 PUSH1 0x2 DUP4 PUSH2 0x1EF4 JUMP JUMPDEST SWAP2 POP PUSH2 0x1B71 DUP3 PUSH2 0x255B JUMP JUMPDEST PUSH1 0x2 DUP3 ADD SWAP1 POP SWAP2 SWAP1 POP JUMP JUMPDEST PUSH1 0x0 PUSH2 0x1B89 PUSH1 0x1 DUP4 PUSH2 0x1EF4 JUMP JUMPDEST SWAP2 POP PUSH2 0x1B94 DUP3 PUSH2 0x2584 JUMP JUMPDEST PUSH1 0x1 DUP3 ADD SWAP1 POP SWAP2 SWAP1 POP JUMP JUMPDEST PUSH1 0x0 PUSH2 0x1BAC PUSH1 0x1D DUP4 PUSH2 0x1EE3 JUMP JUMPDEST SWAP2 POP PUSH2 0x1BB7 DUP3 PUSH2 0x25AD JUMP JUMPDEST PUSH1 0x20 DUP3 ADD SWAP1 POP SWAP2 SWAP1 POP JUMP JUMPDEST PUSH1 0x0 PUSH2 0x1BCF PUSH1 0x25 DUP4 PUSH2 0x1EE3 JUMP JUMPDEST SWAP2 POP PUSH2 0x1BDA DUP3 PUSH2 0x25D6 JUMP JUMPDEST PUSH1 0x40 DUP3 ADD SWAP1 POP SWAP2 SWAP1 POP JUMP JUMPDEST PUSH2 0x1BEE DUP2 PUSH2 0x217F JUMP JUMPDEST DUP3 MSTORE POP POP JUMP JUMPDEST PUSH1 0x0 PUSH2 0x1C00 DUP3 DUP5 PUSH2 0x1A33 JUMP JUMPDEST SWAP2 POP DUP2 SWAP1 POP SWAP3 SWAP2 POP POP JUMP JUMPDEST PUSH1 0x0 PUSH2 0x1C16 DUP3 PUSH2 0x1ACD JUMP JUMPDEST SWAP2 POP DUP2 SWAP1 POP SWAP2 SWAP1 POP JUMP JUMPDEST PUSH1 0x0 PUSH2 0x1C2B DUP3 PUSH2 0x1AF0 JUMP JUMPDEST SWAP2 POP DUP2 SWAP1 POP SWAP2 SWAP1 POP JUMP JUMPDEST PUSH1 0x0 PUSH2 0x1C40 DUP3 PUSH2 0x1B13 JUMP JUMPDEST SWAP2 POP DUP2 SWAP1 POP SWAP2 SWAP1 POP JUMP JUMPDEST PUSH1 0x0 PUSH2 0x1C55 DUP3 PUSH2 0x1B36 JUMP JUMPDEST SWAP2 POP DUP2 SWAP1 POP SWAP2 SWAP1 POP JUMP JUMPDEST PUSH1 0x0 PUSH2 0x1C6A DUP3 PUSH2 0x1B59 JUMP JUMPDEST SWAP2 POP DUP2 SWAP1 POP SWAP2 SWAP1 POP JUMP JUMPDEST PUSH1 0x0 PUSH2 0x1C7F DUP3 PUSH2 0x1B7C JUMP JUMPDEST SWAP2 POP DUP2 SWAP1 POP SWAP2 SWAP1 POP JUMP JUMPDEST PUSH1 0x0 PUSH1 0x20 DUP3 ADD SWAP1 POP PUSH2 0x1C9E PUSH1 0x0 DUP4 ADD DUP5 PUSH2 0x19BE JUMP JUMPDEST SWAP3 SWAP2 POP POP JUMP JUMPDEST PUSH1 0x0 PUSH1 0x20 DUP3 ADD SWAP1 POP PUSH2 0x1CB9 PUSH1 0x0 DUP4 ADD DUP5 PUSH2 0x19AF JUMP JUMPDEST SWAP3 SWAP2 POP POP JUMP JUMPDEST PUSH1 0x0 PUSH1 0x20 DUP3 ADD SWAP1 POP PUSH2 0x1CD4 PUSH1 0x0 DUP4 ADD DUP5 PUSH2 0x19CD JUMP JUMPDEST SWAP3 SWAP2 POP POP JUMP JUMPDEST PUSH1 0x0 PUSH1 0x40 DUP3 ADD SWAP1 POP PUSH2 0x1CEF PUSH1 0x0 DUP4 ADD DUP5 PUSH2 0x19CD JUMP JUMPDEST DUP2 DUP2 SUB PUSH1 0x20 DUP4 ADD MSTORE PUSH2 0x1D00 DUP2 PUSH2 0x1A87 JUMP JUMPDEST SWAP1 POP SWAP3 SWAP2 POP POP JUMP JUMPDEST PUSH1 0x0 PUSH1 0x40 DUP3 ADD SWAP1 POP PUSH2 0x1D1D PUSH1 0x0 DUP4 ADD DUP5 PUSH2 0x19CD JUMP JUMPDEST DUP2 DUP2 SUB PUSH1 0x20 DUP4 ADD MSTORE PUSH2 0x1D2E DUP2 PUSH2 0x1AAA JUMP JUMPDEST SWAP1 POP SWAP3 SWAP2 POP POP JUMP JUMPDEST PUSH1 0x0 PUSH1 0x20 DUP3 ADD SWAP1 POP PUSH2 0x1D4B PUSH1 0x0 DUP4 ADD DUP5 PUSH2 0x19DC JUMP JUMPDEST SWAP3 SWAP2 POP POP JUMP JUMPDEST PUSH1 0x0 PUSH1 0x60 DUP3 ADD SWAP1 POP DUP2 DUP2 SUB PUSH1 0x0 DUP4 ADD MSTORE PUSH2 0x1D6B DUP2 DUP7 PUSH2 0x19FA JUMP JUMPDEST SWAP1 POP PUSH2 0x1D7A PUSH1 0x20 DUP4 ADD DUP6 PUSH2 0x19EB JUMP JUMPDEST PUSH2 0x1D87 PUSH1 0x40 DUP4 ADD DUP5 PUSH2 0x19EB JUMP JUMPDEST SWAP5 SWAP4 POP POP POP POP JUMP JUMPDEST PUSH1 0x0 PUSH1 0x20 DUP3 ADD SWAP1 POP DUP2 DUP2 SUB PUSH1 0x0 DUP4 ADD MSTORE PUSH2 0x1DA8 DUP2 PUSH2 0x1A64 JUMP JUMPDEST SWAP1 POP SWAP2 SWAP1 POP JUMP JUMPDEST PUSH1 0x0 PUSH1 0x20 DUP3 ADD SWAP1 POP DUP2 DUP2 SUB PUSH1 0x0 DUP4 ADD MSTORE PUSH2 0x1DC8 DUP2 PUSH2 0x1B9F JUMP JUMPDEST SWAP1 POP SWAP2 SWAP1 POP JUMP JUMPDEST PUSH1 0x0 PUSH1 0x20 DUP3 ADD SWAP1 POP DUP2 DUP2 SUB PUSH1 0x0 DUP4 ADD MSTORE PUSH2 0x1DE8 DUP2 PUSH2 0x1BC2 JUMP JUMPDEST SWAP1 POP SWAP2 SWAP1 POP JUMP JUMPDEST PUSH1 0x0 PUSH1 0x20 DUP3 ADD SWAP1 POP PUSH2 0x1E04 PUSH1 0x0 DUP4 ADD DUP5 PUSH2 0x1BE5 JUMP JUMPDEST SWAP3 SWAP2 POP POP JUMP JUMPDEST PUSH1 0x0 PUSH2 0x1E14 PUSH2 0x1E25 JUMP JUMPDEST SWAP1 POP PUSH2 0x1E20 DUP3 DUP3 PUSH2 0x220F JUMP JUMPDEST SWAP2 SWAP1 POP JUMP JUMPDEST PUSH1 0x0 PUSH1 0x40 MLOAD SWAP1 POP SWAP1 JUMP JUMPDEST PUSH1 0x0 PUSH8 0xFFFFFFFFFFFFFFFF DUP3 GT ISZERO PUSH2 0x1E4A JUMPI PUSH2 0x1E49 PUSH2 0x23BD JUMP JUMPDEST JUMPDEST PUSH1 0x20 DUP3 MUL SWAP1 POP SWAP2 SWAP1 POP JUMP JUMPDEST PUSH1 0x0 PUSH8 0xFFFFFFFFFFFFFFFF DUP3 GT ISZERO PUSH2 0x1E70 JUMPI PUSH2 0x1E6F PUSH2 0x23BD JUMP JUMPDEST JUMPDEST PUSH1 0x20 DUP3 MUL SWAP1 POP PUSH1 0x20 DUP2 ADD SWAP1 POP SWAP2 SWAP1 POP JUMP JUMPDEST PUSH1 0x0 PUSH8 0xFFFFFFFFFFFFFFFF DUP3 GT ISZERO PUSH2 0x1E9C JUMPI PUSH2 0x1E9B PUSH2 0x23BD JUMP JUMPDEST JUMPDEST PUSH1 0x20 DUP3 MUL SWAP1 POP SWAP2 SWAP1 POP JUMP JUMPDEST PUSH1 0x0 PUSH8 0xFFFFFFFFFFFFFFFF DUP3 GT ISZERO PUSH2 0x1EC2 JUMPI PUSH2 0x1EC1 PUSH2 0x23BD JUMP JUMPDEST JUMPDEST PUSH2 0x1ECB DUP3 PUSH2 0x2405 JUMP JUMPDEST SWAP1 POP PUSH1 0x20 DUP2 ADD SWAP1 POP SWAP2 SWAP1 POP JUMP JUMPDEST PUSH1 0x0 DUP2 MLOAD SWAP1 POP SWAP2 SWAP1 POP JUMP JUMPDEST PUSH1 0x0 DUP3 DUP3 MSTORE PUSH1 0x20 DUP3 ADD SWAP1 POP SWAP3 SWAP2 POP POP JUMP JUMPDEST PUSH1 0x0 DUP2 SWAP1 POP SWAP3 SWAP2 POP POP JUMP JUMPDEST PUSH1 0x0 PUSH2 0x1F0A DUP3 PUSH2 0x2155 JUMP JUMPDEST SWAP2 POP PUSH2 0x1F15 DUP4 PUSH2 0x2155 JUMP JUMPDEST SWAP3 POP DUP2 PUSH32 0x7FFFFFFFFFFFFFFFFFFFFFFFFFFFFFFFFFFFFFFFFFFFFFFFFFFFFFFFFFFFFFFF SUB DUP4 SGT PUSH1 0x0 DUP4 SLT ISZERO AND ISZERO PUSH2 0x1F50 JUMPI PUSH2 0x1F4F PUSH2 0x22D2 JUMP JUMPDEST JUMPDEST DUP2 PUSH32 0x8000000000000000000000000000000000000000000000000000000000000000 SUB DUP4 SLT PUSH1 0x0 DUP4 SLT AND ISZERO PUSH2 0x1F88 JUMPI PUSH2 0x1F87 PUSH2 0x22D2 JUMP JUMPDEST JUMPDEST DUP3 DUP3 ADD SWAP1 POP SWAP3 SWAP2 POP POP JUMP JUMPDEST PUSH1 0x0 PUSH2 0x1F9E DUP3 PUSH2 0x217F JUMP JUMPDEST SWAP2 POP PUSH2 0x1FA9 DUP4 PUSH2 0x217F JUMP JUMPDEST SWAP3 POP DUP3 PUSH32 0xFFFFFFFFFFFFFFFFFFFFFFFFFFFFFFFFFFFFFFFFFFFFFFFFFFFFFFFFFFFFFFFF SUB DUP3 GT ISZERO PUSH2 0x1FDE JUMPI PUSH2 0x1FDD PUSH2 0x22D2 JUMP JUMPDEST JUMPDEST DUP3 DUP3 ADD SWAP1 POP SWAP3 SWAP2 POP POP JUMP JUMPDEST PUSH1 0x0 PUSH2 0x1FF4 DUP3 PUSH2 0x2155 JUMP JUMPDEST SWAP2 POP PUSH2 0x1FFF DUP4 PUSH2 0x2155 JUMP JUMPDEST SWAP3 POP DUP3 PUSH2 0x200F JUMPI PUSH2 0x200E PUSH2 0x2301 JUMP JUMPDEST JUMPDEST PUSH1 0x1 PUSH1 0x0 SUB DUP4 EQ PUSH32 0x8000000000000000000000000000000000000000000000000000000000000000 DUP4 EQ AND ISZERO PUSH2 0x2048 JUMPI PUSH2 0x2047 PUSH2 0x22D2 JUMP JUMPDEST JUMPDEST DUP3 DUP3 SDIV SWAP1 POP SWAP3 SWAP2 POP POP JUMP JUMPDEST PUSH1 0x0 PUSH2 0x205E DUP3 PUSH2 0x217F JUMP JUMPDEST SWAP2 POP PUSH2 0x2069 DUP4 PUSH2 0x217F JUMP JUMPDEST SWAP3 POP DUP3 PUSH2 0x2079 JUMPI PUSH2 0x2078 PUSH2 0x2301 JUMP JUMPDEST JUMPDEST DUP3 DUP3 DIV SWAP1 POP SWAP3 SWAP2 POP POP JUMP JUMPDEST PUSH1 0x0 PUSH2 0x208F DUP3 PUSH2 0x217F JUMP JUMPDEST SWAP2 POP PUSH2 0x209A DUP4 PUSH2 0x217F JUMP JUMPDEST SWAP3 POP DUP2 PUSH32 0xFFFFFFFFFFFFFFFFFFFFFFFFFFFFFFFFFFFFFFFFFFFFFFFFFFFFFFFFFFFFFFFF DIV DUP4 GT DUP3 ISZERO ISZERO AND ISZERO PUSH2 0x20D3 JUMPI PUSH2 0x20D2 PUSH2 0x22D2 JUMP JUMPDEST JUMPDEST DUP3 DUP3 MUL SWAP1 POP SWAP3 SWAP2 POP POP JUMP JUMPDEST PUSH1 0x0 PUSH2 0x20E9 DUP3 PUSH2 0x217F JUMP JUMPDEST SWAP2 POP PUSH2 0x20F4 DUP4 PUSH2 0x217F JUMP JUMPDEST SWAP3 POP DUP3 DUP3 LT ISZERO PUSH2 0x2107 JUMPI PUSH2 0x2106 PUSH2 0x22D2 JUMP JUMPDEST JUMPDEST DUP3 DUP3 SUB SWAP1 POP SWAP3 SWAP2 POP POP JUMP JUMPDEST PUSH1 0x0 PUSH2 0x211D DUP3 PUSH2 0x215F JUMP JUMPDEST SWAP1 POP SWAP2 SWAP1 POP JUMP JUMPDEST PUSH1 0x0 PUSH2 0x212F DUP3 PUSH2 0x215F JUMP JUMPDEST SWAP1 POP SWAP2 SWAP1 POP JUMP JUMPDEST PUSH1 0x0 DUP2 ISZERO ISZERO SWAP1 POP SWAP2 SWAP1 POP JUMP JUMPDEST PUSH1 0x0 DUP2 SWAP1 POP PUSH2 0x2150 DUP3 PUSH2 0x2625 JUMP JUMPDEST SWAP2 SWAP1 POP JUMP JUMPDEST PUSH1 0x0 DUP2 SWAP1 POP SWAP2 SWAP1 POP JUMP JUMPDEST PUSH1 0x0 PUSH20 0xFFFFFFFFFFFFFFFFFFFFFFFFFFFFFFFFFFFFFFFF DUP3 AND SWAP1 POP SWAP2 SWAP1 POP JUMP JUMPDEST PUSH1 0x0 DUP2 SWAP1 POP SWAP2 SWAP1 POP JUMP JUMPDEST PUSH1 0x0 PUSH2 0x2194 DUP3 PUSH2 0x2142 JUMP JUMPDEST SWAP1 POP SWAP2 SWAP1 POP JUMP JUMPDEST DUP3 DUP2 DUP4 CALLDATACOPY PUSH1 0x0 DUP4 DUP4 ADD MSTORE POP POP POP JUMP JUMPDEST PUSH1 0x0 JUMPDEST DUP4 DUP2 LT ISZERO PUSH2 0x21C8 JUMPI DUP1 DUP3 ADD MLOAD DUP2 DUP5 ADD MSTORE PUSH1 0x20 DUP2 ADD SWAP1 POP PUSH2 0x21AD JUMP JUMPDEST DUP4 DUP2 GT ISZERO PUSH2 0x21D7 JUMPI PUSH1 0x0 DUP5 DUP5 ADD MSTORE JUMPDEST POP POP POP POP JUMP JUMPDEST PUSH1 0x0 PUSH1 0x2 DUP3 DIV SWAP1 POP PUSH1 0x1 DUP3 AND DUP1 PUSH2 0x21F5 JUMPI PUSH1 0x7F DUP3 AND SWAP2 POP JUMPDEST PUSH1 0x20 DUP3 LT DUP2 EQ ISZERO PUSH2 0x2209 JUMPI PUSH2 0x2208 PUSH2 0x235F JUMP JUMPDEST JUMPDEST POP SWAP2 SWAP1 POP JUMP JUMPDEST PUSH2 0x2218 DUP3 PUSH2 0x2405 JUMP JUMPDEST DUP2 ADD DUP2 DUP2 LT PUSH8 0xFFFFFFFFFFFFFFFF DUP3 GT OR ISZERO PUSH2 0x2237 JUMPI PUSH2 0x2236 PUSH2 0x23BD JUMP JUMPDEST JUMPDEST DUP1 PUSH1 0x40 MSTORE POP POP POP JUMP JUMPDEST PUSH1 0x0 PUSH2 0x224B DUP3 PUSH2 0x2155 JUMP JUMPDEST SWAP2 POP PUSH32 0x7FFFFFFFFFFFFFFFFFFFFFFFFFFFFFFFFFFFFFFFFFFFFFFFFFFFFFFFFFFFFFFF DUP3 EQ ISZERO PUSH2 0x227E JUMPI PUSH2 0x227D PUSH2 0x22D2 JUMP JUMPDEST JUMPDEST PUSH1 0x1 DUP3 ADD SWAP1 POP SWAP2 SWAP1 POP JUMP JUMPDEST PUSH1 0x0 PUSH2 0x2294 DUP3 PUSH2 0x217F JUMP JUMPDEST SWAP2 POP PUSH32 0xFFFFFFFFFFFFFFFFFFFFFFFFFFFFFFFFFFFFFFFFFFFFFFFFFFFFFFFFFFFFFFFF DUP3 EQ ISZERO PUSH2 0x22C7 JUMPI PUSH2 0x22C6 PUSH2 0x22D2 JUMP JUMPDEST JUMPDEST PUSH1 0x1 DUP3 ADD SWAP1 POP SWAP2 SWAP1 POP JUMP JUMPDEST PUSH32 0x4E487B7100000000000000000000000000000000000000000000000000000000 PUSH1 0x0 MSTORE PUSH1 0x11 PUSH1 0x4 MSTORE PUSH1 0x24 PUSH1 0x0 REVERT JUMPDEST PUSH32 0x4E487B7100000000000000000000000000000000000000000000000000000000 PUSH1 0x0 MSTORE PUSH1 0x12 PUSH1 0x4 MSTORE PUSH1 0x24 PUSH1 0x0 REVERT JUMPDEST PUSH32 0x4E487B7100000000000000000000000000000000000000000000000000000000 PUSH1 0x0 MSTORE PUSH1 0x21 PUSH1 0x4 MSTORE PUSH1 0x24 PUSH1 0x0 REVERT JUMPDEST PUSH32 0x4E487B7100000000000000000000000000000000000000000000000000000000 PUSH1 0x0 MSTORE PUSH1 0x22 PUSH1 0x4 MSTORE PUSH1 0x24 PUSH1 0x0 REVERT JUMPDEST PUSH32 0x4E487B7100000000000000000000000000000000000000000000000000000000 PUSH1 0x0 MSTORE PUSH1 0x32 PUSH1 0x4 MSTORE PUSH1 0x24 PUSH1 0x0 REVERT JUMPDEST PUSH32 0x4E487B7100000000000000000000000000000000000000000000000000000000 PUSH1 0x0 MSTORE PUSH1 0x41 PUSH1 0x4 MSTORE PUSH1 0x24 PUSH1 0x0 REVERT JUMPDEST PUSH1 0x0 DUP1 REVERT JUMPDEST PUSH1 0x0 DUP1 REVERT JUMPDEST PUSH1 0x0 DUP1 REVERT JUMPDEST PUSH1 0x0 DUP1 REVERT JUMPDEST PUSH1 0x0 DUP1 REVERT JUMPDEST PUSH1 0x0 PUSH1 0x1F NOT PUSH1 0x1F DUP4 ADD AND SWAP1 POP SWAP2 SWAP1 POP JUMP JUMPDEST PUSH32 0x43616E6E6F742063616C6C20746869732066756E6374696F6E20646972656374 PUSH1 0x0 DUP3 ADD MSTORE PUSH32 0x6C792C207573652056656E646F72466163746F72792E00000000000000000000 PUSH1 0x20 DUP3 ADD MSTORE POP JUMP JUMPDEST PUSH32 0x526566756E64696E67207061796D656E742E0000000000000000000000000000 PUSH1 0x0 DUP3 ADD MSTORE POP JUMP JUMPDEST PUSH32 0x53656E64696E67207061796D656E742E00000000000000000000000000000000 PUSH1 0x0 DUP3 ADD MSTORE POP JUMP JUMPDEST PUSH32 0x3D3D000000000000000000000000000000000000000000000000000000000000 PUSH1 0x0 DUP3 ADD MSTORE POP JUMP JUMPDEST PUSH32 0x3C00000000000000000000000000000000000000000000000000000000000000 PUSH1 0x0 DUP3 ADD MSTORE POP JUMP JUMPDEST PUSH32 0x213D000000000000000000000000000000000000000000000000000000000000 PUSH1 0x0 DUP3 ADD MSTORE POP JUMP JUMPDEST PUSH32 0x3D3E000000000000000000000000000000000000000000000000000000000000 PUSH1 0x0 DUP3 ADD MSTORE POP JUMP JUMPDEST PUSH32 0x3C3D000000000000000000000000000000000000000000000000000000000000 PUSH1 0x0 DUP3 ADD MSTORE POP JUMP JUMPDEST PUSH32 0x3E00000000000000000000000000000000000000000000000000000000000000 PUSH1 0x0 DUP3 ADD MSTORE POP JUMP JUMPDEST PUSH32 0x4E6F742077697468696E207468652062696C6C696E6720706572696F64000000 PUSH1 0x0 DUP3 ADD MSTORE POP JUMP JUMPDEST PUSH32 0x436F6E7472616374206973206E6F7420696E2074686520726571756972656420 PUSH1 0x0 DUP3 ADD MSTORE PUSH32 0x7374617465000000000000000000000000000000000000000000000000000000 PUSH1 0x20 DUP3 ADD MSTORE POP JUMP JUMPDEST PUSH1 0x5 DUP2 LT PUSH2 0x2636 JUMPI PUSH2 0x2635 PUSH2 0x2330 JUMP JUMPDEST JUMPDEST POP JUMP JUMPDEST PUSH2 0x2642 DUP2 PUSH2 0x2112 JUMP JUMPDEST DUP2 EQ PUSH2 0x264D JUMPI PUSH1 0x0 DUP1 REVERT JUMPDEST POP JUMP JUMPDEST PUSH2 0x2659 DUP2 PUSH2 0x2155 JUMP JUMPDEST DUP2 EQ PUSH2 0x2664 JUMPI PUSH1 0x0 DUP1 REVERT JUMPDEST POP JUMP JUMPDEST PUSH2 0x2670 DUP2 PUSH2 0x217F JUMP JUMPDEST DUP2 EQ PUSH2 0x267B JUMPI PUSH1 0x0 DUP1 REVERT JUMPDEST POP JUMP INVALID LOG2 PUSH5 0x6970667358 0x22 SLT KECCAK256 0xB2 RETURN 0x2B PUSH21 0x85ED4DA3BBBE12CA26CC9F7FDB49F78FF1E5B1E03C 0x5C 0xF7 0xDA DUP9 0xB4 PUSH5 0xE164736F6C PUSH4 0x43000806 STOP CALLER "
    },
    "gasEstimates": {
      "creation": {
        "codeDepositCost": "1981600",
        "executionCost": "infinite",
        "totalCost": "infinite"
      },
      "external": {
        "admin()": "2621",
        "amount()": "2451",
        "approve()": "53321",
        "balanceOf()": "472",
        "client()": "2582",
        "conditionArray(uint256)": "infinite",
        "contractHash()": "2518",
        "creationDate()": "2453",
        "destroy()": "32189",
        "endInitStage()": "infinite",
        "expiryDate()": "2540",
        "init(address,address,uint256,uint256,uint256,uint256,uint256,uint256)": "infinite",
        "nextBillingDate()": "2518",
        "payee()": "2558",
        "payeeApproved()": "2654",
        "prevBillingDate()": "2474",
        "receiveServiceData(int256[])": "infinite",
        "satisfied()": "2538",
        "setActive()": "26770",
        "setConds(string[8],int256[8],string[8])": "infinite",
        "setInactive()": "26835",
        "stage()": "2676",
        "storePayment()": "infinite"
      },
      "internal": {
        "calcDate(uint256)": "infinite",
        "condValid(int256,int256,int256)": "229",
        "initOperators()": "infinite",
        "isSatisfied()": "infinite",
        "payVendor()": "infinite",
        "refund()": "infinite",
        "setNewDates()": "infinite"
      }
    },
    "methodIdentifiers": {
      "admin()": "f851a440",
      "amount()": "aa8c217c",
      "approve()": "12424e3f",
      "balanceOf()": "722713f7",
      "client()": "109e94cf",
      "conditionArray(uint256)": "182541d2",
      "contractHash()": "904c6094",
      "creationDate()": "05b34410",
      "destroy()": "83197ef0",
      "endInitStage()": "9503fe3d",
      "expiryDate()": "516dde43",
      "init(address,address,uint256,uint256,uint256,uint256,uint256,uint256)": "0d4b8cb9",
      "nextBillingDate()": "43885314",
      "payee()": "ae90b213",
      "payeeApproved()": "97c0bba1",
      "prevBillingDate()": "25419c24",
      "receiveServiceData(int256[])": "21ce5afd",
      "satisfied()": "3a40f3b2",
      "setActive()": "760a8c2a",
      "setConds(string[8],int256[8],string[8])": "fadeaa59",
      "setInactive()": "f1b9ee24",
      "stage()": "c040e6b8",
      "storePayment()": "84ac4446"
    }
  },
  "storageLayout": {
    "storage": [
      {
        "astId": 41,
        "contract": "Vendor.sol:Vendor",
        "label": "admin",
        "offset": 0,
        "slot": "0",
        "type": "t_address"
      },
      {
        "astId": 43,
        "contract": "Vendor.sol:Vendor",
        "label": "client",
        "offset": 0,
        "slot": "1",
        "type": "t_address_payable"
      },
      {
        "astId": 45,
        "contract": "Vendor.sol:Vendor",
        "label": "payee",
        "offset": 0,
        "slot": "2",
        "type": "t_address_payable"
      },
      {
        "astId": 47,
        "contract": "Vendor.sol:Vendor",
        "label": "payeeApproved",
        "offset": 20,
        "slot": "2",
        "type": "t_bool"
      },
      {
        "astId": 58,
        "contract": "Vendor.sol:Vendor",
        "label": "stage",
        "offset": 21,
        "slot": "2",
        "type": "t_enum(Stages)53"
      },
      {
        "astId": 60,
        "contract": "Vendor.sol:Vendor",
        "label": "creationDate",
        "offset": 0,
        "slot": "3",
        "type": "t_uint256"
      },
      {
        "astId": 62,
        "contract": "Vendor.sol:Vendor",
        "label": "expiryDate",
        "offset": 0,
        "slot": "4",
        "type": "t_uint256"
      },
      {
        "astId": 64,
        "contract": "Vendor.sol:Vendor",
        "label": "amount",
        "offset": 0,
        "slot": "5",
        "type": "t_uint256"
      },
      {
        "astId": 66,
        "contract": "Vendor.sol:Vendor",
        "label": "prevBillingDate",
        "offset": 0,
        "slot": "6",
        "type": "t_uint256"
      },
      {
        "astId": 68,
        "contract": "Vendor.sol:Vendor",
        "label": "nextBillingDate",
        "offset": 0,
        "slot": "7",
        "type": "t_uint256"
      },
      {
        "astId": 70,
        "contract": "Vendor.sol:Vendor",
        "label": "contractHash",
        "offset": 0,
        "slot": "8",
        "type": "t_uint256"
      },
      {
        "astId": 73,
        "contract": "Vendor.sol:Vendor",
        "label": "satisfied",
        "offset": 0,
        "slot": "9",
        "type": "t_bool"
      },
      {
        "astId": 84,
        "contract": "Vendor.sol:Vendor",
        "label": "conditionArray",
        "offset": 0,
        "slot": "10",
        "type": "t_array(t_struct(Conditions)80_storage)dyn_storage"
      },
      {
        "astId": 88,
        "contract": "Vendor.sol:Vendor",
        "label": "operators",
        "offset": 0,
        "slot": "11",
        "type": "t_mapping(t_string_memory_ptr,t_int256)"
      },
      {
        "astId": 100,
        "contract": "Vendor.sol:Vendor",
        "label": "blocksSecond",
        "offset": 0,
        "slot": "12",
        "type": "t_uint256"
      },
      {
        "astId": 104,
        "contract": "Vendor.sol:Vendor",
        "label": "cumulative",
        "offset": 0,
        "slot": "13",
        "type": "t_mapping(t_uint256,t_int256)"
      },
      {
        "astId": 106,
        "contract": "Vendor.sol:Vendor",
        "label": "count",
        "offset": 0,
        "slot": "14",
        "type": "t_int256"
      }
    ],
    "types": {
      "t_address": {
        "encoding": "inplace",
        "label": "address",
        "numberOfBytes": "20"
      },
      "t_address_payable": {
        "encoding": "inplace",
        "label": "address payable",
        "numberOfBytes": "20"
      },
      "t_array(t_struct(Conditions)80_storage)dyn_storage": {
        "base": "t_struct(Conditions)80_storage",
        "encoding": "dynamic_array",
        "label": "struct Vendor.Conditions[]",
        "numberOfBytes": "32"
      },
      "t_bool": {
        "encoding": "inplace",
        "label": "bool",
        "numberOfBytes": "1"
      },
      "t_enum(Stages)53": {
        "encoding": "inplace",
        "label": "enum Vendor.Stages",
        "numberOfBytes": "1"
      },
      "t_int256": {
        "encoding": "inplace",
        "label": "int256",
        "numberOfBytes": "32"
      },
      "t_mapping(t_string_memory_ptr,t_int256)": {
        "encoding": "mapping",
        "key": "t_string_memory_ptr",
        "label": "mapping(string => int256)",
        "numberOfBytes": "32",
        "value": "t_int256"
      },
      "t_mapping(t_uint256,t_int256)": {
        "encoding": "mapping",
        "key": "t_uint256",
        "label": "mapping(uint256 => int256)",
        "numberOfBytes": "32",
        "value": "t_int256"
      },
      "t_string_memory_ptr": {
        "encoding": "bytes",
        "label": "string",
        "numberOfBytes": "32"
      },
      "t_string_storage": {
        "encoding": "bytes",
        "label": "string",
        "numberOfBytes": "32"
      },
      "t_struct(Conditions)80_storage": {
        "encoding": "inplace",
        "label": "struct Vendor.Conditions",
        "members": [
          {
            "astId": 75,
            "contract": "Vendor.sol:Vendor",
            "label": "name",
            "offset": 0,
            "slot": "0",
            "type": "t_string_storage"
          },
          {
            "astId": 77,
            "contract": "Vendor.sol:Vendor",
            "label": "value",
            "offset": 0,
            "slot": "1",
            "type": "t_int256"
          },
          {
            "astId": 79,
            "contract": "Vendor.sol:Vendor",
            "label": "operator",
            "offset": 0,
            "slot": "2",
            "type": "t_int256"
          }
        ],
        "numberOfBytes": "96"
      },
      "t_uint256": {
        "encoding": "inplace",
        "label": "uint256",
        "numberOfBytes": "32"
      }
    }
  },
  "userdoc": {
    "kind": "user",
    "methods": {},
    "version": 1
  }
}