{
  "abi": [
    {
      "anonymous": false,
      "inputs": [
        {
          "indexed": true,
          "internalType": "address",
          "name": "sender",
          "type": "address"
        },
        {
          "indexed": false,
          "internalType": "bool",
          "name": "isSatisfied",
          "type": "bool"
        },
        {
          "indexed": false,
          "internalType": "string",
          "name": "message",
          "type": "string"
        }
      ],
      "name": "State",
      "type": "event"
    },
    {
      "inputs": [],
      "name": "admin",
      "outputs": [
        {
          "internalType": "address",
          "name": "",
          "type": "address"
        }
      ],
      "stateMutability": "view",
      "type": "function"
    },
    {
      "inputs": [],
      "name": "amount",
      "outputs": [
        {
          "internalType": "uint256",
          "name": "",
          "type": "uint256"
        }
      ],
      "stateMutability": "view",
      "type": "function"
    },
    {
      "inputs": [],
      "name": "approve",
      "outputs": [],
      "stateMutability": "nonpayable",
      "type": "function"
    },
    {
      "inputs": [],
      "name": "balanceOf",
      "outputs": [
        {
          "internalType": "uint256",
          "name": "",
          "type": "uint256"
        }
      ],
      "stateMutability": "view",
      "type": "function"
    },
    {
      "inputs": [],
      "name": "client",
      "outputs": [
        {
          "internalType": "address payable",
          "name": "",
          "type": "address"
        }
      ],
      "stateMutability": "view",
      "type": "function"
    },
    {
      "inputs": [
        {
          "internalType": "uint256",
          "name": "",
          "type": "uint256"
        }
      ],
      "name": "conditionArray",
      "outputs": [
        {
          "internalType": "int256",
          "name": "value",
          "type": "int256"
        },
        {
          "internalType": "int256",
          "name": "operator",
          "type": "int256"
        },
        {
          "internalType": "string",
          "name": "name",
          "type": "string"
        }
      ],
      "stateMutability": "view",
      "type": "function"
    },
    {
      "inputs": [],
      "name": "contractHash",
      "outputs": [
        {
          "internalType": "uint256",
          "name": "",
          "type": "uint256"
        }
      ],
      "stateMutability": "view",
      "type": "function"
    },
    {
      "inputs": [],
      "name": "destroy",
      "outputs": [],
      "stateMutability": "nonpayable",
      "type": "function"
    },
    {
      "inputs": [],
      "name": "endInitStage",
      "outputs": [],
      "stateMutability": "nonpayable",
      "type": "function"
    },
    {
      "inputs": [],
      "name": "expiryDate",
      "outputs": [
        {
          "internalType": "uint256",
          "name": "",
          "type": "uint256"
        }
      ],
      "stateMutability": "view",
      "type": "function"
    },
    {
      "inputs": [],
      "name": "getDetails",
      "outputs": [
        {
          "internalType": "address",
          "name": "",
          "type": "address"
        },
        {
          "internalType": "address",
          "name": "",
          "type": "address"
        },
        {
          "internalType": "uint256",
          "name": "",
          "type": "uint256"
        },
        {
          "internalType": "uint256",
          "name": "",
          "type": "uint256"
        },
        {
          "internalType": "uint256",
          "name": "",
          "type": "uint256"
        },
        {
          "internalType": "uint256",
          "name": "",
          "type": "uint256"
        },
        {
          "internalType": "uint256",
          "name": "",
          "type": "uint256"
        },
        {
          "internalType": "uint256",
          "name": "",
          "type": "uint256"
        }
      ],
      "stateMutability": "view",
      "type": "function"
    },
    {
      "inputs": [
        {
          "internalType": "address",
          "name": "_client",
          "type": "address"
        },
        {
          "internalType": "uint256",
          "name": "_expiredOn",
          "type": "uint256"
        },
        {
          "internalType": "uint256",
          "name": "_startDate",
          "type": "uint256"
        },
        {
          "internalType": "uint256",
          "name": "_contractHash",
          "type": "uint256"
        },
        {
          "internalType": "uint256",
          "name": "_amount",
          "type": "uint256"
        }
      ],
      "name": "init",
      "outputs": [],
      "stateMutability": "nonpayable",
      "type": "function"
    },
    {
      "inputs": [],
      "name": "nextBillingDate",
      "outputs": [
        {
          "internalType": "uint256",
          "name": "",
          "type": "uint256"
        }
      ],
      "stateMutability": "view",
      "type": "function"
    },
    {
      "inputs": [],
      "name": "payee",
      "outputs": [
        {
          "internalType": "address payable",
          "name": "",
          "type": "address"
        }
      ],
      "stateMutability": "view",
      "type": "function"
    },
    {
      "inputs": [],
      "name": "payeeApproved",
      "outputs": [
        {
          "internalType": "bool",
          "name": "",
          "type": "bool"
        }
      ],
      "stateMutability": "view",
      "type": "function"
    },
    {
      "inputs": [],
      "name": "prevBillingDate",
      "outputs": [
        {
          "internalType": "uint256",
          "name": "",
          "type": "uint256"
        }
      ],
      "stateMutability": "view",
      "type": "function"
    },
    {
      "inputs": [
        {
          "internalType": "int256[]",
          "name": "_cumulative",
          "type": "int256[]"
        }
      ],
      "name": "receiveServiceData",
      "outputs": [],
      "stateMutability": "nonpayable",
      "type": "function"
    },
    {
      "inputs": [],
      "name": "satisfied",
      "outputs": [
        {
          "internalType": "bool",
          "name": "",
          "type": "bool"
        }
      ],
      "stateMutability": "view",
      "type": "function"
    },
    {
      "inputs": [],
      "name": "setActive",
      "outputs": [],
      "stateMutability": "nonpayable",
      "type": "function"
    },
    {
      "inputs": [
        {
          "internalType": "string[8]",
          "name": "_names",
          "type": "string[8]"
        },
        {
          "internalType": "int256[8]",
          "name": "_values",
          "type": "int256[8]"
        },
        {
          "internalType": "string[8]",
          "name": "_operators",
          "type": "string[8]"
        }
      ],
      "name": "setConds",
      "outputs": [],
      "stateMutability": "nonpayable",
      "type": "function"
    },
    {
      "inputs": [],
      "name": "setInactive",
      "outputs": [],
      "stateMutability": "nonpayable",
      "type": "function"
    },
    {
      "inputs": [
        {
          "internalType": "address",
          "name": "_payee",
          "type": "address"
        }
      ],
      "name": "setPayee",
      "outputs": [],
      "stateMutability": "nonpayable",
      "type": "function"
    },
    {
      "inputs": [],
      "name": "stage",
      "outputs": [
        {
          "internalType": "enum Vendor.Stages",
          "name": "",
          "type": "uint8"
        }
      ],
      "stateMutability": "view",
      "type": "function"
    },
    {
      "inputs": [],
      "name": "startDate",
      "outputs": [
        {
          "internalType": "uint256",
          "name": "",
          "type": "uint256"
        }
      ],
      "stateMutability": "view",
      "type": "function"
    },
    {
      "inputs": [],
      "name": "storePayment",
      "outputs": [],
      "stateMutability": "payable",
      "type": "function"
    }
  ],
  "devdoc": {
    "kind": "dev",
    "methods": {},
    "version": 1
  },
  "evm": {
    "assembly": "    /* \"Vendor.sol\":151:8351  contract Vendor {... */\n  mstore(0x40, 0x80)\n    /* \"Vendor.sol\":615:634  Stages.Initialising */\n  0x00\n    /* \"Vendor.sol\":593:634  Stages public stage = Stages.Initialising */\n  0x09\n  exp(0x0100, 0x00)\n  dup2\n  sload\n  dup2\n  0xff\n  mul\n  not\n  and\n  swap1\n  dup4\n  0x04\n  dup2\n  gt\n  iszero\n  tag_1\n  jumpi\n  tag_2\n  tag_3\n  jump\t// in\ntag_2:\ntag_1:\n  mul\n  or\n  swap1\n  sstore\n  pop\n    /* \"Vendor.sol\":665:670  false */\n  0x00\n    /* \"Vendor.sol\":641:670  bool public satisfied = false */\n  0x09\n  exp(0x0100, 0x01)\n  dup2\n  sload\n  dup2\n  0xff\n  mul\n  not\n  and\n  swap1\n  dup4\n  iszero\n  iszero\n  mul\n  or\n  swap1\n  sstore\n  pop\n    /* \"Vendor.sol\":151:8351  contract Vendor {... */\n  callvalue\n  dup1\n  iszero\n  tag_4\n  jumpi\n  0x00\n  dup1\n  revert\ntag_4:\n  pop\n  jump(tag_5)\n    /* \"#utility.yul\":7:187   */\ntag_3:\n    /* \"#utility.yul\":55:132   */\n  0x4e487b7100000000000000000000000000000000000000000000000000000000\n    /* \"#utility.yul\":52:53   */\n  0x00\n    /* \"#utility.yul\":45:133   */\n  mstore\n    /* \"#utility.yul\":152:156   */\n  0x21\n    /* \"#utility.yul\":149:150   */\n  0x04\n    /* \"#utility.yul\":142:157   */\n  mstore\n    /* \"#utility.yul\":176:180   */\n  0x24\n    /* \"#utility.yul\":173:174   */\n  0x00\n    /* \"#utility.yul\":166:181   */\n  revert\n    /* \"Vendor.sol\":151:8351  contract Vendor {... */\ntag_5:\n  dataSize(sub_0)\n  dup1\n  dataOffset(sub_0)\n  0x00\n  codecopy\n  0x00\n  return\nstop\n\nsub_0: assembly {\n        /* \"Vendor.sol\":151:8351  contract Vendor {... */\n      mstore(0x40, 0x80)\n      jumpi(tag_1, lt(calldatasize, 0x04))\n      shr(0xe0, calldataload(0x00))\n      dup1\n      0x83197ef0\n      gt\n      tag_27\n      jumpi\n      dup1\n      0xaa8c217c\n      gt\n      tag_28\n      jumpi\n      dup1\n      0xf1b9ee24\n      gt\n      tag_29\n      jumpi\n      dup1\n      0xf1b9ee24\n      eq\n      tag_23\n      jumpi\n      dup1\n      0xf851a440\n      eq\n      tag_24\n      jumpi\n      dup1\n      0xfadeaa59\n      eq\n      tag_25\n      jumpi\n      dup1\n      0xfbbf93a0\n      eq\n      tag_26\n      jumpi\n      jump(tag_1)\n    tag_29:\n      dup1\n      0xaa8c217c\n      eq\n      tag_20\n      jumpi\n      dup1\n      0xae90b213\n      eq\n      tag_21\n      jumpi\n      dup1\n      0xc040e6b8\n      eq\n      tag_22\n      jumpi\n      jump(tag_1)\n    tag_28:\n      dup1\n      0x83197ef0\n      eq\n      tag_14\n      jumpi\n      dup1\n      0x84ac4446\n      eq\n      tag_15\n      jumpi\n      dup1\n      0x904c6094\n      eq\n      tag_16\n      jumpi\n      dup1\n      0x9503fe3d\n      eq\n      tag_17\n      jumpi\n      dup1\n      0x97c0bba1\n      eq\n      tag_18\n      jumpi\n      dup1\n      0x9a730617\n      eq\n      tag_19\n      jumpi\n      jump(tag_1)\n    tag_27:\n      dup1\n      0x3a40f3b2\n      gt\n      tag_30\n      jumpi\n      dup1\n      0x3a40f3b2\n      eq\n      tag_8\n      jumpi\n      dup1\n      0x410459ad\n      eq\n      tag_9\n      jumpi\n      dup1\n      0x43885314\n      eq\n      tag_10\n      jumpi\n      dup1\n      0x516dde43\n      eq\n      tag_11\n      jumpi\n      dup1\n      0x722713f7\n      eq\n      tag_12\n      jumpi\n      dup1\n      0x760a8c2a\n      eq\n      tag_13\n      jumpi\n      jump(tag_1)\n    tag_30:\n      dup1\n      0x0b97bc86\n      eq\n      tag_2\n      jumpi\n      dup1\n      0x109e94cf\n      eq\n      tag_3\n      jumpi\n      dup1\n      0x12424e3f\n      eq\n      tag_4\n      jumpi\n      dup1\n      0x182541d2\n      eq\n      tag_5\n      jumpi\n      dup1\n      0x21ce5afd\n      eq\n      tag_6\n      jumpi\n      dup1\n      0x25419c24\n      eq\n      tag_7\n      jumpi\n    tag_1:\n      0x00\n      dup1\n      revert\n        /* \"Vendor.sol\":300:321  uint public startDate */\n    tag_2:\n      callvalue\n      dup1\n      iszero\n      tag_31\n      jumpi\n      0x00\n      dup1\n      revert\n    tag_31:\n      pop\n      tag_32\n      tag_33\n      jump\t// in\n    tag_32:\n      mload(0x40)\n      tag_34\n      swap2\n      swap1\n      tag_35\n      jump\t// in\n    tag_34:\n      mload(0x40)\n      dup1\n      swap2\n      sub\n      swap1\n      return\n        /* \"Vendor.sol\":199:228  address payable public client */\n    tag_3:\n      callvalue\n      dup1\n      iszero\n      tag_36\n      jumpi\n      0x00\n      dup1\n      revert\n    tag_36:\n      pop\n      tag_37\n      tag_38\n      jump\t// in\n    tag_37:\n      mload(0x40)\n      tag_39\n      swap2\n      swap1\n      tag_40\n      jump\t// in\n    tag_39:\n      mload(0x40)\n      dup1\n      swap2\n      sub\n      swap1\n      return\n        /* \"Vendor.sol\":3653:3869  function approve() external atStage(Stages.Pending) {... */\n    tag_4:\n      callvalue\n      dup1\n      iszero\n      tag_41\n      jumpi\n      0x00\n      dup1\n      revert\n    tag_41:\n      pop\n      tag_42\n      tag_43\n      jump\t// in\n    tag_42:\n      stop\n        /* \"Vendor.sol\":901:935  Conditions[] public conditionArray */\n    tag_5:\n      callvalue\n      dup1\n      iszero\n      tag_44\n      jumpi\n      0x00\n      dup1\n      revert\n    tag_44:\n      pop\n      tag_45\n      0x04\n      dup1\n      calldatasize\n      sub\n      dup2\n      add\n      swap1\n      tag_46\n      swap2\n      swap1\n      tag_47\n      jump\t// in\n    tag_46:\n      tag_48\n      jump\t// in\n    tag_45:\n      mload(0x40)\n      tag_49\n      swap4\n      swap3\n      swap2\n      swap1\n      tag_50\n      jump\t// in\n    tag_49:\n      mload(0x40)\n      dup1\n      swap2\n      sub\n      swap1\n      return\n        /* \"Vendor.sol\":5090:5330  function receiveServiceData(int[] memory _cumulative) external atStage(Stages.Active) checkBillingDate() {... */\n    tag_6:\n      callvalue\n      dup1\n      iszero\n      tag_51\n      jumpi\n      0x00\n      dup1\n      revert\n    tag_51:\n      pop\n      tag_52\n      0x04\n      dup1\n      calldatasize\n      sub\n      dup2\n      add\n      swap1\n      tag_53\n      swap2\n      swap1\n      tag_54\n      jump\t// in\n    tag_53:\n      tag_55\n      jump\t// in\n    tag_52:\n      stop\n        /* \"Vendor.sol\":379:406  uint public prevBillingDate */\n    tag_7:\n      callvalue\n      dup1\n      iszero\n      tag_56\n      jumpi\n      0x00\n      dup1\n      revert\n    tag_56:\n      pop\n      tag_57\n      tag_58\n      jump\t// in\n    tag_57:\n      mload(0x40)\n      tag_59\n      swap2\n      swap1\n      tag_35\n      jump\t// in\n    tag_59:\n      mload(0x40)\n      dup1\n      swap2\n      sub\n      swap1\n      return\n        /* \"Vendor.sol\":641:670  bool public satisfied = false */\n    tag_8:\n      callvalue\n      dup1\n      iszero\n      tag_60\n      jumpi\n      0x00\n      dup1\n      revert\n    tag_60:\n      pop\n      tag_61\n      tag_62\n      jump\t// in\n    tag_61:\n      mload(0x40)\n      tag_63\n      swap2\n      swap1\n      tag_64\n      jump\t// in\n    tag_63:\n      mload(0x40)\n      dup1\n      swap2\n      sub\n      swap1\n      return\n        /* \"Vendor.sol\":3086:3169  function setPayee(address _payee) external {... */\n    tag_9:\n      callvalue\n      dup1\n      iszero\n      tag_65\n      jumpi\n      0x00\n      dup1\n      revert\n    tag_65:\n      pop\n      tag_66\n      0x04\n      dup1\n      calldatasize\n      sub\n      dup2\n      add\n      swap1\n      tag_67\n      swap2\n      swap1\n      tag_68\n      jump\t// in\n    tag_67:\n      tag_69\n      jump\t// in\n    tag_66:\n      stop\n        /* \"Vendor.sol\":412:439  uint public nextBillingDate */\n    tag_10:\n      callvalue\n      dup1\n      iszero\n      tag_70\n      jumpi\n      0x00\n      dup1\n      revert\n    tag_70:\n      pop\n      tag_71\n      tag_72\n      jump\t// in\n    tag_71:\n      mload(0x40)\n      tag_73\n      swap2\n      swap1\n      tag_35\n      jump\t// in\n    tag_73:\n      mload(0x40)\n      dup1\n      swap2\n      sub\n      swap1\n      return\n        /* \"Vendor.sol\":327:349  uint public expiryDate */\n    tag_11:\n      callvalue\n      dup1\n      iszero\n      tag_74\n      jumpi\n      0x00\n      dup1\n      revert\n    tag_74:\n      pop\n      tag_75\n      tag_76\n      jump\t// in\n    tag_75:\n      mload(0x40)\n      tag_77\n      swap2\n      swap1\n      tag_35\n      jump\t// in\n    tag_77:\n      mload(0x40)\n      dup1\n      swap2\n      sub\n      swap1\n      return\n        /* \"Vendor.sol\":4413:4508  function balanceOf() external view returns (uint) {... */\n    tag_12:\n      callvalue\n      dup1\n      iszero\n      tag_78\n      jumpi\n      0x00\n      dup1\n      revert\n    tag_78:\n      pop\n      tag_79\n      tag_80\n      jump\t// in\n    tag_79:\n      mload(0x40)\n      tag_81\n      swap2\n      swap1\n      tag_35\n      jump\t// in\n    tag_81:\n      mload(0x40)\n      dup1\n      swap2\n      sub\n      swap1\n      return\n        /* \"Vendor.sol\":6982:7075  function setActive() external atStage(Stages.Inactive) {... */\n    tag_13:\n      callvalue\n      dup1\n      iszero\n      tag_82\n      jumpi\n      0x00\n      dup1\n      revert\n    tag_82:\n      pop\n      tag_83\n      tag_84\n      jump\t// in\n    tag_83:\n      stop\n        /* \"Vendor.sol\":7182:7272  function destroy() external atStage(Stages.Inactive) {... */\n    tag_14:\n      callvalue\n      dup1\n      iszero\n      tag_85\n      jumpi\n      0x00\n      dup1\n      revert\n    tag_85:\n      pop\n      tag_86\n      tag_87\n      jump\t// in\n    tag_86:\n      stop\n        /* \"Vendor.sol\":4250:4407  function storePayment() external payable atStage(Stages.Active) checkBillingDate() {... */\n    tag_15:\n      tag_88\n      tag_89\n      jump\t// in\n    tag_88:\n      stop\n        /* \"Vendor.sol\":445:469  uint public contractHash */\n    tag_16:\n      callvalue\n      dup1\n      iszero\n      tag_90\n      jumpi\n      0x00\n      dup1\n      revert\n    tag_90:\n      pop\n      tag_91\n      tag_92\n      jump\t// in\n    tag_91:\n      mload(0x40)\n      tag_93\n      swap2\n      swap1\n      tag_35\n      jump\t// in\n    tag_93:\n      mload(0x40)\n      dup1\n      swap2\n      sub\n      swap1\n      return\n        /* \"Vendor.sol\":3175:3422  function endInitStage() public atStage(Stages.Initialising) {... */\n    tag_17:\n      callvalue\n      dup1\n      iszero\n      tag_94\n      jumpi\n      0x00\n      dup1\n      revert\n    tag_94:\n      pop\n      tag_95\n      tag_96\n      jump\t// in\n    tag_95:\n      stop\n        /* \"Vendor.sol\":268:293  bool public payeeApproved */\n    tag_18:\n      callvalue\n      dup1\n      iszero\n      tag_97\n      jumpi\n      0x00\n      dup1\n      revert\n    tag_97:\n      pop\n      tag_98\n      tag_99\n      jump\t// in\n    tag_98:\n      mload(0x40)\n      tag_100\n      swap2\n      swap1\n      tag_64\n      jump\t// in\n    tag_100:\n      mload(0x40)\n      dup1\n      swap2\n      sub\n      swap1\n      return\n        /* \"Vendor.sol\":1642:2073  function init(address _client, uint _expiredOn, uint _startDate, uint _contractHash, uint _amount) public {... */\n    tag_19:\n      callvalue\n      dup1\n      iszero\n      tag_101\n      jumpi\n      0x00\n      dup1\n      revert\n    tag_101:\n      pop\n      tag_102\n      0x04\n      dup1\n      calldatasize\n      sub\n      dup2\n      add\n      swap1\n      tag_103\n      swap2\n      swap1\n      tag_104\n      jump\t// in\n    tag_103:\n      tag_105\n      jump\t// in\n    tag_102:\n      stop\n        /* \"Vendor.sol\":355:373  uint public amount */\n    tag_20:\n      callvalue\n      dup1\n      iszero\n      tag_106\n      jumpi\n      0x00\n      dup1\n      revert\n    tag_106:\n      pop\n      tag_107\n      tag_108\n      jump\t// in\n    tag_107:\n      mload(0x40)\n      tag_109\n      swap2\n      swap1\n      tag_35\n      jump\t// in\n    tag_109:\n      mload(0x40)\n      dup1\n      swap2\n      sub\n      swap1\n      return\n        /* \"Vendor.sol\":234:262  address payable public payee */\n    tag_21:\n      callvalue\n      dup1\n      iszero\n      tag_110\n      jumpi\n      0x00\n      dup1\n      revert\n    tag_110:\n      pop\n      tag_111\n      tag_112\n      jump\t// in\n    tag_111:\n      mload(0x40)\n      tag_113\n      swap2\n      swap1\n      tag_40\n      jump\t// in\n    tag_113:\n      mload(0x40)\n      dup1\n      swap2\n      sub\n      swap1\n      return\n        /* \"Vendor.sol\":593:634  Stages public stage = Stages.Initialising */\n    tag_22:\n      callvalue\n      dup1\n      iszero\n      tag_114\n      jumpi\n      0x00\n      dup1\n      revert\n    tag_114:\n      pop\n      tag_115\n      tag_116\n      jump\t// in\n    tag_115:\n      mload(0x40)\n      tag_117\n      swap2\n      swap1\n      tag_118\n      jump\t// in\n    tag_117:\n      mload(0x40)\n      dup1\n      swap2\n      sub\n      swap1\n      return\n        /* \"Vendor.sol\":7081:7176  function setInactive() external atStage(Stages.Active) {... */\n    tag_23:\n      callvalue\n      dup1\n      iszero\n      tag_119\n      jumpi\n      0x00\n      dup1\n      revert\n    tag_119:\n      pop\n      tag_120\n      tag_121\n      jump\t// in\n    tag_120:\n      stop\n        /* \"Vendor.sol\":173:193  address public admin */\n    tag_24:\n      callvalue\n      dup1\n      iszero\n      tag_122\n      jumpi\n      0x00\n      dup1\n      revert\n    tag_122:\n      pop\n      tag_123\n      tag_124\n      jump\t// in\n    tag_123:\n      mload(0x40)\n      tag_125\n      swap2\n      swap1\n      tag_126\n      jump\t// in\n    tag_125:\n      mload(0x40)\n      dup1\n      swap2\n      sub\n      swap1\n      return\n        /* \"Vendor.sol\":2611:3080  function setConds(string[8] memory _names, int[8] memory _values, string[8] memory _operators) external atStage(Stages.Initialising) {... */\n    tag_25:\n      callvalue\n      dup1\n      iszero\n      tag_127\n      jumpi\n      0x00\n      dup1\n      revert\n    tag_127:\n      pop\n      tag_128\n      0x04\n      dup1\n      calldatasize\n      sub\n      dup2\n      add\n      swap1\n      tag_129\n      swap2\n      swap1\n      tag_130\n      jump\t// in\n    tag_129:\n      tag_131\n      jump\t// in\n    tag_128:\n      stop\n        /* \"Vendor.sol\":4027:4244  function getDetails() external view returns (address, address, uint, uint, uint, uint, uint, uint) {... */\n    tag_26:\n      callvalue\n      dup1\n      iszero\n      tag_132\n      jumpi\n      0x00\n      dup1\n      revert\n    tag_132:\n      pop\n      tag_133\n      tag_134\n      jump\t// in\n    tag_133:\n      mload(0x40)\n      tag_135\n      swap9\n      swap8\n      swap7\n      swap6\n      swap5\n      swap4\n      swap3\n      swap2\n      swap1\n      tag_136\n      jump\t// in\n    tag_135:\n      mload(0x40)\n      dup1\n      swap2\n      sub\n      swap1\n      return\n        /* \"Vendor.sol\":300:321  uint public startDate */\n    tag_33:\n      sload(0x03)\n      dup2\n      jump\t// out\n        /* \"Vendor.sol\":199:228  address payable public client */\n    tag_38:\n      0x01\n      0x00\n      swap1\n      sload\n      swap1\n      0x0100\n      exp\n      swap1\n      div\n      0xffffffffffffffffffffffffffffffffffffffff\n      and\n      dup2\n      jump\t// out\n        /* \"Vendor.sol\":3653:3869  function approve() external atStage(Stages.Pending) {... */\n    tag_43:\n        /* \"Vendor.sol\":3689:3703  Stages.Pending */\n      0x01\n        /* \"Vendor.sol\":8160:8166  _stage */\n      dup1\n        /* \"Vendor.sol\":8151:8166  stage == _stage */\n      0x04\n      dup2\n      gt\n      iszero\n      tag_138\n      jumpi\n      tag_139\n      tag_140\n      jump\t// in\n    tag_139:\n    tag_138:\n        /* \"Vendor.sol\":8151:8156  stage */\n      0x09\n      0x00\n      swap1\n      sload\n      swap1\n      0x0100\n      exp\n      swap1\n      div\n      0xff\n      and\n        /* \"Vendor.sol\":8151:8166  stage == _stage */\n      0x04\n      dup2\n      gt\n      iszero\n      tag_141\n      jumpi\n      tag_142\n      tag_140\n      jump\t// in\n    tag_142:\n    tag_141:\n      eq\n        /* \"Vendor.sol\":8143:8208  require(stage == _stage, \"Contract is not in the required state\") */\n      tag_143\n      jumpi\n      mload(0x40)\n      0x08c379a000000000000000000000000000000000000000000000000000000000\n      dup2\n      mstore\n      0x04\n      add\n      tag_144\n      swap1\n      tag_145\n      jump\t// in\n    tag_144:\n      mload(0x40)\n      dup1\n      swap2\n      sub\n      swap1\n      revert\n    tag_143:\n        /* \"Vendor.sol\":3737:3742  admin */\n      0x00\n      dup1\n      sload\n      swap1\n      0x0100\n      exp\n      swap1\n      div\n      0xffffffffffffffffffffffffffffffffffffffff\n      and\n        /* \"Vendor.sol\":3723:3742  msg.sender == admin */\n      0xffffffffffffffffffffffffffffffffffffffff\n      and\n        /* \"Vendor.sol\":3723:3733  msg.sender */\n      caller\n        /* \"Vendor.sol\":3723:3742  msg.sender == admin */\n      0xffffffffffffffffffffffffffffffffffffffff\n      and\n      eq\n        /* \"Vendor.sol\":3715:3801  require(msg.sender == admin, \"Cannot call this function directly, use VendorFactory.\") */\n      tag_147\n      jumpi\n      mload(0x40)\n      0x08c379a000000000000000000000000000000000000000000000000000000000\n      dup2\n      mstore\n      0x04\n      add\n      tag_148\n      swap1\n      tag_149\n      jump\t// in\n    tag_148:\n      mload(0x40)\n      dup1\n      swap2\n      sub\n      swap1\n      revert\n    tag_147:\n        /* \"Vendor.sol\":3827:3831  true */\n      0x01\n        /* \"Vendor.sol\":3811:3824  payeeApproved */\n      0x02\n      0x14\n        /* \"Vendor.sol\":3811:3831  payeeApproved = true */\n      0x0100\n      exp\n      dup2\n      sload\n      dup2\n      0xff\n      mul\n      not\n      and\n      swap1\n      dup4\n      iszero\n      iszero\n      mul\n      or\n      swap1\n      sstore\n      pop\n        /* \"Vendor.sol\":3849:3862  Stages.Active */\n      0x03\n        /* \"Vendor.sol\":3841:3846  stage */\n      0x09\n      0x00\n        /* \"Vendor.sol\":3841:3862  stage = Stages.Active */\n      0x0100\n      exp\n      dup2\n      sload\n      dup2\n      0xff\n      mul\n      not\n      and\n      swap1\n      dup4\n      0x04\n      dup2\n      gt\n      iszero\n      tag_150\n      jumpi\n      tag_151\n      tag_140\n      jump\t// in\n    tag_151:\n    tag_150:\n      mul\n      or\n      swap1\n      sstore\n      pop\n        /* \"Vendor.sol\":3653:3869  function approve() external atStage(Stages.Pending) {... */\n      pop\n      jump\t// out\n        /* \"Vendor.sol\":901:935  Conditions[] public conditionArray */\n    tag_48:\n      0x0a\n      dup2\n      dup2\n      sload\n      dup2\n      lt\n      tag_152\n      jumpi\n      0x00\n      dup1\n      revert\n    tag_152:\n      swap1\n      0x00\n      mstore\n      keccak256(0x00, 0x20)\n      swap1\n      0x03\n      mul\n      add\n      0x00\n      swap2\n      pop\n      swap1\n      pop\n      dup1\n      0x00\n      add\n      sload\n      swap1\n      dup1\n      0x01\n      add\n      sload\n      swap1\n      dup1\n      0x02\n      add\n      dup1\n      sload\n      tag_154\n      swap1\n      tag_155\n      jump\t// in\n    tag_154:\n      dup1\n      0x1f\n      add\n      0x20\n      dup1\n      swap2\n      div\n      mul\n      0x20\n      add\n      mload(0x40)\n      swap1\n      dup2\n      add\n      0x40\n      mstore\n      dup1\n      swap3\n      swap2\n      swap1\n      dup2\n      dup2\n      mstore\n      0x20\n      add\n      dup3\n      dup1\n      sload\n      tag_156\n      swap1\n      tag_155\n      jump\t// in\n    tag_156:\n      dup1\n      iszero\n      tag_157\n      jumpi\n      dup1\n      0x1f\n      lt\n      tag_158\n      jumpi\n      0x0100\n      dup1\n      dup4\n      sload\n      div\n      mul\n      dup4\n      mstore\n      swap2\n      0x20\n      add\n      swap2\n      jump(tag_157)\n    tag_158:\n      dup3\n      add\n      swap2\n      swap1\n      0x00\n      mstore\n      keccak256(0x00, 0x20)\n      swap1\n    tag_159:\n      dup2\n      sload\n      dup2\n      mstore\n      swap1\n      0x01\n      add\n      swap1\n      0x20\n      add\n      dup1\n      dup4\n      gt\n      tag_159\n      jumpi\n      dup3\n      swap1\n      sub\n      0x1f\n      and\n      dup3\n      add\n      swap2\n    tag_157:\n      pop\n      pop\n      pop\n      pop\n      pop\n      swap1\n      pop\n      dup4\n      jump\t// out\n        /* \"Vendor.sol\":5090:5330  function receiveServiceData(int[] memory _cumulative) external atStage(Stages.Active) checkBillingDate() {... */\n    tag_55:\n        /* \"Vendor.sol\":5161:5174  Stages.Active */\n      0x03\n        /* \"Vendor.sol\":8160:8166  _stage */\n      dup1\n        /* \"Vendor.sol\":8151:8166  stage == _stage */\n      0x04\n      dup2\n      gt\n      iszero\n      tag_161\n      jumpi\n      tag_162\n      tag_140\n      jump\t// in\n    tag_162:\n    tag_161:\n        /* \"Vendor.sol\":8151:8156  stage */\n      0x09\n      0x00\n      swap1\n      sload\n      swap1\n      0x0100\n      exp\n      swap1\n      div\n      0xff\n      and\n        /* \"Vendor.sol\":8151:8166  stage == _stage */\n      0x04\n      dup2\n      gt\n      iszero\n      tag_163\n      jumpi\n      tag_164\n      tag_140\n      jump\t// in\n    tag_164:\n    tag_163:\n      eq\n        /* \"Vendor.sol\":8143:8208  require(stage == _stage, \"Contract is not in the required state\") */\n      tag_165\n      jumpi\n      mload(0x40)\n      0x08c379a000000000000000000000000000000000000000000000000000000000\n      dup2\n      mstore\n      0x04\n      add\n      tag_166\n      swap1\n      tag_145\n      jump\t// in\n    tag_166:\n      mload(0x40)\n      dup1\n      swap2\n      sub\n      swap1\n      revert\n    tag_165:\n        /* \"Vendor.sol\":7681:7696  nextBillingDate */\n      sload(0x07)\n        /* \"Vendor.sol\":7666:7678  block.number */\n      number\n        /* \"Vendor.sol\":7666:7696  block.number > nextBillingDate */\n      gt\n        /* \"Vendor.sol\":7662:7890  if (block.number > nextBillingDate) {... */\n      iszero\n      tag_168\n      jumpi\n        /* \"Vendor.sol\":7712:7725  isSatisfied() */\n      tag_169\n        /* \"Vendor.sol\":7712:7723  isSatisfied */\n      tag_170\n        /* \"Vendor.sol\":7712:7725  isSatisfied() */\n      jump\t// in\n    tag_169:\n        /* \"Vendor.sol\":7662:7890  if (block.number > nextBillingDate) {... */\n      jump(tag_171)\n    tag_168:\n        /* \"Vendor.sol\":7780:7795  prevBillingDate */\n      sload(0x06)\n        /* \"Vendor.sol\":7764:7776  block.number */\n      number\n        /* \"Vendor.sol\":7764:7795  block.number >= prevBillingDate */\n      lt\n      iszero\n        /* \"Vendor.sol\":7764:7830  block.number >= prevBillingDate && block.number <= nextBillingDate */\n      dup1\n      iszero\n      tag_172\n      jumpi\n      pop\n        /* \"Vendor.sol\":7815:7830  nextBillingDate */\n      sload(0x07)\n        /* \"Vendor.sol\":7799:7811  block.number */\n      number\n        /* \"Vendor.sol\":7799:7830  block.number <= nextBillingDate */\n      gt\n      iszero\n        /* \"Vendor.sol\":7764:7830  block.number >= prevBillingDate && block.number <= nextBillingDate */\n    tag_172:\n        /* \"Vendor.sol\":7756:7864  require(block.number >= prevBillingDate && block.number <= nextBillingDate, \"Not within the billing period\") */\n      tag_173\n      jumpi\n      mload(0x40)\n      0x08c379a000000000000000000000000000000000000000000000000000000000\n      dup2\n      mstore\n      0x04\n      add\n      tag_174\n      swap1\n      tag_175\n      jump\t// in\n    tag_174:\n      mload(0x40)\n      dup1\n      swap2\n      sub\n      swap1\n      revert\n    tag_173:\n        /* \"Vendor.sol\":5210:5216  uint i */\n      0x00\n        /* \"Vendor.sol\":5205:5307  for (uint i = 0; i < _cumulative.length; i++) {... */\n    tag_177:\n        /* \"Vendor.sol\":5226:5237  _cumulative */\n      dup3\n        /* \"Vendor.sol\":5226:5244  _cumulative.length */\n      mload\n        /* \"Vendor.sol\":5222:5223  i */\n      dup2\n        /* \"Vendor.sol\":5222:5244  i < _cumulative.length */\n      lt\n        /* \"Vendor.sol\":5205:5307  for (uint i = 0; i < _cumulative.length; i++) {... */\n      iszero\n      tag_178\n      jumpi\n        /* \"Vendor.sol\":5282:5293  _cumulative */\n      dup3\n        /* \"Vendor.sol\":5294:5295  i */\n      dup2\n        /* \"Vendor.sol\":5282:5296  _cumulative[i] */\n      dup2\n      mload\n      dup2\n      lt\n      tag_180\n      jumpi\n      tag_181\n      tag_182\n      jump\t// in\n    tag_181:\n    tag_180:\n      0x20\n      mul\n      0x20\n      add\n      add\n      mload\n        /* \"Vendor.sol\":5265:5275  cumulative */\n      0x0c\n        /* \"Vendor.sol\":5265:5278  cumulative[i] */\n      0x00\n        /* \"Vendor.sol\":5276:5277  i */\n      dup4\n        /* \"Vendor.sol\":5265:5278  cumulative[i] */\n      dup2\n      mstore\n      0x20\n      add\n      swap1\n      dup2\n      mstore\n      0x20\n      add\n      0x00\n      keccak256\n      0x00\n        /* \"Vendor.sol\":5265:5296  cumulative[i] += _cumulative[i] */\n      dup3\n      dup3\n      sload\n      tag_183\n      swap2\n      swap1\n      tag_184\n      jump\t// in\n    tag_183:\n      swap3\n      pop\n      pop\n      dup2\n      swap1\n      sstore\n      pop\n        /* \"Vendor.sol\":5246:5249  i++ */\n      dup1\n      dup1\n      tag_185\n      swap1\n      tag_186\n      jump\t// in\n    tag_185:\n      swap2\n      pop\n      pop\n        /* \"Vendor.sol\":5205:5307  for (uint i = 0; i < _cumulative.length; i++) {... */\n      jump(tag_177)\n    tag_178:\n      pop\n        /* \"Vendor.sol\":5316:5321  count */\n      0x0d\n      0x00\n        /* \"Vendor.sol\":5316:5323  count++ */\n      dup2\n      sload\n      dup1\n      swap3\n      swap2\n      swap1\n      tag_187\n      swap1\n      tag_188\n      jump\t// in\n    tag_187:\n      swap2\n      swap1\n      pop\n      sstore\n      pop\n        /* \"Vendor.sol\":7662:7890  if (block.number > nextBillingDate) {... */\n    tag_171:\n        /* \"Vendor.sol\":5090:5330  function receiveServiceData(int[] memory _cumulative) external atStage(Stages.Active) checkBillingDate() {... */\n      pop\n      pop\n      jump\t// out\n        /* \"Vendor.sol\":379:406  uint public prevBillingDate */\n    tag_58:\n      sload(0x06)\n      dup2\n      jump\t// out\n        /* \"Vendor.sol\":641:670  bool public satisfied = false */\n    tag_62:\n      0x09\n      0x01\n      swap1\n      sload\n      swap1\n      0x0100\n      exp\n      swap1\n      div\n      0xff\n      and\n      dup2\n      jump\t// out\n        /* \"Vendor.sol\":3086:3169  function setPayee(address _payee) external {... */\n    tag_69:\n        /* \"Vendor.sol\":3155:3161  _payee */\n      dup1\n        /* \"Vendor.sol\":3139:3144  payee */\n      0x02\n      0x00\n        /* \"Vendor.sol\":3139:3162  payee = payable(_payee) */\n      0x0100\n      exp\n      dup2\n      sload\n      dup2\n      0xffffffffffffffffffffffffffffffffffffffff\n      mul\n      not\n      and\n      swap1\n      dup4\n      0xffffffffffffffffffffffffffffffffffffffff\n      and\n      mul\n      or\n      swap1\n      sstore\n      pop\n        /* \"Vendor.sol\":3086:3169  function setPayee(address _payee) external {... */\n      pop\n      jump\t// out\n        /* \"Vendor.sol\":412:439  uint public nextBillingDate */\n    tag_72:\n      sload(0x07)\n      dup2\n      jump\t// out\n        /* \"Vendor.sol\":327:349  uint public expiryDate */\n    tag_76:\n      sload(0x04)\n      dup2\n      jump\t// out\n        /* \"Vendor.sol\":4413:4508  function balanceOf() external view returns (uint) {... */\n    tag_80:\n        /* \"Vendor.sol\":4457:4461  uint */\n      0x00\n        /* \"Vendor.sol\":4480:4501  address(this).balance */\n      selfbalance\n        /* \"Vendor.sol\":4473:4501  return address(this).balance */\n      swap1\n      pop\n        /* \"Vendor.sol\":4413:4508  function balanceOf() external view returns (uint) {... */\n      swap1\n      jump\t// out\n        /* \"Vendor.sol\":6982:7075  function setActive() external atStage(Stages.Inactive) {... */\n    tag_84:\n        /* \"Vendor.sol\":7020:7035  Stages.Inactive */\n      0x02\n        /* \"Vendor.sol\":8160:8166  _stage */\n      dup1\n        /* \"Vendor.sol\":8151:8166  stage == _stage */\n      0x04\n      dup2\n      gt\n      iszero\n      tag_192\n      jumpi\n      tag_193\n      tag_140\n      jump\t// in\n    tag_193:\n    tag_192:\n        /* \"Vendor.sol\":8151:8156  stage */\n      0x09\n      0x00\n      swap1\n      sload\n      swap1\n      0x0100\n      exp\n      swap1\n      div\n      0xff\n      and\n        /* \"Vendor.sol\":8151:8166  stage == _stage */\n      0x04\n      dup2\n      gt\n      iszero\n      tag_194\n      jumpi\n      tag_195\n      tag_140\n      jump\t// in\n    tag_195:\n    tag_194:\n      eq\n        /* \"Vendor.sol\":8143:8208  require(stage == _stage, \"Contract is not in the required state\") */\n      tag_196\n      jumpi\n      mload(0x40)\n      0x08c379a000000000000000000000000000000000000000000000000000000000\n      dup2\n      mstore\n      0x04\n      add\n      tag_197\n      swap1\n      tag_145\n      jump\t// in\n    tag_197:\n      mload(0x40)\n      dup1\n      swap2\n      sub\n      swap1\n      revert\n    tag_196:\n        /* \"Vendor.sol\":7055:7068  Stages.Active */\n      0x03\n        /* \"Vendor.sol\":7047:7052  stage */\n      0x09\n      0x00\n        /* \"Vendor.sol\":7047:7068  stage = Stages.Active */\n      0x0100\n      exp\n      dup2\n      sload\n      dup2\n      0xff\n      mul\n      not\n      and\n      swap1\n      dup4\n      0x04\n      dup2\n      gt\n      iszero\n      tag_199\n      jumpi\n      tag_200\n      tag_140\n      jump\t// in\n    tag_200:\n    tag_199:\n      mul\n      or\n      swap1\n      sstore\n      pop\n        /* \"Vendor.sol\":6982:7075  function setActive() external atStage(Stages.Inactive) {... */\n      pop\n      jump\t// out\n        /* \"Vendor.sol\":7182:7272  function destroy() external atStage(Stages.Inactive) {... */\n    tag_87:\n        /* \"Vendor.sol\":7218:7233  Stages.Inactive */\n      0x02\n        /* \"Vendor.sol\":8160:8166  _stage */\n      dup1\n        /* \"Vendor.sol\":8151:8166  stage == _stage */\n      0x04\n      dup2\n      gt\n      iszero\n      tag_202\n      jumpi\n      tag_203\n      tag_140\n      jump\t// in\n    tag_203:\n    tag_202:\n        /* \"Vendor.sol\":8151:8156  stage */\n      0x09\n      0x00\n      swap1\n      sload\n      swap1\n      0x0100\n      exp\n      swap1\n      div\n      0xff\n      and\n        /* \"Vendor.sol\":8151:8166  stage == _stage */\n      0x04\n      dup2\n      gt\n      iszero\n      tag_204\n      jumpi\n      tag_205\n      tag_140\n      jump\t// in\n    tag_205:\n    tag_204:\n      eq\n        /* \"Vendor.sol\":8143:8208  require(stage == _stage, \"Contract is not in the required state\") */\n      tag_206\n      jumpi\n      mload(0x40)\n      0x08c379a000000000000000000000000000000000000000000000000000000000\n      dup2\n      mstore\n      0x04\n      add\n      tag_207\n      swap1\n      tag_145\n      jump\t// in\n    tag_207:\n      mload(0x40)\n      dup1\n      swap2\n      sub\n      swap1\n      revert\n    tag_206:\n        /* \"Vendor.sol\":7258:7264  client */\n      0x01\n      0x00\n      swap1\n      sload\n      swap1\n      0x0100\n      exp\n      swap1\n      div\n      0xffffffffffffffffffffffffffffffffffffffff\n      and\n        /* \"Vendor.sol\":7245:7265  selfdestruct(client) */\n      0xffffffffffffffffffffffffffffffffffffffff\n      and\n      selfdestruct\n        /* \"Vendor.sol\":4250:4407  function storePayment() external payable atStage(Stages.Active) checkBillingDate() {... */\n    tag_89:\n        /* \"Vendor.sol\":4299:4312  Stages.Active */\n      0x03\n        /* \"Vendor.sol\":8160:8166  _stage */\n      dup1\n        /* \"Vendor.sol\":8151:8166  stage == _stage */\n      0x04\n      dup2\n      gt\n      iszero\n      tag_210\n      jumpi\n      tag_211\n      tag_140\n      jump\t// in\n    tag_211:\n    tag_210:\n        /* \"Vendor.sol\":8151:8156  stage */\n      0x09\n      0x00\n      swap1\n      sload\n      swap1\n      0x0100\n      exp\n      swap1\n      div\n      0xff\n      and\n        /* \"Vendor.sol\":8151:8166  stage == _stage */\n      0x04\n      dup2\n      gt\n      iszero\n      tag_212\n      jumpi\n      tag_213\n      tag_140\n      jump\t// in\n    tag_213:\n    tag_212:\n      eq\n        /* \"Vendor.sol\":8143:8208  require(stage == _stage, \"Contract is not in the required state\") */\n      tag_214\n      jumpi\n      mload(0x40)\n      0x08c379a000000000000000000000000000000000000000000000000000000000\n      dup2\n      mstore\n      0x04\n      add\n      tag_215\n      swap1\n      tag_145\n      jump\t// in\n    tag_215:\n      mload(0x40)\n      dup1\n      swap2\n      sub\n      swap1\n      revert\n    tag_214:\n        /* \"Vendor.sol\":7681:7696  nextBillingDate */\n      sload(0x07)\n        /* \"Vendor.sol\":7666:7678  block.number */\n      number\n        /* \"Vendor.sol\":7666:7696  block.number > nextBillingDate */\n      gt\n        /* \"Vendor.sol\":7662:7890  if (block.number > nextBillingDate) {... */\n      iszero\n      tag_217\n      jumpi\n        /* \"Vendor.sol\":7712:7725  isSatisfied() */\n      tag_218\n        /* \"Vendor.sol\":7712:7723  isSatisfied */\n      tag_170\n        /* \"Vendor.sol\":7712:7725  isSatisfied() */\n      jump\t// in\n    tag_218:\n        /* \"Vendor.sol\":7662:7890  if (block.number > nextBillingDate) {... */\n      jump(tag_219)\n    tag_217:\n        /* \"Vendor.sol\":7780:7795  prevBillingDate */\n      sload(0x06)\n        /* \"Vendor.sol\":7764:7776  block.number */\n      number\n        /* \"Vendor.sol\":7764:7795  block.number >= prevBillingDate */\n      lt\n      iszero\n        /* \"Vendor.sol\":7764:7830  block.number >= prevBillingDate && block.number <= nextBillingDate */\n      dup1\n      iszero\n      tag_220\n      jumpi\n      pop\n        /* \"Vendor.sol\":7815:7830  nextBillingDate */\n      sload(0x07)\n        /* \"Vendor.sol\":7799:7811  block.number */\n      number\n        /* \"Vendor.sol\":7799:7830  block.number <= nextBillingDate */\n      gt\n      iszero\n        /* \"Vendor.sol\":7764:7830  block.number >= prevBillingDate && block.number <= nextBillingDate */\n    tag_220:\n        /* \"Vendor.sol\":7756:7864  require(block.number >= prevBillingDate && block.number <= nextBillingDate, \"Not within the billing period\") */\n      tag_221\n      jumpi\n      mload(0x40)\n      0x08c379a000000000000000000000000000000000000000000000000000000000\n      dup2\n      mstore\n      0x04\n      add\n      tag_222\n      swap1\n      tag_175\n      jump\t// in\n    tag_222:\n      mload(0x40)\n      dup1\n      swap2\n      sub\n      swap1\n      revert\n    tag_221:\n        /* \"Vendor.sol\":4360:4366  amount */\n      sload(0x05)\n        /* \"Vendor.sol\":4347:4356  msg.value */\n      callvalue\n        /* \"Vendor.sol\":4347:4366  msg.value != amount */\n      eq\n        /* \"Vendor.sol\":4343:4401  if (msg.value != amount) {... */\n      tag_224\n      jumpi\n        /* \"Vendor.sol\":4382:4390  revert() */\n      0x00\n      dup1\n      revert\n        /* \"Vendor.sol\":4343:4401  if (msg.value != amount) {... */\n    tag_224:\n        /* \"Vendor.sol\":7662:7890  if (block.number > nextBillingDate) {... */\n    tag_219:\n        /* \"Vendor.sol\":4250:4407  function storePayment() external payable atStage(Stages.Active) checkBillingDate() {... */\n      pop\n      jump\t// out\n        /* \"Vendor.sol\":445:469  uint public contractHash */\n    tag_92:\n      sload(0x08)\n      dup2\n      jump\t// out\n        /* \"Vendor.sol\":3175:3422  function endInitStage() public atStage(Stages.Initialising) {... */\n    tag_96:\n        /* \"Vendor.sol\":3214:3233  Stages.Initialising */\n      0x00\n        /* \"Vendor.sol\":8160:8166  _stage */\n      dup1\n        /* \"Vendor.sol\":8151:8166  stage == _stage */\n      0x04\n      dup2\n      gt\n      iszero\n      tag_226\n      jumpi\n      tag_227\n      tag_140\n      jump\t// in\n    tag_227:\n    tag_226:\n        /* \"Vendor.sol\":8151:8156  stage */\n      0x09\n      0x00\n      swap1\n      sload\n      swap1\n      0x0100\n      exp\n      swap1\n      div\n      0xff\n      and\n        /* \"Vendor.sol\":8151:8166  stage == _stage */\n      0x04\n      dup2\n      gt\n      iszero\n      tag_228\n      jumpi\n      tag_229\n      tag_140\n      jump\t// in\n    tag_229:\n    tag_228:\n      eq\n        /* \"Vendor.sol\":8143:8208  require(stage == _stage, \"Contract is not in the required state\") */\n      tag_230\n      jumpi\n      mload(0x40)\n      0x08c379a000000000000000000000000000000000000000000000000000000000\n      dup2\n      mstore\n      0x04\n      add\n      tag_231\n      swap1\n      tag_145\n      jump\t// in\n    tag_231:\n      mload(0x40)\n      dup1\n      swap2\n      sub\n      swap1\n      revert\n    tag_230:\n        /* \"Vendor.sol\":3253:3267  Stages.Pending */\n      0x01\n        /* \"Vendor.sol\":3245:3250  stage */\n      0x09\n      0x00\n        /* \"Vendor.sol\":3245:3267  stage = Stages.Pending */\n      0x0100\n      exp\n      dup2\n      sload\n      dup2\n      0xff\n      mul\n      not\n      and\n      swap1\n      dup4\n      0x04\n      dup2\n      gt\n      iszero\n      tag_233\n      jumpi\n      tag_234\n      tag_140\n      jump\t// in\n    tag_234:\n    tag_233:\n      mul\n      or\n      swap1\n      sstore\n      pop\n        /* \"Vendor.sol\":3330:3336  uint i */\n      0x00\n        /* \"Vendor.sol\":3325:3416  for (uint i = 0; i < conditionArray.length; i++) {... */\n    tag_235:\n        /* \"Vendor.sol\":3346:3360  conditionArray */\n      0x0a\n        /* \"Vendor.sol\":3346:3367  conditionArray.length */\n      dup1\n      sload\n      swap1\n      pop\n        /* \"Vendor.sol\":3342:3343  i */\n      dup2\n        /* \"Vendor.sol\":3342:3367  i < conditionArray.length */\n      lt\n        /* \"Vendor.sol\":3325:3416  for (uint i = 0; i < conditionArray.length; i++) {... */\n      iszero\n      tag_236\n      jumpi\n        /* \"Vendor.sol\":3404:3405  0 */\n      0x00\n        /* \"Vendor.sol\":3388:3398  cumulative */\n      0x0c\n        /* \"Vendor.sol\":3388:3401  cumulative[i] */\n      0x00\n        /* \"Vendor.sol\":3399:3400  i */\n      dup4\n        /* \"Vendor.sol\":3388:3401  cumulative[i] */\n      dup2\n      mstore\n      0x20\n      add\n      swap1\n      dup2\n      mstore\n      0x20\n      add\n      0x00\n      keccak256\n        /* \"Vendor.sol\":3388:3405  cumulative[i] = 0 */\n      dup2\n      swap1\n      sstore\n      pop\n        /* \"Vendor.sol\":3369:3372  i++ */\n      dup1\n      dup1\n      tag_238\n      swap1\n      tag_186\n      jump\t// in\n    tag_238:\n      swap2\n      pop\n      pop\n        /* \"Vendor.sol\":3325:3416  for (uint i = 0; i < conditionArray.length; i++) {... */\n      jump(tag_235)\n    tag_236:\n      pop\n        /* \"Vendor.sol\":3175:3422  function endInitStage() public atStage(Stages.Initialising) {... */\n      pop\n      jump\t// out\n        /* \"Vendor.sol\":268:293  bool public payeeApproved */\n    tag_99:\n      0x02\n      0x14\n      swap1\n      sload\n      swap1\n      0x0100\n      exp\n      swap1\n      div\n      0xff\n      and\n      dup2\n      jump\t// out\n        /* \"Vendor.sol\":1642:2073  function init(address _client, uint _expiredOn, uint _startDate, uint _contractHash, uint _amount) public {... */\n    tag_105:\n        /* \"Vendor.sol\":1766:1776  msg.sender */\n      caller\n        /* \"Vendor.sol\":1758:1763  admin */\n      0x00\n      dup1\n        /* \"Vendor.sol\":1758:1776  admin = msg.sender */\n      0x0100\n      exp\n      dup2\n      sload\n      dup2\n      0xffffffffffffffffffffffffffffffffffffffff\n      mul\n      not\n      and\n      swap1\n      dup4\n      0xffffffffffffffffffffffffffffffffffffffff\n      and\n      mul\n      or\n      swap1\n      sstore\n      pop\n        /* \"Vendor.sol\":1803:1810  _client */\n      dup5\n        /* \"Vendor.sol\":1786:1792  client */\n      0x01\n      0x00\n        /* \"Vendor.sol\":1786:1811  client = payable(_client) */\n      0x0100\n      exp\n      dup2\n      sload\n      dup2\n      0xffffffffffffffffffffffffffffffffffffffff\n      mul\n      not\n      and\n      swap1\n      dup4\n      0xffffffffffffffffffffffffffffffffffffffff\n      and\n      mul\n      or\n      swap1\n      sstore\n      pop\n        /* \"Vendor.sol\":1834:1844  _expiredOn */\n      dup4\n        /* \"Vendor.sol\":1821:1831  expiryDate */\n      0x04\n        /* \"Vendor.sol\":1821:1844  expiryDate = _expiredOn */\n      dup2\n      swap1\n      sstore\n      pop\n        /* \"Vendor.sol\":1866:1876  _startDate */\n      dup3\n        /* \"Vendor.sol\":1854:1863  startDate */\n      0x03\n        /* \"Vendor.sol\":1854:1876  startDate = _startDate */\n      dup2\n      swap1\n      sstore\n      pop\n        /* \"Vendor.sol\":1904:1924  calcDate(_startDate) */\n      tag_240\n        /* \"Vendor.sol\":1913:1923  _startDate */\n      dup4\n        /* \"Vendor.sol\":1904:1912  calcDate */\n      tag_241\n        /* \"Vendor.sol\":1904:1924  calcDate(_startDate) */\n      jump\t// in\n    tag_240:\n        /* \"Vendor.sol\":1886:1901  prevBillingDate */\n      0x06\n        /* \"Vendor.sol\":1886:1924  prevBillingDate = calcDate(_startDate) */\n      dup2\n      swap1\n      sstore\n      pop\n        /* \"Vendor.sol\":1952:1977  calcDate(_startDate + 30) */\n      tag_242\n        /* \"Vendor.sol\":1974:1976  30 */\n      0x1e\n        /* \"Vendor.sol\":1961:1971  _startDate */\n      dup5\n        /* \"Vendor.sol\":1961:1976  _startDate + 30 */\n      tag_243\n      swap2\n      swap1\n      tag_244\n      jump\t// in\n    tag_243:\n        /* \"Vendor.sol\":1952:1960  calcDate */\n      tag_241\n        /* \"Vendor.sol\":1952:1977  calcDate(_startDate + 30) */\n      jump\t// in\n    tag_242:\n        /* \"Vendor.sol\":1934:1949  nextBillingDate */\n      0x07\n        /* \"Vendor.sol\":1934:1977  nextBillingDate = calcDate(_startDate + 30) */\n      dup2\n      swap1\n      sstore\n      pop\n        /* \"Vendor.sol\":2002:2015  _contractHash */\n      dup2\n        /* \"Vendor.sol\":1987:1999  contractHash */\n      0x08\n        /* \"Vendor.sol\":1987:2015  contractHash = _contractHash */\n      dup2\n      swap1\n      sstore\n      pop\n        /* \"Vendor.sol\":2034:2041  _amount */\n      dup1\n        /* \"Vendor.sol\":2025:2031  amount */\n      0x05\n        /* \"Vendor.sol\":2025:2041  amount = _amount */\n      dup2\n      swap1\n      sstore\n      pop\n        /* \"Vendor.sol\":2051:2066  initOperators() */\n      tag_245\n        /* \"Vendor.sol\":2051:2064  initOperators */\n      tag_246\n        /* \"Vendor.sol\":2051:2066  initOperators() */\n      jump\t// in\n    tag_245:\n        /* \"Vendor.sol\":1642:2073  function init(address _client, uint _expiredOn, uint _startDate, uint _contractHash, uint _amount) public {... */\n      pop\n      pop\n      pop\n      pop\n      pop\n      jump\t// out\n        /* \"Vendor.sol\":355:373  uint public amount */\n    tag_108:\n      sload(0x05)\n      dup2\n      jump\t// out\n        /* \"Vendor.sol\":234:262  address payable public payee */\n    tag_112:\n      0x02\n      0x00\n      swap1\n      sload\n      swap1\n      0x0100\n      exp\n      swap1\n      div\n      0xffffffffffffffffffffffffffffffffffffffff\n      and\n      dup2\n      jump\t// out\n        /* \"Vendor.sol\":593:634  Stages public stage = Stages.Initialising */\n    tag_116:\n      0x09\n      0x00\n      swap1\n      sload\n      swap1\n      0x0100\n      exp\n      swap1\n      div\n      0xff\n      and\n      dup2\n      jump\t// out\n        /* \"Vendor.sol\":7081:7176  function setInactive() external atStage(Stages.Active) {... */\n    tag_121:\n        /* \"Vendor.sol\":7121:7134  Stages.Active */\n      0x03\n        /* \"Vendor.sol\":8160:8166  _stage */\n      dup1\n        /* \"Vendor.sol\":8151:8166  stage == _stage */\n      0x04\n      dup2\n      gt\n      iszero\n      tag_248\n      jumpi\n      tag_249\n      tag_140\n      jump\t// in\n    tag_249:\n    tag_248:\n        /* \"Vendor.sol\":8151:8156  stage */\n      0x09\n      0x00\n      swap1\n      sload\n      swap1\n      0x0100\n      exp\n      swap1\n      div\n      0xff\n      and\n        /* \"Vendor.sol\":8151:8166  stage == _stage */\n      0x04\n      dup2\n      gt\n      iszero\n      tag_250\n      jumpi\n      tag_251\n      tag_140\n      jump\t// in\n    tag_251:\n    tag_250:\n      eq\n        /* \"Vendor.sol\":8143:8208  require(stage == _stage, \"Contract is not in the required state\") */\n      tag_252\n      jumpi\n      mload(0x40)\n      0x08c379a000000000000000000000000000000000000000000000000000000000\n      dup2\n      mstore\n      0x04\n      add\n      tag_253\n      swap1\n      tag_145\n      jump\t// in\n    tag_253:\n      mload(0x40)\n      dup1\n      swap2\n      sub\n      swap1\n      revert\n    tag_252:\n        /* \"Vendor.sol\":7154:7169  Stages.Inactive */\n      0x02\n        /* \"Vendor.sol\":7146:7151  stage */\n      0x09\n      0x00\n        /* \"Vendor.sol\":7146:7169  stage = Stages.Inactive */\n      0x0100\n      exp\n      dup2\n      sload\n      dup2\n      0xff\n      mul\n      not\n      and\n      swap1\n      dup4\n      0x04\n      dup2\n      gt\n      iszero\n      tag_255\n      jumpi\n      tag_256\n      tag_140\n      jump\t// in\n    tag_256:\n    tag_255:\n      mul\n      or\n      swap1\n      sstore\n      pop\n        /* \"Vendor.sol\":7081:7176  function setInactive() external atStage(Stages.Active) {... */\n      pop\n      jump\t// out\n        /* \"Vendor.sol\":173:193  address public admin */\n    tag_124:\n      0x00\n      dup1\n      sload\n      swap1\n      0x0100\n      exp\n      swap1\n      div\n      0xffffffffffffffffffffffffffffffffffffffff\n      and\n      dup2\n      jump\t// out\n        /* \"Vendor.sol\":2611:3080  function setConds(string[8] memory _names, int[8] memory _values, string[8] memory _operators) external atStage(Stages.Initialising) {... */\n    tag_131:\n        /* \"Vendor.sol\":2723:2742  Stages.Initialising */\n      0x00\n        /* \"Vendor.sol\":8160:8166  _stage */\n      dup1\n        /* \"Vendor.sol\":8151:8166  stage == _stage */\n      0x04\n      dup2\n      gt\n      iszero\n      tag_258\n      jumpi\n      tag_259\n      tag_140\n      jump\t// in\n    tag_259:\n    tag_258:\n        /* \"Vendor.sol\":8151:8156  stage */\n      0x09\n      0x00\n      swap1\n      sload\n      swap1\n      0x0100\n      exp\n      swap1\n      div\n      0xff\n      and\n        /* \"Vendor.sol\":8151:8166  stage == _stage */\n      0x04\n      dup2\n      gt\n      iszero\n      tag_260\n      jumpi\n      tag_261\n      tag_140\n      jump\t// in\n    tag_261:\n    tag_260:\n      eq\n        /* \"Vendor.sol\":8143:8208  require(stage == _stage, \"Contract is not in the required state\") */\n      tag_262\n      jumpi\n      mload(0x40)\n      0x08c379a000000000000000000000000000000000000000000000000000000000\n      dup2\n      mstore\n      0x04\n      add\n      tag_263\n      swap1\n      tag_145\n      jump\t// in\n    tag_263:\n      mload(0x40)\n      dup1\n      swap2\n      sub\n      swap1\n      revert\n    tag_262:\n        /* \"Vendor.sol\":2759:2765  uint i */\n      0x00\n        /* \"Vendor.sol\":2754:3074  for (uint i = 0; i < 8; i++) {... */\n    tag_265:\n        /* \"Vendor.sol\":2775:2776  8 */\n      0x08\n        /* \"Vendor.sol\":2771:2772  i */\n      dup2\n        /* \"Vendor.sol\":2771:2776  i < 8 */\n      lt\n        /* \"Vendor.sol\":2754:3074  for (uint i = 0; i < 8; i++) {... */\n      iszero\n      tag_266\n      jumpi\n        /* \"Vendor.sol\":2828:2829  0 */\n      0x00\n        /* \"Vendor.sol\":2807:2813  _names */\n      dup6\n        /* \"Vendor.sol\":2814:2815  i */\n      dup3\n        /* \"Vendor.sol\":2807:2816  _names[i] */\n      0x08\n      dup2\n      lt\n      tag_268\n      jumpi\n      tag_269\n      tag_182\n      jump\t// in\n    tag_269:\n    tag_268:\n      0x20\n      mul\n      add\n      mload\n        /* \"Vendor.sol\":2801:2824  bytes(_names[i]).length */\n      mload\n        /* \"Vendor.sol\":2801:2829  bytes(_names[i]).length == 0 */\n      eq\n        /* \"Vendor.sol\":2797:2970  if (bytes(_names[i]).length == 0) {... */\n      iszero\n      tag_270\n      jumpi\n        /* \"Vendor.sol\":2849:2863  endInitStage() */\n      tag_271\n        /* \"Vendor.sol\":2849:2861  endInitStage */\n      tag_96\n        /* \"Vendor.sol\":2849:2863  endInitStage() */\n      jump\t// in\n    tag_271:\n        /* \"Vendor.sol\":2881:2888  return; */\n      pop\n      jump(tag_264)\n        /* \"Vendor.sol\":2797:2970  if (bytes(_names[i]).length == 0) {... */\n    tag_270:\n        /* \"Vendor.sol\":2983:2997  conditionArray */\n      0x0a\n        /* \"Vendor.sol\":3003:3062  Conditions(_values[i], operators[_operators[i]], _names[i]) */\n      mload(0x40)\n      dup1\n      0x60\n      add\n      0x40\n      mstore\n      dup1\n        /* \"Vendor.sol\":3014:3021  _values */\n      dup7\n        /* \"Vendor.sol\":3022:3023  i */\n      dup5\n        /* \"Vendor.sol\":3014:3024  _values[i] */\n      0x08\n      dup2\n      lt\n      tag_272\n      jumpi\n      tag_273\n      tag_182\n      jump\t// in\n    tag_273:\n    tag_272:\n      0x20\n      mul\n      add\n      mload\n        /* \"Vendor.sol\":3003:3062  Conditions(_values[i], operators[_operators[i]], _names[i]) */\n      dup2\n      mstore\n      0x20\n      add\n        /* \"Vendor.sol\":3026:3035  operators */\n      0x0b\n        /* \"Vendor.sol\":3036:3046  _operators */\n      dup7\n        /* \"Vendor.sol\":3047:3048  i */\n      dup6\n        /* \"Vendor.sol\":3036:3049  _operators[i] */\n      0x08\n      dup2\n      lt\n      tag_274\n      jumpi\n      tag_275\n      tag_182\n      jump\t// in\n    tag_275:\n    tag_274:\n      0x20\n      mul\n      add\n      mload\n        /* \"Vendor.sol\":3026:3050  operators[_operators[i]] */\n      mload(0x40)\n      tag_276\n      swap2\n      swap1\n      tag_277\n      jump\t// in\n    tag_276:\n      swap1\n      dup2\n      mstore\n      0x20\n      add\n      mload(0x40)\n      dup1\n      swap2\n      sub\n      swap1\n      keccak256\n      sload\n        /* \"Vendor.sol\":3003:3062  Conditions(_values[i], operators[_operators[i]], _names[i]) */\n      dup2\n      mstore\n      0x20\n      add\n        /* \"Vendor.sol\":3052:3058  _names */\n      dup8\n        /* \"Vendor.sol\":3059:3060  i */\n      dup5\n        /* \"Vendor.sol\":3052:3061  _names[i] */\n      0x08\n      dup2\n      lt\n      tag_278\n      jumpi\n      tag_279\n      tag_182\n      jump\t// in\n    tag_279:\n    tag_278:\n      0x20\n      mul\n      add\n      mload\n        /* \"Vendor.sol\":3003:3062  Conditions(_values[i], operators[_operators[i]], _names[i]) */\n      dup2\n      mstore\n      pop\n        /* \"Vendor.sol\":2983:3063  conditionArray.push(Conditions(_values[i], operators[_operators[i]], _names[i])) */\n      swap1\n      dup1\n      0x01\n      dup2\n      sload\n      add\n      dup1\n      dup3\n      sstore\n      dup1\n      swap2\n      pop\n      pop\n      0x01\n      swap1\n      sub\n      swap1\n      0x00\n      mstore\n      keccak256(0x00, 0x20)\n      swap1\n      0x03\n      mul\n      add\n      0x00\n      swap1\n      swap2\n      swap1\n      swap2\n      swap1\n      swap2\n      pop\n      0x00\n      dup3\n      add\n      mload\n      dup2\n      0x00\n      add\n      sstore\n      0x20\n      dup3\n      add\n      mload\n      dup2\n      0x01\n      add\n      sstore\n      0x40\n      dup3\n      add\n      mload\n      dup2\n      0x02\n      add\n      swap1\n      dup1\n      mload\n      swap1\n      0x20\n      add\n      swap1\n      tag_281\n      swap3\n      swap2\n      swap1\n      tag_282\n      jump\t// in\n    tag_281:\n      pop\n      pop\n      pop\n        /* \"Vendor.sol\":2778:2781  i++ */\n      dup1\n      dup1\n      tag_283\n      swap1\n      tag_186\n      jump\t// in\n    tag_283:\n      swap2\n      pop\n      pop\n        /* \"Vendor.sol\":2754:3074  for (uint i = 0; i < 8; i++) {... */\n      jump(tag_265)\n    tag_266:\n      pop\n        /* \"Vendor.sol\":8218:8219  _ */\n    tag_264:\n        /* \"Vendor.sol\":2611:3080  function setConds(string[8] memory _names, int[8] memory _values, string[8] memory _operators) external atStage(Stages.Initialising) {... */\n      pop\n      pop\n      pop\n      pop\n      jump\t// out\n        /* \"Vendor.sol\":4027:4244  function getDetails() external view returns (address, address, uint, uint, uint, uint, uint, uint) {... */\n    tag_134:\n        /* \"Vendor.sol\":4072:4079  address */\n      0x00\n        /* \"Vendor.sol\":4081:4088  address */\n      dup1\n        /* \"Vendor.sol\":4090:4094  uint */\n      0x00\n        /* \"Vendor.sol\":4096:4100  uint */\n      dup1\n        /* \"Vendor.sol\":4102:4106  uint */\n      0x00\n        /* \"Vendor.sol\":4108:4112  uint */\n      dup1\n        /* \"Vendor.sol\":4114:4118  uint */\n      0x00\n        /* \"Vendor.sol\":4120:4124  uint */\n      dup1\n        /* \"Vendor.sol\":4144:4150  client */\n      0x01\n      0x00\n      swap1\n      sload\n      swap1\n      0x0100\n      exp\n      swap1\n      div\n      0xffffffffffffffffffffffffffffffffffffffff\n      and\n        /* \"Vendor.sol\":4152:4157  payee */\n      0x02\n      0x00\n      swap1\n      sload\n      swap1\n      0x0100\n      exp\n      swap1\n      div\n      0xffffffffffffffffffffffffffffffffffffffff\n      and\n        /* \"Vendor.sol\":4159:4168  startDate */\n      sload(0x03)\n        /* \"Vendor.sol\":4170:4180  expiryDate */\n      sload(0x04)\n        /* \"Vendor.sol\":4182:4188  amount */\n      sload(0x05)\n        /* \"Vendor.sol\":4190:4205  prevBillingDate */\n      sload(0x06)\n        /* \"Vendor.sol\":4207:4222  nextBillingDate */\n      sload(0x07)\n        /* \"Vendor.sol\":4224:4236  contractHash */\n      sload(0x08)\n        /* \"Vendor.sol\":4136:4237  return (client, payee, startDate, expiryDate, amount, prevBillingDate, nextBillingDate, contractHash) */\n      swap8\n      pop\n      swap8\n      pop\n      swap8\n      pop\n      swap8\n      pop\n      swap8\n      pop\n      swap8\n      pop\n      swap8\n      pop\n      swap8\n      pop\n        /* \"Vendor.sol\":4027:4244  function getDetails() external view returns (address, address, uint, uint, uint, uint, uint, uint) {... */\n      swap1\n      swap2\n      swap3\n      swap4\n      swap5\n      swap6\n      swap7\n      swap8\n      jump\t// out\n        /* \"Vendor.sol\":5441:6088  function isSatisfied() private atStage(Stages.Active) {... */\n    tag_170:\n        /* \"Vendor.sol\":5480:5493  Stages.Active */\n      0x03\n        /* \"Vendor.sol\":8160:8166  _stage */\n      dup1\n        /* \"Vendor.sol\":8151:8166  stage == _stage */\n      0x04\n      dup2\n      gt\n      iszero\n      tag_286\n      jumpi\n      tag_287\n      tag_140\n      jump\t// in\n    tag_287:\n    tag_286:\n        /* \"Vendor.sol\":8151:8156  stage */\n      0x09\n      0x00\n      swap1\n      sload\n      swap1\n      0x0100\n      exp\n      swap1\n      div\n      0xff\n      and\n        /* \"Vendor.sol\":8151:8166  stage == _stage */\n      0x04\n      dup2\n      gt\n      iszero\n      tag_288\n      jumpi\n      tag_289\n      tag_140\n      jump\t// in\n    tag_289:\n    tag_288:\n      eq\n        /* \"Vendor.sol\":8143:8208  require(stage == _stage, \"Contract is not in the required state\") */\n      tag_290\n      jumpi\n      mload(0x40)\n      0x08c379a000000000000000000000000000000000000000000000000000000000\n      dup2\n      mstore\n      0x04\n      add\n      tag_291\n      swap1\n      tag_145\n      jump\t// in\n    tag_291:\n      mload(0x40)\n      dup1\n      swap2\n      sub\n      swap1\n      revert\n    tag_290:\n        /* \"Vendor.sol\":5510:5516  uint i */\n      0x00\n        /* \"Vendor.sol\":5505:5924  for (uint i = 0; i < conditionArray.length; i++) {... */\n    tag_293:\n        /* \"Vendor.sol\":5526:5540  conditionArray */\n      0x0a\n        /* \"Vendor.sol\":5526:5547  conditionArray.length */\n      dup1\n      sload\n      swap1\n      pop\n        /* \"Vendor.sol\":5522:5523  i */\n      dup2\n        /* \"Vendor.sol\":5522:5547  i < conditionArray.length */\n      lt\n        /* \"Vendor.sol\":5505:5924  for (uint i = 0; i < conditionArray.length; i++) {... */\n      iszero\n      tag_294\n      jumpi\n        /* \"Vendor.sol\":5568:5580  int operator */\n      0x00\n        /* \"Vendor.sol\":5583:5597  conditionArray */\n      0x0a\n        /* \"Vendor.sol\":5598:5599  i */\n      dup3\n        /* \"Vendor.sol\":5583:5600  conditionArray[i] */\n      dup2\n      sload\n      dup2\n      lt\n      tag_296\n      jumpi\n      tag_297\n      tag_182\n      jump\t// in\n    tag_297:\n    tag_296:\n      swap1\n      0x00\n      mstore\n      keccak256(0x00, 0x20)\n      swap1\n      0x03\n      mul\n      add\n        /* \"Vendor.sol\":5583:5609  conditionArray[i].operator */\n      0x01\n      add\n      sload\n        /* \"Vendor.sol\":5568:5609  int operator = conditionArray[i].operator */\n      swap1\n      pop\n        /* \"Vendor.sol\":5623:5632  int value */\n      0x00\n        /* \"Vendor.sol\":5635:5649  conditionArray */\n      0x0a\n        /* \"Vendor.sol\":5650:5651  i */\n      dup4\n        /* \"Vendor.sol\":5635:5652  conditionArray[i] */\n      dup2\n      sload\n      dup2\n      lt\n      tag_299\n      jumpi\n      tag_300\n      tag_182\n      jump\t// in\n    tag_300:\n    tag_299:\n      swap1\n      0x00\n      mstore\n      keccak256(0x00, 0x20)\n      swap1\n      0x03\n      mul\n      add\n        /* \"Vendor.sol\":5635:5658  conditionArray[i].value */\n      0x00\n      add\n      sload\n        /* \"Vendor.sol\":5623:5658  int value = conditionArray[i].value */\n      swap1\n      pop\n        /* \"Vendor.sol\":5672:5684  int _toCheck */\n      0x00\n        /* \"Vendor.sol\":5701:5706  count */\n      sload(0x0d)\n        /* \"Vendor.sol\":5687:5697  cumulative */\n      0x0c\n        /* \"Vendor.sol\":5687:5700  cumulative[i] */\n      0x00\n        /* \"Vendor.sol\":5698:5699  i */\n      dup7\n        /* \"Vendor.sol\":5687:5700  cumulative[i] */\n      dup2\n      mstore\n      0x20\n      add\n      swap1\n      dup2\n      mstore\n      0x20\n      add\n      0x00\n      keccak256\n      sload\n        /* \"Vendor.sol\":5687:5706  cumulative[i]/count */\n      tag_302\n      swap2\n      swap1\n      tag_303\n      jump\t// in\n    tag_302:\n        /* \"Vendor.sol\":5672:5706  int _toCheck = cumulative[i]/count */\n      swap1\n      pop\n        /* \"Vendor.sol\":5738:5774  condValid(operator, _toCheck, value) */\n      tag_304\n        /* \"Vendor.sol\":5748:5756  operator */\n      dup4\n        /* \"Vendor.sol\":5758:5766  _toCheck */\n      dup3\n        /* \"Vendor.sol\":5768:5773  value */\n      dup5\n        /* \"Vendor.sol\":5738:5747  condValid */\n      tag_305\n        /* \"Vendor.sol\":5738:5774  condValid(operator, _toCheck, value) */\n      jump\t// in\n    tag_304:\n        /* \"Vendor.sol\":5733:5914  if (!condValid(operator, _toCheck, value)) {... */\n      tag_306\n      jumpi\n        /* \"Vendor.sol\":5794:5802  refund() */\n      tag_307\n        /* \"Vendor.sol\":5794:5800  refund */\n      tag_308\n        /* \"Vendor.sol\":5794:5802  refund() */\n      jump\t// in\n    tag_307:\n        /* \"Vendor.sol\":5831:5841  msg.sender */\n      caller\n        /* \"Vendor.sol\":5825:5875  State(msg.sender, satisfied, \"Refunding payment.\") */\n      0xffffffffffffffffffffffffffffffffffffffff\n      and\n      0xa84226bf2d14bde3fac454f52eaeab63aaeb1934da88f9263dd4ff7dd12acf71\n        /* \"Vendor.sol\":5843:5852  satisfied */\n      0x09\n      0x01\n      swap1\n      sload\n      swap1\n      0x0100\n      exp\n      swap1\n      div\n      0xff\n      and\n        /* \"Vendor.sol\":5825:5875  State(msg.sender, satisfied, \"Refunding payment.\") */\n      mload(0x40)\n      tag_309\n      swap2\n      swap1\n      tag_310\n      jump\t// in\n    tag_309:\n      mload(0x40)\n      dup1\n      swap2\n      sub\n      swap1\n      log2\n        /* \"Vendor.sol\":5893:5900  return; */\n      pop\n      pop\n      pop\n      pop\n      jump(tag_292)\n        /* \"Vendor.sol\":5733:5914  if (!condValid(operator, _toCheck, value)) {... */\n    tag_306:\n        /* \"Vendor.sol\":5554:5924  {... */\n      pop\n      pop\n      pop\n        /* \"Vendor.sol\":5549:5552  i++ */\n      dup1\n      dup1\n      tag_311\n      swap1\n      tag_186\n      jump\t// in\n    tag_311:\n      swap2\n      pop\n      pop\n        /* \"Vendor.sol\":5505:5924  for (uint i = 0; i < conditionArray.length; i++) {... */\n      jump(tag_293)\n    tag_294:\n      pop\n        /* \"Vendor.sol\":5945:5949  true */\n      0x01\n        /* \"Vendor.sol\":5933:5942  satisfied */\n      0x09\n      0x01\n        /* \"Vendor.sol\":5933:5949  satisfied = true */\n      0x0100\n      exp\n      dup2\n      sload\n      dup2\n      0xff\n      mul\n      not\n      and\n      swap1\n      dup4\n      iszero\n      iszero\n      mul\n      or\n      swap1\n      sstore\n      pop\n        /* \"Vendor.sol\":5970:5980  msg.sender */\n      caller\n        /* \"Vendor.sol\":5964:6012  State(msg.sender, satisfied, \"Sending payment.\") */\n      0xffffffffffffffffffffffffffffffffffffffff\n      and\n      0xa84226bf2d14bde3fac454f52eaeab63aaeb1934da88f9263dd4ff7dd12acf71\n        /* \"Vendor.sol\":5982:5991  satisfied */\n      0x09\n      0x01\n      swap1\n      sload\n      swap1\n      0x0100\n      exp\n      swap1\n      div\n      0xff\n      and\n        /* \"Vendor.sol\":5964:6012  State(msg.sender, satisfied, \"Sending payment.\") */\n      mload(0x40)\n      tag_312\n      swap2\n      swap1\n      tag_313\n      jump\t// in\n    tag_312:\n      mload(0x40)\n      dup1\n      swap2\n      sub\n      swap1\n      log2\n        /* \"Vendor.sol\":6070:6081  payVendor() */\n      tag_314\n        /* \"Vendor.sol\":6070:6079  payVendor */\n      tag_315\n        /* \"Vendor.sol\":6070:6081  payVendor() */\n      jump\t// in\n    tag_314:\n        /* \"Vendor.sol\":8218:8219  _ */\n    tag_292:\n        /* \"Vendor.sol\":5441:6088  function isSatisfied() private atStage(Stages.Active) {... */\n      pop\n      jump\t// out\n        /* \"Vendor.sol\":2358:2601  function calcDate(uint _billingDate) private view returns (uint) {... */\n    tag_241:\n        /* \"Vendor.sol\":2417:2421  uint */\n      0x00\n        /* \"Vendor.sol\":2433:2451  uint blockInterval */\n      dup1\n        /* \"Vendor.sol\":1047:1051  6400 */\n      0x1900\n        /* \"Vendor.sol\":2454:2466  _billingDate */\n      dup4\n        /* \"Vendor.sol\":2454:2478  _billingDate/blocksDaily */\n      tag_317\n      swap2\n      swap1\n      tag_318\n      jump\t// in\n    tag_317:\n        /* \"Vendor.sol\":2433:2478  uint blockInterval = _billingDate/blocksDaily */\n      swap1\n      pop\n        /* \"Vendor.sol\":2581:2594  blockInterval */\n      dup1\n        /* \"Vendor.sol\":2566:2578  block.number */\n      number\n        /* \"Vendor.sol\":2566:2594  block.number + blockInterval */\n      tag_319\n      swap2\n      swap1\n      tag_244\n      jump\t// in\n    tag_319:\n        /* \"Vendor.sol\":2559:2594  return block.number + blockInterval */\n      swap2\n      pop\n      pop\n        /* \"Vendor.sol\":2358:2601  function calcDate(uint _billingDate) private view returns (uint) {... */\n      swap2\n      swap1\n      pop\n      jump\t// out\n        /* \"Vendor.sol\":2079:2291  function initOperators() private {... */\n    tag_246:\n        /* \"Vendor.sol\":2139:2140  1 */\n      0x01\n        /* \"Vendor.sol\":2122:2131  operators */\n      0x0b\n        /* \"Vendor.sol\":2122:2136  operators['>'] */\n      mload(0x40)\n      tag_321\n      swap1\n      tag_322\n      jump\t// in\n    tag_321:\n      swap1\n      dup2\n      mstore\n      0x20\n      add\n      mload(0x40)\n      dup1\n      swap2\n      sub\n      swap1\n      keccak256\n        /* \"Vendor.sol\":2122:2140  operators['>'] = 1 */\n      dup2\n      swap1\n      sstore\n      pop\n        /* \"Vendor.sol\":2168:2169  2 */\n      0x02\n        /* \"Vendor.sol\":2150:2159  operators */\n      0x0b\n        /* \"Vendor.sol\":2150:2165  operators['=='] */\n      mload(0x40)\n      tag_323\n      swap1\n      tag_324\n      jump\t// in\n    tag_323:\n      swap1\n      dup2\n      mstore\n      0x20\n      add\n      mload(0x40)\n      dup1\n      swap2\n      sub\n      swap1\n      keccak256\n        /* \"Vendor.sol\":2150:2169  operators['=='] = 2 */\n      dup2\n      swap1\n      sstore\n      pop\n        /* \"Vendor.sol\":2197:2198  3 */\n      0x03\n        /* \"Vendor.sol\":2179:2188  operators */\n      0x0b\n        /* \"Vendor.sol\":2179:2194  operators['=>'] */\n      mload(0x40)\n      tag_325\n      swap1\n      tag_326\n      jump\t// in\n    tag_325:\n      swap1\n      dup2\n      mstore\n      0x20\n      add\n      mload(0x40)\n      dup1\n      swap2\n      sub\n      swap1\n      keccak256\n        /* \"Vendor.sol\":2179:2198  operators['=>'] = 3 */\n      dup2\n      swap1\n      sstore\n      pop\n        /* \"Vendor.sol\":2225:2226  4 */\n      0x04\n        /* \"Vendor.sol\":2208:2217  operators */\n      0x0b\n        /* \"Vendor.sol\":2208:2222  operators['<'] */\n      mload(0x40)\n      tag_327\n      swap1\n      tag_328\n      jump\t// in\n    tag_327:\n      swap1\n      dup2\n      mstore\n      0x20\n      add\n      mload(0x40)\n      dup1\n      swap2\n      sub\n      swap1\n      keccak256\n        /* \"Vendor.sol\":2208:2226  operators['<'] = 4 */\n      dup2\n      swap1\n      sstore\n      pop\n        /* \"Vendor.sol\":2254:2255  5 */\n      0x05\n        /* \"Vendor.sol\":2236:2245  operators */\n      0x0b\n        /* \"Vendor.sol\":2236:2251  operators['!='] */\n      mload(0x40)\n      tag_329\n      swap1\n      tag_330\n      jump\t// in\n    tag_329:\n      swap1\n      dup2\n      mstore\n      0x20\n      add\n      mload(0x40)\n      dup1\n      swap2\n      sub\n      swap1\n      keccak256\n        /* \"Vendor.sol\":2236:2255  operators['!='] = 5 */\n      dup2\n      swap1\n      sstore\n      pop\n        /* \"Vendor.sol\":2283:2284  6 */\n      0x06\n        /* \"Vendor.sol\":2265:2274  operators */\n      0x0b\n        /* \"Vendor.sol\":2265:2280  operators['<='] */\n      mload(0x40)\n      tag_331\n      swap1\n      tag_332\n      jump\t// in\n    tag_331:\n      swap1\n      dup2\n      mstore\n      0x20\n      add\n      mload(0x40)\n      dup1\n      swap2\n      sub\n      swap1\n      keccak256\n        /* \"Vendor.sol\":2265:2284  operators['<='] = 6 */\n      dup2\n      swap1\n      sstore\n      pop\n        /* \"Vendor.sol\":2079:2291  function initOperators() private {... */\n      jump\t// out\n        /* \"Vendor.sol\":6235:6828  function condValid(int operator, int _toCheck, int value) private pure returns (bool) {... */\n    tag_305:\n        /* \"Vendor.sol\":6315:6319  bool */\n      0x00\n        /* \"Vendor.sol\":6347:6349  -1 */\n      0xffffffffffffffffffffffffffffffffffffffffffffffffffffffffffffffff\n        /* \"Vendor.sol\":6335:6343  operator */\n      dup5\n        /* \"Vendor.sol\":6335:6349  operator != -1 */\n      eq\n        /* \"Vendor.sol\":6331:6801  if (operator != -1) {... */\n      tag_334\n      jumpi\n        /* \"Vendor.sol\":6385:6386  1 */\n      0x01\n        /* \"Vendor.sol\":6380:6381  1 */\n      dup1\n        /* \"Vendor.sol\":6369:6377  operator */\n      dup6\n        /* \"Vendor.sol\":6369:6381  operator & 1 */\n      and\n        /* \"Vendor.sol\":6369:6386  operator & 1 == 1 */\n      eq\n        /* \"Vendor.sol\":6365:6498  if (operator & 1 == 1) {... */\n      iszero\n      tag_335\n      jumpi\n        /* \"Vendor.sol\":6423:6428  value */\n      dup2\n        /* \"Vendor.sol\":6412:6420  _toCheck */\n      dup4\n        /* \"Vendor.sol\":6412:6428  _toCheck > value */\n      sgt\n        /* \"Vendor.sol\":6406:6484  if (!(_toCheck > value)) {... */\n      tag_336\n      jumpi\n        /* \"Vendor.sol\":6460:6465  false */\n      0x00\n        /* \"Vendor.sol\":6453:6465  return false */\n      swap1\n      pop\n      jump(tag_333)\n        /* \"Vendor.sol\":6406:6484  if (!(_toCheck > value)) {... */\n    tag_336:\n        /* \"Vendor.sol\":6365:6498  if (operator & 1 == 1) {... */\n    tag_335:\n        /* \"Vendor.sol\":6531:6532  2 */\n      0x02\n        /* \"Vendor.sol\":6526:6527  2 */\n      dup1\n        /* \"Vendor.sol\":6515:6523  operator */\n      dup6\n        /* \"Vendor.sol\":6515:6527  operator & 2 */\n      and\n        /* \"Vendor.sol\":6515:6532  operator & 2 == 2 */\n      eq\n        /* \"Vendor.sol\":6511:6645  if (operator & 2 == 2) {... */\n      iszero\n      tag_337\n      jumpi\n        /* \"Vendor.sol\":6570:6575  value */\n      dup2\n        /* \"Vendor.sol\":6558:6566  _toCheck */\n      dup4\n        /* \"Vendor.sol\":6558:6575  _toCheck == value */\n      eq\n        /* \"Vendor.sol\":6552:6631  if (!(_toCheck == value)) {... */\n      tag_338\n      jumpi\n        /* \"Vendor.sol\":6607:6612  false */\n      0x00\n        /* \"Vendor.sol\":6600:6612  return false */\n      swap1\n      pop\n      jump(tag_333)\n        /* \"Vendor.sol\":6552:6631  if (!(_toCheck == value)) {... */\n    tag_338:\n        /* \"Vendor.sol\":6511:6645  if (operator & 2 == 2) {... */\n    tag_337:\n        /* \"Vendor.sol\":6678:6679  4 */\n      0x04\n        /* \"Vendor.sol\":6673:6674  4 */\n      dup1\n        /* \"Vendor.sol\":6662:6670  operator */\n      dup6\n        /* \"Vendor.sol\":6662:6674  operator & 4 */\n      and\n        /* \"Vendor.sol\":6662:6679  operator & 4 == 4 */\n      eq\n        /* \"Vendor.sol\":6658:6791  if (operator & 4 == 4) {... */\n      iszero\n      tag_339\n      jumpi\n        /* \"Vendor.sol\":6716:6721  value */\n      dup2\n        /* \"Vendor.sol\":6705:6713  _toCheck */\n      dup4\n        /* \"Vendor.sol\":6705:6721  _toCheck < value */\n      slt\n        /* \"Vendor.sol\":6699:6777  if (!(_toCheck < value)) {... */\n      tag_340\n      jumpi\n        /* \"Vendor.sol\":6753:6758  false */\n      0x00\n        /* \"Vendor.sol\":6746:6758  return false */\n      swap1\n      pop\n      jump(tag_333)\n        /* \"Vendor.sol\":6699:6777  if (!(_toCheck < value)) {... */\n    tag_340:\n        /* \"Vendor.sol\":6658:6791  if (operator & 4 == 4) {... */\n    tag_339:\n        /* \"Vendor.sol\":6331:6801  if (operator != -1) {... */\n    tag_334:\n        /* \"Vendor.sol\":6817:6821  true */\n      0x01\n        /* \"Vendor.sol\":6810:6821  return true */\n      swap1\n      pop\n        /* \"Vendor.sol\":6235:6828  function condValid(int operator, int _toCheck, int value) private pure returns (bool) {... */\n    tag_333:\n      swap4\n      swap3\n      pop\n      pop\n      pop\n      jump\t// out\n        /* \"Vendor.sol\":4619:4708  function refund() private {... */\n    tag_308:\n        /* \"Vendor.sol\":4655:4661  client */\n      0x01\n      0x00\n      swap1\n      sload\n      swap1\n      0x0100\n      exp\n      swap1\n      div\n      0xffffffffffffffffffffffffffffffffffffffff\n      and\n        /* \"Vendor.sol\":4655:4670  client.transfer */\n      0xffffffffffffffffffffffffffffffffffffffff\n      and\n        /* \"Vendor.sol\":4655:4678  client.transfer(amount) */\n      0x08fc\n        /* \"Vendor.sol\":4671:4677  amount */\n      sload(0x05)\n        /* \"Vendor.sol\":4655:4678  client.transfer(amount) */\n      swap1\n      dup2\n      iszero\n      mul\n      swap1\n      mload(0x40)\n      0x00\n      mload(0x40)\n      dup1\n      dup4\n      sub\n      dup2\n      dup6\n      dup9\n      dup9\n      call\n      swap4\n      pop\n      pop\n      pop\n      pop\n      iszero\n      dup1\n      iszero\n      tag_343\n      jumpi\n      returndatasize\n      0x00\n      dup1\n      returndatacopy\n      revert(0x00, returndatasize)\n    tag_343:\n      pop\n        /* \"Vendor.sol\":4688:4701  setNewDates() */\n      tag_344\n        /* \"Vendor.sol\":4688:4699  setNewDates */\n      tag_345\n        /* \"Vendor.sol\":4688:4701  setNewDates() */\n      jump\t// in\n    tag_344:\n        /* \"Vendor.sol\":4619:4708  function refund() private {... */\n      jump\t// out\n        /* \"Vendor.sol\":4518:4609  function payVendor() private {... */\n    tag_315:\n        /* \"Vendor.sol\":4557:4562  payee */\n      0x02\n      0x00\n      swap1\n      sload\n      swap1\n      0x0100\n      exp\n      swap1\n      div\n      0xffffffffffffffffffffffffffffffffffffffff\n      and\n        /* \"Vendor.sol\":4557:4571  payee.transfer */\n      0xffffffffffffffffffffffffffffffffffffffff\n      and\n        /* \"Vendor.sol\":4557:4579  payee.transfer(amount) */\n      0x08fc\n        /* \"Vendor.sol\":4572:4578  amount */\n      sload(0x05)\n        /* \"Vendor.sol\":4557:4579  payee.transfer(amount) */\n      swap1\n      dup2\n      iszero\n      mul\n      swap1\n      mload(0x40)\n      0x00\n      mload(0x40)\n      dup1\n      dup4\n      sub\n      dup2\n      dup6\n      dup9\n      dup9\n      call\n      swap4\n      pop\n      pop\n      pop\n      pop\n      iszero\n      dup1\n      iszero\n      tag_348\n      jumpi\n      returndatasize\n      0x00\n      dup1\n      returndatacopy\n      revert(0x00, returndatasize)\n    tag_348:\n      pop\n        /* \"Vendor.sol\":4589:4602  setNewDates() */\n      tag_349\n        /* \"Vendor.sol\":4589:4600  setNewDates */\n      tag_345\n        /* \"Vendor.sol\":4589:4602  setNewDates() */\n      jump\t// in\n    tag_349:\n        /* \"Vendor.sol\":4518:4609  function payVendor() private {... */\n      jump\t// out\n        /* \"Vendor.sol\":4714:4898  function setNewDates() private checkExpiry() {... */\n    tag_345:\n        /* \"Vendor.sol\":7980:7990  expiryDate */\n      sload(0x04)\n        /* \"Vendor.sol\":7965:7977  block.number */\n      number\n        /* \"Vendor.sol\":7965:7990  block.number < expiryDate */\n      lt\n        /* \"Vendor.sol\":7961:8018  if (block.number < expiryDate) {... */\n      iszero\n      tag_351\n      jumpi\n        /* \"Vendor.sol\":4781:4786  false */\n      0x00\n        /* \"Vendor.sol\":4769:4778  satisfied */\n      0x09\n      0x01\n        /* \"Vendor.sol\":4769:4786  satisfied = false */\n      0x0100\n      exp\n      dup2\n      sload\n      dup2\n      0xff\n      mul\n      not\n      and\n      swap1\n      dup4\n      iszero\n      iszero\n      mul\n      or\n      swap1\n      sstore\n      pop\n        /* \"Vendor.sol\":4814:4829  nextBillingDate */\n      sload(0x07)\n        /* \"Vendor.sol\":4796:4811  prevBillingDate */\n      0x06\n        /* \"Vendor.sol\":4796:4829  prevBillingDate = nextBillingDate */\n      dup2\n      swap1\n      sstore\n      pop\n        /* \"Vendor.sol\":1047:1051  6400 */\n      0x1900\n        /* \"Vendor.sol\":4875:4877  30 */\n      0x1e\n        /* \"Vendor.sol\":4875:4891  30 * blocksDaily */\n      tag_353\n      swap2\n      swap1\n      tag_354\n      jump\t// in\n    tag_353:\n        /* \"Vendor.sol\":4857:4872  nextBillingDate */\n      sload(0x07)\n        /* \"Vendor.sol\":4857:4891  nextBillingDate + 30 * blocksDaily */\n      tag_355\n      swap2\n      swap1\n      tag_244\n      jump\t// in\n    tag_355:\n        /* \"Vendor.sol\":4839:4854  nextBillingDate */\n      0x07\n        /* \"Vendor.sol\":4839:4891  nextBillingDate = nextBillingDate + 30 * blocksDaily */\n      dup2\n      swap1\n      sstore\n      pop\n        /* \"Vendor.sol\":7961:8018  if (block.number < expiryDate) {... */\n    tag_351:\n        /* \"Vendor.sol\":8035:8049  Stages.Expired */\n      0x04\n        /* \"Vendor.sol\":8027:8032  stage */\n      0x09\n      0x00\n        /* \"Vendor.sol\":8027:8049  stage = Stages.Expired */\n      0x0100\n      exp\n      dup2\n      sload\n      dup2\n      0xff\n      mul\n      not\n      and\n      swap1\n      dup4\n      0x04\n      dup2\n      gt\n      iszero\n      tag_356\n      jumpi\n      tag_357\n      tag_140\n      jump\t// in\n    tag_357:\n    tag_356:\n      mul\n      or\n      swap1\n      sstore\n      pop\n        /* \"Vendor.sol\":4714:4898  function setNewDates() private checkExpiry() {... */\n      jump\t// out\n    tag_282:\n      dup3\n      dup1\n      sload\n      tag_358\n      swap1\n      tag_155\n      jump\t// in\n    tag_358:\n      swap1\n      0x00\n      mstore\n      keccak256(0x00, 0x20)\n      swap1\n      0x1f\n      add\n      0x20\n      swap1\n      div\n      dup2\n      add\n      swap3\n      dup3\n      tag_360\n      jumpi\n      0x00\n      dup6\n      sstore\n      jump(tag_359)\n    tag_360:\n      dup3\n      0x1f\n      lt\n      tag_361\n      jumpi\n      dup1\n      mload\n      not(0xff)\n      and\n      dup4\n      dup1\n      add\n      or\n      dup6\n      sstore\n      jump(tag_359)\n    tag_361:\n      dup3\n      dup1\n      add\n      0x01\n      add\n      dup6\n      sstore\n      dup3\n      iszero\n      tag_359\n      jumpi\n      swap2\n      dup3\n      add\n    tag_362:\n      dup3\n      dup2\n      gt\n      iszero\n      tag_363\n      jumpi\n      dup3\n      mload\n      dup3\n      sstore\n      swap2\n      0x20\n      add\n      swap2\n      swap1\n      0x01\n      add\n      swap1\n      jump(tag_362)\n    tag_363:\n    tag_359:\n      pop\n      swap1\n      pop\n      tag_364\n      swap2\n      swap1\n      tag_365\n      jump\t// in\n    tag_364:\n      pop\n      swap1\n      jump\t// out\n    tag_365:\n    tag_366:\n      dup1\n      dup3\n      gt\n      iszero\n      tag_367\n      jumpi\n      0x00\n      dup2\n      0x00\n      swap1\n      sstore\n      pop\n      0x01\n      add\n      jump(tag_366)\n    tag_367:\n      pop\n      swap1\n      jump\t// out\n        /* \"#utility.yul\":24:676   */\n    tag_369:\n        /* \"#utility.yul\":117:122   */\n      0x00\n        /* \"#utility.yul\":142:220   */\n      tag_371\n        /* \"#utility.yul\":158:219   */\n      tag_372\n        /* \"#utility.yul\":212:218   */\n      dup5\n        /* \"#utility.yul\":158:219   */\n      tag_373\n      jump\t// in\n    tag_372:\n        /* \"#utility.yul\":142:220   */\n      tag_374\n      jump\t// in\n    tag_371:\n        /* \"#utility.yul\":133:220   */\n      swap1\n      pop\n        /* \"#utility.yul\":240:245   */\n      dup1\n        /* \"#utility.yul\":266:272   */\n      dup3\n        /* \"#utility.yul\":316:319   */\n      dup6\n        /* \"#utility.yul\":308:312   */\n      0x20\n        /* \"#utility.yul\":300:306   */\n      dup7\n        /* \"#utility.yul\":296:313   */\n      mul\n        /* \"#utility.yul\":291:294   */\n      dup3\n        /* \"#utility.yul\":287:314   */\n      add\n        /* \"#utility.yul\":284:320   */\n      gt\n        /* \"#utility.yul\":281:283   */\n      iszero\n      tag_375\n      jumpi\n        /* \"#utility.yul\":335:414   */\n      tag_376\n      tag_377\n      jump\t// in\n    tag_376:\n        /* \"#utility.yul\":281:283   */\n    tag_375:\n        /* \"#utility.yul\":448:449   */\n      0x00\n        /* \"#utility.yul\":433:670   */\n    tag_378:\n        /* \"#utility.yul\":458:464   */\n      dup6\n        /* \"#utility.yul\":455:456   */\n      dup2\n        /* \"#utility.yul\":452:465   */\n      lt\n        /* \"#utility.yul\":433:670   */\n      iszero\n      tag_380\n      jumpi\n        /* \"#utility.yul\":526:529   */\n      dup2\n        /* \"#utility.yul\":555:591   */\n      tag_381\n        /* \"#utility.yul\":587:590   */\n      dup9\n        /* \"#utility.yul\":575:585   */\n      dup3\n        /* \"#utility.yul\":555:591   */\n      tag_382\n      jump\t// in\n    tag_381:\n        /* \"#utility.yul\":550:553   */\n      dup5\n        /* \"#utility.yul\":543:592   */\n      mstore\n        /* \"#utility.yul\":621:625   */\n      0x20\n        /* \"#utility.yul\":616:619   */\n      dup5\n        /* \"#utility.yul\":612:626   */\n      add\n        /* \"#utility.yul\":605:626   */\n      swap4\n      pop\n        /* \"#utility.yul\":655:659   */\n      0x20\n        /* \"#utility.yul\":650:653   */\n      dup4\n        /* \"#utility.yul\":646:660   */\n      add\n        /* \"#utility.yul\":639:660   */\n      swap3\n      pop\n        /* \"#utility.yul\":493:670   */\n      pop\n        /* \"#utility.yul\":480:481   */\n      0x01\n        /* \"#utility.yul\":477:478   */\n      dup2\n        /* \"#utility.yul\":473:482   */\n      add\n        /* \"#utility.yul\":468:482   */\n      swap1\n      pop\n        /* \"#utility.yul\":433:670   */\n      jump(tag_378)\n    tag_380:\n        /* \"#utility.yul\":437:451   */\n      pop\n        /* \"#utility.yul\":123:676   */\n      pop\n      pop\n      swap4\n      swap3\n      pop\n      pop\n      pop\n      jump\t// out\n        /* \"#utility.yul\":698:1417   */\n    tag_383:\n        /* \"#utility.yul\":793:798   */\n      0x00\n        /* \"#utility.yul\":818:898   */\n      tag_385\n        /* \"#utility.yul\":834:897   */\n      tag_386\n        /* \"#utility.yul\":890:896   */\n      dup5\n        /* \"#utility.yul\":834:897   */\n      tag_387\n      jump\t// in\n    tag_386:\n        /* \"#utility.yul\":818:898   */\n      tag_374\n      jump\t// in\n    tag_385:\n        /* \"#utility.yul\":809:898   */\n      swap1\n      pop\n        /* \"#utility.yul\":918:923   */\n      dup1\n        /* \"#utility.yul\":947:953   */\n      dup4\n        /* \"#utility.yul\":940:945   */\n      dup3\n        /* \"#utility.yul\":933:954   */\n      mstore\n        /* \"#utility.yul\":981:985   */\n      0x20\n        /* \"#utility.yul\":974:979   */\n      dup3\n        /* \"#utility.yul\":970:986   */\n      add\n        /* \"#utility.yul\":963:986   */\n      swap1\n      pop\n        /* \"#utility.yul\":1007:1013   */\n      dup3\n        /* \"#utility.yul\":1057:1060   */\n      dup6\n        /* \"#utility.yul\":1049:1053   */\n      0x20\n        /* \"#utility.yul\":1041:1047   */\n      dup7\n        /* \"#utility.yul\":1037:1054   */\n      mul\n        /* \"#utility.yul\":1032:1035   */\n      dup3\n        /* \"#utility.yul\":1028:1055   */\n      add\n        /* \"#utility.yul\":1025:1061   */\n      gt\n        /* \"#utility.yul\":1022:1024   */\n      iszero\n      tag_388\n      jumpi\n        /* \"#utility.yul\":1076:1155   */\n      tag_389\n      tag_377\n      jump\t// in\n    tag_389:\n        /* \"#utility.yul\":1022:1024   */\n    tag_388:\n        /* \"#utility.yul\":1189:1190   */\n      0x00\n        /* \"#utility.yul\":1174:1411   */\n    tag_390:\n        /* \"#utility.yul\":1199:1205   */\n      dup6\n        /* \"#utility.yul\":1196:1197   */\n      dup2\n        /* \"#utility.yul\":1193:1206   */\n      lt\n        /* \"#utility.yul\":1174:1411   */\n      iszero\n      tag_392\n      jumpi\n        /* \"#utility.yul\":1267:1270   */\n      dup2\n        /* \"#utility.yul\":1296:1332   */\n      tag_393\n        /* \"#utility.yul\":1328:1331   */\n      dup9\n        /* \"#utility.yul\":1316:1326   */\n      dup3\n        /* \"#utility.yul\":1296:1332   */\n      tag_382\n      jump\t// in\n    tag_393:\n        /* \"#utility.yul\":1291:1294   */\n      dup5\n        /* \"#utility.yul\":1284:1333   */\n      mstore\n        /* \"#utility.yul\":1362:1366   */\n      0x20\n        /* \"#utility.yul\":1357:1360   */\n      dup5\n        /* \"#utility.yul\":1353:1367   */\n      add\n        /* \"#utility.yul\":1346:1367   */\n      swap4\n      pop\n        /* \"#utility.yul\":1396:1400   */\n      0x20\n        /* \"#utility.yul\":1391:1394   */\n      dup4\n        /* \"#utility.yul\":1387:1401   */\n      add\n        /* \"#utility.yul\":1380:1401   */\n      swap3\n      pop\n        /* \"#utility.yul\":1234:1411   */\n      pop\n        /* \"#utility.yul\":1221:1222   */\n      0x01\n        /* \"#utility.yul\":1218:1219   */\n      dup2\n        /* \"#utility.yul\":1214:1223   */\n      add\n        /* \"#utility.yul\":1209:1223   */\n      swap1\n      pop\n        /* \"#utility.yul\":1174:1411   */\n      jump(tag_390)\n    tag_392:\n        /* \"#utility.yul\":1178:1192   */\n      pop\n        /* \"#utility.yul\":799:1417   */\n      pop\n      pop\n      swap4\n      swap3\n      pop\n      pop\n      pop\n      jump\t// out\n        /* \"#utility.yul\":1440:2330   */\n    tag_394:\n        /* \"#utility.yul\":1544:1549   */\n      0x00\n        /* \"#utility.yul\":1569:1658   */\n      tag_396\n        /* \"#utility.yul\":1585:1657   */\n      tag_397\n        /* \"#utility.yul\":1650:1656   */\n      dup5\n        /* \"#utility.yul\":1585:1657   */\n      tag_398\n      jump\t// in\n    tag_397:\n        /* \"#utility.yul\":1569:1658   */\n      tag_374\n      jump\t// in\n    tag_396:\n        /* \"#utility.yul\":1560:1658   */\n      swap1\n      pop\n        /* \"#utility.yul\":1678:1683   */\n      dup1\n        /* \"#utility.yul\":1704:1710   */\n      dup3\n        /* \"#utility.yul\":1754:1757   */\n      dup6\n        /* \"#utility.yul\":1746:1750   */\n      0x20\n        /* \"#utility.yul\":1738:1744   */\n      dup7\n        /* \"#utility.yul\":1734:1751   */\n      mul\n        /* \"#utility.yul\":1729:1732   */\n      dup3\n        /* \"#utility.yul\":1725:1752   */\n      add\n        /* \"#utility.yul\":1722:1758   */\n      gt\n        /* \"#utility.yul\":1719:1721   */\n      iszero\n      tag_399\n      jumpi\n        /* \"#utility.yul\":1773:1852   */\n      tag_400\n      tag_377\n      jump\t// in\n    tag_400:\n        /* \"#utility.yul\":1719:1721   */\n    tag_399:\n        /* \"#utility.yul\":1886:1887   */\n      0x00\n        /* \"#utility.yul\":1871:2324   */\n    tag_401:\n        /* \"#utility.yul\":1896:1902   */\n      dup6\n        /* \"#utility.yul\":1893:1894   */\n      dup2\n        /* \"#utility.yul\":1890:1903   */\n      lt\n        /* \"#utility.yul\":1871:2324   */\n      iszero\n      tag_403\n      jumpi\n        /* \"#utility.yul\":1978:1981   */\n      dup2\n        /* \"#utility.yul\":1965:1982   */\n      calldataload\n        /* \"#utility.yul\":2014:2032   */\n      0xffffffffffffffff\n        /* \"#utility.yul\":2001:2012   */\n      dup2\n        /* \"#utility.yul\":1998:2033   */\n      gt\n        /* \"#utility.yul\":1995:1997   */\n      iszero\n      tag_404\n      jumpi\n        /* \"#utility.yul\":2036:2115   */\n      tag_405\n      tag_406\n      jump\t// in\n    tag_405:\n        /* \"#utility.yul\":1995:1997   */\n    tag_404:\n        /* \"#utility.yul\":2160:2171   */\n      dup1\n        /* \"#utility.yul\":2152:2158   */\n      dup7\n        /* \"#utility.yul\":2148:2172   */\n      add\n        /* \"#utility.yul\":2198:2245   */\n      tag_407\n        /* \"#utility.yul\":2241:2244   */\n      dup10\n        /* \"#utility.yul\":2229:2239   */\n      dup3\n        /* \"#utility.yul\":2198:2245   */\n      tag_408\n      jump\t// in\n    tag_407:\n        /* \"#utility.yul\":2193:2196   */\n      dup6\n        /* \"#utility.yul\":2186:2246   */\n      mstore\n        /* \"#utility.yul\":2275:2279   */\n      0x20\n        /* \"#utility.yul\":2270:2273   */\n      dup6\n        /* \"#utility.yul\":2266:2280   */\n      add\n        /* \"#utility.yul\":2259:2280   */\n      swap5\n      pop\n        /* \"#utility.yul\":2309:2313   */\n      0x20\n        /* \"#utility.yul\":2304:2307   */\n      dup5\n        /* \"#utility.yul\":2300:2314   */\n      add\n        /* \"#utility.yul\":2293:2314   */\n      swap4\n      pop\n        /* \"#utility.yul\":1931:2324   */\n      pop\n      pop\n        /* \"#utility.yul\":1918:1919   */\n      0x01\n        /* \"#utility.yul\":1915:1916   */\n      dup2\n        /* \"#utility.yul\":1911:1920   */\n      add\n        /* \"#utility.yul\":1906:1920   */\n      swap1\n      pop\n        /* \"#utility.yul\":1871:2324   */\n      jump(tag_401)\n    tag_403:\n        /* \"#utility.yul\":1875:1889   */\n      pop\n        /* \"#utility.yul\":1550:2330   */\n      pop\n      pop\n      swap4\n      swap3\n      pop\n      pop\n      pop\n      jump\t// out\n        /* \"#utility.yul\":2336:2748   */\n    tag_409:\n        /* \"#utility.yul\":2414:2419   */\n      0x00\n        /* \"#utility.yul\":2439:2505   */\n      tag_411\n        /* \"#utility.yul\":2455:2504   */\n      tag_412\n        /* \"#utility.yul\":2497:2503   */\n      dup5\n        /* \"#utility.yul\":2455:2504   */\n      tag_413\n      jump\t// in\n    tag_412:\n        /* \"#utility.yul\":2439:2505   */\n      tag_374\n      jump\t// in\n    tag_411:\n        /* \"#utility.yul\":2430:2505   */\n      swap1\n      pop\n        /* \"#utility.yul\":2528:2534   */\n      dup3\n        /* \"#utility.yul\":2521:2526   */\n      dup2\n        /* \"#utility.yul\":2514:2535   */\n      mstore\n        /* \"#utility.yul\":2566:2570   */\n      0x20\n        /* \"#utility.yul\":2559:2564   */\n      dup2\n        /* \"#utility.yul\":2555:2571   */\n      add\n        /* \"#utility.yul\":2604:2607   */\n      dup5\n        /* \"#utility.yul\":2595:2601   */\n      dup5\n        /* \"#utility.yul\":2590:2593   */\n      dup5\n        /* \"#utility.yul\":2586:2602   */\n      add\n        /* \"#utility.yul\":2583:2608   */\n      gt\n        /* \"#utility.yul\":2580:2582   */\n      iszero\n      tag_414\n      jumpi\n        /* \"#utility.yul\":2611:2690   */\n      tag_415\n      tag_416\n      jump\t// in\n    tag_415:\n        /* \"#utility.yul\":2580:2582   */\n    tag_414:\n        /* \"#utility.yul\":2701:2742   */\n      tag_417\n        /* \"#utility.yul\":2735:2741   */\n      dup5\n        /* \"#utility.yul\":2730:2733   */\n      dup3\n        /* \"#utility.yul\":2725:2728   */\n      dup6\n        /* \"#utility.yul\":2701:2742   */\n      tag_418\n      jump\t// in\n    tag_417:\n        /* \"#utility.yul\":2420:2748   */\n      pop\n      swap4\n      swap3\n      pop\n      pop\n      pop\n      jump\t// out\n        /* \"#utility.yul\":2754:2893   */\n    tag_419:\n        /* \"#utility.yul\":2800:2805   */\n      0x00\n        /* \"#utility.yul\":2838:2844   */\n      dup2\n        /* \"#utility.yul\":2825:2845   */\n      calldataload\n        /* \"#utility.yul\":2816:2845   */\n      swap1\n      pop\n        /* \"#utility.yul\":2854:2887   */\n      tag_421\n        /* \"#utility.yul\":2881:2886   */\n      dup2\n        /* \"#utility.yul\":2854:2887   */\n      tag_422\n      jump\t// in\n    tag_421:\n        /* \"#utility.yul\":2806:2893   */\n      swap3\n      swap2\n      pop\n      pop\n      jump\t// out\n        /* \"#utility.yul\":2916:3253   */\n    tag_423:\n        /* \"#utility.yul\":2984:2989   */\n      0x00\n        /* \"#utility.yul\":3033:3036   */\n      dup3\n        /* \"#utility.yul\":3026:3030   */\n      0x1f\n        /* \"#utility.yul\":3018:3024   */\n      dup4\n        /* \"#utility.yul\":3014:3031   */\n      add\n        /* \"#utility.yul\":3010:3037   */\n      slt\n        /* \"#utility.yul\":3000:3002   */\n      tag_425\n      jumpi\n        /* \"#utility.yul\":3041:3120   */\n      tag_426\n      tag_406\n      jump\t// in\n    tag_426:\n        /* \"#utility.yul\":3000:3002   */\n    tag_425:\n        /* \"#utility.yul\":3145:3149   */\n      0x08\n        /* \"#utility.yul\":3167:3247   */\n      tag_427\n        /* \"#utility.yul\":3243:3246   */\n      dup5\n        /* \"#utility.yul\":3235:3241   */\n      dup3\n        /* \"#utility.yul\":3227:3233   */\n      dup6\n        /* \"#utility.yul\":3167:3247   */\n      tag_369\n      jump\t// in\n    tag_427:\n        /* \"#utility.yul\":3158:3247   */\n      swap2\n      pop\n        /* \"#utility.yul\":2990:3253   */\n      pop\n      swap3\n      swap2\n      pop\n      pop\n      jump\t// out\n        /* \"#utility.yul\":3275:3643   */\n    tag_428:\n        /* \"#utility.yul\":3345:3350   */\n      0x00\n        /* \"#utility.yul\":3394:3397   */\n      dup3\n        /* \"#utility.yul\":3387:3391   */\n      0x1f\n        /* \"#utility.yul\":3379:3385   */\n      dup4\n        /* \"#utility.yul\":3375:3392   */\n      add\n        /* \"#utility.yul\":3371:3398   */\n      slt\n        /* \"#utility.yul\":3361:3363   */\n      tag_430\n      jumpi\n        /* \"#utility.yul\":3402:3481   */\n      tag_431\n      tag_406\n      jump\t// in\n    tag_431:\n        /* \"#utility.yul\":3361:3363   */\n    tag_430:\n        /* \"#utility.yul\":3519:3525   */\n      dup2\n        /* \"#utility.yul\":3506:3526   */\n      calldataload\n        /* \"#utility.yul\":3544:3637   */\n      tag_432\n        /* \"#utility.yul\":3633:3636   */\n      dup5\n        /* \"#utility.yul\":3625:3631   */\n      dup3\n        /* \"#utility.yul\":3618:3622   */\n      0x20\n        /* \"#utility.yul\":3610:3616   */\n      dup7\n        /* \"#utility.yul\":3606:3623   */\n      add\n        /* \"#utility.yul\":3544:3637   */\n      tag_383\n      jump\t// in\n    tag_432:\n        /* \"#utility.yul\":3535:3637   */\n      swap2\n      pop\n        /* \"#utility.yul\":3351:3643   */\n      pop\n      swap3\n      swap2\n      pop\n      pop\n      jump\t// out\n        /* \"#utility.yul\":3666:4025   */\n    tag_433:\n        /* \"#utility.yul\":3745:3750   */\n      0x00\n        /* \"#utility.yul\":3794:3797   */\n      dup3\n        /* \"#utility.yul\":3787:3791   */\n      0x1f\n        /* \"#utility.yul\":3779:3785   */\n      dup4\n        /* \"#utility.yul\":3775:3792   */\n      add\n        /* \"#utility.yul\":3771:3798   */\n      slt\n        /* \"#utility.yul\":3761:3763   */\n      tag_435\n      jumpi\n        /* \"#utility.yul\":3802:3881   */\n      tag_436\n      tag_406\n      jump\t// in\n    tag_436:\n        /* \"#utility.yul\":3761:3763   */\n    tag_435:\n        /* \"#utility.yul\":3906:3910   */\n      0x08\n        /* \"#utility.yul\":3928:4019   */\n      tag_437\n        /* \"#utility.yul\":4015:4018   */\n      dup5\n        /* \"#utility.yul\":4007:4013   */\n      dup3\n        /* \"#utility.yul\":3999:4005   */\n      dup6\n        /* \"#utility.yul\":3928:4019   */\n      tag_394\n      jump\t// in\n    tag_437:\n        /* \"#utility.yul\":3919:4019   */\n      swap2\n      pop\n        /* \"#utility.yul\":3751:4025   */\n      pop\n      swap3\n      swap2\n      pop\n      pop\n      jump\t// out\n        /* \"#utility.yul\":4031:4168   */\n    tag_382:\n        /* \"#utility.yul\":4076:4081   */\n      0x00\n        /* \"#utility.yul\":4114:4120   */\n      dup2\n        /* \"#utility.yul\":4101:4121   */\n      calldataload\n        /* \"#utility.yul\":4092:4121   */\n      swap1\n      pop\n        /* \"#utility.yul\":4130:4162   */\n      tag_439\n        /* \"#utility.yul\":4156:4161   */\n      dup2\n        /* \"#utility.yul\":4130:4162   */\n      tag_440\n      jump\t// in\n    tag_439:\n        /* \"#utility.yul\":4082:4168   */\n      swap3\n      swap2\n      pop\n      pop\n      jump\t// out\n        /* \"#utility.yul\":4188:4528   */\n    tag_408:\n        /* \"#utility.yul\":4244:4249   */\n      0x00\n        /* \"#utility.yul\":4293:4296   */\n      dup3\n        /* \"#utility.yul\":4286:4290   */\n      0x1f\n        /* \"#utility.yul\":4278:4284   */\n      dup4\n        /* \"#utility.yul\":4274:4291   */\n      add\n        /* \"#utility.yul\":4270:4297   */\n      slt\n        /* \"#utility.yul\":4260:4262   */\n      tag_442\n      jumpi\n        /* \"#utility.yul\":4301:4380   */\n      tag_443\n      tag_406\n      jump\t// in\n    tag_443:\n        /* \"#utility.yul\":4260:4262   */\n    tag_442:\n        /* \"#utility.yul\":4418:4424   */\n      dup2\n        /* \"#utility.yul\":4405:4425   */\n      calldataload\n        /* \"#utility.yul\":4443:4522   */\n      tag_444\n        /* \"#utility.yul\":4518:4521   */\n      dup5\n        /* \"#utility.yul\":4510:4516   */\n      dup3\n        /* \"#utility.yul\":4503:4507   */\n      0x20\n        /* \"#utility.yul\":4495:4501   */\n      dup7\n        /* \"#utility.yul\":4491:4508   */\n      add\n        /* \"#utility.yul\":4443:4522   */\n      tag_409\n      jump\t// in\n    tag_444:\n        /* \"#utility.yul\":4434:4522   */\n      swap2\n      pop\n        /* \"#utility.yul\":4250:4528   */\n      pop\n      swap3\n      swap2\n      pop\n      pop\n      jump\t// out\n        /* \"#utility.yul\":4534:4673   */\n    tag_445:\n        /* \"#utility.yul\":4580:4585   */\n      0x00\n        /* \"#utility.yul\":4618:4624   */\n      dup2\n        /* \"#utility.yul\":4605:4625   */\n      calldataload\n        /* \"#utility.yul\":4596:4625   */\n      swap1\n      pop\n        /* \"#utility.yul\":4634:4667   */\n      tag_447\n        /* \"#utility.yul\":4661:4666   */\n      dup2\n        /* \"#utility.yul\":4634:4667   */\n      tag_448\n      jump\t// in\n    tag_447:\n        /* \"#utility.yul\":4586:4673   */\n      swap3\n      swap2\n      pop\n      pop\n      jump\t// out\n        /* \"#utility.yul\":4679:5008   */\n    tag_68:\n        /* \"#utility.yul\":4738:4744   */\n      0x00\n        /* \"#utility.yul\":4787:4789   */\n      0x20\n        /* \"#utility.yul\":4775:4784   */\n      dup3\n        /* \"#utility.yul\":4766:4773   */\n      dup5\n        /* \"#utility.yul\":4762:4785   */\n      sub\n        /* \"#utility.yul\":4758:4790   */\n      slt\n        /* \"#utility.yul\":4755:4757   */\n      iszero\n      tag_450\n      jumpi\n        /* \"#utility.yul\":4793:4872   */\n      tag_451\n      tag_452\n      jump\t// in\n    tag_451:\n        /* \"#utility.yul\":4755:4757   */\n    tag_450:\n        /* \"#utility.yul\":4913:4914   */\n      0x00\n        /* \"#utility.yul\":4938:4991   */\n      tag_453\n        /* \"#utility.yul\":4983:4990   */\n      dup5\n        /* \"#utility.yul\":4974:4980   */\n      dup3\n        /* \"#utility.yul\":4963:4972   */\n      dup6\n        /* \"#utility.yul\":4959:4981   */\n      add\n        /* \"#utility.yul\":4938:4991   */\n      tag_419\n      jump\t// in\n    tag_453:\n        /* \"#utility.yul\":4928:4991   */\n      swap2\n      pop\n        /* \"#utility.yul\":4884:5001   */\n      pop\n        /* \"#utility.yul\":4745:5008   */\n      swap3\n      swap2\n      pop\n      pop\n      jump\t// out\n        /* \"#utility.yul\":5014:5925   */\n    tag_104:\n        /* \"#utility.yul\":5109:5115   */\n      0x00\n        /* \"#utility.yul\":5117:5123   */\n      dup1\n        /* \"#utility.yul\":5125:5131   */\n      0x00\n        /* \"#utility.yul\":5133:5139   */\n      dup1\n        /* \"#utility.yul\":5141:5147   */\n      0x00\n        /* \"#utility.yul\":5190:5193   */\n      0xa0\n        /* \"#utility.yul\":5178:5187   */\n      dup7\n        /* \"#utility.yul\":5169:5176   */\n      dup9\n        /* \"#utility.yul\":5165:5188   */\n      sub\n        /* \"#utility.yul\":5161:5194   */\n      slt\n        /* \"#utility.yul\":5158:5160   */\n      iszero\n      tag_455\n      jumpi\n        /* \"#utility.yul\":5197:5276   */\n      tag_456\n      tag_452\n      jump\t// in\n    tag_456:\n        /* \"#utility.yul\":5158:5160   */\n    tag_455:\n        /* \"#utility.yul\":5317:5318   */\n      0x00\n        /* \"#utility.yul\":5342:5395   */\n      tag_457\n        /* \"#utility.yul\":5387:5394   */\n      dup9\n        /* \"#utility.yul\":5378:5384   */\n      dup3\n        /* \"#utility.yul\":5367:5376   */\n      dup10\n        /* \"#utility.yul\":5363:5385   */\n      add\n        /* \"#utility.yul\":5342:5395   */\n      tag_419\n      jump\t// in\n    tag_457:\n        /* \"#utility.yul\":5332:5395   */\n      swap6\n      pop\n        /* \"#utility.yul\":5288:5405   */\n      pop\n        /* \"#utility.yul\":5444:5446   */\n      0x20\n        /* \"#utility.yul\":5470:5523   */\n      tag_458\n        /* \"#utility.yul\":5515:5522   */\n      dup9\n        /* \"#utility.yul\":5506:5512   */\n      dup3\n        /* \"#utility.yul\":5495:5504   */\n      dup10\n        /* \"#utility.yul\":5491:5513   */\n      add\n        /* \"#utility.yul\":5470:5523   */\n      tag_445\n      jump\t// in\n    tag_458:\n        /* \"#utility.yul\":5460:5523   */\n      swap5\n      pop\n        /* \"#utility.yul\":5415:5533   */\n      pop\n        /* \"#utility.yul\":5572:5574   */\n      0x40\n        /* \"#utility.yul\":5598:5651   */\n      tag_459\n        /* \"#utility.yul\":5643:5650   */\n      dup9\n        /* \"#utility.yul\":5634:5640   */\n      dup3\n        /* \"#utility.yul\":5623:5632   */\n      dup10\n        /* \"#utility.yul\":5619:5641   */\n      add\n        /* \"#utility.yul\":5598:5651   */\n      tag_445\n      jump\t// in\n    tag_459:\n        /* \"#utility.yul\":5588:5651   */\n      swap4\n      pop\n        /* \"#utility.yul\":5543:5661   */\n      pop\n        /* \"#utility.yul\":5700:5702   */\n      0x60\n        /* \"#utility.yul\":5726:5779   */\n      tag_460\n        /* \"#utility.yul\":5771:5778   */\n      dup9\n        /* \"#utility.yul\":5762:5768   */\n      dup3\n        /* \"#utility.yul\":5751:5760   */\n      dup10\n        /* \"#utility.yul\":5747:5769   */\n      add\n        /* \"#utility.yul\":5726:5779   */\n      tag_445\n      jump\t// in\n    tag_460:\n        /* \"#utility.yul\":5716:5779   */\n      swap3\n      pop\n        /* \"#utility.yul\":5671:5789   */\n      pop\n        /* \"#utility.yul\":5828:5831   */\n      0x80\n        /* \"#utility.yul\":5855:5908   */\n      tag_461\n        /* \"#utility.yul\":5900:5907   */\n      dup9\n        /* \"#utility.yul\":5891:5897   */\n      dup3\n        /* \"#utility.yul\":5880:5889   */\n      dup10\n        /* \"#utility.yul\":5876:5898   */\n      add\n        /* \"#utility.yul\":5855:5908   */\n      tag_445\n      jump\t// in\n    tag_461:\n        /* \"#utility.yul\":5845:5908   */\n      swap2\n      pop\n        /* \"#utility.yul\":5799:5918   */\n      pop\n        /* \"#utility.yul\":5148:5925   */\n      swap3\n      swap6\n      pop\n      swap3\n      swap6\n      swap1\n      swap4\n      pop\n      jump\t// out\n        /* \"#utility.yul\":5931:6468   */\n    tag_54:\n        /* \"#utility.yul\":6014:6020   */\n      0x00\n        /* \"#utility.yul\":6063:6065   */\n      0x20\n        /* \"#utility.yul\":6051:6060   */\n      dup3\n        /* \"#utility.yul\":6042:6049   */\n      dup5\n        /* \"#utility.yul\":6038:6061   */\n      sub\n        /* \"#utility.yul\":6034:6066   */\n      slt\n        /* \"#utility.yul\":6031:6033   */\n      iszero\n      tag_463\n      jumpi\n        /* \"#utility.yul\":6069:6148   */\n      tag_464\n      tag_452\n      jump\t// in\n    tag_464:\n        /* \"#utility.yul\":6031:6033   */\n    tag_463:\n        /* \"#utility.yul\":6217:6218   */\n      0x00\n        /* \"#utility.yul\":6206:6215   */\n      dup3\n        /* \"#utility.yul\":6202:6219   */\n      add\n        /* \"#utility.yul\":6189:6220   */\n      calldataload\n        /* \"#utility.yul\":6247:6265   */\n      0xffffffffffffffff\n        /* \"#utility.yul\":6239:6245   */\n      dup2\n        /* \"#utility.yul\":6236:6266   */\n      gt\n        /* \"#utility.yul\":6233:6235   */\n      iszero\n      tag_465\n      jumpi\n        /* \"#utility.yul\":6269:6348   */\n      tag_466\n      tag_467\n      jump\t// in\n    tag_466:\n        /* \"#utility.yul\":6233:6235   */\n    tag_465:\n        /* \"#utility.yul\":6374:6451   */\n      tag_468\n        /* \"#utility.yul\":6443:6450   */\n      dup5\n        /* \"#utility.yul\":6434:6440   */\n      dup3\n        /* \"#utility.yul\":6423:6432   */\n      dup6\n        /* \"#utility.yul\":6419:6441   */\n      add\n        /* \"#utility.yul\":6374:6451   */\n      tag_428\n      jump\t// in\n    tag_468:\n        /* \"#utility.yul\":6364:6451   */\n      swap2\n      pop\n        /* \"#utility.yul\":6160:6461   */\n      pop\n        /* \"#utility.yul\":6021:6468   */\n      swap3\n      swap2\n      pop\n      pop\n      jump\t// out\n        /* \"#utility.yul\":6474:7591   */\n    tag_130:\n        /* \"#utility.yul\":6639:6645   */\n      0x00\n        /* \"#utility.yul\":6647:6653   */\n      dup1\n        /* \"#utility.yul\":6655:6661   */\n      0x00\n        /* \"#utility.yul\":6704:6707   */\n      0x0140\n        /* \"#utility.yul\":6692:6701   */\n      dup5\n        /* \"#utility.yul\":6683:6690   */\n      dup7\n        /* \"#utility.yul\":6679:6702   */\n      sub\n        /* \"#utility.yul\":6675:6708   */\n      slt\n        /* \"#utility.yul\":6672:6674   */\n      iszero\n      tag_470\n      jumpi\n        /* \"#utility.yul\":6711:6790   */\n      tag_471\n      tag_452\n      jump\t// in\n    tag_471:\n        /* \"#utility.yul\":6672:6674   */\n    tag_470:\n        /* \"#utility.yul\":6859:6860   */\n      0x00\n        /* \"#utility.yul\":6848:6857   */\n      dup5\n        /* \"#utility.yul\":6844:6861   */\n      add\n        /* \"#utility.yul\":6831:6862   */\n      calldataload\n        /* \"#utility.yul\":6889:6907   */\n      0xffffffffffffffff\n        /* \"#utility.yul\":6881:6887   */\n      dup2\n        /* \"#utility.yul\":6878:6908   */\n      gt\n        /* \"#utility.yul\":6875:6877   */\n      iszero\n      tag_472\n      jumpi\n        /* \"#utility.yul\":6911:6990   */\n      tag_473\n      tag_467\n      jump\t// in\n    tag_473:\n        /* \"#utility.yul\":6875:6877   */\n    tag_472:\n        /* \"#utility.yul\":7016:7102   */\n      tag_474\n        /* \"#utility.yul\":7094:7101   */\n      dup7\n        /* \"#utility.yul\":7085:7091   */\n      dup3\n        /* \"#utility.yul\":7074:7083   */\n      dup8\n        /* \"#utility.yul\":7070:7092   */\n      add\n        /* \"#utility.yul\":7016:7102   */\n      tag_433\n      jump\t// in\n    tag_474:\n        /* \"#utility.yul\":7006:7102   */\n      swap4\n      pop\n        /* \"#utility.yul\":6802:7112   */\n      pop\n        /* \"#utility.yul\":7151:7153   */\n      0x20\n        /* \"#utility.yul\":7177:7252   */\n      tag_475\n        /* \"#utility.yul\":7244:7251   */\n      dup7\n        /* \"#utility.yul\":7235:7241   */\n      dup3\n        /* \"#utility.yul\":7224:7233   */\n      dup8\n        /* \"#utility.yul\":7220:7242   */\n      add\n        /* \"#utility.yul\":7177:7252   */\n      tag_423\n      jump\t// in\n    tag_475:\n        /* \"#utility.yul\":7167:7252   */\n      swap3\n      pop\n        /* \"#utility.yul\":7122:7262   */\n      pop\n        /* \"#utility.yul\":7329:7332   */\n      0x0120\n        /* \"#utility.yul\":7318:7327   */\n      dup5\n        /* \"#utility.yul\":7314:7333   */\n      add\n        /* \"#utility.yul\":7301:7334   */\n      calldataload\n        /* \"#utility.yul\":7361:7379   */\n      0xffffffffffffffff\n        /* \"#utility.yul\":7353:7359   */\n      dup2\n        /* \"#utility.yul\":7350:7380   */\n      gt\n        /* \"#utility.yul\":7347:7349   */\n      iszero\n      tag_476\n      jumpi\n        /* \"#utility.yul\":7383:7462   */\n      tag_477\n      tag_467\n      jump\t// in\n    tag_477:\n        /* \"#utility.yul\":7347:7349   */\n    tag_476:\n        /* \"#utility.yul\":7488:7574   */\n      tag_478\n        /* \"#utility.yul\":7566:7573   */\n      dup7\n        /* \"#utility.yul\":7557:7563   */\n      dup3\n        /* \"#utility.yul\":7546:7555   */\n      dup8\n        /* \"#utility.yul\":7542:7564   */\n      add\n        /* \"#utility.yul\":7488:7574   */\n      tag_433\n      jump\t// in\n    tag_478:\n        /* \"#utility.yul\":7478:7574   */\n      swap2\n      pop\n        /* \"#utility.yul\":7272:7584   */\n      pop\n        /* \"#utility.yul\":6662:7591   */\n      swap3\n      pop\n      swap3\n      pop\n      swap3\n      jump\t// out\n        /* \"#utility.yul\":7597:7926   */\n    tag_47:\n        /* \"#utility.yul\":7656:7662   */\n      0x00\n        /* \"#utility.yul\":7705:7707   */\n      0x20\n        /* \"#utility.yul\":7693:7702   */\n      dup3\n        /* \"#utility.yul\":7684:7691   */\n      dup5\n        /* \"#utility.yul\":7680:7703   */\n      sub\n        /* \"#utility.yul\":7676:7708   */\n      slt\n        /* \"#utility.yul\":7673:7675   */\n      iszero\n      tag_480\n      jumpi\n        /* \"#utility.yul\":7711:7790   */\n      tag_481\n      tag_452\n      jump\t// in\n    tag_481:\n        /* \"#utility.yul\":7673:7675   */\n    tag_480:\n        /* \"#utility.yul\":7831:7832   */\n      0x00\n        /* \"#utility.yul\":7856:7909   */\n      tag_482\n        /* \"#utility.yul\":7901:7908   */\n      dup5\n        /* \"#utility.yul\":7892:7898   */\n      dup3\n        /* \"#utility.yul\":7881:7890   */\n      dup6\n        /* \"#utility.yul\":7877:7899   */\n      add\n        /* \"#utility.yul\":7856:7909   */\n      tag_445\n      jump\t// in\n    tag_482:\n        /* \"#utility.yul\":7846:7909   */\n      swap2\n      pop\n        /* \"#utility.yul\":7802:7919   */\n      pop\n        /* \"#utility.yul\":7663:7926   */\n      swap3\n      swap2\n      pop\n      pop\n      jump\t// out\n        /* \"#utility.yul\":7932:8074   */\n    tag_483:\n        /* \"#utility.yul\":8035:8067   */\n      tag_485\n        /* \"#utility.yul\":8061:8066   */\n      dup2\n        /* \"#utility.yul\":8035:8067   */\n      tag_486\n      jump\t// in\n    tag_485:\n        /* \"#utility.yul\":8030:8033   */\n      dup3\n        /* \"#utility.yul\":8023:8068   */\n      mstore\n        /* \"#utility.yul\":8013:8074   */\n      pop\n      pop\n      jump\t// out\n        /* \"#utility.yul\":8080:8198   */\n    tag_487:\n        /* \"#utility.yul\":8167:8191   */\n      tag_489\n        /* \"#utility.yul\":8185:8190   */\n      dup2\n        /* \"#utility.yul\":8167:8191   */\n      tag_490\n      jump\t// in\n    tag_489:\n        /* \"#utility.yul\":8162:8165   */\n      dup3\n        /* \"#utility.yul\":8155:8192   */\n      mstore\n        /* \"#utility.yul\":8145:8198   */\n      pop\n      pop\n      jump\t// out\n        /* \"#utility.yul\":8204:8313   */\n    tag_491:\n        /* \"#utility.yul\":8285:8306   */\n      tag_493\n        /* \"#utility.yul\":8300:8305   */\n      dup2\n        /* \"#utility.yul\":8285:8306   */\n      tag_494\n      jump\t// in\n    tag_493:\n        /* \"#utility.yul\":8280:8283   */\n      dup3\n        /* \"#utility.yul\":8273:8307   */\n      mstore\n        /* \"#utility.yul\":8263:8313   */\n      pop\n      pop\n      jump\t// out\n        /* \"#utility.yul\":8319:8464   */\n    tag_495:\n        /* \"#utility.yul\":8413:8457   */\n      tag_497\n        /* \"#utility.yul\":8451:8456   */\n      dup2\n        /* \"#utility.yul\":8413:8457   */\n      tag_498\n      jump\t// in\n    tag_497:\n        /* \"#utility.yul\":8408:8411   */\n      dup3\n        /* \"#utility.yul\":8401:8458   */\n      mstore\n        /* \"#utility.yul\":8391:8464   */\n      pop\n      pop\n      jump\t// out\n        /* \"#utility.yul\":8470:8585   */\n    tag_499:\n        /* \"#utility.yul\":8555:8578   */\n      tag_501\n        /* \"#utility.yul\":8572:8577   */\n      dup2\n        /* \"#utility.yul\":8555:8578   */\n      tag_502\n      jump\t// in\n    tag_501:\n        /* \"#utility.yul\":8550:8553   */\n      dup3\n        /* \"#utility.yul\":8543:8579   */\n      mstore\n        /* \"#utility.yul\":8533:8585   */\n      pop\n      pop\n      jump\t// out\n        /* \"#utility.yul\":8591:8955   */\n    tag_503:\n        /* \"#utility.yul\":8679:8682   */\n      0x00\n        /* \"#utility.yul\":8707:8746   */\n      tag_505\n        /* \"#utility.yul\":8740:8745   */\n      dup3\n        /* \"#utility.yul\":8707:8746   */\n      tag_506\n      jump\t// in\n    tag_505:\n        /* \"#utility.yul\":8762:8833   */\n      tag_507\n        /* \"#utility.yul\":8826:8832   */\n      dup2\n        /* \"#utility.yul\":8821:8824   */\n      dup6\n        /* \"#utility.yul\":8762:8833   */\n      tag_508\n      jump\t// in\n    tag_507:\n        /* \"#utility.yul\":8755:8833   */\n      swap4\n      pop\n        /* \"#utility.yul\":8842:8894   */\n      tag_509\n        /* \"#utility.yul\":8887:8893   */\n      dup2\n        /* \"#utility.yul\":8882:8885   */\n      dup6\n        /* \"#utility.yul\":8875:8879   */\n      0x20\n        /* \"#utility.yul\":8868:8873   */\n      dup7\n        /* \"#utility.yul\":8864:8880   */\n      add\n        /* \"#utility.yul\":8842:8894   */\n      tag_510\n      jump\t// in\n    tag_509:\n        /* \"#utility.yul\":8919:8948   */\n      tag_511\n        /* \"#utility.yul\":8941:8947   */\n      dup2\n        /* \"#utility.yul\":8919:8948   */\n      tag_512\n      jump\t// in\n    tag_511:\n        /* \"#utility.yul\":8914:8917   */\n      dup5\n        /* \"#utility.yul\":8910:8949   */\n      add\n        /* \"#utility.yul\":8903:8949   */\n      swap2\n      pop\n        /* \"#utility.yul\":8683:8955   */\n      pop\n      swap3\n      swap2\n      pop\n      pop\n      jump\t// out\n        /* \"#utility.yul\":8961:9338   */\n    tag_513:\n        /* \"#utility.yul\":9067:9070   */\n      0x00\n        /* \"#utility.yul\":9095:9134   */\n      tag_515\n        /* \"#utility.yul\":9128:9133   */\n      dup3\n        /* \"#utility.yul\":9095:9134   */\n      tag_506\n      jump\t// in\n    tag_515:\n        /* \"#utility.yul\":9150:9239   */\n      tag_516\n        /* \"#utility.yul\":9232:9238   */\n      dup2\n        /* \"#utility.yul\":9227:9230   */\n      dup6\n        /* \"#utility.yul\":9150:9239   */\n      tag_517\n      jump\t// in\n    tag_516:\n        /* \"#utility.yul\":9143:9239   */\n      swap4\n      pop\n        /* \"#utility.yul\":9248:9300   */\n      tag_518\n        /* \"#utility.yul\":9293:9299   */\n      dup2\n        /* \"#utility.yul\":9288:9291   */\n      dup6\n        /* \"#utility.yul\":9281:9285   */\n      0x20\n        /* \"#utility.yul\":9274:9279   */\n      dup7\n        /* \"#utility.yul\":9270:9286   */\n      add\n        /* \"#utility.yul\":9248:9300   */\n      tag_510\n      jump\t// in\n    tag_518:\n        /* \"#utility.yul\":9325:9331   */\n      dup1\n        /* \"#utility.yul\":9320:9323   */\n      dup5\n        /* \"#utility.yul\":9316:9332   */\n      add\n        /* \"#utility.yul\":9309:9332   */\n      swap2\n      pop\n        /* \"#utility.yul\":9071:9338   */\n      pop\n      swap3\n      swap2\n      pop\n      pop\n      jump\t// out\n        /* \"#utility.yul\":9344:9710   */\n    tag_519:\n        /* \"#utility.yul\":9486:9489   */\n      0x00\n        /* \"#utility.yul\":9507:9574   */\n      tag_521\n        /* \"#utility.yul\":9571:9573   */\n      0x36\n        /* \"#utility.yul\":9566:9569   */\n      dup4\n        /* \"#utility.yul\":9507:9574   */\n      tag_508\n      jump\t// in\n    tag_521:\n        /* \"#utility.yul\":9500:9574   */\n      swap2\n      pop\n        /* \"#utility.yul\":9583:9676   */\n      tag_522\n        /* \"#utility.yul\":9672:9675   */\n      dup3\n        /* \"#utility.yul\":9583:9676   */\n      tag_523\n      jump\t// in\n    tag_522:\n        /* \"#utility.yul\":9701:9703   */\n      0x40\n        /* \"#utility.yul\":9696:9699   */\n      dup3\n        /* \"#utility.yul\":9692:9704   */\n      add\n        /* \"#utility.yul\":9685:9704   */\n      swap1\n      pop\n        /* \"#utility.yul\":9490:9710   */\n      swap2\n      swap1\n      pop\n      jump\t// out\n        /* \"#utility.yul\":9716:10082   */\n    tag_524:\n        /* \"#utility.yul\":9858:9861   */\n      0x00\n        /* \"#utility.yul\":9879:9946   */\n      tag_526\n        /* \"#utility.yul\":9943:9945   */\n      0x12\n        /* \"#utility.yul\":9938:9941   */\n      dup4\n        /* \"#utility.yul\":9879:9946   */\n      tag_508\n      jump\t// in\n    tag_526:\n        /* \"#utility.yul\":9872:9946   */\n      swap2\n      pop\n        /* \"#utility.yul\":9955:10048   */\n      tag_527\n        /* \"#utility.yul\":10044:10047   */\n      dup3\n        /* \"#utility.yul\":9955:10048   */\n      tag_528\n      jump\t// in\n    tag_527:\n        /* \"#utility.yul\":10073:10075   */\n      0x20\n        /* \"#utility.yul\":10068:10071   */\n      dup3\n        /* \"#utility.yul\":10064:10076   */\n      add\n        /* \"#utility.yul\":10057:10076   */\n      swap1\n      pop\n        /* \"#utility.yul\":9862:10082   */\n      swap2\n      swap1\n      pop\n      jump\t// out\n        /* \"#utility.yul\":10088:10454   */\n    tag_529:\n        /* \"#utility.yul\":10230:10233   */\n      0x00\n        /* \"#utility.yul\":10251:10318   */\n      tag_531\n        /* \"#utility.yul\":10315:10317   */\n      0x10\n        /* \"#utility.yul\":10310:10313   */\n      dup4\n        /* \"#utility.yul\":10251:10318   */\n      tag_508\n      jump\t// in\n    tag_531:\n        /* \"#utility.yul\":10244:10318   */\n      swap2\n      pop\n        /* \"#utility.yul\":10327:10420   */\n      tag_532\n        /* \"#utility.yul\":10416:10419   */\n      dup3\n        /* \"#utility.yul\":10327:10420   */\n      tag_533\n      jump\t// in\n    tag_532:\n        /* \"#utility.yul\":10445:10447   */\n      0x20\n        /* \"#utility.yul\":10440:10443   */\n      dup3\n        /* \"#utility.yul\":10436:10448   */\n      add\n        /* \"#utility.yul\":10429:10448   */\n      swap1\n      pop\n        /* \"#utility.yul\":10234:10454   */\n      swap2\n      swap1\n      pop\n      jump\t// out\n        /* \"#utility.yul\":10460:10860   */\n    tag_534:\n        /* \"#utility.yul\":10620:10623   */\n      0x00\n        /* \"#utility.yul\":10641:10725   */\n      tag_536\n        /* \"#utility.yul\":10723:10724   */\n      0x02\n        /* \"#utility.yul\":10718:10721   */\n      dup4\n        /* \"#utility.yul\":10641:10725   */\n      tag_517\n      jump\t// in\n    tag_536:\n        /* \"#utility.yul\":10634:10725   */\n      swap2\n      pop\n        /* \"#utility.yul\":10734:10827   */\n      tag_537\n        /* \"#utility.yul\":10823:10826   */\n      dup3\n        /* \"#utility.yul\":10734:10827   */\n      tag_538\n      jump\t// in\n    tag_537:\n        /* \"#utility.yul\":10852:10853   */\n      0x02\n        /* \"#utility.yul\":10847:10850   */\n      dup3\n        /* \"#utility.yul\":10843:10854   */\n      add\n        /* \"#utility.yul\":10836:10854   */\n      swap1\n      pop\n        /* \"#utility.yul\":10624:10860   */\n      swap2\n      swap1\n      pop\n      jump\t// out\n        /* \"#utility.yul\":10866:11266   */\n    tag_539:\n        /* \"#utility.yul\":11026:11029   */\n      0x00\n        /* \"#utility.yul\":11047:11131   */\n      tag_541\n        /* \"#utility.yul\":11129:11130   */\n      0x01\n        /* \"#utility.yul\":11124:11127   */\n      dup4\n        /* \"#utility.yul\":11047:11131   */\n      tag_517\n      jump\t// in\n    tag_541:\n        /* \"#utility.yul\":11040:11131   */\n      swap2\n      pop\n        /* \"#utility.yul\":11140:11233   */\n      tag_542\n        /* \"#utility.yul\":11229:11232   */\n      dup3\n        /* \"#utility.yul\":11140:11233   */\n      tag_543\n      jump\t// in\n    tag_542:\n        /* \"#utility.yul\":11258:11259   */\n      0x01\n        /* \"#utility.yul\":11253:11256   */\n      dup3\n        /* \"#utility.yul\":11249:11260   */\n      add\n        /* \"#utility.yul\":11242:11260   */\n      swap1\n      pop\n        /* \"#utility.yul\":11030:11266   */\n      swap2\n      swap1\n      pop\n      jump\t// out\n        /* \"#utility.yul\":11272:11672   */\n    tag_544:\n        /* \"#utility.yul\":11432:11435   */\n      0x00\n        /* \"#utility.yul\":11453:11537   */\n      tag_546\n        /* \"#utility.yul\":11535:11536   */\n      0x02\n        /* \"#utility.yul\":11530:11533   */\n      dup4\n        /* \"#utility.yul\":11453:11537   */\n      tag_517\n      jump\t// in\n    tag_546:\n        /* \"#utility.yul\":11446:11537   */\n      swap2\n      pop\n        /* \"#utility.yul\":11546:11639   */\n      tag_547\n        /* \"#utility.yul\":11635:11638   */\n      dup3\n        /* \"#utility.yul\":11546:11639   */\n      tag_548\n      jump\t// in\n    tag_547:\n        /* \"#utility.yul\":11664:11665   */\n      0x02\n        /* \"#utility.yul\":11659:11662   */\n      dup3\n        /* \"#utility.yul\":11655:11666   */\n      add\n        /* \"#utility.yul\":11648:11666   */\n      swap1\n      pop\n        /* \"#utility.yul\":11436:11672   */\n      swap2\n      swap1\n      pop\n      jump\t// out\n        /* \"#utility.yul\":11678:12078   */\n    tag_549:\n        /* \"#utility.yul\":11838:11841   */\n      0x00\n        /* \"#utility.yul\":11859:11943   */\n      tag_551\n        /* \"#utility.yul\":11941:11942   */\n      0x02\n        /* \"#utility.yul\":11936:11939   */\n      dup4\n        /* \"#utility.yul\":11859:11943   */\n      tag_517\n      jump\t// in\n    tag_551:\n        /* \"#utility.yul\":11852:11943   */\n      swap2\n      pop\n        /* \"#utility.yul\":11952:12045   */\n      tag_552\n        /* \"#utility.yul\":12041:12044   */\n      dup3\n        /* \"#utility.yul\":11952:12045   */\n      tag_553\n      jump\t// in\n    tag_552:\n        /* \"#utility.yul\":12070:12071   */\n      0x02\n        /* \"#utility.yul\":12065:12068   */\n      dup3\n        /* \"#utility.yul\":12061:12072   */\n      add\n        /* \"#utility.yul\":12054:12072   */\n      swap1\n      pop\n        /* \"#utility.yul\":11842:12078   */\n      swap2\n      swap1\n      pop\n      jump\t// out\n        /* \"#utility.yul\":12084:12484   */\n    tag_554:\n        /* \"#utility.yul\":12244:12247   */\n      0x00\n        /* \"#utility.yul\":12265:12349   */\n      tag_556\n        /* \"#utility.yul\":12347:12348   */\n      0x02\n        /* \"#utility.yul\":12342:12345   */\n      dup4\n        /* \"#utility.yul\":12265:12349   */\n      tag_517\n      jump\t// in\n    tag_556:\n        /* \"#utility.yul\":12258:12349   */\n      swap2\n      pop\n        /* \"#utility.yul\":12358:12451   */\n      tag_557\n        /* \"#utility.yul\":12447:12450   */\n      dup3\n        /* \"#utility.yul\":12358:12451   */\n      tag_558\n      jump\t// in\n    tag_557:\n        /* \"#utility.yul\":12476:12477   */\n      0x02\n        /* \"#utility.yul\":12471:12474   */\n      dup3\n        /* \"#utility.yul\":12467:12478   */\n      add\n        /* \"#utility.yul\":12460:12478   */\n      swap1\n      pop\n        /* \"#utility.yul\":12248:12484   */\n      swap2\n      swap1\n      pop\n      jump\t// out\n        /* \"#utility.yul\":12490:12890   */\n    tag_559:\n        /* \"#utility.yul\":12650:12653   */\n      0x00\n        /* \"#utility.yul\":12671:12755   */\n      tag_561\n        /* \"#utility.yul\":12753:12754   */\n      0x01\n        /* \"#utility.yul\":12748:12751   */\n      dup4\n        /* \"#utility.yul\":12671:12755   */\n      tag_517\n      jump\t// in\n    tag_561:\n        /* \"#utility.yul\":12664:12755   */\n      swap2\n      pop\n        /* \"#utility.yul\":12764:12857   */\n      tag_562\n        /* \"#utility.yul\":12853:12856   */\n      dup3\n        /* \"#utility.yul\":12764:12857   */\n      tag_563\n      jump\t// in\n    tag_562:\n        /* \"#utility.yul\":12882:12883   */\n      0x01\n        /* \"#utility.yul\":12877:12880   */\n      dup3\n        /* \"#utility.yul\":12873:12884   */\n      add\n        /* \"#utility.yul\":12866:12884   */\n      swap1\n      pop\n        /* \"#utility.yul\":12654:12890   */\n      swap2\n      swap1\n      pop\n      jump\t// out\n        /* \"#utility.yul\":12896:13262   */\n    tag_564:\n        /* \"#utility.yul\":13038:13041   */\n      0x00\n        /* \"#utility.yul\":13059:13126   */\n      tag_566\n        /* \"#utility.yul\":13123:13125   */\n      0x1d\n        /* \"#utility.yul\":13118:13121   */\n      dup4\n        /* \"#utility.yul\":13059:13126   */\n      tag_508\n      jump\t// in\n    tag_566:\n        /* \"#utility.yul\":13052:13126   */\n      swap2\n      pop\n        /* \"#utility.yul\":13135:13228   */\n      tag_567\n        /* \"#utility.yul\":13224:13227   */\n      dup3\n        /* \"#utility.yul\":13135:13228   */\n      tag_568\n      jump\t// in\n    tag_567:\n        /* \"#utility.yul\":13253:13255   */\n      0x20\n        /* \"#utility.yul\":13248:13251   */\n      dup3\n        /* \"#utility.yul\":13244:13256   */\n      add\n        /* \"#utility.yul\":13237:13256   */\n      swap1\n      pop\n        /* \"#utility.yul\":13042:13262   */\n      swap2\n      swap1\n      pop\n      jump\t// out\n        /* \"#utility.yul\":13268:13634   */\n    tag_569:\n        /* \"#utility.yul\":13410:13413   */\n      0x00\n        /* \"#utility.yul\":13431:13498   */\n      tag_571\n        /* \"#utility.yul\":13495:13497   */\n      0x25\n        /* \"#utility.yul\":13490:13493   */\n      dup4\n        /* \"#utility.yul\":13431:13498   */\n      tag_508\n      jump\t// in\n    tag_571:\n        /* \"#utility.yul\":13424:13498   */\n      swap2\n      pop\n        /* \"#utility.yul\":13507:13600   */\n      tag_572\n        /* \"#utility.yul\":13596:13599   */\n      dup3\n        /* \"#utility.yul\":13507:13600   */\n      tag_573\n      jump\t// in\n    tag_572:\n        /* \"#utility.yul\":13625:13627   */\n      0x40\n        /* \"#utility.yul\":13620:13623   */\n      dup3\n        /* \"#utility.yul\":13616:13628   */\n      add\n        /* \"#utility.yul\":13609:13628   */\n      swap1\n      pop\n        /* \"#utility.yul\":13414:13634   */\n      swap2\n      swap1\n      pop\n      jump\t// out\n        /* \"#utility.yul\":13640:13758   */\n    tag_574:\n        /* \"#utility.yul\":13727:13751   */\n      tag_576\n        /* \"#utility.yul\":13745:13750   */\n      dup2\n        /* \"#utility.yul\":13727:13751   */\n      tag_577\n      jump\t// in\n    tag_576:\n        /* \"#utility.yul\":13722:13725   */\n      dup3\n        /* \"#utility.yul\":13715:13752   */\n      mstore\n        /* \"#utility.yul\":13705:13758   */\n      pop\n      pop\n      jump\t// out\n        /* \"#utility.yul\":13764:14039   */\n    tag_277:\n        /* \"#utility.yul\":13896:13899   */\n      0x00\n        /* \"#utility.yul\":13918:14013   */\n      tag_579\n        /* \"#utility.yul\":14009:14012   */\n      dup3\n        /* \"#utility.yul\":14000:14006   */\n      dup5\n        /* \"#utility.yul\":13918:14013   */\n      tag_513\n      jump\t// in\n    tag_579:\n        /* \"#utility.yul\":13911:14013   */\n      swap2\n      pop\n        /* \"#utility.yul\":14030:14033   */\n      dup2\n        /* \"#utility.yul\":14023:14033   */\n      swap1\n      pop\n        /* \"#utility.yul\":13900:14039   */\n      swap3\n      swap2\n      pop\n      pop\n      jump\t// out\n        /* \"#utility.yul\":14045:14426   */\n    tag_324:\n        /* \"#utility.yul\":14230:14233   */\n      0x00\n        /* \"#utility.yul\":14252:14400   */\n      tag_581\n        /* \"#utility.yul\":14396:14399   */\n      dup3\n        /* \"#utility.yul\":14252:14400   */\n      tag_534\n      jump\t// in\n    tag_581:\n        /* \"#utility.yul\":14245:14400   */\n      swap2\n      pop\n        /* \"#utility.yul\":14417:14420   */\n      dup2\n        /* \"#utility.yul\":14410:14420   */\n      swap1\n      pop\n        /* \"#utility.yul\":14234:14426   */\n      swap2\n      swap1\n      pop\n      jump\t// out\n        /* \"#utility.yul\":14432:14813   */\n    tag_328:\n        /* \"#utility.yul\":14617:14620   */\n      0x00\n        /* \"#utility.yul\":14639:14787   */\n      tag_583\n        /* \"#utility.yul\":14783:14786   */\n      dup3\n        /* \"#utility.yul\":14639:14787   */\n      tag_539\n      jump\t// in\n    tag_583:\n        /* \"#utility.yul\":14632:14787   */\n      swap2\n      pop\n        /* \"#utility.yul\":14804:14807   */\n      dup2\n        /* \"#utility.yul\":14797:14807   */\n      swap1\n      pop\n        /* \"#utility.yul\":14621:14813   */\n      swap2\n      swap1\n      pop\n      jump\t// out\n        /* \"#utility.yul\":14819:15200   */\n    tag_330:\n        /* \"#utility.yul\":15004:15007   */\n      0x00\n        /* \"#utility.yul\":15026:15174   */\n      tag_585\n        /* \"#utility.yul\":15170:15173   */\n      dup3\n        /* \"#utility.yul\":15026:15174   */\n      tag_544\n      jump\t// in\n    tag_585:\n        /* \"#utility.yul\":15019:15174   */\n      swap2\n      pop\n        /* \"#utility.yul\":15191:15194   */\n      dup2\n        /* \"#utility.yul\":15184:15194   */\n      swap1\n      pop\n        /* \"#utility.yul\":15008:15200   */\n      swap2\n      swap1\n      pop\n      jump\t// out\n        /* \"#utility.yul\":15206:15587   */\n    tag_326:\n        /* \"#utility.yul\":15391:15394   */\n      0x00\n        /* \"#utility.yul\":15413:15561   */\n      tag_587\n        /* \"#utility.yul\":15557:15560   */\n      dup3\n        /* \"#utility.yul\":15413:15561   */\n      tag_549\n      jump\t// in\n    tag_587:\n        /* \"#utility.yul\":15406:15561   */\n      swap2\n      pop\n        /* \"#utility.yul\":15578:15581   */\n      dup2\n        /* \"#utility.yul\":15571:15581   */\n      swap1\n      pop\n        /* \"#utility.yul\":15395:15587   */\n      swap2\n      swap1\n      pop\n      jump\t// out\n        /* \"#utility.yul\":15593:15974   */\n    tag_332:\n        /* \"#utility.yul\":15778:15781   */\n      0x00\n        /* \"#utility.yul\":15800:15948   */\n      tag_589\n        /* \"#utility.yul\":15944:15947   */\n      dup3\n        /* \"#utility.yul\":15800:15948   */\n      tag_554\n      jump\t// in\n    tag_589:\n        /* \"#utility.yul\":15793:15948   */\n      swap2\n      pop\n        /* \"#utility.yul\":15965:15968   */\n      dup2\n        /* \"#utility.yul\":15958:15968   */\n      swap1\n      pop\n        /* \"#utility.yul\":15782:15974   */\n      swap2\n      swap1\n      pop\n      jump\t// out\n        /* \"#utility.yul\":15980:16361   */\n    tag_322:\n        /* \"#utility.yul\":16165:16168   */\n      0x00\n        /* \"#utility.yul\":16187:16335   */\n      tag_591\n        /* \"#utility.yul\":16331:16334   */\n      dup3\n        /* \"#utility.yul\":16187:16335   */\n      tag_559\n      jump\t// in\n    tag_591:\n        /* \"#utility.yul\":16180:16335   */\n      swap2\n      pop\n        /* \"#utility.yul\":16352:16355   */\n      dup2\n        /* \"#utility.yul\":16345:16355   */\n      swap1\n      pop\n        /* \"#utility.yul\":16169:16361   */\n      swap2\n      swap1\n      pop\n      jump\t// out\n        /* \"#utility.yul\":16367:16589   */\n    tag_126:\n        /* \"#utility.yul\":16460:16464   */\n      0x00\n        /* \"#utility.yul\":16498:16500   */\n      0x20\n        /* \"#utility.yul\":16487:16496   */\n      dup3\n        /* \"#utility.yul\":16483:16501   */\n      add\n        /* \"#utility.yul\":16475:16501   */\n      swap1\n      pop\n        /* \"#utility.yul\":16511:16582   */\n      tag_593\n        /* \"#utility.yul\":16579:16580   */\n      0x00\n        /* \"#utility.yul\":16568:16577   */\n      dup4\n        /* \"#utility.yul\":16564:16581   */\n      add\n        /* \"#utility.yul\":16555:16561   */\n      dup5\n        /* \"#utility.yul\":16511:16582   */\n      tag_487\n      jump\t// in\n    tag_593:\n        /* \"#utility.yul\":16465:16589   */\n      swap3\n      swap2\n      pop\n      pop\n      jump\t// out\n        /* \"#utility.yul\":16595:16849   */\n    tag_40:\n        /* \"#utility.yul\":16704:16708   */\n      0x00\n        /* \"#utility.yul\":16742:16744   */\n      0x20\n        /* \"#utility.yul\":16731:16740   */\n      dup3\n        /* \"#utility.yul\":16727:16745   */\n      add\n        /* \"#utility.yul\":16719:16745   */\n      swap1\n      pop\n        /* \"#utility.yul\":16755:16842   */\n      tag_595\n        /* \"#utility.yul\":16839:16840   */\n      0x00\n        /* \"#utility.yul\":16828:16837   */\n      dup4\n        /* \"#utility.yul\":16824:16841   */\n      add\n        /* \"#utility.yul\":16815:16821   */\n      dup5\n        /* \"#utility.yul\":16755:16842   */\n      tag_483\n      jump\t// in\n    tag_595:\n        /* \"#utility.yul\":16709:16849   */\n      swap3\n      swap2\n      pop\n      pop\n      jump\t// out\n        /* \"#utility.yul\":16855:17852   */\n    tag_136:\n        /* \"#utility.yul\":17144:17148   */\n      0x00\n        /* \"#utility.yul\":17182:17185   */\n      0x0100\n        /* \"#utility.yul\":17171:17180   */\n      dup3\n        /* \"#utility.yul\":17167:17186   */\n      add\n        /* \"#utility.yul\":17159:17186   */\n      swap1\n      pop\n        /* \"#utility.yul\":17196:17267   */\n      tag_597\n        /* \"#utility.yul\":17264:17265   */\n      0x00\n        /* \"#utility.yul\":17253:17262   */\n      dup4\n        /* \"#utility.yul\":17249:17266   */\n      add\n        /* \"#utility.yul\":17240:17246   */\n      dup12\n        /* \"#utility.yul\":17196:17267   */\n      tag_487\n      jump\t// in\n    tag_597:\n        /* \"#utility.yul\":17277:17349   */\n      tag_598\n        /* \"#utility.yul\":17345:17347   */\n      0x20\n        /* \"#utility.yul\":17334:17343   */\n      dup4\n        /* \"#utility.yul\":17330:17348   */\n      add\n        /* \"#utility.yul\":17321:17327   */\n      dup11\n        /* \"#utility.yul\":17277:17349   */\n      tag_487\n      jump\t// in\n    tag_598:\n        /* \"#utility.yul\":17359:17431   */\n      tag_599\n        /* \"#utility.yul\":17427:17429   */\n      0x40\n        /* \"#utility.yul\":17416:17425   */\n      dup4\n        /* \"#utility.yul\":17412:17430   */\n      add\n        /* \"#utility.yul\":17403:17409   */\n      dup10\n        /* \"#utility.yul\":17359:17431   */\n      tag_574\n      jump\t// in\n    tag_599:\n        /* \"#utility.yul\":17441:17513   */\n      tag_600\n        /* \"#utility.yul\":17509:17511   */\n      0x60\n        /* \"#utility.yul\":17498:17507   */\n      dup4\n        /* \"#utility.yul\":17494:17512   */\n      add\n        /* \"#utility.yul\":17485:17491   */\n      dup9\n        /* \"#utility.yul\":17441:17513   */\n      tag_574\n      jump\t// in\n    tag_600:\n        /* \"#utility.yul\":17523:17596   */\n      tag_601\n        /* \"#utility.yul\":17591:17594   */\n      0x80\n        /* \"#utility.yul\":17580:17589   */\n      dup4\n        /* \"#utility.yul\":17576:17595   */\n      add\n        /* \"#utility.yul\":17567:17573   */\n      dup8\n        /* \"#utility.yul\":17523:17596   */\n      tag_574\n      jump\t// in\n    tag_601:\n        /* \"#utility.yul\":17606:17679   */\n      tag_602\n        /* \"#utility.yul\":17674:17677   */\n      0xa0\n        /* \"#utility.yul\":17663:17672   */\n      dup4\n        /* \"#utility.yul\":17659:17678   */\n      add\n        /* \"#utility.yul\":17650:17656   */\n      dup7\n        /* \"#utility.yul\":17606:17679   */\n      tag_574\n      jump\t// in\n    tag_602:\n        /* \"#utility.yul\":17689:17762   */\n      tag_603\n        /* \"#utility.yul\":17757:17760   */\n      0xc0\n        /* \"#utility.yul\":17746:17755   */\n      dup4\n        /* \"#utility.yul\":17742:17761   */\n      add\n        /* \"#utility.yul\":17733:17739   */\n      dup6\n        /* \"#utility.yul\":17689:17762   */\n      tag_574\n      jump\t// in\n    tag_603:\n        /* \"#utility.yul\":17772:17845   */\n      tag_604\n        /* \"#utility.yul\":17840:17843   */\n      0xe0\n        /* \"#utility.yul\":17829:17838   */\n      dup4\n        /* \"#utility.yul\":17825:17844   */\n      add\n        /* \"#utility.yul\":17816:17822   */\n      dup5\n        /* \"#utility.yul\":17772:17845   */\n      tag_574\n      jump\t// in\n    tag_604:\n        /* \"#utility.yul\":17149:17852   */\n      swap10\n      swap9\n      pop\n      pop\n      pop\n      pop\n      pop\n      pop\n      pop\n      pop\n      pop\n      jump\t// out\n        /* \"#utility.yul\":17858:18068   */\n    tag_64:\n        /* \"#utility.yul\":17945:17949   */\n      0x00\n        /* \"#utility.yul\":17983:17985   */\n      0x20\n        /* \"#utility.yul\":17972:17981   */\n      dup3\n        /* \"#utility.yul\":17968:17986   */\n      add\n        /* \"#utility.yul\":17960:17986   */\n      swap1\n      pop\n        /* \"#utility.yul\":17996:18061   */\n      tag_606\n        /* \"#utility.yul\":18058:18059   */\n      0x00\n        /* \"#utility.yul\":18047:18056   */\n      dup4\n        /* \"#utility.yul\":18043:18060   */\n      add\n        /* \"#utility.yul\":18034:18040   */\n      dup5\n        /* \"#utility.yul\":17996:18061   */\n      tag_491\n      jump\t// in\n    tag_606:\n        /* \"#utility.yul\":17950:18068   */\n      swap3\n      swap2\n      pop\n      pop\n      jump\t// out\n        /* \"#utility.yul\":18074:18591   */\n    tag_310:\n        /* \"#utility.yul\":18262:18266   */\n      0x00\n        /* \"#utility.yul\":18300:18302   */\n      0x40\n        /* \"#utility.yul\":18289:18298   */\n      dup3\n        /* \"#utility.yul\":18285:18303   */\n      add\n        /* \"#utility.yul\":18277:18303   */\n      swap1\n      pop\n        /* \"#utility.yul\":18313:18378   */\n      tag_608\n        /* \"#utility.yul\":18375:18376   */\n      0x00\n        /* \"#utility.yul\":18364:18373   */\n      dup4\n        /* \"#utility.yul\":18360:18377   */\n      add\n        /* \"#utility.yul\":18351:18357   */\n      dup5\n        /* \"#utility.yul\":18313:18378   */\n      tag_491\n      jump\t// in\n    tag_608:\n        /* \"#utility.yul\":18425:18434   */\n      dup2\n        /* \"#utility.yul\":18419:18423   */\n      dup2\n        /* \"#utility.yul\":18415:18435   */\n      sub\n        /* \"#utility.yul\":18410:18412   */\n      0x20\n        /* \"#utility.yul\":18399:18408   */\n      dup4\n        /* \"#utility.yul\":18395:18413   */\n      add\n        /* \"#utility.yul\":18388:18436   */\n      mstore\n        /* \"#utility.yul\":18453:18584   */\n      tag_609\n        /* \"#utility.yul\":18579:18583   */\n      dup2\n        /* \"#utility.yul\":18453:18584   */\n      tag_524\n      jump\t// in\n    tag_609:\n        /* \"#utility.yul\":18445:18584   */\n      swap1\n      pop\n        /* \"#utility.yul\":18267:18591   */\n      swap3\n      swap2\n      pop\n      pop\n      jump\t// out\n        /* \"#utility.yul\":18597:19114   */\n    tag_313:\n        /* \"#utility.yul\":18785:18789   */\n      0x00\n        /* \"#utility.yul\":18823:18825   */\n      0x40\n        /* \"#utility.yul\":18812:18821   */\n      dup3\n        /* \"#utility.yul\":18808:18826   */\n      add\n        /* \"#utility.yul\":18800:18826   */\n      swap1\n      pop\n        /* \"#utility.yul\":18836:18901   */\n      tag_611\n        /* \"#utility.yul\":18898:18899   */\n      0x00\n        /* \"#utility.yul\":18887:18896   */\n      dup4\n        /* \"#utility.yul\":18883:18900   */\n      add\n        /* \"#utility.yul\":18874:18880   */\n      dup5\n        /* \"#utility.yul\":18836:18901   */\n      tag_491\n      jump\t// in\n    tag_611:\n        /* \"#utility.yul\":18948:18957   */\n      dup2\n        /* \"#utility.yul\":18942:18946   */\n      dup2\n        /* \"#utility.yul\":18938:18958   */\n      sub\n        /* \"#utility.yul\":18933:18935   */\n      0x20\n        /* \"#utility.yul\":18922:18931   */\n      dup4\n        /* \"#utility.yul\":18918:18936   */\n      add\n        /* \"#utility.yul\":18911:18959   */\n      mstore\n        /* \"#utility.yul\":18976:19107   */\n      tag_612\n        /* \"#utility.yul\":19102:19106   */\n      dup2\n        /* \"#utility.yul\":18976:19107   */\n      tag_529\n      jump\t// in\n    tag_612:\n        /* \"#utility.yul\":18968:19107   */\n      swap1\n      pop\n        /* \"#utility.yul\":18790:19114   */\n      swap3\n      swap2\n      pop\n      pop\n      jump\t// out\n        /* \"#utility.yul\":19120:19356   */\n    tag_118:\n        /* \"#utility.yul\":19220:19224   */\n      0x00\n        /* \"#utility.yul\":19258:19260   */\n      0x20\n        /* \"#utility.yul\":19247:19256   */\n      dup3\n        /* \"#utility.yul\":19243:19261   */\n      add\n        /* \"#utility.yul\":19235:19261   */\n      swap1\n      pop\n        /* \"#utility.yul\":19271:19349   */\n      tag_614\n        /* \"#utility.yul\":19346:19347   */\n      0x00\n        /* \"#utility.yul\":19335:19344   */\n      dup4\n        /* \"#utility.yul\":19331:19348   */\n      add\n        /* \"#utility.yul\":19322:19328   */\n      dup5\n        /* \"#utility.yul\":19271:19349   */\n      tag_495\n      jump\t// in\n    tag_614:\n        /* \"#utility.yul\":19225:19356   */\n      swap3\n      swap2\n      pop\n      pop\n      jump\t// out\n        /* \"#utility.yul\":19362:19887   */\n    tag_50:\n        /* \"#utility.yul\":19527:19531   */\n      0x00\n        /* \"#utility.yul\":19565:19567   */\n      0x60\n        /* \"#utility.yul\":19554:19563   */\n      dup3\n        /* \"#utility.yul\":19550:19568   */\n      add\n        /* \"#utility.yul\":19542:19568   */\n      swap1\n      pop\n        /* \"#utility.yul\":19578:19647   */\n      tag_616\n        /* \"#utility.yul\":19644:19645   */\n      0x00\n        /* \"#utility.yul\":19633:19642   */\n      dup4\n        /* \"#utility.yul\":19629:19646   */\n      add\n        /* \"#utility.yul\":19620:19626   */\n      dup7\n        /* \"#utility.yul\":19578:19647   */\n      tag_499\n      jump\t// in\n    tag_616:\n        /* \"#utility.yul\":19657:19727   */\n      tag_617\n        /* \"#utility.yul\":19723:19725   */\n      0x20\n        /* \"#utility.yul\":19712:19721   */\n      dup4\n        /* \"#utility.yul\":19708:19726   */\n      add\n        /* \"#utility.yul\":19699:19705   */\n      dup6\n        /* \"#utility.yul\":19657:19727   */\n      tag_499\n      jump\t// in\n    tag_617:\n        /* \"#utility.yul\":19774:19783   */\n      dup2\n        /* \"#utility.yul\":19768:19772   */\n      dup2\n        /* \"#utility.yul\":19764:19784   */\n      sub\n        /* \"#utility.yul\":19759:19761   */\n      0x40\n        /* \"#utility.yul\":19748:19757   */\n      dup4\n        /* \"#utility.yul\":19744:19762   */\n      add\n        /* \"#utility.yul\":19737:19785   */\n      mstore\n        /* \"#utility.yul\":19802:19880   */\n      tag_618\n        /* \"#utility.yul\":19875:19879   */\n      dup2\n        /* \"#utility.yul\":19866:19872   */\n      dup5\n        /* \"#utility.yul\":19802:19880   */\n      tag_503\n      jump\t// in\n    tag_618:\n        /* \"#utility.yul\":19794:19880   */\n      swap1\n      pop\n        /* \"#utility.yul\":19532:19887   */\n      swap5\n      swap4\n      pop\n      pop\n      pop\n      pop\n      jump\t// out\n        /* \"#utility.yul\":19893:20312   */\n    tag_149:\n        /* \"#utility.yul\":20059:20063   */\n      0x00\n        /* \"#utility.yul\":20097:20099   */\n      0x20\n        /* \"#utility.yul\":20086:20095   */\n      dup3\n        /* \"#utility.yul\":20082:20100   */\n      add\n        /* \"#utility.yul\":20074:20100   */\n      swap1\n      pop\n        /* \"#utility.yul\":20146:20155   */\n      dup2\n        /* \"#utility.yul\":20140:20144   */\n      dup2\n        /* \"#utility.yul\":20136:20156   */\n      sub\n        /* \"#utility.yul\":20132:20133   */\n      0x00\n        /* \"#utility.yul\":20121:20130   */\n      dup4\n        /* \"#utility.yul\":20117:20134   */\n      add\n        /* \"#utility.yul\":20110:20157   */\n      mstore\n        /* \"#utility.yul\":20174:20305   */\n      tag_620\n        /* \"#utility.yul\":20300:20304   */\n      dup2\n        /* \"#utility.yul\":20174:20305   */\n      tag_519\n      jump\t// in\n    tag_620:\n        /* \"#utility.yul\":20166:20305   */\n      swap1\n      pop\n        /* \"#utility.yul\":20064:20312   */\n      swap2\n      swap1\n      pop\n      jump\t// out\n        /* \"#utility.yul\":20318:20737   */\n    tag_175:\n        /* \"#utility.yul\":20484:20488   */\n      0x00\n        /* \"#utility.yul\":20522:20524   */\n      0x20\n        /* \"#utility.yul\":20511:20520   */\n      dup3\n        /* \"#utility.yul\":20507:20525   */\n      add\n        /* \"#utility.yul\":20499:20525   */\n      swap1\n      pop\n        /* \"#utility.yul\":20571:20580   */\n      dup2\n        /* \"#utility.yul\":20565:20569   */\n      dup2\n        /* \"#utility.yul\":20561:20581   */\n      sub\n        /* \"#utility.yul\":20557:20558   */\n      0x00\n        /* \"#utility.yul\":20546:20555   */\n      dup4\n        /* \"#utility.yul\":20542:20559   */\n      add\n        /* \"#utility.yul\":20535:20582   */\n      mstore\n        /* \"#utility.yul\":20599:20730   */\n      tag_622\n        /* \"#utility.yul\":20725:20729   */\n      dup2\n        /* \"#utility.yul\":20599:20730   */\n      tag_564\n      jump\t// in\n    tag_622:\n        /* \"#utility.yul\":20591:20730   */\n      swap1\n      pop\n        /* \"#utility.yul\":20489:20737   */\n      swap2\n      swap1\n      pop\n      jump\t// out\n        /* \"#utility.yul\":20743:21162   */\n    tag_145:\n        /* \"#utility.yul\":20909:20913   */\n      0x00\n        /* \"#utility.yul\":20947:20949   */\n      0x20\n        /* \"#utility.yul\":20936:20945   */\n      dup3\n        /* \"#utility.yul\":20932:20950   */\n      add\n        /* \"#utility.yul\":20924:20950   */\n      swap1\n      pop\n        /* \"#utility.yul\":20996:21005   */\n      dup2\n        /* \"#utility.yul\":20990:20994   */\n      dup2\n        /* \"#utility.yul\":20986:21006   */\n      sub\n        /* \"#utility.yul\":20982:20983   */\n      0x00\n        /* \"#utility.yul\":20971:20980   */\n      dup4\n        /* \"#utility.yul\":20967:20984   */\n      add\n        /* \"#utility.yul\":20960:21007   */\n      mstore\n        /* \"#utility.yul\":21024:21155   */\n      tag_624\n        /* \"#utility.yul\":21150:21154   */\n      dup2\n        /* \"#utility.yul\":21024:21155   */\n      tag_569\n      jump\t// in\n    tag_624:\n        /* \"#utility.yul\":21016:21155   */\n      swap1\n      pop\n        /* \"#utility.yul\":20914:21162   */\n      swap2\n      swap1\n      pop\n      jump\t// out\n        /* \"#utility.yul\":21168:21390   */\n    tag_35:\n        /* \"#utility.yul\":21261:21265   */\n      0x00\n        /* \"#utility.yul\":21299:21301   */\n      0x20\n        /* \"#utility.yul\":21288:21297   */\n      dup3\n        /* \"#utility.yul\":21284:21302   */\n      add\n        /* \"#utility.yul\":21276:21302   */\n      swap1\n      pop\n        /* \"#utility.yul\":21312:21383   */\n      tag_626\n        /* \"#utility.yul\":21380:21381   */\n      0x00\n        /* \"#utility.yul\":21369:21378   */\n      dup4\n        /* \"#utility.yul\":21365:21382   */\n      add\n        /* \"#utility.yul\":21356:21362   */\n      dup5\n        /* \"#utility.yul\":21312:21383   */\n      tag_574\n      jump\t// in\n    tag_626:\n        /* \"#utility.yul\":21266:21390   */\n      swap3\n      swap2\n      pop\n      pop\n      jump\t// out\n        /* \"#utility.yul\":21396:21525   */\n    tag_374:\n        /* \"#utility.yul\":21430:21436   */\n      0x00\n        /* \"#utility.yul\":21457:21477   */\n      tag_628\n      tag_629\n      jump\t// in\n    tag_628:\n        /* \"#utility.yul\":21447:21477   */\n      swap1\n      pop\n        /* \"#utility.yul\":21486:21519   */\n      tag_630\n        /* \"#utility.yul\":21514:21518   */\n      dup3\n        /* \"#utility.yul\":21506:21512   */\n      dup3\n        /* \"#utility.yul\":21486:21519   */\n      tag_631\n      jump\t// in\n    tag_630:\n        /* \"#utility.yul\":21437:21525   */\n      swap2\n      swap1\n      pop\n      jump\t// out\n        /* \"#utility.yul\":21531:21606   */\n    tag_629:\n        /* \"#utility.yul\":21564:21570   */\n      0x00\n        /* \"#utility.yul\":21597:21599   */\n      0x40\n        /* \"#utility.yul\":21591:21600   */\n      mload\n        /* \"#utility.yul\":21581:21600   */\n      swap1\n      pop\n        /* \"#utility.yul\":21571:21606   */\n      swap1\n      jump\t// out\n        /* \"#utility.yul\":21612:21860   */\n    tag_373:\n        /* \"#utility.yul\":21686:21690   */\n      0x00\n        /* \"#utility.yul\":21776:21794   */\n      0xffffffffffffffff\n        /* \"#utility.yul\":21768:21774   */\n      dup3\n        /* \"#utility.yul\":21765:21795   */\n      gt\n        /* \"#utility.yul\":21762:21764   */\n      iszero\n      tag_634\n      jumpi\n        /* \"#utility.yul\":21798:21816   */\n      tag_635\n      tag_636\n      jump\t// in\n    tag_635:\n        /* \"#utility.yul\":21762:21764   */\n    tag_634:\n        /* \"#utility.yul\":21848:21852   */\n      0x20\n        /* \"#utility.yul\":21840:21846   */\n      dup3\n        /* \"#utility.yul\":21836:21853   */\n      mul\n        /* \"#utility.yul\":21828:21853   */\n      swap1\n      pop\n        /* \"#utility.yul\":21691:21860   */\n      swap2\n      swap1\n      pop\n      jump\t// out\n        /* \"#utility.yul\":21866:22176   */\n    tag_387:\n        /* \"#utility.yul\":21942:21946   */\n      0x00\n        /* \"#utility.yul\":22032:22050   */\n      0xffffffffffffffff\n        /* \"#utility.yul\":22024:22030   */\n      dup3\n        /* \"#utility.yul\":22021:22051   */\n      gt\n        /* \"#utility.yul\":22018:22020   */\n      iszero\n      tag_638\n      jumpi\n        /* \"#utility.yul\":22054:22072   */\n      tag_639\n      tag_636\n      jump\t// in\n    tag_639:\n        /* \"#utility.yul\":22018:22020   */\n    tag_638:\n        /* \"#utility.yul\":22104:22108   */\n      0x20\n        /* \"#utility.yul\":22096:22102   */\n      dup3\n        /* \"#utility.yul\":22092:22109   */\n      mul\n        /* \"#utility.yul\":22084:22109   */\n      swap1\n      pop\n        /* \"#utility.yul\":22164:22168   */\n      0x20\n        /* \"#utility.yul\":22158:22162   */\n      dup2\n        /* \"#utility.yul\":22154:22169   */\n      add\n        /* \"#utility.yul\":22146:22169   */\n      swap1\n      pop\n        /* \"#utility.yul\":21947:22176   */\n      swap2\n      swap1\n      pop\n      jump\t// out\n        /* \"#utility.yul\":22182:22441   */\n    tag_398:\n        /* \"#utility.yul\":22267:22271   */\n      0x00\n        /* \"#utility.yul\":22357:22375   */\n      0xffffffffffffffff\n        /* \"#utility.yul\":22349:22355   */\n      dup3\n        /* \"#utility.yul\":22346:22376   */\n      gt\n        /* \"#utility.yul\":22343:22345   */\n      iszero\n      tag_641\n      jumpi\n        /* \"#utility.yul\":22379:22397   */\n      tag_642\n      tag_636\n      jump\t// in\n    tag_642:\n        /* \"#utility.yul\":22343:22345   */\n    tag_641:\n        /* \"#utility.yul\":22429:22433   */\n      0x20\n        /* \"#utility.yul\":22421:22427   */\n      dup3\n        /* \"#utility.yul\":22417:22434   */\n      mul\n        /* \"#utility.yul\":22409:22434   */\n      swap1\n      pop\n        /* \"#utility.yul\":22272:22441   */\n      swap2\n      swap1\n      pop\n      jump\t// out\n        /* \"#utility.yul\":22447:22755   */\n    tag_413:\n        /* \"#utility.yul\":22509:22513   */\n      0x00\n        /* \"#utility.yul\":22599:22617   */\n      0xffffffffffffffff\n        /* \"#utility.yul\":22591:22597   */\n      dup3\n        /* \"#utility.yul\":22588:22618   */\n      gt\n        /* \"#utility.yul\":22585:22587   */\n      iszero\n      tag_644\n      jumpi\n        /* \"#utility.yul\":22621:22639   */\n      tag_645\n      tag_636\n      jump\t// in\n    tag_645:\n        /* \"#utility.yul\":22585:22587   */\n    tag_644:\n        /* \"#utility.yul\":22659:22688   */\n      tag_646\n        /* \"#utility.yul\":22681:22687   */\n      dup3\n        /* \"#utility.yul\":22659:22688   */\n      tag_512\n      jump\t// in\n    tag_646:\n        /* \"#utility.yul\":22651:22688   */\n      swap1\n      pop\n        /* \"#utility.yul\":22743:22747   */\n      0x20\n        /* \"#utility.yul\":22737:22741   */\n      dup2\n        /* \"#utility.yul\":22733:22748   */\n      add\n        /* \"#utility.yul\":22725:22748   */\n      swap1\n      pop\n        /* \"#utility.yul\":22514:22755   */\n      swap2\n      swap1\n      pop\n      jump\t// out\n        /* \"#utility.yul\":22761:22860   */\n    tag_506:\n        /* \"#utility.yul\":22813:22819   */\n      0x00\n        /* \"#utility.yul\":22847:22852   */\n      dup2\n        /* \"#utility.yul\":22841:22853   */\n      mload\n        /* \"#utility.yul\":22831:22853   */\n      swap1\n      pop\n        /* \"#utility.yul\":22820:22860   */\n      swap2\n      swap1\n      pop\n      jump\t// out\n        /* \"#utility.yul\":22866:23035   */\n    tag_508:\n        /* \"#utility.yul\":22950:22961   */\n      0x00\n        /* \"#utility.yul\":22984:22990   */\n      dup3\n        /* \"#utility.yul\":22979:22982   */\n      dup3\n        /* \"#utility.yul\":22972:22991   */\n      mstore\n        /* \"#utility.yul\":23024:23028   */\n      0x20\n        /* \"#utility.yul\":23019:23022   */\n      dup3\n        /* \"#utility.yul\":23015:23029   */\n      add\n        /* \"#utility.yul\":23000:23029   */\n      swap1\n      pop\n        /* \"#utility.yul\":22962:23035   */\n      swap3\n      swap2\n      pop\n      pop\n      jump\t// out\n        /* \"#utility.yul\":23041:23189   */\n    tag_517:\n        /* \"#utility.yul\":23143:23154   */\n      0x00\n        /* \"#utility.yul\":23180:23183   */\n      dup2\n        /* \"#utility.yul\":23165:23183   */\n      swap1\n      pop\n        /* \"#utility.yul\":23155:23189   */\n      swap3\n      swap2\n      pop\n      pop\n      jump\t// out\n        /* \"#utility.yul\":23195:23720   */\n    tag_184:\n        /* \"#utility.yul\":23234:23237   */\n      0x00\n        /* \"#utility.yul\":23253:23272   */\n      tag_651\n        /* \"#utility.yul\":23270:23271   */\n      dup3\n        /* \"#utility.yul\":23253:23272   */\n      tag_502\n      jump\t// in\n    tag_651:\n        /* \"#utility.yul\":23248:23272   */\n      swap2\n      pop\n        /* \"#utility.yul\":23286:23305   */\n      tag_652\n        /* \"#utility.yul\":23303:23304   */\n      dup4\n        /* \"#utility.yul\":23286:23305   */\n      tag_502\n      jump\t// in\n    tag_652:\n        /* \"#utility.yul\":23281:23305   */\n      swap3\n      pop\n        /* \"#utility.yul\":23474:23475   */\n      dup2\n        /* \"#utility.yul\":23406:23472   */\n      0x7fffffffffffffffffffffffffffffffffffffffffffffffffffffffffffffff\n        /* \"#utility.yul\":23402:23476   */\n      sub\n        /* \"#utility.yul\":23399:23400   */\n      dup4\n        /* \"#utility.yul\":23395:23477   */\n      sgt\n        /* \"#utility.yul\":23390:23391   */\n      0x00\n        /* \"#utility.yul\":23387:23388   */\n      dup4\n        /* \"#utility.yul\":23383:23392   */\n      slt\n        /* \"#utility.yul\":23376:23393   */\n      iszero\n        /* \"#utility.yul\":23372:23478   */\n      and\n        /* \"#utility.yul\":23369:23371   */\n      iszero\n      tag_653\n      jumpi\n        /* \"#utility.yul\":23481:23499   */\n      tag_654\n      tag_655\n      jump\t// in\n    tag_654:\n        /* \"#utility.yul\":23369:23371   */\n    tag_653:\n        /* \"#utility.yul\":23661:23662   */\n      dup2\n        /* \"#utility.yul\":23593:23659   */\n      0x8000000000000000000000000000000000000000000000000000000000000000\n        /* \"#utility.yul\":23589:23663   */\n      sub\n        /* \"#utility.yul\":23586:23587   */\n      dup4\n        /* \"#utility.yul\":23582:23664   */\n      slt\n        /* \"#utility.yul\":23578:23579   */\n      0x00\n        /* \"#utility.yul\":23575:23576   */\n      dup4\n        /* \"#utility.yul\":23571:23580   */\n      slt\n        /* \"#utility.yul\":23567:23665   */\n      and\n        /* \"#utility.yul\":23564:23566   */\n      iszero\n      tag_656\n      jumpi\n        /* \"#utility.yul\":23668:23686   */\n      tag_657\n      tag_655\n      jump\t// in\n    tag_657:\n        /* \"#utility.yul\":23564:23566   */\n    tag_656:\n        /* \"#utility.yul\":23712:23713   */\n      dup3\n        /* \"#utility.yul\":23709:23710   */\n      dup3\n        /* \"#utility.yul\":23705:23714   */\n      add\n        /* \"#utility.yul\":23698:23714   */\n      swap1\n      pop\n        /* \"#utility.yul\":23238:23720   */\n      swap3\n      swap2\n      pop\n      pop\n      jump\t// out\n        /* \"#utility.yul\":23726:24031   */\n    tag_244:\n        /* \"#utility.yul\":23766:23769   */\n      0x00\n        /* \"#utility.yul\":23785:23805   */\n      tag_659\n        /* \"#utility.yul\":23803:23804   */\n      dup3\n        /* \"#utility.yul\":23785:23805   */\n      tag_577\n      jump\t// in\n    tag_659:\n        /* \"#utility.yul\":23780:23805   */\n      swap2\n      pop\n        /* \"#utility.yul\":23819:23839   */\n      tag_660\n        /* \"#utility.yul\":23837:23838   */\n      dup4\n        /* \"#utility.yul\":23819:23839   */\n      tag_577\n      jump\t// in\n    tag_660:\n        /* \"#utility.yul\":23814:23839   */\n      swap3\n      pop\n        /* \"#utility.yul\":23973:23974   */\n      dup3\n        /* \"#utility.yul\":23905:23971   */\n      0xffffffffffffffffffffffffffffffffffffffffffffffffffffffffffffffff\n        /* \"#utility.yul\":23901:23975   */\n      sub\n        /* \"#utility.yul\":23898:23899   */\n      dup3\n        /* \"#utility.yul\":23895:23976   */\n      gt\n        /* \"#utility.yul\":23892:23894   */\n      iszero\n      tag_661\n      jumpi\n        /* \"#utility.yul\":23979:23997   */\n      tag_662\n      tag_655\n      jump\t// in\n    tag_662:\n        /* \"#utility.yul\":23892:23894   */\n    tag_661:\n        /* \"#utility.yul\":24023:24024   */\n      dup3\n        /* \"#utility.yul\":24020:24021   */\n      dup3\n        /* \"#utility.yul\":24016:24025   */\n      add\n        /* \"#utility.yul\":24009:24025   */\n      swap1\n      pop\n        /* \"#utility.yul\":23770:24031   */\n      swap3\n      swap2\n      pop\n      pop\n      jump\t// out\n        /* \"#utility.yul\":24037:24422   */\n    tag_303:\n        /* \"#utility.yul\":24076:24077   */\n      0x00\n        /* \"#utility.yul\":24093:24112   */\n      tag_664\n        /* \"#utility.yul\":24110:24111   */\n      dup3\n        /* \"#utility.yul\":24093:24112   */\n      tag_502\n      jump\t// in\n    tag_664:\n        /* \"#utility.yul\":24088:24112   */\n      swap2\n      pop\n        /* \"#utility.yul\":24126:24145   */\n      tag_665\n        /* \"#utility.yul\":24143:24144   */\n      dup4\n        /* \"#utility.yul\":24126:24145   */\n      tag_502\n      jump\t// in\n    tag_665:\n        /* \"#utility.yul\":24121:24145   */\n      swap3\n      pop\n        /* \"#utility.yul\":24164:24165   */\n      dup3\n        /* \"#utility.yul\":24154:24156   */\n      tag_666\n      jumpi\n        /* \"#utility.yul\":24169:24187   */\n      tag_667\n      tag_668\n      jump\t// in\n    tag_667:\n        /* \"#utility.yul\":24154:24156   */\n    tag_666:\n        /* \"#utility.yul\":24355:24356   */\n      0x01\n        /* \"#utility.yul\":24352:24353   */\n      0x00\n        /* \"#utility.yul\":24348:24357   */\n      sub\n        /* \"#utility.yul\":24345:24346   */\n      dup4\n        /* \"#utility.yul\":24342:24358   */\n      eq\n        /* \"#utility.yul\":24261:24327   */\n      0x8000000000000000000000000000000000000000000000000000000000000000\n        /* \"#utility.yul\":24258:24259   */\n      dup4\n        /* \"#utility.yul\":24255:24328   */\n      eq\n        /* \"#utility.yul\":24238:24368   */\n      and\n        /* \"#utility.yul\":24235:24237   */\n      iszero\n      tag_669\n      jumpi\n        /* \"#utility.yul\":24371:24389   */\n      tag_670\n      tag_655\n      jump\t// in\n    tag_670:\n        /* \"#utility.yul\":24235:24237   */\n    tag_669:\n        /* \"#utility.yul\":24414:24415   */\n      dup3\n        /* \"#utility.yul\":24411:24412   */\n      dup3\n        /* \"#utility.yul\":24406:24416   */\n      sdiv\n        /* \"#utility.yul\":24401:24416   */\n      swap1\n      pop\n        /* \"#utility.yul\":24078:24422   */\n      swap3\n      swap2\n      pop\n      pop\n      jump\t// out\n        /* \"#utility.yul\":24428:24613   */\n    tag_318:\n        /* \"#utility.yul\":24468:24469   */\n      0x00\n        /* \"#utility.yul\":24485:24505   */\n      tag_672\n        /* \"#utility.yul\":24503:24504   */\n      dup3\n        /* \"#utility.yul\":24485:24505   */\n      tag_577\n      jump\t// in\n    tag_672:\n        /* \"#utility.yul\":24480:24505   */\n      swap2\n      pop\n        /* \"#utility.yul\":24519:24539   */\n      tag_673\n        /* \"#utility.yul\":24537:24538   */\n      dup4\n        /* \"#utility.yul\":24519:24539   */\n      tag_577\n      jump\t// in\n    tag_673:\n        /* \"#utility.yul\":24514:24539   */\n      swap3\n      pop\n        /* \"#utility.yul\":24558:24559   */\n      dup3\n        /* \"#utility.yul\":24548:24550   */\n      tag_674\n      jumpi\n        /* \"#utility.yul\":24563:24581   */\n      tag_675\n      tag_668\n      jump\t// in\n    tag_675:\n        /* \"#utility.yul\":24548:24550   */\n    tag_674:\n        /* \"#utility.yul\":24605:24606   */\n      dup3\n        /* \"#utility.yul\":24602:24603   */\n      dup3\n        /* \"#utility.yul\":24598:24607   */\n      div\n        /* \"#utility.yul\":24593:24607   */\n      swap1\n      pop\n        /* \"#utility.yul\":24470:24613   */\n      swap3\n      swap2\n      pop\n      pop\n      jump\t// out\n        /* \"#utility.yul\":24619:24967   */\n    tag_354:\n        /* \"#utility.yul\":24659:24666   */\n      0x00\n        /* \"#utility.yul\":24682:24702   */\n      tag_677\n        /* \"#utility.yul\":24700:24701   */\n      dup3\n        /* \"#utility.yul\":24682:24702   */\n      tag_577\n      jump\t// in\n    tag_677:\n        /* \"#utility.yul\":24677:24702   */\n      swap2\n      pop\n        /* \"#utility.yul\":24716:24736   */\n      tag_678\n        /* \"#utility.yul\":24734:24735   */\n      dup4\n        /* \"#utility.yul\":24716:24736   */\n      tag_577\n      jump\t// in\n    tag_678:\n        /* \"#utility.yul\":24711:24736   */\n      swap3\n      pop\n        /* \"#utility.yul\":24904:24905   */\n      dup2\n        /* \"#utility.yul\":24836:24902   */\n      0xffffffffffffffffffffffffffffffffffffffffffffffffffffffffffffffff\n        /* \"#utility.yul\":24832:24906   */\n      div\n        /* \"#utility.yul\":24829:24830   */\n      dup4\n        /* \"#utility.yul\":24826:24907   */\n      gt\n        /* \"#utility.yul\":24821:24822   */\n      dup3\n        /* \"#utility.yul\":24814:24823   */\n      iszero\n        /* \"#utility.yul\":24807:24824   */\n      iszero\n        /* \"#utility.yul\":24803:24908   */\n      and\n        /* \"#utility.yul\":24800:24802   */\n      iszero\n      tag_679\n      jumpi\n        /* \"#utility.yul\":24911:24929   */\n      tag_680\n      tag_655\n      jump\t// in\n    tag_680:\n        /* \"#utility.yul\":24800:24802   */\n    tag_679:\n        /* \"#utility.yul\":24959:24960   */\n      dup3\n        /* \"#utility.yul\":24956:24957   */\n      dup3\n        /* \"#utility.yul\":24952:24961   */\n      mul\n        /* \"#utility.yul\":24941:24961   */\n      swap1\n      pop\n        /* \"#utility.yul\":24667:24967   */\n      swap3\n      swap2\n      pop\n      pop\n      jump\t// out\n        /* \"#utility.yul\":24973:25069   */\n    tag_490:\n        /* \"#utility.yul\":25010:25017   */\n      0x00\n        /* \"#utility.yul\":25039:25063   */\n      tag_682\n        /* \"#utility.yul\":25057:25062   */\n      dup3\n        /* \"#utility.yul\":25039:25063   */\n      tag_683\n      jump\t// in\n    tag_682:\n        /* \"#utility.yul\":25028:25063   */\n      swap1\n      pop\n        /* \"#utility.yul\":25018:25069   */\n      swap2\n      swap1\n      pop\n      jump\t// out\n        /* \"#utility.yul\":25075:25179   */\n    tag_486:\n        /* \"#utility.yul\":25120:25127   */\n      0x00\n        /* \"#utility.yul\":25149:25173   */\n      tag_685\n        /* \"#utility.yul\":25167:25172   */\n      dup3\n        /* \"#utility.yul\":25149:25173   */\n      tag_683\n      jump\t// in\n    tag_685:\n        /* \"#utility.yul\":25138:25173   */\n      swap1\n      pop\n        /* \"#utility.yul\":25128:25179   */\n      swap2\n      swap1\n      pop\n      jump\t// out\n        /* \"#utility.yul\":25185:25275   */\n    tag_494:\n        /* \"#utility.yul\":25219:25226   */\n      0x00\n        /* \"#utility.yul\":25262:25267   */\n      dup2\n        /* \"#utility.yul\":25255:25268   */\n      iszero\n        /* \"#utility.yul\":25248:25269   */\n      iszero\n        /* \"#utility.yul\":25237:25269   */\n      swap1\n      pop\n        /* \"#utility.yul\":25227:25275   */\n      swap2\n      swap1\n      pop\n      jump\t// out\n        /* \"#utility.yul\":25281:25410   */\n    tag_687:\n        /* \"#utility.yul\":25327:25334   */\n      0x00\n        /* \"#utility.yul\":25356:25361   */\n      dup2\n        /* \"#utility.yul\":25345:25361   */\n      swap1\n      pop\n        /* \"#utility.yul\":25362:25404   */\n      tag_689\n        /* \"#utility.yul\":25398:25403   */\n      dup3\n        /* \"#utility.yul\":25362:25404   */\n      tag_690\n      jump\t// in\n    tag_689:\n        /* \"#utility.yul\":25335:25410   */\n      swap2\n      swap1\n      pop\n      jump\t// out\n        /* \"#utility.yul\":25416:25492   */\n    tag_502:\n        /* \"#utility.yul\":25452:25459   */\n      0x00\n        /* \"#utility.yul\":25481:25486   */\n      dup2\n        /* \"#utility.yul\":25470:25486   */\n      swap1\n      pop\n        /* \"#utility.yul\":25460:25492   */\n      swap2\n      swap1\n      pop\n      jump\t// out\n        /* \"#utility.yul\":25498:25624   */\n    tag_683:\n        /* \"#utility.yul\":25535:25542   */\n      0x00\n        /* \"#utility.yul\":25575:25617   */\n      0xffffffffffffffffffffffffffffffffffffffff\n        /* \"#utility.yul\":25568:25573   */\n      dup3\n        /* \"#utility.yul\":25564:25618   */\n      and\n        /* \"#utility.yul\":25553:25618   */\n      swap1\n      pop\n        /* \"#utility.yul\":25543:25624   */\n      swap2\n      swap1\n      pop\n      jump\t// out\n        /* \"#utility.yul\":25630:25707   */\n    tag_577:\n        /* \"#utility.yul\":25667:25674   */\n      0x00\n        /* \"#utility.yul\":25696:25701   */\n      dup2\n        /* \"#utility.yul\":25685:25701   */\n      swap1\n      pop\n        /* \"#utility.yul\":25675:25707   */\n      swap2\n      swap1\n      pop\n      jump\t// out\n        /* \"#utility.yul\":25713:25842   */\n    tag_498:\n        /* \"#utility.yul\":25770:25779   */\n      0x00\n        /* \"#utility.yul\":25803:25836   */\n      tag_695\n        /* \"#utility.yul\":25830:25835   */\n      dup3\n        /* \"#utility.yul\":25803:25836   */\n      tag_687\n      jump\t// in\n    tag_695:\n        /* \"#utility.yul\":25790:25836   */\n      swap1\n      pop\n        /* \"#utility.yul\":25780:25842   */\n      swap2\n      swap1\n      pop\n      jump\t// out\n        /* \"#utility.yul\":25848:26002   */\n    tag_418:\n        /* \"#utility.yul\":25932:25938   */\n      dup3\n        /* \"#utility.yul\":25927:25930   */\n      dup2\n        /* \"#utility.yul\":25922:25925   */\n      dup4\n        /* \"#utility.yul\":25909:25939   */\n      calldatacopy\n        /* \"#utility.yul\":25994:25995   */\n      0x00\n        /* \"#utility.yul\":25985:25991   */\n      dup4\n        /* \"#utility.yul\":25980:25983   */\n      dup4\n        /* \"#utility.yul\":25976:25992   */\n      add\n        /* \"#utility.yul\":25969:25996   */\n      mstore\n        /* \"#utility.yul\":25899:26002   */\n      pop\n      pop\n      pop\n      jump\t// out\n        /* \"#utility.yul\":26008:26315   */\n    tag_510:\n        /* \"#utility.yul\":26076:26077   */\n      0x00\n        /* \"#utility.yul\":26086:26199   */\n    tag_698:\n        /* \"#utility.yul\":26100:26106   */\n      dup4\n        /* \"#utility.yul\":26097:26098   */\n      dup2\n        /* \"#utility.yul\":26094:26107   */\n      lt\n        /* \"#utility.yul\":26086:26199   */\n      iszero\n      tag_700\n      jumpi\n        /* \"#utility.yul\":26185:26186   */\n      dup1\n        /* \"#utility.yul\":26180:26183   */\n      dup3\n        /* \"#utility.yul\":26176:26187   */\n      add\n        /* \"#utility.yul\":26170:26188   */\n      mload\n        /* \"#utility.yul\":26166:26167   */\n      dup2\n        /* \"#utility.yul\":26161:26164   */\n      dup5\n        /* \"#utility.yul\":26157:26168   */\n      add\n        /* \"#utility.yul\":26150:26189   */\n      mstore\n        /* \"#utility.yul\":26122:26124   */\n      0x20\n        /* \"#utility.yul\":26119:26120   */\n      dup2\n        /* \"#utility.yul\":26115:26125   */\n      add\n        /* \"#utility.yul\":26110:26125   */\n      swap1\n      pop\n        /* \"#utility.yul\":26086:26199   */\n      jump(tag_698)\n    tag_700:\n        /* \"#utility.yul\":26217:26223   */\n      dup4\n        /* \"#utility.yul\":26214:26215   */\n      dup2\n        /* \"#utility.yul\":26211:26224   */\n      gt\n        /* \"#utility.yul\":26208:26210   */\n      iszero\n      tag_701\n      jumpi\n        /* \"#utility.yul\":26297:26298   */\n      0x00\n        /* \"#utility.yul\":26288:26294   */\n      dup5\n        /* \"#utility.yul\":26283:26286   */\n      dup5\n        /* \"#utility.yul\":26279:26295   */\n      add\n        /* \"#utility.yul\":26272:26299   */\n      mstore\n        /* \"#utility.yul\":26208:26210   */\n    tag_701:\n        /* \"#utility.yul\":26057:26315   */\n      pop\n      pop\n      pop\n      pop\n      jump\t// out\n        /* \"#utility.yul\":26321:26641   */\n    tag_155:\n        /* \"#utility.yul\":26365:26371   */\n      0x00\n        /* \"#utility.yul\":26402:26403   */\n      0x02\n        /* \"#utility.yul\":26396:26400   */\n      dup3\n        /* \"#utility.yul\":26392:26404   */\n      div\n        /* \"#utility.yul\":26382:26404   */\n      swap1\n      pop\n        /* \"#utility.yul\":26449:26450   */\n      0x01\n        /* \"#utility.yul\":26443:26447   */\n      dup3\n        /* \"#utility.yul\":26439:26451   */\n      and\n        /* \"#utility.yul\":26470:26488   */\n      dup1\n        /* \"#utility.yul\":26460:26462   */\n      tag_703\n      jumpi\n        /* \"#utility.yul\":26526:26530   */\n      0x7f\n        /* \"#utility.yul\":26518:26524   */\n      dup3\n        /* \"#utility.yul\":26514:26531   */\n      and\n        /* \"#utility.yul\":26504:26531   */\n      swap2\n      pop\n        /* \"#utility.yul\":26460:26462   */\n    tag_703:\n        /* \"#utility.yul\":26588:26590   */\n      0x20\n        /* \"#utility.yul\":26580:26586   */\n      dup3\n        /* \"#utility.yul\":26577:26591   */\n      lt\n        /* \"#utility.yul\":26557:26575   */\n      dup2\n        /* \"#utility.yul\":26554:26592   */\n      eq\n        /* \"#utility.yul\":26551:26553   */\n      iszero\n      tag_704\n      jumpi\n        /* \"#utility.yul\":26607:26625   */\n      tag_705\n      tag_706\n      jump\t// in\n    tag_705:\n        /* \"#utility.yul\":26551:26553   */\n    tag_704:\n        /* \"#utility.yul\":26372:26641   */\n      pop\n      swap2\n      swap1\n      pop\n      jump\t// out\n        /* \"#utility.yul\":26647:26928   */\n    tag_631:\n        /* \"#utility.yul\":26730:26757   */\n      tag_708\n        /* \"#utility.yul\":26752:26756   */\n      dup3\n        /* \"#utility.yul\":26730:26757   */\n      tag_512\n      jump\t// in\n    tag_708:\n        /* \"#utility.yul\":26722:26728   */\n      dup2\n        /* \"#utility.yul\":26718:26758   */\n      add\n        /* \"#utility.yul\":26860:26866   */\n      dup2\n        /* \"#utility.yul\":26848:26858   */\n      dup2\n        /* \"#utility.yul\":26845:26867   */\n      lt\n        /* \"#utility.yul\":26824:26842   */\n      0xffffffffffffffff\n        /* \"#utility.yul\":26812:26822   */\n      dup3\n        /* \"#utility.yul\":26809:26843   */\n      gt\n        /* \"#utility.yul\":26806:26868   */\n      or\n        /* \"#utility.yul\":26803:26805   */\n      iszero\n      tag_709\n      jumpi\n        /* \"#utility.yul\":26871:26889   */\n      tag_710\n      tag_636\n      jump\t// in\n    tag_710:\n        /* \"#utility.yul\":26803:26805   */\n    tag_709:\n        /* \"#utility.yul\":26911:26921   */\n      dup1\n        /* \"#utility.yul\":26907:26909   */\n      0x40\n        /* \"#utility.yul\":26900:26922   */\n      mstore\n        /* \"#utility.yul\":26690:26928   */\n      pop\n      pop\n      pop\n      jump\t// out\n        /* \"#utility.yul\":26934:27165   */\n    tag_188:\n        /* \"#utility.yul\":26972:26975   */\n      0x00\n        /* \"#utility.yul\":26995:27018   */\n      tag_712\n        /* \"#utility.yul\":27012:27017   */\n      dup3\n        /* \"#utility.yul\":26995:27018   */\n      tag_502\n      jump\t// in\n    tag_712:\n        /* \"#utility.yul\":26986:27018   */\n      swap2\n      pop\n        /* \"#utility.yul\":27040:27106   */\n      0x7fffffffffffffffffffffffffffffffffffffffffffffffffffffffffffffff\n        /* \"#utility.yul\":27033:27038   */\n      dup3\n        /* \"#utility.yul\":27030:27107   */\n      eq\n        /* \"#utility.yul\":27027:27029   */\n      iszero\n      tag_713\n      jumpi\n        /* \"#utility.yul\":27110:27128   */\n      tag_714\n      tag_655\n      jump\t// in\n    tag_714:\n        /* \"#utility.yul\":27027:27029   */\n    tag_713:\n        /* \"#utility.yul\":27157:27158   */\n      0x01\n        /* \"#utility.yul\":27150:27155   */\n      dup3\n        /* \"#utility.yul\":27146:27159   */\n      add\n        /* \"#utility.yul\":27139:27159   */\n      swap1\n      pop\n        /* \"#utility.yul\":26976:27165   */\n      swap2\n      swap1\n      pop\n      jump\t// out\n        /* \"#utility.yul\":27171:27404   */\n    tag_186:\n        /* \"#utility.yul\":27210:27213   */\n      0x00\n        /* \"#utility.yul\":27233:27257   */\n      tag_716\n        /* \"#utility.yul\":27251:27256   */\n      dup3\n        /* \"#utility.yul\":27233:27257   */\n      tag_577\n      jump\t// in\n    tag_716:\n        /* \"#utility.yul\":27224:27257   */\n      swap2\n      pop\n        /* \"#utility.yul\":27279:27345   */\n      0xffffffffffffffffffffffffffffffffffffffffffffffffffffffffffffffff\n        /* \"#utility.yul\":27272:27277   */\n      dup3\n        /* \"#utility.yul\":27269:27346   */\n      eq\n        /* \"#utility.yul\":27266:27268   */\n      iszero\n      tag_717\n      jumpi\n        /* \"#utility.yul\":27349:27367   */\n      tag_718\n      tag_655\n      jump\t// in\n    tag_718:\n        /* \"#utility.yul\":27266:27268   */\n    tag_717:\n        /* \"#utility.yul\":27396:27397   */\n      0x01\n        /* \"#utility.yul\":27389:27394   */\n      dup3\n        /* \"#utility.yul\":27385:27398   */\n      add\n        /* \"#utility.yul\":27378:27398   */\n      swap1\n      pop\n        /* \"#utility.yul\":27214:27404   */\n      swap2\n      swap1\n      pop\n      jump\t// out\n        /* \"#utility.yul\":27410:27590   */\n    tag_655:\n        /* \"#utility.yul\":27458:27535   */\n      0x4e487b7100000000000000000000000000000000000000000000000000000000\n        /* \"#utility.yul\":27455:27456   */\n      0x00\n        /* \"#utility.yul\":27448:27536   */\n      mstore\n        /* \"#utility.yul\":27555:27559   */\n      0x11\n        /* \"#utility.yul\":27552:27553   */\n      0x04\n        /* \"#utility.yul\":27545:27560   */\n      mstore\n        /* \"#utility.yul\":27579:27583   */\n      0x24\n        /* \"#utility.yul\":27576:27577   */\n      0x00\n        /* \"#utility.yul\":27569:27584   */\n      revert\n        /* \"#utility.yul\":27596:27776   */\n    tag_668:\n        /* \"#utility.yul\":27644:27721   */\n      0x4e487b7100000000000000000000000000000000000000000000000000000000\n        /* \"#utility.yul\":27641:27642   */\n      0x00\n        /* \"#utility.yul\":27634:27722   */\n      mstore\n        /* \"#utility.yul\":27741:27745   */\n      0x12\n        /* \"#utility.yul\":27738:27739   */\n      0x04\n        /* \"#utility.yul\":27731:27746   */\n      mstore\n        /* \"#utility.yul\":27765:27769   */\n      0x24\n        /* \"#utility.yul\":27762:27763   */\n      0x00\n        /* \"#utility.yul\":27755:27770   */\n      revert\n        /* \"#utility.yul\":27782:27962   */\n    tag_140:\n        /* \"#utility.yul\":27830:27907   */\n      0x4e487b7100000000000000000000000000000000000000000000000000000000\n        /* \"#utility.yul\":27827:27828   */\n      0x00\n        /* \"#utility.yul\":27820:27908   */\n      mstore\n        /* \"#utility.yul\":27927:27931   */\n      0x21\n        /* \"#utility.yul\":27924:27925   */\n      0x04\n        /* \"#utility.yul\":27917:27932   */\n      mstore\n        /* \"#utility.yul\":27951:27955   */\n      0x24\n        /* \"#utility.yul\":27948:27949   */\n      0x00\n        /* \"#utility.yul\":27941:27956   */\n      revert\n        /* \"#utility.yul\":27968:28148   */\n    tag_706:\n        /* \"#utility.yul\":28016:28093   */\n      0x4e487b7100000000000000000000000000000000000000000000000000000000\n        /* \"#utility.yul\":28013:28014   */\n      0x00\n        /* \"#utility.yul\":28006:28094   */\n      mstore\n        /* \"#utility.yul\":28113:28117   */\n      0x22\n        /* \"#utility.yul\":28110:28111   */\n      0x04\n        /* \"#utility.yul\":28103:28118   */\n      mstore\n        /* \"#utility.yul\":28137:28141   */\n      0x24\n        /* \"#utility.yul\":28134:28135   */\n      0x00\n        /* \"#utility.yul\":28127:28142   */\n      revert\n        /* \"#utility.yul\":28154:28334   */\n    tag_182:\n        /* \"#utility.yul\":28202:28279   */\n      0x4e487b7100000000000000000000000000000000000000000000000000000000\n        /* \"#utility.yul\":28199:28200   */\n      0x00\n        /* \"#utility.yul\":28192:28280   */\n      mstore\n        /* \"#utility.yul\":28299:28303   */\n      0x32\n        /* \"#utility.yul\":28296:28297   */\n      0x04\n        /* \"#utility.yul\":28289:28304   */\n      mstore\n        /* \"#utility.yul\":28323:28327   */\n      0x24\n        /* \"#utility.yul\":28320:28321   */\n      0x00\n        /* \"#utility.yul\":28313:28328   */\n      revert\n        /* \"#utility.yul\":28340:28520   */\n    tag_636:\n        /* \"#utility.yul\":28388:28465   */\n      0x4e487b7100000000000000000000000000000000000000000000000000000000\n        /* \"#utility.yul\":28385:28386   */\n      0x00\n        /* \"#utility.yul\":28378:28466   */\n      mstore\n        /* \"#utility.yul\":28485:28489   */\n      0x41\n        /* \"#utility.yul\":28482:28483   */\n      0x04\n        /* \"#utility.yul\":28475:28490   */\n      mstore\n        /* \"#utility.yul\":28509:28513   */\n      0x24\n        /* \"#utility.yul\":28506:28507   */\n      0x00\n        /* \"#utility.yul\":28499:28514   */\n      revert\n        /* \"#utility.yul\":28526:28643   */\n    tag_406:\n        /* \"#utility.yul\":28635:28636   */\n      0x00\n        /* \"#utility.yul\":28632:28633   */\n      dup1\n        /* \"#utility.yul\":28625:28637   */\n      revert\n        /* \"#utility.yul\":28649:28766   */\n    tag_377:\n        /* \"#utility.yul\":28758:28759   */\n      0x00\n        /* \"#utility.yul\":28755:28756   */\n      dup1\n        /* \"#utility.yul\":28748:28760   */\n      revert\n        /* \"#utility.yul\":28772:28889   */\n    tag_416:\n        /* \"#utility.yul\":28881:28882   */\n      0x00\n        /* \"#utility.yul\":28878:28879   */\n      dup1\n        /* \"#utility.yul\":28871:28883   */\n      revert\n        /* \"#utility.yul\":28895:29012   */\n    tag_467:\n        /* \"#utility.yul\":29004:29005   */\n      0x00\n        /* \"#utility.yul\":29001:29002   */\n      dup1\n        /* \"#utility.yul\":28994:29006   */\n      revert\n        /* \"#utility.yul\":29018:29135   */\n    tag_452:\n        /* \"#utility.yul\":29127:29128   */\n      0x00\n        /* \"#utility.yul\":29124:29125   */\n      dup1\n        /* \"#utility.yul\":29117:29129   */\n      revert\n        /* \"#utility.yul\":29141:29243   */\n    tag_512:\n        /* \"#utility.yul\":29182:29188   */\n      0x00\n        /* \"#utility.yul\":29233:29235   */\n      0x1f\n        /* \"#utility.yul\":29229:29236   */\n      not\n        /* \"#utility.yul\":29224:29226   */\n      0x1f\n        /* \"#utility.yul\":29217:29222   */\n      dup4\n        /* \"#utility.yul\":29213:29227   */\n      add\n        /* \"#utility.yul\":29209:29237   */\n      and\n        /* \"#utility.yul\":29199:29237   */\n      swap1\n      pop\n        /* \"#utility.yul\":29189:29243   */\n      swap2\n      swap1\n      pop\n      jump\t// out\n        /* \"#utility.yul\":29249:29490   */\n    tag_523:\n        /* \"#utility.yul\":29389:29423   */\n      0x43616e6e6f742063616c6c20746869732066756e6374696f6e20646972656374\n        /* \"#utility.yul\":29385:29386   */\n      0x00\n        /* \"#utility.yul\":29377:29383   */\n      dup3\n        /* \"#utility.yul\":29373:29387   */\n      add\n        /* \"#utility.yul\":29366:29424   */\n      mstore\n        /* \"#utility.yul\":29458:29482   */\n      0x6c792c207573652056656e646f72466163746f72792e00000000000000000000\n        /* \"#utility.yul\":29453:29455   */\n      0x20\n        /* \"#utility.yul\":29445:29451   */\n      dup3\n        /* \"#utility.yul\":29441:29456   */\n      add\n        /* \"#utility.yul\":29434:29483   */\n      mstore\n        /* \"#utility.yul\":29355:29490   */\n      pop\n      jump\t// out\n        /* \"#utility.yul\":29496:29664   */\n    tag_528:\n        /* \"#utility.yul\":29636:29656   */\n      0x526566756e64696e67207061796d656e742e0000000000000000000000000000\n        /* \"#utility.yul\":29632:29633   */\n      0x00\n        /* \"#utility.yul\":29624:29630   */\n      dup3\n        /* \"#utility.yul\":29620:29634   */\n      add\n        /* \"#utility.yul\":29613:29657   */\n      mstore\n        /* \"#utility.yul\":29602:29664   */\n      pop\n      jump\t// out\n        /* \"#utility.yul\":29670:29836   */\n    tag_533:\n        /* \"#utility.yul\":29810:29828   */\n      0x53656e64696e67207061796d656e742e00000000000000000000000000000000\n        /* \"#utility.yul\":29806:29807   */\n      0x00\n        /* \"#utility.yul\":29798:29804   */\n      dup3\n        /* \"#utility.yul\":29794:29808   */\n      add\n        /* \"#utility.yul\":29787:29829   */\n      mstore\n        /* \"#utility.yul\":29776:29836   */\n      pop\n      jump\t// out\n        /* \"#utility.yul\":29842:29994   */\n    tag_538:\n        /* \"#utility.yul\":29982:29986   */\n      0x3d3d000000000000000000000000000000000000000000000000000000000000\n        /* \"#utility.yul\":29978:29979   */\n      0x00\n        /* \"#utility.yul\":29970:29976   */\n      dup3\n        /* \"#utility.yul\":29966:29980   */\n      add\n        /* \"#utility.yul\":29959:29987   */\n      mstore\n        /* \"#utility.yul\":29948:29994   */\n      pop\n      jump\t// out\n        /* \"#utility.yul\":30000:30151   */\n    tag_543:\n        /* \"#utility.yul\":30140:30143   */\n      0x3c00000000000000000000000000000000000000000000000000000000000000\n        /* \"#utility.yul\":30136:30137   */\n      0x00\n        /* \"#utility.yul\":30128:30134   */\n      dup3\n        /* \"#utility.yul\":30124:30138   */\n      add\n        /* \"#utility.yul\":30117:30144   */\n      mstore\n        /* \"#utility.yul\":30106:30151   */\n      pop\n      jump\t// out\n        /* \"#utility.yul\":30157:30309   */\n    tag_548:\n        /* \"#utility.yul\":30297:30301   */\n      0x213d000000000000000000000000000000000000000000000000000000000000\n        /* \"#utility.yul\":30293:30294   */\n      0x00\n        /* \"#utility.yul\":30285:30291   */\n      dup3\n        /* \"#utility.yul\":30281:30295   */\n      add\n        /* \"#utility.yul\":30274:30302   */\n      mstore\n        /* \"#utility.yul\":30263:30309   */\n      pop\n      jump\t// out\n        /* \"#utility.yul\":30315:30467   */\n    tag_553:\n        /* \"#utility.yul\":30455:30459   */\n      0x3d3e000000000000000000000000000000000000000000000000000000000000\n        /* \"#utility.yul\":30451:30452   */\n      0x00\n        /* \"#utility.yul\":30443:30449   */\n      dup3\n        /* \"#utility.yul\":30439:30453   */\n      add\n        /* \"#utility.yul\":30432:30460   */\n      mstore\n        /* \"#utility.yul\":30421:30467   */\n      pop\n      jump\t// out\n        /* \"#utility.yul\":30473:30625   */\n    tag_558:\n        /* \"#utility.yul\":30613:30617   */\n      0x3c3d000000000000000000000000000000000000000000000000000000000000\n        /* \"#utility.yul\":30609:30610   */\n      0x00\n        /* \"#utility.yul\":30601:30607   */\n      dup3\n        /* \"#utility.yul\":30597:30611   */\n      add\n        /* \"#utility.yul\":30590:30618   */\n      mstore\n        /* \"#utility.yul\":30579:30625   */\n      pop\n      jump\t// out\n        /* \"#utility.yul\":30631:30782   */\n    tag_563:\n        /* \"#utility.yul\":30771:30774   */\n      0x3e00000000000000000000000000000000000000000000000000000000000000\n        /* \"#utility.yul\":30767:30768   */\n      0x00\n        /* \"#utility.yul\":30759:30765   */\n      dup3\n        /* \"#utility.yul\":30755:30769   */\n      add\n        /* \"#utility.yul\":30748:30775   */\n      mstore\n        /* \"#utility.yul\":30737:30782   */\n      pop\n      jump\t// out\n        /* \"#utility.yul\":30788:30967   */\n    tag_568:\n        /* \"#utility.yul\":30928:30959   */\n      0x4e6f742077697468696e207468652062696c6c696e6720706572696f64000000\n        /* \"#utility.yul\":30924:30925   */\n      0x00\n        /* \"#utility.yul\":30916:30922   */\n      dup3\n        /* \"#utility.yul\":30912:30926   */\n      add\n        /* \"#utility.yul\":30905:30960   */\n      mstore\n        /* \"#utility.yul\":30894:30967   */\n      pop\n      jump\t// out\n        /* \"#utility.yul\":30973:31197   */\n    tag_573:\n        /* \"#utility.yul\":31113:31147   */\n      0x436f6e7472616374206973206e6f7420696e2074686520726571756972656420\n        /* \"#utility.yul\":31109:31110   */\n      0x00\n        /* \"#utility.yul\":31101:31107   */\n      dup3\n        /* \"#utility.yul\":31097:31111   */\n      add\n        /* \"#utility.yul\":31090:31148   */\n      mstore\n        /* \"#utility.yul\":31182:31189   */\n      0x7374617465000000000000000000000000000000000000000000000000000000\n        /* \"#utility.yul\":31177:31179   */\n      0x20\n        /* \"#utility.yul\":31169:31175   */\n      dup3\n        /* \"#utility.yul\":31165:31180   */\n      add\n        /* \"#utility.yul\":31158:31190   */\n      mstore\n        /* \"#utility.yul\":31079:31197   */\n      pop\n      jump\t// out\n        /* \"#utility.yul\":31203:31317   */\n    tag_690:\n        /* \"#utility.yul\":31285:31286   */\n      0x05\n        /* \"#utility.yul\":31278:31283   */\n      dup2\n        /* \"#utility.yul\":31275:31287   */\n      lt\n        /* \"#utility.yul\":31265:31267   */\n      tag_743\n      jumpi\n        /* \"#utility.yul\":31291:31309   */\n      tag_744\n      tag_140\n      jump\t// in\n    tag_744:\n        /* \"#utility.yul\":31265:31267   */\n    tag_743:\n        /* \"#utility.yul\":31255:31317   */\n      pop\n      jump\t// out\n        /* \"#utility.yul\":31323:31445   */\n    tag_422:\n        /* \"#utility.yul\":31396:31420   */\n      tag_746\n        /* \"#utility.yul\":31414:31419   */\n      dup2\n        /* \"#utility.yul\":31396:31420   */\n      tag_490\n      jump\t// in\n    tag_746:\n        /* \"#utility.yul\":31389:31394   */\n      dup2\n        /* \"#utility.yul\":31386:31421   */\n      eq\n        /* \"#utility.yul\":31376:31378   */\n      tag_747\n      jumpi\n        /* \"#utility.yul\":31435:31436   */\n      0x00\n        /* \"#utility.yul\":31432:31433   */\n      dup1\n        /* \"#utility.yul\":31425:31437   */\n      revert\n        /* \"#utility.yul\":31376:31378   */\n    tag_747:\n        /* \"#utility.yul\":31366:31445   */\n      pop\n      jump\t// out\n        /* \"#utility.yul\":31451:31571   */\n    tag_440:\n        /* \"#utility.yul\":31523:31546   */\n      tag_749\n        /* \"#utility.yul\":31540:31545   */\n      dup2\n        /* \"#utility.yul\":31523:31546   */\n      tag_502\n      jump\t// in\n    tag_749:\n        /* \"#utility.yul\":31516:31521   */\n      dup2\n        /* \"#utility.yul\":31513:31547   */\n      eq\n        /* \"#utility.yul\":31503:31505   */\n      tag_750\n      jumpi\n        /* \"#utility.yul\":31561:31562   */\n      0x00\n        /* \"#utility.yul\":31558:31559   */\n      dup1\n        /* \"#utility.yul\":31551:31563   */\n      revert\n        /* \"#utility.yul\":31503:31505   */\n    tag_750:\n        /* \"#utility.yul\":31493:31571   */\n      pop\n      jump\t// out\n        /* \"#utility.yul\":31577:31699   */\n    tag_448:\n        /* \"#utility.yul\":31650:31674   */\n      tag_752\n        /* \"#utility.yul\":31668:31673   */\n      dup2\n        /* \"#utility.yul\":31650:31674   */\n      tag_577\n      jump\t// in\n    tag_752:\n        /* \"#utility.yul\":31643:31648   */\n      dup2\n        /* \"#utility.yul\":31640:31675   */\n      eq\n        /* \"#utility.yul\":31630:31632   */\n      tag_753\n      jumpi\n        /* \"#utility.yul\":31689:31690   */\n      0x00\n        /* \"#utility.yul\":31686:31687   */\n      dup1\n        /* \"#utility.yul\":31679:31691   */\n      revert\n        /* \"#utility.yul\":31630:31632   */\n    tag_753:\n        /* \"#utility.yul\":31620:31699   */\n      pop\n      jump\t// out\n\n    auxdata: 0xa2646970667358221220396d377db8ccbb7b790e6ed569d3bb030288bc0ec0fb0f3d06cab2f593ee977164736f6c63430008060033\n}\n",
    "bytecode": {
      "linkReferences": {},
      "object": "60806040526000600960006101000a81548160ff0219169083600481111561002a5761002961005c565b5b02179055506000600960016101000a81548160ff02191690831515021790555034801561005657600080fd5b5061008b565b7f4e487b7100000000000000000000000000000000000000000000000000000000600052602160045260246000fd5b6127b0806200009b6000396000f3fe6080604052600436106101665760003560e01c806383197ef0116100d1578063aa8c217c1161008a578063f1b9ee2411610064578063f1b9ee241461048f578063f851a440146104a6578063fadeaa59146104d1578063fbbf93a0146104fa57610166565b8063aa8c217c1461040e578063ae90b21314610439578063c040e6b81461046457610166565b806383197ef01461035757806384ac44461461036e578063904c6094146103785780639503fe3d146103a357806397c0bba1146103ba5780639a730617146103e557610166565b80633a40f3b2116101235780633a40f3b21461026b578063410459ad1461029657806343885314146102bf578063516dde43146102ea578063722713f714610315578063760a8c2a1461034057610166565b80630b97bc861461016b578063109e94cf1461019657806312424e3f146101c1578063182541d2146101d857806321ce5afd1461021757806325419c2414610240575b600080fd5b34801561017757600080fd5b5061018061052c565b60405161018d9190611f1f565b60405180910390f35b3480156101a257600080fd5b506101ab610532565b6040516101b89190611d56565b60405180910390f35b3480156101cd57600080fd5b506101d6610558565b005b3480156101e457600080fd5b506101ff60048036038101906101fa9190611a34565b6106a6565b60405161020e93929190611e81565b60405180910390f35b34801561022357600080fd5b5061023e6004803603810190610239919061195e565b610768565b005b34801561024c57600080fd5b506102556108ca565b6040516102629190611f1f565b60405180910390f35b34801561027757600080fd5b506102806108d0565b60405161028d9190611def565b60405180910390f35b3480156102a257600080fd5b506102bd60048036038101906102b891906118b6565b6108e3565b005b3480156102cb57600080fd5b506102d4610927565b6040516102e19190611f1f565b60405180910390f35b3480156102f657600080fd5b506102ff61092d565b60405161030c9190611f1f565b60405180910390f35b34801561032157600080fd5b5061032a610933565b6040516103379190611f1f565b60405180910390f35b34801561034c57600080fd5b5061035561093b565b005b34801561036357600080fd5b5061036c6109e0565b005b610376610a92565b005b34801561038457600080fd5b5061038d610b85565b60405161039a9190611f1f565b60405180910390f35b3480156103af57600080fd5b506103b8610b8b565b005b3480156103c657600080fd5b506103cf610c6d565b6040516103dc9190611def565b60405180910390f35b3480156103f157600080fd5b5061040c600480360381019061040791906118e3565b610c80565b005b34801561041a57600080fd5b50610423610d56565b6040516104309190611f1f565b60405180910390f35b34801561044557600080fd5b5061044e610d5c565b60405161045b9190611d56565b60405180910390f35b34801561047057600080fd5b50610479610d82565b6040516104869190611e66565b60405180910390f35b34801561049b57600080fd5b506104a4610d95565b005b3480156104b257600080fd5b506104bb610e3a565b6040516104c89190611d3b565b60405180910390f35b3480156104dd57600080fd5b506104f860048036038101906104f391906119a7565b610e5e565b005b34801561050657600080fd5b5061050f611007565b604051610523989796959493929190611d71565b60405180910390f35b60035481565b600160009054906101000a900473ffffffffffffffffffffffffffffffffffffffff1681565b600180600481111561056d5761056c61242c565b5b600960009054906101000a900460ff16600481111561058f5761058e61242c565b5b146105cf576040517f08c379a00000000000000000000000000000000000000000000000000000000081526004016105c690611eff565b60405180910390fd5b60008054906101000a900473ffffffffffffffffffffffffffffffffffffffff1673ffffffffffffffffffffffffffffffffffffffff163373ffffffffffffffffffffffffffffffffffffffff161461065d576040517f08c379a000000000000000000000000000000000000000000000000000000000815260040161065490611ebf565b60405180910390fd5b6001600260146101000a81548160ff0219169083151502179055506003600960006101000a81548160ff0219169083600481111561069e5761069d61242c565b5b021790555050565b600a81815481106106b657600080fd5b90600052602060002090600302016000915090508060000154908060010154908060020180546106e5906122d9565b80601f0160208091040260200160405190810160405280929190818152602001828054610711906122d9565b801561075e5780601f106107335761010080835404028352916020019161075e565b820191906000526020600020905b81548152906001019060200180831161074157829003601f168201915b5050505050905083565b600380600481111561077d5761077c61242c565b5b600960009054906101000a900460ff16600481111561079f5761079e61242c565b5b146107df576040517f08c379a00000000000000000000000000000000000000000000000000000000081526004016107d690611eff565b60405180910390fd5b6007544311156107f6576107f1611085565b6108c6565b600654431015801561080a57506007544311155b610849576040517f08c379a000000000000000000000000000000000000000000000000000000000815260040161084090611edf565b60405180910390fd5b60005b82518110156108ac578281815181106108685761086761248a565b5b6020026020010151600c60008381526020019081526020016000206000828254610892919061202f565b9250508190555080806108a490612385565b91505061084c565b50600d60008154809291906108c09061233c565b91905055505b5050565b60065481565b600960019054906101000a900460ff1681565b80600260006101000a81548173ffffffffffffffffffffffffffffffffffffffff021916908373ffffffffffffffffffffffffffffffffffffffff16021790555050565b60075481565b60045481565b600047905090565b60028060048111156109505761094f61242c565b5b600960009054906101000a900460ff1660048111156109725761097161242c565b5b146109b2576040517f08c379a00000000000000000000000000000000000000000000000000000000081526004016109a990611eff565b60405180910390fd5b6003600960006101000a81548160ff021916908360048111156109d8576109d761242c565b5b021790555050565b60028060048111156109f5576109f461242c565b5b600960009054906101000a900460ff166004811115610a1757610a1661242c565b5b14610a57576040517f08c379a0000000000000000000000000000000000000000000000000000000008152600401610a4e90611eff565b60405180910390fd5b600160009054906101000a900473ffffffffffffffffffffffffffffffffffffffff1673ffffffffffffffffffffffffffffffffffffffff16ff5b6003806004811115610aa757610aa661242c565b5b600960009054906101000a900460ff166004811115610ac957610ac861242c565b5b14610b09576040517f08c379a0000000000000000000000000000000000000000000000000000000008152600401610b0090611eff565b60405180910390fd5b600754431115610b2057610b1b611085565b610b82565b6006544310158015610b3457506007544311155b610b73576040517f08c379a0000000000000000000000000000000000000000000000000000000008152600401610b6a90611edf565b60405180910390fd5b6005543414610b8157600080fd5b5b50565b60085481565b6000806004811115610ba057610b9f61242c565b5b600960009054906101000a900460ff166004811115610bc257610bc161242c565b5b14610c02576040517f08c379a0000000000000000000000000000000000000000000000000000000008152600401610bf990611eff565b60405180910390fd5b6001600960006101000a81548160ff02191690836004811115610c2857610c2761242c565b5b021790555060005b600a80549050811015610c69576000600c6000838152602001908152602001600020819055508080610c6190612385565b915050610c30565b5050565b600260149054906101000a900460ff1681565b336000806101000a81548173ffffffffffffffffffffffffffffffffffffffff021916908373ffffffffffffffffffffffffffffffffffffffff16021790555084600160006101000a81548173ffffffffffffffffffffffffffffffffffffffff021916908373ffffffffffffffffffffffffffffffffffffffff1602179055508360048190555082600381905550610d188361129d565b600681905550610d33601e84610d2e91906120c3565b61129d565b6007819055508160088190555080600581905550610d4f6112c4565b5050505050565b60055481565b600260009054906101000a900473ffffffffffffffffffffffffffffffffffffffff1681565b600960009054906101000a900460ff1681565b6003806004811115610daa57610da961242c565b5b600960009054906101000a900460ff166004811115610dcc57610dcb61242c565b5b14610e0c576040517f08c379a0000000000000000000000000000000000000000000000000000000008152600401610e0390611eff565b60405180910390fd5b6002600960006101000a81548160ff02191690836004811115610e3257610e3161242c565b5b021790555050565b60008054906101000a900473ffffffffffffffffffffffffffffffffffffffff1681565b6000806004811115610e7357610e7261242c565b5b600960009054906101000a900460ff166004811115610e9557610e9461242c565b5b14610ed5576040517f08c379a0000000000000000000000000000000000000000000000000000000008152600401610ecc90611eff565b60405180910390fd5b60005b6008811015610fff576000858260088110610ef657610ef561248a565b5b6020020151511415610f1057610f0a610b8b565b50611001565b600a6040518060600160405280868460088110610f3057610f2f61248a565b5b60200201518152602001600b868560088110610f4f57610f4e61248a565b5b6020020151604051610f619190611ca6565b9081526020016040518091039020548152602001878460088110610f8857610f8761248a565b5b6020020151815250908060018154018082558091505060019003906000526020600020906003020160009091909190915060008201518160000155602082015181600101556040820151816002019080519060200190610fe9929190611584565b5050508080610ff790612385565b915050610ed8565b505b50505050565b600080600080600080600080600160009054906101000a900473ffffffffffffffffffffffffffffffffffffffff16600260009054906101000a900473ffffffffffffffffffffffffffffffffffffffff16600354600454600554600654600754600854975097509750975097509750975097509091929394959697565b600380600481111561109a5761109961242c565b5b600960009054906101000a900460ff1660048111156110bc576110bb61242c565b5b146110fc576040517f08c379a00000000000000000000000000000000000000000000000000000000081526004016110f390611eff565b60405180910390fd5b60005b600a80549050811015611218576000600a82815481106111225761112161248a565b5b90600052602060002090600302016001015490506000600a838154811061114c5761114b61248a565b5b90600052602060002090600302016000015490506000600d54600c6000868152602001908152602001600020546111839190612119565b9050611190838284611392565b6112025761119c61141c565b3373ffffffffffffffffffffffffffffffffffffffff167fa84226bf2d14bde3fac454f52eaeab63aaeb1934da88f9263dd4ff7dd12acf71600960019054906101000a900460ff166040516111f19190611e0a565b60405180910390a25050505061129a565b505050808061121090612385565b9150506110ff565b506001600960016101000a81548160ff0219169083151502179055503373ffffffffffffffffffffffffffffffffffffffff167fa84226bf2d14bde3fac454f52eaeab63aaeb1934da88f9263dd4ff7dd12acf71600960019054906101000a900460ff166040516112899190611e38565b60405180910390a2611299611491565b5b50565b600080611900836112ae9190612183565b905080436112bc91906120c3565b915050919050565b6001600b6040516112d490611d26565b9081526020016040518091039020819055506002600b6040516112f690611cbd565b9081526020016040518091039020819055506003600b60405161131890611cfc565b9081526020016040518091039020819055506004600b60405161133a90611cd2565b9081526020016040518091039020819055506005600b60405161135c90611ce7565b9081526020016040518091039020819055506006600b60405161137e90611d11565b908152602001604051809103902081905550565b60007fffffffffffffffffffffffffffffffffffffffffffffffffffffffffffffffff841461141057600180851614156113d7578183136113d65760009050611415565b5b600280851614156113f3578183146113f25760009050611415565b5b6004808516141561140f5781831261140e5760009050611415565b5b5b600190505b9392505050565b600160009054906101000a900473ffffffffffffffffffffffffffffffffffffffff1673ffffffffffffffffffffffffffffffffffffffff166108fc6005549081150290604051600060405180830381858888f19350505050158015611486573d6000803e3d6000fd5b5061148f611506565b565b600260009054906101000a900473ffffffffffffffffffffffffffffffffffffffff1673ffffffffffffffffffffffffffffffffffffffff166108fc6005549081150290604051600060405180830381858888f193505050501580156114fb573d6000803e3d6000fd5b50611504611506565b565b600454431015611557576000600960016101000a81548160ff021916908315150217905550600754600681905550611900601e61154391906121b4565b60075461155091906120c3565b6007819055505b6004600960006101000a81548160ff0219169083600481111561157d5761157c61242c565b5b0217905550565b828054611590906122d9565b90600052602060002090601f0160209004810192826115b257600085556115f9565b82601f106115cb57805160ff19168380011785556115f9565b828001600101855582156115f9579182015b828111156115f85782518255916020019190600101906115dd565b5b509050611606919061160a565b5090565b5b8082111561162357600081600090555060010161160b565b5090565b600061163a61163584611f5f565b611f3a565b90508082856020860282011115611654576116536124ed565b5b60005b85811015611684578161166a888261185e565b845260208401935060208301925050600181019050611657565b5050509392505050565b60006116a161169c84611f85565b611f3a565b905080838252602082019050828560208602820111156116c4576116c36124ed565b5b60005b858110156116f457816116da888261185e565b8452602084019350602083019250506001810190506116c7565b5050509392505050565b600061171161170c84611fb1565b611f3a565b9050808285602086028201111561172b5761172a6124ed565b5b60005b8581101561177957813567ffffffffffffffff811115611751576117506124e8565b5b80860161175e8982611873565b8552602085019450602084019350505060018101905061172e565b5050509392505050565b600061179661179184611fd7565b611f3a565b9050828152602081018484840111156117b2576117b16124f2565b5b6117bd848285612297565b509392505050565b6000813590506117d481612735565b92915050565b600082601f8301126117ef576117ee6124e8565b5b60086117fc848285611627565b91505092915050565b600082601f83011261181a576118196124e8565b5b813561182a84826020860161168e565b91505092915050565b600082601f830112611848576118476124e8565b5b60086118558482856116fe565b91505092915050565b60008135905061186d8161274c565b92915050565b600082601f830112611888576118876124e8565b5b8135611898848260208601611783565b91505092915050565b6000813590506118b081612763565b92915050565b6000602082840312156118cc576118cb6124fc565b5b60006118da848285016117c5565b91505092915050565b600080600080600060a086880312156118ff576118fe6124fc565b5b600061190d888289016117c5565b955050602061191e888289016118a1565b945050604061192f888289016118a1565b9350506060611940888289016118a1565b9250506080611951888289016118a1565b9150509295509295909350565b600060208284031215611974576119736124fc565b5b600082013567ffffffffffffffff811115611992576119916124f7565b5b61199e84828501611805565b91505092915050565b600080600061014084860312156119c1576119c06124fc565b5b600084013567ffffffffffffffff8111156119df576119de6124f7565b5b6119eb86828701611833565b93505060206119fc868287016117da565b92505061012084013567ffffffffffffffff811115611a1e57611a1d6124f7565b5b611a2a86828701611833565b9150509250925092565b600060208284031215611a4a57611a496124fc565b5b6000611a58848285016118a1565b91505092915050565b611a6a81612220565b82525050565b611a798161220e565b82525050565b611a8881612232565b82525050565b611a9781612285565b82525050565b611aa681612251565b82525050565b6000611ab782612008565b611ac18185612013565b9350611ad18185602086016122a6565b611ada81612501565b840191505092915050565b6000611af082612008565b611afa8185612024565b9350611b0a8185602086016122a6565b80840191505092915050565b6000611b23603683612013565b9150611b2e82612512565b604082019050919050565b6000611b46601283612013565b9150611b5182612561565b602082019050919050565b6000611b69601083612013565b9150611b748261258a565b602082019050919050565b6000611b8c600283612024565b9150611b97826125b3565b600282019050919050565b6000611baf600183612024565b9150611bba826125dc565b600182019050919050565b6000611bd2600283612024565b9150611bdd82612605565b600282019050919050565b6000611bf5600283612024565b9150611c008261262e565b600282019050919050565b6000611c18600283612024565b9150611c2382612657565b600282019050919050565b6000611c3b600183612024565b9150611c4682612680565b600182019050919050565b6000611c5e601d83612013565b9150611c69826126a9565b602082019050919050565b6000611c81602583612013565b9150611c8c826126d2565b604082019050919050565b611ca08161227b565b82525050565b6000611cb28284611ae5565b915081905092915050565b6000611cc882611b7f565b9150819050919050565b6000611cdd82611ba2565b9150819050919050565b6000611cf282611bc5565b9150819050919050565b6000611d0782611be8565b9150819050919050565b6000611d1c82611c0b565b9150819050919050565b6000611d3182611c2e565b9150819050919050565b6000602082019050611d506000830184611a70565b92915050565b6000602082019050611d6b6000830184611a61565b92915050565b600061010082019050611d87600083018b611a70565b611d94602083018a611a70565b611da16040830189611c97565b611dae6060830188611c97565b611dbb6080830187611c97565b611dc860a0830186611c97565b611dd560c0830185611c97565b611de260e0830184611c97565b9998505050505050505050565b6000602082019050611e046000830184611a7f565b92915050565b6000604082019050611e1f6000830184611a7f565b8181036020830152611e3081611b39565b905092915050565b6000604082019050611e4d6000830184611a7f565b8181036020830152611e5e81611b5c565b905092915050565b6000602082019050611e7b6000830184611a8e565b92915050565b6000606082019050611e966000830186611a9d565b611ea36020830185611a9d565b8181036040830152611eb58184611aac565b9050949350505050565b60006020820190508181036000830152611ed881611b16565b9050919050565b60006020820190508181036000830152611ef881611c51565b9050919050565b60006020820190508181036000830152611f1881611c74565b9050919050565b6000602082019050611f346000830184611c97565b92915050565b6000611f44611f55565b9050611f50828261230b565b919050565b6000604051905090565b600067ffffffffffffffff821115611f7a57611f796124b9565b5b602082029050919050565b600067ffffffffffffffff821115611fa057611f9f6124b9565b5b602082029050602081019050919050565b600067ffffffffffffffff821115611fcc57611fcb6124b9565b5b602082029050919050565b600067ffffffffffffffff821115611ff257611ff16124b9565b5b611ffb82612501565b9050602081019050919050565b600081519050919050565b600082825260208201905092915050565b600081905092915050565b600061203a82612251565b915061204583612251565b9250817f7fffffffffffffffffffffffffffffffffffffffffffffffffffffffffffffff038313600083121516156120805761207f6123ce565b5b817f80000000000000000000000000000000000000000000000000000000000000000383126000831216156120b8576120b76123ce565b5b828201905092915050565b60006120ce8261227b565b91506120d98361227b565b9250827fffffffffffffffffffffffffffffffffffffffffffffffffffffffffffffffff0382111561210e5761210d6123ce565b5b828201905092915050565b600061212482612251565b915061212f83612251565b92508261213f5761213e6123fd565b5b600160000383147f800000000000000000000000000000000000000000000000000000000000000083141615612178576121776123ce565b5b828205905092915050565b600061218e8261227b565b91506121998361227b565b9250826121a9576121a86123fd565b5b828204905092915050565b60006121bf8261227b565b91506121ca8361227b565b9250817fffffffffffffffffffffffffffffffffffffffffffffffffffffffffffffffff0483118215151615612203576122026123ce565b5b828202905092915050565b60006122198261225b565b9050919050565b600061222b8261225b565b9050919050565b60008115159050919050565b600081905061224c82612721565b919050565b6000819050919050565b600073ffffffffffffffffffffffffffffffffffffffff82169050919050565b6000819050919050565b60006122908261223e565b9050919050565b82818337600083830152505050565b60005b838110156122c45780820151818401526020810190506122a9565b838111156122d3576000848401525b50505050565b600060028204905060018216806122f157607f821691505b602082108114156123055761230461245b565b5b50919050565b61231482612501565b810181811067ffffffffffffffff82111715612333576123326124b9565b5b80604052505050565b600061234782612251565b91507f7fffffffffffffffffffffffffffffffffffffffffffffffffffffffffffffff82141561237a576123796123ce565b5b600182019050919050565b60006123908261227b565b91507fffffffffffffffffffffffffffffffffffffffffffffffffffffffffffffffff8214156123c3576123c26123ce565b5b600182019050919050565b7f4e487b7100000000000000000000000000000000000000000000000000000000600052601160045260246000fd5b7f4e487b7100000000000000000000000000000000000000000000000000000000600052601260045260246000fd5b7f4e487b7100000000000000000000000000000000000000000000000000000000600052602160045260246000fd5b7f4e487b7100000000000000000000000000000000000000000000000000000000600052602260045260246000fd5b7f4e487b7100000000000000000000000000000000000000000000000000000000600052603260045260246000fd5b7f4e487b7100000000000000000000000000000000000000000000000000000000600052604160045260246000fd5b600080fd5b600080fd5b600080fd5b600080fd5b600080fd5b6000601f19601f8301169050919050565b7f43616e6e6f742063616c6c20746869732066756e6374696f6e2064697265637460008201527f6c792c207573652056656e646f72466163746f72792e00000000000000000000602082015250565b7f526566756e64696e67207061796d656e742e0000000000000000000000000000600082015250565b7f53656e64696e67207061796d656e742e00000000000000000000000000000000600082015250565b7f3d3d000000000000000000000000000000000000000000000000000000000000600082015250565b7f3c00000000000000000000000000000000000000000000000000000000000000600082015250565b7f213d000000000000000000000000000000000000000000000000000000000000600082015250565b7f3d3e000000000000000000000000000000000000000000000000000000000000600082015250565b7f3c3d000000000000000000000000000000000000000000000000000000000000600082015250565b7f3e00000000000000000000000000000000000000000000000000000000000000600082015250565b7f4e6f742077697468696e207468652062696c6c696e6720706572696f64000000600082015250565b7f436f6e7472616374206973206e6f7420696e207468652072657175697265642060008201527f7374617465000000000000000000000000000000000000000000000000000000602082015250565b600581106127325761273161242c565b5b50565b61273e8161220e565b811461274957600080fd5b50565b61275581612251565b811461276057600080fd5b50565b61276c8161227b565b811461277757600080fd5b5056fea2646970667358221220396d377db8ccbb7b790e6ed569d3bb030288bc0ec0fb0f3d06cab2f593ee977164736f6c63430008060033",
      "opcodes": "PUSH1 0x80 PUSH1 0x40 MSTORE PUSH1 0x0 PUSH1 0x9 PUSH1 0x0 PUSH2 0x100 EXP DUP2 SLOAD DUP2 PUSH1 0xFF MUL NOT AND SWAP1 DUP4 PUSH1 0x4 DUP2 GT ISZERO PUSH2 0x2A JUMPI PUSH2 0x29 PUSH2 0x5C JUMP JUMPDEST JUMPDEST MUL OR SWAP1 SSTORE POP PUSH1 0x0 PUSH1 0x9 PUSH1 0x1 PUSH2 0x100 EXP DUP2 SLOAD DUP2 PUSH1 0xFF MUL NOT AND SWAP1 DUP4 ISZERO ISZERO MUL OR SWAP1 SSTORE POP CALLVALUE DUP1 ISZERO PUSH2 0x56 JUMPI PUSH1 0x0 DUP1 REVERT JUMPDEST POP PUSH2 0x8B JUMP JUMPDEST PUSH32 0x4E487B7100000000000000000000000000000000000000000000000000000000 PUSH1 0x0 MSTORE PUSH1 0x21 PUSH1 0x4 MSTORE PUSH1 0x24 PUSH1 0x0 REVERT JUMPDEST PUSH2 0x27B0 DUP1 PUSH3 0x9B PUSH1 0x0 CODECOPY PUSH1 0x0 RETURN INVALID PUSH1 0x80 PUSH1 0x40 MSTORE PUSH1 0x4 CALLDATASIZE LT PUSH2 0x166 JUMPI PUSH1 0x0 CALLDATALOAD PUSH1 0xE0 SHR DUP1 PUSH4 0x83197EF0 GT PUSH2 0xD1 JUMPI DUP1 PUSH4 0xAA8C217C GT PUSH2 0x8A JUMPI DUP1 PUSH4 0xF1B9EE24 GT PUSH2 0x64 JUMPI DUP1 PUSH4 0xF1B9EE24 EQ PUSH2 0x48F JUMPI DUP1 PUSH4 0xF851A440 EQ PUSH2 0x4A6 JUMPI DUP1 PUSH4 0xFADEAA59 EQ PUSH2 0x4D1 JUMPI DUP1 PUSH4 0xFBBF93A0 EQ PUSH2 0x4FA JUMPI PUSH2 0x166 JUMP JUMPDEST DUP1 PUSH4 0xAA8C217C EQ PUSH2 0x40E JUMPI DUP1 PUSH4 0xAE90B213 EQ PUSH2 0x439 JUMPI DUP1 PUSH4 0xC040E6B8 EQ PUSH2 0x464 JUMPI PUSH2 0x166 JUMP JUMPDEST DUP1 PUSH4 0x83197EF0 EQ PUSH2 0x357 JUMPI DUP1 PUSH4 0x84AC4446 EQ PUSH2 0x36E JUMPI DUP1 PUSH4 0x904C6094 EQ PUSH2 0x378 JUMPI DUP1 PUSH4 0x9503FE3D EQ PUSH2 0x3A3 JUMPI DUP1 PUSH4 0x97C0BBA1 EQ PUSH2 0x3BA JUMPI DUP1 PUSH4 0x9A730617 EQ PUSH2 0x3E5 JUMPI PUSH2 0x166 JUMP JUMPDEST DUP1 PUSH4 0x3A40F3B2 GT PUSH2 0x123 JUMPI DUP1 PUSH4 0x3A40F3B2 EQ PUSH2 0x26B JUMPI DUP1 PUSH4 0x410459AD EQ PUSH2 0x296 JUMPI DUP1 PUSH4 0x43885314 EQ PUSH2 0x2BF JUMPI DUP1 PUSH4 0x516DDE43 EQ PUSH2 0x2EA JUMPI DUP1 PUSH4 0x722713F7 EQ PUSH2 0x315 JUMPI DUP1 PUSH4 0x760A8C2A EQ PUSH2 0x340 JUMPI PUSH2 0x166 JUMP JUMPDEST DUP1 PUSH4 0xB97BC86 EQ PUSH2 0x16B JUMPI DUP1 PUSH4 0x109E94CF EQ PUSH2 0x196 JUMPI DUP1 PUSH4 0x12424E3F EQ PUSH2 0x1C1 JUMPI DUP1 PUSH4 0x182541D2 EQ PUSH2 0x1D8 JUMPI DUP1 PUSH4 0x21CE5AFD EQ PUSH2 0x217 JUMPI DUP1 PUSH4 0x25419C24 EQ PUSH2 0x240 JUMPI JUMPDEST PUSH1 0x0 DUP1 REVERT JUMPDEST CALLVALUE DUP1 ISZERO PUSH2 0x177 JUMPI PUSH1 0x0 DUP1 REVERT JUMPDEST POP PUSH2 0x180 PUSH2 0x52C JUMP JUMPDEST PUSH1 0x40 MLOAD PUSH2 0x18D SWAP2 SWAP1 PUSH2 0x1F1F JUMP JUMPDEST PUSH1 0x40 MLOAD DUP1 SWAP2 SUB SWAP1 RETURN JUMPDEST CALLVALUE DUP1 ISZERO PUSH2 0x1A2 JUMPI PUSH1 0x0 DUP1 REVERT JUMPDEST POP PUSH2 0x1AB PUSH2 0x532 JUMP JUMPDEST PUSH1 0x40 MLOAD PUSH2 0x1B8 SWAP2 SWAP1 PUSH2 0x1D56 JUMP JUMPDEST PUSH1 0x40 MLOAD DUP1 SWAP2 SUB SWAP1 RETURN JUMPDEST CALLVALUE DUP1 ISZERO PUSH2 0x1CD JUMPI PUSH1 0x0 DUP1 REVERT JUMPDEST POP PUSH2 0x1D6 PUSH2 0x558 JUMP JUMPDEST STOP JUMPDEST CALLVALUE DUP1 ISZERO PUSH2 0x1E4 JUMPI PUSH1 0x0 DUP1 REVERT JUMPDEST POP PUSH2 0x1FF PUSH1 0x4 DUP1 CALLDATASIZE SUB DUP2 ADD SWAP1 PUSH2 0x1FA SWAP2 SWAP1 PUSH2 0x1A34 JUMP JUMPDEST PUSH2 0x6A6 JUMP JUMPDEST PUSH1 0x40 MLOAD PUSH2 0x20E SWAP4 SWAP3 SWAP2 SWAP1 PUSH2 0x1E81 JUMP JUMPDEST PUSH1 0x40 MLOAD DUP1 SWAP2 SUB SWAP1 RETURN JUMPDEST CALLVALUE DUP1 ISZERO PUSH2 0x223 JUMPI PUSH1 0x0 DUP1 REVERT JUMPDEST POP PUSH2 0x23E PUSH1 0x4 DUP1 CALLDATASIZE SUB DUP2 ADD SWAP1 PUSH2 0x239 SWAP2 SWAP1 PUSH2 0x195E JUMP JUMPDEST PUSH2 0x768 JUMP JUMPDEST STOP JUMPDEST CALLVALUE DUP1 ISZERO PUSH2 0x24C JUMPI PUSH1 0x0 DUP1 REVERT JUMPDEST POP PUSH2 0x255 PUSH2 0x8CA JUMP JUMPDEST PUSH1 0x40 MLOAD PUSH2 0x262 SWAP2 SWAP1 PUSH2 0x1F1F JUMP JUMPDEST PUSH1 0x40 MLOAD DUP1 SWAP2 SUB SWAP1 RETURN JUMPDEST CALLVALUE DUP1 ISZERO PUSH2 0x277 JUMPI PUSH1 0x0 DUP1 REVERT JUMPDEST POP PUSH2 0x280 PUSH2 0x8D0 JUMP JUMPDEST PUSH1 0x40 MLOAD PUSH2 0x28D SWAP2 SWAP1 PUSH2 0x1DEF JUMP JUMPDEST PUSH1 0x40 MLOAD DUP1 SWAP2 SUB SWAP1 RETURN JUMPDEST CALLVALUE DUP1 ISZERO PUSH2 0x2A2 JUMPI PUSH1 0x0 DUP1 REVERT JUMPDEST POP PUSH2 0x2BD PUSH1 0x4 DUP1 CALLDATASIZE SUB DUP2 ADD SWAP1 PUSH2 0x2B8 SWAP2 SWAP1 PUSH2 0x18B6 JUMP JUMPDEST PUSH2 0x8E3 JUMP JUMPDEST STOP JUMPDEST CALLVALUE DUP1 ISZERO PUSH2 0x2CB JUMPI PUSH1 0x0 DUP1 REVERT JUMPDEST POP PUSH2 0x2D4 PUSH2 0x927 JUMP JUMPDEST PUSH1 0x40 MLOAD PUSH2 0x2E1 SWAP2 SWAP1 PUSH2 0x1F1F JUMP JUMPDEST PUSH1 0x40 MLOAD DUP1 SWAP2 SUB SWAP1 RETURN JUMPDEST CALLVALUE DUP1 ISZERO PUSH2 0x2F6 JUMPI PUSH1 0x0 DUP1 REVERT JUMPDEST POP PUSH2 0x2FF PUSH2 0x92D JUMP JUMPDEST PUSH1 0x40 MLOAD PUSH2 0x30C SWAP2 SWAP1 PUSH2 0x1F1F JUMP JUMPDEST PUSH1 0x40 MLOAD DUP1 SWAP2 SUB SWAP1 RETURN JUMPDEST CALLVALUE DUP1 ISZERO PUSH2 0x321 JUMPI PUSH1 0x0 DUP1 REVERT JUMPDEST POP PUSH2 0x32A PUSH2 0x933 JUMP JUMPDEST PUSH1 0x40 MLOAD PUSH2 0x337 SWAP2 SWAP1 PUSH2 0x1F1F JUMP JUMPDEST PUSH1 0x40 MLOAD DUP1 SWAP2 SUB SWAP1 RETURN JUMPDEST CALLVALUE DUP1 ISZERO PUSH2 0x34C JUMPI PUSH1 0x0 DUP1 REVERT JUMPDEST POP PUSH2 0x355 PUSH2 0x93B JUMP JUMPDEST STOP JUMPDEST CALLVALUE DUP1 ISZERO PUSH2 0x363 JUMPI PUSH1 0x0 DUP1 REVERT JUMPDEST POP PUSH2 0x36C PUSH2 0x9E0 JUMP JUMPDEST STOP JUMPDEST PUSH2 0x376 PUSH2 0xA92 JUMP JUMPDEST STOP JUMPDEST CALLVALUE DUP1 ISZERO PUSH2 0x384 JUMPI PUSH1 0x0 DUP1 REVERT JUMPDEST POP PUSH2 0x38D PUSH2 0xB85 JUMP JUMPDEST PUSH1 0x40 MLOAD PUSH2 0x39A SWAP2 SWAP1 PUSH2 0x1F1F JUMP JUMPDEST PUSH1 0x40 MLOAD DUP1 SWAP2 SUB SWAP1 RETURN JUMPDEST CALLVALUE DUP1 ISZERO PUSH2 0x3AF JUMPI PUSH1 0x0 DUP1 REVERT JUMPDEST POP PUSH2 0x3B8 PUSH2 0xB8B JUMP JUMPDEST STOP JUMPDEST CALLVALUE DUP1 ISZERO PUSH2 0x3C6 JUMPI PUSH1 0x0 DUP1 REVERT JUMPDEST POP PUSH2 0x3CF PUSH2 0xC6D JUMP JUMPDEST PUSH1 0x40 MLOAD PUSH2 0x3DC SWAP2 SWAP1 PUSH2 0x1DEF JUMP JUMPDEST PUSH1 0x40 MLOAD DUP1 SWAP2 SUB SWAP1 RETURN JUMPDEST CALLVALUE DUP1 ISZERO PUSH2 0x3F1 JUMPI PUSH1 0x0 DUP1 REVERT JUMPDEST POP PUSH2 0x40C PUSH1 0x4 DUP1 CALLDATASIZE SUB DUP2 ADD SWAP1 PUSH2 0x407 SWAP2 SWAP1 PUSH2 0x18E3 JUMP JUMPDEST PUSH2 0xC80 JUMP JUMPDEST STOP JUMPDEST CALLVALUE DUP1 ISZERO PUSH2 0x41A JUMPI PUSH1 0x0 DUP1 REVERT JUMPDEST POP PUSH2 0x423 PUSH2 0xD56 JUMP JUMPDEST PUSH1 0x40 MLOAD PUSH2 0x430 SWAP2 SWAP1 PUSH2 0x1F1F JUMP JUMPDEST PUSH1 0x40 MLOAD DUP1 SWAP2 SUB SWAP1 RETURN JUMPDEST CALLVALUE DUP1 ISZERO PUSH2 0x445 JUMPI PUSH1 0x0 DUP1 REVERT JUMPDEST POP PUSH2 0x44E PUSH2 0xD5C JUMP JUMPDEST PUSH1 0x40 MLOAD PUSH2 0x45B SWAP2 SWAP1 PUSH2 0x1D56 JUMP JUMPDEST PUSH1 0x40 MLOAD DUP1 SWAP2 SUB SWAP1 RETURN JUMPDEST CALLVALUE DUP1 ISZERO PUSH2 0x470 JUMPI PUSH1 0x0 DUP1 REVERT JUMPDEST POP PUSH2 0x479 PUSH2 0xD82 JUMP JUMPDEST PUSH1 0x40 MLOAD PUSH2 0x486 SWAP2 SWAP1 PUSH2 0x1E66 JUMP JUMPDEST PUSH1 0x40 MLOAD DUP1 SWAP2 SUB SWAP1 RETURN JUMPDEST CALLVALUE DUP1 ISZERO PUSH2 0x49B JUMPI PUSH1 0x0 DUP1 REVERT JUMPDEST POP PUSH2 0x4A4 PUSH2 0xD95 JUMP JUMPDEST STOP JUMPDEST CALLVALUE DUP1 ISZERO PUSH2 0x4B2 JUMPI PUSH1 0x0 DUP1 REVERT JUMPDEST POP PUSH2 0x4BB PUSH2 0xE3A JUMP JUMPDEST PUSH1 0x40 MLOAD PUSH2 0x4C8 SWAP2 SWAP1 PUSH2 0x1D3B JUMP JUMPDEST PUSH1 0x40 MLOAD DUP1 SWAP2 SUB SWAP1 RETURN JUMPDEST CALLVALUE DUP1 ISZERO PUSH2 0x4DD JUMPI PUSH1 0x0 DUP1 REVERT JUMPDEST POP PUSH2 0x4F8 PUSH1 0x4 DUP1 CALLDATASIZE SUB DUP2 ADD SWAP1 PUSH2 0x4F3 SWAP2 SWAP1 PUSH2 0x19A7 JUMP JUMPDEST PUSH2 0xE5E JUMP JUMPDEST STOP JUMPDEST CALLVALUE DUP1 ISZERO PUSH2 0x506 JUMPI PUSH1 0x0 DUP1 REVERT JUMPDEST POP PUSH2 0x50F PUSH2 0x1007 JUMP JUMPDEST PUSH1 0x40 MLOAD PUSH2 0x523 SWAP9 SWAP8 SWAP7 SWAP6 SWAP5 SWAP4 SWAP3 SWAP2 SWAP1 PUSH2 0x1D71 JUMP JUMPDEST PUSH1 0x40 MLOAD DUP1 SWAP2 SUB SWAP1 RETURN JUMPDEST PUSH1 0x3 SLOAD DUP2 JUMP JUMPDEST PUSH1 0x1 PUSH1 0x0 SWAP1 SLOAD SWAP1 PUSH2 0x100 EXP SWAP1 DIV PUSH20 0xFFFFFFFFFFFFFFFFFFFFFFFFFFFFFFFFFFFFFFFF AND DUP2 JUMP JUMPDEST PUSH1 0x1 DUP1 PUSH1 0x4 DUP2 GT ISZERO PUSH2 0x56D JUMPI PUSH2 0x56C PUSH2 0x242C JUMP JUMPDEST JUMPDEST PUSH1 0x9 PUSH1 0x0 SWAP1 SLOAD SWAP1 PUSH2 0x100 EXP SWAP1 DIV PUSH1 0xFF AND PUSH1 0x4 DUP2 GT ISZERO PUSH2 0x58F JUMPI PUSH2 0x58E PUSH2 0x242C JUMP JUMPDEST JUMPDEST EQ PUSH2 0x5CF JUMPI PUSH1 0x40 MLOAD PUSH32 0x8C379A000000000000000000000000000000000000000000000000000000000 DUP2 MSTORE PUSH1 0x4 ADD PUSH2 0x5C6 SWAP1 PUSH2 0x1EFF JUMP JUMPDEST PUSH1 0x40 MLOAD DUP1 SWAP2 SUB SWAP1 REVERT JUMPDEST PUSH1 0x0 DUP1 SLOAD SWAP1 PUSH2 0x100 EXP SWAP1 DIV PUSH20 0xFFFFFFFFFFFFFFFFFFFFFFFFFFFFFFFFFFFFFFFF AND PUSH20 0xFFFFFFFFFFFFFFFFFFFFFFFFFFFFFFFFFFFFFFFF AND CALLER PUSH20 0xFFFFFFFFFFFFFFFFFFFFFFFFFFFFFFFFFFFFFFFF AND EQ PUSH2 0x65D JUMPI PUSH1 0x40 MLOAD PUSH32 0x8C379A000000000000000000000000000000000000000000000000000000000 DUP2 MSTORE PUSH1 0x4 ADD PUSH2 0x654 SWAP1 PUSH2 0x1EBF JUMP JUMPDEST PUSH1 0x40 MLOAD DUP1 SWAP2 SUB SWAP1 REVERT JUMPDEST PUSH1 0x1 PUSH1 0x2 PUSH1 0x14 PUSH2 0x100 EXP DUP2 SLOAD DUP2 PUSH1 0xFF MUL NOT AND SWAP1 DUP4 ISZERO ISZERO MUL OR SWAP1 SSTORE POP PUSH1 0x3 PUSH1 0x9 PUSH1 0x0 PUSH2 0x100 EXP DUP2 SLOAD DUP2 PUSH1 0xFF MUL NOT AND SWAP1 DUP4 PUSH1 0x4 DUP2 GT ISZERO PUSH2 0x69E JUMPI PUSH2 0x69D PUSH2 0x242C JUMP JUMPDEST JUMPDEST MUL OR SWAP1 SSTORE POP POP JUMP JUMPDEST PUSH1 0xA DUP2 DUP2 SLOAD DUP2 LT PUSH2 0x6B6 JUMPI PUSH1 0x0 DUP1 REVERT JUMPDEST SWAP1 PUSH1 0x0 MSTORE PUSH1 0x20 PUSH1 0x0 KECCAK256 SWAP1 PUSH1 0x3 MUL ADD PUSH1 0x0 SWAP2 POP SWAP1 POP DUP1 PUSH1 0x0 ADD SLOAD SWAP1 DUP1 PUSH1 0x1 ADD SLOAD SWAP1 DUP1 PUSH1 0x2 ADD DUP1 SLOAD PUSH2 0x6E5 SWAP1 PUSH2 0x22D9 JUMP JUMPDEST DUP1 PUSH1 0x1F ADD PUSH1 0x20 DUP1 SWAP2 DIV MUL PUSH1 0x20 ADD PUSH1 0x40 MLOAD SWAP1 DUP2 ADD PUSH1 0x40 MSTORE DUP1 SWAP3 SWAP2 SWAP1 DUP2 DUP2 MSTORE PUSH1 0x20 ADD DUP3 DUP1 SLOAD PUSH2 0x711 SWAP1 PUSH2 0x22D9 JUMP JUMPDEST DUP1 ISZERO PUSH2 0x75E JUMPI DUP1 PUSH1 0x1F LT PUSH2 0x733 JUMPI PUSH2 0x100 DUP1 DUP4 SLOAD DIV MUL DUP4 MSTORE SWAP2 PUSH1 0x20 ADD SWAP2 PUSH2 0x75E JUMP JUMPDEST DUP3 ADD SWAP2 SWAP1 PUSH1 0x0 MSTORE PUSH1 0x20 PUSH1 0x0 KECCAK256 SWAP1 JUMPDEST DUP2 SLOAD DUP2 MSTORE SWAP1 PUSH1 0x1 ADD SWAP1 PUSH1 0x20 ADD DUP1 DUP4 GT PUSH2 0x741 JUMPI DUP3 SWAP1 SUB PUSH1 0x1F AND DUP3 ADD SWAP2 JUMPDEST POP POP POP POP POP SWAP1 POP DUP4 JUMP JUMPDEST PUSH1 0x3 DUP1 PUSH1 0x4 DUP2 GT ISZERO PUSH2 0x77D JUMPI PUSH2 0x77C PUSH2 0x242C JUMP JUMPDEST JUMPDEST PUSH1 0x9 PUSH1 0x0 SWAP1 SLOAD SWAP1 PUSH2 0x100 EXP SWAP1 DIV PUSH1 0xFF AND PUSH1 0x4 DUP2 GT ISZERO PUSH2 0x79F JUMPI PUSH2 0x79E PUSH2 0x242C JUMP JUMPDEST JUMPDEST EQ PUSH2 0x7DF JUMPI PUSH1 0x40 MLOAD PUSH32 0x8C379A000000000000000000000000000000000000000000000000000000000 DUP2 MSTORE PUSH1 0x4 ADD PUSH2 0x7D6 SWAP1 PUSH2 0x1EFF JUMP JUMPDEST PUSH1 0x40 MLOAD DUP1 SWAP2 SUB SWAP1 REVERT JUMPDEST PUSH1 0x7 SLOAD NUMBER GT ISZERO PUSH2 0x7F6 JUMPI PUSH2 0x7F1 PUSH2 0x1085 JUMP JUMPDEST PUSH2 0x8C6 JUMP JUMPDEST PUSH1 0x6 SLOAD NUMBER LT ISZERO DUP1 ISZERO PUSH2 0x80A JUMPI POP PUSH1 0x7 SLOAD NUMBER GT ISZERO JUMPDEST PUSH2 0x849 JUMPI PUSH1 0x40 MLOAD PUSH32 0x8C379A000000000000000000000000000000000000000000000000000000000 DUP2 MSTORE PUSH1 0x4 ADD PUSH2 0x840 SWAP1 PUSH2 0x1EDF JUMP JUMPDEST PUSH1 0x40 MLOAD DUP1 SWAP2 SUB SWAP1 REVERT JUMPDEST PUSH1 0x0 JUMPDEST DUP3 MLOAD DUP2 LT ISZERO PUSH2 0x8AC JUMPI DUP3 DUP2 DUP2 MLOAD DUP2 LT PUSH2 0x868 JUMPI PUSH2 0x867 PUSH2 0x248A JUMP JUMPDEST JUMPDEST PUSH1 0x20 MUL PUSH1 0x20 ADD ADD MLOAD PUSH1 0xC PUSH1 0x0 DUP4 DUP2 MSTORE PUSH1 0x20 ADD SWAP1 DUP2 MSTORE PUSH1 0x20 ADD PUSH1 0x0 KECCAK256 PUSH1 0x0 DUP3 DUP3 SLOAD PUSH2 0x892 SWAP2 SWAP1 PUSH2 0x202F JUMP JUMPDEST SWAP3 POP POP DUP2 SWAP1 SSTORE POP DUP1 DUP1 PUSH2 0x8A4 SWAP1 PUSH2 0x2385 JUMP JUMPDEST SWAP2 POP POP PUSH2 0x84C JUMP JUMPDEST POP PUSH1 0xD PUSH1 0x0 DUP2 SLOAD DUP1 SWAP3 SWAP2 SWAP1 PUSH2 0x8C0 SWAP1 PUSH2 0x233C JUMP JUMPDEST SWAP2 SWAP1 POP SSTORE POP JUMPDEST POP POP JUMP JUMPDEST PUSH1 0x6 SLOAD DUP2 JUMP JUMPDEST PUSH1 0x9 PUSH1 0x1 SWAP1 SLOAD SWAP1 PUSH2 0x100 EXP SWAP1 DIV PUSH1 0xFF AND DUP2 JUMP JUMPDEST DUP1 PUSH1 0x2 PUSH1 0x0 PUSH2 0x100 EXP DUP2 SLOAD DUP2 PUSH20 0xFFFFFFFFFFFFFFFFFFFFFFFFFFFFFFFFFFFFFFFF MUL NOT AND SWAP1 DUP4 PUSH20 0xFFFFFFFFFFFFFFFFFFFFFFFFFFFFFFFFFFFFFFFF AND MUL OR SWAP1 SSTORE POP POP JUMP JUMPDEST PUSH1 0x7 SLOAD DUP2 JUMP JUMPDEST PUSH1 0x4 SLOAD DUP2 JUMP JUMPDEST PUSH1 0x0 SELFBALANCE SWAP1 POP SWAP1 JUMP JUMPDEST PUSH1 0x2 DUP1 PUSH1 0x4 DUP2 GT ISZERO PUSH2 0x950 JUMPI PUSH2 0x94F PUSH2 0x242C JUMP JUMPDEST JUMPDEST PUSH1 0x9 PUSH1 0x0 SWAP1 SLOAD SWAP1 PUSH2 0x100 EXP SWAP1 DIV PUSH1 0xFF AND PUSH1 0x4 DUP2 GT ISZERO PUSH2 0x972 JUMPI PUSH2 0x971 PUSH2 0x242C JUMP JUMPDEST JUMPDEST EQ PUSH2 0x9B2 JUMPI PUSH1 0x40 MLOAD PUSH32 0x8C379A000000000000000000000000000000000000000000000000000000000 DUP2 MSTORE PUSH1 0x4 ADD PUSH2 0x9A9 SWAP1 PUSH2 0x1EFF JUMP JUMPDEST PUSH1 0x40 MLOAD DUP1 SWAP2 SUB SWAP1 REVERT JUMPDEST PUSH1 0x3 PUSH1 0x9 PUSH1 0x0 PUSH2 0x100 EXP DUP2 SLOAD DUP2 PUSH1 0xFF MUL NOT AND SWAP1 DUP4 PUSH1 0x4 DUP2 GT ISZERO PUSH2 0x9D8 JUMPI PUSH2 0x9D7 PUSH2 0x242C JUMP JUMPDEST JUMPDEST MUL OR SWAP1 SSTORE POP POP JUMP JUMPDEST PUSH1 0x2 DUP1 PUSH1 0x4 DUP2 GT ISZERO PUSH2 0x9F5 JUMPI PUSH2 0x9F4 PUSH2 0x242C JUMP JUMPDEST JUMPDEST PUSH1 0x9 PUSH1 0x0 SWAP1 SLOAD SWAP1 PUSH2 0x100 EXP SWAP1 DIV PUSH1 0xFF AND PUSH1 0x4 DUP2 GT ISZERO PUSH2 0xA17 JUMPI PUSH2 0xA16 PUSH2 0x242C JUMP JUMPDEST JUMPDEST EQ PUSH2 0xA57 JUMPI PUSH1 0x40 MLOAD PUSH32 0x8C379A000000000000000000000000000000000000000000000000000000000 DUP2 MSTORE PUSH1 0x4 ADD PUSH2 0xA4E SWAP1 PUSH2 0x1EFF JUMP JUMPDEST PUSH1 0x40 MLOAD DUP1 SWAP2 SUB SWAP1 REVERT JUMPDEST PUSH1 0x1 PUSH1 0x0 SWAP1 SLOAD SWAP1 PUSH2 0x100 EXP SWAP1 DIV PUSH20 0xFFFFFFFFFFFFFFFFFFFFFFFFFFFFFFFFFFFFFFFF AND PUSH20 0xFFFFFFFFFFFFFFFFFFFFFFFFFFFFFFFFFFFFFFFF AND SELFDESTRUCT JUMPDEST PUSH1 0x3 DUP1 PUSH1 0x4 DUP2 GT ISZERO PUSH2 0xAA7 JUMPI PUSH2 0xAA6 PUSH2 0x242C JUMP JUMPDEST JUMPDEST PUSH1 0x9 PUSH1 0x0 SWAP1 SLOAD SWAP1 PUSH2 0x100 EXP SWAP1 DIV PUSH1 0xFF AND PUSH1 0x4 DUP2 GT ISZERO PUSH2 0xAC9 JUMPI PUSH2 0xAC8 PUSH2 0x242C JUMP JUMPDEST JUMPDEST EQ PUSH2 0xB09 JUMPI PUSH1 0x40 MLOAD PUSH32 0x8C379A000000000000000000000000000000000000000000000000000000000 DUP2 MSTORE PUSH1 0x4 ADD PUSH2 0xB00 SWAP1 PUSH2 0x1EFF JUMP JUMPDEST PUSH1 0x40 MLOAD DUP1 SWAP2 SUB SWAP1 REVERT JUMPDEST PUSH1 0x7 SLOAD NUMBER GT ISZERO PUSH2 0xB20 JUMPI PUSH2 0xB1B PUSH2 0x1085 JUMP JUMPDEST PUSH2 0xB82 JUMP JUMPDEST PUSH1 0x6 SLOAD NUMBER LT ISZERO DUP1 ISZERO PUSH2 0xB34 JUMPI POP PUSH1 0x7 SLOAD NUMBER GT ISZERO JUMPDEST PUSH2 0xB73 JUMPI PUSH1 0x40 MLOAD PUSH32 0x8C379A000000000000000000000000000000000000000000000000000000000 DUP2 MSTORE PUSH1 0x4 ADD PUSH2 0xB6A SWAP1 PUSH2 0x1EDF JUMP JUMPDEST PUSH1 0x40 MLOAD DUP1 SWAP2 SUB SWAP1 REVERT JUMPDEST PUSH1 0x5 SLOAD CALLVALUE EQ PUSH2 0xB81 JUMPI PUSH1 0x0 DUP1 REVERT JUMPDEST JUMPDEST POP JUMP JUMPDEST PUSH1 0x8 SLOAD DUP2 JUMP JUMPDEST PUSH1 0x0 DUP1 PUSH1 0x4 DUP2 GT ISZERO PUSH2 0xBA0 JUMPI PUSH2 0xB9F PUSH2 0x242C JUMP JUMPDEST JUMPDEST PUSH1 0x9 PUSH1 0x0 SWAP1 SLOAD SWAP1 PUSH2 0x100 EXP SWAP1 DIV PUSH1 0xFF AND PUSH1 0x4 DUP2 GT ISZERO PUSH2 0xBC2 JUMPI PUSH2 0xBC1 PUSH2 0x242C JUMP JUMPDEST JUMPDEST EQ PUSH2 0xC02 JUMPI PUSH1 0x40 MLOAD PUSH32 0x8C379A000000000000000000000000000000000000000000000000000000000 DUP2 MSTORE PUSH1 0x4 ADD PUSH2 0xBF9 SWAP1 PUSH2 0x1EFF JUMP JUMPDEST PUSH1 0x40 MLOAD DUP1 SWAP2 SUB SWAP1 REVERT JUMPDEST PUSH1 0x1 PUSH1 0x9 PUSH1 0x0 PUSH2 0x100 EXP DUP2 SLOAD DUP2 PUSH1 0xFF MUL NOT AND SWAP1 DUP4 PUSH1 0x4 DUP2 GT ISZERO PUSH2 0xC28 JUMPI PUSH2 0xC27 PUSH2 0x242C JUMP JUMPDEST JUMPDEST MUL OR SWAP1 SSTORE POP PUSH1 0x0 JUMPDEST PUSH1 0xA DUP1 SLOAD SWAP1 POP DUP2 LT ISZERO PUSH2 0xC69 JUMPI PUSH1 0x0 PUSH1 0xC PUSH1 0x0 DUP4 DUP2 MSTORE PUSH1 0x20 ADD SWAP1 DUP2 MSTORE PUSH1 0x20 ADD PUSH1 0x0 KECCAK256 DUP2 SWAP1 SSTORE POP DUP1 DUP1 PUSH2 0xC61 SWAP1 PUSH2 0x2385 JUMP JUMPDEST SWAP2 POP POP PUSH2 0xC30 JUMP JUMPDEST POP POP JUMP JUMPDEST PUSH1 0x2 PUSH1 0x14 SWAP1 SLOAD SWAP1 PUSH2 0x100 EXP SWAP1 DIV PUSH1 0xFF AND DUP2 JUMP JUMPDEST CALLER PUSH1 0x0 DUP1 PUSH2 0x100 EXP DUP2 SLOAD DUP2 PUSH20 0xFFFFFFFFFFFFFFFFFFFFFFFFFFFFFFFFFFFFFFFF MUL NOT AND SWAP1 DUP4 PUSH20 0xFFFFFFFFFFFFFFFFFFFFFFFFFFFFFFFFFFFFFFFF AND MUL OR SWAP1 SSTORE POP DUP5 PUSH1 0x1 PUSH1 0x0 PUSH2 0x100 EXP DUP2 SLOAD DUP2 PUSH20 0xFFFFFFFFFFFFFFFFFFFFFFFFFFFFFFFFFFFFFFFF MUL NOT AND SWAP1 DUP4 PUSH20 0xFFFFFFFFFFFFFFFFFFFFFFFFFFFFFFFFFFFFFFFF AND MUL OR SWAP1 SSTORE POP DUP4 PUSH1 0x4 DUP2 SWAP1 SSTORE POP DUP3 PUSH1 0x3 DUP2 SWAP1 SSTORE POP PUSH2 0xD18 DUP4 PUSH2 0x129D JUMP JUMPDEST PUSH1 0x6 DUP2 SWAP1 SSTORE POP PUSH2 0xD33 PUSH1 0x1E DUP5 PUSH2 0xD2E SWAP2 SWAP1 PUSH2 0x20C3 JUMP JUMPDEST PUSH2 0x129D JUMP JUMPDEST PUSH1 0x7 DUP2 SWAP1 SSTORE POP DUP2 PUSH1 0x8 DUP2 SWAP1 SSTORE POP DUP1 PUSH1 0x5 DUP2 SWAP1 SSTORE POP PUSH2 0xD4F PUSH2 0x12C4 JUMP JUMPDEST POP POP POP POP POP JUMP JUMPDEST PUSH1 0x5 SLOAD DUP2 JUMP JUMPDEST PUSH1 0x2 PUSH1 0x0 SWAP1 SLOAD SWAP1 PUSH2 0x100 EXP SWAP1 DIV PUSH20 0xFFFFFFFFFFFFFFFFFFFFFFFFFFFFFFFFFFFFFFFF AND DUP2 JUMP JUMPDEST PUSH1 0x9 PUSH1 0x0 SWAP1 SLOAD SWAP1 PUSH2 0x100 EXP SWAP1 DIV PUSH1 0xFF AND DUP2 JUMP JUMPDEST PUSH1 0x3 DUP1 PUSH1 0x4 DUP2 GT ISZERO PUSH2 0xDAA JUMPI PUSH2 0xDA9 PUSH2 0x242C JUMP JUMPDEST JUMPDEST PUSH1 0x9 PUSH1 0x0 SWAP1 SLOAD SWAP1 PUSH2 0x100 EXP SWAP1 DIV PUSH1 0xFF AND PUSH1 0x4 DUP2 GT ISZERO PUSH2 0xDCC JUMPI PUSH2 0xDCB PUSH2 0x242C JUMP JUMPDEST JUMPDEST EQ PUSH2 0xE0C JUMPI PUSH1 0x40 MLOAD PUSH32 0x8C379A000000000000000000000000000000000000000000000000000000000 DUP2 MSTORE PUSH1 0x4 ADD PUSH2 0xE03 SWAP1 PUSH2 0x1EFF JUMP JUMPDEST PUSH1 0x40 MLOAD DUP1 SWAP2 SUB SWAP1 REVERT JUMPDEST PUSH1 0x2 PUSH1 0x9 PUSH1 0x0 PUSH2 0x100 EXP DUP2 SLOAD DUP2 PUSH1 0xFF MUL NOT AND SWAP1 DUP4 PUSH1 0x4 DUP2 GT ISZERO PUSH2 0xE32 JUMPI PUSH2 0xE31 PUSH2 0x242C JUMP JUMPDEST JUMPDEST MUL OR SWAP1 SSTORE POP POP JUMP JUMPDEST PUSH1 0x0 DUP1 SLOAD SWAP1 PUSH2 0x100 EXP SWAP1 DIV PUSH20 0xFFFFFFFFFFFFFFFFFFFFFFFFFFFFFFFFFFFFFFFF AND DUP2 JUMP JUMPDEST PUSH1 0x0 DUP1 PUSH1 0x4 DUP2 GT ISZERO PUSH2 0xE73 JUMPI PUSH2 0xE72 PUSH2 0x242C JUMP JUMPDEST JUMPDEST PUSH1 0x9 PUSH1 0x0 SWAP1 SLOAD SWAP1 PUSH2 0x100 EXP SWAP1 DIV PUSH1 0xFF AND PUSH1 0x4 DUP2 GT ISZERO PUSH2 0xE95 JUMPI PUSH2 0xE94 PUSH2 0x242C JUMP JUMPDEST JUMPDEST EQ PUSH2 0xED5 JUMPI PUSH1 0x40 MLOAD PUSH32 0x8C379A000000000000000000000000000000000000000000000000000000000 DUP2 MSTORE PUSH1 0x4 ADD PUSH2 0xECC SWAP1 PUSH2 0x1EFF JUMP JUMPDEST PUSH1 0x40 MLOAD DUP1 SWAP2 SUB SWAP1 REVERT JUMPDEST PUSH1 0x0 JUMPDEST PUSH1 0x8 DUP2 LT ISZERO PUSH2 0xFFF JUMPI PUSH1 0x0 DUP6 DUP3 PUSH1 0x8 DUP2 LT PUSH2 0xEF6 JUMPI PUSH2 0xEF5 PUSH2 0x248A JUMP JUMPDEST JUMPDEST PUSH1 0x20 MUL ADD MLOAD MLOAD EQ ISZERO PUSH2 0xF10 JUMPI PUSH2 0xF0A PUSH2 0xB8B JUMP JUMPDEST POP PUSH2 0x1001 JUMP JUMPDEST PUSH1 0xA PUSH1 0x40 MLOAD DUP1 PUSH1 0x60 ADD PUSH1 0x40 MSTORE DUP1 DUP7 DUP5 PUSH1 0x8 DUP2 LT PUSH2 0xF30 JUMPI PUSH2 0xF2F PUSH2 0x248A JUMP JUMPDEST JUMPDEST PUSH1 0x20 MUL ADD MLOAD DUP2 MSTORE PUSH1 0x20 ADD PUSH1 0xB DUP7 DUP6 PUSH1 0x8 DUP2 LT PUSH2 0xF4F JUMPI PUSH2 0xF4E PUSH2 0x248A JUMP JUMPDEST JUMPDEST PUSH1 0x20 MUL ADD MLOAD PUSH1 0x40 MLOAD PUSH2 0xF61 SWAP2 SWAP1 PUSH2 0x1CA6 JUMP JUMPDEST SWAP1 DUP2 MSTORE PUSH1 0x20 ADD PUSH1 0x40 MLOAD DUP1 SWAP2 SUB SWAP1 KECCAK256 SLOAD DUP2 MSTORE PUSH1 0x20 ADD DUP8 DUP5 PUSH1 0x8 DUP2 LT PUSH2 0xF88 JUMPI PUSH2 0xF87 PUSH2 0x248A JUMP JUMPDEST JUMPDEST PUSH1 0x20 MUL ADD MLOAD DUP2 MSTORE POP SWAP1 DUP1 PUSH1 0x1 DUP2 SLOAD ADD DUP1 DUP3 SSTORE DUP1 SWAP2 POP POP PUSH1 0x1 SWAP1 SUB SWAP1 PUSH1 0x0 MSTORE PUSH1 0x20 PUSH1 0x0 KECCAK256 SWAP1 PUSH1 0x3 MUL ADD PUSH1 0x0 SWAP1 SWAP2 SWAP1 SWAP2 SWAP1 SWAP2 POP PUSH1 0x0 DUP3 ADD MLOAD DUP2 PUSH1 0x0 ADD SSTORE PUSH1 0x20 DUP3 ADD MLOAD DUP2 PUSH1 0x1 ADD SSTORE PUSH1 0x40 DUP3 ADD MLOAD DUP2 PUSH1 0x2 ADD SWAP1 DUP1 MLOAD SWAP1 PUSH1 0x20 ADD SWAP1 PUSH2 0xFE9 SWAP3 SWAP2 SWAP1 PUSH2 0x1584 JUMP JUMPDEST POP POP POP DUP1 DUP1 PUSH2 0xFF7 SWAP1 PUSH2 0x2385 JUMP JUMPDEST SWAP2 POP POP PUSH2 0xED8 JUMP JUMPDEST POP JUMPDEST POP POP POP POP JUMP JUMPDEST PUSH1 0x0 DUP1 PUSH1 0x0 DUP1 PUSH1 0x0 DUP1 PUSH1 0x0 DUP1 PUSH1 0x1 PUSH1 0x0 SWAP1 SLOAD SWAP1 PUSH2 0x100 EXP SWAP1 DIV PUSH20 0xFFFFFFFFFFFFFFFFFFFFFFFFFFFFFFFFFFFFFFFF AND PUSH1 0x2 PUSH1 0x0 SWAP1 SLOAD SWAP1 PUSH2 0x100 EXP SWAP1 DIV PUSH20 0xFFFFFFFFFFFFFFFFFFFFFFFFFFFFFFFFFFFFFFFF AND PUSH1 0x3 SLOAD PUSH1 0x4 SLOAD PUSH1 0x5 SLOAD PUSH1 0x6 SLOAD PUSH1 0x7 SLOAD PUSH1 0x8 SLOAD SWAP8 POP SWAP8 POP SWAP8 POP SWAP8 POP SWAP8 POP SWAP8 POP SWAP8 POP SWAP8 POP SWAP1 SWAP2 SWAP3 SWAP4 SWAP5 SWAP6 SWAP7 SWAP8 JUMP JUMPDEST PUSH1 0x3 DUP1 PUSH1 0x4 DUP2 GT ISZERO PUSH2 0x109A JUMPI PUSH2 0x1099 PUSH2 0x242C JUMP JUMPDEST JUMPDEST PUSH1 0x9 PUSH1 0x0 SWAP1 SLOAD SWAP1 PUSH2 0x100 EXP SWAP1 DIV PUSH1 0xFF AND PUSH1 0x4 DUP2 GT ISZERO PUSH2 0x10BC JUMPI PUSH2 0x10BB PUSH2 0x242C JUMP JUMPDEST JUMPDEST EQ PUSH2 0x10FC JUMPI PUSH1 0x40 MLOAD PUSH32 0x8C379A000000000000000000000000000000000000000000000000000000000 DUP2 MSTORE PUSH1 0x4 ADD PUSH2 0x10F3 SWAP1 PUSH2 0x1EFF JUMP JUMPDEST PUSH1 0x40 MLOAD DUP1 SWAP2 SUB SWAP1 REVERT JUMPDEST PUSH1 0x0 JUMPDEST PUSH1 0xA DUP1 SLOAD SWAP1 POP DUP2 LT ISZERO PUSH2 0x1218 JUMPI PUSH1 0x0 PUSH1 0xA DUP3 DUP2 SLOAD DUP2 LT PUSH2 0x1122 JUMPI PUSH2 0x1121 PUSH2 0x248A JUMP JUMPDEST JUMPDEST SWAP1 PUSH1 0x0 MSTORE PUSH1 0x20 PUSH1 0x0 KECCAK256 SWAP1 PUSH1 0x3 MUL ADD PUSH1 0x1 ADD SLOAD SWAP1 POP PUSH1 0x0 PUSH1 0xA DUP4 DUP2 SLOAD DUP2 LT PUSH2 0x114C JUMPI PUSH2 0x114B PUSH2 0x248A JUMP JUMPDEST JUMPDEST SWAP1 PUSH1 0x0 MSTORE PUSH1 0x20 PUSH1 0x0 KECCAK256 SWAP1 PUSH1 0x3 MUL ADD PUSH1 0x0 ADD SLOAD SWAP1 POP PUSH1 0x0 PUSH1 0xD SLOAD PUSH1 0xC PUSH1 0x0 DUP7 DUP2 MSTORE PUSH1 0x20 ADD SWAP1 DUP2 MSTORE PUSH1 0x20 ADD PUSH1 0x0 KECCAK256 SLOAD PUSH2 0x1183 SWAP2 SWAP1 PUSH2 0x2119 JUMP JUMPDEST SWAP1 POP PUSH2 0x1190 DUP4 DUP3 DUP5 PUSH2 0x1392 JUMP JUMPDEST PUSH2 0x1202 JUMPI PUSH2 0x119C PUSH2 0x141C JUMP JUMPDEST CALLER PUSH20 0xFFFFFFFFFFFFFFFFFFFFFFFFFFFFFFFFFFFFFFFF AND PUSH32 0xA84226BF2D14BDE3FAC454F52EAEAB63AAEB1934DA88F9263DD4FF7DD12ACF71 PUSH1 0x9 PUSH1 0x1 SWAP1 SLOAD SWAP1 PUSH2 0x100 EXP SWAP1 DIV PUSH1 0xFF AND PUSH1 0x40 MLOAD PUSH2 0x11F1 SWAP2 SWAP1 PUSH2 0x1E0A JUMP JUMPDEST PUSH1 0x40 MLOAD DUP1 SWAP2 SUB SWAP1 LOG2 POP POP POP POP PUSH2 0x129A JUMP JUMPDEST POP POP POP DUP1 DUP1 PUSH2 0x1210 SWAP1 PUSH2 0x2385 JUMP JUMPDEST SWAP2 POP POP PUSH2 0x10FF JUMP JUMPDEST POP PUSH1 0x1 PUSH1 0x9 PUSH1 0x1 PUSH2 0x100 EXP DUP2 SLOAD DUP2 PUSH1 0xFF MUL NOT AND SWAP1 DUP4 ISZERO ISZERO MUL OR SWAP1 SSTORE POP CALLER PUSH20 0xFFFFFFFFFFFFFFFFFFFFFFFFFFFFFFFFFFFFFFFF AND PUSH32 0xA84226BF2D14BDE3FAC454F52EAEAB63AAEB1934DA88F9263DD4FF7DD12ACF71 PUSH1 0x9 PUSH1 0x1 SWAP1 SLOAD SWAP1 PUSH2 0x100 EXP SWAP1 DIV PUSH1 0xFF AND PUSH1 0x40 MLOAD PUSH2 0x1289 SWAP2 SWAP1 PUSH2 0x1E38 JUMP JUMPDEST PUSH1 0x40 MLOAD DUP1 SWAP2 SUB SWAP1 LOG2 PUSH2 0x1299 PUSH2 0x1491 JUMP JUMPDEST JUMPDEST POP JUMP JUMPDEST PUSH1 0x0 DUP1 PUSH2 0x1900 DUP4 PUSH2 0x12AE SWAP2 SWAP1 PUSH2 0x2183 JUMP JUMPDEST SWAP1 POP DUP1 NUMBER PUSH2 0x12BC SWAP2 SWAP1 PUSH2 0x20C3 JUMP JUMPDEST SWAP2 POP POP SWAP2 SWAP1 POP JUMP JUMPDEST PUSH1 0x1 PUSH1 0xB PUSH1 0x40 MLOAD PUSH2 0x12D4 SWAP1 PUSH2 0x1D26 JUMP JUMPDEST SWAP1 DUP2 MSTORE PUSH1 0x20 ADD PUSH1 0x40 MLOAD DUP1 SWAP2 SUB SWAP1 KECCAK256 DUP2 SWAP1 SSTORE POP PUSH1 0x2 PUSH1 0xB PUSH1 0x40 MLOAD PUSH2 0x12F6 SWAP1 PUSH2 0x1CBD JUMP JUMPDEST SWAP1 DUP2 MSTORE PUSH1 0x20 ADD PUSH1 0x40 MLOAD DUP1 SWAP2 SUB SWAP1 KECCAK256 DUP2 SWAP1 SSTORE POP PUSH1 0x3 PUSH1 0xB PUSH1 0x40 MLOAD PUSH2 0x1318 SWAP1 PUSH2 0x1CFC JUMP JUMPDEST SWAP1 DUP2 MSTORE PUSH1 0x20 ADD PUSH1 0x40 MLOAD DUP1 SWAP2 SUB SWAP1 KECCAK256 DUP2 SWAP1 SSTORE POP PUSH1 0x4 PUSH1 0xB PUSH1 0x40 MLOAD PUSH2 0x133A SWAP1 PUSH2 0x1CD2 JUMP JUMPDEST SWAP1 DUP2 MSTORE PUSH1 0x20 ADD PUSH1 0x40 MLOAD DUP1 SWAP2 SUB SWAP1 KECCAK256 DUP2 SWAP1 SSTORE POP PUSH1 0x5 PUSH1 0xB PUSH1 0x40 MLOAD PUSH2 0x135C SWAP1 PUSH2 0x1CE7 JUMP JUMPDEST SWAP1 DUP2 MSTORE PUSH1 0x20 ADD PUSH1 0x40 MLOAD DUP1 SWAP2 SUB SWAP1 KECCAK256 DUP2 SWAP1 SSTORE POP PUSH1 0x6 PUSH1 0xB PUSH1 0x40 MLOAD PUSH2 0x137E SWAP1 PUSH2 0x1D11 JUMP JUMPDEST SWAP1 DUP2 MSTORE PUSH1 0x20 ADD PUSH1 0x40 MLOAD DUP1 SWAP2 SUB SWAP1 KECCAK256 DUP2 SWAP1 SSTORE POP JUMP JUMPDEST PUSH1 0x0 PUSH32 0xFFFFFFFFFFFFFFFFFFFFFFFFFFFFFFFFFFFFFFFFFFFFFFFFFFFFFFFFFFFFFFFF DUP5 EQ PUSH2 0x1410 JUMPI PUSH1 0x1 DUP1 DUP6 AND EQ ISZERO PUSH2 0x13D7 JUMPI DUP2 DUP4 SGT PUSH2 0x13D6 JUMPI PUSH1 0x0 SWAP1 POP PUSH2 0x1415 JUMP JUMPDEST JUMPDEST PUSH1 0x2 DUP1 DUP6 AND EQ ISZERO PUSH2 0x13F3 JUMPI DUP2 DUP4 EQ PUSH2 0x13F2 JUMPI PUSH1 0x0 SWAP1 POP PUSH2 0x1415 JUMP JUMPDEST JUMPDEST PUSH1 0x4 DUP1 DUP6 AND EQ ISZERO PUSH2 0x140F JUMPI DUP2 DUP4 SLT PUSH2 0x140E JUMPI PUSH1 0x0 SWAP1 POP PUSH2 0x1415 JUMP JUMPDEST JUMPDEST JUMPDEST PUSH1 0x1 SWAP1 POP JUMPDEST SWAP4 SWAP3 POP POP POP JUMP JUMPDEST PUSH1 0x1 PUSH1 0x0 SWAP1 SLOAD SWAP1 PUSH2 0x100 EXP SWAP1 DIV PUSH20 0xFFFFFFFFFFFFFFFFFFFFFFFFFFFFFFFFFFFFFFFF AND PUSH20 0xFFFFFFFFFFFFFFFFFFFFFFFFFFFFFFFFFFFFFFFF AND PUSH2 0x8FC PUSH1 0x5 SLOAD SWAP1 DUP2 ISZERO MUL SWAP1 PUSH1 0x40 MLOAD PUSH1 0x0 PUSH1 0x40 MLOAD DUP1 DUP4 SUB DUP2 DUP6 DUP9 DUP9 CALL SWAP4 POP POP POP POP ISZERO DUP1 ISZERO PUSH2 0x1486 JUMPI RETURNDATASIZE PUSH1 0x0 DUP1 RETURNDATACOPY RETURNDATASIZE PUSH1 0x0 REVERT JUMPDEST POP PUSH2 0x148F PUSH2 0x1506 JUMP JUMPDEST JUMP JUMPDEST PUSH1 0x2 PUSH1 0x0 SWAP1 SLOAD SWAP1 PUSH2 0x100 EXP SWAP1 DIV PUSH20 0xFFFFFFFFFFFFFFFFFFFFFFFFFFFFFFFFFFFFFFFF AND PUSH20 0xFFFFFFFFFFFFFFFFFFFFFFFFFFFFFFFFFFFFFFFF AND PUSH2 0x8FC PUSH1 0x5 SLOAD SWAP1 DUP2 ISZERO MUL SWAP1 PUSH1 0x40 MLOAD PUSH1 0x0 PUSH1 0x40 MLOAD DUP1 DUP4 SUB DUP2 DUP6 DUP9 DUP9 CALL SWAP4 POP POP POP POP ISZERO DUP1 ISZERO PUSH2 0x14FB JUMPI RETURNDATASIZE PUSH1 0x0 DUP1 RETURNDATACOPY RETURNDATASIZE PUSH1 0x0 REVERT JUMPDEST POP PUSH2 0x1504 PUSH2 0x1506 JUMP JUMPDEST JUMP JUMPDEST PUSH1 0x4 SLOAD NUMBER LT ISZERO PUSH2 0x1557 JUMPI PUSH1 0x0 PUSH1 0x9 PUSH1 0x1 PUSH2 0x100 EXP DUP2 SLOAD DUP2 PUSH1 0xFF MUL NOT AND SWAP1 DUP4 ISZERO ISZERO MUL OR SWAP1 SSTORE POP PUSH1 0x7 SLOAD PUSH1 0x6 DUP2 SWAP1 SSTORE POP PUSH2 0x1900 PUSH1 0x1E PUSH2 0x1543 SWAP2 SWAP1 PUSH2 0x21B4 JUMP JUMPDEST PUSH1 0x7 SLOAD PUSH2 0x1550 SWAP2 SWAP1 PUSH2 0x20C3 JUMP JUMPDEST PUSH1 0x7 DUP2 SWAP1 SSTORE POP JUMPDEST PUSH1 0x4 PUSH1 0x9 PUSH1 0x0 PUSH2 0x100 EXP DUP2 SLOAD DUP2 PUSH1 0xFF MUL NOT AND SWAP1 DUP4 PUSH1 0x4 DUP2 GT ISZERO PUSH2 0x157D JUMPI PUSH2 0x157C PUSH2 0x242C JUMP JUMPDEST JUMPDEST MUL OR SWAP1 SSTORE POP JUMP JUMPDEST DUP3 DUP1 SLOAD PUSH2 0x1590 SWAP1 PUSH2 0x22D9 JUMP JUMPDEST SWAP1 PUSH1 0x0 MSTORE PUSH1 0x20 PUSH1 0x0 KECCAK256 SWAP1 PUSH1 0x1F ADD PUSH1 0x20 SWAP1 DIV DUP2 ADD SWAP3 DUP3 PUSH2 0x15B2 JUMPI PUSH1 0x0 DUP6 SSTORE PUSH2 0x15F9 JUMP JUMPDEST DUP3 PUSH1 0x1F LT PUSH2 0x15CB JUMPI DUP1 MLOAD PUSH1 0xFF NOT AND DUP4 DUP1 ADD OR DUP6 SSTORE PUSH2 0x15F9 JUMP JUMPDEST DUP3 DUP1 ADD PUSH1 0x1 ADD DUP6 SSTORE DUP3 ISZERO PUSH2 0x15F9 JUMPI SWAP2 DUP3 ADD JUMPDEST DUP3 DUP2 GT ISZERO PUSH2 0x15F8 JUMPI DUP3 MLOAD DUP3 SSTORE SWAP2 PUSH1 0x20 ADD SWAP2 SWAP1 PUSH1 0x1 ADD SWAP1 PUSH2 0x15DD JUMP JUMPDEST JUMPDEST POP SWAP1 POP PUSH2 0x1606 SWAP2 SWAP1 PUSH2 0x160A JUMP JUMPDEST POP SWAP1 JUMP JUMPDEST JUMPDEST DUP1 DUP3 GT ISZERO PUSH2 0x1623 JUMPI PUSH1 0x0 DUP2 PUSH1 0x0 SWAP1 SSTORE POP PUSH1 0x1 ADD PUSH2 0x160B JUMP JUMPDEST POP SWAP1 JUMP JUMPDEST PUSH1 0x0 PUSH2 0x163A PUSH2 0x1635 DUP5 PUSH2 0x1F5F JUMP JUMPDEST PUSH2 0x1F3A JUMP JUMPDEST SWAP1 POP DUP1 DUP3 DUP6 PUSH1 0x20 DUP7 MUL DUP3 ADD GT ISZERO PUSH2 0x1654 JUMPI PUSH2 0x1653 PUSH2 0x24ED JUMP JUMPDEST JUMPDEST PUSH1 0x0 JUMPDEST DUP6 DUP2 LT ISZERO PUSH2 0x1684 JUMPI DUP2 PUSH2 0x166A DUP9 DUP3 PUSH2 0x185E JUMP JUMPDEST DUP5 MSTORE PUSH1 0x20 DUP5 ADD SWAP4 POP PUSH1 0x20 DUP4 ADD SWAP3 POP POP PUSH1 0x1 DUP2 ADD SWAP1 POP PUSH2 0x1657 JUMP JUMPDEST POP POP POP SWAP4 SWAP3 POP POP POP JUMP JUMPDEST PUSH1 0x0 PUSH2 0x16A1 PUSH2 0x169C DUP5 PUSH2 0x1F85 JUMP JUMPDEST PUSH2 0x1F3A JUMP JUMPDEST SWAP1 POP DUP1 DUP4 DUP3 MSTORE PUSH1 0x20 DUP3 ADD SWAP1 POP DUP3 DUP6 PUSH1 0x20 DUP7 MUL DUP3 ADD GT ISZERO PUSH2 0x16C4 JUMPI PUSH2 0x16C3 PUSH2 0x24ED JUMP JUMPDEST JUMPDEST PUSH1 0x0 JUMPDEST DUP6 DUP2 LT ISZERO PUSH2 0x16F4 JUMPI DUP2 PUSH2 0x16DA DUP9 DUP3 PUSH2 0x185E JUMP JUMPDEST DUP5 MSTORE PUSH1 0x20 DUP5 ADD SWAP4 POP PUSH1 0x20 DUP4 ADD SWAP3 POP POP PUSH1 0x1 DUP2 ADD SWAP1 POP PUSH2 0x16C7 JUMP JUMPDEST POP POP POP SWAP4 SWAP3 POP POP POP JUMP JUMPDEST PUSH1 0x0 PUSH2 0x1711 PUSH2 0x170C DUP5 PUSH2 0x1FB1 JUMP JUMPDEST PUSH2 0x1F3A JUMP JUMPDEST SWAP1 POP DUP1 DUP3 DUP6 PUSH1 0x20 DUP7 MUL DUP3 ADD GT ISZERO PUSH2 0x172B JUMPI PUSH2 0x172A PUSH2 0x24ED JUMP JUMPDEST JUMPDEST PUSH1 0x0 JUMPDEST DUP6 DUP2 LT ISZERO PUSH2 0x1779 JUMPI DUP2 CALLDATALOAD PUSH8 0xFFFFFFFFFFFFFFFF DUP2 GT ISZERO PUSH2 0x1751 JUMPI PUSH2 0x1750 PUSH2 0x24E8 JUMP JUMPDEST JUMPDEST DUP1 DUP7 ADD PUSH2 0x175E DUP10 DUP3 PUSH2 0x1873 JUMP JUMPDEST DUP6 MSTORE PUSH1 0x20 DUP6 ADD SWAP5 POP PUSH1 0x20 DUP5 ADD SWAP4 POP POP POP PUSH1 0x1 DUP2 ADD SWAP1 POP PUSH2 0x172E JUMP JUMPDEST POP POP POP SWAP4 SWAP3 POP POP POP JUMP JUMPDEST PUSH1 0x0 PUSH2 0x1796 PUSH2 0x1791 DUP5 PUSH2 0x1FD7 JUMP JUMPDEST PUSH2 0x1F3A JUMP JUMPDEST SWAP1 POP DUP3 DUP2 MSTORE PUSH1 0x20 DUP2 ADD DUP5 DUP5 DUP5 ADD GT ISZERO PUSH2 0x17B2 JUMPI PUSH2 0x17B1 PUSH2 0x24F2 JUMP JUMPDEST JUMPDEST PUSH2 0x17BD DUP5 DUP3 DUP6 PUSH2 0x2297 JUMP JUMPDEST POP SWAP4 SWAP3 POP POP POP JUMP JUMPDEST PUSH1 0x0 DUP2 CALLDATALOAD SWAP1 POP PUSH2 0x17D4 DUP2 PUSH2 0x2735 JUMP JUMPDEST SWAP3 SWAP2 POP POP JUMP JUMPDEST PUSH1 0x0 DUP3 PUSH1 0x1F DUP4 ADD SLT PUSH2 0x17EF JUMPI PUSH2 0x17EE PUSH2 0x24E8 JUMP JUMPDEST JUMPDEST PUSH1 0x8 PUSH2 0x17FC DUP5 DUP3 DUP6 PUSH2 0x1627 JUMP JUMPDEST SWAP2 POP POP SWAP3 SWAP2 POP POP JUMP JUMPDEST PUSH1 0x0 DUP3 PUSH1 0x1F DUP4 ADD SLT PUSH2 0x181A JUMPI PUSH2 0x1819 PUSH2 0x24E8 JUMP JUMPDEST JUMPDEST DUP2 CALLDATALOAD PUSH2 0x182A DUP5 DUP3 PUSH1 0x20 DUP7 ADD PUSH2 0x168E JUMP JUMPDEST SWAP2 POP POP SWAP3 SWAP2 POP POP JUMP JUMPDEST PUSH1 0x0 DUP3 PUSH1 0x1F DUP4 ADD SLT PUSH2 0x1848 JUMPI PUSH2 0x1847 PUSH2 0x24E8 JUMP JUMPDEST JUMPDEST PUSH1 0x8 PUSH2 0x1855 DUP5 DUP3 DUP6 PUSH2 0x16FE JUMP JUMPDEST SWAP2 POP POP SWAP3 SWAP2 POP POP JUMP JUMPDEST PUSH1 0x0 DUP2 CALLDATALOAD SWAP1 POP PUSH2 0x186D DUP2 PUSH2 0x274C JUMP JUMPDEST SWAP3 SWAP2 POP POP JUMP JUMPDEST PUSH1 0x0 DUP3 PUSH1 0x1F DUP4 ADD SLT PUSH2 0x1888 JUMPI PUSH2 0x1887 PUSH2 0x24E8 JUMP JUMPDEST JUMPDEST DUP2 CALLDATALOAD PUSH2 0x1898 DUP5 DUP3 PUSH1 0x20 DUP7 ADD PUSH2 0x1783 JUMP JUMPDEST SWAP2 POP POP SWAP3 SWAP2 POP POP JUMP JUMPDEST PUSH1 0x0 DUP2 CALLDATALOAD SWAP1 POP PUSH2 0x18B0 DUP2 PUSH2 0x2763 JUMP JUMPDEST SWAP3 SWAP2 POP POP JUMP JUMPDEST PUSH1 0x0 PUSH1 0x20 DUP3 DUP5 SUB SLT ISZERO PUSH2 0x18CC JUMPI PUSH2 0x18CB PUSH2 0x24FC JUMP JUMPDEST JUMPDEST PUSH1 0x0 PUSH2 0x18DA DUP5 DUP3 DUP6 ADD PUSH2 0x17C5 JUMP JUMPDEST SWAP2 POP POP SWAP3 SWAP2 POP POP JUMP JUMPDEST PUSH1 0x0 DUP1 PUSH1 0x0 DUP1 PUSH1 0x0 PUSH1 0xA0 DUP7 DUP9 SUB SLT ISZERO PUSH2 0x18FF JUMPI PUSH2 0x18FE PUSH2 0x24FC JUMP JUMPDEST JUMPDEST PUSH1 0x0 PUSH2 0x190D DUP9 DUP3 DUP10 ADD PUSH2 0x17C5 JUMP JUMPDEST SWAP6 POP POP PUSH1 0x20 PUSH2 0x191E DUP9 DUP3 DUP10 ADD PUSH2 0x18A1 JUMP JUMPDEST SWAP5 POP POP PUSH1 0x40 PUSH2 0x192F DUP9 DUP3 DUP10 ADD PUSH2 0x18A1 JUMP JUMPDEST SWAP4 POP POP PUSH1 0x60 PUSH2 0x1940 DUP9 DUP3 DUP10 ADD PUSH2 0x18A1 JUMP JUMPDEST SWAP3 POP POP PUSH1 0x80 PUSH2 0x1951 DUP9 DUP3 DUP10 ADD PUSH2 0x18A1 JUMP JUMPDEST SWAP2 POP POP SWAP3 SWAP6 POP SWAP3 SWAP6 SWAP1 SWAP4 POP JUMP JUMPDEST PUSH1 0x0 PUSH1 0x20 DUP3 DUP5 SUB SLT ISZERO PUSH2 0x1974 JUMPI PUSH2 0x1973 PUSH2 0x24FC JUMP JUMPDEST JUMPDEST PUSH1 0x0 DUP3 ADD CALLDATALOAD PUSH8 0xFFFFFFFFFFFFFFFF DUP2 GT ISZERO PUSH2 0x1992 JUMPI PUSH2 0x1991 PUSH2 0x24F7 JUMP JUMPDEST JUMPDEST PUSH2 0x199E DUP5 DUP3 DUP6 ADD PUSH2 0x1805 JUMP JUMPDEST SWAP2 POP POP SWAP3 SWAP2 POP POP JUMP JUMPDEST PUSH1 0x0 DUP1 PUSH1 0x0 PUSH2 0x140 DUP5 DUP7 SUB SLT ISZERO PUSH2 0x19C1 JUMPI PUSH2 0x19C0 PUSH2 0x24FC JUMP JUMPDEST JUMPDEST PUSH1 0x0 DUP5 ADD CALLDATALOAD PUSH8 0xFFFFFFFFFFFFFFFF DUP2 GT ISZERO PUSH2 0x19DF JUMPI PUSH2 0x19DE PUSH2 0x24F7 JUMP JUMPDEST JUMPDEST PUSH2 0x19EB DUP7 DUP3 DUP8 ADD PUSH2 0x1833 JUMP JUMPDEST SWAP4 POP POP PUSH1 0x20 PUSH2 0x19FC DUP7 DUP3 DUP8 ADD PUSH2 0x17DA JUMP JUMPDEST SWAP3 POP POP PUSH2 0x120 DUP5 ADD CALLDATALOAD PUSH8 0xFFFFFFFFFFFFFFFF DUP2 GT ISZERO PUSH2 0x1A1E JUMPI PUSH2 0x1A1D PUSH2 0x24F7 JUMP JUMPDEST JUMPDEST PUSH2 0x1A2A DUP7 DUP3 DUP8 ADD PUSH2 0x1833 JUMP JUMPDEST SWAP2 POP POP SWAP3 POP SWAP3 POP SWAP3 JUMP JUMPDEST PUSH1 0x0 PUSH1 0x20 DUP3 DUP5 SUB SLT ISZERO PUSH2 0x1A4A JUMPI PUSH2 0x1A49 PUSH2 0x24FC JUMP JUMPDEST JUMPDEST PUSH1 0x0 PUSH2 0x1A58 DUP5 DUP3 DUP6 ADD PUSH2 0x18A1 JUMP JUMPDEST SWAP2 POP POP SWAP3 SWAP2 POP POP JUMP JUMPDEST PUSH2 0x1A6A DUP2 PUSH2 0x2220 JUMP JUMPDEST DUP3 MSTORE POP POP JUMP JUMPDEST PUSH2 0x1A79 DUP2 PUSH2 0x220E JUMP JUMPDEST DUP3 MSTORE POP POP JUMP JUMPDEST PUSH2 0x1A88 DUP2 PUSH2 0x2232 JUMP JUMPDEST DUP3 MSTORE POP POP JUMP JUMPDEST PUSH2 0x1A97 DUP2 PUSH2 0x2285 JUMP JUMPDEST DUP3 MSTORE POP POP JUMP JUMPDEST PUSH2 0x1AA6 DUP2 PUSH2 0x2251 JUMP JUMPDEST DUP3 MSTORE POP POP JUMP JUMPDEST PUSH1 0x0 PUSH2 0x1AB7 DUP3 PUSH2 0x2008 JUMP JUMPDEST PUSH2 0x1AC1 DUP2 DUP6 PUSH2 0x2013 JUMP JUMPDEST SWAP4 POP PUSH2 0x1AD1 DUP2 DUP6 PUSH1 0x20 DUP7 ADD PUSH2 0x22A6 JUMP JUMPDEST PUSH2 0x1ADA DUP2 PUSH2 0x2501 JUMP JUMPDEST DUP5 ADD SWAP2 POP POP SWAP3 SWAP2 POP POP JUMP JUMPDEST PUSH1 0x0 PUSH2 0x1AF0 DUP3 PUSH2 0x2008 JUMP JUMPDEST PUSH2 0x1AFA DUP2 DUP6 PUSH2 0x2024 JUMP JUMPDEST SWAP4 POP PUSH2 0x1B0A DUP2 DUP6 PUSH1 0x20 DUP7 ADD PUSH2 0x22A6 JUMP JUMPDEST DUP1 DUP5 ADD SWAP2 POP POP SWAP3 SWAP2 POP POP JUMP JUMPDEST PUSH1 0x0 PUSH2 0x1B23 PUSH1 0x36 DUP4 PUSH2 0x2013 JUMP JUMPDEST SWAP2 POP PUSH2 0x1B2E DUP3 PUSH2 0x2512 JUMP JUMPDEST PUSH1 0x40 DUP3 ADD SWAP1 POP SWAP2 SWAP1 POP JUMP JUMPDEST PUSH1 0x0 PUSH2 0x1B46 PUSH1 0x12 DUP4 PUSH2 0x2013 JUMP JUMPDEST SWAP2 POP PUSH2 0x1B51 DUP3 PUSH2 0x2561 JUMP JUMPDEST PUSH1 0x20 DUP3 ADD SWAP1 POP SWAP2 SWAP1 POP JUMP JUMPDEST PUSH1 0x0 PUSH2 0x1B69 PUSH1 0x10 DUP4 PUSH2 0x2013 JUMP JUMPDEST SWAP2 POP PUSH2 0x1B74 DUP3 PUSH2 0x258A JUMP JUMPDEST PUSH1 0x20 DUP3 ADD SWAP1 POP SWAP2 SWAP1 POP JUMP JUMPDEST PUSH1 0x0 PUSH2 0x1B8C PUSH1 0x2 DUP4 PUSH2 0x2024 JUMP JUMPDEST SWAP2 POP PUSH2 0x1B97 DUP3 PUSH2 0x25B3 JUMP JUMPDEST PUSH1 0x2 DUP3 ADD SWAP1 POP SWAP2 SWAP1 POP JUMP JUMPDEST PUSH1 0x0 PUSH2 0x1BAF PUSH1 0x1 DUP4 PUSH2 0x2024 JUMP JUMPDEST SWAP2 POP PUSH2 0x1BBA DUP3 PUSH2 0x25DC JUMP JUMPDEST PUSH1 0x1 DUP3 ADD SWAP1 POP SWAP2 SWAP1 POP JUMP JUMPDEST PUSH1 0x0 PUSH2 0x1BD2 PUSH1 0x2 DUP4 PUSH2 0x2024 JUMP JUMPDEST SWAP2 POP PUSH2 0x1BDD DUP3 PUSH2 0x2605 JUMP JUMPDEST PUSH1 0x2 DUP3 ADD SWAP1 POP SWAP2 SWAP1 POP JUMP JUMPDEST PUSH1 0x0 PUSH2 0x1BF5 PUSH1 0x2 DUP4 PUSH2 0x2024 JUMP JUMPDEST SWAP2 POP PUSH2 0x1C00 DUP3 PUSH2 0x262E JUMP JUMPDEST PUSH1 0x2 DUP3 ADD SWAP1 POP SWAP2 SWAP1 POP JUMP JUMPDEST PUSH1 0x0 PUSH2 0x1C18 PUSH1 0x2 DUP4 PUSH2 0x2024 JUMP JUMPDEST SWAP2 POP PUSH2 0x1C23 DUP3 PUSH2 0x2657 JUMP JUMPDEST PUSH1 0x2 DUP3 ADD SWAP1 POP SWAP2 SWAP1 POP JUMP JUMPDEST PUSH1 0x0 PUSH2 0x1C3B PUSH1 0x1 DUP4 PUSH2 0x2024 JUMP JUMPDEST SWAP2 POP PUSH2 0x1C46 DUP3 PUSH2 0x2680 JUMP JUMPDEST PUSH1 0x1 DUP3 ADD SWAP1 POP SWAP2 SWAP1 POP JUMP JUMPDEST PUSH1 0x0 PUSH2 0x1C5E PUSH1 0x1D DUP4 PUSH2 0x2013 JUMP JUMPDEST SWAP2 POP PUSH2 0x1C69 DUP3 PUSH2 0x26A9 JUMP JUMPDEST PUSH1 0x20 DUP3 ADD SWAP1 POP SWAP2 SWAP1 POP JUMP JUMPDEST PUSH1 0x0 PUSH2 0x1C81 PUSH1 0x25 DUP4 PUSH2 0x2013 JUMP JUMPDEST SWAP2 POP PUSH2 0x1C8C DUP3 PUSH2 0x26D2 JUMP JUMPDEST PUSH1 0x40 DUP3 ADD SWAP1 POP SWAP2 SWAP1 POP JUMP JUMPDEST PUSH2 0x1CA0 DUP2 PUSH2 0x227B JUMP JUMPDEST DUP3 MSTORE POP POP JUMP JUMPDEST PUSH1 0x0 PUSH2 0x1CB2 DUP3 DUP5 PUSH2 0x1AE5 JUMP JUMPDEST SWAP2 POP DUP2 SWAP1 POP SWAP3 SWAP2 POP POP JUMP JUMPDEST PUSH1 0x0 PUSH2 0x1CC8 DUP3 PUSH2 0x1B7F JUMP JUMPDEST SWAP2 POP DUP2 SWAP1 POP SWAP2 SWAP1 POP JUMP JUMPDEST PUSH1 0x0 PUSH2 0x1CDD DUP3 PUSH2 0x1BA2 JUMP JUMPDEST SWAP2 POP DUP2 SWAP1 POP SWAP2 SWAP1 POP JUMP JUMPDEST PUSH1 0x0 PUSH2 0x1CF2 DUP3 PUSH2 0x1BC5 JUMP JUMPDEST SWAP2 POP DUP2 SWAP1 POP SWAP2 SWAP1 POP JUMP JUMPDEST PUSH1 0x0 PUSH2 0x1D07 DUP3 PUSH2 0x1BE8 JUMP JUMPDEST SWAP2 POP DUP2 SWAP1 POP SWAP2 SWAP1 POP JUMP JUMPDEST PUSH1 0x0 PUSH2 0x1D1C DUP3 PUSH2 0x1C0B JUMP JUMPDEST SWAP2 POP DUP2 SWAP1 POP SWAP2 SWAP1 POP JUMP JUMPDEST PUSH1 0x0 PUSH2 0x1D31 DUP3 PUSH2 0x1C2E JUMP JUMPDEST SWAP2 POP DUP2 SWAP1 POP SWAP2 SWAP1 POP JUMP JUMPDEST PUSH1 0x0 PUSH1 0x20 DUP3 ADD SWAP1 POP PUSH2 0x1D50 PUSH1 0x0 DUP4 ADD DUP5 PUSH2 0x1A70 JUMP JUMPDEST SWAP3 SWAP2 POP POP JUMP JUMPDEST PUSH1 0x0 PUSH1 0x20 DUP3 ADD SWAP1 POP PUSH2 0x1D6B PUSH1 0x0 DUP4 ADD DUP5 PUSH2 0x1A61 JUMP JUMPDEST SWAP3 SWAP2 POP POP JUMP JUMPDEST PUSH1 0x0 PUSH2 0x100 DUP3 ADD SWAP1 POP PUSH2 0x1D87 PUSH1 0x0 DUP4 ADD DUP12 PUSH2 0x1A70 JUMP JUMPDEST PUSH2 0x1D94 PUSH1 0x20 DUP4 ADD DUP11 PUSH2 0x1A70 JUMP JUMPDEST PUSH2 0x1DA1 PUSH1 0x40 DUP4 ADD DUP10 PUSH2 0x1C97 JUMP JUMPDEST PUSH2 0x1DAE PUSH1 0x60 DUP4 ADD DUP9 PUSH2 0x1C97 JUMP JUMPDEST PUSH2 0x1DBB PUSH1 0x80 DUP4 ADD DUP8 PUSH2 0x1C97 JUMP JUMPDEST PUSH2 0x1DC8 PUSH1 0xA0 DUP4 ADD DUP7 PUSH2 0x1C97 JUMP JUMPDEST PUSH2 0x1DD5 PUSH1 0xC0 DUP4 ADD DUP6 PUSH2 0x1C97 JUMP JUMPDEST PUSH2 0x1DE2 PUSH1 0xE0 DUP4 ADD DUP5 PUSH2 0x1C97 JUMP JUMPDEST SWAP10 SWAP9 POP POP POP POP POP POP POP POP POP JUMP JUMPDEST PUSH1 0x0 PUSH1 0x20 DUP3 ADD SWAP1 POP PUSH2 0x1E04 PUSH1 0x0 DUP4 ADD DUP5 PUSH2 0x1A7F JUMP JUMPDEST SWAP3 SWAP2 POP POP JUMP JUMPDEST PUSH1 0x0 PUSH1 0x40 DUP3 ADD SWAP1 POP PUSH2 0x1E1F PUSH1 0x0 DUP4 ADD DUP5 PUSH2 0x1A7F JUMP JUMPDEST DUP2 DUP2 SUB PUSH1 0x20 DUP4 ADD MSTORE PUSH2 0x1E30 DUP2 PUSH2 0x1B39 JUMP JUMPDEST SWAP1 POP SWAP3 SWAP2 POP POP JUMP JUMPDEST PUSH1 0x0 PUSH1 0x40 DUP3 ADD SWAP1 POP PUSH2 0x1E4D PUSH1 0x0 DUP4 ADD DUP5 PUSH2 0x1A7F JUMP JUMPDEST DUP2 DUP2 SUB PUSH1 0x20 DUP4 ADD MSTORE PUSH2 0x1E5E DUP2 PUSH2 0x1B5C JUMP JUMPDEST SWAP1 POP SWAP3 SWAP2 POP POP JUMP JUMPDEST PUSH1 0x0 PUSH1 0x20 DUP3 ADD SWAP1 POP PUSH2 0x1E7B PUSH1 0x0 DUP4 ADD DUP5 PUSH2 0x1A8E JUMP JUMPDEST SWAP3 SWAP2 POP POP JUMP JUMPDEST PUSH1 0x0 PUSH1 0x60 DUP3 ADD SWAP1 POP PUSH2 0x1E96 PUSH1 0x0 DUP4 ADD DUP7 PUSH2 0x1A9D JUMP JUMPDEST PUSH2 0x1EA3 PUSH1 0x20 DUP4 ADD DUP6 PUSH2 0x1A9D JUMP JUMPDEST DUP2 DUP2 SUB PUSH1 0x40 DUP4 ADD MSTORE PUSH2 0x1EB5 DUP2 DUP5 PUSH2 0x1AAC JUMP JUMPDEST SWAP1 POP SWAP5 SWAP4 POP POP POP POP JUMP JUMPDEST PUSH1 0x0 PUSH1 0x20 DUP3 ADD SWAP1 POP DUP2 DUP2 SUB PUSH1 0x0 DUP4 ADD MSTORE PUSH2 0x1ED8 DUP2 PUSH2 0x1B16 JUMP JUMPDEST SWAP1 POP SWAP2 SWAP1 POP JUMP JUMPDEST PUSH1 0x0 PUSH1 0x20 DUP3 ADD SWAP1 POP DUP2 DUP2 SUB PUSH1 0x0 DUP4 ADD MSTORE PUSH2 0x1EF8 DUP2 PUSH2 0x1C51 JUMP JUMPDEST SWAP1 POP SWAP2 SWAP1 POP JUMP JUMPDEST PUSH1 0x0 PUSH1 0x20 DUP3 ADD SWAP1 POP DUP2 DUP2 SUB PUSH1 0x0 DUP4 ADD MSTORE PUSH2 0x1F18 DUP2 PUSH2 0x1C74 JUMP JUMPDEST SWAP1 POP SWAP2 SWAP1 POP JUMP JUMPDEST PUSH1 0x0 PUSH1 0x20 DUP3 ADD SWAP1 POP PUSH2 0x1F34 PUSH1 0x0 DUP4 ADD DUP5 PUSH2 0x1C97 JUMP JUMPDEST SWAP3 SWAP2 POP POP JUMP JUMPDEST PUSH1 0x0 PUSH2 0x1F44 PUSH2 0x1F55 JUMP JUMPDEST SWAP1 POP PUSH2 0x1F50 DUP3 DUP3 PUSH2 0x230B JUMP JUMPDEST SWAP2 SWAP1 POP JUMP JUMPDEST PUSH1 0x0 PUSH1 0x40 MLOAD SWAP1 POP SWAP1 JUMP JUMPDEST PUSH1 0x0 PUSH8 0xFFFFFFFFFFFFFFFF DUP3 GT ISZERO PUSH2 0x1F7A JUMPI PUSH2 0x1F79 PUSH2 0x24B9 JUMP JUMPDEST JUMPDEST PUSH1 0x20 DUP3 MUL SWAP1 POP SWAP2 SWAP1 POP JUMP JUMPDEST PUSH1 0x0 PUSH8 0xFFFFFFFFFFFFFFFF DUP3 GT ISZERO PUSH2 0x1FA0 JUMPI PUSH2 0x1F9F PUSH2 0x24B9 JUMP JUMPDEST JUMPDEST PUSH1 0x20 DUP3 MUL SWAP1 POP PUSH1 0x20 DUP2 ADD SWAP1 POP SWAP2 SWAP1 POP JUMP JUMPDEST PUSH1 0x0 PUSH8 0xFFFFFFFFFFFFFFFF DUP3 GT ISZERO PUSH2 0x1FCC JUMPI PUSH2 0x1FCB PUSH2 0x24B9 JUMP JUMPDEST JUMPDEST PUSH1 0x20 DUP3 MUL SWAP1 POP SWAP2 SWAP1 POP JUMP JUMPDEST PUSH1 0x0 PUSH8 0xFFFFFFFFFFFFFFFF DUP3 GT ISZERO PUSH2 0x1FF2 JUMPI PUSH2 0x1FF1 PUSH2 0x24B9 JUMP JUMPDEST JUMPDEST PUSH2 0x1FFB DUP3 PUSH2 0x2501 JUMP JUMPDEST SWAP1 POP PUSH1 0x20 DUP2 ADD SWAP1 POP SWAP2 SWAP1 POP JUMP JUMPDEST PUSH1 0x0 DUP2 MLOAD SWAP1 POP SWAP2 SWAP1 POP JUMP JUMPDEST PUSH1 0x0 DUP3 DUP3 MSTORE PUSH1 0x20 DUP3 ADD SWAP1 POP SWAP3 SWAP2 POP POP JUMP JUMPDEST PUSH1 0x0 DUP2 SWAP1 POP SWAP3 SWAP2 POP POP JUMP JUMPDEST PUSH1 0x0 PUSH2 0x203A DUP3 PUSH2 0x2251 JUMP JUMPDEST SWAP2 POP PUSH2 0x2045 DUP4 PUSH2 0x2251 JUMP JUMPDEST SWAP3 POP DUP2 PUSH32 0x7FFFFFFFFFFFFFFFFFFFFFFFFFFFFFFFFFFFFFFFFFFFFFFFFFFFFFFFFFFFFFFF SUB DUP4 SGT PUSH1 0x0 DUP4 SLT ISZERO AND ISZERO PUSH2 0x2080 JUMPI PUSH2 0x207F PUSH2 0x23CE JUMP JUMPDEST JUMPDEST DUP2 PUSH32 0x8000000000000000000000000000000000000000000000000000000000000000 SUB DUP4 SLT PUSH1 0x0 DUP4 SLT AND ISZERO PUSH2 0x20B8 JUMPI PUSH2 0x20B7 PUSH2 0x23CE JUMP JUMPDEST JUMPDEST DUP3 DUP3 ADD SWAP1 POP SWAP3 SWAP2 POP POP JUMP JUMPDEST PUSH1 0x0 PUSH2 0x20CE DUP3 PUSH2 0x227B JUMP JUMPDEST SWAP2 POP PUSH2 0x20D9 DUP4 PUSH2 0x227B JUMP JUMPDEST SWAP3 POP DUP3 PUSH32 0xFFFFFFFFFFFFFFFFFFFFFFFFFFFFFFFFFFFFFFFFFFFFFFFFFFFFFFFFFFFFFFFF SUB DUP3 GT ISZERO PUSH2 0x210E JUMPI PUSH2 0x210D PUSH2 0x23CE JUMP JUMPDEST JUMPDEST DUP3 DUP3 ADD SWAP1 POP SWAP3 SWAP2 POP POP JUMP JUMPDEST PUSH1 0x0 PUSH2 0x2124 DUP3 PUSH2 0x2251 JUMP JUMPDEST SWAP2 POP PUSH2 0x212F DUP4 PUSH2 0x2251 JUMP JUMPDEST SWAP3 POP DUP3 PUSH2 0x213F JUMPI PUSH2 0x213E PUSH2 0x23FD JUMP JUMPDEST JUMPDEST PUSH1 0x1 PUSH1 0x0 SUB DUP4 EQ PUSH32 0x8000000000000000000000000000000000000000000000000000000000000000 DUP4 EQ AND ISZERO PUSH2 0x2178 JUMPI PUSH2 0x2177 PUSH2 0x23CE JUMP JUMPDEST JUMPDEST DUP3 DUP3 SDIV SWAP1 POP SWAP3 SWAP2 POP POP JUMP JUMPDEST PUSH1 0x0 PUSH2 0x218E DUP3 PUSH2 0x227B JUMP JUMPDEST SWAP2 POP PUSH2 0x2199 DUP4 PUSH2 0x227B JUMP JUMPDEST SWAP3 POP DUP3 PUSH2 0x21A9 JUMPI PUSH2 0x21A8 PUSH2 0x23FD JUMP JUMPDEST JUMPDEST DUP3 DUP3 DIV SWAP1 POP SWAP3 SWAP2 POP POP JUMP JUMPDEST PUSH1 0x0 PUSH2 0x21BF DUP3 PUSH2 0x227B JUMP JUMPDEST SWAP2 POP PUSH2 0x21CA DUP4 PUSH2 0x227B JUMP JUMPDEST SWAP3 POP DUP2 PUSH32 0xFFFFFFFFFFFFFFFFFFFFFFFFFFFFFFFFFFFFFFFFFFFFFFFFFFFFFFFFFFFFFFFF DIV DUP4 GT DUP3 ISZERO ISZERO AND ISZERO PUSH2 0x2203 JUMPI PUSH2 0x2202 PUSH2 0x23CE JUMP JUMPDEST JUMPDEST DUP3 DUP3 MUL SWAP1 POP SWAP3 SWAP2 POP POP JUMP JUMPDEST PUSH1 0x0 PUSH2 0x2219 DUP3 PUSH2 0x225B JUMP JUMPDEST SWAP1 POP SWAP2 SWAP1 POP JUMP JUMPDEST PUSH1 0x0 PUSH2 0x222B DUP3 PUSH2 0x225B JUMP JUMPDEST SWAP1 POP SWAP2 SWAP1 POP JUMP JUMPDEST PUSH1 0x0 DUP2 ISZERO ISZERO SWAP1 POP SWAP2 SWAP1 POP JUMP JUMPDEST PUSH1 0x0 DUP2 SWAP1 POP PUSH2 0x224C DUP3 PUSH2 0x2721 JUMP JUMPDEST SWAP2 SWAP1 POP JUMP JUMPDEST PUSH1 0x0 DUP2 SWAP1 POP SWAP2 SWAP1 POP JUMP JUMPDEST PUSH1 0x0 PUSH20 0xFFFFFFFFFFFFFFFFFFFFFFFFFFFFFFFFFFFFFFFF DUP3 AND SWAP1 POP SWAP2 SWAP1 POP JUMP JUMPDEST PUSH1 0x0 DUP2 SWAP1 POP SWAP2 SWAP1 POP JUMP JUMPDEST PUSH1 0x0 PUSH2 0x2290 DUP3 PUSH2 0x223E JUMP JUMPDEST SWAP1 POP SWAP2 SWAP1 POP JUMP JUMPDEST DUP3 DUP2 DUP4 CALLDATACOPY PUSH1 0x0 DUP4 DUP4 ADD MSTORE POP POP POP JUMP JUMPDEST PUSH1 0x0 JUMPDEST DUP4 DUP2 LT ISZERO PUSH2 0x22C4 JUMPI DUP1 DUP3 ADD MLOAD DUP2 DUP5 ADD MSTORE PUSH1 0x20 DUP2 ADD SWAP1 POP PUSH2 0x22A9 JUMP JUMPDEST DUP4 DUP2 GT ISZERO PUSH2 0x22D3 JUMPI PUSH1 0x0 DUP5 DUP5 ADD MSTORE JUMPDEST POP POP POP POP JUMP JUMPDEST PUSH1 0x0 PUSH1 0x2 DUP3 DIV SWAP1 POP PUSH1 0x1 DUP3 AND DUP1 PUSH2 0x22F1 JUMPI PUSH1 0x7F DUP3 AND SWAP2 POP JUMPDEST PUSH1 0x20 DUP3 LT DUP2 EQ ISZERO PUSH2 0x2305 JUMPI PUSH2 0x2304 PUSH2 0x245B JUMP JUMPDEST JUMPDEST POP SWAP2 SWAP1 POP JUMP JUMPDEST PUSH2 0x2314 DUP3 PUSH2 0x2501 JUMP JUMPDEST DUP2 ADD DUP2 DUP2 LT PUSH8 0xFFFFFFFFFFFFFFFF DUP3 GT OR ISZERO PUSH2 0x2333 JUMPI PUSH2 0x2332 PUSH2 0x24B9 JUMP JUMPDEST JUMPDEST DUP1 PUSH1 0x40 MSTORE POP POP POP JUMP JUMPDEST PUSH1 0x0 PUSH2 0x2347 DUP3 PUSH2 0x2251 JUMP JUMPDEST SWAP2 POP PUSH32 0x7FFFFFFFFFFFFFFFFFFFFFFFFFFFFFFFFFFFFFFFFFFFFFFFFFFFFFFFFFFFFFFF DUP3 EQ ISZERO PUSH2 0x237A JUMPI PUSH2 0x2379 PUSH2 0x23CE JUMP JUMPDEST JUMPDEST PUSH1 0x1 DUP3 ADD SWAP1 POP SWAP2 SWAP1 POP JUMP JUMPDEST PUSH1 0x0 PUSH2 0x2390 DUP3 PUSH2 0x227B JUMP JUMPDEST SWAP2 POP PUSH32 0xFFFFFFFFFFFFFFFFFFFFFFFFFFFFFFFFFFFFFFFFFFFFFFFFFFFFFFFFFFFFFFFF DUP3 EQ ISZERO PUSH2 0x23C3 JUMPI PUSH2 0x23C2 PUSH2 0x23CE JUMP JUMPDEST JUMPDEST PUSH1 0x1 DUP3 ADD SWAP1 POP SWAP2 SWAP1 POP JUMP JUMPDEST PUSH32 0x4E487B7100000000000000000000000000000000000000000000000000000000 PUSH1 0x0 MSTORE PUSH1 0x11 PUSH1 0x4 MSTORE PUSH1 0x24 PUSH1 0x0 REVERT JUMPDEST PUSH32 0x4E487B7100000000000000000000000000000000000000000000000000000000 PUSH1 0x0 MSTORE PUSH1 0x12 PUSH1 0x4 MSTORE PUSH1 0x24 PUSH1 0x0 REVERT JUMPDEST PUSH32 0x4E487B7100000000000000000000000000000000000000000000000000000000 PUSH1 0x0 MSTORE PUSH1 0x21 PUSH1 0x4 MSTORE PUSH1 0x24 PUSH1 0x0 REVERT JUMPDEST PUSH32 0x4E487B7100000000000000000000000000000000000000000000000000000000 PUSH1 0x0 MSTORE PUSH1 0x22 PUSH1 0x4 MSTORE PUSH1 0x24 PUSH1 0x0 REVERT JUMPDEST PUSH32 0x4E487B7100000000000000000000000000000000000000000000000000000000 PUSH1 0x0 MSTORE PUSH1 0x32 PUSH1 0x4 MSTORE PUSH1 0x24 PUSH1 0x0 REVERT JUMPDEST PUSH32 0x4E487B7100000000000000000000000000000000000000000000000000000000 PUSH1 0x0 MSTORE PUSH1 0x41 PUSH1 0x4 MSTORE PUSH1 0x24 PUSH1 0x0 REVERT JUMPDEST PUSH1 0x0 DUP1 REVERT JUMPDEST PUSH1 0x0 DUP1 REVERT JUMPDEST PUSH1 0x0 DUP1 REVERT JUMPDEST PUSH1 0x0 DUP1 REVERT JUMPDEST PUSH1 0x0 DUP1 REVERT JUMPDEST PUSH1 0x0 PUSH1 0x1F NOT PUSH1 0x1F DUP4 ADD AND SWAP1 POP SWAP2 SWAP1 POP JUMP JUMPDEST PUSH32 0x43616E6E6F742063616C6C20746869732066756E6374696F6E20646972656374 PUSH1 0x0 DUP3 ADD MSTORE PUSH32 0x6C792C207573652056656E646F72466163746F72792E00000000000000000000 PUSH1 0x20 DUP3 ADD MSTORE POP JUMP JUMPDEST PUSH32 0x526566756E64696E67207061796D656E742E0000000000000000000000000000 PUSH1 0x0 DUP3 ADD MSTORE POP JUMP JUMPDEST PUSH32 0x53656E64696E67207061796D656E742E00000000000000000000000000000000 PUSH1 0x0 DUP3 ADD MSTORE POP JUMP JUMPDEST PUSH32 0x3D3D000000000000000000000000000000000000000000000000000000000000 PUSH1 0x0 DUP3 ADD MSTORE POP JUMP JUMPDEST PUSH32 0x3C00000000000000000000000000000000000000000000000000000000000000 PUSH1 0x0 DUP3 ADD MSTORE POP JUMP JUMPDEST PUSH32 0x213D000000000000000000000000000000000000000000000000000000000000 PUSH1 0x0 DUP3 ADD MSTORE POP JUMP JUMPDEST PUSH32 0x3D3E000000000000000000000000000000000000000000000000000000000000 PUSH1 0x0 DUP3 ADD MSTORE POP JUMP JUMPDEST PUSH32 0x3C3D000000000000000000000000000000000000000000000000000000000000 PUSH1 0x0 DUP3 ADD MSTORE POP JUMP JUMPDEST PUSH32 0x3E00000000000000000000000000000000000000000000000000000000000000 PUSH1 0x0 DUP3 ADD MSTORE POP JUMP JUMPDEST PUSH32 0x4E6F742077697468696E207468652062696C6C696E6720706572696F64000000 PUSH1 0x0 DUP3 ADD MSTORE POP JUMP JUMPDEST PUSH32 0x436F6E7472616374206973206E6F7420696E2074686520726571756972656420 PUSH1 0x0 DUP3 ADD MSTORE PUSH32 0x7374617465000000000000000000000000000000000000000000000000000000 PUSH1 0x20 DUP3 ADD MSTORE POP JUMP JUMPDEST PUSH1 0x5 DUP2 LT PUSH2 0x2732 JUMPI PUSH2 0x2731 PUSH2 0x242C JUMP JUMPDEST JUMPDEST POP JUMP JUMPDEST PUSH2 0x273E DUP2 PUSH2 0x220E JUMP JUMPDEST DUP2 EQ PUSH2 0x2749 JUMPI PUSH1 0x0 DUP1 REVERT JUMPDEST POP JUMP JUMPDEST PUSH2 0x2755 DUP2 PUSH2 0x2251 JUMP JUMPDEST DUP2 EQ PUSH2 0x2760 JUMPI PUSH1 0x0 DUP1 REVERT JUMPDEST POP JUMP JUMPDEST PUSH2 0x276C DUP2 PUSH2 0x227B JUMP JUMPDEST DUP2 EQ PUSH2 0x2777 JUMPI PUSH1 0x0 DUP1 REVERT JUMPDEST POP JUMP INVALID LOG2 PUSH5 0x6970667358 0x22 SLT KECCAK256 CODECOPY PUSH14 0x377DB8CCBB7B790E6ED569D3BB03 MUL DUP9 0xBC 0xE 0xC0 0xFB 0xF RETURNDATASIZE MOD 0xCA 0xB2 CREATE2 SWAP4 0xEE SWAP8 PUSH18 0x64736F6C6343000806003300000000000000 "
    },
    "gasEstimates": {
      "creation": {
        "codeDepositCost": "2032000",
        "executionCost": "50772",
        "totalCost": "2082772"
      },
      "external": {
        "admin()": "2577",
        "amount()": "2474",
        "approve()": "53199",
        "balanceOf()": "450",
        "client()": "2560",
        "conditionArray(uint256)": "infinite",
        "contractHash()": "2496",
        "destroy()": "32117",
        "endInitStage()": "infinite",
        "expiryDate()": "2518",
        "getDetails()": "infinite",
        "init(address,uint256,uint256,uint256,uint256)": "infinite",
        "nextBillingDate()": "2496",
        "payee()": "2581",
        "payeeApproved()": "2632",
        "prevBillingDate()": "2563",
        "receiveServiceData(int256[])": "infinite",
        "satisfied()": "2544",
        "setActive()": "26780",
        "setConds(string[8],int256[8],string[8])": "infinite",
        "setInactive()": "26691",
        "setPayee(address)": "24767",
        "stage()": "2649",
        "startDate()": "2453",
        "storePayment()": "infinite"
      },
      "internal": {
        "calcDate(uint256)": "infinite",
        "condValid(int256,int256,int256)": "229",
        "initOperators()": "infinite",
        "isSatisfied()": "infinite",
        "payVendor()": "infinite",
        "refund()": "infinite",
        "setNewDates()": "infinite"
      }
    },
    "methodIdentifiers": {
      "admin()": "f851a440",
      "amount()": "aa8c217c",
      "approve()": "12424e3f",
      "balanceOf()": "722713f7",
      "client()": "109e94cf",
      "conditionArray(uint256)": "182541d2",
      "contractHash()": "904c6094",
      "destroy()": "83197ef0",
      "endInitStage()": "9503fe3d",
      "expiryDate()": "516dde43",
      "getDetails()": "fbbf93a0",
      "init(address,uint256,uint256,uint256,uint256)": "9a730617",
      "nextBillingDate()": "43885314",
      "payee()": "ae90b213",
      "payeeApproved()": "97c0bba1",
      "prevBillingDate()": "25419c24",
      "receiveServiceData(int256[])": "21ce5afd",
      "satisfied()": "3a40f3b2",
      "setActive()": "760a8c2a",
      "setConds(string[8],int256[8],string[8])": "fadeaa59",
      "setInactive()": "f1b9ee24",
      "setPayee(address)": "410459ad",
      "stage()": "c040e6b8",
      "startDate()": "0b97bc86",
      "storePayment()": "84ac4446"
    }
  },
  "storageLayout": {
    "storage": [
      {
        "astId": 41,
        "contract": "Vendor.sol:Vendor",
        "label": "admin",
        "offset": 0,
        "slot": "0",
        "type": "t_address"
      },
      {
        "astId": 43,
        "contract": "Vendor.sol:Vendor",
        "label": "client",
        "offset": 0,
        "slot": "1",
        "type": "t_address_payable"
      },
      {
        "astId": 45,
        "contract": "Vendor.sol:Vendor",
        "label": "payee",
        "offset": 0,
        "slot": "2",
        "type": "t_address_payable"
      },
      {
        "astId": 47,
        "contract": "Vendor.sol:Vendor",
        "label": "payeeApproved",
        "offset": 20,
        "slot": "2",
        "type": "t_bool"
      },
      {
        "astId": 49,
        "contract": "Vendor.sol:Vendor",
        "label": "startDate",
        "offset": 0,
        "slot": "3",
        "type": "t_uint256"
      },
      {
        "astId": 51,
        "contract": "Vendor.sol:Vendor",
        "label": "expiryDate",
        "offset": 0,
        "slot": "4",
        "type": "t_uint256"
      },
      {
        "astId": 53,
        "contract": "Vendor.sol:Vendor",
        "label": "amount",
        "offset": 0,
        "slot": "5",
        "type": "t_uint256"
      },
      {
        "astId": 55,
        "contract": "Vendor.sol:Vendor",
        "label": "prevBillingDate",
        "offset": 0,
        "slot": "6",
        "type": "t_uint256"
      },
      {
        "astId": 57,
        "contract": "Vendor.sol:Vendor",
        "label": "nextBillingDate",
        "offset": 0,
        "slot": "7",
        "type": "t_uint256"
      },
      {
        "astId": 59,
        "contract": "Vendor.sol:Vendor",
        "label": "contractHash",
        "offset": 0,
        "slot": "8",
        "type": "t_uint256"
      },
      {
        "astId": 70,
        "contract": "Vendor.sol:Vendor",
        "label": "stage",
        "offset": 0,
        "slot": "9",
        "type": "t_enum(Stages)65"
      },
      {
        "astId": 73,
        "contract": "Vendor.sol:Vendor",
        "label": "satisfied",
        "offset": 1,
        "slot": "9",
        "type": "t_bool"
      },
      {
        "astId": 84,
        "contract": "Vendor.sol:Vendor",
        "label": "conditionArray",
        "offset": 0,
        "slot": "10",
        "type": "t_array(t_struct(Conditions)80_storage)dyn_storage"
      },
      {
        "astId": 88,
        "contract": "Vendor.sol:Vendor",
        "label": "operators",
        "offset": 0,
        "slot": "11",
        "type": "t_mapping(t_string_memory_ptr,t_int256)"
      },
      {
        "astId": 95,
        "contract": "Vendor.sol:Vendor",
        "label": "cumulative",
        "offset": 0,
        "slot": "12",
        "type": "t_mapping(t_uint256,t_int256)"
      },
      {
        "astId": 97,
        "contract": "Vendor.sol:Vendor",
        "label": "count",
        "offset": 0,
        "slot": "13",
        "type": "t_int256"
      }
    ],
    "types": {
      "t_address": {
        "encoding": "inplace",
        "label": "address",
        "numberOfBytes": "20"
      },
      "t_address_payable": {
        "encoding": "inplace",
        "label": "address payable",
        "numberOfBytes": "20"
      },
      "t_array(t_struct(Conditions)80_storage)dyn_storage": {
        "base": "t_struct(Conditions)80_storage",
        "encoding": "dynamic_array",
        "label": "struct Vendor.Conditions[]",
        "numberOfBytes": "32"
      },
      "t_bool": {
        "encoding": "inplace",
        "label": "bool",
        "numberOfBytes": "1"
      },
      "t_enum(Stages)65": {
        "encoding": "inplace",
        "label": "enum Vendor.Stages",
        "numberOfBytes": "1"
      },
      "t_int256": {
        "encoding": "inplace",
        "label": "int256",
        "numberOfBytes": "32"
      },
      "t_mapping(t_string_memory_ptr,t_int256)": {
        "encoding": "mapping",
        "key": "t_string_memory_ptr",
        "label": "mapping(string => int256)",
        "numberOfBytes": "32",
        "value": "t_int256"
      },
      "t_mapping(t_uint256,t_int256)": {
        "encoding": "mapping",
        "key": "t_uint256",
        "label": "mapping(uint256 => int256)",
        "numberOfBytes": "32",
        "value": "t_int256"
      },
      "t_string_memory_ptr": {
        "encoding": "bytes",
        "label": "string",
        "numberOfBytes": "32"
      },
      "t_string_storage": {
        "encoding": "bytes",
        "label": "string",
        "numberOfBytes": "32"
      },
      "t_struct(Conditions)80_storage": {
        "encoding": "inplace",
        "label": "struct Vendor.Conditions",
        "members": [
          {
            "astId": 75,
            "contract": "Vendor.sol:Vendor",
            "label": "value",
            "offset": 0,
            "slot": "0",
            "type": "t_int256"
          },
          {
            "astId": 77,
            "contract": "Vendor.sol:Vendor",
            "label": "operator",
            "offset": 0,
            "slot": "1",
            "type": "t_int256"
          },
          {
            "astId": 79,
            "contract": "Vendor.sol:Vendor",
            "label": "name",
            "offset": 0,
            "slot": "2",
            "type": "t_string_storage"
          }
        ],
        "numberOfBytes": "96"
      },
      "t_uint256": {
        "encoding": "inplace",
        "label": "uint256",
        "numberOfBytes": "32"
      }
    }
  },
  "userdoc": {
    "kind": "user",
    "methods": {},
    "notice": "Contract that handles automated payment, considering if conditions are satisfied.",
    "version": 1
  }
}