{
  "abi": [
    {
      "anonymous": false,
      "inputs": [
        {
          "indexed": false,
          "internalType": "address",
          "name": "client",
          "type": "address"
        },
        {
          "indexed": false,
          "internalType": "address",
          "name": "payee",
          "type": "address"
        },
        {
          "indexed": false,
          "internalType": "uint256",
          "name": "startDate",
          "type": "uint256"
        },
        {
          "indexed": false,
          "internalType": "uint256",
          "name": "expiryDate",
          "type": "uint256"
        },
        {
          "indexed": false,
          "internalType": "uint256",
          "name": "amount",
          "type": "uint256"
        },
        {
          "indexed": false,
          "internalType": "uint256",
          "name": "prevBillingDate",
          "type": "uint256"
        },
        {
          "indexed": false,
          "internalType": "uint256",
          "name": "nextBillingDate",
          "type": "uint256"
        },
        {
          "indexed": false,
          "internalType": "uint256",
          "name": "contractHash",
          "type": "uint256"
        },
        {
          "indexed": false,
          "internalType": "string[8]",
          "name": "names",
          "type": "string[8]"
        },
        {
          "indexed": false,
          "internalType": "int256[8]",
          "name": "values",
          "type": "int256[8]"
        },
        {
          "indexed": false,
          "internalType": "string[8]",
          "name": "operators",
          "type": "string[8]"
        }
      ],
      "name": "Details",
      "type": "event"
    },
    {
      "anonymous": false,
      "inputs": [
        {
          "indexed": false,
          "internalType": "string",
          "name": "message",
          "type": "string"
        },
        {
          "indexed": false,
          "internalType": "uint256",
          "name": "value",
          "type": "uint256"
        }
      ],
      "name": "Log",
      "type": "event"
    },
    {
      "anonymous": false,
      "inputs": [
        {
          "indexed": true,
          "internalType": "address",
          "name": "sender",
          "type": "address"
        },
        {
          "indexed": false,
          "internalType": "bool",
          "name": "isSatisfied",
          "type": "bool"
        },
        {
          "indexed": false,
          "internalType": "string",
          "name": "message",
          "type": "string"
        }
      ],
      "name": "State",
      "type": "event"
    },
    {
      "inputs": [],
      "name": "admin",
      "outputs": [
        {
          "internalType": "address",
          "name": "",
          "type": "address"
        }
      ],
      "stateMutability": "view",
      "type": "function"
    },
    {
      "inputs": [],
      "name": "amount",
      "outputs": [
        {
          "internalType": "uint256",
          "name": "",
          "type": "uint256"
        }
      ],
      "stateMutability": "view",
      "type": "function"
    },
    {
      "inputs": [],
      "name": "approve",
      "outputs": [],
      "stateMutability": "nonpayable",
      "type": "function"
    },
    {
      "inputs": [],
      "name": "balanceOf",
      "outputs": [
        {
          "internalType": "uint256",
          "name": "",
          "type": "uint256"
        }
      ],
      "stateMutability": "view",
      "type": "function"
    },
    {
      "inputs": [],
      "name": "client",
      "outputs": [
        {
          "internalType": "address payable",
          "name": "",
          "type": "address"
        }
      ],
      "stateMutability": "view",
      "type": "function"
    },
    {
      "inputs": [],
      "name": "contractHash",
      "outputs": [
        {
          "internalType": "uint256",
          "name": "",
          "type": "uint256"
        }
      ],
      "stateMutability": "view",
      "type": "function"
    },
    {
      "inputs": [],
      "name": "destroy",
      "outputs": [],
      "stateMutability": "nonpayable",
      "type": "function"
    },
    {
      "inputs": [],
      "name": "expiryDate",
      "outputs": [
        {
          "internalType": "uint256",
          "name": "",
          "type": "uint256"
        }
      ],
      "stateMutability": "view",
      "type": "function"
    },
    {
      "inputs": [],
      "name": "getDetails",
      "outputs": [
        {
          "internalType": "address",
          "name": "",
          "type": "address"
        },
        {
          "internalType": "address",
          "name": "",
          "type": "address"
        },
        {
          "internalType": "uint256",
          "name": "",
          "type": "uint256"
        },
        {
          "internalType": "uint256",
          "name": "",
          "type": "uint256"
        },
        {
          "internalType": "uint256",
          "name": "",
          "type": "uint256"
        },
        {
          "internalType": "uint256",
          "name": "",
          "type": "uint256"
        },
        {
          "internalType": "uint256",
          "name": "",
          "type": "uint256"
        },
        {
          "internalType": "uint256",
          "name": "",
          "type": "uint256"
        },
        {
          "internalType": "string[8]",
          "name": "",
          "type": "string[8]"
        },
        {
          "internalType": "int256[8]",
          "name": "",
          "type": "int256[8]"
        },
        {
          "internalType": "string[8]",
          "name": "",
          "type": "string[8]"
        }
      ],
      "stateMutability": "view",
      "type": "function"
    },
    {
      "inputs": [
        {
          "internalType": "address",
          "name": "_client",
          "type": "address"
        },
        {
          "internalType": "uint256",
          "name": "_expiredOn",
          "type": "uint256"
        },
        {
          "internalType": "uint256",
          "name": "_startDate",
          "type": "uint256"
        },
        {
          "internalType": "uint256",
          "name": "_contractHash",
          "type": "uint256"
        },
        {
          "internalType": "uint256",
          "name": "_amount",
          "type": "uint256"
        }
      ],
      "name": "init",
      "outputs": [],
      "stateMutability": "nonpayable",
      "type": "function"
    },
    {
      "inputs": [],
      "name": "isSatisfied",
      "outputs": [],
      "stateMutability": "nonpayable",
      "type": "function"
    },
    {
      "inputs": [],
      "name": "isSatisfiedBypass",
      "outputs": [],
      "stateMutability": "nonpayable",
      "type": "function"
    },
    {
      "inputs": [
        {
          "internalType": "uint256",
          "name": "",
          "type": "uint256"
        }
      ],
      "name": "names",
      "outputs": [
        {
          "internalType": "string",
          "name": "",
          "type": "string"
        }
      ],
      "stateMutability": "view",
      "type": "function"
    },
    {
      "inputs": [],
      "name": "nextBillingDate",
      "outputs": [
        {
          "internalType": "uint256",
          "name": "",
          "type": "uint256"
        }
      ],
      "stateMutability": "view",
      "type": "function"
    },
    {
      "inputs": [
        {
          "internalType": "uint256",
          "name": "",
          "type": "uint256"
        }
      ],
      "name": "operators",
      "outputs": [
        {
          "internalType": "int256",
          "name": "",
          "type": "int256"
        }
      ],
      "stateMutability": "view",
      "type": "function"
    },
    {
      "inputs": [
        {
          "internalType": "uint256",
          "name": "",
          "type": "uint256"
        }
      ],
      "name": "original",
      "outputs": [
        {
          "internalType": "string",
          "name": "",
          "type": "string"
        }
      ],
      "stateMutability": "view",
      "type": "function"
    },
    {
      "inputs": [],
      "name": "paid",
      "outputs": [
        {
          "internalType": "bool",
          "name": "",
          "type": "bool"
        }
      ],
      "stateMutability": "view",
      "type": "function"
    },
    {
      "inputs": [],
      "name": "payee",
      "outputs": [
        {
          "internalType": "address payable",
          "name": "",
          "type": "address"
        }
      ],
      "stateMutability": "view",
      "type": "function"
    },
    {
      "inputs": [],
      "name": "payeeApproved",
      "outputs": [
        {
          "internalType": "bool",
          "name": "",
          "type": "bool"
        }
      ],
      "stateMutability": "view",
      "type": "function"
    },
    {
      "inputs": [],
      "name": "prevBillingDate",
      "outputs": [
        {
          "internalType": "uint256",
          "name": "",
          "type": "uint256"
        }
      ],
      "stateMutability": "view",
      "type": "function"
    },
    {
      "inputs": [
        {
          "internalType": "int256[]",
          "name": "_cumulative",
          "type": "int256[]"
        }
      ],
      "name": "receiveServiceData",
      "outputs": [],
      "stateMutability": "nonpayable",
      "type": "function"
    },
    {
      "inputs": [
        {
          "internalType": "int256[]",
          "name": "_cumulative",
          "type": "int256[]"
        }
      ],
      "name": "receiveServiceDataBypass",
      "outputs": [],
      "stateMutability": "nonpayable",
      "type": "function"
    },
    {
      "inputs": [],
      "name": "satisfied",
      "outputs": [
        {
          "internalType": "bool",
          "name": "",
          "type": "bool"
        }
      ],
      "stateMutability": "view",
      "type": "function"
    },
    {
      "inputs": [],
      "name": "setActive",
      "outputs": [],
      "stateMutability": "nonpayable",
      "type": "function"
    },
    {
      "inputs": [
        {
          "internalType": "string[8]",
          "name": "_names",
          "type": "string[8]"
        },
        {
          "internalType": "int256[8]",
          "name": "_values",
          "type": "int256[8]"
        },
        {
          "internalType": "string[8]",
          "name": "_operators",
          "type": "string[8]"
        }
      ],
      "name": "setConds",
      "outputs": [],
      "stateMutability": "nonpayable",
      "type": "function"
    },
    {
      "inputs": [],
      "name": "setInactive",
      "outputs": [],
      "stateMutability": "nonpayable",
      "type": "function"
    },
    {
      "inputs": [
        {
          "internalType": "address",
          "name": "_payee",
          "type": "address"
        }
      ],
      "name": "setPayee",
      "outputs": [],
      "stateMutability": "nonpayable",
      "type": "function"
    },
    {
      "inputs": [],
      "name": "stage",
      "outputs": [
        {
          "internalType": "enum Vendor.Stages",
          "name": "",
          "type": "uint8"
        }
      ],
      "stateMutability": "view",
      "type": "function"
    },
    {
      "inputs": [],
      "name": "startDate",
      "outputs": [
        {
          "internalType": "uint256",
          "name": "",
          "type": "uint256"
        }
      ],
      "stateMutability": "view",
      "type": "function"
    },
    {
      "inputs": [],
      "name": "storePayment",
      "outputs": [],
      "stateMutability": "payable",
      "type": "function"
    },
    {
      "inputs": [
        {
          "internalType": "uint256",
          "name": "",
          "type": "uint256"
        }
      ],
      "name": "values",
      "outputs": [
        {
          "internalType": "int256",
          "name": "",
          "type": "int256"
        }
      ],
      "stateMutability": "view",
      "type": "function"
    }
  ],
  "devdoc": {
    "kind": "dev",
    "methods": {},
    "version": 1
  },
  "evm": {
    "assembly": "    /* \"Vendor.sol\":151:11900  contract Vendor {... */\n  mstore(0x40, 0x80)\n    /* \"Vendor.sol\":821:840  Stages.Initialising */\n  0x00\n    /* \"Vendor.sol\":799:840  Stages public stage = Stages.Initialising */\n  0x09\n  exp(0x0100, 0x00)\n  dup2\n  sload\n  dup2\n  0xff\n  mul\n  not\n  and\n  swap1\n  dup4\n  0x04\n  dup2\n  gt\n  iszero\n  tag_1\n  jumpi\n  tag_2\n  tag_3\n  jump\t// in\ntag_2:\ntag_1:\n  mul\n  or\n  swap1\n  sstore\n  pop\n    /* \"Vendor.sol\":893:898  false */\n  0x00\n    /* \"Vendor.sol\":869:898  bool public satisfied = false */\n  0x09\n  exp(0x0100, 0x01)\n  dup2\n  sload\n  dup2\n  0xff\n  mul\n  not\n  and\n  swap1\n  dup4\n  iszero\n  iszero\n  mul\n  or\n  swap1\n  sstore\n  pop\n    /* \"Vendor.sol\":1125:1126  0 */\n  0x00\n    /* \"Vendor.sol\":1095:1126  uint private conditionCount = 0 */\n  0x2b\n  sstore\n    /* \"Vendor.sol\":1467:1468  0 */\n  0x00\n    /* \"Vendor.sol\":1447:1468  int private count = 0 */\n  0x2d\n  sstore\n    /* \"Vendor.sol\":151:11900  contract Vendor {... */\n  callvalue\n  dup1\n  iszero\n  tag_4\n  jumpi\n  0x00\n  dup1\n  revert\ntag_4:\n  pop\n  jump(tag_5)\n    /* \"#utility.yul\":7:187   */\ntag_3:\n    /* \"#utility.yul\":55:132   */\n  0x4e487b7100000000000000000000000000000000000000000000000000000000\n    /* \"#utility.yul\":52:53   */\n  0x00\n    /* \"#utility.yul\":45:133   */\n  mstore\n    /* \"#utility.yul\":152:156   */\n  0x21\n    /* \"#utility.yul\":149:150   */\n  0x04\n    /* \"#utility.yul\":142:157   */\n  mstore\n    /* \"#utility.yul\":176:180   */\n  0x24\n    /* \"#utility.yul\":173:174   */\n  0x00\n    /* \"#utility.yul\":166:181   */\n  revert\n    /* \"Vendor.sol\":151:11900  contract Vendor {... */\ntag_5:\n  dataSize(sub_0)\n  dup1\n  dataOffset(sub_0)\n  0x00\n  codecopy\n  0x00\n  return\nstop\n\nsub_0: assembly {\n        /* \"Vendor.sol\":151:11900  contract Vendor {... */\n      mstore(0x40, 0x80)\n      jumpi(tag_1, lt(calldatasize, 0x04))\n      shr(0xe0, calldataload(0x00))\n      dup1\n      0x760a8c2a\n      gt\n      tag_33\n      jumpi\n      dup1\n      0xae90b213\n      gt\n      tag_34\n      jumpi\n      dup1\n      0xf1b9ee24\n      gt\n      tag_35\n      jumpi\n      dup1\n      0xf1b9ee24\n      eq\n      tag_29\n      jumpi\n      dup1\n      0xf851a440\n      eq\n      tag_30\n      jumpi\n      dup1\n      0xfadeaa59\n      eq\n      tag_31\n      jumpi\n      dup1\n      0xfbbf93a0\n      eq\n      tag_32\n      jumpi\n      jump(tag_1)\n    tag_35:\n      dup1\n      0xae90b213\n      eq\n      tag_25\n      jumpi\n      dup1\n      0xc040e6b8\n      eq\n      tag_26\n      jumpi\n      dup1\n      0xe28d4906\n      eq\n      tag_27\n      jumpi\n      dup1\n      0xe9d94c58\n      eq\n      tag_28\n      jumpi\n      jump(tag_1)\n    tag_34:\n      dup1\n      0x97c0bba1\n      gt\n      tag_36\n      jumpi\n      dup1\n      0x97c0bba1\n      eq\n      tag_21\n      jumpi\n      dup1\n      0x9a730617\n      eq\n      tag_22\n      jumpi\n      dup1\n      0xa2c14ad3\n      eq\n      tag_23\n      jumpi\n      dup1\n      0xaa8c217c\n      eq\n      tag_24\n      jumpi\n      jump(tag_1)\n    tag_36:\n      dup1\n      0x760a8c2a\n      eq\n      tag_17\n      jumpi\n      dup1\n      0x83197ef0\n      eq\n      tag_18\n      jumpi\n      dup1\n      0x84ac4446\n      eq\n      tag_19\n      jumpi\n      dup1\n      0x904c6094\n      eq\n      tag_20\n      jumpi\n      jump(tag_1)\n    tag_33:\n      dup1\n      0x410459ad\n      gt\n      tag_37\n      jumpi\n      dup1\n      0x516dde43\n      gt\n      tag_38\n      jumpi\n      dup1\n      0x516dde43\n      eq\n      tag_13\n      jumpi\n      dup1\n      0x5e383d21\n      eq\n      tag_14\n      jumpi\n      dup1\n      0x717eb03f\n      eq\n      tag_15\n      jumpi\n      dup1\n      0x722713f7\n      eq\n      tag_16\n      jumpi\n      jump(tag_1)\n    tag_38:\n      dup1\n      0x410459ad\n      eq\n      tag_9\n      jumpi\n      dup1\n      0x43885314\n      eq\n      tag_10\n      jumpi\n      dup1\n      0x4622ab03\n      eq\n      tag_11\n      jumpi\n      dup1\n      0x4636731c\n      eq\n      tag_12\n      jumpi\n      jump(tag_1)\n    tag_37:\n      dup1\n      0x21ce5afd\n      gt\n      tag_39\n      jumpi\n      dup1\n      0x21ce5afd\n      eq\n      tag_5\n      jumpi\n      dup1\n      0x25419c24\n      eq\n      tag_6\n      jumpi\n      dup1\n      0x295b4e17\n      eq\n      tag_7\n      jumpi\n      dup1\n      0x3a40f3b2\n      eq\n      tag_8\n      jumpi\n      jump(tag_1)\n    tag_39:\n      dup1\n      0x0b97bc86\n      eq\n      tag_2\n      jumpi\n      dup1\n      0x109e94cf\n      eq\n      tag_3\n      jumpi\n      dup1\n      0x12424e3f\n      eq\n      tag_4\n      jumpi\n    tag_1:\n      0x00\n      dup1\n      revert\n        /* \"Vendor.sol\":382:403  uint public startDate */\n    tag_2:\n      callvalue\n      dup1\n      iszero\n      tag_40\n      jumpi\n      0x00\n      dup1\n      revert\n    tag_40:\n      pop\n      tag_41\n      tag_42\n      jump\t// in\n    tag_41:\n      mload(0x40)\n      tag_43\n      swap2\n      swap1\n      tag_44\n      jump\t// in\n    tag_43:\n      mload(0x40)\n      dup1\n      swap2\n      sub\n      swap1\n      return\n        /* \"Vendor.sol\":199:228  address payable public client */\n    tag_3:\n      callvalue\n      dup1\n      iszero\n      tag_45\n      jumpi\n      0x00\n      dup1\n      revert\n    tag_45:\n      pop\n      tag_46\n      tag_47\n      jump\t// in\n    tag_46:\n      mload(0x40)\n      tag_48\n      swap2\n      swap1\n      tag_49\n      jump\t// in\n    tag_48:\n      mload(0x40)\n      dup1\n      swap2\n      sub\n      swap1\n      return\n        /* \"Vendor.sol\":4817:5033  function approve() external atStage(Stages.Pending) {... */\n    tag_4:\n      callvalue\n      dup1\n      iszero\n      tag_50\n      jumpi\n      0x00\n      dup1\n      revert\n    tag_50:\n      pop\n      tag_51\n      tag_52\n      jump\t// in\n    tag_51:\n      stop\n        /* \"Vendor.sol\":6564:6800  function receiveServiceData(int[] memory _cumulative) external atStage(Stages.Active) checkBillingDate() {... */\n    tag_5:\n      callvalue\n      dup1\n      iszero\n      tag_53\n      jumpi\n      0x00\n      dup1\n      revert\n    tag_53:\n      pop\n      tag_54\n      0x04\n      dup1\n      calldatasize\n      sub\n      dup2\n      add\n      swap1\n      tag_55\n      swap2\n      swap1\n      tag_56\n      jump\t// in\n    tag_55:\n      tag_57\n      jump\t// in\n    tag_54:\n      stop\n        /* \"Vendor.sol\":585:612  uint public prevBillingDate */\n    tag_6:\n      callvalue\n      dup1\n      iszero\n      tag_58\n      jumpi\n      0x00\n      dup1\n      revert\n    tag_58:\n      pop\n      tag_59\n      tag_60\n      jump\t// in\n    tag_59:\n      mload(0x40)\n      tag_61\n      swap2\n      swap1\n      tag_44\n      jump\t// in\n    tag_61:\n      mload(0x40)\n      dup1\n      swap2\n      sub\n      swap1\n      return\n        /* \"Vendor.sol\":359:375  bool public paid */\n    tag_7:\n      callvalue\n      dup1\n      iszero\n      tag_62\n      jumpi\n      0x00\n      dup1\n      revert\n    tag_62:\n      pop\n      tag_63\n      tag_64\n      jump\t// in\n    tag_63:\n      mload(0x40)\n      tag_65\n      swap2\n      swap1\n      tag_66\n      jump\t// in\n    tag_65:\n      mload(0x40)\n      dup1\n      swap2\n      sub\n      swap1\n      return\n        /* \"Vendor.sol\":869:898  bool public satisfied = false */\n    tag_8:\n      callvalue\n      dup1\n      iszero\n      tag_67\n      jumpi\n      0x00\n      dup1\n      revert\n    tag_67:\n      pop\n      tag_68\n      tag_69\n      jump\t// in\n    tag_68:\n      mload(0x40)\n      tag_70\n      swap2\n      swap1\n      tag_66\n      jump\t// in\n    tag_70:\n      mload(0x40)\n      dup1\n      swap2\n      sub\n      swap1\n      return\n        /* \"Vendor.sol\":4079:4162  function setPayee(address _payee) external {... */\n    tag_9:\n      callvalue\n      dup1\n      iszero\n      tag_71\n      jumpi\n      0x00\n      dup1\n      revert\n    tag_71:\n      pop\n      tag_72\n      0x04\n      dup1\n      calldatasize\n      sub\n      dup2\n      add\n      swap1\n      tag_73\n      swap2\n      swap1\n      tag_74\n      jump\t// in\n    tag_73:\n      tag_75\n      jump\t// in\n    tag_72:\n      stop\n        /* \"Vendor.sol\":618:645  uint public nextBillingDate */\n    tag_10:\n      callvalue\n      dup1\n      iszero\n      tag_76\n      jumpi\n      0x00\n      dup1\n      revert\n    tag_76:\n      pop\n      tag_77\n      tag_78\n      jump\t// in\n    tag_77:\n      mload(0x40)\n      tag_79\n      swap2\n      swap1\n      tag_44\n      jump\t// in\n    tag_79:\n      mload(0x40)\n      dup1\n      swap2\n      sub\n      swap1\n      return\n        /* \"Vendor.sol\":936:958  string[8] public names */\n    tag_11:\n      callvalue\n      dup1\n      iszero\n      tag_80\n      jumpi\n      0x00\n      dup1\n      revert\n    tag_80:\n      pop\n      tag_81\n      0x04\n      dup1\n      calldatasize\n      sub\n      dup2\n      add\n      swap1\n      tag_82\n      swap2\n      swap1\n      tag_83\n      jump\t// in\n    tag_82:\n      tag_84\n      jump\t// in\n    tag_81:\n      mload(0x40)\n      tag_85\n      swap2\n      swap1\n      tag_86\n      jump\t// in\n    tag_85:\n      mload(0x40)\n      dup1\n      swap2\n      sub\n      swap1\n      return\n        /* \"Vendor.sol\":7968:8559  function isSatisfiedBypass() public atStage(Stages.Active) {... */\n    tag_12:\n      callvalue\n      dup1\n      iszero\n      tag_87\n      jumpi\n      0x00\n      dup1\n      revert\n    tag_87:\n      pop\n      tag_88\n      tag_89\n      jump\t// in\n    tag_88:\n      stop\n        /* \"Vendor.sol\":453:475  uint public expiryDate */\n    tag_13:\n      callvalue\n      dup1\n      iszero\n      tag_90\n      jumpi\n      0x00\n      dup1\n      revert\n    tag_90:\n      pop\n      tag_91\n      tag_92\n      jump\t// in\n    tag_91:\n      mload(0x40)\n      tag_93\n      swap2\n      swap1\n      tag_44\n      jump\t// in\n    tag_93:\n      mload(0x40)\n      dup1\n      swap2\n      sub\n      swap1\n      return\n        /* \"Vendor.sol\":964:984  int[8] public values */\n    tag_14:\n      callvalue\n      dup1\n      iszero\n      tag_94\n      jumpi\n      0x00\n      dup1\n      revert\n    tag_94:\n      pop\n      tag_95\n      0x04\n      dup1\n      calldatasize\n      sub\n      dup2\n      add\n      swap1\n      tag_96\n      swap2\n      swap1\n      tag_83\n      jump\t// in\n    tag_96:\n      tag_97\n      jump\t// in\n    tag_95:\n      mload(0x40)\n      tag_98\n      swap2\n      swap1\n      tag_99\n      jump\t// in\n    tag_98:\n      mload(0x40)\n      dup1\n      swap2\n      sub\n      swap1\n      return\n        /* \"Vendor.sol\":1019:1044  string[8] public original */\n    tag_15:\n      callvalue\n      dup1\n      iszero\n      tag_100\n      jumpi\n      0x00\n      dup1\n      revert\n    tag_100:\n      pop\n      tag_101\n      0x04\n      dup1\n      calldatasize\n      sub\n      dup2\n      add\n      swap1\n      tag_102\n      swap2\n      swap1\n      tag_83\n      jump\t// in\n    tag_102:\n      tag_103\n      jump\t// in\n    tag_101:\n      mload(0x40)\n      tag_104\n      swap2\n      swap1\n      tag_86\n      jump\t// in\n    tag_104:\n      mload(0x40)\n      dup1\n      swap2\n      sub\n      swap1\n      return\n        /* \"Vendor.sol\":5674:5769  function balanceOf() external view returns (uint) {... */\n    tag_16:\n      callvalue\n      dup1\n      iszero\n      tag_105\n      jumpi\n      0x00\n      dup1\n      revert\n    tag_105:\n      pop\n      tag_106\n      tag_107\n      jump\t// in\n    tag_106:\n      mload(0x40)\n      tag_108\n      swap2\n      swap1\n      tag_44\n      jump\t// in\n    tag_108:\n      mload(0x40)\n      dup1\n      swap2\n      sub\n      swap1\n      return\n        /* \"Vendor.sol\":10500:10593  function setActive() external atStage(Stages.Inactive) {... */\n    tag_17:\n      callvalue\n      dup1\n      iszero\n      tag_109\n      jumpi\n      0x00\n      dup1\n      revert\n    tag_109:\n      pop\n      tag_110\n      tag_111\n      jump\t// in\n    tag_110:\n      stop\n        /* \"Vendor.sol\":10700:10790  function destroy() external atStage(Stages.Inactive) {... */\n    tag_18:\n      callvalue\n      dup1\n      iszero\n      tag_112\n      jumpi\n      0x00\n      dup1\n      revert\n    tag_112:\n      pop\n      tag_113\n      tag_114\n      jump\t// in\n    tag_113:\n      stop\n        /* \"Vendor.sol\":5490:5668  function storePayment() external payable atStage(Stages.Active) checkBillingDate() {... */\n    tag_19:\n      tag_115\n      tag_116\n      jump\t// in\n    tag_115:\n      stop\n        /* \"Vendor.sol\":651:675  uint public contractHash */\n    tag_20:\n      callvalue\n      dup1\n      iszero\n      tag_117\n      jumpi\n      0x00\n      dup1\n      revert\n    tag_117:\n      pop\n      tag_118\n      tag_119\n      jump\t// in\n    tag_118:\n      mload(0x40)\n      tag_120\n      swap2\n      swap1\n      tag_44\n      jump\t// in\n    tag_120:\n      mload(0x40)\n      dup1\n      swap2\n      sub\n      swap1\n      return\n        /* \"Vendor.sol\":328:353  bool public payeeApproved */\n    tag_21:\n      callvalue\n      dup1\n      iszero\n      tag_121\n      jumpi\n      0x00\n      dup1\n      revert\n    tag_121:\n      pop\n      tag_122\n      tag_123\n      jump\t// in\n    tag_122:\n      mload(0x40)\n      tag_124\n      swap2\n      swap1\n      tag_66\n      jump\t// in\n    tag_124:\n      mload(0x40)\n      dup1\n      swap2\n      sub\n      swap1\n      return\n        /* \"Vendor.sol\":2223:2654  function init(address _client, uint _expiredOn, uint _startDate, uint _contractHash, uint _amount) public {... */\n    tag_22:\n      callvalue\n      dup1\n      iszero\n      tag_125\n      jumpi\n      0x00\n      dup1\n      revert\n    tag_125:\n      pop\n      tag_126\n      0x04\n      dup1\n      calldatasize\n      sub\n      dup2\n      add\n      swap1\n      tag_127\n      swap2\n      swap1\n      tag_128\n      jump\t// in\n    tag_127:\n      tag_129\n      jump\t// in\n    tag_126:\n      stop\n        /* \"Vendor.sol\":7253:7838  function isSatisfied() public atStage(Stages.Active) {... */\n    tag_23:\n      callvalue\n      dup1\n      iszero\n      tag_130\n      jumpi\n      0x00\n      dup1\n      revert\n    tag_130:\n      pop\n      tag_131\n      tag_132\n      jump\t// in\n    tag_131:\n      stop\n        /* \"Vendor.sol\":525:543  uint public amount */\n    tag_24:\n      callvalue\n      dup1\n      iszero\n      tag_133\n      jumpi\n      0x00\n      dup1\n      revert\n    tag_133:\n      pop\n      tag_134\n      tag_135\n      jump\t// in\n    tag_134:\n      mload(0x40)\n      tag_136\n      swap2\n      swap1\n      tag_44\n      jump\t// in\n    tag_136:\n      mload(0x40)\n      dup1\n      swap2\n      sub\n      swap1\n      return\n        /* \"Vendor.sol\":270:298  address payable public payee */\n    tag_25:\n      callvalue\n      dup1\n      iszero\n      tag_137\n      jumpi\n      0x00\n      dup1\n      revert\n    tag_137:\n      pop\n      tag_138\n      tag_139\n      jump\t// in\n    tag_138:\n      mload(0x40)\n      tag_140\n      swap2\n      swap1\n      tag_49\n      jump\t// in\n    tag_140:\n      mload(0x40)\n      dup1\n      swap2\n      sub\n      swap1\n      return\n        /* \"Vendor.sol\":799:840  Stages public stage = Stages.Initialising */\n    tag_26:\n      callvalue\n      dup1\n      iszero\n      tag_141\n      jumpi\n      0x00\n      dup1\n      revert\n    tag_141:\n      pop\n      tag_142\n      tag_143\n      jump\t// in\n    tag_142:\n      mload(0x40)\n      tag_144\n      swap2\n      swap1\n      tag_145\n      jump\t// in\n    tag_144:\n      mload(0x40)\n      dup1\n      swap2\n      sub\n      swap1\n      return\n        /* \"Vendor.sol\":990:1013  int[8] public operators */\n    tag_27:\n      callvalue\n      dup1\n      iszero\n      tag_146\n      jumpi\n      0x00\n      dup1\n      revert\n    tag_146:\n      pop\n      tag_147\n      0x04\n      dup1\n      calldatasize\n      sub\n      dup2\n      add\n      swap1\n      tag_148\n      swap2\n      swap1\n      tag_83\n      jump\t// in\n    tag_148:\n      tag_149\n      jump\t// in\n    tag_147:\n      mload(0x40)\n      tag_150\n      swap2\n      swap1\n      tag_99\n      jump\t// in\n    tag_150:\n      mload(0x40)\n      dup1\n      swap2\n      sub\n      swap1\n      return\n        /* \"Vendor.sol\":6871:7094  function receiveServiceDataBypass(int[] memory _cumulative) external atStage(Stages.Active) {... */\n    tag_28:\n      callvalue\n      dup1\n      iszero\n      tag_151\n      jumpi\n      0x00\n      dup1\n      revert\n    tag_151:\n      pop\n      tag_152\n      0x04\n      dup1\n      calldatasize\n      sub\n      dup2\n      add\n      swap1\n      tag_153\n      swap2\n      swap1\n      tag_56\n      jump\t// in\n    tag_153:\n      tag_154\n      jump\t// in\n    tag_152:\n      stop\n        /* \"Vendor.sol\":10599:10694  function setInactive() external atStage(Stages.Active) {... */\n    tag_29:\n      callvalue\n      dup1\n      iszero\n      tag_155\n      jumpi\n      0x00\n      dup1\n      revert\n    tag_155:\n      pop\n      tag_156\n      tag_157\n      jump\t// in\n    tag_156:\n      stop\n        /* \"Vendor.sol\":173:193  address public admin */\n    tag_30:\n      callvalue\n      dup1\n      iszero\n      tag_158\n      jumpi\n      0x00\n      dup1\n      revert\n    tag_158:\n      pop\n      tag_159\n      tag_160\n      jump\t// in\n    tag_159:\n      mload(0x40)\n      tag_161\n      swap2\n      swap1\n      tag_162\n      jump\t// in\n    tag_161:\n      mload(0x40)\n      dup1\n      swap2\n      sub\n      swap1\n      return\n        /* \"Vendor.sol\":3213:4073  function setConds(string[8] memory _names, int[8] memory _values, string[8] memory _operators) external atStage(Stages.Initialising) {... */\n    tag_31:\n      callvalue\n      dup1\n      iszero\n      tag_163\n      jumpi\n      0x00\n      dup1\n      revert\n    tag_163:\n      pop\n      tag_164\n      0x04\n      dup1\n      calldatasize\n      sub\n      dup2\n      add\n      swap1\n      tag_165\n      swap2\n      swap1\n      tag_166\n      jump\t// in\n    tag_165:\n      tag_167\n      jump\t// in\n    tag_164:\n      stop\n        /* \"Vendor.sol\":5191:5484  function getDetails() external view returns (address, address, uint, uint, uint, uint, uint, uint, string[8] memory, int[8] memory, string[8] memory) {... */\n    tag_32:\n      callvalue\n      dup1\n      iszero\n      tag_168\n      jumpi\n      0x00\n      dup1\n      revert\n    tag_168:\n      pop\n      tag_169\n      tag_170\n      jump\t// in\n    tag_169:\n      mload(0x40)\n      tag_171\n      swap12\n      swap11\n      swap10\n      swap9\n      swap8\n      swap7\n      swap6\n      swap5\n      swap4\n      swap3\n      swap2\n      swap1\n      tag_172\n      jump\t// in\n    tag_171:\n      mload(0x40)\n      dup1\n      swap2\n      sub\n      swap1\n      return\n        /* \"Vendor.sol\":382:403  uint public startDate */\n    tag_42:\n      sload(0x03)\n      dup2\n      jump\t// out\n        /* \"Vendor.sol\":199:228  address payable public client */\n    tag_47:\n      0x01\n      0x00\n      swap1\n      sload\n      swap1\n      0x0100\n      exp\n      swap1\n      div\n      0xffffffffffffffffffffffffffffffffffffffff\n      and\n      dup2\n      jump\t// out\n        /* \"Vendor.sol\":4817:5033  function approve() external atStage(Stages.Pending) {... */\n    tag_52:\n        /* \"Vendor.sol\":4853:4867  Stages.Pending */\n      0x01\n        /* \"Vendor.sol\":11708:11714  _stage */\n      dup1\n        /* \"Vendor.sol\":11703:11715  uint(_stage) */\n      0x04\n      dup2\n      gt\n      iszero\n      tag_174\n      jumpi\n      tag_175\n      tag_176\n      jump\t// in\n    tag_175:\n    tag_174:\n        /* \"Vendor.sol\":11693:11698  stage */\n      0x09\n      0x00\n      swap1\n      sload\n      swap1\n      0x0100\n      exp\n      swap1\n      div\n      0xff\n      and\n        /* \"Vendor.sol\":11688:11699  uint(stage) */\n      0x04\n      dup2\n      gt\n      iszero\n      tag_177\n      jumpi\n      tag_178\n      tag_176\n      jump\t// in\n    tag_178:\n    tag_177:\n        /* \"Vendor.sol\":11688:11715  uint(stage) == uint(_stage) */\n      eq\n        /* \"Vendor.sol\":11680:11757  require(uint(stage) == uint(_stage), \"Contract is not in the required state\") */\n      tag_179\n      jumpi\n      mload(0x40)\n      0x08c379a000000000000000000000000000000000000000000000000000000000\n      dup2\n      mstore\n      0x04\n      add\n      tag_180\n      swap1\n      tag_181\n      jump\t// in\n    tag_180:\n      mload(0x40)\n      dup1\n      swap2\n      sub\n      swap1\n      revert\n    tag_179:\n        /* \"Vendor.sol\":4901:4906  admin */\n      0x00\n      dup1\n      sload\n      swap1\n      0x0100\n      exp\n      swap1\n      div\n      0xffffffffffffffffffffffffffffffffffffffff\n      and\n        /* \"Vendor.sol\":4887:4906  msg.sender == admin */\n      0xffffffffffffffffffffffffffffffffffffffff\n      and\n        /* \"Vendor.sol\":4887:4897  msg.sender */\n      caller\n        /* \"Vendor.sol\":4887:4906  msg.sender == admin */\n      0xffffffffffffffffffffffffffffffffffffffff\n      and\n      eq\n        /* \"Vendor.sol\":4879:4965  require(msg.sender == admin, \"Cannot call this function directly, use VendorFactory.\") */\n      tag_183\n      jumpi\n      mload(0x40)\n      0x08c379a000000000000000000000000000000000000000000000000000000000\n      dup2\n      mstore\n      0x04\n      add\n      tag_184\n      swap1\n      tag_185\n      jump\t// in\n    tag_184:\n      mload(0x40)\n      dup1\n      swap2\n      sub\n      swap1\n      revert\n    tag_183:\n        /* \"Vendor.sol\":4991:4995  true */\n      0x01\n        /* \"Vendor.sol\":4975:4988  payeeApproved */\n      0x02\n      0x14\n        /* \"Vendor.sol\":4975:4995  payeeApproved = true */\n      0x0100\n      exp\n      dup2\n      sload\n      dup2\n      0xff\n      mul\n      not\n      and\n      swap1\n      dup4\n      iszero\n      iszero\n      mul\n      or\n      swap1\n      sstore\n      pop\n        /* \"Vendor.sol\":5013:5026  Stages.Active */\n      0x03\n        /* \"Vendor.sol\":5005:5010  stage */\n      0x09\n      0x00\n        /* \"Vendor.sol\":5005:5026  stage = Stages.Active */\n      0x0100\n      exp\n      dup2\n      sload\n      dup2\n      0xff\n      mul\n      not\n      and\n      swap1\n      dup4\n      0x04\n      dup2\n      gt\n      iszero\n      tag_186\n      jumpi\n      tag_187\n      tag_176\n      jump\t// in\n    tag_187:\n    tag_186:\n      mul\n      or\n      swap1\n      sstore\n      pop\n        /* \"Vendor.sol\":4817:5033  function approve() external atStage(Stages.Pending) {... */\n      pop\n      jump\t// out\n        /* \"Vendor.sol\":6564:6800  function receiveServiceData(int[] memory _cumulative) external atStage(Stages.Active) checkBillingDate() {... */\n    tag_57:\n        /* \"Vendor.sol\":6635:6648  Stages.Active */\n      0x03\n        /* \"Vendor.sol\":11708:11714  _stage */\n      dup1\n        /* \"Vendor.sol\":11703:11715  uint(_stage) */\n      0x04\n      dup2\n      gt\n      iszero\n      tag_189\n      jumpi\n      tag_190\n      tag_176\n      jump\t// in\n    tag_190:\n    tag_189:\n        /* \"Vendor.sol\":11693:11698  stage */\n      0x09\n      0x00\n      swap1\n      sload\n      swap1\n      0x0100\n      exp\n      swap1\n      div\n      0xff\n      and\n        /* \"Vendor.sol\":11688:11699  uint(stage) */\n      0x04\n      dup2\n      gt\n      iszero\n      tag_191\n      jumpi\n      tag_192\n      tag_176\n      jump\t// in\n    tag_192:\n    tag_191:\n        /* \"Vendor.sol\":11688:11715  uint(stage) == uint(_stage) */\n      eq\n        /* \"Vendor.sol\":11680:11757  require(uint(stage) == uint(_stage), \"Contract is not in the required state\") */\n      tag_193\n      jumpi\n      mload(0x40)\n      0x08c379a000000000000000000000000000000000000000000000000000000000\n      dup2\n      mstore\n      0x04\n      add\n      tag_194\n      swap1\n      tag_181\n      jump\t// in\n    tag_194:\n      mload(0x40)\n      dup1\n      swap2\n      sub\n      swap1\n      revert\n    tag_193:\n        /* \"Vendor.sol\":11197:11212  nextBillingDate */\n      sload(0x07)\n        /* \"Vendor.sol\":11182:11194  block.number */\n      number\n        /* \"Vendor.sol\":11182:11212  block.number > nextBillingDate */\n      gt\n        /* \"Vendor.sol\":11178:11406  if (block.number > nextBillingDate) {... */\n      iszero\n      tag_196\n      jumpi\n        /* \"Vendor.sol\":11228:11241  isSatisfied() */\n      tag_197\n        /* \"Vendor.sol\":11228:11239  isSatisfied */\n      tag_132\n        /* \"Vendor.sol\":11228:11241  isSatisfied() */\n      jump\t// in\n    tag_197:\n        /* \"Vendor.sol\":11178:11406  if (block.number > nextBillingDate) {... */\n      jump(tag_198)\n    tag_196:\n        /* \"Vendor.sol\":11296:11311  prevBillingDate */\n      sload(0x06)\n        /* \"Vendor.sol\":11280:11292  block.number */\n      number\n        /* \"Vendor.sol\":11280:11311  block.number >= prevBillingDate */\n      lt\n      iszero\n        /* \"Vendor.sol\":11280:11346  block.number >= prevBillingDate && block.number <= nextBillingDate */\n      dup1\n      iszero\n      tag_199\n      jumpi\n      pop\n        /* \"Vendor.sol\":11331:11346  nextBillingDate */\n      sload(0x07)\n        /* \"Vendor.sol\":11315:11327  block.number */\n      number\n        /* \"Vendor.sol\":11315:11346  block.number <= nextBillingDate */\n      gt\n      iszero\n        /* \"Vendor.sol\":11280:11346  block.number >= prevBillingDate && block.number <= nextBillingDate */\n    tag_199:\n        /* \"Vendor.sol\":11272:11380  require(block.number >= prevBillingDate && block.number <= nextBillingDate, \"Not within the billing period\") */\n      tag_200\n      jumpi\n      mload(0x40)\n      0x08c379a000000000000000000000000000000000000000000000000000000000\n      dup2\n      mstore\n      0x04\n      add\n      tag_201\n      swap1\n      tag_202\n      jump\t// in\n    tag_201:\n      mload(0x40)\n      dup1\n      swap2\n      sub\n      swap1\n      revert\n    tag_200:\n        /* \"Vendor.sol\":6684:6690  uint i */\n      0x00\n        /* \"Vendor.sol\":6679:6777  for (uint i = 0; i < conditionCount; i++) {... */\n    tag_204:\n        /* \"Vendor.sol\":6700:6714  conditionCount */\n      sload(0x2b)\n        /* \"Vendor.sol\":6696:6697  i */\n      dup2\n        /* \"Vendor.sol\":6696:6714  i < conditionCount */\n      lt\n        /* \"Vendor.sol\":6679:6777  for (uint i = 0; i < conditionCount; i++) {... */\n      iszero\n      tag_205\n      jumpi\n        /* \"Vendor.sol\":6752:6763  _cumulative */\n      dup3\n        /* \"Vendor.sol\":6764:6765  i */\n      dup2\n        /* \"Vendor.sol\":6752:6766  _cumulative[i] */\n      dup2\n      mload\n      dup2\n      lt\n      tag_207\n      jumpi\n      tag_208\n      tag_209\n      jump\t// in\n    tag_208:\n    tag_207:\n      0x20\n      mul\n      0x20\n      add\n      add\n      mload\n        /* \"Vendor.sol\":6735:6745  cumulative */\n      0x2c\n        /* \"Vendor.sol\":6735:6748  cumulative[i] */\n      0x00\n        /* \"Vendor.sol\":6746:6747  i */\n      dup4\n        /* \"Vendor.sol\":6735:6748  cumulative[i] */\n      dup2\n      mstore\n      0x20\n      add\n      swap1\n      dup2\n      mstore\n      0x20\n      add\n      0x00\n      keccak256\n      0x00\n        /* \"Vendor.sol\":6735:6766  cumulative[i] += _cumulative[i] */\n      dup3\n      dup3\n      sload\n      tag_210\n      swap2\n      swap1\n      tag_211\n      jump\t// in\n    tag_210:\n      swap3\n      pop\n      pop\n      dup2\n      swap1\n      sstore\n      pop\n        /* \"Vendor.sol\":6716:6719  i++ */\n      dup1\n      dup1\n      tag_212\n      swap1\n      tag_213\n      jump\t// in\n    tag_212:\n      swap2\n      pop\n      pop\n        /* \"Vendor.sol\":6679:6777  for (uint i = 0; i < conditionCount; i++) {... */\n      jump(tag_204)\n    tag_205:\n      pop\n        /* \"Vendor.sol\":6786:6791  count */\n      0x2d\n      0x00\n        /* \"Vendor.sol\":6786:6793  count++ */\n      dup2\n      sload\n      dup1\n      swap3\n      swap2\n      swap1\n      tag_214\n      swap1\n      tag_215\n      jump\t// in\n    tag_214:\n      swap2\n      swap1\n      pop\n      sstore\n      pop\n        /* \"Vendor.sol\":11178:11406  if (block.number > nextBillingDate) {... */\n    tag_198:\n        /* \"Vendor.sol\":6564:6800  function receiveServiceData(int[] memory _cumulative) external atStage(Stages.Active) checkBillingDate() {... */\n      pop\n      pop\n      jump\t// out\n        /* \"Vendor.sol\":585:612  uint public prevBillingDate */\n    tag_60:\n      sload(0x06)\n      dup2\n      jump\t// out\n        /* \"Vendor.sol\":359:375  bool public paid */\n    tag_64:\n      0x02\n      0x15\n      swap1\n      sload\n      swap1\n      0x0100\n      exp\n      swap1\n      div\n      0xff\n      and\n      dup2\n      jump\t// out\n        /* \"Vendor.sol\":869:898  bool public satisfied = false */\n    tag_69:\n      0x09\n      0x01\n      swap1\n      sload\n      swap1\n      0x0100\n      exp\n      swap1\n      div\n      0xff\n      and\n      dup2\n      jump\t// out\n        /* \"Vendor.sol\":4079:4162  function setPayee(address _payee) external {... */\n    tag_75:\n        /* \"Vendor.sol\":4148:4154  _payee */\n      dup1\n        /* \"Vendor.sol\":4132:4137  payee */\n      0x02\n      0x00\n        /* \"Vendor.sol\":4132:4155  payee = payable(_payee) */\n      0x0100\n      exp\n      dup2\n      sload\n      dup2\n      0xffffffffffffffffffffffffffffffffffffffff\n      mul\n      not\n      and\n      swap1\n      dup4\n      0xffffffffffffffffffffffffffffffffffffffff\n      and\n      mul\n      or\n      swap1\n      sstore\n      pop\n        /* \"Vendor.sol\":4079:4162  function setPayee(address _payee) external {... */\n      pop\n      jump\t// out\n        /* \"Vendor.sol\":618:645  uint public nextBillingDate */\n    tag_78:\n      sload(0x07)\n      dup2\n      jump\t// out\n        /* \"Vendor.sol\":936:958  string[8] public names */\n    tag_84:\n      0x0a\n      dup2\n      0x08\n      dup2\n      lt\n      tag_217\n      jumpi\n      0x00\n      dup1\n      revert\n    tag_217:\n      add\n      0x00\n      swap2\n      pop\n      swap1\n      pop\n      dup1\n      sload\n      tag_219\n      swap1\n      tag_220\n      jump\t// in\n    tag_219:\n      dup1\n      0x1f\n      add\n      0x20\n      dup1\n      swap2\n      div\n      mul\n      0x20\n      add\n      mload(0x40)\n      swap1\n      dup2\n      add\n      0x40\n      mstore\n      dup1\n      swap3\n      swap2\n      swap1\n      dup2\n      dup2\n      mstore\n      0x20\n      add\n      dup3\n      dup1\n      sload\n      tag_221\n      swap1\n      tag_220\n      jump\t// in\n    tag_221:\n      dup1\n      iszero\n      tag_222\n      jumpi\n      dup1\n      0x1f\n      lt\n      tag_223\n      jumpi\n      0x0100\n      dup1\n      dup4\n      sload\n      div\n      mul\n      dup4\n      mstore\n      swap2\n      0x20\n      add\n      swap2\n      jump(tag_222)\n    tag_223:\n      dup3\n      add\n      swap2\n      swap1\n      0x00\n      mstore\n      keccak256(0x00, 0x20)\n      swap1\n    tag_224:\n      dup2\n      sload\n      dup2\n      mstore\n      swap1\n      0x01\n      add\n      swap1\n      0x20\n      add\n      dup1\n      dup4\n      gt\n      tag_224\n      jumpi\n      dup3\n      swap1\n      sub\n      0x1f\n      and\n      dup3\n      add\n      swap2\n    tag_222:\n      pop\n      pop\n      pop\n      pop\n      pop\n      dup2\n      jump\t// out\n        /* \"Vendor.sol\":7968:8559  function isSatisfiedBypass() public atStage(Stages.Active) {... */\n    tag_89:\n        /* \"Vendor.sol\":8012:8025  Stages.Active */\n      0x03\n        /* \"Vendor.sol\":11708:11714  _stage */\n      dup1\n        /* \"Vendor.sol\":11703:11715  uint(_stage) */\n      0x04\n      dup2\n      gt\n      iszero\n      tag_226\n      jumpi\n      tag_227\n      tag_176\n      jump\t// in\n    tag_227:\n    tag_226:\n        /* \"Vendor.sol\":11693:11698  stage */\n      0x09\n      0x00\n      swap1\n      sload\n      swap1\n      0x0100\n      exp\n      swap1\n      div\n      0xff\n      and\n        /* \"Vendor.sol\":11688:11699  uint(stage) */\n      0x04\n      dup2\n      gt\n      iszero\n      tag_228\n      jumpi\n      tag_229\n      tag_176\n      jump\t// in\n    tag_229:\n    tag_228:\n        /* \"Vendor.sol\":11688:11715  uint(stage) == uint(_stage) */\n      eq\n        /* \"Vendor.sol\":11680:11757  require(uint(stage) == uint(_stage), \"Contract is not in the required state\") */\n      tag_230\n      jumpi\n      mload(0x40)\n      0x08c379a000000000000000000000000000000000000000000000000000000000\n      dup2\n      mstore\n      0x04\n      add\n      tag_231\n      swap1\n      tag_181\n      jump\t// in\n    tag_231:\n      mload(0x40)\n      dup1\n      swap2\n      sub\n      swap1\n      revert\n    tag_230:\n        /* \"Vendor.sol\":8042:8048  uint i */\n      0x00\n        /* \"Vendor.sol\":8037:8421  for (uint i = 0; i < conditionCount; i++) {... */\n    tag_233:\n        /* \"Vendor.sol\":8058:8072  conditionCount */\n      sload(0x2b)\n        /* \"Vendor.sol\":8054:8055  i */\n      dup2\n        /* \"Vendor.sol\":8054:8072  i < conditionCount */\n      lt\n        /* \"Vendor.sol\":8037:8421  for (uint i = 0; i < conditionCount; i++) {... */\n      iszero\n      tag_234\n      jumpi\n        /* \"Vendor.sol\":8093:8105  int operator */\n      0x00\n        /* \"Vendor.sol\":8108:8117  operators */\n      0x1a\n        /* \"Vendor.sol\":8118:8119  i */\n      dup3\n        /* \"Vendor.sol\":8108:8120  operators[i] */\n      0x08\n      dup2\n      lt\n      tag_236\n      jumpi\n      tag_237\n      tag_209\n      jump\t// in\n    tag_237:\n    tag_236:\n      add\n      sload\n        /* \"Vendor.sol\":8093:8120  int operator = operators[i] */\n      swap1\n      pop\n        /* \"Vendor.sol\":8134:8143  int value */\n      0x00\n        /* \"Vendor.sol\":8146:8152  values */\n      0x12\n        /* \"Vendor.sol\":8153:8154  i */\n      dup4\n        /* \"Vendor.sol\":8146:8155  values[i] */\n      0x08\n      dup2\n      lt\n      tag_239\n      jumpi\n      tag_240\n      tag_209\n      jump\t// in\n    tag_240:\n    tag_239:\n      add\n      sload\n        /* \"Vendor.sol\":8134:8155  int value = values[i] */\n      swap1\n      pop\n        /* \"Vendor.sol\":8169:8181  int _toCheck */\n      0x00\n        /* \"Vendor.sol\":8198:8203  count */\n      sload(0x2d)\n        /* \"Vendor.sol\":8184:8194  cumulative */\n      0x2c\n        /* \"Vendor.sol\":8184:8197  cumulative[i] */\n      0x00\n        /* \"Vendor.sol\":8195:8196  i */\n      dup7\n        /* \"Vendor.sol\":8184:8197  cumulative[i] */\n      dup2\n      mstore\n      0x20\n      add\n      swap1\n      dup2\n      mstore\n      0x20\n      add\n      0x00\n      keccak256\n      sload\n        /* \"Vendor.sol\":8184:8203  cumulative[i]/count */\n      tag_242\n      swap2\n      swap1\n      tag_243\n      jump\t// in\n    tag_242:\n        /* \"Vendor.sol\":8169:8203  int _toCheck = cumulative[i]/count */\n      swap1\n      pop\n        /* \"Vendor.sol\":8235:8271  condValid(operator, _toCheck, value) */\n      tag_244\n        /* \"Vendor.sol\":8245:8253  operator */\n      dup4\n        /* \"Vendor.sol\":8255:8263  _toCheck */\n      dup3\n        /* \"Vendor.sol\":8265:8270  value */\n      dup5\n        /* \"Vendor.sol\":8235:8244  condValid */\n      tag_245\n        /* \"Vendor.sol\":8235:8271  condValid(operator, _toCheck, value) */\n      jump\t// in\n    tag_244:\n        /* \"Vendor.sol\":8230:8411  if (!condValid(operator, _toCheck, value)) {... */\n      tag_246\n      jumpi\n        /* \"Vendor.sol\":8291:8299  refund() */\n      tag_247\n        /* \"Vendor.sol\":8291:8297  refund */\n      tag_248\n        /* \"Vendor.sol\":8291:8299  refund() */\n      jump\t// in\n    tag_247:\n        /* \"Vendor.sol\":8328:8338  msg.sender */\n      caller\n        /* \"Vendor.sol\":8322:8372  State(msg.sender, satisfied, \"Refunding payment.\") */\n      0xffffffffffffffffffffffffffffffffffffffff\n      and\n      0xa84226bf2d14bde3fac454f52eaeab63aaeb1934da88f9263dd4ff7dd12acf71\n        /* \"Vendor.sol\":8340:8349  satisfied */\n      0x09\n      0x01\n      swap1\n      sload\n      swap1\n      0x0100\n      exp\n      swap1\n      div\n      0xff\n      and\n        /* \"Vendor.sol\":8322:8372  State(msg.sender, satisfied, \"Refunding payment.\") */\n      mload(0x40)\n      tag_249\n      swap2\n      swap1\n      tag_250\n      jump\t// in\n    tag_249:\n      mload(0x40)\n      dup1\n      swap2\n      sub\n      swap1\n      log2\n        /* \"Vendor.sol\":8390:8397  return; */\n      pop\n      pop\n      pop\n      pop\n      jump(tag_232)\n        /* \"Vendor.sol\":8230:8411  if (!condValid(operator, _toCheck, value)) {... */\n    tag_246:\n        /* \"Vendor.sol\":8079:8421  {... */\n      pop\n      pop\n      pop\n        /* \"Vendor.sol\":8074:8077  i++ */\n      dup1\n      dup1\n      tag_251\n      swap1\n      tag_213\n      jump\t// in\n    tag_251:\n      swap2\n      pop\n      pop\n        /* \"Vendor.sol\":8037:8421  for (uint i = 0; i < conditionCount; i++) {... */\n      jump(tag_233)\n    tag_234:\n      pop\n        /* \"Vendor.sol\":8441:8451  msg.sender */\n      caller\n        /* \"Vendor.sol\":8435:8483  State(msg.sender, satisfied, \"Sending payment.\") */\n      0xffffffffffffffffffffffffffffffffffffffff\n      and\n      0xa84226bf2d14bde3fac454f52eaeab63aaeb1934da88f9263dd4ff7dd12acf71\n        /* \"Vendor.sol\":8453:8462  satisfied */\n      0x09\n      0x01\n      swap1\n      sload\n      swap1\n      0x0100\n      exp\n      swap1\n      div\n      0xff\n      and\n        /* \"Vendor.sol\":8435:8483  State(msg.sender, satisfied, \"Sending payment.\") */\n      mload(0x40)\n      tag_252\n      swap2\n      swap1\n      tag_253\n      jump\t// in\n    tag_252:\n      mload(0x40)\n      dup1\n      swap2\n      sub\n      swap1\n      log2\n        /* \"Vendor.sol\":8541:8552  payVendor() */\n      tag_254\n        /* \"Vendor.sol\":8541:8550  payVendor */\n      tag_255\n        /* \"Vendor.sol\":8541:8552  payVendor() */\n      jump\t// in\n    tag_254:\n        /* \"Vendor.sol\":11767:11768  _ */\n    tag_232:\n        /* \"Vendor.sol\":7968:8559  function isSatisfiedBypass() public atStage(Stages.Active) {... */\n      pop\n      jump\t// out\n        /* \"Vendor.sol\":453:475  uint public expiryDate */\n    tag_92:\n      sload(0x04)\n      dup2\n      jump\t// out\n        /* \"Vendor.sol\":964:984  int[8] public values */\n    tag_97:\n      0x12\n      dup2\n      0x08\n      dup2\n      lt\n      tag_256\n      jumpi\n      0x00\n      dup1\n      revert\n    tag_256:\n      add\n      0x00\n      swap2\n      pop\n      swap1\n      pop\n      sload\n      dup2\n      jump\t// out\n        /* \"Vendor.sol\":1019:1044  string[8] public original */\n    tag_103:\n      0x22\n      dup2\n      0x08\n      dup2\n      lt\n      tag_258\n      jumpi\n      0x00\n      dup1\n      revert\n    tag_258:\n      add\n      0x00\n      swap2\n      pop\n      swap1\n      pop\n      dup1\n      sload\n      tag_260\n      swap1\n      tag_220\n      jump\t// in\n    tag_260:\n      dup1\n      0x1f\n      add\n      0x20\n      dup1\n      swap2\n      div\n      mul\n      0x20\n      add\n      mload(0x40)\n      swap1\n      dup2\n      add\n      0x40\n      mstore\n      dup1\n      swap3\n      swap2\n      swap1\n      dup2\n      dup2\n      mstore\n      0x20\n      add\n      dup3\n      dup1\n      sload\n      tag_261\n      swap1\n      tag_220\n      jump\t// in\n    tag_261:\n      dup1\n      iszero\n      tag_262\n      jumpi\n      dup1\n      0x1f\n      lt\n      tag_263\n      jumpi\n      0x0100\n      dup1\n      dup4\n      sload\n      div\n      mul\n      dup4\n      mstore\n      swap2\n      0x20\n      add\n      swap2\n      jump(tag_262)\n    tag_263:\n      dup3\n      add\n      swap2\n      swap1\n      0x00\n      mstore\n      keccak256(0x00, 0x20)\n      swap1\n    tag_264:\n      dup2\n      sload\n      dup2\n      mstore\n      swap1\n      0x01\n      add\n      swap1\n      0x20\n      add\n      dup1\n      dup4\n      gt\n      tag_264\n      jumpi\n      dup3\n      swap1\n      sub\n      0x1f\n      and\n      dup3\n      add\n      swap2\n    tag_262:\n      pop\n      pop\n      pop\n      pop\n      pop\n      dup2\n      jump\t// out\n        /* \"Vendor.sol\":5674:5769  function balanceOf() external view returns (uint) {... */\n    tag_107:\n        /* \"Vendor.sol\":5718:5722  uint */\n      0x00\n        /* \"Vendor.sol\":5741:5762  address(this).balance */\n      selfbalance\n        /* \"Vendor.sol\":5734:5762  return address(this).balance */\n      swap1\n      pop\n        /* \"Vendor.sol\":5674:5769  function balanceOf() external view returns (uint) {... */\n      swap1\n      jump\t// out\n        /* \"Vendor.sol\":10500:10593  function setActive() external atStage(Stages.Inactive) {... */\n    tag_111:\n        /* \"Vendor.sol\":10538:10553  Stages.Inactive */\n      0x02\n        /* \"Vendor.sol\":11708:11714  _stage */\n      dup1\n        /* \"Vendor.sol\":11703:11715  uint(_stage) */\n      0x04\n      dup2\n      gt\n      iszero\n      tag_267\n      jumpi\n      tag_268\n      tag_176\n      jump\t// in\n    tag_268:\n    tag_267:\n        /* \"Vendor.sol\":11693:11698  stage */\n      0x09\n      0x00\n      swap1\n      sload\n      swap1\n      0x0100\n      exp\n      swap1\n      div\n      0xff\n      and\n        /* \"Vendor.sol\":11688:11699  uint(stage) */\n      0x04\n      dup2\n      gt\n      iszero\n      tag_269\n      jumpi\n      tag_270\n      tag_176\n      jump\t// in\n    tag_270:\n    tag_269:\n        /* \"Vendor.sol\":11688:11715  uint(stage) == uint(_stage) */\n      eq\n        /* \"Vendor.sol\":11680:11757  require(uint(stage) == uint(_stage), \"Contract is not in the required state\") */\n      tag_271\n      jumpi\n      mload(0x40)\n      0x08c379a000000000000000000000000000000000000000000000000000000000\n      dup2\n      mstore\n      0x04\n      add\n      tag_272\n      swap1\n      tag_181\n      jump\t// in\n    tag_272:\n      mload(0x40)\n      dup1\n      swap2\n      sub\n      swap1\n      revert\n    tag_271:\n        /* \"Vendor.sol\":10573:10586  Stages.Active */\n      0x03\n        /* \"Vendor.sol\":10565:10570  stage */\n      0x09\n      0x00\n        /* \"Vendor.sol\":10565:10586  stage = Stages.Active */\n      0x0100\n      exp\n      dup2\n      sload\n      dup2\n      0xff\n      mul\n      not\n      and\n      swap1\n      dup4\n      0x04\n      dup2\n      gt\n      iszero\n      tag_274\n      jumpi\n      tag_275\n      tag_176\n      jump\t// in\n    tag_275:\n    tag_274:\n      mul\n      or\n      swap1\n      sstore\n      pop\n        /* \"Vendor.sol\":10500:10593  function setActive() external atStage(Stages.Inactive) {... */\n      pop\n      jump\t// out\n        /* \"Vendor.sol\":10700:10790  function destroy() external atStage(Stages.Inactive) {... */\n    tag_114:\n        /* \"Vendor.sol\":10736:10751  Stages.Inactive */\n      0x02\n        /* \"Vendor.sol\":11708:11714  _stage */\n      dup1\n        /* \"Vendor.sol\":11703:11715  uint(_stage) */\n      0x04\n      dup2\n      gt\n      iszero\n      tag_277\n      jumpi\n      tag_278\n      tag_176\n      jump\t// in\n    tag_278:\n    tag_277:\n        /* \"Vendor.sol\":11693:11698  stage */\n      0x09\n      0x00\n      swap1\n      sload\n      swap1\n      0x0100\n      exp\n      swap1\n      div\n      0xff\n      and\n        /* \"Vendor.sol\":11688:11699  uint(stage) */\n      0x04\n      dup2\n      gt\n      iszero\n      tag_279\n      jumpi\n      tag_280\n      tag_176\n      jump\t// in\n    tag_280:\n    tag_279:\n        /* \"Vendor.sol\":11688:11715  uint(stage) == uint(_stage) */\n      eq\n        /* \"Vendor.sol\":11680:11757  require(uint(stage) == uint(_stage), \"Contract is not in the required state\") */\n      tag_281\n      jumpi\n      mload(0x40)\n      0x08c379a000000000000000000000000000000000000000000000000000000000\n      dup2\n      mstore\n      0x04\n      add\n      tag_282\n      swap1\n      tag_181\n      jump\t// in\n    tag_282:\n      mload(0x40)\n      dup1\n      swap2\n      sub\n      swap1\n      revert\n    tag_281:\n        /* \"Vendor.sol\":10776:10782  client */\n      0x01\n      0x00\n      swap1\n      sload\n      swap1\n      0x0100\n      exp\n      swap1\n      div\n      0xffffffffffffffffffffffffffffffffffffffff\n      and\n        /* \"Vendor.sol\":10763:10783  selfdestruct(client) */\n      0xffffffffffffffffffffffffffffffffffffffff\n      and\n      selfdestruct\n        /* \"Vendor.sol\":5490:5668  function storePayment() external payable atStage(Stages.Active) checkBillingDate() {... */\n    tag_116:\n        /* \"Vendor.sol\":5539:5552  Stages.Active */\n      0x03\n        /* \"Vendor.sol\":11708:11714  _stage */\n      dup1\n        /* \"Vendor.sol\":11703:11715  uint(_stage) */\n      0x04\n      dup2\n      gt\n      iszero\n      tag_285\n      jumpi\n      tag_286\n      tag_176\n      jump\t// in\n    tag_286:\n    tag_285:\n        /* \"Vendor.sol\":11693:11698  stage */\n      0x09\n      0x00\n      swap1\n      sload\n      swap1\n      0x0100\n      exp\n      swap1\n      div\n      0xff\n      and\n        /* \"Vendor.sol\":11688:11699  uint(stage) */\n      0x04\n      dup2\n      gt\n      iszero\n      tag_287\n      jumpi\n      tag_288\n      tag_176\n      jump\t// in\n    tag_288:\n    tag_287:\n        /* \"Vendor.sol\":11688:11715  uint(stage) == uint(_stage) */\n      eq\n        /* \"Vendor.sol\":11680:11757  require(uint(stage) == uint(_stage), \"Contract is not in the required state\") */\n      tag_289\n      jumpi\n      mload(0x40)\n      0x08c379a000000000000000000000000000000000000000000000000000000000\n      dup2\n      mstore\n      0x04\n      add\n      tag_290\n      swap1\n      tag_181\n      jump\t// in\n    tag_290:\n      mload(0x40)\n      dup1\n      swap2\n      sub\n      swap1\n      revert\n    tag_289:\n        /* \"Vendor.sol\":11197:11212  nextBillingDate */\n      sload(0x07)\n        /* \"Vendor.sol\":11182:11194  block.number */\n      number\n        /* \"Vendor.sol\":11182:11212  block.number > nextBillingDate */\n      gt\n        /* \"Vendor.sol\":11178:11406  if (block.number > nextBillingDate) {... */\n      iszero\n      tag_292\n      jumpi\n        /* \"Vendor.sol\":11228:11241  isSatisfied() */\n      tag_293\n        /* \"Vendor.sol\":11228:11239  isSatisfied */\n      tag_132\n        /* \"Vendor.sol\":11228:11241  isSatisfied() */\n      jump\t// in\n    tag_293:\n        /* \"Vendor.sol\":11178:11406  if (block.number > nextBillingDate) {... */\n      jump(tag_294)\n    tag_292:\n        /* \"Vendor.sol\":11296:11311  prevBillingDate */\n      sload(0x06)\n        /* \"Vendor.sol\":11280:11292  block.number */\n      number\n        /* \"Vendor.sol\":11280:11311  block.number >= prevBillingDate */\n      lt\n      iszero\n        /* \"Vendor.sol\":11280:11346  block.number >= prevBillingDate && block.number <= nextBillingDate */\n      dup1\n      iszero\n      tag_295\n      jumpi\n      pop\n        /* \"Vendor.sol\":11331:11346  nextBillingDate */\n      sload(0x07)\n        /* \"Vendor.sol\":11315:11327  block.number */\n      number\n        /* \"Vendor.sol\":11315:11346  block.number <= nextBillingDate */\n      gt\n      iszero\n        /* \"Vendor.sol\":11280:11346  block.number >= prevBillingDate && block.number <= nextBillingDate */\n    tag_295:\n        /* \"Vendor.sol\":11272:11380  require(block.number >= prevBillingDate && block.number <= nextBillingDate, \"Not within the billing period\") */\n      tag_296\n      jumpi\n      mload(0x40)\n      0x08c379a000000000000000000000000000000000000000000000000000000000\n      dup2\n      mstore\n      0x04\n      add\n      tag_297\n      swap1\n      tag_202\n      jump\t// in\n    tag_297:\n      mload(0x40)\n      dup1\n      swap2\n      sub\n      swap1\n      revert\n    tag_296:\n        /* \"Vendor.sol\":5600:5606  amount */\n      sload(0x05)\n        /* \"Vendor.sol\":5587:5596  msg.value */\n      callvalue\n        /* \"Vendor.sol\":5587:5606  msg.value != amount */\n      eq\n        /* \"Vendor.sol\":5583:5641  if (msg.value != amount) {... */\n      tag_299\n      jumpi\n        /* \"Vendor.sol\":5622:5630  revert() */\n      0x00\n      dup1\n      revert\n        /* \"Vendor.sol\":5583:5641  if (msg.value != amount) {... */\n    tag_299:\n        /* \"Vendor.sol\":5657:5661  true */\n      0x01\n        /* \"Vendor.sol\":5650:5654  paid */\n      0x02\n      0x15\n        /* \"Vendor.sol\":5650:5661  paid = true */\n      0x0100\n      exp\n      dup2\n      sload\n      dup2\n      0xff\n      mul\n      not\n      and\n      swap1\n      dup4\n      iszero\n      iszero\n      mul\n      or\n      swap1\n      sstore\n      pop\n        /* \"Vendor.sol\":11178:11406  if (block.number > nextBillingDate) {... */\n    tag_294:\n        /* \"Vendor.sol\":5490:5668  function storePayment() external payable atStage(Stages.Active) checkBillingDate() {... */\n      pop\n      jump\t// out\n        /* \"Vendor.sol\":651:675  uint public contractHash */\n    tag_119:\n      sload(0x08)\n      dup2\n      jump\t// out\n        /* \"Vendor.sol\":328:353  bool public payeeApproved */\n    tag_123:\n      0x02\n      0x14\n      swap1\n      sload\n      swap1\n      0x0100\n      exp\n      swap1\n      div\n      0xff\n      and\n      dup2\n      jump\t// out\n        /* \"Vendor.sol\":2223:2654  function init(address _client, uint _expiredOn, uint _startDate, uint _contractHash, uint _amount) public {... */\n    tag_129:\n        /* \"Vendor.sol\":2347:2357  msg.sender */\n      caller\n        /* \"Vendor.sol\":2339:2344  admin */\n      0x00\n      dup1\n        /* \"Vendor.sol\":2339:2357  admin = msg.sender */\n      0x0100\n      exp\n      dup2\n      sload\n      dup2\n      0xffffffffffffffffffffffffffffffffffffffff\n      mul\n      not\n      and\n      swap1\n      dup4\n      0xffffffffffffffffffffffffffffffffffffffff\n      and\n      mul\n      or\n      swap1\n      sstore\n      pop\n        /* \"Vendor.sol\":2384:2391  _client */\n      dup5\n        /* \"Vendor.sol\":2367:2373  client */\n      0x01\n      0x00\n        /* \"Vendor.sol\":2367:2392  client = payable(_client) */\n      0x0100\n      exp\n      dup2\n      sload\n      dup2\n      0xffffffffffffffffffffffffffffffffffffffff\n      mul\n      not\n      and\n      swap1\n      dup4\n      0xffffffffffffffffffffffffffffffffffffffff\n      and\n      mul\n      or\n      swap1\n      sstore\n      pop\n        /* \"Vendor.sol\":2415:2425  _expiredOn */\n      dup4\n        /* \"Vendor.sol\":2402:2412  expiryDate */\n      0x04\n        /* \"Vendor.sol\":2402:2425  expiryDate = _expiredOn */\n      dup2\n      swap1\n      sstore\n      pop\n        /* \"Vendor.sol\":2447:2457  _startDate */\n      dup3\n        /* \"Vendor.sol\":2435:2444  startDate */\n      0x03\n        /* \"Vendor.sol\":2435:2457  startDate = _startDate */\n      dup2\n      swap1\n      sstore\n      pop\n        /* \"Vendor.sol\":2485:2505  calcDate(_startDate) */\n      tag_301\n        /* \"Vendor.sol\":2494:2504  _startDate */\n      dup4\n        /* \"Vendor.sol\":2485:2493  calcDate */\n      tag_302\n        /* \"Vendor.sol\":2485:2505  calcDate(_startDate) */\n      jump\t// in\n    tag_301:\n        /* \"Vendor.sol\":2467:2482  prevBillingDate */\n      0x06\n        /* \"Vendor.sol\":2467:2505  prevBillingDate = calcDate(_startDate) */\n      dup2\n      swap1\n      sstore\n      pop\n        /* \"Vendor.sol\":2533:2558  calcDate(_startDate + 30) */\n      tag_303\n        /* \"Vendor.sol\":2555:2557  30 */\n      0x1e\n        /* \"Vendor.sol\":2542:2552  _startDate */\n      dup5\n        /* \"Vendor.sol\":2542:2557  _startDate + 30 */\n      tag_304\n      swap2\n      swap1\n      tag_305\n      jump\t// in\n    tag_304:\n        /* \"Vendor.sol\":2533:2541  calcDate */\n      tag_302\n        /* \"Vendor.sol\":2533:2558  calcDate(_startDate + 30) */\n      jump\t// in\n    tag_303:\n        /* \"Vendor.sol\":2515:2530  nextBillingDate */\n      0x07\n        /* \"Vendor.sol\":2515:2558  nextBillingDate = calcDate(_startDate + 30) */\n      dup2\n      swap1\n      sstore\n      pop\n        /* \"Vendor.sol\":2583:2596  _contractHash */\n      dup2\n        /* \"Vendor.sol\":2568:2580  contractHash */\n      0x08\n        /* \"Vendor.sol\":2568:2596  contractHash = _contractHash */\n      dup2\n      swap1\n      sstore\n      pop\n        /* \"Vendor.sol\":2615:2622  _amount */\n      dup1\n        /* \"Vendor.sol\":2606:2612  amount */\n      0x05\n        /* \"Vendor.sol\":2606:2622  amount = _amount */\n      dup2\n      swap1\n      sstore\n      pop\n        /* \"Vendor.sol\":2632:2647  initOperators() */\n      tag_306\n        /* \"Vendor.sol\":2632:2645  initOperators */\n      tag_307\n        /* \"Vendor.sol\":2632:2647  initOperators() */\n      jump\t// in\n    tag_306:\n        /* \"Vendor.sol\":2223:2654  function init(address _client, uint _expiredOn, uint _startDate, uint _contractHash, uint _amount) public {... */\n      pop\n      pop\n      pop\n      pop\n      pop\n      jump\t// out\n        /* \"Vendor.sol\":7253:7838  function isSatisfied() public atStage(Stages.Active) {... */\n    tag_132:\n        /* \"Vendor.sol\":7291:7304  Stages.Active */\n      0x03\n        /* \"Vendor.sol\":11708:11714  _stage */\n      dup1\n        /* \"Vendor.sol\":11703:11715  uint(_stage) */\n      0x04\n      dup2\n      gt\n      iszero\n      tag_309\n      jumpi\n      tag_310\n      tag_176\n      jump\t// in\n    tag_310:\n    tag_309:\n        /* \"Vendor.sol\":11693:11698  stage */\n      0x09\n      0x00\n      swap1\n      sload\n      swap1\n      0x0100\n      exp\n      swap1\n      div\n      0xff\n      and\n        /* \"Vendor.sol\":11688:11699  uint(stage) */\n      0x04\n      dup2\n      gt\n      iszero\n      tag_311\n      jumpi\n      tag_312\n      tag_176\n      jump\t// in\n    tag_312:\n    tag_311:\n        /* \"Vendor.sol\":11688:11715  uint(stage) == uint(_stage) */\n      eq\n        /* \"Vendor.sol\":11680:11757  require(uint(stage) == uint(_stage), \"Contract is not in the required state\") */\n      tag_313\n      jumpi\n      mload(0x40)\n      0x08c379a000000000000000000000000000000000000000000000000000000000\n      dup2\n      mstore\n      0x04\n      add\n      tag_314\n      swap1\n      tag_181\n      jump\t// in\n    tag_314:\n      mload(0x40)\n      dup1\n      swap2\n      sub\n      swap1\n      revert\n    tag_313:\n        /* \"Vendor.sol\":7321:7327  uint i */\n      0x00\n        /* \"Vendor.sol\":7316:7700  for (uint i = 0; i < conditionCount; i++) {... */\n    tag_316:\n        /* \"Vendor.sol\":7337:7351  conditionCount */\n      sload(0x2b)\n        /* \"Vendor.sol\":7333:7334  i */\n      dup2\n        /* \"Vendor.sol\":7333:7351  i < conditionCount */\n      lt\n        /* \"Vendor.sol\":7316:7700  for (uint i = 0; i < conditionCount; i++) {... */\n      iszero\n      tag_317\n      jumpi\n        /* \"Vendor.sol\":7372:7384  int operator */\n      0x00\n        /* \"Vendor.sol\":7387:7396  operators */\n      0x1a\n        /* \"Vendor.sol\":7397:7398  i */\n      dup3\n        /* \"Vendor.sol\":7387:7399  operators[i] */\n      0x08\n      dup2\n      lt\n      tag_319\n      jumpi\n      tag_320\n      tag_209\n      jump\t// in\n    tag_320:\n    tag_319:\n      add\n      sload\n        /* \"Vendor.sol\":7372:7399  int operator = operators[i] */\n      swap1\n      pop\n        /* \"Vendor.sol\":7413:7422  int value */\n      0x00\n        /* \"Vendor.sol\":7425:7431  values */\n      0x12\n        /* \"Vendor.sol\":7432:7433  i */\n      dup4\n        /* \"Vendor.sol\":7425:7434  values[i] */\n      0x08\n      dup2\n      lt\n      tag_322\n      jumpi\n      tag_323\n      tag_209\n      jump\t// in\n    tag_323:\n    tag_322:\n      add\n      sload\n        /* \"Vendor.sol\":7413:7434  int value = values[i] */\n      swap1\n      pop\n        /* \"Vendor.sol\":7448:7460  int _toCheck */\n      0x00\n        /* \"Vendor.sol\":7477:7482  count */\n      sload(0x2d)\n        /* \"Vendor.sol\":7463:7473  cumulative */\n      0x2c\n        /* \"Vendor.sol\":7463:7476  cumulative[i] */\n      0x00\n        /* \"Vendor.sol\":7474:7475  i */\n      dup7\n        /* \"Vendor.sol\":7463:7476  cumulative[i] */\n      dup2\n      mstore\n      0x20\n      add\n      swap1\n      dup2\n      mstore\n      0x20\n      add\n      0x00\n      keccak256\n      sload\n        /* \"Vendor.sol\":7463:7482  cumulative[i]/count */\n      tag_325\n      swap2\n      swap1\n      tag_243\n      jump\t// in\n    tag_325:\n        /* \"Vendor.sol\":7448:7482  int _toCheck = cumulative[i]/count */\n      swap1\n      pop\n        /* \"Vendor.sol\":7514:7550  condValid(operator, _toCheck, value) */\n      tag_326\n        /* \"Vendor.sol\":7524:7532  operator */\n      dup4\n        /* \"Vendor.sol\":7534:7542  _toCheck */\n      dup3\n        /* \"Vendor.sol\":7544:7549  value */\n      dup5\n        /* \"Vendor.sol\":7514:7523  condValid */\n      tag_245\n        /* \"Vendor.sol\":7514:7550  condValid(operator, _toCheck, value) */\n      jump\t// in\n    tag_326:\n        /* \"Vendor.sol\":7509:7690  if (!condValid(operator, _toCheck, value)) {... */\n      tag_327\n      jumpi\n        /* \"Vendor.sol\":7570:7578  refund() */\n      tag_328\n        /* \"Vendor.sol\":7570:7576  refund */\n      tag_248\n        /* \"Vendor.sol\":7570:7578  refund() */\n      jump\t// in\n    tag_328:\n        /* \"Vendor.sol\":7607:7617  msg.sender */\n      caller\n        /* \"Vendor.sol\":7601:7651  State(msg.sender, satisfied, \"Refunding payment.\") */\n      0xffffffffffffffffffffffffffffffffffffffff\n      and\n      0xa84226bf2d14bde3fac454f52eaeab63aaeb1934da88f9263dd4ff7dd12acf71\n        /* \"Vendor.sol\":7619:7628  satisfied */\n      0x09\n      0x01\n      swap1\n      sload\n      swap1\n      0x0100\n      exp\n      swap1\n      div\n      0xff\n      and\n        /* \"Vendor.sol\":7601:7651  State(msg.sender, satisfied, \"Refunding payment.\") */\n      mload(0x40)\n      tag_329\n      swap2\n      swap1\n      tag_250\n      jump\t// in\n    tag_329:\n      mload(0x40)\n      dup1\n      swap2\n      sub\n      swap1\n      log2\n        /* \"Vendor.sol\":7669:7676  return; */\n      pop\n      pop\n      pop\n      pop\n      jump(tag_315)\n        /* \"Vendor.sol\":7509:7690  if (!condValid(operator, _toCheck, value)) {... */\n    tag_327:\n        /* \"Vendor.sol\":7358:7700  {... */\n      pop\n      pop\n      pop\n        /* \"Vendor.sol\":7353:7356  i++ */\n      dup1\n      dup1\n      tag_330\n      swap1\n      tag_213\n      jump\t// in\n    tag_330:\n      swap2\n      pop\n      pop\n        /* \"Vendor.sol\":7316:7700  for (uint i = 0; i < conditionCount; i++) {... */\n      jump(tag_316)\n    tag_317:\n      pop\n        /* \"Vendor.sol\":7720:7730  msg.sender */\n      caller\n        /* \"Vendor.sol\":7714:7762  State(msg.sender, satisfied, \"Sending payment.\") */\n      0xffffffffffffffffffffffffffffffffffffffff\n      and\n      0xa84226bf2d14bde3fac454f52eaeab63aaeb1934da88f9263dd4ff7dd12acf71\n        /* \"Vendor.sol\":7732:7741  satisfied */\n      0x09\n      0x01\n      swap1\n      sload\n      swap1\n      0x0100\n      exp\n      swap1\n      div\n      0xff\n      and\n        /* \"Vendor.sol\":7714:7762  State(msg.sender, satisfied, \"Sending payment.\") */\n      mload(0x40)\n      tag_331\n      swap2\n      swap1\n      tag_253\n      jump\t// in\n    tag_331:\n      mload(0x40)\n      dup1\n      swap2\n      sub\n      swap1\n      log2\n        /* \"Vendor.sol\":7820:7831  payVendor() */\n      tag_332\n        /* \"Vendor.sol\":7820:7829  payVendor */\n      tag_255\n        /* \"Vendor.sol\":7820:7831  payVendor() */\n      jump\t// in\n    tag_332:\n        /* \"Vendor.sol\":11767:11768  _ */\n    tag_315:\n        /* \"Vendor.sol\":7253:7838  function isSatisfied() public atStage(Stages.Active) {... */\n      pop\n      jump\t// out\n        /* \"Vendor.sol\":525:543  uint public amount */\n    tag_135:\n      sload(0x05)\n      dup2\n      jump\t// out\n        /* \"Vendor.sol\":270:298  address payable public payee */\n    tag_139:\n      0x02\n      0x00\n      swap1\n      sload\n      swap1\n      0x0100\n      exp\n      swap1\n      div\n      0xffffffffffffffffffffffffffffffffffffffff\n      and\n      dup2\n      jump\t// out\n        /* \"Vendor.sol\":799:840  Stages public stage = Stages.Initialising */\n    tag_143:\n      0x09\n      0x00\n      swap1\n      sload\n      swap1\n      0x0100\n      exp\n      swap1\n      div\n      0xff\n      and\n      dup2\n      jump\t// out\n        /* \"Vendor.sol\":990:1013  int[8] public operators */\n    tag_149:\n      0x1a\n      dup2\n      0x08\n      dup2\n      lt\n      tag_333\n      jumpi\n      0x00\n      dup1\n      revert\n    tag_333:\n      add\n      0x00\n      swap2\n      pop\n      swap1\n      pop\n      sload\n      dup2\n      jump\t// out\n        /* \"Vendor.sol\":6871:7094  function receiveServiceDataBypass(int[] memory _cumulative) external atStage(Stages.Active) {... */\n    tag_154:\n        /* \"Vendor.sol\":6948:6961  Stages.Active */\n      0x03\n        /* \"Vendor.sol\":11708:11714  _stage */\n      dup1\n        /* \"Vendor.sol\":11703:11715  uint(_stage) */\n      0x04\n      dup2\n      gt\n      iszero\n      tag_336\n      jumpi\n      tag_337\n      tag_176\n      jump\t// in\n    tag_337:\n    tag_336:\n        /* \"Vendor.sol\":11693:11698  stage */\n      0x09\n      0x00\n      swap1\n      sload\n      swap1\n      0x0100\n      exp\n      swap1\n      div\n      0xff\n      and\n        /* \"Vendor.sol\":11688:11699  uint(stage) */\n      0x04\n      dup2\n      gt\n      iszero\n      tag_338\n      jumpi\n      tag_339\n      tag_176\n      jump\t// in\n    tag_339:\n    tag_338:\n        /* \"Vendor.sol\":11688:11715  uint(stage) == uint(_stage) */\n      eq\n        /* \"Vendor.sol\":11680:11757  require(uint(stage) == uint(_stage), \"Contract is not in the required state\") */\n      tag_340\n      jumpi\n      mload(0x40)\n      0x08c379a000000000000000000000000000000000000000000000000000000000\n      dup2\n      mstore\n      0x04\n      add\n      tag_341\n      swap1\n      tag_181\n      jump\t// in\n    tag_341:\n      mload(0x40)\n      dup1\n      swap2\n      sub\n      swap1\n      revert\n    tag_340:\n        /* \"Vendor.sol\":6978:6984  uint i */\n      0x00\n        /* \"Vendor.sol\":6973:7071  for (uint i = 0; i < conditionCount; i++) {... */\n    tag_343:\n        /* \"Vendor.sol\":6994:7008  conditionCount */\n      sload(0x2b)\n        /* \"Vendor.sol\":6990:6991  i */\n      dup2\n        /* \"Vendor.sol\":6990:7008  i < conditionCount */\n      lt\n        /* \"Vendor.sol\":6973:7071  for (uint i = 0; i < conditionCount; i++) {... */\n      iszero\n      tag_344\n      jumpi\n        /* \"Vendor.sol\":7046:7057  _cumulative */\n      dup3\n        /* \"Vendor.sol\":7058:7059  i */\n      dup2\n        /* \"Vendor.sol\":7046:7060  _cumulative[i] */\n      dup2\n      mload\n      dup2\n      lt\n      tag_346\n      jumpi\n      tag_347\n      tag_209\n      jump\t// in\n    tag_347:\n    tag_346:\n      0x20\n      mul\n      0x20\n      add\n      add\n      mload\n        /* \"Vendor.sol\":7029:7039  cumulative */\n      0x2c\n        /* \"Vendor.sol\":7029:7042  cumulative[i] */\n      0x00\n        /* \"Vendor.sol\":7040:7041  i */\n      dup4\n        /* \"Vendor.sol\":7029:7042  cumulative[i] */\n      dup2\n      mstore\n      0x20\n      add\n      swap1\n      dup2\n      mstore\n      0x20\n      add\n      0x00\n      keccak256\n      0x00\n        /* \"Vendor.sol\":7029:7060  cumulative[i] += _cumulative[i] */\n      dup3\n      dup3\n      sload\n      tag_348\n      swap2\n      swap1\n      tag_211\n      jump\t// in\n    tag_348:\n      swap3\n      pop\n      pop\n      dup2\n      swap1\n      sstore\n      pop\n        /* \"Vendor.sol\":7010:7013  i++ */\n      dup1\n      dup1\n      tag_349\n      swap1\n      tag_213\n      jump\t// in\n    tag_349:\n      swap2\n      pop\n      pop\n        /* \"Vendor.sol\":6973:7071  for (uint i = 0; i < conditionCount; i++) {... */\n      jump(tag_343)\n    tag_344:\n      pop\n        /* \"Vendor.sol\":7080:7085  count */\n      0x2d\n      0x00\n        /* \"Vendor.sol\":7080:7087  count++ */\n      dup2\n      sload\n      dup1\n      swap3\n      swap2\n      swap1\n      tag_350\n      swap1\n      tag_215\n      jump\t// in\n    tag_350:\n      swap2\n      swap1\n      pop\n      sstore\n      pop\n        /* \"Vendor.sol\":6871:7094  function receiveServiceDataBypass(int[] memory _cumulative) external atStage(Stages.Active) {... */\n      pop\n      pop\n      jump\t// out\n        /* \"Vendor.sol\":10599:10694  function setInactive() external atStage(Stages.Active) {... */\n    tag_157:\n        /* \"Vendor.sol\":10639:10652  Stages.Active */\n      0x03\n        /* \"Vendor.sol\":11708:11714  _stage */\n      dup1\n        /* \"Vendor.sol\":11703:11715  uint(_stage) */\n      0x04\n      dup2\n      gt\n      iszero\n      tag_352\n      jumpi\n      tag_353\n      tag_176\n      jump\t// in\n    tag_353:\n    tag_352:\n        /* \"Vendor.sol\":11693:11698  stage */\n      0x09\n      0x00\n      swap1\n      sload\n      swap1\n      0x0100\n      exp\n      swap1\n      div\n      0xff\n      and\n        /* \"Vendor.sol\":11688:11699  uint(stage) */\n      0x04\n      dup2\n      gt\n      iszero\n      tag_354\n      jumpi\n      tag_355\n      tag_176\n      jump\t// in\n    tag_355:\n    tag_354:\n        /* \"Vendor.sol\":11688:11715  uint(stage) == uint(_stage) */\n      eq\n        /* \"Vendor.sol\":11680:11757  require(uint(stage) == uint(_stage), \"Contract is not in the required state\") */\n      tag_356\n      jumpi\n      mload(0x40)\n      0x08c379a000000000000000000000000000000000000000000000000000000000\n      dup2\n      mstore\n      0x04\n      add\n      tag_357\n      swap1\n      tag_181\n      jump\t// in\n    tag_357:\n      mload(0x40)\n      dup1\n      swap2\n      sub\n      swap1\n      revert\n    tag_356:\n        /* \"Vendor.sol\":10672:10687  Stages.Inactive */\n      0x02\n        /* \"Vendor.sol\":10664:10669  stage */\n      0x09\n      0x00\n        /* \"Vendor.sol\":10664:10687  stage = Stages.Inactive */\n      0x0100\n      exp\n      dup2\n      sload\n      dup2\n      0xff\n      mul\n      not\n      and\n      swap1\n      dup4\n      0x04\n      dup2\n      gt\n      iszero\n      tag_359\n      jumpi\n      tag_360\n      tag_176\n      jump\t// in\n    tag_360:\n    tag_359:\n      mul\n      or\n      swap1\n      sstore\n      pop\n        /* \"Vendor.sol\":10599:10694  function setInactive() external atStage(Stages.Active) {... */\n      pop\n      jump\t// out\n        /* \"Vendor.sol\":173:193  address public admin */\n    tag_160:\n      0x00\n      dup1\n      sload\n      swap1\n      0x0100\n      exp\n      swap1\n      div\n      0xffffffffffffffffffffffffffffffffffffffff\n      and\n      dup2\n      jump\t// out\n        /* \"Vendor.sol\":3213:4073  function setConds(string[8] memory _names, int[8] memory _values, string[8] memory _operators) external atStage(Stages.Initialising) {... */\n    tag_167:\n        /* \"Vendor.sol\":3325:3344  Stages.Initialising */\n      0x00\n        /* \"Vendor.sol\":11708:11714  _stage */\n      dup1\n        /* \"Vendor.sol\":11703:11715  uint(_stage) */\n      0x04\n      dup2\n      gt\n      iszero\n      tag_362\n      jumpi\n      tag_363\n      tag_176\n      jump\t// in\n    tag_363:\n    tag_362:\n        /* \"Vendor.sol\":11693:11698  stage */\n      0x09\n      0x00\n      swap1\n      sload\n      swap1\n      0x0100\n      exp\n      swap1\n      div\n      0xff\n      and\n        /* \"Vendor.sol\":11688:11699  uint(stage) */\n      0x04\n      dup2\n      gt\n      iszero\n      tag_364\n      jumpi\n      tag_365\n      tag_176\n      jump\t// in\n    tag_365:\n    tag_364:\n        /* \"Vendor.sol\":11688:11715  uint(stage) == uint(_stage) */\n      eq\n        /* \"Vendor.sol\":11680:11757  require(uint(stage) == uint(_stage), \"Contract is not in the required state\") */\n      tag_366\n      jumpi\n      mload(0x40)\n      0x08c379a000000000000000000000000000000000000000000000000000000000\n      dup2\n      mstore\n      0x04\n      add\n      tag_367\n      swap1\n      tag_181\n      jump\t// in\n    tag_367:\n      mload(0x40)\n      dup1\n      swap2\n      sub\n      swap1\n      revert\n    tag_366:\n        /* \"Vendor.sol\":3361:3415  Log(\"inside setConds, current stage is:\", uint(stage)) */\n      0xdd970dd9b5bfe707922155b058a407655cb18288b807e2216442bca8ad83d6b5\n        /* \"Vendor.sol\":3408:3413  stage */\n      0x09\n      0x00\n      swap1\n      sload\n      swap1\n      0x0100\n      exp\n      swap1\n      div\n      0xff\n      and\n        /* \"Vendor.sol\":3403:3414  uint(stage) */\n      0x04\n      dup2\n      gt\n      iszero\n      tag_369\n      jumpi\n      tag_370\n      tag_176\n      jump\t// in\n    tag_370:\n    tag_369:\n        /* \"Vendor.sol\":3361:3415  Log(\"inside setConds, current stage is:\", uint(stage)) */\n      mload(0x40)\n      tag_371\n      swap2\n      swap1\n      tag_372\n      jump\t// in\n    tag_371:\n      mload(0x40)\n      dup1\n      swap2\n      sub\n      swap1\n      log1\n        /* \"Vendor.sol\":3430:3436  uint i */\n      0x00\n        /* \"Vendor.sol\":3425:4067  for (uint i = 0; i < 8; i++) {... */\n    tag_373:\n        /* \"Vendor.sol\":3446:3447  8 */\n      0x08\n        /* \"Vendor.sol\":3442:3443  i */\n      dup2\n        /* \"Vendor.sol\":3442:3447  i < 8 */\n      lt\n        /* \"Vendor.sol\":3425:4067  for (uint i = 0; i < 8; i++) {... */\n      iszero\n      tag_374\n      jumpi\n        /* \"Vendor.sol\":3513:3523  bytes(\"0\") */\n      mload(0x40)\n      dup1\n      0x40\n      add\n      0x40\n      mstore\n      dup1\n      0x01\n      dup2\n      mstore\n      0x20\n      add\n      0x3000000000000000000000000000000000000000000000000000000000000000\n      dup2\n      mstore\n      pop\n        /* \"Vendor.sol\":3503:3524  keccak256(bytes(\"0\")) */\n      dup1\n      mload\n      swap1\n      0x20\n      add\n      keccak256\n        /* \"Vendor.sol\":3488:3494  _names */\n      dup6\n        /* \"Vendor.sol\":3495:3496  i */\n      dup3\n        /* \"Vendor.sol\":3488:3497  _names[i] */\n      0x08\n      dup2\n      lt\n      tag_376\n      jumpi\n      tag_377\n      tag_209\n      jump\t// in\n    tag_377:\n    tag_376:\n      0x20\n      mul\n      add\n      mload\n        /* \"Vendor.sol\":3472:3499  keccak256(bytes(_names[i])) */\n      dup1\n      mload\n      swap1\n      0x20\n      add\n      keccak256\n        /* \"Vendor.sol\":3472:3524  keccak256(bytes(_names[i])) == keccak256(bytes(\"0\")) */\n      eq\n        /* \"Vendor.sol\":3468:3865  if (keccak256(bytes(_names[i])) == keccak256(bytes(\"0\"))) {... */\n      iszero\n      tag_378\n      jumpi\n        /* \"Vendor.sol\":3549:3616  Log(\"inside setConds if statement, current stage is:\", uint(stage)) */\n      0xdd970dd9b5bfe707922155b058a407655cb18288b807e2216442bca8ad83d6b5\n        /* \"Vendor.sol\":3609:3614  stage */\n      0x09\n      0x00\n      swap1\n      sload\n      swap1\n      0x0100\n      exp\n      swap1\n      div\n      0xff\n      and\n        /* \"Vendor.sol\":3604:3615  uint(stage) */\n      0x04\n      dup2\n      gt\n      iszero\n      tag_379\n      jumpi\n      tag_380\n      tag_176\n      jump\t// in\n    tag_380:\n    tag_379:\n        /* \"Vendor.sol\":3549:3616  Log(\"inside setConds if statement, current stage is:\", uint(stage)) */\n      mload(0x40)\n      tag_381\n      swap2\n      swap1\n      tag_382\n      jump\t// in\n    tag_381:\n      mload(0x40)\n      dup1\n      swap2\n      sub\n      swap1\n      log1\n        /* \"Vendor.sol\":3634:3648  endInitStage() */\n      tag_383\n        /* \"Vendor.sol\":3634:3646  endInitStage */\n      tag_384\n        /* \"Vendor.sol\":3634:3648  endInitStage() */\n      jump\t// in\n    tag_383:\n        /* \"Vendor.sol\":3671:3758  Log(\"inside setConds if statement, after endInitStage, current stage is:\", uint(stage)) */\n      0xdd970dd9b5bfe707922155b058a407655cb18288b807e2216442bca8ad83d6b5\n        /* \"Vendor.sol\":3751:3756  stage */\n      0x09\n      0x00\n      swap1\n      sload\n      swap1\n      0x0100\n      exp\n      swap1\n      div\n      0xff\n      and\n        /* \"Vendor.sol\":3746:3757  uint(stage) */\n      0x04\n      dup2\n      gt\n      iszero\n      tag_385\n      jumpi\n      tag_386\n      tag_176\n      jump\t// in\n    tag_386:\n    tag_385:\n        /* \"Vendor.sol\":3671:3758  Log(\"inside setConds if statement, after endInitStage, current stage is:\", uint(stage)) */\n      mload(0x40)\n      tag_387\n      swap2\n      swap1\n      tag_388\n      jump\t// in\n    tag_387:\n      mload(0x40)\n      dup1\n      swap2\n      sub\n      swap1\n      log1\n        /* \"Vendor.sol\":3776:3783  return; */\n      pop\n      jump(tag_368)\n        /* \"Vendor.sol\":3468:3865  if (keccak256(bytes(_names[i])) == keccak256(bytes(\"0\"))) {... */\n    tag_378:\n        /* \"Vendor.sol\":3889:3895  _names */\n      dup5\n        /* \"Vendor.sol\":3896:3897  i */\n      dup2\n        /* \"Vendor.sol\":3889:3898  _names[i] */\n      0x08\n      dup2\n      lt\n      tag_389\n      jumpi\n      tag_390\n      tag_209\n      jump\t// in\n    tag_390:\n    tag_389:\n      0x20\n      mul\n      add\n      mload\n        /* \"Vendor.sol\":3878:3883  names */\n      0x0a\n        /* \"Vendor.sol\":3884:3885  i */\n      dup3\n        /* \"Vendor.sol\":3878:3886  names[i] */\n      0x08\n      dup2\n      lt\n      tag_391\n      jumpi\n      tag_392\n      tag_209\n      jump\t// in\n    tag_392:\n    tag_391:\n      add\n        /* \"Vendor.sol\":3878:3898  names[i] = _names[i] */\n      swap1\n      dup1\n      mload\n      swap1\n      0x20\n      add\n      swap1\n      tag_394\n      swap3\n      swap2\n      swap1\n      tag_395\n      jump\t// in\n    tag_394:\n      pop\n        /* \"Vendor.sol\":3924:3931  _values */\n      dup4\n        /* \"Vendor.sol\":3932:3933  i */\n      dup2\n        /* \"Vendor.sol\":3924:3934  _values[i] */\n      0x08\n      dup2\n      lt\n      tag_396\n      jumpi\n      tag_397\n      tag_209\n      jump\t// in\n    tag_397:\n    tag_396:\n      0x20\n      mul\n      add\n      mload\n        /* \"Vendor.sol\":3912:3918  values */\n      0x12\n        /* \"Vendor.sol\":3919:3920  i */\n      dup3\n        /* \"Vendor.sol\":3912:3921  values[i] */\n      0x08\n      dup2\n      lt\n      tag_398\n      jumpi\n      tag_399\n      tag_209\n      jump\t// in\n    tag_399:\n    tag_398:\n      add\n        /* \"Vendor.sol\":3912:3934  values[i] = _values[i] */\n      dup2\n      swap1\n      sstore\n      pop\n        /* \"Vendor.sol\":3963:3970  convert */\n      0x2a\n        /* \"Vendor.sol\":3971:3981  _operators */\n      dup4\n        /* \"Vendor.sol\":3982:3983  i */\n      dup3\n        /* \"Vendor.sol\":3971:3984  _operators[i] */\n      0x08\n      dup2\n      lt\n      tag_401\n      jumpi\n      tag_402\n      tag_209\n      jump\t// in\n    tag_402:\n    tag_401:\n      0x20\n      mul\n      add\n      mload\n        /* \"Vendor.sol\":3963:3985  convert[_operators[i]] */\n      mload(0x40)\n      tag_403\n      swap2\n      swap1\n      tag_404\n      jump\t// in\n    tag_403:\n      swap1\n      dup2\n      mstore\n      0x20\n      add\n      mload(0x40)\n      dup1\n      swap2\n      sub\n      swap1\n      keccak256\n      sload\n        /* \"Vendor.sol\":3948:3957  operators */\n      0x1a\n        /* \"Vendor.sol\":3958:3959  i */\n      dup3\n        /* \"Vendor.sol\":3948:3960  operators[i] */\n      0x08\n      dup2\n      lt\n      tag_405\n      jumpi\n      tag_406\n      tag_209\n      jump\t// in\n    tag_406:\n    tag_405:\n      add\n        /* \"Vendor.sol\":3948:3985  operators[i] = convert[_operators[i]] */\n      dup2\n      swap1\n      sstore\n      pop\n        /* \"Vendor.sol\":4013:4023  _operators */\n      dup3\n        /* \"Vendor.sol\":4024:4025  i */\n      dup2\n        /* \"Vendor.sol\":4013:4026  _operators[i] */\n      0x08\n      dup2\n      lt\n      tag_408\n      jumpi\n      tag_409\n      tag_209\n      jump\t// in\n    tag_409:\n    tag_408:\n      0x20\n      mul\n      add\n      mload\n        /* \"Vendor.sol\":3999:4007  original */\n      0x22\n        /* \"Vendor.sol\":4008:4009  i */\n      dup3\n        /* \"Vendor.sol\":3999:4010  original[i] */\n      0x08\n      dup2\n      lt\n      tag_410\n      jumpi\n      tag_411\n      tag_209\n      jump\t// in\n    tag_411:\n    tag_410:\n      add\n        /* \"Vendor.sol\":3999:4026  original[i] = _operators[i] */\n      swap1\n      dup1\n      mload\n      swap1\n      0x20\n      add\n      swap1\n      tag_413\n      swap3\n      swap2\n      swap1\n      tag_395\n      jump\t// in\n    tag_413:\n      pop\n        /* \"Vendor.sol\":4040:4054  conditionCount */\n      0x2b\n      0x00\n        /* \"Vendor.sol\":4040:4056  conditionCount++ */\n      dup2\n      sload\n      dup1\n      swap3\n      swap2\n      swap1\n      tag_414\n      swap1\n      tag_213\n      jump\t// in\n    tag_414:\n      swap2\n      swap1\n      pop\n      sstore\n      pop\n        /* \"Vendor.sol\":3449:3452  i++ */\n      dup1\n      dup1\n      tag_415\n      swap1\n      tag_213\n      jump\t// in\n    tag_415:\n      swap2\n      pop\n      pop\n        /* \"Vendor.sol\":3425:4067  for (uint i = 0; i < 8; i++) {... */\n      jump(tag_373)\n    tag_374:\n      pop\n        /* \"Vendor.sol\":11767:11768  _ */\n    tag_368:\n        /* \"Vendor.sol\":3213:4073  function setConds(string[8] memory _names, int[8] memory _values, string[8] memory _operators) external atStage(Stages.Initialising) {... */\n      pop\n      pop\n      pop\n      pop\n      jump\t// out\n        /* \"Vendor.sol\":5191:5484  function getDetails() external view returns (address, address, uint, uint, uint, uint, uint, uint, string[8] memory, int[8] memory, string[8] memory) {... */\n    tag_170:\n        /* \"Vendor.sol\":5236:5243  address */\n      0x00\n        /* \"Vendor.sol\":5245:5252  address */\n      dup1\n        /* \"Vendor.sol\":5254:5258  uint */\n      0x00\n        /* \"Vendor.sol\":5260:5264  uint */\n      dup1\n        /* \"Vendor.sol\":5266:5270  uint */\n      0x00\n        /* \"Vendor.sol\":5272:5276  uint */\n      dup1\n        /* \"Vendor.sol\":5278:5282  uint */\n      0x00\n        /* \"Vendor.sol\":5284:5288  uint */\n      dup1\n        /* \"Vendor.sol\":5290:5306  string[8] memory */\n      tag_416\n      tag_417\n      jump\t// in\n    tag_416:\n        /* \"Vendor.sol\":5308:5321  int[8] memory */\n      tag_418\n      tag_419\n      jump\t// in\n    tag_418:\n        /* \"Vendor.sol\":5323:5339  string[8] memory */\n      tag_420\n      tag_417\n      jump\t// in\n    tag_420:\n        /* \"Vendor.sol\":5359:5365  client */\n      0x01\n      0x00\n      swap1\n      sload\n      swap1\n      0x0100\n      exp\n      swap1\n      div\n      0xffffffffffffffffffffffffffffffffffffffff\n      and\n        /* \"Vendor.sol\":5367:5372  payee */\n      0x02\n      0x00\n      swap1\n      sload\n      swap1\n      0x0100\n      exp\n      swap1\n      div\n      0xffffffffffffffffffffffffffffffffffffffff\n      and\n        /* \"Vendor.sol\":5374:5383  startDate */\n      sload(0x03)\n        /* \"Vendor.sol\":5385:5395  expiryDate */\n      sload(0x04)\n        /* \"Vendor.sol\":5397:5403  amount */\n      sload(0x05)\n        /* \"Vendor.sol\":5405:5420  prevBillingDate */\n      sload(0x06)\n        /* \"Vendor.sol\":5422:5437  nextBillingDate */\n      sload(0x07)\n        /* \"Vendor.sol\":5439:5451  contractHash */\n      sload(0x08)\n        /* \"Vendor.sol\":5453:5458  names */\n      0x0a\n        /* \"Vendor.sol\":5460:5466  values */\n      0x12\n        /* \"Vendor.sol\":5468:5476  original */\n      0x22\n        /* \"Vendor.sol\":5351:5477  return (client, payee, startDate, expiryDate, amount, prevBillingDate, nextBillingDate, contractHash, names, values, original) */\n      dup3\n      0x08\n      dup1\n      0x20\n      mul\n      mload(0x40)\n      swap1\n      dup2\n      add\n      0x40\n      mstore\n      dup1\n      swap3\n      swap2\n      swap1\n      0x00\n      swap1\n    tag_422:\n      dup3\n      dup3\n      lt\n      iszero\n      tag_423\n      jumpi\n      dup4\n      dup3\n      add\n      dup1\n      sload\n      tag_425\n      swap1\n      tag_220\n      jump\t// in\n    tag_425:\n      dup1\n      0x1f\n      add\n      0x20\n      dup1\n      swap2\n      div\n      mul\n      0x20\n      add\n      mload(0x40)\n      swap1\n      dup2\n      add\n      0x40\n      mstore\n      dup1\n      swap3\n      swap2\n      swap1\n      dup2\n      dup2\n      mstore\n      0x20\n      add\n      dup3\n      dup1\n      sload\n      tag_426\n      swap1\n      tag_220\n      jump\t// in\n    tag_426:\n      dup1\n      iszero\n      tag_427\n      jumpi\n      dup1\n      0x1f\n      lt\n      tag_428\n      jumpi\n      0x0100\n      dup1\n      dup4\n      sload\n      div\n      mul\n      dup4\n      mstore\n      swap2\n      0x20\n      add\n      swap2\n      jump(tag_427)\n    tag_428:\n      dup3\n      add\n      swap2\n      swap1\n      0x00\n      mstore\n      keccak256(0x00, 0x20)\n      swap1\n    tag_429:\n      dup2\n      sload\n      dup2\n      mstore\n      swap1\n      0x01\n      add\n      swap1\n      0x20\n      add\n      dup1\n      dup4\n      gt\n      tag_429\n      jumpi\n      dup3\n      swap1\n      sub\n      0x1f\n      and\n      dup3\n      add\n      swap2\n    tag_427:\n      pop\n      pop\n      pop\n      pop\n      pop\n      dup2\n      mstore\n      0x20\n      add\n      swap1\n      0x01\n      add\n      swap1\n      jump(tag_422)\n    tag_423:\n      pop\n      pop\n      pop\n      pop\n      swap3\n      pop\n      dup2\n      0x08\n      dup1\n      0x20\n      mul\n      mload(0x40)\n      swap1\n      dup2\n      add\n      0x40\n      mstore\n      dup1\n      swap3\n      swap2\n      swap1\n      dup3\n      0x08\n      dup1\n      iszero\n      tag_430\n      jumpi\n      0x20\n      mul\n      dup3\n      add\n      swap2\n    tag_431:\n      dup2\n      sload\n      dup2\n      mstore\n      0x20\n      add\n      swap1\n      0x01\n      add\n      swap1\n      dup1\n      dup4\n      gt\n      tag_431\n      jumpi\n    tag_430:\n      pop\n      pop\n      pop\n      pop\n      pop\n      swap2\n      pop\n      dup1\n      0x08\n      dup1\n      0x20\n      mul\n      mload(0x40)\n      swap1\n      dup2\n      add\n      0x40\n      mstore\n      dup1\n      swap3\n      swap2\n      swap1\n      0x00\n      swap1\n    tag_432:\n      dup3\n      dup3\n      lt\n      iszero\n      tag_433\n      jumpi\n      dup4\n      dup3\n      add\n      dup1\n      sload\n      tag_435\n      swap1\n      tag_220\n      jump\t// in\n    tag_435:\n      dup1\n      0x1f\n      add\n      0x20\n      dup1\n      swap2\n      div\n      mul\n      0x20\n      add\n      mload(0x40)\n      swap1\n      dup2\n      add\n      0x40\n      mstore\n      dup1\n      swap3\n      swap2\n      swap1\n      dup2\n      dup2\n      mstore\n      0x20\n      add\n      dup3\n      dup1\n      sload\n      tag_436\n      swap1\n      tag_220\n      jump\t// in\n    tag_436:\n      dup1\n      iszero\n      tag_437\n      jumpi\n      dup1\n      0x1f\n      lt\n      tag_438\n      jumpi\n      0x0100\n      dup1\n      dup4\n      sload\n      div\n      mul\n      dup4\n      mstore\n      swap2\n      0x20\n      add\n      swap2\n      jump(tag_437)\n    tag_438:\n      dup3\n      add\n      swap2\n      swap1\n      0x00\n      mstore\n      keccak256(0x00, 0x20)\n      swap1\n    tag_439:\n      dup2\n      sload\n      dup2\n      mstore\n      swap1\n      0x01\n      add\n      swap1\n      0x20\n      add\n      dup1\n      dup4\n      gt\n      tag_439\n      jumpi\n      dup3\n      swap1\n      sub\n      0x1f\n      and\n      dup3\n      add\n      swap2\n    tag_437:\n      pop\n      pop\n      pop\n      pop\n      pop\n      dup2\n      mstore\n      0x20\n      add\n      swap1\n      0x01\n      add\n      swap1\n      jump(tag_432)\n    tag_433:\n      pop\n      pop\n      pop\n      pop\n      swap1\n      pop\n      swap11\n      pop\n      swap11\n      pop\n      swap11\n      pop\n      swap11\n      pop\n      swap11\n      pop\n      swap11\n      pop\n      swap11\n      pop\n      swap11\n      pop\n      swap11\n      pop\n      swap11\n      pop\n      swap11\n      pop\n        /* \"Vendor.sol\":5191:5484  function getDetails() external view returns (address, address, uint, uint, uint, uint, uint, uint, string[8] memory, int[8] memory, string[8] memory) {... */\n      swap1\n      swap2\n      swap3\n      swap4\n      swap5\n      swap6\n      swap7\n      swap8\n      swap9\n      swap10\n      swap11\n      jump\t// out\n        /* \"Vendor.sol\":8706:9342  function condValid(int operator, int _toCheck, int value) private pure returns (bool) {... */\n    tag_245:\n        /* \"Vendor.sol\":8786:8790  bool */\n      0x00\n        /* \"Vendor.sol\":8818:8820  -1 */\n      0xffffffffffffffffffffffffffffffffffffffffffffffffffffffffffffffff\n        /* \"Vendor.sol\":8806:8814  operator */\n      dup5\n        /* \"Vendor.sol\":8806:8820  operator != -1 */\n      eq\n        /* \"Vendor.sol\":8802:9315  if (operator != -1) {... */\n      tag_441\n      jumpi\n        /* \"Vendor.sol\":8856:8857  1 */\n      0x01\n        /* \"Vendor.sol\":8851:8852  1 */\n      dup1\n        /* \"Vendor.sol\":8840:8848  operator */\n      dup6\n        /* \"Vendor.sol\":8840:8852  operator & 1 */\n      and\n        /* \"Vendor.sol\":8840:8857  operator & 1 == 1 */\n      eq\n        /* \"Vendor.sol\":8836:9305  if (operator & 1 == 1) {... */\n      iszero\n      tag_442\n      jumpi\n        /* \"Vendor.sol\":8882:8921  checkGreater(operator, _toCheck, value) */\n      tag_443\n        /* \"Vendor.sol\":8895:8903  operator */\n      dup5\n        /* \"Vendor.sol\":8905:8913  _toCheck */\n      dup5\n        /* \"Vendor.sol\":8915:8920  value */\n      dup5\n        /* \"Vendor.sol\":8882:8894  checkGreater */\n      tag_444\n        /* \"Vendor.sol\":8882:8921  checkGreater(operator, _toCheck, value) */\n      jump\t// in\n    tag_443:\n        /* \"Vendor.sol\":8877:8976  if (!checkGreater(operator, _toCheck, value)) {... */\n      tag_445\n      jumpi\n        /* \"Vendor.sol\":8952:8957  false */\n      0x00\n        /* \"Vendor.sol\":8945:8957  return false */\n      swap1\n      pop\n      jump(tag_440)\n        /* \"Vendor.sol\":8877:8976  if (!checkGreater(operator, _toCheck, value)) {... */\n    tag_445:\n        /* \"Vendor.sol\":8836:9305  if (operator & 1 == 1) {... */\n      jump(tag_446)\n    tag_442:\n        /* \"Vendor.sol\":9016:9017  4 */\n      0x04\n        /* \"Vendor.sol\":9011:9012  4 */\n      dup1\n        /* \"Vendor.sol\":9000:9008  operator */\n      dup6\n        /* \"Vendor.sol\":9000:9012  operator & 4 */\n      and\n        /* \"Vendor.sol\":9000:9017  operator & 4 == 4 */\n      eq\n        /* \"Vendor.sol\":8996:9305  if (operator & 4 == 4) {... */\n      iszero\n      tag_447\n      jumpi\n        /* \"Vendor.sol\":9042:9078  checkLess(operator, _toCheck, value) */\n      tag_448\n        /* \"Vendor.sol\":9052:9060  operator */\n      dup5\n        /* \"Vendor.sol\":9062:9070  _toCheck */\n      dup5\n        /* \"Vendor.sol\":9072:9077  value */\n      dup5\n        /* \"Vendor.sol\":9042:9051  checkLess */\n      tag_449\n        /* \"Vendor.sol\":9042:9078  checkLess(operator, _toCheck, value) */\n      jump\t// in\n    tag_448:\n        /* \"Vendor.sol\":9037:9133  if (!checkLess(operator, _toCheck, value)) {... */\n      tag_450\n      jumpi\n        /* \"Vendor.sol\":9109:9114  false */\n      0x00\n        /* \"Vendor.sol\":9102:9114  return false */\n      swap1\n      pop\n      jump(tag_440)\n        /* \"Vendor.sol\":9037:9133  if (!checkLess(operator, _toCheck, value)) {... */\n    tag_450:\n        /* \"Vendor.sol\":8996:9305  if (operator & 4 == 4) {... */\n      jump(tag_451)\n    tag_447:\n        /* \"Vendor.sol\":9173:9174  2 */\n      0x02\n        /* \"Vendor.sol\":9168:9169  2 */\n      dup1\n        /* \"Vendor.sol\":9157:9165  operator */\n      dup6\n        /* \"Vendor.sol\":9157:9169  operator & 2 */\n      and\n        /* \"Vendor.sol\":9157:9174  operator & 2 == 2 */\n      eq\n        /* \"Vendor.sol\":9153:9305  if (operator & 2 == 2) {... */\n      iszero\n      tag_452\n      jumpi\n        /* \"Vendor.sol\":9199:9236  checkEqual(operator, _toCheck, value) */\n      tag_453\n        /* \"Vendor.sol\":9210:9218  operator */\n      dup5\n        /* \"Vendor.sol\":9220:9228  _toCheck */\n      dup5\n        /* \"Vendor.sol\":9230:9235  value */\n      dup5\n        /* \"Vendor.sol\":9199:9209  checkEqual */\n      tag_454\n        /* \"Vendor.sol\":9199:9236  checkEqual(operator, _toCheck, value) */\n      jump\t// in\n    tag_453:\n        /* \"Vendor.sol\":9194:9291  if (!checkEqual(operator, _toCheck, value)) {... */\n      tag_455\n      jumpi\n        /* \"Vendor.sol\":9267:9272  false */\n      0x00\n        /* \"Vendor.sol\":9260:9272  return false */\n      swap1\n      pop\n      jump(tag_440)\n        /* \"Vendor.sol\":9194:9291  if (!checkEqual(operator, _toCheck, value)) {... */\n    tag_455:\n        /* \"Vendor.sol\":9153:9305  if (operator & 2 == 2) {... */\n    tag_452:\n        /* \"Vendor.sol\":8996:9305  if (operator & 4 == 4) {... */\n    tag_451:\n        /* \"Vendor.sol\":8836:9305  if (operator & 1 == 1) {... */\n    tag_446:\n        /* \"Vendor.sol\":8802:9315  if (operator != -1) {... */\n    tag_441:\n        /* \"Vendor.sol\":9331:9335  true */\n      0x01\n        /* \"Vendor.sol\":9324:9335  return true */\n      swap1\n      pop\n        /* \"Vendor.sol\":8706:9342  function condValid(int operator, int _toCheck, int value) private pure returns (bool) {... */\n    tag_440:\n      swap4\n      swap3\n      pop\n      pop\n      pop\n      jump\t// out\n        /* \"Vendor.sol\":5906:6022  function refund() private {... */\n    tag_248:\n        /* \"Vendor.sol\":5954:5959  false */\n      0x00\n        /* \"Vendor.sol\":5942:5951  satisfied */\n      0x09\n      0x01\n        /* \"Vendor.sol\":5942:5959  satisfied = false */\n      0x0100\n      exp\n      dup2\n      sload\n      dup2\n      0xff\n      mul\n      not\n      and\n      swap1\n      dup4\n      iszero\n      iszero\n      mul\n      or\n      swap1\n      sstore\n      pop\n        /* \"Vendor.sol\":5969:5975  client */\n      0x01\n      0x00\n      swap1\n      sload\n      swap1\n      0x0100\n      exp\n      swap1\n      div\n      0xffffffffffffffffffffffffffffffffffffffff\n      and\n        /* \"Vendor.sol\":5969:5984  client.transfer */\n      0xffffffffffffffffffffffffffffffffffffffff\n      and\n        /* \"Vendor.sol\":5969:5992  client.transfer(amount) */\n      0x08fc\n        /* \"Vendor.sol\":5985:5991  amount */\n      sload(0x05)\n        /* \"Vendor.sol\":5969:5992  client.transfer(amount) */\n      swap1\n      dup2\n      iszero\n      mul\n      swap1\n      mload(0x40)\n      0x00\n      mload(0x40)\n      dup1\n      dup4\n      sub\n      dup2\n      dup6\n      dup9\n      dup9\n      call\n      swap4\n      pop\n      pop\n      pop\n      pop\n      iszero\n      dup1\n      iszero\n      tag_458\n      jumpi\n      returndatasize\n      0x00\n      dup1\n      returndatacopy\n      revert(0x00, returndatasize)\n    tag_458:\n      pop\n        /* \"Vendor.sol\":6002:6015  setNewDates() */\n      tag_459\n        /* \"Vendor.sol\":6002:6013  setNewDates */\n      tag_460\n        /* \"Vendor.sol\":6002:6015  setNewDates() */\n      jump\t// in\n    tag_459:\n        /* \"Vendor.sol\":5906:6022  function refund() private {... */\n      jump\t// out\n        /* \"Vendor.sol\":5779:5896  function payVendor() private {... */\n    tag_255:\n        /* \"Vendor.sol\":5830:5834  true */\n      0x01\n        /* \"Vendor.sol\":5818:5827  satisfied */\n      0x09\n      0x01\n        /* \"Vendor.sol\":5818:5834  satisfied = true */\n      0x0100\n      exp\n      dup2\n      sload\n      dup2\n      0xff\n      mul\n      not\n      and\n      swap1\n      dup4\n      iszero\n      iszero\n      mul\n      or\n      swap1\n      sstore\n      pop\n        /* \"Vendor.sol\":5844:5849  payee */\n      0x02\n      0x00\n      swap1\n      sload\n      swap1\n      0x0100\n      exp\n      swap1\n      div\n      0xffffffffffffffffffffffffffffffffffffffff\n      and\n        /* \"Vendor.sol\":5844:5858  payee.transfer */\n      0xffffffffffffffffffffffffffffffffffffffff\n      and\n        /* \"Vendor.sol\":5844:5866  payee.transfer(amount) */\n      0x08fc\n        /* \"Vendor.sol\":5859:5865  amount */\n      sload(0x05)\n        /* \"Vendor.sol\":5844:5866  payee.transfer(amount) */\n      swap1\n      dup2\n      iszero\n      mul\n      swap1\n      mload(0x40)\n      0x00\n      mload(0x40)\n      dup1\n      dup4\n      sub\n      dup2\n      dup6\n      dup9\n      dup9\n      call\n      swap4\n      pop\n      pop\n      pop\n      pop\n      iszero\n      dup1\n      iszero\n      tag_463\n      jumpi\n      returndatasize\n      0x00\n      dup1\n      returndatacopy\n      revert(0x00, returndatasize)\n    tag_463:\n      pop\n        /* \"Vendor.sol\":5876:5889  setNewDates() */\n      tag_464\n        /* \"Vendor.sol\":5876:5887  setNewDates */\n      tag_460\n        /* \"Vendor.sol\":5876:5889  setNewDates() */\n      jump\t// in\n    tag_464:\n        /* \"Vendor.sol\":5779:5896  function payVendor() private {... */\n      jump\t// out\n        /* \"Vendor.sol\":2990:3118  function calcDate(uint _billingDate) private view returns (uint) {... */\n    tag_302:\n        /* \"Vendor.sol\":3049:3053  uint */\n      0x00\n        /* \"Vendor.sol\":1191:1195  6400 */\n      0x1900\n        /* \"Vendor.sol\":3087:3099  _billingDate */\n      dup3\n        /* \"Vendor.sol\":3087:3111  _billingDate*blocksDaily */\n      tag_466\n      swap2\n      swap1\n      tag_467\n      jump\t// in\n    tag_466:\n        /* \"Vendor.sol\":3072:3084  block.number */\n      number\n        /* \"Vendor.sol\":3072:3111  block.number + _billingDate*blocksDaily */\n      tag_468\n      swap2\n      swap1\n      tag_305\n      jump\t// in\n    tag_468:\n        /* \"Vendor.sol\":3065:3111  return block.number + _billingDate*blocksDaily */\n      swap1\n      pop\n        /* \"Vendor.sol\":2990:3118  function calcDate(uint _billingDate) private view returns (uint) {... */\n      swap2\n      swap1\n      pop\n      jump\t// out\n        /* \"Vendor.sol\":2723:2923  function initOperators() private {... */\n    tag_307:\n        /* \"Vendor.sol\":2781:2782  1 */\n      0x01\n        /* \"Vendor.sol\":2766:2773  convert */\n      0x2a\n        /* \"Vendor.sol\":2766:2778  convert['>'] */\n      mload(0x40)\n      tag_470\n      swap1\n      tag_471\n      jump\t// in\n    tag_470:\n      swap1\n      dup2\n      mstore\n      0x20\n      add\n      mload(0x40)\n      dup1\n      swap2\n      sub\n      swap1\n      keccak256\n        /* \"Vendor.sol\":2766:2782  convert['>'] = 1 */\n      dup2\n      swap1\n      sstore\n      pop\n        /* \"Vendor.sol\":2808:2809  2 */\n      0x02\n        /* \"Vendor.sol\":2792:2799  convert */\n      0x2a\n        /* \"Vendor.sol\":2792:2805  convert['=='] */\n      mload(0x40)\n      tag_472\n      swap1\n      tag_473\n      jump\t// in\n    tag_472:\n      swap1\n      dup2\n      mstore\n      0x20\n      add\n      mload(0x40)\n      dup1\n      swap2\n      sub\n      swap1\n      keccak256\n        /* \"Vendor.sol\":2792:2809  convert['=='] = 2 */\n      dup2\n      swap1\n      sstore\n      pop\n        /* \"Vendor.sol\":2835:2836  3 */\n      0x03\n        /* \"Vendor.sol\":2819:2826  convert */\n      0x2a\n        /* \"Vendor.sol\":2819:2832  convert['>='] */\n      mload(0x40)\n      tag_474\n      swap1\n      tag_475\n      jump\t// in\n    tag_474:\n      swap1\n      dup2\n      mstore\n      0x20\n      add\n      mload(0x40)\n      dup1\n      swap2\n      sub\n      swap1\n      keccak256\n        /* \"Vendor.sol\":2819:2836  convert['>='] = 3 */\n      dup2\n      swap1\n      sstore\n      pop\n        /* \"Vendor.sol\":2861:2862  4 */\n      0x04\n        /* \"Vendor.sol\":2846:2853  convert */\n      0x2a\n        /* \"Vendor.sol\":2846:2858  convert['<'] */\n      mload(0x40)\n      tag_476\n      swap1\n      tag_477\n      jump\t// in\n    tag_476:\n      swap1\n      dup2\n      mstore\n      0x20\n      add\n      mload(0x40)\n      dup1\n      swap2\n      sub\n      swap1\n      keccak256\n        /* \"Vendor.sol\":2846:2862  convert['<'] = 4 */\n      dup2\n      swap1\n      sstore\n      pop\n        /* \"Vendor.sol\":2888:2889  5 */\n      0x05\n        /* \"Vendor.sol\":2872:2879  convert */\n      0x2a\n        /* \"Vendor.sol\":2872:2885  convert['!='] */\n      mload(0x40)\n      tag_478\n      swap1\n      tag_479\n      jump\t// in\n    tag_478:\n      swap1\n      dup2\n      mstore\n      0x20\n      add\n      mload(0x40)\n      dup1\n      swap2\n      sub\n      swap1\n      keccak256\n        /* \"Vendor.sol\":2872:2889  convert['!='] = 5 */\n      dup2\n      swap1\n      sstore\n      pop\n        /* \"Vendor.sol\":2915:2916  6 */\n      0x06\n        /* \"Vendor.sol\":2899:2906  convert */\n      0x2a\n        /* \"Vendor.sol\":2899:2912  convert['<='] */\n      mload(0x40)\n      tag_480\n      swap1\n      tag_481\n      jump\t// in\n    tag_480:\n      swap1\n      dup2\n      mstore\n      0x20\n      add\n      mload(0x40)\n      dup1\n      swap2\n      sub\n      swap1\n      keccak256\n        /* \"Vendor.sol\":2899:2916  convert['<='] = 6 */\n      dup2\n      swap1\n      sstore\n      pop\n        /* \"Vendor.sol\":2723:2923  function initOperators() private {... */\n      jump\t// out\n        /* \"Vendor.sol\":4229:4530  function endInitStage() private atStage(Stages.Initialising) {... */\n    tag_384:\n        /* \"Vendor.sol\":4269:4288  Stages.Initialising */\n      0x00\n        /* \"Vendor.sol\":11708:11714  _stage */\n      dup1\n        /* \"Vendor.sol\":11703:11715  uint(_stage) */\n      0x04\n      dup2\n      gt\n      iszero\n      tag_483\n      jumpi\n      tag_484\n      tag_176\n      jump\t// in\n    tag_484:\n    tag_483:\n        /* \"Vendor.sol\":11693:11698  stage */\n      0x09\n      0x00\n      swap1\n      sload\n      swap1\n      0x0100\n      exp\n      swap1\n      div\n      0xff\n      and\n        /* \"Vendor.sol\":11688:11699  uint(stage) */\n      0x04\n      dup2\n      gt\n      iszero\n      tag_485\n      jumpi\n      tag_486\n      tag_176\n      jump\t// in\n    tag_486:\n    tag_485:\n        /* \"Vendor.sol\":11688:11715  uint(stage) == uint(_stage) */\n      eq\n        /* \"Vendor.sol\":11680:11757  require(uint(stage) == uint(_stage), \"Contract is not in the required state\") */\n      tag_487\n      jumpi\n      mload(0x40)\n      0x08c379a000000000000000000000000000000000000000000000000000000000\n      dup2\n      mstore\n      0x04\n      add\n      tag_488\n      swap1\n      tag_181\n      jump\t// in\n    tag_488:\n      mload(0x40)\n      dup1\n      swap2\n      sub\n      swap1\n      revert\n    tag_487:\n        /* \"Vendor.sol\":4305:4363  Log(\"inside endInitStage, current stage is:\", uint(stage)) */\n      0xdd970dd9b5bfe707922155b058a407655cb18288b807e2216442bca8ad83d6b5\n        /* \"Vendor.sol\":4356:4361  stage */\n      0x09\n      0x00\n      swap1\n      sload\n      swap1\n      0x0100\n      exp\n      swap1\n      div\n      0xff\n      and\n        /* \"Vendor.sol\":4351:4362  uint(stage) */\n      0x04\n      dup2\n      gt\n      iszero\n      tag_490\n      jumpi\n      tag_491\n      tag_176\n      jump\t// in\n    tag_491:\n    tag_490:\n        /* \"Vendor.sol\":4305:4363  Log(\"inside endInitStage, current stage is:\", uint(stage)) */\n      mload(0x40)\n      tag_492\n      swap2\n      swap1\n      tag_493\n      jump\t// in\n    tag_492:\n      mload(0x40)\n      dup1\n      swap2\n      sub\n      swap1\n      log1\n        /* \"Vendor.sol\":4381:4395  Stages.Pending */\n      0x01\n        /* \"Vendor.sol\":4373:4378  stage */\n      0x09\n      0x00\n        /* \"Vendor.sol\":4373:4395  stage = Stages.Pending */\n      0x0100\n      exp\n      dup2\n      sload\n      dup2\n      0xff\n      mul\n      not\n      and\n      swap1\n      dup4\n      0x04\n      dup2\n      gt\n      iszero\n      tag_494\n      jumpi\n      tag_495\n      tag_176\n      jump\t// in\n    tag_495:\n    tag_494:\n      mul\n      or\n      swap1\n      sstore\n      pop\n        /* \"Vendor.sol\":4458:4464  uint i */\n      0x00\n        /* \"Vendor.sol\":4453:4524  for (uint i = 0; i < 8; i++) {... */\n    tag_496:\n        /* \"Vendor.sol\":4474:4475  8 */\n      0x08\n        /* \"Vendor.sol\":4470:4471  i */\n      dup2\n        /* \"Vendor.sol\":4470:4475  i < 8 */\n      lt\n        /* \"Vendor.sol\":4453:4524  for (uint i = 0; i < 8; i++) {... */\n      iszero\n      tag_497\n      jumpi\n        /* \"Vendor.sol\":4512:4513  0 */\n      0x00\n        /* \"Vendor.sol\":4496:4506  cumulative */\n      0x2c\n        /* \"Vendor.sol\":4496:4509  cumulative[i] */\n      0x00\n        /* \"Vendor.sol\":4507:4508  i */\n      dup4\n        /* \"Vendor.sol\":4496:4509  cumulative[i] */\n      dup2\n      mstore\n      0x20\n      add\n      swap1\n      dup2\n      mstore\n      0x20\n      add\n      0x00\n      keccak256\n        /* \"Vendor.sol\":4496:4513  cumulative[i] = 0 */\n      dup2\n      swap1\n      sstore\n      pop\n        /* \"Vendor.sol\":4477:4480  i++ */\n      dup1\n      dup1\n      tag_499\n      swap1\n      tag_213\n      jump\t// in\n    tag_499:\n      swap2\n      pop\n      pop\n        /* \"Vendor.sol\":4453:4524  for (uint i = 0; i < 8; i++) {... */\n      jump(tag_496)\n    tag_497:\n      pop\n        /* \"Vendor.sol\":4229:4530  function endInitStage() private atStage(Stages.Initialising) {... */\n      pop\n      jump\t// out\n        /* \"Vendor.sol\":9352:9726  function checkGreater(int operator, int _toCheck, int value) private pure returns (bool) {... */\n    tag_444:\n        /* \"Vendor.sol\":9435:9439  bool */\n      0x00\n        /* \"Vendor.sol\":9451:9462  bool status */\n      dup1\n        /* \"Vendor.sol\":9465:9470  false */\n      0x00\n        /* \"Vendor.sol\":9451:9470  bool status = false */\n      swap1\n      pop\n        /* \"Vendor.sol\":9500:9501  1 */\n      0x01\n        /* \"Vendor.sol\":9495:9496  1 */\n      dup1\n        /* \"Vendor.sol\":9484:9492  operator */\n      dup7\n        /* \"Vendor.sol\":9484:9496  operator & 1 */\n      and\n        /* \"Vendor.sol\":9484:9501  operator & 1 == 1 */\n      eq\n        /* \"Vendor.sol\":9480:9697  if (operator & 1 == 1) {... */\n      iszero\n      tag_501\n      jumpi\n        /* \"Vendor.sol\":9532:9537  value */\n      dup3\n        /* \"Vendor.sol\":9521:9529  _toCheck */\n      dup5\n        /* \"Vendor.sol\":9521:9537  _toCheck > value */\n      sgt\n        /* \"Vendor.sol\":9517:9585  if (_toCheck > value) {... */\n      iszero\n      tag_502\n      jumpi\n        /* \"Vendor.sol\":9566:9570  true */\n      0x01\n        /* \"Vendor.sol\":9557:9570  status = true */\n      swap1\n      pop\n        /* \"Vendor.sol\":9517:9585  if (_toCheck > value) {... */\n    tag_502:\n        /* \"Vendor.sol\":9602:9639  checkEqual(operator, _toCheck, value) */\n      tag_503\n        /* \"Vendor.sol\":9613:9621  operator */\n      dup6\n        /* \"Vendor.sol\":9623:9631  _toCheck */\n      dup6\n        /* \"Vendor.sol\":9633:9638  value */\n      dup6\n        /* \"Vendor.sol\":9602:9612  checkEqual */\n      tag_454\n        /* \"Vendor.sol\":9602:9639  checkEqual(operator, _toCheck, value) */\n      jump\t// in\n    tag_503:\n        /* \"Vendor.sol\":9598:9687  if (checkEqual(operator, _toCheck, value)) {... */\n      iszero\n      tag_504\n      jumpi\n        /* \"Vendor.sol\":9668:9672  true */\n      0x01\n        /* \"Vendor.sol\":9659:9672  status = true */\n      swap1\n      pop\n        /* \"Vendor.sol\":9598:9687  if (checkEqual(operator, _toCheck, value)) {... */\n    tag_504:\n        /* \"Vendor.sol\":9480:9697  if (operator & 1 == 1) {... */\n    tag_501:\n        /* \"Vendor.sol\":9713:9719  status */\n      dup1\n        /* \"Vendor.sol\":9706:9719  return status */\n      swap2\n      pop\n      pop\n        /* \"Vendor.sol\":9352:9726  function checkGreater(int operator, int _toCheck, int value) private pure returns (bool) {... */\n      swap4\n      swap3\n      pop\n      pop\n      pop\n      jump\t// out\n        /* \"Vendor.sol\":9731:10102  function checkLess(int operator, int _toCheck, int value) private pure returns (bool) {... */\n    tag_449:\n        /* \"Vendor.sol\":9811:9815  bool */\n      0x00\n        /* \"Vendor.sol\":9827:9838  bool status */\n      dup1\n        /* \"Vendor.sol\":9841:9846  false */\n      0x00\n        /* \"Vendor.sol\":9827:9846  bool status = false */\n      swap1\n      pop\n        /* \"Vendor.sol\":9876:9877  4 */\n      0x04\n        /* \"Vendor.sol\":9871:9872  4 */\n      dup1\n        /* \"Vendor.sol\":9860:9868  operator */\n      dup7\n        /* \"Vendor.sol\":9860:9872  operator & 4 */\n      and\n        /* \"Vendor.sol\":9860:9877  operator & 4 == 4 */\n      eq\n        /* \"Vendor.sol\":9856:10073  if (operator & 4 == 4) {... */\n      iszero\n      tag_506\n      jumpi\n        /* \"Vendor.sol\":9908:9913  value */\n      dup3\n        /* \"Vendor.sol\":9897:9905  _toCheck */\n      dup5\n        /* \"Vendor.sol\":9897:9913  _toCheck < value */\n      slt\n        /* \"Vendor.sol\":9893:9961  if (_toCheck < value) {... */\n      iszero\n      tag_507\n      jumpi\n        /* \"Vendor.sol\":9942:9946  true */\n      0x01\n        /* \"Vendor.sol\":9933:9946  status = true */\n      swap1\n      pop\n        /* \"Vendor.sol\":9893:9961  if (_toCheck < value) {... */\n    tag_507:\n        /* \"Vendor.sol\":9978:10015  checkEqual(operator, _toCheck, value) */\n      tag_508\n        /* \"Vendor.sol\":9989:9997  operator */\n      dup6\n        /* \"Vendor.sol\":9999:10007  _toCheck */\n      dup6\n        /* \"Vendor.sol\":10009:10014  value */\n      dup6\n        /* \"Vendor.sol\":9978:9988  checkEqual */\n      tag_454\n        /* \"Vendor.sol\":9978:10015  checkEqual(operator, _toCheck, value) */\n      jump\t// in\n    tag_508:\n        /* \"Vendor.sol\":9974:10063  if (checkEqual(operator, _toCheck, value)) {... */\n      iszero\n      tag_509\n      jumpi\n        /* \"Vendor.sol\":10044:10048  true */\n      0x01\n        /* \"Vendor.sol\":10035:10048  status = true */\n      swap1\n      pop\n        /* \"Vendor.sol\":9974:10063  if (checkEqual(operator, _toCheck, value)) {... */\n    tag_509:\n        /* \"Vendor.sol\":9856:10073  if (operator & 4 == 4) {... */\n    tag_506:\n        /* \"Vendor.sol\":10089:10095  status */\n      dup1\n        /* \"Vendor.sol\":10082:10095  return status */\n      swap2\n      pop\n      pop\n        /* \"Vendor.sol\":9731:10102  function checkLess(int operator, int _toCheck, int value) private pure returns (bool) {... */\n      swap4\n      swap3\n      pop\n      pop\n      pop\n      jump\t// out\n        /* \"Vendor.sol\":10107:10346  function checkEqual(int operator, int _toCheck, int value) private pure returns (bool) {... */\n    tag_454:\n        /* \"Vendor.sol\":10188:10192  bool */\n      0x00\n        /* \"Vendor.sol\":10224:10225  2 */\n      0x02\n        /* \"Vendor.sol\":10219:10220  2 */\n      dup1\n        /* \"Vendor.sol\":10208:10216  operator */\n      dup6\n        /* \"Vendor.sol\":10208:10220  operator & 2 */\n      and\n        /* \"Vendor.sol\":10208:10225  operator & 2 == 2 */\n      eq\n        /* \"Vendor.sol\":10204:10318  if (operator & 2 == 2) {... */\n      iszero\n      tag_511\n      jumpi\n        /* \"Vendor.sol\":10257:10262  value */\n      dup2\n        /* \"Vendor.sol\":10245:10253  _toCheck */\n      dup4\n        /* \"Vendor.sol\":10245:10262  _toCheck == value */\n      eq\n        /* \"Vendor.sol\":10241:10308  if (_toCheck == value) {... */\n      iszero\n      tag_512\n      jumpi\n        /* \"Vendor.sol\":10289:10293  true */\n      0x01\n        /* \"Vendor.sol\":10282:10293  return true */\n      swap1\n      pop\n      jump(tag_510)\n        /* \"Vendor.sol\":10241:10308  if (_toCheck == value) {... */\n    tag_512:\n        /* \"Vendor.sol\":10204:10318  if (operator & 2 == 2) {... */\n    tag_511:\n        /* \"Vendor.sol\":10334:10339  false */\n      0x00\n        /* \"Vendor.sol\":10327:10339  return false */\n      swap1\n      pop\n        /* \"Vendor.sol\":10107:10346  function checkEqual(int operator, int _toCheck, int value) private pure returns (bool) {... */\n    tag_510:\n      swap4\n      swap3\n      pop\n      pop\n      pop\n      jump\t// out\n        /* \"Vendor.sol\":6085:6372  function setNewDates() private checkExpiry() {... */\n    tag_460:\n        /* \"Vendor.sol\":11497:11517  calcDate(expiryDate) */\n      tag_514\n        /* \"Vendor.sol\":11506:11516  expiryDate */\n      sload(0x04)\n        /* \"Vendor.sol\":11497:11505  calcDate */\n      tag_302\n        /* \"Vendor.sol\":11497:11517  calcDate(expiryDate) */\n      jump\t// in\n    tag_514:\n        /* \"Vendor.sol\":11481:11493  block.number */\n      number\n        /* \"Vendor.sol\":11481:11517  block.number >= calcDate(expiryDate) */\n      lt\n        /* \"Vendor.sol\":11477:11568  if (block.number >= calcDate(expiryDate)) {... */\n      tag_515\n      jumpi\n        /* \"Vendor.sol\":11541:11555  Stages.Expired */\n      0x04\n        /* \"Vendor.sol\":11533:11538  stage */\n      0x09\n      0x00\n        /* \"Vendor.sol\":11533:11555  stage = Stages.Expired */\n      0x0100\n      exp\n      dup2\n      sload\n      dup2\n      0xff\n      mul\n      not\n      and\n      swap1\n      dup4\n      0x04\n      dup2\n      gt\n      iszero\n      tag_516\n      jumpi\n      tag_517\n      tag_176\n      jump\t// in\n    tag_517:\n    tag_516:\n      mul\n      or\n      swap1\n      sstore\n      pop\n        /* \"Vendor.sol\":11477:11568  if (block.number >= calcDate(expiryDate)) {... */\n    tag_515:\n        /* \"Vendor.sol\":6144:6150  uint i */\n      0x00\n        /* \"Vendor.sol\":6140:6220  for(uint i = 0; i<conditionCount; i++){... */\n    tag_519:\n        /* \"Vendor.sol\":6158:6172  conditionCount */\n      sload(0x2b)\n        /* \"Vendor.sol\":6156:6157  i */\n      dup2\n        /* \"Vendor.sol\":6156:6172  i<conditionCount */\n      lt\n        /* \"Vendor.sol\":6140:6220  for(uint i = 0; i<conditionCount; i++){... */\n      iszero\n      tag_520\n      jumpi\n        /* \"Vendor.sol\":6208:6209  0 */\n      0x00\n        /* \"Vendor.sol\":6192:6202  cumulative */\n      0x2c\n        /* \"Vendor.sol\":6192:6205  cumulative[i] */\n      0x00\n        /* \"Vendor.sol\":6203:6204  i */\n      dup4\n        /* \"Vendor.sol\":6192:6205  cumulative[i] */\n      dup2\n      mstore\n      0x20\n      add\n      swap1\n      dup2\n      mstore\n      0x20\n      add\n      0x00\n      keccak256\n        /* \"Vendor.sol\":6192:6209  cumulative[i] = 0 */\n      dup2\n      swap1\n      sstore\n      pop\n        /* \"Vendor.sol\":6174:6177  i++ */\n      dup1\n      dup1\n      tag_522\n      swap1\n      tag_213\n      jump\t// in\n    tag_522:\n      swap2\n      pop\n      pop\n        /* \"Vendor.sol\":6140:6220  for(uint i = 0; i<conditionCount; i++){... */\n      jump(tag_519)\n    tag_520:\n      pop\n        /* \"Vendor.sol\":6237:6238  0 */\n      0x00\n        /* \"Vendor.sol\":6229:6234  count */\n      0x2d\n        /* \"Vendor.sol\":6229:6238  count = 0 */\n      dup2\n      swap1\n      sstore\n      pop\n        /* \"Vendor.sol\":6255:6260  false */\n      0x00\n        /* \"Vendor.sol\":6248:6252  paid */\n      0x02\n      0x15\n        /* \"Vendor.sol\":6248:6260  paid = false */\n      0x0100\n      exp\n      dup2\n      sload\n      dup2\n      0xff\n      mul\n      not\n      and\n      swap1\n      dup4\n      iszero\n      iszero\n      mul\n      or\n      swap1\n      sstore\n      pop\n        /* \"Vendor.sol\":6288:6303  nextBillingDate */\n      sload(0x07)\n        /* \"Vendor.sol\":6270:6285  prevBillingDate */\n      0x06\n        /* \"Vendor.sol\":6270:6303  prevBillingDate = nextBillingDate */\n      dup2\n      swap1\n      sstore\n      pop\n        /* \"Vendor.sol\":1191:1195  6400 */\n      0x1900\n        /* \"Vendor.sol\":6349:6351  30 */\n      0x1e\n        /* \"Vendor.sol\":6349:6365  30 * blocksDaily */\n      tag_523\n      swap2\n      swap1\n      tag_467\n      jump\t// in\n    tag_523:\n        /* \"Vendor.sol\":6331:6346  nextBillingDate */\n      sload(0x07)\n        /* \"Vendor.sol\":6331:6365  nextBillingDate + 30 * blocksDaily */\n      tag_524\n      swap2\n      swap1\n      tag_305\n      jump\t// in\n    tag_524:\n        /* \"Vendor.sol\":6313:6328  nextBillingDate */\n      0x07\n        /* \"Vendor.sol\":6313:6365  nextBillingDate = nextBillingDate + 30 * blocksDaily */\n      dup2\n      swap1\n      sstore\n      pop\n        /* \"Vendor.sol\":6085:6372  function setNewDates() private checkExpiry() {... */\n      jump\t// out\n    tag_395:\n      dup3\n      dup1\n      sload\n      tag_525\n      swap1\n      tag_220\n      jump\t// in\n    tag_525:\n      swap1\n      0x00\n      mstore\n      keccak256(0x00, 0x20)\n      swap1\n      0x1f\n      add\n      0x20\n      swap1\n      div\n      dup2\n      add\n      swap3\n      dup3\n      tag_527\n      jumpi\n      0x00\n      dup6\n      sstore\n      jump(tag_526)\n    tag_527:\n      dup3\n      0x1f\n      lt\n      tag_528\n      jumpi\n      dup1\n      mload\n      not(0xff)\n      and\n      dup4\n      dup1\n      add\n      or\n      dup6\n      sstore\n      jump(tag_526)\n    tag_528:\n      dup3\n      dup1\n      add\n      0x01\n      add\n      dup6\n      sstore\n      dup3\n      iszero\n      tag_526\n      jumpi\n      swap2\n      dup3\n      add\n    tag_529:\n      dup3\n      dup2\n      gt\n      iszero\n      tag_530\n      jumpi\n      dup3\n      mload\n      dup3\n      sstore\n      swap2\n      0x20\n      add\n      swap2\n      swap1\n      0x01\n      add\n      swap1\n      jump(tag_529)\n    tag_530:\n    tag_526:\n      pop\n      swap1\n      pop\n      tag_531\n      swap2\n      swap1\n      tag_532\n      jump\t// in\n    tag_531:\n      pop\n      swap1\n      jump\t// out\n    tag_417:\n      mload(0x40)\n      dup1\n      0x0100\n      add\n      0x40\n      mstore\n      dup1\n      0x08\n      swap1\n    tag_533:\n      0x60\n      dup2\n      mstore\n      0x20\n      add\n      swap1\n      0x01\n      swap1\n      sub\n      swap1\n      dup2\n      tag_533\n      jumpi\n      swap1\n      pop\n      pop\n      swap1\n      jump\t// out\n    tag_419:\n      mload(0x40)\n      dup1\n      0x0100\n      add\n      0x40\n      mstore\n      dup1\n      0x08\n      swap1\n      0x20\n      dup3\n      mul\n      dup1\n      calldatasize\n      dup4\n      calldatacopy\n      dup1\n      dup3\n      add\n      swap2\n      pop\n      pop\n      swap1\n      pop\n      pop\n      swap1\n      jump\t// out\n    tag_532:\n    tag_534:\n      dup1\n      dup3\n      gt\n      iszero\n      tag_535\n      jumpi\n      0x00\n      dup2\n      0x00\n      swap1\n      sstore\n      pop\n      0x01\n      add\n      jump(tag_534)\n    tag_535:\n      pop\n      swap1\n      jump\t// out\n        /* \"#utility.yul\":24:676   */\n    tag_537:\n        /* \"#utility.yul\":117:122   */\n      0x00\n        /* \"#utility.yul\":142:220   */\n      tag_539\n        /* \"#utility.yul\":158:219   */\n      tag_540\n        /* \"#utility.yul\":212:218   */\n      dup5\n        /* \"#utility.yul\":158:219   */\n      tag_541\n      jump\t// in\n    tag_540:\n        /* \"#utility.yul\":142:220   */\n      tag_542\n      jump\t// in\n    tag_539:\n        /* \"#utility.yul\":133:220   */\n      swap1\n      pop\n        /* \"#utility.yul\":240:245   */\n      dup1\n        /* \"#utility.yul\":266:272   */\n      dup3\n        /* \"#utility.yul\":316:319   */\n      dup6\n        /* \"#utility.yul\":308:312   */\n      0x20\n        /* \"#utility.yul\":300:306   */\n      dup7\n        /* \"#utility.yul\":296:313   */\n      mul\n        /* \"#utility.yul\":291:294   */\n      dup3\n        /* \"#utility.yul\":287:314   */\n      add\n        /* \"#utility.yul\":284:320   */\n      gt\n        /* \"#utility.yul\":281:283   */\n      iszero\n      tag_543\n      jumpi\n        /* \"#utility.yul\":335:414   */\n      tag_544\n      tag_545\n      jump\t// in\n    tag_544:\n        /* \"#utility.yul\":281:283   */\n    tag_543:\n        /* \"#utility.yul\":448:449   */\n      0x00\n        /* \"#utility.yul\":433:670   */\n    tag_546:\n        /* \"#utility.yul\":458:464   */\n      dup6\n        /* \"#utility.yul\":455:456   */\n      dup2\n        /* \"#utility.yul\":452:465   */\n      lt\n        /* \"#utility.yul\":433:670   */\n      iszero\n      tag_548\n      jumpi\n        /* \"#utility.yul\":526:529   */\n      dup2\n        /* \"#utility.yul\":555:591   */\n      tag_549\n        /* \"#utility.yul\":587:590   */\n      dup9\n        /* \"#utility.yul\":575:585   */\n      dup3\n        /* \"#utility.yul\":555:591   */\n      tag_550\n      jump\t// in\n    tag_549:\n        /* \"#utility.yul\":550:553   */\n      dup5\n        /* \"#utility.yul\":543:592   */\n      mstore\n        /* \"#utility.yul\":621:625   */\n      0x20\n        /* \"#utility.yul\":616:619   */\n      dup5\n        /* \"#utility.yul\":612:626   */\n      add\n        /* \"#utility.yul\":605:626   */\n      swap4\n      pop\n        /* \"#utility.yul\":655:659   */\n      0x20\n        /* \"#utility.yul\":650:653   */\n      dup4\n        /* \"#utility.yul\":646:660   */\n      add\n        /* \"#utility.yul\":639:660   */\n      swap3\n      pop\n        /* \"#utility.yul\":493:670   */\n      pop\n        /* \"#utility.yul\":480:481   */\n      0x01\n        /* \"#utility.yul\":477:478   */\n      dup2\n        /* \"#utility.yul\":473:482   */\n      add\n        /* \"#utility.yul\":468:482   */\n      swap1\n      pop\n        /* \"#utility.yul\":433:670   */\n      jump(tag_546)\n    tag_548:\n        /* \"#utility.yul\":437:451   */\n      pop\n        /* \"#utility.yul\":123:676   */\n      pop\n      pop\n      swap4\n      swap3\n      pop\n      pop\n      pop\n      jump\t// out\n        /* \"#utility.yul\":698:1417   */\n    tag_551:\n        /* \"#utility.yul\":793:798   */\n      0x00\n        /* \"#utility.yul\":818:898   */\n      tag_553\n        /* \"#utility.yul\":834:897   */\n      tag_554\n        /* \"#utility.yul\":890:896   */\n      dup5\n        /* \"#utility.yul\":834:897   */\n      tag_555\n      jump\t// in\n    tag_554:\n        /* \"#utility.yul\":818:898   */\n      tag_542\n      jump\t// in\n    tag_553:\n        /* \"#utility.yul\":809:898   */\n      swap1\n      pop\n        /* \"#utility.yul\":918:923   */\n      dup1\n        /* \"#utility.yul\":947:953   */\n      dup4\n        /* \"#utility.yul\":940:945   */\n      dup3\n        /* \"#utility.yul\":933:954   */\n      mstore\n        /* \"#utility.yul\":981:985   */\n      0x20\n        /* \"#utility.yul\":974:979   */\n      dup3\n        /* \"#utility.yul\":970:986   */\n      add\n        /* \"#utility.yul\":963:986   */\n      swap1\n      pop\n        /* \"#utility.yul\":1007:1013   */\n      dup3\n        /* \"#utility.yul\":1057:1060   */\n      dup6\n        /* \"#utility.yul\":1049:1053   */\n      0x20\n        /* \"#utility.yul\":1041:1047   */\n      dup7\n        /* \"#utility.yul\":1037:1054   */\n      mul\n        /* \"#utility.yul\":1032:1035   */\n      dup3\n        /* \"#utility.yul\":1028:1055   */\n      add\n        /* \"#utility.yul\":1025:1061   */\n      gt\n        /* \"#utility.yul\":1022:1024   */\n      iszero\n      tag_556\n      jumpi\n        /* \"#utility.yul\":1076:1155   */\n      tag_557\n      tag_545\n      jump\t// in\n    tag_557:\n        /* \"#utility.yul\":1022:1024   */\n    tag_556:\n        /* \"#utility.yul\":1189:1190   */\n      0x00\n        /* \"#utility.yul\":1174:1411   */\n    tag_558:\n        /* \"#utility.yul\":1199:1205   */\n      dup6\n        /* \"#utility.yul\":1196:1197   */\n      dup2\n        /* \"#utility.yul\":1193:1206   */\n      lt\n        /* \"#utility.yul\":1174:1411   */\n      iszero\n      tag_560\n      jumpi\n        /* \"#utility.yul\":1267:1270   */\n      dup2\n        /* \"#utility.yul\":1296:1332   */\n      tag_561\n        /* \"#utility.yul\":1328:1331   */\n      dup9\n        /* \"#utility.yul\":1316:1326   */\n      dup3\n        /* \"#utility.yul\":1296:1332   */\n      tag_550\n      jump\t// in\n    tag_561:\n        /* \"#utility.yul\":1291:1294   */\n      dup5\n        /* \"#utility.yul\":1284:1333   */\n      mstore\n        /* \"#utility.yul\":1362:1366   */\n      0x20\n        /* \"#utility.yul\":1357:1360   */\n      dup5\n        /* \"#utility.yul\":1353:1367   */\n      add\n        /* \"#utility.yul\":1346:1367   */\n      swap4\n      pop\n        /* \"#utility.yul\":1396:1400   */\n      0x20\n        /* \"#utility.yul\":1391:1394   */\n      dup4\n        /* \"#utility.yul\":1387:1401   */\n      add\n        /* \"#utility.yul\":1380:1401   */\n      swap3\n      pop\n        /* \"#utility.yul\":1234:1411   */\n      pop\n        /* \"#utility.yul\":1221:1222   */\n      0x01\n        /* \"#utility.yul\":1218:1219   */\n      dup2\n        /* \"#utility.yul\":1214:1223   */\n      add\n        /* \"#utility.yul\":1209:1223   */\n      swap1\n      pop\n        /* \"#utility.yul\":1174:1411   */\n      jump(tag_558)\n    tag_560:\n        /* \"#utility.yul\":1178:1192   */\n      pop\n        /* \"#utility.yul\":799:1417   */\n      pop\n      pop\n      swap4\n      swap3\n      pop\n      pop\n      pop\n      jump\t// out\n        /* \"#utility.yul\":1440:2330   */\n    tag_562:\n        /* \"#utility.yul\":1544:1549   */\n      0x00\n        /* \"#utility.yul\":1569:1658   */\n      tag_564\n        /* \"#utility.yul\":1585:1657   */\n      tag_565\n        /* \"#utility.yul\":1650:1656   */\n      dup5\n        /* \"#utility.yul\":1585:1657   */\n      tag_566\n      jump\t// in\n    tag_565:\n        /* \"#utility.yul\":1569:1658   */\n      tag_542\n      jump\t// in\n    tag_564:\n        /* \"#utility.yul\":1560:1658   */\n      swap1\n      pop\n        /* \"#utility.yul\":1678:1683   */\n      dup1\n        /* \"#utility.yul\":1704:1710   */\n      dup3\n        /* \"#utility.yul\":1754:1757   */\n      dup6\n        /* \"#utility.yul\":1746:1750   */\n      0x20\n        /* \"#utility.yul\":1738:1744   */\n      dup7\n        /* \"#utility.yul\":1734:1751   */\n      mul\n        /* \"#utility.yul\":1729:1732   */\n      dup3\n        /* \"#utility.yul\":1725:1752   */\n      add\n        /* \"#utility.yul\":1722:1758   */\n      gt\n        /* \"#utility.yul\":1719:1721   */\n      iszero\n      tag_567\n      jumpi\n        /* \"#utility.yul\":1773:1852   */\n      tag_568\n      tag_545\n      jump\t// in\n    tag_568:\n        /* \"#utility.yul\":1719:1721   */\n    tag_567:\n        /* \"#utility.yul\":1886:1887   */\n      0x00\n        /* \"#utility.yul\":1871:2324   */\n    tag_569:\n        /* \"#utility.yul\":1896:1902   */\n      dup6\n        /* \"#utility.yul\":1893:1894   */\n      dup2\n        /* \"#utility.yul\":1890:1903   */\n      lt\n        /* \"#utility.yul\":1871:2324   */\n      iszero\n      tag_571\n      jumpi\n        /* \"#utility.yul\":1978:1981   */\n      dup2\n        /* \"#utility.yul\":1965:1982   */\n      calldataload\n        /* \"#utility.yul\":2014:2032   */\n      0xffffffffffffffff\n        /* \"#utility.yul\":2001:2012   */\n      dup2\n        /* \"#utility.yul\":1998:2033   */\n      gt\n        /* \"#utility.yul\":1995:1997   */\n      iszero\n      tag_572\n      jumpi\n        /* \"#utility.yul\":2036:2115   */\n      tag_573\n      tag_574\n      jump\t// in\n    tag_573:\n        /* \"#utility.yul\":1995:1997   */\n    tag_572:\n        /* \"#utility.yul\":2160:2171   */\n      dup1\n        /* \"#utility.yul\":2152:2158   */\n      dup7\n        /* \"#utility.yul\":2148:2172   */\n      add\n        /* \"#utility.yul\":2198:2245   */\n      tag_575\n        /* \"#utility.yul\":2241:2244   */\n      dup10\n        /* \"#utility.yul\":2229:2239   */\n      dup3\n        /* \"#utility.yul\":2198:2245   */\n      tag_576\n      jump\t// in\n    tag_575:\n        /* \"#utility.yul\":2193:2196   */\n      dup6\n        /* \"#utility.yul\":2186:2246   */\n      mstore\n        /* \"#utility.yul\":2275:2279   */\n      0x20\n        /* \"#utility.yul\":2270:2273   */\n      dup6\n        /* \"#utility.yul\":2266:2280   */\n      add\n        /* \"#utility.yul\":2259:2280   */\n      swap5\n      pop\n        /* \"#utility.yul\":2309:2313   */\n      0x20\n        /* \"#utility.yul\":2304:2307   */\n      dup5\n        /* \"#utility.yul\":2300:2314   */\n      add\n        /* \"#utility.yul\":2293:2314   */\n      swap4\n      pop\n        /* \"#utility.yul\":1931:2324   */\n      pop\n      pop\n        /* \"#utility.yul\":1918:1919   */\n      0x01\n        /* \"#utility.yul\":1915:1916   */\n      dup2\n        /* \"#utility.yul\":1911:1920   */\n      add\n        /* \"#utility.yul\":1906:1920   */\n      swap1\n      pop\n        /* \"#utility.yul\":1871:2324   */\n      jump(tag_569)\n    tag_571:\n        /* \"#utility.yul\":1875:1889   */\n      pop\n        /* \"#utility.yul\":1550:2330   */\n      pop\n      pop\n      swap4\n      swap3\n      pop\n      pop\n      pop\n      jump\t// out\n        /* \"#utility.yul\":2336:2748   */\n    tag_577:\n        /* \"#utility.yul\":2414:2419   */\n      0x00\n        /* \"#utility.yul\":2439:2505   */\n      tag_579\n        /* \"#utility.yul\":2455:2504   */\n      tag_580\n        /* \"#utility.yul\":2497:2503   */\n      dup5\n        /* \"#utility.yul\":2455:2504   */\n      tag_581\n      jump\t// in\n    tag_580:\n        /* \"#utility.yul\":2439:2505   */\n      tag_542\n      jump\t// in\n    tag_579:\n        /* \"#utility.yul\":2430:2505   */\n      swap1\n      pop\n        /* \"#utility.yul\":2528:2534   */\n      dup3\n        /* \"#utility.yul\":2521:2526   */\n      dup2\n        /* \"#utility.yul\":2514:2535   */\n      mstore\n        /* \"#utility.yul\":2566:2570   */\n      0x20\n        /* \"#utility.yul\":2559:2564   */\n      dup2\n        /* \"#utility.yul\":2555:2571   */\n      add\n        /* \"#utility.yul\":2604:2607   */\n      dup5\n        /* \"#utility.yul\":2595:2601   */\n      dup5\n        /* \"#utility.yul\":2590:2593   */\n      dup5\n        /* \"#utility.yul\":2586:2602   */\n      add\n        /* \"#utility.yul\":2583:2608   */\n      gt\n        /* \"#utility.yul\":2580:2582   */\n      iszero\n      tag_582\n      jumpi\n        /* \"#utility.yul\":2611:2690   */\n      tag_583\n      tag_584\n      jump\t// in\n    tag_583:\n        /* \"#utility.yul\":2580:2582   */\n    tag_582:\n        /* \"#utility.yul\":2701:2742   */\n      tag_585\n        /* \"#utility.yul\":2735:2741   */\n      dup5\n        /* \"#utility.yul\":2730:2733   */\n      dup3\n        /* \"#utility.yul\":2725:2728   */\n      dup6\n        /* \"#utility.yul\":2701:2742   */\n      tag_586\n      jump\t// in\n    tag_585:\n        /* \"#utility.yul\":2420:2748   */\n      pop\n      swap4\n      swap3\n      pop\n      pop\n      pop\n      jump\t// out\n        /* \"#utility.yul\":2754:2893   */\n    tag_587:\n        /* \"#utility.yul\":2800:2805   */\n      0x00\n        /* \"#utility.yul\":2838:2844   */\n      dup2\n        /* \"#utility.yul\":2825:2845   */\n      calldataload\n        /* \"#utility.yul\":2816:2845   */\n      swap1\n      pop\n        /* \"#utility.yul\":2854:2887   */\n      tag_589\n        /* \"#utility.yul\":2881:2886   */\n      dup2\n        /* \"#utility.yul\":2854:2887   */\n      tag_590\n      jump\t// in\n    tag_589:\n        /* \"#utility.yul\":2806:2893   */\n      swap3\n      swap2\n      pop\n      pop\n      jump\t// out\n        /* \"#utility.yul\":2916:3253   */\n    tag_591:\n        /* \"#utility.yul\":2984:2989   */\n      0x00\n        /* \"#utility.yul\":3033:3036   */\n      dup3\n        /* \"#utility.yul\":3026:3030   */\n      0x1f\n        /* \"#utility.yul\":3018:3024   */\n      dup4\n        /* \"#utility.yul\":3014:3031   */\n      add\n        /* \"#utility.yul\":3010:3037   */\n      slt\n        /* \"#utility.yul\":3000:3002   */\n      tag_593\n      jumpi\n        /* \"#utility.yul\":3041:3120   */\n      tag_594\n      tag_574\n      jump\t// in\n    tag_594:\n        /* \"#utility.yul\":3000:3002   */\n    tag_593:\n        /* \"#utility.yul\":3145:3149   */\n      0x08\n        /* \"#utility.yul\":3167:3247   */\n      tag_595\n        /* \"#utility.yul\":3243:3246   */\n      dup5\n        /* \"#utility.yul\":3235:3241   */\n      dup3\n        /* \"#utility.yul\":3227:3233   */\n      dup6\n        /* \"#utility.yul\":3167:3247   */\n      tag_537\n      jump\t// in\n    tag_595:\n        /* \"#utility.yul\":3158:3247   */\n      swap2\n      pop\n        /* \"#utility.yul\":2990:3253   */\n      pop\n      swap3\n      swap2\n      pop\n      pop\n      jump\t// out\n        /* \"#utility.yul\":3275:3643   */\n    tag_596:\n        /* \"#utility.yul\":3345:3350   */\n      0x00\n        /* \"#utility.yul\":3394:3397   */\n      dup3\n        /* \"#utility.yul\":3387:3391   */\n      0x1f\n        /* \"#utility.yul\":3379:3385   */\n      dup4\n        /* \"#utility.yul\":3375:3392   */\n      add\n        /* \"#utility.yul\":3371:3398   */\n      slt\n        /* \"#utility.yul\":3361:3363   */\n      tag_598\n      jumpi\n        /* \"#utility.yul\":3402:3481   */\n      tag_599\n      tag_574\n      jump\t// in\n    tag_599:\n        /* \"#utility.yul\":3361:3363   */\n    tag_598:\n        /* \"#utility.yul\":3519:3525   */\n      dup2\n        /* \"#utility.yul\":3506:3526   */\n      calldataload\n        /* \"#utility.yul\":3544:3637   */\n      tag_600\n        /* \"#utility.yul\":3633:3636   */\n      dup5\n        /* \"#utility.yul\":3625:3631   */\n      dup3\n        /* \"#utility.yul\":3618:3622   */\n      0x20\n        /* \"#utility.yul\":3610:3616   */\n      dup7\n        /* \"#utility.yul\":3606:3623   */\n      add\n        /* \"#utility.yul\":3544:3637   */\n      tag_551\n      jump\t// in\n    tag_600:\n        /* \"#utility.yul\":3535:3637   */\n      swap2\n      pop\n        /* \"#utility.yul\":3351:3643   */\n      pop\n      swap3\n      swap2\n      pop\n      pop\n      jump\t// out\n        /* \"#utility.yul\":3666:4025   */\n    tag_601:\n        /* \"#utility.yul\":3745:3750   */\n      0x00\n        /* \"#utility.yul\":3794:3797   */\n      dup3\n        /* \"#utility.yul\":3787:3791   */\n      0x1f\n        /* \"#utility.yul\":3779:3785   */\n      dup4\n        /* \"#utility.yul\":3775:3792   */\n      add\n        /* \"#utility.yul\":3771:3798   */\n      slt\n        /* \"#utility.yul\":3761:3763   */\n      tag_603\n      jumpi\n        /* \"#utility.yul\":3802:3881   */\n      tag_604\n      tag_574\n      jump\t// in\n    tag_604:\n        /* \"#utility.yul\":3761:3763   */\n    tag_603:\n        /* \"#utility.yul\":3906:3910   */\n      0x08\n        /* \"#utility.yul\":3928:4019   */\n      tag_605\n        /* \"#utility.yul\":4015:4018   */\n      dup5\n        /* \"#utility.yul\":4007:4013   */\n      dup3\n        /* \"#utility.yul\":3999:4005   */\n      dup6\n        /* \"#utility.yul\":3928:4019   */\n      tag_562\n      jump\t// in\n    tag_605:\n        /* \"#utility.yul\":3919:4019   */\n      swap2\n      pop\n        /* \"#utility.yul\":3751:4025   */\n      pop\n      swap3\n      swap2\n      pop\n      pop\n      jump\t// out\n        /* \"#utility.yul\":4031:4168   */\n    tag_550:\n        /* \"#utility.yul\":4076:4081   */\n      0x00\n        /* \"#utility.yul\":4114:4120   */\n      dup2\n        /* \"#utility.yul\":4101:4121   */\n      calldataload\n        /* \"#utility.yul\":4092:4121   */\n      swap1\n      pop\n        /* \"#utility.yul\":4130:4162   */\n      tag_607\n        /* \"#utility.yul\":4156:4161   */\n      dup2\n        /* \"#utility.yul\":4130:4162   */\n      tag_608\n      jump\t// in\n    tag_607:\n        /* \"#utility.yul\":4082:4168   */\n      swap3\n      swap2\n      pop\n      pop\n      jump\t// out\n        /* \"#utility.yul\":4188:4528   */\n    tag_576:\n        /* \"#utility.yul\":4244:4249   */\n      0x00\n        /* \"#utility.yul\":4293:4296   */\n      dup3\n        /* \"#utility.yul\":4286:4290   */\n      0x1f\n        /* \"#utility.yul\":4278:4284   */\n      dup4\n        /* \"#utility.yul\":4274:4291   */\n      add\n        /* \"#utility.yul\":4270:4297   */\n      slt\n        /* \"#utility.yul\":4260:4262   */\n      tag_610\n      jumpi\n        /* \"#utility.yul\":4301:4380   */\n      tag_611\n      tag_574\n      jump\t// in\n    tag_611:\n        /* \"#utility.yul\":4260:4262   */\n    tag_610:\n        /* \"#utility.yul\":4418:4424   */\n      dup2\n        /* \"#utility.yul\":4405:4425   */\n      calldataload\n        /* \"#utility.yul\":4443:4522   */\n      tag_612\n        /* \"#utility.yul\":4518:4521   */\n      dup5\n        /* \"#utility.yul\":4510:4516   */\n      dup3\n        /* \"#utility.yul\":4503:4507   */\n      0x20\n        /* \"#utility.yul\":4495:4501   */\n      dup7\n        /* \"#utility.yul\":4491:4508   */\n      add\n        /* \"#utility.yul\":4443:4522   */\n      tag_577\n      jump\t// in\n    tag_612:\n        /* \"#utility.yul\":4434:4522   */\n      swap2\n      pop\n        /* \"#utility.yul\":4250:4528   */\n      pop\n      swap3\n      swap2\n      pop\n      pop\n      jump\t// out\n        /* \"#utility.yul\":4534:4673   */\n    tag_613:\n        /* \"#utility.yul\":4580:4585   */\n      0x00\n        /* \"#utility.yul\":4618:4624   */\n      dup2\n        /* \"#utility.yul\":4605:4625   */\n      calldataload\n        /* \"#utility.yul\":4596:4625   */\n      swap1\n      pop\n        /* \"#utility.yul\":4634:4667   */\n      tag_615\n        /* \"#utility.yul\":4661:4666   */\n      dup2\n        /* \"#utility.yul\":4634:4667   */\n      tag_616\n      jump\t// in\n    tag_615:\n        /* \"#utility.yul\":4586:4673   */\n      swap3\n      swap2\n      pop\n      pop\n      jump\t// out\n        /* \"#utility.yul\":4679:5008   */\n    tag_74:\n        /* \"#utility.yul\":4738:4744   */\n      0x00\n        /* \"#utility.yul\":4787:4789   */\n      0x20\n        /* \"#utility.yul\":4775:4784   */\n      dup3\n        /* \"#utility.yul\":4766:4773   */\n      dup5\n        /* \"#utility.yul\":4762:4785   */\n      sub\n        /* \"#utility.yul\":4758:4790   */\n      slt\n        /* \"#utility.yul\":4755:4757   */\n      iszero\n      tag_618\n      jumpi\n        /* \"#utility.yul\":4793:4872   */\n      tag_619\n      tag_620\n      jump\t// in\n    tag_619:\n        /* \"#utility.yul\":4755:4757   */\n    tag_618:\n        /* \"#utility.yul\":4913:4914   */\n      0x00\n        /* \"#utility.yul\":4938:4991   */\n      tag_621\n        /* \"#utility.yul\":4983:4990   */\n      dup5\n        /* \"#utility.yul\":4974:4980   */\n      dup3\n        /* \"#utility.yul\":4963:4972   */\n      dup6\n        /* \"#utility.yul\":4959:4981   */\n      add\n        /* \"#utility.yul\":4938:4991   */\n      tag_587\n      jump\t// in\n    tag_621:\n        /* \"#utility.yul\":4928:4991   */\n      swap2\n      pop\n        /* \"#utility.yul\":4884:5001   */\n      pop\n        /* \"#utility.yul\":4745:5008   */\n      swap3\n      swap2\n      pop\n      pop\n      jump\t// out\n        /* \"#utility.yul\":5014:5925   */\n    tag_128:\n        /* \"#utility.yul\":5109:5115   */\n      0x00\n        /* \"#utility.yul\":5117:5123   */\n      dup1\n        /* \"#utility.yul\":5125:5131   */\n      0x00\n        /* \"#utility.yul\":5133:5139   */\n      dup1\n        /* \"#utility.yul\":5141:5147   */\n      0x00\n        /* \"#utility.yul\":5190:5193   */\n      0xa0\n        /* \"#utility.yul\":5178:5187   */\n      dup7\n        /* \"#utility.yul\":5169:5176   */\n      dup9\n        /* \"#utility.yul\":5165:5188   */\n      sub\n        /* \"#utility.yul\":5161:5194   */\n      slt\n        /* \"#utility.yul\":5158:5160   */\n      iszero\n      tag_623\n      jumpi\n        /* \"#utility.yul\":5197:5276   */\n      tag_624\n      tag_620\n      jump\t// in\n    tag_624:\n        /* \"#utility.yul\":5158:5160   */\n    tag_623:\n        /* \"#utility.yul\":5317:5318   */\n      0x00\n        /* \"#utility.yul\":5342:5395   */\n      tag_625\n        /* \"#utility.yul\":5387:5394   */\n      dup9\n        /* \"#utility.yul\":5378:5384   */\n      dup3\n        /* \"#utility.yul\":5367:5376   */\n      dup10\n        /* \"#utility.yul\":5363:5385   */\n      add\n        /* \"#utility.yul\":5342:5395   */\n      tag_587\n      jump\t// in\n    tag_625:\n        /* \"#utility.yul\":5332:5395   */\n      swap6\n      pop\n        /* \"#utility.yul\":5288:5405   */\n      pop\n        /* \"#utility.yul\":5444:5446   */\n      0x20\n        /* \"#utility.yul\":5470:5523   */\n      tag_626\n        /* \"#utility.yul\":5515:5522   */\n      dup9\n        /* \"#utility.yul\":5506:5512   */\n      dup3\n        /* \"#utility.yul\":5495:5504   */\n      dup10\n        /* \"#utility.yul\":5491:5513   */\n      add\n        /* \"#utility.yul\":5470:5523   */\n      tag_613\n      jump\t// in\n    tag_626:\n        /* \"#utility.yul\":5460:5523   */\n      swap5\n      pop\n        /* \"#utility.yul\":5415:5533   */\n      pop\n        /* \"#utility.yul\":5572:5574   */\n      0x40\n        /* \"#utility.yul\":5598:5651   */\n      tag_627\n        /* \"#utility.yul\":5643:5650   */\n      dup9\n        /* \"#utility.yul\":5634:5640   */\n      dup3\n        /* \"#utility.yul\":5623:5632   */\n      dup10\n        /* \"#utility.yul\":5619:5641   */\n      add\n        /* \"#utility.yul\":5598:5651   */\n      tag_613\n      jump\t// in\n    tag_627:\n        /* \"#utility.yul\":5588:5651   */\n      swap4\n      pop\n        /* \"#utility.yul\":5543:5661   */\n      pop\n        /* \"#utility.yul\":5700:5702   */\n      0x60\n        /* \"#utility.yul\":5726:5779   */\n      tag_628\n        /* \"#utility.yul\":5771:5778   */\n      dup9\n        /* \"#utility.yul\":5762:5768   */\n      dup3\n        /* \"#utility.yul\":5751:5760   */\n      dup10\n        /* \"#utility.yul\":5747:5769   */\n      add\n        /* \"#utility.yul\":5726:5779   */\n      tag_613\n      jump\t// in\n    tag_628:\n        /* \"#utility.yul\":5716:5779   */\n      swap3\n      pop\n        /* \"#utility.yul\":5671:5789   */\n      pop\n        /* \"#utility.yul\":5828:5831   */\n      0x80\n        /* \"#utility.yul\":5855:5908   */\n      tag_629\n        /* \"#utility.yul\":5900:5907   */\n      dup9\n        /* \"#utility.yul\":5891:5897   */\n      dup3\n        /* \"#utility.yul\":5880:5889   */\n      dup10\n        /* \"#utility.yul\":5876:5898   */\n      add\n        /* \"#utility.yul\":5855:5908   */\n      tag_613\n      jump\t// in\n    tag_629:\n        /* \"#utility.yul\":5845:5908   */\n      swap2\n      pop\n        /* \"#utility.yul\":5799:5918   */\n      pop\n        /* \"#utility.yul\":5148:5925   */\n      swap3\n      swap6\n      pop\n      swap3\n      swap6\n      swap1\n      swap4\n      pop\n      jump\t// out\n        /* \"#utility.yul\":5931:6468   */\n    tag_56:\n        /* \"#utility.yul\":6014:6020   */\n      0x00\n        /* \"#utility.yul\":6063:6065   */\n      0x20\n        /* \"#utility.yul\":6051:6060   */\n      dup3\n        /* \"#utility.yul\":6042:6049   */\n      dup5\n        /* \"#utility.yul\":6038:6061   */\n      sub\n        /* \"#utility.yul\":6034:6066   */\n      slt\n        /* \"#utility.yul\":6031:6033   */\n      iszero\n      tag_631\n      jumpi\n        /* \"#utility.yul\":6069:6148   */\n      tag_632\n      tag_620\n      jump\t// in\n    tag_632:\n        /* \"#utility.yul\":6031:6033   */\n    tag_631:\n        /* \"#utility.yul\":6217:6218   */\n      0x00\n        /* \"#utility.yul\":6206:6215   */\n      dup3\n        /* \"#utility.yul\":6202:6219   */\n      add\n        /* \"#utility.yul\":6189:6220   */\n      calldataload\n        /* \"#utility.yul\":6247:6265   */\n      0xffffffffffffffff\n        /* \"#utility.yul\":6239:6245   */\n      dup2\n        /* \"#utility.yul\":6236:6266   */\n      gt\n        /* \"#utility.yul\":6233:6235   */\n      iszero\n      tag_633\n      jumpi\n        /* \"#utility.yul\":6269:6348   */\n      tag_634\n      tag_635\n      jump\t// in\n    tag_634:\n        /* \"#utility.yul\":6233:6235   */\n    tag_633:\n        /* \"#utility.yul\":6374:6451   */\n      tag_636\n        /* \"#utility.yul\":6443:6450   */\n      dup5\n        /* \"#utility.yul\":6434:6440   */\n      dup3\n        /* \"#utility.yul\":6423:6432   */\n      dup6\n        /* \"#utility.yul\":6419:6441   */\n      add\n        /* \"#utility.yul\":6374:6451   */\n      tag_596\n      jump\t// in\n    tag_636:\n        /* \"#utility.yul\":6364:6451   */\n      swap2\n      pop\n        /* \"#utility.yul\":6160:6461   */\n      pop\n        /* \"#utility.yul\":6021:6468   */\n      swap3\n      swap2\n      pop\n      pop\n      jump\t// out\n        /* \"#utility.yul\":6474:7591   */\n    tag_166:\n        /* \"#utility.yul\":6639:6645   */\n      0x00\n        /* \"#utility.yul\":6647:6653   */\n      dup1\n        /* \"#utility.yul\":6655:6661   */\n      0x00\n        /* \"#utility.yul\":6704:6707   */\n      0x0140\n        /* \"#utility.yul\":6692:6701   */\n      dup5\n        /* \"#utility.yul\":6683:6690   */\n      dup7\n        /* \"#utility.yul\":6679:6702   */\n      sub\n        /* \"#utility.yul\":6675:6708   */\n      slt\n        /* \"#utility.yul\":6672:6674   */\n      iszero\n      tag_638\n      jumpi\n        /* \"#utility.yul\":6711:6790   */\n      tag_639\n      tag_620\n      jump\t// in\n    tag_639:\n        /* \"#utility.yul\":6672:6674   */\n    tag_638:\n        /* \"#utility.yul\":6859:6860   */\n      0x00\n        /* \"#utility.yul\":6848:6857   */\n      dup5\n        /* \"#utility.yul\":6844:6861   */\n      add\n        /* \"#utility.yul\":6831:6862   */\n      calldataload\n        /* \"#utility.yul\":6889:6907   */\n      0xffffffffffffffff\n        /* \"#utility.yul\":6881:6887   */\n      dup2\n        /* \"#utility.yul\":6878:6908   */\n      gt\n        /* \"#utility.yul\":6875:6877   */\n      iszero\n      tag_640\n      jumpi\n        /* \"#utility.yul\":6911:6990   */\n      tag_641\n      tag_635\n      jump\t// in\n    tag_641:\n        /* \"#utility.yul\":6875:6877   */\n    tag_640:\n        /* \"#utility.yul\":7016:7102   */\n      tag_642\n        /* \"#utility.yul\":7094:7101   */\n      dup7\n        /* \"#utility.yul\":7085:7091   */\n      dup3\n        /* \"#utility.yul\":7074:7083   */\n      dup8\n        /* \"#utility.yul\":7070:7092   */\n      add\n        /* \"#utility.yul\":7016:7102   */\n      tag_601\n      jump\t// in\n    tag_642:\n        /* \"#utility.yul\":7006:7102   */\n      swap4\n      pop\n        /* \"#utility.yul\":6802:7112   */\n      pop\n        /* \"#utility.yul\":7151:7153   */\n      0x20\n        /* \"#utility.yul\":7177:7252   */\n      tag_643\n        /* \"#utility.yul\":7244:7251   */\n      dup7\n        /* \"#utility.yul\":7235:7241   */\n      dup3\n        /* \"#utility.yul\":7224:7233   */\n      dup8\n        /* \"#utility.yul\":7220:7242   */\n      add\n        /* \"#utility.yul\":7177:7252   */\n      tag_591\n      jump\t// in\n    tag_643:\n        /* \"#utility.yul\":7167:7252   */\n      swap3\n      pop\n        /* \"#utility.yul\":7122:7262   */\n      pop\n        /* \"#utility.yul\":7329:7332   */\n      0x0120\n        /* \"#utility.yul\":7318:7327   */\n      dup5\n        /* \"#utility.yul\":7314:7333   */\n      add\n        /* \"#utility.yul\":7301:7334   */\n      calldataload\n        /* \"#utility.yul\":7361:7379   */\n      0xffffffffffffffff\n        /* \"#utility.yul\":7353:7359   */\n      dup2\n        /* \"#utility.yul\":7350:7380   */\n      gt\n        /* \"#utility.yul\":7347:7349   */\n      iszero\n      tag_644\n      jumpi\n        /* \"#utility.yul\":7383:7462   */\n      tag_645\n      tag_635\n      jump\t// in\n    tag_645:\n        /* \"#utility.yul\":7347:7349   */\n    tag_644:\n        /* \"#utility.yul\":7488:7574   */\n      tag_646\n        /* \"#utility.yul\":7566:7573   */\n      dup7\n        /* \"#utility.yul\":7557:7563   */\n      dup3\n        /* \"#utility.yul\":7546:7555   */\n      dup8\n        /* \"#utility.yul\":7542:7564   */\n      add\n        /* \"#utility.yul\":7488:7574   */\n      tag_601\n      jump\t// in\n    tag_646:\n        /* \"#utility.yul\":7478:7574   */\n      swap2\n      pop\n        /* \"#utility.yul\":7272:7584   */\n      pop\n        /* \"#utility.yul\":6662:7591   */\n      swap3\n      pop\n      swap3\n      pop\n      swap3\n      jump\t// out\n        /* \"#utility.yul\":7597:7926   */\n    tag_83:\n        /* \"#utility.yul\":7656:7662   */\n      0x00\n        /* \"#utility.yul\":7705:7707   */\n      0x20\n        /* \"#utility.yul\":7693:7702   */\n      dup3\n        /* \"#utility.yul\":7684:7691   */\n      dup5\n        /* \"#utility.yul\":7680:7703   */\n      sub\n        /* \"#utility.yul\":7676:7708   */\n      slt\n        /* \"#utility.yul\":7673:7675   */\n      iszero\n      tag_648\n      jumpi\n        /* \"#utility.yul\":7711:7790   */\n      tag_649\n      tag_620\n      jump\t// in\n    tag_649:\n        /* \"#utility.yul\":7673:7675   */\n    tag_648:\n        /* \"#utility.yul\":7831:7832   */\n      0x00\n        /* \"#utility.yul\":7856:7909   */\n      tag_650\n        /* \"#utility.yul\":7901:7908   */\n      dup5\n        /* \"#utility.yul\":7892:7898   */\n      dup3\n        /* \"#utility.yul\":7881:7890   */\n      dup6\n        /* \"#utility.yul\":7877:7899   */\n      add\n        /* \"#utility.yul\":7856:7909   */\n      tag_613\n      jump\t// in\n    tag_650:\n        /* \"#utility.yul\":7846:7909   */\n      swap2\n      pop\n        /* \"#utility.yul\":7802:7919   */\n      pop\n        /* \"#utility.yul\":7663:7926   */\n      swap3\n      swap2\n      pop\n      pop\n      jump\t// out\n        /* \"#utility.yul\":7932:8107   */\n    tag_651:\n        /* \"#utility.yul\":7999:8009   */\n      0x00\n        /* \"#utility.yul\":8020:8064   */\n      tag_653\n        /* \"#utility.yul\":8060:8063   */\n      dup4\n        /* \"#utility.yul\":8052:8058   */\n      dup4\n        /* \"#utility.yul\":8020:8064   */\n      tag_654\n      jump\t// in\n    tag_653:\n        /* \"#utility.yul\":8096:8100   */\n      0x20\n        /* \"#utility.yul\":8091:8094   */\n      dup4\n        /* \"#utility.yul\":8087:8101   */\n      add\n        /* \"#utility.yul\":8073:8101   */\n      swap1\n      pop\n        /* \"#utility.yul\":8010:8107   */\n      swap3\n      swap2\n      pop\n      pop\n      jump\t// out\n        /* \"#utility.yul\":8113:8309   */\n    tag_655:\n        /* \"#utility.yul\":8202:8212   */\n      0x00\n        /* \"#utility.yul\":8237:8303   */\n      tag_657\n        /* \"#utility.yul\":8299:8302   */\n      dup4\n        /* \"#utility.yul\":8291:8297   */\n      dup4\n        /* \"#utility.yul\":8237:8303   */\n      tag_658\n      jump\t// in\n    tag_657:\n        /* \"#utility.yul\":8223:8303   */\n      swap1\n      pop\n        /* \"#utility.yul\":8213:8309   */\n      swap3\n      swap2\n      pop\n      pop\n      jump\t// out\n        /* \"#utility.yul\":8315:8457   */\n    tag_659:\n        /* \"#utility.yul\":8418:8450   */\n      tag_661\n        /* \"#utility.yul\":8444:8449   */\n      dup2\n        /* \"#utility.yul\":8418:8450   */\n      tag_662\n      jump\t// in\n    tag_661:\n        /* \"#utility.yul\":8413:8416   */\n      dup3\n        /* \"#utility.yul\":8406:8451   */\n      mstore\n        /* \"#utility.yul\":8396:8457   */\n      pop\n      pop\n      jump\t// out\n        /* \"#utility.yul\":8463:8581   */\n    tag_663:\n        /* \"#utility.yul\":8550:8574   */\n      tag_665\n        /* \"#utility.yul\":8568:8573   */\n      dup2\n        /* \"#utility.yul\":8550:8574   */\n      tag_666\n      jump\t// in\n    tag_665:\n        /* \"#utility.yul\":8545:8548   */\n      dup3\n        /* \"#utility.yul\":8538:8575   */\n      mstore\n        /* \"#utility.yul\":8528:8581   */\n      pop\n      pop\n      jump\t// out\n        /* \"#utility.yul\":8617:9303   */\n    tag_667:\n        /* \"#utility.yul\":8751:8802   */\n      tag_669\n        /* \"#utility.yul\":8796:8801   */\n      dup2\n        /* \"#utility.yul\":8751:8802   */\n      tag_670\n      jump\t// in\n    tag_669:\n        /* \"#utility.yul\":8818:8901   */\n      tag_671\n        /* \"#utility.yul\":8894:8900   */\n      dup2\n        /* \"#utility.yul\":8889:8892   */\n      dup5\n        /* \"#utility.yul\":8818:8901   */\n      tag_672\n      jump\t// in\n    tag_671:\n        /* \"#utility.yul\":8811:8901   */\n      swap3\n      pop\n        /* \"#utility.yul\":8925:8978   */\n      tag_673\n        /* \"#utility.yul\":8972:8977   */\n      dup3\n        /* \"#utility.yul\":8925:8978   */\n      tag_674\n      jump\t// in\n    tag_673:\n        /* \"#utility.yul\":9001:9008   */\n      dup1\n        /* \"#utility.yul\":9032:9033   */\n      0x00\n        /* \"#utility.yul\":9017:9296   */\n    tag_675:\n        /* \"#utility.yul\":9042:9048   */\n      dup4\n        /* \"#utility.yul\":9039:9040   */\n      dup2\n        /* \"#utility.yul\":9036:9049   */\n      lt\n        /* \"#utility.yul\":9017:9296   */\n      iszero\n      tag_677\n      jumpi\n        /* \"#utility.yul\":9118:9124   */\n      dup2\n        /* \"#utility.yul\":9112:9125   */\n      mload\n        /* \"#utility.yul\":9145:9206   */\n      tag_678\n        /* \"#utility.yul\":9202:9205   */\n      dup8\n        /* \"#utility.yul\":9187:9200   */\n      dup3\n        /* \"#utility.yul\":9145:9206   */\n      tag_651\n      jump\t// in\n    tag_678:\n        /* \"#utility.yul\":9138:9206   */\n      swap7\n      pop\n        /* \"#utility.yul\":9229:9286   */\n      tag_679\n        /* \"#utility.yul\":9279:9285   */\n      dup4\n        /* \"#utility.yul\":9229:9286   */\n      tag_680\n      jump\t// in\n    tag_679:\n        /* \"#utility.yul\":9219:9286   */\n      swap3\n      pop\n        /* \"#utility.yul\":9077:9296   */\n      pop\n        /* \"#utility.yul\":9064:9065   */\n      0x01\n        /* \"#utility.yul\":9061:9062   */\n      dup2\n        /* \"#utility.yul\":9057:9066   */\n      add\n        /* \"#utility.yul\":9052:9066   */\n      swap1\n      pop\n        /* \"#utility.yul\":9017:9296   */\n      jump(tag_675)\n    tag_677:\n        /* \"#utility.yul\":9021:9035   */\n      pop\n        /* \"#utility.yul\":8727:9303   */\n      pop\n      pop\n      pop\n      pop\n      pop\n      jump\t// out\n        /* \"#utility.yul\":9339:10318   */\n    tag_681:\n        /* \"#utility.yul\":9474:9477   */\n      0x00\n        /* \"#utility.yul\":9503:9565   */\n      tag_683\n        /* \"#utility.yul\":9559:9564   */\n      dup3\n        /* \"#utility.yul\":9503:9565   */\n      tag_684\n      jump\t// in\n    tag_683:\n        /* \"#utility.yul\":9581:9675   */\n      tag_685\n        /* \"#utility.yul\":9668:9674   */\n      dup2\n        /* \"#utility.yul\":9663:9666   */\n      dup6\n        /* \"#utility.yul\":9581:9675   */\n      tag_686\n      jump\t// in\n    tag_685:\n        /* \"#utility.yul\":9574:9675   */\n      swap4\n      pop\n        /* \"#utility.yul\":9701:9704   */\n      dup4\n        /* \"#utility.yul\":9746:9750   */\n      0x20\n        /* \"#utility.yul\":9738:9744   */\n      dup3\n        /* \"#utility.yul\":9734:9751   */\n      mul\n        /* \"#utility.yul\":9729:9732   */\n      dup6\n        /* \"#utility.yul\":9725:9752   */\n      add\n        /* \"#utility.yul\":9776:9840   */\n      tag_687\n        /* \"#utility.yul\":9834:9839   */\n      dup6\n        /* \"#utility.yul\":9776:9840   */\n      tag_688\n      jump\t// in\n    tag_687:\n        /* \"#utility.yul\":9863:9870   */\n      dup1\n        /* \"#utility.yul\":9894:9895   */\n      0x00\n        /* \"#utility.yul\":9879:10273   */\n    tag_689:\n        /* \"#utility.yul\":9904:9910   */\n      dup6\n        /* \"#utility.yul\":9901:9902   */\n      dup2\n        /* \"#utility.yul\":9898:9911   */\n      lt\n        /* \"#utility.yul\":9879:10273   */\n      iszero\n      tag_691\n      jumpi\n        /* \"#utility.yul\":9975:9984   */\n      dup5\n        /* \"#utility.yul\":9969:9973   */\n      dup5\n        /* \"#utility.yul\":9965:9985   */\n      sub\n        /* \"#utility.yul\":9960:9963   */\n      dup10\n        /* \"#utility.yul\":9953:9986   */\n      mstore\n        /* \"#utility.yul\":10026:10032   */\n      dup2\n        /* \"#utility.yul\":10020:10033   */\n      mload\n        /* \"#utility.yul\":10054:10138   */\n      tag_692\n        /* \"#utility.yul\":10133:10137   */\n      dup6\n        /* \"#utility.yul\":10118:10131   */\n      dup3\n        /* \"#utility.yul\":10054:10138   */\n      tag_655\n      jump\t// in\n    tag_692:\n        /* \"#utility.yul\":10046:10138   */\n      swap5\n      pop\n        /* \"#utility.yul\":10161:10229   */\n      tag_693\n        /* \"#utility.yul\":10222:10228   */\n      dup4\n        /* \"#utility.yul\":10161:10229   */\n      tag_694\n      jump\t// in\n    tag_693:\n        /* \"#utility.yul\":10151:10229   */\n      swap3\n      pop\n        /* \"#utility.yul\":10258:10262   */\n      0x20\n        /* \"#utility.yul\":10253:10256   */\n      dup11\n        /* \"#utility.yul\":10249:10263   */\n      add\n        /* \"#utility.yul\":10242:10263   */\n      swap10\n      pop\n        /* \"#utility.yul\":9939:10273   */\n      pop\n        /* \"#utility.yul\":9926:9927   */\n      0x01\n        /* \"#utility.yul\":9923:9924   */\n      dup2\n        /* \"#utility.yul\":9919:9928   */\n      add\n        /* \"#utility.yul\":9914:9928   */\n      swap1\n      pop\n        /* \"#utility.yul\":9879:10273   */\n      jump(tag_689)\n    tag_691:\n        /* \"#utility.yul\":9883:9897   */\n      pop\n        /* \"#utility.yul\":10289:10293   */\n      dup3\n        /* \"#utility.yul\":10282:10293   */\n      swap8\n      pop\n        /* \"#utility.yul\":10309:10312   */\n      dup8\n        /* \"#utility.yul\":10302:10312   */\n      swap6\n      pop\n        /* \"#utility.yul\":9479:10318   */\n      pop\n      pop\n      pop\n      pop\n      pop\n      swap3\n      swap2\n      pop\n      pop\n      jump\t// out\n        /* \"#utility.yul\":10324:10433   */\n    tag_695:\n        /* \"#utility.yul\":10405:10426   */\n      tag_697\n        /* \"#utility.yul\":10420:10425   */\n      dup2\n        /* \"#utility.yul\":10405:10426   */\n      tag_698\n      jump\t// in\n    tag_697:\n        /* \"#utility.yul\":10400:10403   */\n      dup3\n        /* \"#utility.yul\":10393:10427   */\n      mstore\n        /* \"#utility.yul\":10383:10433   */\n      pop\n      pop\n      jump\t// out\n        /* \"#utility.yul\":10439:10584   */\n    tag_699:\n        /* \"#utility.yul\":10533:10577   */\n      tag_701\n        /* \"#utility.yul\":10571:10576   */\n      dup2\n        /* \"#utility.yul\":10533:10577   */\n      tag_702\n      jump\t// in\n    tag_701:\n        /* \"#utility.yul\":10528:10531   */\n      dup3\n        /* \"#utility.yul\":10521:10578   */\n      mstore\n        /* \"#utility.yul\":10511:10584   */\n      pop\n      pop\n      jump\t// out\n        /* \"#utility.yul\":10590:10695   */\n    tag_654:\n        /* \"#utility.yul\":10665:10688   */\n      tag_704\n        /* \"#utility.yul\":10682:10687   */\n      dup2\n        /* \"#utility.yul\":10665:10688   */\n      tag_705\n      jump\t// in\n    tag_704:\n        /* \"#utility.yul\":10660:10663   */\n      dup3\n        /* \"#utility.yul\":10653:10689   */\n      mstore\n        /* \"#utility.yul\":10643:10695   */\n      pop\n      pop\n      jump\t// out\n        /* \"#utility.yul\":10701:10816   */\n    tag_706:\n        /* \"#utility.yul\":10786:10809   */\n      tag_708\n        /* \"#utility.yul\":10803:10808   */\n      dup2\n        /* \"#utility.yul\":10786:10809   */\n      tag_705\n      jump\t// in\n    tag_708:\n        /* \"#utility.yul\":10781:10784   */\n      dup3\n        /* \"#utility.yul\":10774:10810   */\n      mstore\n        /* \"#utility.yul\":10764:10816   */\n      pop\n      pop\n      jump\t// out\n        /* \"#utility.yul\":10822:11166   */\n    tag_658:\n        /* \"#utility.yul\":10900:10903   */\n      0x00\n        /* \"#utility.yul\":10928:10967   */\n      tag_710\n        /* \"#utility.yul\":10961:10966   */\n      dup3\n        /* \"#utility.yul\":10928:10967   */\n      tag_711\n      jump\t// in\n    tag_710:\n        /* \"#utility.yul\":10983:11044   */\n      tag_712\n        /* \"#utility.yul\":11037:11043   */\n      dup2\n        /* \"#utility.yul\":11032:11035   */\n      dup6\n        /* \"#utility.yul\":10983:11044   */\n      tag_713\n      jump\t// in\n    tag_712:\n        /* \"#utility.yul\":10976:11044   */\n      swap4\n      pop\n        /* \"#utility.yul\":11053:11105   */\n      tag_714\n        /* \"#utility.yul\":11098:11104   */\n      dup2\n        /* \"#utility.yul\":11093:11096   */\n      dup6\n        /* \"#utility.yul\":11086:11090   */\n      0x20\n        /* \"#utility.yul\":11079:11084   */\n      dup7\n        /* \"#utility.yul\":11075:11091   */\n      add\n        /* \"#utility.yul\":11053:11105   */\n      tag_715\n      jump\t// in\n    tag_714:\n        /* \"#utility.yul\":11130:11159   */\n      tag_716\n        /* \"#utility.yul\":11152:11158   */\n      dup2\n        /* \"#utility.yul\":11130:11159   */\n      tag_717\n      jump\t// in\n    tag_716:\n        /* \"#utility.yul\":11125:11128   */\n      dup5\n        /* \"#utility.yul\":11121:11160   */\n      add\n        /* \"#utility.yul\":11114:11160   */\n      swap2\n      pop\n        /* \"#utility.yul\":10904:11166   */\n      pop\n      swap3\n      swap2\n      pop\n      pop\n      jump\t// out\n        /* \"#utility.yul\":11172:11536   */\n    tag_718:\n        /* \"#utility.yul\":11260:11263   */\n      0x00\n        /* \"#utility.yul\":11288:11327   */\n      tag_720\n        /* \"#utility.yul\":11321:11326   */\n      dup3\n        /* \"#utility.yul\":11288:11327   */\n      tag_711\n      jump\t// in\n    tag_720:\n        /* \"#utility.yul\":11343:11414   */\n      tag_721\n        /* \"#utility.yul\":11407:11413   */\n      dup2\n        /* \"#utility.yul\":11402:11405   */\n      dup6\n        /* \"#utility.yul\":11343:11414   */\n      tag_722\n      jump\t// in\n    tag_721:\n        /* \"#utility.yul\":11336:11414   */\n      swap4\n      pop\n        /* \"#utility.yul\":11423:11475   */\n      tag_723\n        /* \"#utility.yul\":11468:11474   */\n      dup2\n        /* \"#utility.yul\":11463:11466   */\n      dup6\n        /* \"#utility.yul\":11456:11460   */\n      0x20\n        /* \"#utility.yul\":11449:11454   */\n      dup7\n        /* \"#utility.yul\":11445:11461   */\n      add\n        /* \"#utility.yul\":11423:11475   */\n      tag_715\n      jump\t// in\n    tag_723:\n        /* \"#utility.yul\":11500:11529   */\n      tag_724\n        /* \"#utility.yul\":11522:11528   */\n      dup2\n        /* \"#utility.yul\":11500:11529   */\n      tag_717\n      jump\t// in\n    tag_724:\n        /* \"#utility.yul\":11495:11498   */\n      dup5\n        /* \"#utility.yul\":11491:11530   */\n      add\n        /* \"#utility.yul\":11484:11530   */\n      swap2\n      pop\n        /* \"#utility.yul\":11264:11536   */\n      pop\n      swap3\n      swap2\n      pop\n      pop\n      jump\t// out\n        /* \"#utility.yul\":11542:11919   */\n    tag_725:\n        /* \"#utility.yul\":11648:11651   */\n      0x00\n        /* \"#utility.yul\":11676:11715   */\n      tag_727\n        /* \"#utility.yul\":11709:11714   */\n      dup3\n        /* \"#utility.yul\":11676:11715   */\n      tag_711\n      jump\t// in\n    tag_727:\n        /* \"#utility.yul\":11731:11820   */\n      tag_728\n        /* \"#utility.yul\":11813:11819   */\n      dup2\n        /* \"#utility.yul\":11808:11811   */\n      dup6\n        /* \"#utility.yul\":11731:11820   */\n      tag_729\n      jump\t// in\n    tag_728:\n        /* \"#utility.yul\":11724:11820   */\n      swap4\n      pop\n        /* \"#utility.yul\":11829:11881   */\n      tag_730\n        /* \"#utility.yul\":11874:11880   */\n      dup2\n        /* \"#utility.yul\":11869:11872   */\n      dup6\n        /* \"#utility.yul\":11862:11866   */\n      0x20\n        /* \"#utility.yul\":11855:11860   */\n      dup7\n        /* \"#utility.yul\":11851:11867   */\n      add\n        /* \"#utility.yul\":11829:11881   */\n      tag_715\n      jump\t// in\n    tag_730:\n        /* \"#utility.yul\":11906:11912   */\n      dup1\n        /* \"#utility.yul\":11901:11904   */\n      dup5\n        /* \"#utility.yul\":11897:11913   */\n      add\n        /* \"#utility.yul\":11890:11913   */\n      swap2\n      pop\n        /* \"#utility.yul\":11652:11919   */\n      pop\n      swap3\n      swap2\n      pop\n      pop\n      jump\t// out\n        /* \"#utility.yul\":11925:12325   */\n    tag_731:\n        /* \"#utility.yul\":12085:12088   */\n      0x00\n        /* \"#utility.yul\":12106:12190   */\n      tag_733\n        /* \"#utility.yul\":12188:12189   */\n      0x02\n        /* \"#utility.yul\":12183:12186   */\n      dup4\n        /* \"#utility.yul\":12106:12190   */\n      tag_729\n      jump\t// in\n    tag_733:\n        /* \"#utility.yul\":12099:12190   */\n      swap2\n      pop\n        /* \"#utility.yul\":12199:12292   */\n      tag_734\n        /* \"#utility.yul\":12288:12291   */\n      dup3\n        /* \"#utility.yul\":12199:12292   */\n      tag_735\n      jump\t// in\n    tag_734:\n        /* \"#utility.yul\":12317:12318   */\n      0x02\n        /* \"#utility.yul\":12312:12315   */\n      dup3\n        /* \"#utility.yul\":12308:12319   */\n      add\n        /* \"#utility.yul\":12301:12319   */\n      swap1\n      pop\n        /* \"#utility.yul\":12089:12325   */\n      swap2\n      swap1\n      pop\n      jump\t// out\n        /* \"#utility.yul\":12331:12697   */\n    tag_736:\n        /* \"#utility.yul\":12473:12476   */\n      0x00\n        /* \"#utility.yul\":12494:12561   */\n      tag_738\n        /* \"#utility.yul\":12558:12560   */\n      0x43\n        /* \"#utility.yul\":12553:12556   */\n      dup4\n        /* \"#utility.yul\":12494:12561   */\n      tag_722\n      jump\t// in\n    tag_738:\n        /* \"#utility.yul\":12487:12561   */\n      swap2\n      pop\n        /* \"#utility.yul\":12570:12663   */\n      tag_739\n        /* \"#utility.yul\":12659:12662   */\n      dup3\n        /* \"#utility.yul\":12570:12663   */\n      tag_740\n      jump\t// in\n    tag_739:\n        /* \"#utility.yul\":12688:12690   */\n      0x60\n        /* \"#utility.yul\":12683:12686   */\n      dup3\n        /* \"#utility.yul\":12679:12691   */\n      add\n        /* \"#utility.yul\":12672:12691   */\n      swap1\n      pop\n        /* \"#utility.yul\":12477:12697   */\n      swap2\n      swap1\n      pop\n      jump\t// out\n        /* \"#utility.yul\":12703:13069   */\n    tag_741:\n        /* \"#utility.yul\":12845:12848   */\n      0x00\n        /* \"#utility.yul\":12866:12933   */\n      tag_743\n        /* \"#utility.yul\":12930:12932   */\n      0x36\n        /* \"#utility.yul\":12925:12928   */\n      dup4\n        /* \"#utility.yul\":12866:12933   */\n      tag_722\n      jump\t// in\n    tag_743:\n        /* \"#utility.yul\":12859:12933   */\n      swap2\n      pop\n        /* \"#utility.yul\":12942:13035   */\n      tag_744\n        /* \"#utility.yul\":13031:13034   */\n      dup3\n        /* \"#utility.yul\":12942:13035   */\n      tag_745\n      jump\t// in\n    tag_744:\n        /* \"#utility.yul\":13060:13062   */\n      0x40\n        /* \"#utility.yul\":13055:13058   */\n      dup3\n        /* \"#utility.yul\":13051:13063   */\n      add\n        /* \"#utility.yul\":13044:13063   */\n      swap1\n      pop\n        /* \"#utility.yul\":12849:13069   */\n      swap2\n      swap1\n      pop\n      jump\t// out\n        /* \"#utility.yul\":13075:13441   */\n    tag_746:\n        /* \"#utility.yul\":13217:13220   */\n      0x00\n        /* \"#utility.yul\":13238:13305   */\n      tag_748\n        /* \"#utility.yul\":13302:13304   */\n      0x2f\n        /* \"#utility.yul\":13297:13300   */\n      dup4\n        /* \"#utility.yul\":13238:13305   */\n      tag_722\n      jump\t// in\n    tag_748:\n        /* \"#utility.yul\":13231:13305   */\n      swap2\n      pop\n        /* \"#utility.yul\":13314:13407   */\n      tag_749\n        /* \"#utility.yul\":13403:13406   */\n      dup3\n        /* \"#utility.yul\":13314:13407   */\n      tag_750\n      jump\t// in\n    tag_749:\n        /* \"#utility.yul\":13432:13434   */\n      0x40\n        /* \"#utility.yul\":13427:13430   */\n      dup3\n        /* \"#utility.yul\":13423:13435   */\n      add\n        /* \"#utility.yul\":13416:13435   */\n      swap1\n      pop\n        /* \"#utility.yul\":13221:13441   */\n      swap2\n      swap1\n      pop\n      jump\t// out\n        /* \"#utility.yul\":13447:13813   */\n    tag_751:\n        /* \"#utility.yul\":13589:13592   */\n      0x00\n        /* \"#utility.yul\":13610:13677   */\n      tag_753\n        /* \"#utility.yul\":13674:13676   */\n      0x12\n        /* \"#utility.yul\":13669:13672   */\n      dup4\n        /* \"#utility.yul\":13610:13677   */\n      tag_722\n      jump\t// in\n    tag_753:\n        /* \"#utility.yul\":13603:13677   */\n      swap2\n      pop\n        /* \"#utility.yul\":13686:13779   */\n      tag_754\n        /* \"#utility.yul\":13775:13778   */\n      dup3\n        /* \"#utility.yul\":13686:13779   */\n      tag_755\n      jump\t// in\n    tag_754:\n        /* \"#utility.yul\":13804:13806   */\n      0x20\n        /* \"#utility.yul\":13799:13802   */\n      dup3\n        /* \"#utility.yul\":13795:13807   */\n      add\n        /* \"#utility.yul\":13788:13807   */\n      swap1\n      pop\n        /* \"#utility.yul\":13593:13813   */\n      swap2\n      swap1\n      pop\n      jump\t// out\n        /* \"#utility.yul\":13819:14185   */\n    tag_756:\n        /* \"#utility.yul\":13961:13964   */\n      0x00\n        /* \"#utility.yul\":13982:14049   */\n      tag_758\n        /* \"#utility.yul\":14046:14048   */\n      0x10\n        /* \"#utility.yul\":14041:14044   */\n      dup4\n        /* \"#utility.yul\":13982:14049   */\n      tag_722\n      jump\t// in\n    tag_758:\n        /* \"#utility.yul\":13975:14049   */\n      swap2\n      pop\n        /* \"#utility.yul\":14058:14151   */\n      tag_759\n        /* \"#utility.yul\":14147:14150   */\n      dup3\n        /* \"#utility.yul\":14058:14151   */\n      tag_760\n      jump\t// in\n    tag_759:\n        /* \"#utility.yul\":14176:14178   */\n      0x20\n        /* \"#utility.yul\":14171:14174   */\n      dup3\n        /* \"#utility.yul\":14167:14179   */\n      add\n        /* \"#utility.yul\":14160:14179   */\n      swap1\n      pop\n        /* \"#utility.yul\":13965:14185   */\n      swap2\n      swap1\n      pop\n      jump\t// out\n        /* \"#utility.yul\":14191:14557   */\n    tag_761:\n        /* \"#utility.yul\":14333:14336   */\n      0x00\n        /* \"#utility.yul\":14354:14421   */\n      tag_763\n        /* \"#utility.yul\":14418:14420   */\n      0x22\n        /* \"#utility.yul\":14413:14416   */\n      dup4\n        /* \"#utility.yul\":14354:14421   */\n      tag_722\n      jump\t// in\n    tag_763:\n        /* \"#utility.yul\":14347:14421   */\n      swap2\n      pop\n        /* \"#utility.yul\":14430:14523   */\n      tag_764\n        /* \"#utility.yul\":14519:14522   */\n      dup3\n        /* \"#utility.yul\":14430:14523   */\n      tag_765\n      jump\t// in\n    tag_764:\n        /* \"#utility.yul\":14548:14550   */\n      0x40\n        /* \"#utility.yul\":14543:14546   */\n      dup3\n        /* \"#utility.yul\":14539:14551   */\n      add\n        /* \"#utility.yul\":14532:14551   */\n      swap1\n      pop\n        /* \"#utility.yul\":14337:14557   */\n      swap2\n      swap1\n      pop\n      jump\t// out\n        /* \"#utility.yul\":14563:14963   */\n    tag_766:\n        /* \"#utility.yul\":14723:14726   */\n      0x00\n        /* \"#utility.yul\":14744:14828   */\n      tag_768\n        /* \"#utility.yul\":14826:14827   */\n      0x02\n        /* \"#utility.yul\":14821:14824   */\n      dup4\n        /* \"#utility.yul\":14744:14828   */\n      tag_729\n      jump\t// in\n    tag_768:\n        /* \"#utility.yul\":14737:14828   */\n      swap2\n      pop\n        /* \"#utility.yul\":14837:14930   */\n      tag_769\n        /* \"#utility.yul\":14926:14929   */\n      dup3\n        /* \"#utility.yul\":14837:14930   */\n      tag_770\n      jump\t// in\n    tag_769:\n        /* \"#utility.yul\":14955:14956   */\n      0x02\n        /* \"#utility.yul\":14950:14953   */\n      dup3\n        /* \"#utility.yul\":14946:14957   */\n      add\n        /* \"#utility.yul\":14939:14957   */\n      swap1\n      pop\n        /* \"#utility.yul\":14727:14963   */\n      swap2\n      swap1\n      pop\n      jump\t// out\n        /* \"#utility.yul\":14969:15335   */\n    tag_771:\n        /* \"#utility.yul\":15111:15114   */\n      0x00\n        /* \"#utility.yul\":15132:15199   */\n      tag_773\n        /* \"#utility.yul\":15196:15198   */\n      0x26\n        /* \"#utility.yul\":15191:15194   */\n      dup4\n        /* \"#utility.yul\":15132:15199   */\n      tag_722\n      jump\t// in\n    tag_773:\n        /* \"#utility.yul\":15125:15199   */\n      swap2\n      pop\n        /* \"#utility.yul\":15208:15301   */\n      tag_774\n        /* \"#utility.yul\":15297:15300   */\n      dup3\n        /* \"#utility.yul\":15208:15301   */\n      tag_775\n      jump\t// in\n    tag_774:\n        /* \"#utility.yul\":15326:15328   */\n      0x40\n        /* \"#utility.yul\":15321:15324   */\n      dup3\n        /* \"#utility.yul\":15317:15329   */\n      add\n        /* \"#utility.yul\":15310:15329   */\n      swap1\n      pop\n        /* \"#utility.yul\":15115:15335   */\n      swap2\n      swap1\n      pop\n      jump\t// out\n        /* \"#utility.yul\":15341:15741   */\n    tag_776:\n        /* \"#utility.yul\":15501:15504   */\n      0x00\n        /* \"#utility.yul\":15522:15606   */\n      tag_778\n        /* \"#utility.yul\":15604:15605   */\n      0x01\n        /* \"#utility.yul\":15599:15602   */\n      dup4\n        /* \"#utility.yul\":15522:15606   */\n      tag_729\n      jump\t// in\n    tag_778:\n        /* \"#utility.yul\":15515:15606   */\n      swap2\n      pop\n        /* \"#utility.yul\":15615:15708   */\n      tag_779\n        /* \"#utility.yul\":15704:15707   */\n      dup3\n        /* \"#utility.yul\":15615:15708   */\n      tag_780\n      jump\t// in\n    tag_779:\n        /* \"#utility.yul\":15733:15734   */\n      0x01\n        /* \"#utility.yul\":15728:15731   */\n      dup3\n        /* \"#utility.yul\":15724:15735   */\n      add\n        /* \"#utility.yul\":15717:15735   */\n      swap1\n      pop\n        /* \"#utility.yul\":15505:15741   */\n      swap2\n      swap1\n      pop\n      jump\t// out\n        /* \"#utility.yul\":15747:16147   */\n    tag_781:\n        /* \"#utility.yul\":15907:15910   */\n      0x00\n        /* \"#utility.yul\":15928:16012   */\n      tag_783\n        /* \"#utility.yul\":16010:16011   */\n      0x02\n        /* \"#utility.yul\":16005:16008   */\n      dup4\n        /* \"#utility.yul\":15928:16012   */\n      tag_729\n      jump\t// in\n    tag_783:\n        /* \"#utility.yul\":15921:16012   */\n      swap2\n      pop\n        /* \"#utility.yul\":16021:16114   */\n      tag_784\n        /* \"#utility.yul\":16110:16113   */\n      dup3\n        /* \"#utility.yul\":16021:16114   */\n      tag_785\n      jump\t// in\n    tag_784:\n        /* \"#utility.yul\":16139:16140   */\n      0x02\n        /* \"#utility.yul\":16134:16137   */\n      dup3\n        /* \"#utility.yul\":16130:16141   */\n      add\n        /* \"#utility.yul\":16123:16141   */\n      swap1\n      pop\n        /* \"#utility.yul\":15911:16147   */\n      swap2\n      swap1\n      pop\n      jump\t// out\n        /* \"#utility.yul\":16153:16553   */\n    tag_786:\n        /* \"#utility.yul\":16313:16316   */\n      0x00\n        /* \"#utility.yul\":16334:16418   */\n      tag_788\n        /* \"#utility.yul\":16416:16417   */\n      0x02\n        /* \"#utility.yul\":16411:16414   */\n      dup4\n        /* \"#utility.yul\":16334:16418   */\n      tag_729\n      jump\t// in\n    tag_788:\n        /* \"#utility.yul\":16327:16418   */\n      swap2\n      pop\n        /* \"#utility.yul\":16427:16520   */\n      tag_789\n        /* \"#utility.yul\":16516:16519   */\n      dup3\n        /* \"#utility.yul\":16427:16520   */\n      tag_790\n      jump\t// in\n    tag_789:\n        /* \"#utility.yul\":16545:16546   */\n      0x02\n        /* \"#utility.yul\":16540:16543   */\n      dup3\n        /* \"#utility.yul\":16536:16547   */\n      add\n        /* \"#utility.yul\":16529:16547   */\n      swap1\n      pop\n        /* \"#utility.yul\":16317:16553   */\n      swap2\n      swap1\n      pop\n      jump\t// out\n        /* \"#utility.yul\":16559:16959   */\n    tag_791:\n        /* \"#utility.yul\":16719:16722   */\n      0x00\n        /* \"#utility.yul\":16740:16824   */\n      tag_793\n        /* \"#utility.yul\":16822:16823   */\n      0x01\n        /* \"#utility.yul\":16817:16820   */\n      dup4\n        /* \"#utility.yul\":16740:16824   */\n      tag_729\n      jump\t// in\n    tag_793:\n        /* \"#utility.yul\":16733:16824   */\n      swap2\n      pop\n        /* \"#utility.yul\":16833:16926   */\n      tag_794\n        /* \"#utility.yul\":16922:16925   */\n      dup3\n        /* \"#utility.yul\":16833:16926   */\n      tag_795\n      jump\t// in\n    tag_794:\n        /* \"#utility.yul\":16951:16952   */\n      0x01\n        /* \"#utility.yul\":16946:16949   */\n      dup3\n        /* \"#utility.yul\":16942:16953   */\n      add\n        /* \"#utility.yul\":16935:16953   */\n      swap1\n      pop\n        /* \"#utility.yul\":16723:16959   */\n      swap2\n      swap1\n      pop\n      jump\t// out\n        /* \"#utility.yul\":16965:17331   */\n    tag_796:\n        /* \"#utility.yul\":17107:17110   */\n      0x00\n        /* \"#utility.yul\":17128:17195   */\n      tag_798\n        /* \"#utility.yul\":17192:17194   */\n      0x1d\n        /* \"#utility.yul\":17187:17190   */\n      dup4\n        /* \"#utility.yul\":17128:17195   */\n      tag_722\n      jump\t// in\n    tag_798:\n        /* \"#utility.yul\":17121:17195   */\n      swap2\n      pop\n        /* \"#utility.yul\":17204:17297   */\n      tag_799\n        /* \"#utility.yul\":17293:17296   */\n      dup3\n        /* \"#utility.yul\":17204:17297   */\n      tag_800\n      jump\t// in\n    tag_799:\n        /* \"#utility.yul\":17322:17324   */\n      0x20\n        /* \"#utility.yul\":17317:17320   */\n      dup3\n        /* \"#utility.yul\":17313:17325   */\n      add\n        /* \"#utility.yul\":17306:17325   */\n      swap1\n      pop\n        /* \"#utility.yul\":17111:17331   */\n      swap2\n      swap1\n      pop\n      jump\t// out\n        /* \"#utility.yul\":17337:17703   */\n    tag_801:\n        /* \"#utility.yul\":17479:17482   */\n      0x00\n        /* \"#utility.yul\":17500:17567   */\n      tag_803\n        /* \"#utility.yul\":17564:17566   */\n      0x25\n        /* \"#utility.yul\":17559:17562   */\n      dup4\n        /* \"#utility.yul\":17500:17567   */\n      tag_722\n      jump\t// in\n    tag_803:\n        /* \"#utility.yul\":17493:17567   */\n      swap2\n      pop\n        /* \"#utility.yul\":17576:17669   */\n      tag_804\n        /* \"#utility.yul\":17665:17668   */\n      dup3\n        /* \"#utility.yul\":17576:17669   */\n      tag_805\n      jump\t// in\n    tag_804:\n        /* \"#utility.yul\":17694:17696   */\n      0x40\n        /* \"#utility.yul\":17689:17692   */\n      dup3\n        /* \"#utility.yul\":17685:17697   */\n      add\n        /* \"#utility.yul\":17678:17697   */\n      swap1\n      pop\n        /* \"#utility.yul\":17483:17703   */\n      swap2\n      swap1\n      pop\n      jump\t// out\n        /* \"#utility.yul\":17709:17827   */\n    tag_806:\n        /* \"#utility.yul\":17796:17820   */\n      tag_808\n        /* \"#utility.yul\":17814:17819   */\n      dup2\n        /* \"#utility.yul\":17796:17820   */\n      tag_809\n      jump\t// in\n    tag_808:\n        /* \"#utility.yul\":17791:17794   */\n      dup3\n        /* \"#utility.yul\":17784:17821   */\n      mstore\n        /* \"#utility.yul\":17774:17827   */\n      pop\n      pop\n      jump\t// out\n        /* \"#utility.yul\":17833:18108   */\n    tag_404:\n        /* \"#utility.yul\":17965:17968   */\n      0x00\n        /* \"#utility.yul\":17987:18082   */\n      tag_811\n        /* \"#utility.yul\":18078:18081   */\n      dup3\n        /* \"#utility.yul\":18069:18075   */\n      dup5\n        /* \"#utility.yul\":17987:18082   */\n      tag_725\n      jump\t// in\n    tag_811:\n        /* \"#utility.yul\":17980:18082   */\n      swap2\n      pop\n        /* \"#utility.yul\":18099:18102   */\n      dup2\n        /* \"#utility.yul\":18092:18102   */\n      swap1\n      pop\n        /* \"#utility.yul\":17969:18108   */\n      swap3\n      swap2\n      pop\n      pop\n      jump\t// out\n        /* \"#utility.yul\":18114:18495   */\n    tag_475:\n        /* \"#utility.yul\":18299:18302   */\n      0x00\n        /* \"#utility.yul\":18321:18469   */\n      tag_813\n        /* \"#utility.yul\":18465:18468   */\n      dup3\n        /* \"#utility.yul\":18321:18469   */\n      tag_731\n      jump\t// in\n    tag_813:\n        /* \"#utility.yul\":18314:18469   */\n      swap2\n      pop\n        /* \"#utility.yul\":18486:18489   */\n      dup2\n        /* \"#utility.yul\":18479:18489   */\n      swap1\n      pop\n        /* \"#utility.yul\":18303:18495   */\n      swap2\n      swap1\n      pop\n      jump\t// out\n        /* \"#utility.yul\":18501:18882   */\n    tag_473:\n        /* \"#utility.yul\":18686:18689   */\n      0x00\n        /* \"#utility.yul\":18708:18856   */\n      tag_815\n        /* \"#utility.yul\":18852:18855   */\n      dup3\n        /* \"#utility.yul\":18708:18856   */\n      tag_766\n      jump\t// in\n    tag_815:\n        /* \"#utility.yul\":18701:18856   */\n      swap2\n      pop\n        /* \"#utility.yul\":18873:18876   */\n      dup2\n        /* \"#utility.yul\":18866:18876   */\n      swap1\n      pop\n        /* \"#utility.yul\":18690:18882   */\n      swap2\n      swap1\n      pop\n      jump\t// out\n        /* \"#utility.yul\":18888:19269   */\n    tag_477:\n        /* \"#utility.yul\":19073:19076   */\n      0x00\n        /* \"#utility.yul\":19095:19243   */\n      tag_817\n        /* \"#utility.yul\":19239:19242   */\n      dup3\n        /* \"#utility.yul\":19095:19243   */\n      tag_776\n      jump\t// in\n    tag_817:\n        /* \"#utility.yul\":19088:19243   */\n      swap2\n      pop\n        /* \"#utility.yul\":19260:19263   */\n      dup2\n        /* \"#utility.yul\":19253:19263   */\n      swap1\n      pop\n        /* \"#utility.yul\":19077:19269   */\n      swap2\n      swap1\n      pop\n      jump\t// out\n        /* \"#utility.yul\":19275:19656   */\n    tag_479:\n        /* \"#utility.yul\":19460:19463   */\n      0x00\n        /* \"#utility.yul\":19482:19630   */\n      tag_819\n        /* \"#utility.yul\":19626:19629   */\n      dup3\n        /* \"#utility.yul\":19482:19630   */\n      tag_781\n      jump\t// in\n    tag_819:\n        /* \"#utility.yul\":19475:19630   */\n      swap2\n      pop\n        /* \"#utility.yul\":19647:19650   */\n      dup2\n        /* \"#utility.yul\":19640:19650   */\n      swap1\n      pop\n        /* \"#utility.yul\":19464:19656   */\n      swap2\n      swap1\n      pop\n      jump\t// out\n        /* \"#utility.yul\":19662:20043   */\n    tag_481:\n        /* \"#utility.yul\":19847:19850   */\n      0x00\n        /* \"#utility.yul\":19869:20017   */\n      tag_821\n        /* \"#utility.yul\":20013:20016   */\n      dup3\n        /* \"#utility.yul\":19869:20017   */\n      tag_786\n      jump\t// in\n    tag_821:\n        /* \"#utility.yul\":19862:20017   */\n      swap2\n      pop\n        /* \"#utility.yul\":20034:20037   */\n      dup2\n        /* \"#utility.yul\":20027:20037   */\n      swap1\n      pop\n        /* \"#utility.yul\":19851:20043   */\n      swap2\n      swap1\n      pop\n      jump\t// out\n        /* \"#utility.yul\":20049:20430   */\n    tag_471:\n        /* \"#utility.yul\":20234:20237   */\n      0x00\n        /* \"#utility.yul\":20256:20404   */\n      tag_823\n        /* \"#utility.yul\":20400:20403   */\n      dup3\n        /* \"#utility.yul\":20256:20404   */\n      tag_791\n      jump\t// in\n    tag_823:\n        /* \"#utility.yul\":20249:20404   */\n      swap2\n      pop\n        /* \"#utility.yul\":20421:20424   */\n      dup2\n        /* \"#utility.yul\":20414:20424   */\n      swap1\n      pop\n        /* \"#utility.yul\":20238:20430   */\n      swap2\n      swap1\n      pop\n      jump\t// out\n        /* \"#utility.yul\":20436:20658   */\n    tag_162:\n        /* \"#utility.yul\":20529:20533   */\n      0x00\n        /* \"#utility.yul\":20567:20569   */\n      0x20\n        /* \"#utility.yul\":20556:20565   */\n      dup3\n        /* \"#utility.yul\":20552:20570   */\n      add\n        /* \"#utility.yul\":20544:20570   */\n      swap1\n      pop\n        /* \"#utility.yul\":20580:20651   */\n      tag_825\n        /* \"#utility.yul\":20648:20649   */\n      0x00\n        /* \"#utility.yul\":20637:20646   */\n      dup4\n        /* \"#utility.yul\":20633:20650   */\n      add\n        /* \"#utility.yul\":20624:20630   */\n      dup5\n        /* \"#utility.yul\":20580:20651   */\n      tag_663\n      jump\t// in\n    tag_825:\n        /* \"#utility.yul\":20534:20658   */\n      swap3\n      swap2\n      pop\n      pop\n      jump\t// out\n        /* \"#utility.yul\":20664:20918   */\n    tag_49:\n        /* \"#utility.yul\":20773:20777   */\n      0x00\n        /* \"#utility.yul\":20811:20813   */\n      0x20\n        /* \"#utility.yul\":20800:20809   */\n      dup3\n        /* \"#utility.yul\":20796:20814   */\n      add\n        /* \"#utility.yul\":20788:20814   */\n      swap1\n      pop\n        /* \"#utility.yul\":20824:20911   */\n      tag_827\n        /* \"#utility.yul\":20908:20909   */\n      0x00\n        /* \"#utility.yul\":20897:20906   */\n      dup4\n        /* \"#utility.yul\":20893:20910   */\n      add\n        /* \"#utility.yul\":20884:20890   */\n      dup5\n        /* \"#utility.yul\":20824:20911   */\n      tag_659\n      jump\t// in\n    tag_827:\n        /* \"#utility.yul\":20778:20918   */\n      swap3\n      swap2\n      pop\n      pop\n      jump\t// out\n        /* \"#utility.yul\":20924:22710   */\n    tag_172:\n        /* \"#utility.yul\":21474:21478   */\n      0x00\n        /* \"#utility.yul\":21512:21515   */\n      0x0240\n        /* \"#utility.yul\":21501:21510   */\n      dup3\n        /* \"#utility.yul\":21497:21516   */\n      add\n        /* \"#utility.yul\":21489:21516   */\n      swap1\n      pop\n        /* \"#utility.yul\":21526:21597   */\n      tag_829\n        /* \"#utility.yul\":21594:21595   */\n      0x00\n        /* \"#utility.yul\":21583:21592   */\n      dup4\n        /* \"#utility.yul\":21579:21596   */\n      add\n        /* \"#utility.yul\":21570:21576   */\n      dup15\n        /* \"#utility.yul\":21526:21597   */\n      tag_663\n      jump\t// in\n    tag_829:\n        /* \"#utility.yul\":21607:21679   */\n      tag_830\n        /* \"#utility.yul\":21675:21677   */\n      0x20\n        /* \"#utility.yul\":21664:21673   */\n      dup4\n        /* \"#utility.yul\":21660:21678   */\n      add\n        /* \"#utility.yul\":21651:21657   */\n      dup14\n        /* \"#utility.yul\":21607:21679   */\n      tag_663\n      jump\t// in\n    tag_830:\n        /* \"#utility.yul\":21689:21761   */\n      tag_831\n        /* \"#utility.yul\":21757:21759   */\n      0x40\n        /* \"#utility.yul\":21746:21755   */\n      dup4\n        /* \"#utility.yul\":21742:21760   */\n      add\n        /* \"#utility.yul\":21733:21739   */\n      dup13\n        /* \"#utility.yul\":21689:21761   */\n      tag_806\n      jump\t// in\n    tag_831:\n        /* \"#utility.yul\":21771:21843   */\n      tag_832\n        /* \"#utility.yul\":21839:21841   */\n      0x60\n        /* \"#utility.yul\":21828:21837   */\n      dup4\n        /* \"#utility.yul\":21824:21842   */\n      add\n        /* \"#utility.yul\":21815:21821   */\n      dup12\n        /* \"#utility.yul\":21771:21843   */\n      tag_806\n      jump\t// in\n    tag_832:\n        /* \"#utility.yul\":21853:21926   */\n      tag_833\n        /* \"#utility.yul\":21921:21924   */\n      0x80\n        /* \"#utility.yul\":21910:21919   */\n      dup4\n        /* \"#utility.yul\":21906:21925   */\n      add\n        /* \"#utility.yul\":21897:21903   */\n      dup11\n        /* \"#utility.yul\":21853:21926   */\n      tag_806\n      jump\t// in\n    tag_833:\n        /* \"#utility.yul\":21936:22009   */\n      tag_834\n        /* \"#utility.yul\":22004:22007   */\n      0xa0\n        /* \"#utility.yul\":21993:22002   */\n      dup4\n        /* \"#utility.yul\":21989:22008   */\n      add\n        /* \"#utility.yul\":21980:21986   */\n      dup10\n        /* \"#utility.yul\":21936:22009   */\n      tag_806\n      jump\t// in\n    tag_834:\n        /* \"#utility.yul\":22019:22092   */\n      tag_835\n        /* \"#utility.yul\":22087:22090   */\n      0xc0\n        /* \"#utility.yul\":22076:22085   */\n      dup4\n        /* \"#utility.yul\":22072:22091   */\n      add\n        /* \"#utility.yul\":22063:22069   */\n      dup9\n        /* \"#utility.yul\":22019:22092   */\n      tag_806\n      jump\t// in\n    tag_835:\n        /* \"#utility.yul\":22102:22175   */\n      tag_836\n        /* \"#utility.yul\":22170:22173   */\n      0xe0\n        /* \"#utility.yul\":22159:22168   */\n      dup4\n        /* \"#utility.yul\":22155:22174   */\n      add\n        /* \"#utility.yul\":22146:22152   */\n      dup8\n        /* \"#utility.yul\":22102:22175   */\n      tag_806\n      jump\t// in\n    tag_836:\n        /* \"#utility.yul\":22223:22232   */\n      dup2\n        /* \"#utility.yul\":22217:22221   */\n      dup2\n        /* \"#utility.yul\":22213:22233   */\n      sub\n        /* \"#utility.yul\":22207:22210   */\n      0x0100\n        /* \"#utility.yul\":22196:22205   */\n      dup4\n        /* \"#utility.yul\":22192:22211   */\n      add\n        /* \"#utility.yul\":22185:22234   */\n      mstore\n        /* \"#utility.yul\":22251:22375   */\n      tag_837\n        /* \"#utility.yul\":22370:22374   */\n      dup2\n        /* \"#utility.yul\":22361:22367   */\n      dup7\n        /* \"#utility.yul\":22251:22375   */\n      tag_681\n      jump\t// in\n    tag_837:\n        /* \"#utility.yul\":22243:22375   */\n      swap1\n      pop\n        /* \"#utility.yul\":22385:22502   */\n      tag_838\n        /* \"#utility.yul\":22497:22500   */\n      0x0120\n        /* \"#utility.yul\":22486:22495   */\n      dup4\n        /* \"#utility.yul\":22482:22501   */\n      add\n        /* \"#utility.yul\":22473:22479   */\n      dup6\n        /* \"#utility.yul\":22385:22502   */\n      tag_667\n      jump\t// in\n    tag_838:\n        /* \"#utility.yul\":22550:22559   */\n      dup2\n        /* \"#utility.yul\":22544:22548   */\n      dup2\n        /* \"#utility.yul\":22540:22560   */\n      sub\n        /* \"#utility.yul\":22534:22537   */\n      0x0220\n        /* \"#utility.yul\":22523:22532   */\n      dup4\n        /* \"#utility.yul\":22519:22538   */\n      add\n        /* \"#utility.yul\":22512:22561   */\n      mstore\n        /* \"#utility.yul\":22578:22703   */\n      tag_839\n        /* \"#utility.yul\":22698:22702   */\n      dup2\n        /* \"#utility.yul\":22688:22695   */\n      dup5\n        /* \"#utility.yul\":22578:22703   */\n      tag_681\n      jump\t// in\n    tag_839:\n        /* \"#utility.yul\":22570:22703   */\n      swap1\n      pop\n        /* \"#utility.yul\":21479:22710   */\n      swap13\n      swap12\n      pop\n      pop\n      pop\n      pop\n      pop\n      pop\n      pop\n      pop\n      pop\n      pop\n      pop\n      pop\n      jump\t// out\n        /* \"#utility.yul\":22716:22926   */\n    tag_66:\n        /* \"#utility.yul\":22803:22807   */\n      0x00\n        /* \"#utility.yul\":22841:22843   */\n      0x20\n        /* \"#utility.yul\":22830:22839   */\n      dup3\n        /* \"#utility.yul\":22826:22844   */\n      add\n        /* \"#utility.yul\":22818:22844   */\n      swap1\n      pop\n        /* \"#utility.yul\":22854:22919   */\n      tag_841\n        /* \"#utility.yul\":22916:22917   */\n      0x00\n        /* \"#utility.yul\":22905:22914   */\n      dup4\n        /* \"#utility.yul\":22901:22918   */\n      add\n        /* \"#utility.yul\":22892:22898   */\n      dup5\n        /* \"#utility.yul\":22854:22919   */\n      tag_695\n      jump\t// in\n    tag_841:\n        /* \"#utility.yul\":22808:22926   */\n      swap3\n      swap2\n      pop\n      pop\n      jump\t// out\n        /* \"#utility.yul\":22932:23449   */\n    tag_250:\n        /* \"#utility.yul\":23120:23124   */\n      0x00\n        /* \"#utility.yul\":23158:23160   */\n      0x40\n        /* \"#utility.yul\":23147:23156   */\n      dup3\n        /* \"#utility.yul\":23143:23161   */\n      add\n        /* \"#utility.yul\":23135:23161   */\n      swap1\n      pop\n        /* \"#utility.yul\":23171:23236   */\n      tag_843\n        /* \"#utility.yul\":23233:23234   */\n      0x00\n        /* \"#utility.yul\":23222:23231   */\n      dup4\n        /* \"#utility.yul\":23218:23235   */\n      add\n        /* \"#utility.yul\":23209:23215   */\n      dup5\n        /* \"#utility.yul\":23171:23236   */\n      tag_695\n      jump\t// in\n    tag_843:\n        /* \"#utility.yul\":23283:23292   */\n      dup2\n        /* \"#utility.yul\":23277:23281   */\n      dup2\n        /* \"#utility.yul\":23273:23293   */\n      sub\n        /* \"#utility.yul\":23268:23270   */\n      0x20\n        /* \"#utility.yul\":23257:23266   */\n      dup4\n        /* \"#utility.yul\":23253:23271   */\n      add\n        /* \"#utility.yul\":23246:23294   */\n      mstore\n        /* \"#utility.yul\":23311:23442   */\n      tag_844\n        /* \"#utility.yul\":23437:23441   */\n      dup2\n        /* \"#utility.yul\":23311:23442   */\n      tag_751\n      jump\t// in\n    tag_844:\n        /* \"#utility.yul\":23303:23442   */\n      swap1\n      pop\n        /* \"#utility.yul\":23125:23449   */\n      swap3\n      swap2\n      pop\n      pop\n      jump\t// out\n        /* \"#utility.yul\":23455:23972   */\n    tag_253:\n        /* \"#utility.yul\":23643:23647   */\n      0x00\n        /* \"#utility.yul\":23681:23683   */\n      0x40\n        /* \"#utility.yul\":23670:23679   */\n      dup3\n        /* \"#utility.yul\":23666:23684   */\n      add\n        /* \"#utility.yul\":23658:23684   */\n      swap1\n      pop\n        /* \"#utility.yul\":23694:23759   */\n      tag_846\n        /* \"#utility.yul\":23756:23757   */\n      0x00\n        /* \"#utility.yul\":23745:23754   */\n      dup4\n        /* \"#utility.yul\":23741:23758   */\n      add\n        /* \"#utility.yul\":23732:23738   */\n      dup5\n        /* \"#utility.yul\":23694:23759   */\n      tag_695\n      jump\t// in\n    tag_846:\n        /* \"#utility.yul\":23806:23815   */\n      dup2\n        /* \"#utility.yul\":23800:23804   */\n      dup2\n        /* \"#utility.yul\":23796:23816   */\n      sub\n        /* \"#utility.yul\":23791:23793   */\n      0x20\n        /* \"#utility.yul\":23780:23789   */\n      dup4\n        /* \"#utility.yul\":23776:23794   */\n      add\n        /* \"#utility.yul\":23769:23817   */\n      mstore\n        /* \"#utility.yul\":23834:23965   */\n      tag_847\n        /* \"#utility.yul\":23960:23964   */\n      dup2\n        /* \"#utility.yul\":23834:23965   */\n      tag_756\n      jump\t// in\n    tag_847:\n        /* \"#utility.yul\":23826:23965   */\n      swap1\n      pop\n        /* \"#utility.yul\":23648:23972   */\n      swap3\n      swap2\n      pop\n      pop\n      jump\t// out\n        /* \"#utility.yul\":23978:24214   */\n    tag_145:\n        /* \"#utility.yul\":24078:24082   */\n      0x00\n        /* \"#utility.yul\":24116:24118   */\n      0x20\n        /* \"#utility.yul\":24105:24114   */\n      dup3\n        /* \"#utility.yul\":24101:24119   */\n      add\n        /* \"#utility.yul\":24093:24119   */\n      swap1\n      pop\n        /* \"#utility.yul\":24129:24207   */\n      tag_849\n        /* \"#utility.yul\":24204:24205   */\n      0x00\n        /* \"#utility.yul\":24193:24202   */\n      dup4\n        /* \"#utility.yul\":24189:24206   */\n      add\n        /* \"#utility.yul\":24180:24186   */\n      dup5\n        /* \"#utility.yul\":24129:24207   */\n      tag_699\n      jump\t// in\n    tag_849:\n        /* \"#utility.yul\":24083:24214   */\n      swap3\n      swap2\n      pop\n      pop\n      jump\t// out\n        /* \"#utility.yul\":24220:24438   */\n    tag_99:\n        /* \"#utility.yul\":24311:24315   */\n      0x00\n        /* \"#utility.yul\":24349:24351   */\n      0x20\n        /* \"#utility.yul\":24338:24347   */\n      dup3\n        /* \"#utility.yul\":24334:24352   */\n      add\n        /* \"#utility.yul\":24326:24352   */\n      swap1\n      pop\n        /* \"#utility.yul\":24362:24431   */\n      tag_851\n        /* \"#utility.yul\":24428:24429   */\n      0x00\n        /* \"#utility.yul\":24417:24426   */\n      dup4\n        /* \"#utility.yul\":24413:24430   */\n      add\n        /* \"#utility.yul\":24404:24410   */\n      dup5\n        /* \"#utility.yul\":24362:24431   */\n      tag_706\n      jump\t// in\n    tag_851:\n        /* \"#utility.yul\":24316:24438   */\n      swap3\n      swap2\n      pop\n      pop\n      jump\t// out\n        /* \"#utility.yul\":24444:24757   */\n    tag_86:\n        /* \"#utility.yul\":24557:24561   */\n      0x00\n        /* \"#utility.yul\":24595:24597   */\n      0x20\n        /* \"#utility.yul\":24584:24593   */\n      dup3\n        /* \"#utility.yul\":24580:24598   */\n      add\n        /* \"#utility.yul\":24572:24598   */\n      swap1\n      pop\n        /* \"#utility.yul\":24644:24653   */\n      dup2\n        /* \"#utility.yul\":24638:24642   */\n      dup2\n        /* \"#utility.yul\":24634:24654   */\n      sub\n        /* \"#utility.yul\":24630:24631   */\n      0x00\n        /* \"#utility.yul\":24619:24628   */\n      dup4\n        /* \"#utility.yul\":24615:24632   */\n      add\n        /* \"#utility.yul\":24608:24655   */\n      mstore\n        /* \"#utility.yul\":24672:24750   */\n      tag_853\n        /* \"#utility.yul\":24745:24749   */\n      dup2\n        /* \"#utility.yul\":24736:24742   */\n      dup5\n        /* \"#utility.yul\":24672:24750   */\n      tag_718\n      jump\t// in\n    tag_853:\n        /* \"#utility.yul\":24664:24750   */\n      swap1\n      pop\n        /* \"#utility.yul\":24562:24757   */\n      swap3\n      swap2\n      pop\n      pop\n      jump\t// out\n        /* \"#utility.yul\":24763:25292   */\n    tag_388:\n        /* \"#utility.yul\":24957:24961   */\n      0x00\n        /* \"#utility.yul\":24995:24997   */\n      0x40\n        /* \"#utility.yul\":24984:24993   */\n      dup3\n        /* \"#utility.yul\":24980:24998   */\n      add\n        /* \"#utility.yul\":24972:24998   */\n      swap1\n      pop\n        /* \"#utility.yul\":25044:25053   */\n      dup2\n        /* \"#utility.yul\":25038:25042   */\n      dup2\n        /* \"#utility.yul\":25034:25054   */\n      sub\n        /* \"#utility.yul\":25030:25031   */\n      0x00\n        /* \"#utility.yul\":25019:25028   */\n      dup4\n        /* \"#utility.yul\":25015:25032   */\n      add\n        /* \"#utility.yul\":25008:25055   */\n      mstore\n        /* \"#utility.yul\":25072:25203   */\n      tag_855\n        /* \"#utility.yul\":25198:25202   */\n      dup2\n        /* \"#utility.yul\":25072:25203   */\n      tag_736\n      jump\t// in\n    tag_855:\n        /* \"#utility.yul\":25064:25203   */\n      swap1\n      pop\n        /* \"#utility.yul\":25213:25285   */\n      tag_856\n        /* \"#utility.yul\":25281:25283   */\n      0x20\n        /* \"#utility.yul\":25270:25279   */\n      dup4\n        /* \"#utility.yul\":25266:25284   */\n      add\n        /* \"#utility.yul\":25257:25263   */\n      dup5\n        /* \"#utility.yul\":25213:25285   */\n      tag_806\n      jump\t// in\n    tag_856:\n        /* \"#utility.yul\":24962:25292   */\n      swap3\n      swap2\n      pop\n      pop\n      jump\t// out\n        /* \"#utility.yul\":25298:25717   */\n    tag_185:\n        /* \"#utility.yul\":25464:25468   */\n      0x00\n        /* \"#utility.yul\":25502:25504   */\n      0x20\n        /* \"#utility.yul\":25491:25500   */\n      dup3\n        /* \"#utility.yul\":25487:25505   */\n      add\n        /* \"#utility.yul\":25479:25505   */\n      swap1\n      pop\n        /* \"#utility.yul\":25551:25560   */\n      dup2\n        /* \"#utility.yul\":25545:25549   */\n      dup2\n        /* \"#utility.yul\":25541:25561   */\n      sub\n        /* \"#utility.yul\":25537:25538   */\n      0x00\n        /* \"#utility.yul\":25526:25535   */\n      dup4\n        /* \"#utility.yul\":25522:25539   */\n      add\n        /* \"#utility.yul\":25515:25562   */\n      mstore\n        /* \"#utility.yul\":25579:25710   */\n      tag_858\n        /* \"#utility.yul\":25705:25709   */\n      dup2\n        /* \"#utility.yul\":25579:25710   */\n      tag_741\n      jump\t// in\n    tag_858:\n        /* \"#utility.yul\":25571:25710   */\n      swap1\n      pop\n        /* \"#utility.yul\":25469:25717   */\n      swap2\n      swap1\n      pop\n      jump\t// out\n        /* \"#utility.yul\":25723:26252   */\n    tag_382:\n        /* \"#utility.yul\":25917:25921   */\n      0x00\n        /* \"#utility.yul\":25955:25957   */\n      0x40\n        /* \"#utility.yul\":25944:25953   */\n      dup3\n        /* \"#utility.yul\":25940:25958   */\n      add\n        /* \"#utility.yul\":25932:25958   */\n      swap1\n      pop\n        /* \"#utility.yul\":26004:26013   */\n      dup2\n        /* \"#utility.yul\":25998:26002   */\n      dup2\n        /* \"#utility.yul\":25994:26014   */\n      sub\n        /* \"#utility.yul\":25990:25991   */\n      0x00\n        /* \"#utility.yul\":25979:25988   */\n      dup4\n        /* \"#utility.yul\":25975:25992   */\n      add\n        /* \"#utility.yul\":25968:26015   */\n      mstore\n        /* \"#utility.yul\":26032:26163   */\n      tag_860\n        /* \"#utility.yul\":26158:26162   */\n      dup2\n        /* \"#utility.yul\":26032:26163   */\n      tag_746\n      jump\t// in\n    tag_860:\n        /* \"#utility.yul\":26024:26163   */\n      swap1\n      pop\n        /* \"#utility.yul\":26173:26245   */\n      tag_861\n        /* \"#utility.yul\":26241:26243   */\n      0x20\n        /* \"#utility.yul\":26230:26239   */\n      dup4\n        /* \"#utility.yul\":26226:26244   */\n      add\n        /* \"#utility.yul\":26217:26223   */\n      dup5\n        /* \"#utility.yul\":26173:26245   */\n      tag_806\n      jump\t// in\n    tag_861:\n        /* \"#utility.yul\":25922:26252   */\n      swap3\n      swap2\n      pop\n      pop\n      jump\t// out\n        /* \"#utility.yul\":26258:26787   */\n    tag_372:\n        /* \"#utility.yul\":26452:26456   */\n      0x00\n        /* \"#utility.yul\":26490:26492   */\n      0x40\n        /* \"#utility.yul\":26479:26488   */\n      dup3\n        /* \"#utility.yul\":26475:26493   */\n      add\n        /* \"#utility.yul\":26467:26493   */\n      swap1\n      pop\n        /* \"#utility.yul\":26539:26548   */\n      dup2\n        /* \"#utility.yul\":26533:26537   */\n      dup2\n        /* \"#utility.yul\":26529:26549   */\n      sub\n        /* \"#utility.yul\":26525:26526   */\n      0x00\n        /* \"#utility.yul\":26514:26523   */\n      dup4\n        /* \"#utility.yul\":26510:26527   */\n      add\n        /* \"#utility.yul\":26503:26550   */\n      mstore\n        /* \"#utility.yul\":26567:26698   */\n      tag_863\n        /* \"#utility.yul\":26693:26697   */\n      dup2\n        /* \"#utility.yul\":26567:26698   */\n      tag_761\n      jump\t// in\n    tag_863:\n        /* \"#utility.yul\":26559:26698   */\n      swap1\n      pop\n        /* \"#utility.yul\":26708:26780   */\n      tag_864\n        /* \"#utility.yul\":26776:26778   */\n      0x20\n        /* \"#utility.yul\":26765:26774   */\n      dup4\n        /* \"#utility.yul\":26761:26779   */\n      add\n        /* \"#utility.yul\":26752:26758   */\n      dup5\n        /* \"#utility.yul\":26708:26780   */\n      tag_806\n      jump\t// in\n    tag_864:\n        /* \"#utility.yul\":26457:26787   */\n      swap3\n      swap2\n      pop\n      pop\n      jump\t// out\n        /* \"#utility.yul\":26793:27322   */\n    tag_493:\n        /* \"#utility.yul\":26987:26991   */\n      0x00\n        /* \"#utility.yul\":27025:27027   */\n      0x40\n        /* \"#utility.yul\":27014:27023   */\n      dup3\n        /* \"#utility.yul\":27010:27028   */\n      add\n        /* \"#utility.yul\":27002:27028   */\n      swap1\n      pop\n        /* \"#utility.yul\":27074:27083   */\n      dup2\n        /* \"#utility.yul\":27068:27072   */\n      dup2\n        /* \"#utility.yul\":27064:27084   */\n      sub\n        /* \"#utility.yul\":27060:27061   */\n      0x00\n        /* \"#utility.yul\":27049:27058   */\n      dup4\n        /* \"#utility.yul\":27045:27062   */\n      add\n        /* \"#utility.yul\":27038:27085   */\n      mstore\n        /* \"#utility.yul\":27102:27233   */\n      tag_866\n        /* \"#utility.yul\":27228:27232   */\n      dup2\n        /* \"#utility.yul\":27102:27233   */\n      tag_771\n      jump\t// in\n    tag_866:\n        /* \"#utility.yul\":27094:27233   */\n      swap1\n      pop\n        /* \"#utility.yul\":27243:27315   */\n      tag_867\n        /* \"#utility.yul\":27311:27313   */\n      0x20\n        /* \"#utility.yul\":27300:27309   */\n      dup4\n        /* \"#utility.yul\":27296:27314   */\n      add\n        /* \"#utility.yul\":27287:27293   */\n      dup5\n        /* \"#utility.yul\":27243:27315   */\n      tag_806\n      jump\t// in\n    tag_867:\n        /* \"#utility.yul\":26992:27322   */\n      swap3\n      swap2\n      pop\n      pop\n      jump\t// out\n        /* \"#utility.yul\":27328:27747   */\n    tag_202:\n        /* \"#utility.yul\":27494:27498   */\n      0x00\n        /* \"#utility.yul\":27532:27534   */\n      0x20\n        /* \"#utility.yul\":27521:27530   */\n      dup3\n        /* \"#utility.yul\":27517:27535   */\n      add\n        /* \"#utility.yul\":27509:27535   */\n      swap1\n      pop\n        /* \"#utility.yul\":27581:27590   */\n      dup2\n        /* \"#utility.yul\":27575:27579   */\n      dup2\n        /* \"#utility.yul\":27571:27591   */\n      sub\n        /* \"#utility.yul\":27567:27568   */\n      0x00\n        /* \"#utility.yul\":27556:27565   */\n      dup4\n        /* \"#utility.yul\":27552:27569   */\n      add\n        /* \"#utility.yul\":27545:27592   */\n      mstore\n        /* \"#utility.yul\":27609:27740   */\n      tag_869\n        /* \"#utility.yul\":27735:27739   */\n      dup2\n        /* \"#utility.yul\":27609:27740   */\n      tag_796\n      jump\t// in\n    tag_869:\n        /* \"#utility.yul\":27601:27740   */\n      swap1\n      pop\n        /* \"#utility.yul\":27499:27747   */\n      swap2\n      swap1\n      pop\n      jump\t// out\n        /* \"#utility.yul\":27753:28172   */\n    tag_181:\n        /* \"#utility.yul\":27919:27923   */\n      0x00\n        /* \"#utility.yul\":27957:27959   */\n      0x20\n        /* \"#utility.yul\":27946:27955   */\n      dup3\n        /* \"#utility.yul\":27942:27960   */\n      add\n        /* \"#utility.yul\":27934:27960   */\n      swap1\n      pop\n        /* \"#utility.yul\":28006:28015   */\n      dup2\n        /* \"#utility.yul\":28000:28004   */\n      dup2\n        /* \"#utility.yul\":27996:28016   */\n      sub\n        /* \"#utility.yul\":27992:27993   */\n      0x00\n        /* \"#utility.yul\":27981:27990   */\n      dup4\n        /* \"#utility.yul\":27977:27994   */\n      add\n        /* \"#utility.yul\":27970:28017   */\n      mstore\n        /* \"#utility.yul\":28034:28165   */\n      tag_871\n        /* \"#utility.yul\":28160:28164   */\n      dup2\n        /* \"#utility.yul\":28034:28165   */\n      tag_801\n      jump\t// in\n    tag_871:\n        /* \"#utility.yul\":28026:28165   */\n      swap1\n      pop\n        /* \"#utility.yul\":27924:28172   */\n      swap2\n      swap1\n      pop\n      jump\t// out\n        /* \"#utility.yul\":28178:28400   */\n    tag_44:\n        /* \"#utility.yul\":28271:28275   */\n      0x00\n        /* \"#utility.yul\":28309:28311   */\n      0x20\n        /* \"#utility.yul\":28298:28307   */\n      dup3\n        /* \"#utility.yul\":28294:28312   */\n      add\n        /* \"#utility.yul\":28286:28312   */\n      swap1\n      pop\n        /* \"#utility.yul\":28322:28393   */\n      tag_873\n        /* \"#utility.yul\":28390:28391   */\n      0x00\n        /* \"#utility.yul\":28379:28388   */\n      dup4\n        /* \"#utility.yul\":28375:28392   */\n      add\n        /* \"#utility.yul\":28366:28372   */\n      dup5\n        /* \"#utility.yul\":28322:28393   */\n      tag_806\n      jump\t// in\n    tag_873:\n        /* \"#utility.yul\":28276:28400   */\n      swap3\n      swap2\n      pop\n      pop\n      jump\t// out\n        /* \"#utility.yul\":28406:28535   */\n    tag_542:\n        /* \"#utility.yul\":28440:28446   */\n      0x00\n        /* \"#utility.yul\":28467:28487   */\n      tag_875\n      tag_876\n      jump\t// in\n    tag_875:\n        /* \"#utility.yul\":28457:28487   */\n      swap1\n      pop\n        /* \"#utility.yul\":28496:28529   */\n      tag_877\n        /* \"#utility.yul\":28524:28528   */\n      dup3\n        /* \"#utility.yul\":28516:28522   */\n      dup3\n        /* \"#utility.yul\":28496:28529   */\n      tag_878\n      jump\t// in\n    tag_877:\n        /* \"#utility.yul\":28447:28535   */\n      swap2\n      swap1\n      pop\n      jump\t// out\n        /* \"#utility.yul\":28541:28616   */\n    tag_876:\n        /* \"#utility.yul\":28574:28580   */\n      0x00\n        /* \"#utility.yul\":28607:28609   */\n      0x40\n        /* \"#utility.yul\":28601:28610   */\n      mload\n        /* \"#utility.yul\":28591:28610   */\n      swap1\n      pop\n        /* \"#utility.yul\":28581:28616   */\n      swap1\n      jump\t// out\n        /* \"#utility.yul\":28622:28870   */\n    tag_541:\n        /* \"#utility.yul\":28696:28700   */\n      0x00\n        /* \"#utility.yul\":28786:28804   */\n      0xffffffffffffffff\n        /* \"#utility.yul\":28778:28784   */\n      dup3\n        /* \"#utility.yul\":28775:28805   */\n      gt\n        /* \"#utility.yul\":28772:28774   */\n      iszero\n      tag_881\n      jumpi\n        /* \"#utility.yul\":28808:28826   */\n      tag_882\n      tag_883\n      jump\t// in\n    tag_882:\n        /* \"#utility.yul\":28772:28774   */\n    tag_881:\n        /* \"#utility.yul\":28858:28862   */\n      0x20\n        /* \"#utility.yul\":28850:28856   */\n      dup3\n        /* \"#utility.yul\":28846:28863   */\n      mul\n        /* \"#utility.yul\":28838:28863   */\n      swap1\n      pop\n        /* \"#utility.yul\":28701:28870   */\n      swap2\n      swap1\n      pop\n      jump\t// out\n        /* \"#utility.yul\":28876:29186   */\n    tag_555:\n        /* \"#utility.yul\":28952:28956   */\n      0x00\n        /* \"#utility.yul\":29042:29060   */\n      0xffffffffffffffff\n        /* \"#utility.yul\":29034:29040   */\n      dup3\n        /* \"#utility.yul\":29031:29061   */\n      gt\n        /* \"#utility.yul\":29028:29030   */\n      iszero\n      tag_885\n      jumpi\n        /* \"#utility.yul\":29064:29082   */\n      tag_886\n      tag_883\n      jump\t// in\n    tag_886:\n        /* \"#utility.yul\":29028:29030   */\n    tag_885:\n        /* \"#utility.yul\":29114:29118   */\n      0x20\n        /* \"#utility.yul\":29106:29112   */\n      dup3\n        /* \"#utility.yul\":29102:29119   */\n      mul\n        /* \"#utility.yul\":29094:29119   */\n      swap1\n      pop\n        /* \"#utility.yul\":29174:29178   */\n      0x20\n        /* \"#utility.yul\":29168:29172   */\n      dup2\n        /* \"#utility.yul\":29164:29179   */\n      add\n        /* \"#utility.yul\":29156:29179   */\n      swap1\n      pop\n        /* \"#utility.yul\":28957:29186   */\n      swap2\n      swap1\n      pop\n      jump\t// out\n        /* \"#utility.yul\":29192:29451   */\n    tag_566:\n        /* \"#utility.yul\":29277:29281   */\n      0x00\n        /* \"#utility.yul\":29367:29385   */\n      0xffffffffffffffff\n        /* \"#utility.yul\":29359:29365   */\n      dup3\n        /* \"#utility.yul\":29356:29386   */\n      gt\n        /* \"#utility.yul\":29353:29355   */\n      iszero\n      tag_888\n      jumpi\n        /* \"#utility.yul\":29389:29407   */\n      tag_889\n      tag_883\n      jump\t// in\n    tag_889:\n        /* \"#utility.yul\":29353:29355   */\n    tag_888:\n        /* \"#utility.yul\":29439:29443   */\n      0x20\n        /* \"#utility.yul\":29431:29437   */\n      dup3\n        /* \"#utility.yul\":29427:29444   */\n      mul\n        /* \"#utility.yul\":29419:29444   */\n      swap1\n      pop\n        /* \"#utility.yul\":29282:29451   */\n      swap2\n      swap1\n      pop\n      jump\t// out\n        /* \"#utility.yul\":29457:29765   */\n    tag_581:\n        /* \"#utility.yul\":29519:29523   */\n      0x00\n        /* \"#utility.yul\":29609:29627   */\n      0xffffffffffffffff\n        /* \"#utility.yul\":29601:29607   */\n      dup3\n        /* \"#utility.yul\":29598:29628   */\n      gt\n        /* \"#utility.yul\":29595:29597   */\n      iszero\n      tag_891\n      jumpi\n        /* \"#utility.yul\":29631:29649   */\n      tag_892\n      tag_883\n      jump\t// in\n    tag_892:\n        /* \"#utility.yul\":29595:29597   */\n    tag_891:\n        /* \"#utility.yul\":29669:29698   */\n      tag_893\n        /* \"#utility.yul\":29691:29697   */\n      dup3\n        /* \"#utility.yul\":29669:29698   */\n      tag_717\n      jump\t// in\n    tag_893:\n        /* \"#utility.yul\":29661:29698   */\n      swap1\n      pop\n        /* \"#utility.yul\":29753:29757   */\n      0x20\n        /* \"#utility.yul\":29747:29751   */\n      dup2\n        /* \"#utility.yul\":29743:29758   */\n      add\n        /* \"#utility.yul\":29735:29758   */\n      swap1\n      pop\n        /* \"#utility.yul\":29524:29765   */\n      swap2\n      swap1\n      pop\n      jump\t// out\n        /* \"#utility.yul\":29771:29868   */\n    tag_674:\n        /* \"#utility.yul\":29835:29839   */\n      0x00\n        /* \"#utility.yul\":29858:29861   */\n      dup2\n        /* \"#utility.yul\":29850:29861   */\n      swap1\n      pop\n        /* \"#utility.yul\":29840:29868   */\n      swap2\n      swap1\n      pop\n      jump\t// out\n        /* \"#utility.yul\":29874:29982   */\n    tag_688:\n        /* \"#utility.yul\":29949:29953   */\n      0x00\n        /* \"#utility.yul\":29972:29975   */\n      dup2\n        /* \"#utility.yul\":29964:29975   */\n      swap1\n      pop\n        /* \"#utility.yul\":29954:29982   */\n      swap2\n      swap1\n      pop\n      jump\t// out\n        /* \"#utility.yul\":29988:30091   */\n    tag_670:\n        /* \"#utility.yul\":30052:30058   */\n      0x00\n        /* \"#utility.yul\":30080:30084   */\n      0x08\n        /* \"#utility.yul\":30070:30084   */\n      swap1\n      pop\n        /* \"#utility.yul\":30059:30091   */\n      swap2\n      swap1\n      pop\n      jump\t// out\n        /* \"#utility.yul\":30097:30211   */\n    tag_684:\n        /* \"#utility.yul\":30172:30178   */\n      0x00\n        /* \"#utility.yul\":30200:30204   */\n      0x08\n        /* \"#utility.yul\":30190:30204   */\n      swap1\n      pop\n        /* \"#utility.yul\":30179:30211   */\n      swap2\n      swap1\n      pop\n      jump\t// out\n        /* \"#utility.yul\":30217:30316   */\n    tag_711:\n        /* \"#utility.yul\":30269:30275   */\n      0x00\n        /* \"#utility.yul\":30303:30308   */\n      dup2\n        /* \"#utility.yul\":30297:30309   */\n      mload\n        /* \"#utility.yul\":30287:30309   */\n      swap1\n      pop\n        /* \"#utility.yul\":30276:30316   */\n      swap2\n      swap1\n      pop\n      jump\t// out\n        /* \"#utility.yul\":30322:30432   */\n    tag_680:\n        /* \"#utility.yul\":30389:30393   */\n      0x00\n        /* \"#utility.yul\":30421:30425   */\n      0x20\n        /* \"#utility.yul\":30416:30419   */\n      dup3\n        /* \"#utility.yul\":30412:30426   */\n      add\n        /* \"#utility.yul\":30404:30426   */\n      swap1\n      pop\n        /* \"#utility.yul\":30394:30432   */\n      swap2\n      swap1\n      pop\n      jump\t// out\n        /* \"#utility.yul\":30438:30559   */\n    tag_694:\n        /* \"#utility.yul\":30516:30520   */\n      0x00\n        /* \"#utility.yul\":30548:30552   */\n      0x20\n        /* \"#utility.yul\":30543:30546   */\n      dup3\n        /* \"#utility.yul\":30539:30553   */\n      add\n        /* \"#utility.yul\":30531:30553   */\n      swap1\n      pop\n        /* \"#utility.yul\":30521:30559   */\n      swap2\n      swap1\n      pop\n      jump\t// out\n        /* \"#utility.yul\":30565:30707   */\n    tag_672:\n        /* \"#utility.yul\":30661:30672   */\n      0x00\n        /* \"#utility.yul\":30698:30701   */\n      dup2\n        /* \"#utility.yul\":30683:30701   */\n      swap1\n      pop\n        /* \"#utility.yul\":30673:30707   */\n      swap3\n      swap2\n      pop\n      pop\n      jump\t// out\n        /* \"#utility.yul\":30713:30866   */\n    tag_686:\n        /* \"#utility.yul\":30820:30831   */\n      0x00\n        /* \"#utility.yul\":30857:30860   */\n      dup2\n        /* \"#utility.yul\":30842:30860   */\n      swap1\n      pop\n        /* \"#utility.yul\":30832:30866   */\n      swap3\n      swap2\n      pop\n      pop\n      jump\t// out\n        /* \"#utility.yul\":30872:31031   */\n    tag_713:\n        /* \"#utility.yul\":30946:30957   */\n      0x00\n        /* \"#utility.yul\":30980:30986   */\n      dup3\n        /* \"#utility.yul\":30975:30978   */\n      dup3\n        /* \"#utility.yul\":30968:30987   */\n      mstore\n        /* \"#utility.yul\":31020:31024   */\n      0x20\n        /* \"#utility.yul\":31015:31018   */\n      dup3\n        /* \"#utility.yul\":31011:31025   */\n      add\n        /* \"#utility.yul\":30996:31025   */\n      swap1\n      pop\n        /* \"#utility.yul\":30958:31031   */\n      swap3\n      swap2\n      pop\n      pop\n      jump\t// out\n        /* \"#utility.yul\":31037:31206   */\n    tag_722:\n        /* \"#utility.yul\":31121:31132   */\n      0x00\n        /* \"#utility.yul\":31155:31161   */\n      dup3\n        /* \"#utility.yul\":31150:31153   */\n      dup3\n        /* \"#utility.yul\":31143:31162   */\n      mstore\n        /* \"#utility.yul\":31195:31199   */\n      0x20\n        /* \"#utility.yul\":31190:31193   */\n      dup3\n        /* \"#utility.yul\":31186:31200   */\n      add\n        /* \"#utility.yul\":31171:31200   */\n      swap1\n      pop\n        /* \"#utility.yul\":31133:31206   */\n      swap3\n      swap2\n      pop\n      pop\n      jump\t// out\n        /* \"#utility.yul\":31212:31360   */\n    tag_729:\n        /* \"#utility.yul\":31314:31325   */\n      0x00\n        /* \"#utility.yul\":31351:31354   */\n      dup2\n        /* \"#utility.yul\":31336:31354   */\n      swap1\n      pop\n        /* \"#utility.yul\":31326:31360   */\n      swap3\n      swap2\n      pop\n      pop\n      jump\t// out\n        /* \"#utility.yul\":31366:31891   */\n    tag_211:\n        /* \"#utility.yul\":31405:31408   */\n      0x00\n        /* \"#utility.yul\":31424:31443   */\n      tag_907\n        /* \"#utility.yul\":31441:31442   */\n      dup3\n        /* \"#utility.yul\":31424:31443   */\n      tag_705\n      jump\t// in\n    tag_907:\n        /* \"#utility.yul\":31419:31443   */\n      swap2\n      pop\n        /* \"#utility.yul\":31457:31476   */\n      tag_908\n        /* \"#utility.yul\":31474:31475   */\n      dup4\n        /* \"#utility.yul\":31457:31476   */\n      tag_705\n      jump\t// in\n    tag_908:\n        /* \"#utility.yul\":31452:31476   */\n      swap3\n      pop\n        /* \"#utility.yul\":31645:31646   */\n      dup2\n        /* \"#utility.yul\":31577:31643   */\n      0x7fffffffffffffffffffffffffffffffffffffffffffffffffffffffffffffff\n        /* \"#utility.yul\":31573:31647   */\n      sub\n        /* \"#utility.yul\":31570:31571   */\n      dup4\n        /* \"#utility.yul\":31566:31648   */\n      sgt\n        /* \"#utility.yul\":31561:31562   */\n      0x00\n        /* \"#utility.yul\":31558:31559   */\n      dup4\n        /* \"#utility.yul\":31554:31563   */\n      slt\n        /* \"#utility.yul\":31547:31564   */\n      iszero\n        /* \"#utility.yul\":31543:31649   */\n      and\n        /* \"#utility.yul\":31540:31542   */\n      iszero\n      tag_909\n      jumpi\n        /* \"#utility.yul\":31652:31670   */\n      tag_910\n      tag_911\n      jump\t// in\n    tag_910:\n        /* \"#utility.yul\":31540:31542   */\n    tag_909:\n        /* \"#utility.yul\":31832:31833   */\n      dup2\n        /* \"#utility.yul\":31764:31830   */\n      0x8000000000000000000000000000000000000000000000000000000000000000\n        /* \"#utility.yul\":31760:31834   */\n      sub\n        /* \"#utility.yul\":31757:31758   */\n      dup4\n        /* \"#utility.yul\":31753:31835   */\n      slt\n        /* \"#utility.yul\":31749:31750   */\n      0x00\n        /* \"#utility.yul\":31746:31747   */\n      dup4\n        /* \"#utility.yul\":31742:31751   */\n      slt\n        /* \"#utility.yul\":31738:31836   */\n      and\n        /* \"#utility.yul\":31735:31737   */\n      iszero\n      tag_912\n      jumpi\n        /* \"#utility.yul\":31839:31857   */\n      tag_913\n      tag_911\n      jump\t// in\n    tag_913:\n        /* \"#utility.yul\":31735:31737   */\n    tag_912:\n        /* \"#utility.yul\":31883:31884   */\n      dup3\n        /* \"#utility.yul\":31880:31881   */\n      dup3\n        /* \"#utility.yul\":31876:31885   */\n      add\n        /* \"#utility.yul\":31869:31885   */\n      swap1\n      pop\n        /* \"#utility.yul\":31409:31891   */\n      swap3\n      swap2\n      pop\n      pop\n      jump\t// out\n        /* \"#utility.yul\":31897:32202   */\n    tag_305:\n        /* \"#utility.yul\":31937:31940   */\n      0x00\n        /* \"#utility.yul\":31956:31976   */\n      tag_915\n        /* \"#utility.yul\":31974:31975   */\n      dup3\n        /* \"#utility.yul\":31956:31976   */\n      tag_809\n      jump\t// in\n    tag_915:\n        /* \"#utility.yul\":31951:31976   */\n      swap2\n      pop\n        /* \"#utility.yul\":31990:32010   */\n      tag_916\n        /* \"#utility.yul\":32008:32009   */\n      dup4\n        /* \"#utility.yul\":31990:32010   */\n      tag_809\n      jump\t// in\n    tag_916:\n        /* \"#utility.yul\":31985:32010   */\n      swap3\n      pop\n        /* \"#utility.yul\":32144:32145   */\n      dup3\n        /* \"#utility.yul\":32076:32142   */\n      0xffffffffffffffffffffffffffffffffffffffffffffffffffffffffffffffff\n        /* \"#utility.yul\":32072:32146   */\n      sub\n        /* \"#utility.yul\":32069:32070   */\n      dup3\n        /* \"#utility.yul\":32066:32147   */\n      gt\n        /* \"#utility.yul\":32063:32065   */\n      iszero\n      tag_917\n      jumpi\n        /* \"#utility.yul\":32150:32168   */\n      tag_918\n      tag_911\n      jump\t// in\n    tag_918:\n        /* \"#utility.yul\":32063:32065   */\n    tag_917:\n        /* \"#utility.yul\":32194:32195   */\n      dup3\n        /* \"#utility.yul\":32191:32192   */\n      dup3\n        /* \"#utility.yul\":32187:32196   */\n      add\n        /* \"#utility.yul\":32180:32196   */\n      swap1\n      pop\n        /* \"#utility.yul\":31941:32202   */\n      swap3\n      swap2\n      pop\n      pop\n      jump\t// out\n        /* \"#utility.yul\":32208:32593   */\n    tag_243:\n        /* \"#utility.yul\":32247:32248   */\n      0x00\n        /* \"#utility.yul\":32264:32283   */\n      tag_920\n        /* \"#utility.yul\":32281:32282   */\n      dup3\n        /* \"#utility.yul\":32264:32283   */\n      tag_705\n      jump\t// in\n    tag_920:\n        /* \"#utility.yul\":32259:32283   */\n      swap2\n      pop\n        /* \"#utility.yul\":32297:32316   */\n      tag_921\n        /* \"#utility.yul\":32314:32315   */\n      dup4\n        /* \"#utility.yul\":32297:32316   */\n      tag_705\n      jump\t// in\n    tag_921:\n        /* \"#utility.yul\":32292:32316   */\n      swap3\n      pop\n        /* \"#utility.yul\":32335:32336   */\n      dup3\n        /* \"#utility.yul\":32325:32327   */\n      tag_922\n      jumpi\n        /* \"#utility.yul\":32340:32358   */\n      tag_923\n      tag_924\n      jump\t// in\n    tag_923:\n        /* \"#utility.yul\":32325:32327   */\n    tag_922:\n        /* \"#utility.yul\":32526:32527   */\n      0x01\n        /* \"#utility.yul\":32523:32524   */\n      0x00\n        /* \"#utility.yul\":32519:32528   */\n      sub\n        /* \"#utility.yul\":32516:32517   */\n      dup4\n        /* \"#utility.yul\":32513:32529   */\n      eq\n        /* \"#utility.yul\":32432:32498   */\n      0x8000000000000000000000000000000000000000000000000000000000000000\n        /* \"#utility.yul\":32429:32430   */\n      dup4\n        /* \"#utility.yul\":32426:32499   */\n      eq\n        /* \"#utility.yul\":32409:32539   */\n      and\n        /* \"#utility.yul\":32406:32408   */\n      iszero\n      tag_925\n      jumpi\n        /* \"#utility.yul\":32542:32560   */\n      tag_926\n      tag_911\n      jump\t// in\n    tag_926:\n        /* \"#utility.yul\":32406:32408   */\n    tag_925:\n        /* \"#utility.yul\":32585:32586   */\n      dup3\n        /* \"#utility.yul\":32582:32583   */\n      dup3\n        /* \"#utility.yul\":32577:32587   */\n      sdiv\n        /* \"#utility.yul\":32572:32587   */\n      swap1\n      pop\n        /* \"#utility.yul\":32249:32593   */\n      swap3\n      swap2\n      pop\n      pop\n      jump\t// out\n        /* \"#utility.yul\":32599:32947   */\n    tag_467:\n        /* \"#utility.yul\":32639:32646   */\n      0x00\n        /* \"#utility.yul\":32662:32682   */\n      tag_928\n        /* \"#utility.yul\":32680:32681   */\n      dup3\n        /* \"#utility.yul\":32662:32682   */\n      tag_809\n      jump\t// in\n    tag_928:\n        /* \"#utility.yul\":32657:32682   */\n      swap2\n      pop\n        /* \"#utility.yul\":32696:32716   */\n      tag_929\n        /* \"#utility.yul\":32714:32715   */\n      dup4\n        /* \"#utility.yul\":32696:32716   */\n      tag_809\n      jump\t// in\n    tag_929:\n        /* \"#utility.yul\":32691:32716   */\n      swap3\n      pop\n        /* \"#utility.yul\":32884:32885   */\n      dup2\n        /* \"#utility.yul\":32816:32882   */\n      0xffffffffffffffffffffffffffffffffffffffffffffffffffffffffffffffff\n        /* \"#utility.yul\":32812:32886   */\n      div\n        /* \"#utility.yul\":32809:32810   */\n      dup4\n        /* \"#utility.yul\":32806:32887   */\n      gt\n        /* \"#utility.yul\":32801:32802   */\n      dup3\n        /* \"#utility.yul\":32794:32803   */\n      iszero\n        /* \"#utility.yul\":32787:32804   */\n      iszero\n        /* \"#utility.yul\":32783:32888   */\n      and\n        /* \"#utility.yul\":32780:32782   */\n      iszero\n      tag_930\n      jumpi\n        /* \"#utility.yul\":32891:32909   */\n      tag_931\n      tag_911\n      jump\t// in\n    tag_931:\n        /* \"#utility.yul\":32780:32782   */\n    tag_930:\n        /* \"#utility.yul\":32939:32940   */\n      dup3\n        /* \"#utility.yul\":32936:32937   */\n      dup3\n        /* \"#utility.yul\":32932:32941   */\n      mul\n        /* \"#utility.yul\":32921:32941   */\n      swap1\n      pop\n        /* \"#utility.yul\":32647:32947   */\n      swap3\n      swap2\n      pop\n      pop\n      jump\t// out\n        /* \"#utility.yul\":32953:33049   */\n    tag_666:\n        /* \"#utility.yul\":32990:32997   */\n      0x00\n        /* \"#utility.yul\":33019:33043   */\n      tag_933\n        /* \"#utility.yul\":33037:33042   */\n      dup3\n        /* \"#utility.yul\":33019:33043   */\n      tag_934\n      jump\t// in\n    tag_933:\n        /* \"#utility.yul\":33008:33043   */\n      swap1\n      pop\n        /* \"#utility.yul\":32998:33049   */\n      swap2\n      swap1\n      pop\n      jump\t// out\n        /* \"#utility.yul\":33055:33159   */\n    tag_662:\n        /* \"#utility.yul\":33100:33107   */\n      0x00\n        /* \"#utility.yul\":33129:33153   */\n      tag_936\n        /* \"#utility.yul\":33147:33152   */\n      dup3\n        /* \"#utility.yul\":33129:33153   */\n      tag_934\n      jump\t// in\n    tag_936:\n        /* \"#utility.yul\":33118:33153   */\n      swap1\n      pop\n        /* \"#utility.yul\":33108:33159   */\n      swap2\n      swap1\n      pop\n      jump\t// out\n        /* \"#utility.yul\":33165:33255   */\n    tag_698:\n        /* \"#utility.yul\":33199:33206   */\n      0x00\n        /* \"#utility.yul\":33242:33247   */\n      dup2\n        /* \"#utility.yul\":33235:33248   */\n      iszero\n        /* \"#utility.yul\":33228:33249   */\n      iszero\n        /* \"#utility.yul\":33217:33249   */\n      swap1\n      pop\n        /* \"#utility.yul\":33207:33255   */\n      swap2\n      swap1\n      pop\n      jump\t// out\n        /* \"#utility.yul\":33261:33390   */\n    tag_938:\n        /* \"#utility.yul\":33307:33314   */\n      0x00\n        /* \"#utility.yul\":33336:33341   */\n      dup2\n        /* \"#utility.yul\":33325:33341   */\n      swap1\n      pop\n        /* \"#utility.yul\":33342:33384   */\n      tag_940\n        /* \"#utility.yul\":33378:33383   */\n      dup3\n        /* \"#utility.yul\":33342:33384   */\n      tag_941\n      jump\t// in\n    tag_940:\n        /* \"#utility.yul\":33315:33390   */\n      swap2\n      swap1\n      pop\n      jump\t// out\n        /* \"#utility.yul\":33396:33472   */\n    tag_705:\n        /* \"#utility.yul\":33432:33439   */\n      0x00\n        /* \"#utility.yul\":33461:33466   */\n      dup2\n        /* \"#utility.yul\":33450:33466   */\n      swap1\n      pop\n        /* \"#utility.yul\":33440:33472   */\n      swap2\n      swap1\n      pop\n      jump\t// out\n        /* \"#utility.yul\":33478:33604   */\n    tag_934:\n        /* \"#utility.yul\":33515:33522   */\n      0x00\n        /* \"#utility.yul\":33555:33597   */\n      0xffffffffffffffffffffffffffffffffffffffff\n        /* \"#utility.yul\":33548:33553   */\n      dup3\n        /* \"#utility.yul\":33544:33598   */\n      and\n        /* \"#utility.yul\":33533:33598   */\n      swap1\n      pop\n        /* \"#utility.yul\":33523:33604   */\n      swap2\n      swap1\n      pop\n      jump\t// out\n        /* \"#utility.yul\":33610:33687   */\n    tag_809:\n        /* \"#utility.yul\":33647:33654   */\n      0x00\n        /* \"#utility.yul\":33676:33681   */\n      dup2\n        /* \"#utility.yul\":33665:33681   */\n      swap1\n      pop\n        /* \"#utility.yul\":33655:33687   */\n      swap2\n      swap1\n      pop\n      jump\t// out\n        /* \"#utility.yul\":33693:33822   */\n    tag_702:\n        /* \"#utility.yul\":33750:33759   */\n      0x00\n        /* \"#utility.yul\":33783:33816   */\n      tag_946\n        /* \"#utility.yul\":33810:33815   */\n      dup3\n        /* \"#utility.yul\":33783:33816   */\n      tag_938\n      jump\t// in\n    tag_946:\n        /* \"#utility.yul\":33770:33816   */\n      swap1\n      pop\n        /* \"#utility.yul\":33760:33822   */\n      swap2\n      swap1\n      pop\n      jump\t// out\n        /* \"#utility.yul\":33828:33982   */\n    tag_586:\n        /* \"#utility.yul\":33912:33918   */\n      dup3\n        /* \"#utility.yul\":33907:33910   */\n      dup2\n        /* \"#utility.yul\":33902:33905   */\n      dup4\n        /* \"#utility.yul\":33889:33919   */\n      calldatacopy\n        /* \"#utility.yul\":33974:33975   */\n      0x00\n        /* \"#utility.yul\":33965:33971   */\n      dup4\n        /* \"#utility.yul\":33960:33963   */\n      dup4\n        /* \"#utility.yul\":33956:33972   */\n      add\n        /* \"#utility.yul\":33949:33976   */\n      mstore\n        /* \"#utility.yul\":33879:33982   */\n      pop\n      pop\n      pop\n      jump\t// out\n        /* \"#utility.yul\":33988:34295   */\n    tag_715:\n        /* \"#utility.yul\":34056:34057   */\n      0x00\n        /* \"#utility.yul\":34066:34179   */\n    tag_949:\n        /* \"#utility.yul\":34080:34086   */\n      dup4\n        /* \"#utility.yul\":34077:34078   */\n      dup2\n        /* \"#utility.yul\":34074:34087   */\n      lt\n        /* \"#utility.yul\":34066:34179   */\n      iszero\n      tag_951\n      jumpi\n        /* \"#utility.yul\":34165:34166   */\n      dup1\n        /* \"#utility.yul\":34160:34163   */\n      dup3\n        /* \"#utility.yul\":34156:34167   */\n      add\n        /* \"#utility.yul\":34150:34168   */\n      mload\n        /* \"#utility.yul\":34146:34147   */\n      dup2\n        /* \"#utility.yul\":34141:34144   */\n      dup5\n        /* \"#utility.yul\":34137:34148   */\n      add\n        /* \"#utility.yul\":34130:34169   */\n      mstore\n        /* \"#utility.yul\":34102:34104   */\n      0x20\n        /* \"#utility.yul\":34099:34100   */\n      dup2\n        /* \"#utility.yul\":34095:34105   */\n      add\n        /* \"#utility.yul\":34090:34105   */\n      swap1\n      pop\n        /* \"#utility.yul\":34066:34179   */\n      jump(tag_949)\n    tag_951:\n        /* \"#utility.yul\":34197:34203   */\n      dup4\n        /* \"#utility.yul\":34194:34195   */\n      dup2\n        /* \"#utility.yul\":34191:34204   */\n      gt\n        /* \"#utility.yul\":34188:34190   */\n      iszero\n      tag_952\n      jumpi\n        /* \"#utility.yul\":34277:34278   */\n      0x00\n        /* \"#utility.yul\":34268:34274   */\n      dup5\n        /* \"#utility.yul\":34263:34266   */\n      dup5\n        /* \"#utility.yul\":34259:34275   */\n      add\n        /* \"#utility.yul\":34252:34279   */\n      mstore\n        /* \"#utility.yul\":34188:34190   */\n    tag_952:\n        /* \"#utility.yul\":34037:34295   */\n      pop\n      pop\n      pop\n      pop\n      jump\t// out\n        /* \"#utility.yul\":34301:34621   */\n    tag_220:\n        /* \"#utility.yul\":34345:34351   */\n      0x00\n        /* \"#utility.yul\":34382:34383   */\n      0x02\n        /* \"#utility.yul\":34376:34380   */\n      dup3\n        /* \"#utility.yul\":34372:34384   */\n      div\n        /* \"#utility.yul\":34362:34384   */\n      swap1\n      pop\n        /* \"#utility.yul\":34429:34430   */\n      0x01\n        /* \"#utility.yul\":34423:34427   */\n      dup3\n        /* \"#utility.yul\":34419:34431   */\n      and\n        /* \"#utility.yul\":34450:34468   */\n      dup1\n        /* \"#utility.yul\":34440:34442   */\n      tag_954\n      jumpi\n        /* \"#utility.yul\":34506:34510   */\n      0x7f\n        /* \"#utility.yul\":34498:34504   */\n      dup3\n        /* \"#utility.yul\":34494:34511   */\n      and\n        /* \"#utility.yul\":34484:34511   */\n      swap2\n      pop\n        /* \"#utility.yul\":34440:34442   */\n    tag_954:\n        /* \"#utility.yul\":34568:34570   */\n      0x20\n        /* \"#utility.yul\":34560:34566   */\n      dup3\n        /* \"#utility.yul\":34557:34571   */\n      lt\n        /* \"#utility.yul\":34537:34555   */\n      dup2\n        /* \"#utility.yul\":34534:34572   */\n      eq\n        /* \"#utility.yul\":34531:34533   */\n      iszero\n      tag_955\n      jumpi\n        /* \"#utility.yul\":34587:34605   */\n      tag_956\n      tag_957\n      jump\t// in\n    tag_956:\n        /* \"#utility.yul\":34531:34533   */\n    tag_955:\n        /* \"#utility.yul\":34352:34621   */\n      pop\n      swap2\n      swap1\n      pop\n      jump\t// out\n        /* \"#utility.yul\":34627:34908   */\n    tag_878:\n        /* \"#utility.yul\":34710:34737   */\n      tag_959\n        /* \"#utility.yul\":34732:34736   */\n      dup3\n        /* \"#utility.yul\":34710:34737   */\n      tag_717\n      jump\t// in\n    tag_959:\n        /* \"#utility.yul\":34702:34708   */\n      dup2\n        /* \"#utility.yul\":34698:34738   */\n      add\n        /* \"#utility.yul\":34840:34846   */\n      dup2\n        /* \"#utility.yul\":34828:34838   */\n      dup2\n        /* \"#utility.yul\":34825:34847   */\n      lt\n        /* \"#utility.yul\":34804:34822   */\n      0xffffffffffffffff\n        /* \"#utility.yul\":34792:34802   */\n      dup3\n        /* \"#utility.yul\":34789:34823   */\n      gt\n        /* \"#utility.yul\":34786:34848   */\n      or\n        /* \"#utility.yul\":34783:34785   */\n      iszero\n      tag_960\n      jumpi\n        /* \"#utility.yul\":34851:34869   */\n      tag_961\n      tag_883\n      jump\t// in\n    tag_961:\n        /* \"#utility.yul\":34783:34785   */\n    tag_960:\n        /* \"#utility.yul\":34891:34901   */\n      dup1\n        /* \"#utility.yul\":34887:34889   */\n      0x40\n        /* \"#utility.yul\":34880:34902   */\n      mstore\n        /* \"#utility.yul\":34670:34908   */\n      pop\n      pop\n      pop\n      jump\t// out\n        /* \"#utility.yul\":34914:35145   */\n    tag_215:\n        /* \"#utility.yul\":34952:34955   */\n      0x00\n        /* \"#utility.yul\":34975:34998   */\n      tag_963\n        /* \"#utility.yul\":34992:34997   */\n      dup3\n        /* \"#utility.yul\":34975:34998   */\n      tag_705\n      jump\t// in\n    tag_963:\n        /* \"#utility.yul\":34966:34998   */\n      swap2\n      pop\n        /* \"#utility.yul\":35020:35086   */\n      0x7fffffffffffffffffffffffffffffffffffffffffffffffffffffffffffffff\n        /* \"#utility.yul\":35013:35018   */\n      dup3\n        /* \"#utility.yul\":35010:35087   */\n      eq\n        /* \"#utility.yul\":35007:35009   */\n      iszero\n      tag_964\n      jumpi\n        /* \"#utility.yul\":35090:35108   */\n      tag_965\n      tag_911\n      jump\t// in\n    tag_965:\n        /* \"#utility.yul\":35007:35009   */\n    tag_964:\n        /* \"#utility.yul\":35137:35138   */\n      0x01\n        /* \"#utility.yul\":35130:35135   */\n      dup3\n        /* \"#utility.yul\":35126:35139   */\n      add\n        /* \"#utility.yul\":35119:35139   */\n      swap1\n      pop\n        /* \"#utility.yul\":34956:35145   */\n      swap2\n      swap1\n      pop\n      jump\t// out\n        /* \"#utility.yul\":35151:35384   */\n    tag_213:\n        /* \"#utility.yul\":35190:35193   */\n      0x00\n        /* \"#utility.yul\":35213:35237   */\n      tag_967\n        /* \"#utility.yul\":35231:35236   */\n      dup3\n        /* \"#utility.yul\":35213:35237   */\n      tag_809\n      jump\t// in\n    tag_967:\n        /* \"#utility.yul\":35204:35237   */\n      swap2\n      pop\n        /* \"#utility.yul\":35259:35325   */\n      0xffffffffffffffffffffffffffffffffffffffffffffffffffffffffffffffff\n        /* \"#utility.yul\":35252:35257   */\n      dup3\n        /* \"#utility.yul\":35249:35326   */\n      eq\n        /* \"#utility.yul\":35246:35248   */\n      iszero\n      tag_968\n      jumpi\n        /* \"#utility.yul\":35329:35347   */\n      tag_969\n      tag_911\n      jump\t// in\n    tag_969:\n        /* \"#utility.yul\":35246:35248   */\n    tag_968:\n        /* \"#utility.yul\":35376:35377   */\n      0x01\n        /* \"#utility.yul\":35369:35374   */\n      dup3\n        /* \"#utility.yul\":35365:35378   */\n      add\n        /* \"#utility.yul\":35358:35378   */\n      swap1\n      pop\n        /* \"#utility.yul\":35194:35384   */\n      swap2\n      swap1\n      pop\n      jump\t// out\n        /* \"#utility.yul\":35390:35570   */\n    tag_911:\n        /* \"#utility.yul\":35438:35515   */\n      0x4e487b7100000000000000000000000000000000000000000000000000000000\n        /* \"#utility.yul\":35435:35436   */\n      0x00\n        /* \"#utility.yul\":35428:35516   */\n      mstore\n        /* \"#utility.yul\":35535:35539   */\n      0x11\n        /* \"#utility.yul\":35532:35533   */\n      0x04\n        /* \"#utility.yul\":35525:35540   */\n      mstore\n        /* \"#utility.yul\":35559:35563   */\n      0x24\n        /* \"#utility.yul\":35556:35557   */\n      0x00\n        /* \"#utility.yul\":35549:35564   */\n      revert\n        /* \"#utility.yul\":35576:35756   */\n    tag_924:\n        /* \"#utility.yul\":35624:35701   */\n      0x4e487b7100000000000000000000000000000000000000000000000000000000\n        /* \"#utility.yul\":35621:35622   */\n      0x00\n        /* \"#utility.yul\":35614:35702   */\n      mstore\n        /* \"#utility.yul\":35721:35725   */\n      0x12\n        /* \"#utility.yul\":35718:35719   */\n      0x04\n        /* \"#utility.yul\":35711:35726   */\n      mstore\n        /* \"#utility.yul\":35745:35749   */\n      0x24\n        /* \"#utility.yul\":35742:35743   */\n      0x00\n        /* \"#utility.yul\":35735:35750   */\n      revert\n        /* \"#utility.yul\":35762:35942   */\n    tag_176:\n        /* \"#utility.yul\":35810:35887   */\n      0x4e487b7100000000000000000000000000000000000000000000000000000000\n        /* \"#utility.yul\":35807:35808   */\n      0x00\n        /* \"#utility.yul\":35800:35888   */\n      mstore\n        /* \"#utility.yul\":35907:35911   */\n      0x21\n        /* \"#utility.yul\":35904:35905   */\n      0x04\n        /* \"#utility.yul\":35897:35912   */\n      mstore\n        /* \"#utility.yul\":35931:35935   */\n      0x24\n        /* \"#utility.yul\":35928:35929   */\n      0x00\n        /* \"#utility.yul\":35921:35936   */\n      revert\n        /* \"#utility.yul\":35948:36128   */\n    tag_957:\n        /* \"#utility.yul\":35996:36073   */\n      0x4e487b7100000000000000000000000000000000000000000000000000000000\n        /* \"#utility.yul\":35993:35994   */\n      0x00\n        /* \"#utility.yul\":35986:36074   */\n      mstore\n        /* \"#utility.yul\":36093:36097   */\n      0x22\n        /* \"#utility.yul\":36090:36091   */\n      0x04\n        /* \"#utility.yul\":36083:36098   */\n      mstore\n        /* \"#utility.yul\":36117:36121   */\n      0x24\n        /* \"#utility.yul\":36114:36115   */\n      0x00\n        /* \"#utility.yul\":36107:36122   */\n      revert\n        /* \"#utility.yul\":36134:36314   */\n    tag_209:\n        /* \"#utility.yul\":36182:36259   */\n      0x4e487b7100000000000000000000000000000000000000000000000000000000\n        /* \"#utility.yul\":36179:36180   */\n      0x00\n        /* \"#utility.yul\":36172:36260   */\n      mstore\n        /* \"#utility.yul\":36279:36283   */\n      0x32\n        /* \"#utility.yul\":36276:36277   */\n      0x04\n        /* \"#utility.yul\":36269:36284   */\n      mstore\n        /* \"#utility.yul\":36303:36307   */\n      0x24\n        /* \"#utility.yul\":36300:36301   */\n      0x00\n        /* \"#utility.yul\":36293:36308   */\n      revert\n        /* \"#utility.yul\":36320:36500   */\n    tag_883:\n        /* \"#utility.yul\":36368:36445   */\n      0x4e487b7100000000000000000000000000000000000000000000000000000000\n        /* \"#utility.yul\":36365:36366   */\n      0x00\n        /* \"#utility.yul\":36358:36446   */\n      mstore\n        /* \"#utility.yul\":36465:36469   */\n      0x41\n        /* \"#utility.yul\":36462:36463   */\n      0x04\n        /* \"#utility.yul\":36455:36470   */\n      mstore\n        /* \"#utility.yul\":36489:36493   */\n      0x24\n        /* \"#utility.yul\":36486:36487   */\n      0x00\n        /* \"#utility.yul\":36479:36494   */\n      revert\n        /* \"#utility.yul\":36506:36623   */\n    tag_574:\n        /* \"#utility.yul\":36615:36616   */\n      0x00\n        /* \"#utility.yul\":36612:36613   */\n      dup1\n        /* \"#utility.yul\":36605:36617   */\n      revert\n        /* \"#utility.yul\":36629:36746   */\n    tag_545:\n        /* \"#utility.yul\":36738:36739   */\n      0x00\n        /* \"#utility.yul\":36735:36736   */\n      dup1\n        /* \"#utility.yul\":36728:36740   */\n      revert\n        /* \"#utility.yul\":36752:36869   */\n    tag_584:\n        /* \"#utility.yul\":36861:36862   */\n      0x00\n        /* \"#utility.yul\":36858:36859   */\n      dup1\n        /* \"#utility.yul\":36851:36863   */\n      revert\n        /* \"#utility.yul\":36875:36992   */\n    tag_635:\n        /* \"#utility.yul\":36984:36985   */\n      0x00\n        /* \"#utility.yul\":36981:36982   */\n      dup1\n        /* \"#utility.yul\":36974:36986   */\n      revert\n        /* \"#utility.yul\":36998:37115   */\n    tag_620:\n        /* \"#utility.yul\":37107:37108   */\n      0x00\n        /* \"#utility.yul\":37104:37105   */\n      dup1\n        /* \"#utility.yul\":37097:37109   */\n      revert\n        /* \"#utility.yul\":37121:37223   */\n    tag_717:\n        /* \"#utility.yul\":37162:37168   */\n      0x00\n        /* \"#utility.yul\":37213:37215   */\n      0x1f\n        /* \"#utility.yul\":37209:37216   */\n      not\n        /* \"#utility.yul\":37204:37206   */\n      0x1f\n        /* \"#utility.yul\":37197:37202   */\n      dup4\n        /* \"#utility.yul\":37193:37207   */\n      add\n        /* \"#utility.yul\":37189:37217   */\n      and\n        /* \"#utility.yul\":37179:37217   */\n      swap1\n      pop\n        /* \"#utility.yul\":37169:37223   */\n      swap2\n      swap1\n      pop\n      jump\t// out\n        /* \"#utility.yul\":37229:37381   */\n    tag_735:\n        /* \"#utility.yul\":37369:37373   */\n      0x3e3d000000000000000000000000000000000000000000000000000000000000\n        /* \"#utility.yul\":37365:37366   */\n      0x00\n        /* \"#utility.yul\":37357:37363   */\n      dup3\n        /* \"#utility.yul\":37353:37367   */\n      add\n        /* \"#utility.yul\":37346:37374   */\n      mstore\n        /* \"#utility.yul\":37335:37381   */\n      pop\n      jump\t// out\n        /* \"#utility.yul\":37387:37678   */\n    tag_740:\n        /* \"#utility.yul\":37527:37561   */\n      0x696e7369646520736574436f6e64732069662073746174656d656e742c206166\n        /* \"#utility.yul\":37523:37524   */\n      0x00\n        /* \"#utility.yul\":37515:37521   */\n      dup3\n        /* \"#utility.yul\":37511:37525   */\n      add\n        /* \"#utility.yul\":37504:37562   */\n      mstore\n        /* \"#utility.yul\":37596:37630   */\n      0x74657220656e64496e697453746167652c2063757272656e7420737461676520\n        /* \"#utility.yul\":37591:37593   */\n      0x20\n        /* \"#utility.yul\":37583:37589   */\n      dup3\n        /* \"#utility.yul\":37579:37594   */\n      add\n        /* \"#utility.yul\":37572:37631   */\n      mstore\n        /* \"#utility.yul\":37665:37670   */\n      0x69733a0000000000000000000000000000000000000000000000000000000000\n        /* \"#utility.yul\":37660:37662   */\n      0x40\n        /* \"#utility.yul\":37652:37658   */\n      dup3\n        /* \"#utility.yul\":37648:37663   */\n      add\n        /* \"#utility.yul\":37641:37671   */\n      mstore\n        /* \"#utility.yul\":37493:37678   */\n      pop\n      jump\t// out\n        /* \"#utility.yul\":37684:37925   */\n    tag_745:\n        /* \"#utility.yul\":37824:37858   */\n      0x43616e6e6f742063616c6c20746869732066756e6374696f6e20646972656374\n        /* \"#utility.yul\":37820:37821   */\n      0x00\n        /* \"#utility.yul\":37812:37818   */\n      dup3\n        /* \"#utility.yul\":37808:37822   */\n      add\n        /* \"#utility.yul\":37801:37859   */\n      mstore\n        /* \"#utility.yul\":37893:37917   */\n      0x6c792c207573652056656e646f72466163746f72792e00000000000000000000\n        /* \"#utility.yul\":37888:37890   */\n      0x20\n        /* \"#utility.yul\":37880:37886   */\n      dup3\n        /* \"#utility.yul\":37876:37891   */\n      add\n        /* \"#utility.yul\":37869:37918   */\n      mstore\n        /* \"#utility.yul\":37790:37925   */\n      pop\n      jump\t// out\n        /* \"#utility.yul\":37931:38165   */\n    tag_750:\n        /* \"#utility.yul\":38071:38105   */\n      0x696e7369646520736574436f6e64732069662073746174656d656e742c206375\n        /* \"#utility.yul\":38067:38068   */\n      0x00\n        /* \"#utility.yul\":38059:38065   */\n      dup3\n        /* \"#utility.yul\":38055:38069   */\n      add\n        /* \"#utility.yul\":38048:38106   */\n      mstore\n        /* \"#utility.yul\":38140:38157   */\n      0x7272656e742073746167652069733a0000000000000000000000000000000000\n        /* \"#utility.yul\":38135:38137   */\n      0x20\n        /* \"#utility.yul\":38127:38133   */\n      dup3\n        /* \"#utility.yul\":38123:38138   */\n      add\n        /* \"#utility.yul\":38116:38158   */\n      mstore\n        /* \"#utility.yul\":38037:38165   */\n      pop\n      jump\t// out\n        /* \"#utility.yul\":38171:38339   */\n    tag_755:\n        /* \"#utility.yul\":38311:38331   */\n      0x526566756e64696e67207061796d656e742e0000000000000000000000000000\n        /* \"#utility.yul\":38307:38308   */\n      0x00\n        /* \"#utility.yul\":38299:38305   */\n      dup3\n        /* \"#utility.yul\":38295:38309   */\n      add\n        /* \"#utility.yul\":38288:38332   */\n      mstore\n        /* \"#utility.yul\":38277:38339   */\n      pop\n      jump\t// out\n        /* \"#utility.yul\":38345:38511   */\n    tag_760:\n        /* \"#utility.yul\":38485:38503   */\n      0x53656e64696e67207061796d656e742e00000000000000000000000000000000\n        /* \"#utility.yul\":38481:38482   */\n      0x00\n        /* \"#utility.yul\":38473:38479   */\n      dup3\n        /* \"#utility.yul\":38469:38483   */\n      add\n        /* \"#utility.yul\":38462:38504   */\n      mstore\n        /* \"#utility.yul\":38451:38511   */\n      pop\n      jump\t// out\n        /* \"#utility.yul\":38517:38738   */\n    tag_765:\n        /* \"#utility.yul\":38657:38691   */\n      0x696e7369646520736574436f6e64732c2063757272656e742073746167652069\n        /* \"#utility.yul\":38653:38654   */\n      0x00\n        /* \"#utility.yul\":38645:38651   */\n      dup3\n        /* \"#utility.yul\":38641:38655   */\n      add\n        /* \"#utility.yul\":38634:38692   */\n      mstore\n        /* \"#utility.yul\":38726:38730   */\n      0x733a000000000000000000000000000000000000000000000000000000000000\n        /* \"#utility.yul\":38721:38723   */\n      0x20\n        /* \"#utility.yul\":38713:38719   */\n      dup3\n        /* \"#utility.yul\":38709:38724   */\n      add\n        /* \"#utility.yul\":38702:38731   */\n      mstore\n        /* \"#utility.yul\":38623:38738   */\n      pop\n      jump\t// out\n        /* \"#utility.yul\":38744:38896   */\n    tag_770:\n        /* \"#utility.yul\":38884:38888   */\n      0x3d3d000000000000000000000000000000000000000000000000000000000000\n        /* \"#utility.yul\":38880:38881   */\n      0x00\n        /* \"#utility.yul\":38872:38878   */\n      dup3\n        /* \"#utility.yul\":38868:38882   */\n      add\n        /* \"#utility.yul\":38861:38889   */\n      mstore\n        /* \"#utility.yul\":38850:38896   */\n      pop\n      jump\t// out\n        /* \"#utility.yul\":38902:39127   */\n    tag_775:\n        /* \"#utility.yul\":39042:39076   */\n      0x696e7369646520656e64496e697453746167652c2063757272656e7420737461\n        /* \"#utility.yul\":39038:39039   */\n      0x00\n        /* \"#utility.yul\":39030:39036   */\n      dup3\n        /* \"#utility.yul\":39026:39040   */\n      add\n        /* \"#utility.yul\":39019:39077   */\n      mstore\n        /* \"#utility.yul\":39111:39119   */\n      0x67652069733a0000000000000000000000000000000000000000000000000000\n        /* \"#utility.yul\":39106:39108   */\n      0x20\n        /* \"#utility.yul\":39098:39104   */\n      dup3\n        /* \"#utility.yul\":39094:39109   */\n      add\n        /* \"#utility.yul\":39087:39120   */\n      mstore\n        /* \"#utility.yul\":39008:39127   */\n      pop\n      jump\t// out\n        /* \"#utility.yul\":39133:39284   */\n    tag_780:\n        /* \"#utility.yul\":39273:39276   */\n      0x3c00000000000000000000000000000000000000000000000000000000000000\n        /* \"#utility.yul\":39269:39270   */\n      0x00\n        /* \"#utility.yul\":39261:39267   */\n      dup3\n        /* \"#utility.yul\":39257:39271   */\n      add\n        /* \"#utility.yul\":39250:39277   */\n      mstore\n        /* \"#utility.yul\":39239:39284   */\n      pop\n      jump\t// out\n        /* \"#utility.yul\":39290:39442   */\n    tag_785:\n        /* \"#utility.yul\":39430:39434   */\n      0x213d000000000000000000000000000000000000000000000000000000000000\n        /* \"#utility.yul\":39426:39427   */\n      0x00\n        /* \"#utility.yul\":39418:39424   */\n      dup3\n        /* \"#utility.yul\":39414:39428   */\n      add\n        /* \"#utility.yul\":39407:39435   */\n      mstore\n        /* \"#utility.yul\":39396:39442   */\n      pop\n      jump\t// out\n        /* \"#utility.yul\":39448:39600   */\n    tag_790:\n        /* \"#utility.yul\":39588:39592   */\n      0x3c3d000000000000000000000000000000000000000000000000000000000000\n        /* \"#utility.yul\":39584:39585   */\n      0x00\n        /* \"#utility.yul\":39576:39582   */\n      dup3\n        /* \"#utility.yul\":39572:39586   */\n      add\n        /* \"#utility.yul\":39565:39593   */\n      mstore\n        /* \"#utility.yul\":39554:39600   */\n      pop\n      jump\t// out\n        /* \"#utility.yul\":39606:39757   */\n    tag_795:\n        /* \"#utility.yul\":39746:39749   */\n      0x3e00000000000000000000000000000000000000000000000000000000000000\n        /* \"#utility.yul\":39742:39743   */\n      0x00\n        /* \"#utility.yul\":39734:39740   */\n      dup3\n        /* \"#utility.yul\":39730:39744   */\n      add\n        /* \"#utility.yul\":39723:39750   */\n      mstore\n        /* \"#utility.yul\":39712:39757   */\n      pop\n      jump\t// out\n        /* \"#utility.yul\":39763:39942   */\n    tag_800:\n        /* \"#utility.yul\":39903:39934   */\n      0x4e6f742077697468696e207468652062696c6c696e6720706572696f64000000\n        /* \"#utility.yul\":39899:39900   */\n      0x00\n        /* \"#utility.yul\":39891:39897   */\n      dup3\n        /* \"#utility.yul\":39887:39901   */\n      add\n        /* \"#utility.yul\":39880:39935   */\n      mstore\n        /* \"#utility.yul\":39869:39942   */\n      pop\n      jump\t// out\n        /* \"#utility.yul\":39948:40172   */\n    tag_805:\n        /* \"#utility.yul\":40088:40122   */\n      0x436f6e7472616374206973206e6f7420696e2074686520726571756972656420\n        /* \"#utility.yul\":40084:40085   */\n      0x00\n        /* \"#utility.yul\":40076:40082   */\n      dup3\n        /* \"#utility.yul\":40072:40086   */\n      add\n        /* \"#utility.yul\":40065:40123   */\n      mstore\n        /* \"#utility.yul\":40157:40164   */\n      0x7374617465000000000000000000000000000000000000000000000000000000\n        /* \"#utility.yul\":40152:40154   */\n      0x20\n        /* \"#utility.yul\":40144:40150   */\n      dup3\n        /* \"#utility.yul\":40140:40155   */\n      add\n        /* \"#utility.yul\":40133:40165   */\n      mstore\n        /* \"#utility.yul\":40054:40172   */\n      pop\n      jump\t// out\n        /* \"#utility.yul\":40178:40292   */\n    tag_941:\n        /* \"#utility.yul\":40260:40261   */\n      0x05\n        /* \"#utility.yul\":40253:40258   */\n      dup2\n        /* \"#utility.yul\":40250:40262   */\n      lt\n        /* \"#utility.yul\":40240:40242   */\n      tag_998\n      jumpi\n        /* \"#utility.yul\":40266:40284   */\n      tag_999\n      tag_176\n      jump\t// in\n    tag_999:\n        /* \"#utility.yul\":40240:40242   */\n    tag_998:\n        /* \"#utility.yul\":40230:40292   */\n      pop\n      jump\t// out\n        /* \"#utility.yul\":40298:40420   */\n    tag_590:\n        /* \"#utility.yul\":40371:40395   */\n      tag_1001\n        /* \"#utility.yul\":40389:40394   */\n      dup2\n        /* \"#utility.yul\":40371:40395   */\n      tag_666\n      jump\t// in\n    tag_1001:\n        /* \"#utility.yul\":40364:40369   */\n      dup2\n        /* \"#utility.yul\":40361:40396   */\n      eq\n        /* \"#utility.yul\":40351:40353   */\n      tag_1002\n      jumpi\n        /* \"#utility.yul\":40410:40411   */\n      0x00\n        /* \"#utility.yul\":40407:40408   */\n      dup1\n        /* \"#utility.yul\":40400:40412   */\n      revert\n        /* \"#utility.yul\":40351:40353   */\n    tag_1002:\n        /* \"#utility.yul\":40341:40420   */\n      pop\n      jump\t// out\n        /* \"#utility.yul\":40426:40546   */\n    tag_608:\n        /* \"#utility.yul\":40498:40521   */\n      tag_1004\n        /* \"#utility.yul\":40515:40520   */\n      dup2\n        /* \"#utility.yul\":40498:40521   */\n      tag_705\n      jump\t// in\n    tag_1004:\n        /* \"#utility.yul\":40491:40496   */\n      dup2\n        /* \"#utility.yul\":40488:40522   */\n      eq\n        /* \"#utility.yul\":40478:40480   */\n      tag_1005\n      jumpi\n        /* \"#utility.yul\":40536:40537   */\n      0x00\n        /* \"#utility.yul\":40533:40534   */\n      dup1\n        /* \"#utility.yul\":40526:40538   */\n      revert\n        /* \"#utility.yul\":40478:40480   */\n    tag_1005:\n        /* \"#utility.yul\":40468:40546   */\n      pop\n      jump\t// out\n        /* \"#utility.yul\":40552:40674   */\n    tag_616:\n        /* \"#utility.yul\":40625:40649   */\n      tag_1007\n        /* \"#utility.yul\":40643:40648   */\n      dup2\n        /* \"#utility.yul\":40625:40649   */\n      tag_809\n      jump\t// in\n    tag_1007:\n        /* \"#utility.yul\":40618:40623   */\n      dup2\n        /* \"#utility.yul\":40615:40650   */\n      eq\n        /* \"#utility.yul\":40605:40607   */\n      tag_1008\n      jumpi\n        /* \"#utility.yul\":40664:40665   */\n      0x00\n        /* \"#utility.yul\":40661:40662   */\n      dup1\n        /* \"#utility.yul\":40654:40666   */\n      revert\n        /* \"#utility.yul\":40605:40607   */\n    tag_1008:\n        /* \"#utility.yul\":40595:40674   */\n      pop\n      jump\t// out\n\n    auxdata: 0xa2646970667358221220eba25913728e540edfff605e85f447a8782777351de202c52c3f68f3957bc17c64736f6c63430008060033\n}\n",
    "bytecode": {
      "linkReferences": {},
      "object": "60806040526000600960006101000a81548160ff021916908360048111156200002d576200002c6200006b565b5b02179055506000600960016101000a81548160ff0219169083151502179055506000602b556000602d553480156200006457600080fd5b506200009a565b7f4e487b7100000000000000000000000000000000000000000000000000000000600052602160045260246000fd5b61367180620000aa6000396000f3fe6080604052600436106101d85760003560e01c8063760a8c2a11610102578063ae90b21311610095578063f1b9ee2411610064578063f1b9ee2414610621578063f851a44014610638578063fadeaa5914610663578063fbbf93a01461068c576101d8565b8063ae90b21314610565578063c040e6b814610590578063e28d4906146105bb578063e9d94c58146105f8576101d8565b806397c0bba1116100d157806397c0bba1146104cf5780639a730617146104fa578063a2c14ad314610523578063aa8c217c1461053a576101d8565b8063760a8c2a1461046c57806383197ef01461048357806384ac44461461049a578063904c6094146104a4576101d8565b8063410459ad1161017a578063516dde4311610149578063516dde431461039c5780635e383d21146103c7578063717eb03f14610404578063722713f714610441576101d8565b8063410459ad146102f4578063438853141461031d5780634622ab03146103485780634636731c14610385576101d8565b806321ce5afd116101b657806321ce5afd1461024a57806325419c2414610273578063295b4e171461029e5780633a40f3b2146102c9576101d8565b80630b97bc86146101dd578063109e94cf1461020857806312424e3f14610233575b600080fd5b3480156101e957600080fd5b506101f26106c1565b6040516101ff9190612c44565b60405180910390f35b34801561021457600080fd5b5061021d6106c7565b60405161022a9190612989565b60405180910390f35b34801561023f57600080fd5b506102486106ed565b005b34801561025657600080fd5b50610271600480360381019061026c91906123c5565b61083b565b005b34801561027f57600080fd5b5061028861099e565b6040516102959190612c44565b60405180910390f35b3480156102aa57600080fd5b506102b36109a4565b6040516102c09190612a5d565b60405180910390f35b3480156102d557600080fd5b506102de6109b7565b6040516102eb9190612a5d565b60405180910390f35b34801561030057600080fd5b5061031b6004803603810190610316919061231d565b6109ca565b005b34801561032957600080fd5b50610332610a0e565b60405161033f9190612c44565b60405180910390f35b34801561035457600080fd5b5061036f600480360381019061036a919061249b565b610a14565b60405161037c9190612b0a565b60405180910390f35b34801561039157600080fd5b5061039a610ab7565b005b3480156103a857600080fd5b506103b1610c91565b6040516103be9190612c44565b60405180910390f35b3480156103d357600080fd5b506103ee60048036038101906103e9919061249b565b610c97565b6040516103fb9190612aef565b60405180910390f35b34801561041057600080fd5b5061042b6004803603810190610426919061249b565b610cb2565b6040516104389190612b0a565b60405180910390f35b34801561044d57600080fd5b50610456610d55565b6040516104639190612c44565b60405180910390f35b34801561047857600080fd5b50610481610d5d565b005b34801561048f57600080fd5b50610498610e02565b005b6104a2610eb4565b005b3480156104b057600080fd5b506104b9610fc2565b6040516104c69190612c44565b60405180910390f35b3480156104db57600080fd5b506104e4610fc8565b6040516104f19190612a5d565b60405180910390f35b34801561050657600080fd5b50610521600480360381019061051c919061234a565b610fdb565b005b34801561052f57600080fd5b506105386110b1565b005b34801561054657600080fd5b5061054f61128b565b60405161055c9190612c44565b60405180910390f35b34801561057157600080fd5b5061057a611291565b6040516105879190612989565b60405180910390f35b34801561059c57600080fd5b506105a56112b7565b6040516105b29190612ad4565b60405180910390f35b3480156105c757600080fd5b506105e260048036038101906105dd919061249b565b6112ca565b6040516105ef9190612aef565b60405180910390f35b34801561060457600080fd5b5061061f600480360381019061061a91906123c5565b6112e5565b005b34801561062d57600080fd5b506106366113dd565b005b34801561064457600080fd5b5061064d611482565b60405161065a919061296e565b60405180910390f35b34801561066f57600080fd5b5061068a6004803603810190610685919061240e565b6114a6565b005b34801561069857600080fd5b506106a16117d6565b6040516106b89b9a999897969594939291906129a4565b60405180910390f35b60035481565b600160009054906101000a900473ffffffffffffffffffffffffffffffffffffffff1681565b60018060048111156107025761070161318b565b5b600960009054906101000a900460ff1660048111156107245761072361318b565b5b14610764576040517f08c379a000000000000000000000000000000000000000000000000000000000815260040161075b90612c24565b60405180910390fd5b60008054906101000a900473ffffffffffffffffffffffffffffffffffffffff1673ffffffffffffffffffffffffffffffffffffffff163373ffffffffffffffffffffffffffffffffffffffff16146107f2576040517f08c379a00000000000000000000000000000000000000000000000000000000081526004016107e990612b5a565b60405180910390fd5b6001600260146101000a81548160ff0219169083151502179055506003600960006101000a81548160ff021916908360048111156108335761083261318b565b5b021790555050565b60038060048111156108505761084f61318b565b5b600960009054906101000a900460ff1660048111156108725761087161318b565b5b146108b2576040517f08c379a00000000000000000000000000000000000000000000000000000000081526004016108a990612c24565b60405180910390fd5b6007544311156108c9576108c46110b1565b61099a565b60065443101580156108dd57506007544311155b61091c576040517f08c379a000000000000000000000000000000000000000000000000000000000815260040161091390612c04565b60405180910390fd5b60005b602b548110156109805782818151811061093c5761093b6131e9565b5b6020026020010151602c600083815260200190815260200160002060008282546109669190612dbf565b925050819055508080610978906130e4565b91505061091f565b50602d60008154809291906109949061309b565b91905055505b5050565b60065481565b600260159054906101000a900460ff1681565b600960019054906101000a900460ff1681565b80600260006101000a81548173ffffffffffffffffffffffffffffffffffffffff021916908373ffffffffffffffffffffffffffffffffffffffff16021790555050565b60075481565b600a8160088110610a2457600080fd5b016000915090508054610a3690613038565b80601f0160208091040260200160405190810160405280929190818152602001828054610a6290613038565b8015610aaf5780601f10610a8457610100808354040283529160200191610aaf565b820191906000526020600020905b815481529060010190602001808311610a9257829003601f168201915b505050505081565b6003806004811115610acc57610acb61318b565b5b600960009054906101000a900460ff166004811115610aee57610aed61318b565b5b14610b2e576040517f08c379a0000000000000000000000000000000000000000000000000000000008152600401610b2590612c24565b60405180910390fd5b60005b602b54811015610c27576000601a8260088110610b5157610b506131e9565b5b01549050600060128360088110610b6b57610b6a6131e9565b5b015490506000602d54602c600086815260200190815260200160002054610b929190612ea9565b9050610b9f838284611a3c565b610c1157610bab611ae8565b3373ffffffffffffffffffffffffffffffffffffffff167fa84226bf2d14bde3fac454f52eaeab63aaeb1934da88f9263dd4ff7dd12acf71600960019054906101000a900460ff16604051610c009190612a78565b60405180910390a250505050610c8e565b5050508080610c1f906130e4565b915050610b31565b503373ffffffffffffffffffffffffffffffffffffffff167fa84226bf2d14bde3fac454f52eaeab63aaeb1934da88f9263dd4ff7dd12acf71600960019054906101000a900460ff16604051610c7d9190612aa6565b60405180910390a2610c8d611b78565b5b50565b60045481565b60128160088110610ca757600080fd5b016000915090505481565b60228160088110610cc257600080fd5b016000915090508054610cd490613038565b80601f0160208091040260200160405190810160405280929190818152602001828054610d0090613038565b8015610d4d5780601f10610d2257610100808354040283529160200191610d4d565b820191906000526020600020905b815481529060010190602001808311610d3057829003601f168201915b505050505081565b600047905090565b6002806004811115610d7257610d7161318b565b5b600960009054906101000a900460ff166004811115610d9457610d9361318b565b5b14610dd4576040517f08c379a0000000000000000000000000000000000000000000000000000000008152600401610dcb90612c24565b60405180910390fd5b6003600960006101000a81548160ff02191690836004811115610dfa57610df961318b565b5b021790555050565b6002806004811115610e1757610e1661318b565b5b600960009054906101000a900460ff166004811115610e3957610e3861318b565b5b14610e79576040517f08c379a0000000000000000000000000000000000000000000000000000000008152600401610e7090612c24565b60405180910390fd5b600160009054906101000a900473ffffffffffffffffffffffffffffffffffffffff1673ffffffffffffffffffffffffffffffffffffffff16ff5b6003806004811115610ec957610ec861318b565b5b600960009054906101000a900460ff166004811115610eeb57610eea61318b565b5b14610f2b576040517f08c379a0000000000000000000000000000000000000000000000000000000008152600401610f2290612c24565b60405180910390fd5b600754431115610f4257610f3d6110b1565b610fbf565b6006544310158015610f5657506007544311155b610f95576040517f08c379a0000000000000000000000000000000000000000000000000000000008152600401610f8c90612c04565b60405180910390fd5b6005543414610fa357600080fd5b6001600260156101000a81548160ff0219169083151502179055505b50565b60085481565b600260149054906101000a900460ff1681565b336000806101000a81548173ffffffffffffffffffffffffffffffffffffffff021916908373ffffffffffffffffffffffffffffffffffffffff16021790555084600160006101000a81548173ffffffffffffffffffffffffffffffffffffffff021916908373ffffffffffffffffffffffffffffffffffffffff160217905550836004819055508260038190555061107383611c08565b60068190555061108e601e846110899190612e53565b611c08565b60078190555081600881905550806005819055506110aa611c2a565b5050505050565b60038060048111156110c6576110c561318b565b5b600960009054906101000a900460ff1660048111156110e8576110e761318b565b5b14611128576040517f08c379a000000000000000000000000000000000000000000000000000000000815260040161111f90612c24565b60405180910390fd5b60005b602b54811015611221576000601a826008811061114b5761114a6131e9565b5b01549050600060128360088110611165576111646131e9565b5b015490506000602d54602c60008681526020019081526020016000205461118c9190612ea9565b9050611199838284611a3c565b61120b576111a5611ae8565b3373ffffffffffffffffffffffffffffffffffffffff167fa84226bf2d14bde3fac454f52eaeab63aaeb1934da88f9263dd4ff7dd12acf71600960019054906101000a900460ff166040516111fa9190612a78565b60405180910390a250505050611288565b5050508080611219906130e4565b91505061112b565b503373ffffffffffffffffffffffffffffffffffffffff167fa84226bf2d14bde3fac454f52eaeab63aaeb1934da88f9263dd4ff7dd12acf71600960019054906101000a900460ff166040516112779190612aa6565b60405180910390a2611287611b78565b5b50565b60055481565b600260009054906101000a900473ffffffffffffffffffffffffffffffffffffffff1681565b600960009054906101000a900460ff1681565b601a81600881106112da57600080fd5b016000915090505481565b60038060048111156112fa576112f961318b565b5b600960009054906101000a900460ff16600481111561131c5761131b61318b565b5b1461135c576040517f08c379a000000000000000000000000000000000000000000000000000000000815260040161135390612c24565b60405180910390fd5b60005b602b548110156113c05782818151811061137c5761137b6131e9565b5b6020026020010151602c600083815260200190815260200160002060008282546113a69190612dbf565b9250508190555080806113b8906130e4565b91505061135f565b50602d60008154809291906113d49061309b565b91905055505050565b60038060048111156113f2576113f161318b565b5b600960009054906101000a900460ff1660048111156114145761141361318b565b5b14611454576040517f08c379a000000000000000000000000000000000000000000000000000000000815260040161144b90612c24565b60405180910390fd5b6002600960006101000a81548160ff0219169083600481111561147a5761147961318b565b5b021790555050565b60008054906101000a900473ffffffffffffffffffffffffffffffffffffffff1681565b60008060048111156114bb576114ba61318b565b5b600960009054906101000a900460ff1660048111156114dd576114dc61318b565b5b1461151d576040517f08c379a000000000000000000000000000000000000000000000000000000000815260040161151490612c24565b60405180910390fd5b7fdd970dd9b5bfe707922155b058a407655cb18288b807e2216442bca8ad83d6b5600960009054906101000a900460ff1660048111156115605761155f61318b565b5b60405161156d9190612ba8565b60405180910390a160005b60088110156117ce576040518060400160405280600181526020017f3000000000000000000000000000000000000000000000000000000000000000815250805190602001208582600881106115d1576115d06131e9565b5b60200201518051906020012014156116a1577fdd970dd9b5bfe707922155b058a407655cb18288b807e2216442bca8ad83d6b5600960009054906101000a900460ff1660048111156116265761162561318b565b5b6040516116339190612b7a565b60405180910390a1611643611cf8565b7fdd970dd9b5bfe707922155b058a407655cb18288b807e2216442bca8ad83d6b5600960009054906101000a900460ff1660048111156116865761168561318b565b5b6040516116939190612b2c565b60405180910390a1506117d0565b8481600881106116b4576116b36131e9565b5b6020020151600a82600881106116cd576116cc6131e9565b5b0190805190602001906116e1929190611fa0565b508381600881106116f5576116f46131e9565b5b60200201516012826008811061170e5761170d6131e9565b5b0181905550602a838260088110611728576117276131e9565b5b602002015160405161173a91906128d9565b908152602001604051809103902054601a826008811061175d5761175c6131e9565b5b0181905550828160088110611775576117746131e9565b5b60200201516022826008811061178e5761178d6131e9565b5b0190805190602001906117a2929190611fa0565b50602b60008154809291906117b6906130e4565b919050555080806117c6906130e4565b915050611578565b505b50505050565b6000806000806000806000806117ea612026565b6117f261204e565b6117fa612026565b600160009054906101000a900473ffffffffffffffffffffffffffffffffffffffff16600260009054906101000a900473ffffffffffffffffffffffffffffffffffffffff16600354600454600554600654600754600854600a6012602282600880602002604051908101604052809291906000905b8282101561191357838201805461188690613038565b80601f01602080910402602001604051908101604052809291908181526020018280546118b290613038565b80156118ff5780601f106118d4576101008083540402835291602001916118ff565b820191906000526020600020905b8154815290600101906020018083116118e257829003601f168201915b505050505081526020019060010190611870565b50505050925081600880602002604051908101604052809291908260088015611951576020028201915b81548152602001906001019080831161193d575b5050505050915080600880602002604051908101604052809291906000905b82821015611a1357838201805461198690613038565b80601f01602080910402602001604051908101604052809291908181526020018280546119b290613038565b80156119ff5780601f106119d4576101008083540402835291602001916119ff565b820191906000526020600020905b8154815290600101906020018083116119e257829003601f168201915b505050505081526020019060010190611970565b5050505090509a509a509a509a509a509a509a509a509a509a509a50909192939495969798999a565b60007fffffffffffffffffffffffffffffffffffffffffffffffffffffffffffffffff8414611adc5760018085161415611a8d57611a7b848484611e2e565b611a885760009050611ae1565b611adb565b60048085161415611ab557611aa3848484611e6e565b611ab05760009050611ae1565b611ada565b60028085161415611ad957611acb848484611eae565b611ad85760009050611ae1565b5b5b5b5b600190505b9392505050565b6000600960016101000a81548160ff021916908315150217905550600160009054906101000a900473ffffffffffffffffffffffffffffffffffffffff1673ffffffffffffffffffffffffffffffffffffffff166108fc6005549081150290604051600060405180830381858888f19350505050158015611b6d573d6000803e3d6000fd5b50611b76611ed9565b565b6001600960016101000a81548160ff021916908315150217905550600260009054906101000a900473ffffffffffffffffffffffffffffffffffffffff1673ffffffffffffffffffffffffffffffffffffffff166108fc6005549081150290604051600060405180830381858888f19350505050158015611bfd573d6000803e3d6000fd5b50611c06611ed9565b565b600061190082611c189190612f13565b43611c239190612e53565b9050919050565b6001602a604051611c3a90612959565b9081526020016040518091039020819055506002602a604051611c5c90612905565b9081526020016040518091039020819055506003602a604051611c7e906128f0565b9081526020016040518091039020819055506004602a604051611ca09061291a565b9081526020016040518091039020819055506005602a604051611cc29061292f565b9081526020016040518091039020819055506006602a604051611ce490612944565b908152602001604051809103902081905550565b6000806004811115611d0d57611d0c61318b565b5b600960009054906101000a900460ff166004811115611d2f57611d2e61318b565b5b14611d6f576040517f08c379a0000000000000000000000000000000000000000000000000000000008152600401611d6690612c24565b60405180910390fd5b7fdd970dd9b5bfe707922155b058a407655cb18288b807e2216442bca8ad83d6b5600960009054906101000a900460ff166004811115611db257611db161318b565b5b604051611dbf9190612bd6565b60405180910390a16001600960006101000a81548160ff02191690836004811115611ded57611dec61318b565b5b021790555060005b6008811015611e2a576000602c6000838152602001908152602001600020819055508080611e22906130e4565b915050611df5565b5050565b6000806000905060018086161415611e635782841315611e4d57600190505b611e58858585611eae565b15611e6257600190505b5b809150509392505050565b6000806000905060048086161415611ea35782841215611e8d57600190505b611e98858585611eae565b15611ea257600190505b5b809150509392505050565b600060028085161415611ecd5781831415611ecc5760019050611ed2565b5b600090505b9392505050565b611ee4600454611c08565b4310611f16576004600960006101000a81548160ff02191690836004811115611f1057611f0f61318b565b5b02179055505b60005b602b54811015611f4f576000602c6000838152602001908152602001600020819055508080611f47906130e4565b915050611f19565b506000602d819055506000600260156101000a81548160ff021916908315150217905550600754600681905550611900601e611f8b9190612f13565b600754611f989190612e53565b600781905550565b828054611fac90613038565b90600052602060002090601f016020900481019282611fce5760008555612015565b82601f10611fe757805160ff1916838001178555612015565b82800160010185558215612015579182015b82811115612014578251825591602001919060010190611ff9565b5b5090506120229190612071565b5090565b6040518061010001604052806008905b60608152602001906001900390816120365790505090565b604051806101000160405280600890602082028036833780820191505090505090565b5b8082111561208a576000816000905550600101612072565b5090565b60006120a161209c84612c84565b612c5f565b905080828560208602820111156120bb576120ba61324c565b5b60005b858110156120eb57816120d188826122c5565b8452602084019350602083019250506001810190506120be565b5050509392505050565b600061210861210384612caa565b612c5f565b9050808382526020820190508285602086028201111561212b5761212a61324c565b5b60005b8581101561215b578161214188826122c5565b84526020840193506020830192505060018101905061212e565b5050509392505050565b600061217861217384612cd6565b612c5f565b905080828560208602820111156121925761219161324c565b5b60005b858110156121e057813567ffffffffffffffff8111156121b8576121b7613247565b5b8086016121c589826122da565b85526020850194506020840193505050600181019050612195565b5050509392505050565b60006121fd6121f884612cfc565b612c5f565b90508281526020810184848401111561221957612218613251565b5b612224848285612ff6565b509392505050565b60008135905061223b816135f6565b92915050565b600082601f83011261225657612255613247565b5b600861226384828561208e565b91505092915050565b600082601f83011261228157612280613247565b5b81356122918482602086016120f5565b91505092915050565b600082601f8301126122af576122ae613247565b5b60086122bc848285612165565b91505092915050565b6000813590506122d48161360d565b92915050565b600082601f8301126122ef576122ee613247565b5b81356122ff8482602086016121ea565b91505092915050565b60008135905061231781613624565b92915050565b6000602082840312156123335761233261325b565b5b60006123418482850161222c565b91505092915050565b600080600080600060a086880312156123665761236561325b565b5b60006123748882890161222c565b955050602061238588828901612308565b945050604061239688828901612308565b93505060606123a788828901612308565b92505060806123b888828901612308565b9150509295509295909350565b6000602082840312156123db576123da61325b565b5b600082013567ffffffffffffffff8111156123f9576123f8613256565b5b6124058482850161226c565b91505092915050565b600080600061014084860312156124285761242761325b565b5b600084013567ffffffffffffffff81111561244657612445613256565b5b6124528682870161229a565b935050602061246386828701612241565b92505061012084013567ffffffffffffffff81111561248557612484613256565b5b6124918682870161229a565b9150509250925092565b6000602082840312156124b1576124b061325b565b5b60006124bf84828501612308565b91505092915050565b60006124d483836125fc565b60208301905092915050565b60006124ec838361261a565b905092915050565b6124fd81612f7f565b82525050565b61250c81612f6d565b82525050565b61251b81612d41565b6125258184612d7c565b925061253082612d2d565b8060005b8381101561256157815161254887826124c8565b965061255383612d62565b925050600181019050612534565b505050505050565b600061257482612d4c565b61257e8185612d87565b93508360208202850161259085612d37565b8060005b858110156125cc57848403895281516125ad85826124e0565b94506125b883612d6f565b925060208a01995050600181019050612594565b50829750879550505050505092915050565b6125e781612f91565b82525050565b6125f681612fe4565b82525050565b61260581612fb0565b82525050565b61261481612fb0565b82525050565b600061262582612d57565b61262f8185612d92565b935061263f818560208601613005565b61264881613260565b840191505092915050565b600061265e82612d57565b6126688185612da3565b9350612678818560208601613005565b61268181613260565b840191505092915050565b600061269782612d57565b6126a18185612db4565b93506126b1818560208601613005565b80840191505092915050565b60006126ca600283612db4565b91506126d582613271565b600282019050919050565b60006126ed604383612da3565b91506126f88261329a565b606082019050919050565b6000612710603683612da3565b915061271b8261330f565b604082019050919050565b6000612733602f83612da3565b915061273e8261335e565b604082019050919050565b6000612756601283612da3565b9150612761826133ad565b602082019050919050565b6000612779601083612da3565b9150612784826133d6565b602082019050919050565b600061279c602283612da3565b91506127a7826133ff565b604082019050919050565b60006127bf600283612db4565b91506127ca8261344e565b600282019050919050565b60006127e2602683612da3565b91506127ed82613477565b604082019050919050565b6000612805600183612db4565b9150612810826134c6565b600182019050919050565b6000612828600283612db4565b9150612833826134ef565b600282019050919050565b600061284b600283612db4565b915061285682613518565b600282019050919050565b600061286e600183612db4565b915061287982613541565b600182019050919050565b6000612891601d83612da3565b915061289c8261356a565b602082019050919050565b60006128b4602583612da3565b91506128bf82613593565b604082019050919050565b6128d381612fda565b82525050565b60006128e5828461268c565b915081905092915050565b60006128fb826126bd565b9150819050919050565b6000612910826127b2565b9150819050919050565b6000612925826127f8565b9150819050919050565b600061293a8261281b565b9150819050919050565b600061294f8261283e565b9150819050919050565b600061296482612861565b9150819050919050565b60006020820190506129836000830184612503565b92915050565b600060208201905061299e60008301846124f4565b92915050565b6000610240820190506129ba600083018e612503565b6129c7602083018d612503565b6129d4604083018c6128ca565b6129e1606083018b6128ca565b6129ee608083018a6128ca565b6129fb60a08301896128ca565b612a0860c08301886128ca565b612a1560e08301876128ca565b818103610100830152612a288186612569565b9050612a38610120830185612512565b818103610220830152612a4b8184612569565b90509c9b505050505050505050505050565b6000602082019050612a7260008301846125de565b92915050565b6000604082019050612a8d60008301846125de565b8181036020830152612a9e81612749565b905092915050565b6000604082019050612abb60008301846125de565b8181036020830152612acc8161276c565b905092915050565b6000602082019050612ae960008301846125ed565b92915050565b6000602082019050612b04600083018461260b565b92915050565b60006020820190508181036000830152612b248184612653565b905092915050565b60006040820190508181036000830152612b45816126e0565b9050612b5460208301846128ca565b92915050565b60006020820190508181036000830152612b7381612703565b9050919050565b60006040820190508181036000830152612b9381612726565b9050612ba260208301846128ca565b92915050565b60006040820190508181036000830152612bc18161278f565b9050612bd060208301846128ca565b92915050565b60006040820190508181036000830152612bef816127d5565b9050612bfe60208301846128ca565b92915050565b60006020820190508181036000830152612c1d81612884565b9050919050565b60006020820190508181036000830152612c3d816128a7565b9050919050565b6000602082019050612c5960008301846128ca565b92915050565b6000612c69612c7a565b9050612c75828261306a565b919050565b6000604051905090565b600067ffffffffffffffff821115612c9f57612c9e613218565b5b602082029050919050565b600067ffffffffffffffff821115612cc557612cc4613218565b5b602082029050602081019050919050565b600067ffffffffffffffff821115612cf157612cf0613218565b5b602082029050919050565b600067ffffffffffffffff821115612d1757612d16613218565b5b612d2082613260565b9050602081019050919050565b6000819050919050565b6000819050919050565b600060089050919050565b600060089050919050565b600081519050919050565b6000602082019050919050565b6000602082019050919050565b600081905092915050565b600081905092915050565b600082825260208201905092915050565b600082825260208201905092915050565b600081905092915050565b6000612dca82612fb0565b9150612dd583612fb0565b9250817f7fffffffffffffffffffffffffffffffffffffffffffffffffffffffffffffff03831360008312151615612e1057612e0f61312d565b5b817f8000000000000000000000000000000000000000000000000000000000000000038312600083121615612e4857612e4761312d565b5b828201905092915050565b6000612e5e82612fda565b9150612e6983612fda565b9250827fffffffffffffffffffffffffffffffffffffffffffffffffffffffffffffffff03821115612e9e57612e9d61312d565b5b828201905092915050565b6000612eb482612fb0565b9150612ebf83612fb0565b925082612ecf57612ece61315c565b5b600160000383147f800000000000000000000000000000000000000000000000000000000000000083141615612f0857612f0761312d565b5b828205905092915050565b6000612f1e82612fda565b9150612f2983612fda565b9250817fffffffffffffffffffffffffffffffffffffffffffffffffffffffffffffffff0483118215151615612f6257612f6161312d565b5b828202905092915050565b6000612f7882612fba565b9050919050565b6000612f8a82612fba565b9050919050565b60008115159050919050565b6000819050612fab826135e2565b919050565b6000819050919050565b600073ffffffffffffffffffffffffffffffffffffffff82169050919050565b6000819050919050565b6000612fef82612f9d565b9050919050565b82818337600083830152505050565b60005b83811015613023578082015181840152602081019050613008565b83811115613032576000848401525b50505050565b6000600282049050600182168061305057607f821691505b60208210811415613064576130636131ba565b5b50919050565b61307382613260565b810181811067ffffffffffffffff8211171561309257613091613218565b5b80604052505050565b60006130a682612fb0565b91507f7fffffffffffffffffffffffffffffffffffffffffffffffffffffffffffffff8214156130d9576130d861312d565b5b600182019050919050565b60006130ef82612fda565b91507fffffffffffffffffffffffffffffffffffffffffffffffffffffffffffffffff8214156131225761312161312d565b5b600182019050919050565b7f4e487b7100000000000000000000000000000000000000000000000000000000600052601160045260246000fd5b7f4e487b7100000000000000000000000000000000000000000000000000000000600052601260045260246000fd5b7f4e487b7100000000000000000000000000000000000000000000000000000000600052602160045260246000fd5b7f4e487b7100000000000000000000000000000000000000000000000000000000600052602260045260246000fd5b7f4e487b7100000000000000000000000000000000000000000000000000000000600052603260045260246000fd5b7f4e487b7100000000000000000000000000000000000000000000000000000000600052604160045260246000fd5b600080fd5b600080fd5b600080fd5b600080fd5b600080fd5b6000601f19601f8301169050919050565b7f3e3d000000000000000000000000000000000000000000000000000000000000600082015250565b7f696e7369646520736574436f6e64732069662073746174656d656e742c20616660008201527f74657220656e64496e697453746167652c2063757272656e742073746167652060208201527f69733a0000000000000000000000000000000000000000000000000000000000604082015250565b7f43616e6e6f742063616c6c20746869732066756e6374696f6e2064697265637460008201527f6c792c207573652056656e646f72466163746f72792e00000000000000000000602082015250565b7f696e7369646520736574436f6e64732069662073746174656d656e742c20637560008201527f7272656e742073746167652069733a0000000000000000000000000000000000602082015250565b7f526566756e64696e67207061796d656e742e0000000000000000000000000000600082015250565b7f53656e64696e67207061796d656e742e00000000000000000000000000000000600082015250565b7f696e7369646520736574436f6e64732c2063757272656e74207374616765206960008201527f733a000000000000000000000000000000000000000000000000000000000000602082015250565b7f3d3d000000000000000000000000000000000000000000000000000000000000600082015250565b7f696e7369646520656e64496e697453746167652c2063757272656e742073746160008201527f67652069733a0000000000000000000000000000000000000000000000000000602082015250565b7f3c00000000000000000000000000000000000000000000000000000000000000600082015250565b7f213d000000000000000000000000000000000000000000000000000000000000600082015250565b7f3c3d000000000000000000000000000000000000000000000000000000000000600082015250565b7f3e00000000000000000000000000000000000000000000000000000000000000600082015250565b7f4e6f742077697468696e207468652062696c6c696e6720706572696f64000000600082015250565b7f436f6e7472616374206973206e6f7420696e207468652072657175697265642060008201527f7374617465000000000000000000000000000000000000000000000000000000602082015250565b600581106135f3576135f261318b565b5b50565b6135ff81612f6d565b811461360a57600080fd5b50565b61361681612fb0565b811461362157600080fd5b50565b61362d81612fda565b811461363857600080fd5b5056fea2646970667358221220eba25913728e540edfff605e85f447a8782777351de202c52c3f68f3957bc17c64736f6c63430008060033",
      "opcodes": "PUSH1 0x80 PUSH1 0x40 MSTORE PUSH1 0x0 PUSH1 0x9 PUSH1 0x0 PUSH2 0x100 EXP DUP2 SLOAD DUP2 PUSH1 0xFF MUL NOT AND SWAP1 DUP4 PUSH1 0x4 DUP2 GT ISZERO PUSH3 0x2D JUMPI PUSH3 0x2C PUSH3 0x6B JUMP JUMPDEST JUMPDEST MUL OR SWAP1 SSTORE POP PUSH1 0x0 PUSH1 0x9 PUSH1 0x1 PUSH2 0x100 EXP DUP2 SLOAD DUP2 PUSH1 0xFF MUL NOT AND SWAP1 DUP4 ISZERO ISZERO MUL OR SWAP1 SSTORE POP PUSH1 0x0 PUSH1 0x2B SSTORE PUSH1 0x0 PUSH1 0x2D SSTORE CALLVALUE DUP1 ISZERO PUSH3 0x64 JUMPI PUSH1 0x0 DUP1 REVERT JUMPDEST POP PUSH3 0x9A JUMP JUMPDEST PUSH32 0x4E487B7100000000000000000000000000000000000000000000000000000000 PUSH1 0x0 MSTORE PUSH1 0x21 PUSH1 0x4 MSTORE PUSH1 0x24 PUSH1 0x0 REVERT JUMPDEST PUSH2 0x3671 DUP1 PUSH3 0xAA PUSH1 0x0 CODECOPY PUSH1 0x0 RETURN INVALID PUSH1 0x80 PUSH1 0x40 MSTORE PUSH1 0x4 CALLDATASIZE LT PUSH2 0x1D8 JUMPI PUSH1 0x0 CALLDATALOAD PUSH1 0xE0 SHR DUP1 PUSH4 0x760A8C2A GT PUSH2 0x102 JUMPI DUP1 PUSH4 0xAE90B213 GT PUSH2 0x95 JUMPI DUP1 PUSH4 0xF1B9EE24 GT PUSH2 0x64 JUMPI DUP1 PUSH4 0xF1B9EE24 EQ PUSH2 0x621 JUMPI DUP1 PUSH4 0xF851A440 EQ PUSH2 0x638 JUMPI DUP1 PUSH4 0xFADEAA59 EQ PUSH2 0x663 JUMPI DUP1 PUSH4 0xFBBF93A0 EQ PUSH2 0x68C JUMPI PUSH2 0x1D8 JUMP JUMPDEST DUP1 PUSH4 0xAE90B213 EQ PUSH2 0x565 JUMPI DUP1 PUSH4 0xC040E6B8 EQ PUSH2 0x590 JUMPI DUP1 PUSH4 0xE28D4906 EQ PUSH2 0x5BB JUMPI DUP1 PUSH4 0xE9D94C58 EQ PUSH2 0x5F8 JUMPI PUSH2 0x1D8 JUMP JUMPDEST DUP1 PUSH4 0x97C0BBA1 GT PUSH2 0xD1 JUMPI DUP1 PUSH4 0x97C0BBA1 EQ PUSH2 0x4CF JUMPI DUP1 PUSH4 0x9A730617 EQ PUSH2 0x4FA JUMPI DUP1 PUSH4 0xA2C14AD3 EQ PUSH2 0x523 JUMPI DUP1 PUSH4 0xAA8C217C EQ PUSH2 0x53A JUMPI PUSH2 0x1D8 JUMP JUMPDEST DUP1 PUSH4 0x760A8C2A EQ PUSH2 0x46C JUMPI DUP1 PUSH4 0x83197EF0 EQ PUSH2 0x483 JUMPI DUP1 PUSH4 0x84AC4446 EQ PUSH2 0x49A JUMPI DUP1 PUSH4 0x904C6094 EQ PUSH2 0x4A4 JUMPI PUSH2 0x1D8 JUMP JUMPDEST DUP1 PUSH4 0x410459AD GT PUSH2 0x17A JUMPI DUP1 PUSH4 0x516DDE43 GT PUSH2 0x149 JUMPI DUP1 PUSH4 0x516DDE43 EQ PUSH2 0x39C JUMPI DUP1 PUSH4 0x5E383D21 EQ PUSH2 0x3C7 JUMPI DUP1 PUSH4 0x717EB03F EQ PUSH2 0x404 JUMPI DUP1 PUSH4 0x722713F7 EQ PUSH2 0x441 JUMPI PUSH2 0x1D8 JUMP JUMPDEST DUP1 PUSH4 0x410459AD EQ PUSH2 0x2F4 JUMPI DUP1 PUSH4 0x43885314 EQ PUSH2 0x31D JUMPI DUP1 PUSH4 0x4622AB03 EQ PUSH2 0x348 JUMPI DUP1 PUSH4 0x4636731C EQ PUSH2 0x385 JUMPI PUSH2 0x1D8 JUMP JUMPDEST DUP1 PUSH4 0x21CE5AFD GT PUSH2 0x1B6 JUMPI DUP1 PUSH4 0x21CE5AFD EQ PUSH2 0x24A JUMPI DUP1 PUSH4 0x25419C24 EQ PUSH2 0x273 JUMPI DUP1 PUSH4 0x295B4E17 EQ PUSH2 0x29E JUMPI DUP1 PUSH4 0x3A40F3B2 EQ PUSH2 0x2C9 JUMPI PUSH2 0x1D8 JUMP JUMPDEST DUP1 PUSH4 0xB97BC86 EQ PUSH2 0x1DD JUMPI DUP1 PUSH4 0x109E94CF EQ PUSH2 0x208 JUMPI DUP1 PUSH4 0x12424E3F EQ PUSH2 0x233 JUMPI JUMPDEST PUSH1 0x0 DUP1 REVERT JUMPDEST CALLVALUE DUP1 ISZERO PUSH2 0x1E9 JUMPI PUSH1 0x0 DUP1 REVERT JUMPDEST POP PUSH2 0x1F2 PUSH2 0x6C1 JUMP JUMPDEST PUSH1 0x40 MLOAD PUSH2 0x1FF SWAP2 SWAP1 PUSH2 0x2C44 JUMP JUMPDEST PUSH1 0x40 MLOAD DUP1 SWAP2 SUB SWAP1 RETURN JUMPDEST CALLVALUE DUP1 ISZERO PUSH2 0x214 JUMPI PUSH1 0x0 DUP1 REVERT JUMPDEST POP PUSH2 0x21D PUSH2 0x6C7 JUMP JUMPDEST PUSH1 0x40 MLOAD PUSH2 0x22A SWAP2 SWAP1 PUSH2 0x2989 JUMP JUMPDEST PUSH1 0x40 MLOAD DUP1 SWAP2 SUB SWAP1 RETURN JUMPDEST CALLVALUE DUP1 ISZERO PUSH2 0x23F JUMPI PUSH1 0x0 DUP1 REVERT JUMPDEST POP PUSH2 0x248 PUSH2 0x6ED JUMP JUMPDEST STOP JUMPDEST CALLVALUE DUP1 ISZERO PUSH2 0x256 JUMPI PUSH1 0x0 DUP1 REVERT JUMPDEST POP PUSH2 0x271 PUSH1 0x4 DUP1 CALLDATASIZE SUB DUP2 ADD SWAP1 PUSH2 0x26C SWAP2 SWAP1 PUSH2 0x23C5 JUMP JUMPDEST PUSH2 0x83B JUMP JUMPDEST STOP JUMPDEST CALLVALUE DUP1 ISZERO PUSH2 0x27F JUMPI PUSH1 0x0 DUP1 REVERT JUMPDEST POP PUSH2 0x288 PUSH2 0x99E JUMP JUMPDEST PUSH1 0x40 MLOAD PUSH2 0x295 SWAP2 SWAP1 PUSH2 0x2C44 JUMP JUMPDEST PUSH1 0x40 MLOAD DUP1 SWAP2 SUB SWAP1 RETURN JUMPDEST CALLVALUE DUP1 ISZERO PUSH2 0x2AA JUMPI PUSH1 0x0 DUP1 REVERT JUMPDEST POP PUSH2 0x2B3 PUSH2 0x9A4 JUMP JUMPDEST PUSH1 0x40 MLOAD PUSH2 0x2C0 SWAP2 SWAP1 PUSH2 0x2A5D JUMP JUMPDEST PUSH1 0x40 MLOAD DUP1 SWAP2 SUB SWAP1 RETURN JUMPDEST CALLVALUE DUP1 ISZERO PUSH2 0x2D5 JUMPI PUSH1 0x0 DUP1 REVERT JUMPDEST POP PUSH2 0x2DE PUSH2 0x9B7 JUMP JUMPDEST PUSH1 0x40 MLOAD PUSH2 0x2EB SWAP2 SWAP1 PUSH2 0x2A5D JUMP JUMPDEST PUSH1 0x40 MLOAD DUP1 SWAP2 SUB SWAP1 RETURN JUMPDEST CALLVALUE DUP1 ISZERO PUSH2 0x300 JUMPI PUSH1 0x0 DUP1 REVERT JUMPDEST POP PUSH2 0x31B PUSH1 0x4 DUP1 CALLDATASIZE SUB DUP2 ADD SWAP1 PUSH2 0x316 SWAP2 SWAP1 PUSH2 0x231D JUMP JUMPDEST PUSH2 0x9CA JUMP JUMPDEST STOP JUMPDEST CALLVALUE DUP1 ISZERO PUSH2 0x329 JUMPI PUSH1 0x0 DUP1 REVERT JUMPDEST POP PUSH2 0x332 PUSH2 0xA0E JUMP JUMPDEST PUSH1 0x40 MLOAD PUSH2 0x33F SWAP2 SWAP1 PUSH2 0x2C44 JUMP JUMPDEST PUSH1 0x40 MLOAD DUP1 SWAP2 SUB SWAP1 RETURN JUMPDEST CALLVALUE DUP1 ISZERO PUSH2 0x354 JUMPI PUSH1 0x0 DUP1 REVERT JUMPDEST POP PUSH2 0x36F PUSH1 0x4 DUP1 CALLDATASIZE SUB DUP2 ADD SWAP1 PUSH2 0x36A SWAP2 SWAP1 PUSH2 0x249B JUMP JUMPDEST PUSH2 0xA14 JUMP JUMPDEST PUSH1 0x40 MLOAD PUSH2 0x37C SWAP2 SWAP1 PUSH2 0x2B0A JUMP JUMPDEST PUSH1 0x40 MLOAD DUP1 SWAP2 SUB SWAP1 RETURN JUMPDEST CALLVALUE DUP1 ISZERO PUSH2 0x391 JUMPI PUSH1 0x0 DUP1 REVERT JUMPDEST POP PUSH2 0x39A PUSH2 0xAB7 JUMP JUMPDEST STOP JUMPDEST CALLVALUE DUP1 ISZERO PUSH2 0x3A8 JUMPI PUSH1 0x0 DUP1 REVERT JUMPDEST POP PUSH2 0x3B1 PUSH2 0xC91 JUMP JUMPDEST PUSH1 0x40 MLOAD PUSH2 0x3BE SWAP2 SWAP1 PUSH2 0x2C44 JUMP JUMPDEST PUSH1 0x40 MLOAD DUP1 SWAP2 SUB SWAP1 RETURN JUMPDEST CALLVALUE DUP1 ISZERO PUSH2 0x3D3 JUMPI PUSH1 0x0 DUP1 REVERT JUMPDEST POP PUSH2 0x3EE PUSH1 0x4 DUP1 CALLDATASIZE SUB DUP2 ADD SWAP1 PUSH2 0x3E9 SWAP2 SWAP1 PUSH2 0x249B JUMP JUMPDEST PUSH2 0xC97 JUMP JUMPDEST PUSH1 0x40 MLOAD PUSH2 0x3FB SWAP2 SWAP1 PUSH2 0x2AEF JUMP JUMPDEST PUSH1 0x40 MLOAD DUP1 SWAP2 SUB SWAP1 RETURN JUMPDEST CALLVALUE DUP1 ISZERO PUSH2 0x410 JUMPI PUSH1 0x0 DUP1 REVERT JUMPDEST POP PUSH2 0x42B PUSH1 0x4 DUP1 CALLDATASIZE SUB DUP2 ADD SWAP1 PUSH2 0x426 SWAP2 SWAP1 PUSH2 0x249B JUMP JUMPDEST PUSH2 0xCB2 JUMP JUMPDEST PUSH1 0x40 MLOAD PUSH2 0x438 SWAP2 SWAP1 PUSH2 0x2B0A JUMP JUMPDEST PUSH1 0x40 MLOAD DUP1 SWAP2 SUB SWAP1 RETURN JUMPDEST CALLVALUE DUP1 ISZERO PUSH2 0x44D JUMPI PUSH1 0x0 DUP1 REVERT JUMPDEST POP PUSH2 0x456 PUSH2 0xD55 JUMP JUMPDEST PUSH1 0x40 MLOAD PUSH2 0x463 SWAP2 SWAP1 PUSH2 0x2C44 JUMP JUMPDEST PUSH1 0x40 MLOAD DUP1 SWAP2 SUB SWAP1 RETURN JUMPDEST CALLVALUE DUP1 ISZERO PUSH2 0x478 JUMPI PUSH1 0x0 DUP1 REVERT JUMPDEST POP PUSH2 0x481 PUSH2 0xD5D JUMP JUMPDEST STOP JUMPDEST CALLVALUE DUP1 ISZERO PUSH2 0x48F JUMPI PUSH1 0x0 DUP1 REVERT JUMPDEST POP PUSH2 0x498 PUSH2 0xE02 JUMP JUMPDEST STOP JUMPDEST PUSH2 0x4A2 PUSH2 0xEB4 JUMP JUMPDEST STOP JUMPDEST CALLVALUE DUP1 ISZERO PUSH2 0x4B0 JUMPI PUSH1 0x0 DUP1 REVERT JUMPDEST POP PUSH2 0x4B9 PUSH2 0xFC2 JUMP JUMPDEST PUSH1 0x40 MLOAD PUSH2 0x4C6 SWAP2 SWAP1 PUSH2 0x2C44 JUMP JUMPDEST PUSH1 0x40 MLOAD DUP1 SWAP2 SUB SWAP1 RETURN JUMPDEST CALLVALUE DUP1 ISZERO PUSH2 0x4DB JUMPI PUSH1 0x0 DUP1 REVERT JUMPDEST POP PUSH2 0x4E4 PUSH2 0xFC8 JUMP JUMPDEST PUSH1 0x40 MLOAD PUSH2 0x4F1 SWAP2 SWAP1 PUSH2 0x2A5D JUMP JUMPDEST PUSH1 0x40 MLOAD DUP1 SWAP2 SUB SWAP1 RETURN JUMPDEST CALLVALUE DUP1 ISZERO PUSH2 0x506 JUMPI PUSH1 0x0 DUP1 REVERT JUMPDEST POP PUSH2 0x521 PUSH1 0x4 DUP1 CALLDATASIZE SUB DUP2 ADD SWAP1 PUSH2 0x51C SWAP2 SWAP1 PUSH2 0x234A JUMP JUMPDEST PUSH2 0xFDB JUMP JUMPDEST STOP JUMPDEST CALLVALUE DUP1 ISZERO PUSH2 0x52F JUMPI PUSH1 0x0 DUP1 REVERT JUMPDEST POP PUSH2 0x538 PUSH2 0x10B1 JUMP JUMPDEST STOP JUMPDEST CALLVALUE DUP1 ISZERO PUSH2 0x546 JUMPI PUSH1 0x0 DUP1 REVERT JUMPDEST POP PUSH2 0x54F PUSH2 0x128B JUMP JUMPDEST PUSH1 0x40 MLOAD PUSH2 0x55C SWAP2 SWAP1 PUSH2 0x2C44 JUMP JUMPDEST PUSH1 0x40 MLOAD DUP1 SWAP2 SUB SWAP1 RETURN JUMPDEST CALLVALUE DUP1 ISZERO PUSH2 0x571 JUMPI PUSH1 0x0 DUP1 REVERT JUMPDEST POP PUSH2 0x57A PUSH2 0x1291 JUMP JUMPDEST PUSH1 0x40 MLOAD PUSH2 0x587 SWAP2 SWAP1 PUSH2 0x2989 JUMP JUMPDEST PUSH1 0x40 MLOAD DUP1 SWAP2 SUB SWAP1 RETURN JUMPDEST CALLVALUE DUP1 ISZERO PUSH2 0x59C JUMPI PUSH1 0x0 DUP1 REVERT JUMPDEST POP PUSH2 0x5A5 PUSH2 0x12B7 JUMP JUMPDEST PUSH1 0x40 MLOAD PUSH2 0x5B2 SWAP2 SWAP1 PUSH2 0x2AD4 JUMP JUMPDEST PUSH1 0x40 MLOAD DUP1 SWAP2 SUB SWAP1 RETURN JUMPDEST CALLVALUE DUP1 ISZERO PUSH2 0x5C7 JUMPI PUSH1 0x0 DUP1 REVERT JUMPDEST POP PUSH2 0x5E2 PUSH1 0x4 DUP1 CALLDATASIZE SUB DUP2 ADD SWAP1 PUSH2 0x5DD SWAP2 SWAP1 PUSH2 0x249B JUMP JUMPDEST PUSH2 0x12CA JUMP JUMPDEST PUSH1 0x40 MLOAD PUSH2 0x5EF SWAP2 SWAP1 PUSH2 0x2AEF JUMP JUMPDEST PUSH1 0x40 MLOAD DUP1 SWAP2 SUB SWAP1 RETURN JUMPDEST CALLVALUE DUP1 ISZERO PUSH2 0x604 JUMPI PUSH1 0x0 DUP1 REVERT JUMPDEST POP PUSH2 0x61F PUSH1 0x4 DUP1 CALLDATASIZE SUB DUP2 ADD SWAP1 PUSH2 0x61A SWAP2 SWAP1 PUSH2 0x23C5 JUMP JUMPDEST PUSH2 0x12E5 JUMP JUMPDEST STOP JUMPDEST CALLVALUE DUP1 ISZERO PUSH2 0x62D JUMPI PUSH1 0x0 DUP1 REVERT JUMPDEST POP PUSH2 0x636 PUSH2 0x13DD JUMP JUMPDEST STOP JUMPDEST CALLVALUE DUP1 ISZERO PUSH2 0x644 JUMPI PUSH1 0x0 DUP1 REVERT JUMPDEST POP PUSH2 0x64D PUSH2 0x1482 JUMP JUMPDEST PUSH1 0x40 MLOAD PUSH2 0x65A SWAP2 SWAP1 PUSH2 0x296E JUMP JUMPDEST PUSH1 0x40 MLOAD DUP1 SWAP2 SUB SWAP1 RETURN JUMPDEST CALLVALUE DUP1 ISZERO PUSH2 0x66F JUMPI PUSH1 0x0 DUP1 REVERT JUMPDEST POP PUSH2 0x68A PUSH1 0x4 DUP1 CALLDATASIZE SUB DUP2 ADD SWAP1 PUSH2 0x685 SWAP2 SWAP1 PUSH2 0x240E JUMP JUMPDEST PUSH2 0x14A6 JUMP JUMPDEST STOP JUMPDEST CALLVALUE DUP1 ISZERO PUSH2 0x698 JUMPI PUSH1 0x0 DUP1 REVERT JUMPDEST POP PUSH2 0x6A1 PUSH2 0x17D6 JUMP JUMPDEST PUSH1 0x40 MLOAD PUSH2 0x6B8 SWAP12 SWAP11 SWAP10 SWAP9 SWAP8 SWAP7 SWAP6 SWAP5 SWAP4 SWAP3 SWAP2 SWAP1 PUSH2 0x29A4 JUMP JUMPDEST PUSH1 0x40 MLOAD DUP1 SWAP2 SUB SWAP1 RETURN JUMPDEST PUSH1 0x3 SLOAD DUP2 JUMP JUMPDEST PUSH1 0x1 PUSH1 0x0 SWAP1 SLOAD SWAP1 PUSH2 0x100 EXP SWAP1 DIV PUSH20 0xFFFFFFFFFFFFFFFFFFFFFFFFFFFFFFFFFFFFFFFF AND DUP2 JUMP JUMPDEST PUSH1 0x1 DUP1 PUSH1 0x4 DUP2 GT ISZERO PUSH2 0x702 JUMPI PUSH2 0x701 PUSH2 0x318B JUMP JUMPDEST JUMPDEST PUSH1 0x9 PUSH1 0x0 SWAP1 SLOAD SWAP1 PUSH2 0x100 EXP SWAP1 DIV PUSH1 0xFF AND PUSH1 0x4 DUP2 GT ISZERO PUSH2 0x724 JUMPI PUSH2 0x723 PUSH2 0x318B JUMP JUMPDEST JUMPDEST EQ PUSH2 0x764 JUMPI PUSH1 0x40 MLOAD PUSH32 0x8C379A000000000000000000000000000000000000000000000000000000000 DUP2 MSTORE PUSH1 0x4 ADD PUSH2 0x75B SWAP1 PUSH2 0x2C24 JUMP JUMPDEST PUSH1 0x40 MLOAD DUP1 SWAP2 SUB SWAP1 REVERT JUMPDEST PUSH1 0x0 DUP1 SLOAD SWAP1 PUSH2 0x100 EXP SWAP1 DIV PUSH20 0xFFFFFFFFFFFFFFFFFFFFFFFFFFFFFFFFFFFFFFFF AND PUSH20 0xFFFFFFFFFFFFFFFFFFFFFFFFFFFFFFFFFFFFFFFF AND CALLER PUSH20 0xFFFFFFFFFFFFFFFFFFFFFFFFFFFFFFFFFFFFFFFF AND EQ PUSH2 0x7F2 JUMPI PUSH1 0x40 MLOAD PUSH32 0x8C379A000000000000000000000000000000000000000000000000000000000 DUP2 MSTORE PUSH1 0x4 ADD PUSH2 0x7E9 SWAP1 PUSH2 0x2B5A JUMP JUMPDEST PUSH1 0x40 MLOAD DUP1 SWAP2 SUB SWAP1 REVERT JUMPDEST PUSH1 0x1 PUSH1 0x2 PUSH1 0x14 PUSH2 0x100 EXP DUP2 SLOAD DUP2 PUSH1 0xFF MUL NOT AND SWAP1 DUP4 ISZERO ISZERO MUL OR SWAP1 SSTORE POP PUSH1 0x3 PUSH1 0x9 PUSH1 0x0 PUSH2 0x100 EXP DUP2 SLOAD DUP2 PUSH1 0xFF MUL NOT AND SWAP1 DUP4 PUSH1 0x4 DUP2 GT ISZERO PUSH2 0x833 JUMPI PUSH2 0x832 PUSH2 0x318B JUMP JUMPDEST JUMPDEST MUL OR SWAP1 SSTORE POP POP JUMP JUMPDEST PUSH1 0x3 DUP1 PUSH1 0x4 DUP2 GT ISZERO PUSH2 0x850 JUMPI PUSH2 0x84F PUSH2 0x318B JUMP JUMPDEST JUMPDEST PUSH1 0x9 PUSH1 0x0 SWAP1 SLOAD SWAP1 PUSH2 0x100 EXP SWAP1 DIV PUSH1 0xFF AND PUSH1 0x4 DUP2 GT ISZERO PUSH2 0x872 JUMPI PUSH2 0x871 PUSH2 0x318B JUMP JUMPDEST JUMPDEST EQ PUSH2 0x8B2 JUMPI PUSH1 0x40 MLOAD PUSH32 0x8C379A000000000000000000000000000000000000000000000000000000000 DUP2 MSTORE PUSH1 0x4 ADD PUSH2 0x8A9 SWAP1 PUSH2 0x2C24 JUMP JUMPDEST PUSH1 0x40 MLOAD DUP1 SWAP2 SUB SWAP1 REVERT JUMPDEST PUSH1 0x7 SLOAD NUMBER GT ISZERO PUSH2 0x8C9 JUMPI PUSH2 0x8C4 PUSH2 0x10B1 JUMP JUMPDEST PUSH2 0x99A JUMP JUMPDEST PUSH1 0x6 SLOAD NUMBER LT ISZERO DUP1 ISZERO PUSH2 0x8DD JUMPI POP PUSH1 0x7 SLOAD NUMBER GT ISZERO JUMPDEST PUSH2 0x91C JUMPI PUSH1 0x40 MLOAD PUSH32 0x8C379A000000000000000000000000000000000000000000000000000000000 DUP2 MSTORE PUSH1 0x4 ADD PUSH2 0x913 SWAP1 PUSH2 0x2C04 JUMP JUMPDEST PUSH1 0x40 MLOAD DUP1 SWAP2 SUB SWAP1 REVERT JUMPDEST PUSH1 0x0 JUMPDEST PUSH1 0x2B SLOAD DUP2 LT ISZERO PUSH2 0x980 JUMPI DUP3 DUP2 DUP2 MLOAD DUP2 LT PUSH2 0x93C JUMPI PUSH2 0x93B PUSH2 0x31E9 JUMP JUMPDEST JUMPDEST PUSH1 0x20 MUL PUSH1 0x20 ADD ADD MLOAD PUSH1 0x2C PUSH1 0x0 DUP4 DUP2 MSTORE PUSH1 0x20 ADD SWAP1 DUP2 MSTORE PUSH1 0x20 ADD PUSH1 0x0 KECCAK256 PUSH1 0x0 DUP3 DUP3 SLOAD PUSH2 0x966 SWAP2 SWAP1 PUSH2 0x2DBF JUMP JUMPDEST SWAP3 POP POP DUP2 SWAP1 SSTORE POP DUP1 DUP1 PUSH2 0x978 SWAP1 PUSH2 0x30E4 JUMP JUMPDEST SWAP2 POP POP PUSH2 0x91F JUMP JUMPDEST POP PUSH1 0x2D PUSH1 0x0 DUP2 SLOAD DUP1 SWAP3 SWAP2 SWAP1 PUSH2 0x994 SWAP1 PUSH2 0x309B JUMP JUMPDEST SWAP2 SWAP1 POP SSTORE POP JUMPDEST POP POP JUMP JUMPDEST PUSH1 0x6 SLOAD DUP2 JUMP JUMPDEST PUSH1 0x2 PUSH1 0x15 SWAP1 SLOAD SWAP1 PUSH2 0x100 EXP SWAP1 DIV PUSH1 0xFF AND DUP2 JUMP JUMPDEST PUSH1 0x9 PUSH1 0x1 SWAP1 SLOAD SWAP1 PUSH2 0x100 EXP SWAP1 DIV PUSH1 0xFF AND DUP2 JUMP JUMPDEST DUP1 PUSH1 0x2 PUSH1 0x0 PUSH2 0x100 EXP DUP2 SLOAD DUP2 PUSH20 0xFFFFFFFFFFFFFFFFFFFFFFFFFFFFFFFFFFFFFFFF MUL NOT AND SWAP1 DUP4 PUSH20 0xFFFFFFFFFFFFFFFFFFFFFFFFFFFFFFFFFFFFFFFF AND MUL OR SWAP1 SSTORE POP POP JUMP JUMPDEST PUSH1 0x7 SLOAD DUP2 JUMP JUMPDEST PUSH1 0xA DUP2 PUSH1 0x8 DUP2 LT PUSH2 0xA24 JUMPI PUSH1 0x0 DUP1 REVERT JUMPDEST ADD PUSH1 0x0 SWAP2 POP SWAP1 POP DUP1 SLOAD PUSH2 0xA36 SWAP1 PUSH2 0x3038 JUMP JUMPDEST DUP1 PUSH1 0x1F ADD PUSH1 0x20 DUP1 SWAP2 DIV MUL PUSH1 0x20 ADD PUSH1 0x40 MLOAD SWAP1 DUP2 ADD PUSH1 0x40 MSTORE DUP1 SWAP3 SWAP2 SWAP1 DUP2 DUP2 MSTORE PUSH1 0x20 ADD DUP3 DUP1 SLOAD PUSH2 0xA62 SWAP1 PUSH2 0x3038 JUMP JUMPDEST DUP1 ISZERO PUSH2 0xAAF JUMPI DUP1 PUSH1 0x1F LT PUSH2 0xA84 JUMPI PUSH2 0x100 DUP1 DUP4 SLOAD DIV MUL DUP4 MSTORE SWAP2 PUSH1 0x20 ADD SWAP2 PUSH2 0xAAF JUMP JUMPDEST DUP3 ADD SWAP2 SWAP1 PUSH1 0x0 MSTORE PUSH1 0x20 PUSH1 0x0 KECCAK256 SWAP1 JUMPDEST DUP2 SLOAD DUP2 MSTORE SWAP1 PUSH1 0x1 ADD SWAP1 PUSH1 0x20 ADD DUP1 DUP4 GT PUSH2 0xA92 JUMPI DUP3 SWAP1 SUB PUSH1 0x1F AND DUP3 ADD SWAP2 JUMPDEST POP POP POP POP POP DUP2 JUMP JUMPDEST PUSH1 0x3 DUP1 PUSH1 0x4 DUP2 GT ISZERO PUSH2 0xACC JUMPI PUSH2 0xACB PUSH2 0x318B JUMP JUMPDEST JUMPDEST PUSH1 0x9 PUSH1 0x0 SWAP1 SLOAD SWAP1 PUSH2 0x100 EXP SWAP1 DIV PUSH1 0xFF AND PUSH1 0x4 DUP2 GT ISZERO PUSH2 0xAEE JUMPI PUSH2 0xAED PUSH2 0x318B JUMP JUMPDEST JUMPDEST EQ PUSH2 0xB2E JUMPI PUSH1 0x40 MLOAD PUSH32 0x8C379A000000000000000000000000000000000000000000000000000000000 DUP2 MSTORE PUSH1 0x4 ADD PUSH2 0xB25 SWAP1 PUSH2 0x2C24 JUMP JUMPDEST PUSH1 0x40 MLOAD DUP1 SWAP2 SUB SWAP1 REVERT JUMPDEST PUSH1 0x0 JUMPDEST PUSH1 0x2B SLOAD DUP2 LT ISZERO PUSH2 0xC27 JUMPI PUSH1 0x0 PUSH1 0x1A DUP3 PUSH1 0x8 DUP2 LT PUSH2 0xB51 JUMPI PUSH2 0xB50 PUSH2 0x31E9 JUMP JUMPDEST JUMPDEST ADD SLOAD SWAP1 POP PUSH1 0x0 PUSH1 0x12 DUP4 PUSH1 0x8 DUP2 LT PUSH2 0xB6B JUMPI PUSH2 0xB6A PUSH2 0x31E9 JUMP JUMPDEST JUMPDEST ADD SLOAD SWAP1 POP PUSH1 0x0 PUSH1 0x2D SLOAD PUSH1 0x2C PUSH1 0x0 DUP7 DUP2 MSTORE PUSH1 0x20 ADD SWAP1 DUP2 MSTORE PUSH1 0x20 ADD PUSH1 0x0 KECCAK256 SLOAD PUSH2 0xB92 SWAP2 SWAP1 PUSH2 0x2EA9 JUMP JUMPDEST SWAP1 POP PUSH2 0xB9F DUP4 DUP3 DUP5 PUSH2 0x1A3C JUMP JUMPDEST PUSH2 0xC11 JUMPI PUSH2 0xBAB PUSH2 0x1AE8 JUMP JUMPDEST CALLER PUSH20 0xFFFFFFFFFFFFFFFFFFFFFFFFFFFFFFFFFFFFFFFF AND PUSH32 0xA84226BF2D14BDE3FAC454F52EAEAB63AAEB1934DA88F9263DD4FF7DD12ACF71 PUSH1 0x9 PUSH1 0x1 SWAP1 SLOAD SWAP1 PUSH2 0x100 EXP SWAP1 DIV PUSH1 0xFF AND PUSH1 0x40 MLOAD PUSH2 0xC00 SWAP2 SWAP1 PUSH2 0x2A78 JUMP JUMPDEST PUSH1 0x40 MLOAD DUP1 SWAP2 SUB SWAP1 LOG2 POP POP POP POP PUSH2 0xC8E JUMP JUMPDEST POP POP POP DUP1 DUP1 PUSH2 0xC1F SWAP1 PUSH2 0x30E4 JUMP JUMPDEST SWAP2 POP POP PUSH2 0xB31 JUMP JUMPDEST POP CALLER PUSH20 0xFFFFFFFFFFFFFFFFFFFFFFFFFFFFFFFFFFFFFFFF AND PUSH32 0xA84226BF2D14BDE3FAC454F52EAEAB63AAEB1934DA88F9263DD4FF7DD12ACF71 PUSH1 0x9 PUSH1 0x1 SWAP1 SLOAD SWAP1 PUSH2 0x100 EXP SWAP1 DIV PUSH1 0xFF AND PUSH1 0x40 MLOAD PUSH2 0xC7D SWAP2 SWAP1 PUSH2 0x2AA6 JUMP JUMPDEST PUSH1 0x40 MLOAD DUP1 SWAP2 SUB SWAP1 LOG2 PUSH2 0xC8D PUSH2 0x1B78 JUMP JUMPDEST JUMPDEST POP JUMP JUMPDEST PUSH1 0x4 SLOAD DUP2 JUMP JUMPDEST PUSH1 0x12 DUP2 PUSH1 0x8 DUP2 LT PUSH2 0xCA7 JUMPI PUSH1 0x0 DUP1 REVERT JUMPDEST ADD PUSH1 0x0 SWAP2 POP SWAP1 POP SLOAD DUP2 JUMP JUMPDEST PUSH1 0x22 DUP2 PUSH1 0x8 DUP2 LT PUSH2 0xCC2 JUMPI PUSH1 0x0 DUP1 REVERT JUMPDEST ADD PUSH1 0x0 SWAP2 POP SWAP1 POP DUP1 SLOAD PUSH2 0xCD4 SWAP1 PUSH2 0x3038 JUMP JUMPDEST DUP1 PUSH1 0x1F ADD PUSH1 0x20 DUP1 SWAP2 DIV MUL PUSH1 0x20 ADD PUSH1 0x40 MLOAD SWAP1 DUP2 ADD PUSH1 0x40 MSTORE DUP1 SWAP3 SWAP2 SWAP1 DUP2 DUP2 MSTORE PUSH1 0x20 ADD DUP3 DUP1 SLOAD PUSH2 0xD00 SWAP1 PUSH2 0x3038 JUMP JUMPDEST DUP1 ISZERO PUSH2 0xD4D JUMPI DUP1 PUSH1 0x1F LT PUSH2 0xD22 JUMPI PUSH2 0x100 DUP1 DUP4 SLOAD DIV MUL DUP4 MSTORE SWAP2 PUSH1 0x20 ADD SWAP2 PUSH2 0xD4D JUMP JUMPDEST DUP3 ADD SWAP2 SWAP1 PUSH1 0x0 MSTORE PUSH1 0x20 PUSH1 0x0 KECCAK256 SWAP1 JUMPDEST DUP2 SLOAD DUP2 MSTORE SWAP1 PUSH1 0x1 ADD SWAP1 PUSH1 0x20 ADD DUP1 DUP4 GT PUSH2 0xD30 JUMPI DUP3 SWAP1 SUB PUSH1 0x1F AND DUP3 ADD SWAP2 JUMPDEST POP POP POP POP POP DUP2 JUMP JUMPDEST PUSH1 0x0 SELFBALANCE SWAP1 POP SWAP1 JUMP JUMPDEST PUSH1 0x2 DUP1 PUSH1 0x4 DUP2 GT ISZERO PUSH2 0xD72 JUMPI PUSH2 0xD71 PUSH2 0x318B JUMP JUMPDEST JUMPDEST PUSH1 0x9 PUSH1 0x0 SWAP1 SLOAD SWAP1 PUSH2 0x100 EXP SWAP1 DIV PUSH1 0xFF AND PUSH1 0x4 DUP2 GT ISZERO PUSH2 0xD94 JUMPI PUSH2 0xD93 PUSH2 0x318B JUMP JUMPDEST JUMPDEST EQ PUSH2 0xDD4 JUMPI PUSH1 0x40 MLOAD PUSH32 0x8C379A000000000000000000000000000000000000000000000000000000000 DUP2 MSTORE PUSH1 0x4 ADD PUSH2 0xDCB SWAP1 PUSH2 0x2C24 JUMP JUMPDEST PUSH1 0x40 MLOAD DUP1 SWAP2 SUB SWAP1 REVERT JUMPDEST PUSH1 0x3 PUSH1 0x9 PUSH1 0x0 PUSH2 0x100 EXP DUP2 SLOAD DUP2 PUSH1 0xFF MUL NOT AND SWAP1 DUP4 PUSH1 0x4 DUP2 GT ISZERO PUSH2 0xDFA JUMPI PUSH2 0xDF9 PUSH2 0x318B JUMP JUMPDEST JUMPDEST MUL OR SWAP1 SSTORE POP POP JUMP JUMPDEST PUSH1 0x2 DUP1 PUSH1 0x4 DUP2 GT ISZERO PUSH2 0xE17 JUMPI PUSH2 0xE16 PUSH2 0x318B JUMP JUMPDEST JUMPDEST PUSH1 0x9 PUSH1 0x0 SWAP1 SLOAD SWAP1 PUSH2 0x100 EXP SWAP1 DIV PUSH1 0xFF AND PUSH1 0x4 DUP2 GT ISZERO PUSH2 0xE39 JUMPI PUSH2 0xE38 PUSH2 0x318B JUMP JUMPDEST JUMPDEST EQ PUSH2 0xE79 JUMPI PUSH1 0x40 MLOAD PUSH32 0x8C379A000000000000000000000000000000000000000000000000000000000 DUP2 MSTORE PUSH1 0x4 ADD PUSH2 0xE70 SWAP1 PUSH2 0x2C24 JUMP JUMPDEST PUSH1 0x40 MLOAD DUP1 SWAP2 SUB SWAP1 REVERT JUMPDEST PUSH1 0x1 PUSH1 0x0 SWAP1 SLOAD SWAP1 PUSH2 0x100 EXP SWAP1 DIV PUSH20 0xFFFFFFFFFFFFFFFFFFFFFFFFFFFFFFFFFFFFFFFF AND PUSH20 0xFFFFFFFFFFFFFFFFFFFFFFFFFFFFFFFFFFFFFFFF AND SELFDESTRUCT JUMPDEST PUSH1 0x3 DUP1 PUSH1 0x4 DUP2 GT ISZERO PUSH2 0xEC9 JUMPI PUSH2 0xEC8 PUSH2 0x318B JUMP JUMPDEST JUMPDEST PUSH1 0x9 PUSH1 0x0 SWAP1 SLOAD SWAP1 PUSH2 0x100 EXP SWAP1 DIV PUSH1 0xFF AND PUSH1 0x4 DUP2 GT ISZERO PUSH2 0xEEB JUMPI PUSH2 0xEEA PUSH2 0x318B JUMP JUMPDEST JUMPDEST EQ PUSH2 0xF2B JUMPI PUSH1 0x40 MLOAD PUSH32 0x8C379A000000000000000000000000000000000000000000000000000000000 DUP2 MSTORE PUSH1 0x4 ADD PUSH2 0xF22 SWAP1 PUSH2 0x2C24 JUMP JUMPDEST PUSH1 0x40 MLOAD DUP1 SWAP2 SUB SWAP1 REVERT JUMPDEST PUSH1 0x7 SLOAD NUMBER GT ISZERO PUSH2 0xF42 JUMPI PUSH2 0xF3D PUSH2 0x10B1 JUMP JUMPDEST PUSH2 0xFBF JUMP JUMPDEST PUSH1 0x6 SLOAD NUMBER LT ISZERO DUP1 ISZERO PUSH2 0xF56 JUMPI POP PUSH1 0x7 SLOAD NUMBER GT ISZERO JUMPDEST PUSH2 0xF95 JUMPI PUSH1 0x40 MLOAD PUSH32 0x8C379A000000000000000000000000000000000000000000000000000000000 DUP2 MSTORE PUSH1 0x4 ADD PUSH2 0xF8C SWAP1 PUSH2 0x2C04 JUMP JUMPDEST PUSH1 0x40 MLOAD DUP1 SWAP2 SUB SWAP1 REVERT JUMPDEST PUSH1 0x5 SLOAD CALLVALUE EQ PUSH2 0xFA3 JUMPI PUSH1 0x0 DUP1 REVERT JUMPDEST PUSH1 0x1 PUSH1 0x2 PUSH1 0x15 PUSH2 0x100 EXP DUP2 SLOAD DUP2 PUSH1 0xFF MUL NOT AND SWAP1 DUP4 ISZERO ISZERO MUL OR SWAP1 SSTORE POP JUMPDEST POP JUMP JUMPDEST PUSH1 0x8 SLOAD DUP2 JUMP JUMPDEST PUSH1 0x2 PUSH1 0x14 SWAP1 SLOAD SWAP1 PUSH2 0x100 EXP SWAP1 DIV PUSH1 0xFF AND DUP2 JUMP JUMPDEST CALLER PUSH1 0x0 DUP1 PUSH2 0x100 EXP DUP2 SLOAD DUP2 PUSH20 0xFFFFFFFFFFFFFFFFFFFFFFFFFFFFFFFFFFFFFFFF MUL NOT AND SWAP1 DUP4 PUSH20 0xFFFFFFFFFFFFFFFFFFFFFFFFFFFFFFFFFFFFFFFF AND MUL OR SWAP1 SSTORE POP DUP5 PUSH1 0x1 PUSH1 0x0 PUSH2 0x100 EXP DUP2 SLOAD DUP2 PUSH20 0xFFFFFFFFFFFFFFFFFFFFFFFFFFFFFFFFFFFFFFFF MUL NOT AND SWAP1 DUP4 PUSH20 0xFFFFFFFFFFFFFFFFFFFFFFFFFFFFFFFFFFFFFFFF AND MUL OR SWAP1 SSTORE POP DUP4 PUSH1 0x4 DUP2 SWAP1 SSTORE POP DUP3 PUSH1 0x3 DUP2 SWAP1 SSTORE POP PUSH2 0x1073 DUP4 PUSH2 0x1C08 JUMP JUMPDEST PUSH1 0x6 DUP2 SWAP1 SSTORE POP PUSH2 0x108E PUSH1 0x1E DUP5 PUSH2 0x1089 SWAP2 SWAP1 PUSH2 0x2E53 JUMP JUMPDEST PUSH2 0x1C08 JUMP JUMPDEST PUSH1 0x7 DUP2 SWAP1 SSTORE POP DUP2 PUSH1 0x8 DUP2 SWAP1 SSTORE POP DUP1 PUSH1 0x5 DUP2 SWAP1 SSTORE POP PUSH2 0x10AA PUSH2 0x1C2A JUMP JUMPDEST POP POP POP POP POP JUMP JUMPDEST PUSH1 0x3 DUP1 PUSH1 0x4 DUP2 GT ISZERO PUSH2 0x10C6 JUMPI PUSH2 0x10C5 PUSH2 0x318B JUMP JUMPDEST JUMPDEST PUSH1 0x9 PUSH1 0x0 SWAP1 SLOAD SWAP1 PUSH2 0x100 EXP SWAP1 DIV PUSH1 0xFF AND PUSH1 0x4 DUP2 GT ISZERO PUSH2 0x10E8 JUMPI PUSH2 0x10E7 PUSH2 0x318B JUMP JUMPDEST JUMPDEST EQ PUSH2 0x1128 JUMPI PUSH1 0x40 MLOAD PUSH32 0x8C379A000000000000000000000000000000000000000000000000000000000 DUP2 MSTORE PUSH1 0x4 ADD PUSH2 0x111F SWAP1 PUSH2 0x2C24 JUMP JUMPDEST PUSH1 0x40 MLOAD DUP1 SWAP2 SUB SWAP1 REVERT JUMPDEST PUSH1 0x0 JUMPDEST PUSH1 0x2B SLOAD DUP2 LT ISZERO PUSH2 0x1221 JUMPI PUSH1 0x0 PUSH1 0x1A DUP3 PUSH1 0x8 DUP2 LT PUSH2 0x114B JUMPI PUSH2 0x114A PUSH2 0x31E9 JUMP JUMPDEST JUMPDEST ADD SLOAD SWAP1 POP PUSH1 0x0 PUSH1 0x12 DUP4 PUSH1 0x8 DUP2 LT PUSH2 0x1165 JUMPI PUSH2 0x1164 PUSH2 0x31E9 JUMP JUMPDEST JUMPDEST ADD SLOAD SWAP1 POP PUSH1 0x0 PUSH1 0x2D SLOAD PUSH1 0x2C PUSH1 0x0 DUP7 DUP2 MSTORE PUSH1 0x20 ADD SWAP1 DUP2 MSTORE PUSH1 0x20 ADD PUSH1 0x0 KECCAK256 SLOAD PUSH2 0x118C SWAP2 SWAP1 PUSH2 0x2EA9 JUMP JUMPDEST SWAP1 POP PUSH2 0x1199 DUP4 DUP3 DUP5 PUSH2 0x1A3C JUMP JUMPDEST PUSH2 0x120B JUMPI PUSH2 0x11A5 PUSH2 0x1AE8 JUMP JUMPDEST CALLER PUSH20 0xFFFFFFFFFFFFFFFFFFFFFFFFFFFFFFFFFFFFFFFF AND PUSH32 0xA84226BF2D14BDE3FAC454F52EAEAB63AAEB1934DA88F9263DD4FF7DD12ACF71 PUSH1 0x9 PUSH1 0x1 SWAP1 SLOAD SWAP1 PUSH2 0x100 EXP SWAP1 DIV PUSH1 0xFF AND PUSH1 0x40 MLOAD PUSH2 0x11FA SWAP2 SWAP1 PUSH2 0x2A78 JUMP JUMPDEST PUSH1 0x40 MLOAD DUP1 SWAP2 SUB SWAP1 LOG2 POP POP POP POP PUSH2 0x1288 JUMP JUMPDEST POP POP POP DUP1 DUP1 PUSH2 0x1219 SWAP1 PUSH2 0x30E4 JUMP JUMPDEST SWAP2 POP POP PUSH2 0x112B JUMP JUMPDEST POP CALLER PUSH20 0xFFFFFFFFFFFFFFFFFFFFFFFFFFFFFFFFFFFFFFFF AND PUSH32 0xA84226BF2D14BDE3FAC454F52EAEAB63AAEB1934DA88F9263DD4FF7DD12ACF71 PUSH1 0x9 PUSH1 0x1 SWAP1 SLOAD SWAP1 PUSH2 0x100 EXP SWAP1 DIV PUSH1 0xFF AND PUSH1 0x40 MLOAD PUSH2 0x1277 SWAP2 SWAP1 PUSH2 0x2AA6 JUMP JUMPDEST PUSH1 0x40 MLOAD DUP1 SWAP2 SUB SWAP1 LOG2 PUSH2 0x1287 PUSH2 0x1B78 JUMP JUMPDEST JUMPDEST POP JUMP JUMPDEST PUSH1 0x5 SLOAD DUP2 JUMP JUMPDEST PUSH1 0x2 PUSH1 0x0 SWAP1 SLOAD SWAP1 PUSH2 0x100 EXP SWAP1 DIV PUSH20 0xFFFFFFFFFFFFFFFFFFFFFFFFFFFFFFFFFFFFFFFF AND DUP2 JUMP JUMPDEST PUSH1 0x9 PUSH1 0x0 SWAP1 SLOAD SWAP1 PUSH2 0x100 EXP SWAP1 DIV PUSH1 0xFF AND DUP2 JUMP JUMPDEST PUSH1 0x1A DUP2 PUSH1 0x8 DUP2 LT PUSH2 0x12DA JUMPI PUSH1 0x0 DUP1 REVERT JUMPDEST ADD PUSH1 0x0 SWAP2 POP SWAP1 POP SLOAD DUP2 JUMP JUMPDEST PUSH1 0x3 DUP1 PUSH1 0x4 DUP2 GT ISZERO PUSH2 0x12FA JUMPI PUSH2 0x12F9 PUSH2 0x318B JUMP JUMPDEST JUMPDEST PUSH1 0x9 PUSH1 0x0 SWAP1 SLOAD SWAP1 PUSH2 0x100 EXP SWAP1 DIV PUSH1 0xFF AND PUSH1 0x4 DUP2 GT ISZERO PUSH2 0x131C JUMPI PUSH2 0x131B PUSH2 0x318B JUMP JUMPDEST JUMPDEST EQ PUSH2 0x135C JUMPI PUSH1 0x40 MLOAD PUSH32 0x8C379A000000000000000000000000000000000000000000000000000000000 DUP2 MSTORE PUSH1 0x4 ADD PUSH2 0x1353 SWAP1 PUSH2 0x2C24 JUMP JUMPDEST PUSH1 0x40 MLOAD DUP1 SWAP2 SUB SWAP1 REVERT JUMPDEST PUSH1 0x0 JUMPDEST PUSH1 0x2B SLOAD DUP2 LT ISZERO PUSH2 0x13C0 JUMPI DUP3 DUP2 DUP2 MLOAD DUP2 LT PUSH2 0x137C JUMPI PUSH2 0x137B PUSH2 0x31E9 JUMP JUMPDEST JUMPDEST PUSH1 0x20 MUL PUSH1 0x20 ADD ADD MLOAD PUSH1 0x2C PUSH1 0x0 DUP4 DUP2 MSTORE PUSH1 0x20 ADD SWAP1 DUP2 MSTORE PUSH1 0x20 ADD PUSH1 0x0 KECCAK256 PUSH1 0x0 DUP3 DUP3 SLOAD PUSH2 0x13A6 SWAP2 SWAP1 PUSH2 0x2DBF JUMP JUMPDEST SWAP3 POP POP DUP2 SWAP1 SSTORE POP DUP1 DUP1 PUSH2 0x13B8 SWAP1 PUSH2 0x30E4 JUMP JUMPDEST SWAP2 POP POP PUSH2 0x135F JUMP JUMPDEST POP PUSH1 0x2D PUSH1 0x0 DUP2 SLOAD DUP1 SWAP3 SWAP2 SWAP1 PUSH2 0x13D4 SWAP1 PUSH2 0x309B JUMP JUMPDEST SWAP2 SWAP1 POP SSTORE POP POP POP JUMP JUMPDEST PUSH1 0x3 DUP1 PUSH1 0x4 DUP2 GT ISZERO PUSH2 0x13F2 JUMPI PUSH2 0x13F1 PUSH2 0x318B JUMP JUMPDEST JUMPDEST PUSH1 0x9 PUSH1 0x0 SWAP1 SLOAD SWAP1 PUSH2 0x100 EXP SWAP1 DIV PUSH1 0xFF AND PUSH1 0x4 DUP2 GT ISZERO PUSH2 0x1414 JUMPI PUSH2 0x1413 PUSH2 0x318B JUMP JUMPDEST JUMPDEST EQ PUSH2 0x1454 JUMPI PUSH1 0x40 MLOAD PUSH32 0x8C379A000000000000000000000000000000000000000000000000000000000 DUP2 MSTORE PUSH1 0x4 ADD PUSH2 0x144B SWAP1 PUSH2 0x2C24 JUMP JUMPDEST PUSH1 0x40 MLOAD DUP1 SWAP2 SUB SWAP1 REVERT JUMPDEST PUSH1 0x2 PUSH1 0x9 PUSH1 0x0 PUSH2 0x100 EXP DUP2 SLOAD DUP2 PUSH1 0xFF MUL NOT AND SWAP1 DUP4 PUSH1 0x4 DUP2 GT ISZERO PUSH2 0x147A JUMPI PUSH2 0x1479 PUSH2 0x318B JUMP JUMPDEST JUMPDEST MUL OR SWAP1 SSTORE POP POP JUMP JUMPDEST PUSH1 0x0 DUP1 SLOAD SWAP1 PUSH2 0x100 EXP SWAP1 DIV PUSH20 0xFFFFFFFFFFFFFFFFFFFFFFFFFFFFFFFFFFFFFFFF AND DUP2 JUMP JUMPDEST PUSH1 0x0 DUP1 PUSH1 0x4 DUP2 GT ISZERO PUSH2 0x14BB JUMPI PUSH2 0x14BA PUSH2 0x318B JUMP JUMPDEST JUMPDEST PUSH1 0x9 PUSH1 0x0 SWAP1 SLOAD SWAP1 PUSH2 0x100 EXP SWAP1 DIV PUSH1 0xFF AND PUSH1 0x4 DUP2 GT ISZERO PUSH2 0x14DD JUMPI PUSH2 0x14DC PUSH2 0x318B JUMP JUMPDEST JUMPDEST EQ PUSH2 0x151D JUMPI PUSH1 0x40 MLOAD PUSH32 0x8C379A000000000000000000000000000000000000000000000000000000000 DUP2 MSTORE PUSH1 0x4 ADD PUSH2 0x1514 SWAP1 PUSH2 0x2C24 JUMP JUMPDEST PUSH1 0x40 MLOAD DUP1 SWAP2 SUB SWAP1 REVERT JUMPDEST PUSH32 0xDD970DD9B5BFE707922155B058A407655CB18288B807E2216442BCA8AD83D6B5 PUSH1 0x9 PUSH1 0x0 SWAP1 SLOAD SWAP1 PUSH2 0x100 EXP SWAP1 DIV PUSH1 0xFF AND PUSH1 0x4 DUP2 GT ISZERO PUSH2 0x1560 JUMPI PUSH2 0x155F PUSH2 0x318B JUMP JUMPDEST JUMPDEST PUSH1 0x40 MLOAD PUSH2 0x156D SWAP2 SWAP1 PUSH2 0x2BA8 JUMP JUMPDEST PUSH1 0x40 MLOAD DUP1 SWAP2 SUB SWAP1 LOG1 PUSH1 0x0 JUMPDEST PUSH1 0x8 DUP2 LT ISZERO PUSH2 0x17CE JUMPI PUSH1 0x40 MLOAD DUP1 PUSH1 0x40 ADD PUSH1 0x40 MSTORE DUP1 PUSH1 0x1 DUP2 MSTORE PUSH1 0x20 ADD PUSH32 0x3000000000000000000000000000000000000000000000000000000000000000 DUP2 MSTORE POP DUP1 MLOAD SWAP1 PUSH1 0x20 ADD KECCAK256 DUP6 DUP3 PUSH1 0x8 DUP2 LT PUSH2 0x15D1 JUMPI PUSH2 0x15D0 PUSH2 0x31E9 JUMP JUMPDEST JUMPDEST PUSH1 0x20 MUL ADD MLOAD DUP1 MLOAD SWAP1 PUSH1 0x20 ADD KECCAK256 EQ ISZERO PUSH2 0x16A1 JUMPI PUSH32 0xDD970DD9B5BFE707922155B058A407655CB18288B807E2216442BCA8AD83D6B5 PUSH1 0x9 PUSH1 0x0 SWAP1 SLOAD SWAP1 PUSH2 0x100 EXP SWAP1 DIV PUSH1 0xFF AND PUSH1 0x4 DUP2 GT ISZERO PUSH2 0x1626 JUMPI PUSH2 0x1625 PUSH2 0x318B JUMP JUMPDEST JUMPDEST PUSH1 0x40 MLOAD PUSH2 0x1633 SWAP2 SWAP1 PUSH2 0x2B7A JUMP JUMPDEST PUSH1 0x40 MLOAD DUP1 SWAP2 SUB SWAP1 LOG1 PUSH2 0x1643 PUSH2 0x1CF8 JUMP JUMPDEST PUSH32 0xDD970DD9B5BFE707922155B058A407655CB18288B807E2216442BCA8AD83D6B5 PUSH1 0x9 PUSH1 0x0 SWAP1 SLOAD SWAP1 PUSH2 0x100 EXP SWAP1 DIV PUSH1 0xFF AND PUSH1 0x4 DUP2 GT ISZERO PUSH2 0x1686 JUMPI PUSH2 0x1685 PUSH2 0x318B JUMP JUMPDEST JUMPDEST PUSH1 0x40 MLOAD PUSH2 0x1693 SWAP2 SWAP1 PUSH2 0x2B2C JUMP JUMPDEST PUSH1 0x40 MLOAD DUP1 SWAP2 SUB SWAP1 LOG1 POP PUSH2 0x17D0 JUMP JUMPDEST DUP5 DUP2 PUSH1 0x8 DUP2 LT PUSH2 0x16B4 JUMPI PUSH2 0x16B3 PUSH2 0x31E9 JUMP JUMPDEST JUMPDEST PUSH1 0x20 MUL ADD MLOAD PUSH1 0xA DUP3 PUSH1 0x8 DUP2 LT PUSH2 0x16CD JUMPI PUSH2 0x16CC PUSH2 0x31E9 JUMP JUMPDEST JUMPDEST ADD SWAP1 DUP1 MLOAD SWAP1 PUSH1 0x20 ADD SWAP1 PUSH2 0x16E1 SWAP3 SWAP2 SWAP1 PUSH2 0x1FA0 JUMP JUMPDEST POP DUP4 DUP2 PUSH1 0x8 DUP2 LT PUSH2 0x16F5 JUMPI PUSH2 0x16F4 PUSH2 0x31E9 JUMP JUMPDEST JUMPDEST PUSH1 0x20 MUL ADD MLOAD PUSH1 0x12 DUP3 PUSH1 0x8 DUP2 LT PUSH2 0x170E JUMPI PUSH2 0x170D PUSH2 0x31E9 JUMP JUMPDEST JUMPDEST ADD DUP2 SWAP1 SSTORE POP PUSH1 0x2A DUP4 DUP3 PUSH1 0x8 DUP2 LT PUSH2 0x1728 JUMPI PUSH2 0x1727 PUSH2 0x31E9 JUMP JUMPDEST JUMPDEST PUSH1 0x20 MUL ADD MLOAD PUSH1 0x40 MLOAD PUSH2 0x173A SWAP2 SWAP1 PUSH2 0x28D9 JUMP JUMPDEST SWAP1 DUP2 MSTORE PUSH1 0x20 ADD PUSH1 0x40 MLOAD DUP1 SWAP2 SUB SWAP1 KECCAK256 SLOAD PUSH1 0x1A DUP3 PUSH1 0x8 DUP2 LT PUSH2 0x175D JUMPI PUSH2 0x175C PUSH2 0x31E9 JUMP JUMPDEST JUMPDEST ADD DUP2 SWAP1 SSTORE POP DUP3 DUP2 PUSH1 0x8 DUP2 LT PUSH2 0x1775 JUMPI PUSH2 0x1774 PUSH2 0x31E9 JUMP JUMPDEST JUMPDEST PUSH1 0x20 MUL ADD MLOAD PUSH1 0x22 DUP3 PUSH1 0x8 DUP2 LT PUSH2 0x178E JUMPI PUSH2 0x178D PUSH2 0x31E9 JUMP JUMPDEST JUMPDEST ADD SWAP1 DUP1 MLOAD SWAP1 PUSH1 0x20 ADD SWAP1 PUSH2 0x17A2 SWAP3 SWAP2 SWAP1 PUSH2 0x1FA0 JUMP JUMPDEST POP PUSH1 0x2B PUSH1 0x0 DUP2 SLOAD DUP1 SWAP3 SWAP2 SWAP1 PUSH2 0x17B6 SWAP1 PUSH2 0x30E4 JUMP JUMPDEST SWAP2 SWAP1 POP SSTORE POP DUP1 DUP1 PUSH2 0x17C6 SWAP1 PUSH2 0x30E4 JUMP JUMPDEST SWAP2 POP POP PUSH2 0x1578 JUMP JUMPDEST POP JUMPDEST POP POP POP POP JUMP JUMPDEST PUSH1 0x0 DUP1 PUSH1 0x0 DUP1 PUSH1 0x0 DUP1 PUSH1 0x0 DUP1 PUSH2 0x17EA PUSH2 0x2026 JUMP JUMPDEST PUSH2 0x17F2 PUSH2 0x204E JUMP JUMPDEST PUSH2 0x17FA PUSH2 0x2026 JUMP JUMPDEST PUSH1 0x1 PUSH1 0x0 SWAP1 SLOAD SWAP1 PUSH2 0x100 EXP SWAP1 DIV PUSH20 0xFFFFFFFFFFFFFFFFFFFFFFFFFFFFFFFFFFFFFFFF AND PUSH1 0x2 PUSH1 0x0 SWAP1 SLOAD SWAP1 PUSH2 0x100 EXP SWAP1 DIV PUSH20 0xFFFFFFFFFFFFFFFFFFFFFFFFFFFFFFFFFFFFFFFF AND PUSH1 0x3 SLOAD PUSH1 0x4 SLOAD PUSH1 0x5 SLOAD PUSH1 0x6 SLOAD PUSH1 0x7 SLOAD PUSH1 0x8 SLOAD PUSH1 0xA PUSH1 0x12 PUSH1 0x22 DUP3 PUSH1 0x8 DUP1 PUSH1 0x20 MUL PUSH1 0x40 MLOAD SWAP1 DUP2 ADD PUSH1 0x40 MSTORE DUP1 SWAP3 SWAP2 SWAP1 PUSH1 0x0 SWAP1 JUMPDEST DUP3 DUP3 LT ISZERO PUSH2 0x1913 JUMPI DUP4 DUP3 ADD DUP1 SLOAD PUSH2 0x1886 SWAP1 PUSH2 0x3038 JUMP JUMPDEST DUP1 PUSH1 0x1F ADD PUSH1 0x20 DUP1 SWAP2 DIV MUL PUSH1 0x20 ADD PUSH1 0x40 MLOAD SWAP1 DUP2 ADD PUSH1 0x40 MSTORE DUP1 SWAP3 SWAP2 SWAP1 DUP2 DUP2 MSTORE PUSH1 0x20 ADD DUP3 DUP1 SLOAD PUSH2 0x18B2 SWAP1 PUSH2 0x3038 JUMP JUMPDEST DUP1 ISZERO PUSH2 0x18FF JUMPI DUP1 PUSH1 0x1F LT PUSH2 0x18D4 JUMPI PUSH2 0x100 DUP1 DUP4 SLOAD DIV MUL DUP4 MSTORE SWAP2 PUSH1 0x20 ADD SWAP2 PUSH2 0x18FF JUMP JUMPDEST DUP3 ADD SWAP2 SWAP1 PUSH1 0x0 MSTORE PUSH1 0x20 PUSH1 0x0 KECCAK256 SWAP1 JUMPDEST DUP2 SLOAD DUP2 MSTORE SWAP1 PUSH1 0x1 ADD SWAP1 PUSH1 0x20 ADD DUP1 DUP4 GT PUSH2 0x18E2 JUMPI DUP3 SWAP1 SUB PUSH1 0x1F AND DUP3 ADD SWAP2 JUMPDEST POP POP POP POP POP DUP2 MSTORE PUSH1 0x20 ADD SWAP1 PUSH1 0x1 ADD SWAP1 PUSH2 0x1870 JUMP JUMPDEST POP POP POP POP SWAP3 POP DUP2 PUSH1 0x8 DUP1 PUSH1 0x20 MUL PUSH1 0x40 MLOAD SWAP1 DUP2 ADD PUSH1 0x40 MSTORE DUP1 SWAP3 SWAP2 SWAP1 DUP3 PUSH1 0x8 DUP1 ISZERO PUSH2 0x1951 JUMPI PUSH1 0x20 MUL DUP3 ADD SWAP2 JUMPDEST DUP2 SLOAD DUP2 MSTORE PUSH1 0x20 ADD SWAP1 PUSH1 0x1 ADD SWAP1 DUP1 DUP4 GT PUSH2 0x193D JUMPI JUMPDEST POP POP POP POP POP SWAP2 POP DUP1 PUSH1 0x8 DUP1 PUSH1 0x20 MUL PUSH1 0x40 MLOAD SWAP1 DUP2 ADD PUSH1 0x40 MSTORE DUP1 SWAP3 SWAP2 SWAP1 PUSH1 0x0 SWAP1 JUMPDEST DUP3 DUP3 LT ISZERO PUSH2 0x1A13 JUMPI DUP4 DUP3 ADD DUP1 SLOAD PUSH2 0x1986 SWAP1 PUSH2 0x3038 JUMP JUMPDEST DUP1 PUSH1 0x1F ADD PUSH1 0x20 DUP1 SWAP2 DIV MUL PUSH1 0x20 ADD PUSH1 0x40 MLOAD SWAP1 DUP2 ADD PUSH1 0x40 MSTORE DUP1 SWAP3 SWAP2 SWAP1 DUP2 DUP2 MSTORE PUSH1 0x20 ADD DUP3 DUP1 SLOAD PUSH2 0x19B2 SWAP1 PUSH2 0x3038 JUMP JUMPDEST DUP1 ISZERO PUSH2 0x19FF JUMPI DUP1 PUSH1 0x1F LT PUSH2 0x19D4 JUMPI PUSH2 0x100 DUP1 DUP4 SLOAD DIV MUL DUP4 MSTORE SWAP2 PUSH1 0x20 ADD SWAP2 PUSH2 0x19FF JUMP JUMPDEST DUP3 ADD SWAP2 SWAP1 PUSH1 0x0 MSTORE PUSH1 0x20 PUSH1 0x0 KECCAK256 SWAP1 JUMPDEST DUP2 SLOAD DUP2 MSTORE SWAP1 PUSH1 0x1 ADD SWAP1 PUSH1 0x20 ADD DUP1 DUP4 GT PUSH2 0x19E2 JUMPI DUP3 SWAP1 SUB PUSH1 0x1F AND DUP3 ADD SWAP2 JUMPDEST POP POP POP POP POP DUP2 MSTORE PUSH1 0x20 ADD SWAP1 PUSH1 0x1 ADD SWAP1 PUSH2 0x1970 JUMP JUMPDEST POP POP POP POP SWAP1 POP SWAP11 POP SWAP11 POP SWAP11 POP SWAP11 POP SWAP11 POP SWAP11 POP SWAP11 POP SWAP11 POP SWAP11 POP SWAP11 POP SWAP11 POP SWAP1 SWAP2 SWAP3 SWAP4 SWAP5 SWAP6 SWAP7 SWAP8 SWAP9 SWAP10 SWAP11 JUMP JUMPDEST PUSH1 0x0 PUSH32 0xFFFFFFFFFFFFFFFFFFFFFFFFFFFFFFFFFFFFFFFFFFFFFFFFFFFFFFFFFFFFFFFF DUP5 EQ PUSH2 0x1ADC JUMPI PUSH1 0x1 DUP1 DUP6 AND EQ ISZERO PUSH2 0x1A8D JUMPI PUSH2 0x1A7B DUP5 DUP5 DUP5 PUSH2 0x1E2E JUMP JUMPDEST PUSH2 0x1A88 JUMPI PUSH1 0x0 SWAP1 POP PUSH2 0x1AE1 JUMP JUMPDEST PUSH2 0x1ADB JUMP JUMPDEST PUSH1 0x4 DUP1 DUP6 AND EQ ISZERO PUSH2 0x1AB5 JUMPI PUSH2 0x1AA3 DUP5 DUP5 DUP5 PUSH2 0x1E6E JUMP JUMPDEST PUSH2 0x1AB0 JUMPI PUSH1 0x0 SWAP1 POP PUSH2 0x1AE1 JUMP JUMPDEST PUSH2 0x1ADA JUMP JUMPDEST PUSH1 0x2 DUP1 DUP6 AND EQ ISZERO PUSH2 0x1AD9 JUMPI PUSH2 0x1ACB DUP5 DUP5 DUP5 PUSH2 0x1EAE JUMP JUMPDEST PUSH2 0x1AD8 JUMPI PUSH1 0x0 SWAP1 POP PUSH2 0x1AE1 JUMP JUMPDEST JUMPDEST JUMPDEST JUMPDEST JUMPDEST PUSH1 0x1 SWAP1 POP JUMPDEST SWAP4 SWAP3 POP POP POP JUMP JUMPDEST PUSH1 0x0 PUSH1 0x9 PUSH1 0x1 PUSH2 0x100 EXP DUP2 SLOAD DUP2 PUSH1 0xFF MUL NOT AND SWAP1 DUP4 ISZERO ISZERO MUL OR SWAP1 SSTORE POP PUSH1 0x1 PUSH1 0x0 SWAP1 SLOAD SWAP1 PUSH2 0x100 EXP SWAP1 DIV PUSH20 0xFFFFFFFFFFFFFFFFFFFFFFFFFFFFFFFFFFFFFFFF AND PUSH20 0xFFFFFFFFFFFFFFFFFFFFFFFFFFFFFFFFFFFFFFFF AND PUSH2 0x8FC PUSH1 0x5 SLOAD SWAP1 DUP2 ISZERO MUL SWAP1 PUSH1 0x40 MLOAD PUSH1 0x0 PUSH1 0x40 MLOAD DUP1 DUP4 SUB DUP2 DUP6 DUP9 DUP9 CALL SWAP4 POP POP POP POP ISZERO DUP1 ISZERO PUSH2 0x1B6D JUMPI RETURNDATASIZE PUSH1 0x0 DUP1 RETURNDATACOPY RETURNDATASIZE PUSH1 0x0 REVERT JUMPDEST POP PUSH2 0x1B76 PUSH2 0x1ED9 JUMP JUMPDEST JUMP JUMPDEST PUSH1 0x1 PUSH1 0x9 PUSH1 0x1 PUSH2 0x100 EXP DUP2 SLOAD DUP2 PUSH1 0xFF MUL NOT AND SWAP1 DUP4 ISZERO ISZERO MUL OR SWAP1 SSTORE POP PUSH1 0x2 PUSH1 0x0 SWAP1 SLOAD SWAP1 PUSH2 0x100 EXP SWAP1 DIV PUSH20 0xFFFFFFFFFFFFFFFFFFFFFFFFFFFFFFFFFFFFFFFF AND PUSH20 0xFFFFFFFFFFFFFFFFFFFFFFFFFFFFFFFFFFFFFFFF AND PUSH2 0x8FC PUSH1 0x5 SLOAD SWAP1 DUP2 ISZERO MUL SWAP1 PUSH1 0x40 MLOAD PUSH1 0x0 PUSH1 0x40 MLOAD DUP1 DUP4 SUB DUP2 DUP6 DUP9 DUP9 CALL SWAP4 POP POP POP POP ISZERO DUP1 ISZERO PUSH2 0x1BFD JUMPI RETURNDATASIZE PUSH1 0x0 DUP1 RETURNDATACOPY RETURNDATASIZE PUSH1 0x0 REVERT JUMPDEST POP PUSH2 0x1C06 PUSH2 0x1ED9 JUMP JUMPDEST JUMP JUMPDEST PUSH1 0x0 PUSH2 0x1900 DUP3 PUSH2 0x1C18 SWAP2 SWAP1 PUSH2 0x2F13 JUMP JUMPDEST NUMBER PUSH2 0x1C23 SWAP2 SWAP1 PUSH2 0x2E53 JUMP JUMPDEST SWAP1 POP SWAP2 SWAP1 POP JUMP JUMPDEST PUSH1 0x1 PUSH1 0x2A PUSH1 0x40 MLOAD PUSH2 0x1C3A SWAP1 PUSH2 0x2959 JUMP JUMPDEST SWAP1 DUP2 MSTORE PUSH1 0x20 ADD PUSH1 0x40 MLOAD DUP1 SWAP2 SUB SWAP1 KECCAK256 DUP2 SWAP1 SSTORE POP PUSH1 0x2 PUSH1 0x2A PUSH1 0x40 MLOAD PUSH2 0x1C5C SWAP1 PUSH2 0x2905 JUMP JUMPDEST SWAP1 DUP2 MSTORE PUSH1 0x20 ADD PUSH1 0x40 MLOAD DUP1 SWAP2 SUB SWAP1 KECCAK256 DUP2 SWAP1 SSTORE POP PUSH1 0x3 PUSH1 0x2A PUSH1 0x40 MLOAD PUSH2 0x1C7E SWAP1 PUSH2 0x28F0 JUMP JUMPDEST SWAP1 DUP2 MSTORE PUSH1 0x20 ADD PUSH1 0x40 MLOAD DUP1 SWAP2 SUB SWAP1 KECCAK256 DUP2 SWAP1 SSTORE POP PUSH1 0x4 PUSH1 0x2A PUSH1 0x40 MLOAD PUSH2 0x1CA0 SWAP1 PUSH2 0x291A JUMP JUMPDEST SWAP1 DUP2 MSTORE PUSH1 0x20 ADD PUSH1 0x40 MLOAD DUP1 SWAP2 SUB SWAP1 KECCAK256 DUP2 SWAP1 SSTORE POP PUSH1 0x5 PUSH1 0x2A PUSH1 0x40 MLOAD PUSH2 0x1CC2 SWAP1 PUSH2 0x292F JUMP JUMPDEST SWAP1 DUP2 MSTORE PUSH1 0x20 ADD PUSH1 0x40 MLOAD DUP1 SWAP2 SUB SWAP1 KECCAK256 DUP2 SWAP1 SSTORE POP PUSH1 0x6 PUSH1 0x2A PUSH1 0x40 MLOAD PUSH2 0x1CE4 SWAP1 PUSH2 0x2944 JUMP JUMPDEST SWAP1 DUP2 MSTORE PUSH1 0x20 ADD PUSH1 0x40 MLOAD DUP1 SWAP2 SUB SWAP1 KECCAK256 DUP2 SWAP1 SSTORE POP JUMP JUMPDEST PUSH1 0x0 DUP1 PUSH1 0x4 DUP2 GT ISZERO PUSH2 0x1D0D JUMPI PUSH2 0x1D0C PUSH2 0x318B JUMP JUMPDEST JUMPDEST PUSH1 0x9 PUSH1 0x0 SWAP1 SLOAD SWAP1 PUSH2 0x100 EXP SWAP1 DIV PUSH1 0xFF AND PUSH1 0x4 DUP2 GT ISZERO PUSH2 0x1D2F JUMPI PUSH2 0x1D2E PUSH2 0x318B JUMP JUMPDEST JUMPDEST EQ PUSH2 0x1D6F JUMPI PUSH1 0x40 MLOAD PUSH32 0x8C379A000000000000000000000000000000000000000000000000000000000 DUP2 MSTORE PUSH1 0x4 ADD PUSH2 0x1D66 SWAP1 PUSH2 0x2C24 JUMP JUMPDEST PUSH1 0x40 MLOAD DUP1 SWAP2 SUB SWAP1 REVERT JUMPDEST PUSH32 0xDD970DD9B5BFE707922155B058A407655CB18288B807E2216442BCA8AD83D6B5 PUSH1 0x9 PUSH1 0x0 SWAP1 SLOAD SWAP1 PUSH2 0x100 EXP SWAP1 DIV PUSH1 0xFF AND PUSH1 0x4 DUP2 GT ISZERO PUSH2 0x1DB2 JUMPI PUSH2 0x1DB1 PUSH2 0x318B JUMP JUMPDEST JUMPDEST PUSH1 0x40 MLOAD PUSH2 0x1DBF SWAP2 SWAP1 PUSH2 0x2BD6 JUMP JUMPDEST PUSH1 0x40 MLOAD DUP1 SWAP2 SUB SWAP1 LOG1 PUSH1 0x1 PUSH1 0x9 PUSH1 0x0 PUSH2 0x100 EXP DUP2 SLOAD DUP2 PUSH1 0xFF MUL NOT AND SWAP1 DUP4 PUSH1 0x4 DUP2 GT ISZERO PUSH2 0x1DED JUMPI PUSH2 0x1DEC PUSH2 0x318B JUMP JUMPDEST JUMPDEST MUL OR SWAP1 SSTORE POP PUSH1 0x0 JUMPDEST PUSH1 0x8 DUP2 LT ISZERO PUSH2 0x1E2A JUMPI PUSH1 0x0 PUSH1 0x2C PUSH1 0x0 DUP4 DUP2 MSTORE PUSH1 0x20 ADD SWAP1 DUP2 MSTORE PUSH1 0x20 ADD PUSH1 0x0 KECCAK256 DUP2 SWAP1 SSTORE POP DUP1 DUP1 PUSH2 0x1E22 SWAP1 PUSH2 0x30E4 JUMP JUMPDEST SWAP2 POP POP PUSH2 0x1DF5 JUMP JUMPDEST POP POP JUMP JUMPDEST PUSH1 0x0 DUP1 PUSH1 0x0 SWAP1 POP PUSH1 0x1 DUP1 DUP7 AND EQ ISZERO PUSH2 0x1E63 JUMPI DUP3 DUP5 SGT ISZERO PUSH2 0x1E4D JUMPI PUSH1 0x1 SWAP1 POP JUMPDEST PUSH2 0x1E58 DUP6 DUP6 DUP6 PUSH2 0x1EAE JUMP JUMPDEST ISZERO PUSH2 0x1E62 JUMPI PUSH1 0x1 SWAP1 POP JUMPDEST JUMPDEST DUP1 SWAP2 POP POP SWAP4 SWAP3 POP POP POP JUMP JUMPDEST PUSH1 0x0 DUP1 PUSH1 0x0 SWAP1 POP PUSH1 0x4 DUP1 DUP7 AND EQ ISZERO PUSH2 0x1EA3 JUMPI DUP3 DUP5 SLT ISZERO PUSH2 0x1E8D JUMPI PUSH1 0x1 SWAP1 POP JUMPDEST PUSH2 0x1E98 DUP6 DUP6 DUP6 PUSH2 0x1EAE JUMP JUMPDEST ISZERO PUSH2 0x1EA2 JUMPI PUSH1 0x1 SWAP1 POP JUMPDEST JUMPDEST DUP1 SWAP2 POP POP SWAP4 SWAP3 POP POP POP JUMP JUMPDEST PUSH1 0x0 PUSH1 0x2 DUP1 DUP6 AND EQ ISZERO PUSH2 0x1ECD JUMPI DUP2 DUP4 EQ ISZERO PUSH2 0x1ECC JUMPI PUSH1 0x1 SWAP1 POP PUSH2 0x1ED2 JUMP JUMPDEST JUMPDEST PUSH1 0x0 SWAP1 POP JUMPDEST SWAP4 SWAP3 POP POP POP JUMP JUMPDEST PUSH2 0x1EE4 PUSH1 0x4 SLOAD PUSH2 0x1C08 JUMP JUMPDEST NUMBER LT PUSH2 0x1F16 JUMPI PUSH1 0x4 PUSH1 0x9 PUSH1 0x0 PUSH2 0x100 EXP DUP2 SLOAD DUP2 PUSH1 0xFF MUL NOT AND SWAP1 DUP4 PUSH1 0x4 DUP2 GT ISZERO PUSH2 0x1F10 JUMPI PUSH2 0x1F0F PUSH2 0x318B JUMP JUMPDEST JUMPDEST MUL OR SWAP1 SSTORE POP JUMPDEST PUSH1 0x0 JUMPDEST PUSH1 0x2B SLOAD DUP2 LT ISZERO PUSH2 0x1F4F JUMPI PUSH1 0x0 PUSH1 0x2C PUSH1 0x0 DUP4 DUP2 MSTORE PUSH1 0x20 ADD SWAP1 DUP2 MSTORE PUSH1 0x20 ADD PUSH1 0x0 KECCAK256 DUP2 SWAP1 SSTORE POP DUP1 DUP1 PUSH2 0x1F47 SWAP1 PUSH2 0x30E4 JUMP JUMPDEST SWAP2 POP POP PUSH2 0x1F19 JUMP JUMPDEST POP PUSH1 0x0 PUSH1 0x2D DUP2 SWAP1 SSTORE POP PUSH1 0x0 PUSH1 0x2 PUSH1 0x15 PUSH2 0x100 EXP DUP2 SLOAD DUP2 PUSH1 0xFF MUL NOT AND SWAP1 DUP4 ISZERO ISZERO MUL OR SWAP1 SSTORE POP PUSH1 0x7 SLOAD PUSH1 0x6 DUP2 SWAP1 SSTORE POP PUSH2 0x1900 PUSH1 0x1E PUSH2 0x1F8B SWAP2 SWAP1 PUSH2 0x2F13 JUMP JUMPDEST PUSH1 0x7 SLOAD PUSH2 0x1F98 SWAP2 SWAP1 PUSH2 0x2E53 JUMP JUMPDEST PUSH1 0x7 DUP2 SWAP1 SSTORE POP JUMP JUMPDEST DUP3 DUP1 SLOAD PUSH2 0x1FAC SWAP1 PUSH2 0x3038 JUMP JUMPDEST SWAP1 PUSH1 0x0 MSTORE PUSH1 0x20 PUSH1 0x0 KECCAK256 SWAP1 PUSH1 0x1F ADD PUSH1 0x20 SWAP1 DIV DUP2 ADD SWAP3 DUP3 PUSH2 0x1FCE JUMPI PUSH1 0x0 DUP6 SSTORE PUSH2 0x2015 JUMP JUMPDEST DUP3 PUSH1 0x1F LT PUSH2 0x1FE7 JUMPI DUP1 MLOAD PUSH1 0xFF NOT AND DUP4 DUP1 ADD OR DUP6 SSTORE PUSH2 0x2015 JUMP JUMPDEST DUP3 DUP1 ADD PUSH1 0x1 ADD DUP6 SSTORE DUP3 ISZERO PUSH2 0x2015 JUMPI SWAP2 DUP3 ADD JUMPDEST DUP3 DUP2 GT ISZERO PUSH2 0x2014 JUMPI DUP3 MLOAD DUP3 SSTORE SWAP2 PUSH1 0x20 ADD SWAP2 SWAP1 PUSH1 0x1 ADD SWAP1 PUSH2 0x1FF9 JUMP JUMPDEST JUMPDEST POP SWAP1 POP PUSH2 0x2022 SWAP2 SWAP1 PUSH2 0x2071 JUMP JUMPDEST POP SWAP1 JUMP JUMPDEST PUSH1 0x40 MLOAD DUP1 PUSH2 0x100 ADD PUSH1 0x40 MSTORE DUP1 PUSH1 0x8 SWAP1 JUMPDEST PUSH1 0x60 DUP2 MSTORE PUSH1 0x20 ADD SWAP1 PUSH1 0x1 SWAP1 SUB SWAP1 DUP2 PUSH2 0x2036 JUMPI SWAP1 POP POP SWAP1 JUMP JUMPDEST PUSH1 0x40 MLOAD DUP1 PUSH2 0x100 ADD PUSH1 0x40 MSTORE DUP1 PUSH1 0x8 SWAP1 PUSH1 0x20 DUP3 MUL DUP1 CALLDATASIZE DUP4 CALLDATACOPY DUP1 DUP3 ADD SWAP2 POP POP SWAP1 POP POP SWAP1 JUMP JUMPDEST JUMPDEST DUP1 DUP3 GT ISZERO PUSH2 0x208A JUMPI PUSH1 0x0 DUP2 PUSH1 0x0 SWAP1 SSTORE POP PUSH1 0x1 ADD PUSH2 0x2072 JUMP JUMPDEST POP SWAP1 JUMP JUMPDEST PUSH1 0x0 PUSH2 0x20A1 PUSH2 0x209C DUP5 PUSH2 0x2C84 JUMP JUMPDEST PUSH2 0x2C5F JUMP JUMPDEST SWAP1 POP DUP1 DUP3 DUP6 PUSH1 0x20 DUP7 MUL DUP3 ADD GT ISZERO PUSH2 0x20BB JUMPI PUSH2 0x20BA PUSH2 0x324C JUMP JUMPDEST JUMPDEST PUSH1 0x0 JUMPDEST DUP6 DUP2 LT ISZERO PUSH2 0x20EB JUMPI DUP2 PUSH2 0x20D1 DUP9 DUP3 PUSH2 0x22C5 JUMP JUMPDEST DUP5 MSTORE PUSH1 0x20 DUP5 ADD SWAP4 POP PUSH1 0x20 DUP4 ADD SWAP3 POP POP PUSH1 0x1 DUP2 ADD SWAP1 POP PUSH2 0x20BE JUMP JUMPDEST POP POP POP SWAP4 SWAP3 POP POP POP JUMP JUMPDEST PUSH1 0x0 PUSH2 0x2108 PUSH2 0x2103 DUP5 PUSH2 0x2CAA JUMP JUMPDEST PUSH2 0x2C5F JUMP JUMPDEST SWAP1 POP DUP1 DUP4 DUP3 MSTORE PUSH1 0x20 DUP3 ADD SWAP1 POP DUP3 DUP6 PUSH1 0x20 DUP7 MUL DUP3 ADD GT ISZERO PUSH2 0x212B JUMPI PUSH2 0x212A PUSH2 0x324C JUMP JUMPDEST JUMPDEST PUSH1 0x0 JUMPDEST DUP6 DUP2 LT ISZERO PUSH2 0x215B JUMPI DUP2 PUSH2 0x2141 DUP9 DUP3 PUSH2 0x22C5 JUMP JUMPDEST DUP5 MSTORE PUSH1 0x20 DUP5 ADD SWAP4 POP PUSH1 0x20 DUP4 ADD SWAP3 POP POP PUSH1 0x1 DUP2 ADD SWAP1 POP PUSH2 0x212E JUMP JUMPDEST POP POP POP SWAP4 SWAP3 POP POP POP JUMP JUMPDEST PUSH1 0x0 PUSH2 0x2178 PUSH2 0x2173 DUP5 PUSH2 0x2CD6 JUMP JUMPDEST PUSH2 0x2C5F JUMP JUMPDEST SWAP1 POP DUP1 DUP3 DUP6 PUSH1 0x20 DUP7 MUL DUP3 ADD GT ISZERO PUSH2 0x2192 JUMPI PUSH2 0x2191 PUSH2 0x324C JUMP JUMPDEST JUMPDEST PUSH1 0x0 JUMPDEST DUP6 DUP2 LT ISZERO PUSH2 0x21E0 JUMPI DUP2 CALLDATALOAD PUSH8 0xFFFFFFFFFFFFFFFF DUP2 GT ISZERO PUSH2 0x21B8 JUMPI PUSH2 0x21B7 PUSH2 0x3247 JUMP JUMPDEST JUMPDEST DUP1 DUP7 ADD PUSH2 0x21C5 DUP10 DUP3 PUSH2 0x22DA JUMP JUMPDEST DUP6 MSTORE PUSH1 0x20 DUP6 ADD SWAP5 POP PUSH1 0x20 DUP5 ADD SWAP4 POP POP POP PUSH1 0x1 DUP2 ADD SWAP1 POP PUSH2 0x2195 JUMP JUMPDEST POP POP POP SWAP4 SWAP3 POP POP POP JUMP JUMPDEST PUSH1 0x0 PUSH2 0x21FD PUSH2 0x21F8 DUP5 PUSH2 0x2CFC JUMP JUMPDEST PUSH2 0x2C5F JUMP JUMPDEST SWAP1 POP DUP3 DUP2 MSTORE PUSH1 0x20 DUP2 ADD DUP5 DUP5 DUP5 ADD GT ISZERO PUSH2 0x2219 JUMPI PUSH2 0x2218 PUSH2 0x3251 JUMP JUMPDEST JUMPDEST PUSH2 0x2224 DUP5 DUP3 DUP6 PUSH2 0x2FF6 JUMP JUMPDEST POP SWAP4 SWAP3 POP POP POP JUMP JUMPDEST PUSH1 0x0 DUP2 CALLDATALOAD SWAP1 POP PUSH2 0x223B DUP2 PUSH2 0x35F6 JUMP JUMPDEST SWAP3 SWAP2 POP POP JUMP JUMPDEST PUSH1 0x0 DUP3 PUSH1 0x1F DUP4 ADD SLT PUSH2 0x2256 JUMPI PUSH2 0x2255 PUSH2 0x3247 JUMP JUMPDEST JUMPDEST PUSH1 0x8 PUSH2 0x2263 DUP5 DUP3 DUP6 PUSH2 0x208E JUMP JUMPDEST SWAP2 POP POP SWAP3 SWAP2 POP POP JUMP JUMPDEST PUSH1 0x0 DUP3 PUSH1 0x1F DUP4 ADD SLT PUSH2 0x2281 JUMPI PUSH2 0x2280 PUSH2 0x3247 JUMP JUMPDEST JUMPDEST DUP2 CALLDATALOAD PUSH2 0x2291 DUP5 DUP3 PUSH1 0x20 DUP7 ADD PUSH2 0x20F5 JUMP JUMPDEST SWAP2 POP POP SWAP3 SWAP2 POP POP JUMP JUMPDEST PUSH1 0x0 DUP3 PUSH1 0x1F DUP4 ADD SLT PUSH2 0x22AF JUMPI PUSH2 0x22AE PUSH2 0x3247 JUMP JUMPDEST JUMPDEST PUSH1 0x8 PUSH2 0x22BC DUP5 DUP3 DUP6 PUSH2 0x2165 JUMP JUMPDEST SWAP2 POP POP SWAP3 SWAP2 POP POP JUMP JUMPDEST PUSH1 0x0 DUP2 CALLDATALOAD SWAP1 POP PUSH2 0x22D4 DUP2 PUSH2 0x360D JUMP JUMPDEST SWAP3 SWAP2 POP POP JUMP JUMPDEST PUSH1 0x0 DUP3 PUSH1 0x1F DUP4 ADD SLT PUSH2 0x22EF JUMPI PUSH2 0x22EE PUSH2 0x3247 JUMP JUMPDEST JUMPDEST DUP2 CALLDATALOAD PUSH2 0x22FF DUP5 DUP3 PUSH1 0x20 DUP7 ADD PUSH2 0x21EA JUMP JUMPDEST SWAP2 POP POP SWAP3 SWAP2 POP POP JUMP JUMPDEST PUSH1 0x0 DUP2 CALLDATALOAD SWAP1 POP PUSH2 0x2317 DUP2 PUSH2 0x3624 JUMP JUMPDEST SWAP3 SWAP2 POP POP JUMP JUMPDEST PUSH1 0x0 PUSH1 0x20 DUP3 DUP5 SUB SLT ISZERO PUSH2 0x2333 JUMPI PUSH2 0x2332 PUSH2 0x325B JUMP JUMPDEST JUMPDEST PUSH1 0x0 PUSH2 0x2341 DUP5 DUP3 DUP6 ADD PUSH2 0x222C JUMP JUMPDEST SWAP2 POP POP SWAP3 SWAP2 POP POP JUMP JUMPDEST PUSH1 0x0 DUP1 PUSH1 0x0 DUP1 PUSH1 0x0 PUSH1 0xA0 DUP7 DUP9 SUB SLT ISZERO PUSH2 0x2366 JUMPI PUSH2 0x2365 PUSH2 0x325B JUMP JUMPDEST JUMPDEST PUSH1 0x0 PUSH2 0x2374 DUP9 DUP3 DUP10 ADD PUSH2 0x222C JUMP JUMPDEST SWAP6 POP POP PUSH1 0x20 PUSH2 0x2385 DUP9 DUP3 DUP10 ADD PUSH2 0x2308 JUMP JUMPDEST SWAP5 POP POP PUSH1 0x40 PUSH2 0x2396 DUP9 DUP3 DUP10 ADD PUSH2 0x2308 JUMP JUMPDEST SWAP4 POP POP PUSH1 0x60 PUSH2 0x23A7 DUP9 DUP3 DUP10 ADD PUSH2 0x2308 JUMP JUMPDEST SWAP3 POP POP PUSH1 0x80 PUSH2 0x23B8 DUP9 DUP3 DUP10 ADD PUSH2 0x2308 JUMP JUMPDEST SWAP2 POP POP SWAP3 SWAP6 POP SWAP3 SWAP6 SWAP1 SWAP4 POP JUMP JUMPDEST PUSH1 0x0 PUSH1 0x20 DUP3 DUP5 SUB SLT ISZERO PUSH2 0x23DB JUMPI PUSH2 0x23DA PUSH2 0x325B JUMP JUMPDEST JUMPDEST PUSH1 0x0 DUP3 ADD CALLDATALOAD PUSH8 0xFFFFFFFFFFFFFFFF DUP2 GT ISZERO PUSH2 0x23F9 JUMPI PUSH2 0x23F8 PUSH2 0x3256 JUMP JUMPDEST JUMPDEST PUSH2 0x2405 DUP5 DUP3 DUP6 ADD PUSH2 0x226C JUMP JUMPDEST SWAP2 POP POP SWAP3 SWAP2 POP POP JUMP JUMPDEST PUSH1 0x0 DUP1 PUSH1 0x0 PUSH2 0x140 DUP5 DUP7 SUB SLT ISZERO PUSH2 0x2428 JUMPI PUSH2 0x2427 PUSH2 0x325B JUMP JUMPDEST JUMPDEST PUSH1 0x0 DUP5 ADD CALLDATALOAD PUSH8 0xFFFFFFFFFFFFFFFF DUP2 GT ISZERO PUSH2 0x2446 JUMPI PUSH2 0x2445 PUSH2 0x3256 JUMP JUMPDEST JUMPDEST PUSH2 0x2452 DUP7 DUP3 DUP8 ADD PUSH2 0x229A JUMP JUMPDEST SWAP4 POP POP PUSH1 0x20 PUSH2 0x2463 DUP7 DUP3 DUP8 ADD PUSH2 0x2241 JUMP JUMPDEST SWAP3 POP POP PUSH2 0x120 DUP5 ADD CALLDATALOAD PUSH8 0xFFFFFFFFFFFFFFFF DUP2 GT ISZERO PUSH2 0x2485 JUMPI PUSH2 0x2484 PUSH2 0x3256 JUMP JUMPDEST JUMPDEST PUSH2 0x2491 DUP7 DUP3 DUP8 ADD PUSH2 0x229A JUMP JUMPDEST SWAP2 POP POP SWAP3 POP SWAP3 POP SWAP3 JUMP JUMPDEST PUSH1 0x0 PUSH1 0x20 DUP3 DUP5 SUB SLT ISZERO PUSH2 0x24B1 JUMPI PUSH2 0x24B0 PUSH2 0x325B JUMP JUMPDEST JUMPDEST PUSH1 0x0 PUSH2 0x24BF DUP5 DUP3 DUP6 ADD PUSH2 0x2308 JUMP JUMPDEST SWAP2 POP POP SWAP3 SWAP2 POP POP JUMP JUMPDEST PUSH1 0x0 PUSH2 0x24D4 DUP4 DUP4 PUSH2 0x25FC JUMP JUMPDEST PUSH1 0x20 DUP4 ADD SWAP1 POP SWAP3 SWAP2 POP POP JUMP JUMPDEST PUSH1 0x0 PUSH2 0x24EC DUP4 DUP4 PUSH2 0x261A JUMP JUMPDEST SWAP1 POP SWAP3 SWAP2 POP POP JUMP JUMPDEST PUSH2 0x24FD DUP2 PUSH2 0x2F7F JUMP JUMPDEST DUP3 MSTORE POP POP JUMP JUMPDEST PUSH2 0x250C DUP2 PUSH2 0x2F6D JUMP JUMPDEST DUP3 MSTORE POP POP JUMP JUMPDEST PUSH2 0x251B DUP2 PUSH2 0x2D41 JUMP JUMPDEST PUSH2 0x2525 DUP2 DUP5 PUSH2 0x2D7C JUMP JUMPDEST SWAP3 POP PUSH2 0x2530 DUP3 PUSH2 0x2D2D JUMP JUMPDEST DUP1 PUSH1 0x0 JUMPDEST DUP4 DUP2 LT ISZERO PUSH2 0x2561 JUMPI DUP2 MLOAD PUSH2 0x2548 DUP8 DUP3 PUSH2 0x24C8 JUMP JUMPDEST SWAP7 POP PUSH2 0x2553 DUP4 PUSH2 0x2D62 JUMP JUMPDEST SWAP3 POP POP PUSH1 0x1 DUP2 ADD SWAP1 POP PUSH2 0x2534 JUMP JUMPDEST POP POP POP POP POP POP JUMP JUMPDEST PUSH1 0x0 PUSH2 0x2574 DUP3 PUSH2 0x2D4C JUMP JUMPDEST PUSH2 0x257E DUP2 DUP6 PUSH2 0x2D87 JUMP JUMPDEST SWAP4 POP DUP4 PUSH1 0x20 DUP3 MUL DUP6 ADD PUSH2 0x2590 DUP6 PUSH2 0x2D37 JUMP JUMPDEST DUP1 PUSH1 0x0 JUMPDEST DUP6 DUP2 LT ISZERO PUSH2 0x25CC JUMPI DUP5 DUP5 SUB DUP10 MSTORE DUP2 MLOAD PUSH2 0x25AD DUP6 DUP3 PUSH2 0x24E0 JUMP JUMPDEST SWAP5 POP PUSH2 0x25B8 DUP4 PUSH2 0x2D6F JUMP JUMPDEST SWAP3 POP PUSH1 0x20 DUP11 ADD SWAP10 POP POP PUSH1 0x1 DUP2 ADD SWAP1 POP PUSH2 0x2594 JUMP JUMPDEST POP DUP3 SWAP8 POP DUP8 SWAP6 POP POP POP POP POP POP SWAP3 SWAP2 POP POP JUMP JUMPDEST PUSH2 0x25E7 DUP2 PUSH2 0x2F91 JUMP JUMPDEST DUP3 MSTORE POP POP JUMP JUMPDEST PUSH2 0x25F6 DUP2 PUSH2 0x2FE4 JUMP JUMPDEST DUP3 MSTORE POP POP JUMP JUMPDEST PUSH2 0x2605 DUP2 PUSH2 0x2FB0 JUMP JUMPDEST DUP3 MSTORE POP POP JUMP JUMPDEST PUSH2 0x2614 DUP2 PUSH2 0x2FB0 JUMP JUMPDEST DUP3 MSTORE POP POP JUMP JUMPDEST PUSH1 0x0 PUSH2 0x2625 DUP3 PUSH2 0x2D57 JUMP JUMPDEST PUSH2 0x262F DUP2 DUP6 PUSH2 0x2D92 JUMP JUMPDEST SWAP4 POP PUSH2 0x263F DUP2 DUP6 PUSH1 0x20 DUP7 ADD PUSH2 0x3005 JUMP JUMPDEST PUSH2 0x2648 DUP2 PUSH2 0x3260 JUMP JUMPDEST DUP5 ADD SWAP2 POP POP SWAP3 SWAP2 POP POP JUMP JUMPDEST PUSH1 0x0 PUSH2 0x265E DUP3 PUSH2 0x2D57 JUMP JUMPDEST PUSH2 0x2668 DUP2 DUP6 PUSH2 0x2DA3 JUMP JUMPDEST SWAP4 POP PUSH2 0x2678 DUP2 DUP6 PUSH1 0x20 DUP7 ADD PUSH2 0x3005 JUMP JUMPDEST PUSH2 0x2681 DUP2 PUSH2 0x3260 JUMP JUMPDEST DUP5 ADD SWAP2 POP POP SWAP3 SWAP2 POP POP JUMP JUMPDEST PUSH1 0x0 PUSH2 0x2697 DUP3 PUSH2 0x2D57 JUMP JUMPDEST PUSH2 0x26A1 DUP2 DUP6 PUSH2 0x2DB4 JUMP JUMPDEST SWAP4 POP PUSH2 0x26B1 DUP2 DUP6 PUSH1 0x20 DUP7 ADD PUSH2 0x3005 JUMP JUMPDEST DUP1 DUP5 ADD SWAP2 POP POP SWAP3 SWAP2 POP POP JUMP JUMPDEST PUSH1 0x0 PUSH2 0x26CA PUSH1 0x2 DUP4 PUSH2 0x2DB4 JUMP JUMPDEST SWAP2 POP PUSH2 0x26D5 DUP3 PUSH2 0x3271 JUMP JUMPDEST PUSH1 0x2 DUP3 ADD SWAP1 POP SWAP2 SWAP1 POP JUMP JUMPDEST PUSH1 0x0 PUSH2 0x26ED PUSH1 0x43 DUP4 PUSH2 0x2DA3 JUMP JUMPDEST SWAP2 POP PUSH2 0x26F8 DUP3 PUSH2 0x329A JUMP JUMPDEST PUSH1 0x60 DUP3 ADD SWAP1 POP SWAP2 SWAP1 POP JUMP JUMPDEST PUSH1 0x0 PUSH2 0x2710 PUSH1 0x36 DUP4 PUSH2 0x2DA3 JUMP JUMPDEST SWAP2 POP PUSH2 0x271B DUP3 PUSH2 0x330F JUMP JUMPDEST PUSH1 0x40 DUP3 ADD SWAP1 POP SWAP2 SWAP1 POP JUMP JUMPDEST PUSH1 0x0 PUSH2 0x2733 PUSH1 0x2F DUP4 PUSH2 0x2DA3 JUMP JUMPDEST SWAP2 POP PUSH2 0x273E DUP3 PUSH2 0x335E JUMP JUMPDEST PUSH1 0x40 DUP3 ADD SWAP1 POP SWAP2 SWAP1 POP JUMP JUMPDEST PUSH1 0x0 PUSH2 0x2756 PUSH1 0x12 DUP4 PUSH2 0x2DA3 JUMP JUMPDEST SWAP2 POP PUSH2 0x2761 DUP3 PUSH2 0x33AD JUMP JUMPDEST PUSH1 0x20 DUP3 ADD SWAP1 POP SWAP2 SWAP1 POP JUMP JUMPDEST PUSH1 0x0 PUSH2 0x2779 PUSH1 0x10 DUP4 PUSH2 0x2DA3 JUMP JUMPDEST SWAP2 POP PUSH2 0x2784 DUP3 PUSH2 0x33D6 JUMP JUMPDEST PUSH1 0x20 DUP3 ADD SWAP1 POP SWAP2 SWAP1 POP JUMP JUMPDEST PUSH1 0x0 PUSH2 0x279C PUSH1 0x22 DUP4 PUSH2 0x2DA3 JUMP JUMPDEST SWAP2 POP PUSH2 0x27A7 DUP3 PUSH2 0x33FF JUMP JUMPDEST PUSH1 0x40 DUP3 ADD SWAP1 POP SWAP2 SWAP1 POP JUMP JUMPDEST PUSH1 0x0 PUSH2 0x27BF PUSH1 0x2 DUP4 PUSH2 0x2DB4 JUMP JUMPDEST SWAP2 POP PUSH2 0x27CA DUP3 PUSH2 0x344E JUMP JUMPDEST PUSH1 0x2 DUP3 ADD SWAP1 POP SWAP2 SWAP1 POP JUMP JUMPDEST PUSH1 0x0 PUSH2 0x27E2 PUSH1 0x26 DUP4 PUSH2 0x2DA3 JUMP JUMPDEST SWAP2 POP PUSH2 0x27ED DUP3 PUSH2 0x3477 JUMP JUMPDEST PUSH1 0x40 DUP3 ADD SWAP1 POP SWAP2 SWAP1 POP JUMP JUMPDEST PUSH1 0x0 PUSH2 0x2805 PUSH1 0x1 DUP4 PUSH2 0x2DB4 JUMP JUMPDEST SWAP2 POP PUSH2 0x2810 DUP3 PUSH2 0x34C6 JUMP JUMPDEST PUSH1 0x1 DUP3 ADD SWAP1 POP SWAP2 SWAP1 POP JUMP JUMPDEST PUSH1 0x0 PUSH2 0x2828 PUSH1 0x2 DUP4 PUSH2 0x2DB4 JUMP JUMPDEST SWAP2 POP PUSH2 0x2833 DUP3 PUSH2 0x34EF JUMP JUMPDEST PUSH1 0x2 DUP3 ADD SWAP1 POP SWAP2 SWAP1 POP JUMP JUMPDEST PUSH1 0x0 PUSH2 0x284B PUSH1 0x2 DUP4 PUSH2 0x2DB4 JUMP JUMPDEST SWAP2 POP PUSH2 0x2856 DUP3 PUSH2 0x3518 JUMP JUMPDEST PUSH1 0x2 DUP3 ADD SWAP1 POP SWAP2 SWAP1 POP JUMP JUMPDEST PUSH1 0x0 PUSH2 0x286E PUSH1 0x1 DUP4 PUSH2 0x2DB4 JUMP JUMPDEST SWAP2 POP PUSH2 0x2879 DUP3 PUSH2 0x3541 JUMP JUMPDEST PUSH1 0x1 DUP3 ADD SWAP1 POP SWAP2 SWAP1 POP JUMP JUMPDEST PUSH1 0x0 PUSH2 0x2891 PUSH1 0x1D DUP4 PUSH2 0x2DA3 JUMP JUMPDEST SWAP2 POP PUSH2 0x289C DUP3 PUSH2 0x356A JUMP JUMPDEST PUSH1 0x20 DUP3 ADD SWAP1 POP SWAP2 SWAP1 POP JUMP JUMPDEST PUSH1 0x0 PUSH2 0x28B4 PUSH1 0x25 DUP4 PUSH2 0x2DA3 JUMP JUMPDEST SWAP2 POP PUSH2 0x28BF DUP3 PUSH2 0x3593 JUMP JUMPDEST PUSH1 0x40 DUP3 ADD SWAP1 POP SWAP2 SWAP1 POP JUMP JUMPDEST PUSH2 0x28D3 DUP2 PUSH2 0x2FDA JUMP JUMPDEST DUP3 MSTORE POP POP JUMP JUMPDEST PUSH1 0x0 PUSH2 0x28E5 DUP3 DUP5 PUSH2 0x268C JUMP JUMPDEST SWAP2 POP DUP2 SWAP1 POP SWAP3 SWAP2 POP POP JUMP JUMPDEST PUSH1 0x0 PUSH2 0x28FB DUP3 PUSH2 0x26BD JUMP JUMPDEST SWAP2 POP DUP2 SWAP1 POP SWAP2 SWAP1 POP JUMP JUMPDEST PUSH1 0x0 PUSH2 0x2910 DUP3 PUSH2 0x27B2 JUMP JUMPDEST SWAP2 POP DUP2 SWAP1 POP SWAP2 SWAP1 POP JUMP JUMPDEST PUSH1 0x0 PUSH2 0x2925 DUP3 PUSH2 0x27F8 JUMP JUMPDEST SWAP2 POP DUP2 SWAP1 POP SWAP2 SWAP1 POP JUMP JUMPDEST PUSH1 0x0 PUSH2 0x293A DUP3 PUSH2 0x281B JUMP JUMPDEST SWAP2 POP DUP2 SWAP1 POP SWAP2 SWAP1 POP JUMP JUMPDEST PUSH1 0x0 PUSH2 0x294F DUP3 PUSH2 0x283E JUMP JUMPDEST SWAP2 POP DUP2 SWAP1 POP SWAP2 SWAP1 POP JUMP JUMPDEST PUSH1 0x0 PUSH2 0x2964 DUP3 PUSH2 0x2861 JUMP JUMPDEST SWAP2 POP DUP2 SWAP1 POP SWAP2 SWAP1 POP JUMP JUMPDEST PUSH1 0x0 PUSH1 0x20 DUP3 ADD SWAP1 POP PUSH2 0x2983 PUSH1 0x0 DUP4 ADD DUP5 PUSH2 0x2503 JUMP JUMPDEST SWAP3 SWAP2 POP POP JUMP JUMPDEST PUSH1 0x0 PUSH1 0x20 DUP3 ADD SWAP1 POP PUSH2 0x299E PUSH1 0x0 DUP4 ADD DUP5 PUSH2 0x24F4 JUMP JUMPDEST SWAP3 SWAP2 POP POP JUMP JUMPDEST PUSH1 0x0 PUSH2 0x240 DUP3 ADD SWAP1 POP PUSH2 0x29BA PUSH1 0x0 DUP4 ADD DUP15 PUSH2 0x2503 JUMP JUMPDEST PUSH2 0x29C7 PUSH1 0x20 DUP4 ADD DUP14 PUSH2 0x2503 JUMP JUMPDEST PUSH2 0x29D4 PUSH1 0x40 DUP4 ADD DUP13 PUSH2 0x28CA JUMP JUMPDEST PUSH2 0x29E1 PUSH1 0x60 DUP4 ADD DUP12 PUSH2 0x28CA JUMP JUMPDEST PUSH2 0x29EE PUSH1 0x80 DUP4 ADD DUP11 PUSH2 0x28CA JUMP JUMPDEST PUSH2 0x29FB PUSH1 0xA0 DUP4 ADD DUP10 PUSH2 0x28CA JUMP JUMPDEST PUSH2 0x2A08 PUSH1 0xC0 DUP4 ADD DUP9 PUSH2 0x28CA JUMP JUMPDEST PUSH2 0x2A15 PUSH1 0xE0 DUP4 ADD DUP8 PUSH2 0x28CA JUMP JUMPDEST DUP2 DUP2 SUB PUSH2 0x100 DUP4 ADD MSTORE PUSH2 0x2A28 DUP2 DUP7 PUSH2 0x2569 JUMP JUMPDEST SWAP1 POP PUSH2 0x2A38 PUSH2 0x120 DUP4 ADD DUP6 PUSH2 0x2512 JUMP JUMPDEST DUP2 DUP2 SUB PUSH2 0x220 DUP4 ADD MSTORE PUSH2 0x2A4B DUP2 DUP5 PUSH2 0x2569 JUMP JUMPDEST SWAP1 POP SWAP13 SWAP12 POP POP POP POP POP POP POP POP POP POP POP POP JUMP JUMPDEST PUSH1 0x0 PUSH1 0x20 DUP3 ADD SWAP1 POP PUSH2 0x2A72 PUSH1 0x0 DUP4 ADD DUP5 PUSH2 0x25DE JUMP JUMPDEST SWAP3 SWAP2 POP POP JUMP JUMPDEST PUSH1 0x0 PUSH1 0x40 DUP3 ADD SWAP1 POP PUSH2 0x2A8D PUSH1 0x0 DUP4 ADD DUP5 PUSH2 0x25DE JUMP JUMPDEST DUP2 DUP2 SUB PUSH1 0x20 DUP4 ADD MSTORE PUSH2 0x2A9E DUP2 PUSH2 0x2749 JUMP JUMPDEST SWAP1 POP SWAP3 SWAP2 POP POP JUMP JUMPDEST PUSH1 0x0 PUSH1 0x40 DUP3 ADD SWAP1 POP PUSH2 0x2ABB PUSH1 0x0 DUP4 ADD DUP5 PUSH2 0x25DE JUMP JUMPDEST DUP2 DUP2 SUB PUSH1 0x20 DUP4 ADD MSTORE PUSH2 0x2ACC DUP2 PUSH2 0x276C JUMP JUMPDEST SWAP1 POP SWAP3 SWAP2 POP POP JUMP JUMPDEST PUSH1 0x0 PUSH1 0x20 DUP3 ADD SWAP1 POP PUSH2 0x2AE9 PUSH1 0x0 DUP4 ADD DUP5 PUSH2 0x25ED JUMP JUMPDEST SWAP3 SWAP2 POP POP JUMP JUMPDEST PUSH1 0x0 PUSH1 0x20 DUP3 ADD SWAP1 POP PUSH2 0x2B04 PUSH1 0x0 DUP4 ADD DUP5 PUSH2 0x260B JUMP JUMPDEST SWAP3 SWAP2 POP POP JUMP JUMPDEST PUSH1 0x0 PUSH1 0x20 DUP3 ADD SWAP1 POP DUP2 DUP2 SUB PUSH1 0x0 DUP4 ADD MSTORE PUSH2 0x2B24 DUP2 DUP5 PUSH2 0x2653 JUMP JUMPDEST SWAP1 POP SWAP3 SWAP2 POP POP JUMP JUMPDEST PUSH1 0x0 PUSH1 0x40 DUP3 ADD SWAP1 POP DUP2 DUP2 SUB PUSH1 0x0 DUP4 ADD MSTORE PUSH2 0x2B45 DUP2 PUSH2 0x26E0 JUMP JUMPDEST SWAP1 POP PUSH2 0x2B54 PUSH1 0x20 DUP4 ADD DUP5 PUSH2 0x28CA JUMP JUMPDEST SWAP3 SWAP2 POP POP JUMP JUMPDEST PUSH1 0x0 PUSH1 0x20 DUP3 ADD SWAP1 POP DUP2 DUP2 SUB PUSH1 0x0 DUP4 ADD MSTORE PUSH2 0x2B73 DUP2 PUSH2 0x2703 JUMP JUMPDEST SWAP1 POP SWAP2 SWAP1 POP JUMP JUMPDEST PUSH1 0x0 PUSH1 0x40 DUP3 ADD SWAP1 POP DUP2 DUP2 SUB PUSH1 0x0 DUP4 ADD MSTORE PUSH2 0x2B93 DUP2 PUSH2 0x2726 JUMP JUMPDEST SWAP1 POP PUSH2 0x2BA2 PUSH1 0x20 DUP4 ADD DUP5 PUSH2 0x28CA JUMP JUMPDEST SWAP3 SWAP2 POP POP JUMP JUMPDEST PUSH1 0x0 PUSH1 0x40 DUP3 ADD SWAP1 POP DUP2 DUP2 SUB PUSH1 0x0 DUP4 ADD MSTORE PUSH2 0x2BC1 DUP2 PUSH2 0x278F JUMP JUMPDEST SWAP1 POP PUSH2 0x2BD0 PUSH1 0x20 DUP4 ADD DUP5 PUSH2 0x28CA JUMP JUMPDEST SWAP3 SWAP2 POP POP JUMP JUMPDEST PUSH1 0x0 PUSH1 0x40 DUP3 ADD SWAP1 POP DUP2 DUP2 SUB PUSH1 0x0 DUP4 ADD MSTORE PUSH2 0x2BEF DUP2 PUSH2 0x27D5 JUMP JUMPDEST SWAP1 POP PUSH2 0x2BFE PUSH1 0x20 DUP4 ADD DUP5 PUSH2 0x28CA JUMP JUMPDEST SWAP3 SWAP2 POP POP JUMP JUMPDEST PUSH1 0x0 PUSH1 0x20 DUP3 ADD SWAP1 POP DUP2 DUP2 SUB PUSH1 0x0 DUP4 ADD MSTORE PUSH2 0x2C1D DUP2 PUSH2 0x2884 JUMP JUMPDEST SWAP1 POP SWAP2 SWAP1 POP JUMP JUMPDEST PUSH1 0x0 PUSH1 0x20 DUP3 ADD SWAP1 POP DUP2 DUP2 SUB PUSH1 0x0 DUP4 ADD MSTORE PUSH2 0x2C3D DUP2 PUSH2 0x28A7 JUMP JUMPDEST SWAP1 POP SWAP2 SWAP1 POP JUMP JUMPDEST PUSH1 0x0 PUSH1 0x20 DUP3 ADD SWAP1 POP PUSH2 0x2C59 PUSH1 0x0 DUP4 ADD DUP5 PUSH2 0x28CA JUMP JUMPDEST SWAP3 SWAP2 POP POP JUMP JUMPDEST PUSH1 0x0 PUSH2 0x2C69 PUSH2 0x2C7A JUMP JUMPDEST SWAP1 POP PUSH2 0x2C75 DUP3 DUP3 PUSH2 0x306A JUMP JUMPDEST SWAP2 SWAP1 POP JUMP JUMPDEST PUSH1 0x0 PUSH1 0x40 MLOAD SWAP1 POP SWAP1 JUMP JUMPDEST PUSH1 0x0 PUSH8 0xFFFFFFFFFFFFFFFF DUP3 GT ISZERO PUSH2 0x2C9F JUMPI PUSH2 0x2C9E PUSH2 0x3218 JUMP JUMPDEST JUMPDEST PUSH1 0x20 DUP3 MUL SWAP1 POP SWAP2 SWAP1 POP JUMP JUMPDEST PUSH1 0x0 PUSH8 0xFFFFFFFFFFFFFFFF DUP3 GT ISZERO PUSH2 0x2CC5 JUMPI PUSH2 0x2CC4 PUSH2 0x3218 JUMP JUMPDEST JUMPDEST PUSH1 0x20 DUP3 MUL SWAP1 POP PUSH1 0x20 DUP2 ADD SWAP1 POP SWAP2 SWAP1 POP JUMP JUMPDEST PUSH1 0x0 PUSH8 0xFFFFFFFFFFFFFFFF DUP3 GT ISZERO PUSH2 0x2CF1 JUMPI PUSH2 0x2CF0 PUSH2 0x3218 JUMP JUMPDEST JUMPDEST PUSH1 0x20 DUP3 MUL SWAP1 POP SWAP2 SWAP1 POP JUMP JUMPDEST PUSH1 0x0 PUSH8 0xFFFFFFFFFFFFFFFF DUP3 GT ISZERO PUSH2 0x2D17 JUMPI PUSH2 0x2D16 PUSH2 0x3218 JUMP JUMPDEST JUMPDEST PUSH2 0x2D20 DUP3 PUSH2 0x3260 JUMP JUMPDEST SWAP1 POP PUSH1 0x20 DUP2 ADD SWAP1 POP SWAP2 SWAP1 POP JUMP JUMPDEST PUSH1 0x0 DUP2 SWAP1 POP SWAP2 SWAP1 POP JUMP JUMPDEST PUSH1 0x0 DUP2 SWAP1 POP SWAP2 SWAP1 POP JUMP JUMPDEST PUSH1 0x0 PUSH1 0x8 SWAP1 POP SWAP2 SWAP1 POP JUMP JUMPDEST PUSH1 0x0 PUSH1 0x8 SWAP1 POP SWAP2 SWAP1 POP JUMP JUMPDEST PUSH1 0x0 DUP2 MLOAD SWAP1 POP SWAP2 SWAP1 POP JUMP JUMPDEST PUSH1 0x0 PUSH1 0x20 DUP3 ADD SWAP1 POP SWAP2 SWAP1 POP JUMP JUMPDEST PUSH1 0x0 PUSH1 0x20 DUP3 ADD SWAP1 POP SWAP2 SWAP1 POP JUMP JUMPDEST PUSH1 0x0 DUP2 SWAP1 POP SWAP3 SWAP2 POP POP JUMP JUMPDEST PUSH1 0x0 DUP2 SWAP1 POP SWAP3 SWAP2 POP POP JUMP JUMPDEST PUSH1 0x0 DUP3 DUP3 MSTORE PUSH1 0x20 DUP3 ADD SWAP1 POP SWAP3 SWAP2 POP POP JUMP JUMPDEST PUSH1 0x0 DUP3 DUP3 MSTORE PUSH1 0x20 DUP3 ADD SWAP1 POP SWAP3 SWAP2 POP POP JUMP JUMPDEST PUSH1 0x0 DUP2 SWAP1 POP SWAP3 SWAP2 POP POP JUMP JUMPDEST PUSH1 0x0 PUSH2 0x2DCA DUP3 PUSH2 0x2FB0 JUMP JUMPDEST SWAP2 POP PUSH2 0x2DD5 DUP4 PUSH2 0x2FB0 JUMP JUMPDEST SWAP3 POP DUP2 PUSH32 0x7FFFFFFFFFFFFFFFFFFFFFFFFFFFFFFFFFFFFFFFFFFFFFFFFFFFFFFFFFFFFFFF SUB DUP4 SGT PUSH1 0x0 DUP4 SLT ISZERO AND ISZERO PUSH2 0x2E10 JUMPI PUSH2 0x2E0F PUSH2 0x312D JUMP JUMPDEST JUMPDEST DUP2 PUSH32 0x8000000000000000000000000000000000000000000000000000000000000000 SUB DUP4 SLT PUSH1 0x0 DUP4 SLT AND ISZERO PUSH2 0x2E48 JUMPI PUSH2 0x2E47 PUSH2 0x312D JUMP JUMPDEST JUMPDEST DUP3 DUP3 ADD SWAP1 POP SWAP3 SWAP2 POP POP JUMP JUMPDEST PUSH1 0x0 PUSH2 0x2E5E DUP3 PUSH2 0x2FDA JUMP JUMPDEST SWAP2 POP PUSH2 0x2E69 DUP4 PUSH2 0x2FDA JUMP JUMPDEST SWAP3 POP DUP3 PUSH32 0xFFFFFFFFFFFFFFFFFFFFFFFFFFFFFFFFFFFFFFFFFFFFFFFFFFFFFFFFFFFFFFFF SUB DUP3 GT ISZERO PUSH2 0x2E9E JUMPI PUSH2 0x2E9D PUSH2 0x312D JUMP JUMPDEST JUMPDEST DUP3 DUP3 ADD SWAP1 POP SWAP3 SWAP2 POP POP JUMP JUMPDEST PUSH1 0x0 PUSH2 0x2EB4 DUP3 PUSH2 0x2FB0 JUMP JUMPDEST SWAP2 POP PUSH2 0x2EBF DUP4 PUSH2 0x2FB0 JUMP JUMPDEST SWAP3 POP DUP3 PUSH2 0x2ECF JUMPI PUSH2 0x2ECE PUSH2 0x315C JUMP JUMPDEST JUMPDEST PUSH1 0x1 PUSH1 0x0 SUB DUP4 EQ PUSH32 0x8000000000000000000000000000000000000000000000000000000000000000 DUP4 EQ AND ISZERO PUSH2 0x2F08 JUMPI PUSH2 0x2F07 PUSH2 0x312D JUMP JUMPDEST JUMPDEST DUP3 DUP3 SDIV SWAP1 POP SWAP3 SWAP2 POP POP JUMP JUMPDEST PUSH1 0x0 PUSH2 0x2F1E DUP3 PUSH2 0x2FDA JUMP JUMPDEST SWAP2 POP PUSH2 0x2F29 DUP4 PUSH2 0x2FDA JUMP JUMPDEST SWAP3 POP DUP2 PUSH32 0xFFFFFFFFFFFFFFFFFFFFFFFFFFFFFFFFFFFFFFFFFFFFFFFFFFFFFFFFFFFFFFFF DIV DUP4 GT DUP3 ISZERO ISZERO AND ISZERO PUSH2 0x2F62 JUMPI PUSH2 0x2F61 PUSH2 0x312D JUMP JUMPDEST JUMPDEST DUP3 DUP3 MUL SWAP1 POP SWAP3 SWAP2 POP POP JUMP JUMPDEST PUSH1 0x0 PUSH2 0x2F78 DUP3 PUSH2 0x2FBA JUMP JUMPDEST SWAP1 POP SWAP2 SWAP1 POP JUMP JUMPDEST PUSH1 0x0 PUSH2 0x2F8A DUP3 PUSH2 0x2FBA JUMP JUMPDEST SWAP1 POP SWAP2 SWAP1 POP JUMP JUMPDEST PUSH1 0x0 DUP2 ISZERO ISZERO SWAP1 POP SWAP2 SWAP1 POP JUMP JUMPDEST PUSH1 0x0 DUP2 SWAP1 POP PUSH2 0x2FAB DUP3 PUSH2 0x35E2 JUMP JUMPDEST SWAP2 SWAP1 POP JUMP JUMPDEST PUSH1 0x0 DUP2 SWAP1 POP SWAP2 SWAP1 POP JUMP JUMPDEST PUSH1 0x0 PUSH20 0xFFFFFFFFFFFFFFFFFFFFFFFFFFFFFFFFFFFFFFFF DUP3 AND SWAP1 POP SWAP2 SWAP1 POP JUMP JUMPDEST PUSH1 0x0 DUP2 SWAP1 POP SWAP2 SWAP1 POP JUMP JUMPDEST PUSH1 0x0 PUSH2 0x2FEF DUP3 PUSH2 0x2F9D JUMP JUMPDEST SWAP1 POP SWAP2 SWAP1 POP JUMP JUMPDEST DUP3 DUP2 DUP4 CALLDATACOPY PUSH1 0x0 DUP4 DUP4 ADD MSTORE POP POP POP JUMP JUMPDEST PUSH1 0x0 JUMPDEST DUP4 DUP2 LT ISZERO PUSH2 0x3023 JUMPI DUP1 DUP3 ADD MLOAD DUP2 DUP5 ADD MSTORE PUSH1 0x20 DUP2 ADD SWAP1 POP PUSH2 0x3008 JUMP JUMPDEST DUP4 DUP2 GT ISZERO PUSH2 0x3032 JUMPI PUSH1 0x0 DUP5 DUP5 ADD MSTORE JUMPDEST POP POP POP POP JUMP JUMPDEST PUSH1 0x0 PUSH1 0x2 DUP3 DIV SWAP1 POP PUSH1 0x1 DUP3 AND DUP1 PUSH2 0x3050 JUMPI PUSH1 0x7F DUP3 AND SWAP2 POP JUMPDEST PUSH1 0x20 DUP3 LT DUP2 EQ ISZERO PUSH2 0x3064 JUMPI PUSH2 0x3063 PUSH2 0x31BA JUMP JUMPDEST JUMPDEST POP SWAP2 SWAP1 POP JUMP JUMPDEST PUSH2 0x3073 DUP3 PUSH2 0x3260 JUMP JUMPDEST DUP2 ADD DUP2 DUP2 LT PUSH8 0xFFFFFFFFFFFFFFFF DUP3 GT OR ISZERO PUSH2 0x3092 JUMPI PUSH2 0x3091 PUSH2 0x3218 JUMP JUMPDEST JUMPDEST DUP1 PUSH1 0x40 MSTORE POP POP POP JUMP JUMPDEST PUSH1 0x0 PUSH2 0x30A6 DUP3 PUSH2 0x2FB0 JUMP JUMPDEST SWAP2 POP PUSH32 0x7FFFFFFFFFFFFFFFFFFFFFFFFFFFFFFFFFFFFFFFFFFFFFFFFFFFFFFFFFFFFFFF DUP3 EQ ISZERO PUSH2 0x30D9 JUMPI PUSH2 0x30D8 PUSH2 0x312D JUMP JUMPDEST JUMPDEST PUSH1 0x1 DUP3 ADD SWAP1 POP SWAP2 SWAP1 POP JUMP JUMPDEST PUSH1 0x0 PUSH2 0x30EF DUP3 PUSH2 0x2FDA JUMP JUMPDEST SWAP2 POP PUSH32 0xFFFFFFFFFFFFFFFFFFFFFFFFFFFFFFFFFFFFFFFFFFFFFFFFFFFFFFFFFFFFFFFF DUP3 EQ ISZERO PUSH2 0x3122 JUMPI PUSH2 0x3121 PUSH2 0x312D JUMP JUMPDEST JUMPDEST PUSH1 0x1 DUP3 ADD SWAP1 POP SWAP2 SWAP1 POP JUMP JUMPDEST PUSH32 0x4E487B7100000000000000000000000000000000000000000000000000000000 PUSH1 0x0 MSTORE PUSH1 0x11 PUSH1 0x4 MSTORE PUSH1 0x24 PUSH1 0x0 REVERT JUMPDEST PUSH32 0x4E487B7100000000000000000000000000000000000000000000000000000000 PUSH1 0x0 MSTORE PUSH1 0x12 PUSH1 0x4 MSTORE PUSH1 0x24 PUSH1 0x0 REVERT JUMPDEST PUSH32 0x4E487B7100000000000000000000000000000000000000000000000000000000 PUSH1 0x0 MSTORE PUSH1 0x21 PUSH1 0x4 MSTORE PUSH1 0x24 PUSH1 0x0 REVERT JUMPDEST PUSH32 0x4E487B7100000000000000000000000000000000000000000000000000000000 PUSH1 0x0 MSTORE PUSH1 0x22 PUSH1 0x4 MSTORE PUSH1 0x24 PUSH1 0x0 REVERT JUMPDEST PUSH32 0x4E487B7100000000000000000000000000000000000000000000000000000000 PUSH1 0x0 MSTORE PUSH1 0x32 PUSH1 0x4 MSTORE PUSH1 0x24 PUSH1 0x0 REVERT JUMPDEST PUSH32 0x4E487B7100000000000000000000000000000000000000000000000000000000 PUSH1 0x0 MSTORE PUSH1 0x41 PUSH1 0x4 MSTORE PUSH1 0x24 PUSH1 0x0 REVERT JUMPDEST PUSH1 0x0 DUP1 REVERT JUMPDEST PUSH1 0x0 DUP1 REVERT JUMPDEST PUSH1 0x0 DUP1 REVERT JUMPDEST PUSH1 0x0 DUP1 REVERT JUMPDEST PUSH1 0x0 DUP1 REVERT JUMPDEST PUSH1 0x0 PUSH1 0x1F NOT PUSH1 0x1F DUP4 ADD AND SWAP1 POP SWAP2 SWAP1 POP JUMP JUMPDEST PUSH32 0x3E3D000000000000000000000000000000000000000000000000000000000000 PUSH1 0x0 DUP3 ADD MSTORE POP JUMP JUMPDEST PUSH32 0x696E7369646520736574436F6E64732069662073746174656D656E742C206166 PUSH1 0x0 DUP3 ADD MSTORE PUSH32 0x74657220656E64496E697453746167652C2063757272656E7420737461676520 PUSH1 0x20 DUP3 ADD MSTORE PUSH32 0x69733A0000000000000000000000000000000000000000000000000000000000 PUSH1 0x40 DUP3 ADD MSTORE POP JUMP JUMPDEST PUSH32 0x43616E6E6F742063616C6C20746869732066756E6374696F6E20646972656374 PUSH1 0x0 DUP3 ADD MSTORE PUSH32 0x6C792C207573652056656E646F72466163746F72792E00000000000000000000 PUSH1 0x20 DUP3 ADD MSTORE POP JUMP JUMPDEST PUSH32 0x696E7369646520736574436F6E64732069662073746174656D656E742C206375 PUSH1 0x0 DUP3 ADD MSTORE PUSH32 0x7272656E742073746167652069733A0000000000000000000000000000000000 PUSH1 0x20 DUP3 ADD MSTORE POP JUMP JUMPDEST PUSH32 0x526566756E64696E67207061796D656E742E0000000000000000000000000000 PUSH1 0x0 DUP3 ADD MSTORE POP JUMP JUMPDEST PUSH32 0x53656E64696E67207061796D656E742E00000000000000000000000000000000 PUSH1 0x0 DUP3 ADD MSTORE POP JUMP JUMPDEST PUSH32 0x696E7369646520736574436F6E64732C2063757272656E742073746167652069 PUSH1 0x0 DUP3 ADD MSTORE PUSH32 0x733A000000000000000000000000000000000000000000000000000000000000 PUSH1 0x20 DUP3 ADD MSTORE POP JUMP JUMPDEST PUSH32 0x3D3D000000000000000000000000000000000000000000000000000000000000 PUSH1 0x0 DUP3 ADD MSTORE POP JUMP JUMPDEST PUSH32 0x696E7369646520656E64496E697453746167652C2063757272656E7420737461 PUSH1 0x0 DUP3 ADD MSTORE PUSH32 0x67652069733A0000000000000000000000000000000000000000000000000000 PUSH1 0x20 DUP3 ADD MSTORE POP JUMP JUMPDEST PUSH32 0x3C00000000000000000000000000000000000000000000000000000000000000 PUSH1 0x0 DUP3 ADD MSTORE POP JUMP JUMPDEST PUSH32 0x213D000000000000000000000000000000000000000000000000000000000000 PUSH1 0x0 DUP3 ADD MSTORE POP JUMP JUMPDEST PUSH32 0x3C3D000000000000000000000000000000000000000000000000000000000000 PUSH1 0x0 DUP3 ADD MSTORE POP JUMP JUMPDEST PUSH32 0x3E00000000000000000000000000000000000000000000000000000000000000 PUSH1 0x0 DUP3 ADD MSTORE POP JUMP JUMPDEST PUSH32 0x4E6F742077697468696E207468652062696C6C696E6720706572696F64000000 PUSH1 0x0 DUP3 ADD MSTORE POP JUMP JUMPDEST PUSH32 0x436F6E7472616374206973206E6F7420696E2074686520726571756972656420 PUSH1 0x0 DUP3 ADD MSTORE PUSH32 0x7374617465000000000000000000000000000000000000000000000000000000 PUSH1 0x20 DUP3 ADD MSTORE POP JUMP JUMPDEST PUSH1 0x5 DUP2 LT PUSH2 0x35F3 JUMPI PUSH2 0x35F2 PUSH2 0x318B JUMP JUMPDEST JUMPDEST POP JUMP JUMPDEST PUSH2 0x35FF DUP2 PUSH2 0x2F6D JUMP JUMPDEST DUP2 EQ PUSH2 0x360A JUMPI PUSH1 0x0 DUP1 REVERT JUMPDEST POP JUMP JUMPDEST PUSH2 0x3616 DUP2 PUSH2 0x2FB0 JUMP JUMPDEST DUP2 EQ PUSH2 0x3621 JUMPI PUSH1 0x0 DUP1 REVERT JUMPDEST POP JUMP JUMPDEST PUSH2 0x362D DUP2 PUSH2 0x2FDA JUMP JUMPDEST DUP2 EQ PUSH2 0x3638 JUMPI PUSH1 0x0 DUP1 REVERT JUMPDEST POP JUMP INVALID LOG2 PUSH5 0x6970667358 0x22 SLT KECCAK256 0xEB LOG2 MSIZE SGT PUSH19 0x8E540EDFFF605E85F447A8782777351DE202C5 0x2C EXTCODEHASH PUSH9 0xF3957BC17C64736F6C PUSH4 0x43000806 STOP CALLER "
    },
    "gasEstimates": {
      "creation": {
        "codeDepositCost": "2787400",
        "executionCost": "61666",
        "totalCost": "2849066"
      },
      "external": {
        "admin()": "2577",
        "amount()": "2540",
        "approve()": "53222",
        "balanceOf()": "450",
        "client()": "2583",
        "contractHash()": "2541",
        "destroy()": "32162",
        "expiryDate()": "2474",
        "getDetails()": "infinite",
        "init(address,uint256,uint256,uint256,uint256)": "infinite",
        "isSatisfied()": "infinite",
        "isSatisfiedBypass()": "infinite",
        "names(uint256)": "infinite",
        "nextBillingDate()": "2497",
        "operators(uint256)": "2820",
        "original(uint256)": "infinite",
        "paid()": "2611",
        "payee()": "2559",
        "payeeApproved()": "2566",
        "prevBillingDate()": "2497",
        "receiveServiceData(int256[])": "infinite",
        "receiveServiceDataBypass(int256[])": "infinite",
        "satisfied()": "2633",
        "setActive()": "26693",
        "setConds(string[8],int256[8],string[8])": "infinite",
        "setInactive()": "26691",
        "setPayee(address)": "24768",
        "stage()": "2627",
        "startDate()": "2476",
        "storePayment()": "infinite",
        "values(uint256)": "2798"
      },
      "internal": {
        "calcDate(uint256)": "infinite",
        "checkEqual(int256,int256,int256)": "100",
        "checkGreater(int256,int256,int256)": "260",
        "checkLess(int256,int256,int256)": "260",
        "condValid(int256,int256,int256)": "430",
        "endInitStage()": "infinite",
        "initOperators()": "infinite",
        "payVendor()": "infinite",
        "refund()": "infinite",
        "setNewDates()": "infinite"
      }
    },
    "methodIdentifiers": {
      "admin()": "f851a440",
      "amount()": "aa8c217c",
      "approve()": "12424e3f",
      "balanceOf()": "722713f7",
      "client()": "109e94cf",
      "contractHash()": "904c6094",
      "destroy()": "83197ef0",
      "expiryDate()": "516dde43",
      "getDetails()": "fbbf93a0",
      "init(address,uint256,uint256,uint256,uint256)": "9a730617",
      "isSatisfied()": "a2c14ad3",
      "isSatisfiedBypass()": "4636731c",
      "names(uint256)": "4622ab03",
      "nextBillingDate()": "43885314",
      "operators(uint256)": "e28d4906",
      "original(uint256)": "717eb03f",
      "paid()": "295b4e17",
      "payee()": "ae90b213",
      "payeeApproved()": "97c0bba1",
      "prevBillingDate()": "25419c24",
      "receiveServiceData(int256[])": "21ce5afd",
      "receiveServiceDataBypass(int256[])": "e9d94c58",
      "satisfied()": "3a40f3b2",
      "setActive()": "760a8c2a",
      "setConds(string[8],int256[8],string[8])": "fadeaa59",
      "setInactive()": "f1b9ee24",
      "setPayee(address)": "410459ad",
      "stage()": "c040e6b8",
      "startDate()": "0b97bc86",
      "storePayment()": "84ac4446",
      "values(uint256)": "5e383d21"
    }
  },
  "storageLayout": {
    "storage": [
      {
        "astId": 41,
        "contract": "Vendor.sol:Vendor",
        "label": "admin",
        "offset": 0,
        "slot": "0",
        "type": "t_address"
      },
      {
        "astId": 43,
        "contract": "Vendor.sol:Vendor",
        "label": "client",
        "offset": 0,
        "slot": "1",
        "type": "t_address_payable"
      },
      {
        "astId": 45,
        "contract": "Vendor.sol:Vendor",
        "label": "payee",
        "offset": 0,
        "slot": "2",
        "type": "t_address_payable"
      },
      {
        "astId": 47,
        "contract": "Vendor.sol:Vendor",
        "label": "payeeApproved",
        "offset": 20,
        "slot": "2",
        "type": "t_bool"
      },
      {
        "astId": 49,
        "contract": "Vendor.sol:Vendor",
        "label": "paid",
        "offset": 21,
        "slot": "2",
        "type": "t_bool"
      },
      {
        "astId": 51,
        "contract": "Vendor.sol:Vendor",
        "label": "startDate",
        "offset": 0,
        "slot": "3",
        "type": "t_uint256"
      },
      {
        "astId": 53,
        "contract": "Vendor.sol:Vendor",
        "label": "expiryDate",
        "offset": 0,
        "slot": "4",
        "type": "t_uint256"
      },
      {
        "astId": 55,
        "contract": "Vendor.sol:Vendor",
        "label": "amount",
        "offset": 0,
        "slot": "5",
        "type": "t_uint256"
      },
      {
        "astId": 57,
        "contract": "Vendor.sol:Vendor",
        "label": "prevBillingDate",
        "offset": 0,
        "slot": "6",
        "type": "t_uint256"
      },
      {
        "astId": 59,
        "contract": "Vendor.sol:Vendor",
        "label": "nextBillingDate",
        "offset": 0,
        "slot": "7",
        "type": "t_uint256"
      },
      {
        "astId": 61,
        "contract": "Vendor.sol:Vendor",
        "label": "contractHash",
        "offset": 0,
        "slot": "8",
        "type": "t_uint256"
      },
      {
        "astId": 72,
        "contract": "Vendor.sol:Vendor",
        "label": "stage",
        "offset": 0,
        "slot": "9",
        "type": "t_enum(Stages)67"
      },
      {
        "astId": 75,
        "contract": "Vendor.sol:Vendor",
        "label": "satisfied",
        "offset": 1,
        "slot": "9",
        "type": "t_bool"
      },
      {
        "astId": 79,
        "contract": "Vendor.sol:Vendor",
        "label": "names",
        "offset": 0,
        "slot": "10",
        "type": "t_array(t_string_storage)8_storage"
      },
      {
        "astId": 83,
        "contract": "Vendor.sol:Vendor",
        "label": "values",
        "offset": 0,
        "slot": "18",
        "type": "t_array(t_int256)8_storage"
      },
      {
        "astId": 87,
        "contract": "Vendor.sol:Vendor",
        "label": "operators",
        "offset": 0,
        "slot": "26",
        "type": "t_array(t_int256)8_storage"
      },
      {
        "astId": 91,
        "contract": "Vendor.sol:Vendor",
        "label": "original",
        "offset": 0,
        "slot": "34",
        "type": "t_array(t_string_storage)8_storage"
      },
      {
        "astId": 95,
        "contract": "Vendor.sol:Vendor",
        "label": "convert",
        "offset": 0,
        "slot": "42",
        "type": "t_mapping(t_string_memory_ptr,t_int256)"
      },
      {
        "astId": 98,
        "contract": "Vendor.sol:Vendor",
        "label": "conditionCount",
        "offset": 0,
        "slot": "43",
        "type": "t_uint256"
      },
      {
        "astId": 105,
        "contract": "Vendor.sol:Vendor",
        "label": "cumulative",
        "offset": 0,
        "slot": "44",
        "type": "t_mapping(t_uint256,t_int256)"
      },
      {
        "astId": 108,
        "contract": "Vendor.sol:Vendor",
        "label": "count",
        "offset": 0,
        "slot": "45",
        "type": "t_int256"
      }
    ],
    "types": {
      "t_address": {
        "encoding": "inplace",
        "label": "address",
        "numberOfBytes": "20"
      },
      "t_address_payable": {
        "encoding": "inplace",
        "label": "address payable",
        "numberOfBytes": "20"
      },
      "t_array(t_int256)8_storage": {
        "base": "t_int256",
        "encoding": "inplace",
        "label": "int256[8]",
        "numberOfBytes": "256"
      },
      "t_array(t_string_storage)8_storage": {
        "base": "t_string_storage",
        "encoding": "inplace",
        "label": "string[8]",
        "numberOfBytes": "256"
      },
      "t_bool": {
        "encoding": "inplace",
        "label": "bool",
        "numberOfBytes": "1"
      },
      "t_enum(Stages)67": {
        "encoding": "inplace",
        "label": "enum Vendor.Stages",
        "numberOfBytes": "1"
      },
      "t_int256": {
        "encoding": "inplace",
        "label": "int256",
        "numberOfBytes": "32"
      },
      "t_mapping(t_string_memory_ptr,t_int256)": {
        "encoding": "mapping",
        "key": "t_string_memory_ptr",
        "label": "mapping(string => int256)",
        "numberOfBytes": "32",
        "value": "t_int256"
      },
      "t_mapping(t_uint256,t_int256)": {
        "encoding": "mapping",
        "key": "t_uint256",
        "label": "mapping(uint256 => int256)",
        "numberOfBytes": "32",
        "value": "t_int256"
      },
      "t_string_memory_ptr": {
        "encoding": "bytes",
        "label": "string",
        "numberOfBytes": "32"
      },
      "t_string_storage": {
        "encoding": "bytes",
        "label": "string",
        "numberOfBytes": "32"
      },
      "t_uint256": {
        "encoding": "inplace",
        "label": "uint256",
        "numberOfBytes": "32"
      }
    }
  },
  "userdoc": {
    "kind": "user",
    "methods": {},
    "notice": "Contract that handles automated payment, considering if conditions are satisfied.",
    "version": 1
  }
}