{
  "abi": [
    {
      "anonymous": false,
      "inputs": [
        {
          "indexed": false,
          "internalType": "address",
          "name": "client",
          "type": "address"
        },
        {
          "indexed": false,
          "internalType": "address",
          "name": "payee",
          "type": "address"
        },
        {
          "indexed": false,
          "internalType": "uint256",
          "name": "startDate",
          "type": "uint256"
        },
        {
          "indexed": false,
          "internalType": "uint256",
          "name": "expiryDate",
          "type": "uint256"
        },
        {
          "indexed": false,
          "internalType": "uint256",
          "name": "amount",
          "type": "uint256"
        },
        {
          "indexed": false,
          "internalType": "uint256",
          "name": "prevBillingDate",
          "type": "uint256"
        },
        {
          "indexed": false,
          "internalType": "uint256",
          "name": "nextBillingDate",
          "type": "uint256"
        },
        {
          "indexed": false,
          "internalType": "uint256",
          "name": "contractHash",
          "type": "uint256"
        },
        {
          "indexed": false,
          "internalType": "string[8]",
          "name": "names",
          "type": "string[8]"
        },
        {
          "indexed": false,
          "internalType": "int256[8]",
          "name": "values",
          "type": "int256[8]"
        },
        {
          "indexed": false,
          "internalType": "int256[8]",
          "name": "operators",
          "type": "int256[8]"
        }
      ],
      "name": "Details",
      "type": "event"
    },
    {
      "anonymous": false,
      "inputs": [
        {
          "indexed": false,
          "internalType": "string",
          "name": "message",
          "type": "string"
        },
        {
          "indexed": false,
          "internalType": "uint256",
          "name": "whatever",
          "type": "uint256"
        }
      ],
      "name": "Log",
      "type": "event"
    },
    {
      "anonymous": false,
      "inputs": [
        {
          "indexed": true,
          "internalType": "address",
          "name": "sender",
          "type": "address"
        },
        {
          "indexed": false,
          "internalType": "bool",
          "name": "isSatisfied",
          "type": "bool"
        },
        {
          "indexed": false,
          "internalType": "string",
          "name": "message",
          "type": "string"
        }
      ],
      "name": "State",
      "type": "event"
    },
    {
      "inputs": [],
      "name": "admin",
      "outputs": [
        {
          "internalType": "address",
          "name": "",
          "type": "address"
        }
      ],
      "stateMutability": "view",
      "type": "function"
    },
    {
      "inputs": [],
      "name": "amount",
      "outputs": [
        {
          "internalType": "uint256",
          "name": "",
          "type": "uint256"
        }
      ],
      "stateMutability": "view",
      "type": "function"
    },
    {
      "inputs": [],
      "name": "approve",
      "outputs": [],
      "stateMutability": "nonpayable",
      "type": "function"
    },
    {
      "inputs": [],
      "name": "balanceOf",
      "outputs": [
        {
          "internalType": "uint256",
          "name": "",
          "type": "uint256"
        }
      ],
      "stateMutability": "view",
      "type": "function"
    },
    {
      "inputs": [],
      "name": "client",
      "outputs": [
        {
          "internalType": "address payable",
          "name": "",
          "type": "address"
        }
      ],
      "stateMutability": "view",
      "type": "function"
    },
    {
      "inputs": [],
      "name": "contractHash",
      "outputs": [
        {
          "internalType": "uint256",
          "name": "",
          "type": "uint256"
        }
      ],
      "stateMutability": "view",
      "type": "function"
    },
    {
      "inputs": [],
      "name": "destroy",
      "outputs": [],
      "stateMutability": "nonpayable",
      "type": "function"
    },
    {
      "inputs": [],
      "name": "endInitStage",
      "outputs": [],
      "stateMutability": "nonpayable",
      "type": "function"
    },
    {
      "inputs": [],
      "name": "expiryDate",
      "outputs": [
        {
          "internalType": "uint256",
          "name": "",
          "type": "uint256"
        }
      ],
      "stateMutability": "view",
      "type": "function"
    },
    {
      "inputs": [],
      "name": "getDetails",
      "outputs": [
        {
          "internalType": "address",
          "name": "",
          "type": "address"
        },
        {
          "internalType": "address",
          "name": "",
          "type": "address"
        },
        {
          "internalType": "uint256",
          "name": "",
          "type": "uint256"
        },
        {
          "internalType": "uint256",
          "name": "",
          "type": "uint256"
        },
        {
          "internalType": "uint256",
          "name": "",
          "type": "uint256"
        },
        {
          "internalType": "uint256",
          "name": "",
          "type": "uint256"
        },
        {
          "internalType": "uint256",
          "name": "",
          "type": "uint256"
        },
        {
          "internalType": "uint256",
          "name": "",
          "type": "uint256"
        },
        {
          "internalType": "string[8]",
          "name": "",
          "type": "string[8]"
        },
        {
          "internalType": "int256[8]",
          "name": "",
          "type": "int256[8]"
        },
        {
          "internalType": "int256[8]",
          "name": "",
          "type": "int256[8]"
        }
      ],
      "stateMutability": "view",
      "type": "function"
    },
    {
      "inputs": [
        {
          "internalType": "address",
          "name": "_client",
          "type": "address"
        },
        {
          "internalType": "uint256",
          "name": "_expiredOn",
          "type": "uint256"
        },
        {
          "internalType": "uint256",
          "name": "_startDate",
          "type": "uint256"
        },
        {
          "internalType": "uint256",
          "name": "_contractHash",
          "type": "uint256"
        },
        {
          "internalType": "uint256",
          "name": "_amount",
          "type": "uint256"
        }
      ],
      "name": "init",
      "outputs": [],
      "stateMutability": "nonpayable",
      "type": "function"
    },
    {
      "inputs": [],
      "name": "isSatisfied",
      "outputs": [],
      "stateMutability": "nonpayable",
      "type": "function"
    },
    {
      "inputs": [
        {
          "internalType": "uint256",
          "name": "",
          "type": "uint256"
        }
      ],
      "name": "names",
      "outputs": [
        {
          "internalType": "string",
          "name": "",
          "type": "string"
        }
      ],
      "stateMutability": "view",
      "type": "function"
    },
    {
      "inputs": [],
      "name": "nextBillingDate",
      "outputs": [
        {
          "internalType": "uint256",
          "name": "",
          "type": "uint256"
        }
      ],
      "stateMutability": "view",
      "type": "function"
    },
    {
      "inputs": [
        {
          "internalType": "uint256",
          "name": "",
          "type": "uint256"
        }
      ],
      "name": "operators",
      "outputs": [
        {
          "internalType": "int256",
          "name": "",
          "type": "int256"
        }
      ],
      "stateMutability": "view",
      "type": "function"
    },
    {
      "inputs": [],
      "name": "paid",
      "outputs": [
        {
          "internalType": "bool",
          "name": "",
          "type": "bool"
        }
      ],
      "stateMutability": "view",
      "type": "function"
    },
    {
      "inputs": [],
      "name": "payee",
      "outputs": [
        {
          "internalType": "address payable",
          "name": "",
          "type": "address"
        }
      ],
      "stateMutability": "view",
      "type": "function"
    },
    {
      "inputs": [],
      "name": "payeeApproved",
      "outputs": [
        {
          "internalType": "bool",
          "name": "",
          "type": "bool"
        }
      ],
      "stateMutability": "view",
      "type": "function"
    },
    {
      "inputs": [],
      "name": "prevBillingDate",
      "outputs": [
        {
          "internalType": "uint256",
          "name": "",
          "type": "uint256"
        }
      ],
      "stateMutability": "view",
      "type": "function"
    },
    {
      "inputs": [
        {
          "internalType": "int256[]",
          "name": "_cumulative",
          "type": "int256[]"
        }
      ],
      "name": "receiveServiceData",
      "outputs": [],
      "stateMutability": "nonpayable",
      "type": "function"
    },
    {
      "inputs": [
        {
          "internalType": "int256[]",
          "name": "_cumulative",
          "type": "int256[]"
        }
      ],
      "name": "receiveServiceDataBypass",
      "outputs": [],
      "stateMutability": "nonpayable",
      "type": "function"
    },
    {
      "inputs": [],
      "name": "satisfied",
      "outputs": [
        {
          "internalType": "bool",
          "name": "",
          "type": "bool"
        }
      ],
      "stateMutability": "view",
      "type": "function"
    },
    {
      "inputs": [],
      "name": "setActive",
      "outputs": [],
      "stateMutability": "nonpayable",
      "type": "function"
    },
    {
      "inputs": [
        {
          "internalType": "string[8]",
          "name": "_names",
          "type": "string[8]"
        },
        {
          "internalType": "int256[8]",
          "name": "_values",
          "type": "int256[8]"
        },
        {
          "internalType": "string[8]",
          "name": "_operators",
          "type": "string[8]"
        }
      ],
      "name": "setConds",
      "outputs": [],
      "stateMutability": "nonpayable",
      "type": "function"
    },
    {
      "inputs": [],
      "name": "setInactive",
      "outputs": [],
      "stateMutability": "nonpayable",
      "type": "function"
    },
    {
      "inputs": [
        {
          "internalType": "address",
          "name": "_payee",
          "type": "address"
        }
      ],
      "name": "setPayee",
      "outputs": [],
      "stateMutability": "nonpayable",
      "type": "function"
    },
    {
      "inputs": [],
      "name": "stage",
      "outputs": [
        {
          "internalType": "enum Vendor.Stages",
          "name": "",
          "type": "uint8"
        }
      ],
      "stateMutability": "view",
      "type": "function"
    },
    {
      "inputs": [],
      "name": "startDate",
      "outputs": [
        {
          "internalType": "uint256",
          "name": "",
          "type": "uint256"
        }
      ],
      "stateMutability": "view",
      "type": "function"
    },
    {
      "inputs": [],
      "name": "storePayment",
      "outputs": [],
      "stateMutability": "payable",
      "type": "function"
    },
    {
      "inputs": [
        {
          "internalType": "uint256",
          "name": "",
          "type": "uint256"
        }
      ],
      "name": "values",
      "outputs": [
        {
          "internalType": "int256",
          "name": "",
          "type": "int256"
        }
      ],
      "stateMutability": "view",
      "type": "function"
    }
  ],
  "devdoc": {
    "kind": "dev",
    "methods": {},
    "version": 1
  },
  "evm": {
    "assembly": "    /* \"Vendor.sol\":151:10661  contract Vendor {... */\n  mstore(0x40, 0x80)\n    /* \"Vendor.sol\":637:656  Stages.Initialising */\n  0x00\n    /* \"Vendor.sol\":615:656  Stages public stage = Stages.Initialising */\n  0x09\n  exp(0x0100, 0x00)\n  dup2\n  sload\n  dup2\n  0xff\n  mul\n  not\n  and\n  swap1\n  dup4\n  0x04\n  dup2\n  gt\n  iszero\n  tag_1\n  jumpi\n  tag_2\n  tag_3\n  jump\t// in\ntag_2:\ntag_1:\n  mul\n  or\n  swap1\n  sstore\n  pop\n    /* \"Vendor.sol\":687:692  false */\n  0x00\n    /* \"Vendor.sol\":663:692  bool public satisfied = false */\n  0x09\n  exp(0x0100, 0x01)\n  dup2\n  sload\n  dup2\n  0xff\n  mul\n  not\n  and\n  swap1\n  dup4\n  iszero\n  iszero\n  mul\n  or\n  swap1\n  sstore\n  pop\n    /* \"Vendor.sol\":887:888  0 */\n  0x00\n    /* \"Vendor.sol\":857:888  uint private conditionCount = 0 */\n  0x23\n  sstore\n    /* \"Vendor.sol\":1237:1238  0 */\n  0x00\n    /* \"Vendor.sol\":1217:1238  int private count = 0 */\n  0x25\n  sstore\n    /* \"Vendor.sol\":151:10661  contract Vendor {... */\n  callvalue\n  dup1\n  iszero\n  tag_4\n  jumpi\n  0x00\n  dup1\n  revert\ntag_4:\n  pop\n  jump(tag_5)\n    /* \"#utility.yul\":7:187   */\ntag_3:\n    /* \"#utility.yul\":55:132   */\n  0x4e487b7100000000000000000000000000000000000000000000000000000000\n    /* \"#utility.yul\":52:53   */\n  0x00\n    /* \"#utility.yul\":45:133   */\n  mstore\n    /* \"#utility.yul\":152:156   */\n  0x21\n    /* \"#utility.yul\":149:150   */\n  0x04\n    /* \"#utility.yul\":142:157   */\n  mstore\n    /* \"#utility.yul\":176:180   */\n  0x24\n    /* \"#utility.yul\":173:174   */\n  0x00\n    /* \"#utility.yul\":166:181   */\n  revert\n    /* \"Vendor.sol\":151:10661  contract Vendor {... */\ntag_5:\n  dataSize(sub_0)\n  dup1\n  dataOffset(sub_0)\n  0x00\n  codecopy\n  0x00\n  return\nstop\n\nsub_0: assembly {\n        /* \"Vendor.sol\":151:10661  contract Vendor {... */\n      mstore(0x40, 0x80)\n      jumpi(tag_1, lt(calldatasize, 0x04))\n      shr(0xe0, calldataload(0x00))\n      dup1\n      0x84ac4446\n      gt\n      tag_32\n      jumpi\n      dup1\n      0xae90b213\n      gt\n      tag_33\n      jumpi\n      dup1\n      0xf1b9ee24\n      gt\n      tag_34\n      jumpi\n      dup1\n      0xf1b9ee24\n      eq\n      tag_28\n      jumpi\n      dup1\n      0xf851a440\n      eq\n      tag_29\n      jumpi\n      dup1\n      0xfadeaa59\n      eq\n      tag_30\n      jumpi\n      dup1\n      0xfbbf93a0\n      eq\n      tag_31\n      jumpi\n      jump(tag_1)\n    tag_34:\n      dup1\n      0xae90b213\n      eq\n      tag_24\n      jumpi\n      dup1\n      0xc040e6b8\n      eq\n      tag_25\n      jumpi\n      dup1\n      0xe28d4906\n      eq\n      tag_26\n      jumpi\n      dup1\n      0xe9d94c58\n      eq\n      tag_27\n      jumpi\n      jump(tag_1)\n    tag_33:\n      dup1\n      0x97c0bba1\n      gt\n      tag_35\n      jumpi\n      dup1\n      0x97c0bba1\n      eq\n      tag_20\n      jumpi\n      dup1\n      0x9a730617\n      eq\n      tag_21\n      jumpi\n      dup1\n      0xa2c14ad3\n      eq\n      tag_22\n      jumpi\n      dup1\n      0xaa8c217c\n      eq\n      tag_23\n      jumpi\n      jump(tag_1)\n    tag_35:\n      dup1\n      0x84ac4446\n      eq\n      tag_17\n      jumpi\n      dup1\n      0x904c6094\n      eq\n      tag_18\n      jumpi\n      dup1\n      0x9503fe3d\n      eq\n      tag_19\n      jumpi\n      jump(tag_1)\n    tag_32:\n      dup1\n      0x410459ad\n      gt\n      tag_36\n      jumpi\n      dup1\n      0x5e383d21\n      gt\n      tag_37\n      jumpi\n      dup1\n      0x5e383d21\n      eq\n      tag_13\n      jumpi\n      dup1\n      0x722713f7\n      eq\n      tag_14\n      jumpi\n      dup1\n      0x760a8c2a\n      eq\n      tag_15\n      jumpi\n      dup1\n      0x83197ef0\n      eq\n      tag_16\n      jumpi\n      jump(tag_1)\n    tag_37:\n      dup1\n      0x410459ad\n      eq\n      tag_9\n      jumpi\n      dup1\n      0x43885314\n      eq\n      tag_10\n      jumpi\n      dup1\n      0x4622ab03\n      eq\n      tag_11\n      jumpi\n      dup1\n      0x516dde43\n      eq\n      tag_12\n      jumpi\n      jump(tag_1)\n    tag_36:\n      dup1\n      0x21ce5afd\n      gt\n      tag_38\n      jumpi\n      dup1\n      0x21ce5afd\n      eq\n      tag_5\n      jumpi\n      dup1\n      0x25419c24\n      eq\n      tag_6\n      jumpi\n      dup1\n      0x295b4e17\n      eq\n      tag_7\n      jumpi\n      dup1\n      0x3a40f3b2\n      eq\n      tag_8\n      jumpi\n      jump(tag_1)\n    tag_38:\n      dup1\n      0x0b97bc86\n      eq\n      tag_2\n      jumpi\n      dup1\n      0x109e94cf\n      eq\n      tag_3\n      jumpi\n      dup1\n      0x12424e3f\n      eq\n      tag_4\n      jumpi\n    tag_1:\n      0x00\n      dup1\n      revert\n        /* \"Vendor.sol\":322:343  uint public startDate */\n    tag_2:\n      callvalue\n      dup1\n      iszero\n      tag_39\n      jumpi\n      0x00\n      dup1\n      revert\n    tag_39:\n      pop\n      tag_40\n      tag_41\n      jump\t// in\n    tag_40:\n      mload(0x40)\n      tag_42\n      swap2\n      swap1\n      tag_43\n      jump\t// in\n    tag_42:\n      mload(0x40)\n      dup1\n      swap2\n      sub\n      swap1\n      return\n        /* \"Vendor.sol\":199:228  address payable public client */\n    tag_3:\n      callvalue\n      dup1\n      iszero\n      tag_44\n      jumpi\n      0x00\n      dup1\n      revert\n    tag_44:\n      pop\n      tag_45\n      tag_46\n      jump\t// in\n    tag_45:\n      mload(0x40)\n      tag_47\n      swap2\n      swap1\n      tag_48\n      jump\t// in\n    tag_47:\n      mload(0x40)\n      dup1\n      swap2\n      sub\n      swap1\n      return\n        /* \"Vendor.sol\":4295:4511  function approve() external atStage(Stages.Pending) {... */\n    tag_4:\n      callvalue\n      dup1\n      iszero\n      tag_49\n      jumpi\n      0x00\n      dup1\n      revert\n    tag_49:\n      pop\n      tag_50\n      tag_51\n      jump\t// in\n    tag_50:\n      stop\n        /* \"Vendor.sol\":5991:6227  function receiveServiceData(int[] memory _cumulative) external atStage(Stages.Active) checkBillingDate() {... */\n    tag_5:\n      callvalue\n      dup1\n      iszero\n      tag_52\n      jumpi\n      0x00\n      dup1\n      revert\n    tag_52:\n      pop\n      tag_53\n      0x04\n      dup1\n      calldatasize\n      sub\n      dup2\n      add\n      swap1\n      tag_54\n      swap2\n      swap1\n      tag_55\n      jump\t// in\n    tag_54:\n      tag_56\n      jump\t// in\n    tag_53:\n      stop\n        /* \"Vendor.sol\":401:428  uint public prevBillingDate */\n    tag_6:\n      callvalue\n      dup1\n      iszero\n      tag_57\n      jumpi\n      0x00\n      dup1\n      revert\n    tag_57:\n      pop\n      tag_58\n      tag_59\n      jump\t// in\n    tag_58:\n      mload(0x40)\n      tag_60\n      swap2\n      swap1\n      tag_43\n      jump\t// in\n    tag_60:\n      mload(0x40)\n      dup1\n      swap2\n      sub\n      swap1\n      return\n        /* \"Vendor.sol\":299:315  bool public paid */\n    tag_7:\n      callvalue\n      dup1\n      iszero\n      tag_61\n      jumpi\n      0x00\n      dup1\n      revert\n    tag_61:\n      pop\n      tag_62\n      tag_63\n      jump\t// in\n    tag_62:\n      mload(0x40)\n      tag_64\n      swap2\n      swap1\n      tag_65\n      jump\t// in\n    tag_64:\n      mload(0x40)\n      dup1\n      swap2\n      sub\n      swap1\n      return\n        /* \"Vendor.sol\":663:692  bool public satisfied = false */\n    tag_8:\n      callvalue\n      dup1\n      iszero\n      tag_66\n      jumpi\n      0x00\n      dup1\n      revert\n    tag_66:\n      pop\n      tag_67\n      tag_68\n      jump\t// in\n    tag_67:\n      mload(0x40)\n      tag_69\n      swap2\n      swap1\n      tag_65\n      jump\t// in\n    tag_69:\n      mload(0x40)\n      dup1\n      swap2\n      sub\n      swap1\n      return\n        /* \"Vendor.sol\":3675:3758  function setPayee(address _payee) external {... */\n    tag_9:\n      callvalue\n      dup1\n      iszero\n      tag_70\n      jumpi\n      0x00\n      dup1\n      revert\n    tag_70:\n      pop\n      tag_71\n      0x04\n      dup1\n      calldatasize\n      sub\n      dup2\n      add\n      swap1\n      tag_72\n      swap2\n      swap1\n      tag_73\n      jump\t// in\n    tag_72:\n      tag_74\n      jump\t// in\n    tag_71:\n      stop\n        /* \"Vendor.sol\":434:461  uint public nextBillingDate */\n    tag_10:\n      callvalue\n      dup1\n      iszero\n      tag_75\n      jumpi\n      0x00\n      dup1\n      revert\n    tag_75:\n      pop\n      tag_76\n      tag_77\n      jump\t// in\n    tag_76:\n      mload(0x40)\n      tag_78\n      swap2\n      swap1\n      tag_43\n      jump\t// in\n    tag_78:\n      mload(0x40)\n      dup1\n      swap2\n      sub\n      swap1\n      return\n        /* \"Vendor.sol\":729:751  string[8] public names */\n    tag_11:\n      callvalue\n      dup1\n      iszero\n      tag_79\n      jumpi\n      0x00\n      dup1\n      revert\n    tag_79:\n      pop\n      tag_80\n      0x04\n      dup1\n      calldatasize\n      sub\n      dup2\n      add\n      swap1\n      tag_81\n      swap2\n      swap1\n      tag_82\n      jump\t// in\n    tag_81:\n      tag_83\n      jump\t// in\n    tag_80:\n      mload(0x40)\n      tag_84\n      swap2\n      swap1\n      tag_85\n      jump\t// in\n    tag_84:\n      mload(0x40)\n      dup1\n      swap2\n      sub\n      swap1\n      return\n        /* \"Vendor.sol\":349:371  uint public expiryDate */\n    tag_12:\n      callvalue\n      dup1\n      iszero\n      tag_86\n      jumpi\n      0x00\n      dup1\n      revert\n    tag_86:\n      pop\n      tag_87\n      tag_88\n      jump\t// in\n    tag_87:\n      mload(0x40)\n      tag_89\n      swap2\n      swap1\n      tag_43\n      jump\t// in\n    tag_89:\n      mload(0x40)\n      dup1\n      swap2\n      sub\n      swap1\n      return\n        /* \"Vendor.sol\":757:777  int[8] public values */\n    tag_13:\n      callvalue\n      dup1\n      iszero\n      tag_90\n      jumpi\n      0x00\n      dup1\n      revert\n    tag_90:\n      pop\n      tag_91\n      0x04\n      dup1\n      calldatasize\n      sub\n      dup2\n      add\n      swap1\n      tag_92\n      swap2\n      swap1\n      tag_82\n      jump\t// in\n    tag_92:\n      tag_93\n      jump\t// in\n    tag_91:\n      mload(0x40)\n      tag_94\n      swap2\n      swap1\n      tag_95\n      jump\t// in\n    tag_94:\n      mload(0x40)\n      dup1\n      swap2\n      sub\n      swap1\n      return\n        /* \"Vendor.sol\":5158:5253  function balanceOf() external view returns (uint) {... */\n    tag_14:\n      callvalue\n      dup1\n      iszero\n      tag_96\n      jumpi\n      0x00\n      dup1\n      revert\n    tag_96:\n      pop\n      tag_97\n      tag_98\n      jump\t// in\n    tag_97:\n      mload(0x40)\n      tag_99\n      swap2\n      swap1\n      tag_43\n      jump\t// in\n    tag_99:\n      mload(0x40)\n      dup1\n      swap2\n      sub\n      swap1\n      return\n        /* \"Vendor.sol\":9119:9212  function setActive() external atStage(Stages.Inactive) {... */\n    tag_15:\n      callvalue\n      dup1\n      iszero\n      tag_100\n      jumpi\n      0x00\n      dup1\n      revert\n    tag_100:\n      pop\n      tag_101\n      tag_102\n      jump\t// in\n    tag_101:\n      stop\n        /* \"Vendor.sol\":9319:9409  function destroy() external atStage(Stages.Inactive) {... */\n    tag_16:\n      callvalue\n      dup1\n      iszero\n      tag_103\n      jumpi\n      0x00\n      dup1\n      revert\n    tag_103:\n      pop\n      tag_104\n      tag_105\n      jump\t// in\n    tag_104:\n      stop\n        /* \"Vendor.sol\":4974:5152  function storePayment() external payable atStage(Stages.Active) checkBillingDate() {... */\n    tag_17:\n      tag_106\n      tag_107\n      jump\t// in\n    tag_106:\n      stop\n        /* \"Vendor.sol\":467:491  uint public contractHash */\n    tag_18:\n      callvalue\n      dup1\n      iszero\n      tag_108\n      jumpi\n      0x00\n      dup1\n      revert\n    tag_108:\n      pop\n      tag_109\n      tag_110\n      jump\t// in\n    tag_109:\n      mload(0x40)\n      tag_111\n      swap2\n      swap1\n      tag_43\n      jump\t// in\n    tag_111:\n      mload(0x40)\n      dup1\n      swap2\n      sub\n      swap1\n      return\n        /* \"Vendor.sol\":3764:4064  function endInitStage() public atStage(Stages.Initialising) {... */\n    tag_19:\n      callvalue\n      dup1\n      iszero\n      tag_112\n      jumpi\n      0x00\n      dup1\n      revert\n    tag_112:\n      pop\n      tag_113\n      tag_114\n      jump\t// in\n    tag_113:\n      stop\n        /* \"Vendor.sol\":268:293  bool public payeeApproved */\n    tag_20:\n      callvalue\n      dup1\n      iszero\n      tag_115\n      jumpi\n      0x00\n      dup1\n      revert\n    tag_115:\n      pop\n      tag_116\n      tag_117\n      jump\t// in\n    tag_116:\n      mload(0x40)\n      tag_118\n      swap2\n      swap1\n      tag_65\n      jump\t// in\n    tag_118:\n      mload(0x40)\n      dup1\n      swap2\n      sub\n      swap1\n      return\n        /* \"Vendor.sol\":1993:2434  function init(address _client, uint _expiredOn, uint _startDate, uint _contractHash, uint _amount) public {... */\n    tag_21:\n      callvalue\n      dup1\n      iszero\n      tag_119\n      jumpi\n      0x00\n      dup1\n      revert\n    tag_119:\n      pop\n      tag_120\n      0x04\n      dup1\n      calldatasize\n      sub\n      dup2\n      add\n      swap1\n      tag_121\n      swap2\n      swap1\n      tag_122\n      jump\t// in\n    tag_121:\n      tag_123\n      jump\t// in\n    tag_120:\n      stop\n        /* \"Vendor.sol\":6567:7178  function isSatisfied() public atStage(Stages.Active) {... */\n    tag_22:\n      callvalue\n      dup1\n      iszero\n      tag_124\n      jumpi\n      0x00\n      dup1\n      revert\n    tag_124:\n      pop\n      tag_125\n      tag_126\n      jump\t// in\n    tag_125:\n      stop\n        /* \"Vendor.sol\":377:395  uint public amount */\n    tag_23:\n      callvalue\n      dup1\n      iszero\n      tag_127\n      jumpi\n      0x00\n      dup1\n      revert\n    tag_127:\n      pop\n      tag_128\n      tag_129\n      jump\t// in\n    tag_128:\n      mload(0x40)\n      tag_130\n      swap2\n      swap1\n      tag_43\n      jump\t// in\n    tag_130:\n      mload(0x40)\n      dup1\n      swap2\n      sub\n      swap1\n      return\n        /* \"Vendor.sol\":234:262  address payable public payee */\n    tag_24:\n      callvalue\n      dup1\n      iszero\n      tag_131\n      jumpi\n      0x00\n      dup1\n      revert\n    tag_131:\n      pop\n      tag_132\n      tag_133\n      jump\t// in\n    tag_132:\n      mload(0x40)\n      tag_134\n      swap2\n      swap1\n      tag_48\n      jump\t// in\n    tag_134:\n      mload(0x40)\n      dup1\n      swap2\n      sub\n      swap1\n      return\n        /* \"Vendor.sol\":615:656  Stages public stage = Stages.Initialising */\n    tag_25:\n      callvalue\n      dup1\n      iszero\n      tag_135\n      jumpi\n      0x00\n      dup1\n      revert\n    tag_135:\n      pop\n      tag_136\n      tag_137\n      jump\t// in\n    tag_136:\n      mload(0x40)\n      tag_138\n      swap2\n      swap1\n      tag_139\n      jump\t// in\n    tag_138:\n      mload(0x40)\n      dup1\n      swap2\n      sub\n      swap1\n      return\n        /* \"Vendor.sol\":783:806  int[8] public operators */\n    tag_26:\n      callvalue\n      dup1\n      iszero\n      tag_140\n      jumpi\n      0x00\n      dup1\n      revert\n    tag_140:\n      pop\n      tag_141\n      0x04\n      dup1\n      calldatasize\n      sub\n      dup2\n      add\n      swap1\n      tag_142\n      swap2\n      swap1\n      tag_82\n      jump\t// in\n    tag_142:\n      tag_143\n      jump\t// in\n    tag_141:\n      mload(0x40)\n      tag_144\n      swap2\n      swap1\n      tag_95\n      jump\t// in\n    tag_144:\n      mload(0x40)\n      dup1\n      swap2\n      sub\n      swap1\n      return\n        /* \"Vendor.sol\":6237:6460  function receiveServiceDataBypass(int[] memory _cumulative) external atStage(Stages.Active) {... */\n    tag_27:\n      callvalue\n      dup1\n      iszero\n      tag_145\n      jumpi\n      0x00\n      dup1\n      revert\n    tag_145:\n      pop\n      tag_146\n      0x04\n      dup1\n      calldatasize\n      sub\n      dup2\n      add\n      swap1\n      tag_147\n      swap2\n      swap1\n      tag_55\n      jump\t// in\n    tag_147:\n      tag_148\n      jump\t// in\n    tag_146:\n      stop\n        /* \"Vendor.sol\":9218:9313  function setInactive() external atStage(Stages.Active) {... */\n    tag_28:\n      callvalue\n      dup1\n      iszero\n      tag_149\n      jumpi\n      0x00\n      dup1\n      revert\n    tag_149:\n      pop\n      tag_150\n      tag_151\n      jump\t// in\n    tag_150:\n      stop\n        /* \"Vendor.sol\":173:193  address public admin */\n    tag_29:\n      callvalue\n      dup1\n      iszero\n      tag_152\n      jumpi\n      0x00\n      dup1\n      revert\n    tag_152:\n      pop\n      tag_153\n      tag_154\n      jump\t// in\n    tag_153:\n      mload(0x40)\n      tag_155\n      swap2\n      swap1\n      tag_156\n      jump\t// in\n    tag_155:\n      mload(0x40)\n      dup1\n      swap2\n      sub\n      swap1\n      return\n        /* \"Vendor.sol\":2850:3669  function setConds(string[8] memory _names, int[8] memory _values, string[8] memory _operators) external atStage(Stages.Initialising) {... */\n    tag_30:\n      callvalue\n      dup1\n      iszero\n      tag_157\n      jumpi\n      0x00\n      dup1\n      revert\n    tag_157:\n      pop\n      tag_158\n      0x04\n      dup1\n      calldatasize\n      sub\n      dup2\n      add\n      swap1\n      tag_159\n      swap2\n      swap1\n      tag_160\n      jump\t// in\n    tag_159:\n      tag_161\n      jump\t// in\n    tag_158:\n      stop\n        /* \"Vendor.sol\":4669:4968  function getDetails() external view returns (address, address, uint, uint, uint, uint, uint, uint, string[8] memory, int[8] memory, int[8] memory) {... */\n    tag_31:\n      callvalue\n      dup1\n      iszero\n      tag_162\n      jumpi\n      0x00\n      dup1\n      revert\n    tag_162:\n      pop\n      tag_163\n      tag_164\n      jump\t// in\n    tag_163:\n      mload(0x40)\n      tag_165\n      swap12\n      swap11\n      swap10\n      swap9\n      swap8\n      swap7\n      swap6\n      swap5\n      swap4\n      swap3\n      swap2\n      swap1\n      tag_166\n      jump\t// in\n    tag_165:\n      mload(0x40)\n      dup1\n      swap2\n      sub\n      swap1\n      return\n        /* \"Vendor.sol\":322:343  uint public startDate */\n    tag_41:\n      sload(0x03)\n      dup2\n      jump\t// out\n        /* \"Vendor.sol\":199:228  address payable public client */\n    tag_46:\n      0x01\n      0x00\n      swap1\n      sload\n      swap1\n      0x0100\n      exp\n      swap1\n      div\n      0xffffffffffffffffffffffffffffffffffffffff\n      and\n      dup2\n      jump\t// out\n        /* \"Vendor.sol\":4295:4511  function approve() external atStage(Stages.Pending) {... */\n    tag_51:\n        /* \"Vendor.sol\":4331:4345  Stages.Pending */\n      0x01\n        /* \"Vendor.sol\":10296:10349  Log(\"inside atStage, current stage is:\", uint(stage)) */\n      0xdd970dd9b5bfe707922155b058a407655cb18288b807e2216442bca8ad83d6b5\n        /* \"Vendor.sol\":10342:10347  stage */\n      0x09\n      0x00\n      swap1\n      sload\n      swap1\n      0x0100\n      exp\n      swap1\n      div\n      0xff\n      and\n        /* \"Vendor.sol\":10337:10348  uint(stage) */\n      0x04\n      dup2\n      gt\n      iszero\n      tag_168\n      jumpi\n      tag_169\n      tag_170\n      jump\t// in\n    tag_169:\n    tag_168:\n        /* \"Vendor.sol\":10296:10349  Log(\"inside atStage, current stage is:\", uint(stage)) */\n      mload(0x40)\n      tag_171\n      swap2\n      swap1\n      tag_172\n      jump\t// in\n    tag_171:\n      mload(0x40)\n      dup1\n      swap2\n      sub\n      swap1\n      log1\n        /* \"Vendor.sol\":10364:10431  Log(\"still inside atStage, trying to compare it to:\", uint(_stage)) */\n      0xdd970dd9b5bfe707922155b058a407655cb18288b807e2216442bca8ad83d6b5\n        /* \"Vendor.sol\":10423:10429  _stage */\n      dup2\n        /* \"Vendor.sol\":10418:10430  uint(_stage) */\n      0x04\n      dup2\n      gt\n      iszero\n      tag_173\n      jumpi\n      tag_174\n      tag_170\n      jump\t// in\n    tag_174:\n    tag_173:\n        /* \"Vendor.sol\":10364:10431  Log(\"still inside atStage, trying to compare it to:\", uint(_stage)) */\n      mload(0x40)\n      tag_175\n      swap2\n      swap1\n      tag_176\n      jump\t// in\n    tag_175:\n      mload(0x40)\n      dup1\n      swap2\n      sub\n      swap1\n      log1\n        /* \"Vendor.sol\":10469:10475  _stage */\n      dup1\n        /* \"Vendor.sol\":10464:10476  uint(_stage) */\n      0x04\n      dup2\n      gt\n      iszero\n      tag_177\n      jumpi\n      tag_178\n      tag_170\n      jump\t// in\n    tag_178:\n    tag_177:\n        /* \"Vendor.sol\":10454:10459  stage */\n      0x09\n      0x00\n      swap1\n      sload\n      swap1\n      0x0100\n      exp\n      swap1\n      div\n      0xff\n      and\n        /* \"Vendor.sol\":10449:10460  uint(stage) */\n      0x04\n      dup2\n      gt\n      iszero\n      tag_179\n      jumpi\n      tag_180\n      tag_170\n      jump\t// in\n    tag_180:\n    tag_179:\n        /* \"Vendor.sol\":10449:10476  uint(stage) == uint(_stage) */\n      eq\n        /* \"Vendor.sol\":10441:10518  require(uint(stage) == uint(_stage), \"Contract is not in the required state\") */\n      tag_181\n      jumpi\n      mload(0x40)\n      0x08c379a000000000000000000000000000000000000000000000000000000000\n      dup2\n      mstore\n      0x04\n      add\n      tag_182\n      swap1\n      tag_183\n      jump\t// in\n    tag_182:\n      mload(0x40)\n      dup1\n      swap2\n      sub\n      swap1\n      revert\n    tag_181:\n        /* \"Vendor.sol\":4379:4384  admin */\n      0x00\n      dup1\n      sload\n      swap1\n      0x0100\n      exp\n      swap1\n      div\n      0xffffffffffffffffffffffffffffffffffffffff\n      and\n        /* \"Vendor.sol\":4365:4384  msg.sender == admin */\n      0xffffffffffffffffffffffffffffffffffffffff\n      and\n        /* \"Vendor.sol\":4365:4375  msg.sender */\n      caller\n        /* \"Vendor.sol\":4365:4384  msg.sender == admin */\n      0xffffffffffffffffffffffffffffffffffffffff\n      and\n      eq\n        /* \"Vendor.sol\":4357:4443  require(msg.sender == admin, \"Cannot call this function directly, use VendorFactory.\") */\n      tag_185\n      jumpi\n      mload(0x40)\n      0x08c379a000000000000000000000000000000000000000000000000000000000\n      dup2\n      mstore\n      0x04\n      add\n      tag_186\n      swap1\n      tag_187\n      jump\t// in\n    tag_186:\n      mload(0x40)\n      dup1\n      swap2\n      sub\n      swap1\n      revert\n    tag_185:\n        /* \"Vendor.sol\":4469:4473  true */\n      0x01\n        /* \"Vendor.sol\":4453:4466  payeeApproved */\n      0x02\n      0x14\n        /* \"Vendor.sol\":4453:4473  payeeApproved = true */\n      0x0100\n      exp\n      dup2\n      sload\n      dup2\n      0xff\n      mul\n      not\n      and\n      swap1\n      dup4\n      iszero\n      iszero\n      mul\n      or\n      swap1\n      sstore\n      pop\n        /* \"Vendor.sol\":4491:4504  Stages.Active */\n      0x03\n        /* \"Vendor.sol\":4483:4488  stage */\n      0x09\n      0x00\n        /* \"Vendor.sol\":4483:4504  stage = Stages.Active */\n      0x0100\n      exp\n      dup2\n      sload\n      dup2\n      0xff\n      mul\n      not\n      and\n      swap1\n      dup4\n      0x04\n      dup2\n      gt\n      iszero\n      tag_188\n      jumpi\n      tag_189\n      tag_170\n      jump\t// in\n    tag_189:\n    tag_188:\n      mul\n      or\n      swap1\n      sstore\n      pop\n        /* \"Vendor.sol\":4295:4511  function approve() external atStage(Stages.Pending) {... */\n      pop\n      jump\t// out\n        /* \"Vendor.sol\":5991:6227  function receiveServiceData(int[] memory _cumulative) external atStage(Stages.Active) checkBillingDate() {... */\n    tag_56:\n        /* \"Vendor.sol\":6062:6075  Stages.Active */\n      0x03\n        /* \"Vendor.sol\":10296:10349  Log(\"inside atStage, current stage is:\", uint(stage)) */\n      0xdd970dd9b5bfe707922155b058a407655cb18288b807e2216442bca8ad83d6b5\n        /* \"Vendor.sol\":10342:10347  stage */\n      0x09\n      0x00\n      swap1\n      sload\n      swap1\n      0x0100\n      exp\n      swap1\n      div\n      0xff\n      and\n        /* \"Vendor.sol\":10337:10348  uint(stage) */\n      0x04\n      dup2\n      gt\n      iszero\n      tag_191\n      jumpi\n      tag_192\n      tag_170\n      jump\t// in\n    tag_192:\n    tag_191:\n        /* \"Vendor.sol\":10296:10349  Log(\"inside atStage, current stage is:\", uint(stage)) */\n      mload(0x40)\n      tag_193\n      swap2\n      swap1\n      tag_172\n      jump\t// in\n    tag_193:\n      mload(0x40)\n      dup1\n      swap2\n      sub\n      swap1\n      log1\n        /* \"Vendor.sol\":10364:10431  Log(\"still inside atStage, trying to compare it to:\", uint(_stage)) */\n      0xdd970dd9b5bfe707922155b058a407655cb18288b807e2216442bca8ad83d6b5\n        /* \"Vendor.sol\":10423:10429  _stage */\n      dup2\n        /* \"Vendor.sol\":10418:10430  uint(_stage) */\n      0x04\n      dup2\n      gt\n      iszero\n      tag_194\n      jumpi\n      tag_195\n      tag_170\n      jump\t// in\n    tag_195:\n    tag_194:\n        /* \"Vendor.sol\":10364:10431  Log(\"still inside atStage, trying to compare it to:\", uint(_stage)) */\n      mload(0x40)\n      tag_196\n      swap2\n      swap1\n      tag_176\n      jump\t// in\n    tag_196:\n      mload(0x40)\n      dup1\n      swap2\n      sub\n      swap1\n      log1\n        /* \"Vendor.sol\":10469:10475  _stage */\n      dup1\n        /* \"Vendor.sol\":10464:10476  uint(_stage) */\n      0x04\n      dup2\n      gt\n      iszero\n      tag_197\n      jumpi\n      tag_198\n      tag_170\n      jump\t// in\n    tag_198:\n    tag_197:\n        /* \"Vendor.sol\":10454:10459  stage */\n      0x09\n      0x00\n      swap1\n      sload\n      swap1\n      0x0100\n      exp\n      swap1\n      div\n      0xff\n      and\n        /* \"Vendor.sol\":10449:10460  uint(stage) */\n      0x04\n      dup2\n      gt\n      iszero\n      tag_199\n      jumpi\n      tag_200\n      tag_170\n      jump\t// in\n    tag_200:\n    tag_199:\n        /* \"Vendor.sol\":10449:10476  uint(stage) == uint(_stage) */\n      eq\n        /* \"Vendor.sol\":10441:10518  require(uint(stage) == uint(_stage), \"Contract is not in the required state\") */\n      tag_201\n      jumpi\n      mload(0x40)\n      0x08c379a000000000000000000000000000000000000000000000000000000000\n      dup2\n      mstore\n      0x04\n      add\n      tag_202\n      swap1\n      tag_183\n      jump\t// in\n    tag_202:\n      mload(0x40)\n      dup1\n      swap2\n      sub\n      swap1\n      revert\n    tag_201:\n        /* \"Vendor.sol\":9818:9833  nextBillingDate */\n      sload(0x07)\n        /* \"Vendor.sol\":9803:9815  block.number */\n      number\n        /* \"Vendor.sol\":9803:9833  block.number > nextBillingDate */\n      gt\n        /* \"Vendor.sol\":9799:10027  if (block.number > nextBillingDate) {... */\n      iszero\n      tag_204\n      jumpi\n        /* \"Vendor.sol\":9849:9862  isSatisfied() */\n      tag_205\n        /* \"Vendor.sol\":9849:9860  isSatisfied */\n      tag_126\n        /* \"Vendor.sol\":9849:9862  isSatisfied() */\n      jump\t// in\n    tag_205:\n        /* \"Vendor.sol\":9799:10027  if (block.number > nextBillingDate) {... */\n      jump(tag_206)\n    tag_204:\n        /* \"Vendor.sol\":9917:9932  prevBillingDate */\n      sload(0x06)\n        /* \"Vendor.sol\":9901:9913  block.number */\n      number\n        /* \"Vendor.sol\":9901:9932  block.number >= prevBillingDate */\n      lt\n      iszero\n        /* \"Vendor.sol\":9901:9967  block.number >= prevBillingDate && block.number <= nextBillingDate */\n      dup1\n      iszero\n      tag_207\n      jumpi\n      pop\n        /* \"Vendor.sol\":9952:9967  nextBillingDate */\n      sload(0x07)\n        /* \"Vendor.sol\":9936:9948  block.number */\n      number\n        /* \"Vendor.sol\":9936:9967  block.number <= nextBillingDate */\n      gt\n      iszero\n        /* \"Vendor.sol\":9901:9967  block.number >= prevBillingDate && block.number <= nextBillingDate */\n    tag_207:\n        /* \"Vendor.sol\":9893:10001  require(block.number >= prevBillingDate && block.number <= nextBillingDate, \"Not within the billing period\") */\n      tag_208\n      jumpi\n      mload(0x40)\n      0x08c379a000000000000000000000000000000000000000000000000000000000\n      dup2\n      mstore\n      0x04\n      add\n      tag_209\n      swap1\n      tag_210\n      jump\t// in\n    tag_209:\n      mload(0x40)\n      dup1\n      swap2\n      sub\n      swap1\n      revert\n    tag_208:\n        /* \"Vendor.sol\":6111:6117  uint i */\n      0x00\n        /* \"Vendor.sol\":6106:6204  for (uint i = 0; i < conditionCount; i++) {... */\n    tag_212:\n        /* \"Vendor.sol\":6127:6141  conditionCount */\n      sload(0x23)\n        /* \"Vendor.sol\":6123:6124  i */\n      dup2\n        /* \"Vendor.sol\":6123:6141  i < conditionCount */\n      lt\n        /* \"Vendor.sol\":6106:6204  for (uint i = 0; i < conditionCount; i++) {... */\n      iszero\n      tag_213\n      jumpi\n        /* \"Vendor.sol\":6179:6190  _cumulative */\n      dup3\n        /* \"Vendor.sol\":6191:6192  i */\n      dup2\n        /* \"Vendor.sol\":6179:6193  _cumulative[i] */\n      dup2\n      mload\n      dup2\n      lt\n      tag_215\n      jumpi\n      tag_216\n      tag_217\n      jump\t// in\n    tag_216:\n    tag_215:\n      0x20\n      mul\n      0x20\n      add\n      add\n      mload\n        /* \"Vendor.sol\":6162:6172  cumulative */\n      0x24\n        /* \"Vendor.sol\":6162:6175  cumulative[i] */\n      0x00\n        /* \"Vendor.sol\":6173:6174  i */\n      dup4\n        /* \"Vendor.sol\":6162:6175  cumulative[i] */\n      dup2\n      mstore\n      0x20\n      add\n      swap1\n      dup2\n      mstore\n      0x20\n      add\n      0x00\n      keccak256\n      0x00\n        /* \"Vendor.sol\":6162:6193  cumulative[i] += _cumulative[i] */\n      dup3\n      dup3\n      sload\n      tag_218\n      swap2\n      swap1\n      tag_219\n      jump\t// in\n    tag_218:\n      swap3\n      pop\n      pop\n      dup2\n      swap1\n      sstore\n      pop\n        /* \"Vendor.sol\":6143:6146  i++ */\n      dup1\n      dup1\n      tag_220\n      swap1\n      tag_221\n      jump\t// in\n    tag_220:\n      swap2\n      pop\n      pop\n        /* \"Vendor.sol\":6106:6204  for (uint i = 0; i < conditionCount; i++) {... */\n      jump(tag_212)\n    tag_213:\n      pop\n        /* \"Vendor.sol\":6213:6218  count */\n      0x25\n      0x00\n        /* \"Vendor.sol\":6213:6220  count++ */\n      dup2\n      sload\n      dup1\n      swap3\n      swap2\n      swap1\n      tag_222\n      swap1\n      tag_223\n      jump\t// in\n    tag_222:\n      swap2\n      swap1\n      pop\n      sstore\n      pop\n        /* \"Vendor.sol\":9799:10027  if (block.number > nextBillingDate) {... */\n    tag_206:\n        /* \"Vendor.sol\":5991:6227  function receiveServiceData(int[] memory _cumulative) external atStage(Stages.Active) checkBillingDate() {... */\n      pop\n      pop\n      jump\t// out\n        /* \"Vendor.sol\":401:428  uint public prevBillingDate */\n    tag_59:\n      sload(0x06)\n      dup2\n      jump\t// out\n        /* \"Vendor.sol\":299:315  bool public paid */\n    tag_63:\n      0x02\n      0x15\n      swap1\n      sload\n      swap1\n      0x0100\n      exp\n      swap1\n      div\n      0xff\n      and\n      dup2\n      jump\t// out\n        /* \"Vendor.sol\":663:692  bool public satisfied = false */\n    tag_68:\n      0x09\n      0x01\n      swap1\n      sload\n      swap1\n      0x0100\n      exp\n      swap1\n      div\n      0xff\n      and\n      dup2\n      jump\t// out\n        /* \"Vendor.sol\":3675:3758  function setPayee(address _payee) external {... */\n    tag_74:\n        /* \"Vendor.sol\":3744:3750  _payee */\n      dup1\n        /* \"Vendor.sol\":3728:3733  payee */\n      0x02\n      0x00\n        /* \"Vendor.sol\":3728:3751  payee = payable(_payee) */\n      0x0100\n      exp\n      dup2\n      sload\n      dup2\n      0xffffffffffffffffffffffffffffffffffffffff\n      mul\n      not\n      and\n      swap1\n      dup4\n      0xffffffffffffffffffffffffffffffffffffffff\n      and\n      mul\n      or\n      swap1\n      sstore\n      pop\n        /* \"Vendor.sol\":3675:3758  function setPayee(address _payee) external {... */\n      pop\n      jump\t// out\n        /* \"Vendor.sol\":434:461  uint public nextBillingDate */\n    tag_77:\n      sload(0x07)\n      dup2\n      jump\t// out\n        /* \"Vendor.sol\":729:751  string[8] public names */\n    tag_83:\n      0x0a\n      dup2\n      0x08\n      dup2\n      lt\n      tag_225\n      jumpi\n      0x00\n      dup1\n      revert\n    tag_225:\n      add\n      0x00\n      swap2\n      pop\n      swap1\n      pop\n      dup1\n      sload\n      tag_227\n      swap1\n      tag_228\n      jump\t// in\n    tag_227:\n      dup1\n      0x1f\n      add\n      0x20\n      dup1\n      swap2\n      div\n      mul\n      0x20\n      add\n      mload(0x40)\n      swap1\n      dup2\n      add\n      0x40\n      mstore\n      dup1\n      swap3\n      swap2\n      swap1\n      dup2\n      dup2\n      mstore\n      0x20\n      add\n      dup3\n      dup1\n      sload\n      tag_229\n      swap1\n      tag_228\n      jump\t// in\n    tag_229:\n      dup1\n      iszero\n      tag_230\n      jumpi\n      dup1\n      0x1f\n      lt\n      tag_231\n      jumpi\n      0x0100\n      dup1\n      dup4\n      sload\n      div\n      mul\n      dup4\n      mstore\n      swap2\n      0x20\n      add\n      swap2\n      jump(tag_230)\n    tag_231:\n      dup3\n      add\n      swap2\n      swap1\n      0x00\n      mstore\n      keccak256(0x00, 0x20)\n      swap1\n    tag_232:\n      dup2\n      sload\n      dup2\n      mstore\n      swap1\n      0x01\n      add\n      swap1\n      0x20\n      add\n      dup1\n      dup4\n      gt\n      tag_232\n      jumpi\n      dup3\n      swap1\n      sub\n      0x1f\n      and\n      dup3\n      add\n      swap2\n    tag_230:\n      pop\n      pop\n      pop\n      pop\n      pop\n      dup2\n      jump\t// out\n        /* \"Vendor.sol\":349:371  uint public expiryDate */\n    tag_88:\n      sload(0x04)\n      dup2\n      jump\t// out\n        /* \"Vendor.sol\":757:777  int[8] public values */\n    tag_93:\n      0x12\n      dup2\n      0x08\n      dup2\n      lt\n      tag_233\n      jumpi\n      0x00\n      dup1\n      revert\n    tag_233:\n      add\n      0x00\n      swap2\n      pop\n      swap1\n      pop\n      sload\n      dup2\n      jump\t// out\n        /* \"Vendor.sol\":5158:5253  function balanceOf() external view returns (uint) {... */\n    tag_98:\n        /* \"Vendor.sol\":5202:5206  uint */\n      0x00\n        /* \"Vendor.sol\":5225:5246  address(this).balance */\n      selfbalance\n        /* \"Vendor.sol\":5218:5246  return address(this).balance */\n      swap1\n      pop\n        /* \"Vendor.sol\":5158:5253  function balanceOf() external view returns (uint) {... */\n      swap1\n      jump\t// out\n        /* \"Vendor.sol\":9119:9212  function setActive() external atStage(Stages.Inactive) {... */\n    tag_102:\n        /* \"Vendor.sol\":9157:9172  Stages.Inactive */\n      0x02\n        /* \"Vendor.sol\":10296:10349  Log(\"inside atStage, current stage is:\", uint(stage)) */\n      0xdd970dd9b5bfe707922155b058a407655cb18288b807e2216442bca8ad83d6b5\n        /* \"Vendor.sol\":10342:10347  stage */\n      0x09\n      0x00\n      swap1\n      sload\n      swap1\n      0x0100\n      exp\n      swap1\n      div\n      0xff\n      and\n        /* \"Vendor.sol\":10337:10348  uint(stage) */\n      0x04\n      dup2\n      gt\n      iszero\n      tag_237\n      jumpi\n      tag_238\n      tag_170\n      jump\t// in\n    tag_238:\n    tag_237:\n        /* \"Vendor.sol\":10296:10349  Log(\"inside atStage, current stage is:\", uint(stage)) */\n      mload(0x40)\n      tag_239\n      swap2\n      swap1\n      tag_172\n      jump\t// in\n    tag_239:\n      mload(0x40)\n      dup1\n      swap2\n      sub\n      swap1\n      log1\n        /* \"Vendor.sol\":10364:10431  Log(\"still inside atStage, trying to compare it to:\", uint(_stage)) */\n      0xdd970dd9b5bfe707922155b058a407655cb18288b807e2216442bca8ad83d6b5\n        /* \"Vendor.sol\":10423:10429  _stage */\n      dup2\n        /* \"Vendor.sol\":10418:10430  uint(_stage) */\n      0x04\n      dup2\n      gt\n      iszero\n      tag_240\n      jumpi\n      tag_241\n      tag_170\n      jump\t// in\n    tag_241:\n    tag_240:\n        /* \"Vendor.sol\":10364:10431  Log(\"still inside atStage, trying to compare it to:\", uint(_stage)) */\n      mload(0x40)\n      tag_242\n      swap2\n      swap1\n      tag_176\n      jump\t// in\n    tag_242:\n      mload(0x40)\n      dup1\n      swap2\n      sub\n      swap1\n      log1\n        /* \"Vendor.sol\":10469:10475  _stage */\n      dup1\n        /* \"Vendor.sol\":10464:10476  uint(_stage) */\n      0x04\n      dup2\n      gt\n      iszero\n      tag_243\n      jumpi\n      tag_244\n      tag_170\n      jump\t// in\n    tag_244:\n    tag_243:\n        /* \"Vendor.sol\":10454:10459  stage */\n      0x09\n      0x00\n      swap1\n      sload\n      swap1\n      0x0100\n      exp\n      swap1\n      div\n      0xff\n      and\n        /* \"Vendor.sol\":10449:10460  uint(stage) */\n      0x04\n      dup2\n      gt\n      iszero\n      tag_245\n      jumpi\n      tag_246\n      tag_170\n      jump\t// in\n    tag_246:\n    tag_245:\n        /* \"Vendor.sol\":10449:10476  uint(stage) == uint(_stage) */\n      eq\n        /* \"Vendor.sol\":10441:10518  require(uint(stage) == uint(_stage), \"Contract is not in the required state\") */\n      tag_247\n      jumpi\n      mload(0x40)\n      0x08c379a000000000000000000000000000000000000000000000000000000000\n      dup2\n      mstore\n      0x04\n      add\n      tag_248\n      swap1\n      tag_183\n      jump\t// in\n    tag_248:\n      mload(0x40)\n      dup1\n      swap2\n      sub\n      swap1\n      revert\n    tag_247:\n        /* \"Vendor.sol\":9192:9205  Stages.Active */\n      0x03\n        /* \"Vendor.sol\":9184:9189  stage */\n      0x09\n      0x00\n        /* \"Vendor.sol\":9184:9205  stage = Stages.Active */\n      0x0100\n      exp\n      dup2\n      sload\n      dup2\n      0xff\n      mul\n      not\n      and\n      swap1\n      dup4\n      0x04\n      dup2\n      gt\n      iszero\n      tag_250\n      jumpi\n      tag_251\n      tag_170\n      jump\t// in\n    tag_251:\n    tag_250:\n      mul\n      or\n      swap1\n      sstore\n      pop\n        /* \"Vendor.sol\":9119:9212  function setActive() external atStage(Stages.Inactive) {... */\n      pop\n      jump\t// out\n        /* \"Vendor.sol\":9319:9409  function destroy() external atStage(Stages.Inactive) {... */\n    tag_105:\n        /* \"Vendor.sol\":9355:9370  Stages.Inactive */\n      0x02\n        /* \"Vendor.sol\":10296:10349  Log(\"inside atStage, current stage is:\", uint(stage)) */\n      0xdd970dd9b5bfe707922155b058a407655cb18288b807e2216442bca8ad83d6b5\n        /* \"Vendor.sol\":10342:10347  stage */\n      0x09\n      0x00\n      swap1\n      sload\n      swap1\n      0x0100\n      exp\n      swap1\n      div\n      0xff\n      and\n        /* \"Vendor.sol\":10337:10348  uint(stage) */\n      0x04\n      dup2\n      gt\n      iszero\n      tag_253\n      jumpi\n      tag_254\n      tag_170\n      jump\t// in\n    tag_254:\n    tag_253:\n        /* \"Vendor.sol\":10296:10349  Log(\"inside atStage, current stage is:\", uint(stage)) */\n      mload(0x40)\n      tag_255\n      swap2\n      swap1\n      tag_172\n      jump\t// in\n    tag_255:\n      mload(0x40)\n      dup1\n      swap2\n      sub\n      swap1\n      log1\n        /* \"Vendor.sol\":10364:10431  Log(\"still inside atStage, trying to compare it to:\", uint(_stage)) */\n      0xdd970dd9b5bfe707922155b058a407655cb18288b807e2216442bca8ad83d6b5\n        /* \"Vendor.sol\":10423:10429  _stage */\n      dup2\n        /* \"Vendor.sol\":10418:10430  uint(_stage) */\n      0x04\n      dup2\n      gt\n      iszero\n      tag_256\n      jumpi\n      tag_257\n      tag_170\n      jump\t// in\n    tag_257:\n    tag_256:\n        /* \"Vendor.sol\":10364:10431  Log(\"still inside atStage, trying to compare it to:\", uint(_stage)) */\n      mload(0x40)\n      tag_258\n      swap2\n      swap1\n      tag_176\n      jump\t// in\n    tag_258:\n      mload(0x40)\n      dup1\n      swap2\n      sub\n      swap1\n      log1\n        /* \"Vendor.sol\":10469:10475  _stage */\n      dup1\n        /* \"Vendor.sol\":10464:10476  uint(_stage) */\n      0x04\n      dup2\n      gt\n      iszero\n      tag_259\n      jumpi\n      tag_260\n      tag_170\n      jump\t// in\n    tag_260:\n    tag_259:\n        /* \"Vendor.sol\":10454:10459  stage */\n      0x09\n      0x00\n      swap1\n      sload\n      swap1\n      0x0100\n      exp\n      swap1\n      div\n      0xff\n      and\n        /* \"Vendor.sol\":10449:10460  uint(stage) */\n      0x04\n      dup2\n      gt\n      iszero\n      tag_261\n      jumpi\n      tag_262\n      tag_170\n      jump\t// in\n    tag_262:\n    tag_261:\n        /* \"Vendor.sol\":10449:10476  uint(stage) == uint(_stage) */\n      eq\n        /* \"Vendor.sol\":10441:10518  require(uint(stage) == uint(_stage), \"Contract is not in the required state\") */\n      tag_263\n      jumpi\n      mload(0x40)\n      0x08c379a000000000000000000000000000000000000000000000000000000000\n      dup2\n      mstore\n      0x04\n      add\n      tag_264\n      swap1\n      tag_183\n      jump\t// in\n    tag_264:\n      mload(0x40)\n      dup1\n      swap2\n      sub\n      swap1\n      revert\n    tag_263:\n        /* \"Vendor.sol\":9395:9401  client */\n      0x01\n      0x00\n      swap1\n      sload\n      swap1\n      0x0100\n      exp\n      swap1\n      div\n      0xffffffffffffffffffffffffffffffffffffffff\n      and\n        /* \"Vendor.sol\":9382:9402  selfdestruct(client) */\n      0xffffffffffffffffffffffffffffffffffffffff\n      and\n      selfdestruct\n        /* \"Vendor.sol\":4974:5152  function storePayment() external payable atStage(Stages.Active) checkBillingDate() {... */\n    tag_107:\n        /* \"Vendor.sol\":5023:5036  Stages.Active */\n      0x03\n        /* \"Vendor.sol\":10296:10349  Log(\"inside atStage, current stage is:\", uint(stage)) */\n      0xdd970dd9b5bfe707922155b058a407655cb18288b807e2216442bca8ad83d6b5\n        /* \"Vendor.sol\":10342:10347  stage */\n      0x09\n      0x00\n      swap1\n      sload\n      swap1\n      0x0100\n      exp\n      swap1\n      div\n      0xff\n      and\n        /* \"Vendor.sol\":10337:10348  uint(stage) */\n      0x04\n      dup2\n      gt\n      iszero\n      tag_267\n      jumpi\n      tag_268\n      tag_170\n      jump\t// in\n    tag_268:\n    tag_267:\n        /* \"Vendor.sol\":10296:10349  Log(\"inside atStage, current stage is:\", uint(stage)) */\n      mload(0x40)\n      tag_269\n      swap2\n      swap1\n      tag_172\n      jump\t// in\n    tag_269:\n      mload(0x40)\n      dup1\n      swap2\n      sub\n      swap1\n      log1\n        /* \"Vendor.sol\":10364:10431  Log(\"still inside atStage, trying to compare it to:\", uint(_stage)) */\n      0xdd970dd9b5bfe707922155b058a407655cb18288b807e2216442bca8ad83d6b5\n        /* \"Vendor.sol\":10423:10429  _stage */\n      dup2\n        /* \"Vendor.sol\":10418:10430  uint(_stage) */\n      0x04\n      dup2\n      gt\n      iszero\n      tag_270\n      jumpi\n      tag_271\n      tag_170\n      jump\t// in\n    tag_271:\n    tag_270:\n        /* \"Vendor.sol\":10364:10431  Log(\"still inside atStage, trying to compare it to:\", uint(_stage)) */\n      mload(0x40)\n      tag_272\n      swap2\n      swap1\n      tag_176\n      jump\t// in\n    tag_272:\n      mload(0x40)\n      dup1\n      swap2\n      sub\n      swap1\n      log1\n        /* \"Vendor.sol\":10469:10475  _stage */\n      dup1\n        /* \"Vendor.sol\":10464:10476  uint(_stage) */\n      0x04\n      dup2\n      gt\n      iszero\n      tag_273\n      jumpi\n      tag_274\n      tag_170\n      jump\t// in\n    tag_274:\n    tag_273:\n        /* \"Vendor.sol\":10454:10459  stage */\n      0x09\n      0x00\n      swap1\n      sload\n      swap1\n      0x0100\n      exp\n      swap1\n      div\n      0xff\n      and\n        /* \"Vendor.sol\":10449:10460  uint(stage) */\n      0x04\n      dup2\n      gt\n      iszero\n      tag_275\n      jumpi\n      tag_276\n      tag_170\n      jump\t// in\n    tag_276:\n    tag_275:\n        /* \"Vendor.sol\":10449:10476  uint(stage) == uint(_stage) */\n      eq\n        /* \"Vendor.sol\":10441:10518  require(uint(stage) == uint(_stage), \"Contract is not in the required state\") */\n      tag_277\n      jumpi\n      mload(0x40)\n      0x08c379a000000000000000000000000000000000000000000000000000000000\n      dup2\n      mstore\n      0x04\n      add\n      tag_278\n      swap1\n      tag_183\n      jump\t// in\n    tag_278:\n      mload(0x40)\n      dup1\n      swap2\n      sub\n      swap1\n      revert\n    tag_277:\n        /* \"Vendor.sol\":9818:9833  nextBillingDate */\n      sload(0x07)\n        /* \"Vendor.sol\":9803:9815  block.number */\n      number\n        /* \"Vendor.sol\":9803:9833  block.number > nextBillingDate */\n      gt\n        /* \"Vendor.sol\":9799:10027  if (block.number > nextBillingDate) {... */\n      iszero\n      tag_280\n      jumpi\n        /* \"Vendor.sol\":9849:9862  isSatisfied() */\n      tag_281\n        /* \"Vendor.sol\":9849:9860  isSatisfied */\n      tag_126\n        /* \"Vendor.sol\":9849:9862  isSatisfied() */\n      jump\t// in\n    tag_281:\n        /* \"Vendor.sol\":9799:10027  if (block.number > nextBillingDate) {... */\n      jump(tag_282)\n    tag_280:\n        /* \"Vendor.sol\":9917:9932  prevBillingDate */\n      sload(0x06)\n        /* \"Vendor.sol\":9901:9913  block.number */\n      number\n        /* \"Vendor.sol\":9901:9932  block.number >= prevBillingDate */\n      lt\n      iszero\n        /* \"Vendor.sol\":9901:9967  block.number >= prevBillingDate && block.number <= nextBillingDate */\n      dup1\n      iszero\n      tag_283\n      jumpi\n      pop\n        /* \"Vendor.sol\":9952:9967  nextBillingDate */\n      sload(0x07)\n        /* \"Vendor.sol\":9936:9948  block.number */\n      number\n        /* \"Vendor.sol\":9936:9967  block.number <= nextBillingDate */\n      gt\n      iszero\n        /* \"Vendor.sol\":9901:9967  block.number >= prevBillingDate && block.number <= nextBillingDate */\n    tag_283:\n        /* \"Vendor.sol\":9893:10001  require(block.number >= prevBillingDate && block.number <= nextBillingDate, \"Not within the billing period\") */\n      tag_284\n      jumpi\n      mload(0x40)\n      0x08c379a000000000000000000000000000000000000000000000000000000000\n      dup2\n      mstore\n      0x04\n      add\n      tag_285\n      swap1\n      tag_210\n      jump\t// in\n    tag_285:\n      mload(0x40)\n      dup1\n      swap2\n      sub\n      swap1\n      revert\n    tag_284:\n        /* \"Vendor.sol\":5084:5090  amount */\n      sload(0x05)\n        /* \"Vendor.sol\":5071:5080  msg.value */\n      callvalue\n        /* \"Vendor.sol\":5071:5090  msg.value != amount */\n      eq\n        /* \"Vendor.sol\":5067:5125  if (msg.value != amount) {... */\n      tag_287\n      jumpi\n        /* \"Vendor.sol\":5106:5114  revert() */\n      0x00\n      dup1\n      revert\n        /* \"Vendor.sol\":5067:5125  if (msg.value != amount) {... */\n    tag_287:\n        /* \"Vendor.sol\":5141:5145  true */\n      0x01\n        /* \"Vendor.sol\":5134:5138  paid */\n      0x02\n      0x15\n        /* \"Vendor.sol\":5134:5145  paid = true */\n      0x0100\n      exp\n      dup2\n      sload\n      dup2\n      0xff\n      mul\n      not\n      and\n      swap1\n      dup4\n      iszero\n      iszero\n      mul\n      or\n      swap1\n      sstore\n      pop\n        /* \"Vendor.sol\":9799:10027  if (block.number > nextBillingDate) {... */\n    tag_282:\n        /* \"Vendor.sol\":4974:5152  function storePayment() external payable atStage(Stages.Active) checkBillingDate() {... */\n      pop\n      jump\t// out\n        /* \"Vendor.sol\":467:491  uint public contractHash */\n    tag_110:\n      sload(0x08)\n      dup2\n      jump\t// out\n        /* \"Vendor.sol\":3764:4064  function endInitStage() public atStage(Stages.Initialising) {... */\n    tag_114:\n        /* \"Vendor.sol\":3803:3822  Stages.Initialising */\n      0x00\n        /* \"Vendor.sol\":10296:10349  Log(\"inside atStage, current stage is:\", uint(stage)) */\n      0xdd970dd9b5bfe707922155b058a407655cb18288b807e2216442bca8ad83d6b5\n        /* \"Vendor.sol\":10342:10347  stage */\n      0x09\n      0x00\n      swap1\n      sload\n      swap1\n      0x0100\n      exp\n      swap1\n      div\n      0xff\n      and\n        /* \"Vendor.sol\":10337:10348  uint(stage) */\n      0x04\n      dup2\n      gt\n      iszero\n      tag_289\n      jumpi\n      tag_290\n      tag_170\n      jump\t// in\n    tag_290:\n    tag_289:\n        /* \"Vendor.sol\":10296:10349  Log(\"inside atStage, current stage is:\", uint(stage)) */\n      mload(0x40)\n      tag_291\n      swap2\n      swap1\n      tag_172\n      jump\t// in\n    tag_291:\n      mload(0x40)\n      dup1\n      swap2\n      sub\n      swap1\n      log1\n        /* \"Vendor.sol\":10364:10431  Log(\"still inside atStage, trying to compare it to:\", uint(_stage)) */\n      0xdd970dd9b5bfe707922155b058a407655cb18288b807e2216442bca8ad83d6b5\n        /* \"Vendor.sol\":10423:10429  _stage */\n      dup2\n        /* \"Vendor.sol\":10418:10430  uint(_stage) */\n      0x04\n      dup2\n      gt\n      iszero\n      tag_292\n      jumpi\n      tag_293\n      tag_170\n      jump\t// in\n    tag_293:\n    tag_292:\n        /* \"Vendor.sol\":10364:10431  Log(\"still inside atStage, trying to compare it to:\", uint(_stage)) */\n      mload(0x40)\n      tag_294\n      swap2\n      swap1\n      tag_176\n      jump\t// in\n    tag_294:\n      mload(0x40)\n      dup1\n      swap2\n      sub\n      swap1\n      log1\n        /* \"Vendor.sol\":10469:10475  _stage */\n      dup1\n        /* \"Vendor.sol\":10464:10476  uint(_stage) */\n      0x04\n      dup2\n      gt\n      iszero\n      tag_295\n      jumpi\n      tag_296\n      tag_170\n      jump\t// in\n    tag_296:\n    tag_295:\n        /* \"Vendor.sol\":10454:10459  stage */\n      0x09\n      0x00\n      swap1\n      sload\n      swap1\n      0x0100\n      exp\n      swap1\n      div\n      0xff\n      and\n        /* \"Vendor.sol\":10449:10460  uint(stage) */\n      0x04\n      dup2\n      gt\n      iszero\n      tag_297\n      jumpi\n      tag_298\n      tag_170\n      jump\t// in\n    tag_298:\n    tag_297:\n        /* \"Vendor.sol\":10449:10476  uint(stage) == uint(_stage) */\n      eq\n        /* \"Vendor.sol\":10441:10518  require(uint(stage) == uint(_stage), \"Contract is not in the required state\") */\n      tag_299\n      jumpi\n      mload(0x40)\n      0x08c379a000000000000000000000000000000000000000000000000000000000\n      dup2\n      mstore\n      0x04\n      add\n      tag_300\n      swap1\n      tag_183\n      jump\t// in\n    tag_300:\n      mload(0x40)\n      dup1\n      swap2\n      sub\n      swap1\n      revert\n    tag_299:\n        /* \"Vendor.sol\":3839:3897  Log(\"inside endInitStage, current stage is:\", uint(stage)) */\n      0xdd970dd9b5bfe707922155b058a407655cb18288b807e2216442bca8ad83d6b5\n        /* \"Vendor.sol\":3890:3895  stage */\n      0x09\n      0x00\n      swap1\n      sload\n      swap1\n      0x0100\n      exp\n      swap1\n      div\n      0xff\n      and\n        /* \"Vendor.sol\":3885:3896  uint(stage) */\n      0x04\n      dup2\n      gt\n      iszero\n      tag_302\n      jumpi\n      tag_303\n      tag_170\n      jump\t// in\n    tag_303:\n    tag_302:\n        /* \"Vendor.sol\":3839:3897  Log(\"inside endInitStage, current stage is:\", uint(stage)) */\n      mload(0x40)\n      tag_304\n      swap2\n      swap1\n      tag_305\n      jump\t// in\n    tag_304:\n      mload(0x40)\n      dup1\n      swap2\n      sub\n      swap1\n      log1\n        /* \"Vendor.sol\":3915:3929  Stages.Pending */\n      0x01\n        /* \"Vendor.sol\":3907:3912  stage */\n      0x09\n      0x00\n        /* \"Vendor.sol\":3907:3929  stage = Stages.Pending */\n      0x0100\n      exp\n      dup2\n      sload\n      dup2\n      0xff\n      mul\n      not\n      and\n      swap1\n      dup4\n      0x04\n      dup2\n      gt\n      iszero\n      tag_306\n      jumpi\n      tag_307\n      tag_170\n      jump\t// in\n    tag_307:\n    tag_306:\n      mul\n      or\n      swap1\n      sstore\n      pop\n        /* \"Vendor.sol\":3992:3998  uint i */\n      0x00\n        /* \"Vendor.sol\":3987:4058  for (uint i = 0; i < 8; i++) {... */\n    tag_308:\n        /* \"Vendor.sol\":4008:4009  8 */\n      0x08\n        /* \"Vendor.sol\":4004:4005  i */\n      dup2\n        /* \"Vendor.sol\":4004:4009  i < 8 */\n      lt\n        /* \"Vendor.sol\":3987:4058  for (uint i = 0; i < 8; i++) {... */\n      iszero\n      tag_309\n      jumpi\n        /* \"Vendor.sol\":4046:4047  0 */\n      0x00\n        /* \"Vendor.sol\":4030:4040  cumulative */\n      0x24\n        /* \"Vendor.sol\":4030:4043  cumulative[i] */\n      0x00\n        /* \"Vendor.sol\":4041:4042  i */\n      dup4\n        /* \"Vendor.sol\":4030:4043  cumulative[i] */\n      dup2\n      mstore\n      0x20\n      add\n      swap1\n      dup2\n      mstore\n      0x20\n      add\n      0x00\n      keccak256\n        /* \"Vendor.sol\":4030:4047  cumulative[i] = 0 */\n      dup2\n      swap1\n      sstore\n      pop\n        /* \"Vendor.sol\":4011:4014  i++ */\n      dup1\n      dup1\n      tag_311\n      swap1\n      tag_221\n      jump\t// in\n    tag_311:\n      swap2\n      pop\n      pop\n        /* \"Vendor.sol\":3987:4058  for (uint i = 0; i < 8; i++) {... */\n      jump(tag_308)\n    tag_309:\n      pop\n        /* \"Vendor.sol\":3764:4064  function endInitStage() public atStage(Stages.Initialising) {... */\n      pop\n      jump\t// out\n        /* \"Vendor.sol\":268:293  bool public payeeApproved */\n    tag_117:\n      0x02\n      0x14\n      swap1\n      sload\n      swap1\n      0x0100\n      exp\n      swap1\n      div\n      0xff\n      and\n      dup2\n      jump\t// out\n        /* \"Vendor.sol\":1993:2434  function init(address _client, uint _expiredOn, uint _startDate, uint _contractHash, uint _amount) public {... */\n    tag_123:\n        /* \"Vendor.sol\":2117:2127  msg.sender */\n      caller\n        /* \"Vendor.sol\":2109:2114  admin */\n      0x00\n      dup1\n        /* \"Vendor.sol\":2109:2127  admin = msg.sender */\n      0x0100\n      exp\n      dup2\n      sload\n      dup2\n      0xffffffffffffffffffffffffffffffffffffffff\n      mul\n      not\n      and\n      swap1\n      dup4\n      0xffffffffffffffffffffffffffffffffffffffff\n      and\n      mul\n      or\n      swap1\n      sstore\n      pop\n        /* \"Vendor.sol\":2154:2161  _client */\n      dup5\n        /* \"Vendor.sol\":2137:2143  client */\n      0x01\n      0x00\n        /* \"Vendor.sol\":2137:2162  client = payable(_client) */\n      0x0100\n      exp\n      dup2\n      sload\n      dup2\n      0xffffffffffffffffffffffffffffffffffffffff\n      mul\n      not\n      and\n      swap1\n      dup4\n      0xffffffffffffffffffffffffffffffffffffffff\n      and\n      mul\n      or\n      swap1\n      sstore\n      pop\n        /* \"Vendor.sol\":2185:2205  calcDate(_expiredOn) */\n      tag_313\n        /* \"Vendor.sol\":2194:2204  _expiredOn */\n      dup5\n        /* \"Vendor.sol\":2185:2193  calcDate */\n      tag_314\n        /* \"Vendor.sol\":2185:2205  calcDate(_expiredOn) */\n      jump\t// in\n    tag_313:\n        /* \"Vendor.sol\":2172:2182  expiryDate */\n      0x04\n        /* \"Vendor.sol\":2172:2205  expiryDate = calcDate(_expiredOn) */\n      dup2\n      swap1\n      sstore\n      pop\n        /* \"Vendor.sol\":2227:2237  _startDate */\n      dup3\n        /* \"Vendor.sol\":2215:2224  startDate */\n      0x03\n        /* \"Vendor.sol\":2215:2237  startDate = _startDate */\n      dup2\n      swap1\n      sstore\n      pop\n        /* \"Vendor.sol\":2265:2285  calcDate(_startDate) */\n      tag_315\n        /* \"Vendor.sol\":2274:2284  _startDate */\n      dup4\n        /* \"Vendor.sol\":2265:2273  calcDate */\n      tag_314\n        /* \"Vendor.sol\":2265:2285  calcDate(_startDate) */\n      jump\t// in\n    tag_315:\n        /* \"Vendor.sol\":2247:2262  prevBillingDate */\n      0x06\n        /* \"Vendor.sol\":2247:2285  prevBillingDate = calcDate(_startDate) */\n      dup2\n      swap1\n      sstore\n      pop\n        /* \"Vendor.sol\":2313:2338  calcDate(_startDate + 30) */\n      tag_316\n        /* \"Vendor.sol\":2335:2337  30 */\n      0x1e\n        /* \"Vendor.sol\":2322:2332  _startDate */\n      dup5\n        /* \"Vendor.sol\":2322:2337  _startDate + 30 */\n      tag_317\n      swap2\n      swap1\n      tag_318\n      jump\t// in\n    tag_317:\n        /* \"Vendor.sol\":2313:2321  calcDate */\n      tag_314\n        /* \"Vendor.sol\":2313:2338  calcDate(_startDate + 30) */\n      jump\t// in\n    tag_316:\n        /* \"Vendor.sol\":2295:2310  nextBillingDate */\n      0x07\n        /* \"Vendor.sol\":2295:2338  nextBillingDate = calcDate(_startDate + 30) */\n      dup2\n      swap1\n      sstore\n      pop\n        /* \"Vendor.sol\":2363:2376  _contractHash */\n      dup2\n        /* \"Vendor.sol\":2348:2360  contractHash */\n      0x08\n        /* \"Vendor.sol\":2348:2376  contractHash = _contractHash */\n      dup2\n      swap1\n      sstore\n      pop\n        /* \"Vendor.sol\":2395:2402  _amount */\n      dup1\n        /* \"Vendor.sol\":2386:2392  amount */\n      0x05\n        /* \"Vendor.sol\":2386:2402  amount = _amount */\n      dup2\n      swap1\n      sstore\n      pop\n        /* \"Vendor.sol\":2412:2427  initOperators() */\n      tag_319\n        /* \"Vendor.sol\":2412:2425  initOperators */\n      tag_320\n        /* \"Vendor.sol\":2412:2427  initOperators() */\n      jump\t// in\n    tag_319:\n        /* \"Vendor.sol\":1993:2434  function init(address _client, uint _expiredOn, uint _startDate, uint _contractHash, uint _amount) public {... */\n      pop\n      pop\n      pop\n      pop\n      pop\n      jump\t// out\n        /* \"Vendor.sol\":6567:7178  function isSatisfied() public atStage(Stages.Active) {... */\n    tag_126:\n        /* \"Vendor.sol\":6605:6618  Stages.Active */\n      0x03\n        /* \"Vendor.sol\":10296:10349  Log(\"inside atStage, current stage is:\", uint(stage)) */\n      0xdd970dd9b5bfe707922155b058a407655cb18288b807e2216442bca8ad83d6b5\n        /* \"Vendor.sol\":10342:10347  stage */\n      0x09\n      0x00\n      swap1\n      sload\n      swap1\n      0x0100\n      exp\n      swap1\n      div\n      0xff\n      and\n        /* \"Vendor.sol\":10337:10348  uint(stage) */\n      0x04\n      dup2\n      gt\n      iszero\n      tag_322\n      jumpi\n      tag_323\n      tag_170\n      jump\t// in\n    tag_323:\n    tag_322:\n        /* \"Vendor.sol\":10296:10349  Log(\"inside atStage, current stage is:\", uint(stage)) */\n      mload(0x40)\n      tag_324\n      swap2\n      swap1\n      tag_172\n      jump\t// in\n    tag_324:\n      mload(0x40)\n      dup1\n      swap2\n      sub\n      swap1\n      log1\n        /* \"Vendor.sol\":10364:10431  Log(\"still inside atStage, trying to compare it to:\", uint(_stage)) */\n      0xdd970dd9b5bfe707922155b058a407655cb18288b807e2216442bca8ad83d6b5\n        /* \"Vendor.sol\":10423:10429  _stage */\n      dup2\n        /* \"Vendor.sol\":10418:10430  uint(_stage) */\n      0x04\n      dup2\n      gt\n      iszero\n      tag_325\n      jumpi\n      tag_326\n      tag_170\n      jump\t// in\n    tag_326:\n    tag_325:\n        /* \"Vendor.sol\":10364:10431  Log(\"still inside atStage, trying to compare it to:\", uint(_stage)) */\n      mload(0x40)\n      tag_327\n      swap2\n      swap1\n      tag_176\n      jump\t// in\n    tag_327:\n      mload(0x40)\n      dup1\n      swap2\n      sub\n      swap1\n      log1\n        /* \"Vendor.sol\":10469:10475  _stage */\n      dup1\n        /* \"Vendor.sol\":10464:10476  uint(_stage) */\n      0x04\n      dup2\n      gt\n      iszero\n      tag_328\n      jumpi\n      tag_329\n      tag_170\n      jump\t// in\n    tag_329:\n    tag_328:\n        /* \"Vendor.sol\":10454:10459  stage */\n      0x09\n      0x00\n      swap1\n      sload\n      swap1\n      0x0100\n      exp\n      swap1\n      div\n      0xff\n      and\n        /* \"Vendor.sol\":10449:10460  uint(stage) */\n      0x04\n      dup2\n      gt\n      iszero\n      tag_330\n      jumpi\n      tag_331\n      tag_170\n      jump\t// in\n    tag_331:\n    tag_330:\n        /* \"Vendor.sol\":10449:10476  uint(stage) == uint(_stage) */\n      eq\n        /* \"Vendor.sol\":10441:10518  require(uint(stage) == uint(_stage), \"Contract is not in the required state\") */\n      tag_332\n      jumpi\n      mload(0x40)\n      0x08c379a000000000000000000000000000000000000000000000000000000000\n      dup2\n      mstore\n      0x04\n      add\n      tag_333\n      swap1\n      tag_183\n      jump\t// in\n    tag_333:\n      mload(0x40)\n      dup1\n      swap2\n      sub\n      swap1\n      revert\n    tag_332:\n        /* \"Vendor.sol\":6635:6641  uint i */\n      0x00\n        /* \"Vendor.sol\":6630:7014  for (uint i = 0; i < conditionCount; i++) {... */\n    tag_335:\n        /* \"Vendor.sol\":6651:6665  conditionCount */\n      sload(0x23)\n        /* \"Vendor.sol\":6647:6648  i */\n      dup2\n        /* \"Vendor.sol\":6647:6665  i < conditionCount */\n      lt\n        /* \"Vendor.sol\":6630:7014  for (uint i = 0; i < conditionCount; i++) {... */\n      iszero\n      tag_336\n      jumpi\n        /* \"Vendor.sol\":6686:6698  int operator */\n      0x00\n        /* \"Vendor.sol\":6701:6710  operators */\n      0x1a\n        /* \"Vendor.sol\":6711:6712  i */\n      dup3\n        /* \"Vendor.sol\":6701:6713  operators[i] */\n      0x08\n      dup2\n      lt\n      tag_338\n      jumpi\n      tag_339\n      tag_217\n      jump\t// in\n    tag_339:\n    tag_338:\n      add\n      sload\n        /* \"Vendor.sol\":6686:6713  int operator = operators[i] */\n      swap1\n      pop\n        /* \"Vendor.sol\":6727:6736  int value */\n      0x00\n        /* \"Vendor.sol\":6739:6745  values */\n      0x12\n        /* \"Vendor.sol\":6746:6747  i */\n      dup4\n        /* \"Vendor.sol\":6739:6748  values[i] */\n      0x08\n      dup2\n      lt\n      tag_341\n      jumpi\n      tag_342\n      tag_217\n      jump\t// in\n    tag_342:\n    tag_341:\n      add\n      sload\n        /* \"Vendor.sol\":6727:6748  int value = values[i] */\n      swap1\n      pop\n        /* \"Vendor.sol\":6762:6774  int _toCheck */\n      0x00\n        /* \"Vendor.sol\":6791:6796  count */\n      sload(0x25)\n        /* \"Vendor.sol\":6777:6787  cumulative */\n      0x24\n        /* \"Vendor.sol\":6777:6790  cumulative[i] */\n      0x00\n        /* \"Vendor.sol\":6788:6789  i */\n      dup7\n        /* \"Vendor.sol\":6777:6790  cumulative[i] */\n      dup2\n      mstore\n      0x20\n      add\n      swap1\n      dup2\n      mstore\n      0x20\n      add\n      0x00\n      keccak256\n      sload\n        /* \"Vendor.sol\":6777:6796  cumulative[i]/count */\n      tag_344\n      swap2\n      swap1\n      tag_345\n      jump\t// in\n    tag_344:\n        /* \"Vendor.sol\":6762:6796  int _toCheck = cumulative[i]/count */\n      swap1\n      pop\n        /* \"Vendor.sol\":6828:6864  condValid(operator, _toCheck, value) */\n      tag_346\n        /* \"Vendor.sol\":6838:6846  operator */\n      dup4\n        /* \"Vendor.sol\":6848:6856  _toCheck */\n      dup3\n        /* \"Vendor.sol\":6858:6863  value */\n      dup5\n        /* \"Vendor.sol\":6828:6837  condValid */\n      tag_347\n        /* \"Vendor.sol\":6828:6864  condValid(operator, _toCheck, value) */\n      jump\t// in\n    tag_346:\n        /* \"Vendor.sol\":6823:7004  if (!condValid(operator, _toCheck, value)) {... */\n      tag_348\n      jumpi\n        /* \"Vendor.sol\":6884:6892  refund() */\n      tag_349\n        /* \"Vendor.sol\":6884:6890  refund */\n      tag_350\n        /* \"Vendor.sol\":6884:6892  refund() */\n      jump\t// in\n    tag_349:\n        /* \"Vendor.sol\":6921:6931  msg.sender */\n      caller\n        /* \"Vendor.sol\":6915:6965  State(msg.sender, satisfied, \"Refunding payment.\") */\n      0xffffffffffffffffffffffffffffffffffffffff\n      and\n      0xa84226bf2d14bde3fac454f52eaeab63aaeb1934da88f9263dd4ff7dd12acf71\n        /* \"Vendor.sol\":6933:6942  satisfied */\n      0x09\n      0x01\n      swap1\n      sload\n      swap1\n      0x0100\n      exp\n      swap1\n      div\n      0xff\n      and\n        /* \"Vendor.sol\":6915:6965  State(msg.sender, satisfied, \"Refunding payment.\") */\n      mload(0x40)\n      tag_351\n      swap2\n      swap1\n      tag_352\n      jump\t// in\n    tag_351:\n      mload(0x40)\n      dup1\n      swap2\n      sub\n      swap1\n      log2\n        /* \"Vendor.sol\":6983:6990  return; */\n      pop\n      pop\n      pop\n      pop\n      jump(tag_334)\n        /* \"Vendor.sol\":6823:7004  if (!condValid(operator, _toCheck, value)) {... */\n    tag_348:\n        /* \"Vendor.sol\":6672:7014  {... */\n      pop\n      pop\n      pop\n        /* \"Vendor.sol\":6667:6670  i++ */\n      dup1\n      dup1\n      tag_353\n      swap1\n      tag_221\n      jump\t// in\n    tag_353:\n      swap2\n      pop\n      pop\n        /* \"Vendor.sol\":6630:7014  for (uint i = 0; i < conditionCount; i++) {... */\n      jump(tag_335)\n    tag_336:\n      pop\n        /* \"Vendor.sol\":7035:7039  true */\n      0x01\n        /* \"Vendor.sol\":7023:7032  satisfied */\n      0x09\n      0x01\n        /* \"Vendor.sol\":7023:7039  satisfied = true */\n      0x0100\n      exp\n      dup2\n      sload\n      dup2\n      0xff\n      mul\n      not\n      and\n      swap1\n      dup4\n      iszero\n      iszero\n      mul\n      or\n      swap1\n      sstore\n      pop\n        /* \"Vendor.sol\":7060:7070  msg.sender */\n      caller\n        /* \"Vendor.sol\":7054:7102  State(msg.sender, satisfied, \"Sending payment.\") */\n      0xffffffffffffffffffffffffffffffffffffffff\n      and\n      0xa84226bf2d14bde3fac454f52eaeab63aaeb1934da88f9263dd4ff7dd12acf71\n        /* \"Vendor.sol\":7072:7081  satisfied */\n      0x09\n      0x01\n      swap1\n      sload\n      swap1\n      0x0100\n      exp\n      swap1\n      div\n      0xff\n      and\n        /* \"Vendor.sol\":7054:7102  State(msg.sender, satisfied, \"Sending payment.\") */\n      mload(0x40)\n      tag_354\n      swap2\n      swap1\n      tag_355\n      jump\t// in\n    tag_354:\n      mload(0x40)\n      dup1\n      swap2\n      sub\n      swap1\n      log2\n        /* \"Vendor.sol\":7160:7171  payVendor() */\n      tag_356\n        /* \"Vendor.sol\":7160:7169  payVendor */\n      tag_357\n        /* \"Vendor.sol\":7160:7171  payVendor() */\n      jump\t// in\n    tag_356:\n        /* \"Vendor.sol\":10528:10529  _ */\n    tag_334:\n        /* \"Vendor.sol\":6567:7178  function isSatisfied() public atStage(Stages.Active) {... */\n      pop\n      jump\t// out\n        /* \"Vendor.sol\":377:395  uint public amount */\n    tag_129:\n      sload(0x05)\n      dup2\n      jump\t// out\n        /* \"Vendor.sol\":234:262  address payable public payee */\n    tag_133:\n      0x02\n      0x00\n      swap1\n      sload\n      swap1\n      0x0100\n      exp\n      swap1\n      div\n      0xffffffffffffffffffffffffffffffffffffffff\n      and\n      dup2\n      jump\t// out\n        /* \"Vendor.sol\":615:656  Stages public stage = Stages.Initialising */\n    tag_137:\n      0x09\n      0x00\n      swap1\n      sload\n      swap1\n      0x0100\n      exp\n      swap1\n      div\n      0xff\n      and\n      dup2\n      jump\t// out\n        /* \"Vendor.sol\":783:806  int[8] public operators */\n    tag_143:\n      0x1a\n      dup2\n      0x08\n      dup2\n      lt\n      tag_358\n      jumpi\n      0x00\n      dup1\n      revert\n    tag_358:\n      add\n      0x00\n      swap2\n      pop\n      swap1\n      pop\n      sload\n      dup2\n      jump\t// out\n        /* \"Vendor.sol\":6237:6460  function receiveServiceDataBypass(int[] memory _cumulative) external atStage(Stages.Active) {... */\n    tag_148:\n        /* \"Vendor.sol\":6314:6327  Stages.Active */\n      0x03\n        /* \"Vendor.sol\":10296:10349  Log(\"inside atStage, current stage is:\", uint(stage)) */\n      0xdd970dd9b5bfe707922155b058a407655cb18288b807e2216442bca8ad83d6b5\n        /* \"Vendor.sol\":10342:10347  stage */\n      0x09\n      0x00\n      swap1\n      sload\n      swap1\n      0x0100\n      exp\n      swap1\n      div\n      0xff\n      and\n        /* \"Vendor.sol\":10337:10348  uint(stage) */\n      0x04\n      dup2\n      gt\n      iszero\n      tag_361\n      jumpi\n      tag_362\n      tag_170\n      jump\t// in\n    tag_362:\n    tag_361:\n        /* \"Vendor.sol\":10296:10349  Log(\"inside atStage, current stage is:\", uint(stage)) */\n      mload(0x40)\n      tag_363\n      swap2\n      swap1\n      tag_172\n      jump\t// in\n    tag_363:\n      mload(0x40)\n      dup1\n      swap2\n      sub\n      swap1\n      log1\n        /* \"Vendor.sol\":10364:10431  Log(\"still inside atStage, trying to compare it to:\", uint(_stage)) */\n      0xdd970dd9b5bfe707922155b058a407655cb18288b807e2216442bca8ad83d6b5\n        /* \"Vendor.sol\":10423:10429  _stage */\n      dup2\n        /* \"Vendor.sol\":10418:10430  uint(_stage) */\n      0x04\n      dup2\n      gt\n      iszero\n      tag_364\n      jumpi\n      tag_365\n      tag_170\n      jump\t// in\n    tag_365:\n    tag_364:\n        /* \"Vendor.sol\":10364:10431  Log(\"still inside atStage, trying to compare it to:\", uint(_stage)) */\n      mload(0x40)\n      tag_366\n      swap2\n      swap1\n      tag_176\n      jump\t// in\n    tag_366:\n      mload(0x40)\n      dup1\n      swap2\n      sub\n      swap1\n      log1\n        /* \"Vendor.sol\":10469:10475  _stage */\n      dup1\n        /* \"Vendor.sol\":10464:10476  uint(_stage) */\n      0x04\n      dup2\n      gt\n      iszero\n      tag_367\n      jumpi\n      tag_368\n      tag_170\n      jump\t// in\n    tag_368:\n    tag_367:\n        /* \"Vendor.sol\":10454:10459  stage */\n      0x09\n      0x00\n      swap1\n      sload\n      swap1\n      0x0100\n      exp\n      swap1\n      div\n      0xff\n      and\n        /* \"Vendor.sol\":10449:10460  uint(stage) */\n      0x04\n      dup2\n      gt\n      iszero\n      tag_369\n      jumpi\n      tag_370\n      tag_170\n      jump\t// in\n    tag_370:\n    tag_369:\n        /* \"Vendor.sol\":10449:10476  uint(stage) == uint(_stage) */\n      eq\n        /* \"Vendor.sol\":10441:10518  require(uint(stage) == uint(_stage), \"Contract is not in the required state\") */\n      tag_371\n      jumpi\n      mload(0x40)\n      0x08c379a000000000000000000000000000000000000000000000000000000000\n      dup2\n      mstore\n      0x04\n      add\n      tag_372\n      swap1\n      tag_183\n      jump\t// in\n    tag_372:\n      mload(0x40)\n      dup1\n      swap2\n      sub\n      swap1\n      revert\n    tag_371:\n        /* \"Vendor.sol\":6344:6350  uint i */\n      0x00\n        /* \"Vendor.sol\":6339:6437  for (uint i = 0; i < conditionCount; i++) {... */\n    tag_374:\n        /* \"Vendor.sol\":6360:6374  conditionCount */\n      sload(0x23)\n        /* \"Vendor.sol\":6356:6357  i */\n      dup2\n        /* \"Vendor.sol\":6356:6374  i < conditionCount */\n      lt\n        /* \"Vendor.sol\":6339:6437  for (uint i = 0; i < conditionCount; i++) {... */\n      iszero\n      tag_375\n      jumpi\n        /* \"Vendor.sol\":6412:6423  _cumulative */\n      dup3\n        /* \"Vendor.sol\":6424:6425  i */\n      dup2\n        /* \"Vendor.sol\":6412:6426  _cumulative[i] */\n      dup2\n      mload\n      dup2\n      lt\n      tag_377\n      jumpi\n      tag_378\n      tag_217\n      jump\t// in\n    tag_378:\n    tag_377:\n      0x20\n      mul\n      0x20\n      add\n      add\n      mload\n        /* \"Vendor.sol\":6395:6405  cumulative */\n      0x24\n        /* \"Vendor.sol\":6395:6408  cumulative[i] */\n      0x00\n        /* \"Vendor.sol\":6406:6407  i */\n      dup4\n        /* \"Vendor.sol\":6395:6408  cumulative[i] */\n      dup2\n      mstore\n      0x20\n      add\n      swap1\n      dup2\n      mstore\n      0x20\n      add\n      0x00\n      keccak256\n      0x00\n        /* \"Vendor.sol\":6395:6426  cumulative[i] += _cumulative[i] */\n      dup3\n      dup3\n      sload\n      tag_379\n      swap2\n      swap1\n      tag_219\n      jump\t// in\n    tag_379:\n      swap3\n      pop\n      pop\n      dup2\n      swap1\n      sstore\n      pop\n        /* \"Vendor.sol\":6376:6379  i++ */\n      dup1\n      dup1\n      tag_380\n      swap1\n      tag_221\n      jump\t// in\n    tag_380:\n      swap2\n      pop\n      pop\n        /* \"Vendor.sol\":6339:6437  for (uint i = 0; i < conditionCount; i++) {... */\n      jump(tag_374)\n    tag_375:\n      pop\n        /* \"Vendor.sol\":6446:6451  count */\n      0x25\n      0x00\n        /* \"Vendor.sol\":6446:6453  count++ */\n      dup2\n      sload\n      dup1\n      swap3\n      swap2\n      swap1\n      tag_381\n      swap1\n      tag_223\n      jump\t// in\n    tag_381:\n      swap2\n      swap1\n      pop\n      sstore\n      pop\n        /* \"Vendor.sol\":6237:6460  function receiveServiceDataBypass(int[] memory _cumulative) external atStage(Stages.Active) {... */\n      pop\n      pop\n      jump\t// out\n        /* \"Vendor.sol\":9218:9313  function setInactive() external atStage(Stages.Active) {... */\n    tag_151:\n        /* \"Vendor.sol\":9258:9271  Stages.Active */\n      0x03\n        /* \"Vendor.sol\":10296:10349  Log(\"inside atStage, current stage is:\", uint(stage)) */\n      0xdd970dd9b5bfe707922155b058a407655cb18288b807e2216442bca8ad83d6b5\n        /* \"Vendor.sol\":10342:10347  stage */\n      0x09\n      0x00\n      swap1\n      sload\n      swap1\n      0x0100\n      exp\n      swap1\n      div\n      0xff\n      and\n        /* \"Vendor.sol\":10337:10348  uint(stage) */\n      0x04\n      dup2\n      gt\n      iszero\n      tag_383\n      jumpi\n      tag_384\n      tag_170\n      jump\t// in\n    tag_384:\n    tag_383:\n        /* \"Vendor.sol\":10296:10349  Log(\"inside atStage, current stage is:\", uint(stage)) */\n      mload(0x40)\n      tag_385\n      swap2\n      swap1\n      tag_172\n      jump\t// in\n    tag_385:\n      mload(0x40)\n      dup1\n      swap2\n      sub\n      swap1\n      log1\n        /* \"Vendor.sol\":10364:10431  Log(\"still inside atStage, trying to compare it to:\", uint(_stage)) */\n      0xdd970dd9b5bfe707922155b058a407655cb18288b807e2216442bca8ad83d6b5\n        /* \"Vendor.sol\":10423:10429  _stage */\n      dup2\n        /* \"Vendor.sol\":10418:10430  uint(_stage) */\n      0x04\n      dup2\n      gt\n      iszero\n      tag_386\n      jumpi\n      tag_387\n      tag_170\n      jump\t// in\n    tag_387:\n    tag_386:\n        /* \"Vendor.sol\":10364:10431  Log(\"still inside atStage, trying to compare it to:\", uint(_stage)) */\n      mload(0x40)\n      tag_388\n      swap2\n      swap1\n      tag_176\n      jump\t// in\n    tag_388:\n      mload(0x40)\n      dup1\n      swap2\n      sub\n      swap1\n      log1\n        /* \"Vendor.sol\":10469:10475  _stage */\n      dup1\n        /* \"Vendor.sol\":10464:10476  uint(_stage) */\n      0x04\n      dup2\n      gt\n      iszero\n      tag_389\n      jumpi\n      tag_390\n      tag_170\n      jump\t// in\n    tag_390:\n    tag_389:\n        /* \"Vendor.sol\":10454:10459  stage */\n      0x09\n      0x00\n      swap1\n      sload\n      swap1\n      0x0100\n      exp\n      swap1\n      div\n      0xff\n      and\n        /* \"Vendor.sol\":10449:10460  uint(stage) */\n      0x04\n      dup2\n      gt\n      iszero\n      tag_391\n      jumpi\n      tag_392\n      tag_170\n      jump\t// in\n    tag_392:\n    tag_391:\n        /* \"Vendor.sol\":10449:10476  uint(stage) == uint(_stage) */\n      eq\n        /* \"Vendor.sol\":10441:10518  require(uint(stage) == uint(_stage), \"Contract is not in the required state\") */\n      tag_393\n      jumpi\n      mload(0x40)\n      0x08c379a000000000000000000000000000000000000000000000000000000000\n      dup2\n      mstore\n      0x04\n      add\n      tag_394\n      swap1\n      tag_183\n      jump\t// in\n    tag_394:\n      mload(0x40)\n      dup1\n      swap2\n      sub\n      swap1\n      revert\n    tag_393:\n        /* \"Vendor.sol\":9291:9306  Stages.Inactive */\n      0x02\n        /* \"Vendor.sol\":9283:9288  stage */\n      0x09\n      0x00\n        /* \"Vendor.sol\":9283:9306  stage = Stages.Inactive */\n      0x0100\n      exp\n      dup2\n      sload\n      dup2\n      0xff\n      mul\n      not\n      and\n      swap1\n      dup4\n      0x04\n      dup2\n      gt\n      iszero\n      tag_396\n      jumpi\n      tag_397\n      tag_170\n      jump\t// in\n    tag_397:\n    tag_396:\n      mul\n      or\n      swap1\n      sstore\n      pop\n        /* \"Vendor.sol\":9218:9313  function setInactive() external atStage(Stages.Active) {... */\n      pop\n      jump\t// out\n        /* \"Vendor.sol\":173:193  address public admin */\n    tag_154:\n      0x00\n      dup1\n      sload\n      swap1\n      0x0100\n      exp\n      swap1\n      div\n      0xffffffffffffffffffffffffffffffffffffffff\n      and\n      dup2\n      jump\t// out\n        /* \"Vendor.sol\":2850:3669  function setConds(string[8] memory _names, int[8] memory _values, string[8] memory _operators) external atStage(Stages.Initialising) {... */\n    tag_161:\n        /* \"Vendor.sol\":2962:2981  Stages.Initialising */\n      0x00\n        /* \"Vendor.sol\":10296:10349  Log(\"inside atStage, current stage is:\", uint(stage)) */\n      0xdd970dd9b5bfe707922155b058a407655cb18288b807e2216442bca8ad83d6b5\n        /* \"Vendor.sol\":10342:10347  stage */\n      0x09\n      0x00\n      swap1\n      sload\n      swap1\n      0x0100\n      exp\n      swap1\n      div\n      0xff\n      and\n        /* \"Vendor.sol\":10337:10348  uint(stage) */\n      0x04\n      dup2\n      gt\n      iszero\n      tag_399\n      jumpi\n      tag_400\n      tag_170\n      jump\t// in\n    tag_400:\n    tag_399:\n        /* \"Vendor.sol\":10296:10349  Log(\"inside atStage, current stage is:\", uint(stage)) */\n      mload(0x40)\n      tag_401\n      swap2\n      swap1\n      tag_172\n      jump\t// in\n    tag_401:\n      mload(0x40)\n      dup1\n      swap2\n      sub\n      swap1\n      log1\n        /* \"Vendor.sol\":10364:10431  Log(\"still inside atStage, trying to compare it to:\", uint(_stage)) */\n      0xdd970dd9b5bfe707922155b058a407655cb18288b807e2216442bca8ad83d6b5\n        /* \"Vendor.sol\":10423:10429  _stage */\n      dup2\n        /* \"Vendor.sol\":10418:10430  uint(_stage) */\n      0x04\n      dup2\n      gt\n      iszero\n      tag_402\n      jumpi\n      tag_403\n      tag_170\n      jump\t// in\n    tag_403:\n    tag_402:\n        /* \"Vendor.sol\":10364:10431  Log(\"still inside atStage, trying to compare it to:\", uint(_stage)) */\n      mload(0x40)\n      tag_404\n      swap2\n      swap1\n      tag_176\n      jump\t// in\n    tag_404:\n      mload(0x40)\n      dup1\n      swap2\n      sub\n      swap1\n      log1\n        /* \"Vendor.sol\":10469:10475  _stage */\n      dup1\n        /* \"Vendor.sol\":10464:10476  uint(_stage) */\n      0x04\n      dup2\n      gt\n      iszero\n      tag_405\n      jumpi\n      tag_406\n      tag_170\n      jump\t// in\n    tag_406:\n    tag_405:\n        /* \"Vendor.sol\":10454:10459  stage */\n      0x09\n      0x00\n      swap1\n      sload\n      swap1\n      0x0100\n      exp\n      swap1\n      div\n      0xff\n      and\n        /* \"Vendor.sol\":10449:10460  uint(stage) */\n      0x04\n      dup2\n      gt\n      iszero\n      tag_407\n      jumpi\n      tag_408\n      tag_170\n      jump\t// in\n    tag_408:\n    tag_407:\n        /* \"Vendor.sol\":10449:10476  uint(stage) == uint(_stage) */\n      eq\n        /* \"Vendor.sol\":10441:10518  require(uint(stage) == uint(_stage), \"Contract is not in the required state\") */\n      tag_409\n      jumpi\n      mload(0x40)\n      0x08c379a000000000000000000000000000000000000000000000000000000000\n      dup2\n      mstore\n      0x04\n      add\n      tag_410\n      swap1\n      tag_183\n      jump\t// in\n    tag_410:\n      mload(0x40)\n      dup1\n      swap2\n      sub\n      swap1\n      revert\n    tag_409:\n        /* \"Vendor.sol\":2998:3052  Log(\"inside setConds, current stage is:\", uint(stage)) */\n      0xdd970dd9b5bfe707922155b058a407655cb18288b807e2216442bca8ad83d6b5\n        /* \"Vendor.sol\":3045:3050  stage */\n      0x09\n      0x00\n      swap1\n      sload\n      swap1\n      0x0100\n      exp\n      swap1\n      div\n      0xff\n      and\n        /* \"Vendor.sol\":3040:3051  uint(stage) */\n      0x04\n      dup2\n      gt\n      iszero\n      tag_412\n      jumpi\n      tag_413\n      tag_170\n      jump\t// in\n    tag_413:\n    tag_412:\n        /* \"Vendor.sol\":2998:3052  Log(\"inside setConds, current stage is:\", uint(stage)) */\n      mload(0x40)\n      tag_414\n      swap2\n      swap1\n      tag_415\n      jump\t// in\n    tag_414:\n      mload(0x40)\n      dup1\n      swap2\n      sub\n      swap1\n      log1\n        /* \"Vendor.sol\":3067:3073  uint i */\n      0x00\n        /* \"Vendor.sol\":3062:3663  for (uint i = 0; i < 8; i++) {... */\n    tag_416:\n        /* \"Vendor.sol\":3083:3084  8 */\n      0x08\n        /* \"Vendor.sol\":3079:3080  i */\n      dup2\n        /* \"Vendor.sol\":3079:3084  i < 8 */\n      lt\n        /* \"Vendor.sol\":3062:3663  for (uint i = 0; i < 8; i++) {... */\n      iszero\n      tag_417\n      jumpi\n        /* \"Vendor.sol\":3150:3160  bytes(\"0\") */\n      mload(0x40)\n      dup1\n      0x40\n      add\n      0x40\n      mstore\n      dup1\n      0x01\n      dup2\n      mstore\n      0x20\n      add\n      0x3000000000000000000000000000000000000000000000000000000000000000\n      dup2\n      mstore\n      pop\n        /* \"Vendor.sol\":3140:3161  keccak256(bytes(\"0\")) */\n      dup1\n      mload\n      swap1\n      0x20\n      add\n      keccak256\n        /* \"Vendor.sol\":3125:3131  _names */\n      dup6\n        /* \"Vendor.sol\":3132:3133  i */\n      dup3\n        /* \"Vendor.sol\":3125:3134  _names[i] */\n      0x08\n      dup2\n      lt\n      tag_419\n      jumpi\n      tag_420\n      tag_217\n      jump\t// in\n    tag_420:\n    tag_419:\n      0x20\n      mul\n      add\n      mload\n        /* \"Vendor.sol\":3109:3136  keccak256(bytes(_names[i])) */\n      dup1\n      mload\n      swap1\n      0x20\n      add\n      keccak256\n        /* \"Vendor.sol\":3109:3161  keccak256(bytes(_names[i])) == keccak256(bytes(\"0\")) */\n      eq\n        /* \"Vendor.sol\":3105:3502  if (keccak256(bytes(_names[i])) == keccak256(bytes(\"0\"))) {... */\n      iszero\n      tag_421\n      jumpi\n        /* \"Vendor.sol\":3186:3253  Log(\"inside setConds if statement, current stage is:\", uint(stage)) */\n      0xdd970dd9b5bfe707922155b058a407655cb18288b807e2216442bca8ad83d6b5\n        /* \"Vendor.sol\":3246:3251  stage */\n      0x09\n      0x00\n      swap1\n      sload\n      swap1\n      0x0100\n      exp\n      swap1\n      div\n      0xff\n      and\n        /* \"Vendor.sol\":3241:3252  uint(stage) */\n      0x04\n      dup2\n      gt\n      iszero\n      tag_422\n      jumpi\n      tag_423\n      tag_170\n      jump\t// in\n    tag_423:\n    tag_422:\n        /* \"Vendor.sol\":3186:3253  Log(\"inside setConds if statement, current stage is:\", uint(stage)) */\n      mload(0x40)\n      tag_424\n      swap2\n      swap1\n      tag_425\n      jump\t// in\n    tag_424:\n      mload(0x40)\n      dup1\n      swap2\n      sub\n      swap1\n      log1\n        /* \"Vendor.sol\":3271:3285  endInitStage() */\n      tag_426\n        /* \"Vendor.sol\":3271:3283  endInitStage */\n      tag_114\n        /* \"Vendor.sol\":3271:3285  endInitStage() */\n      jump\t// in\n    tag_426:\n        /* \"Vendor.sol\":3308:3395  Log(\"inside setConds if statement, after endInitStage, current stage is:\", uint(stage)) */\n      0xdd970dd9b5bfe707922155b058a407655cb18288b807e2216442bca8ad83d6b5\n        /* \"Vendor.sol\":3388:3393  stage */\n      0x09\n      0x00\n      swap1\n      sload\n      swap1\n      0x0100\n      exp\n      swap1\n      div\n      0xff\n      and\n        /* \"Vendor.sol\":3383:3394  uint(stage) */\n      0x04\n      dup2\n      gt\n      iszero\n      tag_427\n      jumpi\n      tag_428\n      tag_170\n      jump\t// in\n    tag_428:\n    tag_427:\n        /* \"Vendor.sol\":3308:3395  Log(\"inside setConds if statement, after endInitStage, current stage is:\", uint(stage)) */\n      mload(0x40)\n      tag_429\n      swap2\n      swap1\n      tag_430\n      jump\t// in\n    tag_429:\n      mload(0x40)\n      dup1\n      swap2\n      sub\n      swap1\n      log1\n        /* \"Vendor.sol\":3413:3420  return; */\n      pop\n      jump(tag_411)\n        /* \"Vendor.sol\":3105:3502  if (keccak256(bytes(_names[i])) == keccak256(bytes(\"0\"))) {... */\n    tag_421:\n        /* \"Vendor.sol\":3526:3532  _names */\n      dup5\n        /* \"Vendor.sol\":3533:3534  i */\n      dup2\n        /* \"Vendor.sol\":3526:3535  _names[i] */\n      0x08\n      dup2\n      lt\n      tag_431\n      jumpi\n      tag_432\n      tag_217\n      jump\t// in\n    tag_432:\n    tag_431:\n      0x20\n      mul\n      add\n      mload\n        /* \"Vendor.sol\":3515:3520  names */\n      0x0a\n        /* \"Vendor.sol\":3521:3522  i */\n      dup3\n        /* \"Vendor.sol\":3515:3523  names[i] */\n      0x08\n      dup2\n      lt\n      tag_433\n      jumpi\n      tag_434\n      tag_217\n      jump\t// in\n    tag_434:\n    tag_433:\n      add\n        /* \"Vendor.sol\":3515:3535  names[i] = _names[i] */\n      swap1\n      dup1\n      mload\n      swap1\n      0x20\n      add\n      swap1\n      tag_436\n      swap3\n      swap2\n      swap1\n      tag_437\n      jump\t// in\n    tag_436:\n      pop\n        /* \"Vendor.sol\":3561:3568  _values */\n      dup4\n        /* \"Vendor.sol\":3569:3570  i */\n      dup2\n        /* \"Vendor.sol\":3561:3571  _values[i] */\n      0x08\n      dup2\n      lt\n      tag_438\n      jumpi\n      tag_439\n      tag_217\n      jump\t// in\n    tag_439:\n    tag_438:\n      0x20\n      mul\n      add\n      mload\n        /* \"Vendor.sol\":3549:3555  values */\n      0x12\n        /* \"Vendor.sol\":3556:3557  i */\n      dup3\n        /* \"Vendor.sol\":3549:3558  values[i] */\n      0x08\n      dup2\n      lt\n      tag_440\n      jumpi\n      tag_441\n      tag_217\n      jump\t// in\n    tag_441:\n    tag_440:\n      add\n        /* \"Vendor.sol\":3549:3571  values[i] = _values[i] */\n      dup2\n      swap1\n      sstore\n      pop\n        /* \"Vendor.sol\":3600:3607  convert */\n      0x22\n        /* \"Vendor.sol\":3608:3618  _operators */\n      dup4\n        /* \"Vendor.sol\":3619:3620  i */\n      dup3\n        /* \"Vendor.sol\":3608:3621  _operators[i] */\n      0x08\n      dup2\n      lt\n      tag_443\n      jumpi\n      tag_444\n      tag_217\n      jump\t// in\n    tag_444:\n    tag_443:\n      0x20\n      mul\n      add\n      mload\n        /* \"Vendor.sol\":3600:3622  convert[_operators[i]] */\n      mload(0x40)\n      tag_445\n      swap2\n      swap1\n      tag_446\n      jump\t// in\n    tag_445:\n      swap1\n      dup2\n      mstore\n      0x20\n      add\n      mload(0x40)\n      dup1\n      swap2\n      sub\n      swap1\n      keccak256\n      sload\n        /* \"Vendor.sol\":3585:3594  operators */\n      0x1a\n        /* \"Vendor.sol\":3595:3596  i */\n      dup3\n        /* \"Vendor.sol\":3585:3597  operators[i] */\n      0x08\n      dup2\n      lt\n      tag_447\n      jumpi\n      tag_448\n      tag_217\n      jump\t// in\n    tag_448:\n    tag_447:\n      add\n        /* \"Vendor.sol\":3585:3622  operators[i] = convert[_operators[i]] */\n      dup2\n      swap1\n      sstore\n      pop\n        /* \"Vendor.sol\":3636:3650  conditionCount */\n      0x23\n      0x00\n        /* \"Vendor.sol\":3636:3652  conditionCount++ */\n      dup2\n      sload\n      dup1\n      swap3\n      swap2\n      swap1\n      tag_450\n      swap1\n      tag_221\n      jump\t// in\n    tag_450:\n      swap2\n      swap1\n      pop\n      sstore\n      pop\n        /* \"Vendor.sol\":3086:3089  i++ */\n      dup1\n      dup1\n      tag_451\n      swap1\n      tag_221\n      jump\t// in\n    tag_451:\n      swap2\n      pop\n      pop\n        /* \"Vendor.sol\":3062:3663  for (uint i = 0; i < 8; i++) {... */\n      jump(tag_416)\n    tag_417:\n      pop\n        /* \"Vendor.sol\":10528:10529  _ */\n    tag_411:\n        /* \"Vendor.sol\":2850:3669  function setConds(string[8] memory _names, int[8] memory _values, string[8] memory _operators) external atStage(Stages.Initialising) {... */\n      pop\n      pop\n      pop\n      pop\n      jump\t// out\n        /* \"Vendor.sol\":4669:4968  function getDetails() external view returns (address, address, uint, uint, uint, uint, uint, uint, string[8] memory, int[8] memory, int[8] memory) {... */\n    tag_164:\n        /* \"Vendor.sol\":4714:4721  address */\n      0x00\n        /* \"Vendor.sol\":4723:4730  address */\n      dup1\n        /* \"Vendor.sol\":4732:4736  uint */\n      0x00\n        /* \"Vendor.sol\":4738:4742  uint */\n      dup1\n        /* \"Vendor.sol\":4744:4748  uint */\n      0x00\n        /* \"Vendor.sol\":4750:4754  uint */\n      dup1\n        /* \"Vendor.sol\":4756:4760  uint */\n      0x00\n        /* \"Vendor.sol\":4762:4766  uint */\n      dup1\n        /* \"Vendor.sol\":4768:4784  string[8] memory */\n      tag_452\n      tag_453\n      jump\t// in\n    tag_452:\n        /* \"Vendor.sol\":4786:4799  int[8] memory */\n      tag_454\n      tag_455\n      jump\t// in\n    tag_454:\n        /* \"Vendor.sol\":4801:4814  int[8] memory */\n      tag_456\n      tag_455\n      jump\t// in\n    tag_456:\n        /* \"Vendor.sol\":4842:4848  client */\n      0x01\n      0x00\n      swap1\n      sload\n      swap1\n      0x0100\n      exp\n      swap1\n      div\n      0xffffffffffffffffffffffffffffffffffffffff\n      and\n        /* \"Vendor.sol\":4850:4855  payee */\n      0x02\n      0x00\n      swap1\n      sload\n      swap1\n      0x0100\n      exp\n      swap1\n      div\n      0xffffffffffffffffffffffffffffffffffffffff\n      and\n        /* \"Vendor.sol\":4857:4866  startDate */\n      sload(0x03)\n        /* \"Vendor.sol\":4868:4878  expiryDate */\n      sload(0x04)\n        /* \"Vendor.sol\":4880:4886  amount */\n      sload(0x05)\n        /* \"Vendor.sol\":4888:4903  prevBillingDate */\n      sload(0x06)\n        /* \"Vendor.sol\":4905:4920  nextBillingDate */\n      sload(0x07)\n        /* \"Vendor.sol\":4922:4934  contractHash */\n      sload(0x08)\n        /* \"Vendor.sol\":4936:4941  names */\n      0x0a\n        /* \"Vendor.sol\":4943:4949  values */\n      0x12\n        /* \"Vendor.sol\":4951:4960  operators */\n      0x1a\n        /* \"Vendor.sol\":4834:4961  return (client, payee, startDate, expiryDate, amount, prevBillingDate, nextBillingDate, contractHash, names, values, operators) */\n      dup3\n      0x08\n      dup1\n      0x20\n      mul\n      mload(0x40)\n      swap1\n      dup2\n      add\n      0x40\n      mstore\n      dup1\n      swap3\n      swap2\n      swap1\n      0x00\n      swap1\n    tag_458:\n      dup3\n      dup3\n      lt\n      iszero\n      tag_459\n      jumpi\n      dup4\n      dup3\n      add\n      dup1\n      sload\n      tag_461\n      swap1\n      tag_228\n      jump\t// in\n    tag_461:\n      dup1\n      0x1f\n      add\n      0x20\n      dup1\n      swap2\n      div\n      mul\n      0x20\n      add\n      mload(0x40)\n      swap1\n      dup2\n      add\n      0x40\n      mstore\n      dup1\n      swap3\n      swap2\n      swap1\n      dup2\n      dup2\n      mstore\n      0x20\n      add\n      dup3\n      dup1\n      sload\n      tag_462\n      swap1\n      tag_228\n      jump\t// in\n    tag_462:\n      dup1\n      iszero\n      tag_463\n      jumpi\n      dup1\n      0x1f\n      lt\n      tag_464\n      jumpi\n      0x0100\n      dup1\n      dup4\n      sload\n      div\n      mul\n      dup4\n      mstore\n      swap2\n      0x20\n      add\n      swap2\n      jump(tag_463)\n    tag_464:\n      dup3\n      add\n      swap2\n      swap1\n      0x00\n      mstore\n      keccak256(0x00, 0x20)\n      swap1\n    tag_465:\n      dup2\n      sload\n      dup2\n      mstore\n      swap1\n      0x01\n      add\n      swap1\n      0x20\n      add\n      dup1\n      dup4\n      gt\n      tag_465\n      jumpi\n      dup3\n      swap1\n      sub\n      0x1f\n      and\n      dup3\n      add\n      swap2\n    tag_463:\n      pop\n      pop\n      pop\n      pop\n      pop\n      dup2\n      mstore\n      0x20\n      add\n      swap1\n      0x01\n      add\n      swap1\n      jump(tag_458)\n    tag_459:\n      pop\n      pop\n      pop\n      pop\n      swap3\n      pop\n      dup2\n      0x08\n      dup1\n      0x20\n      mul\n      mload(0x40)\n      swap1\n      dup2\n      add\n      0x40\n      mstore\n      dup1\n      swap3\n      swap2\n      swap1\n      dup3\n      0x08\n      dup1\n      iszero\n      tag_466\n      jumpi\n      0x20\n      mul\n      dup3\n      add\n      swap2\n    tag_467:\n      dup2\n      sload\n      dup2\n      mstore\n      0x20\n      add\n      swap1\n      0x01\n      add\n      swap1\n      dup1\n      dup4\n      gt\n      tag_467\n      jumpi\n    tag_466:\n      pop\n      pop\n      pop\n      pop\n      pop\n      swap2\n      pop\n      dup1\n      0x08\n      dup1\n      0x20\n      mul\n      mload(0x40)\n      swap1\n      dup2\n      add\n      0x40\n      mstore\n      dup1\n      swap3\n      swap2\n      swap1\n      dup3\n      0x08\n      dup1\n      iszero\n      tag_468\n      jumpi\n      0x20\n      mul\n      dup3\n      add\n      swap2\n    tag_469:\n      dup2\n      sload\n      dup2\n      mstore\n      0x20\n      add\n      swap1\n      0x01\n      add\n      swap1\n      dup1\n      dup4\n      gt\n      tag_469\n      jumpi\n    tag_468:\n      pop\n      pop\n      pop\n      pop\n      pop\n      swap1\n      pop\n      swap11\n      pop\n      swap11\n      pop\n      swap11\n      pop\n      swap11\n      pop\n      swap11\n      pop\n      swap11\n      pop\n      swap11\n      pop\n      swap11\n      pop\n      swap11\n      pop\n      swap11\n      pop\n      swap11\n      pop\n        /* \"Vendor.sol\":4669:4968  function getDetails() external view returns (address, address, uint, uint, uint, uint, uint, uint, string[8] memory, int[8] memory, int[8] memory) {... */\n      swap1\n      swap2\n      swap3\n      swap4\n      swap5\n      swap6\n      swap7\n      swap8\n      swap9\n      swap10\n      swap11\n      jump\t// out\n        /* \"Vendor.sol\":2712:2840  function calcDate(uint _billingDate) private view returns (uint) {... */\n    tag_314:\n        /* \"Vendor.sol\":2771:2775  uint */\n      0x00\n        /* \"Vendor.sol\":953:957  6400 */\n      0x1900\n        /* \"Vendor.sol\":2809:2821  _billingDate */\n      dup3\n        /* \"Vendor.sol\":2809:2833  _billingDate*blocksDaily */\n      tag_471\n      swap2\n      swap1\n      tag_472\n      jump\t// in\n    tag_471:\n        /* \"Vendor.sol\":2794:2806  block.number */\n      number\n        /* \"Vendor.sol\":2794:2833  block.number + _billingDate*blocksDaily */\n      tag_473\n      swap2\n      swap1\n      tag_318\n      jump\t// in\n    tag_473:\n        /* \"Vendor.sol\":2787:2833  return block.number + _billingDate*blocksDaily */\n      swap1\n      pop\n        /* \"Vendor.sol\":2712:2840  function calcDate(uint _billingDate) private view returns (uint) {... */\n      swap2\n      swap1\n      pop\n      jump\t// out\n        /* \"Vendor.sol\":2445:2645  function initOperators() private {... */\n    tag_320:\n        /* \"Vendor.sol\":2503:2504  1 */\n      0x01\n        /* \"Vendor.sol\":2488:2495  convert */\n      0x22\n        /* \"Vendor.sol\":2488:2500  convert['>'] */\n      mload(0x40)\n      tag_475\n      swap1\n      tag_476\n      jump\t// in\n    tag_475:\n      swap1\n      dup2\n      mstore\n      0x20\n      add\n      mload(0x40)\n      dup1\n      swap2\n      sub\n      swap1\n      keccak256\n        /* \"Vendor.sol\":2488:2504  convert['>'] = 1 */\n      dup2\n      swap1\n      sstore\n      pop\n        /* \"Vendor.sol\":2530:2531  2 */\n      0x02\n        /* \"Vendor.sol\":2514:2521  convert */\n      0x22\n        /* \"Vendor.sol\":2514:2527  convert['=='] */\n      mload(0x40)\n      tag_477\n      swap1\n      tag_478\n      jump\t// in\n    tag_477:\n      swap1\n      dup2\n      mstore\n      0x20\n      add\n      mload(0x40)\n      dup1\n      swap2\n      sub\n      swap1\n      keccak256\n        /* \"Vendor.sol\":2514:2531  convert['=='] = 2 */\n      dup2\n      swap1\n      sstore\n      pop\n        /* \"Vendor.sol\":2557:2558  3 */\n      0x03\n        /* \"Vendor.sol\":2541:2548  convert */\n      0x22\n        /* \"Vendor.sol\":2541:2554  convert['>='] */\n      mload(0x40)\n      tag_479\n      swap1\n      tag_480\n      jump\t// in\n    tag_479:\n      swap1\n      dup2\n      mstore\n      0x20\n      add\n      mload(0x40)\n      dup1\n      swap2\n      sub\n      swap1\n      keccak256\n        /* \"Vendor.sol\":2541:2558  convert['>='] = 3 */\n      dup2\n      swap1\n      sstore\n      pop\n        /* \"Vendor.sol\":2583:2584  4 */\n      0x04\n        /* \"Vendor.sol\":2568:2575  convert */\n      0x22\n        /* \"Vendor.sol\":2568:2580  convert['<'] */\n      mload(0x40)\n      tag_481\n      swap1\n      tag_482\n      jump\t// in\n    tag_481:\n      swap1\n      dup2\n      mstore\n      0x20\n      add\n      mload(0x40)\n      dup1\n      swap2\n      sub\n      swap1\n      keccak256\n        /* \"Vendor.sol\":2568:2584  convert['<'] = 4 */\n      dup2\n      swap1\n      sstore\n      pop\n        /* \"Vendor.sol\":2610:2611  5 */\n      0x05\n        /* \"Vendor.sol\":2594:2601  convert */\n      0x22\n        /* \"Vendor.sol\":2594:2607  convert['!='] */\n      mload(0x40)\n      tag_483\n      swap1\n      tag_484\n      jump\t// in\n    tag_483:\n      swap1\n      dup2\n      mstore\n      0x20\n      add\n      mload(0x40)\n      dup1\n      swap2\n      sub\n      swap1\n      keccak256\n        /* \"Vendor.sol\":2594:2611  convert['!='] = 5 */\n      dup2\n      swap1\n      sstore\n      pop\n        /* \"Vendor.sol\":2637:2638  6 */\n      0x06\n        /* \"Vendor.sol\":2621:2628  convert */\n      0x22\n        /* \"Vendor.sol\":2621:2634  convert['<='] */\n      mload(0x40)\n      tag_485\n      swap1\n      tag_486\n      jump\t// in\n    tag_485:\n      swap1\n      dup2\n      mstore\n      0x20\n      add\n      mload(0x40)\n      dup1\n      swap2\n      sub\n      swap1\n      keccak256\n        /* \"Vendor.sol\":2621:2638  convert['<='] = 6 */\n      dup2\n      swap1\n      sstore\n      pop\n        /* \"Vendor.sol\":2445:2645  function initOperators() private {... */\n      jump\t// out\n        /* \"Vendor.sol\":7325:7961  function condValid(int operator, int _toCheck, int value) private pure returns (bool) {... */\n    tag_347:\n        /* \"Vendor.sol\":7405:7409  bool */\n      0x00\n        /* \"Vendor.sol\":7437:7439  -1 */\n      0xffffffffffffffffffffffffffffffffffffffffffffffffffffffffffffffff\n        /* \"Vendor.sol\":7425:7433  operator */\n      dup5\n        /* \"Vendor.sol\":7425:7439  operator != -1 */\n      eq\n        /* \"Vendor.sol\":7421:7934  if (operator != -1) {... */\n      tag_488\n      jumpi\n        /* \"Vendor.sol\":7475:7476  1 */\n      0x01\n        /* \"Vendor.sol\":7470:7471  1 */\n      dup1\n        /* \"Vendor.sol\":7459:7467  operator */\n      dup6\n        /* \"Vendor.sol\":7459:7471  operator & 1 */\n      and\n        /* \"Vendor.sol\":7459:7476  operator & 1 == 1 */\n      eq\n        /* \"Vendor.sol\":7455:7924  if (operator & 1 == 1) {... */\n      iszero\n      tag_489\n      jumpi\n        /* \"Vendor.sol\":7501:7540  checkGreater(operator, _toCheck, value) */\n      tag_490\n        /* \"Vendor.sol\":7514:7522  operator */\n      dup5\n        /* \"Vendor.sol\":7524:7532  _toCheck */\n      dup5\n        /* \"Vendor.sol\":7534:7539  value */\n      dup5\n        /* \"Vendor.sol\":7501:7513  checkGreater */\n      tag_491\n        /* \"Vendor.sol\":7501:7540  checkGreater(operator, _toCheck, value) */\n      jump\t// in\n    tag_490:\n        /* \"Vendor.sol\":7496:7595  if (!checkGreater(operator, _toCheck, value)) {... */\n      tag_492\n      jumpi\n        /* \"Vendor.sol\":7571:7576  false */\n      0x00\n        /* \"Vendor.sol\":7564:7576  return false */\n      swap1\n      pop\n      jump(tag_487)\n        /* \"Vendor.sol\":7496:7595  if (!checkGreater(operator, _toCheck, value)) {... */\n    tag_492:\n        /* \"Vendor.sol\":7455:7924  if (operator & 1 == 1) {... */\n      jump(tag_493)\n    tag_489:\n        /* \"Vendor.sol\":7635:7636  4 */\n      0x04\n        /* \"Vendor.sol\":7630:7631  4 */\n      dup1\n        /* \"Vendor.sol\":7619:7627  operator */\n      dup6\n        /* \"Vendor.sol\":7619:7631  operator & 4 */\n      and\n        /* \"Vendor.sol\":7619:7636  operator & 4 == 4 */\n      eq\n        /* \"Vendor.sol\":7615:7924  if (operator & 4 == 4) {... */\n      iszero\n      tag_494\n      jumpi\n        /* \"Vendor.sol\":7661:7697  checkLess(operator, _toCheck, value) */\n      tag_495\n        /* \"Vendor.sol\":7671:7679  operator */\n      dup5\n        /* \"Vendor.sol\":7681:7689  _toCheck */\n      dup5\n        /* \"Vendor.sol\":7691:7696  value */\n      dup5\n        /* \"Vendor.sol\":7661:7670  checkLess */\n      tag_496\n        /* \"Vendor.sol\":7661:7697  checkLess(operator, _toCheck, value) */\n      jump\t// in\n    tag_495:\n        /* \"Vendor.sol\":7656:7752  if (!checkLess(operator, _toCheck, value)) {... */\n      tag_497\n      jumpi\n        /* \"Vendor.sol\":7728:7733  false */\n      0x00\n        /* \"Vendor.sol\":7721:7733  return false */\n      swap1\n      pop\n      jump(tag_487)\n        /* \"Vendor.sol\":7656:7752  if (!checkLess(operator, _toCheck, value)) {... */\n    tag_497:\n        /* \"Vendor.sol\":7615:7924  if (operator & 4 == 4) {... */\n      jump(tag_498)\n    tag_494:\n        /* \"Vendor.sol\":7792:7793  2 */\n      0x02\n        /* \"Vendor.sol\":7787:7788  2 */\n      dup1\n        /* \"Vendor.sol\":7776:7784  operator */\n      dup6\n        /* \"Vendor.sol\":7776:7788  operator & 2 */\n      and\n        /* \"Vendor.sol\":7776:7793  operator & 2 == 2 */\n      eq\n        /* \"Vendor.sol\":7772:7924  if (operator & 2 == 2) {... */\n      iszero\n      tag_499\n      jumpi\n        /* \"Vendor.sol\":7818:7855  checkEqual(operator, _toCheck, value) */\n      tag_500\n        /* \"Vendor.sol\":7829:7837  operator */\n      dup5\n        /* \"Vendor.sol\":7839:7847  _toCheck */\n      dup5\n        /* \"Vendor.sol\":7849:7854  value */\n      dup5\n        /* \"Vendor.sol\":7818:7828  checkEqual */\n      tag_501\n        /* \"Vendor.sol\":7818:7855  checkEqual(operator, _toCheck, value) */\n      jump\t// in\n    tag_500:\n        /* \"Vendor.sol\":7813:7910  if (!checkEqual(operator, _toCheck, value)) {... */\n      tag_502\n      jumpi\n        /* \"Vendor.sol\":7886:7891  false */\n      0x00\n        /* \"Vendor.sol\":7879:7891  return false */\n      swap1\n      pop\n      jump(tag_487)\n        /* \"Vendor.sol\":7813:7910  if (!checkEqual(operator, _toCheck, value)) {... */\n    tag_502:\n        /* \"Vendor.sol\":7772:7924  if (operator & 2 == 2) {... */\n    tag_499:\n        /* \"Vendor.sol\":7615:7924  if (operator & 4 == 4) {... */\n    tag_498:\n        /* \"Vendor.sol\":7455:7924  if (operator & 1 == 1) {... */\n    tag_493:\n        /* \"Vendor.sol\":7421:7934  if (operator != -1) {... */\n    tag_488:\n        /* \"Vendor.sol\":7950:7954  true */\n      0x01\n        /* \"Vendor.sol\":7943:7954  return true */\n      swap1\n      pop\n        /* \"Vendor.sol\":7325:7961  function condValid(int operator, int _toCheck, int value) private pure returns (bool) {... */\n    tag_487:\n      swap4\n      swap3\n      pop\n      pop\n      pop\n      jump\t// out\n        /* \"Vendor.sol\":5390:5506  function refund() private {... */\n    tag_350:\n        /* \"Vendor.sol\":5438:5443  false */\n      0x00\n        /* \"Vendor.sol\":5426:5435  satisfied */\n      0x09\n      0x01\n        /* \"Vendor.sol\":5426:5443  satisfied = false */\n      0x0100\n      exp\n      dup2\n      sload\n      dup2\n      0xff\n      mul\n      not\n      and\n      swap1\n      dup4\n      iszero\n      iszero\n      mul\n      or\n      swap1\n      sstore\n      pop\n        /* \"Vendor.sol\":5453:5459  client */\n      0x01\n      0x00\n      swap1\n      sload\n      swap1\n      0x0100\n      exp\n      swap1\n      div\n      0xffffffffffffffffffffffffffffffffffffffff\n      and\n        /* \"Vendor.sol\":5453:5468  client.transfer */\n      0xffffffffffffffffffffffffffffffffffffffff\n      and\n        /* \"Vendor.sol\":5453:5476  client.transfer(amount) */\n      0x08fc\n        /* \"Vendor.sol\":5469:5475  amount */\n      sload(0x05)\n        /* \"Vendor.sol\":5453:5476  client.transfer(amount) */\n      swap1\n      dup2\n      iszero\n      mul\n      swap1\n      mload(0x40)\n      0x00\n      mload(0x40)\n      dup1\n      dup4\n      sub\n      dup2\n      dup6\n      dup9\n      dup9\n      call\n      swap4\n      pop\n      pop\n      pop\n      pop\n      iszero\n      dup1\n      iszero\n      tag_505\n      jumpi\n      returndatasize\n      0x00\n      dup1\n      returndatacopy\n      revert(0x00, returndatasize)\n    tag_505:\n      pop\n        /* \"Vendor.sol\":5486:5499  setNewDates() */\n      tag_506\n        /* \"Vendor.sol\":5486:5497  setNewDates */\n      tag_507\n        /* \"Vendor.sol\":5486:5499  setNewDates() */\n      jump\t// in\n    tag_506:\n        /* \"Vendor.sol\":5390:5506  function refund() private {... */\n      jump\t// out\n        /* \"Vendor.sol\":5263:5380  function payVendor() private {... */\n    tag_357:\n        /* \"Vendor.sol\":5314:5318  true */\n      0x01\n        /* \"Vendor.sol\":5302:5311  satisfied */\n      0x09\n      0x01\n        /* \"Vendor.sol\":5302:5318  satisfied = true */\n      0x0100\n      exp\n      dup2\n      sload\n      dup2\n      0xff\n      mul\n      not\n      and\n      swap1\n      dup4\n      iszero\n      iszero\n      mul\n      or\n      swap1\n      sstore\n      pop\n        /* \"Vendor.sol\":5328:5333  payee */\n      0x02\n      0x00\n      swap1\n      sload\n      swap1\n      0x0100\n      exp\n      swap1\n      div\n      0xffffffffffffffffffffffffffffffffffffffff\n      and\n        /* \"Vendor.sol\":5328:5342  payee.transfer */\n      0xffffffffffffffffffffffffffffffffffffffff\n      and\n        /* \"Vendor.sol\":5328:5350  payee.transfer(amount) */\n      0x08fc\n        /* \"Vendor.sol\":5343:5349  amount */\n      sload(0x05)\n        /* \"Vendor.sol\":5328:5350  payee.transfer(amount) */\n      swap1\n      dup2\n      iszero\n      mul\n      swap1\n      mload(0x40)\n      0x00\n      mload(0x40)\n      dup1\n      dup4\n      sub\n      dup2\n      dup6\n      dup9\n      dup9\n      call\n      swap4\n      pop\n      pop\n      pop\n      pop\n      iszero\n      dup1\n      iszero\n      tag_510\n      jumpi\n      returndatasize\n      0x00\n      dup1\n      returndatacopy\n      revert(0x00, returndatasize)\n    tag_510:\n      pop\n        /* \"Vendor.sol\":5360:5373  setNewDates() */\n      tag_511\n        /* \"Vendor.sol\":5360:5371  setNewDates */\n      tag_507\n        /* \"Vendor.sol\":5360:5373  setNewDates() */\n      jump\t// in\n    tag_511:\n        /* \"Vendor.sol\":5263:5380  function payVendor() private {... */\n      jump\t// out\n        /* \"Vendor.sol\":7971:8345  function checkGreater(int operator, int _toCheck, int value) private pure returns (bool) {... */\n    tag_491:\n        /* \"Vendor.sol\":8054:8058  bool */\n      0x00\n        /* \"Vendor.sol\":8070:8081  bool status */\n      dup1\n        /* \"Vendor.sol\":8084:8089  false */\n      0x00\n        /* \"Vendor.sol\":8070:8089  bool status = false */\n      swap1\n      pop\n        /* \"Vendor.sol\":8119:8120  1 */\n      0x01\n        /* \"Vendor.sol\":8114:8115  1 */\n      dup1\n        /* \"Vendor.sol\":8103:8111  operator */\n      dup7\n        /* \"Vendor.sol\":8103:8115  operator & 1 */\n      and\n        /* \"Vendor.sol\":8103:8120  operator & 1 == 1 */\n      eq\n        /* \"Vendor.sol\":8099:8316  if (operator & 1 == 1) {... */\n      iszero\n      tag_513\n      jumpi\n        /* \"Vendor.sol\":8151:8156  value */\n      dup3\n        /* \"Vendor.sol\":8140:8148  _toCheck */\n      dup5\n        /* \"Vendor.sol\":8140:8156  _toCheck > value */\n      sgt\n        /* \"Vendor.sol\":8136:8204  if (_toCheck > value) {... */\n      iszero\n      tag_514\n      jumpi\n        /* \"Vendor.sol\":8185:8189  true */\n      0x01\n        /* \"Vendor.sol\":8176:8189  status = true */\n      swap1\n      pop\n        /* \"Vendor.sol\":8136:8204  if (_toCheck > value) {... */\n    tag_514:\n        /* \"Vendor.sol\":8221:8258  checkEqual(operator, _toCheck, value) */\n      tag_515\n        /* \"Vendor.sol\":8232:8240  operator */\n      dup6\n        /* \"Vendor.sol\":8242:8250  _toCheck */\n      dup6\n        /* \"Vendor.sol\":8252:8257  value */\n      dup6\n        /* \"Vendor.sol\":8221:8231  checkEqual */\n      tag_501\n        /* \"Vendor.sol\":8221:8258  checkEqual(operator, _toCheck, value) */\n      jump\t// in\n    tag_515:\n        /* \"Vendor.sol\":8217:8306  if (checkEqual(operator, _toCheck, value)) {... */\n      iszero\n      tag_516\n      jumpi\n        /* \"Vendor.sol\":8287:8291  true */\n      0x01\n        /* \"Vendor.sol\":8278:8291  status = true */\n      swap1\n      pop\n        /* \"Vendor.sol\":8217:8306  if (checkEqual(operator, _toCheck, value)) {... */\n    tag_516:\n        /* \"Vendor.sol\":8099:8316  if (operator & 1 == 1) {... */\n    tag_513:\n        /* \"Vendor.sol\":8332:8338  status */\n      dup1\n        /* \"Vendor.sol\":8325:8338  return status */\n      swap2\n      pop\n      pop\n        /* \"Vendor.sol\":7971:8345  function checkGreater(int operator, int _toCheck, int value) private pure returns (bool) {... */\n      swap4\n      swap3\n      pop\n      pop\n      pop\n      jump\t// out\n        /* \"Vendor.sol\":8350:8721  function checkLess(int operator, int _toCheck, int value) private pure returns (bool) {... */\n    tag_496:\n        /* \"Vendor.sol\":8430:8434  bool */\n      0x00\n        /* \"Vendor.sol\":8446:8457  bool status */\n      dup1\n        /* \"Vendor.sol\":8460:8465  false */\n      0x00\n        /* \"Vendor.sol\":8446:8465  bool status = false */\n      swap1\n      pop\n        /* \"Vendor.sol\":8495:8496  4 */\n      0x04\n        /* \"Vendor.sol\":8490:8491  4 */\n      dup1\n        /* \"Vendor.sol\":8479:8487  operator */\n      dup7\n        /* \"Vendor.sol\":8479:8491  operator & 4 */\n      and\n        /* \"Vendor.sol\":8479:8496  operator & 4 == 4 */\n      eq\n        /* \"Vendor.sol\":8475:8692  if (operator & 4 == 4) {... */\n      iszero\n      tag_518\n      jumpi\n        /* \"Vendor.sol\":8527:8532  value */\n      dup3\n        /* \"Vendor.sol\":8516:8524  _toCheck */\n      dup5\n        /* \"Vendor.sol\":8516:8532  _toCheck < value */\n      slt\n        /* \"Vendor.sol\":8512:8580  if (_toCheck < value) {... */\n      iszero\n      tag_519\n      jumpi\n        /* \"Vendor.sol\":8561:8565  true */\n      0x01\n        /* \"Vendor.sol\":8552:8565  status = true */\n      swap1\n      pop\n        /* \"Vendor.sol\":8512:8580  if (_toCheck < value) {... */\n    tag_519:\n        /* \"Vendor.sol\":8597:8634  checkEqual(operator, _toCheck, value) */\n      tag_520\n        /* \"Vendor.sol\":8608:8616  operator */\n      dup6\n        /* \"Vendor.sol\":8618:8626  _toCheck */\n      dup6\n        /* \"Vendor.sol\":8628:8633  value */\n      dup6\n        /* \"Vendor.sol\":8597:8607  checkEqual */\n      tag_501\n        /* \"Vendor.sol\":8597:8634  checkEqual(operator, _toCheck, value) */\n      jump\t// in\n    tag_520:\n        /* \"Vendor.sol\":8593:8682  if (checkEqual(operator, _toCheck, value)) {... */\n      iszero\n      tag_521\n      jumpi\n        /* \"Vendor.sol\":8663:8667  true */\n      0x01\n        /* \"Vendor.sol\":8654:8667  status = true */\n      swap1\n      pop\n        /* \"Vendor.sol\":8593:8682  if (checkEqual(operator, _toCheck, value)) {... */\n    tag_521:\n        /* \"Vendor.sol\":8475:8692  if (operator & 4 == 4) {... */\n    tag_518:\n        /* \"Vendor.sol\":8708:8714  status */\n      dup1\n        /* \"Vendor.sol\":8701:8714  return status */\n      swap2\n      pop\n      pop\n        /* \"Vendor.sol\":8350:8721  function checkLess(int operator, int _toCheck, int value) private pure returns (bool) {... */\n      swap4\n      swap3\n      pop\n      pop\n      pop\n      jump\t// out\n        /* \"Vendor.sol\":8726:8965  function checkEqual(int operator, int _toCheck, int value) private pure returns (bool) {... */\n    tag_501:\n        /* \"Vendor.sol\":8807:8811  bool */\n      0x00\n        /* \"Vendor.sol\":8843:8844  2 */\n      0x02\n        /* \"Vendor.sol\":8838:8839  2 */\n      dup1\n        /* \"Vendor.sol\":8827:8835  operator */\n      dup6\n        /* \"Vendor.sol\":8827:8839  operator & 2 */\n      and\n        /* \"Vendor.sol\":8827:8844  operator & 2 == 2 */\n      eq\n        /* \"Vendor.sol\":8823:8937  if (operator & 2 == 2) {... */\n      iszero\n      tag_523\n      jumpi\n        /* \"Vendor.sol\":8876:8881  value */\n      dup2\n        /* \"Vendor.sol\":8864:8872  _toCheck */\n      dup4\n        /* \"Vendor.sol\":8864:8881  _toCheck == value */\n      eq\n        /* \"Vendor.sol\":8860:8927  if (_toCheck == value) {... */\n      iszero\n      tag_524\n      jumpi\n        /* \"Vendor.sol\":8908:8912  true */\n      0x01\n        /* \"Vendor.sol\":8901:8912  return true */\n      swap1\n      pop\n      jump(tag_522)\n        /* \"Vendor.sol\":8860:8927  if (_toCheck == value) {... */\n    tag_524:\n        /* \"Vendor.sol\":8823:8937  if (operator & 2 == 2) {... */\n    tag_523:\n        /* \"Vendor.sol\":8953:8958  false */\n      0x00\n        /* \"Vendor.sol\":8946:8958  return false */\n      swap1\n      pop\n        /* \"Vendor.sol\":8726:8965  function checkEqual(int operator, int _toCheck, int value) private pure returns (bool) {... */\n    tag_522:\n      swap4\n      swap3\n      pop\n      pop\n      pop\n      jump\t// out\n        /* \"Vendor.sol\":5512:5799  function setNewDates() private checkExpiry() {... */\n    tag_507:\n        /* \"Vendor.sol\":10118:10128  expiryDate */\n      sload(0x04)\n        /* \"Vendor.sol\":10102:10114  block.number */\n      number\n        /* \"Vendor.sol\":10102:10128  block.number >= expiryDate */\n      lt\n        /* \"Vendor.sol\":10098:10179  if (block.number >= expiryDate) {... */\n      tag_526\n      jumpi\n        /* \"Vendor.sol\":10152:10166  Stages.Expired */\n      0x04\n        /* \"Vendor.sol\":10144:10149  stage */\n      0x09\n      0x00\n        /* \"Vendor.sol\":10144:10166  stage = Stages.Expired */\n      0x0100\n      exp\n      dup2\n      sload\n      dup2\n      0xff\n      mul\n      not\n      and\n      swap1\n      dup4\n      0x04\n      dup2\n      gt\n      iszero\n      tag_527\n      jumpi\n      tag_528\n      tag_170\n      jump\t// in\n    tag_528:\n    tag_527:\n      mul\n      or\n      swap1\n      sstore\n      pop\n        /* \"Vendor.sol\":10098:10179  if (block.number >= expiryDate) {... */\n    tag_526:\n        /* \"Vendor.sol\":5571:5577  uint i */\n      0x00\n        /* \"Vendor.sol\":5567:5647  for(uint i = 0; i<conditionCount; i++){... */\n    tag_530:\n        /* \"Vendor.sol\":5585:5599  conditionCount */\n      sload(0x23)\n        /* \"Vendor.sol\":5583:5584  i */\n      dup2\n        /* \"Vendor.sol\":5583:5599  i<conditionCount */\n      lt\n        /* \"Vendor.sol\":5567:5647  for(uint i = 0; i<conditionCount; i++){... */\n      iszero\n      tag_531\n      jumpi\n        /* \"Vendor.sol\":5635:5636  0 */\n      0x00\n        /* \"Vendor.sol\":5619:5629  cumulative */\n      0x24\n        /* \"Vendor.sol\":5619:5632  cumulative[i] */\n      0x00\n        /* \"Vendor.sol\":5630:5631  i */\n      dup4\n        /* \"Vendor.sol\":5619:5632  cumulative[i] */\n      dup2\n      mstore\n      0x20\n      add\n      swap1\n      dup2\n      mstore\n      0x20\n      add\n      0x00\n      keccak256\n        /* \"Vendor.sol\":5619:5636  cumulative[i] = 0 */\n      dup2\n      swap1\n      sstore\n      pop\n        /* \"Vendor.sol\":5601:5604  i++ */\n      dup1\n      dup1\n      tag_533\n      swap1\n      tag_221\n      jump\t// in\n    tag_533:\n      swap2\n      pop\n      pop\n        /* \"Vendor.sol\":5567:5647  for(uint i = 0; i<conditionCount; i++){... */\n      jump(tag_530)\n    tag_531:\n      pop\n        /* \"Vendor.sol\":5664:5665  0 */\n      0x00\n        /* \"Vendor.sol\":5656:5661  count */\n      0x25\n        /* \"Vendor.sol\":5656:5665  count = 0 */\n      dup2\n      swap1\n      sstore\n      pop\n        /* \"Vendor.sol\":5682:5687  false */\n      0x00\n        /* \"Vendor.sol\":5675:5679  paid */\n      0x02\n      0x15\n        /* \"Vendor.sol\":5675:5687  paid = false */\n      0x0100\n      exp\n      dup2\n      sload\n      dup2\n      0xff\n      mul\n      not\n      and\n      swap1\n      dup4\n      iszero\n      iszero\n      mul\n      or\n      swap1\n      sstore\n      pop\n        /* \"Vendor.sol\":5715:5730  nextBillingDate */\n      sload(0x07)\n        /* \"Vendor.sol\":5697:5712  prevBillingDate */\n      0x06\n        /* \"Vendor.sol\":5697:5730  prevBillingDate = nextBillingDate */\n      dup2\n      swap1\n      sstore\n      pop\n        /* \"Vendor.sol\":953:957  6400 */\n      0x1900\n        /* \"Vendor.sol\":5776:5778  30 */\n      0x1e\n        /* \"Vendor.sol\":5776:5792  30 * blocksDaily */\n      tag_534\n      swap2\n      swap1\n      tag_472\n      jump\t// in\n    tag_534:\n        /* \"Vendor.sol\":5758:5773  nextBillingDate */\n      sload(0x07)\n        /* \"Vendor.sol\":5758:5792  nextBillingDate + 30 * blocksDaily */\n      tag_535\n      swap2\n      swap1\n      tag_318\n      jump\t// in\n    tag_535:\n        /* \"Vendor.sol\":5740:5755  nextBillingDate */\n      0x07\n        /* \"Vendor.sol\":5740:5792  nextBillingDate = nextBillingDate + 30 * blocksDaily */\n      dup2\n      swap1\n      sstore\n      pop\n        /* \"Vendor.sol\":5512:5799  function setNewDates() private checkExpiry() {... */\n      jump\t// out\n    tag_437:\n      dup3\n      dup1\n      sload\n      tag_536\n      swap1\n      tag_228\n      jump\t// in\n    tag_536:\n      swap1\n      0x00\n      mstore\n      keccak256(0x00, 0x20)\n      swap1\n      0x1f\n      add\n      0x20\n      swap1\n      div\n      dup2\n      add\n      swap3\n      dup3\n      tag_538\n      jumpi\n      0x00\n      dup6\n      sstore\n      jump(tag_537)\n    tag_538:\n      dup3\n      0x1f\n      lt\n      tag_539\n      jumpi\n      dup1\n      mload\n      not(0xff)\n      and\n      dup4\n      dup1\n      add\n      or\n      dup6\n      sstore\n      jump(tag_537)\n    tag_539:\n      dup3\n      dup1\n      add\n      0x01\n      add\n      dup6\n      sstore\n      dup3\n      iszero\n      tag_537\n      jumpi\n      swap2\n      dup3\n      add\n    tag_540:\n      dup3\n      dup2\n      gt\n      iszero\n      tag_541\n      jumpi\n      dup3\n      mload\n      dup3\n      sstore\n      swap2\n      0x20\n      add\n      swap2\n      swap1\n      0x01\n      add\n      swap1\n      jump(tag_540)\n    tag_541:\n    tag_537:\n      pop\n      swap1\n      pop\n      tag_542\n      swap2\n      swap1\n      tag_543\n      jump\t// in\n    tag_542:\n      pop\n      swap1\n      jump\t// out\n    tag_453:\n      mload(0x40)\n      dup1\n      0x0100\n      add\n      0x40\n      mstore\n      dup1\n      0x08\n      swap1\n    tag_544:\n      0x60\n      dup2\n      mstore\n      0x20\n      add\n      swap1\n      0x01\n      swap1\n      sub\n      swap1\n      dup2\n      tag_544\n      jumpi\n      swap1\n      pop\n      pop\n      swap1\n      jump\t// out\n    tag_455:\n      mload(0x40)\n      dup1\n      0x0100\n      add\n      0x40\n      mstore\n      dup1\n      0x08\n      swap1\n      0x20\n      dup3\n      mul\n      dup1\n      calldatasize\n      dup4\n      calldatacopy\n      dup1\n      dup3\n      add\n      swap2\n      pop\n      pop\n      swap1\n      pop\n      pop\n      swap1\n      jump\t// out\n    tag_543:\n    tag_545:\n      dup1\n      dup3\n      gt\n      iszero\n      tag_546\n      jumpi\n      0x00\n      dup2\n      0x00\n      swap1\n      sstore\n      pop\n      0x01\n      add\n      jump(tag_545)\n    tag_546:\n      pop\n      swap1\n      jump\t// out\n        /* \"#utility.yul\":24:676   */\n    tag_548:\n        /* \"#utility.yul\":117:122   */\n      0x00\n        /* \"#utility.yul\":142:220   */\n      tag_550\n        /* \"#utility.yul\":158:219   */\n      tag_551\n        /* \"#utility.yul\":212:218   */\n      dup5\n        /* \"#utility.yul\":158:219   */\n      tag_552\n      jump\t// in\n    tag_551:\n        /* \"#utility.yul\":142:220   */\n      tag_553\n      jump\t// in\n    tag_550:\n        /* \"#utility.yul\":133:220   */\n      swap1\n      pop\n        /* \"#utility.yul\":240:245   */\n      dup1\n        /* \"#utility.yul\":266:272   */\n      dup3\n        /* \"#utility.yul\":316:319   */\n      dup6\n        /* \"#utility.yul\":308:312   */\n      0x20\n        /* \"#utility.yul\":300:306   */\n      dup7\n        /* \"#utility.yul\":296:313   */\n      mul\n        /* \"#utility.yul\":291:294   */\n      dup3\n        /* \"#utility.yul\":287:314   */\n      add\n        /* \"#utility.yul\":284:320   */\n      gt\n        /* \"#utility.yul\":281:283   */\n      iszero\n      tag_554\n      jumpi\n        /* \"#utility.yul\":335:414   */\n      tag_555\n      tag_556\n      jump\t// in\n    tag_555:\n        /* \"#utility.yul\":281:283   */\n    tag_554:\n        /* \"#utility.yul\":448:449   */\n      0x00\n        /* \"#utility.yul\":433:670   */\n    tag_557:\n        /* \"#utility.yul\":458:464   */\n      dup6\n        /* \"#utility.yul\":455:456   */\n      dup2\n        /* \"#utility.yul\":452:465   */\n      lt\n        /* \"#utility.yul\":433:670   */\n      iszero\n      tag_559\n      jumpi\n        /* \"#utility.yul\":526:529   */\n      dup2\n        /* \"#utility.yul\":555:591   */\n      tag_560\n        /* \"#utility.yul\":587:590   */\n      dup9\n        /* \"#utility.yul\":575:585   */\n      dup3\n        /* \"#utility.yul\":555:591   */\n      tag_561\n      jump\t// in\n    tag_560:\n        /* \"#utility.yul\":550:553   */\n      dup5\n        /* \"#utility.yul\":543:592   */\n      mstore\n        /* \"#utility.yul\":621:625   */\n      0x20\n        /* \"#utility.yul\":616:619   */\n      dup5\n        /* \"#utility.yul\":612:626   */\n      add\n        /* \"#utility.yul\":605:626   */\n      swap4\n      pop\n        /* \"#utility.yul\":655:659   */\n      0x20\n        /* \"#utility.yul\":650:653   */\n      dup4\n        /* \"#utility.yul\":646:660   */\n      add\n        /* \"#utility.yul\":639:660   */\n      swap3\n      pop\n        /* \"#utility.yul\":493:670   */\n      pop\n        /* \"#utility.yul\":480:481   */\n      0x01\n        /* \"#utility.yul\":477:478   */\n      dup2\n        /* \"#utility.yul\":473:482   */\n      add\n        /* \"#utility.yul\":468:482   */\n      swap1\n      pop\n        /* \"#utility.yul\":433:670   */\n      jump(tag_557)\n    tag_559:\n        /* \"#utility.yul\":437:451   */\n      pop\n        /* \"#utility.yul\":123:676   */\n      pop\n      pop\n      swap4\n      swap3\n      pop\n      pop\n      pop\n      jump\t// out\n        /* \"#utility.yul\":698:1417   */\n    tag_562:\n        /* \"#utility.yul\":793:798   */\n      0x00\n        /* \"#utility.yul\":818:898   */\n      tag_564\n        /* \"#utility.yul\":834:897   */\n      tag_565\n        /* \"#utility.yul\":890:896   */\n      dup5\n        /* \"#utility.yul\":834:897   */\n      tag_566\n      jump\t// in\n    tag_565:\n        /* \"#utility.yul\":818:898   */\n      tag_553\n      jump\t// in\n    tag_564:\n        /* \"#utility.yul\":809:898   */\n      swap1\n      pop\n        /* \"#utility.yul\":918:923   */\n      dup1\n        /* \"#utility.yul\":947:953   */\n      dup4\n        /* \"#utility.yul\":940:945   */\n      dup3\n        /* \"#utility.yul\":933:954   */\n      mstore\n        /* \"#utility.yul\":981:985   */\n      0x20\n        /* \"#utility.yul\":974:979   */\n      dup3\n        /* \"#utility.yul\":970:986   */\n      add\n        /* \"#utility.yul\":963:986   */\n      swap1\n      pop\n        /* \"#utility.yul\":1007:1013   */\n      dup3\n        /* \"#utility.yul\":1057:1060   */\n      dup6\n        /* \"#utility.yul\":1049:1053   */\n      0x20\n        /* \"#utility.yul\":1041:1047   */\n      dup7\n        /* \"#utility.yul\":1037:1054   */\n      mul\n        /* \"#utility.yul\":1032:1035   */\n      dup3\n        /* \"#utility.yul\":1028:1055   */\n      add\n        /* \"#utility.yul\":1025:1061   */\n      gt\n        /* \"#utility.yul\":1022:1024   */\n      iszero\n      tag_567\n      jumpi\n        /* \"#utility.yul\":1076:1155   */\n      tag_568\n      tag_556\n      jump\t// in\n    tag_568:\n        /* \"#utility.yul\":1022:1024   */\n    tag_567:\n        /* \"#utility.yul\":1189:1190   */\n      0x00\n        /* \"#utility.yul\":1174:1411   */\n    tag_569:\n        /* \"#utility.yul\":1199:1205   */\n      dup6\n        /* \"#utility.yul\":1196:1197   */\n      dup2\n        /* \"#utility.yul\":1193:1206   */\n      lt\n        /* \"#utility.yul\":1174:1411   */\n      iszero\n      tag_571\n      jumpi\n        /* \"#utility.yul\":1267:1270   */\n      dup2\n        /* \"#utility.yul\":1296:1332   */\n      tag_572\n        /* \"#utility.yul\":1328:1331   */\n      dup9\n        /* \"#utility.yul\":1316:1326   */\n      dup3\n        /* \"#utility.yul\":1296:1332   */\n      tag_561\n      jump\t// in\n    tag_572:\n        /* \"#utility.yul\":1291:1294   */\n      dup5\n        /* \"#utility.yul\":1284:1333   */\n      mstore\n        /* \"#utility.yul\":1362:1366   */\n      0x20\n        /* \"#utility.yul\":1357:1360   */\n      dup5\n        /* \"#utility.yul\":1353:1367   */\n      add\n        /* \"#utility.yul\":1346:1367   */\n      swap4\n      pop\n        /* \"#utility.yul\":1396:1400   */\n      0x20\n        /* \"#utility.yul\":1391:1394   */\n      dup4\n        /* \"#utility.yul\":1387:1401   */\n      add\n        /* \"#utility.yul\":1380:1401   */\n      swap3\n      pop\n        /* \"#utility.yul\":1234:1411   */\n      pop\n        /* \"#utility.yul\":1221:1222   */\n      0x01\n        /* \"#utility.yul\":1218:1219   */\n      dup2\n        /* \"#utility.yul\":1214:1223   */\n      add\n        /* \"#utility.yul\":1209:1223   */\n      swap1\n      pop\n        /* \"#utility.yul\":1174:1411   */\n      jump(tag_569)\n    tag_571:\n        /* \"#utility.yul\":1178:1192   */\n      pop\n        /* \"#utility.yul\":799:1417   */\n      pop\n      pop\n      swap4\n      swap3\n      pop\n      pop\n      pop\n      jump\t// out\n        /* \"#utility.yul\":1440:2330   */\n    tag_573:\n        /* \"#utility.yul\":1544:1549   */\n      0x00\n        /* \"#utility.yul\":1569:1658   */\n      tag_575\n        /* \"#utility.yul\":1585:1657   */\n      tag_576\n        /* \"#utility.yul\":1650:1656   */\n      dup5\n        /* \"#utility.yul\":1585:1657   */\n      tag_577\n      jump\t// in\n    tag_576:\n        /* \"#utility.yul\":1569:1658   */\n      tag_553\n      jump\t// in\n    tag_575:\n        /* \"#utility.yul\":1560:1658   */\n      swap1\n      pop\n        /* \"#utility.yul\":1678:1683   */\n      dup1\n        /* \"#utility.yul\":1704:1710   */\n      dup3\n        /* \"#utility.yul\":1754:1757   */\n      dup6\n        /* \"#utility.yul\":1746:1750   */\n      0x20\n        /* \"#utility.yul\":1738:1744   */\n      dup7\n        /* \"#utility.yul\":1734:1751   */\n      mul\n        /* \"#utility.yul\":1729:1732   */\n      dup3\n        /* \"#utility.yul\":1725:1752   */\n      add\n        /* \"#utility.yul\":1722:1758   */\n      gt\n        /* \"#utility.yul\":1719:1721   */\n      iszero\n      tag_578\n      jumpi\n        /* \"#utility.yul\":1773:1852   */\n      tag_579\n      tag_556\n      jump\t// in\n    tag_579:\n        /* \"#utility.yul\":1719:1721   */\n    tag_578:\n        /* \"#utility.yul\":1886:1887   */\n      0x00\n        /* \"#utility.yul\":1871:2324   */\n    tag_580:\n        /* \"#utility.yul\":1896:1902   */\n      dup6\n        /* \"#utility.yul\":1893:1894   */\n      dup2\n        /* \"#utility.yul\":1890:1903   */\n      lt\n        /* \"#utility.yul\":1871:2324   */\n      iszero\n      tag_582\n      jumpi\n        /* \"#utility.yul\":1978:1981   */\n      dup2\n        /* \"#utility.yul\":1965:1982   */\n      calldataload\n        /* \"#utility.yul\":2014:2032   */\n      0xffffffffffffffff\n        /* \"#utility.yul\":2001:2012   */\n      dup2\n        /* \"#utility.yul\":1998:2033   */\n      gt\n        /* \"#utility.yul\":1995:1997   */\n      iszero\n      tag_583\n      jumpi\n        /* \"#utility.yul\":2036:2115   */\n      tag_584\n      tag_585\n      jump\t// in\n    tag_584:\n        /* \"#utility.yul\":1995:1997   */\n    tag_583:\n        /* \"#utility.yul\":2160:2171   */\n      dup1\n        /* \"#utility.yul\":2152:2158   */\n      dup7\n        /* \"#utility.yul\":2148:2172   */\n      add\n        /* \"#utility.yul\":2198:2245   */\n      tag_586\n        /* \"#utility.yul\":2241:2244   */\n      dup10\n        /* \"#utility.yul\":2229:2239   */\n      dup3\n        /* \"#utility.yul\":2198:2245   */\n      tag_587\n      jump\t// in\n    tag_586:\n        /* \"#utility.yul\":2193:2196   */\n      dup6\n        /* \"#utility.yul\":2186:2246   */\n      mstore\n        /* \"#utility.yul\":2275:2279   */\n      0x20\n        /* \"#utility.yul\":2270:2273   */\n      dup6\n        /* \"#utility.yul\":2266:2280   */\n      add\n        /* \"#utility.yul\":2259:2280   */\n      swap5\n      pop\n        /* \"#utility.yul\":2309:2313   */\n      0x20\n        /* \"#utility.yul\":2304:2307   */\n      dup5\n        /* \"#utility.yul\":2300:2314   */\n      add\n        /* \"#utility.yul\":2293:2314   */\n      swap4\n      pop\n        /* \"#utility.yul\":1931:2324   */\n      pop\n      pop\n        /* \"#utility.yul\":1918:1919   */\n      0x01\n        /* \"#utility.yul\":1915:1916   */\n      dup2\n        /* \"#utility.yul\":1911:1920   */\n      add\n        /* \"#utility.yul\":1906:1920   */\n      swap1\n      pop\n        /* \"#utility.yul\":1871:2324   */\n      jump(tag_580)\n    tag_582:\n        /* \"#utility.yul\":1875:1889   */\n      pop\n        /* \"#utility.yul\":1550:2330   */\n      pop\n      pop\n      swap4\n      swap3\n      pop\n      pop\n      pop\n      jump\t// out\n        /* \"#utility.yul\":2336:2748   */\n    tag_588:\n        /* \"#utility.yul\":2414:2419   */\n      0x00\n        /* \"#utility.yul\":2439:2505   */\n      tag_590\n        /* \"#utility.yul\":2455:2504   */\n      tag_591\n        /* \"#utility.yul\":2497:2503   */\n      dup5\n        /* \"#utility.yul\":2455:2504   */\n      tag_592\n      jump\t// in\n    tag_591:\n        /* \"#utility.yul\":2439:2505   */\n      tag_553\n      jump\t// in\n    tag_590:\n        /* \"#utility.yul\":2430:2505   */\n      swap1\n      pop\n        /* \"#utility.yul\":2528:2534   */\n      dup3\n        /* \"#utility.yul\":2521:2526   */\n      dup2\n        /* \"#utility.yul\":2514:2535   */\n      mstore\n        /* \"#utility.yul\":2566:2570   */\n      0x20\n        /* \"#utility.yul\":2559:2564   */\n      dup2\n        /* \"#utility.yul\":2555:2571   */\n      add\n        /* \"#utility.yul\":2604:2607   */\n      dup5\n        /* \"#utility.yul\":2595:2601   */\n      dup5\n        /* \"#utility.yul\":2590:2593   */\n      dup5\n        /* \"#utility.yul\":2586:2602   */\n      add\n        /* \"#utility.yul\":2583:2608   */\n      gt\n        /* \"#utility.yul\":2580:2582   */\n      iszero\n      tag_593\n      jumpi\n        /* \"#utility.yul\":2611:2690   */\n      tag_594\n      tag_595\n      jump\t// in\n    tag_594:\n        /* \"#utility.yul\":2580:2582   */\n    tag_593:\n        /* \"#utility.yul\":2701:2742   */\n      tag_596\n        /* \"#utility.yul\":2735:2741   */\n      dup5\n        /* \"#utility.yul\":2730:2733   */\n      dup3\n        /* \"#utility.yul\":2725:2728   */\n      dup6\n        /* \"#utility.yul\":2701:2742   */\n      tag_597\n      jump\t// in\n    tag_596:\n        /* \"#utility.yul\":2420:2748   */\n      pop\n      swap4\n      swap3\n      pop\n      pop\n      pop\n      jump\t// out\n        /* \"#utility.yul\":2754:2893   */\n    tag_598:\n        /* \"#utility.yul\":2800:2805   */\n      0x00\n        /* \"#utility.yul\":2838:2844   */\n      dup2\n        /* \"#utility.yul\":2825:2845   */\n      calldataload\n        /* \"#utility.yul\":2816:2845   */\n      swap1\n      pop\n        /* \"#utility.yul\":2854:2887   */\n      tag_600\n        /* \"#utility.yul\":2881:2886   */\n      dup2\n        /* \"#utility.yul\":2854:2887   */\n      tag_601\n      jump\t// in\n    tag_600:\n        /* \"#utility.yul\":2806:2893   */\n      swap3\n      swap2\n      pop\n      pop\n      jump\t// out\n        /* \"#utility.yul\":2916:3253   */\n    tag_602:\n        /* \"#utility.yul\":2984:2989   */\n      0x00\n        /* \"#utility.yul\":3033:3036   */\n      dup3\n        /* \"#utility.yul\":3026:3030   */\n      0x1f\n        /* \"#utility.yul\":3018:3024   */\n      dup4\n        /* \"#utility.yul\":3014:3031   */\n      add\n        /* \"#utility.yul\":3010:3037   */\n      slt\n        /* \"#utility.yul\":3000:3002   */\n      tag_604\n      jumpi\n        /* \"#utility.yul\":3041:3120   */\n      tag_605\n      tag_585\n      jump\t// in\n    tag_605:\n        /* \"#utility.yul\":3000:3002   */\n    tag_604:\n        /* \"#utility.yul\":3145:3149   */\n      0x08\n        /* \"#utility.yul\":3167:3247   */\n      tag_606\n        /* \"#utility.yul\":3243:3246   */\n      dup5\n        /* \"#utility.yul\":3235:3241   */\n      dup3\n        /* \"#utility.yul\":3227:3233   */\n      dup6\n        /* \"#utility.yul\":3167:3247   */\n      tag_548\n      jump\t// in\n    tag_606:\n        /* \"#utility.yul\":3158:3247   */\n      swap2\n      pop\n        /* \"#utility.yul\":2990:3253   */\n      pop\n      swap3\n      swap2\n      pop\n      pop\n      jump\t// out\n        /* \"#utility.yul\":3275:3643   */\n    tag_607:\n        /* \"#utility.yul\":3345:3350   */\n      0x00\n        /* \"#utility.yul\":3394:3397   */\n      dup3\n        /* \"#utility.yul\":3387:3391   */\n      0x1f\n        /* \"#utility.yul\":3379:3385   */\n      dup4\n        /* \"#utility.yul\":3375:3392   */\n      add\n        /* \"#utility.yul\":3371:3398   */\n      slt\n        /* \"#utility.yul\":3361:3363   */\n      tag_609\n      jumpi\n        /* \"#utility.yul\":3402:3481   */\n      tag_610\n      tag_585\n      jump\t// in\n    tag_610:\n        /* \"#utility.yul\":3361:3363   */\n    tag_609:\n        /* \"#utility.yul\":3519:3525   */\n      dup2\n        /* \"#utility.yul\":3506:3526   */\n      calldataload\n        /* \"#utility.yul\":3544:3637   */\n      tag_611\n        /* \"#utility.yul\":3633:3636   */\n      dup5\n        /* \"#utility.yul\":3625:3631   */\n      dup3\n        /* \"#utility.yul\":3618:3622   */\n      0x20\n        /* \"#utility.yul\":3610:3616   */\n      dup7\n        /* \"#utility.yul\":3606:3623   */\n      add\n        /* \"#utility.yul\":3544:3637   */\n      tag_562\n      jump\t// in\n    tag_611:\n        /* \"#utility.yul\":3535:3637   */\n      swap2\n      pop\n        /* \"#utility.yul\":3351:3643   */\n      pop\n      swap3\n      swap2\n      pop\n      pop\n      jump\t// out\n        /* \"#utility.yul\":3666:4025   */\n    tag_612:\n        /* \"#utility.yul\":3745:3750   */\n      0x00\n        /* \"#utility.yul\":3794:3797   */\n      dup3\n        /* \"#utility.yul\":3787:3791   */\n      0x1f\n        /* \"#utility.yul\":3779:3785   */\n      dup4\n        /* \"#utility.yul\":3775:3792   */\n      add\n        /* \"#utility.yul\":3771:3798   */\n      slt\n        /* \"#utility.yul\":3761:3763   */\n      tag_614\n      jumpi\n        /* \"#utility.yul\":3802:3881   */\n      tag_615\n      tag_585\n      jump\t// in\n    tag_615:\n        /* \"#utility.yul\":3761:3763   */\n    tag_614:\n        /* \"#utility.yul\":3906:3910   */\n      0x08\n        /* \"#utility.yul\":3928:4019   */\n      tag_616\n        /* \"#utility.yul\":4015:4018   */\n      dup5\n        /* \"#utility.yul\":4007:4013   */\n      dup3\n        /* \"#utility.yul\":3999:4005   */\n      dup6\n        /* \"#utility.yul\":3928:4019   */\n      tag_573\n      jump\t// in\n    tag_616:\n        /* \"#utility.yul\":3919:4019   */\n      swap2\n      pop\n        /* \"#utility.yul\":3751:4025   */\n      pop\n      swap3\n      swap2\n      pop\n      pop\n      jump\t// out\n        /* \"#utility.yul\":4031:4168   */\n    tag_561:\n        /* \"#utility.yul\":4076:4081   */\n      0x00\n        /* \"#utility.yul\":4114:4120   */\n      dup2\n        /* \"#utility.yul\":4101:4121   */\n      calldataload\n        /* \"#utility.yul\":4092:4121   */\n      swap1\n      pop\n        /* \"#utility.yul\":4130:4162   */\n      tag_618\n        /* \"#utility.yul\":4156:4161   */\n      dup2\n        /* \"#utility.yul\":4130:4162   */\n      tag_619\n      jump\t// in\n    tag_618:\n        /* \"#utility.yul\":4082:4168   */\n      swap3\n      swap2\n      pop\n      pop\n      jump\t// out\n        /* \"#utility.yul\":4188:4528   */\n    tag_587:\n        /* \"#utility.yul\":4244:4249   */\n      0x00\n        /* \"#utility.yul\":4293:4296   */\n      dup3\n        /* \"#utility.yul\":4286:4290   */\n      0x1f\n        /* \"#utility.yul\":4278:4284   */\n      dup4\n        /* \"#utility.yul\":4274:4291   */\n      add\n        /* \"#utility.yul\":4270:4297   */\n      slt\n        /* \"#utility.yul\":4260:4262   */\n      tag_621\n      jumpi\n        /* \"#utility.yul\":4301:4380   */\n      tag_622\n      tag_585\n      jump\t// in\n    tag_622:\n        /* \"#utility.yul\":4260:4262   */\n    tag_621:\n        /* \"#utility.yul\":4418:4424   */\n      dup2\n        /* \"#utility.yul\":4405:4425   */\n      calldataload\n        /* \"#utility.yul\":4443:4522   */\n      tag_623\n        /* \"#utility.yul\":4518:4521   */\n      dup5\n        /* \"#utility.yul\":4510:4516   */\n      dup3\n        /* \"#utility.yul\":4503:4507   */\n      0x20\n        /* \"#utility.yul\":4495:4501   */\n      dup7\n        /* \"#utility.yul\":4491:4508   */\n      add\n        /* \"#utility.yul\":4443:4522   */\n      tag_588\n      jump\t// in\n    tag_623:\n        /* \"#utility.yul\":4434:4522   */\n      swap2\n      pop\n        /* \"#utility.yul\":4250:4528   */\n      pop\n      swap3\n      swap2\n      pop\n      pop\n      jump\t// out\n        /* \"#utility.yul\":4534:4673   */\n    tag_624:\n        /* \"#utility.yul\":4580:4585   */\n      0x00\n        /* \"#utility.yul\":4618:4624   */\n      dup2\n        /* \"#utility.yul\":4605:4625   */\n      calldataload\n        /* \"#utility.yul\":4596:4625   */\n      swap1\n      pop\n        /* \"#utility.yul\":4634:4667   */\n      tag_626\n        /* \"#utility.yul\":4661:4666   */\n      dup2\n        /* \"#utility.yul\":4634:4667   */\n      tag_627\n      jump\t// in\n    tag_626:\n        /* \"#utility.yul\":4586:4673   */\n      swap3\n      swap2\n      pop\n      pop\n      jump\t// out\n        /* \"#utility.yul\":4679:5008   */\n    tag_73:\n        /* \"#utility.yul\":4738:4744   */\n      0x00\n        /* \"#utility.yul\":4787:4789   */\n      0x20\n        /* \"#utility.yul\":4775:4784   */\n      dup3\n        /* \"#utility.yul\":4766:4773   */\n      dup5\n        /* \"#utility.yul\":4762:4785   */\n      sub\n        /* \"#utility.yul\":4758:4790   */\n      slt\n        /* \"#utility.yul\":4755:4757   */\n      iszero\n      tag_629\n      jumpi\n        /* \"#utility.yul\":4793:4872   */\n      tag_630\n      tag_631\n      jump\t// in\n    tag_630:\n        /* \"#utility.yul\":4755:4757   */\n    tag_629:\n        /* \"#utility.yul\":4913:4914   */\n      0x00\n        /* \"#utility.yul\":4938:4991   */\n      tag_632\n        /* \"#utility.yul\":4983:4990   */\n      dup5\n        /* \"#utility.yul\":4974:4980   */\n      dup3\n        /* \"#utility.yul\":4963:4972   */\n      dup6\n        /* \"#utility.yul\":4959:4981   */\n      add\n        /* \"#utility.yul\":4938:4991   */\n      tag_598\n      jump\t// in\n    tag_632:\n        /* \"#utility.yul\":4928:4991   */\n      swap2\n      pop\n        /* \"#utility.yul\":4884:5001   */\n      pop\n        /* \"#utility.yul\":4745:5008   */\n      swap3\n      swap2\n      pop\n      pop\n      jump\t// out\n        /* \"#utility.yul\":5014:5925   */\n    tag_122:\n        /* \"#utility.yul\":5109:5115   */\n      0x00\n        /* \"#utility.yul\":5117:5123   */\n      dup1\n        /* \"#utility.yul\":5125:5131   */\n      0x00\n        /* \"#utility.yul\":5133:5139   */\n      dup1\n        /* \"#utility.yul\":5141:5147   */\n      0x00\n        /* \"#utility.yul\":5190:5193   */\n      0xa0\n        /* \"#utility.yul\":5178:5187   */\n      dup7\n        /* \"#utility.yul\":5169:5176   */\n      dup9\n        /* \"#utility.yul\":5165:5188   */\n      sub\n        /* \"#utility.yul\":5161:5194   */\n      slt\n        /* \"#utility.yul\":5158:5160   */\n      iszero\n      tag_634\n      jumpi\n        /* \"#utility.yul\":5197:5276   */\n      tag_635\n      tag_631\n      jump\t// in\n    tag_635:\n        /* \"#utility.yul\":5158:5160   */\n    tag_634:\n        /* \"#utility.yul\":5317:5318   */\n      0x00\n        /* \"#utility.yul\":5342:5395   */\n      tag_636\n        /* \"#utility.yul\":5387:5394   */\n      dup9\n        /* \"#utility.yul\":5378:5384   */\n      dup3\n        /* \"#utility.yul\":5367:5376   */\n      dup10\n        /* \"#utility.yul\":5363:5385   */\n      add\n        /* \"#utility.yul\":5342:5395   */\n      tag_598\n      jump\t// in\n    tag_636:\n        /* \"#utility.yul\":5332:5395   */\n      swap6\n      pop\n        /* \"#utility.yul\":5288:5405   */\n      pop\n        /* \"#utility.yul\":5444:5446   */\n      0x20\n        /* \"#utility.yul\":5470:5523   */\n      tag_637\n        /* \"#utility.yul\":5515:5522   */\n      dup9\n        /* \"#utility.yul\":5506:5512   */\n      dup3\n        /* \"#utility.yul\":5495:5504   */\n      dup10\n        /* \"#utility.yul\":5491:5513   */\n      add\n        /* \"#utility.yul\":5470:5523   */\n      tag_624\n      jump\t// in\n    tag_637:\n        /* \"#utility.yul\":5460:5523   */\n      swap5\n      pop\n        /* \"#utility.yul\":5415:5533   */\n      pop\n        /* \"#utility.yul\":5572:5574   */\n      0x40\n        /* \"#utility.yul\":5598:5651   */\n      tag_638\n        /* \"#utility.yul\":5643:5650   */\n      dup9\n        /* \"#utility.yul\":5634:5640   */\n      dup3\n        /* \"#utility.yul\":5623:5632   */\n      dup10\n        /* \"#utility.yul\":5619:5641   */\n      add\n        /* \"#utility.yul\":5598:5651   */\n      tag_624\n      jump\t// in\n    tag_638:\n        /* \"#utility.yul\":5588:5651   */\n      swap4\n      pop\n        /* \"#utility.yul\":5543:5661   */\n      pop\n        /* \"#utility.yul\":5700:5702   */\n      0x60\n        /* \"#utility.yul\":5726:5779   */\n      tag_639\n        /* \"#utility.yul\":5771:5778   */\n      dup9\n        /* \"#utility.yul\":5762:5768   */\n      dup3\n        /* \"#utility.yul\":5751:5760   */\n      dup10\n        /* \"#utility.yul\":5747:5769   */\n      add\n        /* \"#utility.yul\":5726:5779   */\n      tag_624\n      jump\t// in\n    tag_639:\n        /* \"#utility.yul\":5716:5779   */\n      swap3\n      pop\n        /* \"#utility.yul\":5671:5789   */\n      pop\n        /* \"#utility.yul\":5828:5831   */\n      0x80\n        /* \"#utility.yul\":5855:5908   */\n      tag_640\n        /* \"#utility.yul\":5900:5907   */\n      dup9\n        /* \"#utility.yul\":5891:5897   */\n      dup3\n        /* \"#utility.yul\":5880:5889   */\n      dup10\n        /* \"#utility.yul\":5876:5898   */\n      add\n        /* \"#utility.yul\":5855:5908   */\n      tag_624\n      jump\t// in\n    tag_640:\n        /* \"#utility.yul\":5845:5908   */\n      swap2\n      pop\n        /* \"#utility.yul\":5799:5918   */\n      pop\n        /* \"#utility.yul\":5148:5925   */\n      swap3\n      swap6\n      pop\n      swap3\n      swap6\n      swap1\n      swap4\n      pop\n      jump\t// out\n        /* \"#utility.yul\":5931:6468   */\n    tag_55:\n        /* \"#utility.yul\":6014:6020   */\n      0x00\n        /* \"#utility.yul\":6063:6065   */\n      0x20\n        /* \"#utility.yul\":6051:6060   */\n      dup3\n        /* \"#utility.yul\":6042:6049   */\n      dup5\n        /* \"#utility.yul\":6038:6061   */\n      sub\n        /* \"#utility.yul\":6034:6066   */\n      slt\n        /* \"#utility.yul\":6031:6033   */\n      iszero\n      tag_642\n      jumpi\n        /* \"#utility.yul\":6069:6148   */\n      tag_643\n      tag_631\n      jump\t// in\n    tag_643:\n        /* \"#utility.yul\":6031:6033   */\n    tag_642:\n        /* \"#utility.yul\":6217:6218   */\n      0x00\n        /* \"#utility.yul\":6206:6215   */\n      dup3\n        /* \"#utility.yul\":6202:6219   */\n      add\n        /* \"#utility.yul\":6189:6220   */\n      calldataload\n        /* \"#utility.yul\":6247:6265   */\n      0xffffffffffffffff\n        /* \"#utility.yul\":6239:6245   */\n      dup2\n        /* \"#utility.yul\":6236:6266   */\n      gt\n        /* \"#utility.yul\":6233:6235   */\n      iszero\n      tag_644\n      jumpi\n        /* \"#utility.yul\":6269:6348   */\n      tag_645\n      tag_646\n      jump\t// in\n    tag_645:\n        /* \"#utility.yul\":6233:6235   */\n    tag_644:\n        /* \"#utility.yul\":6374:6451   */\n      tag_647\n        /* \"#utility.yul\":6443:6450   */\n      dup5\n        /* \"#utility.yul\":6434:6440   */\n      dup3\n        /* \"#utility.yul\":6423:6432   */\n      dup6\n        /* \"#utility.yul\":6419:6441   */\n      add\n        /* \"#utility.yul\":6374:6451   */\n      tag_607\n      jump\t// in\n    tag_647:\n        /* \"#utility.yul\":6364:6451   */\n      swap2\n      pop\n        /* \"#utility.yul\":6160:6461   */\n      pop\n        /* \"#utility.yul\":6021:6468   */\n      swap3\n      swap2\n      pop\n      pop\n      jump\t// out\n        /* \"#utility.yul\":6474:7591   */\n    tag_160:\n        /* \"#utility.yul\":6639:6645   */\n      0x00\n        /* \"#utility.yul\":6647:6653   */\n      dup1\n        /* \"#utility.yul\":6655:6661   */\n      0x00\n        /* \"#utility.yul\":6704:6707   */\n      0x0140\n        /* \"#utility.yul\":6692:6701   */\n      dup5\n        /* \"#utility.yul\":6683:6690   */\n      dup7\n        /* \"#utility.yul\":6679:6702   */\n      sub\n        /* \"#utility.yul\":6675:6708   */\n      slt\n        /* \"#utility.yul\":6672:6674   */\n      iszero\n      tag_649\n      jumpi\n        /* \"#utility.yul\":6711:6790   */\n      tag_650\n      tag_631\n      jump\t// in\n    tag_650:\n        /* \"#utility.yul\":6672:6674   */\n    tag_649:\n        /* \"#utility.yul\":6859:6860   */\n      0x00\n        /* \"#utility.yul\":6848:6857   */\n      dup5\n        /* \"#utility.yul\":6844:6861   */\n      add\n        /* \"#utility.yul\":6831:6862   */\n      calldataload\n        /* \"#utility.yul\":6889:6907   */\n      0xffffffffffffffff\n        /* \"#utility.yul\":6881:6887   */\n      dup2\n        /* \"#utility.yul\":6878:6908   */\n      gt\n        /* \"#utility.yul\":6875:6877   */\n      iszero\n      tag_651\n      jumpi\n        /* \"#utility.yul\":6911:6990   */\n      tag_652\n      tag_646\n      jump\t// in\n    tag_652:\n        /* \"#utility.yul\":6875:6877   */\n    tag_651:\n        /* \"#utility.yul\":7016:7102   */\n      tag_653\n        /* \"#utility.yul\":7094:7101   */\n      dup7\n        /* \"#utility.yul\":7085:7091   */\n      dup3\n        /* \"#utility.yul\":7074:7083   */\n      dup8\n        /* \"#utility.yul\":7070:7092   */\n      add\n        /* \"#utility.yul\":7016:7102   */\n      tag_612\n      jump\t// in\n    tag_653:\n        /* \"#utility.yul\":7006:7102   */\n      swap4\n      pop\n        /* \"#utility.yul\":6802:7112   */\n      pop\n        /* \"#utility.yul\":7151:7153   */\n      0x20\n        /* \"#utility.yul\":7177:7252   */\n      tag_654\n        /* \"#utility.yul\":7244:7251   */\n      dup7\n        /* \"#utility.yul\":7235:7241   */\n      dup3\n        /* \"#utility.yul\":7224:7233   */\n      dup8\n        /* \"#utility.yul\":7220:7242   */\n      add\n        /* \"#utility.yul\":7177:7252   */\n      tag_602\n      jump\t// in\n    tag_654:\n        /* \"#utility.yul\":7167:7252   */\n      swap3\n      pop\n        /* \"#utility.yul\":7122:7262   */\n      pop\n        /* \"#utility.yul\":7329:7332   */\n      0x0120\n        /* \"#utility.yul\":7318:7327   */\n      dup5\n        /* \"#utility.yul\":7314:7333   */\n      add\n        /* \"#utility.yul\":7301:7334   */\n      calldataload\n        /* \"#utility.yul\":7361:7379   */\n      0xffffffffffffffff\n        /* \"#utility.yul\":7353:7359   */\n      dup2\n        /* \"#utility.yul\":7350:7380   */\n      gt\n        /* \"#utility.yul\":7347:7349   */\n      iszero\n      tag_655\n      jumpi\n        /* \"#utility.yul\":7383:7462   */\n      tag_656\n      tag_646\n      jump\t// in\n    tag_656:\n        /* \"#utility.yul\":7347:7349   */\n    tag_655:\n        /* \"#utility.yul\":7488:7574   */\n      tag_657\n        /* \"#utility.yul\":7566:7573   */\n      dup7\n        /* \"#utility.yul\":7557:7563   */\n      dup3\n        /* \"#utility.yul\":7546:7555   */\n      dup8\n        /* \"#utility.yul\":7542:7564   */\n      add\n        /* \"#utility.yul\":7488:7574   */\n      tag_612\n      jump\t// in\n    tag_657:\n        /* \"#utility.yul\":7478:7574   */\n      swap2\n      pop\n        /* \"#utility.yul\":7272:7584   */\n      pop\n        /* \"#utility.yul\":6662:7591   */\n      swap3\n      pop\n      swap3\n      pop\n      swap3\n      jump\t// out\n        /* \"#utility.yul\":7597:7926   */\n    tag_82:\n        /* \"#utility.yul\":7656:7662   */\n      0x00\n        /* \"#utility.yul\":7705:7707   */\n      0x20\n        /* \"#utility.yul\":7693:7702   */\n      dup3\n        /* \"#utility.yul\":7684:7691   */\n      dup5\n        /* \"#utility.yul\":7680:7703   */\n      sub\n        /* \"#utility.yul\":7676:7708   */\n      slt\n        /* \"#utility.yul\":7673:7675   */\n      iszero\n      tag_659\n      jumpi\n        /* \"#utility.yul\":7711:7790   */\n      tag_660\n      tag_631\n      jump\t// in\n    tag_660:\n        /* \"#utility.yul\":7673:7675   */\n    tag_659:\n        /* \"#utility.yul\":7831:7832   */\n      0x00\n        /* \"#utility.yul\":7856:7909   */\n      tag_661\n        /* \"#utility.yul\":7901:7908   */\n      dup5\n        /* \"#utility.yul\":7892:7898   */\n      dup3\n        /* \"#utility.yul\":7881:7890   */\n      dup6\n        /* \"#utility.yul\":7877:7899   */\n      add\n        /* \"#utility.yul\":7856:7909   */\n      tag_624\n      jump\t// in\n    tag_661:\n        /* \"#utility.yul\":7846:7909   */\n      swap2\n      pop\n        /* \"#utility.yul\":7802:7919   */\n      pop\n        /* \"#utility.yul\":7663:7926   */\n      swap3\n      swap2\n      pop\n      pop\n      jump\t// out\n        /* \"#utility.yul\":7932:8107   */\n    tag_662:\n        /* \"#utility.yul\":7999:8009   */\n      0x00\n        /* \"#utility.yul\":8020:8064   */\n      tag_664\n        /* \"#utility.yul\":8060:8063   */\n      dup4\n        /* \"#utility.yul\":8052:8058   */\n      dup4\n        /* \"#utility.yul\":8020:8064   */\n      tag_665\n      jump\t// in\n    tag_664:\n        /* \"#utility.yul\":8096:8100   */\n      0x20\n        /* \"#utility.yul\":8091:8094   */\n      dup4\n        /* \"#utility.yul\":8087:8101   */\n      add\n        /* \"#utility.yul\":8073:8101   */\n      swap1\n      pop\n        /* \"#utility.yul\":8010:8107   */\n      swap3\n      swap2\n      pop\n      pop\n      jump\t// out\n        /* \"#utility.yul\":8113:8309   */\n    tag_666:\n        /* \"#utility.yul\":8202:8212   */\n      0x00\n        /* \"#utility.yul\":8237:8303   */\n      tag_668\n        /* \"#utility.yul\":8299:8302   */\n      dup4\n        /* \"#utility.yul\":8291:8297   */\n      dup4\n        /* \"#utility.yul\":8237:8303   */\n      tag_669\n      jump\t// in\n    tag_668:\n        /* \"#utility.yul\":8223:8303   */\n      swap1\n      pop\n        /* \"#utility.yul\":8213:8309   */\n      swap3\n      swap2\n      pop\n      pop\n      jump\t// out\n        /* \"#utility.yul\":8315:8457   */\n    tag_670:\n        /* \"#utility.yul\":8418:8450   */\n      tag_672\n        /* \"#utility.yul\":8444:8449   */\n      dup2\n        /* \"#utility.yul\":8418:8450   */\n      tag_673\n      jump\t// in\n    tag_672:\n        /* \"#utility.yul\":8413:8416   */\n      dup3\n        /* \"#utility.yul\":8406:8451   */\n      mstore\n        /* \"#utility.yul\":8396:8457   */\n      pop\n      pop\n      jump\t// out\n        /* \"#utility.yul\":8463:8581   */\n    tag_674:\n        /* \"#utility.yul\":8550:8574   */\n      tag_676\n        /* \"#utility.yul\":8568:8573   */\n      dup2\n        /* \"#utility.yul\":8550:8574   */\n      tag_677\n      jump\t// in\n    tag_676:\n        /* \"#utility.yul\":8545:8548   */\n      dup3\n        /* \"#utility.yul\":8538:8575   */\n      mstore\n        /* \"#utility.yul\":8528:8581   */\n      pop\n      pop\n      jump\t// out\n        /* \"#utility.yul\":8617:9303   */\n    tag_678:\n        /* \"#utility.yul\":8751:8802   */\n      tag_680\n        /* \"#utility.yul\":8796:8801   */\n      dup2\n        /* \"#utility.yul\":8751:8802   */\n      tag_681\n      jump\t// in\n    tag_680:\n        /* \"#utility.yul\":8818:8901   */\n      tag_682\n        /* \"#utility.yul\":8894:8900   */\n      dup2\n        /* \"#utility.yul\":8889:8892   */\n      dup5\n        /* \"#utility.yul\":8818:8901   */\n      tag_683\n      jump\t// in\n    tag_682:\n        /* \"#utility.yul\":8811:8901   */\n      swap3\n      pop\n        /* \"#utility.yul\":8925:8978   */\n      tag_684\n        /* \"#utility.yul\":8972:8977   */\n      dup3\n        /* \"#utility.yul\":8925:8978   */\n      tag_685\n      jump\t// in\n    tag_684:\n        /* \"#utility.yul\":9001:9008   */\n      dup1\n        /* \"#utility.yul\":9032:9033   */\n      0x00\n        /* \"#utility.yul\":9017:9296   */\n    tag_686:\n        /* \"#utility.yul\":9042:9048   */\n      dup4\n        /* \"#utility.yul\":9039:9040   */\n      dup2\n        /* \"#utility.yul\":9036:9049   */\n      lt\n        /* \"#utility.yul\":9017:9296   */\n      iszero\n      tag_688\n      jumpi\n        /* \"#utility.yul\":9118:9124   */\n      dup2\n        /* \"#utility.yul\":9112:9125   */\n      mload\n        /* \"#utility.yul\":9145:9206   */\n      tag_689\n        /* \"#utility.yul\":9202:9205   */\n      dup8\n        /* \"#utility.yul\":9187:9200   */\n      dup3\n        /* \"#utility.yul\":9145:9206   */\n      tag_662\n      jump\t// in\n    tag_689:\n        /* \"#utility.yul\":9138:9206   */\n      swap7\n      pop\n        /* \"#utility.yul\":9229:9286   */\n      tag_690\n        /* \"#utility.yul\":9279:9285   */\n      dup4\n        /* \"#utility.yul\":9229:9286   */\n      tag_691\n      jump\t// in\n    tag_690:\n        /* \"#utility.yul\":9219:9286   */\n      swap3\n      pop\n        /* \"#utility.yul\":9077:9296   */\n      pop\n        /* \"#utility.yul\":9064:9065   */\n      0x01\n        /* \"#utility.yul\":9061:9062   */\n      dup2\n        /* \"#utility.yul\":9057:9066   */\n      add\n        /* \"#utility.yul\":9052:9066   */\n      swap1\n      pop\n        /* \"#utility.yul\":9017:9296   */\n      jump(tag_686)\n    tag_688:\n        /* \"#utility.yul\":9021:9035   */\n      pop\n        /* \"#utility.yul\":8727:9303   */\n      pop\n      pop\n      pop\n      pop\n      pop\n      jump\t// out\n        /* \"#utility.yul\":9339:10318   */\n    tag_692:\n        /* \"#utility.yul\":9474:9477   */\n      0x00\n        /* \"#utility.yul\":9503:9565   */\n      tag_694\n        /* \"#utility.yul\":9559:9564   */\n      dup3\n        /* \"#utility.yul\":9503:9565   */\n      tag_695\n      jump\t// in\n    tag_694:\n        /* \"#utility.yul\":9581:9675   */\n      tag_696\n        /* \"#utility.yul\":9668:9674   */\n      dup2\n        /* \"#utility.yul\":9663:9666   */\n      dup6\n        /* \"#utility.yul\":9581:9675   */\n      tag_697\n      jump\t// in\n    tag_696:\n        /* \"#utility.yul\":9574:9675   */\n      swap4\n      pop\n        /* \"#utility.yul\":9701:9704   */\n      dup4\n        /* \"#utility.yul\":9746:9750   */\n      0x20\n        /* \"#utility.yul\":9738:9744   */\n      dup3\n        /* \"#utility.yul\":9734:9751   */\n      mul\n        /* \"#utility.yul\":9729:9732   */\n      dup6\n        /* \"#utility.yul\":9725:9752   */\n      add\n        /* \"#utility.yul\":9776:9840   */\n      tag_698\n        /* \"#utility.yul\":9834:9839   */\n      dup6\n        /* \"#utility.yul\":9776:9840   */\n      tag_699\n      jump\t// in\n    tag_698:\n        /* \"#utility.yul\":9863:9870   */\n      dup1\n        /* \"#utility.yul\":9894:9895   */\n      0x00\n        /* \"#utility.yul\":9879:10273   */\n    tag_700:\n        /* \"#utility.yul\":9904:9910   */\n      dup6\n        /* \"#utility.yul\":9901:9902   */\n      dup2\n        /* \"#utility.yul\":9898:9911   */\n      lt\n        /* \"#utility.yul\":9879:10273   */\n      iszero\n      tag_702\n      jumpi\n        /* \"#utility.yul\":9975:9984   */\n      dup5\n        /* \"#utility.yul\":9969:9973   */\n      dup5\n        /* \"#utility.yul\":9965:9985   */\n      sub\n        /* \"#utility.yul\":9960:9963   */\n      dup10\n        /* \"#utility.yul\":9953:9986   */\n      mstore\n        /* \"#utility.yul\":10026:10032   */\n      dup2\n        /* \"#utility.yul\":10020:10033   */\n      mload\n        /* \"#utility.yul\":10054:10138   */\n      tag_703\n        /* \"#utility.yul\":10133:10137   */\n      dup6\n        /* \"#utility.yul\":10118:10131   */\n      dup3\n        /* \"#utility.yul\":10054:10138   */\n      tag_666\n      jump\t// in\n    tag_703:\n        /* \"#utility.yul\":10046:10138   */\n      swap5\n      pop\n        /* \"#utility.yul\":10161:10229   */\n      tag_704\n        /* \"#utility.yul\":10222:10228   */\n      dup4\n        /* \"#utility.yul\":10161:10229   */\n      tag_705\n      jump\t// in\n    tag_704:\n        /* \"#utility.yul\":10151:10229   */\n      swap3\n      pop\n        /* \"#utility.yul\":10258:10262   */\n      0x20\n        /* \"#utility.yul\":10253:10256   */\n      dup11\n        /* \"#utility.yul\":10249:10263   */\n      add\n        /* \"#utility.yul\":10242:10263   */\n      swap10\n      pop\n        /* \"#utility.yul\":9939:10273   */\n      pop\n        /* \"#utility.yul\":9926:9927   */\n      0x01\n        /* \"#utility.yul\":9923:9924   */\n      dup2\n        /* \"#utility.yul\":9919:9928   */\n      add\n        /* \"#utility.yul\":9914:9928   */\n      swap1\n      pop\n        /* \"#utility.yul\":9879:10273   */\n      jump(tag_700)\n    tag_702:\n        /* \"#utility.yul\":9883:9897   */\n      pop\n        /* \"#utility.yul\":10289:10293   */\n      dup3\n        /* \"#utility.yul\":10282:10293   */\n      swap8\n      pop\n        /* \"#utility.yul\":10309:10312   */\n      dup8\n        /* \"#utility.yul\":10302:10312   */\n      swap6\n      pop\n        /* \"#utility.yul\":9479:10318   */\n      pop\n      pop\n      pop\n      pop\n      pop\n      swap3\n      swap2\n      pop\n      pop\n      jump\t// out\n        /* \"#utility.yul\":10324:10433   */\n    tag_706:\n        /* \"#utility.yul\":10405:10426   */\n      tag_708\n        /* \"#utility.yul\":10420:10425   */\n      dup2\n        /* \"#utility.yul\":10405:10426   */\n      tag_709\n      jump\t// in\n    tag_708:\n        /* \"#utility.yul\":10400:10403   */\n      dup3\n        /* \"#utility.yul\":10393:10427   */\n      mstore\n        /* \"#utility.yul\":10383:10433   */\n      pop\n      pop\n      jump\t// out\n        /* \"#utility.yul\":10439:10584   */\n    tag_710:\n        /* \"#utility.yul\":10533:10577   */\n      tag_712\n        /* \"#utility.yul\":10571:10576   */\n      dup2\n        /* \"#utility.yul\":10533:10577   */\n      tag_713\n      jump\t// in\n    tag_712:\n        /* \"#utility.yul\":10528:10531   */\n      dup3\n        /* \"#utility.yul\":10521:10578   */\n      mstore\n        /* \"#utility.yul\":10511:10584   */\n      pop\n      pop\n      jump\t// out\n        /* \"#utility.yul\":10590:10695   */\n    tag_665:\n        /* \"#utility.yul\":10665:10688   */\n      tag_715\n        /* \"#utility.yul\":10682:10687   */\n      dup2\n        /* \"#utility.yul\":10665:10688   */\n      tag_716\n      jump\t// in\n    tag_715:\n        /* \"#utility.yul\":10660:10663   */\n      dup3\n        /* \"#utility.yul\":10653:10689   */\n      mstore\n        /* \"#utility.yul\":10643:10695   */\n      pop\n      pop\n      jump\t// out\n        /* \"#utility.yul\":10701:10816   */\n    tag_717:\n        /* \"#utility.yul\":10786:10809   */\n      tag_719\n        /* \"#utility.yul\":10803:10808   */\n      dup2\n        /* \"#utility.yul\":10786:10809   */\n      tag_716\n      jump\t// in\n    tag_719:\n        /* \"#utility.yul\":10781:10784   */\n      dup3\n        /* \"#utility.yul\":10774:10810   */\n      mstore\n        /* \"#utility.yul\":10764:10816   */\n      pop\n      pop\n      jump\t// out\n        /* \"#utility.yul\":10822:11166   */\n    tag_669:\n        /* \"#utility.yul\":10900:10903   */\n      0x00\n        /* \"#utility.yul\":10928:10967   */\n      tag_721\n        /* \"#utility.yul\":10961:10966   */\n      dup3\n        /* \"#utility.yul\":10928:10967   */\n      tag_722\n      jump\t// in\n    tag_721:\n        /* \"#utility.yul\":10983:11044   */\n      tag_723\n        /* \"#utility.yul\":11037:11043   */\n      dup2\n        /* \"#utility.yul\":11032:11035   */\n      dup6\n        /* \"#utility.yul\":10983:11044   */\n      tag_724\n      jump\t// in\n    tag_723:\n        /* \"#utility.yul\":10976:11044   */\n      swap4\n      pop\n        /* \"#utility.yul\":11053:11105   */\n      tag_725\n        /* \"#utility.yul\":11098:11104   */\n      dup2\n        /* \"#utility.yul\":11093:11096   */\n      dup6\n        /* \"#utility.yul\":11086:11090   */\n      0x20\n        /* \"#utility.yul\":11079:11084   */\n      dup7\n        /* \"#utility.yul\":11075:11091   */\n      add\n        /* \"#utility.yul\":11053:11105   */\n      tag_726\n      jump\t// in\n    tag_725:\n        /* \"#utility.yul\":11130:11159   */\n      tag_727\n        /* \"#utility.yul\":11152:11158   */\n      dup2\n        /* \"#utility.yul\":11130:11159   */\n      tag_728\n      jump\t// in\n    tag_727:\n        /* \"#utility.yul\":11125:11128   */\n      dup5\n        /* \"#utility.yul\":11121:11160   */\n      add\n        /* \"#utility.yul\":11114:11160   */\n      swap2\n      pop\n        /* \"#utility.yul\":10904:11166   */\n      pop\n      swap3\n      swap2\n      pop\n      pop\n      jump\t// out\n        /* \"#utility.yul\":11172:11536   */\n    tag_729:\n        /* \"#utility.yul\":11260:11263   */\n      0x00\n        /* \"#utility.yul\":11288:11327   */\n      tag_731\n        /* \"#utility.yul\":11321:11326   */\n      dup3\n        /* \"#utility.yul\":11288:11327   */\n      tag_722\n      jump\t// in\n    tag_731:\n        /* \"#utility.yul\":11343:11414   */\n      tag_732\n        /* \"#utility.yul\":11407:11413   */\n      dup2\n        /* \"#utility.yul\":11402:11405   */\n      dup6\n        /* \"#utility.yul\":11343:11414   */\n      tag_733\n      jump\t// in\n    tag_732:\n        /* \"#utility.yul\":11336:11414   */\n      swap4\n      pop\n        /* \"#utility.yul\":11423:11475   */\n      tag_734\n        /* \"#utility.yul\":11468:11474   */\n      dup2\n        /* \"#utility.yul\":11463:11466   */\n      dup6\n        /* \"#utility.yul\":11456:11460   */\n      0x20\n        /* \"#utility.yul\":11449:11454   */\n      dup7\n        /* \"#utility.yul\":11445:11461   */\n      add\n        /* \"#utility.yul\":11423:11475   */\n      tag_726\n      jump\t// in\n    tag_734:\n        /* \"#utility.yul\":11500:11529   */\n      tag_735\n        /* \"#utility.yul\":11522:11528   */\n      dup2\n        /* \"#utility.yul\":11500:11529   */\n      tag_728\n      jump\t// in\n    tag_735:\n        /* \"#utility.yul\":11495:11498   */\n      dup5\n        /* \"#utility.yul\":11491:11530   */\n      add\n        /* \"#utility.yul\":11484:11530   */\n      swap2\n      pop\n        /* \"#utility.yul\":11264:11536   */\n      pop\n      swap3\n      swap2\n      pop\n      pop\n      jump\t// out\n        /* \"#utility.yul\":11542:11919   */\n    tag_736:\n        /* \"#utility.yul\":11648:11651   */\n      0x00\n        /* \"#utility.yul\":11676:11715   */\n      tag_738\n        /* \"#utility.yul\":11709:11714   */\n      dup3\n        /* \"#utility.yul\":11676:11715   */\n      tag_722\n      jump\t// in\n    tag_738:\n        /* \"#utility.yul\":11731:11820   */\n      tag_739\n        /* \"#utility.yul\":11813:11819   */\n      dup2\n        /* \"#utility.yul\":11808:11811   */\n      dup6\n        /* \"#utility.yul\":11731:11820   */\n      tag_740\n      jump\t// in\n    tag_739:\n        /* \"#utility.yul\":11724:11820   */\n      swap4\n      pop\n        /* \"#utility.yul\":11829:11881   */\n      tag_741\n        /* \"#utility.yul\":11874:11880   */\n      dup2\n        /* \"#utility.yul\":11869:11872   */\n      dup6\n        /* \"#utility.yul\":11862:11866   */\n      0x20\n        /* \"#utility.yul\":11855:11860   */\n      dup7\n        /* \"#utility.yul\":11851:11867   */\n      add\n        /* \"#utility.yul\":11829:11881   */\n      tag_726\n      jump\t// in\n    tag_741:\n        /* \"#utility.yul\":11906:11912   */\n      dup1\n        /* \"#utility.yul\":11901:11904   */\n      dup5\n        /* \"#utility.yul\":11897:11913   */\n      add\n        /* \"#utility.yul\":11890:11913   */\n      swap2\n      pop\n        /* \"#utility.yul\":11652:11919   */\n      pop\n      swap3\n      swap2\n      pop\n      pop\n      jump\t// out\n        /* \"#utility.yul\":11925:12325   */\n    tag_742:\n        /* \"#utility.yul\":12085:12088   */\n      0x00\n        /* \"#utility.yul\":12106:12190   */\n      tag_744\n        /* \"#utility.yul\":12188:12189   */\n      0x02\n        /* \"#utility.yul\":12183:12186   */\n      dup4\n        /* \"#utility.yul\":12106:12190   */\n      tag_740\n      jump\t// in\n    tag_744:\n        /* \"#utility.yul\":12099:12190   */\n      swap2\n      pop\n        /* \"#utility.yul\":12199:12292   */\n      tag_745\n        /* \"#utility.yul\":12288:12291   */\n      dup3\n        /* \"#utility.yul\":12199:12292   */\n      tag_746\n      jump\t// in\n    tag_745:\n        /* \"#utility.yul\":12317:12318   */\n      0x02\n        /* \"#utility.yul\":12312:12315   */\n      dup3\n        /* \"#utility.yul\":12308:12319   */\n      add\n        /* \"#utility.yul\":12301:12319   */\n      swap1\n      pop\n        /* \"#utility.yul\":12089:12325   */\n      swap2\n      swap1\n      pop\n      jump\t// out\n        /* \"#utility.yul\":12331:12697   */\n    tag_747:\n        /* \"#utility.yul\":12473:12476   */\n      0x00\n        /* \"#utility.yul\":12494:12561   */\n      tag_749\n        /* \"#utility.yul\":12558:12560   */\n      0x43\n        /* \"#utility.yul\":12553:12556   */\n      dup4\n        /* \"#utility.yul\":12494:12561   */\n      tag_733\n      jump\t// in\n    tag_749:\n        /* \"#utility.yul\":12487:12561   */\n      swap2\n      pop\n        /* \"#utility.yul\":12570:12663   */\n      tag_750\n        /* \"#utility.yul\":12659:12662   */\n      dup3\n        /* \"#utility.yul\":12570:12663   */\n      tag_751\n      jump\t// in\n    tag_750:\n        /* \"#utility.yul\":12688:12690   */\n      0x60\n        /* \"#utility.yul\":12683:12686   */\n      dup3\n        /* \"#utility.yul\":12679:12691   */\n      add\n        /* \"#utility.yul\":12672:12691   */\n      swap1\n      pop\n        /* \"#utility.yul\":12477:12697   */\n      swap2\n      swap1\n      pop\n      jump\t// out\n        /* \"#utility.yul\":12703:13069   */\n    tag_752:\n        /* \"#utility.yul\":12845:12848   */\n      0x00\n        /* \"#utility.yul\":12866:12933   */\n      tag_754\n        /* \"#utility.yul\":12930:12932   */\n      0x36\n        /* \"#utility.yul\":12925:12928   */\n      dup4\n        /* \"#utility.yul\":12866:12933   */\n      tag_733\n      jump\t// in\n    tag_754:\n        /* \"#utility.yul\":12859:12933   */\n      swap2\n      pop\n        /* \"#utility.yul\":12942:13035   */\n      tag_755\n        /* \"#utility.yul\":13031:13034   */\n      dup3\n        /* \"#utility.yul\":12942:13035   */\n      tag_756\n      jump\t// in\n    tag_755:\n        /* \"#utility.yul\":13060:13062   */\n      0x40\n        /* \"#utility.yul\":13055:13058   */\n      dup3\n        /* \"#utility.yul\":13051:13063   */\n      add\n        /* \"#utility.yul\":13044:13063   */\n      swap1\n      pop\n        /* \"#utility.yul\":12849:13069   */\n      swap2\n      swap1\n      pop\n      jump\t// out\n        /* \"#utility.yul\":13075:13441   */\n    tag_757:\n        /* \"#utility.yul\":13217:13220   */\n      0x00\n        /* \"#utility.yul\":13238:13305   */\n      tag_759\n        /* \"#utility.yul\":13302:13304   */\n      0x2f\n        /* \"#utility.yul\":13297:13300   */\n      dup4\n        /* \"#utility.yul\":13238:13305   */\n      tag_733\n      jump\t// in\n    tag_759:\n        /* \"#utility.yul\":13231:13305   */\n      swap2\n      pop\n        /* \"#utility.yul\":13314:13407   */\n      tag_760\n        /* \"#utility.yul\":13403:13406   */\n      dup3\n        /* \"#utility.yul\":13314:13407   */\n      tag_761\n      jump\t// in\n    tag_760:\n        /* \"#utility.yul\":13432:13434   */\n      0x40\n        /* \"#utility.yul\":13427:13430   */\n      dup3\n        /* \"#utility.yul\":13423:13435   */\n      add\n        /* \"#utility.yul\":13416:13435   */\n      swap1\n      pop\n        /* \"#utility.yul\":13221:13441   */\n      swap2\n      swap1\n      pop\n      jump\t// out\n        /* \"#utility.yul\":13447:13813   */\n    tag_762:\n        /* \"#utility.yul\":13589:13592   */\n      0x00\n        /* \"#utility.yul\":13610:13677   */\n      tag_764\n        /* \"#utility.yul\":13674:13676   */\n      0x12\n        /* \"#utility.yul\":13669:13672   */\n      dup4\n        /* \"#utility.yul\":13610:13677   */\n      tag_733\n      jump\t// in\n    tag_764:\n        /* \"#utility.yul\":13603:13677   */\n      swap2\n      pop\n        /* \"#utility.yul\":13686:13779   */\n      tag_765\n        /* \"#utility.yul\":13775:13778   */\n      dup3\n        /* \"#utility.yul\":13686:13779   */\n      tag_766\n      jump\t// in\n    tag_765:\n        /* \"#utility.yul\":13804:13806   */\n      0x20\n        /* \"#utility.yul\":13799:13802   */\n      dup3\n        /* \"#utility.yul\":13795:13807   */\n      add\n        /* \"#utility.yul\":13788:13807   */\n      swap1\n      pop\n        /* \"#utility.yul\":13593:13813   */\n      swap2\n      swap1\n      pop\n      jump\t// out\n        /* \"#utility.yul\":13819:14185   */\n    tag_767:\n        /* \"#utility.yul\":13961:13964   */\n      0x00\n        /* \"#utility.yul\":13982:14049   */\n      tag_769\n        /* \"#utility.yul\":14046:14048   */\n      0x10\n        /* \"#utility.yul\":14041:14044   */\n      dup4\n        /* \"#utility.yul\":13982:14049   */\n      tag_733\n      jump\t// in\n    tag_769:\n        /* \"#utility.yul\":13975:14049   */\n      swap2\n      pop\n        /* \"#utility.yul\":14058:14151   */\n      tag_770\n        /* \"#utility.yul\":14147:14150   */\n      dup3\n        /* \"#utility.yul\":14058:14151   */\n      tag_771\n      jump\t// in\n    tag_770:\n        /* \"#utility.yul\":14176:14178   */\n      0x20\n        /* \"#utility.yul\":14171:14174   */\n      dup3\n        /* \"#utility.yul\":14167:14179   */\n      add\n        /* \"#utility.yul\":14160:14179   */\n      swap1\n      pop\n        /* \"#utility.yul\":13965:14185   */\n      swap2\n      swap1\n      pop\n      jump\t// out\n        /* \"#utility.yul\":14191:14557   */\n    tag_772:\n        /* \"#utility.yul\":14333:14336   */\n      0x00\n        /* \"#utility.yul\":14354:14421   */\n      tag_774\n        /* \"#utility.yul\":14418:14420   */\n      0x22\n        /* \"#utility.yul\":14413:14416   */\n      dup4\n        /* \"#utility.yul\":14354:14421   */\n      tag_733\n      jump\t// in\n    tag_774:\n        /* \"#utility.yul\":14347:14421   */\n      swap2\n      pop\n        /* \"#utility.yul\":14430:14523   */\n      tag_775\n        /* \"#utility.yul\":14519:14522   */\n      dup3\n        /* \"#utility.yul\":14430:14523   */\n      tag_776\n      jump\t// in\n    tag_775:\n        /* \"#utility.yul\":14548:14550   */\n      0x40\n        /* \"#utility.yul\":14543:14546   */\n      dup3\n        /* \"#utility.yul\":14539:14551   */\n      add\n        /* \"#utility.yul\":14532:14551   */\n      swap1\n      pop\n        /* \"#utility.yul\":14337:14557   */\n      swap2\n      swap1\n      pop\n      jump\t// out\n        /* \"#utility.yul\":14563:14963   */\n    tag_777:\n        /* \"#utility.yul\":14723:14726   */\n      0x00\n        /* \"#utility.yul\":14744:14828   */\n      tag_779\n        /* \"#utility.yul\":14826:14827   */\n      0x02\n        /* \"#utility.yul\":14821:14824   */\n      dup4\n        /* \"#utility.yul\":14744:14828   */\n      tag_740\n      jump\t// in\n    tag_779:\n        /* \"#utility.yul\":14737:14828   */\n      swap2\n      pop\n        /* \"#utility.yul\":14837:14930   */\n      tag_780\n        /* \"#utility.yul\":14926:14929   */\n      dup3\n        /* \"#utility.yul\":14837:14930   */\n      tag_781\n      jump\t// in\n    tag_780:\n        /* \"#utility.yul\":14955:14956   */\n      0x02\n        /* \"#utility.yul\":14950:14953   */\n      dup3\n        /* \"#utility.yul\":14946:14957   */\n      add\n        /* \"#utility.yul\":14939:14957   */\n      swap1\n      pop\n        /* \"#utility.yul\":14727:14963   */\n      swap2\n      swap1\n      pop\n      jump\t// out\n        /* \"#utility.yul\":14969:15335   */\n    tag_782:\n        /* \"#utility.yul\":15111:15114   */\n      0x00\n        /* \"#utility.yul\":15132:15199   */\n      tag_784\n        /* \"#utility.yul\":15196:15198   */\n      0x26\n        /* \"#utility.yul\":15191:15194   */\n      dup4\n        /* \"#utility.yul\":15132:15199   */\n      tag_733\n      jump\t// in\n    tag_784:\n        /* \"#utility.yul\":15125:15199   */\n      swap2\n      pop\n        /* \"#utility.yul\":15208:15301   */\n      tag_785\n        /* \"#utility.yul\":15297:15300   */\n      dup3\n        /* \"#utility.yul\":15208:15301   */\n      tag_786\n      jump\t// in\n    tag_785:\n        /* \"#utility.yul\":15326:15328   */\n      0x40\n        /* \"#utility.yul\":15321:15324   */\n      dup3\n        /* \"#utility.yul\":15317:15329   */\n      add\n        /* \"#utility.yul\":15310:15329   */\n      swap1\n      pop\n        /* \"#utility.yul\":15115:15335   */\n      swap2\n      swap1\n      pop\n      jump\t// out\n        /* \"#utility.yul\":15341:15741   */\n    tag_787:\n        /* \"#utility.yul\":15501:15504   */\n      0x00\n        /* \"#utility.yul\":15522:15606   */\n      tag_789\n        /* \"#utility.yul\":15604:15605   */\n      0x01\n        /* \"#utility.yul\":15599:15602   */\n      dup4\n        /* \"#utility.yul\":15522:15606   */\n      tag_740\n      jump\t// in\n    tag_789:\n        /* \"#utility.yul\":15515:15606   */\n      swap2\n      pop\n        /* \"#utility.yul\":15615:15708   */\n      tag_790\n        /* \"#utility.yul\":15704:15707   */\n      dup3\n        /* \"#utility.yul\":15615:15708   */\n      tag_791\n      jump\t// in\n    tag_790:\n        /* \"#utility.yul\":15733:15734   */\n      0x01\n        /* \"#utility.yul\":15728:15731   */\n      dup3\n        /* \"#utility.yul\":15724:15735   */\n      add\n        /* \"#utility.yul\":15717:15735   */\n      swap1\n      pop\n        /* \"#utility.yul\":15505:15741   */\n      swap2\n      swap1\n      pop\n      jump\t// out\n        /* \"#utility.yul\":15747:16147   */\n    tag_792:\n        /* \"#utility.yul\":15907:15910   */\n      0x00\n        /* \"#utility.yul\":15928:16012   */\n      tag_794\n        /* \"#utility.yul\":16010:16011   */\n      0x02\n        /* \"#utility.yul\":16005:16008   */\n      dup4\n        /* \"#utility.yul\":15928:16012   */\n      tag_740\n      jump\t// in\n    tag_794:\n        /* \"#utility.yul\":15921:16012   */\n      swap2\n      pop\n        /* \"#utility.yul\":16021:16114   */\n      tag_795\n        /* \"#utility.yul\":16110:16113   */\n      dup3\n        /* \"#utility.yul\":16021:16114   */\n      tag_796\n      jump\t// in\n    tag_795:\n        /* \"#utility.yul\":16139:16140   */\n      0x02\n        /* \"#utility.yul\":16134:16137   */\n      dup3\n        /* \"#utility.yul\":16130:16141   */\n      add\n        /* \"#utility.yul\":16123:16141   */\n      swap1\n      pop\n        /* \"#utility.yul\":15911:16147   */\n      swap2\n      swap1\n      pop\n      jump\t// out\n        /* \"#utility.yul\":16153:16519   */\n    tag_797:\n        /* \"#utility.yul\":16295:16298   */\n      0x00\n        /* \"#utility.yul\":16316:16383   */\n      tag_799\n        /* \"#utility.yul\":16380:16382   */\n      0x21\n        /* \"#utility.yul\":16375:16378   */\n      dup4\n        /* \"#utility.yul\":16316:16383   */\n      tag_733\n      jump\t// in\n    tag_799:\n        /* \"#utility.yul\":16309:16383   */\n      swap2\n      pop\n        /* \"#utility.yul\":16392:16485   */\n      tag_800\n        /* \"#utility.yul\":16481:16484   */\n      dup3\n        /* \"#utility.yul\":16392:16485   */\n      tag_801\n      jump\t// in\n    tag_800:\n        /* \"#utility.yul\":16510:16512   */\n      0x40\n        /* \"#utility.yul\":16505:16508   */\n      dup3\n        /* \"#utility.yul\":16501:16513   */\n      add\n        /* \"#utility.yul\":16494:16513   */\n      swap1\n      pop\n        /* \"#utility.yul\":16299:16519   */\n      swap2\n      swap1\n      pop\n      jump\t// out\n        /* \"#utility.yul\":16525:16891   */\n    tag_802:\n        /* \"#utility.yul\":16667:16670   */\n      0x00\n        /* \"#utility.yul\":16688:16755   */\n      tag_804\n        /* \"#utility.yul\":16752:16754   */\n      0x2e\n        /* \"#utility.yul\":16747:16750   */\n      dup4\n        /* \"#utility.yul\":16688:16755   */\n      tag_733\n      jump\t// in\n    tag_804:\n        /* \"#utility.yul\":16681:16755   */\n      swap2\n      pop\n        /* \"#utility.yul\":16764:16857   */\n      tag_805\n        /* \"#utility.yul\":16853:16856   */\n      dup3\n        /* \"#utility.yul\":16764:16857   */\n      tag_806\n      jump\t// in\n    tag_805:\n        /* \"#utility.yul\":16882:16884   */\n      0x40\n        /* \"#utility.yul\":16877:16880   */\n      dup3\n        /* \"#utility.yul\":16873:16885   */\n      add\n        /* \"#utility.yul\":16866:16885   */\n      swap1\n      pop\n        /* \"#utility.yul\":16671:16891   */\n      swap2\n      swap1\n      pop\n      jump\t// out\n        /* \"#utility.yul\":16897:17297   */\n    tag_807:\n        /* \"#utility.yul\":17057:17060   */\n      0x00\n        /* \"#utility.yul\":17078:17162   */\n      tag_809\n        /* \"#utility.yul\":17160:17161   */\n      0x02\n        /* \"#utility.yul\":17155:17158   */\n      dup4\n        /* \"#utility.yul\":17078:17162   */\n      tag_740\n      jump\t// in\n    tag_809:\n        /* \"#utility.yul\":17071:17162   */\n      swap2\n      pop\n        /* \"#utility.yul\":17171:17264   */\n      tag_810\n        /* \"#utility.yul\":17260:17263   */\n      dup3\n        /* \"#utility.yul\":17171:17264   */\n      tag_811\n      jump\t// in\n    tag_810:\n        /* \"#utility.yul\":17289:17290   */\n      0x02\n        /* \"#utility.yul\":17284:17287   */\n      dup3\n        /* \"#utility.yul\":17280:17291   */\n      add\n        /* \"#utility.yul\":17273:17291   */\n      swap1\n      pop\n        /* \"#utility.yul\":17061:17297   */\n      swap2\n      swap1\n      pop\n      jump\t// out\n        /* \"#utility.yul\":17303:17703   */\n    tag_812:\n        /* \"#utility.yul\":17463:17466   */\n      0x00\n        /* \"#utility.yul\":17484:17568   */\n      tag_814\n        /* \"#utility.yul\":17566:17567   */\n      0x01\n        /* \"#utility.yul\":17561:17564   */\n      dup4\n        /* \"#utility.yul\":17484:17568   */\n      tag_740\n      jump\t// in\n    tag_814:\n        /* \"#utility.yul\":17477:17568   */\n      swap2\n      pop\n        /* \"#utility.yul\":17577:17670   */\n      tag_815\n        /* \"#utility.yul\":17666:17669   */\n      dup3\n        /* \"#utility.yul\":17577:17670   */\n      tag_816\n      jump\t// in\n    tag_815:\n        /* \"#utility.yul\":17695:17696   */\n      0x01\n        /* \"#utility.yul\":17690:17693   */\n      dup3\n        /* \"#utility.yul\":17686:17697   */\n      add\n        /* \"#utility.yul\":17679:17697   */\n      swap1\n      pop\n        /* \"#utility.yul\":17467:17703   */\n      swap2\n      swap1\n      pop\n      jump\t// out\n        /* \"#utility.yul\":17709:18075   */\n    tag_817:\n        /* \"#utility.yul\":17851:17854   */\n      0x00\n        /* \"#utility.yul\":17872:17939   */\n      tag_819\n        /* \"#utility.yul\":17936:17938   */\n      0x1d\n        /* \"#utility.yul\":17931:17934   */\n      dup4\n        /* \"#utility.yul\":17872:17939   */\n      tag_733\n      jump\t// in\n    tag_819:\n        /* \"#utility.yul\":17865:17939   */\n      swap2\n      pop\n        /* \"#utility.yul\":17948:18041   */\n      tag_820\n        /* \"#utility.yul\":18037:18040   */\n      dup3\n        /* \"#utility.yul\":17948:18041   */\n      tag_821\n      jump\t// in\n    tag_820:\n        /* \"#utility.yul\":18066:18068   */\n      0x20\n        /* \"#utility.yul\":18061:18064   */\n      dup3\n        /* \"#utility.yul\":18057:18069   */\n      add\n        /* \"#utility.yul\":18050:18069   */\n      swap1\n      pop\n        /* \"#utility.yul\":17855:18075   */\n      swap2\n      swap1\n      pop\n      jump\t// out\n        /* \"#utility.yul\":18081:18447   */\n    tag_822:\n        /* \"#utility.yul\":18223:18226   */\n      0x00\n        /* \"#utility.yul\":18244:18311   */\n      tag_824\n        /* \"#utility.yul\":18308:18310   */\n      0x25\n        /* \"#utility.yul\":18303:18306   */\n      dup4\n        /* \"#utility.yul\":18244:18311   */\n      tag_733\n      jump\t// in\n    tag_824:\n        /* \"#utility.yul\":18237:18311   */\n      swap2\n      pop\n        /* \"#utility.yul\":18320:18413   */\n      tag_825\n        /* \"#utility.yul\":18409:18412   */\n      dup3\n        /* \"#utility.yul\":18320:18413   */\n      tag_826\n      jump\t// in\n    tag_825:\n        /* \"#utility.yul\":18438:18440   */\n      0x40\n        /* \"#utility.yul\":18433:18436   */\n      dup3\n        /* \"#utility.yul\":18429:18441   */\n      add\n        /* \"#utility.yul\":18422:18441   */\n      swap1\n      pop\n        /* \"#utility.yul\":18227:18447   */\n      swap2\n      swap1\n      pop\n      jump\t// out\n        /* \"#utility.yul\":18453:18571   */\n    tag_827:\n        /* \"#utility.yul\":18540:18564   */\n      tag_829\n        /* \"#utility.yul\":18558:18563   */\n      dup2\n        /* \"#utility.yul\":18540:18564   */\n      tag_830\n      jump\t// in\n    tag_829:\n        /* \"#utility.yul\":18535:18538   */\n      dup3\n        /* \"#utility.yul\":18528:18565   */\n      mstore\n        /* \"#utility.yul\":18518:18571   */\n      pop\n      pop\n      jump\t// out\n        /* \"#utility.yul\":18577:18852   */\n    tag_446:\n        /* \"#utility.yul\":18709:18712   */\n      0x00\n        /* \"#utility.yul\":18731:18826   */\n      tag_832\n        /* \"#utility.yul\":18822:18825   */\n      dup3\n        /* \"#utility.yul\":18813:18819   */\n      dup5\n        /* \"#utility.yul\":18731:18826   */\n      tag_736\n      jump\t// in\n    tag_832:\n        /* \"#utility.yul\":18724:18826   */\n      swap2\n      pop\n        /* \"#utility.yul\":18843:18846   */\n      dup2\n        /* \"#utility.yul\":18836:18846   */\n      swap1\n      pop\n        /* \"#utility.yul\":18713:18852   */\n      swap3\n      swap2\n      pop\n      pop\n      jump\t// out\n        /* \"#utility.yul\":18858:19239   */\n    tag_480:\n        /* \"#utility.yul\":19043:19046   */\n      0x00\n        /* \"#utility.yul\":19065:19213   */\n      tag_834\n        /* \"#utility.yul\":19209:19212   */\n      dup3\n        /* \"#utility.yul\":19065:19213   */\n      tag_742\n      jump\t// in\n    tag_834:\n        /* \"#utility.yul\":19058:19213   */\n      swap2\n      pop\n        /* \"#utility.yul\":19230:19233   */\n      dup2\n        /* \"#utility.yul\":19223:19233   */\n      swap1\n      pop\n        /* \"#utility.yul\":19047:19239   */\n      swap2\n      swap1\n      pop\n      jump\t// out\n        /* \"#utility.yul\":19245:19626   */\n    tag_478:\n        /* \"#utility.yul\":19430:19433   */\n      0x00\n        /* \"#utility.yul\":19452:19600   */\n      tag_836\n        /* \"#utility.yul\":19596:19599   */\n      dup3\n        /* \"#utility.yul\":19452:19600   */\n      tag_777\n      jump\t// in\n    tag_836:\n        /* \"#utility.yul\":19445:19600   */\n      swap2\n      pop\n        /* \"#utility.yul\":19617:19620   */\n      dup2\n        /* \"#utility.yul\":19610:19620   */\n      swap1\n      pop\n        /* \"#utility.yul\":19434:19626   */\n      swap2\n      swap1\n      pop\n      jump\t// out\n        /* \"#utility.yul\":19632:20013   */\n    tag_482:\n        /* \"#utility.yul\":19817:19820   */\n      0x00\n        /* \"#utility.yul\":19839:19987   */\n      tag_838\n        /* \"#utility.yul\":19983:19986   */\n      dup3\n        /* \"#utility.yul\":19839:19987   */\n      tag_787\n      jump\t// in\n    tag_838:\n        /* \"#utility.yul\":19832:19987   */\n      swap2\n      pop\n        /* \"#utility.yul\":20004:20007   */\n      dup2\n        /* \"#utility.yul\":19997:20007   */\n      swap1\n      pop\n        /* \"#utility.yul\":19821:20013   */\n      swap2\n      swap1\n      pop\n      jump\t// out\n        /* \"#utility.yul\":20019:20400   */\n    tag_484:\n        /* \"#utility.yul\":20204:20207   */\n      0x00\n        /* \"#utility.yul\":20226:20374   */\n      tag_840\n        /* \"#utility.yul\":20370:20373   */\n      dup3\n        /* \"#utility.yul\":20226:20374   */\n      tag_792\n      jump\t// in\n    tag_840:\n        /* \"#utility.yul\":20219:20374   */\n      swap2\n      pop\n        /* \"#utility.yul\":20391:20394   */\n      dup2\n        /* \"#utility.yul\":20384:20394   */\n      swap1\n      pop\n        /* \"#utility.yul\":20208:20400   */\n      swap2\n      swap1\n      pop\n      jump\t// out\n        /* \"#utility.yul\":20406:20787   */\n    tag_486:\n        /* \"#utility.yul\":20591:20594   */\n      0x00\n        /* \"#utility.yul\":20613:20761   */\n      tag_842\n        /* \"#utility.yul\":20757:20760   */\n      dup3\n        /* \"#utility.yul\":20613:20761   */\n      tag_807\n      jump\t// in\n    tag_842:\n        /* \"#utility.yul\":20606:20761   */\n      swap2\n      pop\n        /* \"#utility.yul\":20778:20781   */\n      dup2\n        /* \"#utility.yul\":20771:20781   */\n      swap1\n      pop\n        /* \"#utility.yul\":20595:20787   */\n      swap2\n      swap1\n      pop\n      jump\t// out\n        /* \"#utility.yul\":20793:21174   */\n    tag_476:\n        /* \"#utility.yul\":20978:20981   */\n      0x00\n        /* \"#utility.yul\":21000:21148   */\n      tag_844\n        /* \"#utility.yul\":21144:21147   */\n      dup3\n        /* \"#utility.yul\":21000:21148   */\n      tag_812\n      jump\t// in\n    tag_844:\n        /* \"#utility.yul\":20993:21148   */\n      swap2\n      pop\n        /* \"#utility.yul\":21165:21168   */\n      dup2\n        /* \"#utility.yul\":21158:21168   */\n      swap1\n      pop\n        /* \"#utility.yul\":20982:21174   */\n      swap2\n      swap1\n      pop\n      jump\t// out\n        /* \"#utility.yul\":21180:21402   */\n    tag_156:\n        /* \"#utility.yul\":21273:21277   */\n      0x00\n        /* \"#utility.yul\":21311:21313   */\n      0x20\n        /* \"#utility.yul\":21300:21309   */\n      dup3\n        /* \"#utility.yul\":21296:21314   */\n      add\n        /* \"#utility.yul\":21288:21314   */\n      swap1\n      pop\n        /* \"#utility.yul\":21324:21395   */\n      tag_846\n        /* \"#utility.yul\":21392:21393   */\n      0x00\n        /* \"#utility.yul\":21381:21390   */\n      dup4\n        /* \"#utility.yul\":21377:21394   */\n      add\n        /* \"#utility.yul\":21368:21374   */\n      dup5\n        /* \"#utility.yul\":21324:21395   */\n      tag_674\n      jump\t// in\n    tag_846:\n        /* \"#utility.yul\":21278:21402   */\n      swap3\n      swap2\n      pop\n      pop\n      jump\t// out\n        /* \"#utility.yul\":21408:21662   */\n    tag_48:\n        /* \"#utility.yul\":21517:21521   */\n      0x00\n        /* \"#utility.yul\":21555:21557   */\n      0x20\n        /* \"#utility.yul\":21544:21553   */\n      dup3\n        /* \"#utility.yul\":21540:21558   */\n      add\n        /* \"#utility.yul\":21532:21558   */\n      swap1\n      pop\n        /* \"#utility.yul\":21568:21655   */\n      tag_848\n        /* \"#utility.yul\":21652:21653   */\n      0x00\n        /* \"#utility.yul\":21641:21650   */\n      dup4\n        /* \"#utility.yul\":21637:21654   */\n      add\n        /* \"#utility.yul\":21628:21634   */\n      dup5\n        /* \"#utility.yul\":21568:21655   */\n      tag_670\n      jump\t// in\n    tag_848:\n        /* \"#utility.yul\":21522:21662   */\n      swap3\n      swap2\n      pop\n      pop\n      jump\t// out\n        /* \"#utility.yul\":21668:23359   */\n    tag_166:\n        /* \"#utility.yul\":22196:22200   */\n      0x00\n        /* \"#utility.yul\":22234:22237   */\n      0x0320\n        /* \"#utility.yul\":22223:22232   */\n      dup3\n        /* \"#utility.yul\":22219:22238   */\n      add\n        /* \"#utility.yul\":22211:22238   */\n      swap1\n      pop\n        /* \"#utility.yul\":22248:22319   */\n      tag_850\n        /* \"#utility.yul\":22316:22317   */\n      0x00\n        /* \"#utility.yul\":22305:22314   */\n      dup4\n        /* \"#utility.yul\":22301:22318   */\n      add\n        /* \"#utility.yul\":22292:22298   */\n      dup15\n        /* \"#utility.yul\":22248:22319   */\n      tag_674\n      jump\t// in\n    tag_850:\n        /* \"#utility.yul\":22329:22401   */\n      tag_851\n        /* \"#utility.yul\":22397:22399   */\n      0x20\n        /* \"#utility.yul\":22386:22395   */\n      dup4\n        /* \"#utility.yul\":22382:22400   */\n      add\n        /* \"#utility.yul\":22373:22379   */\n      dup14\n        /* \"#utility.yul\":22329:22401   */\n      tag_674\n      jump\t// in\n    tag_851:\n        /* \"#utility.yul\":22411:22483   */\n      tag_852\n        /* \"#utility.yul\":22479:22481   */\n      0x40\n        /* \"#utility.yul\":22468:22477   */\n      dup4\n        /* \"#utility.yul\":22464:22482   */\n      add\n        /* \"#utility.yul\":22455:22461   */\n      dup13\n        /* \"#utility.yul\":22411:22483   */\n      tag_827\n      jump\t// in\n    tag_852:\n        /* \"#utility.yul\":22493:22565   */\n      tag_853\n        /* \"#utility.yul\":22561:22563   */\n      0x60\n        /* \"#utility.yul\":22550:22559   */\n      dup4\n        /* \"#utility.yul\":22546:22564   */\n      add\n        /* \"#utility.yul\":22537:22543   */\n      dup12\n        /* \"#utility.yul\":22493:22565   */\n      tag_827\n      jump\t// in\n    tag_853:\n        /* \"#utility.yul\":22575:22648   */\n      tag_854\n        /* \"#utility.yul\":22643:22646   */\n      0x80\n        /* \"#utility.yul\":22632:22641   */\n      dup4\n        /* \"#utility.yul\":22628:22647   */\n      add\n        /* \"#utility.yul\":22619:22625   */\n      dup11\n        /* \"#utility.yul\":22575:22648   */\n      tag_827\n      jump\t// in\n    tag_854:\n        /* \"#utility.yul\":22658:22731   */\n      tag_855\n        /* \"#utility.yul\":22726:22729   */\n      0xa0\n        /* \"#utility.yul\":22715:22724   */\n      dup4\n        /* \"#utility.yul\":22711:22730   */\n      add\n        /* \"#utility.yul\":22702:22708   */\n      dup10\n        /* \"#utility.yul\":22658:22731   */\n      tag_827\n      jump\t// in\n    tag_855:\n        /* \"#utility.yul\":22741:22814   */\n      tag_856\n        /* \"#utility.yul\":22809:22812   */\n      0xc0\n        /* \"#utility.yul\":22798:22807   */\n      dup4\n        /* \"#utility.yul\":22794:22813   */\n      add\n        /* \"#utility.yul\":22785:22791   */\n      dup9\n        /* \"#utility.yul\":22741:22814   */\n      tag_827\n      jump\t// in\n    tag_856:\n        /* \"#utility.yul\":22824:22897   */\n      tag_857\n        /* \"#utility.yul\":22892:22895   */\n      0xe0\n        /* \"#utility.yul\":22881:22890   */\n      dup4\n        /* \"#utility.yul\":22877:22896   */\n      add\n        /* \"#utility.yul\":22868:22874   */\n      dup8\n        /* \"#utility.yul\":22824:22897   */\n      tag_827\n      jump\t// in\n    tag_857:\n        /* \"#utility.yul\":22945:22954   */\n      dup2\n        /* \"#utility.yul\":22939:22943   */\n      dup2\n        /* \"#utility.yul\":22935:22955   */\n      sub\n        /* \"#utility.yul\":22929:22932   */\n      0x0100\n        /* \"#utility.yul\":22918:22927   */\n      dup4\n        /* \"#utility.yul\":22914:22933   */\n      add\n        /* \"#utility.yul\":22907:22956   */\n      mstore\n        /* \"#utility.yul\":22973:23097   */\n      tag_858\n        /* \"#utility.yul\":23092:23096   */\n      dup2\n        /* \"#utility.yul\":23083:23089   */\n      dup7\n        /* \"#utility.yul\":22973:23097   */\n      tag_692\n      jump\t// in\n    tag_858:\n        /* \"#utility.yul\":22965:23097   */\n      swap1\n      pop\n        /* \"#utility.yul\":23107:23224   */\n      tag_859\n        /* \"#utility.yul\":23219:23222   */\n      0x0120\n        /* \"#utility.yul\":23208:23217   */\n      dup4\n        /* \"#utility.yul\":23204:23223   */\n      add\n        /* \"#utility.yul\":23195:23201   */\n      dup6\n        /* \"#utility.yul\":23107:23224   */\n      tag_678\n      jump\t// in\n    tag_859:\n        /* \"#utility.yul\":23234:23352   */\n      tag_860\n        /* \"#utility.yul\":23347:23350   */\n      0x0220\n        /* \"#utility.yul\":23336:23345   */\n      dup4\n        /* \"#utility.yul\":23332:23351   */\n      add\n        /* \"#utility.yul\":23322:23329   */\n      dup5\n        /* \"#utility.yul\":23234:23352   */\n      tag_678\n      jump\t// in\n    tag_860:\n        /* \"#utility.yul\":22201:23359   */\n      swap13\n      swap12\n      pop\n      pop\n      pop\n      pop\n      pop\n      pop\n      pop\n      pop\n      pop\n      pop\n      pop\n      pop\n      jump\t// out\n        /* \"#utility.yul\":23365:23575   */\n    tag_65:\n        /* \"#utility.yul\":23452:23456   */\n      0x00\n        /* \"#utility.yul\":23490:23492   */\n      0x20\n        /* \"#utility.yul\":23479:23488   */\n      dup3\n        /* \"#utility.yul\":23475:23493   */\n      add\n        /* \"#utility.yul\":23467:23493   */\n      swap1\n      pop\n        /* \"#utility.yul\":23503:23568   */\n      tag_862\n        /* \"#utility.yul\":23565:23566   */\n      0x00\n        /* \"#utility.yul\":23554:23563   */\n      dup4\n        /* \"#utility.yul\":23550:23567   */\n      add\n        /* \"#utility.yul\":23541:23547   */\n      dup5\n        /* \"#utility.yul\":23503:23568   */\n      tag_706\n      jump\t// in\n    tag_862:\n        /* \"#utility.yul\":23457:23575   */\n      swap3\n      swap2\n      pop\n      pop\n      jump\t// out\n        /* \"#utility.yul\":23581:24098   */\n    tag_352:\n        /* \"#utility.yul\":23769:23773   */\n      0x00\n        /* \"#utility.yul\":23807:23809   */\n      0x40\n        /* \"#utility.yul\":23796:23805   */\n      dup3\n        /* \"#utility.yul\":23792:23810   */\n      add\n        /* \"#utility.yul\":23784:23810   */\n      swap1\n      pop\n        /* \"#utility.yul\":23820:23885   */\n      tag_864\n        /* \"#utility.yul\":23882:23883   */\n      0x00\n        /* \"#utility.yul\":23871:23880   */\n      dup4\n        /* \"#utility.yul\":23867:23884   */\n      add\n        /* \"#utility.yul\":23858:23864   */\n      dup5\n        /* \"#utility.yul\":23820:23885   */\n      tag_706\n      jump\t// in\n    tag_864:\n        /* \"#utility.yul\":23932:23941   */\n      dup2\n        /* \"#utility.yul\":23926:23930   */\n      dup2\n        /* \"#utility.yul\":23922:23942   */\n      sub\n        /* \"#utility.yul\":23917:23919   */\n      0x20\n        /* \"#utility.yul\":23906:23915   */\n      dup4\n        /* \"#utility.yul\":23902:23920   */\n      add\n        /* \"#utility.yul\":23895:23943   */\n      mstore\n        /* \"#utility.yul\":23960:24091   */\n      tag_865\n        /* \"#utility.yul\":24086:24090   */\n      dup2\n        /* \"#utility.yul\":23960:24091   */\n      tag_762\n      jump\t// in\n    tag_865:\n        /* \"#utility.yul\":23952:24091   */\n      swap1\n      pop\n        /* \"#utility.yul\":23774:24098   */\n      swap3\n      swap2\n      pop\n      pop\n      jump\t// out\n        /* \"#utility.yul\":24104:24621   */\n    tag_355:\n        /* \"#utility.yul\":24292:24296   */\n      0x00\n        /* \"#utility.yul\":24330:24332   */\n      0x40\n        /* \"#utility.yul\":24319:24328   */\n      dup3\n        /* \"#utility.yul\":24315:24333   */\n      add\n        /* \"#utility.yul\":24307:24333   */\n      swap1\n      pop\n        /* \"#utility.yul\":24343:24408   */\n      tag_867\n        /* \"#utility.yul\":24405:24406   */\n      0x00\n        /* \"#utility.yul\":24394:24403   */\n      dup4\n        /* \"#utility.yul\":24390:24407   */\n      add\n        /* \"#utility.yul\":24381:24387   */\n      dup5\n        /* \"#utility.yul\":24343:24408   */\n      tag_706\n      jump\t// in\n    tag_867:\n        /* \"#utility.yul\":24455:24464   */\n      dup2\n        /* \"#utility.yul\":24449:24453   */\n      dup2\n        /* \"#utility.yul\":24445:24465   */\n      sub\n        /* \"#utility.yul\":24440:24442   */\n      0x20\n        /* \"#utility.yul\":24429:24438   */\n      dup4\n        /* \"#utility.yul\":24425:24443   */\n      add\n        /* \"#utility.yul\":24418:24466   */\n      mstore\n        /* \"#utility.yul\":24483:24614   */\n      tag_868\n        /* \"#utility.yul\":24609:24613   */\n      dup2\n        /* \"#utility.yul\":24483:24614   */\n      tag_767\n      jump\t// in\n    tag_868:\n        /* \"#utility.yul\":24475:24614   */\n      swap1\n      pop\n        /* \"#utility.yul\":24297:24621   */\n      swap3\n      swap2\n      pop\n      pop\n      jump\t// out\n        /* \"#utility.yul\":24627:24863   */\n    tag_139:\n        /* \"#utility.yul\":24727:24731   */\n      0x00\n        /* \"#utility.yul\":24765:24767   */\n      0x20\n        /* \"#utility.yul\":24754:24763   */\n      dup3\n        /* \"#utility.yul\":24750:24768   */\n      add\n        /* \"#utility.yul\":24742:24768   */\n      swap1\n      pop\n        /* \"#utility.yul\":24778:24856   */\n      tag_870\n        /* \"#utility.yul\":24853:24854   */\n      0x00\n        /* \"#utility.yul\":24842:24851   */\n      dup4\n        /* \"#utility.yul\":24838:24855   */\n      add\n        /* \"#utility.yul\":24829:24835   */\n      dup5\n        /* \"#utility.yul\":24778:24856   */\n      tag_710\n      jump\t// in\n    tag_870:\n        /* \"#utility.yul\":24732:24863   */\n      swap3\n      swap2\n      pop\n      pop\n      jump\t// out\n        /* \"#utility.yul\":24869:25087   */\n    tag_95:\n        /* \"#utility.yul\":24960:24964   */\n      0x00\n        /* \"#utility.yul\":24998:25000   */\n      0x20\n        /* \"#utility.yul\":24987:24996   */\n      dup3\n        /* \"#utility.yul\":24983:25001   */\n      add\n        /* \"#utility.yul\":24975:25001   */\n      swap1\n      pop\n        /* \"#utility.yul\":25011:25080   */\n      tag_872\n        /* \"#utility.yul\":25077:25078   */\n      0x00\n        /* \"#utility.yul\":25066:25075   */\n      dup4\n        /* \"#utility.yul\":25062:25079   */\n      add\n        /* \"#utility.yul\":25053:25059   */\n      dup5\n        /* \"#utility.yul\":25011:25080   */\n      tag_717\n      jump\t// in\n    tag_872:\n        /* \"#utility.yul\":24965:25087   */\n      swap3\n      swap2\n      pop\n      pop\n      jump\t// out\n        /* \"#utility.yul\":25093:25406   */\n    tag_85:\n        /* \"#utility.yul\":25206:25210   */\n      0x00\n        /* \"#utility.yul\":25244:25246   */\n      0x20\n        /* \"#utility.yul\":25233:25242   */\n      dup3\n        /* \"#utility.yul\":25229:25247   */\n      add\n        /* \"#utility.yul\":25221:25247   */\n      swap1\n      pop\n        /* \"#utility.yul\":25293:25302   */\n      dup2\n        /* \"#utility.yul\":25287:25291   */\n      dup2\n        /* \"#utility.yul\":25283:25303   */\n      sub\n        /* \"#utility.yul\":25279:25280   */\n      0x00\n        /* \"#utility.yul\":25268:25277   */\n      dup4\n        /* \"#utility.yul\":25264:25281   */\n      add\n        /* \"#utility.yul\":25257:25304   */\n      mstore\n        /* \"#utility.yul\":25321:25399   */\n      tag_874\n        /* \"#utility.yul\":25394:25398   */\n      dup2\n        /* \"#utility.yul\":25385:25391   */\n      dup5\n        /* \"#utility.yul\":25321:25399   */\n      tag_729\n      jump\t// in\n    tag_874:\n        /* \"#utility.yul\":25313:25399   */\n      swap1\n      pop\n        /* \"#utility.yul\":25211:25406   */\n      swap3\n      swap2\n      pop\n      pop\n      jump\t// out\n        /* \"#utility.yul\":25412:25941   */\n    tag_430:\n        /* \"#utility.yul\":25606:25610   */\n      0x00\n        /* \"#utility.yul\":25644:25646   */\n      0x40\n        /* \"#utility.yul\":25633:25642   */\n      dup3\n        /* \"#utility.yul\":25629:25647   */\n      add\n        /* \"#utility.yul\":25621:25647   */\n      swap1\n      pop\n        /* \"#utility.yul\":25693:25702   */\n      dup2\n        /* \"#utility.yul\":25687:25691   */\n      dup2\n        /* \"#utility.yul\":25683:25703   */\n      sub\n        /* \"#utility.yul\":25679:25680   */\n      0x00\n        /* \"#utility.yul\":25668:25677   */\n      dup4\n        /* \"#utility.yul\":25664:25681   */\n      add\n        /* \"#utility.yul\":25657:25704   */\n      mstore\n        /* \"#utility.yul\":25721:25852   */\n      tag_876\n        /* \"#utility.yul\":25847:25851   */\n      dup2\n        /* \"#utility.yul\":25721:25852   */\n      tag_747\n      jump\t// in\n    tag_876:\n        /* \"#utility.yul\":25713:25852   */\n      swap1\n      pop\n        /* \"#utility.yul\":25862:25934   */\n      tag_877\n        /* \"#utility.yul\":25930:25932   */\n      0x20\n        /* \"#utility.yul\":25919:25928   */\n      dup4\n        /* \"#utility.yul\":25915:25933   */\n      add\n        /* \"#utility.yul\":25906:25912   */\n      dup5\n        /* \"#utility.yul\":25862:25934   */\n      tag_827\n      jump\t// in\n    tag_877:\n        /* \"#utility.yul\":25611:25941   */\n      swap3\n      swap2\n      pop\n      pop\n      jump\t// out\n        /* \"#utility.yul\":25947:26366   */\n    tag_187:\n        /* \"#utility.yul\":26113:26117   */\n      0x00\n        /* \"#utility.yul\":26151:26153   */\n      0x20\n        /* \"#utility.yul\":26140:26149   */\n      dup3\n        /* \"#utility.yul\":26136:26154   */\n      add\n        /* \"#utility.yul\":26128:26154   */\n      swap1\n      pop\n        /* \"#utility.yul\":26200:26209   */\n      dup2\n        /* \"#utility.yul\":26194:26198   */\n      dup2\n        /* \"#utility.yul\":26190:26210   */\n      sub\n        /* \"#utility.yul\":26186:26187   */\n      0x00\n        /* \"#utility.yul\":26175:26184   */\n      dup4\n        /* \"#utility.yul\":26171:26188   */\n      add\n        /* \"#utility.yul\":26164:26211   */\n      mstore\n        /* \"#utility.yul\":26228:26359   */\n      tag_879\n        /* \"#utility.yul\":26354:26358   */\n      dup2\n        /* \"#utility.yul\":26228:26359   */\n      tag_752\n      jump\t// in\n    tag_879:\n        /* \"#utility.yul\":26220:26359   */\n      swap1\n      pop\n        /* \"#utility.yul\":26118:26366   */\n      swap2\n      swap1\n      pop\n      jump\t// out\n        /* \"#utility.yul\":26372:26901   */\n    tag_425:\n        /* \"#utility.yul\":26566:26570   */\n      0x00\n        /* \"#utility.yul\":26604:26606   */\n      0x40\n        /* \"#utility.yul\":26593:26602   */\n      dup3\n        /* \"#utility.yul\":26589:26607   */\n      add\n        /* \"#utility.yul\":26581:26607   */\n      swap1\n      pop\n        /* \"#utility.yul\":26653:26662   */\n      dup2\n        /* \"#utility.yul\":26647:26651   */\n      dup2\n        /* \"#utility.yul\":26643:26663   */\n      sub\n        /* \"#utility.yul\":26639:26640   */\n      0x00\n        /* \"#utility.yul\":26628:26637   */\n      dup4\n        /* \"#utility.yul\":26624:26641   */\n      add\n        /* \"#utility.yul\":26617:26664   */\n      mstore\n        /* \"#utility.yul\":26681:26812   */\n      tag_881\n        /* \"#utility.yul\":26807:26811   */\n      dup2\n        /* \"#utility.yul\":26681:26812   */\n      tag_757\n      jump\t// in\n    tag_881:\n        /* \"#utility.yul\":26673:26812   */\n      swap1\n      pop\n        /* \"#utility.yul\":26822:26894   */\n      tag_882\n        /* \"#utility.yul\":26890:26892   */\n      0x20\n        /* \"#utility.yul\":26879:26888   */\n      dup4\n        /* \"#utility.yul\":26875:26893   */\n      add\n        /* \"#utility.yul\":26866:26872   */\n      dup5\n        /* \"#utility.yul\":26822:26894   */\n      tag_827\n      jump\t// in\n    tag_882:\n        /* \"#utility.yul\":26571:26901   */\n      swap3\n      swap2\n      pop\n      pop\n      jump\t// out\n        /* \"#utility.yul\":26907:27436   */\n    tag_415:\n        /* \"#utility.yul\":27101:27105   */\n      0x00\n        /* \"#utility.yul\":27139:27141   */\n      0x40\n        /* \"#utility.yul\":27128:27137   */\n      dup3\n        /* \"#utility.yul\":27124:27142   */\n      add\n        /* \"#utility.yul\":27116:27142   */\n      swap1\n      pop\n        /* \"#utility.yul\":27188:27197   */\n      dup2\n        /* \"#utility.yul\":27182:27186   */\n      dup2\n        /* \"#utility.yul\":27178:27198   */\n      sub\n        /* \"#utility.yul\":27174:27175   */\n      0x00\n        /* \"#utility.yul\":27163:27172   */\n      dup4\n        /* \"#utility.yul\":27159:27176   */\n      add\n        /* \"#utility.yul\":27152:27199   */\n      mstore\n        /* \"#utility.yul\":27216:27347   */\n      tag_884\n        /* \"#utility.yul\":27342:27346   */\n      dup2\n        /* \"#utility.yul\":27216:27347   */\n      tag_772\n      jump\t// in\n    tag_884:\n        /* \"#utility.yul\":27208:27347   */\n      swap1\n      pop\n        /* \"#utility.yul\":27357:27429   */\n      tag_885\n        /* \"#utility.yul\":27425:27427   */\n      0x20\n        /* \"#utility.yul\":27414:27423   */\n      dup4\n        /* \"#utility.yul\":27410:27428   */\n      add\n        /* \"#utility.yul\":27401:27407   */\n      dup5\n        /* \"#utility.yul\":27357:27429   */\n      tag_827\n      jump\t// in\n    tag_885:\n        /* \"#utility.yul\":27106:27436   */\n      swap3\n      swap2\n      pop\n      pop\n      jump\t// out\n        /* \"#utility.yul\":27442:27971   */\n    tag_305:\n        /* \"#utility.yul\":27636:27640   */\n      0x00\n        /* \"#utility.yul\":27674:27676   */\n      0x40\n        /* \"#utility.yul\":27663:27672   */\n      dup3\n        /* \"#utility.yul\":27659:27677   */\n      add\n        /* \"#utility.yul\":27651:27677   */\n      swap1\n      pop\n        /* \"#utility.yul\":27723:27732   */\n      dup2\n        /* \"#utility.yul\":27717:27721   */\n      dup2\n        /* \"#utility.yul\":27713:27733   */\n      sub\n        /* \"#utility.yul\":27709:27710   */\n      0x00\n        /* \"#utility.yul\":27698:27707   */\n      dup4\n        /* \"#utility.yul\":27694:27711   */\n      add\n        /* \"#utility.yul\":27687:27734   */\n      mstore\n        /* \"#utility.yul\":27751:27882   */\n      tag_887\n        /* \"#utility.yul\":27877:27881   */\n      dup2\n        /* \"#utility.yul\":27751:27882   */\n      tag_782\n      jump\t// in\n    tag_887:\n        /* \"#utility.yul\":27743:27882   */\n      swap1\n      pop\n        /* \"#utility.yul\":27892:27964   */\n      tag_888\n        /* \"#utility.yul\":27960:27962   */\n      0x20\n        /* \"#utility.yul\":27949:27958   */\n      dup4\n        /* \"#utility.yul\":27945:27963   */\n      add\n        /* \"#utility.yul\":27936:27942   */\n      dup5\n        /* \"#utility.yul\":27892:27964   */\n      tag_827\n      jump\t// in\n    tag_888:\n        /* \"#utility.yul\":27641:27971   */\n      swap3\n      swap2\n      pop\n      pop\n      jump\t// out\n        /* \"#utility.yul\":27977:28506   */\n    tag_172:\n        /* \"#utility.yul\":28171:28175   */\n      0x00\n        /* \"#utility.yul\":28209:28211   */\n      0x40\n        /* \"#utility.yul\":28198:28207   */\n      dup3\n        /* \"#utility.yul\":28194:28212   */\n      add\n        /* \"#utility.yul\":28186:28212   */\n      swap1\n      pop\n        /* \"#utility.yul\":28258:28267   */\n      dup2\n        /* \"#utility.yul\":28252:28256   */\n      dup2\n        /* \"#utility.yul\":28248:28268   */\n      sub\n        /* \"#utility.yul\":28244:28245   */\n      0x00\n        /* \"#utility.yul\":28233:28242   */\n      dup4\n        /* \"#utility.yul\":28229:28246   */\n      add\n        /* \"#utility.yul\":28222:28269   */\n      mstore\n        /* \"#utility.yul\":28286:28417   */\n      tag_890\n        /* \"#utility.yul\":28412:28416   */\n      dup2\n        /* \"#utility.yul\":28286:28417   */\n      tag_797\n      jump\t// in\n    tag_890:\n        /* \"#utility.yul\":28278:28417   */\n      swap1\n      pop\n        /* \"#utility.yul\":28427:28499   */\n      tag_891\n        /* \"#utility.yul\":28495:28497   */\n      0x20\n        /* \"#utility.yul\":28484:28493   */\n      dup4\n        /* \"#utility.yul\":28480:28498   */\n      add\n        /* \"#utility.yul\":28471:28477   */\n      dup5\n        /* \"#utility.yul\":28427:28499   */\n      tag_827\n      jump\t// in\n    tag_891:\n        /* \"#utility.yul\":28176:28506   */\n      swap3\n      swap2\n      pop\n      pop\n      jump\t// out\n        /* \"#utility.yul\":28512:29041   */\n    tag_176:\n        /* \"#utility.yul\":28706:28710   */\n      0x00\n        /* \"#utility.yul\":28744:28746   */\n      0x40\n        /* \"#utility.yul\":28733:28742   */\n      dup3\n        /* \"#utility.yul\":28729:28747   */\n      add\n        /* \"#utility.yul\":28721:28747   */\n      swap1\n      pop\n        /* \"#utility.yul\":28793:28802   */\n      dup2\n        /* \"#utility.yul\":28787:28791   */\n      dup2\n        /* \"#utility.yul\":28783:28803   */\n      sub\n        /* \"#utility.yul\":28779:28780   */\n      0x00\n        /* \"#utility.yul\":28768:28777   */\n      dup4\n        /* \"#utility.yul\":28764:28781   */\n      add\n        /* \"#utility.yul\":28757:28804   */\n      mstore\n        /* \"#utility.yul\":28821:28952   */\n      tag_893\n        /* \"#utility.yul\":28947:28951   */\n      dup2\n        /* \"#utility.yul\":28821:28952   */\n      tag_802\n      jump\t// in\n    tag_893:\n        /* \"#utility.yul\":28813:28952   */\n      swap1\n      pop\n        /* \"#utility.yul\":28962:29034   */\n      tag_894\n        /* \"#utility.yul\":29030:29032   */\n      0x20\n        /* \"#utility.yul\":29019:29028   */\n      dup4\n        /* \"#utility.yul\":29015:29033   */\n      add\n        /* \"#utility.yul\":29006:29012   */\n      dup5\n        /* \"#utility.yul\":28962:29034   */\n      tag_827\n      jump\t// in\n    tag_894:\n        /* \"#utility.yul\":28711:29041   */\n      swap3\n      swap2\n      pop\n      pop\n      jump\t// out\n        /* \"#utility.yul\":29047:29466   */\n    tag_210:\n        /* \"#utility.yul\":29213:29217   */\n      0x00\n        /* \"#utility.yul\":29251:29253   */\n      0x20\n        /* \"#utility.yul\":29240:29249   */\n      dup3\n        /* \"#utility.yul\":29236:29254   */\n      add\n        /* \"#utility.yul\":29228:29254   */\n      swap1\n      pop\n        /* \"#utility.yul\":29300:29309   */\n      dup2\n        /* \"#utility.yul\":29294:29298   */\n      dup2\n        /* \"#utility.yul\":29290:29310   */\n      sub\n        /* \"#utility.yul\":29286:29287   */\n      0x00\n        /* \"#utility.yul\":29275:29284   */\n      dup4\n        /* \"#utility.yul\":29271:29288   */\n      add\n        /* \"#utility.yul\":29264:29311   */\n      mstore\n        /* \"#utility.yul\":29328:29459   */\n      tag_896\n        /* \"#utility.yul\":29454:29458   */\n      dup2\n        /* \"#utility.yul\":29328:29459   */\n      tag_817\n      jump\t// in\n    tag_896:\n        /* \"#utility.yul\":29320:29459   */\n      swap1\n      pop\n        /* \"#utility.yul\":29218:29466   */\n      swap2\n      swap1\n      pop\n      jump\t// out\n        /* \"#utility.yul\":29472:29891   */\n    tag_183:\n        /* \"#utility.yul\":29638:29642   */\n      0x00\n        /* \"#utility.yul\":29676:29678   */\n      0x20\n        /* \"#utility.yul\":29665:29674   */\n      dup3\n        /* \"#utility.yul\":29661:29679   */\n      add\n        /* \"#utility.yul\":29653:29679   */\n      swap1\n      pop\n        /* \"#utility.yul\":29725:29734   */\n      dup2\n        /* \"#utility.yul\":29719:29723   */\n      dup2\n        /* \"#utility.yul\":29715:29735   */\n      sub\n        /* \"#utility.yul\":29711:29712   */\n      0x00\n        /* \"#utility.yul\":29700:29709   */\n      dup4\n        /* \"#utility.yul\":29696:29713   */\n      add\n        /* \"#utility.yul\":29689:29736   */\n      mstore\n        /* \"#utility.yul\":29753:29884   */\n      tag_898\n        /* \"#utility.yul\":29879:29883   */\n      dup2\n        /* \"#utility.yul\":29753:29884   */\n      tag_822\n      jump\t// in\n    tag_898:\n        /* \"#utility.yul\":29745:29884   */\n      swap1\n      pop\n        /* \"#utility.yul\":29643:29891   */\n      swap2\n      swap1\n      pop\n      jump\t// out\n        /* \"#utility.yul\":29897:30119   */\n    tag_43:\n        /* \"#utility.yul\":29990:29994   */\n      0x00\n        /* \"#utility.yul\":30028:30030   */\n      0x20\n        /* \"#utility.yul\":30017:30026   */\n      dup3\n        /* \"#utility.yul\":30013:30031   */\n      add\n        /* \"#utility.yul\":30005:30031   */\n      swap1\n      pop\n        /* \"#utility.yul\":30041:30112   */\n      tag_900\n        /* \"#utility.yul\":30109:30110   */\n      0x00\n        /* \"#utility.yul\":30098:30107   */\n      dup4\n        /* \"#utility.yul\":30094:30111   */\n      add\n        /* \"#utility.yul\":30085:30091   */\n      dup5\n        /* \"#utility.yul\":30041:30112   */\n      tag_827\n      jump\t// in\n    tag_900:\n        /* \"#utility.yul\":29995:30119   */\n      swap3\n      swap2\n      pop\n      pop\n      jump\t// out\n        /* \"#utility.yul\":30125:30254   */\n    tag_553:\n        /* \"#utility.yul\":30159:30165   */\n      0x00\n        /* \"#utility.yul\":30186:30206   */\n      tag_902\n      tag_903\n      jump\t// in\n    tag_902:\n        /* \"#utility.yul\":30176:30206   */\n      swap1\n      pop\n        /* \"#utility.yul\":30215:30248   */\n      tag_904\n        /* \"#utility.yul\":30243:30247   */\n      dup3\n        /* \"#utility.yul\":30235:30241   */\n      dup3\n        /* \"#utility.yul\":30215:30248   */\n      tag_905\n      jump\t// in\n    tag_904:\n        /* \"#utility.yul\":30166:30254   */\n      swap2\n      swap1\n      pop\n      jump\t// out\n        /* \"#utility.yul\":30260:30335   */\n    tag_903:\n        /* \"#utility.yul\":30293:30299   */\n      0x00\n        /* \"#utility.yul\":30326:30328   */\n      0x40\n        /* \"#utility.yul\":30320:30329   */\n      mload\n        /* \"#utility.yul\":30310:30329   */\n      swap1\n      pop\n        /* \"#utility.yul\":30300:30335   */\n      swap1\n      jump\t// out\n        /* \"#utility.yul\":30341:30589   */\n    tag_552:\n        /* \"#utility.yul\":30415:30419   */\n      0x00\n        /* \"#utility.yul\":30505:30523   */\n      0xffffffffffffffff\n        /* \"#utility.yul\":30497:30503   */\n      dup3\n        /* \"#utility.yul\":30494:30524   */\n      gt\n        /* \"#utility.yul\":30491:30493   */\n      iszero\n      tag_908\n      jumpi\n        /* \"#utility.yul\":30527:30545   */\n      tag_909\n      tag_910\n      jump\t// in\n    tag_909:\n        /* \"#utility.yul\":30491:30493   */\n    tag_908:\n        /* \"#utility.yul\":30577:30581   */\n      0x20\n        /* \"#utility.yul\":30569:30575   */\n      dup3\n        /* \"#utility.yul\":30565:30582   */\n      mul\n        /* \"#utility.yul\":30557:30582   */\n      swap1\n      pop\n        /* \"#utility.yul\":30420:30589   */\n      swap2\n      swap1\n      pop\n      jump\t// out\n        /* \"#utility.yul\":30595:30905   */\n    tag_566:\n        /* \"#utility.yul\":30671:30675   */\n      0x00\n        /* \"#utility.yul\":30761:30779   */\n      0xffffffffffffffff\n        /* \"#utility.yul\":30753:30759   */\n      dup3\n        /* \"#utility.yul\":30750:30780   */\n      gt\n        /* \"#utility.yul\":30747:30749   */\n      iszero\n      tag_912\n      jumpi\n        /* \"#utility.yul\":30783:30801   */\n      tag_913\n      tag_910\n      jump\t// in\n    tag_913:\n        /* \"#utility.yul\":30747:30749   */\n    tag_912:\n        /* \"#utility.yul\":30833:30837   */\n      0x20\n        /* \"#utility.yul\":30825:30831   */\n      dup3\n        /* \"#utility.yul\":30821:30838   */\n      mul\n        /* \"#utility.yul\":30813:30838   */\n      swap1\n      pop\n        /* \"#utility.yul\":30893:30897   */\n      0x20\n        /* \"#utility.yul\":30887:30891   */\n      dup2\n        /* \"#utility.yul\":30883:30898   */\n      add\n        /* \"#utility.yul\":30875:30898   */\n      swap1\n      pop\n        /* \"#utility.yul\":30676:30905   */\n      swap2\n      swap1\n      pop\n      jump\t// out\n        /* \"#utility.yul\":30911:31170   */\n    tag_577:\n        /* \"#utility.yul\":30996:31000   */\n      0x00\n        /* \"#utility.yul\":31086:31104   */\n      0xffffffffffffffff\n        /* \"#utility.yul\":31078:31084   */\n      dup3\n        /* \"#utility.yul\":31075:31105   */\n      gt\n        /* \"#utility.yul\":31072:31074   */\n      iszero\n      tag_915\n      jumpi\n        /* \"#utility.yul\":31108:31126   */\n      tag_916\n      tag_910\n      jump\t// in\n    tag_916:\n        /* \"#utility.yul\":31072:31074   */\n    tag_915:\n        /* \"#utility.yul\":31158:31162   */\n      0x20\n        /* \"#utility.yul\":31150:31156   */\n      dup3\n        /* \"#utility.yul\":31146:31163   */\n      mul\n        /* \"#utility.yul\":31138:31163   */\n      swap1\n      pop\n        /* \"#utility.yul\":31001:31170   */\n      swap2\n      swap1\n      pop\n      jump\t// out\n        /* \"#utility.yul\":31176:31484   */\n    tag_592:\n        /* \"#utility.yul\":31238:31242   */\n      0x00\n        /* \"#utility.yul\":31328:31346   */\n      0xffffffffffffffff\n        /* \"#utility.yul\":31320:31326   */\n      dup3\n        /* \"#utility.yul\":31317:31347   */\n      gt\n        /* \"#utility.yul\":31314:31316   */\n      iszero\n      tag_918\n      jumpi\n        /* \"#utility.yul\":31350:31368   */\n      tag_919\n      tag_910\n      jump\t// in\n    tag_919:\n        /* \"#utility.yul\":31314:31316   */\n    tag_918:\n        /* \"#utility.yul\":31388:31417   */\n      tag_920\n        /* \"#utility.yul\":31410:31416   */\n      dup3\n        /* \"#utility.yul\":31388:31417   */\n      tag_728\n      jump\t// in\n    tag_920:\n        /* \"#utility.yul\":31380:31417   */\n      swap1\n      pop\n        /* \"#utility.yul\":31472:31476   */\n      0x20\n        /* \"#utility.yul\":31466:31470   */\n      dup2\n        /* \"#utility.yul\":31462:31477   */\n      add\n        /* \"#utility.yul\":31454:31477   */\n      swap1\n      pop\n        /* \"#utility.yul\":31243:31484   */\n      swap2\n      swap1\n      pop\n      jump\t// out\n        /* \"#utility.yul\":31490:31587   */\n    tag_685:\n        /* \"#utility.yul\":31554:31558   */\n      0x00\n        /* \"#utility.yul\":31577:31580   */\n      dup2\n        /* \"#utility.yul\":31569:31580   */\n      swap1\n      pop\n        /* \"#utility.yul\":31559:31587   */\n      swap2\n      swap1\n      pop\n      jump\t// out\n        /* \"#utility.yul\":31593:31701   */\n    tag_699:\n        /* \"#utility.yul\":31668:31672   */\n      0x00\n        /* \"#utility.yul\":31691:31694   */\n      dup2\n        /* \"#utility.yul\":31683:31694   */\n      swap1\n      pop\n        /* \"#utility.yul\":31673:31701   */\n      swap2\n      swap1\n      pop\n      jump\t// out\n        /* \"#utility.yul\":31707:31810   */\n    tag_681:\n        /* \"#utility.yul\":31771:31777   */\n      0x00\n        /* \"#utility.yul\":31799:31803   */\n      0x08\n        /* \"#utility.yul\":31789:31803   */\n      swap1\n      pop\n        /* \"#utility.yul\":31778:31810   */\n      swap2\n      swap1\n      pop\n      jump\t// out\n        /* \"#utility.yul\":31816:31930   */\n    tag_695:\n        /* \"#utility.yul\":31891:31897   */\n      0x00\n        /* \"#utility.yul\":31919:31923   */\n      0x08\n        /* \"#utility.yul\":31909:31923   */\n      swap1\n      pop\n        /* \"#utility.yul\":31898:31930   */\n      swap2\n      swap1\n      pop\n      jump\t// out\n        /* \"#utility.yul\":31936:32035   */\n    tag_722:\n        /* \"#utility.yul\":31988:31994   */\n      0x00\n        /* \"#utility.yul\":32022:32027   */\n      dup2\n        /* \"#utility.yul\":32016:32028   */\n      mload\n        /* \"#utility.yul\":32006:32028   */\n      swap1\n      pop\n        /* \"#utility.yul\":31995:32035   */\n      swap2\n      swap1\n      pop\n      jump\t// out\n        /* \"#utility.yul\":32041:32151   */\n    tag_691:\n        /* \"#utility.yul\":32108:32112   */\n      0x00\n        /* \"#utility.yul\":32140:32144   */\n      0x20\n        /* \"#utility.yul\":32135:32138   */\n      dup3\n        /* \"#utility.yul\":32131:32145   */\n      add\n        /* \"#utility.yul\":32123:32145   */\n      swap1\n      pop\n        /* \"#utility.yul\":32113:32151   */\n      swap2\n      swap1\n      pop\n      jump\t// out\n        /* \"#utility.yul\":32157:32278   */\n    tag_705:\n        /* \"#utility.yul\":32235:32239   */\n      0x00\n        /* \"#utility.yul\":32267:32271   */\n      0x20\n        /* \"#utility.yul\":32262:32265   */\n      dup3\n        /* \"#utility.yul\":32258:32272   */\n      add\n        /* \"#utility.yul\":32250:32272   */\n      swap1\n      pop\n        /* \"#utility.yul\":32240:32278   */\n      swap2\n      swap1\n      pop\n      jump\t// out\n        /* \"#utility.yul\":32284:32426   */\n    tag_683:\n        /* \"#utility.yul\":32380:32391   */\n      0x00\n        /* \"#utility.yul\":32417:32420   */\n      dup2\n        /* \"#utility.yul\":32402:32420   */\n      swap1\n      pop\n        /* \"#utility.yul\":32392:32426   */\n      swap3\n      swap2\n      pop\n      pop\n      jump\t// out\n        /* \"#utility.yul\":32432:32585   */\n    tag_697:\n        /* \"#utility.yul\":32539:32550   */\n      0x00\n        /* \"#utility.yul\":32576:32579   */\n      dup2\n        /* \"#utility.yul\":32561:32579   */\n      swap1\n      pop\n        /* \"#utility.yul\":32551:32585   */\n      swap3\n      swap2\n      pop\n      pop\n      jump\t// out\n        /* \"#utility.yul\":32591:32750   */\n    tag_724:\n        /* \"#utility.yul\":32665:32676   */\n      0x00\n        /* \"#utility.yul\":32699:32705   */\n      dup3\n        /* \"#utility.yul\":32694:32697   */\n      dup3\n        /* \"#utility.yul\":32687:32706   */\n      mstore\n        /* \"#utility.yul\":32739:32743   */\n      0x20\n        /* \"#utility.yul\":32734:32737   */\n      dup3\n        /* \"#utility.yul\":32730:32744   */\n      add\n        /* \"#utility.yul\":32715:32744   */\n      swap1\n      pop\n        /* \"#utility.yul\":32677:32750   */\n      swap3\n      swap2\n      pop\n      pop\n      jump\t// out\n        /* \"#utility.yul\":32756:32925   */\n    tag_733:\n        /* \"#utility.yul\":32840:32851   */\n      0x00\n        /* \"#utility.yul\":32874:32880   */\n      dup3\n        /* \"#utility.yul\":32869:32872   */\n      dup3\n        /* \"#utility.yul\":32862:32881   */\n      mstore\n        /* \"#utility.yul\":32914:32918   */\n      0x20\n        /* \"#utility.yul\":32909:32912   */\n      dup3\n        /* \"#utility.yul\":32905:32919   */\n      add\n        /* \"#utility.yul\":32890:32919   */\n      swap1\n      pop\n        /* \"#utility.yul\":32852:32925   */\n      swap3\n      swap2\n      pop\n      pop\n      jump\t// out\n        /* \"#utility.yul\":32931:33079   */\n    tag_740:\n        /* \"#utility.yul\":33033:33044   */\n      0x00\n        /* \"#utility.yul\":33070:33073   */\n      dup2\n        /* \"#utility.yul\":33055:33073   */\n      swap1\n      pop\n        /* \"#utility.yul\":33045:33079   */\n      swap3\n      swap2\n      pop\n      pop\n      jump\t// out\n        /* \"#utility.yul\":33085:33610   */\n    tag_219:\n        /* \"#utility.yul\":33124:33127   */\n      0x00\n        /* \"#utility.yul\":33143:33162   */\n      tag_934\n        /* \"#utility.yul\":33160:33161   */\n      dup3\n        /* \"#utility.yul\":33143:33162   */\n      tag_716\n      jump\t// in\n    tag_934:\n        /* \"#utility.yul\":33138:33162   */\n      swap2\n      pop\n        /* \"#utility.yul\":33176:33195   */\n      tag_935\n        /* \"#utility.yul\":33193:33194   */\n      dup4\n        /* \"#utility.yul\":33176:33195   */\n      tag_716\n      jump\t// in\n    tag_935:\n        /* \"#utility.yul\":33171:33195   */\n      swap3\n      pop\n        /* \"#utility.yul\":33364:33365   */\n      dup2\n        /* \"#utility.yul\":33296:33362   */\n      0x7fffffffffffffffffffffffffffffffffffffffffffffffffffffffffffffff\n        /* \"#utility.yul\":33292:33366   */\n      sub\n        /* \"#utility.yul\":33289:33290   */\n      dup4\n        /* \"#utility.yul\":33285:33367   */\n      sgt\n        /* \"#utility.yul\":33280:33281   */\n      0x00\n        /* \"#utility.yul\":33277:33278   */\n      dup4\n        /* \"#utility.yul\":33273:33282   */\n      slt\n        /* \"#utility.yul\":33266:33283   */\n      iszero\n        /* \"#utility.yul\":33262:33368   */\n      and\n        /* \"#utility.yul\":33259:33261   */\n      iszero\n      tag_936\n      jumpi\n        /* \"#utility.yul\":33371:33389   */\n      tag_937\n      tag_938\n      jump\t// in\n    tag_937:\n        /* \"#utility.yul\":33259:33261   */\n    tag_936:\n        /* \"#utility.yul\":33551:33552   */\n      dup2\n        /* \"#utility.yul\":33483:33549   */\n      0x8000000000000000000000000000000000000000000000000000000000000000\n        /* \"#utility.yul\":33479:33553   */\n      sub\n        /* \"#utility.yul\":33476:33477   */\n      dup4\n        /* \"#utility.yul\":33472:33554   */\n      slt\n        /* \"#utility.yul\":33468:33469   */\n      0x00\n        /* \"#utility.yul\":33465:33466   */\n      dup4\n        /* \"#utility.yul\":33461:33470   */\n      slt\n        /* \"#utility.yul\":33457:33555   */\n      and\n        /* \"#utility.yul\":33454:33456   */\n      iszero\n      tag_939\n      jumpi\n        /* \"#utility.yul\":33558:33576   */\n      tag_940\n      tag_938\n      jump\t// in\n    tag_940:\n        /* \"#utility.yul\":33454:33456   */\n    tag_939:\n        /* \"#utility.yul\":33602:33603   */\n      dup3\n        /* \"#utility.yul\":33599:33600   */\n      dup3\n        /* \"#utility.yul\":33595:33604   */\n      add\n        /* \"#utility.yul\":33588:33604   */\n      swap1\n      pop\n        /* \"#utility.yul\":33128:33610   */\n      swap3\n      swap2\n      pop\n      pop\n      jump\t// out\n        /* \"#utility.yul\":33616:33921   */\n    tag_318:\n        /* \"#utility.yul\":33656:33659   */\n      0x00\n        /* \"#utility.yul\":33675:33695   */\n      tag_942\n        /* \"#utility.yul\":33693:33694   */\n      dup3\n        /* \"#utility.yul\":33675:33695   */\n      tag_830\n      jump\t// in\n    tag_942:\n        /* \"#utility.yul\":33670:33695   */\n      swap2\n      pop\n        /* \"#utility.yul\":33709:33729   */\n      tag_943\n        /* \"#utility.yul\":33727:33728   */\n      dup4\n        /* \"#utility.yul\":33709:33729   */\n      tag_830\n      jump\t// in\n    tag_943:\n        /* \"#utility.yul\":33704:33729   */\n      swap3\n      pop\n        /* \"#utility.yul\":33863:33864   */\n      dup3\n        /* \"#utility.yul\":33795:33861   */\n      0xffffffffffffffffffffffffffffffffffffffffffffffffffffffffffffffff\n        /* \"#utility.yul\":33791:33865   */\n      sub\n        /* \"#utility.yul\":33788:33789   */\n      dup3\n        /* \"#utility.yul\":33785:33866   */\n      gt\n        /* \"#utility.yul\":33782:33784   */\n      iszero\n      tag_944\n      jumpi\n        /* \"#utility.yul\":33869:33887   */\n      tag_945\n      tag_938\n      jump\t// in\n    tag_945:\n        /* \"#utility.yul\":33782:33784   */\n    tag_944:\n        /* \"#utility.yul\":33913:33914   */\n      dup3\n        /* \"#utility.yul\":33910:33911   */\n      dup3\n        /* \"#utility.yul\":33906:33915   */\n      add\n        /* \"#utility.yul\":33899:33915   */\n      swap1\n      pop\n        /* \"#utility.yul\":33660:33921   */\n      swap3\n      swap2\n      pop\n      pop\n      jump\t// out\n        /* \"#utility.yul\":33927:34312   */\n    tag_345:\n        /* \"#utility.yul\":33966:33967   */\n      0x00\n        /* \"#utility.yul\":33983:34002   */\n      tag_947\n        /* \"#utility.yul\":34000:34001   */\n      dup3\n        /* \"#utility.yul\":33983:34002   */\n      tag_716\n      jump\t// in\n    tag_947:\n        /* \"#utility.yul\":33978:34002   */\n      swap2\n      pop\n        /* \"#utility.yul\":34016:34035   */\n      tag_948\n        /* \"#utility.yul\":34033:34034   */\n      dup4\n        /* \"#utility.yul\":34016:34035   */\n      tag_716\n      jump\t// in\n    tag_948:\n        /* \"#utility.yul\":34011:34035   */\n      swap3\n      pop\n        /* \"#utility.yul\":34054:34055   */\n      dup3\n        /* \"#utility.yul\":34044:34046   */\n      tag_949\n      jumpi\n        /* \"#utility.yul\":34059:34077   */\n      tag_950\n      tag_951\n      jump\t// in\n    tag_950:\n        /* \"#utility.yul\":34044:34046   */\n    tag_949:\n        /* \"#utility.yul\":34245:34246   */\n      0x01\n        /* \"#utility.yul\":34242:34243   */\n      0x00\n        /* \"#utility.yul\":34238:34247   */\n      sub\n        /* \"#utility.yul\":34235:34236   */\n      dup4\n        /* \"#utility.yul\":34232:34248   */\n      eq\n        /* \"#utility.yul\":34151:34217   */\n      0x8000000000000000000000000000000000000000000000000000000000000000\n        /* \"#utility.yul\":34148:34149   */\n      dup4\n        /* \"#utility.yul\":34145:34218   */\n      eq\n        /* \"#utility.yul\":34128:34258   */\n      and\n        /* \"#utility.yul\":34125:34127   */\n      iszero\n      tag_952\n      jumpi\n        /* \"#utility.yul\":34261:34279   */\n      tag_953\n      tag_938\n      jump\t// in\n    tag_953:\n        /* \"#utility.yul\":34125:34127   */\n    tag_952:\n        /* \"#utility.yul\":34304:34305   */\n      dup3\n        /* \"#utility.yul\":34301:34302   */\n      dup3\n        /* \"#utility.yul\":34296:34306   */\n      sdiv\n        /* \"#utility.yul\":34291:34306   */\n      swap1\n      pop\n        /* \"#utility.yul\":33968:34312   */\n      swap3\n      swap2\n      pop\n      pop\n      jump\t// out\n        /* \"#utility.yul\":34318:34666   */\n    tag_472:\n        /* \"#utility.yul\":34358:34365   */\n      0x00\n        /* \"#utility.yul\":34381:34401   */\n      tag_955\n        /* \"#utility.yul\":34399:34400   */\n      dup3\n        /* \"#utility.yul\":34381:34401   */\n      tag_830\n      jump\t// in\n    tag_955:\n        /* \"#utility.yul\":34376:34401   */\n      swap2\n      pop\n        /* \"#utility.yul\":34415:34435   */\n      tag_956\n        /* \"#utility.yul\":34433:34434   */\n      dup4\n        /* \"#utility.yul\":34415:34435   */\n      tag_830\n      jump\t// in\n    tag_956:\n        /* \"#utility.yul\":34410:34435   */\n      swap3\n      pop\n        /* \"#utility.yul\":34603:34604   */\n      dup2\n        /* \"#utility.yul\":34535:34601   */\n      0xffffffffffffffffffffffffffffffffffffffffffffffffffffffffffffffff\n        /* \"#utility.yul\":34531:34605   */\n      div\n        /* \"#utility.yul\":34528:34529   */\n      dup4\n        /* \"#utility.yul\":34525:34606   */\n      gt\n        /* \"#utility.yul\":34520:34521   */\n      dup3\n        /* \"#utility.yul\":34513:34522   */\n      iszero\n        /* \"#utility.yul\":34506:34523   */\n      iszero\n        /* \"#utility.yul\":34502:34607   */\n      and\n        /* \"#utility.yul\":34499:34501   */\n      iszero\n      tag_957\n      jumpi\n        /* \"#utility.yul\":34610:34628   */\n      tag_958\n      tag_938\n      jump\t// in\n    tag_958:\n        /* \"#utility.yul\":34499:34501   */\n    tag_957:\n        /* \"#utility.yul\":34658:34659   */\n      dup3\n        /* \"#utility.yul\":34655:34656   */\n      dup3\n        /* \"#utility.yul\":34651:34660   */\n      mul\n        /* \"#utility.yul\":34640:34660   */\n      swap1\n      pop\n        /* \"#utility.yul\":34366:34666   */\n      swap3\n      swap2\n      pop\n      pop\n      jump\t// out\n        /* \"#utility.yul\":34672:34768   */\n    tag_677:\n        /* \"#utility.yul\":34709:34716   */\n      0x00\n        /* \"#utility.yul\":34738:34762   */\n      tag_960\n        /* \"#utility.yul\":34756:34761   */\n      dup3\n        /* \"#utility.yul\":34738:34762   */\n      tag_961\n      jump\t// in\n    tag_960:\n        /* \"#utility.yul\":34727:34762   */\n      swap1\n      pop\n        /* \"#utility.yul\":34717:34768   */\n      swap2\n      swap1\n      pop\n      jump\t// out\n        /* \"#utility.yul\":34774:34878   */\n    tag_673:\n        /* \"#utility.yul\":34819:34826   */\n      0x00\n        /* \"#utility.yul\":34848:34872   */\n      tag_963\n        /* \"#utility.yul\":34866:34871   */\n      dup3\n        /* \"#utility.yul\":34848:34872   */\n      tag_961\n      jump\t// in\n    tag_963:\n        /* \"#utility.yul\":34837:34872   */\n      swap1\n      pop\n        /* \"#utility.yul\":34827:34878   */\n      swap2\n      swap1\n      pop\n      jump\t// out\n        /* \"#utility.yul\":34884:34974   */\n    tag_709:\n        /* \"#utility.yul\":34918:34925   */\n      0x00\n        /* \"#utility.yul\":34961:34966   */\n      dup2\n        /* \"#utility.yul\":34954:34967   */\n      iszero\n        /* \"#utility.yul\":34947:34968   */\n      iszero\n        /* \"#utility.yul\":34936:34968   */\n      swap1\n      pop\n        /* \"#utility.yul\":34926:34974   */\n      swap2\n      swap1\n      pop\n      jump\t// out\n        /* \"#utility.yul\":34980:35109   */\n    tag_965:\n        /* \"#utility.yul\":35026:35033   */\n      0x00\n        /* \"#utility.yul\":35055:35060   */\n      dup2\n        /* \"#utility.yul\":35044:35060   */\n      swap1\n      pop\n        /* \"#utility.yul\":35061:35103   */\n      tag_967\n        /* \"#utility.yul\":35097:35102   */\n      dup3\n        /* \"#utility.yul\":35061:35103   */\n      tag_968\n      jump\t// in\n    tag_967:\n        /* \"#utility.yul\":35034:35109   */\n      swap2\n      swap1\n      pop\n      jump\t// out\n        /* \"#utility.yul\":35115:35191   */\n    tag_716:\n        /* \"#utility.yul\":35151:35158   */\n      0x00\n        /* \"#utility.yul\":35180:35185   */\n      dup2\n        /* \"#utility.yul\":35169:35185   */\n      swap1\n      pop\n        /* \"#utility.yul\":35159:35191   */\n      swap2\n      swap1\n      pop\n      jump\t// out\n        /* \"#utility.yul\":35197:35323   */\n    tag_961:\n        /* \"#utility.yul\":35234:35241   */\n      0x00\n        /* \"#utility.yul\":35274:35316   */\n      0xffffffffffffffffffffffffffffffffffffffff\n        /* \"#utility.yul\":35267:35272   */\n      dup3\n        /* \"#utility.yul\":35263:35317   */\n      and\n        /* \"#utility.yul\":35252:35317   */\n      swap1\n      pop\n        /* \"#utility.yul\":35242:35323   */\n      swap2\n      swap1\n      pop\n      jump\t// out\n        /* \"#utility.yul\":35329:35406   */\n    tag_830:\n        /* \"#utility.yul\":35366:35373   */\n      0x00\n        /* \"#utility.yul\":35395:35400   */\n      dup2\n        /* \"#utility.yul\":35384:35400   */\n      swap1\n      pop\n        /* \"#utility.yul\":35374:35406   */\n      swap2\n      swap1\n      pop\n      jump\t// out\n        /* \"#utility.yul\":35412:35541   */\n    tag_713:\n        /* \"#utility.yul\":35469:35478   */\n      0x00\n        /* \"#utility.yul\":35502:35535   */\n      tag_973\n        /* \"#utility.yul\":35529:35534   */\n      dup3\n        /* \"#utility.yul\":35502:35535   */\n      tag_965\n      jump\t// in\n    tag_973:\n        /* \"#utility.yul\":35489:35535   */\n      swap1\n      pop\n        /* \"#utility.yul\":35479:35541   */\n      swap2\n      swap1\n      pop\n      jump\t// out\n        /* \"#utility.yul\":35547:35701   */\n    tag_597:\n        /* \"#utility.yul\":35631:35637   */\n      dup3\n        /* \"#utility.yul\":35626:35629   */\n      dup2\n        /* \"#utility.yul\":35621:35624   */\n      dup4\n        /* \"#utility.yul\":35608:35638   */\n      calldatacopy\n        /* \"#utility.yul\":35693:35694   */\n      0x00\n        /* \"#utility.yul\":35684:35690   */\n      dup4\n        /* \"#utility.yul\":35679:35682   */\n      dup4\n        /* \"#utility.yul\":35675:35691   */\n      add\n        /* \"#utility.yul\":35668:35695   */\n      mstore\n        /* \"#utility.yul\":35598:35701   */\n      pop\n      pop\n      pop\n      jump\t// out\n        /* \"#utility.yul\":35707:36014   */\n    tag_726:\n        /* \"#utility.yul\":35775:35776   */\n      0x00\n        /* \"#utility.yul\":35785:35898   */\n    tag_976:\n        /* \"#utility.yul\":35799:35805   */\n      dup4\n        /* \"#utility.yul\":35796:35797   */\n      dup2\n        /* \"#utility.yul\":35793:35806   */\n      lt\n        /* \"#utility.yul\":35785:35898   */\n      iszero\n      tag_978\n      jumpi\n        /* \"#utility.yul\":35884:35885   */\n      dup1\n        /* \"#utility.yul\":35879:35882   */\n      dup3\n        /* \"#utility.yul\":35875:35886   */\n      add\n        /* \"#utility.yul\":35869:35887   */\n      mload\n        /* \"#utility.yul\":35865:35866   */\n      dup2\n        /* \"#utility.yul\":35860:35863   */\n      dup5\n        /* \"#utility.yul\":35856:35867   */\n      add\n        /* \"#utility.yul\":35849:35888   */\n      mstore\n        /* \"#utility.yul\":35821:35823   */\n      0x20\n        /* \"#utility.yul\":35818:35819   */\n      dup2\n        /* \"#utility.yul\":35814:35824   */\n      add\n        /* \"#utility.yul\":35809:35824   */\n      swap1\n      pop\n        /* \"#utility.yul\":35785:35898   */\n      jump(tag_976)\n    tag_978:\n        /* \"#utility.yul\":35916:35922   */\n      dup4\n        /* \"#utility.yul\":35913:35914   */\n      dup2\n        /* \"#utility.yul\":35910:35923   */\n      gt\n        /* \"#utility.yul\":35907:35909   */\n      iszero\n      tag_979\n      jumpi\n        /* \"#utility.yul\":35996:35997   */\n      0x00\n        /* \"#utility.yul\":35987:35993   */\n      dup5\n        /* \"#utility.yul\":35982:35985   */\n      dup5\n        /* \"#utility.yul\":35978:35994   */\n      add\n        /* \"#utility.yul\":35971:35998   */\n      mstore\n        /* \"#utility.yul\":35907:35909   */\n    tag_979:\n        /* \"#utility.yul\":35756:36014   */\n      pop\n      pop\n      pop\n      pop\n      jump\t// out\n        /* \"#utility.yul\":36020:36340   */\n    tag_228:\n        /* \"#utility.yul\":36064:36070   */\n      0x00\n        /* \"#utility.yul\":36101:36102   */\n      0x02\n        /* \"#utility.yul\":36095:36099   */\n      dup3\n        /* \"#utility.yul\":36091:36103   */\n      div\n        /* \"#utility.yul\":36081:36103   */\n      swap1\n      pop\n        /* \"#utility.yul\":36148:36149   */\n      0x01\n        /* \"#utility.yul\":36142:36146   */\n      dup3\n        /* \"#utility.yul\":36138:36150   */\n      and\n        /* \"#utility.yul\":36169:36187   */\n      dup1\n        /* \"#utility.yul\":36159:36161   */\n      tag_981\n      jumpi\n        /* \"#utility.yul\":36225:36229   */\n      0x7f\n        /* \"#utility.yul\":36217:36223   */\n      dup3\n        /* \"#utility.yul\":36213:36230   */\n      and\n        /* \"#utility.yul\":36203:36230   */\n      swap2\n      pop\n        /* \"#utility.yul\":36159:36161   */\n    tag_981:\n        /* \"#utility.yul\":36287:36289   */\n      0x20\n        /* \"#utility.yul\":36279:36285   */\n      dup3\n        /* \"#utility.yul\":36276:36290   */\n      lt\n        /* \"#utility.yul\":36256:36274   */\n      dup2\n        /* \"#utility.yul\":36253:36291   */\n      eq\n        /* \"#utility.yul\":36250:36252   */\n      iszero\n      tag_982\n      jumpi\n        /* \"#utility.yul\":36306:36324   */\n      tag_983\n      tag_984\n      jump\t// in\n    tag_983:\n        /* \"#utility.yul\":36250:36252   */\n    tag_982:\n        /* \"#utility.yul\":36071:36340   */\n      pop\n      swap2\n      swap1\n      pop\n      jump\t// out\n        /* \"#utility.yul\":36346:36627   */\n    tag_905:\n        /* \"#utility.yul\":36429:36456   */\n      tag_986\n        /* \"#utility.yul\":36451:36455   */\n      dup3\n        /* \"#utility.yul\":36429:36456   */\n      tag_728\n      jump\t// in\n    tag_986:\n        /* \"#utility.yul\":36421:36427   */\n      dup2\n        /* \"#utility.yul\":36417:36457   */\n      add\n        /* \"#utility.yul\":36559:36565   */\n      dup2\n        /* \"#utility.yul\":36547:36557   */\n      dup2\n        /* \"#utility.yul\":36544:36566   */\n      lt\n        /* \"#utility.yul\":36523:36541   */\n      0xffffffffffffffff\n        /* \"#utility.yul\":36511:36521   */\n      dup3\n        /* \"#utility.yul\":36508:36542   */\n      gt\n        /* \"#utility.yul\":36505:36567   */\n      or\n        /* \"#utility.yul\":36502:36504   */\n      iszero\n      tag_987\n      jumpi\n        /* \"#utility.yul\":36570:36588   */\n      tag_988\n      tag_910\n      jump\t// in\n    tag_988:\n        /* \"#utility.yul\":36502:36504   */\n    tag_987:\n        /* \"#utility.yul\":36610:36620   */\n      dup1\n        /* \"#utility.yul\":36606:36608   */\n      0x40\n        /* \"#utility.yul\":36599:36621   */\n      mstore\n        /* \"#utility.yul\":36389:36627   */\n      pop\n      pop\n      pop\n      jump\t// out\n        /* \"#utility.yul\":36633:36864   */\n    tag_223:\n        /* \"#utility.yul\":36671:36674   */\n      0x00\n        /* \"#utility.yul\":36694:36717   */\n      tag_990\n        /* \"#utility.yul\":36711:36716   */\n      dup3\n        /* \"#utility.yul\":36694:36717   */\n      tag_716\n      jump\t// in\n    tag_990:\n        /* \"#utility.yul\":36685:36717   */\n      swap2\n      pop\n        /* \"#utility.yul\":36739:36805   */\n      0x7fffffffffffffffffffffffffffffffffffffffffffffffffffffffffffffff\n        /* \"#utility.yul\":36732:36737   */\n      dup3\n        /* \"#utility.yul\":36729:36806   */\n      eq\n        /* \"#utility.yul\":36726:36728   */\n      iszero\n      tag_991\n      jumpi\n        /* \"#utility.yul\":36809:36827   */\n      tag_992\n      tag_938\n      jump\t// in\n    tag_992:\n        /* \"#utility.yul\":36726:36728   */\n    tag_991:\n        /* \"#utility.yul\":36856:36857   */\n      0x01\n        /* \"#utility.yul\":36849:36854   */\n      dup3\n        /* \"#utility.yul\":36845:36858   */\n      add\n        /* \"#utility.yul\":36838:36858   */\n      swap1\n      pop\n        /* \"#utility.yul\":36675:36864   */\n      swap2\n      swap1\n      pop\n      jump\t// out\n        /* \"#utility.yul\":36870:37103   */\n    tag_221:\n        /* \"#utility.yul\":36909:36912   */\n      0x00\n        /* \"#utility.yul\":36932:36956   */\n      tag_994\n        /* \"#utility.yul\":36950:36955   */\n      dup3\n        /* \"#utility.yul\":36932:36956   */\n      tag_830\n      jump\t// in\n    tag_994:\n        /* \"#utility.yul\":36923:36956   */\n      swap2\n      pop\n        /* \"#utility.yul\":36978:37044   */\n      0xffffffffffffffffffffffffffffffffffffffffffffffffffffffffffffffff\n        /* \"#utility.yul\":36971:36976   */\n      dup3\n        /* \"#utility.yul\":36968:37045   */\n      eq\n        /* \"#utility.yul\":36965:36967   */\n      iszero\n      tag_995\n      jumpi\n        /* \"#utility.yul\":37048:37066   */\n      tag_996\n      tag_938\n      jump\t// in\n    tag_996:\n        /* \"#utility.yul\":36965:36967   */\n    tag_995:\n        /* \"#utility.yul\":37095:37096   */\n      0x01\n        /* \"#utility.yul\":37088:37093   */\n      dup3\n        /* \"#utility.yul\":37084:37097   */\n      add\n        /* \"#utility.yul\":37077:37097   */\n      swap1\n      pop\n        /* \"#utility.yul\":36913:37103   */\n      swap2\n      swap1\n      pop\n      jump\t// out\n        /* \"#utility.yul\":37109:37289   */\n    tag_938:\n        /* \"#utility.yul\":37157:37234   */\n      0x4e487b7100000000000000000000000000000000000000000000000000000000\n        /* \"#utility.yul\":37154:37155   */\n      0x00\n        /* \"#utility.yul\":37147:37235   */\n      mstore\n        /* \"#utility.yul\":37254:37258   */\n      0x11\n        /* \"#utility.yul\":37251:37252   */\n      0x04\n        /* \"#utility.yul\":37244:37259   */\n      mstore\n        /* \"#utility.yul\":37278:37282   */\n      0x24\n        /* \"#utility.yul\":37275:37276   */\n      0x00\n        /* \"#utility.yul\":37268:37283   */\n      revert\n        /* \"#utility.yul\":37295:37475   */\n    tag_951:\n        /* \"#utility.yul\":37343:37420   */\n      0x4e487b7100000000000000000000000000000000000000000000000000000000\n        /* \"#utility.yul\":37340:37341   */\n      0x00\n        /* \"#utility.yul\":37333:37421   */\n      mstore\n        /* \"#utility.yul\":37440:37444   */\n      0x12\n        /* \"#utility.yul\":37437:37438   */\n      0x04\n        /* \"#utility.yul\":37430:37445   */\n      mstore\n        /* \"#utility.yul\":37464:37468   */\n      0x24\n        /* \"#utility.yul\":37461:37462   */\n      0x00\n        /* \"#utility.yul\":37454:37469   */\n      revert\n        /* \"#utility.yul\":37481:37661   */\n    tag_170:\n        /* \"#utility.yul\":37529:37606   */\n      0x4e487b7100000000000000000000000000000000000000000000000000000000\n        /* \"#utility.yul\":37526:37527   */\n      0x00\n        /* \"#utility.yul\":37519:37607   */\n      mstore\n        /* \"#utility.yul\":37626:37630   */\n      0x21\n        /* \"#utility.yul\":37623:37624   */\n      0x04\n        /* \"#utility.yul\":37616:37631   */\n      mstore\n        /* \"#utility.yul\":37650:37654   */\n      0x24\n        /* \"#utility.yul\":37647:37648   */\n      0x00\n        /* \"#utility.yul\":37640:37655   */\n      revert\n        /* \"#utility.yul\":37667:37847   */\n    tag_984:\n        /* \"#utility.yul\":37715:37792   */\n      0x4e487b7100000000000000000000000000000000000000000000000000000000\n        /* \"#utility.yul\":37712:37713   */\n      0x00\n        /* \"#utility.yul\":37705:37793   */\n      mstore\n        /* \"#utility.yul\":37812:37816   */\n      0x22\n        /* \"#utility.yul\":37809:37810   */\n      0x04\n        /* \"#utility.yul\":37802:37817   */\n      mstore\n        /* \"#utility.yul\":37836:37840   */\n      0x24\n        /* \"#utility.yul\":37833:37834   */\n      0x00\n        /* \"#utility.yul\":37826:37841   */\n      revert\n        /* \"#utility.yul\":37853:38033   */\n    tag_217:\n        /* \"#utility.yul\":37901:37978   */\n      0x4e487b7100000000000000000000000000000000000000000000000000000000\n        /* \"#utility.yul\":37898:37899   */\n      0x00\n        /* \"#utility.yul\":37891:37979   */\n      mstore\n        /* \"#utility.yul\":37998:38002   */\n      0x32\n        /* \"#utility.yul\":37995:37996   */\n      0x04\n        /* \"#utility.yul\":37988:38003   */\n      mstore\n        /* \"#utility.yul\":38022:38026   */\n      0x24\n        /* \"#utility.yul\":38019:38020   */\n      0x00\n        /* \"#utility.yul\":38012:38027   */\n      revert\n        /* \"#utility.yul\":38039:38219   */\n    tag_910:\n        /* \"#utility.yul\":38087:38164   */\n      0x4e487b7100000000000000000000000000000000000000000000000000000000\n        /* \"#utility.yul\":38084:38085   */\n      0x00\n        /* \"#utility.yul\":38077:38165   */\n      mstore\n        /* \"#utility.yul\":38184:38188   */\n      0x41\n        /* \"#utility.yul\":38181:38182   */\n      0x04\n        /* \"#utility.yul\":38174:38189   */\n      mstore\n        /* \"#utility.yul\":38208:38212   */\n      0x24\n        /* \"#utility.yul\":38205:38206   */\n      0x00\n        /* \"#utility.yul\":38198:38213   */\n      revert\n        /* \"#utility.yul\":38225:38342   */\n    tag_585:\n        /* \"#utility.yul\":38334:38335   */\n      0x00\n        /* \"#utility.yul\":38331:38332   */\n      dup1\n        /* \"#utility.yul\":38324:38336   */\n      revert\n        /* \"#utility.yul\":38348:38465   */\n    tag_556:\n        /* \"#utility.yul\":38457:38458   */\n      0x00\n        /* \"#utility.yul\":38454:38455   */\n      dup1\n        /* \"#utility.yul\":38447:38459   */\n      revert\n        /* \"#utility.yul\":38471:38588   */\n    tag_595:\n        /* \"#utility.yul\":38580:38581   */\n      0x00\n        /* \"#utility.yul\":38577:38578   */\n      dup1\n        /* \"#utility.yul\":38570:38582   */\n      revert\n        /* \"#utility.yul\":38594:38711   */\n    tag_646:\n        /* \"#utility.yul\":38703:38704   */\n      0x00\n        /* \"#utility.yul\":38700:38701   */\n      dup1\n        /* \"#utility.yul\":38693:38705   */\n      revert\n        /* \"#utility.yul\":38717:38834   */\n    tag_631:\n        /* \"#utility.yul\":38826:38827   */\n      0x00\n        /* \"#utility.yul\":38823:38824   */\n      dup1\n        /* \"#utility.yul\":38816:38828   */\n      revert\n        /* \"#utility.yul\":38840:38942   */\n    tag_728:\n        /* \"#utility.yul\":38881:38887   */\n      0x00\n        /* \"#utility.yul\":38932:38934   */\n      0x1f\n        /* \"#utility.yul\":38928:38935   */\n      not\n        /* \"#utility.yul\":38923:38925   */\n      0x1f\n        /* \"#utility.yul\":38916:38921   */\n      dup4\n        /* \"#utility.yul\":38912:38926   */\n      add\n        /* \"#utility.yul\":38908:38936   */\n      and\n        /* \"#utility.yul\":38898:38936   */\n      swap1\n      pop\n        /* \"#utility.yul\":38888:38942   */\n      swap2\n      swap1\n      pop\n      jump\t// out\n        /* \"#utility.yul\":38948:39100   */\n    tag_746:\n        /* \"#utility.yul\":39088:39092   */\n      0x3e3d000000000000000000000000000000000000000000000000000000000000\n        /* \"#utility.yul\":39084:39085   */\n      0x00\n        /* \"#utility.yul\":39076:39082   */\n      dup3\n        /* \"#utility.yul\":39072:39086   */\n      add\n        /* \"#utility.yul\":39065:39093   */\n      mstore\n        /* \"#utility.yul\":39054:39100   */\n      pop\n      jump\t// out\n        /* \"#utility.yul\":39106:39397   */\n    tag_751:\n        /* \"#utility.yul\":39246:39280   */\n      0x696e7369646520736574436f6e64732069662073746174656d656e742c206166\n        /* \"#utility.yul\":39242:39243   */\n      0x00\n        /* \"#utility.yul\":39234:39240   */\n      dup3\n        /* \"#utility.yul\":39230:39244   */\n      add\n        /* \"#utility.yul\":39223:39281   */\n      mstore\n        /* \"#utility.yul\":39315:39349   */\n      0x74657220656e64496e697453746167652c2063757272656e7420737461676520\n        /* \"#utility.yul\":39310:39312   */\n      0x20\n        /* \"#utility.yul\":39302:39308   */\n      dup3\n        /* \"#utility.yul\":39298:39313   */\n      add\n        /* \"#utility.yul\":39291:39350   */\n      mstore\n        /* \"#utility.yul\":39384:39389   */\n      0x69733a0000000000000000000000000000000000000000000000000000000000\n        /* \"#utility.yul\":39379:39381   */\n      0x40\n        /* \"#utility.yul\":39371:39377   */\n      dup3\n        /* \"#utility.yul\":39367:39382   */\n      add\n        /* \"#utility.yul\":39360:39390   */\n      mstore\n        /* \"#utility.yul\":39212:39397   */\n      pop\n      jump\t// out\n        /* \"#utility.yul\":39403:39644   */\n    tag_756:\n        /* \"#utility.yul\":39543:39577   */\n      0x43616e6e6f742063616c6c20746869732066756e6374696f6e20646972656374\n        /* \"#utility.yul\":39539:39540   */\n      0x00\n        /* \"#utility.yul\":39531:39537   */\n      dup3\n        /* \"#utility.yul\":39527:39541   */\n      add\n        /* \"#utility.yul\":39520:39578   */\n      mstore\n        /* \"#utility.yul\":39612:39636   */\n      0x6c792c207573652056656e646f72466163746f72792e00000000000000000000\n        /* \"#utility.yul\":39607:39609   */\n      0x20\n        /* \"#utility.yul\":39599:39605   */\n      dup3\n        /* \"#utility.yul\":39595:39610   */\n      add\n        /* \"#utility.yul\":39588:39637   */\n      mstore\n        /* \"#utility.yul\":39509:39644   */\n      pop\n      jump\t// out\n        /* \"#utility.yul\":39650:39884   */\n    tag_761:\n        /* \"#utility.yul\":39790:39824   */\n      0x696e7369646520736574436f6e64732069662073746174656d656e742c206375\n        /* \"#utility.yul\":39786:39787   */\n      0x00\n        /* \"#utility.yul\":39778:39784   */\n      dup3\n        /* \"#utility.yul\":39774:39788   */\n      add\n        /* \"#utility.yul\":39767:39825   */\n      mstore\n        /* \"#utility.yul\":39859:39876   */\n      0x7272656e742073746167652069733a0000000000000000000000000000000000\n        /* \"#utility.yul\":39854:39856   */\n      0x20\n        /* \"#utility.yul\":39846:39852   */\n      dup3\n        /* \"#utility.yul\":39842:39857   */\n      add\n        /* \"#utility.yul\":39835:39877   */\n      mstore\n        /* \"#utility.yul\":39756:39884   */\n      pop\n      jump\t// out\n        /* \"#utility.yul\":39890:40058   */\n    tag_766:\n        /* \"#utility.yul\":40030:40050   */\n      0x526566756e64696e67207061796d656e742e0000000000000000000000000000\n        /* \"#utility.yul\":40026:40027   */\n      0x00\n        /* \"#utility.yul\":40018:40024   */\n      dup3\n        /* \"#utility.yul\":40014:40028   */\n      add\n        /* \"#utility.yul\":40007:40051   */\n      mstore\n        /* \"#utility.yul\":39996:40058   */\n      pop\n      jump\t// out\n        /* \"#utility.yul\":40064:40230   */\n    tag_771:\n        /* \"#utility.yul\":40204:40222   */\n      0x53656e64696e67207061796d656e742e00000000000000000000000000000000\n        /* \"#utility.yul\":40200:40201   */\n      0x00\n        /* \"#utility.yul\":40192:40198   */\n      dup3\n        /* \"#utility.yul\":40188:40202   */\n      add\n        /* \"#utility.yul\":40181:40223   */\n      mstore\n        /* \"#utility.yul\":40170:40230   */\n      pop\n      jump\t// out\n        /* \"#utility.yul\":40236:40457   */\n    tag_776:\n        /* \"#utility.yul\":40376:40410   */\n      0x696e7369646520736574436f6e64732c2063757272656e742073746167652069\n        /* \"#utility.yul\":40372:40373   */\n      0x00\n        /* \"#utility.yul\":40364:40370   */\n      dup3\n        /* \"#utility.yul\":40360:40374   */\n      add\n        /* \"#utility.yul\":40353:40411   */\n      mstore\n        /* \"#utility.yul\":40445:40449   */\n      0x733a000000000000000000000000000000000000000000000000000000000000\n        /* \"#utility.yul\":40440:40442   */\n      0x20\n        /* \"#utility.yul\":40432:40438   */\n      dup3\n        /* \"#utility.yul\":40428:40443   */\n      add\n        /* \"#utility.yul\":40421:40450   */\n      mstore\n        /* \"#utility.yul\":40342:40457   */\n      pop\n      jump\t// out\n        /* \"#utility.yul\":40463:40615   */\n    tag_781:\n        /* \"#utility.yul\":40603:40607   */\n      0x3d3d000000000000000000000000000000000000000000000000000000000000\n        /* \"#utility.yul\":40599:40600   */\n      0x00\n        /* \"#utility.yul\":40591:40597   */\n      dup3\n        /* \"#utility.yul\":40587:40601   */\n      add\n        /* \"#utility.yul\":40580:40608   */\n      mstore\n        /* \"#utility.yul\":40569:40615   */\n      pop\n      jump\t// out\n        /* \"#utility.yul\":40621:40846   */\n    tag_786:\n        /* \"#utility.yul\":40761:40795   */\n      0x696e7369646520656e64496e697453746167652c2063757272656e7420737461\n        /* \"#utility.yul\":40757:40758   */\n      0x00\n        /* \"#utility.yul\":40749:40755   */\n      dup3\n        /* \"#utility.yul\":40745:40759   */\n      add\n        /* \"#utility.yul\":40738:40796   */\n      mstore\n        /* \"#utility.yul\":40830:40838   */\n      0x67652069733a0000000000000000000000000000000000000000000000000000\n        /* \"#utility.yul\":40825:40827   */\n      0x20\n        /* \"#utility.yul\":40817:40823   */\n      dup3\n        /* \"#utility.yul\":40813:40828   */\n      add\n        /* \"#utility.yul\":40806:40839   */\n      mstore\n        /* \"#utility.yul\":40727:40846   */\n      pop\n      jump\t// out\n        /* \"#utility.yul\":40852:41003   */\n    tag_791:\n        /* \"#utility.yul\":40992:40995   */\n      0x3c00000000000000000000000000000000000000000000000000000000000000\n        /* \"#utility.yul\":40988:40989   */\n      0x00\n        /* \"#utility.yul\":40980:40986   */\n      dup3\n        /* \"#utility.yul\":40976:40990   */\n      add\n        /* \"#utility.yul\":40969:40996   */\n      mstore\n        /* \"#utility.yul\":40958:41003   */\n      pop\n      jump\t// out\n        /* \"#utility.yul\":41009:41161   */\n    tag_796:\n        /* \"#utility.yul\":41149:41153   */\n      0x213d000000000000000000000000000000000000000000000000000000000000\n        /* \"#utility.yul\":41145:41146   */\n      0x00\n        /* \"#utility.yul\":41137:41143   */\n      dup3\n        /* \"#utility.yul\":41133:41147   */\n      add\n        /* \"#utility.yul\":41126:41154   */\n      mstore\n        /* \"#utility.yul\":41115:41161   */\n      pop\n      jump\t// out\n        /* \"#utility.yul\":41167:41387   */\n    tag_801:\n        /* \"#utility.yul\":41307:41341   */\n      0x696e7369646520617453746167652c2063757272656e74207374616765206973\n        /* \"#utility.yul\":41303:41304   */\n      0x00\n        /* \"#utility.yul\":41295:41301   */\n      dup3\n        /* \"#utility.yul\":41291:41305   */\n      add\n        /* \"#utility.yul\":41284:41342   */\n      mstore\n        /* \"#utility.yul\":41376:41379   */\n      0x3a00000000000000000000000000000000000000000000000000000000000000\n        /* \"#utility.yul\":41371:41373   */\n      0x20\n        /* \"#utility.yul\":41363:41369   */\n      dup3\n        /* \"#utility.yul\":41359:41374   */\n      add\n        /* \"#utility.yul\":41352:41380   */\n      mstore\n        /* \"#utility.yul\":41273:41387   */\n      pop\n      jump\t// out\n        /* \"#utility.yul\":41393:41626   */\n    tag_806:\n        /* \"#utility.yul\":41533:41567   */\n      0x7374696c6c20696e7369646520617453746167652c20747279696e6720746f20\n        /* \"#utility.yul\":41529:41530   */\n      0x00\n        /* \"#utility.yul\":41521:41527   */\n      dup3\n        /* \"#utility.yul\":41517:41531   */\n      add\n        /* \"#utility.yul\":41510:41568   */\n      mstore\n        /* \"#utility.yul\":41602:41618   */\n      0x636f6d7061726520697420746f3a000000000000000000000000000000000000\n        /* \"#utility.yul\":41597:41599   */\n      0x20\n        /* \"#utility.yul\":41589:41595   */\n      dup3\n        /* \"#utility.yul\":41585:41600   */\n      add\n        /* \"#utility.yul\":41578:41619   */\n      mstore\n        /* \"#utility.yul\":41499:41626   */\n      pop\n      jump\t// out\n        /* \"#utility.yul\":41632:41784   */\n    tag_811:\n        /* \"#utility.yul\":41772:41776   */\n      0x3c3d000000000000000000000000000000000000000000000000000000000000\n        /* \"#utility.yul\":41768:41769   */\n      0x00\n        /* \"#utility.yul\":41760:41766   */\n      dup3\n        /* \"#utility.yul\":41756:41770   */\n      add\n        /* \"#utility.yul\":41749:41777   */\n      mstore\n        /* \"#utility.yul\":41738:41784   */\n      pop\n      jump\t// out\n        /* \"#utility.yul\":41790:41941   */\n    tag_816:\n        /* \"#utility.yul\":41930:41933   */\n      0x3e00000000000000000000000000000000000000000000000000000000000000\n        /* \"#utility.yul\":41926:41927   */\n      0x00\n        /* \"#utility.yul\":41918:41924   */\n      dup3\n        /* \"#utility.yul\":41914:41928   */\n      add\n        /* \"#utility.yul\":41907:41934   */\n      mstore\n        /* \"#utility.yul\":41896:41941   */\n      pop\n      jump\t// out\n        /* \"#utility.yul\":41947:42126   */\n    tag_821:\n        /* \"#utility.yul\":42087:42118   */\n      0x4e6f742077697468696e207468652062696c6c696e6720706572696f64000000\n        /* \"#utility.yul\":42083:42084   */\n      0x00\n        /* \"#utility.yul\":42075:42081   */\n      dup3\n        /* \"#utility.yul\":42071:42085   */\n      add\n        /* \"#utility.yul\":42064:42119   */\n      mstore\n        /* \"#utility.yul\":42053:42126   */\n      pop\n      jump\t// out\n        /* \"#utility.yul\":42132:42356   */\n    tag_826:\n        /* \"#utility.yul\":42272:42306   */\n      0x436f6e7472616374206973206e6f7420696e2074686520726571756972656420\n        /* \"#utility.yul\":42268:42269   */\n      0x00\n        /* \"#utility.yul\":42260:42266   */\n      dup3\n        /* \"#utility.yul\":42256:42270   */\n      add\n        /* \"#utility.yul\":42249:42307   */\n      mstore\n        /* \"#utility.yul\":42341:42348   */\n      0x7374617465000000000000000000000000000000000000000000000000000000\n        /* \"#utility.yul\":42336:42338   */\n      0x20\n        /* \"#utility.yul\":42328:42334   */\n      dup3\n        /* \"#utility.yul\":42324:42339   */\n      add\n        /* \"#utility.yul\":42317:42349   */\n      mstore\n        /* \"#utility.yul\":42238:42356   */\n      pop\n      jump\t// out\n        /* \"#utility.yul\":42362:42476   */\n    tag_968:\n        /* \"#utility.yul\":42444:42445   */\n      0x05\n        /* \"#utility.yul\":42437:42442   */\n      dup2\n        /* \"#utility.yul\":42434:42446   */\n      lt\n        /* \"#utility.yul\":42424:42426   */\n      tag_1027\n      jumpi\n        /* \"#utility.yul\":42450:42468   */\n      tag_1028\n      tag_170\n      jump\t// in\n    tag_1028:\n        /* \"#utility.yul\":42424:42426   */\n    tag_1027:\n        /* \"#utility.yul\":42414:42476   */\n      pop\n      jump\t// out\n        /* \"#utility.yul\":42482:42604   */\n    tag_601:\n        /* \"#utility.yul\":42555:42579   */\n      tag_1030\n        /* \"#utility.yul\":42573:42578   */\n      dup2\n        /* \"#utility.yul\":42555:42579   */\n      tag_677\n      jump\t// in\n    tag_1030:\n        /* \"#utility.yul\":42548:42553   */\n      dup2\n        /* \"#utility.yul\":42545:42580   */\n      eq\n        /* \"#utility.yul\":42535:42537   */\n      tag_1031\n      jumpi\n        /* \"#utility.yul\":42594:42595   */\n      0x00\n        /* \"#utility.yul\":42591:42592   */\n      dup1\n        /* \"#utility.yul\":42584:42596   */\n      revert\n        /* \"#utility.yul\":42535:42537   */\n    tag_1031:\n        /* \"#utility.yul\":42525:42604   */\n      pop\n      jump\t// out\n        /* \"#utility.yul\":42610:42730   */\n    tag_619:\n        /* \"#utility.yul\":42682:42705   */\n      tag_1033\n        /* \"#utility.yul\":42699:42704   */\n      dup2\n        /* \"#utility.yul\":42682:42705   */\n      tag_716\n      jump\t// in\n    tag_1033:\n        /* \"#utility.yul\":42675:42680   */\n      dup2\n        /* \"#utility.yul\":42672:42706   */\n      eq\n        /* \"#utility.yul\":42662:42664   */\n      tag_1034\n      jumpi\n        /* \"#utility.yul\":42720:42721   */\n      0x00\n        /* \"#utility.yul\":42717:42718   */\n      dup1\n        /* \"#utility.yul\":42710:42722   */\n      revert\n        /* \"#utility.yul\":42662:42664   */\n    tag_1034:\n        /* \"#utility.yul\":42652:42730   */\n      pop\n      jump\t// out\n        /* \"#utility.yul\":42736:42858   */\n    tag_627:\n        /* \"#utility.yul\":42809:42833   */\n      tag_1036\n        /* \"#utility.yul\":42827:42832   */\n      dup2\n        /* \"#utility.yul\":42809:42833   */\n      tag_830\n      jump\t// in\n    tag_1036:\n        /* \"#utility.yul\":42802:42807   */\n      dup2\n        /* \"#utility.yul\":42799:42834   */\n      eq\n        /* \"#utility.yul\":42789:42791   */\n      tag_1037\n      jumpi\n        /* \"#utility.yul\":42848:42849   */\n      0x00\n        /* \"#utility.yul\":42845:42846   */\n      dup1\n        /* \"#utility.yul\":42838:42850   */\n      revert\n        /* \"#utility.yul\":42789:42791   */\n    tag_1037:\n        /* \"#utility.yul\":42779:42858   */\n      pop\n      jump\t// out\n\n    auxdata: 0xa2646970667358221220a7e1aaf638fd17c6f80c048fbd844fad11418f66e5f6efa951962d56311181ff64736f6c63430008060033\n}\n",
    "bytecode": {
      "linkReferences": {},
      "object": "60806040526000600960006101000a81548160ff021916908360048111156200002d576200002c6200006b565b5b02179055506000600960016101000a81548160ff021916908315150217905550600060235560006025553480156200006457600080fd5b506200009a565b7f4e487b7100000000000000000000000000000000000000000000000000000000600052602160045260246000fd5b613a8780620000aa6000396000f3fe6080604052600436106101cd5760003560e01c806384ac4446116100f7578063ae90b21311610095578063f1b9ee2411610064578063f1b9ee24146105d9578063f851a440146105f0578063fadeaa591461061b578063fbbf93a014610644576101cd565b8063ae90b2131461051d578063c040e6b814610548578063e28d490614610573578063e9d94c58146105b0576101cd565b806397c0bba1116100d157806397c0bba1146104875780639a730617146104b2578063a2c14ad3146104db578063aa8c217c146104f2576101cd565b806384ac44461461043b578063904c6094146104455780639503fe3d14610470576101cd565b8063410459ad1161016f5780635e383d211161013e5780635e383d21146103a5578063722713f7146103e2578063760a8c2a1461040d57806383197ef014610424576101cd565b8063410459ad146102e957806343885314146103125780634622ab031461033d578063516dde431461037a576101cd565b806321ce5afd116101ab57806321ce5afd1461023f57806325419c2414610268578063295b4e17146102935780633a40f3b2146102be576101cd565b80630b97bc86146101d2578063109e94cf146101fd57806312424e3f14610228575b600080fd5b3480156101de57600080fd5b506101e7610679565b6040516101f49190612fbc565b60405180910390f35b34801561020957600080fd5b5061021261067f565b60405161021f9190612cac565b60405180910390f35b34801561023457600080fd5b5061023d6106a5565b005b34801561024b57600080fd5b50610266600480360381019061026191906126a2565b610894565b005b34801561027457600080fd5b5061027d610a98565b60405161028a9190612fbc565b60405180910390f35b34801561029f57600080fd5b506102a8610a9e565b6040516102b59190612d79565b60405180910390f35b3480156102ca57600080fd5b506102d3610ab1565b6040516102e09190612d79565b60405180910390f35b3480156102f557600080fd5b50610310600480360381019061030b91906125fa565b610ac4565b005b34801561031e57600080fd5b50610327610b08565b6040516103349190612fbc565b60405180910390f35b34801561034957600080fd5b50610364600480360381019061035f9190612778565b610b0e565b6040516103719190612e26565b60405180910390f35b34801561038657600080fd5b5061038f610bb1565b60405161039c9190612fbc565b60405180910390f35b3480156103b157600080fd5b506103cc60048036038101906103c79190612778565b610bb7565b6040516103d99190612e0b565b60405180910390f35b3480156103ee57600080fd5b506103f7610bd2565b6040516104049190612fbc565b60405180910390f35b34801561041957600080fd5b50610422610bda565b005b34801561043057600080fd5b50610439610d20565b005b610443610e73565b005b34801561045157600080fd5b5061045a611022565b6040516104679190612fbc565b60405180910390f35b34801561047c57600080fd5b50610485611028565b005b34801561049357600080fd5b5061049c6111ff565b6040516104a99190612d79565b60405180910390f35b3480156104be57600080fd5b506104d960048036038101906104d49190612627565b611212565b005b3480156104e757600080fd5b506104f06112f0565b005b3480156104fe57600080fd5b50610507611586565b6040516105149190612fbc565b60405180910390f35b34801561052957600080fd5b5061053261158c565b60405161053f9190612cac565b60405180910390f35b34801561055457600080fd5b5061055d6115b2565b60405161056a9190612df0565b60405180910390f35b34801561057f57600080fd5b5061059a60048036038101906105959190612778565b6115c5565b6040516105a79190612e0b565b60405180910390f35b3480156105bc57600080fd5b506105d760048036038101906105d291906126a2565b6115e0565b005b3480156105e557600080fd5b506105ee611779565b005b3480156105fc57600080fd5b506106056118bf565b6040516106129190612c91565b60405180910390f35b34801561062757600080fd5b50610642600480360381019061063d91906126eb565b6118e3565b005b34801561065057600080fd5b50610659611c73565b6040516106709b9a99989796959493929190612cc7565b60405180910390f35b60035481565b600160009054906101000a900473ffffffffffffffffffffffffffffffffffffffff1681565b60017fdd970dd9b5bfe707922155b058a407655cb18288b807e2216442bca8ad83d6b5600960009054906101000a900460ff1660048111156106ea576106e9613503565b5b6040516106f79190612f20565b60405180910390a17fdd970dd9b5bfe707922155b058a407655cb18288b807e2216442bca8ad83d6b581600481111561073357610732613503565b5b6040516107409190612f4e565b60405180910390a180600481111561075b5761075a613503565b5b600960009054906101000a900460ff16600481111561077d5761077c613503565b5b146107bd576040517f08c379a00000000000000000000000000000000000000000000000000000000081526004016107b490612f9c565b60405180910390fd5b60008054906101000a900473ffffffffffffffffffffffffffffffffffffffff1673ffffffffffffffffffffffffffffffffffffffff163373ffffffffffffffffffffffffffffffffffffffff161461084b576040517f08c379a000000000000000000000000000000000000000000000000000000000815260040161084290612e76565b60405180910390fd5b6001600260146101000a81548160ff0219169083151502179055506003600960006101000a81548160ff0219169083600481111561088c5761088b613503565b5b021790555050565b60037fdd970dd9b5bfe707922155b058a407655cb18288b807e2216442bca8ad83d6b5600960009054906101000a900460ff1660048111156108d9576108d8613503565b5b6040516108e69190612f20565b60405180910390a17fdd970dd9b5bfe707922155b058a407655cb18288b807e2216442bca8ad83d6b581600481111561092257610921613503565b5b60405161092f9190612f4e565b60405180910390a180600481111561094a57610949613503565b5b600960009054906101000a900460ff16600481111561096c5761096b613503565b5b146109ac576040517f08c379a00000000000000000000000000000000000000000000000000000000081526004016109a390612f9c565b60405180910390fd5b6007544311156109c3576109be6112f0565b610a94565b60065443101580156109d757506007544311155b610a16576040517f08c379a0000000000000000000000000000000000000000000000000000000008152600401610a0d90612f7c565b60405180910390fd5b60005b602354811015610a7a57828181518110610a3657610a35613561565b5b6020026020010151602460008381526020019081526020016000206000828254610a609190613137565b925050819055508080610a729061345c565b915050610a19565b5060256000815480929190610a8e90613413565b91905055505b5050565b60065481565b600260159054906101000a900460ff1681565b600960019054906101000a900460ff1681565b80600260006101000a81548173ffffffffffffffffffffffffffffffffffffffff021916908373ffffffffffffffffffffffffffffffffffffffff16021790555050565b60075481565b600a8160088110610b1e57600080fd5b016000915090508054610b30906133b0565b80601f0160208091040260200160405190810160405280929190818152602001828054610b5c906133b0565b8015610ba95780601f10610b7e57610100808354040283529160200191610ba9565b820191906000526020600020905b815481529060010190602001808311610b8c57829003601f168201915b505050505081565b60045481565b60128160088110610bc757600080fd5b016000915090505481565b600047905090565b60027fdd970dd9b5bfe707922155b058a407655cb18288b807e2216442bca8ad83d6b5600960009054906101000a900460ff166004811115610c1f57610c1e613503565b5b604051610c2c9190612f20565b60405180910390a17fdd970dd9b5bfe707922155b058a407655cb18288b807e2216442bca8ad83d6b5816004811115610c6857610c67613503565b5b604051610c759190612f4e565b60405180910390a1806004811115610c9057610c8f613503565b5b600960009054906101000a900460ff166004811115610cb257610cb1613503565b5b14610cf2576040517f08c379a0000000000000000000000000000000000000000000000000000000008152600401610ce990612f9c565b60405180910390fd5b6003600960006101000a81548160ff02191690836004811115610d1857610d17613503565b5b021790555050565b60027fdd970dd9b5bfe707922155b058a407655cb18288b807e2216442bca8ad83d6b5600960009054906101000a900460ff166004811115610d6557610d64613503565b5b604051610d729190612f20565b60405180910390a17fdd970dd9b5bfe707922155b058a407655cb18288b807e2216442bca8ad83d6b5816004811115610dae57610dad613503565b5b604051610dbb9190612f4e565b60405180910390a1806004811115610dd657610dd5613503565b5b600960009054906101000a900460ff166004811115610df857610df7613503565b5b14610e38576040517f08c379a0000000000000000000000000000000000000000000000000000000008152600401610e2f90612f9c565b60405180910390fd5b600160009054906101000a900473ffffffffffffffffffffffffffffffffffffffff1673ffffffffffffffffffffffffffffffffffffffff16ff5b60037fdd970dd9b5bfe707922155b058a407655cb18288b807e2216442bca8ad83d6b5600960009054906101000a900460ff166004811115610eb857610eb7613503565b5b604051610ec59190612f20565b60405180910390a17fdd970dd9b5bfe707922155b058a407655cb18288b807e2216442bca8ad83d6b5816004811115610f0157610f00613503565b5b604051610f0e9190612f4e565b60405180910390a1806004811115610f2957610f28613503565b5b600960009054906101000a900460ff166004811115610f4b57610f4a613503565b5b14610f8b576040517f08c379a0000000000000000000000000000000000000000000000000000000008152600401610f8290612f9c565b60405180910390fd5b600754431115610fa257610f9d6112f0565b61101f565b6006544310158015610fb657506007544311155b610ff5576040517f08c379a0000000000000000000000000000000000000000000000000000000008152600401610fec90612f7c565b60405180910390fd5b600554341461100357600080fd5b6001600260156101000a81548160ff0219169083151502179055505b50565b60085481565b60007fdd970dd9b5bfe707922155b058a407655cb18288b807e2216442bca8ad83d6b5600960009054906101000a900460ff16600481111561106d5761106c613503565b5b60405161107a9190612f20565b60405180910390a17fdd970dd9b5bfe707922155b058a407655cb18288b807e2216442bca8ad83d6b58160048111156110b6576110b5613503565b5b6040516110c39190612f4e565b60405180910390a18060048111156110de576110dd613503565b5b600960009054906101000a900460ff166004811115611100576110ff613503565b5b14611140576040517f08c379a000000000000000000000000000000000000000000000000000000000815260040161113790612f9c565b60405180910390fd5b7fdd970dd9b5bfe707922155b058a407655cb18288b807e2216442bca8ad83d6b5600960009054906101000a900460ff16600481111561118357611182613503565b5b6040516111909190612ef2565b60405180910390a16001600960006101000a81548160ff021916908360048111156111be576111bd613503565b5b021790555060005b60088110156111fb576000602460008381526020019081526020016000208190555080806111f39061345c565b9150506111c6565b5050565b600260149054906101000a900460ff1681565b336000806101000a81548173ffffffffffffffffffffffffffffffffffffffff021916908373ffffffffffffffffffffffffffffffffffffffff16021790555084600160006101000a81548173ffffffffffffffffffffffffffffffffffffffff021916908373ffffffffffffffffffffffffffffffffffffffff16021790555061129c84611e57565b600481905550826003819055506112b283611e57565b6006819055506112cd601e846112c891906131cb565b611e57565b60078190555081600881905550806005819055506112e9611e79565b5050505050565b60037fdd970dd9b5bfe707922155b058a407655cb18288b807e2216442bca8ad83d6b5600960009054906101000a900460ff16600481111561133557611334613503565b5b6040516113429190612f20565b60405180910390a17fdd970dd9b5bfe707922155b058a407655cb18288b807e2216442bca8ad83d6b581600481111561137e5761137d613503565b5b60405161138b9190612f4e565b60405180910390a18060048111156113a6576113a5613503565b5b600960009054906101000a900460ff1660048111156113c8576113c7613503565b5b14611408576040517f08c379a00000000000000000000000000000000000000000000000000000000081526004016113ff90612f9c565b60405180910390fd5b60005b602354811015611501576000601a826008811061142b5761142a613561565b5b0154905060006012836008811061144557611444613561565b5b015490506000602554602460008681526020019081526020016000205461146c9190613221565b9050611479838284611f47565b6114eb57611485611ff3565b3373ffffffffffffffffffffffffffffffffffffffff167fa84226bf2d14bde3fac454f52eaeab63aaeb1934da88f9263dd4ff7dd12acf71600960019054906101000a900460ff166040516114da9190612d94565b60405180910390a250505050611583565b50505080806114f99061345c565b91505061140b565b506001600960016101000a81548160ff0219169083151502179055503373ffffffffffffffffffffffffffffffffffffffff167fa84226bf2d14bde3fac454f52eaeab63aaeb1934da88f9263dd4ff7dd12acf71600960019054906101000a900460ff166040516115729190612dc2565b60405180910390a2611582612083565b5b50565b60055481565b600260009054906101000a900473ffffffffffffffffffffffffffffffffffffffff1681565b600960009054906101000a900460ff1681565b601a81600881106115d557600080fd5b016000915090505481565b60037fdd970dd9b5bfe707922155b058a407655cb18288b807e2216442bca8ad83d6b5600960009054906101000a900460ff16600481111561162557611624613503565b5b6040516116329190612f20565b60405180910390a17fdd970dd9b5bfe707922155b058a407655cb18288b807e2216442bca8ad83d6b581600481111561166e5761166d613503565b5b60405161167b9190612f4e565b60405180910390a180600481111561169657611695613503565b5b600960009054906101000a900460ff1660048111156116b8576116b7613503565b5b146116f8576040517f08c379a00000000000000000000000000000000000000000000000000000000081526004016116ef90612f9c565b60405180910390fd5b60005b60235481101561175c5782818151811061171857611717613561565b5b60200260200101516024600083815260200190815260200160002060008282546117429190613137565b9250508190555080806117549061345c565b9150506116fb565b506025600081548092919061177090613413565b91905055505050565b60037fdd970dd9b5bfe707922155b058a407655cb18288b807e2216442bca8ad83d6b5600960009054906101000a900460ff1660048111156117be576117bd613503565b5b6040516117cb9190612f20565b60405180910390a17fdd970dd9b5bfe707922155b058a407655cb18288b807e2216442bca8ad83d6b581600481111561180757611806613503565b5b6040516118149190612f4e565b60405180910390a180600481111561182f5761182e613503565b5b600960009054906101000a900460ff16600481111561185157611850613503565b5b14611891576040517f08c379a000000000000000000000000000000000000000000000000000000000815260040161188890612f9c565b60405180910390fd5b6002600960006101000a81548160ff021916908360048111156118b7576118b6613503565b5b021790555050565b60008054906101000a900473ffffffffffffffffffffffffffffffffffffffff1681565b60007fdd970dd9b5bfe707922155b058a407655cb18288b807e2216442bca8ad83d6b5600960009054906101000a900460ff16600481111561192857611927613503565b5b6040516119359190612f20565b60405180910390a17fdd970dd9b5bfe707922155b058a407655cb18288b807e2216442bca8ad83d6b581600481111561197157611970613503565b5b60405161197e9190612f4e565b60405180910390a180600481111561199957611998613503565b5b600960009054906101000a900460ff1660048111156119bb576119ba613503565b5b146119fb576040517f08c379a00000000000000000000000000000000000000000000000000000000081526004016119f290612f9c565b60405180910390fd5b7fdd970dd9b5bfe707922155b058a407655cb18288b807e2216442bca8ad83d6b5600960009054906101000a900460ff166004811115611a3e57611a3d613503565b5b604051611a4b9190612ec4565b60405180910390a160005b6008811015611c6b576040518060400160405280600181526020017f300000000000000000000000000000000000000000000000000000000000000081525080519060200120858260088110611aaf57611aae613561565b5b6020020151805190602001201415611b7f577fdd970dd9b5bfe707922155b058a407655cb18288b807e2216442bca8ad83d6b5600960009054906101000a900460ff166004811115611b0457611b03613503565b5b604051611b119190612e96565b60405180910390a1611b21611028565b7fdd970dd9b5bfe707922155b058a407655cb18288b807e2216442bca8ad83d6b5600960009054906101000a900460ff166004811115611b6457611b63613503565b5b604051611b719190612e48565b60405180910390a150611c6d565b848160088110611b9257611b91613561565b5b6020020151600a8260088110611bab57611baa613561565b5b019080519060200190611bbf92919061227d565b50838160088110611bd357611bd2613561565b5b602002015160128260088110611bec57611beb613561565b5b01819055506022838260088110611c0657611c05613561565b5b6020020151604051611c189190612bfc565b908152602001604051809103902054601a8260088110611c3b57611c3a613561565b5b018190555060236000815480929190611c539061345c565b91905055508080611c639061345c565b915050611a56565b505b50505050565b600080600080600080600080611c87612303565b611c8f61232b565b611c9761232b565b600160009054906101000a900473ffffffffffffffffffffffffffffffffffffffff16600260009054906101000a900473ffffffffffffffffffffffffffffffffffffffff16600354600454600554600654600754600854600a6012601a82600880602002604051908101604052809291906000905b82821015611db0578382018054611d23906133b0565b80601f0160208091040260200160405190810160405280929190818152602001828054611d4f906133b0565b8015611d9c5780601f10611d7157610100808354040283529160200191611d9c565b820191906000526020600020905b815481529060010190602001808311611d7f57829003601f168201915b505050505081526020019060010190611d0d565b50505050925081600880602002604051908101604052809291908260088015611dee576020028201915b815481526020019060010190808311611dda575b5050505050915080600880602002604051908101604052809291908260088015611e2d576020028201915b815481526020019060010190808311611e19575b505050505090509a509a509a509a509a509a509a509a509a509a509a50909192939495969798999a565b600061190082611e67919061328b565b43611e7291906131cb565b9050919050565b60016022604051611e8990612c7c565b90815260200160405180910390208190555060026022604051611eab90612c28565b90815260200160405180910390208190555060036022604051611ecd90612c13565b90815260200160405180910390208190555060046022604051611eef90612c3d565b90815260200160405180910390208190555060056022604051611f1190612c52565b90815260200160405180910390208190555060066022604051611f3390612c67565b908152602001604051809103902081905550565b60007fffffffffffffffffffffffffffffffffffffffffffffffffffffffffffffffff8414611fe75760018085161415611f9857611f86848484612113565b611f935760009050611fec565b611fe6565b60048085161415611fc057611fae848484612153565b611fbb5760009050611fec565b611fe5565b60028085161415611fe457611fd6848484612193565b611fe35760009050611fec565b5b5b5b5b600190505b9392505050565b6000600960016101000a81548160ff021916908315150217905550600160009054906101000a900473ffffffffffffffffffffffffffffffffffffffff1673ffffffffffffffffffffffffffffffffffffffff166108fc6005549081150290604051600060405180830381858888f19350505050158015612078573d6000803e3d6000fd5b506120816121be565b565b6001600960016101000a81548160ff021916908315150217905550600260009054906101000a900473ffffffffffffffffffffffffffffffffffffffff1673ffffffffffffffffffffffffffffffffffffffff166108fc6005549081150290604051600060405180830381858888f19350505050158015612108573d6000803e3d6000fd5b506121116121be565b565b6000806000905060018086161415612148578284131561213257600190505b61213d858585612193565b1561214757600190505b5b809150509392505050565b6000806000905060048086161415612188578284121561217257600190505b61217d858585612193565b1561218757600190505b5b809150509392505050565b6000600280851614156121b257818314156121b157600190506121b7565b5b600090505b9392505050565b60045443106121f3576004600960006101000a81548160ff021916908360048111156121ed576121ec613503565b5b02179055505b60005b60235481101561222c576000602460008381526020019081526020016000208190555080806122249061345c565b9150506121f6565b5060006025819055506000600260156101000a81548160ff021916908315150217905550600754600681905550611900601e612268919061328b565b60075461227591906131cb565b600781905550565b828054612289906133b0565b90600052602060002090601f0160209004810192826122ab57600085556122f2565b82601f106122c457805160ff19168380011785556122f2565b828001600101855582156122f2579182015b828111156122f15782518255916020019190600101906122d6565b5b5090506122ff919061234e565b5090565b6040518061010001604052806008905b60608152602001906001900390816123135790505090565b604051806101000160405280600890602082028036833780820191505090505090565b5b8082111561236757600081600090555060010161234f565b5090565b600061237e61237984612ffc565b612fd7565b90508082856020860282011115612398576123976135c4565b5b60005b858110156123c857816123ae88826125a2565b84526020840193506020830192505060018101905061239b565b5050509392505050565b60006123e56123e084613022565b612fd7565b90508083825260208201905082856020860282011115612408576124076135c4565b5b60005b85811015612438578161241e88826125a2565b84526020840193506020830192505060018101905061240b565b5050509392505050565b60006124556124508461304e565b612fd7565b9050808285602086028201111561246f5761246e6135c4565b5b60005b858110156124bd57813567ffffffffffffffff811115612495576124946135bf565b5b8086016124a289826125b7565b85526020850194506020840193505050600181019050612472565b5050509392505050565b60006124da6124d584613074565b612fd7565b9050828152602081018484840111156124f6576124f56135c9565b5b61250184828561336e565b509392505050565b60008135905061251881613a0c565b92915050565b600082601f830112612533576125326135bf565b5b600861254084828561236b565b91505092915050565b600082601f83011261255e5761255d6135bf565b5b813561256e8482602086016123d2565b91505092915050565b600082601f83011261258c5761258b6135bf565b5b6008612599848285612442565b91505092915050565b6000813590506125b181613a23565b92915050565b600082601f8301126125cc576125cb6135bf565b5b81356125dc8482602086016124c7565b91505092915050565b6000813590506125f481613a3a565b92915050565b6000602082840312156126105761260f6135d3565b5b600061261e84828501612509565b91505092915050565b600080600080600060a08688031215612643576126426135d3565b5b600061265188828901612509565b9550506020612662888289016125e5565b9450506040612673888289016125e5565b9350506060612684888289016125e5565b9250506080612695888289016125e5565b9150509295509295909350565b6000602082840312156126b8576126b76135d3565b5b600082013567ffffffffffffffff8111156126d6576126d56135ce565b5b6126e284828501612549565b91505092915050565b60008060006101408486031215612705576127046135d3565b5b600084013567ffffffffffffffff811115612723576127226135ce565b5b61272f86828701612577565b93505060206127408682870161251e565b92505061012084013567ffffffffffffffff811115612762576127616135ce565b5b61276e86828701612577565b9150509250925092565b60006020828403121561278e5761278d6135d3565b5b600061279c848285016125e5565b91505092915050565b60006127b183836128d9565b60208301905092915050565b60006127c983836128f7565b905092915050565b6127da816132f7565b82525050565b6127e9816132e5565b82525050565b6127f8816130b9565b61280281846130f4565b925061280d826130a5565b8060005b8381101561283e57815161282587826127a5565b9650612830836130da565b925050600181019050612811565b505050505050565b6000612851826130c4565b61285b81856130ff565b93508360208202850161286d856130af565b8060005b858110156128a9578484038952815161288a85826127bd565b9450612895836130e7565b925060208a01995050600181019050612871565b50829750879550505050505092915050565b6128c481613309565b82525050565b6128d38161335c565b82525050565b6128e281613328565b82525050565b6128f181613328565b82525050565b6000612902826130cf565b61290c818561310a565b935061291c81856020860161337d565b612925816135d8565b840191505092915050565b600061293b826130cf565b612945818561311b565b935061295581856020860161337d565b61295e816135d8565b840191505092915050565b6000612974826130cf565b61297e818561312c565b935061298e81856020860161337d565b80840191505092915050565b60006129a760028361312c565b91506129b2826135e9565b600282019050919050565b60006129ca60438361311b565b91506129d582613612565b606082019050919050565b60006129ed60368361311b565b91506129f882613687565b604082019050919050565b6000612a10602f8361311b565b9150612a1b826136d6565b604082019050919050565b6000612a3360128361311b565b9150612a3e82613725565b602082019050919050565b6000612a5660108361311b565b9150612a618261374e565b602082019050919050565b6000612a7960228361311b565b9150612a8482613777565b604082019050919050565b6000612a9c60028361312c565b9150612aa7826137c6565b600282019050919050565b6000612abf60268361311b565b9150612aca826137ef565b604082019050919050565b6000612ae260018361312c565b9150612aed8261383e565b600182019050919050565b6000612b0560028361312c565b9150612b1082613867565b600282019050919050565b6000612b2860218361311b565b9150612b3382613890565b604082019050919050565b6000612b4b602e8361311b565b9150612b56826138df565b604082019050919050565b6000612b6e60028361312c565b9150612b798261392e565b600282019050919050565b6000612b9160018361312c565b9150612b9c82613957565b600182019050919050565b6000612bb4601d8361311b565b9150612bbf82613980565b602082019050919050565b6000612bd760258361311b565b9150612be2826139a9565b604082019050919050565b612bf681613352565b82525050565b6000612c088284612969565b915081905092915050565b6000612c1e8261299a565b9150819050919050565b6000612c3382612a8f565b9150819050919050565b6000612c4882612ad5565b9150819050919050565b6000612c5d82612af8565b9150819050919050565b6000612c7282612b61565b9150819050919050565b6000612c8782612b84565b9150819050919050565b6000602082019050612ca660008301846127e0565b92915050565b6000602082019050612cc160008301846127d1565b92915050565b600061032082019050612cdd600083018e6127e0565b612cea602083018d6127e0565b612cf7604083018c612bed565b612d04606083018b612bed565b612d11608083018a612bed565b612d1e60a0830189612bed565b612d2b60c0830188612bed565b612d3860e0830187612bed565b818103610100830152612d4b8186612846565b9050612d5b6101208301856127ef565b612d696102208301846127ef565b9c9b505050505050505050505050565b6000602082019050612d8e60008301846128bb565b92915050565b6000604082019050612da960008301846128bb565b8181036020830152612dba81612a26565b905092915050565b6000604082019050612dd760008301846128bb565b8181036020830152612de881612a49565b905092915050565b6000602082019050612e0560008301846128ca565b92915050565b6000602082019050612e2060008301846128e8565b92915050565b60006020820190508181036000830152612e408184612930565b905092915050565b60006040820190508181036000830152612e61816129bd565b9050612e706020830184612bed565b92915050565b60006020820190508181036000830152612e8f816129e0565b9050919050565b60006040820190508181036000830152612eaf81612a03565b9050612ebe6020830184612bed565b92915050565b60006040820190508181036000830152612edd81612a6c565b9050612eec6020830184612bed565b92915050565b60006040820190508181036000830152612f0b81612ab2565b9050612f1a6020830184612bed565b92915050565b60006040820190508181036000830152612f3981612b1b565b9050612f486020830184612bed565b92915050565b60006040820190508181036000830152612f6781612b3e565b9050612f766020830184612bed565b92915050565b60006020820190508181036000830152612f9581612ba7565b9050919050565b60006020820190508181036000830152612fb581612bca565b9050919050565b6000602082019050612fd16000830184612bed565b92915050565b6000612fe1612ff2565b9050612fed82826133e2565b919050565b6000604051905090565b600067ffffffffffffffff82111561301757613016613590565b5b602082029050919050565b600067ffffffffffffffff82111561303d5761303c613590565b5b602082029050602081019050919050565b600067ffffffffffffffff82111561306957613068613590565b5b602082029050919050565b600067ffffffffffffffff82111561308f5761308e613590565b5b613098826135d8565b9050602081019050919050565b6000819050919050565b6000819050919050565b600060089050919050565b600060089050919050565b600081519050919050565b6000602082019050919050565b6000602082019050919050565b600081905092915050565b600081905092915050565b600082825260208201905092915050565b600082825260208201905092915050565b600081905092915050565b600061314282613328565b915061314d83613328565b9250817f7fffffffffffffffffffffffffffffffffffffffffffffffffffffffffffffff03831360008312151615613188576131876134a5565b5b817f80000000000000000000000000000000000000000000000000000000000000000383126000831216156131c0576131bf6134a5565b5b828201905092915050565b60006131d682613352565b91506131e183613352565b9250827fffffffffffffffffffffffffffffffffffffffffffffffffffffffffffffffff03821115613216576132156134a5565b5b828201905092915050565b600061322c82613328565b915061323783613328565b925082613247576132466134d4565b5b600160000383147f8000000000000000000000000000000000000000000000000000000000000000831416156132805761327f6134a5565b5b828205905092915050565b600061329682613352565b91506132a183613352565b9250817fffffffffffffffffffffffffffffffffffffffffffffffffffffffffffffffff04831182151516156132da576132d96134a5565b5b828202905092915050565b60006132f082613332565b9050919050565b600061330282613332565b9050919050565b60008115159050919050565b6000819050613323826139f8565b919050565b6000819050919050565b600073ffffffffffffffffffffffffffffffffffffffff82169050919050565b6000819050919050565b600061336782613315565b9050919050565b82818337600083830152505050565b60005b8381101561339b578082015181840152602081019050613380565b838111156133aa576000848401525b50505050565b600060028204905060018216806133c857607f821691505b602082108114156133dc576133db613532565b5b50919050565b6133eb826135d8565b810181811067ffffffffffffffff8211171561340a57613409613590565b5b80604052505050565b600061341e82613328565b91507f7fffffffffffffffffffffffffffffffffffffffffffffffffffffffffffffff821415613451576134506134a5565b5b600182019050919050565b600061346782613352565b91507fffffffffffffffffffffffffffffffffffffffffffffffffffffffffffffffff82141561349a576134996134a5565b5b600182019050919050565b7f4e487b7100000000000000000000000000000000000000000000000000000000600052601160045260246000fd5b7f4e487b7100000000000000000000000000000000000000000000000000000000600052601260045260246000fd5b7f4e487b7100000000000000000000000000000000000000000000000000000000600052602160045260246000fd5b7f4e487b7100000000000000000000000000000000000000000000000000000000600052602260045260246000fd5b7f4e487b7100000000000000000000000000000000000000000000000000000000600052603260045260246000fd5b7f4e487b7100000000000000000000000000000000000000000000000000000000600052604160045260246000fd5b600080fd5b600080fd5b600080fd5b600080fd5b600080fd5b6000601f19601f8301169050919050565b7f3e3d000000000000000000000000000000000000000000000000000000000000600082015250565b7f696e7369646520736574436f6e64732069662073746174656d656e742c20616660008201527f74657220656e64496e697453746167652c2063757272656e742073746167652060208201527f69733a0000000000000000000000000000000000000000000000000000000000604082015250565b7f43616e6e6f742063616c6c20746869732066756e6374696f6e2064697265637460008201527f6c792c207573652056656e646f72466163746f72792e00000000000000000000602082015250565b7f696e7369646520736574436f6e64732069662073746174656d656e742c20637560008201527f7272656e742073746167652069733a0000000000000000000000000000000000602082015250565b7f526566756e64696e67207061796d656e742e0000000000000000000000000000600082015250565b7f53656e64696e67207061796d656e742e00000000000000000000000000000000600082015250565b7f696e7369646520736574436f6e64732c2063757272656e74207374616765206960008201527f733a000000000000000000000000000000000000000000000000000000000000602082015250565b7f3d3d000000000000000000000000000000000000000000000000000000000000600082015250565b7f696e7369646520656e64496e697453746167652c2063757272656e742073746160008201527f67652069733a0000000000000000000000000000000000000000000000000000602082015250565b7f3c00000000000000000000000000000000000000000000000000000000000000600082015250565b7f213d000000000000000000000000000000000000000000000000000000000000600082015250565b7f696e7369646520617453746167652c2063757272656e7420737461676520697360008201527f3a00000000000000000000000000000000000000000000000000000000000000602082015250565b7f7374696c6c20696e7369646520617453746167652c20747279696e6720746f2060008201527f636f6d7061726520697420746f3a000000000000000000000000000000000000602082015250565b7f3c3d000000000000000000000000000000000000000000000000000000000000600082015250565b7f3e00000000000000000000000000000000000000000000000000000000000000600082015250565b7f4e6f742077697468696e207468652062696c6c696e6720706572696f64000000600082015250565b7f436f6e7472616374206973206e6f7420696e207468652072657175697265642060008201527f7374617465000000000000000000000000000000000000000000000000000000602082015250565b60058110613a0957613a08613503565b5b50565b613a15816132e5565b8114613a2057600080fd5b50565b613a2c81613328565b8114613a3757600080fd5b50565b613a4381613352565b8114613a4e57600080fd5b5056fea2646970667358221220a7e1aaf638fd17c6f80c048fbd844fad11418f66e5f6efa951962d56311181ff64736f6c63430008060033",
      "opcodes": "PUSH1 0x80 PUSH1 0x40 MSTORE PUSH1 0x0 PUSH1 0x9 PUSH1 0x0 PUSH2 0x100 EXP DUP2 SLOAD DUP2 PUSH1 0xFF MUL NOT AND SWAP1 DUP4 PUSH1 0x4 DUP2 GT ISZERO PUSH3 0x2D JUMPI PUSH3 0x2C PUSH3 0x6B JUMP JUMPDEST JUMPDEST MUL OR SWAP1 SSTORE POP PUSH1 0x0 PUSH1 0x9 PUSH1 0x1 PUSH2 0x100 EXP DUP2 SLOAD DUP2 PUSH1 0xFF MUL NOT AND SWAP1 DUP4 ISZERO ISZERO MUL OR SWAP1 SSTORE POP PUSH1 0x0 PUSH1 0x23 SSTORE PUSH1 0x0 PUSH1 0x25 SSTORE CALLVALUE DUP1 ISZERO PUSH3 0x64 JUMPI PUSH1 0x0 DUP1 REVERT JUMPDEST POP PUSH3 0x9A JUMP JUMPDEST PUSH32 0x4E487B7100000000000000000000000000000000000000000000000000000000 PUSH1 0x0 MSTORE PUSH1 0x21 PUSH1 0x4 MSTORE PUSH1 0x24 PUSH1 0x0 REVERT JUMPDEST PUSH2 0x3A87 DUP1 PUSH3 0xAA PUSH1 0x0 CODECOPY PUSH1 0x0 RETURN INVALID PUSH1 0x80 PUSH1 0x40 MSTORE PUSH1 0x4 CALLDATASIZE LT PUSH2 0x1CD JUMPI PUSH1 0x0 CALLDATALOAD PUSH1 0xE0 SHR DUP1 PUSH4 0x84AC4446 GT PUSH2 0xF7 JUMPI DUP1 PUSH4 0xAE90B213 GT PUSH2 0x95 JUMPI DUP1 PUSH4 0xF1B9EE24 GT PUSH2 0x64 JUMPI DUP1 PUSH4 0xF1B9EE24 EQ PUSH2 0x5D9 JUMPI DUP1 PUSH4 0xF851A440 EQ PUSH2 0x5F0 JUMPI DUP1 PUSH4 0xFADEAA59 EQ PUSH2 0x61B JUMPI DUP1 PUSH4 0xFBBF93A0 EQ PUSH2 0x644 JUMPI PUSH2 0x1CD JUMP JUMPDEST DUP1 PUSH4 0xAE90B213 EQ PUSH2 0x51D JUMPI DUP1 PUSH4 0xC040E6B8 EQ PUSH2 0x548 JUMPI DUP1 PUSH4 0xE28D4906 EQ PUSH2 0x573 JUMPI DUP1 PUSH4 0xE9D94C58 EQ PUSH2 0x5B0 JUMPI PUSH2 0x1CD JUMP JUMPDEST DUP1 PUSH4 0x97C0BBA1 GT PUSH2 0xD1 JUMPI DUP1 PUSH4 0x97C0BBA1 EQ PUSH2 0x487 JUMPI DUP1 PUSH4 0x9A730617 EQ PUSH2 0x4B2 JUMPI DUP1 PUSH4 0xA2C14AD3 EQ PUSH2 0x4DB JUMPI DUP1 PUSH4 0xAA8C217C EQ PUSH2 0x4F2 JUMPI PUSH2 0x1CD JUMP JUMPDEST DUP1 PUSH4 0x84AC4446 EQ PUSH2 0x43B JUMPI DUP1 PUSH4 0x904C6094 EQ PUSH2 0x445 JUMPI DUP1 PUSH4 0x9503FE3D EQ PUSH2 0x470 JUMPI PUSH2 0x1CD JUMP JUMPDEST DUP1 PUSH4 0x410459AD GT PUSH2 0x16F JUMPI DUP1 PUSH4 0x5E383D21 GT PUSH2 0x13E JUMPI DUP1 PUSH4 0x5E383D21 EQ PUSH2 0x3A5 JUMPI DUP1 PUSH4 0x722713F7 EQ PUSH2 0x3E2 JUMPI DUP1 PUSH4 0x760A8C2A EQ PUSH2 0x40D JUMPI DUP1 PUSH4 0x83197EF0 EQ PUSH2 0x424 JUMPI PUSH2 0x1CD JUMP JUMPDEST DUP1 PUSH4 0x410459AD EQ PUSH2 0x2E9 JUMPI DUP1 PUSH4 0x43885314 EQ PUSH2 0x312 JUMPI DUP1 PUSH4 0x4622AB03 EQ PUSH2 0x33D JUMPI DUP1 PUSH4 0x516DDE43 EQ PUSH2 0x37A JUMPI PUSH2 0x1CD JUMP JUMPDEST DUP1 PUSH4 0x21CE5AFD GT PUSH2 0x1AB JUMPI DUP1 PUSH4 0x21CE5AFD EQ PUSH2 0x23F JUMPI DUP1 PUSH4 0x25419C24 EQ PUSH2 0x268 JUMPI DUP1 PUSH4 0x295B4E17 EQ PUSH2 0x293 JUMPI DUP1 PUSH4 0x3A40F3B2 EQ PUSH2 0x2BE JUMPI PUSH2 0x1CD JUMP JUMPDEST DUP1 PUSH4 0xB97BC86 EQ PUSH2 0x1D2 JUMPI DUP1 PUSH4 0x109E94CF EQ PUSH2 0x1FD JUMPI DUP1 PUSH4 0x12424E3F EQ PUSH2 0x228 JUMPI JUMPDEST PUSH1 0x0 DUP1 REVERT JUMPDEST CALLVALUE DUP1 ISZERO PUSH2 0x1DE JUMPI PUSH1 0x0 DUP1 REVERT JUMPDEST POP PUSH2 0x1E7 PUSH2 0x679 JUMP JUMPDEST PUSH1 0x40 MLOAD PUSH2 0x1F4 SWAP2 SWAP1 PUSH2 0x2FBC JUMP JUMPDEST PUSH1 0x40 MLOAD DUP1 SWAP2 SUB SWAP1 RETURN JUMPDEST CALLVALUE DUP1 ISZERO PUSH2 0x209 JUMPI PUSH1 0x0 DUP1 REVERT JUMPDEST POP PUSH2 0x212 PUSH2 0x67F JUMP JUMPDEST PUSH1 0x40 MLOAD PUSH2 0x21F SWAP2 SWAP1 PUSH2 0x2CAC JUMP JUMPDEST PUSH1 0x40 MLOAD DUP1 SWAP2 SUB SWAP1 RETURN JUMPDEST CALLVALUE DUP1 ISZERO PUSH2 0x234 JUMPI PUSH1 0x0 DUP1 REVERT JUMPDEST POP PUSH2 0x23D PUSH2 0x6A5 JUMP JUMPDEST STOP JUMPDEST CALLVALUE DUP1 ISZERO PUSH2 0x24B JUMPI PUSH1 0x0 DUP1 REVERT JUMPDEST POP PUSH2 0x266 PUSH1 0x4 DUP1 CALLDATASIZE SUB DUP2 ADD SWAP1 PUSH2 0x261 SWAP2 SWAP1 PUSH2 0x26A2 JUMP JUMPDEST PUSH2 0x894 JUMP JUMPDEST STOP JUMPDEST CALLVALUE DUP1 ISZERO PUSH2 0x274 JUMPI PUSH1 0x0 DUP1 REVERT JUMPDEST POP PUSH2 0x27D PUSH2 0xA98 JUMP JUMPDEST PUSH1 0x40 MLOAD PUSH2 0x28A SWAP2 SWAP1 PUSH2 0x2FBC JUMP JUMPDEST PUSH1 0x40 MLOAD DUP1 SWAP2 SUB SWAP1 RETURN JUMPDEST CALLVALUE DUP1 ISZERO PUSH2 0x29F JUMPI PUSH1 0x0 DUP1 REVERT JUMPDEST POP PUSH2 0x2A8 PUSH2 0xA9E JUMP JUMPDEST PUSH1 0x40 MLOAD PUSH2 0x2B5 SWAP2 SWAP1 PUSH2 0x2D79 JUMP JUMPDEST PUSH1 0x40 MLOAD DUP1 SWAP2 SUB SWAP1 RETURN JUMPDEST CALLVALUE DUP1 ISZERO PUSH2 0x2CA JUMPI PUSH1 0x0 DUP1 REVERT JUMPDEST POP PUSH2 0x2D3 PUSH2 0xAB1 JUMP JUMPDEST PUSH1 0x40 MLOAD PUSH2 0x2E0 SWAP2 SWAP1 PUSH2 0x2D79 JUMP JUMPDEST PUSH1 0x40 MLOAD DUP1 SWAP2 SUB SWAP1 RETURN JUMPDEST CALLVALUE DUP1 ISZERO PUSH2 0x2F5 JUMPI PUSH1 0x0 DUP1 REVERT JUMPDEST POP PUSH2 0x310 PUSH1 0x4 DUP1 CALLDATASIZE SUB DUP2 ADD SWAP1 PUSH2 0x30B SWAP2 SWAP1 PUSH2 0x25FA JUMP JUMPDEST PUSH2 0xAC4 JUMP JUMPDEST STOP JUMPDEST CALLVALUE DUP1 ISZERO PUSH2 0x31E JUMPI PUSH1 0x0 DUP1 REVERT JUMPDEST POP PUSH2 0x327 PUSH2 0xB08 JUMP JUMPDEST PUSH1 0x40 MLOAD PUSH2 0x334 SWAP2 SWAP1 PUSH2 0x2FBC JUMP JUMPDEST PUSH1 0x40 MLOAD DUP1 SWAP2 SUB SWAP1 RETURN JUMPDEST CALLVALUE DUP1 ISZERO PUSH2 0x349 JUMPI PUSH1 0x0 DUP1 REVERT JUMPDEST POP PUSH2 0x364 PUSH1 0x4 DUP1 CALLDATASIZE SUB DUP2 ADD SWAP1 PUSH2 0x35F SWAP2 SWAP1 PUSH2 0x2778 JUMP JUMPDEST PUSH2 0xB0E JUMP JUMPDEST PUSH1 0x40 MLOAD PUSH2 0x371 SWAP2 SWAP1 PUSH2 0x2E26 JUMP JUMPDEST PUSH1 0x40 MLOAD DUP1 SWAP2 SUB SWAP1 RETURN JUMPDEST CALLVALUE DUP1 ISZERO PUSH2 0x386 JUMPI PUSH1 0x0 DUP1 REVERT JUMPDEST POP PUSH2 0x38F PUSH2 0xBB1 JUMP JUMPDEST PUSH1 0x40 MLOAD PUSH2 0x39C SWAP2 SWAP1 PUSH2 0x2FBC JUMP JUMPDEST PUSH1 0x40 MLOAD DUP1 SWAP2 SUB SWAP1 RETURN JUMPDEST CALLVALUE DUP1 ISZERO PUSH2 0x3B1 JUMPI PUSH1 0x0 DUP1 REVERT JUMPDEST POP PUSH2 0x3CC PUSH1 0x4 DUP1 CALLDATASIZE SUB DUP2 ADD SWAP1 PUSH2 0x3C7 SWAP2 SWAP1 PUSH2 0x2778 JUMP JUMPDEST PUSH2 0xBB7 JUMP JUMPDEST PUSH1 0x40 MLOAD PUSH2 0x3D9 SWAP2 SWAP1 PUSH2 0x2E0B JUMP JUMPDEST PUSH1 0x40 MLOAD DUP1 SWAP2 SUB SWAP1 RETURN JUMPDEST CALLVALUE DUP1 ISZERO PUSH2 0x3EE JUMPI PUSH1 0x0 DUP1 REVERT JUMPDEST POP PUSH2 0x3F7 PUSH2 0xBD2 JUMP JUMPDEST PUSH1 0x40 MLOAD PUSH2 0x404 SWAP2 SWAP1 PUSH2 0x2FBC JUMP JUMPDEST PUSH1 0x40 MLOAD DUP1 SWAP2 SUB SWAP1 RETURN JUMPDEST CALLVALUE DUP1 ISZERO PUSH2 0x419 JUMPI PUSH1 0x0 DUP1 REVERT JUMPDEST POP PUSH2 0x422 PUSH2 0xBDA JUMP JUMPDEST STOP JUMPDEST CALLVALUE DUP1 ISZERO PUSH2 0x430 JUMPI PUSH1 0x0 DUP1 REVERT JUMPDEST POP PUSH2 0x439 PUSH2 0xD20 JUMP JUMPDEST STOP JUMPDEST PUSH2 0x443 PUSH2 0xE73 JUMP JUMPDEST STOP JUMPDEST CALLVALUE DUP1 ISZERO PUSH2 0x451 JUMPI PUSH1 0x0 DUP1 REVERT JUMPDEST POP PUSH2 0x45A PUSH2 0x1022 JUMP JUMPDEST PUSH1 0x40 MLOAD PUSH2 0x467 SWAP2 SWAP1 PUSH2 0x2FBC JUMP JUMPDEST PUSH1 0x40 MLOAD DUP1 SWAP2 SUB SWAP1 RETURN JUMPDEST CALLVALUE DUP1 ISZERO PUSH2 0x47C JUMPI PUSH1 0x0 DUP1 REVERT JUMPDEST POP PUSH2 0x485 PUSH2 0x1028 JUMP JUMPDEST STOP JUMPDEST CALLVALUE DUP1 ISZERO PUSH2 0x493 JUMPI PUSH1 0x0 DUP1 REVERT JUMPDEST POP PUSH2 0x49C PUSH2 0x11FF JUMP JUMPDEST PUSH1 0x40 MLOAD PUSH2 0x4A9 SWAP2 SWAP1 PUSH2 0x2D79 JUMP JUMPDEST PUSH1 0x40 MLOAD DUP1 SWAP2 SUB SWAP1 RETURN JUMPDEST CALLVALUE DUP1 ISZERO PUSH2 0x4BE JUMPI PUSH1 0x0 DUP1 REVERT JUMPDEST POP PUSH2 0x4D9 PUSH1 0x4 DUP1 CALLDATASIZE SUB DUP2 ADD SWAP1 PUSH2 0x4D4 SWAP2 SWAP1 PUSH2 0x2627 JUMP JUMPDEST PUSH2 0x1212 JUMP JUMPDEST STOP JUMPDEST CALLVALUE DUP1 ISZERO PUSH2 0x4E7 JUMPI PUSH1 0x0 DUP1 REVERT JUMPDEST POP PUSH2 0x4F0 PUSH2 0x12F0 JUMP JUMPDEST STOP JUMPDEST CALLVALUE DUP1 ISZERO PUSH2 0x4FE JUMPI PUSH1 0x0 DUP1 REVERT JUMPDEST POP PUSH2 0x507 PUSH2 0x1586 JUMP JUMPDEST PUSH1 0x40 MLOAD PUSH2 0x514 SWAP2 SWAP1 PUSH2 0x2FBC JUMP JUMPDEST PUSH1 0x40 MLOAD DUP1 SWAP2 SUB SWAP1 RETURN JUMPDEST CALLVALUE DUP1 ISZERO PUSH2 0x529 JUMPI PUSH1 0x0 DUP1 REVERT JUMPDEST POP PUSH2 0x532 PUSH2 0x158C JUMP JUMPDEST PUSH1 0x40 MLOAD PUSH2 0x53F SWAP2 SWAP1 PUSH2 0x2CAC JUMP JUMPDEST PUSH1 0x40 MLOAD DUP1 SWAP2 SUB SWAP1 RETURN JUMPDEST CALLVALUE DUP1 ISZERO PUSH2 0x554 JUMPI PUSH1 0x0 DUP1 REVERT JUMPDEST POP PUSH2 0x55D PUSH2 0x15B2 JUMP JUMPDEST PUSH1 0x40 MLOAD PUSH2 0x56A SWAP2 SWAP1 PUSH2 0x2DF0 JUMP JUMPDEST PUSH1 0x40 MLOAD DUP1 SWAP2 SUB SWAP1 RETURN JUMPDEST CALLVALUE DUP1 ISZERO PUSH2 0x57F JUMPI PUSH1 0x0 DUP1 REVERT JUMPDEST POP PUSH2 0x59A PUSH1 0x4 DUP1 CALLDATASIZE SUB DUP2 ADD SWAP1 PUSH2 0x595 SWAP2 SWAP1 PUSH2 0x2778 JUMP JUMPDEST PUSH2 0x15C5 JUMP JUMPDEST PUSH1 0x40 MLOAD PUSH2 0x5A7 SWAP2 SWAP1 PUSH2 0x2E0B JUMP JUMPDEST PUSH1 0x40 MLOAD DUP1 SWAP2 SUB SWAP1 RETURN JUMPDEST CALLVALUE DUP1 ISZERO PUSH2 0x5BC JUMPI PUSH1 0x0 DUP1 REVERT JUMPDEST POP PUSH2 0x5D7 PUSH1 0x4 DUP1 CALLDATASIZE SUB DUP2 ADD SWAP1 PUSH2 0x5D2 SWAP2 SWAP1 PUSH2 0x26A2 JUMP JUMPDEST PUSH2 0x15E0 JUMP JUMPDEST STOP JUMPDEST CALLVALUE DUP1 ISZERO PUSH2 0x5E5 JUMPI PUSH1 0x0 DUP1 REVERT JUMPDEST POP PUSH2 0x5EE PUSH2 0x1779 JUMP JUMPDEST STOP JUMPDEST CALLVALUE DUP1 ISZERO PUSH2 0x5FC JUMPI PUSH1 0x0 DUP1 REVERT JUMPDEST POP PUSH2 0x605 PUSH2 0x18BF JUMP JUMPDEST PUSH1 0x40 MLOAD PUSH2 0x612 SWAP2 SWAP1 PUSH2 0x2C91 JUMP JUMPDEST PUSH1 0x40 MLOAD DUP1 SWAP2 SUB SWAP1 RETURN JUMPDEST CALLVALUE DUP1 ISZERO PUSH2 0x627 JUMPI PUSH1 0x0 DUP1 REVERT JUMPDEST POP PUSH2 0x642 PUSH1 0x4 DUP1 CALLDATASIZE SUB DUP2 ADD SWAP1 PUSH2 0x63D SWAP2 SWAP1 PUSH2 0x26EB JUMP JUMPDEST PUSH2 0x18E3 JUMP JUMPDEST STOP JUMPDEST CALLVALUE DUP1 ISZERO PUSH2 0x650 JUMPI PUSH1 0x0 DUP1 REVERT JUMPDEST POP PUSH2 0x659 PUSH2 0x1C73 JUMP JUMPDEST PUSH1 0x40 MLOAD PUSH2 0x670 SWAP12 SWAP11 SWAP10 SWAP9 SWAP8 SWAP7 SWAP6 SWAP5 SWAP4 SWAP3 SWAP2 SWAP1 PUSH2 0x2CC7 JUMP JUMPDEST PUSH1 0x40 MLOAD DUP1 SWAP2 SUB SWAP1 RETURN JUMPDEST PUSH1 0x3 SLOAD DUP2 JUMP JUMPDEST PUSH1 0x1 PUSH1 0x0 SWAP1 SLOAD SWAP1 PUSH2 0x100 EXP SWAP1 DIV PUSH20 0xFFFFFFFFFFFFFFFFFFFFFFFFFFFFFFFFFFFFFFFF AND DUP2 JUMP JUMPDEST PUSH1 0x1 PUSH32 0xDD970DD9B5BFE707922155B058A407655CB18288B807E2216442BCA8AD83D6B5 PUSH1 0x9 PUSH1 0x0 SWAP1 SLOAD SWAP1 PUSH2 0x100 EXP SWAP1 DIV PUSH1 0xFF AND PUSH1 0x4 DUP2 GT ISZERO PUSH2 0x6EA JUMPI PUSH2 0x6E9 PUSH2 0x3503 JUMP JUMPDEST JUMPDEST PUSH1 0x40 MLOAD PUSH2 0x6F7 SWAP2 SWAP1 PUSH2 0x2F20 JUMP JUMPDEST PUSH1 0x40 MLOAD DUP1 SWAP2 SUB SWAP1 LOG1 PUSH32 0xDD970DD9B5BFE707922155B058A407655CB18288B807E2216442BCA8AD83D6B5 DUP2 PUSH1 0x4 DUP2 GT ISZERO PUSH2 0x733 JUMPI PUSH2 0x732 PUSH2 0x3503 JUMP JUMPDEST JUMPDEST PUSH1 0x40 MLOAD PUSH2 0x740 SWAP2 SWAP1 PUSH2 0x2F4E JUMP JUMPDEST PUSH1 0x40 MLOAD DUP1 SWAP2 SUB SWAP1 LOG1 DUP1 PUSH1 0x4 DUP2 GT ISZERO PUSH2 0x75B JUMPI PUSH2 0x75A PUSH2 0x3503 JUMP JUMPDEST JUMPDEST PUSH1 0x9 PUSH1 0x0 SWAP1 SLOAD SWAP1 PUSH2 0x100 EXP SWAP1 DIV PUSH1 0xFF AND PUSH1 0x4 DUP2 GT ISZERO PUSH2 0x77D JUMPI PUSH2 0x77C PUSH2 0x3503 JUMP JUMPDEST JUMPDEST EQ PUSH2 0x7BD JUMPI PUSH1 0x40 MLOAD PUSH32 0x8C379A000000000000000000000000000000000000000000000000000000000 DUP2 MSTORE PUSH1 0x4 ADD PUSH2 0x7B4 SWAP1 PUSH2 0x2F9C JUMP JUMPDEST PUSH1 0x40 MLOAD DUP1 SWAP2 SUB SWAP1 REVERT JUMPDEST PUSH1 0x0 DUP1 SLOAD SWAP1 PUSH2 0x100 EXP SWAP1 DIV PUSH20 0xFFFFFFFFFFFFFFFFFFFFFFFFFFFFFFFFFFFFFFFF AND PUSH20 0xFFFFFFFFFFFFFFFFFFFFFFFFFFFFFFFFFFFFFFFF AND CALLER PUSH20 0xFFFFFFFFFFFFFFFFFFFFFFFFFFFFFFFFFFFFFFFF AND EQ PUSH2 0x84B JUMPI PUSH1 0x40 MLOAD PUSH32 0x8C379A000000000000000000000000000000000000000000000000000000000 DUP2 MSTORE PUSH1 0x4 ADD PUSH2 0x842 SWAP1 PUSH2 0x2E76 JUMP JUMPDEST PUSH1 0x40 MLOAD DUP1 SWAP2 SUB SWAP1 REVERT JUMPDEST PUSH1 0x1 PUSH1 0x2 PUSH1 0x14 PUSH2 0x100 EXP DUP2 SLOAD DUP2 PUSH1 0xFF MUL NOT AND SWAP1 DUP4 ISZERO ISZERO MUL OR SWAP1 SSTORE POP PUSH1 0x3 PUSH1 0x9 PUSH1 0x0 PUSH2 0x100 EXP DUP2 SLOAD DUP2 PUSH1 0xFF MUL NOT AND SWAP1 DUP4 PUSH1 0x4 DUP2 GT ISZERO PUSH2 0x88C JUMPI PUSH2 0x88B PUSH2 0x3503 JUMP JUMPDEST JUMPDEST MUL OR SWAP1 SSTORE POP POP JUMP JUMPDEST PUSH1 0x3 PUSH32 0xDD970DD9B5BFE707922155B058A407655CB18288B807E2216442BCA8AD83D6B5 PUSH1 0x9 PUSH1 0x0 SWAP1 SLOAD SWAP1 PUSH2 0x100 EXP SWAP1 DIV PUSH1 0xFF AND PUSH1 0x4 DUP2 GT ISZERO PUSH2 0x8D9 JUMPI PUSH2 0x8D8 PUSH2 0x3503 JUMP JUMPDEST JUMPDEST PUSH1 0x40 MLOAD PUSH2 0x8E6 SWAP2 SWAP1 PUSH2 0x2F20 JUMP JUMPDEST PUSH1 0x40 MLOAD DUP1 SWAP2 SUB SWAP1 LOG1 PUSH32 0xDD970DD9B5BFE707922155B058A407655CB18288B807E2216442BCA8AD83D6B5 DUP2 PUSH1 0x4 DUP2 GT ISZERO PUSH2 0x922 JUMPI PUSH2 0x921 PUSH2 0x3503 JUMP JUMPDEST JUMPDEST PUSH1 0x40 MLOAD PUSH2 0x92F SWAP2 SWAP1 PUSH2 0x2F4E JUMP JUMPDEST PUSH1 0x40 MLOAD DUP1 SWAP2 SUB SWAP1 LOG1 DUP1 PUSH1 0x4 DUP2 GT ISZERO PUSH2 0x94A JUMPI PUSH2 0x949 PUSH2 0x3503 JUMP JUMPDEST JUMPDEST PUSH1 0x9 PUSH1 0x0 SWAP1 SLOAD SWAP1 PUSH2 0x100 EXP SWAP1 DIV PUSH1 0xFF AND PUSH1 0x4 DUP2 GT ISZERO PUSH2 0x96C JUMPI PUSH2 0x96B PUSH2 0x3503 JUMP JUMPDEST JUMPDEST EQ PUSH2 0x9AC JUMPI PUSH1 0x40 MLOAD PUSH32 0x8C379A000000000000000000000000000000000000000000000000000000000 DUP2 MSTORE PUSH1 0x4 ADD PUSH2 0x9A3 SWAP1 PUSH2 0x2F9C JUMP JUMPDEST PUSH1 0x40 MLOAD DUP1 SWAP2 SUB SWAP1 REVERT JUMPDEST PUSH1 0x7 SLOAD NUMBER GT ISZERO PUSH2 0x9C3 JUMPI PUSH2 0x9BE PUSH2 0x12F0 JUMP JUMPDEST PUSH2 0xA94 JUMP JUMPDEST PUSH1 0x6 SLOAD NUMBER LT ISZERO DUP1 ISZERO PUSH2 0x9D7 JUMPI POP PUSH1 0x7 SLOAD NUMBER GT ISZERO JUMPDEST PUSH2 0xA16 JUMPI PUSH1 0x40 MLOAD PUSH32 0x8C379A000000000000000000000000000000000000000000000000000000000 DUP2 MSTORE PUSH1 0x4 ADD PUSH2 0xA0D SWAP1 PUSH2 0x2F7C JUMP JUMPDEST PUSH1 0x40 MLOAD DUP1 SWAP2 SUB SWAP1 REVERT JUMPDEST PUSH1 0x0 JUMPDEST PUSH1 0x23 SLOAD DUP2 LT ISZERO PUSH2 0xA7A JUMPI DUP3 DUP2 DUP2 MLOAD DUP2 LT PUSH2 0xA36 JUMPI PUSH2 0xA35 PUSH2 0x3561 JUMP JUMPDEST JUMPDEST PUSH1 0x20 MUL PUSH1 0x20 ADD ADD MLOAD PUSH1 0x24 PUSH1 0x0 DUP4 DUP2 MSTORE PUSH1 0x20 ADD SWAP1 DUP2 MSTORE PUSH1 0x20 ADD PUSH1 0x0 KECCAK256 PUSH1 0x0 DUP3 DUP3 SLOAD PUSH2 0xA60 SWAP2 SWAP1 PUSH2 0x3137 JUMP JUMPDEST SWAP3 POP POP DUP2 SWAP1 SSTORE POP DUP1 DUP1 PUSH2 0xA72 SWAP1 PUSH2 0x345C JUMP JUMPDEST SWAP2 POP POP PUSH2 0xA19 JUMP JUMPDEST POP PUSH1 0x25 PUSH1 0x0 DUP2 SLOAD DUP1 SWAP3 SWAP2 SWAP1 PUSH2 0xA8E SWAP1 PUSH2 0x3413 JUMP JUMPDEST SWAP2 SWAP1 POP SSTORE POP JUMPDEST POP POP JUMP JUMPDEST PUSH1 0x6 SLOAD DUP2 JUMP JUMPDEST PUSH1 0x2 PUSH1 0x15 SWAP1 SLOAD SWAP1 PUSH2 0x100 EXP SWAP1 DIV PUSH1 0xFF AND DUP2 JUMP JUMPDEST PUSH1 0x9 PUSH1 0x1 SWAP1 SLOAD SWAP1 PUSH2 0x100 EXP SWAP1 DIV PUSH1 0xFF AND DUP2 JUMP JUMPDEST DUP1 PUSH1 0x2 PUSH1 0x0 PUSH2 0x100 EXP DUP2 SLOAD DUP2 PUSH20 0xFFFFFFFFFFFFFFFFFFFFFFFFFFFFFFFFFFFFFFFF MUL NOT AND SWAP1 DUP4 PUSH20 0xFFFFFFFFFFFFFFFFFFFFFFFFFFFFFFFFFFFFFFFF AND MUL OR SWAP1 SSTORE POP POP JUMP JUMPDEST PUSH1 0x7 SLOAD DUP2 JUMP JUMPDEST PUSH1 0xA DUP2 PUSH1 0x8 DUP2 LT PUSH2 0xB1E JUMPI PUSH1 0x0 DUP1 REVERT JUMPDEST ADD PUSH1 0x0 SWAP2 POP SWAP1 POP DUP1 SLOAD PUSH2 0xB30 SWAP1 PUSH2 0x33B0 JUMP JUMPDEST DUP1 PUSH1 0x1F ADD PUSH1 0x20 DUP1 SWAP2 DIV MUL PUSH1 0x20 ADD PUSH1 0x40 MLOAD SWAP1 DUP2 ADD PUSH1 0x40 MSTORE DUP1 SWAP3 SWAP2 SWAP1 DUP2 DUP2 MSTORE PUSH1 0x20 ADD DUP3 DUP1 SLOAD PUSH2 0xB5C SWAP1 PUSH2 0x33B0 JUMP JUMPDEST DUP1 ISZERO PUSH2 0xBA9 JUMPI DUP1 PUSH1 0x1F LT PUSH2 0xB7E JUMPI PUSH2 0x100 DUP1 DUP4 SLOAD DIV MUL DUP4 MSTORE SWAP2 PUSH1 0x20 ADD SWAP2 PUSH2 0xBA9 JUMP JUMPDEST DUP3 ADD SWAP2 SWAP1 PUSH1 0x0 MSTORE PUSH1 0x20 PUSH1 0x0 KECCAK256 SWAP1 JUMPDEST DUP2 SLOAD DUP2 MSTORE SWAP1 PUSH1 0x1 ADD SWAP1 PUSH1 0x20 ADD DUP1 DUP4 GT PUSH2 0xB8C JUMPI DUP3 SWAP1 SUB PUSH1 0x1F AND DUP3 ADD SWAP2 JUMPDEST POP POP POP POP POP DUP2 JUMP JUMPDEST PUSH1 0x4 SLOAD DUP2 JUMP JUMPDEST PUSH1 0x12 DUP2 PUSH1 0x8 DUP2 LT PUSH2 0xBC7 JUMPI PUSH1 0x0 DUP1 REVERT JUMPDEST ADD PUSH1 0x0 SWAP2 POP SWAP1 POP SLOAD DUP2 JUMP JUMPDEST PUSH1 0x0 SELFBALANCE SWAP1 POP SWAP1 JUMP JUMPDEST PUSH1 0x2 PUSH32 0xDD970DD9B5BFE707922155B058A407655CB18288B807E2216442BCA8AD83D6B5 PUSH1 0x9 PUSH1 0x0 SWAP1 SLOAD SWAP1 PUSH2 0x100 EXP SWAP1 DIV PUSH1 0xFF AND PUSH1 0x4 DUP2 GT ISZERO PUSH2 0xC1F JUMPI PUSH2 0xC1E PUSH2 0x3503 JUMP JUMPDEST JUMPDEST PUSH1 0x40 MLOAD PUSH2 0xC2C SWAP2 SWAP1 PUSH2 0x2F20 JUMP JUMPDEST PUSH1 0x40 MLOAD DUP1 SWAP2 SUB SWAP1 LOG1 PUSH32 0xDD970DD9B5BFE707922155B058A407655CB18288B807E2216442BCA8AD83D6B5 DUP2 PUSH1 0x4 DUP2 GT ISZERO PUSH2 0xC68 JUMPI PUSH2 0xC67 PUSH2 0x3503 JUMP JUMPDEST JUMPDEST PUSH1 0x40 MLOAD PUSH2 0xC75 SWAP2 SWAP1 PUSH2 0x2F4E JUMP JUMPDEST PUSH1 0x40 MLOAD DUP1 SWAP2 SUB SWAP1 LOG1 DUP1 PUSH1 0x4 DUP2 GT ISZERO PUSH2 0xC90 JUMPI PUSH2 0xC8F PUSH2 0x3503 JUMP JUMPDEST JUMPDEST PUSH1 0x9 PUSH1 0x0 SWAP1 SLOAD SWAP1 PUSH2 0x100 EXP SWAP1 DIV PUSH1 0xFF AND PUSH1 0x4 DUP2 GT ISZERO PUSH2 0xCB2 JUMPI PUSH2 0xCB1 PUSH2 0x3503 JUMP JUMPDEST JUMPDEST EQ PUSH2 0xCF2 JUMPI PUSH1 0x40 MLOAD PUSH32 0x8C379A000000000000000000000000000000000000000000000000000000000 DUP2 MSTORE PUSH1 0x4 ADD PUSH2 0xCE9 SWAP1 PUSH2 0x2F9C JUMP JUMPDEST PUSH1 0x40 MLOAD DUP1 SWAP2 SUB SWAP1 REVERT JUMPDEST PUSH1 0x3 PUSH1 0x9 PUSH1 0x0 PUSH2 0x100 EXP DUP2 SLOAD DUP2 PUSH1 0xFF MUL NOT AND SWAP1 DUP4 PUSH1 0x4 DUP2 GT ISZERO PUSH2 0xD18 JUMPI PUSH2 0xD17 PUSH2 0x3503 JUMP JUMPDEST JUMPDEST MUL OR SWAP1 SSTORE POP POP JUMP JUMPDEST PUSH1 0x2 PUSH32 0xDD970DD9B5BFE707922155B058A407655CB18288B807E2216442BCA8AD83D6B5 PUSH1 0x9 PUSH1 0x0 SWAP1 SLOAD SWAP1 PUSH2 0x100 EXP SWAP1 DIV PUSH1 0xFF AND PUSH1 0x4 DUP2 GT ISZERO PUSH2 0xD65 JUMPI PUSH2 0xD64 PUSH2 0x3503 JUMP JUMPDEST JUMPDEST PUSH1 0x40 MLOAD PUSH2 0xD72 SWAP2 SWAP1 PUSH2 0x2F20 JUMP JUMPDEST PUSH1 0x40 MLOAD DUP1 SWAP2 SUB SWAP1 LOG1 PUSH32 0xDD970DD9B5BFE707922155B058A407655CB18288B807E2216442BCA8AD83D6B5 DUP2 PUSH1 0x4 DUP2 GT ISZERO PUSH2 0xDAE JUMPI PUSH2 0xDAD PUSH2 0x3503 JUMP JUMPDEST JUMPDEST PUSH1 0x40 MLOAD PUSH2 0xDBB SWAP2 SWAP1 PUSH2 0x2F4E JUMP JUMPDEST PUSH1 0x40 MLOAD DUP1 SWAP2 SUB SWAP1 LOG1 DUP1 PUSH1 0x4 DUP2 GT ISZERO PUSH2 0xDD6 JUMPI PUSH2 0xDD5 PUSH2 0x3503 JUMP JUMPDEST JUMPDEST PUSH1 0x9 PUSH1 0x0 SWAP1 SLOAD SWAP1 PUSH2 0x100 EXP SWAP1 DIV PUSH1 0xFF AND PUSH1 0x4 DUP2 GT ISZERO PUSH2 0xDF8 JUMPI PUSH2 0xDF7 PUSH2 0x3503 JUMP JUMPDEST JUMPDEST EQ PUSH2 0xE38 JUMPI PUSH1 0x40 MLOAD PUSH32 0x8C379A000000000000000000000000000000000000000000000000000000000 DUP2 MSTORE PUSH1 0x4 ADD PUSH2 0xE2F SWAP1 PUSH2 0x2F9C JUMP JUMPDEST PUSH1 0x40 MLOAD DUP1 SWAP2 SUB SWAP1 REVERT JUMPDEST PUSH1 0x1 PUSH1 0x0 SWAP1 SLOAD SWAP1 PUSH2 0x100 EXP SWAP1 DIV PUSH20 0xFFFFFFFFFFFFFFFFFFFFFFFFFFFFFFFFFFFFFFFF AND PUSH20 0xFFFFFFFFFFFFFFFFFFFFFFFFFFFFFFFFFFFFFFFF AND SELFDESTRUCT JUMPDEST PUSH1 0x3 PUSH32 0xDD970DD9B5BFE707922155B058A407655CB18288B807E2216442BCA8AD83D6B5 PUSH1 0x9 PUSH1 0x0 SWAP1 SLOAD SWAP1 PUSH2 0x100 EXP SWAP1 DIV PUSH1 0xFF AND PUSH1 0x4 DUP2 GT ISZERO PUSH2 0xEB8 JUMPI PUSH2 0xEB7 PUSH2 0x3503 JUMP JUMPDEST JUMPDEST PUSH1 0x40 MLOAD PUSH2 0xEC5 SWAP2 SWAP1 PUSH2 0x2F20 JUMP JUMPDEST PUSH1 0x40 MLOAD DUP1 SWAP2 SUB SWAP1 LOG1 PUSH32 0xDD970DD9B5BFE707922155B058A407655CB18288B807E2216442BCA8AD83D6B5 DUP2 PUSH1 0x4 DUP2 GT ISZERO PUSH2 0xF01 JUMPI PUSH2 0xF00 PUSH2 0x3503 JUMP JUMPDEST JUMPDEST PUSH1 0x40 MLOAD PUSH2 0xF0E SWAP2 SWAP1 PUSH2 0x2F4E JUMP JUMPDEST PUSH1 0x40 MLOAD DUP1 SWAP2 SUB SWAP1 LOG1 DUP1 PUSH1 0x4 DUP2 GT ISZERO PUSH2 0xF29 JUMPI PUSH2 0xF28 PUSH2 0x3503 JUMP JUMPDEST JUMPDEST PUSH1 0x9 PUSH1 0x0 SWAP1 SLOAD SWAP1 PUSH2 0x100 EXP SWAP1 DIV PUSH1 0xFF AND PUSH1 0x4 DUP2 GT ISZERO PUSH2 0xF4B JUMPI PUSH2 0xF4A PUSH2 0x3503 JUMP JUMPDEST JUMPDEST EQ PUSH2 0xF8B JUMPI PUSH1 0x40 MLOAD PUSH32 0x8C379A000000000000000000000000000000000000000000000000000000000 DUP2 MSTORE PUSH1 0x4 ADD PUSH2 0xF82 SWAP1 PUSH2 0x2F9C JUMP JUMPDEST PUSH1 0x40 MLOAD DUP1 SWAP2 SUB SWAP1 REVERT JUMPDEST PUSH1 0x7 SLOAD NUMBER GT ISZERO PUSH2 0xFA2 JUMPI PUSH2 0xF9D PUSH2 0x12F0 JUMP JUMPDEST PUSH2 0x101F JUMP JUMPDEST PUSH1 0x6 SLOAD NUMBER LT ISZERO DUP1 ISZERO PUSH2 0xFB6 JUMPI POP PUSH1 0x7 SLOAD NUMBER GT ISZERO JUMPDEST PUSH2 0xFF5 JUMPI PUSH1 0x40 MLOAD PUSH32 0x8C379A000000000000000000000000000000000000000000000000000000000 DUP2 MSTORE PUSH1 0x4 ADD PUSH2 0xFEC SWAP1 PUSH2 0x2F7C JUMP JUMPDEST PUSH1 0x40 MLOAD DUP1 SWAP2 SUB SWAP1 REVERT JUMPDEST PUSH1 0x5 SLOAD CALLVALUE EQ PUSH2 0x1003 JUMPI PUSH1 0x0 DUP1 REVERT JUMPDEST PUSH1 0x1 PUSH1 0x2 PUSH1 0x15 PUSH2 0x100 EXP DUP2 SLOAD DUP2 PUSH1 0xFF MUL NOT AND SWAP1 DUP4 ISZERO ISZERO MUL OR SWAP1 SSTORE POP JUMPDEST POP JUMP JUMPDEST PUSH1 0x8 SLOAD DUP2 JUMP JUMPDEST PUSH1 0x0 PUSH32 0xDD970DD9B5BFE707922155B058A407655CB18288B807E2216442BCA8AD83D6B5 PUSH1 0x9 PUSH1 0x0 SWAP1 SLOAD SWAP1 PUSH2 0x100 EXP SWAP1 DIV PUSH1 0xFF AND PUSH1 0x4 DUP2 GT ISZERO PUSH2 0x106D JUMPI PUSH2 0x106C PUSH2 0x3503 JUMP JUMPDEST JUMPDEST PUSH1 0x40 MLOAD PUSH2 0x107A SWAP2 SWAP1 PUSH2 0x2F20 JUMP JUMPDEST PUSH1 0x40 MLOAD DUP1 SWAP2 SUB SWAP1 LOG1 PUSH32 0xDD970DD9B5BFE707922155B058A407655CB18288B807E2216442BCA8AD83D6B5 DUP2 PUSH1 0x4 DUP2 GT ISZERO PUSH2 0x10B6 JUMPI PUSH2 0x10B5 PUSH2 0x3503 JUMP JUMPDEST JUMPDEST PUSH1 0x40 MLOAD PUSH2 0x10C3 SWAP2 SWAP1 PUSH2 0x2F4E JUMP JUMPDEST PUSH1 0x40 MLOAD DUP1 SWAP2 SUB SWAP1 LOG1 DUP1 PUSH1 0x4 DUP2 GT ISZERO PUSH2 0x10DE JUMPI PUSH2 0x10DD PUSH2 0x3503 JUMP JUMPDEST JUMPDEST PUSH1 0x9 PUSH1 0x0 SWAP1 SLOAD SWAP1 PUSH2 0x100 EXP SWAP1 DIV PUSH1 0xFF AND PUSH1 0x4 DUP2 GT ISZERO PUSH2 0x1100 JUMPI PUSH2 0x10FF PUSH2 0x3503 JUMP JUMPDEST JUMPDEST EQ PUSH2 0x1140 JUMPI PUSH1 0x40 MLOAD PUSH32 0x8C379A000000000000000000000000000000000000000000000000000000000 DUP2 MSTORE PUSH1 0x4 ADD PUSH2 0x1137 SWAP1 PUSH2 0x2F9C JUMP JUMPDEST PUSH1 0x40 MLOAD DUP1 SWAP2 SUB SWAP1 REVERT JUMPDEST PUSH32 0xDD970DD9B5BFE707922155B058A407655CB18288B807E2216442BCA8AD83D6B5 PUSH1 0x9 PUSH1 0x0 SWAP1 SLOAD SWAP1 PUSH2 0x100 EXP SWAP1 DIV PUSH1 0xFF AND PUSH1 0x4 DUP2 GT ISZERO PUSH2 0x1183 JUMPI PUSH2 0x1182 PUSH2 0x3503 JUMP JUMPDEST JUMPDEST PUSH1 0x40 MLOAD PUSH2 0x1190 SWAP2 SWAP1 PUSH2 0x2EF2 JUMP JUMPDEST PUSH1 0x40 MLOAD DUP1 SWAP2 SUB SWAP1 LOG1 PUSH1 0x1 PUSH1 0x9 PUSH1 0x0 PUSH2 0x100 EXP DUP2 SLOAD DUP2 PUSH1 0xFF MUL NOT AND SWAP1 DUP4 PUSH1 0x4 DUP2 GT ISZERO PUSH2 0x11BE JUMPI PUSH2 0x11BD PUSH2 0x3503 JUMP JUMPDEST JUMPDEST MUL OR SWAP1 SSTORE POP PUSH1 0x0 JUMPDEST PUSH1 0x8 DUP2 LT ISZERO PUSH2 0x11FB JUMPI PUSH1 0x0 PUSH1 0x24 PUSH1 0x0 DUP4 DUP2 MSTORE PUSH1 0x20 ADD SWAP1 DUP2 MSTORE PUSH1 0x20 ADD PUSH1 0x0 KECCAK256 DUP2 SWAP1 SSTORE POP DUP1 DUP1 PUSH2 0x11F3 SWAP1 PUSH2 0x345C JUMP JUMPDEST SWAP2 POP POP PUSH2 0x11C6 JUMP JUMPDEST POP POP JUMP JUMPDEST PUSH1 0x2 PUSH1 0x14 SWAP1 SLOAD SWAP1 PUSH2 0x100 EXP SWAP1 DIV PUSH1 0xFF AND DUP2 JUMP JUMPDEST CALLER PUSH1 0x0 DUP1 PUSH2 0x100 EXP DUP2 SLOAD DUP2 PUSH20 0xFFFFFFFFFFFFFFFFFFFFFFFFFFFFFFFFFFFFFFFF MUL NOT AND SWAP1 DUP4 PUSH20 0xFFFFFFFFFFFFFFFFFFFFFFFFFFFFFFFFFFFFFFFF AND MUL OR SWAP1 SSTORE POP DUP5 PUSH1 0x1 PUSH1 0x0 PUSH2 0x100 EXP DUP2 SLOAD DUP2 PUSH20 0xFFFFFFFFFFFFFFFFFFFFFFFFFFFFFFFFFFFFFFFF MUL NOT AND SWAP1 DUP4 PUSH20 0xFFFFFFFFFFFFFFFFFFFFFFFFFFFFFFFFFFFFFFFF AND MUL OR SWAP1 SSTORE POP PUSH2 0x129C DUP5 PUSH2 0x1E57 JUMP JUMPDEST PUSH1 0x4 DUP2 SWAP1 SSTORE POP DUP3 PUSH1 0x3 DUP2 SWAP1 SSTORE POP PUSH2 0x12B2 DUP4 PUSH2 0x1E57 JUMP JUMPDEST PUSH1 0x6 DUP2 SWAP1 SSTORE POP PUSH2 0x12CD PUSH1 0x1E DUP5 PUSH2 0x12C8 SWAP2 SWAP1 PUSH2 0x31CB JUMP JUMPDEST PUSH2 0x1E57 JUMP JUMPDEST PUSH1 0x7 DUP2 SWAP1 SSTORE POP DUP2 PUSH1 0x8 DUP2 SWAP1 SSTORE POP DUP1 PUSH1 0x5 DUP2 SWAP1 SSTORE POP PUSH2 0x12E9 PUSH2 0x1E79 JUMP JUMPDEST POP POP POP POP POP JUMP JUMPDEST PUSH1 0x3 PUSH32 0xDD970DD9B5BFE707922155B058A407655CB18288B807E2216442BCA8AD83D6B5 PUSH1 0x9 PUSH1 0x0 SWAP1 SLOAD SWAP1 PUSH2 0x100 EXP SWAP1 DIV PUSH1 0xFF AND PUSH1 0x4 DUP2 GT ISZERO PUSH2 0x1335 JUMPI PUSH2 0x1334 PUSH2 0x3503 JUMP JUMPDEST JUMPDEST PUSH1 0x40 MLOAD PUSH2 0x1342 SWAP2 SWAP1 PUSH2 0x2F20 JUMP JUMPDEST PUSH1 0x40 MLOAD DUP1 SWAP2 SUB SWAP1 LOG1 PUSH32 0xDD970DD9B5BFE707922155B058A407655CB18288B807E2216442BCA8AD83D6B5 DUP2 PUSH1 0x4 DUP2 GT ISZERO PUSH2 0x137E JUMPI PUSH2 0x137D PUSH2 0x3503 JUMP JUMPDEST JUMPDEST PUSH1 0x40 MLOAD PUSH2 0x138B SWAP2 SWAP1 PUSH2 0x2F4E JUMP JUMPDEST PUSH1 0x40 MLOAD DUP1 SWAP2 SUB SWAP1 LOG1 DUP1 PUSH1 0x4 DUP2 GT ISZERO PUSH2 0x13A6 JUMPI PUSH2 0x13A5 PUSH2 0x3503 JUMP JUMPDEST JUMPDEST PUSH1 0x9 PUSH1 0x0 SWAP1 SLOAD SWAP1 PUSH2 0x100 EXP SWAP1 DIV PUSH1 0xFF AND PUSH1 0x4 DUP2 GT ISZERO PUSH2 0x13C8 JUMPI PUSH2 0x13C7 PUSH2 0x3503 JUMP JUMPDEST JUMPDEST EQ PUSH2 0x1408 JUMPI PUSH1 0x40 MLOAD PUSH32 0x8C379A000000000000000000000000000000000000000000000000000000000 DUP2 MSTORE PUSH1 0x4 ADD PUSH2 0x13FF SWAP1 PUSH2 0x2F9C JUMP JUMPDEST PUSH1 0x40 MLOAD DUP1 SWAP2 SUB SWAP1 REVERT JUMPDEST PUSH1 0x0 JUMPDEST PUSH1 0x23 SLOAD DUP2 LT ISZERO PUSH2 0x1501 JUMPI PUSH1 0x0 PUSH1 0x1A DUP3 PUSH1 0x8 DUP2 LT PUSH2 0x142B JUMPI PUSH2 0x142A PUSH2 0x3561 JUMP JUMPDEST JUMPDEST ADD SLOAD SWAP1 POP PUSH1 0x0 PUSH1 0x12 DUP4 PUSH1 0x8 DUP2 LT PUSH2 0x1445 JUMPI PUSH2 0x1444 PUSH2 0x3561 JUMP JUMPDEST JUMPDEST ADD SLOAD SWAP1 POP PUSH1 0x0 PUSH1 0x25 SLOAD PUSH1 0x24 PUSH1 0x0 DUP7 DUP2 MSTORE PUSH1 0x20 ADD SWAP1 DUP2 MSTORE PUSH1 0x20 ADD PUSH1 0x0 KECCAK256 SLOAD PUSH2 0x146C SWAP2 SWAP1 PUSH2 0x3221 JUMP JUMPDEST SWAP1 POP PUSH2 0x1479 DUP4 DUP3 DUP5 PUSH2 0x1F47 JUMP JUMPDEST PUSH2 0x14EB JUMPI PUSH2 0x1485 PUSH2 0x1FF3 JUMP JUMPDEST CALLER PUSH20 0xFFFFFFFFFFFFFFFFFFFFFFFFFFFFFFFFFFFFFFFF AND PUSH32 0xA84226BF2D14BDE3FAC454F52EAEAB63AAEB1934DA88F9263DD4FF7DD12ACF71 PUSH1 0x9 PUSH1 0x1 SWAP1 SLOAD SWAP1 PUSH2 0x100 EXP SWAP1 DIV PUSH1 0xFF AND PUSH1 0x40 MLOAD PUSH2 0x14DA SWAP2 SWAP1 PUSH2 0x2D94 JUMP JUMPDEST PUSH1 0x40 MLOAD DUP1 SWAP2 SUB SWAP1 LOG2 POP POP POP POP PUSH2 0x1583 JUMP JUMPDEST POP POP POP DUP1 DUP1 PUSH2 0x14F9 SWAP1 PUSH2 0x345C JUMP JUMPDEST SWAP2 POP POP PUSH2 0x140B JUMP JUMPDEST POP PUSH1 0x1 PUSH1 0x9 PUSH1 0x1 PUSH2 0x100 EXP DUP2 SLOAD DUP2 PUSH1 0xFF MUL NOT AND SWAP1 DUP4 ISZERO ISZERO MUL OR SWAP1 SSTORE POP CALLER PUSH20 0xFFFFFFFFFFFFFFFFFFFFFFFFFFFFFFFFFFFFFFFF AND PUSH32 0xA84226BF2D14BDE3FAC454F52EAEAB63AAEB1934DA88F9263DD4FF7DD12ACF71 PUSH1 0x9 PUSH1 0x1 SWAP1 SLOAD SWAP1 PUSH2 0x100 EXP SWAP1 DIV PUSH1 0xFF AND PUSH1 0x40 MLOAD PUSH2 0x1572 SWAP2 SWAP1 PUSH2 0x2DC2 JUMP JUMPDEST PUSH1 0x40 MLOAD DUP1 SWAP2 SUB SWAP1 LOG2 PUSH2 0x1582 PUSH2 0x2083 JUMP JUMPDEST JUMPDEST POP JUMP JUMPDEST PUSH1 0x5 SLOAD DUP2 JUMP JUMPDEST PUSH1 0x2 PUSH1 0x0 SWAP1 SLOAD SWAP1 PUSH2 0x100 EXP SWAP1 DIV PUSH20 0xFFFFFFFFFFFFFFFFFFFFFFFFFFFFFFFFFFFFFFFF AND DUP2 JUMP JUMPDEST PUSH1 0x9 PUSH1 0x0 SWAP1 SLOAD SWAP1 PUSH2 0x100 EXP SWAP1 DIV PUSH1 0xFF AND DUP2 JUMP JUMPDEST PUSH1 0x1A DUP2 PUSH1 0x8 DUP2 LT PUSH2 0x15D5 JUMPI PUSH1 0x0 DUP1 REVERT JUMPDEST ADD PUSH1 0x0 SWAP2 POP SWAP1 POP SLOAD DUP2 JUMP JUMPDEST PUSH1 0x3 PUSH32 0xDD970DD9B5BFE707922155B058A407655CB18288B807E2216442BCA8AD83D6B5 PUSH1 0x9 PUSH1 0x0 SWAP1 SLOAD SWAP1 PUSH2 0x100 EXP SWAP1 DIV PUSH1 0xFF AND PUSH1 0x4 DUP2 GT ISZERO PUSH2 0x1625 JUMPI PUSH2 0x1624 PUSH2 0x3503 JUMP JUMPDEST JUMPDEST PUSH1 0x40 MLOAD PUSH2 0x1632 SWAP2 SWAP1 PUSH2 0x2F20 JUMP JUMPDEST PUSH1 0x40 MLOAD DUP1 SWAP2 SUB SWAP1 LOG1 PUSH32 0xDD970DD9B5BFE707922155B058A407655CB18288B807E2216442BCA8AD83D6B5 DUP2 PUSH1 0x4 DUP2 GT ISZERO PUSH2 0x166E JUMPI PUSH2 0x166D PUSH2 0x3503 JUMP JUMPDEST JUMPDEST PUSH1 0x40 MLOAD PUSH2 0x167B SWAP2 SWAP1 PUSH2 0x2F4E JUMP JUMPDEST PUSH1 0x40 MLOAD DUP1 SWAP2 SUB SWAP1 LOG1 DUP1 PUSH1 0x4 DUP2 GT ISZERO PUSH2 0x1696 JUMPI PUSH2 0x1695 PUSH2 0x3503 JUMP JUMPDEST JUMPDEST PUSH1 0x9 PUSH1 0x0 SWAP1 SLOAD SWAP1 PUSH2 0x100 EXP SWAP1 DIV PUSH1 0xFF AND PUSH1 0x4 DUP2 GT ISZERO PUSH2 0x16B8 JUMPI PUSH2 0x16B7 PUSH2 0x3503 JUMP JUMPDEST JUMPDEST EQ PUSH2 0x16F8 JUMPI PUSH1 0x40 MLOAD PUSH32 0x8C379A000000000000000000000000000000000000000000000000000000000 DUP2 MSTORE PUSH1 0x4 ADD PUSH2 0x16EF SWAP1 PUSH2 0x2F9C JUMP JUMPDEST PUSH1 0x40 MLOAD DUP1 SWAP2 SUB SWAP1 REVERT JUMPDEST PUSH1 0x0 JUMPDEST PUSH1 0x23 SLOAD DUP2 LT ISZERO PUSH2 0x175C JUMPI DUP3 DUP2 DUP2 MLOAD DUP2 LT PUSH2 0x1718 JUMPI PUSH2 0x1717 PUSH2 0x3561 JUMP JUMPDEST JUMPDEST PUSH1 0x20 MUL PUSH1 0x20 ADD ADD MLOAD PUSH1 0x24 PUSH1 0x0 DUP4 DUP2 MSTORE PUSH1 0x20 ADD SWAP1 DUP2 MSTORE PUSH1 0x20 ADD PUSH1 0x0 KECCAK256 PUSH1 0x0 DUP3 DUP3 SLOAD PUSH2 0x1742 SWAP2 SWAP1 PUSH2 0x3137 JUMP JUMPDEST SWAP3 POP POP DUP2 SWAP1 SSTORE POP DUP1 DUP1 PUSH2 0x1754 SWAP1 PUSH2 0x345C JUMP JUMPDEST SWAP2 POP POP PUSH2 0x16FB JUMP JUMPDEST POP PUSH1 0x25 PUSH1 0x0 DUP2 SLOAD DUP1 SWAP3 SWAP2 SWAP1 PUSH2 0x1770 SWAP1 PUSH2 0x3413 JUMP JUMPDEST SWAP2 SWAP1 POP SSTORE POP POP POP JUMP JUMPDEST PUSH1 0x3 PUSH32 0xDD970DD9B5BFE707922155B058A407655CB18288B807E2216442BCA8AD83D6B5 PUSH1 0x9 PUSH1 0x0 SWAP1 SLOAD SWAP1 PUSH2 0x100 EXP SWAP1 DIV PUSH1 0xFF AND PUSH1 0x4 DUP2 GT ISZERO PUSH2 0x17BE JUMPI PUSH2 0x17BD PUSH2 0x3503 JUMP JUMPDEST JUMPDEST PUSH1 0x40 MLOAD PUSH2 0x17CB SWAP2 SWAP1 PUSH2 0x2F20 JUMP JUMPDEST PUSH1 0x40 MLOAD DUP1 SWAP2 SUB SWAP1 LOG1 PUSH32 0xDD970DD9B5BFE707922155B058A407655CB18288B807E2216442BCA8AD83D6B5 DUP2 PUSH1 0x4 DUP2 GT ISZERO PUSH2 0x1807 JUMPI PUSH2 0x1806 PUSH2 0x3503 JUMP JUMPDEST JUMPDEST PUSH1 0x40 MLOAD PUSH2 0x1814 SWAP2 SWAP1 PUSH2 0x2F4E JUMP JUMPDEST PUSH1 0x40 MLOAD DUP1 SWAP2 SUB SWAP1 LOG1 DUP1 PUSH1 0x4 DUP2 GT ISZERO PUSH2 0x182F JUMPI PUSH2 0x182E PUSH2 0x3503 JUMP JUMPDEST JUMPDEST PUSH1 0x9 PUSH1 0x0 SWAP1 SLOAD SWAP1 PUSH2 0x100 EXP SWAP1 DIV PUSH1 0xFF AND PUSH1 0x4 DUP2 GT ISZERO PUSH2 0x1851 JUMPI PUSH2 0x1850 PUSH2 0x3503 JUMP JUMPDEST JUMPDEST EQ PUSH2 0x1891 JUMPI PUSH1 0x40 MLOAD PUSH32 0x8C379A000000000000000000000000000000000000000000000000000000000 DUP2 MSTORE PUSH1 0x4 ADD PUSH2 0x1888 SWAP1 PUSH2 0x2F9C JUMP JUMPDEST PUSH1 0x40 MLOAD DUP1 SWAP2 SUB SWAP1 REVERT JUMPDEST PUSH1 0x2 PUSH1 0x9 PUSH1 0x0 PUSH2 0x100 EXP DUP2 SLOAD DUP2 PUSH1 0xFF MUL NOT AND SWAP1 DUP4 PUSH1 0x4 DUP2 GT ISZERO PUSH2 0x18B7 JUMPI PUSH2 0x18B6 PUSH2 0x3503 JUMP JUMPDEST JUMPDEST MUL OR SWAP1 SSTORE POP POP JUMP JUMPDEST PUSH1 0x0 DUP1 SLOAD SWAP1 PUSH2 0x100 EXP SWAP1 DIV PUSH20 0xFFFFFFFFFFFFFFFFFFFFFFFFFFFFFFFFFFFFFFFF AND DUP2 JUMP JUMPDEST PUSH1 0x0 PUSH32 0xDD970DD9B5BFE707922155B058A407655CB18288B807E2216442BCA8AD83D6B5 PUSH1 0x9 PUSH1 0x0 SWAP1 SLOAD SWAP1 PUSH2 0x100 EXP SWAP1 DIV PUSH1 0xFF AND PUSH1 0x4 DUP2 GT ISZERO PUSH2 0x1928 JUMPI PUSH2 0x1927 PUSH2 0x3503 JUMP JUMPDEST JUMPDEST PUSH1 0x40 MLOAD PUSH2 0x1935 SWAP2 SWAP1 PUSH2 0x2F20 JUMP JUMPDEST PUSH1 0x40 MLOAD DUP1 SWAP2 SUB SWAP1 LOG1 PUSH32 0xDD970DD9B5BFE707922155B058A407655CB18288B807E2216442BCA8AD83D6B5 DUP2 PUSH1 0x4 DUP2 GT ISZERO PUSH2 0x1971 JUMPI PUSH2 0x1970 PUSH2 0x3503 JUMP JUMPDEST JUMPDEST PUSH1 0x40 MLOAD PUSH2 0x197E SWAP2 SWAP1 PUSH2 0x2F4E JUMP JUMPDEST PUSH1 0x40 MLOAD DUP1 SWAP2 SUB SWAP1 LOG1 DUP1 PUSH1 0x4 DUP2 GT ISZERO PUSH2 0x1999 JUMPI PUSH2 0x1998 PUSH2 0x3503 JUMP JUMPDEST JUMPDEST PUSH1 0x9 PUSH1 0x0 SWAP1 SLOAD SWAP1 PUSH2 0x100 EXP SWAP1 DIV PUSH1 0xFF AND PUSH1 0x4 DUP2 GT ISZERO PUSH2 0x19BB JUMPI PUSH2 0x19BA PUSH2 0x3503 JUMP JUMPDEST JUMPDEST EQ PUSH2 0x19FB JUMPI PUSH1 0x40 MLOAD PUSH32 0x8C379A000000000000000000000000000000000000000000000000000000000 DUP2 MSTORE PUSH1 0x4 ADD PUSH2 0x19F2 SWAP1 PUSH2 0x2F9C JUMP JUMPDEST PUSH1 0x40 MLOAD DUP1 SWAP2 SUB SWAP1 REVERT JUMPDEST PUSH32 0xDD970DD9B5BFE707922155B058A407655CB18288B807E2216442BCA8AD83D6B5 PUSH1 0x9 PUSH1 0x0 SWAP1 SLOAD SWAP1 PUSH2 0x100 EXP SWAP1 DIV PUSH1 0xFF AND PUSH1 0x4 DUP2 GT ISZERO PUSH2 0x1A3E JUMPI PUSH2 0x1A3D PUSH2 0x3503 JUMP JUMPDEST JUMPDEST PUSH1 0x40 MLOAD PUSH2 0x1A4B SWAP2 SWAP1 PUSH2 0x2EC4 JUMP JUMPDEST PUSH1 0x40 MLOAD DUP1 SWAP2 SUB SWAP1 LOG1 PUSH1 0x0 JUMPDEST PUSH1 0x8 DUP2 LT ISZERO PUSH2 0x1C6B JUMPI PUSH1 0x40 MLOAD DUP1 PUSH1 0x40 ADD PUSH1 0x40 MSTORE DUP1 PUSH1 0x1 DUP2 MSTORE PUSH1 0x20 ADD PUSH32 0x3000000000000000000000000000000000000000000000000000000000000000 DUP2 MSTORE POP DUP1 MLOAD SWAP1 PUSH1 0x20 ADD KECCAK256 DUP6 DUP3 PUSH1 0x8 DUP2 LT PUSH2 0x1AAF JUMPI PUSH2 0x1AAE PUSH2 0x3561 JUMP JUMPDEST JUMPDEST PUSH1 0x20 MUL ADD MLOAD DUP1 MLOAD SWAP1 PUSH1 0x20 ADD KECCAK256 EQ ISZERO PUSH2 0x1B7F JUMPI PUSH32 0xDD970DD9B5BFE707922155B058A407655CB18288B807E2216442BCA8AD83D6B5 PUSH1 0x9 PUSH1 0x0 SWAP1 SLOAD SWAP1 PUSH2 0x100 EXP SWAP1 DIV PUSH1 0xFF AND PUSH1 0x4 DUP2 GT ISZERO PUSH2 0x1B04 JUMPI PUSH2 0x1B03 PUSH2 0x3503 JUMP JUMPDEST JUMPDEST PUSH1 0x40 MLOAD PUSH2 0x1B11 SWAP2 SWAP1 PUSH2 0x2E96 JUMP JUMPDEST PUSH1 0x40 MLOAD DUP1 SWAP2 SUB SWAP1 LOG1 PUSH2 0x1B21 PUSH2 0x1028 JUMP JUMPDEST PUSH32 0xDD970DD9B5BFE707922155B058A407655CB18288B807E2216442BCA8AD83D6B5 PUSH1 0x9 PUSH1 0x0 SWAP1 SLOAD SWAP1 PUSH2 0x100 EXP SWAP1 DIV PUSH1 0xFF AND PUSH1 0x4 DUP2 GT ISZERO PUSH2 0x1B64 JUMPI PUSH2 0x1B63 PUSH2 0x3503 JUMP JUMPDEST JUMPDEST PUSH1 0x40 MLOAD PUSH2 0x1B71 SWAP2 SWAP1 PUSH2 0x2E48 JUMP JUMPDEST PUSH1 0x40 MLOAD DUP1 SWAP2 SUB SWAP1 LOG1 POP PUSH2 0x1C6D JUMP JUMPDEST DUP5 DUP2 PUSH1 0x8 DUP2 LT PUSH2 0x1B92 JUMPI PUSH2 0x1B91 PUSH2 0x3561 JUMP JUMPDEST JUMPDEST PUSH1 0x20 MUL ADD MLOAD PUSH1 0xA DUP3 PUSH1 0x8 DUP2 LT PUSH2 0x1BAB JUMPI PUSH2 0x1BAA PUSH2 0x3561 JUMP JUMPDEST JUMPDEST ADD SWAP1 DUP1 MLOAD SWAP1 PUSH1 0x20 ADD SWAP1 PUSH2 0x1BBF SWAP3 SWAP2 SWAP1 PUSH2 0x227D JUMP JUMPDEST POP DUP4 DUP2 PUSH1 0x8 DUP2 LT PUSH2 0x1BD3 JUMPI PUSH2 0x1BD2 PUSH2 0x3561 JUMP JUMPDEST JUMPDEST PUSH1 0x20 MUL ADD MLOAD PUSH1 0x12 DUP3 PUSH1 0x8 DUP2 LT PUSH2 0x1BEC JUMPI PUSH2 0x1BEB PUSH2 0x3561 JUMP JUMPDEST JUMPDEST ADD DUP2 SWAP1 SSTORE POP PUSH1 0x22 DUP4 DUP3 PUSH1 0x8 DUP2 LT PUSH2 0x1C06 JUMPI PUSH2 0x1C05 PUSH2 0x3561 JUMP JUMPDEST JUMPDEST PUSH1 0x20 MUL ADD MLOAD PUSH1 0x40 MLOAD PUSH2 0x1C18 SWAP2 SWAP1 PUSH2 0x2BFC JUMP JUMPDEST SWAP1 DUP2 MSTORE PUSH1 0x20 ADD PUSH1 0x40 MLOAD DUP1 SWAP2 SUB SWAP1 KECCAK256 SLOAD PUSH1 0x1A DUP3 PUSH1 0x8 DUP2 LT PUSH2 0x1C3B JUMPI PUSH2 0x1C3A PUSH2 0x3561 JUMP JUMPDEST JUMPDEST ADD DUP2 SWAP1 SSTORE POP PUSH1 0x23 PUSH1 0x0 DUP2 SLOAD DUP1 SWAP3 SWAP2 SWAP1 PUSH2 0x1C53 SWAP1 PUSH2 0x345C JUMP JUMPDEST SWAP2 SWAP1 POP SSTORE POP DUP1 DUP1 PUSH2 0x1C63 SWAP1 PUSH2 0x345C JUMP JUMPDEST SWAP2 POP POP PUSH2 0x1A56 JUMP JUMPDEST POP JUMPDEST POP POP POP POP JUMP JUMPDEST PUSH1 0x0 DUP1 PUSH1 0x0 DUP1 PUSH1 0x0 DUP1 PUSH1 0x0 DUP1 PUSH2 0x1C87 PUSH2 0x2303 JUMP JUMPDEST PUSH2 0x1C8F PUSH2 0x232B JUMP JUMPDEST PUSH2 0x1C97 PUSH2 0x232B JUMP JUMPDEST PUSH1 0x1 PUSH1 0x0 SWAP1 SLOAD SWAP1 PUSH2 0x100 EXP SWAP1 DIV PUSH20 0xFFFFFFFFFFFFFFFFFFFFFFFFFFFFFFFFFFFFFFFF AND PUSH1 0x2 PUSH1 0x0 SWAP1 SLOAD SWAP1 PUSH2 0x100 EXP SWAP1 DIV PUSH20 0xFFFFFFFFFFFFFFFFFFFFFFFFFFFFFFFFFFFFFFFF AND PUSH1 0x3 SLOAD PUSH1 0x4 SLOAD PUSH1 0x5 SLOAD PUSH1 0x6 SLOAD PUSH1 0x7 SLOAD PUSH1 0x8 SLOAD PUSH1 0xA PUSH1 0x12 PUSH1 0x1A DUP3 PUSH1 0x8 DUP1 PUSH1 0x20 MUL PUSH1 0x40 MLOAD SWAP1 DUP2 ADD PUSH1 0x40 MSTORE DUP1 SWAP3 SWAP2 SWAP1 PUSH1 0x0 SWAP1 JUMPDEST DUP3 DUP3 LT ISZERO PUSH2 0x1DB0 JUMPI DUP4 DUP3 ADD DUP1 SLOAD PUSH2 0x1D23 SWAP1 PUSH2 0x33B0 JUMP JUMPDEST DUP1 PUSH1 0x1F ADD PUSH1 0x20 DUP1 SWAP2 DIV MUL PUSH1 0x20 ADD PUSH1 0x40 MLOAD SWAP1 DUP2 ADD PUSH1 0x40 MSTORE DUP1 SWAP3 SWAP2 SWAP1 DUP2 DUP2 MSTORE PUSH1 0x20 ADD DUP3 DUP1 SLOAD PUSH2 0x1D4F SWAP1 PUSH2 0x33B0 JUMP JUMPDEST DUP1 ISZERO PUSH2 0x1D9C JUMPI DUP1 PUSH1 0x1F LT PUSH2 0x1D71 JUMPI PUSH2 0x100 DUP1 DUP4 SLOAD DIV MUL DUP4 MSTORE SWAP2 PUSH1 0x20 ADD SWAP2 PUSH2 0x1D9C JUMP JUMPDEST DUP3 ADD SWAP2 SWAP1 PUSH1 0x0 MSTORE PUSH1 0x20 PUSH1 0x0 KECCAK256 SWAP1 JUMPDEST DUP2 SLOAD DUP2 MSTORE SWAP1 PUSH1 0x1 ADD SWAP1 PUSH1 0x20 ADD DUP1 DUP4 GT PUSH2 0x1D7F JUMPI DUP3 SWAP1 SUB PUSH1 0x1F AND DUP3 ADD SWAP2 JUMPDEST POP POP POP POP POP DUP2 MSTORE PUSH1 0x20 ADD SWAP1 PUSH1 0x1 ADD SWAP1 PUSH2 0x1D0D JUMP JUMPDEST POP POP POP POP SWAP3 POP DUP2 PUSH1 0x8 DUP1 PUSH1 0x20 MUL PUSH1 0x40 MLOAD SWAP1 DUP2 ADD PUSH1 0x40 MSTORE DUP1 SWAP3 SWAP2 SWAP1 DUP3 PUSH1 0x8 DUP1 ISZERO PUSH2 0x1DEE JUMPI PUSH1 0x20 MUL DUP3 ADD SWAP2 JUMPDEST DUP2 SLOAD DUP2 MSTORE PUSH1 0x20 ADD SWAP1 PUSH1 0x1 ADD SWAP1 DUP1 DUP4 GT PUSH2 0x1DDA JUMPI JUMPDEST POP POP POP POP POP SWAP2 POP DUP1 PUSH1 0x8 DUP1 PUSH1 0x20 MUL PUSH1 0x40 MLOAD SWAP1 DUP2 ADD PUSH1 0x40 MSTORE DUP1 SWAP3 SWAP2 SWAP1 DUP3 PUSH1 0x8 DUP1 ISZERO PUSH2 0x1E2D JUMPI PUSH1 0x20 MUL DUP3 ADD SWAP2 JUMPDEST DUP2 SLOAD DUP2 MSTORE PUSH1 0x20 ADD SWAP1 PUSH1 0x1 ADD SWAP1 DUP1 DUP4 GT PUSH2 0x1E19 JUMPI JUMPDEST POP POP POP POP POP SWAP1 POP SWAP11 POP SWAP11 POP SWAP11 POP SWAP11 POP SWAP11 POP SWAP11 POP SWAP11 POP SWAP11 POP SWAP11 POP SWAP11 POP SWAP11 POP SWAP1 SWAP2 SWAP3 SWAP4 SWAP5 SWAP6 SWAP7 SWAP8 SWAP9 SWAP10 SWAP11 JUMP JUMPDEST PUSH1 0x0 PUSH2 0x1900 DUP3 PUSH2 0x1E67 SWAP2 SWAP1 PUSH2 0x328B JUMP JUMPDEST NUMBER PUSH2 0x1E72 SWAP2 SWAP1 PUSH2 0x31CB JUMP JUMPDEST SWAP1 POP SWAP2 SWAP1 POP JUMP JUMPDEST PUSH1 0x1 PUSH1 0x22 PUSH1 0x40 MLOAD PUSH2 0x1E89 SWAP1 PUSH2 0x2C7C JUMP JUMPDEST SWAP1 DUP2 MSTORE PUSH1 0x20 ADD PUSH1 0x40 MLOAD DUP1 SWAP2 SUB SWAP1 KECCAK256 DUP2 SWAP1 SSTORE POP PUSH1 0x2 PUSH1 0x22 PUSH1 0x40 MLOAD PUSH2 0x1EAB SWAP1 PUSH2 0x2C28 JUMP JUMPDEST SWAP1 DUP2 MSTORE PUSH1 0x20 ADD PUSH1 0x40 MLOAD DUP1 SWAP2 SUB SWAP1 KECCAK256 DUP2 SWAP1 SSTORE POP PUSH1 0x3 PUSH1 0x22 PUSH1 0x40 MLOAD PUSH2 0x1ECD SWAP1 PUSH2 0x2C13 JUMP JUMPDEST SWAP1 DUP2 MSTORE PUSH1 0x20 ADD PUSH1 0x40 MLOAD DUP1 SWAP2 SUB SWAP1 KECCAK256 DUP2 SWAP1 SSTORE POP PUSH1 0x4 PUSH1 0x22 PUSH1 0x40 MLOAD PUSH2 0x1EEF SWAP1 PUSH2 0x2C3D JUMP JUMPDEST SWAP1 DUP2 MSTORE PUSH1 0x20 ADD PUSH1 0x40 MLOAD DUP1 SWAP2 SUB SWAP1 KECCAK256 DUP2 SWAP1 SSTORE POP PUSH1 0x5 PUSH1 0x22 PUSH1 0x40 MLOAD PUSH2 0x1F11 SWAP1 PUSH2 0x2C52 JUMP JUMPDEST SWAP1 DUP2 MSTORE PUSH1 0x20 ADD PUSH1 0x40 MLOAD DUP1 SWAP2 SUB SWAP1 KECCAK256 DUP2 SWAP1 SSTORE POP PUSH1 0x6 PUSH1 0x22 PUSH1 0x40 MLOAD PUSH2 0x1F33 SWAP1 PUSH2 0x2C67 JUMP JUMPDEST SWAP1 DUP2 MSTORE PUSH1 0x20 ADD PUSH1 0x40 MLOAD DUP1 SWAP2 SUB SWAP1 KECCAK256 DUP2 SWAP1 SSTORE POP JUMP JUMPDEST PUSH1 0x0 PUSH32 0xFFFFFFFFFFFFFFFFFFFFFFFFFFFFFFFFFFFFFFFFFFFFFFFFFFFFFFFFFFFFFFFF DUP5 EQ PUSH2 0x1FE7 JUMPI PUSH1 0x1 DUP1 DUP6 AND EQ ISZERO PUSH2 0x1F98 JUMPI PUSH2 0x1F86 DUP5 DUP5 DUP5 PUSH2 0x2113 JUMP JUMPDEST PUSH2 0x1F93 JUMPI PUSH1 0x0 SWAP1 POP PUSH2 0x1FEC JUMP JUMPDEST PUSH2 0x1FE6 JUMP JUMPDEST PUSH1 0x4 DUP1 DUP6 AND EQ ISZERO PUSH2 0x1FC0 JUMPI PUSH2 0x1FAE DUP5 DUP5 DUP5 PUSH2 0x2153 JUMP JUMPDEST PUSH2 0x1FBB JUMPI PUSH1 0x0 SWAP1 POP PUSH2 0x1FEC JUMP JUMPDEST PUSH2 0x1FE5 JUMP JUMPDEST PUSH1 0x2 DUP1 DUP6 AND EQ ISZERO PUSH2 0x1FE4 JUMPI PUSH2 0x1FD6 DUP5 DUP5 DUP5 PUSH2 0x2193 JUMP JUMPDEST PUSH2 0x1FE3 JUMPI PUSH1 0x0 SWAP1 POP PUSH2 0x1FEC JUMP JUMPDEST JUMPDEST JUMPDEST JUMPDEST JUMPDEST PUSH1 0x1 SWAP1 POP JUMPDEST SWAP4 SWAP3 POP POP POP JUMP JUMPDEST PUSH1 0x0 PUSH1 0x9 PUSH1 0x1 PUSH2 0x100 EXP DUP2 SLOAD DUP2 PUSH1 0xFF MUL NOT AND SWAP1 DUP4 ISZERO ISZERO MUL OR SWAP1 SSTORE POP PUSH1 0x1 PUSH1 0x0 SWAP1 SLOAD SWAP1 PUSH2 0x100 EXP SWAP1 DIV PUSH20 0xFFFFFFFFFFFFFFFFFFFFFFFFFFFFFFFFFFFFFFFF AND PUSH20 0xFFFFFFFFFFFFFFFFFFFFFFFFFFFFFFFFFFFFFFFF AND PUSH2 0x8FC PUSH1 0x5 SLOAD SWAP1 DUP2 ISZERO MUL SWAP1 PUSH1 0x40 MLOAD PUSH1 0x0 PUSH1 0x40 MLOAD DUP1 DUP4 SUB DUP2 DUP6 DUP9 DUP9 CALL SWAP4 POP POP POP POP ISZERO DUP1 ISZERO PUSH2 0x2078 JUMPI RETURNDATASIZE PUSH1 0x0 DUP1 RETURNDATACOPY RETURNDATASIZE PUSH1 0x0 REVERT JUMPDEST POP PUSH2 0x2081 PUSH2 0x21BE JUMP JUMPDEST JUMP JUMPDEST PUSH1 0x1 PUSH1 0x9 PUSH1 0x1 PUSH2 0x100 EXP DUP2 SLOAD DUP2 PUSH1 0xFF MUL NOT AND SWAP1 DUP4 ISZERO ISZERO MUL OR SWAP1 SSTORE POP PUSH1 0x2 PUSH1 0x0 SWAP1 SLOAD SWAP1 PUSH2 0x100 EXP SWAP1 DIV PUSH20 0xFFFFFFFFFFFFFFFFFFFFFFFFFFFFFFFFFFFFFFFF AND PUSH20 0xFFFFFFFFFFFFFFFFFFFFFFFFFFFFFFFFFFFFFFFF AND PUSH2 0x8FC PUSH1 0x5 SLOAD SWAP1 DUP2 ISZERO MUL SWAP1 PUSH1 0x40 MLOAD PUSH1 0x0 PUSH1 0x40 MLOAD DUP1 DUP4 SUB DUP2 DUP6 DUP9 DUP9 CALL SWAP4 POP POP POP POP ISZERO DUP1 ISZERO PUSH2 0x2108 JUMPI RETURNDATASIZE PUSH1 0x0 DUP1 RETURNDATACOPY RETURNDATASIZE PUSH1 0x0 REVERT JUMPDEST POP PUSH2 0x2111 PUSH2 0x21BE JUMP JUMPDEST JUMP JUMPDEST PUSH1 0x0 DUP1 PUSH1 0x0 SWAP1 POP PUSH1 0x1 DUP1 DUP7 AND EQ ISZERO PUSH2 0x2148 JUMPI DUP3 DUP5 SGT ISZERO PUSH2 0x2132 JUMPI PUSH1 0x1 SWAP1 POP JUMPDEST PUSH2 0x213D DUP6 DUP6 DUP6 PUSH2 0x2193 JUMP JUMPDEST ISZERO PUSH2 0x2147 JUMPI PUSH1 0x1 SWAP1 POP JUMPDEST JUMPDEST DUP1 SWAP2 POP POP SWAP4 SWAP3 POP POP POP JUMP JUMPDEST PUSH1 0x0 DUP1 PUSH1 0x0 SWAP1 POP PUSH1 0x4 DUP1 DUP7 AND EQ ISZERO PUSH2 0x2188 JUMPI DUP3 DUP5 SLT ISZERO PUSH2 0x2172 JUMPI PUSH1 0x1 SWAP1 POP JUMPDEST PUSH2 0x217D DUP6 DUP6 DUP6 PUSH2 0x2193 JUMP JUMPDEST ISZERO PUSH2 0x2187 JUMPI PUSH1 0x1 SWAP1 POP JUMPDEST JUMPDEST DUP1 SWAP2 POP POP SWAP4 SWAP3 POP POP POP JUMP JUMPDEST PUSH1 0x0 PUSH1 0x2 DUP1 DUP6 AND EQ ISZERO PUSH2 0x21B2 JUMPI DUP2 DUP4 EQ ISZERO PUSH2 0x21B1 JUMPI PUSH1 0x1 SWAP1 POP PUSH2 0x21B7 JUMP JUMPDEST JUMPDEST PUSH1 0x0 SWAP1 POP JUMPDEST SWAP4 SWAP3 POP POP POP JUMP JUMPDEST PUSH1 0x4 SLOAD NUMBER LT PUSH2 0x21F3 JUMPI PUSH1 0x4 PUSH1 0x9 PUSH1 0x0 PUSH2 0x100 EXP DUP2 SLOAD DUP2 PUSH1 0xFF MUL NOT AND SWAP1 DUP4 PUSH1 0x4 DUP2 GT ISZERO PUSH2 0x21ED JUMPI PUSH2 0x21EC PUSH2 0x3503 JUMP JUMPDEST JUMPDEST MUL OR SWAP1 SSTORE POP JUMPDEST PUSH1 0x0 JUMPDEST PUSH1 0x23 SLOAD DUP2 LT ISZERO PUSH2 0x222C JUMPI PUSH1 0x0 PUSH1 0x24 PUSH1 0x0 DUP4 DUP2 MSTORE PUSH1 0x20 ADD SWAP1 DUP2 MSTORE PUSH1 0x20 ADD PUSH1 0x0 KECCAK256 DUP2 SWAP1 SSTORE POP DUP1 DUP1 PUSH2 0x2224 SWAP1 PUSH2 0x345C JUMP JUMPDEST SWAP2 POP POP PUSH2 0x21F6 JUMP JUMPDEST POP PUSH1 0x0 PUSH1 0x25 DUP2 SWAP1 SSTORE POP PUSH1 0x0 PUSH1 0x2 PUSH1 0x15 PUSH2 0x100 EXP DUP2 SLOAD DUP2 PUSH1 0xFF MUL NOT AND SWAP1 DUP4 ISZERO ISZERO MUL OR SWAP1 SSTORE POP PUSH1 0x7 SLOAD PUSH1 0x6 DUP2 SWAP1 SSTORE POP PUSH2 0x1900 PUSH1 0x1E PUSH2 0x2268 SWAP2 SWAP1 PUSH2 0x328B JUMP JUMPDEST PUSH1 0x7 SLOAD PUSH2 0x2275 SWAP2 SWAP1 PUSH2 0x31CB JUMP JUMPDEST PUSH1 0x7 DUP2 SWAP1 SSTORE POP JUMP JUMPDEST DUP3 DUP1 SLOAD PUSH2 0x2289 SWAP1 PUSH2 0x33B0 JUMP JUMPDEST SWAP1 PUSH1 0x0 MSTORE PUSH1 0x20 PUSH1 0x0 KECCAK256 SWAP1 PUSH1 0x1F ADD PUSH1 0x20 SWAP1 DIV DUP2 ADD SWAP3 DUP3 PUSH2 0x22AB JUMPI PUSH1 0x0 DUP6 SSTORE PUSH2 0x22F2 JUMP JUMPDEST DUP3 PUSH1 0x1F LT PUSH2 0x22C4 JUMPI DUP1 MLOAD PUSH1 0xFF NOT AND DUP4 DUP1 ADD OR DUP6 SSTORE PUSH2 0x22F2 JUMP JUMPDEST DUP3 DUP1 ADD PUSH1 0x1 ADD DUP6 SSTORE DUP3 ISZERO PUSH2 0x22F2 JUMPI SWAP2 DUP3 ADD JUMPDEST DUP3 DUP2 GT ISZERO PUSH2 0x22F1 JUMPI DUP3 MLOAD DUP3 SSTORE SWAP2 PUSH1 0x20 ADD SWAP2 SWAP1 PUSH1 0x1 ADD SWAP1 PUSH2 0x22D6 JUMP JUMPDEST JUMPDEST POP SWAP1 POP PUSH2 0x22FF SWAP2 SWAP1 PUSH2 0x234E JUMP JUMPDEST POP SWAP1 JUMP JUMPDEST PUSH1 0x40 MLOAD DUP1 PUSH2 0x100 ADD PUSH1 0x40 MSTORE DUP1 PUSH1 0x8 SWAP1 JUMPDEST PUSH1 0x60 DUP2 MSTORE PUSH1 0x20 ADD SWAP1 PUSH1 0x1 SWAP1 SUB SWAP1 DUP2 PUSH2 0x2313 JUMPI SWAP1 POP POP SWAP1 JUMP JUMPDEST PUSH1 0x40 MLOAD DUP1 PUSH2 0x100 ADD PUSH1 0x40 MSTORE DUP1 PUSH1 0x8 SWAP1 PUSH1 0x20 DUP3 MUL DUP1 CALLDATASIZE DUP4 CALLDATACOPY DUP1 DUP3 ADD SWAP2 POP POP SWAP1 POP POP SWAP1 JUMP JUMPDEST JUMPDEST DUP1 DUP3 GT ISZERO PUSH2 0x2367 JUMPI PUSH1 0x0 DUP2 PUSH1 0x0 SWAP1 SSTORE POP PUSH1 0x1 ADD PUSH2 0x234F JUMP JUMPDEST POP SWAP1 JUMP JUMPDEST PUSH1 0x0 PUSH2 0x237E PUSH2 0x2379 DUP5 PUSH2 0x2FFC JUMP JUMPDEST PUSH2 0x2FD7 JUMP JUMPDEST SWAP1 POP DUP1 DUP3 DUP6 PUSH1 0x20 DUP7 MUL DUP3 ADD GT ISZERO PUSH2 0x2398 JUMPI PUSH2 0x2397 PUSH2 0x35C4 JUMP JUMPDEST JUMPDEST PUSH1 0x0 JUMPDEST DUP6 DUP2 LT ISZERO PUSH2 0x23C8 JUMPI DUP2 PUSH2 0x23AE DUP9 DUP3 PUSH2 0x25A2 JUMP JUMPDEST DUP5 MSTORE PUSH1 0x20 DUP5 ADD SWAP4 POP PUSH1 0x20 DUP4 ADD SWAP3 POP POP PUSH1 0x1 DUP2 ADD SWAP1 POP PUSH2 0x239B JUMP JUMPDEST POP POP POP SWAP4 SWAP3 POP POP POP JUMP JUMPDEST PUSH1 0x0 PUSH2 0x23E5 PUSH2 0x23E0 DUP5 PUSH2 0x3022 JUMP JUMPDEST PUSH2 0x2FD7 JUMP JUMPDEST SWAP1 POP DUP1 DUP4 DUP3 MSTORE PUSH1 0x20 DUP3 ADD SWAP1 POP DUP3 DUP6 PUSH1 0x20 DUP7 MUL DUP3 ADD GT ISZERO PUSH2 0x2408 JUMPI PUSH2 0x2407 PUSH2 0x35C4 JUMP JUMPDEST JUMPDEST PUSH1 0x0 JUMPDEST DUP6 DUP2 LT ISZERO PUSH2 0x2438 JUMPI DUP2 PUSH2 0x241E DUP9 DUP3 PUSH2 0x25A2 JUMP JUMPDEST DUP5 MSTORE PUSH1 0x20 DUP5 ADD SWAP4 POP PUSH1 0x20 DUP4 ADD SWAP3 POP POP PUSH1 0x1 DUP2 ADD SWAP1 POP PUSH2 0x240B JUMP JUMPDEST POP POP POP SWAP4 SWAP3 POP POP POP JUMP JUMPDEST PUSH1 0x0 PUSH2 0x2455 PUSH2 0x2450 DUP5 PUSH2 0x304E JUMP JUMPDEST PUSH2 0x2FD7 JUMP JUMPDEST SWAP1 POP DUP1 DUP3 DUP6 PUSH1 0x20 DUP7 MUL DUP3 ADD GT ISZERO PUSH2 0x246F JUMPI PUSH2 0x246E PUSH2 0x35C4 JUMP JUMPDEST JUMPDEST PUSH1 0x0 JUMPDEST DUP6 DUP2 LT ISZERO PUSH2 0x24BD JUMPI DUP2 CALLDATALOAD PUSH8 0xFFFFFFFFFFFFFFFF DUP2 GT ISZERO PUSH2 0x2495 JUMPI PUSH2 0x2494 PUSH2 0x35BF JUMP JUMPDEST JUMPDEST DUP1 DUP7 ADD PUSH2 0x24A2 DUP10 DUP3 PUSH2 0x25B7 JUMP JUMPDEST DUP6 MSTORE PUSH1 0x20 DUP6 ADD SWAP5 POP PUSH1 0x20 DUP5 ADD SWAP4 POP POP POP PUSH1 0x1 DUP2 ADD SWAP1 POP PUSH2 0x2472 JUMP JUMPDEST POP POP POP SWAP4 SWAP3 POP POP POP JUMP JUMPDEST PUSH1 0x0 PUSH2 0x24DA PUSH2 0x24D5 DUP5 PUSH2 0x3074 JUMP JUMPDEST PUSH2 0x2FD7 JUMP JUMPDEST SWAP1 POP DUP3 DUP2 MSTORE PUSH1 0x20 DUP2 ADD DUP5 DUP5 DUP5 ADD GT ISZERO PUSH2 0x24F6 JUMPI PUSH2 0x24F5 PUSH2 0x35C9 JUMP JUMPDEST JUMPDEST PUSH2 0x2501 DUP5 DUP3 DUP6 PUSH2 0x336E JUMP JUMPDEST POP SWAP4 SWAP3 POP POP POP JUMP JUMPDEST PUSH1 0x0 DUP2 CALLDATALOAD SWAP1 POP PUSH2 0x2518 DUP2 PUSH2 0x3A0C JUMP JUMPDEST SWAP3 SWAP2 POP POP JUMP JUMPDEST PUSH1 0x0 DUP3 PUSH1 0x1F DUP4 ADD SLT PUSH2 0x2533 JUMPI PUSH2 0x2532 PUSH2 0x35BF JUMP JUMPDEST JUMPDEST PUSH1 0x8 PUSH2 0x2540 DUP5 DUP3 DUP6 PUSH2 0x236B JUMP JUMPDEST SWAP2 POP POP SWAP3 SWAP2 POP POP JUMP JUMPDEST PUSH1 0x0 DUP3 PUSH1 0x1F DUP4 ADD SLT PUSH2 0x255E JUMPI PUSH2 0x255D PUSH2 0x35BF JUMP JUMPDEST JUMPDEST DUP2 CALLDATALOAD PUSH2 0x256E DUP5 DUP3 PUSH1 0x20 DUP7 ADD PUSH2 0x23D2 JUMP JUMPDEST SWAP2 POP POP SWAP3 SWAP2 POP POP JUMP JUMPDEST PUSH1 0x0 DUP3 PUSH1 0x1F DUP4 ADD SLT PUSH2 0x258C JUMPI PUSH2 0x258B PUSH2 0x35BF JUMP JUMPDEST JUMPDEST PUSH1 0x8 PUSH2 0x2599 DUP5 DUP3 DUP6 PUSH2 0x2442 JUMP JUMPDEST SWAP2 POP POP SWAP3 SWAP2 POP POP JUMP JUMPDEST PUSH1 0x0 DUP2 CALLDATALOAD SWAP1 POP PUSH2 0x25B1 DUP2 PUSH2 0x3A23 JUMP JUMPDEST SWAP3 SWAP2 POP POP JUMP JUMPDEST PUSH1 0x0 DUP3 PUSH1 0x1F DUP4 ADD SLT PUSH2 0x25CC JUMPI PUSH2 0x25CB PUSH2 0x35BF JUMP JUMPDEST JUMPDEST DUP2 CALLDATALOAD PUSH2 0x25DC DUP5 DUP3 PUSH1 0x20 DUP7 ADD PUSH2 0x24C7 JUMP JUMPDEST SWAP2 POP POP SWAP3 SWAP2 POP POP JUMP JUMPDEST PUSH1 0x0 DUP2 CALLDATALOAD SWAP1 POP PUSH2 0x25F4 DUP2 PUSH2 0x3A3A JUMP JUMPDEST SWAP3 SWAP2 POP POP JUMP JUMPDEST PUSH1 0x0 PUSH1 0x20 DUP3 DUP5 SUB SLT ISZERO PUSH2 0x2610 JUMPI PUSH2 0x260F PUSH2 0x35D3 JUMP JUMPDEST JUMPDEST PUSH1 0x0 PUSH2 0x261E DUP5 DUP3 DUP6 ADD PUSH2 0x2509 JUMP JUMPDEST SWAP2 POP POP SWAP3 SWAP2 POP POP JUMP JUMPDEST PUSH1 0x0 DUP1 PUSH1 0x0 DUP1 PUSH1 0x0 PUSH1 0xA0 DUP7 DUP9 SUB SLT ISZERO PUSH2 0x2643 JUMPI PUSH2 0x2642 PUSH2 0x35D3 JUMP JUMPDEST JUMPDEST PUSH1 0x0 PUSH2 0x2651 DUP9 DUP3 DUP10 ADD PUSH2 0x2509 JUMP JUMPDEST SWAP6 POP POP PUSH1 0x20 PUSH2 0x2662 DUP9 DUP3 DUP10 ADD PUSH2 0x25E5 JUMP JUMPDEST SWAP5 POP POP PUSH1 0x40 PUSH2 0x2673 DUP9 DUP3 DUP10 ADD PUSH2 0x25E5 JUMP JUMPDEST SWAP4 POP POP PUSH1 0x60 PUSH2 0x2684 DUP9 DUP3 DUP10 ADD PUSH2 0x25E5 JUMP JUMPDEST SWAP3 POP POP PUSH1 0x80 PUSH2 0x2695 DUP9 DUP3 DUP10 ADD PUSH2 0x25E5 JUMP JUMPDEST SWAP2 POP POP SWAP3 SWAP6 POP SWAP3 SWAP6 SWAP1 SWAP4 POP JUMP JUMPDEST PUSH1 0x0 PUSH1 0x20 DUP3 DUP5 SUB SLT ISZERO PUSH2 0x26B8 JUMPI PUSH2 0x26B7 PUSH2 0x35D3 JUMP JUMPDEST JUMPDEST PUSH1 0x0 DUP3 ADD CALLDATALOAD PUSH8 0xFFFFFFFFFFFFFFFF DUP2 GT ISZERO PUSH2 0x26D6 JUMPI PUSH2 0x26D5 PUSH2 0x35CE JUMP JUMPDEST JUMPDEST PUSH2 0x26E2 DUP5 DUP3 DUP6 ADD PUSH2 0x2549 JUMP JUMPDEST SWAP2 POP POP SWAP3 SWAP2 POP POP JUMP JUMPDEST PUSH1 0x0 DUP1 PUSH1 0x0 PUSH2 0x140 DUP5 DUP7 SUB SLT ISZERO PUSH2 0x2705 JUMPI PUSH2 0x2704 PUSH2 0x35D3 JUMP JUMPDEST JUMPDEST PUSH1 0x0 DUP5 ADD CALLDATALOAD PUSH8 0xFFFFFFFFFFFFFFFF DUP2 GT ISZERO PUSH2 0x2723 JUMPI PUSH2 0x2722 PUSH2 0x35CE JUMP JUMPDEST JUMPDEST PUSH2 0x272F DUP7 DUP3 DUP8 ADD PUSH2 0x2577 JUMP JUMPDEST SWAP4 POP POP PUSH1 0x20 PUSH2 0x2740 DUP7 DUP3 DUP8 ADD PUSH2 0x251E JUMP JUMPDEST SWAP3 POP POP PUSH2 0x120 DUP5 ADD CALLDATALOAD PUSH8 0xFFFFFFFFFFFFFFFF DUP2 GT ISZERO PUSH2 0x2762 JUMPI PUSH2 0x2761 PUSH2 0x35CE JUMP JUMPDEST JUMPDEST PUSH2 0x276E DUP7 DUP3 DUP8 ADD PUSH2 0x2577 JUMP JUMPDEST SWAP2 POP POP SWAP3 POP SWAP3 POP SWAP3 JUMP JUMPDEST PUSH1 0x0 PUSH1 0x20 DUP3 DUP5 SUB SLT ISZERO PUSH2 0x278E JUMPI PUSH2 0x278D PUSH2 0x35D3 JUMP JUMPDEST JUMPDEST PUSH1 0x0 PUSH2 0x279C DUP5 DUP3 DUP6 ADD PUSH2 0x25E5 JUMP JUMPDEST SWAP2 POP POP SWAP3 SWAP2 POP POP JUMP JUMPDEST PUSH1 0x0 PUSH2 0x27B1 DUP4 DUP4 PUSH2 0x28D9 JUMP JUMPDEST PUSH1 0x20 DUP4 ADD SWAP1 POP SWAP3 SWAP2 POP POP JUMP JUMPDEST PUSH1 0x0 PUSH2 0x27C9 DUP4 DUP4 PUSH2 0x28F7 JUMP JUMPDEST SWAP1 POP SWAP3 SWAP2 POP POP JUMP JUMPDEST PUSH2 0x27DA DUP2 PUSH2 0x32F7 JUMP JUMPDEST DUP3 MSTORE POP POP JUMP JUMPDEST PUSH2 0x27E9 DUP2 PUSH2 0x32E5 JUMP JUMPDEST DUP3 MSTORE POP POP JUMP JUMPDEST PUSH2 0x27F8 DUP2 PUSH2 0x30B9 JUMP JUMPDEST PUSH2 0x2802 DUP2 DUP5 PUSH2 0x30F4 JUMP JUMPDEST SWAP3 POP PUSH2 0x280D DUP3 PUSH2 0x30A5 JUMP JUMPDEST DUP1 PUSH1 0x0 JUMPDEST DUP4 DUP2 LT ISZERO PUSH2 0x283E JUMPI DUP2 MLOAD PUSH2 0x2825 DUP8 DUP3 PUSH2 0x27A5 JUMP JUMPDEST SWAP7 POP PUSH2 0x2830 DUP4 PUSH2 0x30DA JUMP JUMPDEST SWAP3 POP POP PUSH1 0x1 DUP2 ADD SWAP1 POP PUSH2 0x2811 JUMP JUMPDEST POP POP POP POP POP POP JUMP JUMPDEST PUSH1 0x0 PUSH2 0x2851 DUP3 PUSH2 0x30C4 JUMP JUMPDEST PUSH2 0x285B DUP2 DUP6 PUSH2 0x30FF JUMP JUMPDEST SWAP4 POP DUP4 PUSH1 0x20 DUP3 MUL DUP6 ADD PUSH2 0x286D DUP6 PUSH2 0x30AF JUMP JUMPDEST DUP1 PUSH1 0x0 JUMPDEST DUP6 DUP2 LT ISZERO PUSH2 0x28A9 JUMPI DUP5 DUP5 SUB DUP10 MSTORE DUP2 MLOAD PUSH2 0x288A DUP6 DUP3 PUSH2 0x27BD JUMP JUMPDEST SWAP5 POP PUSH2 0x2895 DUP4 PUSH2 0x30E7 JUMP JUMPDEST SWAP3 POP PUSH1 0x20 DUP11 ADD SWAP10 POP POP PUSH1 0x1 DUP2 ADD SWAP1 POP PUSH2 0x2871 JUMP JUMPDEST POP DUP3 SWAP8 POP DUP8 SWAP6 POP POP POP POP POP POP SWAP3 SWAP2 POP POP JUMP JUMPDEST PUSH2 0x28C4 DUP2 PUSH2 0x3309 JUMP JUMPDEST DUP3 MSTORE POP POP JUMP JUMPDEST PUSH2 0x28D3 DUP2 PUSH2 0x335C JUMP JUMPDEST DUP3 MSTORE POP POP JUMP JUMPDEST PUSH2 0x28E2 DUP2 PUSH2 0x3328 JUMP JUMPDEST DUP3 MSTORE POP POP JUMP JUMPDEST PUSH2 0x28F1 DUP2 PUSH2 0x3328 JUMP JUMPDEST DUP3 MSTORE POP POP JUMP JUMPDEST PUSH1 0x0 PUSH2 0x2902 DUP3 PUSH2 0x30CF JUMP JUMPDEST PUSH2 0x290C DUP2 DUP6 PUSH2 0x310A JUMP JUMPDEST SWAP4 POP PUSH2 0x291C DUP2 DUP6 PUSH1 0x20 DUP7 ADD PUSH2 0x337D JUMP JUMPDEST PUSH2 0x2925 DUP2 PUSH2 0x35D8 JUMP JUMPDEST DUP5 ADD SWAP2 POP POP SWAP3 SWAP2 POP POP JUMP JUMPDEST PUSH1 0x0 PUSH2 0x293B DUP3 PUSH2 0x30CF JUMP JUMPDEST PUSH2 0x2945 DUP2 DUP6 PUSH2 0x311B JUMP JUMPDEST SWAP4 POP PUSH2 0x2955 DUP2 DUP6 PUSH1 0x20 DUP7 ADD PUSH2 0x337D JUMP JUMPDEST PUSH2 0x295E DUP2 PUSH2 0x35D8 JUMP JUMPDEST DUP5 ADD SWAP2 POP POP SWAP3 SWAP2 POP POP JUMP JUMPDEST PUSH1 0x0 PUSH2 0x2974 DUP3 PUSH2 0x30CF JUMP JUMPDEST PUSH2 0x297E DUP2 DUP6 PUSH2 0x312C JUMP JUMPDEST SWAP4 POP PUSH2 0x298E DUP2 DUP6 PUSH1 0x20 DUP7 ADD PUSH2 0x337D JUMP JUMPDEST DUP1 DUP5 ADD SWAP2 POP POP SWAP3 SWAP2 POP POP JUMP JUMPDEST PUSH1 0x0 PUSH2 0x29A7 PUSH1 0x2 DUP4 PUSH2 0x312C JUMP JUMPDEST SWAP2 POP PUSH2 0x29B2 DUP3 PUSH2 0x35E9 JUMP JUMPDEST PUSH1 0x2 DUP3 ADD SWAP1 POP SWAP2 SWAP1 POP JUMP JUMPDEST PUSH1 0x0 PUSH2 0x29CA PUSH1 0x43 DUP4 PUSH2 0x311B JUMP JUMPDEST SWAP2 POP PUSH2 0x29D5 DUP3 PUSH2 0x3612 JUMP JUMPDEST PUSH1 0x60 DUP3 ADD SWAP1 POP SWAP2 SWAP1 POP JUMP JUMPDEST PUSH1 0x0 PUSH2 0x29ED PUSH1 0x36 DUP4 PUSH2 0x311B JUMP JUMPDEST SWAP2 POP PUSH2 0x29F8 DUP3 PUSH2 0x3687 JUMP JUMPDEST PUSH1 0x40 DUP3 ADD SWAP1 POP SWAP2 SWAP1 POP JUMP JUMPDEST PUSH1 0x0 PUSH2 0x2A10 PUSH1 0x2F DUP4 PUSH2 0x311B JUMP JUMPDEST SWAP2 POP PUSH2 0x2A1B DUP3 PUSH2 0x36D6 JUMP JUMPDEST PUSH1 0x40 DUP3 ADD SWAP1 POP SWAP2 SWAP1 POP JUMP JUMPDEST PUSH1 0x0 PUSH2 0x2A33 PUSH1 0x12 DUP4 PUSH2 0x311B JUMP JUMPDEST SWAP2 POP PUSH2 0x2A3E DUP3 PUSH2 0x3725 JUMP JUMPDEST PUSH1 0x20 DUP3 ADD SWAP1 POP SWAP2 SWAP1 POP JUMP JUMPDEST PUSH1 0x0 PUSH2 0x2A56 PUSH1 0x10 DUP4 PUSH2 0x311B JUMP JUMPDEST SWAP2 POP PUSH2 0x2A61 DUP3 PUSH2 0x374E JUMP JUMPDEST PUSH1 0x20 DUP3 ADD SWAP1 POP SWAP2 SWAP1 POP JUMP JUMPDEST PUSH1 0x0 PUSH2 0x2A79 PUSH1 0x22 DUP4 PUSH2 0x311B JUMP JUMPDEST SWAP2 POP PUSH2 0x2A84 DUP3 PUSH2 0x3777 JUMP JUMPDEST PUSH1 0x40 DUP3 ADD SWAP1 POP SWAP2 SWAP1 POP JUMP JUMPDEST PUSH1 0x0 PUSH2 0x2A9C PUSH1 0x2 DUP4 PUSH2 0x312C JUMP JUMPDEST SWAP2 POP PUSH2 0x2AA7 DUP3 PUSH2 0x37C6 JUMP JUMPDEST PUSH1 0x2 DUP3 ADD SWAP1 POP SWAP2 SWAP1 POP JUMP JUMPDEST PUSH1 0x0 PUSH2 0x2ABF PUSH1 0x26 DUP4 PUSH2 0x311B JUMP JUMPDEST SWAP2 POP PUSH2 0x2ACA DUP3 PUSH2 0x37EF JUMP JUMPDEST PUSH1 0x40 DUP3 ADD SWAP1 POP SWAP2 SWAP1 POP JUMP JUMPDEST PUSH1 0x0 PUSH2 0x2AE2 PUSH1 0x1 DUP4 PUSH2 0x312C JUMP JUMPDEST SWAP2 POP PUSH2 0x2AED DUP3 PUSH2 0x383E JUMP JUMPDEST PUSH1 0x1 DUP3 ADD SWAP1 POP SWAP2 SWAP1 POP JUMP JUMPDEST PUSH1 0x0 PUSH2 0x2B05 PUSH1 0x2 DUP4 PUSH2 0x312C JUMP JUMPDEST SWAP2 POP PUSH2 0x2B10 DUP3 PUSH2 0x3867 JUMP JUMPDEST PUSH1 0x2 DUP3 ADD SWAP1 POP SWAP2 SWAP1 POP JUMP JUMPDEST PUSH1 0x0 PUSH2 0x2B28 PUSH1 0x21 DUP4 PUSH2 0x311B JUMP JUMPDEST SWAP2 POP PUSH2 0x2B33 DUP3 PUSH2 0x3890 JUMP JUMPDEST PUSH1 0x40 DUP3 ADD SWAP1 POP SWAP2 SWAP1 POP JUMP JUMPDEST PUSH1 0x0 PUSH2 0x2B4B PUSH1 0x2E DUP4 PUSH2 0x311B JUMP JUMPDEST SWAP2 POP PUSH2 0x2B56 DUP3 PUSH2 0x38DF JUMP JUMPDEST PUSH1 0x40 DUP3 ADD SWAP1 POP SWAP2 SWAP1 POP JUMP JUMPDEST PUSH1 0x0 PUSH2 0x2B6E PUSH1 0x2 DUP4 PUSH2 0x312C JUMP JUMPDEST SWAP2 POP PUSH2 0x2B79 DUP3 PUSH2 0x392E JUMP JUMPDEST PUSH1 0x2 DUP3 ADD SWAP1 POP SWAP2 SWAP1 POP JUMP JUMPDEST PUSH1 0x0 PUSH2 0x2B91 PUSH1 0x1 DUP4 PUSH2 0x312C JUMP JUMPDEST SWAP2 POP PUSH2 0x2B9C DUP3 PUSH2 0x3957 JUMP JUMPDEST PUSH1 0x1 DUP3 ADD SWAP1 POP SWAP2 SWAP1 POP JUMP JUMPDEST PUSH1 0x0 PUSH2 0x2BB4 PUSH1 0x1D DUP4 PUSH2 0x311B JUMP JUMPDEST SWAP2 POP PUSH2 0x2BBF DUP3 PUSH2 0x3980 JUMP JUMPDEST PUSH1 0x20 DUP3 ADD SWAP1 POP SWAP2 SWAP1 POP JUMP JUMPDEST PUSH1 0x0 PUSH2 0x2BD7 PUSH1 0x25 DUP4 PUSH2 0x311B JUMP JUMPDEST SWAP2 POP PUSH2 0x2BE2 DUP3 PUSH2 0x39A9 JUMP JUMPDEST PUSH1 0x40 DUP3 ADD SWAP1 POP SWAP2 SWAP1 POP JUMP JUMPDEST PUSH2 0x2BF6 DUP2 PUSH2 0x3352 JUMP JUMPDEST DUP3 MSTORE POP POP JUMP JUMPDEST PUSH1 0x0 PUSH2 0x2C08 DUP3 DUP5 PUSH2 0x2969 JUMP JUMPDEST SWAP2 POP DUP2 SWAP1 POP SWAP3 SWAP2 POP POP JUMP JUMPDEST PUSH1 0x0 PUSH2 0x2C1E DUP3 PUSH2 0x299A JUMP JUMPDEST SWAP2 POP DUP2 SWAP1 POP SWAP2 SWAP1 POP JUMP JUMPDEST PUSH1 0x0 PUSH2 0x2C33 DUP3 PUSH2 0x2A8F JUMP JUMPDEST SWAP2 POP DUP2 SWAP1 POP SWAP2 SWAP1 POP JUMP JUMPDEST PUSH1 0x0 PUSH2 0x2C48 DUP3 PUSH2 0x2AD5 JUMP JUMPDEST SWAP2 POP DUP2 SWAP1 POP SWAP2 SWAP1 POP JUMP JUMPDEST PUSH1 0x0 PUSH2 0x2C5D DUP3 PUSH2 0x2AF8 JUMP JUMPDEST SWAP2 POP DUP2 SWAP1 POP SWAP2 SWAP1 POP JUMP JUMPDEST PUSH1 0x0 PUSH2 0x2C72 DUP3 PUSH2 0x2B61 JUMP JUMPDEST SWAP2 POP DUP2 SWAP1 POP SWAP2 SWAP1 POP JUMP JUMPDEST PUSH1 0x0 PUSH2 0x2C87 DUP3 PUSH2 0x2B84 JUMP JUMPDEST SWAP2 POP DUP2 SWAP1 POP SWAP2 SWAP1 POP JUMP JUMPDEST PUSH1 0x0 PUSH1 0x20 DUP3 ADD SWAP1 POP PUSH2 0x2CA6 PUSH1 0x0 DUP4 ADD DUP5 PUSH2 0x27E0 JUMP JUMPDEST SWAP3 SWAP2 POP POP JUMP JUMPDEST PUSH1 0x0 PUSH1 0x20 DUP3 ADD SWAP1 POP PUSH2 0x2CC1 PUSH1 0x0 DUP4 ADD DUP5 PUSH2 0x27D1 JUMP JUMPDEST SWAP3 SWAP2 POP POP JUMP JUMPDEST PUSH1 0x0 PUSH2 0x320 DUP3 ADD SWAP1 POP PUSH2 0x2CDD PUSH1 0x0 DUP4 ADD DUP15 PUSH2 0x27E0 JUMP JUMPDEST PUSH2 0x2CEA PUSH1 0x20 DUP4 ADD DUP14 PUSH2 0x27E0 JUMP JUMPDEST PUSH2 0x2CF7 PUSH1 0x40 DUP4 ADD DUP13 PUSH2 0x2BED JUMP JUMPDEST PUSH2 0x2D04 PUSH1 0x60 DUP4 ADD DUP12 PUSH2 0x2BED JUMP JUMPDEST PUSH2 0x2D11 PUSH1 0x80 DUP4 ADD DUP11 PUSH2 0x2BED JUMP JUMPDEST PUSH2 0x2D1E PUSH1 0xA0 DUP4 ADD DUP10 PUSH2 0x2BED JUMP JUMPDEST PUSH2 0x2D2B PUSH1 0xC0 DUP4 ADD DUP9 PUSH2 0x2BED JUMP JUMPDEST PUSH2 0x2D38 PUSH1 0xE0 DUP4 ADD DUP8 PUSH2 0x2BED JUMP JUMPDEST DUP2 DUP2 SUB PUSH2 0x100 DUP4 ADD MSTORE PUSH2 0x2D4B DUP2 DUP7 PUSH2 0x2846 JUMP JUMPDEST SWAP1 POP PUSH2 0x2D5B PUSH2 0x120 DUP4 ADD DUP6 PUSH2 0x27EF JUMP JUMPDEST PUSH2 0x2D69 PUSH2 0x220 DUP4 ADD DUP5 PUSH2 0x27EF JUMP JUMPDEST SWAP13 SWAP12 POP POP POP POP POP POP POP POP POP POP POP POP JUMP JUMPDEST PUSH1 0x0 PUSH1 0x20 DUP3 ADD SWAP1 POP PUSH2 0x2D8E PUSH1 0x0 DUP4 ADD DUP5 PUSH2 0x28BB JUMP JUMPDEST SWAP3 SWAP2 POP POP JUMP JUMPDEST PUSH1 0x0 PUSH1 0x40 DUP3 ADD SWAP1 POP PUSH2 0x2DA9 PUSH1 0x0 DUP4 ADD DUP5 PUSH2 0x28BB JUMP JUMPDEST DUP2 DUP2 SUB PUSH1 0x20 DUP4 ADD MSTORE PUSH2 0x2DBA DUP2 PUSH2 0x2A26 JUMP JUMPDEST SWAP1 POP SWAP3 SWAP2 POP POP JUMP JUMPDEST PUSH1 0x0 PUSH1 0x40 DUP3 ADD SWAP1 POP PUSH2 0x2DD7 PUSH1 0x0 DUP4 ADD DUP5 PUSH2 0x28BB JUMP JUMPDEST DUP2 DUP2 SUB PUSH1 0x20 DUP4 ADD MSTORE PUSH2 0x2DE8 DUP2 PUSH2 0x2A49 JUMP JUMPDEST SWAP1 POP SWAP3 SWAP2 POP POP JUMP JUMPDEST PUSH1 0x0 PUSH1 0x20 DUP3 ADD SWAP1 POP PUSH2 0x2E05 PUSH1 0x0 DUP4 ADD DUP5 PUSH2 0x28CA JUMP JUMPDEST SWAP3 SWAP2 POP POP JUMP JUMPDEST PUSH1 0x0 PUSH1 0x20 DUP3 ADD SWAP1 POP PUSH2 0x2E20 PUSH1 0x0 DUP4 ADD DUP5 PUSH2 0x28E8 JUMP JUMPDEST SWAP3 SWAP2 POP POP JUMP JUMPDEST PUSH1 0x0 PUSH1 0x20 DUP3 ADD SWAP1 POP DUP2 DUP2 SUB PUSH1 0x0 DUP4 ADD MSTORE PUSH2 0x2E40 DUP2 DUP5 PUSH2 0x2930 JUMP JUMPDEST SWAP1 POP SWAP3 SWAP2 POP POP JUMP JUMPDEST PUSH1 0x0 PUSH1 0x40 DUP3 ADD SWAP1 POP DUP2 DUP2 SUB PUSH1 0x0 DUP4 ADD MSTORE PUSH2 0x2E61 DUP2 PUSH2 0x29BD JUMP JUMPDEST SWAP1 POP PUSH2 0x2E70 PUSH1 0x20 DUP4 ADD DUP5 PUSH2 0x2BED JUMP JUMPDEST SWAP3 SWAP2 POP POP JUMP JUMPDEST PUSH1 0x0 PUSH1 0x20 DUP3 ADD SWAP1 POP DUP2 DUP2 SUB PUSH1 0x0 DUP4 ADD MSTORE PUSH2 0x2E8F DUP2 PUSH2 0x29E0 JUMP JUMPDEST SWAP1 POP SWAP2 SWAP1 POP JUMP JUMPDEST PUSH1 0x0 PUSH1 0x40 DUP3 ADD SWAP1 POP DUP2 DUP2 SUB PUSH1 0x0 DUP4 ADD MSTORE PUSH2 0x2EAF DUP2 PUSH2 0x2A03 JUMP JUMPDEST SWAP1 POP PUSH2 0x2EBE PUSH1 0x20 DUP4 ADD DUP5 PUSH2 0x2BED JUMP JUMPDEST SWAP3 SWAP2 POP POP JUMP JUMPDEST PUSH1 0x0 PUSH1 0x40 DUP3 ADD SWAP1 POP DUP2 DUP2 SUB PUSH1 0x0 DUP4 ADD MSTORE PUSH2 0x2EDD DUP2 PUSH2 0x2A6C JUMP JUMPDEST SWAP1 POP PUSH2 0x2EEC PUSH1 0x20 DUP4 ADD DUP5 PUSH2 0x2BED JUMP JUMPDEST SWAP3 SWAP2 POP POP JUMP JUMPDEST PUSH1 0x0 PUSH1 0x40 DUP3 ADD SWAP1 POP DUP2 DUP2 SUB PUSH1 0x0 DUP4 ADD MSTORE PUSH2 0x2F0B DUP2 PUSH2 0x2AB2 JUMP JUMPDEST SWAP1 POP PUSH2 0x2F1A PUSH1 0x20 DUP4 ADD DUP5 PUSH2 0x2BED JUMP JUMPDEST SWAP3 SWAP2 POP POP JUMP JUMPDEST PUSH1 0x0 PUSH1 0x40 DUP3 ADD SWAP1 POP DUP2 DUP2 SUB PUSH1 0x0 DUP4 ADD MSTORE PUSH2 0x2F39 DUP2 PUSH2 0x2B1B JUMP JUMPDEST SWAP1 POP PUSH2 0x2F48 PUSH1 0x20 DUP4 ADD DUP5 PUSH2 0x2BED JUMP JUMPDEST SWAP3 SWAP2 POP POP JUMP JUMPDEST PUSH1 0x0 PUSH1 0x40 DUP3 ADD SWAP1 POP DUP2 DUP2 SUB PUSH1 0x0 DUP4 ADD MSTORE PUSH2 0x2F67 DUP2 PUSH2 0x2B3E JUMP JUMPDEST SWAP1 POP PUSH2 0x2F76 PUSH1 0x20 DUP4 ADD DUP5 PUSH2 0x2BED JUMP JUMPDEST SWAP3 SWAP2 POP POP JUMP JUMPDEST PUSH1 0x0 PUSH1 0x20 DUP3 ADD SWAP1 POP DUP2 DUP2 SUB PUSH1 0x0 DUP4 ADD MSTORE PUSH2 0x2F95 DUP2 PUSH2 0x2BA7 JUMP JUMPDEST SWAP1 POP SWAP2 SWAP1 POP JUMP JUMPDEST PUSH1 0x0 PUSH1 0x20 DUP3 ADD SWAP1 POP DUP2 DUP2 SUB PUSH1 0x0 DUP4 ADD MSTORE PUSH2 0x2FB5 DUP2 PUSH2 0x2BCA JUMP JUMPDEST SWAP1 POP SWAP2 SWAP1 POP JUMP JUMPDEST PUSH1 0x0 PUSH1 0x20 DUP3 ADD SWAP1 POP PUSH2 0x2FD1 PUSH1 0x0 DUP4 ADD DUP5 PUSH2 0x2BED JUMP JUMPDEST SWAP3 SWAP2 POP POP JUMP JUMPDEST PUSH1 0x0 PUSH2 0x2FE1 PUSH2 0x2FF2 JUMP JUMPDEST SWAP1 POP PUSH2 0x2FED DUP3 DUP3 PUSH2 0x33E2 JUMP JUMPDEST SWAP2 SWAP1 POP JUMP JUMPDEST PUSH1 0x0 PUSH1 0x40 MLOAD SWAP1 POP SWAP1 JUMP JUMPDEST PUSH1 0x0 PUSH8 0xFFFFFFFFFFFFFFFF DUP3 GT ISZERO PUSH2 0x3017 JUMPI PUSH2 0x3016 PUSH2 0x3590 JUMP JUMPDEST JUMPDEST PUSH1 0x20 DUP3 MUL SWAP1 POP SWAP2 SWAP1 POP JUMP JUMPDEST PUSH1 0x0 PUSH8 0xFFFFFFFFFFFFFFFF DUP3 GT ISZERO PUSH2 0x303D JUMPI PUSH2 0x303C PUSH2 0x3590 JUMP JUMPDEST JUMPDEST PUSH1 0x20 DUP3 MUL SWAP1 POP PUSH1 0x20 DUP2 ADD SWAP1 POP SWAP2 SWAP1 POP JUMP JUMPDEST PUSH1 0x0 PUSH8 0xFFFFFFFFFFFFFFFF DUP3 GT ISZERO PUSH2 0x3069 JUMPI PUSH2 0x3068 PUSH2 0x3590 JUMP JUMPDEST JUMPDEST PUSH1 0x20 DUP3 MUL SWAP1 POP SWAP2 SWAP1 POP JUMP JUMPDEST PUSH1 0x0 PUSH8 0xFFFFFFFFFFFFFFFF DUP3 GT ISZERO PUSH2 0x308F JUMPI PUSH2 0x308E PUSH2 0x3590 JUMP JUMPDEST JUMPDEST PUSH2 0x3098 DUP3 PUSH2 0x35D8 JUMP JUMPDEST SWAP1 POP PUSH1 0x20 DUP2 ADD SWAP1 POP SWAP2 SWAP1 POP JUMP JUMPDEST PUSH1 0x0 DUP2 SWAP1 POP SWAP2 SWAP1 POP JUMP JUMPDEST PUSH1 0x0 DUP2 SWAP1 POP SWAP2 SWAP1 POP JUMP JUMPDEST PUSH1 0x0 PUSH1 0x8 SWAP1 POP SWAP2 SWAP1 POP JUMP JUMPDEST PUSH1 0x0 PUSH1 0x8 SWAP1 POP SWAP2 SWAP1 POP JUMP JUMPDEST PUSH1 0x0 DUP2 MLOAD SWAP1 POP SWAP2 SWAP1 POP JUMP JUMPDEST PUSH1 0x0 PUSH1 0x20 DUP3 ADD SWAP1 POP SWAP2 SWAP1 POP JUMP JUMPDEST PUSH1 0x0 PUSH1 0x20 DUP3 ADD SWAP1 POP SWAP2 SWAP1 POP JUMP JUMPDEST PUSH1 0x0 DUP2 SWAP1 POP SWAP3 SWAP2 POP POP JUMP JUMPDEST PUSH1 0x0 DUP2 SWAP1 POP SWAP3 SWAP2 POP POP JUMP JUMPDEST PUSH1 0x0 DUP3 DUP3 MSTORE PUSH1 0x20 DUP3 ADD SWAP1 POP SWAP3 SWAP2 POP POP JUMP JUMPDEST PUSH1 0x0 DUP3 DUP3 MSTORE PUSH1 0x20 DUP3 ADD SWAP1 POP SWAP3 SWAP2 POP POP JUMP JUMPDEST PUSH1 0x0 DUP2 SWAP1 POP SWAP3 SWAP2 POP POP JUMP JUMPDEST PUSH1 0x0 PUSH2 0x3142 DUP3 PUSH2 0x3328 JUMP JUMPDEST SWAP2 POP PUSH2 0x314D DUP4 PUSH2 0x3328 JUMP JUMPDEST SWAP3 POP DUP2 PUSH32 0x7FFFFFFFFFFFFFFFFFFFFFFFFFFFFFFFFFFFFFFFFFFFFFFFFFFFFFFFFFFFFFFF SUB DUP4 SGT PUSH1 0x0 DUP4 SLT ISZERO AND ISZERO PUSH2 0x3188 JUMPI PUSH2 0x3187 PUSH2 0x34A5 JUMP JUMPDEST JUMPDEST DUP2 PUSH32 0x8000000000000000000000000000000000000000000000000000000000000000 SUB DUP4 SLT PUSH1 0x0 DUP4 SLT AND ISZERO PUSH2 0x31C0 JUMPI PUSH2 0x31BF PUSH2 0x34A5 JUMP JUMPDEST JUMPDEST DUP3 DUP3 ADD SWAP1 POP SWAP3 SWAP2 POP POP JUMP JUMPDEST PUSH1 0x0 PUSH2 0x31D6 DUP3 PUSH2 0x3352 JUMP JUMPDEST SWAP2 POP PUSH2 0x31E1 DUP4 PUSH2 0x3352 JUMP JUMPDEST SWAP3 POP DUP3 PUSH32 0xFFFFFFFFFFFFFFFFFFFFFFFFFFFFFFFFFFFFFFFFFFFFFFFFFFFFFFFFFFFFFFFF SUB DUP3 GT ISZERO PUSH2 0x3216 JUMPI PUSH2 0x3215 PUSH2 0x34A5 JUMP JUMPDEST JUMPDEST DUP3 DUP3 ADD SWAP1 POP SWAP3 SWAP2 POP POP JUMP JUMPDEST PUSH1 0x0 PUSH2 0x322C DUP3 PUSH2 0x3328 JUMP JUMPDEST SWAP2 POP PUSH2 0x3237 DUP4 PUSH2 0x3328 JUMP JUMPDEST SWAP3 POP DUP3 PUSH2 0x3247 JUMPI PUSH2 0x3246 PUSH2 0x34D4 JUMP JUMPDEST JUMPDEST PUSH1 0x1 PUSH1 0x0 SUB DUP4 EQ PUSH32 0x8000000000000000000000000000000000000000000000000000000000000000 DUP4 EQ AND ISZERO PUSH2 0x3280 JUMPI PUSH2 0x327F PUSH2 0x34A5 JUMP JUMPDEST JUMPDEST DUP3 DUP3 SDIV SWAP1 POP SWAP3 SWAP2 POP POP JUMP JUMPDEST PUSH1 0x0 PUSH2 0x3296 DUP3 PUSH2 0x3352 JUMP JUMPDEST SWAP2 POP PUSH2 0x32A1 DUP4 PUSH2 0x3352 JUMP JUMPDEST SWAP3 POP DUP2 PUSH32 0xFFFFFFFFFFFFFFFFFFFFFFFFFFFFFFFFFFFFFFFFFFFFFFFFFFFFFFFFFFFFFFFF DIV DUP4 GT DUP3 ISZERO ISZERO AND ISZERO PUSH2 0x32DA JUMPI PUSH2 0x32D9 PUSH2 0x34A5 JUMP JUMPDEST JUMPDEST DUP3 DUP3 MUL SWAP1 POP SWAP3 SWAP2 POP POP JUMP JUMPDEST PUSH1 0x0 PUSH2 0x32F0 DUP3 PUSH2 0x3332 JUMP JUMPDEST SWAP1 POP SWAP2 SWAP1 POP JUMP JUMPDEST PUSH1 0x0 PUSH2 0x3302 DUP3 PUSH2 0x3332 JUMP JUMPDEST SWAP1 POP SWAP2 SWAP1 POP JUMP JUMPDEST PUSH1 0x0 DUP2 ISZERO ISZERO SWAP1 POP SWAP2 SWAP1 POP JUMP JUMPDEST PUSH1 0x0 DUP2 SWAP1 POP PUSH2 0x3323 DUP3 PUSH2 0x39F8 JUMP JUMPDEST SWAP2 SWAP1 POP JUMP JUMPDEST PUSH1 0x0 DUP2 SWAP1 POP SWAP2 SWAP1 POP JUMP JUMPDEST PUSH1 0x0 PUSH20 0xFFFFFFFFFFFFFFFFFFFFFFFFFFFFFFFFFFFFFFFF DUP3 AND SWAP1 POP SWAP2 SWAP1 POP JUMP JUMPDEST PUSH1 0x0 DUP2 SWAP1 POP SWAP2 SWAP1 POP JUMP JUMPDEST PUSH1 0x0 PUSH2 0x3367 DUP3 PUSH2 0x3315 JUMP JUMPDEST SWAP1 POP SWAP2 SWAP1 POP JUMP JUMPDEST DUP3 DUP2 DUP4 CALLDATACOPY PUSH1 0x0 DUP4 DUP4 ADD MSTORE POP POP POP JUMP JUMPDEST PUSH1 0x0 JUMPDEST DUP4 DUP2 LT ISZERO PUSH2 0x339B JUMPI DUP1 DUP3 ADD MLOAD DUP2 DUP5 ADD MSTORE PUSH1 0x20 DUP2 ADD SWAP1 POP PUSH2 0x3380 JUMP JUMPDEST DUP4 DUP2 GT ISZERO PUSH2 0x33AA JUMPI PUSH1 0x0 DUP5 DUP5 ADD MSTORE JUMPDEST POP POP POP POP JUMP JUMPDEST PUSH1 0x0 PUSH1 0x2 DUP3 DIV SWAP1 POP PUSH1 0x1 DUP3 AND DUP1 PUSH2 0x33C8 JUMPI PUSH1 0x7F DUP3 AND SWAP2 POP JUMPDEST PUSH1 0x20 DUP3 LT DUP2 EQ ISZERO PUSH2 0x33DC JUMPI PUSH2 0x33DB PUSH2 0x3532 JUMP JUMPDEST JUMPDEST POP SWAP2 SWAP1 POP JUMP JUMPDEST PUSH2 0x33EB DUP3 PUSH2 0x35D8 JUMP JUMPDEST DUP2 ADD DUP2 DUP2 LT PUSH8 0xFFFFFFFFFFFFFFFF DUP3 GT OR ISZERO PUSH2 0x340A JUMPI PUSH2 0x3409 PUSH2 0x3590 JUMP JUMPDEST JUMPDEST DUP1 PUSH1 0x40 MSTORE POP POP POP JUMP JUMPDEST PUSH1 0x0 PUSH2 0x341E DUP3 PUSH2 0x3328 JUMP JUMPDEST SWAP2 POP PUSH32 0x7FFFFFFFFFFFFFFFFFFFFFFFFFFFFFFFFFFFFFFFFFFFFFFFFFFFFFFFFFFFFFFF DUP3 EQ ISZERO PUSH2 0x3451 JUMPI PUSH2 0x3450 PUSH2 0x34A5 JUMP JUMPDEST JUMPDEST PUSH1 0x1 DUP3 ADD SWAP1 POP SWAP2 SWAP1 POP JUMP JUMPDEST PUSH1 0x0 PUSH2 0x3467 DUP3 PUSH2 0x3352 JUMP JUMPDEST SWAP2 POP PUSH32 0xFFFFFFFFFFFFFFFFFFFFFFFFFFFFFFFFFFFFFFFFFFFFFFFFFFFFFFFFFFFFFFFF DUP3 EQ ISZERO PUSH2 0x349A JUMPI PUSH2 0x3499 PUSH2 0x34A5 JUMP JUMPDEST JUMPDEST PUSH1 0x1 DUP3 ADD SWAP1 POP SWAP2 SWAP1 POP JUMP JUMPDEST PUSH32 0x4E487B7100000000000000000000000000000000000000000000000000000000 PUSH1 0x0 MSTORE PUSH1 0x11 PUSH1 0x4 MSTORE PUSH1 0x24 PUSH1 0x0 REVERT JUMPDEST PUSH32 0x4E487B7100000000000000000000000000000000000000000000000000000000 PUSH1 0x0 MSTORE PUSH1 0x12 PUSH1 0x4 MSTORE PUSH1 0x24 PUSH1 0x0 REVERT JUMPDEST PUSH32 0x4E487B7100000000000000000000000000000000000000000000000000000000 PUSH1 0x0 MSTORE PUSH1 0x21 PUSH1 0x4 MSTORE PUSH1 0x24 PUSH1 0x0 REVERT JUMPDEST PUSH32 0x4E487B7100000000000000000000000000000000000000000000000000000000 PUSH1 0x0 MSTORE PUSH1 0x22 PUSH1 0x4 MSTORE PUSH1 0x24 PUSH1 0x0 REVERT JUMPDEST PUSH32 0x4E487B7100000000000000000000000000000000000000000000000000000000 PUSH1 0x0 MSTORE PUSH1 0x32 PUSH1 0x4 MSTORE PUSH1 0x24 PUSH1 0x0 REVERT JUMPDEST PUSH32 0x4E487B7100000000000000000000000000000000000000000000000000000000 PUSH1 0x0 MSTORE PUSH1 0x41 PUSH1 0x4 MSTORE PUSH1 0x24 PUSH1 0x0 REVERT JUMPDEST PUSH1 0x0 DUP1 REVERT JUMPDEST PUSH1 0x0 DUP1 REVERT JUMPDEST PUSH1 0x0 DUP1 REVERT JUMPDEST PUSH1 0x0 DUP1 REVERT JUMPDEST PUSH1 0x0 DUP1 REVERT JUMPDEST PUSH1 0x0 PUSH1 0x1F NOT PUSH1 0x1F DUP4 ADD AND SWAP1 POP SWAP2 SWAP1 POP JUMP JUMPDEST PUSH32 0x3E3D000000000000000000000000000000000000000000000000000000000000 PUSH1 0x0 DUP3 ADD MSTORE POP JUMP JUMPDEST PUSH32 0x696E7369646520736574436F6E64732069662073746174656D656E742C206166 PUSH1 0x0 DUP3 ADD MSTORE PUSH32 0x74657220656E64496E697453746167652C2063757272656E7420737461676520 PUSH1 0x20 DUP3 ADD MSTORE PUSH32 0x69733A0000000000000000000000000000000000000000000000000000000000 PUSH1 0x40 DUP3 ADD MSTORE POP JUMP JUMPDEST PUSH32 0x43616E6E6F742063616C6C20746869732066756E6374696F6E20646972656374 PUSH1 0x0 DUP3 ADD MSTORE PUSH32 0x6C792C207573652056656E646F72466163746F72792E00000000000000000000 PUSH1 0x20 DUP3 ADD MSTORE POP JUMP JUMPDEST PUSH32 0x696E7369646520736574436F6E64732069662073746174656D656E742C206375 PUSH1 0x0 DUP3 ADD MSTORE PUSH32 0x7272656E742073746167652069733A0000000000000000000000000000000000 PUSH1 0x20 DUP3 ADD MSTORE POP JUMP JUMPDEST PUSH32 0x526566756E64696E67207061796D656E742E0000000000000000000000000000 PUSH1 0x0 DUP3 ADD MSTORE POP JUMP JUMPDEST PUSH32 0x53656E64696E67207061796D656E742E00000000000000000000000000000000 PUSH1 0x0 DUP3 ADD MSTORE POP JUMP JUMPDEST PUSH32 0x696E7369646520736574436F6E64732C2063757272656E742073746167652069 PUSH1 0x0 DUP3 ADD MSTORE PUSH32 0x733A000000000000000000000000000000000000000000000000000000000000 PUSH1 0x20 DUP3 ADD MSTORE POP JUMP JUMPDEST PUSH32 0x3D3D000000000000000000000000000000000000000000000000000000000000 PUSH1 0x0 DUP3 ADD MSTORE POP JUMP JUMPDEST PUSH32 0x696E7369646520656E64496E697453746167652C2063757272656E7420737461 PUSH1 0x0 DUP3 ADD MSTORE PUSH32 0x67652069733A0000000000000000000000000000000000000000000000000000 PUSH1 0x20 DUP3 ADD MSTORE POP JUMP JUMPDEST PUSH32 0x3C00000000000000000000000000000000000000000000000000000000000000 PUSH1 0x0 DUP3 ADD MSTORE POP JUMP JUMPDEST PUSH32 0x213D000000000000000000000000000000000000000000000000000000000000 PUSH1 0x0 DUP3 ADD MSTORE POP JUMP JUMPDEST PUSH32 0x696E7369646520617453746167652C2063757272656E74207374616765206973 PUSH1 0x0 DUP3 ADD MSTORE PUSH32 0x3A00000000000000000000000000000000000000000000000000000000000000 PUSH1 0x20 DUP3 ADD MSTORE POP JUMP JUMPDEST PUSH32 0x7374696C6C20696E7369646520617453746167652C20747279696E6720746F20 PUSH1 0x0 DUP3 ADD MSTORE PUSH32 0x636F6D7061726520697420746F3A000000000000000000000000000000000000 PUSH1 0x20 DUP3 ADD MSTORE POP JUMP JUMPDEST PUSH32 0x3C3D000000000000000000000000000000000000000000000000000000000000 PUSH1 0x0 DUP3 ADD MSTORE POP JUMP JUMPDEST PUSH32 0x3E00000000000000000000000000000000000000000000000000000000000000 PUSH1 0x0 DUP3 ADD MSTORE POP JUMP JUMPDEST PUSH32 0x4E6F742077697468696E207468652062696C6C696E6720706572696F64000000 PUSH1 0x0 DUP3 ADD MSTORE POP JUMP JUMPDEST PUSH32 0x436F6E7472616374206973206E6F7420696E2074686520726571756972656420 PUSH1 0x0 DUP3 ADD MSTORE PUSH32 0x7374617465000000000000000000000000000000000000000000000000000000 PUSH1 0x20 DUP3 ADD MSTORE POP JUMP JUMPDEST PUSH1 0x5 DUP2 LT PUSH2 0x3A09 JUMPI PUSH2 0x3A08 PUSH2 0x3503 JUMP JUMPDEST JUMPDEST POP JUMP JUMPDEST PUSH2 0x3A15 DUP2 PUSH2 0x32E5 JUMP JUMPDEST DUP2 EQ PUSH2 0x3A20 JUMPI PUSH1 0x0 DUP1 REVERT JUMPDEST POP JUMP JUMPDEST PUSH2 0x3A2C DUP2 PUSH2 0x3328 JUMP JUMPDEST DUP2 EQ PUSH2 0x3A37 JUMPI PUSH1 0x0 DUP1 REVERT JUMPDEST POP JUMP JUMPDEST PUSH2 0x3A43 DUP2 PUSH2 0x3352 JUMP JUMPDEST DUP2 EQ PUSH2 0x3A4E JUMPI PUSH1 0x0 DUP1 REVERT JUMPDEST POP JUMP INVALID LOG2 PUSH5 0x6970667358 0x22 SLT KECCAK256 0xA7 0xE1 0xAA 0xF6 CODESIZE REVERT OR 0xC6 0xF8 0xC DIV DUP16 0xBD DUP5 0x4F 0xAD GT COINBASE DUP16 PUSH7 0xE5F6EFA951962D JUMP BALANCE GT DUP2 SELFDESTRUCT PUSH5 0x736F6C6343 STOP ADDMOD MOD STOP CALLER "
    },
    "gasEstimates": {
      "creation": {
        "codeDepositCost": "2996600",
        "executionCost": "61922",
        "totalCost": "3058522"
      },
      "external": {
        "admin()": "2577",
        "amount()": "2540",
        "approve()": "infinite",
        "balanceOf()": "406",
        "client()": "2583",
        "contractHash()": "2497",
        "destroy()": "infinite",
        "endInitStage()": "infinite",
        "expiryDate()": "2541",
        "getDetails()": "infinite",
        "init(address,uint256,uint256,uint256,uint256)": "infinite",
        "isSatisfied()": "infinite",
        "names(uint256)": "infinite",
        "nextBillingDate()": "2497",
        "operators(uint256)": "2820",
        "paid()": "2611",
        "payee()": "2559",
        "payeeApproved()": "2566",
        "prevBillingDate()": "2497",
        "receiveServiceData(int256[])": "infinite",
        "receiveServiceDataBypass(int256[])": "infinite",
        "satisfied()": "2633",
        "setActive()": "infinite",
        "setConds(string[8],int256[8],string[8])": "infinite",
        "setInactive()": "infinite",
        "setPayee(address)": "24768",
        "stage()": "2627",
        "startDate()": "2476",
        "storePayment()": "infinite",
        "values(uint256)": "2776"
      },
      "internal": {
        "calcDate(uint256)": "infinite",
        "checkEqual(int256,int256,int256)": "100",
        "checkGreater(int256,int256,int256)": "260",
        "checkLess(int256,int256,int256)": "260",
        "condValid(int256,int256,int256)": "430",
        "initOperators()": "infinite",
        "payVendor()": "infinite",
        "refund()": "infinite",
        "setNewDates()": "infinite"
      }
    },
    "methodIdentifiers": {
      "admin()": "f851a440",
      "amount()": "aa8c217c",
      "approve()": "12424e3f",
      "balanceOf()": "722713f7",
      "client()": "109e94cf",
      "contractHash()": "904c6094",
      "destroy()": "83197ef0",
      "endInitStage()": "9503fe3d",
      "expiryDate()": "516dde43",
      "getDetails()": "fbbf93a0",
      "init(address,uint256,uint256,uint256,uint256)": "9a730617",
      "isSatisfied()": "a2c14ad3",
      "names(uint256)": "4622ab03",
      "nextBillingDate()": "43885314",
      "operators(uint256)": "e28d4906",
      "paid()": "295b4e17",
      "payee()": "ae90b213",
      "payeeApproved()": "97c0bba1",
      "prevBillingDate()": "25419c24",
      "receiveServiceData(int256[])": "21ce5afd",
      "receiveServiceDataBypass(int256[])": "e9d94c58",
      "satisfied()": "3a40f3b2",
      "setActive()": "760a8c2a",
      "setConds(string[8],int256[8],string[8])": "fadeaa59",
      "setInactive()": "f1b9ee24",
      "setPayee(address)": "410459ad",
      "stage()": "c040e6b8",
      "startDate()": "0b97bc86",
      "storePayment()": "84ac4446",
      "values(uint256)": "5e383d21"
    }
  },
  "storageLayout": {
    "storage": [
      {
        "astId": 41,
        "contract": "Vendor.sol:Vendor",
        "label": "admin",
        "offset": 0,
        "slot": "0",
        "type": "t_address"
      },
      {
        "astId": 43,
        "contract": "Vendor.sol:Vendor",
        "label": "client",
        "offset": 0,
        "slot": "1",
        "type": "t_address_payable"
      },
      {
        "astId": 45,
        "contract": "Vendor.sol:Vendor",
        "label": "payee",
        "offset": 0,
        "slot": "2",
        "type": "t_address_payable"
      },
      {
        "astId": 47,
        "contract": "Vendor.sol:Vendor",
        "label": "payeeApproved",
        "offset": 20,
        "slot": "2",
        "type": "t_bool"
      },
      {
        "astId": 49,
        "contract": "Vendor.sol:Vendor",
        "label": "paid",
        "offset": 21,
        "slot": "2",
        "type": "t_bool"
      },
      {
        "astId": 51,
        "contract": "Vendor.sol:Vendor",
        "label": "startDate",
        "offset": 0,
        "slot": "3",
        "type": "t_uint256"
      },
      {
        "astId": 53,
        "contract": "Vendor.sol:Vendor",
        "label": "expiryDate",
        "offset": 0,
        "slot": "4",
        "type": "t_uint256"
      },
      {
        "astId": 55,
        "contract": "Vendor.sol:Vendor",
        "label": "amount",
        "offset": 0,
        "slot": "5",
        "type": "t_uint256"
      },
      {
        "astId": 57,
        "contract": "Vendor.sol:Vendor",
        "label": "prevBillingDate",
        "offset": 0,
        "slot": "6",
        "type": "t_uint256"
      },
      {
        "astId": 59,
        "contract": "Vendor.sol:Vendor",
        "label": "nextBillingDate",
        "offset": 0,
        "slot": "7",
        "type": "t_uint256"
      },
      {
        "astId": 61,
        "contract": "Vendor.sol:Vendor",
        "label": "contractHash",
        "offset": 0,
        "slot": "8",
        "type": "t_uint256"
      },
      {
        "astId": 72,
        "contract": "Vendor.sol:Vendor",
        "label": "stage",
        "offset": 0,
        "slot": "9",
        "type": "t_enum(Stages)67"
      },
      {
        "astId": 75,
        "contract": "Vendor.sol:Vendor",
        "label": "satisfied",
        "offset": 1,
        "slot": "9",
        "type": "t_bool"
      },
      {
        "astId": 79,
        "contract": "Vendor.sol:Vendor",
        "label": "names",
        "offset": 0,
        "slot": "10",
        "type": "t_array(t_string_storage)8_storage"
      },
      {
        "astId": 83,
        "contract": "Vendor.sol:Vendor",
        "label": "values",
        "offset": 0,
        "slot": "18",
        "type": "t_array(t_int256)8_storage"
      },
      {
        "astId": 87,
        "contract": "Vendor.sol:Vendor",
        "label": "operators",
        "offset": 0,
        "slot": "26",
        "type": "t_array(t_int256)8_storage"
      },
      {
        "astId": 91,
        "contract": "Vendor.sol:Vendor",
        "label": "convert",
        "offset": 0,
        "slot": "34",
        "type": "t_mapping(t_string_memory_ptr,t_int256)"
      },
      {
        "astId": 94,
        "contract": "Vendor.sol:Vendor",
        "label": "conditionCount",
        "offset": 0,
        "slot": "35",
        "type": "t_uint256"
      },
      {
        "astId": 101,
        "contract": "Vendor.sol:Vendor",
        "label": "cumulative",
        "offset": 0,
        "slot": "36",
        "type": "t_mapping(t_uint256,t_int256)"
      },
      {
        "astId": 104,
        "contract": "Vendor.sol:Vendor",
        "label": "count",
        "offset": 0,
        "slot": "37",
        "type": "t_int256"
      }
    ],
    "types": {
      "t_address": {
        "encoding": "inplace",
        "label": "address",
        "numberOfBytes": "20"
      },
      "t_address_payable": {
        "encoding": "inplace",
        "label": "address payable",
        "numberOfBytes": "20"
      },
      "t_array(t_int256)8_storage": {
        "base": "t_int256",
        "encoding": "inplace",
        "label": "int256[8]",
        "numberOfBytes": "256"
      },
      "t_array(t_string_storage)8_storage": {
        "base": "t_string_storage",
        "encoding": "inplace",
        "label": "string[8]",
        "numberOfBytes": "256"
      },
      "t_bool": {
        "encoding": "inplace",
        "label": "bool",
        "numberOfBytes": "1"
      },
      "t_enum(Stages)67": {
        "encoding": "inplace",
        "label": "enum Vendor.Stages",
        "numberOfBytes": "1"
      },
      "t_int256": {
        "encoding": "inplace",
        "label": "int256",
        "numberOfBytes": "32"
      },
      "t_mapping(t_string_memory_ptr,t_int256)": {
        "encoding": "mapping",
        "key": "t_string_memory_ptr",
        "label": "mapping(string => int256)",
        "numberOfBytes": "32",
        "value": "t_int256"
      },
      "t_mapping(t_uint256,t_int256)": {
        "encoding": "mapping",
        "key": "t_uint256",
        "label": "mapping(uint256 => int256)",
        "numberOfBytes": "32",
        "value": "t_int256"
      },
      "t_string_memory_ptr": {
        "encoding": "bytes",
        "label": "string",
        "numberOfBytes": "32"
      },
      "t_string_storage": {
        "encoding": "bytes",
        "label": "string",
        "numberOfBytes": "32"
      },
      "t_uint256": {
        "encoding": "inplace",
        "label": "uint256",
        "numberOfBytes": "32"
      }
    }
  },
  "userdoc": {
    "kind": "user",
    "methods": {},
    "notice": "Contract that handles automated payment, considering if conditions are satisfied.",
    "version": 1
  }
}