{
  "abi": [
    {
      "inputs": [
        {
          "internalType": "address",
          "name": "_implementation",
          "type": "address"
        }
      ],
      "stateMutability": "nonpayable",
      "type": "constructor"
    },
    {
      "anonymous": false,
      "inputs": [
        {
          "indexed": false,
          "internalType": "address",
          "name": "_approved",
          "type": "address"
        },
        {
          "indexed": false,
          "internalType": "int256",
          "name": "index",
          "type": "int256"
        }
      ],
      "name": "ApprovedContract",
      "type": "event"
    },
    {
      "anonymous": false,
      "inputs": [
        {
          "indexed": false,
          "internalType": "address",
          "name": "_cloned",
          "type": "address"
        }
      ],
      "name": "ClonedContract",
      "type": "event"
    },
    {
      "inputs": [
        {
          "internalType": "address",
          "name": "_contract",
          "type": "address"
        }
      ],
      "name": "approve",
      "outputs": [],
      "stateMutability": "nonpayable",
      "type": "function"
    },
    {
      "inputs": [
        {
          "internalType": "uint256",
          "name": "",
          "type": "uint256"
        }
      ],
      "name": "approved",
      "outputs": [
        {
          "internalType": "address",
          "name": "",
          "type": "address"
        }
      ],
      "stateMutability": "view",
      "type": "function"
    },
    {
      "inputs": [
        {
          "internalType": "address",
          "name": "_client",
          "type": "address"
        },
        {
          "internalType": "address",
          "name": "_payee",
          "type": "address"
        },
        {
          "internalType": "uint256",
          "name": "_creationDate",
          "type": "uint256"
        },
        {
          "internalType": "uint256",
          "name": "_expiryDate",
          "type": "uint256"
        },
        {
          "internalType": "uint256",
          "name": "_prevBillingDate",
          "type": "uint256"
        },
        {
          "internalType": "uint256",
          "name": "_nextBillingDate",
          "type": "uint256"
        },
        {
          "internalType": "uint256",
          "name": "_contractHash",
          "type": "uint256"
        },
        {
          "internalType": "uint256",
          "name": "_amount",
          "type": "uint256"
        },
        {
          "internalType": "int256",
          "name": "index",
          "type": "int256"
        }
      ],
      "name": "createVendor",
      "outputs": [
        {
          "internalType": "address",
          "name": "",
          "type": "address"
        }
      ],
      "stateMutability": "nonpayable",
      "type": "function"
    }
  ],
  "devdoc": {
    "kind": "dev",
    "methods": {},
    "title": "Factory contract that creates new contracts with different conditions",
    "version": 1
  },
  "evm": {
    "assembly": "    /* \"VendorFactory.sol\":210:2289  contract VendorFactory is CloneFactory {... */\n  mstore(0x40, 0x80)\n    /* \"VendorFactory.sol\":598:778  constructor(address _implementation) {... */\n  callvalue\n  dup1\n  iszero\n  tag_1\n  jumpi\n  0x00\n  dup1\n  revert\ntag_1:\n  pop\n  mload(0x40)\n  sub(codesize, bytecodeSize)\n  dup1\n  bytecodeSize\n  dup4\n  codecopy\n  dup2\n  dup2\n  add\n  0x40\n  mstore\n  dup2\n  add\n  swap1\n  tag_2\n  swap2\n  swap1\n  tag_3\n  jump\t// in\ntag_2:\n    /* \"VendorFactory.sol\":662:677  _implementation */\n  dup1\n    /* \"VendorFactory.sol\":645:659  implementation */\n  0x01\n  0x00\n    /* \"VendorFactory.sol\":645:677  implementation = _implementation */\n  0x0100\n  exp\n  dup2\n  sload\n  dup2\n  0xffffffffffffffffffffffffffffffffffffffff\n  mul\n  not\n  and\n  swap1\n  dup4\n  0xffffffffffffffffffffffffffffffffffffffff\n  and\n  mul\n  or\n  swap1\n  sstore\n  pop\n    /* \"VendorFactory.sol\":761:771  msg.sender */\n  caller\n    /* \"VendorFactory.sol\":753:758  admin */\n  0x00\n  dup1\n    /* \"VendorFactory.sol\":753:771  admin = msg.sender */\n  0x0100\n  exp\n  dup2\n  sload\n  dup2\n  0xffffffffffffffffffffffffffffffffffffffff\n  mul\n  not\n  and\n  swap1\n  dup4\n  0xffffffffffffffffffffffffffffffffffffffff\n  and\n  mul\n  or\n  swap1\n  sstore\n  pop\n    /* \"VendorFactory.sol\":598:778  constructor(address _implementation) {... */\n  pop\n    /* \"VendorFactory.sol\":210:2289  contract VendorFactory is CloneFactory {... */\n  jump(tag_6)\n    /* \"#utility.yul\":7:150   */\ntag_8:\n    /* \"#utility.yul\":64:69   */\n  0x00\n    /* \"#utility.yul\":95:101   */\n  dup2\n    /* \"#utility.yul\":89:102   */\n  mload\n    /* \"#utility.yul\":80:102   */\n  swap1\n  pop\n    /* \"#utility.yul\":111:144   */\n  tag_10\n    /* \"#utility.yul\":138:143   */\n  dup2\n    /* \"#utility.yul\":111:144   */\n  tag_11\n  jump\t// in\ntag_10:\n    /* \"#utility.yul\":70:150   */\n  swap3\n  swap2\n  pop\n  pop\n  jump\t// out\n    /* \"#utility.yul\":156:507   */\ntag_3:\n    /* \"#utility.yul\":226:232   */\n  0x00\n    /* \"#utility.yul\":275:277   */\n  0x20\n    /* \"#utility.yul\":263:272   */\n  dup3\n    /* \"#utility.yul\":254:261   */\n  dup5\n    /* \"#utility.yul\":250:273   */\n  sub\n    /* \"#utility.yul\":246:278   */\n  slt\n    /* \"#utility.yul\":243:245   */\n  iszero\n  tag_13\n  jumpi\n    /* \"#utility.yul\":281:360   */\n  tag_14\n  tag_15\n  jump\t// in\ntag_14:\n    /* \"#utility.yul\":243:245   */\ntag_13:\n    /* \"#utility.yul\":401:402   */\n  0x00\n    /* \"#utility.yul\":426:490   */\n  tag_16\n    /* \"#utility.yul\":482:489   */\n  dup5\n    /* \"#utility.yul\":473:479   */\n  dup3\n    /* \"#utility.yul\":462:471   */\n  dup6\n    /* \"#utility.yul\":458:480   */\n  add\n    /* \"#utility.yul\":426:490   */\n  tag_8\n  jump\t// in\ntag_16:\n    /* \"#utility.yul\":416:490   */\n  swap2\n  pop\n    /* \"#utility.yul\":372:500   */\n  pop\n    /* \"#utility.yul\":233:507   */\n  swap3\n  swap2\n  pop\n  pop\n  jump\t// out\n    /* \"#utility.yul\":594:690   */\ntag_19:\n    /* \"#utility.yul\":631:638   */\n  0x00\n    /* \"#utility.yul\":660:684   */\n  tag_21\n    /* \"#utility.yul\":678:683   */\n  dup3\n    /* \"#utility.yul\":660:684   */\n  tag_22\n  jump\t// in\ntag_21:\n    /* \"#utility.yul\":649:684   */\n  swap1\n  pop\n    /* \"#utility.yul\":639:690   */\n  swap2\n  swap1\n  pop\n  jump\t// out\n    /* \"#utility.yul\":696:822   */\ntag_22:\n    /* \"#utility.yul\":733:740   */\n  0x00\n    /* \"#utility.yul\":773:815   */\n  0xffffffffffffffffffffffffffffffffffffffff\n    /* \"#utility.yul\":766:771   */\n  dup3\n    /* \"#utility.yul\":762:816   */\n  and\n    /* \"#utility.yul\":751:816   */\n  swap1\n  pop\n    /* \"#utility.yul\":741:822   */\n  swap2\n  swap1\n  pop\n  jump\t// out\n    /* \"#utility.yul\":951:1068   */\ntag_15:\n    /* \"#utility.yul\":1060:1061   */\n  0x00\n    /* \"#utility.yul\":1057:1058   */\n  dup1\n    /* \"#utility.yul\":1050:1062   */\n  revert\n    /* \"#utility.yul\":1074:1196   */\ntag_11:\n    /* \"#utility.yul\":1147:1171   */\n  tag_28\n    /* \"#utility.yul\":1165:1170   */\n  dup2\n    /* \"#utility.yul\":1147:1171   */\n  tag_19\n  jump\t// in\ntag_28:\n    /* \"#utility.yul\":1140:1145   */\n  dup2\n    /* \"#utility.yul\":1137:1172   */\n  eq\n    /* \"#utility.yul\":1127:1129   */\n  tag_29\n  jumpi\n    /* \"#utility.yul\":1186:1187   */\n  0x00\n    /* \"#utility.yul\":1183:1184   */\n  dup1\n    /* \"#utility.yul\":1176:1188   */\n  revert\n    /* \"#utility.yul\":1127:1129   */\ntag_29:\n    /* \"#utility.yul\":1117:1196   */\n  pop\n  jump\t// out\n    /* \"VendorFactory.sol\":210:2289  contract VendorFactory is CloneFactory {... */\ntag_6:\n  dataSize(sub_0)\n  dup1\n  dataOffset(sub_0)\n  0x00\n  codecopy\n  0x00\n  return\nstop\n\nsub_0: assembly {\n        /* \"VendorFactory.sol\":210:2289  contract VendorFactory is CloneFactory {... */\n      mstore(0x40, 0x80)\n      callvalue\n      dup1\n      iszero\n      tag_1\n      jumpi\n      0x00\n      dup1\n      revert\n    tag_1:\n      pop\n      jumpi(tag_2, lt(calldatasize, 0x04))\n      shr(0xe0, calldataload(0x00))\n      dup1\n      0x7d4061e6\n      eq\n      tag_3\n      jumpi\n      dup1\n      0x8e166a2a\n      eq\n      tag_4\n      jumpi\n      dup1\n      0xdaea85c5\n      eq\n      tag_5\n      jumpi\n    tag_2:\n      0x00\n      dup1\n      revert\n        /* \"VendorFactory.sol\":319:344  address[] public approved */\n    tag_3:\n      tag_6\n      0x04\n      dup1\n      calldatasize\n      sub\n      dup2\n      add\n      swap1\n      tag_7\n      swap2\n      swap1\n      tag_8\n      jump\t// in\n    tag_7:\n      tag_9\n      jump\t// in\n    tag_6:\n      mload(0x40)\n      tag_10\n      swap2\n      swap1\n      tag_11\n      jump\t// in\n    tag_10:\n      mload(0x40)\n      dup1\n      swap2\n      sub\n      swap1\n      return\n        /* \"VendorFactory.sol\":784:1399  function createVendor(address _client, address _payee, uint _creationDate, uint _expiryDate, uint _prevBillingDate, uint _nextBillingDate,... */\n    tag_4:\n      tag_12\n      0x04\n      dup1\n      calldatasize\n      sub\n      dup2\n      add\n      swap1\n      tag_13\n      swap2\n      swap1\n      tag_14\n      jump\t// in\n    tag_13:\n      tag_15\n      jump\t// in\n    tag_12:\n      mload(0x40)\n      tag_16\n      swap2\n      swap1\n      tag_11\n      jump\t// in\n    tag_16:\n      mload(0x40)\n      dup1\n      swap2\n      sub\n      swap1\n      return\n        /* \"VendorFactory.sol\":1405:2164  function approve(address _contract) external {... */\n    tag_5:\n      tag_17\n      0x04\n      dup1\n      calldatasize\n      sub\n      dup2\n      add\n      swap1\n      tag_18\n      swap2\n      swap1\n      tag_19\n      jump\t// in\n    tag_18:\n      tag_20\n      jump\t// in\n    tag_17:\n      stop\n        /* \"VendorFactory.sol\":319:344  address[] public approved */\n    tag_9:\n      0x02\n      dup2\n      dup2\n      sload\n      dup2\n      lt\n      tag_21\n      jumpi\n      0x00\n      dup1\n      revert\n    tag_21:\n      swap1\n      0x00\n      mstore\n      keccak256(0x00, 0x20)\n      add\n      0x00\n      swap2\n      pop\n      sload\n      swap1\n      0x0100\n      exp\n      swap1\n      div\n      0xffffffffffffffffffffffffffffffffffffffff\n      and\n      dup2\n      jump\t// out\n        /* \"VendorFactory.sol\":784:1399  function createVendor(address _client, address _payee, uint _creationDate, uint _expiryDate, uint _prevBillingDate, uint _nextBillingDate,... */\n    tag_15:\n        /* \"VendorFactory.sol\":1024:1031  address */\n      0x00\n        /* \"VendorFactory.sol\":2223:2228  admin */\n      dup1\n      0x00\n      swap1\n      sload\n      swap1\n      0x0100\n      exp\n      swap1\n      div\n      0xffffffffffffffffffffffffffffffffffffffff\n      and\n        /* \"VendorFactory.sol\":2209:2228  msg.sender == admin */\n      0xffffffffffffffffffffffffffffffffffffffff\n      and\n        /* \"VendorFactory.sol\":2209:2219  msg.sender */\n      caller\n        /* \"VendorFactory.sol\":2209:2228  msg.sender == admin */\n      0xffffffffffffffffffffffffffffffffffffffff\n      and\n      eq\n        /* \"VendorFactory.sol\":2201:2269  require(msg.sender == admin, 'Only the admin can use this function') */\n      tag_24\n      jumpi\n      mload(0x40)\n      0x08c379a000000000000000000000000000000000000000000000000000000000\n      dup2\n      mstore\n      0x04\n      add\n      tag_25\n      swap1\n      tag_26\n      jump\t// in\n    tag_25:\n      mload(0x40)\n      dup1\n      swap2\n      sub\n      swap1\n      revert\n    tag_24:\n        /* \"VendorFactory.sol\":1044:1061  address newVendor */\n      0x00\n        /* \"VendorFactory.sol\":1064:1091  createClone(implementation) */\n      tag_28\n        /* \"VendorFactory.sol\":1076:1090  implementation */\n      0x01\n      0x00\n      swap1\n      sload\n      swap1\n      0x0100\n      exp\n      swap1\n      div\n      0xffffffffffffffffffffffffffffffffffffffff\n      and\n        /* \"VendorFactory.sol\":1064:1075  createClone */\n      tag_29\n        /* \"VendorFactory.sol\":1064:1091  createClone(implementation) */\n      jump\t// in\n    tag_28:\n        /* \"VendorFactory.sol\":1044:1091  address newVendor = createClone(implementation) */\n      swap1\n      pop\n        /* \"VendorFactory.sol\":1108:1117  newVendor */\n      dup1\n        /* \"VendorFactory.sol\":1101:1123  Vendor(newVendor).init */\n      0xffffffffffffffffffffffffffffffffffffffff\n      and\n      0x0d4b8cb9\n        /* \"VendorFactory.sol\":1124:1131  _client */\n      dup13\n        /* \"VendorFactory.sol\":1133:1139  _payee */\n      dup13\n        /* \"VendorFactory.sol\":1141:1154  _creationDate */\n      dup13\n        /* \"VendorFactory.sol\":1156:1167  _expiryDate */\n      dup13\n        /* \"VendorFactory.sol\":1169:1185  _prevBillingDate */\n      dup13\n        /* \"VendorFactory.sol\":1187:1203  _nextBillingDate */\n      dup13\n        /* \"VendorFactory.sol\":1205:1218  _contractHash */\n      dup13\n        /* \"VendorFactory.sol\":1220:1227  _amount */\n      dup13\n        /* \"VendorFactory.sol\":1101:1228  Vendor(newVendor).init(_client, _payee, _creationDate, _expiryDate, _prevBillingDate, _nextBillingDate, _contractHash, _amount) */\n      mload(0x40)\n      dup10\n      0xffffffff\n      and\n      0xe0\n      shl\n      dup2\n      mstore\n      0x04\n      add\n      tag_30\n      swap9\n      swap8\n      swap7\n      swap6\n      swap5\n      swap4\n      swap3\n      swap2\n      swap1\n      tag_31\n      jump\t// in\n    tag_30:\n      0x00\n      mload(0x40)\n      dup1\n      dup4\n      sub\n      dup2\n      0x00\n      dup8\n      dup1\n      extcodesize\n      iszero\n      dup1\n      iszero\n      tag_32\n      jumpi\n      0x00\n      dup1\n      revert\n    tag_32:\n      pop\n      gas\n      call\n      iszero\n      dup1\n      iszero\n      tag_34\n      jumpi\n      returndatasize\n      0x00\n      dup1\n      returndatacopy\n      revert(0x00, returndatasize)\n    tag_34:\n      pop\n      pop\n      pop\n      pop\n        /* \"VendorFactory.sol\":1265:1270  index */\n      dup3\n        /* \"VendorFactory.sol\":1239:1251  pendingIndex */\n      0x03\n        /* \"VendorFactory.sol\":1239:1262  pendingIndex[newVendor] */\n      0x00\n        /* \"VendorFactory.sol\":1252:1261  newVendor */\n      dup4\n        /* \"VendorFactory.sol\":1239:1262  pendingIndex[newVendor] */\n      0xffffffffffffffffffffffffffffffffffffffff\n      and\n      0xffffffffffffffffffffffffffffffffffffffff\n      and\n      dup2\n      mstore\n      0x20\n      add\n      swap1\n      dup2\n      mstore\n      0x20\n      add\n      0x00\n      keccak256\n        /* \"VendorFactory.sol\":1239:1270  pendingIndex[newVendor] = index */\n      dup2\n      swap1\n      sstore\n      pop\n        /* \"VendorFactory.sol\":1341:1366  ClonedContract(newVendor) */\n      0x4e1d29e2852465a104ae5b46a21386067094efd4c78e8fca5fbd0f73155f83ec\n        /* \"VendorFactory.sol\":1356:1365  newVendor */\n      dup2\n        /* \"VendorFactory.sol\":1341:1366  ClonedContract(newVendor) */\n      mload(0x40)\n      tag_35\n      swap2\n      swap1\n      tag_11\n      jump\t// in\n    tag_35:\n      mload(0x40)\n      dup1\n      swap2\n      sub\n      swap1\n      log1\n        /* \"VendorFactory.sol\":1383:1392  newVendor */\n      dup1\n        /* \"VendorFactory.sol\":1376:1392  return newVendor */\n      swap2\n      pop\n      pop\n        /* \"VendorFactory.sol\":784:1399  function createVendor(address _client, address _payee, uint _creationDate, uint _expiryDate, uint _prevBillingDate, uint _nextBillingDate,... */\n      swap10\n      swap9\n      pop\n      pop\n      pop\n      pop\n      pop\n      pop\n      pop\n      pop\n      pop\n      jump\t// out\n        /* \"VendorFactory.sol\":1405:2164  function approve(address _contract) external {... */\n    tag_20:\n        /* \"VendorFactory.sol\":1498:1507  _contract */\n      dup1\n        /* \"VendorFactory.sol\":1491:1514  Vendor(_contract).payee */\n      0xffffffffffffffffffffffffffffffffffffffff\n      and\n      0xae90b213\n        /* \"VendorFactory.sol\":1491:1516  Vendor(_contract).payee() */\n      mload(0x40)\n      dup2\n      0xffffffff\n      and\n      0xe0\n      shl\n      dup2\n      mstore\n      0x04\n      add\n      0x20\n      mload(0x40)\n      dup1\n      dup4\n      sub\n      dup2\n      dup7\n      dup1\n      extcodesize\n      iszero\n      dup1\n      iszero\n      tag_37\n      jumpi\n      0x00\n      dup1\n      revert\n    tag_37:\n      pop\n      gas\n      staticcall\n      iszero\n      dup1\n      iszero\n      tag_39\n      jumpi\n      returndatasize\n      0x00\n      dup1\n      returndatacopy\n      revert(0x00, returndatasize)\n    tag_39:\n      pop\n      pop\n      pop\n      pop\n      mload(0x40)\n      returndatasize\n      not(0x1f)\n      0x1f\n      dup3\n      add\n      and\n      dup3\n      add\n      dup1\n      0x40\n      mstore\n      pop\n      dup2\n      add\n      swap1\n      tag_40\n      swap2\n      swap1\n      tag_41\n      jump\t// in\n    tag_40:\n        /* \"VendorFactory.sol\":1468:1516  payable(msg.sender) == Vendor(_contract).payee() */\n      0xffffffffffffffffffffffffffffffffffffffff\n      and\n        /* \"VendorFactory.sol\":1476:1486  msg.sender */\n      caller\n        /* \"VendorFactory.sol\":1468:1516  payable(msg.sender) == Vendor(_contract).payee() */\n      0xffffffffffffffffffffffffffffffffffffffff\n      and\n      eq\n        /* \"VendorFactory.sol\":1460:1562  require(payable(msg.sender) == Vendor(_contract).payee(), \"Only the payee can approve this contract.\") */\n      tag_42\n      jumpi\n      mload(0x40)\n      0x08c379a000000000000000000000000000000000000000000000000000000000\n      dup2\n      mstore\n      0x04\n      add\n      tag_43\n      swap1\n      tag_44\n      jump\t// in\n    tag_43:\n      mload(0x40)\n      dup1\n      swap2\n      sub\n      swap1\n      revert\n    tag_42:\n        /* \"VendorFactory.sol\":1579:1588  _contract */\n      dup1\n        /* \"VendorFactory.sol\":1572:1597  Vendor(_contract).approve */\n      0xffffffffffffffffffffffffffffffffffffffff\n      and\n      0x12424e3f\n        /* \"VendorFactory.sol\":1572:1599  Vendor(_contract).approve() */\n      mload(0x40)\n      dup2\n      0xffffffff\n      and\n      0xe0\n      shl\n      dup2\n      mstore\n      0x04\n      add\n      0x00\n      mload(0x40)\n      dup1\n      dup4\n      sub\n      dup2\n      0x00\n      dup8\n      dup1\n      extcodesize\n      iszero\n      dup1\n      iszero\n      tag_45\n      jumpi\n      0x00\n      dup1\n      revert\n    tag_45:\n      pop\n      gas\n      call\n      iszero\n      dup1\n      iszero\n      tag_47\n      jumpi\n      returndatasize\n      0x00\n      dup1\n      returndatacopy\n      revert(0x00, returndatasize)\n    tag_47:\n      pop\n      pop\n      pop\n      pop\n        /* \"VendorFactory.sol\":1610:1619  int index */\n      0x00\n        /* \"VendorFactory.sol\":1622:1634  pendingIndex */\n      0x03\n        /* \"VendorFactory.sol\":1622:1645  pendingIndex[_contract] */\n      0x00\n        /* \"VendorFactory.sol\":1635:1644  _contract */\n      dup4\n        /* \"VendorFactory.sol\":1622:1645  pendingIndex[_contract] */\n      0xffffffffffffffffffffffffffffffffffffffff\n      and\n      0xffffffffffffffffffffffffffffffffffffffff\n      and\n      dup2\n      mstore\n      0x20\n      add\n      swap1\n      dup2\n      mstore\n      0x20\n      add\n      0x00\n      keccak256\n      sload\n        /* \"VendorFactory.sol\":1610:1645  int index = pendingIndex[_contract] */\n      swap1\n      pop\n        /* \"VendorFactory.sol\":1668:1670  -1 */\n      0xffffffffffffffffffffffffffffffffffffffffffffffffffffffffffffffff\n        /* \"VendorFactory.sol\":1659:1664  index */\n      dup2\n        /* \"VendorFactory.sol\":1659:1670  index == -1 */\n      eq\n        /* \"VendorFactory.sol\":1655:1859  if (index == -1) {... */\n      iszero\n      tag_48\n      jumpi\n        /* \"VendorFactory.sol\":1686:1694  approved */\n      0x02\n        /* \"VendorFactory.sol\":1700:1709  _contract */\n      dup3\n        /* \"VendorFactory.sol\":1686:1710  approved.push(_contract) */\n      swap1\n      dup1\n      0x01\n      dup2\n      sload\n      add\n      dup1\n      dup3\n      sstore\n      dup1\n      swap2\n      pop\n      pop\n      0x01\n      swap1\n      sub\n      swap1\n      0x00\n      mstore\n      keccak256(0x00, 0x20)\n      add\n      0x00\n      swap1\n      swap2\n      swap1\n      swap2\n      swap1\n      swap2\n      0x0100\n      exp\n      dup2\n      sload\n      dup2\n      0xffffffffffffffffffffffffffffffffffffffff\n      mul\n      not\n      and\n      swap1\n      dup4\n      0xffffffffffffffffffffffffffffffffffffffff\n      and\n      mul\n      or\n      swap1\n      sstore\n      pop\n        /* \"VendorFactory.sol\":1731:1743  pendingIndex */\n      0x03\n        /* \"VendorFactory.sol\":1731:1754  pendingIndex[_contract] */\n      0x00\n        /* \"VendorFactory.sol\":1744:1753  _contract */\n      dup4\n        /* \"VendorFactory.sol\":1731:1754  pendingIndex[_contract] */\n      0xffffffffffffffffffffffffffffffffffffffff\n      and\n      0xffffffffffffffffffffffffffffffffffffffff\n      and\n      dup2\n      mstore\n      0x20\n      add\n      swap1\n      dup2\n      mstore\n      0x20\n      add\n      0x00\n      keccak256\n        /* \"VendorFactory.sol\":1724:1755  delete(pendingIndex[_contract]) */\n      0x00\n      swap1\n      sstore\n        /* \"VendorFactory.sol\":1775:1828  ApprovedContract(_contract, int(approved.length) - 1) */\n      0xa632268b4e910a424b413fd0bd0a48d43ad05e1cf3920dfb1573c2c39b495f5b\n        /* \"VendorFactory.sol\":1792:1801  _contract */\n      dup3\n        /* \"VendorFactory.sol\":1826:1827  1 */\n      0x01\n        /* \"VendorFactory.sol\":1807:1815  approved */\n      0x02\n        /* \"VendorFactory.sol\":1807:1822  approved.length */\n      dup1\n      sload\n      swap1\n      pop\n        /* \"VendorFactory.sol\":1803:1827  int(approved.length) - 1 */\n      tag_50\n      swap2\n      swap1\n      tag_51\n      jump\t// in\n    tag_50:\n        /* \"VendorFactory.sol\":1775:1828  ApprovedContract(_contract, int(approved.length) - 1) */\n      mload(0x40)\n      tag_52\n      swap3\n      swap2\n      swap1\n      tag_53\n      jump\t// in\n    tag_52:\n      mload(0x40)\n      dup1\n      swap2\n      sub\n      swap1\n      log1\n        /* \"VendorFactory.sol\":1842:1849  return; */\n      pop\n      jump(tag_36)\n        /* \"VendorFactory.sol\":1655:1859  if (index == -1) {... */\n    tag_48:\n        /* \"VendorFactory.sol\":1946:1962  address toDelete */\n      0x00\n        /* \"VendorFactory.sol\":1965:1973  approved */\n      0x02\n        /* \"VendorFactory.sol\":1979:1984  index */\n      dup3\n        /* \"VendorFactory.sol\":1965:1986  approved[uint(index)] */\n      dup2\n      sload\n      dup2\n      lt\n      tag_54\n      jumpi\n      tag_55\n      tag_56\n      jump\t// in\n    tag_55:\n    tag_54:\n      swap1\n      0x00\n      mstore\n      keccak256(0x00, 0x20)\n      add\n      0x00\n      swap1\n      sload\n      swap1\n      0x0100\n      exp\n      swap1\n      div\n      0xffffffffffffffffffffffffffffffffffffffff\n      and\n        /* \"VendorFactory.sol\":1946:1986  address toDelete = approved[uint(index)] */\n      swap1\n      pop\n        /* \"VendorFactory.sol\":2003:2011  toDelete */\n      dup1\n        /* \"VendorFactory.sol\":1996:2020  Vendor(toDelete).destroy */\n      0xffffffffffffffffffffffffffffffffffffffff\n      and\n      0x83197ef0\n        /* \"VendorFactory.sol\":1996:2022  Vendor(toDelete).destroy() */\n      mload(0x40)\n      dup2\n      0xffffffff\n      and\n      0xe0\n      shl\n      dup2\n      mstore\n      0x04\n      add\n      0x00\n      mload(0x40)\n      dup1\n      dup4\n      sub\n      dup2\n      0x00\n      dup8\n      dup1\n      extcodesize\n      iszero\n      dup1\n      iszero\n      tag_58\n      jumpi\n      0x00\n      dup1\n      revert\n    tag_58:\n      pop\n      gas\n      call\n      iszero\n      dup1\n      iszero\n      tag_60\n      jumpi\n      returndatasize\n      0x00\n      dup1\n      returndatacopy\n      revert(0x00, returndatasize)\n    tag_60:\n      pop\n      pop\n      pop\n      pop\n        /* \"VendorFactory.sol\":2057:2066  _contract */\n      dup3\n        /* \"VendorFactory.sol\":2033:2041  approved */\n      0x02\n        /* \"VendorFactory.sol\":2047:2052  index */\n      dup4\n        /* \"VendorFactory.sol\":2033:2054  approved[uint(index)] */\n      dup2\n      sload\n      dup2\n      lt\n      tag_61\n      jumpi\n      tag_62\n      tag_56\n      jump\t// in\n    tag_62:\n    tag_61:\n      swap1\n      0x00\n      mstore\n      keccak256(0x00, 0x20)\n      add\n      0x00\n        /* \"VendorFactory.sol\":2033:2066  approved[uint(index)] = _contract */\n      0x0100\n      exp\n      dup2\n      sload\n      dup2\n      0xffffffffffffffffffffffffffffffffffffffff\n      mul\n      not\n      and\n      swap1\n      dup4\n      0xffffffffffffffffffffffffffffffffffffffff\n      and\n      mul\n      or\n      swap1\n      sstore\n      pop\n        /* \"VendorFactory.sol\":2083:2095  pendingIndex */\n      0x03\n        /* \"VendorFactory.sol\":2083:2106  pendingIndex[_contract] */\n      0x00\n        /* \"VendorFactory.sol\":2096:2105  _contract */\n      dup5\n        /* \"VendorFactory.sol\":2083:2106  pendingIndex[_contract] */\n      0xffffffffffffffffffffffffffffffffffffffff\n      and\n      0xffffffffffffffffffffffffffffffffffffffff\n      and\n      dup2\n      mstore\n      0x20\n      add\n      swap1\n      dup2\n      mstore\n      0x20\n      add\n      0x00\n      keccak256\n        /* \"VendorFactory.sol\":2076:2107  delete(pendingIndex[_contract]) */\n      0x00\n      swap1\n      sstore\n        /* \"VendorFactory.sol\":2123:2157  ApprovedContract(_contract, index) */\n      0xa632268b4e910a424b413fd0bd0a48d43ad05e1cf3920dfb1573c2c39b495f5b\n        /* \"VendorFactory.sol\":2140:2149  _contract */\n      dup4\n        /* \"VendorFactory.sol\":2151:2156  index */\n      dup4\n        /* \"VendorFactory.sol\":2123:2157  ApprovedContract(_contract, index) */\n      mload(0x40)\n      tag_64\n      swap3\n      swap2\n      swap1\n      tag_53\n      jump\t// in\n    tag_64:\n      mload(0x40)\n      dup1\n      swap2\n      sub\n      swap1\n      log1\n        /* \"VendorFactory.sol\":1450:2164  {... */\n      pop\n      pop\n        /* \"VendorFactory.sol\":1405:2164  function approve(address _contract) external {... */\n    tag_36:\n      pop\n      jump\t// out\n        /* \"CloneFactory.sol\":1246:1687  function createClone(address target) internal returns (address result) {... */\n    tag_29:\n        /* \"CloneFactory.sol\":1301:1315  address result */\n      0x00\n        /* \"CloneFactory.sol\":1323:1342  bytes20 targetBytes */\n      dup1\n        /* \"CloneFactory.sol\":1353:1359  target */\n      dup3\n        /* \"CloneFactory.sol\":1345:1360  bytes20(target) */\n      0x60\n      shl\n        /* \"CloneFactory.sol\":1323:1360  bytes20 targetBytes = bytes20(target) */\n      swap1\n      pop\n        /* \"CloneFactory.sol\":1402:1406  0x40 */\n      0x40\n        /* \"CloneFactory.sol\":1396:1407  mload(0x40) */\n      mload\n        /* \"CloneFactory.sol\":1428:1494  0x3d602d80600a3d3981f3363d3d373d3d3d363d73000000000000000000000000 */\n      0x3d602d80600a3d3981f3363d3d373d3d3d363d73000000000000000000000000\n        /* \"CloneFactory.sol\":1421:1426  clone */\n      dup2\n        /* \"CloneFactory.sol\":1414:1495  mstore(clone, 0x3d602d80600a3d3981f3363d3d373d3d3d363d73000000000000000000000000) */\n      mstore\n        /* \"CloneFactory.sol\":1527:1538  targetBytes */\n      dup2\n        /* \"CloneFactory.sol\":1520:1524  0x14 */\n      0x14\n        /* \"CloneFactory.sol\":1513:1518  clone */\n      dup3\n        /* \"CloneFactory.sol\":1509:1525  add(clone, 0x14) */\n      add\n        /* \"CloneFactory.sol\":1502:1539  mstore(add(clone, 0x14), targetBytes) */\n      mstore\n        /* \"CloneFactory.sol\":1571:1637  0x5af43d82803e903d91602b57fd5bf30000000000000000000000000000000000 */\n      0x5af43d82803e903d91602b57fd5bf30000000000000000000000000000000000\n        /* \"CloneFactory.sol\":1564:1568  0x28 */\n      0x28\n        /* \"CloneFactory.sol\":1557:1562  clone */\n      dup3\n        /* \"CloneFactory.sol\":1553:1569  add(clone, 0x28) */\n      add\n        /* \"CloneFactory.sol\":1546:1638  mstore(add(clone, 0x28), 0x5af43d82803e903d91602b57fd5bf30000000000000000000000000000000000) */\n      mstore\n        /* \"CloneFactory.sol\":1672:1676  0x37 */\n      0x37\n        /* \"CloneFactory.sol\":1665:1670  clone */\n      dup2\n        /* \"CloneFactory.sol\":1662:1663  0 */\n      0x00\n        /* \"CloneFactory.sol\":1655:1677  create(0, clone, 0x37) */\n      create\n        /* \"CloneFactory.sol\":1645:1677  result := create(0, clone, 0x37) */\n      swap3\n      pop\n        /* \"CloneFactory.sol\":1375:1683  {... */\n      pop\n      pop\n        /* \"CloneFactory.sol\":1246:1687  function createClone(address target) internal returns (address result) {... */\n      swap2\n      swap1\n      pop\n      jump\t// out\n        /* \"#utility.yul\":7:146   */\n    tag_67:\n        /* \"#utility.yul\":53:58   */\n      0x00\n        /* \"#utility.yul\":91:97   */\n      dup2\n        /* \"#utility.yul\":78:98   */\n      calldataload\n        /* \"#utility.yul\":69:98   */\n      swap1\n      pop\n        /* \"#utility.yul\":107:140   */\n      tag_69\n        /* \"#utility.yul\":134:139   */\n      dup2\n        /* \"#utility.yul\":107:140   */\n      tag_70\n      jump\t// in\n    tag_69:\n        /* \"#utility.yul\":59:146   */\n      swap3\n      swap2\n      pop\n      pop\n      jump\t// out\n        /* \"#utility.yul\":152:311   */\n    tag_71:\n        /* \"#utility.yul\":217:222   */\n      0x00\n        /* \"#utility.yul\":248:254   */\n      dup2\n        /* \"#utility.yul\":242:255   */\n      mload\n        /* \"#utility.yul\":233:255   */\n      swap1\n      pop\n        /* \"#utility.yul\":264:305   */\n      tag_73\n        /* \"#utility.yul\":299:304   */\n      dup2\n        /* \"#utility.yul\":264:305   */\n      tag_74\n      jump\t// in\n    tag_73:\n        /* \"#utility.yul\":223:311   */\n      swap3\n      swap2\n      pop\n      pop\n      jump\t// out\n        /* \"#utility.yul\":317:454   */\n    tag_75:\n        /* \"#utility.yul\":362:367   */\n      0x00\n        /* \"#utility.yul\":400:406   */\n      dup2\n        /* \"#utility.yul\":387:407   */\n      calldataload\n        /* \"#utility.yul\":378:407   */\n      swap1\n      pop\n        /* \"#utility.yul\":416:448   */\n      tag_77\n        /* \"#utility.yul\":442:447   */\n      dup2\n        /* \"#utility.yul\":416:448   */\n      tag_78\n      jump\t// in\n    tag_77:\n        /* \"#utility.yul\":368:454   */\n      swap3\n      swap2\n      pop\n      pop\n      jump\t// out\n        /* \"#utility.yul\":460:599   */\n    tag_79:\n        /* \"#utility.yul\":506:511   */\n      0x00\n        /* \"#utility.yul\":544:550   */\n      dup2\n        /* \"#utility.yul\":531:551   */\n      calldataload\n        /* \"#utility.yul\":522:551   */\n      swap1\n      pop\n        /* \"#utility.yul\":560:593   */\n      tag_81\n        /* \"#utility.yul\":587:592   */\n      dup2\n        /* \"#utility.yul\":560:593   */\n      tag_82\n      jump\t// in\n    tag_81:\n        /* \"#utility.yul\":512:599   */\n      swap3\n      swap2\n      pop\n      pop\n      jump\t// out\n        /* \"#utility.yul\":605:934   */\n    tag_19:\n        /* \"#utility.yul\":664:670   */\n      0x00\n        /* \"#utility.yul\":713:715   */\n      0x20\n        /* \"#utility.yul\":701:710   */\n      dup3\n        /* \"#utility.yul\":692:699   */\n      dup5\n        /* \"#utility.yul\":688:711   */\n      sub\n        /* \"#utility.yul\":684:716   */\n      slt\n        /* \"#utility.yul\":681:683   */\n      iszero\n      tag_84\n      jumpi\n        /* \"#utility.yul\":719:798   */\n      tag_85\n      tag_86\n      jump\t// in\n    tag_85:\n        /* \"#utility.yul\":681:683   */\n    tag_84:\n        /* \"#utility.yul\":839:840   */\n      0x00\n        /* \"#utility.yul\":864:917   */\n      tag_87\n        /* \"#utility.yul\":909:916   */\n      dup5\n        /* \"#utility.yul\":900:906   */\n      dup3\n        /* \"#utility.yul\":889:898   */\n      dup6\n        /* \"#utility.yul\":885:907   */\n      add\n        /* \"#utility.yul\":864:917   */\n      tag_67\n      jump\t// in\n    tag_87:\n        /* \"#utility.yul\":854:917   */\n      swap2\n      pop\n        /* \"#utility.yul\":810:927   */\n      pop\n        /* \"#utility.yul\":671:934   */\n      swap3\n      swap2\n      pop\n      pop\n      jump\t// out\n        /* \"#utility.yul\":940:1307   */\n    tag_41:\n        /* \"#utility.yul\":1018:1024   */\n      0x00\n        /* \"#utility.yul\":1067:1069   */\n      0x20\n        /* \"#utility.yul\":1055:1064   */\n      dup3\n        /* \"#utility.yul\":1046:1053   */\n      dup5\n        /* \"#utility.yul\":1042:1065   */\n      sub\n        /* \"#utility.yul\":1038:1070   */\n      slt\n        /* \"#utility.yul\":1035:1037   */\n      iszero\n      tag_89\n      jumpi\n        /* \"#utility.yul\":1073:1152   */\n      tag_90\n      tag_86\n      jump\t// in\n    tag_90:\n        /* \"#utility.yul\":1035:1037   */\n    tag_89:\n        /* \"#utility.yul\":1193:1194   */\n      0x00\n        /* \"#utility.yul\":1218:1290   */\n      tag_91\n        /* \"#utility.yul\":1282:1289   */\n      dup5\n        /* \"#utility.yul\":1273:1279   */\n      dup3\n        /* \"#utility.yul\":1262:1271   */\n      dup6\n        /* \"#utility.yul\":1258:1280   */\n      add\n        /* \"#utility.yul\":1218:1290   */\n      tag_71\n      jump\t// in\n    tag_91:\n        /* \"#utility.yul\":1208:1290   */\n      swap2\n      pop\n        /* \"#utility.yul\":1164:1300   */\n      pop\n        /* \"#utility.yul\":1025:1307   */\n      swap3\n      swap2\n      pop\n      pop\n      jump\t// out\n        /* \"#utility.yul\":1313:2806   */\n    tag_14:\n        /* \"#utility.yul\":1443:1449   */\n      0x00\n        /* \"#utility.yul\":1451:1457   */\n      dup1\n        /* \"#utility.yul\":1459:1465   */\n      0x00\n        /* \"#utility.yul\":1467:1473   */\n      dup1\n        /* \"#utility.yul\":1475:1481   */\n      0x00\n        /* \"#utility.yul\":1483:1489   */\n      dup1\n        /* \"#utility.yul\":1491:1497   */\n      0x00\n        /* \"#utility.yul\":1499:1505   */\n      dup1\n        /* \"#utility.yul\":1507:1513   */\n      0x00\n        /* \"#utility.yul\":1556:1559   */\n      0x0120\n        /* \"#utility.yul\":1544:1553   */\n      dup11\n        /* \"#utility.yul\":1535:1542   */\n      dup13\n        /* \"#utility.yul\":1531:1554   */\n      sub\n        /* \"#utility.yul\":1527:1560   */\n      slt\n        /* \"#utility.yul\":1524:1526   */\n      iszero\n      tag_93\n      jumpi\n        /* \"#utility.yul\":1563:1642   */\n      tag_94\n      tag_86\n      jump\t// in\n    tag_94:\n        /* \"#utility.yul\":1524:1526   */\n    tag_93:\n        /* \"#utility.yul\":1683:1684   */\n      0x00\n        /* \"#utility.yul\":1708:1761   */\n      tag_95\n        /* \"#utility.yul\":1753:1760   */\n      dup13\n        /* \"#utility.yul\":1744:1750   */\n      dup3\n        /* \"#utility.yul\":1733:1742   */\n      dup14\n        /* \"#utility.yul\":1729:1751   */\n      add\n        /* \"#utility.yul\":1708:1761   */\n      tag_67\n      jump\t// in\n    tag_95:\n        /* \"#utility.yul\":1698:1761   */\n      swap10\n      pop\n        /* \"#utility.yul\":1654:1771   */\n      pop\n        /* \"#utility.yul\":1810:1812   */\n      0x20\n        /* \"#utility.yul\":1836:1889   */\n      tag_96\n        /* \"#utility.yul\":1881:1888   */\n      dup13\n        /* \"#utility.yul\":1872:1878   */\n      dup3\n        /* \"#utility.yul\":1861:1870   */\n      dup14\n        /* \"#utility.yul\":1857:1879   */\n      add\n        /* \"#utility.yul\":1836:1889   */\n      tag_67\n      jump\t// in\n    tag_96:\n        /* \"#utility.yul\":1826:1889   */\n      swap9\n      pop\n        /* \"#utility.yul\":1781:1899   */\n      pop\n        /* \"#utility.yul\":1938:1940   */\n      0x40\n        /* \"#utility.yul\":1964:2017   */\n      tag_97\n        /* \"#utility.yul\":2009:2016   */\n      dup13\n        /* \"#utility.yul\":2000:2006   */\n      dup3\n        /* \"#utility.yul\":1989:1998   */\n      dup14\n        /* \"#utility.yul\":1985:2007   */\n      add\n        /* \"#utility.yul\":1964:2017   */\n      tag_79\n      jump\t// in\n    tag_97:\n        /* \"#utility.yul\":1954:2017   */\n      swap8\n      pop\n        /* \"#utility.yul\":1909:2027   */\n      pop\n        /* \"#utility.yul\":2066:2068   */\n      0x60\n        /* \"#utility.yul\":2092:2145   */\n      tag_98\n        /* \"#utility.yul\":2137:2144   */\n      dup13\n        /* \"#utility.yul\":2128:2134   */\n      dup3\n        /* \"#utility.yul\":2117:2126   */\n      dup14\n        /* \"#utility.yul\":2113:2135   */\n      add\n        /* \"#utility.yul\":2092:2145   */\n      tag_79\n      jump\t// in\n    tag_98:\n        /* \"#utility.yul\":2082:2145   */\n      swap7\n      pop\n        /* \"#utility.yul\":2037:2155   */\n      pop\n        /* \"#utility.yul\":2194:2197   */\n      0x80\n        /* \"#utility.yul\":2221:2274   */\n      tag_99\n        /* \"#utility.yul\":2266:2273   */\n      dup13\n        /* \"#utility.yul\":2257:2263   */\n      dup3\n        /* \"#utility.yul\":2246:2255   */\n      dup14\n        /* \"#utility.yul\":2242:2264   */\n      add\n        /* \"#utility.yul\":2221:2274   */\n      tag_79\n      jump\t// in\n    tag_99:\n        /* \"#utility.yul\":2211:2274   */\n      swap6\n      pop\n        /* \"#utility.yul\":2165:2284   */\n      pop\n        /* \"#utility.yul\":2323:2326   */\n      0xa0\n        /* \"#utility.yul\":2350:2403   */\n      tag_100\n        /* \"#utility.yul\":2395:2402   */\n      dup13\n        /* \"#utility.yul\":2386:2392   */\n      dup3\n        /* \"#utility.yul\":2375:2384   */\n      dup14\n        /* \"#utility.yul\":2371:2393   */\n      add\n        /* \"#utility.yul\":2350:2403   */\n      tag_79\n      jump\t// in\n    tag_100:\n        /* \"#utility.yul\":2340:2403   */\n      swap5\n      pop\n        /* \"#utility.yul\":2294:2413   */\n      pop\n        /* \"#utility.yul\":2452:2455   */\n      0xc0\n        /* \"#utility.yul\":2479:2532   */\n      tag_101\n        /* \"#utility.yul\":2524:2531   */\n      dup13\n        /* \"#utility.yul\":2515:2521   */\n      dup3\n        /* \"#utility.yul\":2504:2513   */\n      dup14\n        /* \"#utility.yul\":2500:2522   */\n      add\n        /* \"#utility.yul\":2479:2532   */\n      tag_79\n      jump\t// in\n    tag_101:\n        /* \"#utility.yul\":2469:2532   */\n      swap4\n      pop\n        /* \"#utility.yul\":2423:2542   */\n      pop\n        /* \"#utility.yul\":2581:2584   */\n      0xe0\n        /* \"#utility.yul\":2608:2661   */\n      tag_102\n        /* \"#utility.yul\":2653:2660   */\n      dup13\n        /* \"#utility.yul\":2644:2650   */\n      dup3\n        /* \"#utility.yul\":2633:2642   */\n      dup14\n        /* \"#utility.yul\":2629:2651   */\n      add\n        /* \"#utility.yul\":2608:2661   */\n      tag_79\n      jump\t// in\n    tag_102:\n        /* \"#utility.yul\":2598:2661   */\n      swap3\n      pop\n        /* \"#utility.yul\":2552:2671   */\n      pop\n        /* \"#utility.yul\":2710:2713   */\n      0x0100\n        /* \"#utility.yul\":2737:2789   */\n      tag_103\n        /* \"#utility.yul\":2781:2788   */\n      dup13\n        /* \"#utility.yul\":2772:2778   */\n      dup3\n        /* \"#utility.yul\":2761:2770   */\n      dup14\n        /* \"#utility.yul\":2757:2779   */\n      add\n        /* \"#utility.yul\":2737:2789   */\n      tag_75\n      jump\t// in\n    tag_103:\n        /* \"#utility.yul\":2727:2789   */\n      swap2\n      pop\n        /* \"#utility.yul\":2681:2799   */\n      pop\n        /* \"#utility.yul\":1514:2806   */\n      swap3\n      swap6\n      swap9\n      pop\n      swap3\n      swap6\n      swap9\n      pop\n      swap3\n      swap6\n      swap9\n      jump\t// out\n        /* \"#utility.yul\":2812:3141   */\n    tag_8:\n        /* \"#utility.yul\":2871:2877   */\n      0x00\n        /* \"#utility.yul\":2920:2922   */\n      0x20\n        /* \"#utility.yul\":2908:2917   */\n      dup3\n        /* \"#utility.yul\":2899:2906   */\n      dup5\n        /* \"#utility.yul\":2895:2918   */\n      sub\n        /* \"#utility.yul\":2891:2923   */\n      slt\n        /* \"#utility.yul\":2888:2890   */\n      iszero\n      tag_105\n      jumpi\n        /* \"#utility.yul\":2926:3005   */\n      tag_106\n      tag_86\n      jump\t// in\n    tag_106:\n        /* \"#utility.yul\":2888:2890   */\n    tag_105:\n        /* \"#utility.yul\":3046:3047   */\n      0x00\n        /* \"#utility.yul\":3071:3124   */\n      tag_107\n        /* \"#utility.yul\":3116:3123   */\n      dup5\n        /* \"#utility.yul\":3107:3113   */\n      dup3\n        /* \"#utility.yul\":3096:3105   */\n      dup6\n        /* \"#utility.yul\":3092:3114   */\n      add\n        /* \"#utility.yul\":3071:3124   */\n      tag_79\n      jump\t// in\n    tag_107:\n        /* \"#utility.yul\":3061:3124   */\n      swap2\n      pop\n        /* \"#utility.yul\":3017:3134   */\n      pop\n        /* \"#utility.yul\":2878:3141   */\n      swap3\n      swap2\n      pop\n      pop\n      jump\t// out\n        /* \"#utility.yul\":3147:3265   */\n    tag_108:\n        /* \"#utility.yul\":3234:3258   */\n      tag_110\n        /* \"#utility.yul\":3252:3257   */\n      dup2\n        /* \"#utility.yul\":3234:3258   */\n      tag_111\n      jump\t// in\n    tag_110:\n        /* \"#utility.yul\":3229:3232   */\n      dup3\n        /* \"#utility.yul\":3222:3259   */\n      mstore\n        /* \"#utility.yul\":3212:3265   */\n      pop\n      pop\n      jump\t// out\n        /* \"#utility.yul\":3271:3386   */\n    tag_112:\n        /* \"#utility.yul\":3356:3379   */\n      tag_114\n        /* \"#utility.yul\":3373:3378   */\n      dup2\n        /* \"#utility.yul\":3356:3379   */\n      tag_115\n      jump\t// in\n    tag_114:\n        /* \"#utility.yul\":3351:3354   */\n      dup3\n        /* \"#utility.yul\":3344:3380   */\n      mstore\n        /* \"#utility.yul\":3334:3386   */\n      pop\n      pop\n      jump\t// out\n        /* \"#utility.yul\":3392:3758   */\n    tag_116:\n        /* \"#utility.yul\":3534:3537   */\n      0x00\n        /* \"#utility.yul\":3555:3622   */\n      tag_118\n        /* \"#utility.yul\":3619:3621   */\n      0x24\n        /* \"#utility.yul\":3614:3617   */\n      dup4\n        /* \"#utility.yul\":3555:3622   */\n      tag_119\n      jump\t// in\n    tag_118:\n        /* \"#utility.yul\":3548:3622   */\n      swap2\n      pop\n        /* \"#utility.yul\":3631:3724   */\n      tag_120\n        /* \"#utility.yul\":3720:3723   */\n      dup3\n        /* \"#utility.yul\":3631:3724   */\n      tag_121\n      jump\t// in\n    tag_120:\n        /* \"#utility.yul\":3749:3751   */\n      0x40\n        /* \"#utility.yul\":3744:3747   */\n      dup3\n        /* \"#utility.yul\":3740:3752   */\n      add\n        /* \"#utility.yul\":3733:3752   */\n      swap1\n      pop\n        /* \"#utility.yul\":3538:3758   */\n      swap2\n      swap1\n      pop\n      jump\t// out\n        /* \"#utility.yul\":3764:4130   */\n    tag_122:\n        /* \"#utility.yul\":3906:3909   */\n      0x00\n        /* \"#utility.yul\":3927:3994   */\n      tag_124\n        /* \"#utility.yul\":3991:3993   */\n      0x29\n        /* \"#utility.yul\":3986:3989   */\n      dup4\n        /* \"#utility.yul\":3927:3994   */\n      tag_119\n      jump\t// in\n    tag_124:\n        /* \"#utility.yul\":3920:3994   */\n      swap2\n      pop\n        /* \"#utility.yul\":4003:4096   */\n      tag_125\n        /* \"#utility.yul\":4092:4095   */\n      dup3\n        /* \"#utility.yul\":4003:4096   */\n      tag_126\n      jump\t// in\n    tag_125:\n        /* \"#utility.yul\":4121:4123   */\n      0x40\n        /* \"#utility.yul\":4116:4119   */\n      dup3\n        /* \"#utility.yul\":4112:4124   */\n      add\n        /* \"#utility.yul\":4105:4124   */\n      swap1\n      pop\n        /* \"#utility.yul\":3910:4130   */\n      swap2\n      swap1\n      pop\n      jump\t// out\n        /* \"#utility.yul\":4136:4254   */\n    tag_127:\n        /* \"#utility.yul\":4223:4247   */\n      tag_129\n        /* \"#utility.yul\":4241:4246   */\n      dup2\n        /* \"#utility.yul\":4223:4247   */\n      tag_130\n      jump\t// in\n    tag_129:\n        /* \"#utility.yul\":4218:4221   */\n      dup3\n        /* \"#utility.yul\":4211:4248   */\n      mstore\n        /* \"#utility.yul\":4201:4254   */\n      pop\n      pop\n      jump\t// out\n        /* \"#utility.yul\":4260:4482   */\n    tag_11:\n        /* \"#utility.yul\":4353:4357   */\n      0x00\n        /* \"#utility.yul\":4391:4393   */\n      0x20\n        /* \"#utility.yul\":4380:4389   */\n      dup3\n        /* \"#utility.yul\":4376:4394   */\n      add\n        /* \"#utility.yul\":4368:4394   */\n      swap1\n      pop\n        /* \"#utility.yul\":4404:4475   */\n      tag_132\n        /* \"#utility.yul\":4472:4473   */\n      0x00\n        /* \"#utility.yul\":4461:4470   */\n      dup4\n        /* \"#utility.yul\":4457:4474   */\n      add\n        /* \"#utility.yul\":4448:4454   */\n      dup5\n        /* \"#utility.yul\":4404:4475   */\n      tag_108\n      jump\t// in\n    tag_132:\n        /* \"#utility.yul\":4358:4482   */\n      swap3\n      swap2\n      pop\n      pop\n      jump\t// out\n        /* \"#utility.yul\":4488:5485   */\n    tag_31:\n        /* \"#utility.yul\":4777:4781   */\n      0x00\n        /* \"#utility.yul\":4815:4818   */\n      0x0100\n        /* \"#utility.yul\":4804:4813   */\n      dup3\n        /* \"#utility.yul\":4800:4819   */\n      add\n        /* \"#utility.yul\":4792:4819   */\n      swap1\n      pop\n        /* \"#utility.yul\":4829:4900   */\n      tag_134\n        /* \"#utility.yul\":4897:4898   */\n      0x00\n        /* \"#utility.yul\":4886:4895   */\n      dup4\n        /* \"#utility.yul\":4882:4899   */\n      add\n        /* \"#utility.yul\":4873:4879   */\n      dup12\n        /* \"#utility.yul\":4829:4900   */\n      tag_108\n      jump\t// in\n    tag_134:\n        /* \"#utility.yul\":4910:4982   */\n      tag_135\n        /* \"#utility.yul\":4978:4980   */\n      0x20\n        /* \"#utility.yul\":4967:4976   */\n      dup4\n        /* \"#utility.yul\":4963:4981   */\n      add\n        /* \"#utility.yul\":4954:4960   */\n      dup11\n        /* \"#utility.yul\":4910:4982   */\n      tag_108\n      jump\t// in\n    tag_135:\n        /* \"#utility.yul\":4992:5064   */\n      tag_136\n        /* \"#utility.yul\":5060:5062   */\n      0x40\n        /* \"#utility.yul\":5049:5058   */\n      dup4\n        /* \"#utility.yul\":5045:5063   */\n      add\n        /* \"#utility.yul\":5036:5042   */\n      dup10\n        /* \"#utility.yul\":4992:5064   */\n      tag_127\n      jump\t// in\n    tag_136:\n        /* \"#utility.yul\":5074:5146   */\n      tag_137\n        /* \"#utility.yul\":5142:5144   */\n      0x60\n        /* \"#utility.yul\":5131:5140   */\n      dup4\n        /* \"#utility.yul\":5127:5145   */\n      add\n        /* \"#utility.yul\":5118:5124   */\n      dup9\n        /* \"#utility.yul\":5074:5146   */\n      tag_127\n      jump\t// in\n    tag_137:\n        /* \"#utility.yul\":5156:5229   */\n      tag_138\n        /* \"#utility.yul\":5224:5227   */\n      0x80\n        /* \"#utility.yul\":5213:5222   */\n      dup4\n        /* \"#utility.yul\":5209:5228   */\n      add\n        /* \"#utility.yul\":5200:5206   */\n      dup8\n        /* \"#utility.yul\":5156:5229   */\n      tag_127\n      jump\t// in\n    tag_138:\n        /* \"#utility.yul\":5239:5312   */\n      tag_139\n        /* \"#utility.yul\":5307:5310   */\n      0xa0\n        /* \"#utility.yul\":5296:5305   */\n      dup4\n        /* \"#utility.yul\":5292:5311   */\n      add\n        /* \"#utility.yul\":5283:5289   */\n      dup7\n        /* \"#utility.yul\":5239:5312   */\n      tag_127\n      jump\t// in\n    tag_139:\n        /* \"#utility.yul\":5322:5395   */\n      tag_140\n        /* \"#utility.yul\":5390:5393   */\n      0xc0\n        /* \"#utility.yul\":5379:5388   */\n      dup4\n        /* \"#utility.yul\":5375:5394   */\n      add\n        /* \"#utility.yul\":5366:5372   */\n      dup6\n        /* \"#utility.yul\":5322:5395   */\n      tag_127\n      jump\t// in\n    tag_140:\n        /* \"#utility.yul\":5405:5478   */\n      tag_141\n        /* \"#utility.yul\":5473:5476   */\n      0xe0\n        /* \"#utility.yul\":5462:5471   */\n      dup4\n        /* \"#utility.yul\":5458:5477   */\n      add\n        /* \"#utility.yul\":5449:5455   */\n      dup5\n        /* \"#utility.yul\":5405:5478   */\n      tag_127\n      jump\t// in\n    tag_141:\n        /* \"#utility.yul\":4782:5485   */\n      swap10\n      swap9\n      pop\n      pop\n      pop\n      pop\n      pop\n      pop\n      pop\n      pop\n      pop\n      jump\t// out\n        /* \"#utility.yul\":5491:5819   */\n    tag_53:\n        /* \"#utility.yul\":5610:5614   */\n      0x00\n        /* \"#utility.yul\":5648:5650   */\n      0x40\n        /* \"#utility.yul\":5637:5646   */\n      dup3\n        /* \"#utility.yul\":5633:5651   */\n      add\n        /* \"#utility.yul\":5625:5651   */\n      swap1\n      pop\n        /* \"#utility.yul\":5661:5732   */\n      tag_143\n        /* \"#utility.yul\":5729:5730   */\n      0x00\n        /* \"#utility.yul\":5718:5727   */\n      dup4\n        /* \"#utility.yul\":5714:5731   */\n      add\n        /* \"#utility.yul\":5705:5711   */\n      dup6\n        /* \"#utility.yul\":5661:5732   */\n      tag_108\n      jump\t// in\n    tag_143:\n        /* \"#utility.yul\":5742:5812   */\n      tag_144\n        /* \"#utility.yul\":5808:5810   */\n      0x20\n        /* \"#utility.yul\":5797:5806   */\n      dup4\n        /* \"#utility.yul\":5793:5811   */\n      add\n        /* \"#utility.yul\":5784:5790   */\n      dup5\n        /* \"#utility.yul\":5742:5812   */\n      tag_112\n      jump\t// in\n    tag_144:\n        /* \"#utility.yul\":5615:5819   */\n      swap4\n      swap3\n      pop\n      pop\n      pop\n      jump\t// out\n        /* \"#utility.yul\":5825:6244   */\n    tag_26:\n        /* \"#utility.yul\":5991:5995   */\n      0x00\n        /* \"#utility.yul\":6029:6031   */\n      0x20\n        /* \"#utility.yul\":6018:6027   */\n      dup3\n        /* \"#utility.yul\":6014:6032   */\n      add\n        /* \"#utility.yul\":6006:6032   */\n      swap1\n      pop\n        /* \"#utility.yul\":6078:6087   */\n      dup2\n        /* \"#utility.yul\":6072:6076   */\n      dup2\n        /* \"#utility.yul\":6068:6088   */\n      sub\n        /* \"#utility.yul\":6064:6065   */\n      0x00\n        /* \"#utility.yul\":6053:6062   */\n      dup4\n        /* \"#utility.yul\":6049:6066   */\n      add\n        /* \"#utility.yul\":6042:6089   */\n      mstore\n        /* \"#utility.yul\":6106:6237   */\n      tag_146\n        /* \"#utility.yul\":6232:6236   */\n      dup2\n        /* \"#utility.yul\":6106:6237   */\n      tag_116\n      jump\t// in\n    tag_146:\n        /* \"#utility.yul\":6098:6237   */\n      swap1\n      pop\n        /* \"#utility.yul\":5996:6244   */\n      swap2\n      swap1\n      pop\n      jump\t// out\n        /* \"#utility.yul\":6250:6669   */\n    tag_44:\n        /* \"#utility.yul\":6416:6420   */\n      0x00\n        /* \"#utility.yul\":6454:6456   */\n      0x20\n        /* \"#utility.yul\":6443:6452   */\n      dup3\n        /* \"#utility.yul\":6439:6457   */\n      add\n        /* \"#utility.yul\":6431:6457   */\n      swap1\n      pop\n        /* \"#utility.yul\":6503:6512   */\n      dup2\n        /* \"#utility.yul\":6497:6501   */\n      dup2\n        /* \"#utility.yul\":6493:6513   */\n      sub\n        /* \"#utility.yul\":6489:6490   */\n      0x00\n        /* \"#utility.yul\":6478:6487   */\n      dup4\n        /* \"#utility.yul\":6474:6491   */\n      add\n        /* \"#utility.yul\":6467:6514   */\n      mstore\n        /* \"#utility.yul\":6531:6662   */\n      tag_148\n        /* \"#utility.yul\":6657:6661   */\n      dup2\n        /* \"#utility.yul\":6531:6662   */\n      tag_122\n      jump\t// in\n    tag_148:\n        /* \"#utility.yul\":6523:6662   */\n      swap1\n      pop\n        /* \"#utility.yul\":6421:6669   */\n      swap2\n      swap1\n      pop\n      jump\t// out\n        /* \"#utility.yul\":6756:6925   */\n    tag_119:\n        /* \"#utility.yul\":6840:6851   */\n      0x00\n        /* \"#utility.yul\":6874:6880   */\n      dup3\n        /* \"#utility.yul\":6869:6872   */\n      dup3\n        /* \"#utility.yul\":6862:6881   */\n      mstore\n        /* \"#utility.yul\":6914:6918   */\n      0x20\n        /* \"#utility.yul\":6909:6912   */\n      dup3\n        /* \"#utility.yul\":6905:6919   */\n      add\n        /* \"#utility.yul\":6890:6919   */\n      swap1\n      pop\n        /* \"#utility.yul\":6852:6925   */\n      swap3\n      swap2\n      pop\n      pop\n      jump\t// out\n        /* \"#utility.yul\":6931:7458   */\n    tag_51:\n        /* \"#utility.yul\":6970:6974   */\n      0x00\n        /* \"#utility.yul\":6990:7009   */\n      tag_153\n        /* \"#utility.yul\":7007:7008   */\n      dup3\n        /* \"#utility.yul\":6990:7009   */\n      tag_115\n      jump\t// in\n    tag_153:\n        /* \"#utility.yul\":6985:7009   */\n      swap2\n      pop\n        /* \"#utility.yul\":7023:7042   */\n      tag_154\n        /* \"#utility.yul\":7040:7041   */\n      dup4\n        /* \"#utility.yul\":7023:7042   */\n      tag_115\n      jump\t// in\n    tag_154:\n        /* \"#utility.yul\":7018:7042   */\n      swap3\n      pop\n        /* \"#utility.yul\":7212:7213   */\n      dup3\n        /* \"#utility.yul\":7144:7210   */\n      0x8000000000000000000000000000000000000000000000000000000000000000\n        /* \"#utility.yul\":7140:7214   */\n      add\n        /* \"#utility.yul\":7137:7138   */\n      dup3\n        /* \"#utility.yul\":7133:7215   */\n      slt\n        /* \"#utility.yul\":7128:7129   */\n      0x00\n        /* \"#utility.yul\":7125:7126   */\n      dup5\n        /* \"#utility.yul\":7121:7130   */\n      slt\n        /* \"#utility.yul\":7114:7131   */\n      iszero\n        /* \"#utility.yul\":7110:7216   */\n      and\n        /* \"#utility.yul\":7107:7109   */\n      iszero\n      tag_155\n      jumpi\n        /* \"#utility.yul\":7219:7237   */\n      tag_156\n      tag_157\n      jump\t// in\n    tag_156:\n        /* \"#utility.yul\":7107:7109   */\n    tag_155:\n        /* \"#utility.yul\":7398:7399   */\n      dup3\n        /* \"#utility.yul\":7330:7396   */\n      0x7fffffffffffffffffffffffffffffffffffffffffffffffffffffffffffffff\n        /* \"#utility.yul\":7326:7400   */\n      add\n        /* \"#utility.yul\":7323:7324   */\n      dup3\n        /* \"#utility.yul\":7319:7401   */\n      sgt\n        /* \"#utility.yul\":7315:7316   */\n      0x00\n        /* \"#utility.yul\":7312:7313   */\n      dup5\n        /* \"#utility.yul\":7308:7317   */\n      slt\n        /* \"#utility.yul\":7304:7402   */\n      and\n        /* \"#utility.yul\":7301:7303   */\n      iszero\n      tag_158\n      jumpi\n        /* \"#utility.yul\":7405:7423   */\n      tag_159\n      tag_157\n      jump\t// in\n    tag_159:\n        /* \"#utility.yul\":7301:7303   */\n    tag_158:\n        /* \"#utility.yul\":7450:7451   */\n      dup3\n        /* \"#utility.yul\":7447:7448   */\n      dup3\n        /* \"#utility.yul\":7443:7452   */\n      sub\n        /* \"#utility.yul\":7435:7452   */\n      swap1\n      pop\n        /* \"#utility.yul\":6975:7458   */\n      swap3\n      swap2\n      pop\n      pop\n      jump\t// out\n        /* \"#utility.yul\":7464:7560   */\n    tag_111:\n        /* \"#utility.yul\":7501:7508   */\n      0x00\n        /* \"#utility.yul\":7530:7554   */\n      tag_161\n        /* \"#utility.yul\":7548:7553   */\n      dup3\n        /* \"#utility.yul\":7530:7554   */\n      tag_162\n      jump\t// in\n    tag_161:\n        /* \"#utility.yul\":7519:7554   */\n      swap1\n      pop\n        /* \"#utility.yul\":7509:7560   */\n      swap2\n      swap1\n      pop\n      jump\t// out\n        /* \"#utility.yul\":7566:7670   */\n    tag_163:\n        /* \"#utility.yul\":7611:7618   */\n      0x00\n        /* \"#utility.yul\":7640:7664   */\n      tag_165\n        /* \"#utility.yul\":7658:7663   */\n      dup3\n        /* \"#utility.yul\":7640:7664   */\n      tag_162\n      jump\t// in\n    tag_165:\n        /* \"#utility.yul\":7629:7664   */\n      swap1\n      pop\n        /* \"#utility.yul\":7619:7670   */\n      swap2\n      swap1\n      pop\n      jump\t// out\n        /* \"#utility.yul\":7676:7752   */\n    tag_115:\n        /* \"#utility.yul\":7712:7719   */\n      0x00\n        /* \"#utility.yul\":7741:7746   */\n      dup2\n        /* \"#utility.yul\":7730:7746   */\n      swap1\n      pop\n        /* \"#utility.yul\":7720:7752   */\n      swap2\n      swap1\n      pop\n      jump\t// out\n        /* \"#utility.yul\":7758:7884   */\n    tag_162:\n        /* \"#utility.yul\":7795:7802   */\n      0x00\n        /* \"#utility.yul\":7835:7877   */\n      0xffffffffffffffffffffffffffffffffffffffff\n        /* \"#utility.yul\":7828:7833   */\n      dup3\n        /* \"#utility.yul\":7824:7878   */\n      and\n        /* \"#utility.yul\":7813:7878   */\n      swap1\n      pop\n        /* \"#utility.yul\":7803:7884   */\n      swap2\n      swap1\n      pop\n      jump\t// out\n        /* \"#utility.yul\":7890:7967   */\n    tag_130:\n        /* \"#utility.yul\":7927:7934   */\n      0x00\n        /* \"#utility.yul\":7956:7961   */\n      dup2\n        /* \"#utility.yul\":7945:7961   */\n      swap1\n      pop\n        /* \"#utility.yul\":7935:7967   */\n      swap2\n      swap1\n      pop\n      jump\t// out\n        /* \"#utility.yul\":7973:8153   */\n    tag_157:\n        /* \"#utility.yul\":8021:8098   */\n      0x4e487b7100000000000000000000000000000000000000000000000000000000\n        /* \"#utility.yul\":8018:8019   */\n      0x00\n        /* \"#utility.yul\":8011:8099   */\n      mstore\n        /* \"#utility.yul\":8118:8122   */\n      0x11\n        /* \"#utility.yul\":8115:8116   */\n      0x04\n        /* \"#utility.yul\":8108:8123   */\n      mstore\n        /* \"#utility.yul\":8142:8146   */\n      0x24\n        /* \"#utility.yul\":8139:8140   */\n      0x00\n        /* \"#utility.yul\":8132:8147   */\n      revert\n        /* \"#utility.yul\":8159:8339   */\n    tag_56:\n        /* \"#utility.yul\":8207:8284   */\n      0x4e487b7100000000000000000000000000000000000000000000000000000000\n        /* \"#utility.yul\":8204:8205   */\n      0x00\n        /* \"#utility.yul\":8197:8285   */\n      mstore\n        /* \"#utility.yul\":8304:8308   */\n      0x32\n        /* \"#utility.yul\":8301:8302   */\n      0x04\n        /* \"#utility.yul\":8294:8309   */\n      mstore\n        /* \"#utility.yul\":8328:8332   */\n      0x24\n        /* \"#utility.yul\":8325:8326   */\n      0x00\n        /* \"#utility.yul\":8318:8333   */\n      revert\n        /* \"#utility.yul\":8468:8585   */\n    tag_86:\n        /* \"#utility.yul\":8577:8578   */\n      0x00\n        /* \"#utility.yul\":8574:8575   */\n      dup1\n        /* \"#utility.yul\":8567:8579   */\n      revert\n        /* \"#utility.yul\":8591:8814   */\n    tag_121:\n        /* \"#utility.yul\":8731:8765   */\n      0x4f6e6c79207468652061646d696e2063616e2075736520746869732066756e63\n        /* \"#utility.yul\":8727:8728   */\n      0x00\n        /* \"#utility.yul\":8719:8725   */\n      dup3\n        /* \"#utility.yul\":8715:8729   */\n      add\n        /* \"#utility.yul\":8708:8766   */\n      mstore\n        /* \"#utility.yul\":8800:8806   */\n      0x74696f6e00000000000000000000000000000000000000000000000000000000\n        /* \"#utility.yul\":8795:8797   */\n      0x20\n        /* \"#utility.yul\":8787:8793   */\n      dup3\n        /* \"#utility.yul\":8783:8798   */\n      add\n        /* \"#utility.yul\":8776:8807   */\n      mstore\n        /* \"#utility.yul\":8697:8814   */\n      pop\n      jump\t// out\n        /* \"#utility.yul\":8820:9048   */\n    tag_126:\n        /* \"#utility.yul\":8960:8994   */\n      0x4f6e6c79207468652070617965652063616e20617070726f7665207468697320\n        /* \"#utility.yul\":8956:8957   */\n      0x00\n        /* \"#utility.yul\":8948:8954   */\n      dup3\n        /* \"#utility.yul\":8944:8958   */\n      add\n        /* \"#utility.yul\":8937:8995   */\n      mstore\n        /* \"#utility.yul\":9029:9040   */\n      0x636f6e74726163742e0000000000000000000000000000000000000000000000\n        /* \"#utility.yul\":9024:9026   */\n      0x20\n        /* \"#utility.yul\":9016:9022   */\n      dup3\n        /* \"#utility.yul\":9012:9027   */\n      add\n        /* \"#utility.yul\":9005:9041   */\n      mstore\n        /* \"#utility.yul\":8926:9048   */\n      pop\n      jump\t// out\n        /* \"#utility.yul\":9054:9176   */\n    tag_70:\n        /* \"#utility.yul\":9127:9151   */\n      tag_177\n        /* \"#utility.yul\":9145:9150   */\n      dup2\n        /* \"#utility.yul\":9127:9151   */\n      tag_111\n      jump\t// in\n    tag_177:\n        /* \"#utility.yul\":9120:9125   */\n      dup2\n        /* \"#utility.yul\":9117:9152   */\n      eq\n        /* \"#utility.yul\":9107:9109   */\n      tag_178\n      jumpi\n        /* \"#utility.yul\":9166:9167   */\n      0x00\n        /* \"#utility.yul\":9163:9164   */\n      dup1\n        /* \"#utility.yul\":9156:9168   */\n      revert\n        /* \"#utility.yul\":9107:9109   */\n    tag_178:\n        /* \"#utility.yul\":9097:9176   */\n      pop\n      jump\t// out\n        /* \"#utility.yul\":9182:9320   */\n    tag_74:\n        /* \"#utility.yul\":9263:9295   */\n      tag_180\n        /* \"#utility.yul\":9289:9294   */\n      dup2\n        /* \"#utility.yul\":9263:9295   */\n      tag_163\n      jump\t// in\n    tag_180:\n        /* \"#utility.yul\":9256:9261   */\n      dup2\n        /* \"#utility.yul\":9253:9296   */\n      eq\n        /* \"#utility.yul\":9243:9245   */\n      tag_181\n      jumpi\n        /* \"#utility.yul\":9310:9311   */\n      0x00\n        /* \"#utility.yul\":9307:9308   */\n      dup1\n        /* \"#utility.yul\":9300:9312   */\n      revert\n        /* \"#utility.yul\":9243:9245   */\n    tag_181:\n        /* \"#utility.yul\":9233:9320   */\n      pop\n      jump\t// out\n        /* \"#utility.yul\":9326:9446   */\n    tag_78:\n        /* \"#utility.yul\":9398:9421   */\n      tag_183\n        /* \"#utility.yul\":9415:9420   */\n      dup2\n        /* \"#utility.yul\":9398:9421   */\n      tag_115\n      jump\t// in\n    tag_183:\n        /* \"#utility.yul\":9391:9396   */\n      dup2\n        /* \"#utility.yul\":9388:9422   */\n      eq\n        /* \"#utility.yul\":9378:9380   */\n      tag_184\n      jumpi\n        /* \"#utility.yul\":9436:9437   */\n      0x00\n        /* \"#utility.yul\":9433:9434   */\n      dup1\n        /* \"#utility.yul\":9426:9438   */\n      revert\n        /* \"#utility.yul\":9378:9380   */\n    tag_184:\n        /* \"#utility.yul\":9368:9446   */\n      pop\n      jump\t// out\n        /* \"#utility.yul\":9452:9574   */\n    tag_82:\n        /* \"#utility.yul\":9525:9549   */\n      tag_186\n        /* \"#utility.yul\":9543:9548   */\n      dup2\n        /* \"#utility.yul\":9525:9549   */\n      tag_130\n      jump\t// in\n    tag_186:\n        /* \"#utility.yul\":9518:9523   */\n      dup2\n        /* \"#utility.yul\":9515:9550   */\n      eq\n        /* \"#utility.yul\":9505:9507   */\n      tag_187\n      jumpi\n        /* \"#utility.yul\":9564:9565   */\n      0x00\n        /* \"#utility.yul\":9561:9562   */\n      dup1\n        /* \"#utility.yul\":9554:9566   */\n      revert\n        /* \"#utility.yul\":9505:9507   */\n    tag_187:\n        /* \"#utility.yul\":9495:9574   */\n      pop\n      jump\t// out\n\n    auxdata: 0xa26469706673582212208a23919f975406aeb0287efbbfbf9a0fbccc66700c7c7ea3761012eb5977966264736f6c63430008060033\n}\n",
    "bytecode": {
      "linkReferences": {},
      "object": "608060405234801561001057600080fd5b50604051610e61380380610e61833981810160405281019061003291906100ce565b80600160006101000a81548173ffffffffffffffffffffffffffffffffffffffff021916908373ffffffffffffffffffffffffffffffffffffffff160217905550336000806101000a81548173ffffffffffffffffffffffffffffffffffffffff021916908373ffffffffffffffffffffffffffffffffffffffff16021790555050610149565b6000815190506100c881610132565b92915050565b6000602082840312156100e4576100e361012d565b5b60006100f2848285016100b9565b91505092915050565b60006101068261010d565b9050919050565b600073ffffffffffffffffffffffffffffffffffffffff82169050919050565b600080fd5b61013b816100fb565b811461014657600080fd5b50565b610d09806101586000396000f3fe608060405234801561001057600080fd5b50600436106100415760003560e01c80637d4061e6146100465780638e166a2a14610076578063daea85c5146100a6575b600080fd5b610060600480360381019061005b91906108d7565b6100c2565b60405161006d9190610977565b60405180910390f35b610090600480360381019061008b919061080d565b610101565b60405161009d9190610977565b60405180910390f35b6100c060048036038101906100bb91906107b3565b6102c6565b005b600281815481106100d257600080fd5b906000526020600020016000915054906101000a900473ffffffffffffffffffffffffffffffffffffffff1681565b60008060009054906101000a900473ffffffffffffffffffffffffffffffffffffffff1673ffffffffffffffffffffffffffffffffffffffff163373ffffffffffffffffffffffffffffffffffffffff1614610192576040517f08c379a000000000000000000000000000000000000000000000000000000000815260040161018990610a39565b60405180910390fd5b60006101bf600160009054906101000a900473ffffffffffffffffffffffffffffffffffffffff166106f5565b90508073ffffffffffffffffffffffffffffffffffffffff16630d4b8cb98c8c8c8c8c8c8c8c6040518963ffffffff1660e01b8152600401610208989796959493929190610992565b600060405180830381600087803b15801561022257600080fd5b505af1158015610236573d6000803e3d6000fd5b5050505082600360008373ffffffffffffffffffffffffffffffffffffffff1673ffffffffffffffffffffffffffffffffffffffff168152602001908152602001600020819055507f4e1d29e2852465a104ae5b46a21386067094efd4c78e8fca5fbd0f73155f83ec816040516102ad9190610977565b60405180910390a1809150509998505050505050505050565b8073ffffffffffffffffffffffffffffffffffffffff1663ae90b2136040518163ffffffff1660e01b815260040160206040518083038186803b15801561030c57600080fd5b505afa158015610320573d6000803e3d6000fd5b505050506040513d601f19601f8201168201806040525081019061034491906107e0565b73ffffffffffffffffffffffffffffffffffffffff163373ffffffffffffffffffffffffffffffffffffffff16146103b1576040517f08c379a00000000000000000000000000000000000000000000000000000000081526004016103a890610a59565b60405180910390fd5b8073ffffffffffffffffffffffffffffffffffffffff166312424e3f6040518163ffffffff1660e01b8152600401600060405180830381600087803b1580156103f957600080fd5b505af115801561040d573d6000803e3d6000fd5b505050506000600360008373ffffffffffffffffffffffffffffffffffffffff1673ffffffffffffffffffffffffffffffffffffffff1681526020019081526020016000205490507fffffffffffffffffffffffffffffffffffffffffffffffffffffffffffffffff811415610573576002829080600181540180825580915050600190039060005260206000200160009091909190916101000a81548173ffffffffffffffffffffffffffffffffffffffff021916908373ffffffffffffffffffffffffffffffffffffffff160217905550600360008373ffffffffffffffffffffffffffffffffffffffff1673ffffffffffffffffffffffffffffffffffffffff168152602001908152602001600020600090557fa632268b4e910a424b413fd0bd0a48d43ad05e1cf3920dfb1573c2c39b495f5b8260016002805490506105579190610a8a565b604051610565929190610a10565b60405180910390a1506106f2565b60006002828154811061058957610588610ba5565b5b9060005260206000200160009054906101000a900473ffffffffffffffffffffffffffffffffffffffff1690508073ffffffffffffffffffffffffffffffffffffffff166383197ef06040518163ffffffff1660e01b8152600401600060405180830381600087803b1580156105fe57600080fd5b505af1158015610612573d6000803e3d6000fd5b50505050826002838154811061062b5761062a610ba5565b5b9060005260206000200160006101000a81548173ffffffffffffffffffffffffffffffffffffffff021916908373ffffffffffffffffffffffffffffffffffffffff160217905550600360008473ffffffffffffffffffffffffffffffffffffffff1673ffffffffffffffffffffffffffffffffffffffff168152602001908152602001600020600090557fa632268b4e910a424b413fd0bd0a48d43ad05e1cf3920dfb1573c2c39b495f5b83836040516106e7929190610a10565b60405180910390a150505b50565b6000808260601b90506040517f3d602d80600a3d3981f3363d3d373d3d3d363d7300000000000000000000000081528160148201527f5af43d82803e903d91602b57fd5bf3000000000000000000000000000000000060288201526037816000f092505050919050565b60008135905061076e81610c77565b92915050565b60008151905061078381610c8e565b92915050565b60008135905061079881610ca5565b92915050565b6000813590506107ad81610cbc565b92915050565b6000602082840312156107c9576107c8610bd4565b5b60006107d78482850161075f565b91505092915050565b6000602082840312156107f6576107f5610bd4565b5b600061080484828501610774565b91505092915050565b60008060008060008060008060006101208a8c0312156108305761082f610bd4565b5b600061083e8c828d0161075f565b995050602061084f8c828d0161075f565b98505060406108608c828d0161079e565b97505060606108718c828d0161079e565b96505060806108828c828d0161079e565b95505060a06108938c828d0161079e565b94505060c06108a48c828d0161079e565b93505060e06108b58c828d0161079e565b9250506101006108c78c828d01610789565b9150509295985092959850929598565b6000602082840312156108ed576108ec610bd4565b5b60006108fb8482850161079e565b91505092915050565b61090d81610b1e565b82525050565b61091c81610b42565b82525050565b600061092f602483610a79565b915061093a82610bd9565b604082019050919050565b6000610952602983610a79565b915061095d82610c28565b604082019050919050565b61097181610b6c565b82525050565b600060208201905061098c6000830184610904565b92915050565b6000610100820190506109a8600083018b610904565b6109b5602083018a610904565b6109c26040830189610968565b6109cf6060830188610968565b6109dc6080830187610968565b6109e960a0830186610968565b6109f660c0830185610968565b610a0360e0830184610968565b9998505050505050505050565b6000604082019050610a256000830185610904565b610a326020830184610913565b9392505050565b60006020820190508181036000830152610a5281610922565b9050919050565b60006020820190508181036000830152610a7281610945565b9050919050565b600082825260208201905092915050565b6000610a9582610b42565b9150610aa083610b42565b9250827f800000000000000000000000000000000000000000000000000000000000000001821260008412151615610adb57610ada610b76565b5b827f7fffffffffffffffffffffffffffffffffffffffffffffffffffffffffffffff018213600084121615610b1357610b12610b76565b5b828203905092915050565b6000610b2982610b4c565b9050919050565b6000610b3b82610b4c565b9050919050565b6000819050919050565b600073ffffffffffffffffffffffffffffffffffffffff82169050919050565b6000819050919050565b7f4e487b7100000000000000000000000000000000000000000000000000000000600052601160045260246000fd5b7f4e487b7100000000000000000000000000000000000000000000000000000000600052603260045260246000fd5b600080fd5b7f4f6e6c79207468652061646d696e2063616e2075736520746869732066756e6360008201527f74696f6e00000000000000000000000000000000000000000000000000000000602082015250565b7f4f6e6c79207468652070617965652063616e20617070726f766520746869732060008201527f636f6e74726163742e0000000000000000000000000000000000000000000000602082015250565b610c8081610b1e565b8114610c8b57600080fd5b50565b610c9781610b30565b8114610ca257600080fd5b50565b610cae81610b42565b8114610cb957600080fd5b50565b610cc581610b6c565b8114610cd057600080fd5b5056fea26469706673582212208a23919f975406aeb0287efbbfbf9a0fbccc66700c7c7ea3761012eb5977966264736f6c63430008060033",
      "opcodes": "PUSH1 0x80 PUSH1 0x40 MSTORE CALLVALUE DUP1 ISZERO PUSH2 0x10 JUMPI PUSH1 0x0 DUP1 REVERT JUMPDEST POP PUSH1 0x40 MLOAD PUSH2 0xE61 CODESIZE SUB DUP1 PUSH2 0xE61 DUP4 CODECOPY DUP2 DUP2 ADD PUSH1 0x40 MSTORE DUP2 ADD SWAP1 PUSH2 0x32 SWAP2 SWAP1 PUSH2 0xCE JUMP JUMPDEST DUP1 PUSH1 0x1 PUSH1 0x0 PUSH2 0x100 EXP DUP2 SLOAD DUP2 PUSH20 0xFFFFFFFFFFFFFFFFFFFFFFFFFFFFFFFFFFFFFFFF MUL NOT AND SWAP1 DUP4 PUSH20 0xFFFFFFFFFFFFFFFFFFFFFFFFFFFFFFFFFFFFFFFF AND MUL OR SWAP1 SSTORE POP CALLER PUSH1 0x0 DUP1 PUSH2 0x100 EXP DUP2 SLOAD DUP2 PUSH20 0xFFFFFFFFFFFFFFFFFFFFFFFFFFFFFFFFFFFFFFFF MUL NOT AND SWAP1 DUP4 PUSH20 0xFFFFFFFFFFFFFFFFFFFFFFFFFFFFFFFFFFFFFFFF AND MUL OR SWAP1 SSTORE POP POP PUSH2 0x149 JUMP JUMPDEST PUSH1 0x0 DUP2 MLOAD SWAP1 POP PUSH2 0xC8 DUP2 PUSH2 0x132 JUMP JUMPDEST SWAP3 SWAP2 POP POP JUMP JUMPDEST PUSH1 0x0 PUSH1 0x20 DUP3 DUP5 SUB SLT ISZERO PUSH2 0xE4 JUMPI PUSH2 0xE3 PUSH2 0x12D JUMP JUMPDEST JUMPDEST PUSH1 0x0 PUSH2 0xF2 DUP5 DUP3 DUP6 ADD PUSH2 0xB9 JUMP JUMPDEST SWAP2 POP POP SWAP3 SWAP2 POP POP JUMP JUMPDEST PUSH1 0x0 PUSH2 0x106 DUP3 PUSH2 0x10D JUMP JUMPDEST SWAP1 POP SWAP2 SWAP1 POP JUMP JUMPDEST PUSH1 0x0 PUSH20 0xFFFFFFFFFFFFFFFFFFFFFFFFFFFFFFFFFFFFFFFF DUP3 AND SWAP1 POP SWAP2 SWAP1 POP JUMP JUMPDEST PUSH1 0x0 DUP1 REVERT JUMPDEST PUSH2 0x13B DUP2 PUSH2 0xFB JUMP JUMPDEST DUP2 EQ PUSH2 0x146 JUMPI PUSH1 0x0 DUP1 REVERT JUMPDEST POP JUMP JUMPDEST PUSH2 0xD09 DUP1 PUSH2 0x158 PUSH1 0x0 CODECOPY PUSH1 0x0 RETURN INVALID PUSH1 0x80 PUSH1 0x40 MSTORE CALLVALUE DUP1 ISZERO PUSH2 0x10 JUMPI PUSH1 0x0 DUP1 REVERT JUMPDEST POP PUSH1 0x4 CALLDATASIZE LT PUSH2 0x41 JUMPI PUSH1 0x0 CALLDATALOAD PUSH1 0xE0 SHR DUP1 PUSH4 0x7D4061E6 EQ PUSH2 0x46 JUMPI DUP1 PUSH4 0x8E166A2A EQ PUSH2 0x76 JUMPI DUP1 PUSH4 0xDAEA85C5 EQ PUSH2 0xA6 JUMPI JUMPDEST PUSH1 0x0 DUP1 REVERT JUMPDEST PUSH2 0x60 PUSH1 0x4 DUP1 CALLDATASIZE SUB DUP2 ADD SWAP1 PUSH2 0x5B SWAP2 SWAP1 PUSH2 0x8D7 JUMP JUMPDEST PUSH2 0xC2 JUMP JUMPDEST PUSH1 0x40 MLOAD PUSH2 0x6D SWAP2 SWAP1 PUSH2 0x977 JUMP JUMPDEST PUSH1 0x40 MLOAD DUP1 SWAP2 SUB SWAP1 RETURN JUMPDEST PUSH2 0x90 PUSH1 0x4 DUP1 CALLDATASIZE SUB DUP2 ADD SWAP1 PUSH2 0x8B SWAP2 SWAP1 PUSH2 0x80D JUMP JUMPDEST PUSH2 0x101 JUMP JUMPDEST PUSH1 0x40 MLOAD PUSH2 0x9D SWAP2 SWAP1 PUSH2 0x977 JUMP JUMPDEST PUSH1 0x40 MLOAD DUP1 SWAP2 SUB SWAP1 RETURN JUMPDEST PUSH2 0xC0 PUSH1 0x4 DUP1 CALLDATASIZE SUB DUP2 ADD SWAP1 PUSH2 0xBB SWAP2 SWAP1 PUSH2 0x7B3 JUMP JUMPDEST PUSH2 0x2C6 JUMP JUMPDEST STOP JUMPDEST PUSH1 0x2 DUP2 DUP2 SLOAD DUP2 LT PUSH2 0xD2 JUMPI PUSH1 0x0 DUP1 REVERT JUMPDEST SWAP1 PUSH1 0x0 MSTORE PUSH1 0x20 PUSH1 0x0 KECCAK256 ADD PUSH1 0x0 SWAP2 POP SLOAD SWAP1 PUSH2 0x100 EXP SWAP1 DIV PUSH20 0xFFFFFFFFFFFFFFFFFFFFFFFFFFFFFFFFFFFFFFFF AND DUP2 JUMP JUMPDEST PUSH1 0x0 DUP1 PUSH1 0x0 SWAP1 SLOAD SWAP1 PUSH2 0x100 EXP SWAP1 DIV PUSH20 0xFFFFFFFFFFFFFFFFFFFFFFFFFFFFFFFFFFFFFFFF AND PUSH20 0xFFFFFFFFFFFFFFFFFFFFFFFFFFFFFFFFFFFFFFFF AND CALLER PUSH20 0xFFFFFFFFFFFFFFFFFFFFFFFFFFFFFFFFFFFFFFFF AND EQ PUSH2 0x192 JUMPI PUSH1 0x40 MLOAD PUSH32 0x8C379A000000000000000000000000000000000000000000000000000000000 DUP2 MSTORE PUSH1 0x4 ADD PUSH2 0x189 SWAP1 PUSH2 0xA39 JUMP JUMPDEST PUSH1 0x40 MLOAD DUP1 SWAP2 SUB SWAP1 REVERT JUMPDEST PUSH1 0x0 PUSH2 0x1BF PUSH1 0x1 PUSH1 0x0 SWAP1 SLOAD SWAP1 PUSH2 0x100 EXP SWAP1 DIV PUSH20 0xFFFFFFFFFFFFFFFFFFFFFFFFFFFFFFFFFFFFFFFF AND PUSH2 0x6F5 JUMP JUMPDEST SWAP1 POP DUP1 PUSH20 0xFFFFFFFFFFFFFFFFFFFFFFFFFFFFFFFFFFFFFFFF AND PUSH4 0xD4B8CB9 DUP13 DUP13 DUP13 DUP13 DUP13 DUP13 DUP13 DUP13 PUSH1 0x40 MLOAD DUP10 PUSH4 0xFFFFFFFF AND PUSH1 0xE0 SHL DUP2 MSTORE PUSH1 0x4 ADD PUSH2 0x208 SWAP9 SWAP8 SWAP7 SWAP6 SWAP5 SWAP4 SWAP3 SWAP2 SWAP1 PUSH2 0x992 JUMP JUMPDEST PUSH1 0x0 PUSH1 0x40 MLOAD DUP1 DUP4 SUB DUP2 PUSH1 0x0 DUP8 DUP1 EXTCODESIZE ISZERO DUP1 ISZERO PUSH2 0x222 JUMPI PUSH1 0x0 DUP1 REVERT JUMPDEST POP GAS CALL ISZERO DUP1 ISZERO PUSH2 0x236 JUMPI RETURNDATASIZE PUSH1 0x0 DUP1 RETURNDATACOPY RETURNDATASIZE PUSH1 0x0 REVERT JUMPDEST POP POP POP POP DUP3 PUSH1 0x3 PUSH1 0x0 DUP4 PUSH20 0xFFFFFFFFFFFFFFFFFFFFFFFFFFFFFFFFFFFFFFFF AND PUSH20 0xFFFFFFFFFFFFFFFFFFFFFFFFFFFFFFFFFFFFFFFF AND DUP2 MSTORE PUSH1 0x20 ADD SWAP1 DUP2 MSTORE PUSH1 0x20 ADD PUSH1 0x0 KECCAK256 DUP2 SWAP1 SSTORE POP PUSH32 0x4E1D29E2852465A104AE5B46A21386067094EFD4C78E8FCA5FBD0F73155F83EC DUP2 PUSH1 0x40 MLOAD PUSH2 0x2AD SWAP2 SWAP1 PUSH2 0x977 JUMP JUMPDEST PUSH1 0x40 MLOAD DUP1 SWAP2 SUB SWAP1 LOG1 DUP1 SWAP2 POP POP SWAP10 SWAP9 POP POP POP POP POP POP POP POP POP JUMP JUMPDEST DUP1 PUSH20 0xFFFFFFFFFFFFFFFFFFFFFFFFFFFFFFFFFFFFFFFF AND PUSH4 0xAE90B213 PUSH1 0x40 MLOAD DUP2 PUSH4 0xFFFFFFFF AND PUSH1 0xE0 SHL DUP2 MSTORE PUSH1 0x4 ADD PUSH1 0x20 PUSH1 0x40 MLOAD DUP1 DUP4 SUB DUP2 DUP7 DUP1 EXTCODESIZE ISZERO DUP1 ISZERO PUSH2 0x30C JUMPI PUSH1 0x0 DUP1 REVERT JUMPDEST POP GAS STATICCALL ISZERO DUP1 ISZERO PUSH2 0x320 JUMPI RETURNDATASIZE PUSH1 0x0 DUP1 RETURNDATACOPY RETURNDATASIZE PUSH1 0x0 REVERT JUMPDEST POP POP POP POP PUSH1 0x40 MLOAD RETURNDATASIZE PUSH1 0x1F NOT PUSH1 0x1F DUP3 ADD AND DUP3 ADD DUP1 PUSH1 0x40 MSTORE POP DUP2 ADD SWAP1 PUSH2 0x344 SWAP2 SWAP1 PUSH2 0x7E0 JUMP JUMPDEST PUSH20 0xFFFFFFFFFFFFFFFFFFFFFFFFFFFFFFFFFFFFFFFF AND CALLER PUSH20 0xFFFFFFFFFFFFFFFFFFFFFFFFFFFFFFFFFFFFFFFF AND EQ PUSH2 0x3B1 JUMPI PUSH1 0x40 MLOAD PUSH32 0x8C379A000000000000000000000000000000000000000000000000000000000 DUP2 MSTORE PUSH1 0x4 ADD PUSH2 0x3A8 SWAP1 PUSH2 0xA59 JUMP JUMPDEST PUSH1 0x40 MLOAD DUP1 SWAP2 SUB SWAP1 REVERT JUMPDEST DUP1 PUSH20 0xFFFFFFFFFFFFFFFFFFFFFFFFFFFFFFFFFFFFFFFF AND PUSH4 0x12424E3F PUSH1 0x40 MLOAD DUP2 PUSH4 0xFFFFFFFF AND PUSH1 0xE0 SHL DUP2 MSTORE PUSH1 0x4 ADD PUSH1 0x0 PUSH1 0x40 MLOAD DUP1 DUP4 SUB DUP2 PUSH1 0x0 DUP8 DUP1 EXTCODESIZE ISZERO DUP1 ISZERO PUSH2 0x3F9 JUMPI PUSH1 0x0 DUP1 REVERT JUMPDEST POP GAS CALL ISZERO DUP1 ISZERO PUSH2 0x40D JUMPI RETURNDATASIZE PUSH1 0x0 DUP1 RETURNDATACOPY RETURNDATASIZE PUSH1 0x0 REVERT JUMPDEST POP POP POP POP PUSH1 0x0 PUSH1 0x3 PUSH1 0x0 DUP4 PUSH20 0xFFFFFFFFFFFFFFFFFFFFFFFFFFFFFFFFFFFFFFFF AND PUSH20 0xFFFFFFFFFFFFFFFFFFFFFFFFFFFFFFFFFFFFFFFF AND DUP2 MSTORE PUSH1 0x20 ADD SWAP1 DUP2 MSTORE PUSH1 0x20 ADD PUSH1 0x0 KECCAK256 SLOAD SWAP1 POP PUSH32 0xFFFFFFFFFFFFFFFFFFFFFFFFFFFFFFFFFFFFFFFFFFFFFFFFFFFFFFFFFFFFFFFF DUP2 EQ ISZERO PUSH2 0x573 JUMPI PUSH1 0x2 DUP3 SWAP1 DUP1 PUSH1 0x1 DUP2 SLOAD ADD DUP1 DUP3 SSTORE DUP1 SWAP2 POP POP PUSH1 0x1 SWAP1 SUB SWAP1 PUSH1 0x0 MSTORE PUSH1 0x20 PUSH1 0x0 KECCAK256 ADD PUSH1 0x0 SWAP1 SWAP2 SWAP1 SWAP2 SWAP1 SWAP2 PUSH2 0x100 EXP DUP2 SLOAD DUP2 PUSH20 0xFFFFFFFFFFFFFFFFFFFFFFFFFFFFFFFFFFFFFFFF MUL NOT AND SWAP1 DUP4 PUSH20 0xFFFFFFFFFFFFFFFFFFFFFFFFFFFFFFFFFFFFFFFF AND MUL OR SWAP1 SSTORE POP PUSH1 0x3 PUSH1 0x0 DUP4 PUSH20 0xFFFFFFFFFFFFFFFFFFFFFFFFFFFFFFFFFFFFFFFF AND PUSH20 0xFFFFFFFFFFFFFFFFFFFFFFFFFFFFFFFFFFFFFFFF AND DUP2 MSTORE PUSH1 0x20 ADD SWAP1 DUP2 MSTORE PUSH1 0x20 ADD PUSH1 0x0 KECCAK256 PUSH1 0x0 SWAP1 SSTORE PUSH32 0xA632268B4E910A424B413FD0BD0A48D43AD05E1CF3920DFB1573C2C39B495F5B DUP3 PUSH1 0x1 PUSH1 0x2 DUP1 SLOAD SWAP1 POP PUSH2 0x557 SWAP2 SWAP1 PUSH2 0xA8A JUMP JUMPDEST PUSH1 0x40 MLOAD PUSH2 0x565 SWAP3 SWAP2 SWAP1 PUSH2 0xA10 JUMP JUMPDEST PUSH1 0x40 MLOAD DUP1 SWAP2 SUB SWAP1 LOG1 POP PUSH2 0x6F2 JUMP JUMPDEST PUSH1 0x0 PUSH1 0x2 DUP3 DUP2 SLOAD DUP2 LT PUSH2 0x589 JUMPI PUSH2 0x588 PUSH2 0xBA5 JUMP JUMPDEST JUMPDEST SWAP1 PUSH1 0x0 MSTORE PUSH1 0x20 PUSH1 0x0 KECCAK256 ADD PUSH1 0x0 SWAP1 SLOAD SWAP1 PUSH2 0x100 EXP SWAP1 DIV PUSH20 0xFFFFFFFFFFFFFFFFFFFFFFFFFFFFFFFFFFFFFFFF AND SWAP1 POP DUP1 PUSH20 0xFFFFFFFFFFFFFFFFFFFFFFFFFFFFFFFFFFFFFFFF AND PUSH4 0x83197EF0 PUSH1 0x40 MLOAD DUP2 PUSH4 0xFFFFFFFF AND PUSH1 0xE0 SHL DUP2 MSTORE PUSH1 0x4 ADD PUSH1 0x0 PUSH1 0x40 MLOAD DUP1 DUP4 SUB DUP2 PUSH1 0x0 DUP8 DUP1 EXTCODESIZE ISZERO DUP1 ISZERO PUSH2 0x5FE JUMPI PUSH1 0x0 DUP1 REVERT JUMPDEST POP GAS CALL ISZERO DUP1 ISZERO PUSH2 0x612 JUMPI RETURNDATASIZE PUSH1 0x0 DUP1 RETURNDATACOPY RETURNDATASIZE PUSH1 0x0 REVERT JUMPDEST POP POP POP POP DUP3 PUSH1 0x2 DUP4 DUP2 SLOAD DUP2 LT PUSH2 0x62B JUMPI PUSH2 0x62A PUSH2 0xBA5 JUMP JUMPDEST JUMPDEST SWAP1 PUSH1 0x0 MSTORE PUSH1 0x20 PUSH1 0x0 KECCAK256 ADD PUSH1 0x0 PUSH2 0x100 EXP DUP2 SLOAD DUP2 PUSH20 0xFFFFFFFFFFFFFFFFFFFFFFFFFFFFFFFFFFFFFFFF MUL NOT AND SWAP1 DUP4 PUSH20 0xFFFFFFFFFFFFFFFFFFFFFFFFFFFFFFFFFFFFFFFF AND MUL OR SWAP1 SSTORE POP PUSH1 0x3 PUSH1 0x0 DUP5 PUSH20 0xFFFFFFFFFFFFFFFFFFFFFFFFFFFFFFFFFFFFFFFF AND PUSH20 0xFFFFFFFFFFFFFFFFFFFFFFFFFFFFFFFFFFFFFFFF AND DUP2 MSTORE PUSH1 0x20 ADD SWAP1 DUP2 MSTORE PUSH1 0x20 ADD PUSH1 0x0 KECCAK256 PUSH1 0x0 SWAP1 SSTORE PUSH32 0xA632268B4E910A424B413FD0BD0A48D43AD05E1CF3920DFB1573C2C39B495F5B DUP4 DUP4 PUSH1 0x40 MLOAD PUSH2 0x6E7 SWAP3 SWAP2 SWAP1 PUSH2 0xA10 JUMP JUMPDEST PUSH1 0x40 MLOAD DUP1 SWAP2 SUB SWAP1 LOG1 POP POP JUMPDEST POP JUMP JUMPDEST PUSH1 0x0 DUP1 DUP3 PUSH1 0x60 SHL SWAP1 POP PUSH1 0x40 MLOAD PUSH32 0x3D602D80600A3D3981F3363D3D373D3D3D363D73000000000000000000000000 DUP2 MSTORE DUP2 PUSH1 0x14 DUP3 ADD MSTORE PUSH32 0x5AF43D82803E903D91602B57FD5BF30000000000000000000000000000000000 PUSH1 0x28 DUP3 ADD MSTORE PUSH1 0x37 DUP2 PUSH1 0x0 CREATE SWAP3 POP POP POP SWAP2 SWAP1 POP JUMP JUMPDEST PUSH1 0x0 DUP2 CALLDATALOAD SWAP1 POP PUSH2 0x76E DUP2 PUSH2 0xC77 JUMP JUMPDEST SWAP3 SWAP2 POP POP JUMP JUMPDEST PUSH1 0x0 DUP2 MLOAD SWAP1 POP PUSH2 0x783 DUP2 PUSH2 0xC8E JUMP JUMPDEST SWAP3 SWAP2 POP POP JUMP JUMPDEST PUSH1 0x0 DUP2 CALLDATALOAD SWAP1 POP PUSH2 0x798 DUP2 PUSH2 0xCA5 JUMP JUMPDEST SWAP3 SWAP2 POP POP JUMP JUMPDEST PUSH1 0x0 DUP2 CALLDATALOAD SWAP1 POP PUSH2 0x7AD DUP2 PUSH2 0xCBC JUMP JUMPDEST SWAP3 SWAP2 POP POP JUMP JUMPDEST PUSH1 0x0 PUSH1 0x20 DUP3 DUP5 SUB SLT ISZERO PUSH2 0x7C9 JUMPI PUSH2 0x7C8 PUSH2 0xBD4 JUMP JUMPDEST JUMPDEST PUSH1 0x0 PUSH2 0x7D7 DUP5 DUP3 DUP6 ADD PUSH2 0x75F JUMP JUMPDEST SWAP2 POP POP SWAP3 SWAP2 POP POP JUMP JUMPDEST PUSH1 0x0 PUSH1 0x20 DUP3 DUP5 SUB SLT ISZERO PUSH2 0x7F6 JUMPI PUSH2 0x7F5 PUSH2 0xBD4 JUMP JUMPDEST JUMPDEST PUSH1 0x0 PUSH2 0x804 DUP5 DUP3 DUP6 ADD PUSH2 0x774 JUMP JUMPDEST SWAP2 POP POP SWAP3 SWAP2 POP POP JUMP JUMPDEST PUSH1 0x0 DUP1 PUSH1 0x0 DUP1 PUSH1 0x0 DUP1 PUSH1 0x0 DUP1 PUSH1 0x0 PUSH2 0x120 DUP11 DUP13 SUB SLT ISZERO PUSH2 0x830 JUMPI PUSH2 0x82F PUSH2 0xBD4 JUMP JUMPDEST JUMPDEST PUSH1 0x0 PUSH2 0x83E DUP13 DUP3 DUP14 ADD PUSH2 0x75F JUMP JUMPDEST SWAP10 POP POP PUSH1 0x20 PUSH2 0x84F DUP13 DUP3 DUP14 ADD PUSH2 0x75F JUMP JUMPDEST SWAP9 POP POP PUSH1 0x40 PUSH2 0x860 DUP13 DUP3 DUP14 ADD PUSH2 0x79E JUMP JUMPDEST SWAP8 POP POP PUSH1 0x60 PUSH2 0x871 DUP13 DUP3 DUP14 ADD PUSH2 0x79E JUMP JUMPDEST SWAP7 POP POP PUSH1 0x80 PUSH2 0x882 DUP13 DUP3 DUP14 ADD PUSH2 0x79E JUMP JUMPDEST SWAP6 POP POP PUSH1 0xA0 PUSH2 0x893 DUP13 DUP3 DUP14 ADD PUSH2 0x79E JUMP JUMPDEST SWAP5 POP POP PUSH1 0xC0 PUSH2 0x8A4 DUP13 DUP3 DUP14 ADD PUSH2 0x79E JUMP JUMPDEST SWAP4 POP POP PUSH1 0xE0 PUSH2 0x8B5 DUP13 DUP3 DUP14 ADD PUSH2 0x79E JUMP JUMPDEST SWAP3 POP POP PUSH2 0x100 PUSH2 0x8C7 DUP13 DUP3 DUP14 ADD PUSH2 0x789 JUMP JUMPDEST SWAP2 POP POP SWAP3 SWAP6 SWAP9 POP SWAP3 SWAP6 SWAP9 POP SWAP3 SWAP6 SWAP9 JUMP JUMPDEST PUSH1 0x0 PUSH1 0x20 DUP3 DUP5 SUB SLT ISZERO PUSH2 0x8ED JUMPI PUSH2 0x8EC PUSH2 0xBD4 JUMP JUMPDEST JUMPDEST PUSH1 0x0 PUSH2 0x8FB DUP5 DUP3 DUP6 ADD PUSH2 0x79E JUMP JUMPDEST SWAP2 POP POP SWAP3 SWAP2 POP POP JUMP JUMPDEST PUSH2 0x90D DUP2 PUSH2 0xB1E JUMP JUMPDEST DUP3 MSTORE POP POP JUMP JUMPDEST PUSH2 0x91C DUP2 PUSH2 0xB42 JUMP JUMPDEST DUP3 MSTORE POP POP JUMP JUMPDEST PUSH1 0x0 PUSH2 0x92F PUSH1 0x24 DUP4 PUSH2 0xA79 JUMP JUMPDEST SWAP2 POP PUSH2 0x93A DUP3 PUSH2 0xBD9 JUMP JUMPDEST PUSH1 0x40 DUP3 ADD SWAP1 POP SWAP2 SWAP1 POP JUMP JUMPDEST PUSH1 0x0 PUSH2 0x952 PUSH1 0x29 DUP4 PUSH2 0xA79 JUMP JUMPDEST SWAP2 POP PUSH2 0x95D DUP3 PUSH2 0xC28 JUMP JUMPDEST PUSH1 0x40 DUP3 ADD SWAP1 POP SWAP2 SWAP1 POP JUMP JUMPDEST PUSH2 0x971 DUP2 PUSH2 0xB6C JUMP JUMPDEST DUP3 MSTORE POP POP JUMP JUMPDEST PUSH1 0x0 PUSH1 0x20 DUP3 ADD SWAP1 POP PUSH2 0x98C PUSH1 0x0 DUP4 ADD DUP5 PUSH2 0x904 JUMP JUMPDEST SWAP3 SWAP2 POP POP JUMP JUMPDEST PUSH1 0x0 PUSH2 0x100 DUP3 ADD SWAP1 POP PUSH2 0x9A8 PUSH1 0x0 DUP4 ADD DUP12 PUSH2 0x904 JUMP JUMPDEST PUSH2 0x9B5 PUSH1 0x20 DUP4 ADD DUP11 PUSH2 0x904 JUMP JUMPDEST PUSH2 0x9C2 PUSH1 0x40 DUP4 ADD DUP10 PUSH2 0x968 JUMP JUMPDEST PUSH2 0x9CF PUSH1 0x60 DUP4 ADD DUP9 PUSH2 0x968 JUMP JUMPDEST PUSH2 0x9DC PUSH1 0x80 DUP4 ADD DUP8 PUSH2 0x968 JUMP JUMPDEST PUSH2 0x9E9 PUSH1 0xA0 DUP4 ADD DUP7 PUSH2 0x968 JUMP JUMPDEST PUSH2 0x9F6 PUSH1 0xC0 DUP4 ADD DUP6 PUSH2 0x968 JUMP JUMPDEST PUSH2 0xA03 PUSH1 0xE0 DUP4 ADD DUP5 PUSH2 0x968 JUMP JUMPDEST SWAP10 SWAP9 POP POP POP POP POP POP POP POP POP JUMP JUMPDEST PUSH1 0x0 PUSH1 0x40 DUP3 ADD SWAP1 POP PUSH2 0xA25 PUSH1 0x0 DUP4 ADD DUP6 PUSH2 0x904 JUMP JUMPDEST PUSH2 0xA32 PUSH1 0x20 DUP4 ADD DUP5 PUSH2 0x913 JUMP JUMPDEST SWAP4 SWAP3 POP POP POP JUMP JUMPDEST PUSH1 0x0 PUSH1 0x20 DUP3 ADD SWAP1 POP DUP2 DUP2 SUB PUSH1 0x0 DUP4 ADD MSTORE PUSH2 0xA52 DUP2 PUSH2 0x922 JUMP JUMPDEST SWAP1 POP SWAP2 SWAP1 POP JUMP JUMPDEST PUSH1 0x0 PUSH1 0x20 DUP3 ADD SWAP1 POP DUP2 DUP2 SUB PUSH1 0x0 DUP4 ADD MSTORE PUSH2 0xA72 DUP2 PUSH2 0x945 JUMP JUMPDEST SWAP1 POP SWAP2 SWAP1 POP JUMP JUMPDEST PUSH1 0x0 DUP3 DUP3 MSTORE PUSH1 0x20 DUP3 ADD SWAP1 POP SWAP3 SWAP2 POP POP JUMP JUMPDEST PUSH1 0x0 PUSH2 0xA95 DUP3 PUSH2 0xB42 JUMP JUMPDEST SWAP2 POP PUSH2 0xAA0 DUP4 PUSH2 0xB42 JUMP JUMPDEST SWAP3 POP DUP3 PUSH32 0x8000000000000000000000000000000000000000000000000000000000000000 ADD DUP3 SLT PUSH1 0x0 DUP5 SLT ISZERO AND ISZERO PUSH2 0xADB JUMPI PUSH2 0xADA PUSH2 0xB76 JUMP JUMPDEST JUMPDEST DUP3 PUSH32 0x7FFFFFFFFFFFFFFFFFFFFFFFFFFFFFFFFFFFFFFFFFFFFFFFFFFFFFFFFFFFFFFF ADD DUP3 SGT PUSH1 0x0 DUP5 SLT AND ISZERO PUSH2 0xB13 JUMPI PUSH2 0xB12 PUSH2 0xB76 JUMP JUMPDEST JUMPDEST DUP3 DUP3 SUB SWAP1 POP SWAP3 SWAP2 POP POP JUMP JUMPDEST PUSH1 0x0 PUSH2 0xB29 DUP3 PUSH2 0xB4C JUMP JUMPDEST SWAP1 POP SWAP2 SWAP1 POP JUMP JUMPDEST PUSH1 0x0 PUSH2 0xB3B DUP3 PUSH2 0xB4C JUMP JUMPDEST SWAP1 POP SWAP2 SWAP1 POP JUMP JUMPDEST PUSH1 0x0 DUP2 SWAP1 POP SWAP2 SWAP1 POP JUMP JUMPDEST PUSH1 0x0 PUSH20 0xFFFFFFFFFFFFFFFFFFFFFFFFFFFFFFFFFFFFFFFF DUP3 AND SWAP1 POP SWAP2 SWAP1 POP JUMP JUMPDEST PUSH1 0x0 DUP2 SWAP1 POP SWAP2 SWAP1 POP JUMP JUMPDEST PUSH32 0x4E487B7100000000000000000000000000000000000000000000000000000000 PUSH1 0x0 MSTORE PUSH1 0x11 PUSH1 0x4 MSTORE PUSH1 0x24 PUSH1 0x0 REVERT JUMPDEST PUSH32 0x4E487B7100000000000000000000000000000000000000000000000000000000 PUSH1 0x0 MSTORE PUSH1 0x32 PUSH1 0x4 MSTORE PUSH1 0x24 PUSH1 0x0 REVERT JUMPDEST PUSH1 0x0 DUP1 REVERT JUMPDEST PUSH32 0x4F6E6C79207468652061646D696E2063616E2075736520746869732066756E63 PUSH1 0x0 DUP3 ADD MSTORE PUSH32 0x74696F6E00000000000000000000000000000000000000000000000000000000 PUSH1 0x20 DUP3 ADD MSTORE POP JUMP JUMPDEST PUSH32 0x4F6E6C79207468652070617965652063616E20617070726F7665207468697320 PUSH1 0x0 DUP3 ADD MSTORE PUSH32 0x636F6E74726163742E0000000000000000000000000000000000000000000000 PUSH1 0x20 DUP3 ADD MSTORE POP JUMP JUMPDEST PUSH2 0xC80 DUP2 PUSH2 0xB1E JUMP JUMPDEST DUP2 EQ PUSH2 0xC8B JUMPI PUSH1 0x0 DUP1 REVERT JUMPDEST POP JUMP JUMPDEST PUSH2 0xC97 DUP2 PUSH2 0xB30 JUMP JUMPDEST DUP2 EQ PUSH2 0xCA2 JUMPI PUSH1 0x0 DUP1 REVERT JUMPDEST POP JUMP JUMPDEST PUSH2 0xCAE DUP2 PUSH2 0xB42 JUMP JUMPDEST DUP2 EQ PUSH2 0xCB9 JUMPI PUSH1 0x0 DUP1 REVERT JUMPDEST POP JUMP JUMPDEST PUSH2 0xCC5 DUP2 PUSH2 0xB6C JUMP JUMPDEST DUP2 EQ PUSH2 0xCD0 JUMPI PUSH1 0x0 DUP1 REVERT JUMPDEST POP JUMP INVALID LOG2 PUSH5 0x6970667358 0x22 SLT KECCAK256 DUP11 0x23 SWAP2 SWAP16 SWAP8 SLOAD MOD 0xAE 0xB0 0x28 PUSH31 0xFBBFBF9A0FBCCC66700C7C7EA3761012EB5977966264736F6C634300080600 CALLER "
    },
    "gasEstimates": {
      "creation": {
        "codeDepositCost": "667400",
        "executionCost": "infinite",
        "totalCost": "infinite"
      },
      "external": {
        "approve(address)": "infinite",
        "approved(uint256)": "4934",
        "createVendor(address,address,uint256,uint256,uint256,uint256,uint256,uint256,int256)": "infinite"
      }
    },
    "methodIdentifiers": {
      "approve(address)": "daea85c5",
      "approved(uint256)": "7d4061e6",
      "createVendor(address,address,uint256,uint256,uint256,uint256,uint256,uint256,int256)": "8e166a2a"
    }
  },
  "storageLayout": {
    "storage": [
      {
        "astId": 751,
        "contract": "VendorFactory.sol:VendorFactory",
        "label": "admin",
        "offset": 0,
        "slot": "0",
        "type": "t_address"
      },
      {
        "astId": 753,
        "contract": "VendorFactory.sol:VendorFactory",
        "label": "implementation",
        "offset": 0,
        "slot": "1",
        "type": "t_address"
      },
      {
        "astId": 756,
        "contract": "VendorFactory.sol:VendorFactory",
        "label": "approved",
        "offset": 0,
        "slot": "2",
        "type": "t_array(t_address)dyn_storage"
      },
      {
        "astId": 760,
        "contract": "VendorFactory.sol:VendorFactory",
        "label": "pendingIndex",
        "offset": 0,
        "slot": "3",
        "type": "t_mapping(t_address,t_int256)"
      }
    ],
    "types": {
      "t_address": {
        "encoding": "inplace",
        "label": "address",
        "numberOfBytes": "20"
      },
      "t_array(t_address)dyn_storage": {
        "base": "t_address",
        "encoding": "dynamic_array",
        "label": "address[]",
        "numberOfBytes": "32"
      },
      "t_int256": {
        "encoding": "inplace",
        "label": "int256",
        "numberOfBytes": "32"
      },
      "t_mapping(t_address,t_int256)": {
        "encoding": "mapping",
        "key": "t_address",
        "label": "mapping(address => int256)",
        "numberOfBytes": "32",
        "value": "t_int256"
      }
    }
  },
  "userdoc": {
    "kind": "user",
    "methods": {},
    "version": 1
  }
}